0237720198999992005010100004+40200-079833FM-15+0373KP53 V0203001N005719999999N9999999N1-00101-00801101521ADDAA106000391KA1999M+00281KA2999N-00111MA1101461999999MD1110701+9999MW1001OC101081REMMET110KP53 312356Z AUTO 30011G21KT M01/M08 A2996 RMK AO2 SLP152 60001 T10111078 10028 21011 51070 PWINO FZRANO TSNO;EQDQ01+000000PRSWM2Q02  00038PRCP06
0162720198999992005010101004+40200-079833FM-15+0373KP53 V0203301N005119999999N9999999N1-00301-00501101761ADDMA1101691999999MW1001OC101081REMMET086KP53 010056Z AUTO 33010G21KT M03/M05 A3003 RMK AO2 SLP176 T10281050 PWINO FZRANO TSNO;EQDQ01+000000PRSWM2Q02  00002PRCP06
0146720198999992005010102004+40200-079833FM-15+0373KP53 V0203301N008212200019N9999999N1-00401-00701101941ADDMA1101861999999MW1001OC101231REMMET086KP53 010156Z AUTO 33016G24KT M04/M07 A3008 RMK AO2 SLP194 T10391072 PWINO FZRANO TSNO;EQDQ01+000000PRSWM2
0191720198999992005010103004+40200-079833FM-15+0373KP53 V0203301N009312200019N9999999N1-00401-00801102151ADDMA1102071999999MD1110621+9999MW1001OC101441REMMET117KP53 010256Z AUTO 33018G28KT M04/M08 A3014 RMK AO2 PK WND 31028/0249 PRESRR SLP215 T10391083 51062 PWINO FZRANO TSNO;EQDQ01+000000PRSWM2
0180720198999992005010104004+40200-079833FM-15+0373KP53 V0203101N006719999999N9999999N1-00401-00801102341ADDMA1102271999999MW1001OC101031REMMET104KP53 010356Z AUTO 31013G20KT M04/M08 A3020 RMK AO2 PK WND 31027/0315 SLP234 T10441083 PWINO FZRANO TSNO;EQDQ01+000000PRSWM2Q02  00002PRCP06
0200720198999992005010105004+40200-079833FM-15+0373KP53 V0203301N008219999999N9999999N1-00401-00801102401ADDKA1999M+00781KA2999N-00441MA1102301999999MW1001OC101341REMMET114KP53 010456Z AUTO 33016G26KT M04/M08 A3021 RMK AO2 PK WND 31030/0401 SLP240 T10441078 400781044 PWINO FZRANO TSNO;EQDQ01+000000PRSWM2
0211720198999992005010106004+40200-079833FM-15+0373KP53 V0203501N008219999999N9999999N1-00401-00701102491ADDKA1999M-00111KA2999N-00441MA1102401999999MD1110331+9999MW1001REMMET119KP53 010556Z AUTO 35016KT M04/M07 A3024 RMK AO2 PK WND 32028/0504 SLP249 T10441072 11011 21044 51033 PWINO FZRANO TSNO;EQDQ01+000000PRSWM2
0162720198999992005010107004+40200-079833FM-15+0373KP53 V0203501N007719999999N9999999N1-00401-00801102661ADDMA1102571999999MW1001OC101031REMMET086KP53 010656Z AUTO 35015G20KT M04/M08 A3029 RMK AO2 SLP266 T10441083 PWINO FZRANO TSNO;EQDQ01+000000PRSWM2Q02  00002PRCP06
0146720198999992005010108004+40200-079833FM-15+0373KP53 V0203401N007212200019N9999999N1-00401-00701102801ADDMA1102711999999MW1001OC101291REMMET086KP53 010756Z AUTO 34014G25KT M04/M07 A3033 RMK AO2 SLP280 T10391067 PWINO FZRANO TSNO;EQDQ01+000000PRSWM2
0155720198999992005010109004+40200-079833FM-15+0373KP53 V0203501N007712200019N9999999N1-00401-00701102931ADDMA1102841999999MD1110421+9999MW1001REMMET089KP53 010856Z AUTO 35015KT M04/M07 A3037 RMK AO2 SLP293 T10391067 51042 PWINO FZRANO TSNO;EQDQ01+000000PRSWM2
0151720198999992005010110004+40200-079833FM-15+0373KP53 V0200201N008719999999N9999999N1-00401-00701102971ADDMA1102881999999MW1001REMMET083KP53 010956Z AUTO 02017KT M04/M07 A3038 RMK AO2 SLP297 T10391072 PWINO FZRANO TSNO;EQDQ01+000000PRSWM2Q02  00002PRCP06
0135720198999992005010111004+40200-079833FM-15+0373KP53 V0200201N006712200019N9999999N1-00401-00701103151ADDMA1103051999999MW1001REMMET083KP53 011056Z AUTO 02013KT M04/M07 A3043 RMK AO2 SLP315 T10441072 PWINO FZRANO TSNO;EQDQ01+000000PRSWM2
0226720198999992005010112004+40200-079833FM-15+0373KP53 V0203401N004619999999N9999999N1-00501-00801103401ADDAA124000391KA1999M-00391KA2999N-00501MA1103291999999MD1310451+9999MW1001REMMET107KP53 011156Z AUTO 34009KT M05/M08 A3050 RMK AO2 SLP340 70001 T10501078 11039 21050 53045 PWINO FZRANO TSNO;EQDQ01+000000PRSWM2Q02  00038PRCP24
0165720198999992005010113004+40200-079833FM-15+0373KP53 V0200201N007719999999N9999999N1-00401-00801103371ADDMA1103251999999MD1999999+0001MW1001REMMET083KP53 011256Z AUTO 02015KT M04/M08 A3049 RMK AO2 SLP337 T10441083 PWINO FZRANO TSNO;EQDQ01+000000PRSWM2Q02  00002PRCP06
0135720198999992005010114004+40200-079833FM-15+0373KP53 V0200101N007212200019N9999999N1-00401-00901103491ADDMA1103391999999MW1001REMMET083KP53 011356Z AUTO 01014KT M04/M09 A3053 RMK AO2 SLP349 T10441089 PWINO FZRANO TSNO;EQDQ01+000000PRSWM2
0155720198999992005010115004+40200-079833FM-15+0373KP53 V0200301N007712200019N9999999N1-00501-00901103571ADDMA1103451999999MD1310161+9999MW1001REMMET089KP53 011456Z AUTO 03015KT M05/M09 A3055 RMK AO2 SLP357 T10501089 53016 PWINO FZRANO TSNO;EQDQ01+000000PRSWM2
0151720198999992005010116004+40200-079833FM-15+0373KP53 V0200601N004619999999N9999999N1-00501-01001103711ADDMA1103591999999MW1001REMMET083KP53 011556Z AUTO 06009KT M05/M10 A3059 RMK AO2 SLP371 T10501100 PWINO FZRANO TSNO;EQDQ01+000000PRSWM2Q02  00002PRCP06
0135720198999992005010117004+40200-079833FM-15+0373KP53 V0200501N005712200019N9999999N1-00501-00901103721ADDMA1103621999999MW1001REMMET083KP53 011656Z AUTO 05011KT M05/M09 A3060 RMK AO2 SLP372 T10501094 PWINO FZRANO TSNO;EQDQ01+000000PRSWM2
0193720198999992005010118004+40200-079833FM-15+0373KP53 V0200201N006219999999N9999999N1-00501-00901103651ADDKA1999M-00441KA2999N-00501MA1103521999999MD1010081+9999MW1001REMMET101KP53 011756Z AUTO 02012KT M05/M09 A3057 RMK AO2 SLP365 T10501094 11044 21050 50008 PWINO FZRANO TSNO;EQDQ01+000000PRSWM2
0151720198999992005010119004+40200-079833FM-15+0373KP53 V0200301N006219999999N9999999N1-00401-00901103601ADDMA1103491999999MW1001REMMET083KP53 011856Z AUTO 03012KT M04/M09 A3056 RMK AO2 SLP360 T10441089 PWINO FZRANO TSNO;EQDQ01+000000PRSWM2Q02  00002PRCP06
0135720198999992005010120004+40200-079833FM-15+0373KP53 V0200201N004612200019N9999999N1-00401-00901103571ADDMA1103451999999MW1001REMMET083KP53 011956Z AUTO 02009KT M04/M09 A3055 RMK AO2 SLP357 T10441089 PWINO FZRANO TSNO;EQDQ01+000000PRSWM2
0155720198999992005010121004+40200-079833FM-15+0373KP53 V0200101N004112200019N9999999N1-00401-01001103631ADDMA1103521999999MD1510021+9999MW1001REMMET089KP53 012056Z AUTO 01008KT M04/M10 A3057 RMK AO2 SLP363 T10441100 55002 PWINO FZRANO TSNO;EQDQ01+000000PRSWM2
0151720198999992005010122004+40200-079833FM-15+0373KP53 V0200801N004119999999N9999999N1-00401-01101103561ADDMA1103451999999MW1001REMMET083KP53 012156Z AUTO 08008KT M04/M11 A3055 RMK AO2 SLP356 T10441111 PWINO FZRANO TSNO;EQDQ01+000000PRSWM2Q02  00002PRCP06
0135720198999992005010123004+40200-079833FM-15+0373KP53 V0200801N003612200019N9999999N1-00501-01201103521ADDMA1103421999999MW1001REMMET083KP53 012256Z AUTO 08007KT M05/M12 A3054 RMK AO2 SLP352 T10501117 PWINO FZRANO TSNO;EQDQ01+000000PRSWM2
0193720198999992005010200004+40200-079833FM-15+0373KP53 V0209999V003119999999N9999999N1-00601-01201103481ADDKA1999M-00441KA2999N-00561MA1103351999999MD1610161+9999MW1001REMMET101KP53 012356Z AUTO VRB06KT M06/M12 A3052 RMK AO2 SLP348 T10561122 11044 21056 56016 PWINO FZRANO TSNO;EQDQ01+000000PRSWM2
0151720198999992005010201004+40200-079833FM-15+0373KP53 V0209999V002119999999N9999999N1-00601-01301103401ADDMA1103291999999MW1001REMMET083KP53 020056Z AUTO VRB04KT M06/M13 A3050 RMK AO2 SLP340 T10561133 PWINO FZRANO TSNO;EQDQ01+000000PRSWM2Q02  00002PRCP06
0144720198999992005010202004+40200-079833FM-15+0373KP53 V02099999999999999999N9999999N1+99999+99999103201ADDKA1999M-00071MW1001REMMET094KP53 020156Z AUTO 11007G14KT 090V160 M07/M11 A3044 RMK AO2 SLP320 T10671111 PWINO FZRANO TSNO;EQDQ01+000000PRSWM2
0189720198999992005010203004+40200-079833FM-15+0373KP53 V0201301N004119999999N9999999N1-00701-01001103031ADDAA101000591AA203000591MA1102911999999MD1810441+9999MW1001REMMET101KP53 020256Z AUTO 13008KT M07/M10 A3039 RMK AO2 SLP303 P0002 60002 T10671100 58044 PWINO FZRANO TSNO;EQDQ01+000000PRSWM2
0151720198999992005010204004+40200-079833FM-15+0373KP53 V0201501N003119999999N9999999N1-00701-01001102881ADDMA1102781999999MW1001REMMET083KP53 020356Z AUTO 15006KT M07/M10 A3035 RMK AO2 SLP288 T10671100 PWINO FZRANO TSNO;EQDQ01+000000PRSWM2Q02  00002PRCP06
0171720198999992005010205004+40200-079833FM-15+0373KP53 V0201601N004119999999N9999999N1-00601-00901102641ADDKA1999M-00391KA2999N-00721MA1102511999999MW1001REMMET093KP53 020456Z AUTO 16008KT M06/M09 A3027 RMK AO2 SLP264 T10561089 410391072 PWINO FZRANO TSNO;EQDQ01+000000PRSWM2
0237720198999992005010206004+40200-079833FM-15+0373KP53 V0201601N005719999999N9999999N1-00301-00701102501ADDAA106000591KA1999M-00331KA2999N-00721MA1102401999999MD1610511+9999MW1001OC101181REMMET110KP53 020556Z AUTO 16011G23KT M03/M07 A3024 RMK AO2 SLP250 60002 T10331072 11033 21072 56051 PWINO FZRANO TSNO;EQDQ01+000000PRSWM2Q02  00058PRCP06
0179720198999992005010207004+40200-079833FM-15+0373KP53 V0201601N005719999999N9999999N1-00301-00601102231ADDAA101000591MA1102131999999MW1001OC101131REMMET092KP53 020656Z AUTO 16011G22KT M03/M06 A3016 RMK AO2 SLP223 P0002 T10331061 PWINO FZRANO TSNO;EQDQ01+000000PRSWM2Q02  00002PRCP06
0163720198999992005010208004+40200-079833FM-15+0373KP53 V0201701N005119999999N9999999N1-00301-00601102221ADDAA101001391MA1102131999999MW1001OC100721REMMET092KP53 020756Z AUTO 17010G14KT M03/M06 A3016 RMK AO2 SLP222 P0005 T10281056 PWINO FZRANO TSNO;EQDQ01+000000PRSWM2
0189720198999992005010209004+40200-079833FM-15+0373KP53 V0209999V002619999999N9999999N1-00301-00401102131ADDAA101001391AA203003091MA1102031999999MD1610361+9999MW1001REMMET101KP53 020856Z AUTO VRB05KT M03/M04 A3013 RMK AO2 SLP213 P0005 60012 T10281044 56036 PWINO FZRANO TSNO;EQDQ01+000000PRSWM2
0168720198999992005010210004+40200-079833FM-15+0373KP53 V0209999C000019999999N9999999N1-00301-00401102041ADDAA101001391MA1101931999999MW1001REMMET089KP53 020956Z AUTO 00000KT M03/M04 A3010 RMK AO2 SLP204 P0005 T10281039 PWINO FZRANO TSNO;EQDQ01+000000PRSWM2Q02  00002PRCP06
0135720198999992005010211004+40200-079833FM-15+0373KP53 V0201801N002112200019N9999999N1-00201-00401101931ADDMA1101831999999MW1001REMMET083KP53 021056Z AUTO 18004KT M02/M04 A3007 RMK AO2 SLP193 T10221039 PWINO FZRANO TSNO;EQDQ01+000000PRSWM2
0259720198999992005010212004+40200-079833FM-15+0373KP53 V0201901N001519999999N9999999N1-00201-00301101831ADDAA106004391AA224004891KA1999M-00221KA2999N-00331MA1101731999999MD1810291+9999MW1001REMMET113KP53 021156Z AUTO 19003KT M02/M03 A3004 RMK AO2 SLP183 60017 70019 T10221028 11022 21033 58029 PWINO FZRANO TSNO;EQDQ01+000000PRSWM2Q02  00438PRCP06Q03  00488PRCP24
0165720198999992005010213004+40200-079833FM-15+0373KP53 V0202001N002619999999N9999999N1-00101-00201101811ADDMA1101691999999MD1999999+0001MW1001REMMET083KP53 021256Z AUTO 20005KT M01/M02 A3003 RMK AO2 SLP181 T10111022 PWINO FZRANO TSNO;EQDQ01+000000PRSWM2Q02  00002PRCP06
0134720198999992005010214004+40200-079833FM-15+0373KP53 V0202101N003112200019N9999999N1+00001-00101101881ADDMA1101761999999MW1001REMMET082KP53 021356Z AUTO 21006KT 00/M01 A3005 RMK AO2 SLP188 T00001011 PWINO FZRANO TSNO;EQDQ01+000000PRSWM2
0154720198999992005010215004+40200-079833FM-15+0373KP53 V0202101N002612200019N9999999N1+00001-00101101911ADDMA1101801999999MD1310081+9999MW1001REMMET088KP53 021456Z AUTO 21005KT 00/M01 A3006 RMK AO2 SLP191 T00001011 53008 PWINO FZRANO TSNO;EQDQ01+000000PRSWM2
0150720198999992005010216004+40200-079833FM-15+0373KP53 V0202401N002119999999N9999999N1+00101-00201101881ADDMA1101801999999MW1001REMMET082KP53 021556Z AUTO 24004KT 01/M02 A3006 RMK AO2 SLP188 T00061017 PWINO FZRANO TSNO;EQDQ01+000000PRSWM2Q02  00002PRCP06
0134720198999992005010217004+40200-079833FM-15+0373KP53 V0203101N003612200019N9999999N1+00101-00201101951ADDMA1101861999999MW1001REMMET082KP53 021656Z AUTO 31007KT 01/M02 A3008 RMK AO2 SLP195 T00111022 PWINO FZRANO TSNO;EQDQ01+000000PRSWM2
0192720198999992005010218004+40200-079833FM-15+0373KP53 V0203101N004619999999N9999999N1+00101-00301101931ADDKA1999M+00111KA2999N-00221MA1101831999999MD1310031+9999MW1001REMMET100KP53 021756Z AUTO 31009KT 01/M03 A3007 RMK AO2 SLP193 T00111028 10011 21022 53003 PWINO FZRANO TSNO;EQDQ01+000000PRSWM2
0150720198999992005010219004+40200-079833FM-15+0373KP53 V0202901N003619999999N9999999N1+00101-00401101961ADDMA1101861999999MW1001REMMET082KP53 021856Z AUTO 29007KT 01/M04 A3008 RMK AO2 SLP196 T00111039 PWINO FZRANO TSNO;EQDQ01+000000PRSWM2Q02  00002PRCP06
0134720198999992005010220004+40200-079833FM-15+0373KP53 V0203101N004112200019N9999999N1+00101-00401101981ADDMA1101901999999MW1001REMMET082KP53 021956Z AUTO 31008KT 01/M04 A3009 RMK AO2 SLP198 T00111039 PWINO FZRANO TSNO;EQDQ01+000000PRSWM2
0154720198999992005010221004+40200-079833FM-15+0373KP53 V0203101N003112200019N9999999N1+00101-00401102071ADDMA1102001999999MD1310151+9999MW1001REMMET088KP53 022056Z AUTO 31006KT 01/M04 A3012 RMK AO2 SLP207 T00111039 53015 PWINO FZRANO TSNO;EQDQ01+000000PRSWM2
0150720198999992005010222004+40200-079833FM-15+0373KP53 V0209999C000019999999N9999999N1+00001-00501102151ADDMA1102071999999MW1001REMMET082KP53 022156Z AUTO 00000KT 00/M05 A3014 RMK AO2 SLP215 T00001050 PWINO FZRANO TSNO;EQDQ01+000000PRSWM2Q02  00002PRCP06
0135720198999992005010223004+40200-079833FM-15+0373KP53 V0201901N001512200019N9999999N1-00301-00501102241ADDMA1102131999999MW1001REMMET083KP53 022256Z AUTO 19003KT M03/M05 A3016 RMK AO2 SLP224 T10281050 PWINO FZRANO TSNO;EQDQ01+000000PRSWM2
0193720198999992005010300004+40200-079833FM-15+0373KP53 V0202001N002119999999N9999999N1-00301-00601102321ADDKA1999M+00111KA2999N-00331MA1102241999999MD1310231+9999MW1001REMMET101KP53 022356Z AUTO 20004KT M03/M06 A3019 RMK AO2 SLP232 T10331056 10011 21033 53023 PWINO FZRANO TSNO;EQDQ01+000000PRSWM2
0151720198999992005010301004+40200-079833FM-15+0373KP53 V0202401N003119999999N9999999N1-00301-00601102371ADDMA1102271999999MW1001REMMET083KP53 030056Z AUTO 24006KT M03/M06 A3020 RMK AO2 SLP237 T10281061 PWINO FZRANO TSNO;EQDQ01+000000PRSWM2Q02  00002PRCP06
0135720198999992005010302004+40200-079833FM-15+0373KP53 V0209999V002612200019N9999999N1-00201-00801102441ADDMA1102371999999MW1001REMMET083KP53 030156Z AUTO VRB05KT M02/M08 A3023 RMK AO2 SLP244 T10171078 PWINO FZRANO TSNO;EQDQ01+000000PRSWM2
0155720198999992005010303004+40200-079833FM-15+0373KP53 V0202701N003612200019N9999999N1-00201-00901102491ADDMA1102401999999MD1110171+9999MW1001REMMET089KP53 030256Z AUTO 27007KT M02/M09 A3024 RMK AO2 SLP249 T10221089 51017 PWINO FZRANO TSNO;EQDQ01+000000PRSWM2
0151720198999992005010304004+40200-079833FM-15+0373KP53 V0202901N002619999999N9999999N1-00301-00901102551ADDMA1102441999999MW1001REMMET083KP53 030356Z AUTO 29005KT M03/M09 A3025 RMK AO2 SLP255 T10281089 PWINO FZRANO TSNO;EQDQ01+000000PRSWM2Q02  00002PRCP06
0171720198999992005010305004+40200-079833FM-15+0373KP53 V0203001N003119999999N9999999N1-00301-00901102641ADDKA1999M+00111KA2999N-00561MA1102541999999MW1001REMMET093KP53 030456Z AUTO 30006KT M03/M09 A3028 RMK AO2 SLP264 T10331089 400111056 PWINO FZRANO TSNO;EQDQ01+000000PRSWM2
0193720198999992005010306004+40200-079833FM-15+0373KP53 V0203101N005119999999N9999999N1-00401-00901102661ADDKA1999M-00111KA2999N-00391MA1102571999999MD1110161+9999MW1001REMMET101KP53 030556Z AUTO 31010KT M04/M09 A3029 RMK AO2 SLP266 T10391089 11011 21039 51016 PWINO FZRANO TSNO;EQDQ01+000000PRSWM2
0151720198999992005010307004+40200-079833FM-15+0373KP53 V0202701N002619999999N9999999N1-00401-00901102701ADDMA1102611999999MW1001REMMET083KP53 030656Z AUTO 27005KT M04/M09 A3030 RMK AO2 SLP270 T10441094 PWINO FZRANO TSNO;EQDQ01+000000PRSWM2Q02  00002PRCP06
0135720198999992005010308004+40200-079833FM-15+0373KP53 V0202701N004112200019N9999999N1-00601-01001102721ADDMA1102611999999MW1001REMMET083KP53 030756Z AUTO 27008KT M06/M10 A3030 RMK AO2 SLP272 T10561100 PWINO FZRANO TSNO;EQDQ01+000000PRSWM2
0155720198999992005010309004+40200-079833FM-15+0373KP53 V0203201N004612200019N9999999N1-00401-00801102741ADDMA1102641999999MD1110081+9999MW1001REMMET089KP53 030856Z AUTO 32009KT M04/M08 A3031 RMK AO2 SLP274 T10441083 51008 PWINO FZRANO TSNO;EQDQ01+000000PRSWM2
0151720198999992005010310004+40200-079833FM-15+0373KP53 V0203201N005119999999N9999999N1-00401-00801102721ADDMA1102611999999MW1001REMMET083KP53 030956Z AUTO 32010KT M04/M08 A3030 RMK AO2 SLP272 T10391078 PWINO FZRANO TSNO;EQDQ01+000000PRSWM2Q02  00002PRCP06
0135720198999992005010311004+40200-079833FM-15+0373KP53 V0203201N004612200019N9999999N1-00401-00701102761ADDMA1102641999999MW1001REMMET083KP53 031056Z AUTO 32009KT M04/M07 A3031 RMK AO2 SLP276 T10391072 PWINO FZRANO TSNO;EQDQ01+000000PRSWM2
0202720198999992005010312004+40200-079833FM-15+0373KP53 V02099999999999999999N9999999N1+99999+99999102751ADDKA1999M-00391KA2999N-00561MD1310011+9999MW1001REMMET109KP53 031156Z AUTO 31007KT 280V350 M04/M07 A3031 RMK AO2 SLP275 T10391072 11039 21056 53000 PWINO FZRANO TSNO;EQDQ01+000002APC3  Q02+000000PRSWM2
0165720198999992005010313004+40200-079833FM-15+0373KP53 V0202301N002619999999N9999999N1-00701-01101102831ADDMA1102741999999MD1999999+0001MW1001REMMET083KP53 031256Z AUTO 23005KT M07/M11 A3034 RMK AO2 SLP283 T10671106 PWINO FZRANO TSNO;EQDQ01+000000PRSWM2Q02  00002PRCP06
0135720198999992005010314004+40200-079833FM-15+0373KP53 V0209999V003112200019N9999999N1-00701-01101102861ADDMA1102741999999MW1001REMMET083KP53 031356Z AUTO VRB06KT M07/M11 A3034 RMK AO2 SLP286 T10721111 PWINO FZRANO TSNO;EQDQ01+000000PRSWM2
0155720198999992005010315004+40200-079833FM-15+0373KP53 V0202301N003612200019N9999999N1-00701-01101102901ADDMA1102781999999MD1110151+9999MW1001REMMET089KP53 031456Z AUTO 23007KT M07/M11 A3035 RMK AO2 SLP290 T10721111 51015 PWINO FZRANO TSNO;EQDQ01+000000PRSWM2
0151720198999992005010316004+40200-079833FM-15+0373KP53 V0202501N003619999999N9999999N1-00701-01101102941ADDMA1102841999999MW1001REMMET083KP53 031556Z AUTO 25007KT M07/M11 A3037 RMK AO2 SLP294 T10671106 PWINO FZRANO TSNO;EQDQ01+000000PRSWM2Q02  00002PRCP06
0135720198999992005010317004+40200-079833FM-15+0373KP53 V0202901N003612200019N9999999N1-00601-01001102851ADDMA1102741999999MW1001REMMET083KP53 031656Z AUTO 29007KT M06/M10 A3034 RMK AO2 SLP285 T10611100 PWINO FZRANO TSNO;EQDQ01+000000PRSWM2
0193720198999992005010318004+40200-079833FM-15+0373KP53 V0202901N003619999999N9999999N1-00601-00901102821ADDKA1999M-00391KA2999N-00721MA1102711999999MD1810071+9999MW1001REMMET101KP53 031756Z AUTO 29007KT M06/M09 A3033 RMK AO2 SLP282 T10561094 11039 21072 58007 PWINO FZRANO TSNO;EQDQ01+000000PRSWM2
0151720198999992005010319004+40200-079833FM-15+0373KP53 V0202801N005719999999N9999999N1-00501-00901102801ADDMA1102681999999MW1001REMMET083KP53 031856Z AUTO 28011KT M05/M09 A3032 RMK AO2 SLP280 T10501094 PWINO FZRANO TSNO;EQDQ01+000000PRSWM2Q02  00002PRCP06
0135720198999992005010320004+40200-079833FM-15+0373KP53 V0203101N005712200019N9999999N1-00501-00901102771ADDMA1102641999999MW1001REMMET083KP53 031956Z AUTO 31011KT M05/M09 A3031 RMK AO2 SLP277 T10501094 PWINO FZRANO TSNO;EQDQ01+000000PRSWM2
0151720198999992005010322004+40200-079833FM-15+0373KP53 V0203101N004119999999N9999999N1-00601-00901102781ADDMA1102681999999MW1001REMMET083KP53 032156Z AUTO 31008KT M06/M09 A3032 RMK AO2 SLP278 T10561094 PWINO FZRANO TSNO;EQDQ01+000000PRSWM2Q02  00002PRCP06
0135720198999992005010323004+40200-079833FM-15+0373KP53 V0203101N004612200019N9999999N1-00601-01001102821ADDMA1102711999999MW1001REMMET083KP53 032256Z AUTO 31009KT M06/M10 A3033 RMK AO2 SLP282 T10561100 PWINO FZRANO TSNO;EQDQ01+000000PRSWM2
0193720198999992005010400004+40200-079833FM-15+0373KP53 V0203001N003119999999N9999999N1-00601-00901102811ADDKA1999M-00501KA2999N-00611MA1102711999999MD1010071+9999MW1001REMMET101KP53 032356Z AUTO 30006KT M06/M09 A3033 RMK AO2 SLP281 T10561094 11050 21061 50007 PWINO FZRANO TSNO;EQDQ01+000000PRSWM2
0151720198999992005010401004+40200-079833FM-15+0373KP53 V0203201N004119999999N9999999N1-00501-00901102831ADDMA1102711999999MW1001REMMET083KP53 040056Z AUTO 32008KT M05/M09 A3033 RMK AO2 SLP283 T10501089 PWINO FZRANO TSNO;EQDQ01+000000PRSWM2Q02  00002PRCP06
0135720198999992005010402004+40200-079833FM-15+0373KP53 V0202901N002612200019N9999999N1-00601-00901102841ADDMA1102711999999MW1001REMMET083KP53 040156Z AUTO 29005KT M06/M09 A3033 RMK AO2 SLP284 T10611094 PWINO FZRANO TSNO;EQDQ01+000000PRSWM2
0155720198999992005010403004+40200-079833FM-15+0373KP53 V0202701N003112200019N9999999N1-00701-01101102901ADDMA1102781999999MD1310061+9999MW1001REMMET089KP53 040256Z AUTO 27006KT M07/M11 A3035 RMK AO2 SLP290 T10721111 53006 PWINO FZRANO TSNO;EQDQ01+000000PRSWM2
0151720198999992005010404004+40200-079833FM-15+0373KP53 V0209999V002619999999N9999999N1-00701-01101102881ADDMA1102741999999MW1001REMMET083KP53 040356Z AUTO VRB05KT M07/M11 A3034 RMK AO2 SLP288 T10721111 PWINO FZRANO TSNO;EQDQ01+000000PRSWM2Q02  00002PRCP06
0171720198999992005010405004+40200-079833FM-15+0373KP53 V0202001N002619999999N9999999N1-00801-01201102861ADDKA1999M-00331KA2999N-00781MA1102741999999MW1001REMMET093KP53 040456Z AUTO 20005KT M08/M12 A3034 RMK AO2 SLP286 T10781117 410331078 PWINO FZRANO TSNO;EQDQ01+000000PRSWM2
0193720198999992005010406004+40200-079833FM-15+0373KP53 V0209999V001519999999N9999999N1-00801-01201102871ADDKA1999M-00441KA2999N-00781MA1102741999999MD1510021+9999MW1001REMMET101KP53 040556Z AUTO VRB03KT M08/M12 A3034 RMK AO2 SLP287 T10781117 11044 21078 55002 PWINO FZRANO TSNO;EQDQ01+000000PRSWM2
0151720198999992005010407004+40200-079833FM-15+0373KP53 V0202701N005119999999N9999999N1-00701-01101102851ADDMA1102741999999MW1001REMMET083KP53 040656Z AUTO 27010KT M07/M11 A3034 RMK AO2 SLP285 T10721111 PWINO FZRANO TSNO;EQDQ01+000000PRSWM2Q02  00002PRCP06
0135720198999992005010408004+40200-079833FM-15+0373KP53 V0202501N003612200019N9999999N1-00801-01201102871ADDMA1102741999999MW1001REMMET083KP53 040756Z AUTO 25007KT M08/M12 A3034 RMK AO2 SLP287 T10781117 PWINO FZRANO TSNO;EQDQ01+000000PRSWM2
0171720198999992005010409004+40200-079833FM-15+0373KP53 V0202201N003112200019N9999999N1-00801-01201102871ADDMA1102741999999MD1410001+9999MW1001REMMET089KP53 040856Z AUTO 22006KT M08/M12 A3034 RMK AO2 SLP287 T10781117 53000 PWINO FZRANO TSNO;EQDQ01+000032APCTENQ02+000000PRSWM2
0151720198999992005010410004+40200-079833FM-15+0373KP53 V0202201N004119999999N9999999N1-00801-01201102871ADDMA1102741999999MW1001REMMET083KP53 040956Z AUTO 22008KT M08/M12 A3034 RMK AO2 SLP287 T10781122 PWINO FZRANO TSNO;EQDQ01+000000PRSWM2Q02  00002PRCP06
0135720198999992005010411004+40200-079833FM-15+0373KP53 V0202101N002612200019N9999999N1-00801-01201102831ADDMA1102711999999MW1001REMMET083KP53 041056Z AUTO 21005KT M08/M12 A3033 RMK AO2 SLP283 T10831122 PWINO FZRANO TSNO;EQDQ01+000000PRSWM2
0193720198999992005010412004+40200-079833FM-15+0373KP53 V0201801N002119999999N9999999N1-00801-01201102871ADDKA1999M-00721KA2999N-00831MA1102741999999MD1510001+9999MW1001REMMET101KP53 041156Z AUTO 18004KT M08/M12 A3034 RMK AO2 SLP287 T10781117 11072 21083 55000 PWINO FZRANO TSNO;EQDQ01+000000PRSWM2
0165720198999992005010413004+40200-079833FM-15+0373KP53 V0201801N002619999999N9999999N1-00801-01101102891ADDMA1102781999999MD1999999+0001MW1001REMMET083KP53 041256Z AUTO 18005KT M08/M11 A3035 RMK AO2 SLP289 T10831111 PWINO FZRANO TSNO;EQDQ01+000000PRSWM2Q02  00002PRCP06
0152720198999992005010414004+40200-079833FM-15+0373KP53 V0209999V002119999999N9999999N1-00801-01101102901ADDAA101000391MA1102781999999MW1001REMMET089KP53 041356Z AUTO VRB04KT M08/M11 A3035 RMK AO2 SLP290 P0001 T10831111 PWINO FZRANO TSNO;EQDQ01+000000PRSWM2
0204720198999992005010415004+40200-079833FM-15+0373KP53 V0201501N002619999999N9999999N1-00801-01101102911ADDAA103000391MA1102781999999MD1110031+9999MW1001REMMET095KP53 041456Z AUTO 15005KT M08/M11 A3035 RMK AO2 SLP291 60001 T10781111 51003 PWINO FZRANO TSNO;EQDQ01+000000PRSWM2Q02  00002PRCP03Q03  00008PRCP03
0151720198999992005010416004+40200-079833FM-15+0373KP53 V0202701N004619999999N9999999N1-00601-01101102901ADDMA1102781999999MW1001REMMET083KP53 041556Z AUTO 27009KT M06/M11 A3035 RMK AO2 SLP290 T10561106 PWINO FZRANO TSNO;EQDQ01+000000PRSWM2Q02  00002PRCP06
0135720198999992005010417004+40200-079833FM-15+0373KP53 V0209999V002112200019N9999999N1-00501-00901102911ADDMA1102781999999MW1001REMMET083KP53 041656Z AUTO VRB04KT M05/M09 A3035 RMK AO2 SLP291 T10501094 PWINO FZRANO TSNO;EQDQ01+000000PRSWM2
0237720198999992005010418004+40200-079833FM-15+0373KP53 V0203001N005119999999N9999999N1-00401-00901102831ADDAA106000391KA1999M-00391KA2999N-00831MA1102711999999MD1810061+9999MW1001OC100771REMMET110KP53 041756Z AUTO 30010G15KT M04/M09 A3033 RMK AO2 SLP283 60001 T10391089 11039 21083 58006 PWINO FZRANO TSNO;EQDQ01+000000PRSWM2Q02  00038PRCP06
0151720198999992005010419004+40200-079833FM-15+0373KP53 V0202901N005119999999N9999999N1-00401-00901102821ADDMA1102711999999MW1001REMMET083KP53 041856Z AUTO 29010KT M04/M09 A3033 RMK AO2 SLP282 T10391089 PWINO FZRANO TSNO;EQDQ01+000000PRSWM2Q02  00002PRCP06
0135720198999992005010420004+40200-079833FM-15+0373KP53 V0203101N006212200019N9999999N1-00401-00701102841ADDMA1102711999999MW1001REMMET083KP53 041956Z AUTO 31012KT M04/M07 A3033 RMK AO2 SLP284 T10441072 PWINO FZRANO TSNO;EQDQ01+000000PRSWM2
0184720198999992005010421004+40200-079833FM-15+0373KP53 V0203201N009312200019N9999999N1-00501-00801102901ADDMA1102781999999MD1310071+9999MW1001OC101341REMMET110KP53 042056Z AUTO 32018G26KT M05/M08 A3035 RMK AO2 PK WND 32026/2054 SLP290 T10501083 53007 PWINO FZRANO TSNO;EQDQ01+000000PRSWM2
0180720198999992005010422004+40200-079833FM-15+0373KP53 V0203101N008719999999N9999999N1-00601-01101103041ADDMA1102911999999MW1001OC101341REMMET104KP53 042156Z AUTO 31017G26KT M06/M11 A3039 RMK AO2 PK WND 33026/2149 SLP304 T10611106 PWINO FZRANO TSNO;EQDQ01+000000PRSWM2Q02  00002PRCP06
0146720198999992005010423004+40200-079833FM-15+0373KP53 V0203201N008212200019N9999999N1-00701-01101103101ADDMA1102981999999MW1001OC100981REMMET086KP53 042256Z AUTO 32016G19KT M07/M11 A3041 RMK AO2 SLP310 T10671106 PWINO FZRANO TSNO;EQDQ01+000000PRSWM2
0204720198999992005010500004+40200-079833FM-15+0373KP53 V0203101N007719999999N9999999N1-00701-01201103161ADDKA1999M-00391KA2999N-00671MA1103011999999MD1110241+9999MW1001OC101131REMMET104KP53 042356Z AUTO 31015G22KT M07/M12 A3042 RMK AO2 SLP316 T10671122 11039 21067 51024 PWINO FZRANO TSNO;EQDQ01+000000PRSWM2
0162720198999992005010501004+40200-079833FM-15+0373KP53 V0203101N008719999999N9999999N1-00701-01201103201ADDMA1103081999999MW1001OC101181REMMET086KP53 050056Z AUTO 31017G23KT M07/M12 A3044 RMK AO2 SLP320 T10721117 PWINO FZRANO TSNO;EQDQ01+000000PRSWM2Q02  00002PRCP06
0135720198999992005010502004+40200-079833FM-15+0373KP53 V0203401N007212200019N9999999N1-00701-01201103221ADDMA1103081999999MW1001REMMET083KP53 050156Z AUTO 34014KT M07/M12 A3044 RMK AO2 SLP322 T10721122 PWINO FZRANO TSNO;EQDQ01+000000PRSWM2
0166720198999992005010503004+40200-079833FM-15+0373KP53 V0203501N009312200019N9999999N1-00701-00901103191ADDMA1103051999999MD1010031+9999MW1001OC101181REMMET092KP53 050256Z AUTO 35018G23KT M07/M09 A3043 RMK AO2 SLP319 T10671094 50003 PWINO FZRANO TSNO;EQDQ01+000000PRSWM2
0169720198999992005010504004+40200-079833FM-15+0373KP53 V0203501N006719999999N9999999N1-00701-01001103181ADDMA1103051999999MW1001REMMET101KP53 050356Z AUTO 35013KT M07/M10 A3043 RMK AO2 PK WND 01026/0304 SLP318 T10721100 PWINO FZRANO TSNO;EQDQ01+000000PRSWM2Q02  00002PRCP06
0182720198999992005010505004+40200-079833FM-15+0373KP53 V0203401N006719999999N9999999N1-00701-01101103181ADDKA1999M-00391KA2999N-00831MA1103051999999MW1001OC101131REMMET096KP53 050456Z AUTO 34013G22KT M07/M11 A3043 RMK AO2 SLP318 T10721111 410391083 PWINO FZRANO TSNO;EQDQ01+000000PRSWM2
0193720198999992005010506004+40200-079833FM-15+0373KP53 V0203401N006719999999N9999999N1-00801-01101103191ADDKA1999M-00671KA2999N-00781MA1103081999999MD1310011+9999MW1001REMMET101KP53 050556Z AUTO 34013KT M08/M11 A3044 RMK AO2 SLP319 T10781111 11067 21078 53001 PWINO FZRANO TSNO;EQDQ01+000000PRSWM2
0151720198999992005010507004+40200-079833FM-15+0373KP53 V0203401N006719999999N9999999N1-00701-00901103201ADDMA1103081999999MW1001REMMET083KP53 050656Z AUTO 34013KT M07/M09 A3044 RMK AO2 SLP320 T10721094 PWINO FZRANO TSNO;EQDQ01+000000PRSWM2Q02  00002PRCP06
0135720198999992005010508004+40200-079833FM-15+0373KP53 V0203501N005712200019N9999999N1-00701-00901103281ADDMA1103151999999MW1001REMMET083KP53 050756Z AUTO 35011KT M07/M09 A3046 RMK AO2 SLP328 T10721094 PWINO FZRANO TSNO;EQDQ01+000000PRSWM2
0155720198999992005010509004+40200-079833FM-15+0373KP53 V0203401N005712200019N9999999N1-00701-01201103221ADDMA1103121999999MD1010031+9999MW1001REMMET089KP53 050856Z AUTO 34011KT M07/M12 A3045 RMK AO2 SLP322 T10721117 50003 PWINO FZRANO TSNO;EQDQ01+000000PRSWM2
0151720198999992005010510004+40200-079833FM-15+0373KP53 V0203401N005119999999N9999999N1-00701-01101103251ADDMA1103121999999MW1001REMMET083KP53 050956Z AUTO 34010KT M07/M11 A3045 RMK AO2 SLP325 T10721111 PWINO FZRANO TSNO;EQDQ01+000000PRSWM2Q02  00002PRCP06
0135720198999992005010511004+40200-079833FM-15+0373KP53 V0203501N004612200019N9999999N1-00701-01201103241ADDMA1103121999999MW1001REMMET083KP53 051056Z AUTO 35009KT M07/M12 A3045 RMK AO2 SLP324 T10721117 PWINO FZRANO TSNO;EQDQ01+000000PRSWM2
0226720198999992005010512004+40200-079833FM-15+0373KP53 V0200201N007719999999N9999999N1-00701-01101103281ADDAA124000391KA1999M-00671KA2999N-00781MA1103151999999MD1310061+9999MW1001REMMET107KP53 051156Z AUTO 02015KT M07/M11 A3046 RMK AO2 SLP328 70001 T10721106 11067 21078 53006 PWINO FZRANO TSNO;EQDQ01+000000PRSWM2Q02  00038PRCP24
0165720198999992005010513004+40200-079833FM-15+0373KP53 V0200201N007219999999N9999999N1-00701-01201103231ADDMA1103121999999MD1999999+0001MW1001REMMET083KP53 051256Z AUTO 02014KT M07/M12 A3045 RMK AO2 SLP323 T10721122 PWINO FZRANO TSNO;EQDQ01+000000PRSWM2Q02  00002PRCP06
0135720198999992005010514004+40200-079833FM-15+0373KP53 V0200101N005112200019N9999999N1-00801-01201103221ADDMA1103081999999MW1001REMMET083KP53 051356Z AUTO 01010KT M08/M12 A3044 RMK AO2 SLP322 T10781117 PWINO FZRANO TSNO;EQDQ01+000000PRSWM2
0166720198999992005010515004+40200-079833FM-15+0373KP53 V0200101N006212200019N9999999N1-00701-01201103261ADDMA1103151999999MD1510031+9999MW1001OC100821REMMET092KP53 051456Z AUTO 01012G16KT M07/M12 A3046 RMK AO2 SLP326 T10721122 55003 PWINO FZRANO TSNO;EQDQ01+000000PRSWM2
0151720198999992005010516004+40200-079833FM-15+0373KP53 V0200201N004619999999N9999999N1-00701-01101103361ADDMA1103221999999MW1001REMMET083KP53 051556Z AUTO 02009KT M07/M11 A3048 RMK AO2 SLP336 T10721111 PWINO FZRANO TSNO;EQDQ01+000000PRSWM2Q02  00002PRCP06
0142720198999992005010517004+40200-079833FM-15+0373KP53 V0200401N005712200019N9999999N1-00701-01201103161ADDMA1103051999999MW1001REMMET090KP53 051656Z AUTO 04011KT M07/M12 A3043 RMK AO2 PRESFR SLP316 T10721117 PWINO FZRANO TSNO;EQDQ01+000000PRSWM2
0193720198999992005010518004+40200-079833FM-15+0373KP53 V0200201N006719999999N9999999N1-00701-01201103101ADDKA1999M-00671KA2999N-00831MA1102981999999MD1810161+9999MW1001REMMET101KP53 051756Z AUTO 02013KT M07/M12 A3041 RMK AO2 SLP310 T10671117 11067 21083 58016 PWINO FZRANO TSNO;EQDQ01+000000PRSWM2
0151720198999992005010519004+40200-079833FM-15+0373KP53 V0200201N005119999999N9999999N1-00701-01201103011ADDMA1102881999999MW1001REMMET083KP53 051856Z AUTO 02010KT M07/M12 A3038 RMK AO2 SLP301 T10671117 PWINO FZRANO TSNO;EQDQ01+000000PRSWM2Q02  00002PRCP06
0135720198999992005010520004+40200-079833FM-15+0373KP53 V0203401N003612200019N9999999N1-00701-00901102931ADDMA1102811999999MW1001REMMET083KP53 051956Z AUTO 34007KT M07/M09 A3036 RMK AO2 SLP293 T10671094 PWINO FZRANO TSNO;EQDQ01+000000PRSWM2
0155720198999992005010521004+40200-079833FM-15+0373KP53 V0203601N005112200019N9999999N1-00701-01101102811ADDMA1102681999999MD1810271+9999MW1001REMMET089KP53 052056Z AUTO 36010KT M07/M11 A3032 RMK AO2 SLP281 T10671106 58027 PWINO FZRANO TSNO;EQDQ01+000000PRSWM2
0135720198999992005010522004+40200-079833FM-15+0373KP53 V0203401N004619999999N9999999N1-00601-01101102741ADDMW1001REMMET082KP53 052156Z AUTO 34009KT M06/M11 A301 RMK AO2 SLP274 T10611111 PWINO FZRANO TSNO;EQDQ01+000000PRSWM2Q02  00002PRCP06
0135720198999992005010523004+40200-079833FM-15+0373KP53 V0203401N003112200019N9999999N1-00601-01101102721ADDMA1102611999999MW1001REMMET083KP53 052256Z AUTO 34006KT M06/M11 A3030 RMK AO2 SLP272 T10611106 PWINO FZRANO TSNO;EQDQ01+000000PRSWM2
0193720198999992005010600004+40200-079833FM-15+0373KP53 V0203401N004119999999N9999999N1-00601-01101102641ADDKA1999M-00561KA2999N-00721MA1102511999999MD1810171+9999MW1001REMMET101KP53 052356Z AUTO 34008KT M06/M11 A3027 RMK AO2 SLP264 T10561106 11056 21072 58017 PWINO FZRANO TSNO;EQDQ01+000000PRSWM2
0151720198999992005010601004+40200-079833FM-15+0373KP53 V0203401N004119999999N9999999N1-00601-01001102621ADDMA1102511999999MW1001REMMET083KP53 060056Z AUTO 34008KT M06/M10 A3027 RMK AO2 SLP262 T10561100 PWINO FZRANO TSNO;EQDQ01+000000PRSWM2Q02  00002PRCP06
0135720198999992005010602004+40200-079833FM-15+0373KP53 V0203401N004112200019N9999999N1-00601-00901102521ADDMA1102401999999MW1001REMMET083KP53 060156Z AUTO 34008KT M06/M09 A3024 RMK AO2 SLP252 T10611094 PWINO FZRANO TSNO;EQDQ01+000000PRSWM2
0155720198999992005010603004+40200-079833FM-15+0373KP53 V0203401N004112200019N9999999N1-00601-00901102401ADDMA1102271999999MD1810231+9999MW1001REMMET089KP53 060256Z AUTO 34008KT M06/M09 A3020 RMK AO2 SLP240 T10611094 58023 PWINO FZRANO TSNO;EQDQ01+000000PRSWM2
0151720198999992005010604004+40200-079833FM-15+0373KP53 V0203401N005119999999N9999999N1-00601-00901102271ADDMA1102171999999MW1001REMMET083KP53 060356Z AUTO 34010KT M06/M09 A3017 RMK AO2 SLP227 T10611089 PWINO FZRANO TSNO;EQDQ01+000000PRSWM2Q02  00002PRCP06
0171720198999992005010605004+40200-079833FM-15+0373KP53 V0203401N003619999999N9999999N1-00601-00901102181ADDKA1999M-00561KA2999N-00831MA1102071999999MW1001REMMET093KP53 060456Z AUTO 34007KT M06/M09 A3014 RMK AO2 SLP218 T10611094 410561083 PWINO FZRANO TSNO;EQDQ01+000000PRSWM2
0193720198999992005010606004+40200-079833FM-15+0373KP53 V0203401N003119999999N9999999N1-00601-00901102091ADDKA1999M-00561KA2999N-00611MA1101961999999MD1610301+9999MW1001REMMET101KP53 060556Z AUTO 34006KT M06/M09 A3011 RMK AO2 SLP209 T10611094 11056 21061 56030 PWINO FZRANO TSNO;EQDQ01+000000PRSWM2
0151720198999992005010607004+40200-079833FM-15+0373KP53 V0203401N003119999999N9999999N1-00601-01001101971ADDMA1101861999999MW1001REMMET083KP53 060656Z AUTO 34006KT M06/M10 A3008 RMK AO2 SLP197 T10561100 PWINO FZRANO TSNO;EQDQ01+000000PRSWM2Q02  00002PRCP06
0135720198999992005010608004+40200-079833FM-15+0373KP53 V0209999C000012200019N9999999N1-00601-00901101851ADDMA1101731999999MW1001REMMET083KP53 060756Z AUTO 00000KT M06/M09 A3004 RMK AO2 SLP185 T10611094 PWINO FZRANO TSNO;EQDQ01+000000PRSWM2
0155720198999992005010609004+40200-079833FM-15+0373KP53 V0209999C000012200019N9999999N1-00701-01001101761ADDMA1101661999999MD1610321+9999MW1001REMMET089KP53 060856Z AUTO 00000KT M07/M10 A3002 RMK AO2 SLP176 T10721100 56032 PWINO FZRANO TSNO;EQDQ01+000000PRSWM2
0151720198999992005010610004+40200-079833FM-15+0373KP53 V0209999C000019999999N9999999N1-00701-01101101641ADDMA1101521999999MW1001REMMET083KP53 060956Z AUTO 00000KT M07/M11 A2998 RMK AO2 SLP164 T10721106 PWINO FZRANO TSNO;EQDQ01+000000PRSWM2Q02  00002PRCP06
0135720198999992005010611004+40200-079833FM-15+0373KP53 V0201501N001512200019N9999999N1-00701-01001101581ADDMA1101491999999MW1001REMMET083KP53 061056Z AUTO 15003KT M07/M10 A2997 RMK AO2 SLP158 T10721100 PWINO FZRANO TSNO;EQDQ01+000000PRSWM2
0193720198999992005010612004+40200-079833FM-15+0373KP53 V0203301N004619999999N9999999N1-00501-00901101511ADDKA1999M-00501KA2999N-00781MA1101391999999MD1610241+9999MW1001REMMET101KP53 061156Z AUTO 33009KT M05/M09 A2994 RMK AO2 SLP151 T10501089 11050 21078 56024 PWINO FZRANO TSNO;EQDQ01+000000PRSWM2
0165720198999992005010613004+40200-079833FM-15+0373KP53 V0203401N004119999999N9999999N1-00501-00801101481ADDMA1101391999999MD1999999+0001MW1001REMMET083KP53 061256Z AUTO 34008KT M05/M08 A2994 RMK AO2 SLP148 T10501083 PWINO FZRANO TSNO;EQDQ01+000000PRSWM2Q02  00002PRCP06
0135720198999992005010614004+40200-079833FM-15+0373KP53 V0203401N004112200019N9999999N1-00501-00901101421ADDMA1101321999999MW1001REMMET083KP53 061356Z AUTO 34008KT M05/M09 A2992 RMK AO2 SLP142 T10501089 PWINO FZRANO TSNO;EQDQ01+000000PRSWM2
0155720198999992005010615004+40200-079833FM-15+0373KP53 V0203501N004112200019N9999999N1-00401-00801101361ADDMA1101251999999MD1810151+9999MW1001REMMET089KP53 061456Z AUTO 35008KT M04/M08 A2990 RMK AO2 SLP136 T10441083 58015 PWINO FZRANO TSNO;EQDQ01+000000PRSWM2
0151720198999992005010616004+40200-079833FM-15+0373KP53 V0203301N003619999999N9999999N1-00401-00901101291ADDMA1101191999999MW1001REMMET083KP53 061556Z AUTO 33007KT M04/M09 A2988 RMK AO2 SLP129 T10441089 PWINO FZRANO TSNO;EQDQ01+000000PRSWM2Q02  00002PRCP06
0135720198999992005010617004+40200-079833FM-15+0373KP53 V0203601N004112200019N9999999N1-00401-00801101191ADDMA1101081999999MW1001REMMET083KP53 061656Z AUTO 36008KT M04/M08 A2985 RMK AO2 SLP119 T10441083 PWINO FZRANO TSNO;EQDQ01+000000PRSWM2
0193720198999992005010618004+40200-079833FM-15+0373KP53 V0203301N005119999999N9999999N1-00401-00801101081ADDKA1999M-00441KA2999N-00561MA1100981999999MD1810281+9999MW1001REMMET101KP53 061756Z AUTO 33010KT M04/M08 A2982 RMK AO2 SLP108 T10441078 11044 21056 58028 PWINO FZRANO TSNO;EQDQ01+000000PRSWM2
0168720198999992005010619004+40200-079833FM-15+0373KP53 V0203301N005119999999N9999999N1-00401-00801100981ADDAA101000391MA1100881999999MW1001REMMET089KP53 061856Z AUTO 33010KT M04/M08 A2979 RMK AO2 SLP098 P0001 T10441078 PWINO FZRANO TSNO;EQDQ01+000000PRSWM2Q02  00002PRCP06
0135720198999992005010620004+40200-079833FM-15+0373KP53 V0203101N004612200019N9999999N1-00401-00801100961ADDMA1100851999999MW1001REMMET083KP53 061956Z AUTO 31009KT M04/M08 A2978 RMK AO2 SLP096 T10441078 PWINO FZRANO TSNO;EQDQ01+000000PRSWM2
0204720198999992005010621004+40200-079833FM-15+0373KP53 V0203101N005719999999N9999999N1-00501-00801101011ADDAA103000391MA1100911999999MD1510061+9999MW1001REMMET095KP53 062056Z AUTO 31011KT M05/M08 A2980 RMK AO2 SLP101 60001 T10501083 55006 PWINO FZRANO TSNO;EQDQ01+000000PRSWM2Q02  00002PRCP03Q03  00008PRCP03
0151720198999992005010622004+40200-079833FM-15+0373KP53 V0202901N003119999999N9999999N1-00601-00901101101ADDMA1100981999999MW1001REMMET083KP53 062156Z AUTO 29006KT M06/M09 A2982 RMK AO2 SLP110 T10561089 PWINO FZRANO TSNO;EQDQ01+000000PRSWM2Q02  00002PRCP06
0135720198999992005010623004+40200-079833FM-15+0373KP53 V0209999V001512200019N9999999N1-00601-01101101151ADDMA1101051999999MW1001REMMET083KP53 062256Z AUTO VRB03KT M06/M11 A2984 RMK AO2 SLP115 T10611106 PWINO FZRANO TSNO;EQDQ01+000000PRSWM2
0226720198999992005010700004+40200-079833FM-15+0373KP53 V0202201N002619999999N9999999N1-00701-01101101211ADDAA106000391KA1999M-00441KA2999N-00721MA1101121999999MD1110191+9999MW1001REMMET107KP53 062356Z AUTO 22005KT M07/M11 A2986 RMK AO2 SLP121 60001 T10721106 11044 21072 51019 PWINO FZRANO TSNO;EQDQ01+000000PRSWM2Q02  00038PRCP06
0151720198999992005010701004+40200-079833FM-15+0373KP53 V0202201N002619999999N9999999N1-00801-01101101261ADDMA1101151999999MW1001REMMET083KP53 070056Z AUTO 22005KT M08/M11 A2987 RMK AO2 SLP126 T10781111 PWINO FZRANO TSNO;EQDQ01+000000PRSWM2Q02  00002PRCP06
0135720198999992005010702004+40200-079833FM-15+0373KP53 V0202101N002612200019N9999999N1-00801-01201101281ADDMA1101191999999MW1001REMMET083KP53 070156Z AUTO 21005KT M08/M12 A2988 RMK AO2 SLP128 T10831117 PWINO FZRANO TSNO;EQDQ01+000000PRSWM2
0155720198999992005010703004+40200-079833FM-15+0373KP53 V0202101N003112200019N9999999N1-00901-01201101321ADDMA1101221999999MD1110101+9999MW1001REMMET089KP53 070256Z AUTO 21006KT M09/M12 A2989 RMK AO2 SLP132 T10941122 51010 PWINO FZRANO TSNO;EQDQ01+000000PRSWM2
0151720198999992005010704004+40200-079833FM-15+0373KP53 V0202101N003119999999N9999999N1-01101-01301101381ADDMA1101251999999MW1001REMMET083KP53 070356Z AUTO 21006KT M11/M13 A2990 RMK AO2 SLP138 T11061128 PWINO FZRANO TSNO;EQDQ01+000000PRSWM2Q02  00002PRCP06
0171720198999992005010705004+40200-079833FM-15+0373KP53 V0202101N004119999999N9999999N1-01101-01301101411ADDKA1999M-00441KA2999N-01061MA1101291999999MW1001REMMET093KP53 070456Z AUTO 21008KT M11/M13 A2991 RMK AO2 SLP141 T11061128 410441106 PWINO FZRANO TSNO;EQDQ01+000000PRSWM2
0193720198999992005010706004+40200-079833FM-15+0373KP53 V0202001N004619999999N9999999N1-01101-01301101381ADDKA1999M-00721KA2999N-01111MA1101251999999MD1010051+9999MW1001REMMET101KP53 070556Z AUTO 20009KT M11/M13 A2990 RMK AO2 SLP138 T11061133 11072 21111 50005 PWINO FZRANO TSNO;EQDQ01+000000PRSWM2
0151720198999992005010707004+40200-079833FM-15+0373KP53 V0202001N004119999999N9999999N1-01101-01401101411ADDMA1101291999999MW1001REMMET083KP53 070656Z AUTO 20008KT M11/M14 A2991 RMK AO2 SLP141 T11111139 PWINO FZRANO TSNO;EQDQ01+000000PRSWM2Q02  00002PRCP06
0135720198999992005010708004+40200-079833FM-15+0373KP53 V0202001N004112200019N9999999N1-01101-01401101461ADDMA1101351999999MW1001REMMET083KP53 070756Z AUTO 20008KT M11/M14 A2993 RMK AO2 SLP146 T11111144 PWINO FZRANO TSNO;EQDQ01+000000PRSWM2
0155720198999992005010709004+40200-079833FM-15+0373KP53 V0202001N004112200019N9999999N1-01201-01401101571ADDMA1101461999999MD1310181+9999MW1001REMMET089KP53 070856Z AUTO 20008KT M12/M14 A2996 RMK AO2 SLP157 T11171144 53018 PWINO FZRANO TSNO;EQDQ01+000000PRSWM2
0151720198999992005010710004+40200-079833FM-15+0373KP53 V0202001N004619999999N9999999N1-01201-01501101531ADDMA1101421999999MW1001REMMET083KP53 070956Z AUTO 20009KT M12/M15 A2995 RMK AO2 SLP153 T11171150 PWINO FZRANO TSNO;EQDQ01+000000PRSWM2Q02  00002PRCP06
0135720198999992005010711004+40200-079833FM-15+0373KP53 V0201901N005712200019N9999999N1-01201-01501101621ADDMA1101491999999MW1001REMMET083KP53 071056Z AUTO 19011KT M12/M15 A2997 RMK AO2 SLP162 T11171150 PWINO FZRANO TSNO;EQDQ01+000000PRSWM2
0226720198999992005010712004+40200-079833FM-15+0373KP53 V0201901N004619999999N9999999N1-01201-01501101631ADDAA124000391KA1999M-01061KA2999N-01221MA1101491999999MD1310051+9999MW1001REMMET107KP53 071156Z AUTO 19009KT M12/M15 A2997 RMK AO2 SLP163 70001 T11221150 11106 21122 53005 PWINO FZRANO TSNO;EQDQ01+000000PRSWM2Q02  00038PRCP24
0165720198999992005010713004+40200-079833FM-15+0373KP53 V0201901N005119999999N9999999N1-01201-01501101671ADDMA1101561999999MD1999999+0001MW1001REMMET083KP53 071256Z AUTO 19010KT M12/M15 A2999 RMK AO2 SLP167 T11221150 PWINO FZRANO TSNO;EQDQ01+000000PRSWM2Q02  00002PRCP06
0135720198999992005010714004+40200-079833FM-15+0373KP53 V0201901N005112200019N9999999N1-01201-01601101671ADDMA1101561999999MW1001REMMET083KP53 071356Z AUTO 19010KT M12/M16 A2999 RMK AO2 SLP167 T11221161 PWINO FZRANO TSNO;EQDQ01+000000PRSWM2
0155720198999992005010715004+40200-079833FM-15+0373KP53 V0201801N004112200019N9999999N1-01201-01601101741ADDMA1101591999999MD1310101+9999MW1001REMMET089KP53 071456Z AUTO 18008KT M12/M16 A3000 RMK AO2 SLP174 T11171156 53010 PWINO FZRANO TSNO;EQDQ01+000000PRSWM2
0151720198999992005010716004+40200-079833FM-15+0373KP53 V0201901N004619999999N9999999N1-00801-01301101771ADDMA1101631999999MW1001REMMET083KP53 071556Z AUTO 19009KT M08/M13 A3001 RMK AO2 SLP177 T10831128 PWINO FZRANO TSNO;EQDQ01+000000PRSWM2Q02  00002PRCP06
0146720198999992005010717004+40200-079833FM-15+0373KP53 V0201901N008212200019N9999999N1-00601-01201101711ADDMA1101591999999MW1001OC101081REMMET086KP53 071656Z AUTO 19016G21KT M06/M12 A3000 RMK AO2 SLP171 T10611117 PWINO FZRANO TSNO;EQDQ01+000000PRSWM2
0204720198999992005010718004+40200-079833FM-15+0373KP53 V0201901N009819999999N9999999N1-00501-01101101591ADDKA1999M-00441KA2999N-01281MA1101491999999MD1810131+9999MW1001OC101231REMMET104KP53 071756Z AUTO 19019G24KT M05/M11 A2997 RMK AO2 SLP159 T10501111 11044 21128 58013 PWINO FZRANO TSNO;EQDQ01+000000PRSWM2
0162720198999992005010719004+40200-079833FM-15+0373KP53 V0202001N007219999999N9999999N1-00401-01101101561ADDMA1101461999999MW1001OC101231REMMET086KP53 071856Z AUTO 20014G24KT M04/M11 A2996 RMK AO2 SLP156 T10391111 PWINO FZRANO TSNO;EQDQ01+000000PRSWM2Q02  00002PRCP06
0146720198999992005010720004+40200-079833FM-15+0373KP53 V0201901N007712200019N9999999N1-00301-01101101541ADDMA1101421999999MW1001OC101231REMMET086KP53 071956Z AUTO 19015G24KT M03/M11 A2995 RMK AO2 SLP154 T10331106 PWINO FZRANO TSNO;EQDQ01+000000PRSWM2
0166720198999992005010721004+40200-079833FM-15+0373KP53 V0201901N006712200019N9999999N1-00301-01101101581ADDMA1101461999999MD1510011+9999MW1001OC100871REMMET092KP53 072056Z AUTO 19013G17KT M03/M11 A2996 RMK AO2 SLP158 T10331106 55001 PWINO FZRANO TSNO;EQDQ01+000000PRSWM2
0162720198999992005010722004+40200-079833FM-15+0373KP53 V0202001N004619999999N9999999N1-00401-01101101651ADDMA1101521999999MW1001OC100721REMMET086KP53 072156Z AUTO 20009G14KT M04/M11 A2998 RMK AO2 SLP165 T10441111 PWINO FZRANO TSNO;EQDQ01+000000PRSWM2Q02  00002PRCP06
0135720198999992005010723004+40200-079833FM-15+0373KP53 V0201901N004112200019N9999999N1-00601-01101101721ADDMA1101591999999MW1001REMMET083KP53 072256Z AUTO 19008KT M06/M11 A3000 RMK AO2 SLP172 T10611111 PWINO FZRANO TSNO;EQDQ01+000000PRSWM2
0193720198999992005010800004+40200-079833FM-15+0373KP53 V0201901N004619999999N9999999N1-00701-01101101811ADDKA1999M-00331KA2999N-00721MA1101691999999MD1310211+9999MW1001REMMET101KP53 072356Z AUTO 19009KT M07/M11 A3003 RMK AO2 SLP181 T10721111 11033 21072 53021 PWINO FZRANO TSNO;EQDQ01+000000PRSWM2
0151720198999992005010801004+40200-079833FM-15+0373KP53 V0201901N004119999999N9999999N1-00801-01201101841ADDMA1101731999999MW1001REMMET083KP53 080056Z AUTO 19008KT M08/M12 A3004 RMK AO2 SLP184 T10831117 PWINO FZRANO TSNO;EQDQ01+000000PRSWM2Q02  00002PRCP06
0135720198999992005010802004+40200-079833FM-15+0373KP53 V0202001N005112200019N9999999N1-00901-01201101921ADDMA1101801999999MW1001REMMET083KP53 080156Z AUTO 20010KT M09/M12 A3006 RMK AO2 SLP192 T10891122 PWINO FZRANO TSNO;EQDQ01+000000PRSWM2
0155720198999992005010803004+40200-079833FM-15+0373KP53 V0202201N005712200019N9999999N1-00901-01301101921ADDMA1101801999999MD1010101+9999MW1001REMMET089KP53 080256Z AUTO 22011KT M09/M13 A3006 RMK AO2 SLP192 T10941128 50010 PWINO FZRANO TSNO;EQDQ01+000000PRSWM2
0151720198999992005010804004+40200-079833FM-15+0373KP53 V0201401N002119999999N9999999N1-01001-01301102001ADDMA1101861999999MW1001REMMET083KP53 080356Z AUTO 14004KT M10/M13 A3008 RMK AO2 SLP200 T11001133 PWINO FZRANO TSNO;EQDQ01+000000PRSWM2Q02  00002PRCP06
0171720198999992005010805004+40200-079833FM-15+0373KP53 V0201601N003619999999N9999999N1-01101-01301102001ADDKA1999M-00331KA2999N-01281MA1101901999999MW1001REMMET093KP53 080456Z AUTO 16007KT M11/M13 A3009 RMK AO2 SLP200 T11061133 410331128 PWINO FZRANO TSNO;EQDQ01+000000PRSWM2
0193720198999992005010806004+40200-079833FM-15+0373KP53 V0201701N004119999999N9999999N1-01101-01401101991ADDKA1999M-00721KA2999N-01111MA1101861999999MD1010081+9999MW1001REMMET101KP53 080556Z AUTO 17008KT M11/M14 A3008 RMK AO2 SLP199 T11111139 11072 21111 50008 PWINO FZRANO TSNO;EQDQ01+000000PRSWM2
0151720198999992005010807004+40200-079833FM-15+0373KP53 V0201701N004119999999N9999999N1-01101-01401102001ADDMA1101861999999MW1001REMMET083KP53 080656Z AUTO 17008KT M11/M14 A3008 RMK AO2 SLP200 T11061139 PWINO FZRANO TSNO;EQDQ01+000000PRSWM2Q02  00002PRCP06
0135720198999992005010808004+40200-079833FM-15+0373KP53 V0201901N003112200019N9999999N1-01001-01401102001ADDMA1101901999999MW1001REMMET083KP53 080756Z AUTO 19006KT M10/M14 A3009 RMK AO2 SLP200 T11001139 PWINO FZRANO TSNO;EQDQ01+000000PRSWM2
0155720198999992005010809004+40200-079833FM-15+0373KP53 V0201801N002612200019N9999999N1-00901-01301102001ADDMA1101901999999MD1110021+9999MW1001REMMET089KP53 080856Z AUTO 18005KT M09/M13 A3009 RMK AO2 SLP200 T10891128 51002 PWINO FZRANO TSNO;EQDQ01+000000PRSWM2
0151720198999992005010810004+40200-079833FM-15+0373KP53 V0201901N003619999999N9999999N1-00801-01201102051ADDMA1101931999999MW1001REMMET083KP53 080956Z AUTO 19007KT M08/M12 A3010 RMK AO2 SLP205 T10831117 PWINO FZRANO TSNO;EQDQ01+000000PRSWM2Q02  00002PRCP06
0135720198999992005010811004+40200-079833FM-15+0373KP53 V0201701N003612200019N9999999N1-00801-01101102121ADDMA1102001999999MW1001REMMET083KP53 081056Z AUTO 17007KT M08/M11 A3012 RMK AO2 SLP212 T10781111 PWINO FZRANO TSNO;EQDQ01+000000PRSWM2
0193720198999992005010812004+40200-079833FM-15+0373KP53 V0201901N003619999999N9999999N1-00701-01001102211ADDKA1999M-00721KA2999N-01111MA1102101999999MD1310191+9999MW1001REMMET101KP53 081156Z AUTO 19007KT M07/M10 A3015 RMK AO2 SLP221 T10721100 11072 21111 53019 PWINO FZRANO TSNO;EQDQ01+000000PRSWM2
0165720198999992005010813004+40200-079833FM-15+0373KP53 V0201401N003619999999N9999999N1-00701-00901102261ADDMA1102131999999MD1999999+0001MW1001REMMET083KP53 081256Z AUTO 14007KT M07/M09 A3016 RMK AO2 SLP226 T10671094 PWINO FZRANO TSNO;EQDQ01+000000PRSWM2Q02  00002PRCP06
0135720198999992005010814004+40200-079833FM-15+0373KP53 V0201601N002112200019N9999999N1-00601-00801102361ADDMA1102241999999MW1001REMMET083KP53 081356Z AUTO 16004KT M06/M08 A3019 RMK AO2 SLP236 T10561083 PWINO FZRANO TSNO;EQDQ01+000000PRSWM2
0155720198999992005010815004+40200-079833FM-15+0373KP53 V0202001N002112200019N9999999N1-00501-00801102421ADDMA1102301999999MD1310211+9999MW1001REMMET089KP53 081456Z AUTO 20004KT M05/M08 A3021 RMK AO2 SLP242 T10501078 53021 PWINO FZRANO TSNO;EQDQ01+000000PRSWM2
0151720198999992005010816004+40200-079833FM-15+0373KP53 V0209999V002119999999N9999999N1-00401-00701102511ADDMA1102371999999MW1001REMMET083KP53 081556Z AUTO VRB04KT M04/M07 A3023 RMK AO2 SLP251 T10441072 PWINO FZRANO TSNO;EQDQ01+000000PRSWM2Q02  00002PRCP06
0135720198999992005010817004+40200-079833FM-15+0373KP53 V0202801N002112200019N9999999N1-00401-00701102531ADDMA1102401999999MW1001REMMET083KP53 081656Z AUTO 28004KT M04/M07 A3024 RMK AO2 SLP253 T10391067 PWINO FZRANO TSNO;EQDQ01+000000PRSWM2
0193720198999992005010818004+40200-079833FM-15+0373KP53 V0202601N002119999999N9999999N1-00401-00701102561ADDKA1999M-00391KA2999N-00721MA1102441999999MD1110131+9999MW1001REMMET101KP53 081756Z AUTO 26004KT M04/M07 A3025 RMK AO2 SLP256 T10391067 11039 21072 51013 PWINO FZRANO TSNO;EQDQ01+000000PRSWM2
0151720198999992005010819004+40200-079833FM-15+0373KP53 V0201601N001519999999N9999999N1-00401-00701102531ADDMA1102401999999MW1001REMMET083KP53 081856Z AUTO 16003KT M04/M07 A3024 RMK AO2 SLP253 T10391067 PWINO FZRANO TSNO;EQDQ01+000000PRSWM2Q02  00002PRCP06
0135720198999992005010820004+40200-079833FM-15+0373KP53 V0209999C000012200019N9999999N1-00301-00601102571ADDMA1102471999999MW1001REMMET083KP53 081956Z AUTO 00000KT M03/M06 A3026 RMK AO2 SLP257 T10331061 PWINO FZRANO TSNO;EQDQ01+000000PRSWM2
0155720198999992005010821004+40200-079833FM-15+0373KP53 V0203301N003112200019N9999999N1-00301-00701102651ADDMA1102541999999MD1310101+9999MW1001REMMET089KP53 082056Z AUTO 33006KT M03/M07 A3028 RMK AO2 SLP265 T10281067 53010 PWINO FZRANO TSNO;EQDQ01+000000PRSWM2
0151720198999992005010822004+40200-079833FM-15+0373KP53 V0201901N001519999999N9999999N1-00301-00701102701ADDMA1102571999999MW1001REMMET083KP53 082156Z AUTO 19003KT M03/M07 A3029 RMK AO2 SLP270 T10331067 PWINO FZRANO TSNO;EQDQ01+000000PRSWM2Q02  00002PRCP06
0135720198999992005010823004+40200-079833FM-15+0373KP53 V0202201N001512200019N9999999N1-00301-00701102641ADDMA1102541999999MW1001REMMET083KP53 082256Z AUTO 22003KT M03/M07 A3028 RMK AO2 SLP264 T10331067 PWINO FZRANO TSNO;EQDQ01+000000PRSWM2
0199720198999992005010900004+46400-086650FM-15+0187KP53 V0201601N003119999999N9999999N1-00301-00701102541ADDKA1999M-00281KA2999N-00391MA1102441999999MD1810101+9999MW1001REMMET107SPECI KP53 082356Z AUTO 16006KT M03/M07 A3025 RMK AO2 SLP254 T10331067 11028 21039 58010 PWINO FZRANO TSNO;EQDQ01+000000PRSWM2
0151720198999992005010901004+46400-086650FM-15+0187KP53 V0202101N002119999999N9999999N1-00401-00701102611ADDMA1102511999999MW1001REMMET083KP53 090056Z AUTO 21004KT M04/M07 A3027 RMK AO2 SLP261 T10391067 PWINO FZRANO TSNO;EQDQ01+000000PRSWM2Q02  00002PRCP06
0135720198999992005010902004+46400-086650FM-15+0187KP53 V0202001N001512200019N9999999N1-00401-00701102661ADDMA1102541999999MW1001REMMET083KP53 090156Z AUTO 20003KT M04/M07 A3028 RMK AO2 SLP266 T10391072 PWINO FZRANO TSNO;EQDQ01+000000PRSWM2
0155720198999992005010903004+46400-086650FM-15+0187KP53 V0201801N001512200019N9999999N1-00401-00701102531ADDMA1102441999999MD1010001+9999MW1001REMMET089KP53 090256Z AUTO 18003KT M04/M07 A3025 RMK AO2 SLP253 T10391072 50000 PWINO FZRANO TSNO;EQDQ01+000000PRSWM2
0151720198999992005010904004+46400-086650FM-15+0187KP53 V0209999V001519999999N9999999N1-00401-00701102561ADDMA1102441999999MW1001REMMET083KP53 090356Z AUTO VRB03KT M04/M07 A3025 RMK AO2 SLP256 T10391072 PWINO FZRANO TSNO;EQDQ01+000000PRSWM2Q02  00002PRCP06
0171720198999992005010905004+46400-086650FM-15+0187KP53 V0201801N002119999999N9999999N1-00401-00701102571ADDKA1999M-00281KA2999N-01111MA1102471999999MW1001REMMET093KP53 090456Z AUTO 18004KT M04/M07 A3026 RMK AO2 SLP257 T10391067 410281111 PWINO FZRANO TSNO;EQDQ01+000000PRSWM2
0193720198999992005010906004+46400-086650FM-15+0187KP53 V0201801N003619999999N9999999N1-00401-00801102451ADDKA1999M-00331KA2999N-00441MA1102341999999MD1810081+9999MW1001REMMET101KP53 090556Z AUTO 18007KT M04/M08 A3022 RMK AO2 SLP245 T10441078 11033 21044 58008 PWINO FZRANO TSNO;EQDQ01+000000PRSWM2
0151720198999992005010907004+46400-086650FM-15+0187KP53 V0202001N003619999999N9999999N1-00501-00801102391ADDMA1102271999999MW1001REMMET083KP53 090656Z AUTO 20007KT M05/M08 A3020 RMK AO2 SLP239 T10501083 PWINO FZRANO TSNO;EQDQ01+000000PRSWM2Q02  00002PRCP06
0135720198999992005010908004+46400-086650FM-15+0187KP53 V0201901N003112200019N9999999N1-00601-00901102351ADDMA1102241999999MW1001REMMET083KP53 090756Z AUTO 19006KT M06/M09 A3019 RMK AO2 SLP235 T10561089 PWINO FZRANO TSNO;EQDQ01+000000PRSWM2
0155720198999992005010909004+46400-086650FM-15+0187KP53 V0202001N003612200019N9999999N1-00601-00901102291ADDMA1102201999999MD1610161+9999MW1001REMMET089KP53 090856Z AUTO 20007KT M06/M09 A3018 RMK AO2 SLP229 T10561089 56016 PWINO FZRANO TSNO;EQDQ01+000000PRSWM2
0151720198999992005010910004+46400-086650FM-15+0187KP53 V0201801N003619999999N9999999N1-00601-00901102271ADDMA1102171999999MW1001REMMET083KP53 090956Z AUTO 18007KT M06/M09 A3017 RMK AO2 SLP227 T10561089 PWINO FZRANO TSNO;EQDQ01+000000PRSWM2Q02  00002PRCP06
0135720198999992005010911004+46400-086650FM-15+0187KP53 V0201901N003112200019N9999999N1-00601-00901102221ADDMA1102131999999MW1001REMMET083KP53 091056Z AUTO 19006KT M06/M09 A3016 RMK AO2 SLP222 T10611094 PWINO FZRANO TSNO;EQDQ01+000000PRSWM2
0189720198999992005010912004+46400-086650FM-15+0187KP53 V02099999999999999999N9999999N1+99999+99999102231ADDKA1999M-00441KA2999N-00671MD1610061+9999MW1001REMMET112KP53 091156Z AUTO 19011G19KT 150V220 M07/M10 A3016 RMK AO2 SLP223 T10671100 11044 21067 56006 PWINO FZRANO TSNO;EQDQ01+000000PRSWM2
0165720198999992005010913004+46400-086650FM-15+0187KP53 V0201901N003119999999N9999999N1-00701-01001102161ADDMA1102031999999MD1999999+0001MW1001REMMET083KP53 091256Z AUTO 19006KT M07/M10 A3013 RMK AO2 SLP216 T10671100 PWINO FZRANO TSNO;EQDQ01+000000PRSWM2Q02  00002PRCP06
0146720198999992005010914004+46400-086650FM-15+0187KP53 V0202001N004112200019N9999999N1-00701-00901102051ADDMA1101931999999MW1001OC100721REMMET086KP53 091356Z AUTO 20008G14KT M07/M09 A3010 RMK AO2 SLP205 T10671094 PWINO FZRANO TSNO;EQDQ01+000000PRSWM2
0155720198999992005010915004+46400-086650FM-15+0187KP53 V0201901N002612200019N9999999N1-00601-00901102021ADDMA1101901999999MD1610211+9999MW1001REMMET089KP53 091456Z AUTO 19005KT M06/M09 A3009 RMK AO2 SLP202 T10611089 56021 PWINO FZRANO TSNO;EQDQ01+000000PRSWM2
0151720198999992005010916004+46400-086650FM-15+0187KP53 V0201801N004119999999N9999999N1-00601-00801101951ADDMA1101861999999MW1001REMMET083KP53 091556Z AUTO 18008KT M06/M08 A3008 RMK AO2 SLP195 T10561083 PWINO FZRANO TSNO;EQDQ01+000000PRSWM2Q02  00002PRCP06
0135720198999992005010917004+46400-086650FM-15+0187KP53 V0202001N004112200019N9999999N1-00601-00801101941ADDMA1101831999999MW1001REMMET083KP53 091656Z AUTO 20008KT M06/M08 A3007 RMK AO2 SLP194 T10561083 PWINO FZRANO TSNO;EQDQ01+000000PRSWM2
0193720198999992005010918004+46400-086650FM-15+0187KP53 V0201901N004619999999N9999999N1-00401-00801101801ADDKA1999M-00441KA2999N-00671MA1101691999999MD1810211+9999MW1001REMMET101KP53 091756Z AUTO 19009KT M04/M08 A3003 RMK AO2 SLP180 T10441078 11044 21067 58021 PWINO FZRANO TSNO;EQDQ01+000000PRSWM2
0151720198999992005010919004+46400-086650FM-15+0187KP53 V0201901N004619999999N9999999N1-00401-00801101641ADDMA1101521999999MW1001REMMET083KP53 091856Z AUTO 19009KT M04/M08 A2998 RMK AO2 SLP164 T10441083 PWINO FZRANO TSNO;EQDQ01+000000PRSWM2Q02  00002PRCP06
0135720198999992005010920004+46400-086650FM-15+0187KP53 V0201901N003112200019N9999999N1-00401-00801101481ADDMA1101391999999MW1001REMMET083KP53 091956Z AUTO 19006KT M04/M08 A2994 RMK AO2 SLP148 T10391083 PWINO FZRANO TSNO;EQDQ01+000000PRSWM2
0162720198999992005010921004+46400-086650FM-15+0187KP53 V0201801N004612200019N9999999N1-00401-00801101331ADDMA1101251999999MD1610461+9999MW1001REMMET096KP53 092056Z AUTO 18009KT M04/M08 A2990 RMK AO2 PRESFR SLP133 T10391078 56046 PWINO FZRANO TSNO;EQDQ01+000000PRSWM2
0151720198999992005010922004+46400-086650FM-15+0187KP53 V0202101N002619999999N9999999N1-00401-00801101321ADDMA1101221999999MW1001REMMET083KP53 092156Z AUTO 21005KT M04/M08 A2989 RMK AO2 SLP132 T10391083 PWINO FZRANO TSNO;EQDQ01+000000PRSWM2Q02  00002PRCP06
0135720198999992005010923004+46400-086650FM-15+0187KP53 V0209999V002612200019N9999999N1-00401-00801101381ADDMA1101251999999MW1001REMMET083KP53 092256Z AUTO VRB05KT M04/M08 A2990 RMK AO2 SLP138 T10391083 PWINO FZRANO TSNO;EQDQ01+000000PRSWM2
0193720198999992005011000004+40200-079833FM-15+0373KP53 V0202501N002619999999N9999999N1-00401-00801101321ADDKA1999M-00331KA2999N-00441MA1101221999999MD1810031+9999MW1001REMMET101KP53 092356Z AUTO 25005KT M04/M08 A2989 RMK AO2 SLP132 T10441078 11033 21044 58003 PWINO FZRANO TSNO;EQDQ01+000000PRSWM2
0151720198999992005011001004+40200-079833FM-15+0373KP53 V0201901N002619999999N9999999N1-00401-00801101191ADDMA1101081999999MW1001REMMET083KP53 100056Z AUTO 19005KT M04/M08 A2985 RMK AO2 SLP119 T10441083 PWINO FZRANO TSNO;EQDQ01+000000PRSWM2Q02  00002PRCP06
0135720198999992005011002004+40200-079833FM-15+0373KP53 V0209999V002612200019N9999999N1-00501-00801101211ADDMA1101121999999MW1001REMMET083KP53 100156Z AUTO VRB05KT M05/M08 A2986 RMK AO2 SLP121 T10501083 PWINO FZRANO TSNO;EQDQ01+000000PRSWM2
0189720198999992005011003004+40200-079833FM-15+0373KP53 V0202101N003119999999N9999999N1-00501-00701101181ADDAA101000891AA203000891MA1101081999999MD1610131+9999MW1001REMMET101KP53 100256Z AUTO 21006KT M05/M07 A2985 RMK AO2 SLP118 P0003 60003 T10501072 56013 PWINO FZRANO TSNO;EQDQ01+000000PRSWM2
0157720198999992005011004004+40200-079833FM-15+0373KP53 V0202401N002619999999N9999999N1-00501-00801101211ADDMA1101121999999MW1001REMMET089SPECI KP53 100356Z AUTO 24005KT M05/M08 A2986 RMK AO2 SLP121 T10501083 PWINO FZRANO TSNO;EQDQ01+000000PRSWM2Q02  00002PRCP06
0164720198999992005011005004+40200-079833FM-15+0373KP53 V02099999999999999999N9999999N1+99999+99999101291ADDKA1999M-00331KA2999N-00671MW1001REMMET101KP53 100456Z AUTO 26008KT 220V300 M04/M08 A2988 RMK AO2 SLP129 T10441083 410331067 PWINO FZRANO TSNO;EQDQ01+000000PRSWM2
0237720198999992005011006004+40200-079833FM-15+0373KP53 V0203101N007719999999N9999999N1-00301-00801101311ADDAA106000891KA1999M-00281KA2999N-00561MA1101221999999MD1310141+9999MW1001OC101131REMMET110KP53 100556Z AUTO 31015G22KT M03/M08 A2989 RMK AO2 SLP131 60003 T10281078 11028 21056 53014 PWINO FZRANO TSNO;EQDQ01+000000PRSWM2Q02  00088PRCP06
0180720198999992005011007004+40200-079833FM-15+0373KP53 V0203101N007219999999N9999999N1-00301-00801101341ADDMA1101251999999MW1001OC101081REMMET104KP53 100656Z AUTO 31014G21KT M03/M08 A2990 RMK AO2 PK WND 32026/0646 SLP134 T10281078 PWINO FZRANO TSNO;EQDQ01+000000PRSWM2Q02  00002PRCP06
0164720198999992005011008004+40200-079833FM-15+0373KP53 V0203201N009812200019N9999999N1-00301-00801101461ADDMA1101351999999MW1001OC101391REMMET104KP53 100756Z AUTO 32019G27KT M03/M08 A2993 RMK AO2 PK WND 32027/0748 SLP146 T10331083 PWINO FZRANO TSNO;EQDQ01+000000PRSWM2
0169720198999992005011009004+40200-079833FM-15+0373KP53 V02099999999992200019N9999999N1+99999+99999101561ADDMD1310241+9999MW1001REMMET118KP53 100856Z AUTO 32013G20KT 270V340 M03/M09 A2996 RMK AO2 PK WND 31028/0759 SLP156 T10331089 53024 PWINO FZRANO TSNO;EQDQ01+000000PRSWM2
0162720198999992005011010004+40200-079833FM-15+0373KP53 V0202901N006219999999N9999999N1-00401-00901101661ADDMA1101561999999MW1001OC100931REMMET086KP53 100956Z AUTO 29012G18KT M04/M09 A2999 RMK AO2 SLP166 T10391094 PWINO FZRANO TSNO;EQDQ01+000000PRSWM2Q02  00002PRCP06
0146720198999992005011011004+40200-079833FM-15+0373KP53 V0203001N005112200019N9999999N1-00401-01001101741ADDMA1101631999999MW1001OC100871REMMET086KP53 101056Z AUTO 30010G17KT M04/M10 A3001 RMK AO2 SLP174 T10441100 PWINO FZRANO TSNO;EQDQ01+000000PRSWM2
0222720198999992005011012004+40200-079833FM-15+0373KP53 V02099999999999999999N9999999N1+99999+99999101831ADDAA124000891KA1999M-00281KA2999N-00441MD1110271+9999MW1001REMMET118KP53 101156Z AUTO 30009G21KT 270V330 M04/M09 A3004 RMK AO2 SLP183 70003 T10441094 11028 21044 51027 PWINO FZRANO TSNO;EQDQ01+000000PRSWM2Q02  00088PRCP24
0176720198999992005011013004+40200-079833FM-15+0373KP53 V0203001N007219999999N9999999N1-00501-01001101921ADDMA1101831999999MD1999999+0001MW1001OC101031REMMET086KP53 101256Z AUTO 30014G20KT M05/M10 A3007 RMK AO2 SLP192 T10501100 PWINO FZRANO TSNO;EQDQ01+000000PRSWM2Q02  00002PRCP06
0135720198999992005011014004+40200-079833FM-15+0373KP53 V0203101N004612200019N9999999N1-00501-00901102011ADDMA1101901999999MW1001REMMET083KP53 101356Z AUTO 31009KT M05/M09 A3009 RMK AO2 SLP201 T10501094 PWINO FZRANO TSNO;EQDQ01+000000PRSWM2
0166720198999992005011015004+40200-079833FM-15+0373KP53 V0203101N006212200019N9999999N1-00501-00901102131ADDMA1102031999999MD1310291+9999MW1001OC100981REMMET092KP53 101456Z AUTO 31012G19KT M05/M09 A3013 RMK AO2 SLP213 T10501089 53029 PWINO FZRANO TSNO;EQDQ01+000000PRSWM2
0162720198999992005011016004+40200-079833FM-15+0373KP53 V0203401N006219999999N9999999N1-00501-00901102221ADDMA1102101999999MW1001OC100931REMMET086KP53 101556Z AUTO 34012G18KT M05/M09 A3015 RMK AO2 SLP222 T10501094 PWINO FZRANO TSNO;EQDQ01+000000PRSWM2Q02  00002PRCP06
0146720198999992005011017004+40200-079833FM-15+0373KP53 V0203301N008212200019N9999999N1-00501-01101102261ADDMA1102171999999MW1001OC101081REMMET086KP53 101656Z AUTO 33016G21KT M05/M11 A3017 RMK AO2 SLP226 T10501111 PWINO FZRANO TSNO;EQDQ01+000000PRSWM2
0204720198999992005011018004+40200-079833FM-15+0373KP53 V0203401N006219999999N9999999N1-00601-01001102301ADDKA1999M-00441KA2999N-00561MA1102201999999MD1110171+9999MW1001OC100981REMMET104KP53 101756Z AUTO 34012G19KT M06/M10 A3018 RMK AO2 SLP230 T10561100 11044 21056 51017 PWINO FZRANO TSNO;EQDQ01+000000PRSWM2
0151720198999992005011019004+40200-079833FM-15+0373KP53 V0203201N006219999999N9999999N1-00601-01101102291ADDMA1102201999999MW1001REMMET083KP53 101856Z AUTO 32012KT M06/M11 A3018 RMK AO2 SLP229 T10561106 PWINO FZRANO TSNO;EQDQ01+000000PRSWM2Q02  00002PRCP06
0135720198999992005011020004+40200-079833FM-15+0373KP53 V0203001N002612200019N9999999N1-00601-00901102321ADDMA1102201999999MW1001REMMET083KP53 101956Z AUTO 30005KT M06/M09 A3018 RMK AO2 SLP232 T10611089 PWINO FZRANO TSNO;EQDQ01+000000PRSWM2
0155720198999992005011021004+40200-079833FM-15+0373KP53 V0203001N003112200019N9999999N1-00601-00901102391ADDMA1102271999999MD1310091+9999MW1001REMMET089KP53 102056Z AUTO 30006KT M06/M09 A3020 RMK AO2 SLP239 T10611089 53009 PWINO FZRANO TSNO;EQDQ01+000000PRSWM2
0151720198999992005011022004+40200-079833FM-15+0373KP53 V0202701N002619999999N9999999N1-00601-01001102421ADDMA1102301999999MW1001REMMET083KP53 102156Z AUTO 27005KT M06/M10 A3021 RMK AO2 SLP242 T10611100 PWINO FZRANO TSNO;EQDQ01+000000PRSWM2Q02  00002PRCP06
0141720198999992005011023004+40200-079833FM-15+0373KP53 V0202201N001512200019N9999999N1-00801-01201102431ADDMA1102301999999MW1001REMMET089SPECI KP53 102256Z AUTO 22003KT M08/M12 A3021 RMK AO2 SLP243 T10781117 PWINO FZRANO TSNO;EQDQ01+000000PRSWM2
0193720198999992005011100004+40200-079833FM-15+0373KP53 V0201901N002619999999N9999999N1-01001-01201102421ADDKA1999M-00561KA2999N-01001MA1102301999999MD1010011+9999MW1001REMMET101KP53 102356Z AUTO 19005KT M10/M12 A3021 RMK AO2 SLP242 T11001117 11056 21100 50001 PWINO FZRANO TSNO;EQDQ01+000000PRSWM2
0151720198999992005011101004+40200-079833FM-15+0373KP53 V0201701N004119999999N9999999N1-01101-01301102401ADDMA1102271999999MW1001REMMET083KP53 110056Z AUTO 17008KT M11/M13 A3020 RMK AO2 SLP240 T11111133 PWINO FZRANO TSNO;EQDQ01+000000PRSWM2Q02  00002PRCP06
0135720198999992005011102004+40200-079833FM-15+0373KP53 V0201801N003112200019N9999999N1-01201-01401102411ADDMA1102301999999MW1001REMMET083KP53 110156Z AUTO 18006KT M12/M14 A3021 RMK AO2 SLP241 T11171139 PWINO FZRANO TSNO;EQDQ01+000000PRSWM2
0155720198999992005011103004+40200-079833FM-15+0373KP53 V0201801N003612200019N9999999N1-01101-01301102431ADDMA1102301999999MD1310021+9999MW1001REMMET089KP53 110256Z AUTO 18007KT M11/M13 A3021 RMK AO2 SLP243 T11111133 53002 PWINO FZRANO TSNO;EQDQ01+000000PRSWM2
0151720198999992005011104004+40200-079833FM-15+0373KP53 V0201801N003119999999N9999999N1-01101-01301102431ADDMA1102301999999MW1001REMMET083KP53 110356Z AUTO 18006KT M11/M13 A3021 RMK AO2 SLP243 T11061133 PWINO FZRANO TSNO;EQDQ01+000000PRSWM2Q02  00002PRCP06
0171720198999992005011105004+40200-079833FM-15+0373KP53 V0201901N002619999999N9999999N1-01101-01301102321ADDKA1999M-00281KA2999N-01221MA1102201999999MW1001REMMET093KP53 110456Z AUTO 19005KT M11/M13 A3018 RMK AO2 SLP232 T11111133 410281122 PWINO FZRANO TSNO;EQDQ01+000000PRSWM2
0193720198999992005011106004+40200-079833FM-15+0373KP53 V0201701N003619999999N9999999N1-01101-01301102371ADDKA1999M-00941KA2999N-01221MA1102241999999MD1510061+9999MW1001REMMET101KP53 110556Z AUTO 17007KT M11/M13 A3019 RMK AO2 SLP237 T11061128 11094 21122 55006 PWINO FZRANO TSNO;EQDQ01+000000PRSWM2
0151720198999992005011107004+40200-079833FM-15+0373KP53 V0202001N002619999999N9999999N1-00901-01301102341ADDMA1102201999999MW1001REMMET083KP53 110656Z AUTO 20005KT M09/M13 A3018 RMK AO2 SLP234 T10941128 PWINO FZRANO TSNO;EQDQ01+000000PRSWM2Q02  00002PRCP06
0135720198999992005011108004+40200-079833FM-15+0373KP53 V0202101N001512200019N9999999N1-01101-01301102331ADDMA1102201999999MW1001REMMET083KP53 110756Z AUTO 21003KT M11/M13 A3018 RMK AO2 SLP233 T11111133 PWINO FZRANO TSNO;EQDQ01+000000PRSWM2
0155720198999992005011109004+40200-079833FM-15+0373KP53 V0209999C000012200019N9999999N1-00901-01201102291ADDMA1102171999999MD1810081+9999MW1001REMMET089KP53 110856Z AUTO 00000KT M09/M12 A3017 RMK AO2 SLP229 T10941122 58008 PWINO FZRANO TSNO;EQDQ01+000000PRSWM2
0151720198999992005011110004+40200-079833FM-15+0373KP53 V0209999C000019999999N9999999N1-00701-01201102211ADDMA1102101999999MW1001REMMET083KP53 110956Z AUTO 00000KT M07/M12 A3015 RMK AO2 SLP221 T10721117 PWINO FZRANO TSNO;EQDQ01+000000PRSWM2Q02  00002PRCP06
0135720198999992005011111004+40200-079833FM-15+0373KP53 V0209999C000012200019N9999999N1-00801-01201102201ADDMA1102071999999MW1001REMMET083KP53 111056Z AUTO 00000KT M08/M12 A3014 RMK AO2 SLP220 T10781117 PWINO FZRANO TSNO;EQDQ01+000000PRSWM2
0193720198999992005011112004+40200-079833FM-15+0373KP53 V0202401N002119999999N9999999N1-00701-01101102161ADDKA1999M-00721KA2999N-01111MA1102031999999MD1610121+9999MW1001REMMET101KP53 111156Z AUTO 24004KT M07/M11 A3013 RMK AO2 SLP216 T10721111 11072 21111 56012 PWINO FZRANO TSNO;EQDQ01+000000PRSWM2
0165720198999992005011113004+40200-079833FM-15+0373KP53 V0202101N001519999999N9999999N1-00701-01101102161ADDMA1102031999999MD1999999+0001MW1001REMMET083KP53 111256Z AUTO 21003KT M07/M11 A3013 RMK AO2 SLP216 T10721106 PWINO FZRANO TSNO;EQDQ01+000000PRSWM2Q02  00002PRCP06
0135720198999992005011114004+40200-079833FM-15+0373KP53 V0202001N001512200019N9999999N1-00701-01101102151ADDMA1102031999999MW1001REMMET083KP53 111356Z AUTO 20003KT M07/M11 A3013 RMK AO2 SLP215 T10721106 PWINO FZRANO TSNO;EQDQ01+000000PRSWM2
0155720198999992005011115004+40200-079833FM-15+0373KP53 V0209999V002112200019N9999999N1-00701-00901102171ADDMA1102031999999MD1510001+9999MW1001REMMET089KP53 111456Z AUTO VRB04KT M07/M09 A3013 RMK AO2 SLP217 T10671094 55000 PWINO FZRANO TSNO;EQDQ01+000000PRSWM2
0151720198999992005011116004+40200-079833FM-15+0373KP53 V0202001N002619999999N9999999N1-00601-00901102181ADDMA1102071999999MW1001REMMET083KP53 111556Z AUTO 20005KT M06/M09 A3014 RMK AO2 SLP218 T10611089 PWINO FZRANO TSNO;EQDQ01+000000PRSWM2Q02  00002PRCP06
0135720198999992005011117004+40200-079833FM-15+0373KP53 V0201801N003612200019N9999999N1-00401-00801102121ADDMA1102001999999MW1001REMMET083KP53 111656Z AUTO 18007KT M04/M08 A3012 RMK AO2 SLP212 T10441078 PWINO FZRANO TSNO;EQDQ01+000000PRSWM2
0193720198999992005011118004+40200-079833FM-15+0373KP53 V0201601N004619999999N9999999N1-00401-00701101981ADDKA1999M-00331KA2999N-00721MA1101861999999MD1810181+9999MW1001REMMET101KP53 111756Z AUTO 16009KT M04/M07 A3008 RMK AO2 SLP198 T10391067 11033 21072 58018 PWINO FZRANO TSNO;EQDQ01+000000PRSWM2
0151720198999992005011119004+40200-079833FM-15+0373KP53 V0201701N003119999999N9999999N1-00301-00601101931ADDMA1101831999999MW1001REMMET083KP53 111856Z AUTO 17006KT M03/M06 A3007 RMK AO2 SLP193 T10281061 PWINO FZRANO TSNO;EQDQ01+000000PRSWM2Q02  00002PRCP06
0135720198999992005011120004+40200-079833FM-15+0373KP53 V0201601N002612200019N9999999N1-00301-00601101891ADDMA1101801999999MW1001REMMET083KP53 111956Z AUTO 16005KT M03/M06 A3006 RMK AO2 SLP189 T10281061 PWINO FZRANO TSNO;EQDQ01+000000PRSWM2
0155720198999992005011121004+40200-079833FM-15+0373KP53 V0201601N002612200019N9999999N1-00201-00601101921ADDMA1101801999999MD1510051+9999MW1001REMMET089KP53 112056Z AUTO 16005KT M02/M06 A3006 RMK AO2 SLP192 T10221061 55005 PWINO FZRANO TSNO;EQDQ01+000000PRSWM2
0151720198999992005011122004+40200-079833FM-15+0373KP53 V0201701N001519999999N9999999N1-00201-00601101871ADDMA1101761999999MW1001REMMET083KP53 112156Z AUTO 17003KT M02/M06 A3005 RMK AO2 SLP187 T10221056 PWINO FZRANO TSNO;EQDQ01+000000PRSWM2Q02  00002PRCP06
0135720198999992005011123004+40200-079833FM-15+0373KP53 V0201701N002112200019N9999999N1-00201-00601101901ADDMA1101801999999MW1001REMMET083KP53 112256Z AUTO 17004KT M02/M06 A3006 RMK AO2 SLP190 T10221056 PWINO FZRANO TSNO;EQDQ01+000000PRSWM2
0193720198999992005011200004+40200-079833FM-15+0373KP53 V0201601N002119999999N9999999N1-00301-00601101861ADDKA1999M-00221KA2999N-00391MA1101761999999MD1710051+9999MW1001REMMET101KP53 112356Z AUTO 16004KT M03/M06 A3005 RMK AO2 SLP186 T10281056 11022 21039 57005 PWINO FZRANO TSNO;EQDQ01+000000PRSWM2
0151720198999992005011201004+40200-079833FM-15+0373KP53 V0201701N002619999999N9999999N1-00301-00501101861ADDMA1101761999999MW1001REMMET083KP53 120056Z AUTO 17005KT M03/M05 A3005 RMK AO2 SLP186 T10331050 PWINO FZRANO TSNO;EQDQ01+000000PRSWM2Q02  00002PRCP06
0135720198999992005011202004+40200-079833FM-15+0373KP53 V0201801N002612200019N9999999N1-00301-00501101811ADDMA1101691999999MW1001REMMET083KP53 120156Z AUTO 18005KT M03/M05 A3003 RMK AO2 SLP181 T10331050 PWINO FZRANO TSNO;EQDQ01+000000PRSWM2
0155720198999992005011203004+40200-079833FM-15+0373KP53 V0209999C000012200019N9999999N1-00301-00601101771ADDMA1101661999999MD1810091+9999MW1001REMMET089KP53 120256Z AUTO 00000KT M03/M06 A3002 RMK AO2 SLP177 T10331056 58009 PWINO FZRANO TSNO;EQDQ01+000000PRSWM2
0157720198999992005011204004+40200-079833FM-15+0373KP53 V0209999V001519999999N9999999N1-00301-00601101661ADDMA1101561999999MW1001REMMET089SPECI KP53 120356Z AUTO VRB03KT M03/M06 A2999 RMK AO2 SLP166 T10331061 PWINO FZRANO TSNO;EQDQ01+000000PRSWM2Q02  00002PRCP06
0171720198999992005011205004+40200-079833FM-15+0373KP53 V0209999V002119999999N9999999N1-00301-00601101601ADDKA1999M-00221KA2999N-01111MA1101491999999MW1001REMMET093KP53 120456Z AUTO VRB04KT M03/M06 A2997 RMK AO2 SLP160 T10331056 410221111 PWINO FZRANO TSNO;EQDQ01+000000PRSWM2
0193720198999992005011206004+40200-079833FM-15+0373KP53 V0209999C000019999999N9999999N1-00301-00501101561ADDKA1999M-00281KA2999N-00391MA1101461999999MD1610191+9999MW1001REMMET101KP53 120556Z AUTO 00000KT M03/M05 A2996 RMK AO2 SLP156 T10331050 11028 21039 56019 PWINO FZRANO TSNO;EQDQ01+000000PRSWM2
0151720198999992005011207004+40200-079833FM-15+0373KP53 V0209999V001519999999N9999999N1-00301-00401101471ADDMA1101391999999MW1001REMMET083KP53 120656Z AUTO VRB03KT M03/M04 A2994 RMK AO2 SLP147 T10281039 PWINO FZRANO TSNO;EQDQ01+000000PRSWM2Q02  00002PRCP06
0155720198999992005011209004+40200-079833FM-15+0373KP53 V0209999V001512200019N9999999N1-00101-00301101341ADDMA1101251999999MD1810211+9999MW1001REMMET089KP53 120856Z AUTO VRB03KT M01/M03 A2990 RMK AO2 SLP134 T10111028 58021 PWINO FZRANO TSNO;EQDQ01+000000PRSWM2
0151720198999992005011210004+40200-079833FM-15+0373KP53 V0201101N003619999999N9999999N1-00101-00301101201ADDMA1101121999999MW1001REMMET083KP53 120956Z AUTO 11007KT M01/M03 A2986 RMK AO2 SLP120 T10111028 PWINO FZRANO TSNO;EQDQ01+000000PRSWM2Q02  00002PRCP06
0131720198999992005011211004+40200-079833FM-15+0373KP53 V02099999999992200019N9999999N1+99999+99999101111ADDMW1001REMMET094KP53 121056Z AUTO 12009G14KT 090V160 M01/M03 A2983 RMK AO2 SLP111 T10111033 PWINO FZRANO TSNO;EQDQ01+000000PRSWM2
0269720198999992005011212004+40200-079833FM-15+0373KP53 V02099999999999999999N9999999N1+99999+99999101001ADDAA101000391AA206000391AA324000391KA1999M-00061KA2999N-00331MD1610331+9999MW1001REMMET127KP53 121156Z AUTO 14008KT 100V200 M01/M03 A2980 RMK AO2 SLP100 P0001 60001 70001 T10111033 11006 21033 56033 PWINO FZRANO TSNO;EQDQ01+000000PRSWM2Q02  00038PRCP06Q03  00038PRCP24
0165720198999992005011213004+40200-079833FM-15+0373KP53 V0201501N004619999999N9999999N1-00101-00301100891ADDMA1100811999999MD1999999+0001MW1001REMMET083KP53 121256Z AUTO 15009KT M01/M03 A2977 RMK AO2 SLP089 T10111033 PWINO FZRANO TSNO;EQDQ01+000000PRSWM2Q02  00002PRCP06
0131720198999992005011214004+40200-079833FM-15+0373KP53 V02099999999992200019N9999999N1+99999+99999100741ADDMW1001REMMET094KP53 121356Z AUTO 14009G16KT 110V180 M02/M03 A2972 RMK AO2 SLP074 T10171033 PWINO FZRANO TSNO;EQDQ01+000000PRSWM2
0182720198999992005011215004+40200-079833FM-15+0373KP53 V02099999999999999999N9999999N1+99999+99999100641ADDAA101000391AA203000391MD1610351+9999MW1001REMMET109KP53 121456Z AUTO 14007KT 100V180 M02/M03 A2969 RMK AO2 SLP064 P0001 60001 T10171033 56035 PWINO FZRANO TSNO;EQDQ01+000000PRSWM2
0151720198999992005011216004+40200-079833FM-15+0373KP53 V0201501N003119999999N9999999N1-00101-00201100491ADDMA1100411999999MW1001REMMET083KP53 121556Z AUTO 15006KT M01/M02 A2965 RMK AO2 SLP049 T10111022 PWINO FZRANO TSNO;EQDQ01+000000PRSWM2Q02  00002PRCP06
0145720198999992005011217004+40200-079833FM-15+0373KP53 V0201601N007212200019N9999999N1+00001-00201100371ADDMA1100271999999MW1001OC101031REMMET085KP53 121656Z AUTO 16014G20KT 00/M02 A2961 RMK AO2 SLP037 T00001017 PWINO FZRANO TSNO;EQDQ01+000000PRSWM2
0225720198999992005011218004+40200-079833FM-15+0373KP53 V0201701N005719999999N9999999N1+00101-00101100151ADDAA106000391KA1999M+00061KA2999N-00171MA1100071999999MD1810481+9999MW1001REMMET106KP53 121756Z AUTO 17011KT 01/M01 A2955 RMK AO2 SLP015 60001 T00061011 10006 21017 58048 PWINO FZRANO TSNO;EQDQ01+000000PRSWM2Q02  00038PRCP06
0161720198999992005011219004+40200-079833FM-15+0373KP53 V0201601N007219999999N9999999N1+00101-00101099951ADDMA1099861999999MW1001OC101081REMMET085KP53 121856Z AUTO 16014G21KT 01/M01 A2949 RMK AO2 SLP995 T00111006 PWINO FZRANO TSNO;EQDQ01+000000PRSWM2Q02  00002PRCP06
0145720198999992005011220004+40200-079833FM-15+0373KP53 V0201601N005112200019N9999999N1+00101-00101099781ADDMA1099701999999MW1001OC100821REMMET085KP53 121956Z AUTO 16010G16KT 01/M01 A2944 RMK AO2 SLP978 T00061006 PWINO FZRANO TSNO;EQDQ01+000000PRSWM2
0170720198999992005011221004+40200-079833FM-15+0373KP53 V0201701N005112200019N9999999N1+00101+00001099701ADDMA1099631999999MD1610431+9999MW1001OC100931REMMET096SPECI KP53 122056Z AUTO 17010G18KT 01/00 A2942 RMK AO2 SLP970 T00110000 56043 PWINO FZRANO TSNO;EQDQ01+000000PRSWM2
0172720198999992005011222004+40200-079833FM-15+0373KP53 V0201901N003619999999N9999999N1+00101+00101099721ADDAA101000391MA1099631999999MW1001REMMET093SPECI KP53 122156Z AUTO 19007KT 01/01 A2942 RMK AO2 SLP972 P0001 T00110006 PWINO FZRANO TSNO;EQDQ01+000000PRSWM2Q02  00002PRCP06
0150720198999992005011223004+40200-079833FM-15+0373KP53 V0201801N002119999999N9999999N1+00201+00101099651ADDAA101000391MA1099591999999MW1001REMMET087KP53 122256Z AUTO 18004KT 02/01 A2941 RMK AO2 SLP965 P0001 T00220011 PWINO FZRANO TSNO;EQDQ01+000000PRSWM2
0217720198999992005011300004+40200-079833FM-15+0373KP53 V0202101N003119999999N9999999N1+00301+00201099701ADDAA106000591KA1999M+00331KA2999N+00061MA1099631999999MD1310011+9999MW1001REMMET098KP53 122356Z AUTO 21006KT 03/02 A2942 RMK AO2 SLP970 60002 T00330022 10033 20006 53001 PWINO TSNO;EQDQ01+000000PRSWM2Q02  00058PRCP06
0142720198999992005011301004+40200-079833FM-15+0373KP53 V0201901N004119999999N9999999N1+00301+00201099641ADDMA1099561999999MW1001REMMET074KP53 130056Z AUTO 19008KT 03/02 A2940 RMK AO2 SLP964 T00280017 PWINO TSNO;EQDQ01+000000PRSWM2Q02  00002PRCP06
0126720198999992005011302004+40200-079833FM-15+0373KP53 V0202101N003112200019N9999999N1+00301+00101099671ADDMA1099591999999MW1001REMMET074KP53 130156Z AUTO 21006KT 03/01 A2941 RMK AO2 SLP967 T00280011 PWINO TSNO;EQDQ01+000000PRSWM2
0149720198999992005011304004+40200-079833FM-15+0373KP53 V0209999C000019999999N9999999N1+00201+00101099741ADDMA1099661999999MW1001REMMET081KP53 130356Z AUTO 00000KT 02/01 A2943 RMK AO2 SLP974 T00220006 PWINO FZRANO TSNO;EQDQ01+000000PRSWM2Q02  00002PRCP06
0169720198999992005011305004+40200-079833FM-15+0373KP53 V0202101N002619999999N9999999N1+00201+00101099801ADDKA1999M+00331KA2999N-00331MA1099731999999MW1001REMMET091KP53 130456Z AUTO 21005KT 02/01 A2945 RMK AO2 SLP980 T00220006 400331033 PWINO FZRANO TSNO;EQDQ01+000000PRSWM2
0191720198999992005011306004+40200-079833FM-15+0373KP53 V0202301N003119999999N9999999N1+00201+00001099771ADDKA1999M+00331KA2999N+00221MA1099731999999MD1010121+9999MW1001REMMET099KP53 130556Z AUTO 23006KT 02/00 A2945 RMK AO2 SLP977 T00220000 10033 20022 50012 PWINO FZRANO TSNO;EQDQ01+000000PRSWM2
0149720198999992005011307004+40200-079833FM-15+0373KP53 V0202301N001519999999N9999999N1+00201+00001099841ADDMA1099761999999MW1001REMMET081KP53 130656Z AUTO 23003KT 02/00 A2946 RMK AO2 SLP984 T00220000 PWINO FZRANO TSNO;EQDQ01+000000PRSWM2Q02  00002PRCP06
0134720198999992005011308004+40200-079833FM-15+0373KP53 V0203201N003612200019N9999999N1+00201-00201099961ADDMA1099901999999MW1001REMMET082KP53 130756Z AUTO 32007KT 02/M02 A2950 RMK AO2 SLP996 T00221017 PWINO FZRANO TSNO;EQDQ01+000000PRSWM2
0165720198999992005011309004+40200-079833FM-15+0373KP53 V0203201N006212200019N9999999N1+00101-00201100021ADDMA1099971999999MD1110241+9999MW1001OC100871REMMET091KP53 130856Z AUTO 32012G17KT 01/M02 A2952 RMK AO2 SLP002 T00111022 51024 PWINO FZRANO TSNO;EQDQ01+000000PRSWM2
0150720198999992005011310004+40200-079833FM-15+0373KP53 V0203101N005719999999N9999999N1+00101-00401100181ADDMA1100101999999MW1001REMMET082KP53 130956Z AUTO 31011KT 01/M04 A2956 RMK AO2 SLP018 T00061039 PWINO FZRANO TSNO;EQDQ01+000000PRSWM2Q02  00002PRCP06
0134720198999992005011311004+40200-079833FM-15+0373KP53 V0203001N003612200019N9999999N1+00001-00401100221ADDMA1100171999999MW1001REMMET082KP53 131056Z AUTO 30007KT 00/M04 A2958 RMK AO2 SLP022 T00001039 PWINO FZRANO TSNO;EQDQ01+000000PRSWM2
0227720198999992005011312004+40200-079833FM-15+0373KP53 V0202901N003619999999N9999999N1+00001-00401100241ADDAA124000891KA1999M+00221KA2999N+00001MA1100171999999MD1110211+9999MW1001REMMET108KP53 131156Z AUTO 29007KT 00/M04 A2958 RMK AO2 SLP024 70003 T00001044 10022 20000 51021 PWINO FZRANO TSNO /;EQDQ01+000000PRSWM2Q02  00088PRCP24
0166720198999992005011313004+40200-079833FM-15+0373KP53 V0203201N004119999999N9999999N1+00001-00401100161ADDMA1100101999999MD1999999+0001MW1001REMMET084KP53 131256Z AUTO 32008KT 00/M04 A2956 RMK AO2 SLP016 T00001044 PWINO FZRANO TSNO /;EQDQ01+000000PRSWM2Q02  00002PRCP06
0136720198999992005011314004+40200-079833FM-15+0373KP53 V0203001N005112200019N9999999N1+00001-00601100351ADDMA1100271999999MW1001REMMET084KP53 131356Z AUTO 30010KT 00/M06 A2961 RMK AO2 SLP035 T00001056 PWINO FZRANO TSNO /;EQDQ01+000000PRSWM2
0164720198999992005011315004+40200-079833FM-15+0373KP53 V0203101N004612200019N9999999N1-00101-00601100521ADDMA1100441999999MD1310281+9999MW1001REMMET098KP53 131456Z AUTO 31009KT M01/M06 A2966 RMK AO2 PRESRR SLP052 T10061056 53028 PWINO FZRANO TSNO /;EQDQ01+000000PRSWM2
0164720198999992005011316004+40200-079833FM-15+0373KP53 V0203101N005719999999N9999999N1-00101-00601100551ADDMA1100471999999MW1001OC100931REMMET088KP53 131556Z AUTO 31011G18KT M01/M06 A2967 RMK AO2 SLP055 T10061061 PWINO FZRANO TSNO /;EQDQ01+000000PRSWM2Q02  00002PRCP06
0148720198999992005011317004+40200-079833FM-15+0373KP53 V0203301N007712200019N9999999N1-00101-00601100511ADDMA1100441999999MW1001OC100981REMMET088KP53 131656Z AUTO 33015G19KT M01/M06 A2966 RMK AO2 SLP051 T10111061 PWINO FZRANO TSNO /;EQDQ01+000000PRSWM2
0206720198999992005011318004+40200-079833FM-15+0373KP53 V0203301N009319999999N9999999N1-00201-00701100571ADDKA1999M+00001KA2999N-00221MA1100511999999MD1310041+9999MW1001OC101231REMMET106KP53 131756Z AUTO 33018G24KT M02/M07 A2968 RMK AO2 SLP057 T10221067 10000 21022 53004 PWINO FZRANO TSNO /;EQDQ01+000000PRSWM2
0162720198999992005011319004+40200-079833FM-15+0373KP53 V0203201N008219999999N9999999N1-00301-00801100631ADDMA1100541999999MW1001OC101081REMMET086KP53 131856Z AUTO 32016G21KT M03/M08 A2969 RMK AO2 SLP063 T10281083 PWINO FZRANO TSNO;EQDQ01+000000PRSWM2Q02  00002PRCP06
0146720198999992005011320004+40200-079833FM-15+0373KP53 V0203201N008712200019N9999999N1-00501-00901100811ADDMA1100711999999MW1001OC101181REMMET086KP53 131956Z AUTO 32017G23KT M05/M09 A2974 RMK AO2 SLP081 T10501094 PWINO FZRANO TSNO;EQDQ01+000000PRSWM2
0184720198999992005011321004+40200-079833FM-15+0373KP53 V0203201N006712200019N9999999N1-00601-01101100931ADDMA1100851999999MD1310341+9999MW1001OC101181REMMET110KP53 132056Z AUTO 32013G23KT M06/M11 A2978 RMK AO2 PK WND 33026/2003 SLP093 T10561111 53034 PWINO FZRANO TSNO;EQDQ01+000000PRSWM2
0151720198999992005011322004+40200-079833FM-15+0373KP53 V0203201N007719999999N9999999N1-00701-01301101061ADDMA1100951999999MW1001REMMET083KP53 132156Z AUTO 32015KT M07/M13 A2981 RMK AO2 SLP106 T10721133 PWINO FZRANO TSNO;EQDQ01+000000PRSWM2Q02  00002PRCP06
0164720198999992005011323004+40200-079833FM-15+0373KP53 V0203101N008712200019N9999999N1-00901-01601101231ADDMA1101121999999MW1001OC101341REMMET104KP53 132256Z AUTO 31017G26KT M09/M16 A2986 RMK AO2 PK WND 30026/2249 SLP123 T10891161 PWINO FZRANO TSNO;EQDQ01+000000PRSWM2
0204720198999992005011400004+40200-079833FM-15+0373KP53 V0203101N007719999999N9999999N1-01001-01701101431ADDKA1999M-00171KA2999N-01001MA1101321999999MD1310471+9999MW1001OC101031REMMET104KP53 132356Z AUTO 31015G20KT M10/M17 A2992 RMK AO2 SLP143 T11001172 11017 21100 53047 PWINO FZRANO TSNO;EQDQ01+000000PRSWM2
0162720198999992005011401004+40200-079833FM-15+0373KP53 V0202701N004119999999N9999999N1-01201-01901101581ADDMA1101461999999MW1001OC100981REMMET086KP53 140056Z AUTO 27008G19KT M12/M19 A2996 RMK AO2 SLP158 T11171189 PWINO FZRANO TSNO;EQDQ01+000000PRSWM2Q02  00002PRCP06
0146720198999992005011402004+40200-079833FM-15+0373KP53 V0202701N006212200019N9999999N1-01301-02001101661ADDMA1101561999999MW1001OC100931REMMET086KP53 140156Z AUTO 27012G18KT M13/M20 A2999 RMK AO2 SLP166 T11331200 PWINO FZRANO TSNO;EQDQ01+000000PRSWM2
0166720198999992005011403004+40200-079833FM-15+0373KP53 V0202601N004112200019N9999999N1-01401-02101101781ADDMA1101661999999MD1110341+9999MW1001OC100981REMMET092KP53 140256Z AUTO 26008G19KT M14/M21 A3002 RMK AO2 SLP178 T11391206 51034 PWINO FZRANO TSNO;EQDQ01+000000PRSWM2
0162720198999992005011404004+40200-079833FM-15+0373KP53 V0202501N006219999999N9999999N1-01501-02201101881ADDMA1101761999999MW1001OC101131REMMET086KP53 140356Z AUTO 25012G22KT M15/M22 A3005 RMK AO2 SLP188 T11501217 PWINO FZRANO TSNO;EQDQ01+000000PRSWM2Q02  00002PRCP06
0182720198999992005011405004+40200-079833FM-15+0373KP53 V0202501N005719999999N9999999N1-01601-02201102001ADDKA1999M+00221KA2999N-01611MA1101861999999MW1001OC100931REMMET096KP53 140456Z AUTO 25011G18KT M16/M22 A3008 RMK AO2 SLP200 T11611222 400221161 PWINO FZRANO TSNO;EQDQ01+000000PRSWM2
0204720198999992005011406004+40200-079833FM-15+0373KP53 V0202501N007219999999N9999999N1-01701-02301102111ADDKA1999M-01001KA2999N-01671MA1101961999999MD1110311+9999MW1001OC100931REMMET104KP53 140556Z AUTO 25014G18KT M17/M23 A3011 RMK AO2 SLP211 T11671233 11100 21167 51031 PWINO FZRANO TSNO;EQDQ01+000000PRSWM2
0162720198999992005011407004+40200-079833FM-15+0373KP53 V0202401N005719999999N9999999N1-01801-02401102251ADDMA1102101999999MW1001OC100981REMMET086KP53 140656Z AUTO 24011G19KT M18/M24 A3015 RMK AO2 SLP225 T11781244 PWINO FZRANO TSNO;EQDQ01+000000PRSWM2Q02  00002PRCP06
0146720198999992005011408004+40200-079833FM-15+0373KP53 V0202401N005112200019N9999999N1-01801-02401102371ADDMA1102241999999MW1001OC100771REMMET086KP53 140756Z AUTO 24010G15KT M18/M24 A3019 RMK AO2 SLP237 T11831244 PWINO FZRANO TSNO;EQDQ01+000000PRSWM2
0155720198999992005011409004+40200-079833FM-15+0373KP53 V0202301N003612200019N9999999N1-01901-02501102511ADDMA1102341999999MD1110371+9999MW1001REMMET089KP53 140856Z AUTO 23007KT M19/M25 A3022 RMK AO2 SLP251 T11891250 51037 PWINO FZRANO TSNO;EQDQ01+000000PRSWM2
0151720198999992005011410004+40200-079833FM-15+0373KP53 V0202301N004619999999N9999999N1-01901-02601102621ADDMA1102471999999MW1001REMMET083KP53 140956Z AUTO 23009KT M19/M26 A3026 RMK AO2 SLP262 T11941256 PWINO FZRANO TSNO;EQDQ01+000000PRSWM2Q02  00002PRCP06
0135720198999992005011411004+40200-079833FM-15+0373KP53 V0202201N005112200019N9999999N1-02001-02601102721ADDMA1102541999999MW1001REMMET083KP53 141056Z AUTO 22010KT M20/M26 A3028 RMK AO2 SLP272 T12001261 PWINO FZRANO TSNO;EQDQ01+000000PRSWM2
0204720198999992005011412004+40200-079833FM-15+0373KP53 V0202301N006219999999N9999999N1-02001-02601102761ADDKA1999M-01671KA2999N-02001MA1102611999999MD1110241+9999MW1001OC100871REMMET104KP53 141156Z AUTO 23012G17KT M20/M26 A3030 RMK AO2 SLP276 T12001261 11167 21200 51024 PWINO FZRANO TSNO;EQDQ01+000000PRSWM2
0176720198999992005011413004+40200-079833FM-15+0373KP53 V0202401N006719999999N9999999N1-02001-02601102841ADDMA1102681999999MD1999999+0001MW1001OC101031REMMET086KP53 141256Z AUTO 24013G20KT M20/M26 A3032 RMK AO2 SLP284 T12001261 PWINO FZRANO TSNO;EQDQ01+000000PRSWM2Q02  00002PRCP06
0146720198999992005011414004+40200-079833FM-15+0373KP53 V0202401N005712200019N9999999N1-02001-02601102901ADDMA1102711999999MW1001OC101031REMMET086KP53 141356Z AUTO 24011G20KT M20/M26 A3033 RMK AO2 SLP290 T12001261 PWINO FZRANO TSNO;EQDQ01+000000PRSWM2
0166720198999992005011415004+40200-079833FM-15+0373KP53 V0202501N006212200019N9999999N1-01901-02601103031ADDMA1102841999999MD1310251+9999MW1001OC100981REMMET092KP53 141456Z AUTO 25012G19KT M19/M26 A3037 RMK AO2 SLP303 T11891256 53025 PWINO FZRANO TSNO;EQDQ01+000000PRSWM2
0162720198999992005011416004+40200-079833FM-15+0373KP53 V0202601N006219999999N9999999N1-01701-02401103141ADDMA1102951999999MW1001OC100981REMMET086KP53 141556Z AUTO 26012G19KT M17/M24 A3040 RMK AO2 SLP314 T11721244 PWINO FZRANO TSNO;EQDQ01+000000PRSWM2Q02  00002PRCP06
0146720198999992005011417004+40200-079833FM-15+0373KP53 V0202501N006212200019N9999999N1-01601-02301103171ADDMA1102981999999MW1001OC100981REMMET086KP53 141656Z AUTO 25012G19KT M16/M23 A3041 RMK AO2 SLP317 T11611233 PWINO FZRANO TSNO;EQDQ01+000000PRSWM2
0204720198999992005011418004+40200-079833FM-15+0373KP53 V0202701N008219999999N9999999N1-01501-02301103181ADDKA1999M-01501KA2999N-02001MA1103011999999MD1110151+9999MW1001OC101131REMMET104KP53 141756Z AUTO 27016G22KT M15/M23 A3042 RMK AO2 SLP318 T11501228 11150 21200 51015 PWINO FZRANO TSNO;EQDQ01+000000PRSWM2
0162720198999992005011419004+40200-079833FM-15+0373KP53 V0202501N007219999999N9999999N1-01401-02201103191ADDMA1103011999999MW1001OC100981REMMET086KP53 141856Z AUTO 25014G19KT M14/M22 A3042 RMK AO2 SLP319 T11391222 PWINO FZRANO TSNO;EQDQ01+000000PRSWM2Q02  00002PRCP06
0131720198999992005011420004+40200-079833FM-15+0373KP53 V02099999999992200019N9999999N1+99999+99999103241ADDMW1001REMMET094KP53 141956Z AUTO 28011G24KT 240V320 M14/M22 A3043 RMK AO2 SLP324 T11391222 PWINO FZRANO TSNO;EQDQ01+000000PRSWM2
0166720198999992005011421004+40200-079833FM-15+0373KP53 V0202701N005712200019N9999999N1-01401-02301103281ADDMA1103081999999MD1310101+9999MW1001OC100931REMMET092KP53 142056Z AUTO 27011G18KT M14/M23 A3044 RMK AO2 SLP328 T11391233 53010 PWINO FZRANO TSNO;EQDQ01+000000PRSWM2
0162720198999992005011422004+40200-079833FM-15+0373KP53 V0202501N004619999999N9999999N1-01401-02401103331ADDMA1103151999999MW1001OC100821REMMET086KP53 142156Z AUTO 25009G16KT M14/M24 A3046 RMK AO2 SLP333 T11441244 PWINO FZRANO TSNO;EQDQ01+000000PRSWM2Q02  00002PRCP06
0135720198999992005011423004+40200-079833FM-15+0373KP53 V0202401N003612200019N9999999N1-01601-02401103431ADDMA1103251999999MW1001REMMET083KP53 142256Z AUTO 24007KT M16/M24 A3049 RMK AO2 SLP343 T11561244 PWINO FZRANO TSNO;EQDQ01+000000PRSWM2
0199720198999992005011500004+40200-079833FM-15+0373KP53 V0202001N003119999999N9999999N1-01701-02501103451ADDKA1999M-01331KA2999N-01671MA1103251999999MD1110161+9999MW1001REMMET107SPECI KP53 142356Z AUTO 20006KT M17/M25 A3049 RMK AO2 SLP345 T11671250 11133 21167 51016 PWINO FZRANO TSNO;EQDQ01+000000PRSWM2
0151720198999992005011501004+40200-079833FM-15+0373KP53 V0202201N003619999999N9999999N1-01701-02601103481ADDMA1103291999999MW1001REMMET083KP53 150056Z AUTO 22007KT M17/M26 A3050 RMK AO2 SLP348 T11671256 PWINO FZRANO TSNO;EQDQ01+000000PRSWM2Q02  00002PRCP06
0135720198999992005011502004+40200-079833FM-15+0373KP53 V0202301N004112200019N9999999N1-01701-02701103521ADDMA1103321999999MW1001REMMET083KP53 150156Z AUTO 23008KT M17/M27 A3051 RMK AO2 SLP352 T11721272 PWINO FZRANO TSNO;EQDQ01+000000PRSWM2
0151720198999992005011503004+40200-079833FM-15+0373KP53 V02099999999992200019N9999999N1+99999+99999103501ADDMD1010051+9999MW1001REMMET100KP53 150256Z AUTO 21009G15KT 180V260 M18/M28 A3051 RMK AO2 SLP350 T11781283 50005 PWINO FZRANO TSNO;EQDQ01+000000PRSWM2
0162720198999992005011504004+40200-079833FM-15+0373KP53 V0202101N005119999999N9999999N1-01801-02801103521ADDMA1103321999999MW1001OC100871REMMET086KP53 150356Z AUTO 21010G17KT M18/M28 A3051 RMK AO2 SLP352 T11781283 PWINO FZRANO TSNO;EQDQ01+000000PRSWM2Q02  00002PRCP06
0182720198999992005011505004+40200-079833FM-15+0373KP53 V0202401N005719999999N9999999N1-01801-02901103541ADDKA1999M-01331KA2999N-02001MA1103351999999MW1001OC100821REMMET096KP53 150456Z AUTO 24011G16KT M18/M29 A3052 RMK AO2 SLP354 T11831289 411331200 PWINO FZRANO TSNO;EQDQ01+000000PRSWM2
0204720198999992005011506004+40200-079833FM-15+0373KP53 V0202301N006219999999N9999999N1-01901-02901103511ADDKA1999M-01671KA2999N-01891MA1103321999999MD1010021+9999MW1001OC100771REMMET104KP53 150556Z AUTO 23012G15KT M19/M29 A3051 RMK AO2 SLP351 T11891289 11167 21189 50002 PWINO FZRANO TSNO;EQDQ01+000000PRSWM2
0147720198999992005011507004+40200-079833FM-15+0373KP53 V02099999999999999999N9999999N1+99999+99999103481ADDMW1001REMMET094KP53 150656Z AUTO 23007G15KT 200V260 M19/M29 A3051 RMK AO2 SLP348 T11941289 PWINO FZRANO TSNO;EQDQ01+000000PRSWM2Q02  00002PRCP06
0131720198999992005011508004+40200-079833FM-15+0373KP53 V02099999999992200019N9999999N1+99999+99999103501ADDMW1001REMMET094KP53 150756Z AUTO 23011G17KT 200V270 M20/M28 A3051 RMK AO2 SLP350 T12001283 PWINO FZRANO TSNO;EQDQ01+000000PRSWM2
0166720198999992005011509004+40200-079833FM-15+0373KP53 V0202201N005112200019N9999999N1-02101-02801103531ADDMA1103321999999MD1310011+9999MW1001OC100821REMMET092KP53 150856Z AUTO 22010G16KT M21/M28 A3051 RMK AO2 SLP353 T12061283 53001 PWINO FZRANO TSNO;EQDQ01+000000PRSWM2
0162720198999992005011510004+40200-079833FM-15+0373KP53 V0202201N006219999999N9999999N1-02101-02801103501ADDMA1103321999999MW1001OC100871REMMET086KP53 150956Z AUTO 22012G17KT M21/M28 A3051 RMK AO2 SLP350 T12111283 PWINO FZRANO TSNO;EQDQ01+000000PRSWM2Q02  00002PRCP06
0135720198999992005011511004+40200-079833FM-15+0373KP53 V0202101N005112200019N9999999N1-02101-02801103541ADDMA1103351999999MW1001REMMET083KP53 151056Z AUTO 21010KT M21/M28 A3052 RMK AO2 SLP354 T12111283 PWINO FZRANO TSNO;EQDQ01+000000PRSWM2
0193720198999992005011512004+40200-079833FM-15+0373KP53 V0202001N004119999999N9999999N1-02101-02801103601ADDKA1999M-01891KA2999N-02111MA1103391999999MD1310061+9999MW1001REMMET101KP53 151156Z AUTO 20008KT M21/M28 A3053 RMK AO2 SLP360 T12111283 11189 21211 53006 PWINO FZRANO TSNO;EQDQ01+000000PRSWM2
0176720198999992005011513004+40200-079833FM-15+0373KP53 V0202001N004619999999N9999999N1-02201-02801103581ADDMA1103391999999MD1999999+0001MW1001OC100821REMMET086KP53 151256Z AUTO 20009G16KT M22/M28 A3053 RMK AO2 SLP358 T12171283 PWINO FZRANO TSNO;EQDQ01+000000PRSWM2Q02  00002PRCP06
0146720198999992005011514004+40200-079833FM-15+0373KP53 V0202101N007212200019N9999999N1-02201-02901103631ADDMA1103421999999MW1001OC101031REMMET086KP53 151356Z AUTO 21014G20KT M22/M29 A3054 RMK AO2 SLP363 T12221289 PWINO FZRANO TSNO;EQDQ01+000000PRSWM2
0166720198999992005011515004+40200-079833FM-15+0373KP53 V0202201N005712200019N9999999N1-02201-02801103691ADDMA1103491999999MD1310091+9999MW1001OC100931REMMET092KP53 151456Z AUTO 22011G18KT M22/M28 A3056 RMK AO2 SLP369 T12171283 53009 PWINO FZRANO TSNO;EQDQ01+000000PRSWM2
0162720198999992005011516004+40200-079833FM-15+0373KP53 V0202101N005119999999N9999999N1-02001-02801103721ADDMA1103521999999MW1001OC100931REMMET086KP53 151556Z AUTO 21010G18KT M20/M28 A3057 RMK AO2 SLP372 T12001283 PWINO FZRANO TSNO;EQDQ01+000000PRSWM2Q02  00002PRCP06
0146720198999992005011517004+40200-079833FM-15+0373KP53 V0202501N005112200019N9999999N1-01801-02701103731ADDMA1103561999999MW1001OC100871REMMET086KP53 151656Z AUTO 25010G17KT M18/M27 A3058 RMK AO2 SLP373 T11781272 PWINO FZRANO TSNO;EQDQ01+000000PRSWM2
0204720198999992005011518004+40200-079833FM-15+0373KP53 V0202901N008219999999N9999999N1-01701-02701103731ADDKA1999M-01671KA2999N-02221MA1103521999999MD1010041+9999MW1001OC101131REMMET104KP53 151756Z AUTO 29016G22KT M17/M27 A3057 RMK AO2 SLP373 T11671272 11167 21222 50004 PWINO FZRANO TSNO;EQDQ01+000000PRSWM2
0147720198999992005011519004+40200-079833FM-15+0373KP53 V02099999999999999999N9999999N1+99999+99999103721ADDMW1001REMMET094KP53 151856Z AUTO 28012G17KT 240V300 M17/M27 A3057 RMK AO2 SLP372 T11671267 PWINO FZRANO TSNO;EQDQ01+000000PRSWM2Q02  00002PRCP06
0131720198999992005011520004+40200-079833FM-15+0373KP53 V02099999999992200019N9999999N1+99999+99999103761ADDMW1001REMMET094KP53 151956Z AUTO 26011G17KT 210V280 M16/M27 A3058 RMK AO2 SLP376 T11611272 PWINO FZRANO TSNO;EQDQ01+000000PRSWM2
0155720198999992005011521004+40200-079833FM-15+0373KP53 V0202501N005112200019N9999999N1-01701-02801103811ADDMA1103621999999MD1310071+9999MW1001REMMET089KP53 152056Z AUTO 25010KT M17/M28 A3060 RMK AO2 SLP381 T11671278 53007 PWINO FZRANO TSNO;EQDQ01+000000PRSWM2
0151720198999992005011522004+40200-079833FM-15+0373KP53 V0202501N003619999999N9999999N1-01701-02801103861ADDMA1103661999999MW1001REMMET083KP53 152156Z AUTO 25007KT M17/M28 A3061 RMK AO2 SLP386 T11671278 PWINO FZRANO TSNO;EQDQ01+000000PRSWM2Q02  00002PRCP06
0135720198999992005011523004+40200-079833FM-15+0373KP53 V0202401N002612200019N9999999N1-01801-02801103931ADDMA1103731999999MW1001REMMET083KP53 152256Z AUTO 24005KT M18/M28 A3063 RMK AO2 SLP393 T11781283 PWINO FZRANO TSNO;EQDQ01+000000PRSWM2
0193720198999992005011600004+40200-079833FM-15+0373KP53 V0202401N003119999999N9999999N1-01801-02901104021ADDKA1999M-01611KA2999N-01831MA1103831999999MD1310201+9999MW1001REMMET101KP53 152356Z AUTO 24006KT M18/M29 A3066 RMK AO2 SLP402 T11831289 11161 21183 53020 PWINO FZRANO TSNO;EQDQ01+000000PRSWM2
0151720198999992005011601004+40200-079833FM-15+0373KP53 V0202301N003119999999N9999999N1-01901-02901104061ADDMA1103831999999MW1001REMMET083KP53 160056Z AUTO 23006KT M19/M29 A3066 RMK AO2 SLP406 T11891294 PWINO FZRANO TSNO;EQDQ01+000000PRSWM2Q02  00002PRCP06
0135720198999992005011602004+40200-079833FM-15+0373KP53 V0202301N005112200019N9999999N1-02001-02901104071ADDMA1103861999999MW1001REMMET083KP53 160156Z AUTO 23010KT M20/M29 A3067 RMK AO2 SLP407 T12001294 PWINO FZRANO TSNO;EQDQ01+000000PRSWM2
0155720198999992005011603004+40200-079833FM-15+0373KP53 V0202101N004112200019N9999999N1-02101-02901104051ADDMA1103831999999MD1010031+9999MW1001REMMET089KP53 160256Z AUTO 21008KT M21/M29 A3066 RMK AO2 SLP405 T12061289 50003 PWINO FZRANO TSNO;EQDQ01+000000PRSWM2
0151720198999992005011604004+40200-079833FM-15+0373KP53 V0202301N004119999999N9999999N1-02101-02901104051ADDMA1103831999999MW1001REMMET083KP53 160356Z AUTO 23008KT M21/M29 A3066 RMK AO2 SLP405 T12061289 PWINO FZRANO TSNO;EQDQ01+000000PRSWM2Q02  00002PRCP06
0171720198999992005011605004+40200-079833FM-15+0373KP53 V0202301N005719999999N9999999N1-02101-02901104031ADDKA1999M-01611KA2999N-02221MA1103831999999MW1001REMMET093KP53 160456Z AUTO 23011KT M21/M29 A3066 RMK AO2 SLP403 T12061289 411611222 PWINO FZRANO TSNO;EQDQ01+000000PRSWM2
0204720198999992005011606004+40200-079833FM-15+0373KP53 V0202401N004119999999N9999999N1-02101-02801103981ADDKA1999M-01831KA2999N-02111MA1103761999999MD1810061+9999MW1001OC100771REMMET104KP53 160556Z AUTO 24008G15KT M21/M28 A3064 RMK AO2 SLP398 T12111283 11183 21211 58006 PWINO FZRANO TSNO;EQDQ01+000000PRSWM2
0151720198999992005011607004+40200-079833FM-15+0373KP53 V0209999V002119999999N9999999N1-02101-02801103961ADDMA1103761999999MW1001REMMET083KP53 160656Z AUTO VRB04KT M21/M28 A3064 RMK AO2 SLP396 T12061278 PWINO FZRANO TSNO;EQDQ01+000000PRSWM2Q02  00002PRCP06
0135720198999992005011608004+40200-079833FM-15+0373KP53 V0209999C000012200019N9999999N1-02101-02701103991ADDMA1103791999999MW1001REMMET083KP53 160756Z AUTO 00000KT M21/M27 A3065 RMK AO2 SLP399 T12061272 PWINO FZRANO TSNO;EQDQ01+000000PRSWM2
0155720198999992005011609004+40200-079833FM-15+0373KP53 V0209999C000012200019N9999999N1-02101-02701104021ADDMA1103831999999MD1310041+9999MW1001REMMET089KP53 160856Z AUTO 00000KT M21/M27 A3066 RMK AO2 SLP402 T12111272 53004 PWINO FZRANO TSNO;EQDQ01+000000PRSWM2
0151720198999992005011610004+40200-079833FM-15+0373KP53 V0201601N002619999999N9999999N1-02201-02701103991ADDMA1103791999999MW1001REMMET083KP53 160956Z AUTO 16005KT M22/M27 A3065 RMK AO2 SLP399 T12221272 PWINO FZRANO TSNO;EQDQ01+000000PRSWM2Q02  00002PRCP06
0135720198999992005011611004+40200-079833FM-15+0373KP53 V0201401N002612200019N9999999N1-02201-02701103941ADDMA1103731999999MW1001REMMET083KP53 161056Z AUTO 14005KT M22/M27 A3063 RMK AO2 SLP394 T12221272 PWINO FZRANO TSNO;EQDQ01+000000PRSWM2
0193720198999992005011612004+40200-079833FM-15+0373KP53 V0201601N002119999999N9999999N1-02201-02701103931ADDKA1999M-02061KA2999N-02331MA1103731999999MD1610091+9999MW1001REMMET101KP53 161156Z AUTO 16004KT M22/M27 A3063 RMK AO2 SLP393 T12171272 11206 21233 56009 PWINO FZRANO TSNO;EQDQ01+000000PRSWM2
0165720198999992005011613004+40200-079833FM-15+0373KP53 V0201401N003619999999N9999999N1-02201-02701103891ADDMA1103691999999MD1999999+0001MW1001REMMET083KP53 161256Z AUTO 14007KT M22/M27 A3062 RMK AO2 SLP389 T12221272 PWINO FZRANO TSNO;EQDQ01+000000PRSWM2Q02  00002PRCP06
0135720198999992005011614004+40200-079833FM-15+0373KP53 V0202201N005112200019N9999999N1-02001-02601103821ADDMA1103621999999MW1001REMMET083KP53 161356Z AUTO 22010KT M20/M26 A3060 RMK AO2 SLP382 T12001261 PWINO FZRANO TSNO;EQDQ01+000000PRSWM2
0155720198999992005011615004+40200-079833FM-15+0373KP53 V0202301N002612200019N9999999N1-01801-02501103791ADDMA1103591999999MD1610141+9999MW1001REMMET089KP53 161456Z AUTO 23005KT M18/M25 A3059 RMK AO2 SLP379 T11831250 56014 PWINO FZRANO TSNO;EQDQ01+000000PRSWM2
0151720198999992005011616004+40200-079833FM-15+0373KP53 V0209999V002619999999N9999999N1-01601-02301103791ADDMA1103591999999MW1001REMMET083KP53 161556Z AUTO VRB05KT M16/M23 A3059 RMK AO2 SLP379 T11561233 PWINO FZRANO TSNO;EQDQ01+000000PRSWM2Q02  00002PRCP06
