0160722888999992005043015004+34600-120067FM-15+0205KIZA V0209999C000010006019N0020111N1+01001+01001999999ADDGD14991+0006099GF108991999999999999999999MA1102031999999MW1101REMMET051KIZA 301500Z 00000KT 1 1/4SM BR OVC002 10/10 A3013;EQDQ01+000003PRSWM1Q02    003PRSWM1
