0217725377999992005010100003+42600-082833FM-15+0181KMTC V0202101N004612200019N0160931N1+01101+00801101631ADDGF100991999999999999999999GP10060000002000000002000000002000GR100600000900009MA1101591999999MD1210301+9999MW1001REMMET074KMTC 312355Z 21009KT 10SM SKC 11/08 A3000 RMK SLP163 WND DATA ESTMD 52030;EQDQ01+000000PRSWM2
0197725377999992005010101003+42600-082833FM-15+0181KMTC V0202201N005712200019N0160931N1+01101+00701101701ADDGF100991999999999999999999GP10060000002000000002000000002000GR100600000900009MA1101661999999MW1001REMMET068KMTC 010055Z 22011KT 10SM SKC 11/07 A3002 RMK SLP170 WND DATA ESTMD;EQDQ01+000000PRSWM2
0197725377999992005010102003+42600-082833FM-15+0181KMTC V0202401N005112200019N0160931N1+01101+00401101771ADDGF100991999999999999999999GP10060000002000000002000000002000GR100600000900009MA1101731999999MW1001REMMET068KMTC 010155Z 24010KT 10SM SKC 11/04 A3004 RMK SLP177 WND DATA ESTMD;EQDQ01+000000PRSWM2
0225725377999992005010103003+42600-082833FM-15+0181KMTC V0202501N005112200019N0160931N1+01001+00001101841ADDGF100991999999999999999999GP10060000002000000002000000002000GR100600000900009MA1101801999999MD1210201+9999MW1001REMMET082KMTC 010255Z 25010KT 230V280 10SM SKC 10/00 A3006 RMK SLP184 WND DATA ESTMD 52020;EQDQ01+000000PRSWM2
0223725377999992005010104003+42600-082833FM-15+0181KMTC V0202801N005112200019N0160931N1+00901-00101102061ADDGD11991+0750019GF102991999999999999999999GP10060000002000000002000000002000GR100600000900009MA1102001999999MW1001REMMET079KMTC 010355Z 28010KT 10SM FEW250 09/M01 A3012 RMK PRESRR SLP206 WND DATA ESTMD;EQDQ01+000000PRSWM2
0227725377999992005010105003+42600-082833FM-15+0181KMTC V0202801N007712200019N0160931N1+00601-00201102221ADDGD12991+0750019GF104991999999999999999999GP10060000002000000002000000002000GR100600000900009MA1102171999999MW1001OC101231REMMET075KMTC 010455Z 28015G24KT 10SM SCT250 06/M02 A3017 RMK SLP222 WND DATA ESTMD;EQDQ01+000000PRSWM2
0236725377999992005010106003+42600-082833FM-15+0181KMTC V0203001N004612200019N0160931N1+00401-00301102401ADDGD11991+0750019GF102991999999999999999999GP10060000002000000002000000002000GR100600000900009MA1102341999999MD1110541+9999MW1001REMMET078KMTC 010555Z 30009KT 10SM FEW250 04/M03 A3022 RMK SLP240 WND DATA ESTMD 51054;EQDQ01+000000PRSWM2
0216725377999992005010107003+42600-082833FM-15+0181KMTC V0203101N003112200019N0160931N1+00201-00401102481ADDGD11991+0750019GF102991999999999999999999GP10060000002000000002000000002000GR100600000900009MA1102441999999MW1001REMMET072KMTC 010655Z 31006KT 10SM FEW250 02/M04 A3025 RMK SLP248 WND DATA ESTMD;EQDQ01+000000PRSWM2
0217725377999992005010108003+42600-082833FM-15+0181KMTC V0203201N002612200019N0160931N1+00001-00401102611ADDGD11991+0750019GF102991999999999999999999GP10060000002000000002000000002000GR100600000900009MA1102541999999MW1001REMMET073KMTC 010755Z 32005KT 10SM FEW250 M00/M04 A3028 RMK SLP261 WND DATA ESTMD;EQDQ01+000000PRSWM2
0219725377999992005010109003+42600-082833FM-15+0181KMTC V0203101N002112200019N0160931N1-00201-00501102681ADDGF100991999999999999999999GP10060000002000000002000000002000GR100600000900009MA1102611999999MD1110271+9999MW1001REMMET076KMTC 010855Z 31004KT 10SM SKC M02/M05 A3030 RMK SLP268 WND DATA ESTMD 51027;EQDQ01+000000PRSWM2
0199725377999992005010110003+42600-082833FM-15+0181KMTC V0203101N002612200019N0160931N1-00201-00501102791ADDGF100991999999999999999999GP10060000002000000002000000002000GR100600000900009MA1102711999999MW1001REMMET070KMTC 010955Z 31005KT 10SM SKC M02/M05 A3033 RMK SLP279 WND DATA ESTMD;EQDQ01+000000PRSWM2
0199725377999992005010111003+42600-082833FM-15+0181KMTC V0202601N001012200019N0160931N1-00301-00601102921ADDGF100991999999999999999999GP10060000002000000002000000002000GR100600000900009MA1102841999999MW1001REMMET070KMTC 011055Z 26002KT 10SM SKC M03/M06 A3037 RMK SLP292 WND DATA ESTMD;EQDQ01+000000PRSWM2
0219725377999992005010112003+42600-082833FM-15+0181KMTC V0202801N001012200019N0160931N1-00401-00601103071ADDGF100991999999999999999999GP10060000002000000002000000002000GR100600000900009MA1102981999999MD1310361+9999MW1001REMMET076KMTC 011155Z 28002KT 10SM SKC M04/M06 A3041 RMK SLP307 WND DATA ESTMD 53036;EQDQ01+000000PRSWM2
0217725377999992005010113003+42600-082833FM-15+0181KMTC V0209999V001012200019N0160931N1-00501-00601103111ADDGD12991+0600019GF104991999999999999999999GP10060000002000000002000000002000GR100600000900009MA1103011999999MW1001REMMET073KMTC 011256Z VRB02KT 10SM SCT200 M05/M06 A3042 RMK SLP311 WND DATA ESTMD;EQDQ01+000000PRSWM2
0234725377999992005010114003+42600-082833FM-15+0181KMTC V0203301N001010450019N0160931N1-00301-00501103251ADDGD13991+0450019GF107991999999999999999999GP10060002402009000002021002402009GQ100600860912649GR100600093913329MA1103181999999MW1001REMMET073KMTC 011355Z 33002KT 10SM BKN150 M03/M05 A3047 RMK SLP325 WND DATA ESTMD;EQDQ01+000000PRSWM2
0254725377999992005010115003+42600-082833FM-15+0181KMTC V0203001N001010450019N0160931N1-00101-00501103331ADDGD13991+0450019GF107991999999999999999999GP10060015702009035602021008402009GQ100600782913729GR100600289914159MA1103251999999MD1310271+9999MW1001REMMET079KMTC 011457Z 30002KT 10SM BKN150 M01/M05 A3049 RMK SLP333 WND DATA ESTMD 53027;EQDQ01+000000PRSWM2
0233725377999992005010116003+42600-082833FM-15+0181KMTC V0209999V001510450019N0160931N1+00101-00501103381ADDGD13991+0450019GF107991999999999999999999GP10060026902009055902021009202009GQ100600717914989GR100600445914159MA1103321999999MW1001REMMET072KMTC 011557Z VRB03KT 10SM BKN150 01/M05 A3051 RMK SLP338 WND DATA ESTMD;EQDQ01+000000PRSWM2
0233725377999992005010117003+42600-082833FM-15+0181KMTC V0209999V002110390019N0160931N1+00201-00401103401ADDGD13991+0390019GF107991999999999999999999GP10060035302009066302021009702009GQ100600673916389GR100600545914159MA1103321999999MW1001REMMET072KMTC 011659Z VRB04KT 10SM BKN130 02/M04 A3051 RMK SLP340 WND DATA ESTMD;EQDQ01+000000PRSWM2
0275725377999992005010118003+42600-082833FM-15+0181KMTC V0209999V001010600019N0160931N1+00201-00501103421ADDGD11991+0390019GD23991+0600019GF107991999999999999999999GP10060037502009060702021012402009GQ100600657917879GR100600583914159MA1103351999999MD1110081+9999MW1001REMMET085KMTC 011755Z VRB02KT 10SM FEW130 BKN200 02/M05 A3052 RMK SLP342 WND DATA ESTMD 51008;EQDQ01+000000PRSWM2
0277725377999992005010119003+42600-082833FM-15+0181KMTC V0209999V00101039001CN0160931N1+00301-00401103391ADDGD11991+0105019GD22991+0390019GD33991+0600019GF107991999999999999999999GP10060038402009073802021009302009GQ100600669919379GR100600556914159MA1103321999999MW1001REMMET086KMTC 011855Z VRB02KT 10SM FEW035 SCT130 BKN200 03/M04 A3051 RMK SLP339 WND DATA ESTMD;EQDQ01+000000PRSWM2
0277725377999992005010120003+42600-082833FM-15+0181KMTC V0209999V00151039001CN0160931N1+00201-00401103331ADDGD11991+0105019GD22991+0390019GD34991+0600019GF108991999999999999999999GP10060031002009070402021007702009GQ100600708920799GR100600466914159MA1103251999999MW1001REMMET086KMTC 011955Z VRB03KT 10SM FEW035 SCT130 OVC200 02/M04 A3049 RMK SLP333 WND DATA ESTMD;EQDQ01+000000PRSWM2
0297725377999992005010121003+42600-082833FM-15+0181KMTC V0209999V00211039001CN0160931N1+00101-00301103401ADDGD11991+0105019GD22991+0390019GD34991+0600019GF108991999999999999999999GP10060019002009056502021006202009GQ100600769922079GR100600319914159MA1103321999999MD1510031+9999MW1001REMMET092KMTC 012055Z VRB04KT 10SM FEW035 SCT130 OVC200 01/M03 A3051 RMK SLP340 WND DATA ESTMD 55003;EQDQ01+000000PRSWM2
0256725377999992005010122003+42600-082833FM-15+0181KMTC V0200501N002110600019N0160931N1+00001-00401103481ADDGD12991+0390019GD24991+0600019GF108991999999999999999999GP10060005202009026502021002702009GQ100600848923219GR100600128914159MA1103391999999MW1001REMMET080KMTC 012155Z 05004KT 10SM SCT130 OVC200 M00/M04 A3053 RMK SLP348 WND DATA ESTMD;EQDQ01+000000PRSWM2
0278725377999992005010123003+42600-082833FM-15+0181KMTC V0209999V002110390019N0160931N1+00001-00401103551ADDGD12991+0060019GD23991+0390019GD34991+0600019GF108991999999999999999999GP10060000002009000002021000002009GQ100600895923819GR100600001901779MA1103451999999MW1001REMMET087KMTC 012257Z VRB04KT 10SM SCT020 BKN130 OVC200 M00/M04 A3055 RMK SLP355 WND DATA ESTMD;EQDQ01+000000PRSWM2
0281725377999992005010200003+42600-082833FM-15+0181KMTC V0200501N003610390019N0160931N1-00101-00401103521ADDGD11991+0060019GD23991+0390019GD34991+0600019GF108991999999999999999999GP10060000002000000002000000002000GR100600000900009MA1103421999999MD1010101+9999MW1001REMMET093KMTC 012355Z 05007KT 10SM FEW020 BKN130 OVC200 M01/M04 A3054 RMK SLP352 WND DATA ESTMD 50010;EQDQ01+000000PRSWM2
0239725377999992005010201003+42600-082833FM-15+0181KMTC V0209999V002110360019N0160931N1-00101-00301103491ADDGD13991+0360019GD23991+0600019GF107991999999999999999999GP10060000002000000002000000002000GR100600000900009MA1103391999999MW1001REMMET080KMTC 020055Z VRB04KT 10SM BKN120 BKN200 M01/M03 A3053 RMK SLP349 WND DATA ESTMD;EQDQ01+000000PRSWM2
0261725377999992005010202003+42600-082833FM-15+0181KMTC V0209999V001510360019N0160931N1-00101-00301103411ADDGD11991+0270019GD23991+0360019GD33991+0600019GF107991999999999999999999GP10060000002000000002000000002000GR100600000900009MA1103321999999MW1001REMMET087KMTC 020157Z VRB03KT 10SM FEW090 BKN120 BKN200 M01/M03 A3051 RMK SLP341 WND DATA ESTMD;EQDQ01+000000PRSWM2
0259725377999992005010203003+42600-082833FM-15+0181KMTC V0209999V001010210019N0160931N1+00001-00301103331ADDGD13991+0210019GD24991+0330019GF108991999999999999999999GP10060000002000000002000000002000GR100600000900009MA1103251999999MD1810171+9999MW1001REMMET086KMTC 020259Z VRB02KT 10SM BKN070 OVC110 M00/M03 A3049 RMK SLP333 WND DATA ESTMD 58017;EQDQ01+000000PRSWM2
0207725377999992005010203254+42600-082833FM-15+0181KMTC V0209999V001510180019N0112651N1+00001-00301999999ADDGD13991+0180019GD24991+0330019GF108991999999999999999999MA1103181999999MW1801REMMET083KMTC 020325Z VRB03KT 7SM -SHRA BKN060 OVC110 M00/M03 A3047 RMK WND DATA ESTMD WR//;EQDQ01+000003PRSWM1Q02    003PRSWM1
0265725377999992005010204003+42600-082833FM-15+0181KMTC V0209999V001510135019N0112651N1+00001-00301103271ADDGD13991+0135019GD24991+0240019GF108991999999999999999999GP10060000002000000002000000002000GR100600000900009MA1103181999999MW1801REMMET090KMTC 020355Z VRB03KT 7SM -SHRA BKN045 OVC080 M00/M03 A3047 RMK SLP327 WND DATA ESTMD WR//;EQDQ01+000003PRSWM1Q02    003PRSWM1
0181725377999992005010204064+42600-082833FM-16+0181KMTC V0209999V001510120019N0160931N1+00001-00201999999ADDGD13991+0120019GD24991+0180019GF108991999999999999999999MA1103181999999MW1001REMMET073KMTC 020406Z VRB03KT 10SM BKN040 OVC065 M00/M02 A3047 RMK WND DATA ESTMD;EQDQ01+000000PRSWM2
0202725377999992005010204354+42600-082833FM-16+0181KMTC V0209999V001510099019N0160931N1+00001-00201999999ADDGD13991+0099019GD24991+0135019GF108991999999999999999999MA1103121999999MW1801REMMET078KMTC 020435Z VRB03KT 10SM -SHRA BKN033 OVC045 00/M02 A3045 RMK WND DATA ESTMD;EQDQ01+000003PRSWM1Q02    003PRSWM1
0201725377999992005010204444+42600-082833FM-16+0181KMTC V0209999V001510096019N0112651N1+00001-00201999999ADDGD13991+0096019GD24991+0135019GF108991999999999999999999MA1103121999999MW1661REMMET077KMTC 020444Z VRB03KT 7SM -FZRA BKN032 OVC045 00/M02 A3045 RMK WND DATA ESTMD;EQDQ01+000003PRSWM1Q02    003PRSWM1
0243725377999992005010205003+42600-082833FM-15+0181KMTC V0209999V001010096019N0160931N1+00001-00201103191ADDGD14991+0096019GF108991999999999999999999GP10060000002000000002000000002000GR100600000900009MA1103121999999MW1661REMMET083KMTC 020455Z VRB02KT 10SM -FZRA OVC032 00/M02 A3045 RMK SLP319 WND DATA ESTMD WR//;EQDQ01+000003PRSWM1Q02    003PRSWM1
0217725377999992005010205214+42600-082833FM-16+0181KMTC V0209999V002110075019N0080461N1+00001-00101999999ADDGD13991+0075019GD24991+0096019GF108991999999999999999999MA1103011999999MW1101MW2561REMMET087KMTC 020521Z VRB04KT 5SM -FZDZ BR BKN025 OVC032 00/M01 A3042 RMK PRESFR WND DATA ESTMD;EQDQ01+000003PRSWM1Q02    003PRSWM1
0210725377999992005010205414+42600-082833FM-16+0181KMTC V0209999V001510075019N0064371N1+00001-00101999999ADDGD13991+0075019GD24991+0093019GF108991999999999999999999MA1102981999999MW1101MW2661REMMET080KMTC 020541Z VRB03KT 4SM -FZRA BR BKN025 OVC031 00/M01 A3041 RMK WND DATA ESTMD;EQDQ01+000003PRSWM1Q02    003PRSWM1
0326725377999992005010206003+42600-082833FM-15+0181KMTC V0209999V000510069019N0048281N1+00001+00001103091ADDAA106000591GD13991+0069019GD24991+0090019GF108991999999999999999999GP10060000002000000002000000002000GR100600000900009MA1102981999999MD1810241+9999MW1101MW2661REMMET104KMTC 020555Z VRB01KT 3SM -FZRA BR BKN023 OVC030 00/M00 A3041 RMK SLP309 WND DATA ESTMD 60002 58024 WR//;EQDQ01+000003PRSWM1Q02  00058PRCP06Q03    003PRSWM1
0210725377999992005010206214+42600-082833FM-16+0181KMTC V0209999V001010066019N0064371N1+00001+00001999999ADDGD11991+0030019GD24991+0066019GF108991999999999999999999MA1102911999999MW1101MW2561REMMET080KMTC 020621Z VRB02KT 4SM -FZDZ BR FEW010 OVC022 00/M00 A3039 RMK WND DATA ESTMD;EQDQ01+000003PRSWM1Q02    003PRSWM1
0206725377999992005010206374+42600-082833FM-16+0181KMTC V0209999V001010066019N0048281N1+00101+00001999999ADDGD12991+0030019GD24991+0066019GF108991999999999999999999MA1102881999999MW1101MW2611REMMET076KMTC 020637Z VRB02KT 3SM -RA BR SCT010 OVC022 01/00 A3038 RMK WNDDATA ESTMD;EQDQ01+000003PRSWM1Q02    003PRSWM1
0270725377999992005010207003+42600-082833FM-15+0181KMTC V0209999V001510060019N0080461N1+00101+00001102941ADDGD12991+0027019GD24991+0060019GF108991999999999999999999GP10060000002000000002000000002000GR100600000900009MA1102841999999MW1101MW2611REMMET089KMTC 020655Z VRB03KT 5SM -RA BR SCT009 OVC020 01/00 A3037 RMK SLP294 WND DATA ESTMD WR//;EQDQ01+000003PRSWM1Q02    003PRSWM1
0207725377999992005010207084+42600-082833FM-16+0181KMTC V0209999V001010030019N0064371N1+00101+00001999999ADDGD13991+0030019GD24991+0060019GF108991999999999999999999MA1102811999999MW1101MW2511REMMET077KMTC 020708Z VRB02KT 4SM -DZ BR BKN010 OVC020 01/00 A3036 RMK WND DATA ESTMD;EQDQ01+000003PRSWM1Q02    003PRSWM1
0292725377999992005010208003+42600-082833FM-15+0181KMTC V0209999V002110030019N0048281N1+00101+00101102881ADDGD11991+0021019GD23991+0030019GD34991+0054019GF108991999999999999999999GP10060000002000000002000000002000GR100600000900009MA1102781999999MW1101MW2511REMMET096KMTC 020755Z VRB04KT 3SM -DZ BR FEW007 BKN010 OVC018 01/01 A3035 RMK SLP288 WND DATA ESTMD WR//;EQDQ01+000003PRSWM1Q02    003PRSWM1
0207725377999992005010208294+42600-082833FM-16+0181KMTC V0209999V002110024019N0064371N1+00101+00101999999ADDGD13991+0024019GD24991+0045019GF108991999999999999999999MA1102781999999MW1101MW2611REMMET077KMTC 020829Z VRB04KT 4SM -RA BR BKN008 OVC015 01/01 A3035 RMK WND DATA ESTMD;EQDQ01+000003PRSWM1Q02    003PRSWM1
0209725377999992005010208434+42600-082833FM-16+0181KMTC V0209999V001010039019N0064371N1+99999+99999999999ADDGD12991+0024019GD23991+0039019GF107991999999999999999999MW1001MW2101MW3611REMMET104KMTC 020843Z COR VRB02KT 4SM -RA BR SCT008 BKN013 0VC025 01/01 A3033 RMK PRESFR WND DATA ESTMD COR 0845;EQDQ01+000003PRSWM1
0323725377999992005010209003+42600-082833FM-15+0181KMTC V0209999V001010039019N0080461N1+00201+00101102791ADDAA103003391GD11991+0024019GD24991+0039019GF108991999999999999999999GP10060000002000000002000000002000GR100600000900009MA1102711999999MD1610291+9999MW1101MW2511REMMET101KMTC 020855Z VRB02KT 5SM -DZ BR FEW008 OVC013 02/01 A3033 RMK SLP279 WND DATA ESTMD 60013 56029 WR//;EQDQ01+000003PRSWM1Q02  00338PRCP03Q03    003PRSWM1
0207725377999992005010209274+42600-082833FM-16+0181KMTC V0209999V001010024019N0080461N1+00201+00101999999ADDGD13991+0024019GD24991+0039019GF108991999999999999999999MA1102641999999MW1101MW2611REMMET077KMTC 020927Z VRB02KT 5SM -RA BR BKN008 OVC013 02/01 A3031 RMK WND DATA ESTMD;EQDQ01+000003PRSWM1Q02    003PRSWM1
0270725377999992005010210003+42600-082833FM-15+0181KMTC V0209999V001510024019N0080461N1+00201+00101102671ADDGD13991+0024019GD24991+0036019GF108991999999999999999999GP10060000002000000002000000002000GR100600000900009MA1102571999999MW1101MW2611REMMET089KMTC 020955Z VRB03KT 5SM -RA BR BKN008 OVC012 02/01 A3029 RMK SLP267 WND DATA ESTMD WR//;EQDQ01+000003PRSWM1Q02    003PRSWM1
0207725377999992005010210484+42600-082833FM-16+0181KMTC V0209999V001510024019N0080461N1+00201+00201999999ADDGD11991+0012019GD24991+0024019GF108991999999999999999999MA1102511999999MW1101MW2611REMMET077KMTC 021048Z VRB03KT 5SM -RA BR FEW004 OVC008 02/02 A3027 RMK WND DATA ESTMD;EQDQ01+000003PRSWM1Q02    003PRSWM1
0270725377999992005010211003+42600-082833FM-15+0181KMTC V0209999V002110024019N0080461N1+00201+00201102591ADDGD11991+0012019GD24991+0024019GF108991999999999999999999GP10060000002000000002000000002000GR100600000900009MA1102511999999MW1101MW2611REMMET089KMTC 021055Z VRB04KT 5SM -RA BR FEW004 OVC008 02/02 A3027 RMK SLP259 WND DATA ESTMD WR//;EQDQ01+000003PRSWM1Q02    003PRSWM1
0197725377999992005010211224+42600-082833FM-16+0181KMTC V0209999V002110018019N0080461N1+00201+00201999999ADDGD11991+0009019GD24991+0018019GF108991999999999999999999MA1102471999999MW1101REMMET073KMTC 021122Z VRB04KT 5SM BR FEW003 OVC006 02/02 A3026 RMK WND DATA ESTMD;EQDQ01+000003PRSWM1Q02    003PRSWM1
0346725377999992005010212003+42600-082833FM-15+0181KMTC V0209999V002610018019N0080461N1+00201+00201102521ADDAA106004391AA224004891GD11991+0012019GD24991+0018019GF108991999999999999999999GP10060000002000000002000000002000GR100600000900009MA1102441999999MD1610271+9999MW1101REMMET103KMTC 021156Z VRB05KT 5SM BR FEW004 OVC006 02/02 A3025 RMK SLP252 WND DATA ESTMD 60017 70019 56027 WR//;EQDQ01+000003PRSWM1Q02  00438PRCP06Q03  00488PRCP24Q04    003PRSWM1
0260725377999992005010213003+42600-082833FM-15+0181KMTC V0201501N002610018019N0048281N1+00201+00201102451ADDGD12991+0012019GD24991+0018019GF108991999999999999999999GP10060000002000000002000000002000GR100600000900009MA1102371999999MW1101REMMET085KMTC 021255Z 15005KT 3SM BR SCT004 OVC006 02/02 A3023 RMK SLP245 WND DATA ESTMD WR//;EQDQ01+000003PRSWM1Q02    003PRSWM1
0179725377999992005010213074+42600-082833FM-16+0181KMTC V0201401N002610015019N0040231N1+00201+00201999999ADDGD14991+0015019GF108991999999999999999999MA1102341999999MW1101REMMET070KMTC 021307Z 14005KT 2 1/2SM BR OVC005 02/02 A3022 RMK WND DATA ESTMD;EQDQ01+000003PRSWM1Q02    003PRSWM1
0179725377999992005010213344+42600-082833FM-16+0181KMTC V0201801N002110012019N0028161N1+00301+00201999999ADDGD14991+0012019GF108991999999999999999999MA1102341999999MW1101REMMET070KMTC 021334Z 18004KT 1 3/4SM BR OVC004 03/02 A3022 RMK WND DATA ESTMD;EQDQ01+000003PRSWM1Q02    003PRSWM1
0259725377999992005010214003+42600-082833FM-15+0181KMTC V0201701N002110012019N0024141N1+00301+00301102411ADDGD14991+0012019GF108991999999999999999999GP10060004702009000002021004702009GQ100600860912629GR100600093913329MA1102341999999MW1101REMMET082KMTC 021357Z 17004KT 1 1/2SM BR OVC004 03/03 A3022 RMK SLP241 WND DATA ESTMD WR//;EQDQ01+000003PRSWM1Q02    003PRSWM1
0199725377999992005010214294+42600-082833FM-16+0181KMTC V0201601N003110006019N0012071N1+00301+00301999999ADDED199U10679GD14991+0006019GF108991999999999999999999MA1102341999999MW1101REMMET079KMTC 021429Z 16006KT 3/4SM R19/3500FT BR OVC002 03/03 A3022 RMK WND DATA ESTMD;EQDQ01+000003PRSWM1Q02    003PRSWM1
0208725377999992005010214354+42600-082833FM-16+0181KMTC V0201501N002610006019N0008051N1+00301+00301999999ADDED199U07329GD14991+0006019GF108991999999999999999999MA1102301999999MW1101MW2631REMMET082KMTC 021435Z 15005KT 1/2SM R19/2400FT RA BR OVC002 03/03 A3021 RMK WND DATA ESTMD;EQDQ01+000003PRSWM1Q02    003PRSWM1
0342725377999992005010215003+42600-082833FM-15+0181KMTC V0201601N002110006019N0008051N1+00401+00301102341ADDAA103001391ED199U07329GD14991+0006019GF108991999999999999999999GP10060003902009000002021003902009GQ100600782913719GR100600290914159MA1102271999999MD1710171+9999MW1101MW2611REMMET107KMTC 021455Z 16004KT 1/2SM R19/2400FT -RA BR OVC002 04/03 A3020 RMK SLP234 WND DATA ESTMD 60005 57017 WR//;EQDQ01+000003PRSWM1Q02  00138PRCP03Q03    003PRSWM1
0311725377999992005010216003+42600-082833FM-15+0181KMTC V0201601N002110006019N0010061N1+00501+00501102301ADDED199U09149GD13991+0006019GD24991+0018019GF108991999999999999999999GP10060004702009000002021004702009GQ100600716914979GR100600446914159MA1102241999999MW1101MW2611REMMET102KMTC 021555Z 16004KT 5/8SM R19/3000FT -RA BR BKN002 OVC006 05/05 A3019 RMK SLP230 WND DATA ESTMD WR//;EQDQ01+000003PRSWM1Q02    003PRSWM1
0202725377999992005010216104+42600-082833FM-16+0181KMTC V0201701N001510012019N0020111N1+00501+00501999999ADDED199U18299GD14991+0012019GF108991999999999999999999MA1102201999999MW1101REMMET082KMTC 021610Z 17003KT 1 1/4SM R19/P6000FT BR OVC004 05/05 A3018 RMK WND DATA ESTMD;EQDQ01+000003PRSWM1Q02    003PRSWM1
0228725377999992005010216444+42600-082833FM-16+0181KMTC V0209999V001010009019N0016091N1+00701+00701999999ADDED199U15249GD13991+0009019GD24991+0018019GF108991999999999999999999MA1102171999999MW1101MW2631REMMET087KMTC 021644Z VRB02KT 1SM R19/5000FT RA BR BKN003 OVC006 07/07 A3017 RMK WND DATA ESTMD;EQDQ01+000003PRSWM1Q02    003PRSWM1
0233725377999992005010216494+42600-082833FM-16+0181KMTC V0209999V002110012019N0020111N1+00801+00701999999ADDED199U16769GD13991+0012019GD24991+0024019GF108991999999999999999999MA1102171999999MW1101MW2611REMMET092KMTC 021649Z VRB04KT 1 1/4SM R19/5500FT -RA BR BKN004 OVC008 08/07 A3017 RMK WND DATA ESTMD;EQDQ01+000003PRSWM1Q02    003PRSWM1
0313725377999992005010217003+42600-082833FM-15+0181KMTC V0203301N001510012019N0020111N1+00801+00701102241ADDED199U16769GD13991+0012019GD24991+0024019GF108991999999999999999999GP10060005702009000002021005702009GQ100600673916379GR100600547914159MA1102171999999MW1101MW2611REMMET104KMTC 021655Z 33003KT 1 1/4SM R19/5500FT -RA BR BKN004 OVC008 08/07 A3017 RMK SLP224 WND DATA ESTMD WR//;EQDQ01+000003PRSWM1Q02    003PRSWM1
0230725377999992005010217034+42600-082833FM-16+0181KMTC V0209999C000010015019N0012071N1+00701+00701999999ADDED199U13729GD13991+0015019GD24991+0030019GF108991999999999999999999MA1102171999999MW1101MW2631REMMET089KMTC 021703Z 00000KT 3/4SM R19/4500FT RA BR BKN005 OVC010 07/07 A3017 RMK WND DATA ESTMD;EQDQ01+000003PRSWM1Q02    003PRSWM1
0229725377999992005010217114+42600-082833FM-16+0181KMTC V0209999V002610018019N0016091N1+00801+00801999999ADDED199U15249GD13991+0018019GD24991+0036019GF108991999999999999999999MA1102131999999MW1101MW2611REMMET088KMTC 021711Z VRB05KT 1SM R19/5000FT -RA BR BKN006 OVC012 08/08 A3016 RMK WND DATA ESTMD;EQDQ01+000003PRSWM1Q02    003PRSWM1
0230725377999992005010217284+42600-082833FM-16+0181KMTC V0202201N002610018019N0032181N1+00901+00801999999ADDED199U18299GD13991+0018019GD24991+0036019GF108991999999999999999999MA1102101999999MW1101MW2611REMMET089KMTC 021728Z 22005KT 2SM R19/P6000FT -RA BR BKN006 OVC012 09/08 A3015 RMK WND DATA ESTMD;EQDQ01+000003PRSWM1Q02    003PRSWM1
0197725377999992005010217424+42600-082833FM-16+0181KMTC V0202101N003110015019N0032181N1+00801+00801999999ADDGD13991+0015019GD24991+0030019GF108991999999999999999999MA1102071999999MW1101REMMET073KMTC 021742Z 21006KT 2SM BR BKN005 OVC010 08/08 A3014 RMK WND DATA ESTMD;EQDQ01+000003PRSWM1Q02    003PRSWM1
0330725377999992005010218003+42600-082833FM-15+0181KMTC V0202101N003110015019N0032181N1+00901+00801102141ADDAA106007191GD13991+0015019GD24991+0030019GF108991999999999999999999GP10060006002009000002021006002009GQ100600656917869GR100600585914159MA1102071999999MD1810191+9999MW1101REMMET097KMTC 021755Z 21006KT 2SM BR BKN005 OVC010 09/08 A3014 RMK SLP214 WND DATA ESTMD 60028 58019 WR//;EQDQ01+000003PRSWM1Q02  00718PRCP06Q03    003PRSWM1
0201725377999992005010218374+42600-082833FM-16+0181KMTC V0202101N003610015019N0024141N1+00901+00801999999ADDGD13991+0015019GD24991+0030019GF108991999999999999999999MA1102001999999MW1101REMMET077KMTC 021837Z 21007KT 1 1/2SM BR BKN005 OVC010 09/08 A3012 RMK WND DATA ESTMD;EQDQ01+000003PRSWM1Q02    003PRSWM1
0189725377999992005010218494+42600-082833FM-16+0181KMTC V0202201N003610015019N0020111N1+00901+00801999999ADDGD14991+0015019GF108991999999999999999999MA1102001999999MW1101MW2611REMMET074KMTC 021849Z 22007KT 1 1/4SM -RA BR OVC005 09/08 A3012 RMK WND DATA ESTMD;EQDQ01+000003PRSWM1Q02    003PRSWM1
0269725377999992005010219003+42600-082833FM-15+0181KMTC V0202201N003610015019N0020111N1+00901+00801102121ADDGD14991+0015019GF108991999999999999999999GP10060005802009000002021005802009GQ100600667919369GR100600559914159MA1102031999999MW1101MW2611REMMET086KMTC 021855Z 22007KT 1 1/4SM -RA BR OVC005 09/08 A3013 RMK SLP212 WND DATA ESTMD WR//;EQDQ01+000003PRSWM1Q02    003PRSWM1
0185725377999992005010219484+42600-082833FM-16+0181KMTC V0202301N004110018019N0048281N1+01101+01001999999ADDGD14991+0018019GF108991999999999999999999MA1102031999999MW1101MW2611REMMET070KMTC 021948Z 23008KT 3SM -RA BR OVC006 11/10 A3013 RMK WND DATA ESTMD;EQDQ01+000003PRSWM1Q02    003PRSWM1
0265725377999992005010220003+42600-082833FM-15+0181KMTC V0202301N004110018019N0048281N1+01101+01001102101ADDGD14991+0018019GF108991999999999999999999GP10060006102009000002021006102009GQ100600706920789GR100600469914159MA1102031999999MW1101MW2611REMMET082KMTC 021955Z 23008KT 3SM -RA BR OVC006 11/10 A3013 RMK SLP210 WND DATA ESTMD WR//;EQDQ01+000003PRSWM1Q02    003PRSWM1
0197725377999992005010220254+42600-082833FM-15+0181KMTC V0202301N004610024019N0080461N1+01101+01001999999ADDGD13991+0024019GD24991+0039019GF108991999999999999999999MA1102031999999MW1101REMMET073KMTC 022025Z 23009KT 5SM BR BKN008 OVC013 11/10 A3013 RMK WND DATA ESTMD;EQDQ01+000003PRSWM1Q02    003PRSWM1
0330725377999992005010221003+42600-082833FM-15+0181KMTC V0202301N003610024019N0080461N1+01101+01001102101ADDAA103000591GD13991+0024019GD24991+0039019GF108991999999999999999999GP10060003002009000002021003002009GQ100600768922079GR100600323914159MA1102031999999MD1610031+9999MW1101REMMET097KMTC 022055Z 23007KT 5SM BR BKN008 OVC013 11/10 A3013 RMK SLP210 WND DATA ESTMD 60002 56003 WR//;EQDQ01+000003PRSWM1Q02  00058PRCP03Q03    003PRSWM1
0277725377999992005010222003+42600-082833FM-15+0181KMTC V0202301N003610024019N0048281N1+01101+01001102201ADDGD13991+0024019GD24991+0039019GF108991999999999999999999GP10060001002009000002021001002009GQ100600847923219GR100600131914159MA1102131999999MW1101REMMET085KMTC 022156Z 23007KT 3SM BR BKN008 OVC013 11/10 A3016 RMK SLP220 WND DATA ESTMD WR//;EQDQ01+000003PRSWM1Q02    003PRSWM1
0211725377999992005010222064+42600-082833FM-16+0181KMTC V0202501N003110018019N0028161N1+01101+01001999999ADDGD13991+0018019GD24991+0039019GF108991999999999999999999MA1102171999999MW1101MW2511REMMET081KMTC 022206Z 25006KT 1 3/4SM -DZ BR BKN006 OVC013 11/10 A3017 RMK WND DATA ESTMD;EQDQ01+000003PRSWM1Q02    003PRSWM1
0207725377999992005010222394+42600-082833FM-16+0181KMTC V0202401N002610024019N0032181N1+01101+01001999999ADDGD13991+0024019GD24991+0042019GF108991999999999999999999MA1102201999999MW1101MW2511REMMET077KMTC 022239Z 24005KT 2SM -DZ BR BKN008 OVC014 11/10 A3018 RMK WND DATA ESTMD;EQDQ01+000003PRSWM1Q02    003PRSWM1
0291725377999992005010223003+42600-082833FM-15+0181KMTC V0202401N002110024019N0044251N1+01101+01001102271ADDGD13991+0024019GD24991+0042019GF108991999999999999999999GP10060000002009000002021000002009GQ100600895923819GR100600002902009MA1102201999999MW1101MW2511REMMET093KMTC 022255Z 24004KT 2 3/4SM -DZ BR BKN008 OVC014 11/10 A3018 RMK SLP227 WND DATA ESTMD WR//;EQDQ01+000003PRSWM1Q02    003PRSWM1
0207725377999992005010223034+42600-082833FM-16+0181KMTC V0202401N002110018019N0064371N1+01101+01001999999ADDGD13991+0018019GD24991+0030019GF108991999999999999999999MA1102201999999MW1101MW2511REMMET077KMTC 022303Z 24004KT 4SM -DZ BR BKN006 OVC010 11/10 A3018 RMK WND DATA ESTMD;EQDQ01+000003PRSWM1Q02    003PRSWM1
0323725377999992005010300003+42600-082833FM-15+0181KMTC V0202901N004110018019N0064371N1+01001+01001102341ADDAA106000591GD13991+0018019GD24991+0036019GF108991999999999999999999GP10060000002000000002000000002000GR100600000900009MA1102271999999MD1110241+9999MW1101MW2511REMMET101KMTC 022355Z 29008KT 4SM -DZ BR BKN006 OVC012 10/10 A3020 RMK SLP234 WND DATA ESTMD 60002 51024 WR//;EQDQ01+000003PRSWM1Q02  00058PRCP06Q03    003PRSWM1
0270725377999992005010301003+42600-082833FM-15+0181KMTC V0203101N002610018019N0112651N1+00801+00701102451ADDGD13991+0018019GD24991+0045019GF108991999999999999999999GP10060000002000000002000000002000GR100600000900009MA1102371999999MW1101MW2511REMMET089KMTC 030059Z 31005KT 7SM -DZ BR BKN006 OVC015 08/07 A3023 RMK SLP245 WND DATA ESTMD WR//;EQDQ01+000003PRSWM1Q02    003PRSWM1
0178725377999992005010301234+42600-082833FM-16+0181KMTC V0203101N003110027019N0112651N1+00801+00601999999ADDGD13991+0027019GD24991+0045019GF108991999999999999999999MA1102441999999MW1001REMMET070KMTC 030123Z 31006KT 7SM BKN009 OVC015 08/06 A3025 RMK WND DATA ESTMD;EQDQ01+000000PRSWM2
0241725377999992005010302003+42600-082833FM-15+0181KMTC V0203101N004110027019N0112651N1+00601+00501102541ADDGD13991+0027019GD24991+0045019GF108991999999999999999999GP10060000002000000002000000002000GR100600000900009MA1102471999999MW1001REMMET082KMTC 030155Z 31008KT 7SM BKN009 OVC015 06/05 A3026 RMK SLP254 WND DATA ESTMD WR//;EQDQ01+000000PRSWM2
0156725377999992005010302234+42600-082833FM-16+0181KMTC V0203101N004610033019N0112651N1+00601+00401999999ADDGD14991+0033019GF108991999999999999999999MA1102511999999MW1001REMMET063KMTC 030223Z 31009KT 7SM OVC011 06/04 A3027 RMK WND DATA ESTMD;EQDQ01+000000PRSWM2
0273725377999992005010303003+42600-082833FM-15+0181KMTC V0203201N003610039019N0160931N1+00501+00401102591ADDAA103000021GD14991+0039019GF108991999999999999999999GP10060000002000000002000000002000GR100600000900009MA1102511999999MD1110241+9999MW1001REMMET088KMTC 030255Z 32007KT 10SM OVC013 05/04 A3027 RMK SLP259 WND DATA ESTMD 60000 51024 WR//;EQDQ01+000000PRSWM2Q02  00008PRCP03
0220725377999992005010304003+42600-082833FM-15+0181KMTC V0203101N003110036019N0160931N1+00401+00301102661ADDGD14991+0036019GF108991999999999999999999GP10060000002000000002000000002000GR100600000900009MA1102571999999MW1001REMMET076KMTC 030355Z 31006KT 10SM OVC012 04/03 A3029 RMK SLP266 WND DATA ESTMD WR//;EQDQ01+000000PRSWM2
0220725377999992005010305003+42600-082833FM-15+0181KMTC V0203001N002610030019N0160931N1+00301+00201102711ADDGD14991+0030019GF108991999999999999999999GP10060000002000000002000000002000GR100600000900009MA1102641999999MW1001REMMET076KMTC 030455Z 30005KT 10SM OVC010 03/02 A3031 RMK SLP271 WND DATA ESTMD WR//;EQDQ01+000000PRSWM2
0273725377999992005010306003+42600-082833FM-15+0181KMTC V0203301N003110033019N0160931N1+00301+00101102671ADDAA106000021GD14991+0033019GF108991999999999999999999GP10060000002000000002000000002000GR100600000900009MA1102611999999MD1010081+9999MW1001REMMET088KMTC 030556Z 33006KT 10SM OVC011 03/01 A3030 RMK SLP267 WND DATA ESTMD 60000 50008 WR//;EQDQ01+000000PRSWM2Q02  99998PRCP06
0179725377999992005010306144+42600-082833FM-16+0181KMTC V0203301N002110690019N0160931N1+00201+00101999999ADDGD12991+0033019GD24991+0690019GF108991999999999999999999MA1102571999999MW1001REMMET071KMTC 030614Z 33004KT 10SM SCT011 OVC230 02/01 A3029 RMK WND DATA ESTMD;EQDQ01+000000PRSWM2
0242725377999992005010307003+42600-082833FM-15+0181KMTC V0203501N001510690019N0160931N1+00101+00001102641ADDGD11991+0036019GD24991+0690019GF108991999999999999999999GP10060000002000000002000000002000GR100600000900009MA1102571999999MW1001REMMET083KMTC 030655Z 35003KT 10SM FEW012 OVC230 01/00 A3029 RMK SLP264 WND DATA ESTMD WR//;EQDQ01+000000PRSWM2
0179725377999992005010307274+42600-082833FM-16+0181KMTC V0203101N001510036019N0160931N1+00101+00101999999ADDGD13991+0036019GD24991+0600019GF108991999999999999999999MA1102611999999MW1001REMMET071KMTC 030727Z 31003KT 10SM BKN012 OVC200 01/01 A3030 RMK WND DATA ESTMD;EQDQ01+000000PRSWM2
0264725377999992005010308003+42600-082833FM-15+0181KMTC V0203001N001010036019N0160931N1+00101+00001102681ADDGD13991+0036019GD23991+0390019GD34991+0600019GF108991999999999999999999GP10060000002000000002000000002000GR100600000900009MA1102611999999MW1001REMMET090KMTC 030755Z 30002KT 10SM BKN012 BKN130 OVC200 01/00 A3030 RMK SLP268 WND DATA ESTMD WR//;EQDQ01+000000PRSWM2
0240725377999992005010309003+42600-082833FM-15+0181KMTC V0203401N000510033019N0160931N1+00201+00101102681ADDGD14991+0033019GF108991999999999999999999GP10060000002000000002000000002000GR100600000900009MA1102611999999MD1310021+9999MW1001REMMET082KMTC 030856Z 34001KT 10SM OVC011 02/01 A3030 RMK SLP268 WND DATA ESTMD 53002 WR//;EQDQ01+000000PRSWM2
0220725377999992005010310003+42600-082833FM-15+0181KMTC V0209999V001010033019N0160931N1+00101+00001102721ADDGD14991+0033019GF108991999999999999999999GP10060000002000000002000000002000GR100600000900009MA1102641999999MW1001REMMET076KMTC 030957Z VRB02KT 10SM OVC011 01/00 A3031 RMK SLP272 WND DATA ESTMD WR//;EQDQ01+000000PRSWM2
0220725377999992005010311003+42600-082833FM-15+0181KMTC V0203601N001010030019N0160931N1+00101+00001102741ADDGD14991+0030019GF108991999999999999999999GP10060000002000000002000000002000GR100600000900009MA1102681999999MW1001REMMET076KMTC 031055Z 36002KT 10SM OVC010 01/00 A3032 RMK SLP274 WND DATA ESTMD WR//;EQDQ01+000000PRSWM2
0273725377999992005010312003+42600-082833FM-15+0181KMTC V0203301N002110030019N0160931N1+00101+00001102791ADDAA124007691GD14991+0030019GF108991999999999999999999GP10060000002000000002000000002000GR100600000900009MA1102711999999MD1310101+9999MW1001REMMET088KMTC 031158Z 33004KT 10SM OVC010 01/00 A3033 RMK SLP279 WND DATA ESTMD 70030 53010 WR//;EQDQ01+000000PRSWM2Q02  00768PRCP24
0220725377999992005010313003+42600-082833FM-15+0181KMTC V0200101N000510030019N0160931N1+00101+00001102781ADDGD14991+0030019GF108991999999999999999999GP10060000002000000002000000002000GR100600000900009MA1102711999999MW1001REMMET076KMTC 031255Z 01001KT 10SM OVC010 01/00 A3033 RMK SLP278 WND DATA ESTMD WR//;EQDQ01+000000PRSWM2
0198725377999992005010313244+42600-082833FM-16+0181KMTC V0201001N000510033019N0112651N1+00101+00001999999ADDGD12991+0024019GD24991+0033019GF108991999999999999999999MA1102681999999MW1611REMMET074KMTC 031324Z 10001KT 7SM -RA SCT008 OVC011 01/00 A3032 RMK WND DATA ESTMD;EQDQ01+000003PRSWM1Q02    003PRSWM1
0198725377999992005010313364+42600-082833FM-16+0181KMTC V0200701N001010030019N0112651N1+00101+00001999999ADDGD12991+0024019GD24991+0030019GF108991999999999999999999MA1102641999999MW1791REMMET074KMTC 031336Z 07002KT 7SM -PL SCT008 OVC010 01/00 A3031 RMK WND DATA ESTMD;EQDQ01+000003PRSWM1Q02    003PRSWM1
0286725377999992005010314003+42600-082833FM-15+0181KMTC V0200201N001010039019N0064371N1+00101+00101102711ADDGD12991+0024019GD24991+0039019GF108991999999999999999999GP10060002402009000002021002402009GQ100600860912619GR100600093913329MA1102641999999MW1611MW2791REMMET088KMTC 031357Z 02002KT 4SM -RAPL SCT008 OVC013 01/01 A3031 RMK SLP271 WND DATA ESTMD WR//;EQDQ01+000003PRSWM1Q02    003PRSWM1
0176725377999992005010314054+42600-082833FM-16+0181KMTC V0200401N000510030019N0080461N1+00101+00101999999ADDGD14991+0030019GF108991999999999999999999MA1102641999999MW1611REMMET067KMTC 031405Z 04001KT 5SM -RA OVC010 01/01 A3031 RMK WND DATA ESTMD;EQDQ01+000003PRSWM1Q02    003PRSWM1
0175725377999992005010314304+42600-082833FM-15+0181KMTC V0200601N001510033019N0096561N1+00101+00101999999ADDGD14991+0033019GF108991999999999999999999MA1102641999999MW1101REMMET066KMTC 031430Z 06003KT 6SM BR OVC011 01/01 A3031 RMK WND DATA ESTMD;EQDQ01+000003PRSWM1Q02    003PRSWM1
0308725377999992005010315003+42600-082833FM-15+0181KMTC V0203601N001510033019N0096561N1+00101+00101102731ADDAA103000891GD14991+0033019GF108991999999999999999999GP10060007902009000702021007702009GQ100600782913709GR100600290914159MA1102641999999MD1510071+9999MW1101REMMET090KMTC 031456Z 36003KT 6SM BR OVC011 01/01 A3031 RMK SLP273 WND DATA ESTMD 60003 55007 WR//;EQDQ01+000003PRSWM1Q02  00088PRCP03Q03    003PRSWM1
0321725377999992005010316003+42600-082833FM-15+0181KMTC V0200501N001010036019N0096561N1+00201+00101102771ADDGD11991+0021019GD23991+0036019GD33991+0150019GD44991+0450019GF108991999999999999999999GP10060029602009049002021014002009GQ100600716914959GR100600447914159MA1102681999999MW1101REMMET099KMTC 031555Z 05002KT 6SM BR FEW007 BKN012 BKN050 OVC150 02/01 A3032 RMK SLP277 WND DATA ESTMD WR//;EQDQ01+000003PRSWM1Q02    003PRSWM1
0241725377999992005010316474+42600-082833FM-16+0181KMTC V0200601N00051009001CN0080461N1+00201+00101999999ADDGD11991+0021019GD22991+0090019GD33991+0150019GD44991+0540019GF108991999999999999999999MA1102541999999MW1101REMMET087KMTC 031647Z 06001KT 5SM BR FEW007 SCT030 BKN050 OVC180 02/01 A3028 RMK WND DATA ESTMD;EQDQ01+000003PRSWM1Q02    003PRSWM1
0321725377999992005010317003+42600-082833FM-15+0181KMTC V0200501N00101009001CN0080461N1+00201+00101102651ADDGD11991+0030019GD22991+0090019GD33991+0210019GD44991+0540019GF108991999999999999999999GP10060030902009034102021017702009GQ100600672916359GR100600548914159MA1102571999999MW1101REMMET099KMTC 031659Z 05002KT 5SM BR FEW010 SCT030 BKN070 OVC180 02/01 A3029 RMK SLP265 WND DATA ESTMD WR//;EQDQ01+000003PRSWM1Q02    003PRSWM1
0385725377999992005010318003+42600-082833FM-15+0181KMTC V0200501N00151006001CN0096561N1+00301+00101102581ADDAA106000891GD11991+0018019GD22991+0060019GD33991+0180019GD44991+0270019GF108991999999999999999999GP10060023602009010802021019102009GQ100600655917859GR100600587914159MA1102511999999MD1810151+9999MW1101MW2161REMMET116KMTC 031758Z 05003KT 6SM VCSH BR FEW006 SCT020 BKN060 OVC090 03/01 A3027 RMK SLP258 WND DATA ESTMD 60003 58015 WR//;EQDQ01+000003PRSWM1Q02  00088PRCP06Q03    003PRSWM1
0251725377999992005010318164+42600-082833FM-16+0181KMTC V0200401N00151010501CN0096561N1+00301+00101999999ADDGD11991+0030019GD22991+0105019GD33991+0180019GD44991+0330019GF108991999999999999999999MA1102401999999MW1101MW2611REMMET091KMTC 031816Z 04003KT 6SM -RA BR FEW010 SCT035 BKN060 OVC110 03/01 A3024 RMK WND DATA ESTMD;EQDQ01+000003PRSWM1Q02    003PRSWM1
0331725377999992005010319003+42600-082833FM-15+0181KMTC V0200201N00211009001CN0096561N1+00401+00201102421ADDGD12991+0030019GD22991+0090019GD33991+0180019GD44991+0270019GF108991999999999999999999GP10060039002009052402021018102009GQ100600666919359GR100600561914159MA1102341999999MW1101MW2611REMMET103KMTC 031856Z 02004KT 6SM -RA BR SCT010 SCT030 BKN060 OVC090 04/02 A3022 RMK SLP242 WND DATA ESTMD WR//;EQDQ01+000003PRSWM1Q02    003PRSWM1
0309725377999992005010320003+42600-082833FM-15+0181KMTC V0200101N00151009001CN0096561N1+00301+00201102371ADDGD12991+0030019GD22991+0090019GD34991+0180019GF108991999999999999999999GP10060015502009012902021011202009GQ100600705920789GR100600472914159MA1102301999999MW1101MW2611REMMET096KMTC 031955Z 01003KT 6SM -RA BR SCT010 SCT030 OVC060 03/02 A3021 RMK SLP237 WND DATA ESTMD WR//;EQDQ01+000003PRSWM1Q02    003PRSWM1
0340725377999992005010321003+42600-082833FM-15+0181KMTC V0203601N003610180019N0096561N1+00301+00201102411ADDAA103001091GD12991+0030019GD24991+0180019GF108991999999999999999999GP10060004002009000002021004002009GQ100600767922069GR100600326914159MA1102341999999MD1510171+9999MW1101MW2611REMMET101KMTC 032055Z 36007KT 6SM -RA BR SCT010 OVC060 03/02 A3022 RMK SLP241 WND DATA ESTMD 60004 55017 WR//;EQDQ01+000003PRSWM1Q02  00108PRCP03Q03    003PRSWM1
0287725377999992005010322003+42600-082833FM-15+0181KMTC V0200301N001510180019N0064371N1+00201+00201102431ADDGD11991+0030019GD24991+0180019GF108991999999999999999999GP10060003202009002902021002902009GQ100600845923219GR100600135914159MA1102341999999MW1101MW2611REMMET089KMTC 032155Z 03003KT 4SM -RA BR FEW010 OVC060 02/02 A3022 RMK SLP243 WND DATA ESTMD WR//;EQDQ01+000003PRSWM1Q02    003PRSWM1
0246725377999992005010323003+42600-082833FM-15+0181KMTC V0200301N001012200019N0096561N1+99999+99999102381ADDGD11991+0030019GF102991999999999999999999GP10060000002009000002021000002009GQ100600894923819GR100600002902009MW1001MW2101MW3611REMMET088KMTC 032255Z 03002KT 6SM -RA BR FEW010 VC070 02/01 A3021 RMK SLP238 WND DATA ESTMD WR//;EQDQ01+000003PRSWM1
0207725377999992005010323424+42600-082833FM-16+0181KMTC V0200201N002110021019N0096561N1+00101+00101999999ADDGD13991+0021019GD24991+0180019GF108991999999999999999999MA1102271999999MW1101MW2611REMMET077KMTC 032342Z 02004KT 6SM -RA BR BKN007 OVC060 01/01 A3020 RMK WND DATA ESTMD;EQDQ01+000003PRSWM1Q02    003PRSWM1
0314725377999992005010400003+42600-082833FM-15+0181KMTC V0209999V001510021019N0112651N1+00101+00101102341ADDAA106003891GD13991+0021019GD24991+0180019GF108991999999999999999999GP10060000002000000002000000002000GR100600000900009MA1102271999999MD1810071+9999MW1611REMMET098KMTC 032355Z VRB03KT 7SM -RA BKN007 OVC060 01/01 A3020 RMK SLP234 WND DATA ESTMD 60015 58007 WR//;EQDQ01+000003PRSWM1Q02  00388PRCP06Q03    003PRSWM1
0270725377999992005010401003+42600-082833FM-15+0181KMTC V0203601N002610021019N0080461N1+00201+00101102381ADDGD13991+0021019GD24991+0180019GF108991999999999999999999GP10060000002000000002000000002000GR100600000900009MA1102301999999MW1101MW2611REMMET089KMTC 040055Z 36005KT 5SM -RA BR BKN007 OVC060 02/01 A3021 RMK SLP238 WND DATA ESTMD WR//;EQDQ01+000003PRSWM1Q02    003PRSWM1
0199725377999992005010401484+42600-082833FM-16+0181KMTC V0203601N002610021019N0096561N1+00101+00101999999ADDGD13991+0021019GD24991+0180019GF108991999999999999999999MA1102341999999MW1101MW2611MW3791REMMET079KMTC 040148Z 36005KT 6SM -RAPL BR BKN007 OVC060 01/01 A3022 RMK WND DATA ESTMD;EQDQ01+000003PRSWM1
0262725377999992005010402003+42600-082833FM-15+0181KMTC V0203601N002110021019N0096561N1+00101+00101102431ADDGD13991+0021019GD24991+0180019GF108991999999999999999999GP10060000002000000002000000002000GR100600000900009MA1102341999999MW1101MW2611MW3791REMMET091KMTC 040155Z 36004KT 6SM -RAPL BR BKN007 OVC060 01/01 A3022 RMK SLP243 WND DATA ESTMD WR//;EQDQ01+000003PRSWM1
0317725377999992005010403003+42600-082833FM-15+0181KMTC V0203301N002110021019N0064371N1+00101+00001102501ADDAA103002591GD13991+0021019GD24991+0120019GF108991999999999999999999GP10060000002000000002000000002000GR100600000900009MA1102401999999MD1310151+9999MW1611MW2711MW3791REMMET105KMTC 040255Z 33004KT 4SM -RAPLSN BR BKN007 OVC040 01/00 A3024 RMK SLP250 WND DATA ESTMD 60010 53015 WR//;EQDQ01+000003PRSWM1Q02  00258PRCP03
0221725377999992005010403414+42600-082833FM-16+0181KMTC V0203501N001510084019N0080461N1+00101+00001999999ADDGD11991+0021019GD23991+0084019GD34991+0150019GF108991999999999999999999MA1102471999999MW1101MW2611MW3711REMMET086KMTC 040341Z 35003KT 5SM -RASN BR FEW007 BKN028 OVC050 01/00 A3026 RMK WND DATA ESTMD;EQDQ01+000003PRSWM1
0262725377999992005010404003+42600-082833FM-15+0181KMTC V0203301N003110072019N0080461N1+00001+00001102551ADDGD13991+0072019GD24991+0150019GF108991999999999999999999GP10060000002000000002000000002000GR100600000900009MA1102471999999MW1101MW2611MW3711REMMET091KMTC 040357Z 33006KT 5SM -RASN BR BKN024 OVC050 00/00 A3026 RMK SLP255 WND DATA ESTMD WR//;EQDQ01+000003PRSWM1
0199725377999992005010404044+42600-082833FM-16+0181KMTC V0203301N002610024019N0080461N1+00001+00001999999ADDGD13991+0024019GD24991+0075019GF108991999999999999999999MA1102511999999MW1101MW2611MW3711REMMET079KMTC 040404Z 33005KT 5SM -RASN BR BKN008 OVC025 00/00 A3027 RMK WND DATA ESTMD;EQDQ01+000003PRSWM1
0213725377999992005010404124+42600-082833FM-16+0181KMTC V0203501N002110018019N0080461N1+00001+00001999999ADDGD13991+0018019GD24991+0084019GF108991999999999999999999MA1102511999999MW1101MW2711REMMET083KMTC 040412Z 35004KT 5SM -SN BR BKN006 OVC028 00/00 A3027 RMK WND DATA ESTMD SLR//;EQDQ01+000003PRSWM1Q02    003PRSWM1
0271725377999992005010405003+42600-082833FM-15+0181KMTC V0203401N002610018019N0096561N1+00001+00001102571ADDGD13991+0018019GD24991+0054019GF108991999999999999999999GP10060000002000000002000000002000GR100600000900009MA1102471999999MW1101MW2711REMMET090KMTC 040455Z 34005KT 6SM -SN BR BKN006 OVC018 00/00 A3026 RMK SLP257 WND DATA ESTMD SLR//;EQDQ01+000003PRSWM1Q02    003PRSWM1
0176725377999992005010405164+42600-082833FM-16+0181KMTC V0203501N002110021019N0112651N1+00001+00001999999ADDGD14991+0021019GF108991999999999999999999MA1102441999999MW1711REMMET067KMTC 040516Z 35004KT 7SM -SN OVC007 00/00 A3025 RMK WND DATA ESTMD;EQDQ01+000003PRSWM1Q02    003PRSWM1
0315725377999992005010406003+42600-082833FM-15+0181KMTC V0203601N001510021019N0112651N1+00001+00001102531ADDAA106001891GD13991+0021019GD24991+0081019GF108991999999999999999999GP10060000002000000002000000002000GR100600000900009MA1102441999999MD1010031+9999MW1711REMMET099KMTC 040555Z 36003KT 7SM -SN BKN007 OVC027 00/00 A3025 RMK SLP253 WND DATA ESTMD 60007 50003 SLR//;EQDQ01+000003PRSWM1Q02  00188PRCP06Q03    003PRSWM1
0213725377999992005010406424+42600-082833FM-16+0181KMTC V0200101N002110021019N0112651N1+00101+00001999999ADDGD13991+0021019GD23991+0060019GD34991+0270019GF108991999999999999999999MA1102441999999MW1001REMMET090KMTC 040642Z COR 01004KT 7SM BKN007 BKN020 OVC090 01/00 A3025 RMK WND DATA ESTMD COR 0644;EQDQ01+000000PRSWM2
0264725377999992005010407003+42600-082833FM-15+0181KMTC V0203601N001510021019N0112651N1+00101+00001102531ADDGD13991+0021019GD23991+0075019GD34991+0150019GF108991999999999999999999GP10060000002000000002000000002000GR100600000900009MA1102441999999MW1001REMMET090KMTC 040655Z 36003KT 7SM BKN007 BKN025 OVC055 01/00 A3025 RMK SLP253 WND DATA ESTMD SLR//;EQDQ01+000000PRSWM2
0156725377999992005010407094+42600-082833FM-16+0181KMTC V0203401N001510018019N0112651N1+00101+00001999999ADDGD14991+0018019GF108991999999999999999999MA1102441999999MW1001REMMET063KMTC 040709Z 34003KT 7SM OVC006 01/00 A3025 RMK WND DATA ESTMD;EQDQ01+000000PRSWM2
0220725377999992005010408003+42600-082833FM-15+0181KMTC V0203401N002110018019N0112651N1+00101+00001102601ADDGD14991+0018019GF108991999999999999999999GP10060000002000000002000000002000GR100600000900009MA1102511999999MW1001REMMET076KMTC 040755Z 34004KT 7SM OVC006 01/00 A3027 RMK SLP260 WND DATA ESTMD SLR//;EQDQ01+000000PRSWM2
0317725377999992005010409003+42600-082833FM-15+0181KMTC V0203601N002610018019N0112651N1+00101+00001102561ADDAA103000021GD13991+0018019GD23991+0039019GD34991+0240019GF108991999999999999999999GP10060000002000000002000000002000GR100600000900009MA1102471999999MD1010031+9999MW1001REMMET102KMTC 040855Z 36005KT 7SM BKN006 BKN013 OVC080 01/00 A3026 RMK SLP256 WND DATA ESTMD 60000 50003 SLR//;EQDQ01+000000PRSWM2Q02  00008PRCP03
0200725377999992005010409164+42600-082833FM-16+0181KMTC V0203501N002110042019N0112651N1+00101+00001999999ADDGD11991+0018019GD23991+0042019GD34991+0240019GF108991999999999999999999MA1102471999999MW1001REMMET077KMTC 040916Z 35004KT 7SM FEW006 BKN014 OVC080 01/00 A3026 RMK WND DATA ESTMD;EQDQ01+000000PRSWM2
0178725377999992005010409364+42600-082833FM-16+0181KMTC V0203501N002610240019N0112651N1+00101+00001999999ADDGD12991+0045019GD24991+0240019GF108991999999999999999999MA1102471999999MW1001REMMET070KMTC 040936Z 35005KT 7SM SCT015 OVC080 01/00 A3026 RMK WND DATA ESTMD;EQDQ01+000000PRSWM2
0220725377999992005010410003+42600-082833FM-15+0181KMTC V0203601N002610240019N0112651N1+00101+00001102601ADDGD14991+0240019GF108991999999999999999999GP10060000002000000002000000002000GR100600000900009MA1102511999999MW1001REMMET076KMTC 040955Z 36005KT 7SM OVC080 01/00 A3027 RMK SLP260 WND DATA ESTMD SLR//;EQDQ01+000000PRSWM2
0243725377999992005010411003+42600-082833FM-15+0181KMTC V0203501N002610240019N0112651N1+00001+00001102671ADDGD11991+0045019GD24991+0240019GF108991999999999999999999GP10060000002000000002000000002000GR100600000900009MA1102571999999MW1001REMMET084KMTC 041055Z 35005KT 7SM FEW015 OVC080 00/M00 A3029 RMK SLP267 WND DATA ESTMD SLR//;EQDQ01+000000PRSWM2
0330725377999992005010412003+42600-082833FM-15+0181KMTC V0200101N002612200019N0112651N1+00001-00101102691ADDAA106000021AA224006491GD11991+0045019GD22991+0240019GF104991999999999999999999GP10060000002000000002000000002000GR100600000900009MA1102611999999MD1110121+9999MW1001REMMET103KMTC 041155Z 01005KT 7SM FEW015 SCT080 M00/M01 A3030 RMK SLP269 WND DATA ESTMD 60000 70025 51012 SLR//;EQDQ01+000000PRSWM2Q02  99998PRCP06Q03  00648PRCP24
0180725377999992005010412294+42600-082833FM-16+0181KMTC V0203401N002610051019N0112651N1-00101-00201999999ADDGD13991+0051019GD23991+0240019GF107991999999999999999999MA1102641999999MW1001REMMET072KMTC 041229Z 34005KT 7SM BKN017 BKN080 M01/M02 A3031 RMK WND DATA ESTMD;EQDQ01+000000PRSWM2
0244725377999992005010413003+42600-082833FM-15+0181KMTC V0203501N002610051019N0112651N1-00101-00101102761ADDGD13991+0051019GD23991+0240019GF107991999999999999999999GP10060000002000000002000000002000GR100600000900009MA1102681999999MW1001REMMET085KMTC 041255Z 35005KT 7SM BKN017 BKN080 M01/M01 A3032 RMK SLP276 WND DATA ESTMD SLR//;EQDQ01+000000PRSWM2
0260725377999992005010414003+42600-082833FM-15+0181KMTC V0203601N001510048019N0112651N1-00101-00201102761ADDGD13991+0048019GD23991+0240019GF107991999999999999999999GP10060004702009000002021004702009GQ100600860912599GR100600093913329MA1102681999999MW1001REMMET084KMTC 041355Z 36003KT 7SM BKN016 BKN080 M01/M02 A3032 RMK SLP276 WND DATA ESTMD WR//;EQDQ01+000000PRSWM2
0279725377999992005010415003+42600-082833FM-15+0181KMTC V0203601N003110048019N0112651N1+00001-00101102851ADDGD13991+0048019GD23991+0240019GF107991999999999999999999GP10060005502009000002021005502009GQ100600781913689GR100600291914159MA1102741999999MD1310151+9999MW1001REMMET089KMTC 041455Z 36006KT 7SM BKN016 BKN080 00/M01 A3034 RMK SLP285 WND DATA ESTMD 53015 WR//;EQDQ01+000000PRSWM2
0259725377999992005010416003+42600-082833FM-15+0181KMTC V0200201N002110051019N0112651N1+00001-00101102881ADDGD13991+0051019GD23991+0210019GF107991999999999999999999GP10060012102009000002021012102009GQ100600715914949GR100600448914159MA1102781999999MW1001REMMET083KMTC 041556Z 02004KT 7SM BKN017 BKN070 00/M01 A3035 RMK SLP288 WND DATA ESTMD WR//;EQDQ01+000000PRSWM2
0281725377999992005010417003+42600-082833FM-15+0181KMTC V0203401N003610051019N0112651N1+00101-00101102921ADDGD12991+0036019GD23991+0051019GD33991+0210019GF107991999999999999999999GP10060017002009002402021016102009GQ100600671916349GR100600550914159MA1102811999999MW1001REMMET090KMTC 041655Z 34007KT 7SM SCT012 BKN017 BKN070 01/M01 A3036 RMK SLP292 WND DATA ESTMD WR//;EQDQ01+000000PRSWM2
0279725377999992005010418003+42600-082833FM-15+0181KMTC V0203401N002110045019N0112651N1+00101-00101102851ADDGD13991+0045019GD23991+0210019GF107991999999999999999999GP10060012702009000002021012702009GQ100600654917849GR100600590914159MA1102741999999MD1010001+9999MW1001REMMET089KMTC 041756Z 34004KT 7SM BKN015 BKN070 01/M01 A3034 RMK SLP285 WND DATA ESTMD 50000 WR//;EQDQ01+000000PRSWM2
0259725377999992005010419003+42600-082833FM-15+0181KMTC V0203601N002610045019N0112651N1+00101-00101102781ADDGD13991+0045019GD24991+0150019GF108991999999999999999999GP10060010502009000002021010502009GQ100600665919349GR100600564914159MA1102681999999MW1001REMMET083KMTC 041856Z 36005KT 7SM BKN015 OVC050 01/M01 A3032 RMK SLP278 WND DATA ESTMD WR//;EQDQ01+000000PRSWM2
0259725377999992005010420003+42600-082833FM-15+0181KMTC V0209999V002110045019N0112651N1+00101-00101102591ADDGD13991+0045019GD23991+0240019GF107991999999999999999999GP10060007202009000002021007202009GQ100600704920779GR100600475914159MA1102511999999MW1001REMMET083KMTC 041955Z VRB04KT 7SM BKN015 BKN080 01/M01 A3027 RMK SLP259 WND DATA ESTMD WR//;EQDQ01+000000PRSWM2
0257725377999992005010421003+42600-082833FM-15+0181KMTC V0209999V001010045019N0112651N1+00001-00201102711ADDGD14991+0045019GF108991999999999999999999GP10060017102009027802021010602009GQ100600765922069GR100600329914159MA1102611999999MD1510141+9999MW1001REMMET082KMTC 042055Z VRB02KT 7SM OVC015 00/M02 A3030 RMK SLP271 WND DATA ESTMD 55014 WR//;EQDQ01+000000PRSWM2
0259725377999992005010422003+42600-082833FM-15+0181KMTC V0209999V000510045019N0112651N1+00001-00101102711ADDGD13991+0045019GD24991+0108019GF108991999999999999999999GP10060005702009020602021003702009GQ100600844923219GR100600138914159MA1102611999999MW1001REMMET083KMTC 042155Z VRB01KT 7SM BKN015 OVC036 00/M01 A3030 RMK SLP271 WND DATA ESTMD WR//;EQDQ01+000000PRSWM2
0260725377999992005010423003+42600-082833FM-15+0181KMTC V0200101N002610045019N0160931N1+00001-00101102681ADDGD13991+0045019GD24991+0108019GF108991999999999999999999GP10060000002009000002021000002009GQ100600893923829GR100600003902249MA1102571999999MW1001REMMET084KMTC 042255Z 01005KT 10SM BKN015 OVC036 00/M01 A3029 RMK SLP268 WND DATA ESTMD WR//;EQDQ01+000000PRSWM2
0258725377999992005010500003+42600-082833FM-15+0181KMTC V0209999V001510057019N0160931N1+00001-00101102751ADDGD13991+0057019GD24991+0108019GF108991999999999999999999GP10060000002000000002000000002000GR100600000900009MA1102641999999MD1310031+9999MW1001REMMET085KMTC 042355Z VRB03KT 10SM BKN019 OVC036 00/M01 A3031 RMK SLP275 WND DATA ESTMD 53003;EQDQ01+000000PRSWM2
0202725377999992005010500364+42600-082833FM-16+0181KMTC V0200101N001010180019N0160931N1+00001-00101999999ADDGD12991+0057019GD23991+0180019GD34991+0270019GF108991999999999999999999MA1102611999999MW1001REMMET079KMTC 050036Z 01002KT 10SM SCT019 BKN060 OVC090 00/M01 A3030 RMK WND DATA ESTMD;EQDQ01+000000PRSWM2
0260725377999992005010501003+42600-082833FM-15+0181KMTC V0200201N001010180019N0160931N1+00001-00101102691ADDGD11991+0057019GD23991+0180019GD34991+0270019GF108991999999999999999999GP10060000002000000002000000002000GR100600000900009MA1102611999999MW1001REMMET086KMTC 050055Z 02002KT 10SM FEW019 BKN060 OVC090 00/M01 A3030 RMK SLP269 WND DATA ESTMD;EQDQ01+000000PRSWM2
0238725377999992005010502003+42600-082833FM-15+0181KMTC V0209999V002110150019N0160931N1+00001-00101102711ADDGD12991+0060019GD24991+0150019GF108991999999999999999999GP10060000002000000002000000002000GR100600000900009MA1102611999999MW1001REMMET079KMTC 050155Z VRB04KT 10SM SCT020 OVC050 00/M01 A3030 RMK SLP271 WND DATA ESTMD;EQDQ01+000000PRSWM2
0180725377999992005010502164+42600-082833FM-16+0181KMTC V0209999V001510063019N0160931N1+00001-00101999999ADDGD13991+0063019GD24991+0135019GF108991999999999999999999MA1102611999999MW1001REMMET072KMTC 050216Z VRB03KT 10SM BKN021 OVC045 00/M01 A3030 RMK WND DATA ESTMD;EQDQ01+000000PRSWM2
0258725377999992005010503003+42600-082833FM-15+0181KMTC V0203601N002610063019N0160931N1+00001-00201102691ADDGD13991+0063019GD24991+0126019GF108991999999999999999999GP10060000002000000002000000002000GR100600000900009MA1102611999999MD1610051+9999MW1001REMMET085KMTC 050255Z 36005KT 10SM BKN021 OVC042 00/M02 A3030 RMK SLP269 WND DATA ESTMD 56005;EQDQ01+000000PRSWM2
0180725377999992005010503104+42600-082833FM-16+0181KMTC V0200101N002110126019N0160931N1+00001-00101999999ADDGD12991+0063019GD24991+0126019GF108991999999999999999999MA1102611999999MW1001REMMET072KMTC 050310Z 01004KT 10SM SCT021 OVC042 00/M01 A3030 RMK WND DATA ESTMD;EQDQ01+000000PRSWM2
0238725377999992005010504003+42600-082833FM-15+0181KMTC V0203601N002110132019N0160931N1+00001-00201102691ADDGD11991+0063019GD24991+0132019GF108991999999999999999999GP10060000002000000002000000002000GR100600000900009MA1102611999999MW1001REMMET079KMTC 050355Z 36004KT 10SM FEW021 OVC044 00/M02 A3030 RMK SLP269 WND DATA ESTMD;EQDQ01+000000PRSWM2
0200725377999992005010504274+42600-082833FM-16+0181KMTC V0203601N002110120019N0112651N1+00001-00201999999ADDGD12991+0045019GD24991+0120019GF108991999999999999999999MA1102541999999MW1711REMMET076KMTC 050427Z 36004KT 7SM -SN SCT015 OVC040 M00/M02 A3028 RMK WND DATA ESTMD;EQDQ01+000003PRSWM1Q02    003PRSWM1
0258725377999992005010505003+42600-082833FM-15+0181KMTC V0203601N004110108019N0112651N1+00001-00201102641ADDGD12991+0045019GD24991+0108019GF108991999999999999999999GP10060000002000000002000000002000GR100600000900009MA1102541999999MW1711REMMET083KMTC 050455Z 36008KT 7SM -SN SCT015 OVC036 M00/M02 A3028 RMK SLP264 WND DATA ESTMD;EQDQ01+000003PRSWM1Q02    003PRSWM1
0200725377999992005010505244+42600-082833FM-16+0181KMTC V0203601N004610036019N0080461N1-00101-00201999999ADDGD13991+0036019GD24991+0060019GF108991999999999999999999MA1102541999999MW1711REMMET076KMTC 050524Z 36009KT 5SM -SN BKN012 OVC020 M01/M02 A3028 RMK WND DATA ESTMD;EQDQ01+000003PRSWM1Q02    003PRSWM1
0311725377999992005010506003+42600-082833FM-15+0181KMTC V0203601N005110039019N0080461N1-00201-00301102611ADDAA106000391GD13991+0039019GD24991+0075019GF108991999999999999999999GP10060000002000000002000000002000GR100600000900009MA1102511999999MD1810081+9999MW1711REMMET095KMTC 050556Z 36010KT 5SM -SN BKN013 OVC025 M02/M03 A3027 RMK SLP261 WND DATA ESTMD 60001 58008;EQDQ01+000003PRSWM1Q02  00038PRCP06Q03    003PRSWM1
0184725377999992005010506174+42600-082833FM-16+0181KMTC V0203601N004610039019N0064371N1-00201-00401999999ADDGD14991+0039019GF108991999999999999999999MA1102471999999MW1711REMMET075KMTC 050617Z 36009KT 4SM -SN OVC013 M02/M04 A3026 RMK WND DATA ESTMD LSR16;EQDQ01+000003PRSWM1Q02    003PRSWM1
0264725377999992005010507003+42600-082833FM-15+0181KMTC V0200101N004110036019N0080461N1-00201-00301102541ADDGD13991+0036019GD24991+0120019GF108991999999999999999999GP10060000002000000002000000002000GR100600000900009MA1102441999999MW1711REMMET089KMTC 050655Z 01008KT 5SM -SN BKN012 OVC040 M02/M03 A3025 RMK SLP254 WND DATA ESTMD LSR16;EQDQ01+000003PRSWM1Q02    003PRSWM1
0242725377999992005010508003+42600-082833FM-15+0181KMTC V0203601N004110042019N0064371N1-00201-00301102541ADDGD14991+0042019GF108991999999999999999999GP10060000002000000002000000002000GR100600000900009MA1102441999999MW1711REMMET082KMTC 050755Z 36008KT 4SM -SN OVC014 M02/M03 A3025 RMK SLP254 WND DATA ESTMD LSR16;EQDQ01+000003PRSWM1Q02    003PRSWM1
0209725377999992005010508144+42600-082833FM-16+0181KMTC V0203501N004610024019N0032181N1-00201-00301999999ADDGD13991+0024019GD24991+0039019GF108991999999999999999999MA1102441999999MW1101MW2711REMMET079KMTC 050814Z 35009KT 2SM -SN BR BKN008 OVC013 M02/M03 A3025 RMK WND DATA ESTMD;EQDQ01+000003PRSWM1Q02    003PRSWM1
0197725377999992005010508244+42600-082833FM-16+0181KMTC V0203601N004610027019N0024141N1-00201-00301999999ADDGD14991+0027019GF108991999999999999999999MA1102471999999MW1101MW2711REMMET082KMTC 050824Z 36009KT 1 1/2SM -SN BR OVC009 M02/M03 A3026 RMK WND DATA ESTMD LSR09;EQDQ01+000003PRSWM1Q02    003PRSWM1
0191725377999992005010508524+42600-082833FM-16+0181KMTC V0203601N005710021019N0020111N1-00201-00301999999ADDGD14991+0021019GF108991999999999999999999MA1102471999999MW1101MW2711REMMET076KMTC 050852Z 36011KT 1 1/4SM -SN BR OVC007 M02/M03 A3026 RMK WND DATA ESTMD;EQDQ01+000003PRSWM1Q02    003PRSWM1
0308725377999992005010509003+42600-082833FM-15+0181KMTC V0203601N004610021019N0020111N1-00201-00301102581ADDAA103001391GD14991+0021019GF108991999999999999999999GP10060000002000000002000000002000GR100600000900009MA1102471999999MD1510031+9999MW1101MW2711REMMET101KMTC 050855Z 36009KT 1 1/4SM -SN BR OVC007 M02/M03 A3026 RMK SLP258 WND DATA ESTMD 60005 55003 LSR09;EQDQ01+000003PRSWM1Q02  00138PRCP03Q03    003PRSWM1
0231725377999992005010509114+42600-082833FM-16+0181KMTC V0203601N004610024019N0016091N1-00201-00301999999ADDED199U16769GD13991+0024019GD24991+0045019GF108991999999999999999999MA1102441999999MW1101MW2711REMMET090KMTC 050911Z 36009KT 1SM R01/5500FT -SN BR BKN008 OVC015 M02/M03 A3025 RMK WND DATA ESTMD;EQDQ01+000003PRSWM1Q02    003PRSWM1
0209725377999992005010509374+42600-082833FM-16+0181KMTC V0203601N005710027019N0016091N1-00201-00301999999ADDED199U18299GD14991+0027019GF108991999999999999999999MA1102401999999MW1101MW2711REMMET083KMTC 050937Z 36011KT 1SM R01/6000FT -SN BR OVC009 M02/M03 A3024 RMK WND DATA ESTMD;EQDQ01+000003PRSWM1Q02    003PRSWM1
0273725377999992005010510003+42600-082833FM-15+0181KMTC V0203601N005710024019N0016091N1-00201-00301102511ADDED199U18299GD14991+0024019GF108991999999999999999999GP10060000002000000002000000002000GR100600000900009MA1102401999999MW1101MW2711REMMET096KMTC 050955Z 36011KT 1SM R01/6000FT -SN BR OVC008 M02/M03 A3024 RMK SLP251 WND DATA ESTMD LSR07;EQDQ01+000003PRSWM1Q02    003PRSWM1
0236725377999992005010510164+42600-082833FM-16+0181KMTC V0203601N005110036019N0020111N1-00201-00301999999ADDED199U18299GD12991+0024019GD24991+0036019GF108991999999999999999999MA1102401999999MW1101MW2711REMMET095KMTC 051016Z 36010KT 1 1/4SM R01/P6000FT -SN BR SCT008 OVC012 M02/M03 A3024 RMK WND DATA ESTMD;EQDQ01+000003PRSWM1Q02    003PRSWM1
0244725377999992005010510334+42600-082833FM-16+0181KMTC V0203601N006710042019N0012071N1-00201-00301999999ADDED199U16769GD12991+0024019GD24991+0042019GF108991999999999999999999MA1102371999999MW1101MW2711OC101081REMMET095KMTC 051033Z 36013G21KT 3/4SM R01/5500FT -SN BR SCT008 OVC014 M02/M03 A3023 RMK WND DATA ESTMD;EQDQ01+000003PRSWM1Q02    003PRSWM1
0236725377999992005010510464+42600-082833FM-16+0181KMTC V0203601N005110039019N0020111N1-00201-00301999999ADDED199U18299GD11991+0024019GD24991+0039019GF108991999999999999999999MA1102401999999MW1101MW2711REMMET095KMTC 051046Z 36010KT 1 1/4SM R01/P6000FT -SN BR FEW008 OVC013 M02/M03 A3024 RMK WND DATA ESTMD;EQDQ01+000003PRSWM1Q02    003PRSWM1
0209725377999992005010510504+42600-082833FM-15+0181KMTC V0203601N006710039019N0032181N1-00201-00301999999ADDGD11991+0024019GD24991+0039019GF108991999999999999999999MA1102401999999MW1101MW2711REMMET079KMTC 051050Z 36013KT 2SM -SN BR FEW008 OVC013 M02/M03 A3024 RMK WND DATA ESTMD;EQDQ01+000003PRSWM1Q02    003PRSWM1
0317725377999992005010511003+42600-082833FM-15+0181KMTC V0203601N006710039019N0032181N1-00301-00401102541ADDGD11991+0024019GD23991+0039019GD33991+0096019GD44991+0180019GF108991999999999999999999GP10060000002000000002000000002000GR100600000900009MA1102441999999MW1101MW2711REMMET106KMTC 051055Z 36013KT 2SM -SN BR FEW008 BKN013 BKN032 OVC060 M03/M04 A3025 RMK SLP254 WND DATA ESTMD LSR07;EQDQ01+000003PRSWM1Q02    003PRSWM1
0237725377999992005010511044+42600-082833FM-16+0181KMTC V0203601N005710042019N0064371N1-00301-00401999999ADDGD13991+0042019GD23991+0096019GD34991+0150019GF108991999999999999999999MA1102441999999MW1101MW2711REMMET092SPECI KMTC 051104Z 36011KT 4SM -SN BR BKN014 BKN032 OVC050 M03/M04 A3025 RMK WND DATA ESTMD;EQDQ01+000003PRSWM1Q02    003PRSWM1
0237725377999992005010511194+42600-082833FM-16+0181KMTC V0200101N006710045019N0080461N1-00301-00501999999ADDGD13991+0045019GD23991+0096019GD34991+0150019GF108991999999999999999999MA1102471999999MW1101MW2711REMMET092KMTC 051119Z 01013KT 5SM -SN BR BKN015 BKN032 OVC050 M03/M05 A3026 RMK WND DATA ESTMD LSR12;EQDQ01+000003PRSWM1Q02    003PRSWM1
0353725377999992005010511554+42600-082833FM-15+0181KMTC V0203601N004110045019N0048281N1-00301-00401102651ADDAA106001891AA224002091AJ100039199999999GD13991+0045019GD23991+0096019GD34991+0150019GF108991999999999999999999MA1102541999999MD1310071+9999MW1101MW2711REMMET123KMTC 051155Z 36008KT 3SM -SN BR BKN015 BKN032 OVC050 M03/M04 A3028 RMK SLP265 WND DATA ESTMD 60007 70008 4/001 53007 LSR12;EQDQ01+000003PRSWM1Q02  00188PRCP06Q03  00208PRCP24Q04    003PRSWM1
0327725377999992005010512003+42600-082833FM-15+0181KMTC V0203601N004610045019N0016091N1-00301-00401999999ADDED199U16769GD12991+0001519GD23991+0045019GD34991+0096019GF108991999999999999999999GP10060000002000000002000000002000GR100600000900009MA1102541999999MW1101MW2711REMMET120KMTC 051200Z COR 36009KT 1SM R01/5500FT -SN BR SCT000 BKN015 OVC032 M03/M04 A3028 RMK SN SCT000 WND DATA ESTMD COR 1203;EQDQ01+000003PRSWM1Q02    003PRSWM1
0254725377999992005010512264+42600-082833FM-16+0181KMTC V0203601N005110042019N0064371N1-00301-00401999999ADDED199U18299GD13991+0042019GD23991+0096019GD34991+0150019GF108991999999999999999999MA1102541999999MW1101MW2711REMMET098KMTC 051226Z 36010KT 4SM R01/P6000FT -SN BR BKN014 BKN032 OVC050 M03/M04 A3028 RMK WND DATA ESTMD;EQDQ01+000003PRSWM1Q02    003PRSWM1
0209725377999992005010512394+42600-082833FM-16+0181KMTC V0203601N004610042019N0032181N1-00301-00401999999ADDGD13991+0042019GD24991+0096019GF108991999999999999999999MA1102541999999MW1101MW2711REMMET079KMTC 051239Z 36009KT 2SM -SN BR BKN014 OVC032 M03/M04 A3028 RMK WND DATA ESTMD;EQDQ01+000003PRSWM1Q02    003PRSWM1
0305725377999992005010513003+42600-082833FM-15+0181KMTC V0203601N004610039019N0032181N1-00301-00401102661ADDGD11991+0001519GD23991+0039019GD34991+0096019GF108991999999999999999999GP10060000002000000002000000002000GR100600000900009MA1102571999999MW1101MW2711REMMET109KMTC 051255Z 36009KT 2SM -SN BR FEW000 BKN013 OVC032 M03/M04 A3029 RMK SN FEW000 SLP266 WND DATA ESTMD LSR12;EQDQ01+000003PRSWM1Q02    003PRSWM1
0209725377999992005010513324+42600-082833FM-16+0181KMTC V0203601N004610075019N0080461N1-00301-00401999999ADDGD13991+0075019GD24991+0300019GF108991999999999999999999MA1102511999999MW1101MW2711REMMET079KMTC 051332Z 36009KT 5SM -SN BR BKN025 OVC100 M03/M04 A3027 RMK WND DATA ESTMD;EQDQ01+000003PRSWM1Q02    003PRSWM1
0281725377999992005010514003+42600-082833FM-15+0181KMTC V0203601N004110075019N0112651N1-00301-00401102631ADDGD13991+0075019GD24991+0270019GF108991999999999999999999GP10060004702009000002021004702009GQ100600860912589GR100600093913329MA1102541999999MW1711REMMET089KMTC 051355Z 36008KT 7SM -SN BKN025 OVC090 M03/M04 A3028 RMK SLP263 WND DATA ESTMD LSR12;EQDQ01+000003PRSWM1Q02    003PRSWM1
0194725377999992005010514014+42600-082833FM-16+0181KMTC V0203601N003610075019N0112651N1-00301-00501999999ADDGD13991+0075019GD24991+0270019GF108991999999999999999999MA1102541999999MW1001REMMET086KMTC 051401Z 36007KT 7SM BKN025 OVC090 M03/M05 A3028 RMK WND DATA ESTMD LSRPSR10P DRY;EQDQ01+000000PRSWM2
0300725377999992005010515003+42600-082833FM-15+0181KMTC V0200301N007710057019N0112651N1-00201-00501102531ADDAA103000391GD14991+0057019GF108991999999999999999999GP10060003102009000002021003102009GQ100600781913679GR100600292914159MA1102441999999MD1810121+9999MW1001REMMET098KMTC 051455Z 03015KT 7SM OVC019 M02/M05 A3025 RMK SLP253 WND DATA ESTMD 60001 58012 LSRPSR10P DRY;EQDQ01+000000PRSWM2Q02  00038PRCP03
0281725377999992005010516003+42600-082833FM-15+0181KMTC V0200301N007710069019N0160931N1-00201-00601102601ADDGD13991+0069019GD24991+0270019GF108991999999999999999999GP10060005402009000002021005402009GQ100600715914929GR100600449914159MA1102511999999MW1001OC100981REMMET097KMTC 051555Z 03015G19KT 10SM BKN023 OVC090 M02/M06 A3027 RMK SLP260 WND DATA ESTMD LSRPSR10P DRY;EQDQ01+000000PRSWM2
0283725377999992005010517003+42600-082833FM-15+0181KMTC V0200101N005710075019N0160931N1-00301-00601102601ADDGD13991+0075019GD24991+0270019GF108991999999999999999999GP10060012002009000002021012002009GQ100600670916339GR100600552914159MA1102511999999MW1001REMMET107KMTC 051655Z 01011KT 10SM BKN025 OVC090 M03/M06 A3027 RMK BKN025 V SCT SLP260 WND DATA ESTMD LSRPSR10P DRY;EQDQ01+000000PRSWM2
0181725377999992005010517514+42600-082833FM-16+0181KMTC V0200301N005710390019N0160931N1-00301-00601999999ADDGD12991+0060019GD24991+0390019GF108991999999999999999999MA1102371999999MW1001REMMET073KMTC 051751Z 03011KT 10SM SCT020 OVC130 M03/M06 A3023 RMK WND DATA ESTMD;EQDQ01+000000PRSWM2
0346725377999992005010518003+42600-082833FM-15+0181KMTC V0200201N006210390019N0160931N1-00301-00601102461ADDAA106000391AJ100039199999999GD12991+0060019GD24991+0390019GF108991999999999999999999GP10060015102009000602021014902009GQ100600653917829GR100600592914159MA1102371999999MD1810071+9999MW1001REMMET112KMTC 051755Z 02012KT 10SM SCT020 OVC130 M03/M06 A3023 RMK SLP246 WND DATA ESTMD 60001 4/001 58007 PSRLSR16P DRY;EQDQ01+000000PRSWM2Q02  00038PRCP06
0270725377999992005010519003+42600-082833FM-15+0181KMTC V0200301N005710360019N0160931N1-00301-00601102381ADDGD12991+0057019GD24991+0360019GF108991999999999999999999GP10060008702009000002021008702009GQ100600664919339GR100600567914159MA1102271999999MW1001REMMET094KMTC 051855Z 03011KT 10SM SCT019 OVC120 M03/M06 A3020 RMK SLP238 WND DATA ESTMD PSRLSR16P DRY;EQDQ01+000000PRSWM2
0181725377999992005010519144+42600-082833FM-16+0181KMTC V0200201N004110063019N0160931N1-00301-00601999999ADDGD13991+0063019GD24991+0360019GF108991999999999999999999MA1102271999999MW1001REMMET073KMTC 051914Z 02008KT 10SM BKN021 OVC120 M03/M06 A3020 RMK WND DATA ESTMD;EQDQ01+000000PRSWM2
0192725377999992005010519234+42600-082833FM-16+0181KMTC V0200201N005710063019N0160931N1-00301-00601999999ADDGD13991+0063019GD24991+0360019GF108991999999999999999999MA1102271999999MW1001REMMET084KMTC 051923Z 02011KT 10SM BKN021 OVC120 M03/M06 A3020 RMK WND DATA ESTMD PSR19P DRY;EQDQ01+000000PRSWM2
0266725377999992005010520003+42600-082833FM-15+0181KMTC V0200201N006210063019N0112651N1-00301-00601102291ADDGD13991+0063019GD24991+0360019GF108991999999999999999999GP10060007202009000002021007202009GQ100600702920769GR100600479914159MA1102201999999MW1001REMMET090KMTC 051955Z 02012KT 7SM BKN021 OVC120 M03/M06 A3018 RMK SLP229 WND DATA ESTMD PSR19P DRY;EQDQ01+000000PRSWM2
0200725377999992005010520204+42600-082833FM-15+0181KMTC V0200301N006710060019N0112651N1-00301-00601999999ADDGD13991+0060019GD24991+0360019GF108991999999999999999999MA1102131999999MW1711REMMET076KMTC 052020Z 03013KT 7SM -SN BKN020 OVC120 M03/M06 A3016 RMK WND DATA ESTMD;EQDQ01+000003PRSWM1Q02    003PRSWM1
0339725377999992005010521003+42600-082833FM-15+0181KMTC V0200301N006710060019N0112651N1-00301-00601102221ADDAA103000021GD13991+0060019GD24991+0360019GF108991999999999999999999GP10060004502009000002021004502009GQ100600764922069GR100600333914159MA1102131999999MD1610241+9999MW1711REMMET106KMTC 052055Z 03013KT 7SM -SN BKN020 OVC120 M03/M06 A3016 RMK SLP222 WND DATA ESTMD 60000 56024 PSR19P DRY;EQDQ01+000003PRSWM1Q02  00008PRCP03Q03    003PRSWM1
0286725377999992005010522003+42600-082833FM-15+0181KMTC V0200201N004610060019N0064371N1-00401-00601102191ADDGD13991+0060019GD24991+0240019GF108991999999999999999999GP10060001402009000002021001402009GQ100600842923219GR100600142914159MA1102101999999MW1711REMMET094KMTC 052155Z 02009KT 4SM -SN BKN020 OVC080 M04/M06 A3015 RMK SLP219 WND DATA ESTMD PSR19P DRY;EQDQ01+000003PRSWM1Q02    003PRSWM1
0286725377999992005010523003+42600-082833FM-15+0181KMTC V0200401N006210060019N0064371N1-00401-00601102121ADDGD13991+0060019GD24991+0120019GF108991999999999999999999GP10060000002009000002021000002009GQ100600892923839GR100600003902489MA1102001999999MW1711REMMET094KMTC 052256Z 04012KT 4SM -SN BKN020 OVC040 M04/M06 A3012 RMK SLP212 WND DATA ESTMD PSR19P DRY;EQDQ01+000003PRSWM1Q02    003PRSWM1
0309725377999992005010600003+42600-082833FM-15+0181KMTC V0200401N006210069019N0032181N1-00401-00601102121ADDAA106000391GD14991+0069019GF108991999999999999999999GP10060000002000000002000000002000GR100600000900009MA1102001999999MD1610101+9999MW1101MW2711REMMET102KMTC 052355Z 04012KT 2SM -SN BR OVC023 M04/M06 A3012 RMK SLP212 WND DATA ESTMD 60001 56010 PSR20P DRY;EQDQ01+000003PRSWM1Q02  00038PRCP06Q03    003PRSWM1
0231725377999992005010600414+42600-082833FM-16+0181KMTC V0200501N005710066019N0064371N1-00401-00801999999ADDGD12991+0030019GD23991+0066019GD34991+0120019GF108991999999999999999999MA1102001999999MW1101MW2711REMMET086KMTC 060041Z 05011KT 4SM -SN BR SCT010 BKN022 OVC040 M04/M08 A3012 RMK WND DATA ESTMD;EQDQ01+000003PRSWM1Q02    003PRSWM1
0300725377999992005010601003+42600-082833FM-15+0181KMTC V0200601N005710066019N0064371N1-00401-00801102051ADDGD12991+0030019GD23991+0066019GD34991+0105019GF108991999999999999999999GP10060000002000000002000000002000GR100600000900009MA1101931999999MW1101MW2711REMMET104KMTC 060056Z 06011KT 4SM -SN BR SCT010 BKN022 OVC035 M04/M08 A3010 RMK SLP205 WND DATA ESTMD PSR20P DRY;EQDQ01+000003PRSWM1Q02    003PRSWM1
0305725377999992005010602003+42600-082833FM-15+0181KMTC V0200401N005710066019N0064371N1-00501-00801102021ADDGD12991+0030019GD23991+0066019GD34991+0105019GF108991999999999999999999GP10060000002000000002000000002000GR100600000900009MA1101901999999MW1101MW2711REMMET109METAR KMTC 060155Z 04011KT 4SM -SN BRSCT010 BKN022 OVC035 M05/M08 A3009 RMK SLP202 WND DATA ESTMD PSR20P DRY;EQDQ01+000003PRSWM1Q02    003PRSWM1
0353725377999992005010603003+42600-082833FM-15+0181KMTC V0200301N005710069019N0048281N1-00501-00701101931ADDAA103000021GD12991+0030019GD23991+0069019GD34991+0105019GF108991999999999999999999GP10060000002000000002000000002000GR100600000900009MA1101831999999MD1810191+9999MW1101MW2711REMMET116KMTC 060257Z 03011KT 3SM -SN BR SCT010 BKN023 OVC035 M05/M07 A3007 RMK SLP193 WND DATA ESTMD 60000 58019 PSR20P DRY;EQDQ01+000003PRSWM1Q02  00008PRCP03Q03    003PRSWM1
0193725377999992005010603414+42600-082833FM-16+0181KMTC V0200401N006710066019N0032181N1-00501-00701999999ADDGD14991+0066019GF108991999999999999999999MA1101691999999MW1101MW2711REMMET078SPECI KMTC 060341Z 04013KT 2SM -SN BR OVC022 M05/M07 A3003 RMK WND DATA ESTMD;EQDQ01+000003PRSWM1Q02    003PRSWM1
0256725377999992005010604003+42600-082833FM-15+0181KMTC V0200301N005710072019N0032181N1-00501-00701101761ADDGD14991+0072019GF108991999999999999999999GP10060000002000000002000000002000GR100600000900009MA1101661999999MW1101MW2711REMMET090KMTC 060356Z 03011KT 2SM -SN BR OVC024 M05/M07 A3002 RMK SLP176 WND DATA ESTMD PSR20P DRY;EQDQ01+000003PRSWM1Q02    003PRSWM1
0187725377999992005010604464+42600-082833FM-16+0181KMTC V0200401N005710075019N0064371N1-00501-00701999999ADDGD14991+0075019GF108991999999999999999999MA1101591999999MW1101MW2711REMMET072KMTC 060446Z 04011KT 4SM -SN BR OVC025 M05/M07 A3000 RMK WND DATA ESTMD;EQDQ01+000003PRSWM1Q02    003PRSWM1
0256725377999992005010605003+42600-082833FM-15+0181KMTC V0200401N005710075019N0080461N1-00501-00701101691ADDGD14991+0075019GF108991999999999999999999GP10060000002000000002000000002000GR100600000900009MA1101591999999MW1101MW2711REMMET090KMTC 060455Z 04011KT 5SM -SN BR OVC025 M05/M07 A3000 RMK SLP169 WND DATA ESTMD PSR20P DRY;EQDQ01+000003PRSWM1Q02    003PRSWM1
0332725377999992005010606003+42600-082833FM-15+0181KMTC V0200401N005110054019N0048281N1-00501-00601101551ADDAA106000391AJ100039199999999GD14991+0054019GF108991999999999999999999GP10060000002000000002000000002000GR100600000900009MA1101461999999MD1610371+9999MW1101MW2711REMMET108KMTC 060555Z 04010KT 3SM -SN BR OVC018 M05/M06 A2996 RMK SLP155 WND DATA ESTMD 60001 4/001 56037 LSR15P DRY;EQDQ01+000003PRSWM1Q02  00038PRCP06Q03    003PRSWM1
0278725377999992005010607003+42600-082833FM-15+0181KMTC V0200401N006710060019N0064371N1-00501-00601101491ADDGD13991+0060019GD24991+0120019GF108991999999999999999999GP10060000002000000002000000002000GR100600000900009MA1101391999999MW1101MW2711REMMET097KMTC 060655Z 04013KT 4SM -SN BR BKN020 OVC040 M05/M06 A2994 RMK SLP149 WND DATA ESTMD LSR15P DRY;EQDQ01+000003PRSWM1Q02    003PRSWM1
0220725377999992005010607384+42600-082833FM-16+0181KMTC V0200401N005710066019N0080461N1-00501-00601999999ADDGD13991+0066019GD24991+0120019GF108991999999999999999999MA1101321999999MW1101MW2711REMMET090KMTC 060738Z 04011KT 5SM -SN BR BKN022 OVC040 M05/M06 A2992 RMK WND DATA ESTMD LSR17P DRY;EQDQ01+000003PRSWM1Q02    003PRSWM1
0278725377999992005010608003+42600-082833FM-15+0181KMTC V0200301N006710057019N0064371N1-00501-00601101381ADDGD13991+0057019GD24991+0120019GF108991999999999999999999GP10060000002000000002000000002000GR100600000900009MA1101291999999MW1101MW2711REMMET097KMTC 060756Z 03013KT 4SM -SN BR BKN019 OVC040 M05/M06 A2991 RMK SLP138 WND DATA ESTMD LSR17P DRY;EQDQ01+000003PRSWM1Q02    003PRSWM1
0209725377999992005010608374+42600-082833FM-16+0181KMTC V0200201N005110060019N0032181N1-00501-00601999999ADDGD12991+0033019GD24991+0060019GF108991999999999999999999MA1101221999999MW1101MW2711REMMET079KMTC 060837Z 02010KT 2SM -SN BR SCT011 OVC020 M05/M06 A2989 RMK WND DATA ESTMD;EQDQ01+000003PRSWM1Q02    003PRSWM1
0331725377999992005010609003+42600-082833FM-15+0181KMTC V0200301N006210054019N0032181N1-00501-00601101281ADDAA103001891GD12991+0030019GD24991+0054019GF108991999999999999999999GP10060000002000000002000000002000GR100600000900009MA1101191999999MD1810271+9999MW1101MW2711REMMET109KMTC 060855Z 03012KT 2SM -SN BR SCT010 OVC018 M05/M06 A2988 RMK SLP128 WND DATA ESTMD 60007 58027 LSR17P DRY;EQDQ01+000003PRSWM1Q02  00188PRCP03Q03    003PRSWM1
0222725377999992005010609314+42600-082833FM-16+0181KMTC V0200401N005110051019N0064371N1-00501-00601999999ADDGD12991+0030019GD24991+0051019GF108991999999999999999999MA1101021999999MW1101MW2711REMMET092KMTC 060931Z 04010KT 4SM -SN BR SCT010 OVC017 M05/M06 A2983 RMK PRESFR WND DATA ESTMD LSR10;EQDQ01+000003PRSWM1Q02    003PRSWM1
0273725377999992005010610003+42600-082833FM-15+0181KMTC V0200601N006710045019N0064371N1-00401-00501101071ADDGD12991+0024019GD24991+0045019GF108991999999999999999999GP10060000002000000002000000002000GR100600000900009MA1100951999999MW1101MW2711REMMET092KMTC 060955Z 06013KT 4SM -SN BR SCT008 OVC015 M04/M05 A2981 RMK SLP107 WND DATA ESTMD LSR10;EQDQ01+000003PRSWM1Q02    003PRSWM1
0187725377999992005010610204+42600-082833FM-15+0181KMTC V0200601N004610036019N0080461N1-00401-00501999999ADDGD14991+0036019GF108991999999999999999999MA1100881999999MW1101MW2711REMMET072KMTC 061020Z 06009KT 5SM -SN BR OVC012 M04/M05 A2979 RMK WND DATA ESTMD;EQDQ01+000003PRSWM1Q02    003PRSWM1
0187725377999992005010610494+42600-082833FM-16+0181KMTC V0200401N003610042019N0032181N1-00401-00501999999ADDGD14991+0042019GF108991999999999999999999MA1100851999999MW1101MW2711REMMET072KMTC 061049Z 04007KT 2SM -SN BR OVC014 M04/M05 A2978 RMK WND DATA ESTMD;EQDQ01+000003PRSWM1Q02    003PRSWM1
0251725377999992005010611003+42600-082833FM-15+0181KMTC V0200401N003110036019N0032181N1-00401-00501100971ADDGD14991+0036019GF108991999999999999999999GP10060000002000000002000000002000GR100600000900009MA1100851999999MW1101MW2711REMMET085KMTC 061055Z 04006KT 2SM -SN BR OVC012 M04/M05 A2978 RMK SLP097 WND DATA ESTMD LSR10;EQDQ01+000003PRSWM1Q02    003PRSWM1
0208725377999992005010611314+42600-082833FM-16+0181KMTC V0200401N005110030019N0032181N1-00501-00501999999ADDGD11991+0018019GD24991+0030019GF108991999999999999999999MA1100681999999MW1101MW2711MW3791REMMET088KMTC 061131Z 04010KT 2SM -SNPL BR FEW006 OVC010 M05/M05 A2973 RMK PRESFR WND DATA ESTMD;EQDQ01+000003PRSWM1
0214725377999992005010611424+42600-082833FM-16+0181KMTC V0200601N005110033019N0064371N1-00501-00501999999ADDGD13991+0033019GD24991+0054019GF108991999999999999999999MA1100611999999MW1101MW2711MW3791REMMET094KMTC 061142Z 06010KT 4SM -SNPL BR BKN011 OVC018 M05/M05 A2971 RMK PRESFR WND DATA ESTMD LSR09;EQDQ01+000003PRSWM1
0240725377999992005010611464+42600-082833FM-16+0181KMTC V0200601N005110033019N0080461N1-00401-00501999999ADDGD13991+0033019GD23991+0054019GD34991+0150019GF108991999999999999999999MA1100581999999MW1101MW2561REMMET095KMTC 061146Z 06010KT 5SM -FZDZ BR BKN011 BKN018 OVC050 M04/M05 A2970 RMK PRESFR WND DATA ESTMD;EQDQ01+000003PRSWM1Q02    003PRSWM1
0413725377999992005010612003+42600-082833FM-15+0181KMTC V0200601N004610033019N0080461N1-00401-00501100641ADDAA106003691AA224004391AJ100089199999999GD13991+0033019GD23991+0054019GD34991+0150019GF108991999999999999999999GP10060000002000000002000000002000GR100600000900009MA1100541999999MD1810631+9999MW1101MW2561REMMET132KMTC 061155Z 06009KT 5SM -FZDZ BR BKN011 BKN018 OVC055 M04/M05 A2969 RMK PRESFR SLP064 WND DATA ESTMD 60014 70017 4/003 58063 LSR09;EQDQ01+000003PRSWM1Q02  00368PRCP06Q03  00438PRCP24Q04    003PRSWM1
0218725377999992005010612084+42600-082833FM-16+0181KMTC V0200501N004110051019N0096561N1-00401-00501999999ADDGD12991+0033019GD24991+0051019GF108991999999999999999999MA1100511999999MW1101MW2661REMMET088KMTC 061208Z 05008KT 6SM -FZRA BR SCT011 OVC017 M04/M05 A2968 RMK PRESFR WND DATA ESTMD;EQDQ01+000003PRSWM1Q02    003PRSWM1
0218725377999992005010612194+42600-082833FM-16+0181KMTC V0200601N005710024019N0096561N1-00401-00501999999ADDGD13991+0024019GD24991+0048019GF108991999999999999999999MA1100441999999MW1101MW2661REMMET088KMTC 061219Z 06011KT 6SM -FZRA BR BKN008 OVC016 M04/M05 A2966 RMK PRESFR WND DATA ESTMD;EQDQ01+000003PRSWM1Q02    003PRSWM1
0189725377999992005010612334+42600-082833FM-16+0181KMTC V0200601N005110021019N0096561N1-00401-00401999999ADDGD14991+0021019GF108991999999999999999999MA1100411999999MW1101MW2561REMMET074KMTC 061233Z 06010KT 6SM -FZDZ BR OVC007 M04/M04 A2965 RMK WND DATA ESTMD;EQDQ01+000003PRSWM1Q02    003PRSWM1
0273725377999992005010613003+42600-082833FM-15+0181KMTC V0200701N006210021019N0112651N1-00401-00401100401ADDGD13991+0021019GD24991+0030019GF108991999999999999999999GP10060000002000000002000000002000GR100600000900009MA1100311999999MW1561REMMET098KMTC 061255Z 07012KT 7SM -FZDZ BKN007 OVC010 M04/M04 A2962 RMK PRESFR SLP040 WND DATA ESTMD LSR09;EQDQ01+000003PRSWM1Q02    003PRSWM1
0200725377999992005010613464+42600-082833FM-16+0181KMTC V0209999V002110027019N0040231N1-00201-00301999999ADDGD14991+0027019GF108991999999999999999999MA1100411999999MW1101MW2561REMMET085KMTC 061346Z VRB04KT 2 1/2SM -FZDZ BR OVC009 M02/M03 A2965 RMK PRESRR WND DATA ESTMD;EQDQ01+000003PRSWM1Q02    003PRSWM1
0188725377999992005010613524+42600-082833FM-16+0181KMTC V0209999V002610027019N0032181N1-00201-00301999999ADDGD14991+0027019GF108991999999999999999999MA1100511999999MW1101MW2561MW3791REMMET083KMTC 061352Z VRB05KT 2SM -FZDZPL BR OVC009 M02/M03 A2968 RMK PRESRR WND DATA ESTMD;EQDQ01+000003PRSWM1
0269725377999992005010614003+42600-082833FM-15+0181KMTC V0209999V001510027019N0032181N1-00201-00301100601ADDGD14991+0027019GF108991999999999999999999GP10060002302009000002021002302009GQ100600860912569GR100600094913329MA1100511999999MW1101MW2561MW3791REMMET096KMTC 061355Z VRB03KT 2SM -FZDZPL BR OVC009 M02/M03 A2968 RMK PRESRR SLP060 WND DATA ESTMD LSR09;EQDQ01+000003PRSWM1
0214725377999992005010614064+42600-082833FM-16+0181KMTC V0209999V001010027019N0022131N1-00301-00301999999ADDGD13991+0027019GD24991+0066019GF108991999999999999999999MA1100441999999MW1101MW2561MW3731REMMET094KMTC 061406Z VRB02KT 1 3/8SM -FZDZSN BR BKN009 OVC022 M03/M03 A2966 RMK PRESFR WND DATA ESTMD;EQDQ01+000003PRSWM1
0237725377999992005010614094+42600-082833FM-16+0181KMTC V0209999V001010033019N0022131N1-00301-00301999999ADDGD12991+0027019GD23991+0033019GD34991+0066019GF108991999999999999999999MA1100441999999MW1101MW2561MW3731REMMET102KMTC 061409Z VRB02KT 1 3/8SM -FZDZSN BR SCT009 BKN011 OVC022 M03/M03 A2966 RMK WND DATA ESTMD LSRIR09;EQDQ01+000003PRSWM1
0213725377999992005010614154+42600-082833FM-16+0181KMTC V0209999V001510024019N0024141N1-00301-00301999999ADDGD13991+0024019GD24991+0066019GF108991999999999999999999MA1100471999999MW1101MW2711REMMET083KMTC 061415Z VRB03KT 1 1/2SM -SN BR BKN008 OVC022 M03/M03 A2967 RMK WND DATA ESTMD;EQDQ01+000003PRSWM1Q02    003PRSWM1
0210725377999992005010614294+42600-082833FM-16+0181KMTC V0202901N003110012019N0010061N1-00301-00401999999ADDED199U08539GD15991+0012019GF109991999999000251999999MA1100471999999MW1101MW2711REMMET084KMTC 061429Z 29006KT 5/8SM R01/2800FT -SN BR VV004 M03/M04 A2967 RMK WND DATA ESTMD;EQDQ01+000003PRSWM1Q02    003PRSWM1
0346725377999992005010615003+42600-082833FM-15+0181KMTC V0203101N003110012019N0010061N1-00401-00401100551ADDAA103002391ED199U09149GD15991+0012019GF109991999999000251999999GP10060004702009000002021004702009GQ100600780913659GR100600293914159MA1100441999999MD1610081+9999MW1101MW2711REMMET111KMTC 061455Z 31006KT 5/8SM R01/3000FT -SN BR VV004 M04/M04 A2966 RMK SLP055 WND DATA ESTMD 60009 56008 PSRIR09;EQDQ01+000003PRSWM1Q02  00238PRCP03Q03    003PRSWM1
0221725377999992005010615234+42600-082833FM-16+0181KMTC V0203101N004110012019N0016091N1-00401-00401999999ADDED199U16769GD15991+0012019GF109991999999000251999999MA1100471999999MW1101MW2711REMMET095KMTC 061523Z COR 31008KT 1SM R01/5500FT -SN BR VV004 M04/M04 A2967 RMK WND DATA ESTMD COR 1524;EQDQ01+000003PRSWM1Q02    003PRSWM1
0227725377999992005010615344+42600-082833FM-16+0181KMTC V0203001N003610027019N0040231N1-00301-00401999999ADDED199U18299GD13991+0027019GD24991+0102019GF108991999999999999999999MA1100471999999MW1711REMMET092KMTC 061534Z 30007KT 2 1/2SM R01/P6000FT -SN BKN009 OVC034 M03/M04 A2967 RMK WND DATA ESTMD;EQDQ01+000003PRSWM1Q02    003PRSWM1
0207725377999992005010615424+42600-082833FM-16+0181KMTC V0203201N003610027019N0048281N1-00301-00401999999ADDGD13991+0027019GD24991+0102019GF108991999999999999999999MA1100411999999MW1711REMMET083KMTC 061542Z 32007KT 3SM -SN BKN009 OVC034 M03/M04 A2965 RMK PRESFR WND DATA ESTMD;EQDQ01+000003PRSWM1Q02    003PRSWM1
0202725377999992005010615504+42600-082833FM-15+0181KMTC V0203201N004110027019N0112651N1-00301-00401999999ADDGD13991+0027019GD23991+0102019GD34991+0150019GF108991999999999999999999MA1100411999999MW1001REMMET079KMTC 061550Z 32008KT 7SM BKN009 BKN034 OVC055 M03/M04 A2965 RMK WND DATA ESTMD;EQDQ01+000000PRSWM2
0285725377999992005010616003+42600-082833FM-15+0181KMTC V0203101N004110027019N0112651N1-00301-00401100531ADDGD13991+0027019GD23991+0102019GD34991+0150019GF108991999999999999999999GP10060014802009003702021013602009GQ100600714914919GR100600451914159MA1100441999999MW1001REMMET094KMTC 061555Z 31008KT 7SM BKN009 BKN034 OVC055 M03/M04 A2966 RMK SLP053 WND DATA ESTMD PSRIR09;EQDQ01+000000PRSWM2
0210725377999992005010616244+42600-082833FM-16+0181KMTC V0203101N00361006601CN0112651N1-00301-00401999999ADDGD11991+0030019GD22991+0066019GD34991+0102019GF108991999999999999999999MA1100441999999MW1001REMMET087KMTC 061624Z 31007KT 7SM FEW010 SCT022 OVC034 M03/M04 A2966 RMK WND DATA ESTMD LSRIR08;EQDQ01+000000PRSWM2
0285725377999992005010617003+42600-082833FM-15+0181KMTC V0203001N00311006601CN0112651N1-00301-00401100521ADDGD11991+0030019GD22991+0066019GD34991+0096019GF108991999999999999999999GP10060022102009010902021017802009GQ100600669916319GR100600554914159MA1100411999999MW1001REMMET094KMTC 061656Z 30006KT 7SM FEW010 SCT022 OVC032 M03/M04 A2965 RMK SLP052 WND DATA ESTMD LSRIR08;EQDQ01+000000PRSWM2
0363725377999992005010618003+42600-082833FM-15+0181KMTC V0202601N00311008401CN0160931N1-00201-00401100491ADDAA106002891AJ100089199999999GD12991+0051019GD22991+0084019GD34991+0096019GF108991999999999999999999GP10060007302009000002021007302009GQ100600651917819GR100600595914159MA1100411999999MD1710051+9999MW1001REMMET114KMTC 061755Z 26006KT 10SM SCT017 SCT028 OVC032 M02/M04 A2965 RMK SLP049 WND DATA ESTMD 60011 4/003 57005 LSRPSR17;EQDQ01+000000PRSWM2Q02  00288PRCP06
0287725377999992005010619003+42600-082833FM-15+0181KMTC V0202401N00511007501CN0160931N1-00201-00401100531ADDGD12991+0054019GD22991+0075019GD34991+0090019GF108991999999999999999999GP10060006402009000002021006402009GQ100600662919339GR100600570914159MA1100441999999MW1001REMMET096KMTC 061855Z 24010KT 10SM SCT018 SCT025 OVC030 M02/M04 A2966 RMK SLP053 WND DATA ESTMD LSRPSR17;EQDQ01+000000PRSWM2
0181725377999992005010619074+42600-082833FM-16+0181KMTC V0202501N004110057019N0160931N1-00201-00401999999ADDGD13991+0057019GD24991+0078019GF108991999999999999999999MA1100471999999MW1001REMMET073KMTC 061907Z 25008KT 10SM BKN019 OVC026 M02/M04 A2967 RMK WND DATA ESTMD;EQDQ01+000000PRSWM2
0243725377999992005010620003+42600-082833FM-15+0181KMTC V0202401N004610072019N0160931N1-00201-00401100631ADDGD14991+0072019GF108991999999999999999999GP10060005002009000002021005002009GQ100600701920769GR100600482914159MA1100541999999MW1001REMMET082KMTC 061955Z 24009KT 10SM OVC024 M02/M04 A2969 RMK SLP063 WND DATA ESTMD LSRPSR17;EQDQ01+000000PRSWM2
0285725377999992005010621003+42600-082833FM-15+0181KMTC V0202501N005710072019N0160931N1-00201-00501100751ADDGD13991+0072019GD24991+0150019GF108991999999999999999999GP10060006602009000002021006602009GQ100600762922069GR100600337914159MA1100641999999MD1310251+9999MW1001REMMET095KMTC 062055Z 25011KT 10SM BKN024 OVC055 M02/M05 A2972 RMK SLP075 WND DATA ESTMD 53025 LSRPSR17;EQDQ01+000000PRSWM2
0286725377999992005010622003+42600-082833FM-15+0181KMTC V0202501N005710081019N0160931N1-00301-00601100931ADDGD13991+0081019GD24991+0150019GF108991999999999999999999GP10060006202009016302021004502009GQ100600841923219GR100600146914159MA1100811999999MW1161REMMET094KMTC 062155Z 25011KT 10SM VCSH BKN027 OVC055 M03/M06 A2977 RMK SLP093 WND DATA ESTMD LSRPSR17;EQDQ01+000003PRSWM1Q02    003PRSWM1
0202725377999992005010622024+42600-082833FM-16+0181KMTC V0202601N006210081019N0112651N1-00301-00601999999ADDGD13991+0081019GD24991+0150019GF108991999999999999999999MA1100811999999MW1851REMMET078KMTC 062202Z 26012KT 7SM -SHSN BKN027 OVC055 M03/M06 A2977 RMK WND DATA ESTMD;EQDQ01+000003PRSWM1Q02    003PRSWM1
0192725377999992005010622434+42600-082833FM-16+0181KMTC V0202601N006710075019N0160931N1-00301-00601999999ADDGD13991+0075019GD23991+0150019GF107991999999999999999999MA1100951999999MW1001OC100871REMMET076KMTC 062243Z 26013G17KT 10SM BKN025 BKN055 M03/M06 A2981 RMK WND DATA ESTMD;EQDQ01+000000PRSWM2
0243725377999992005010623003+42600-082833FM-15+0181KMTC V0202601N008210072019N0160931N1-00301-00601101081ADDGD13991+0072019GF107991999999999999999999GP10060000002009000002021000002009GQ100600892923849GR100600004902719MA1100981999999MW1001REMMET082KMTC 062256Z 26016KT 10SM BKN024 M03/M06 A2982 RMK SLP108 WND DATA ESTMD LSRPSR17;EQDQ01+000000PRSWM2
0175725377999992005010623184+42600-082833FM-16+0181KMTC V0202501N007210081019N0160931N1-00301-00601999999ADDGD14991+0081019GF108991999999999999999999MA1101021999999MW1001OC101181REMMET074KMTC 062318Z 25014G23KT 10SM -SHN OVC027 M03/M06 A2983 RMK WND DATA ESTMD;EQDQ01+000000PRSWM2
0185725377999992005010623494+42600-082833FM-16+0181KMTC V0202601N005710081019N0160931N1-00301-00601999999ADDGD14991+0081019GF108991999999999999999999MA1101121999999MW1711REMMET076KMTC 062349Z 26011KT 10SM -SN OVC027 M03/M06 A2986 RMK WND DATA ESTMD PSR18;EQDQ01+000003PRSWM1Q02    003PRSWM1
0299725377999992005010700003+42600-082833FM-15+0181KMTC V0202501N004610078019N0160931N1-00301-00601101221ADDAA106000021AJ100089199999999GD14991+0078019GF108991999999999999999999GP10060000002000000002000000002000GR100600000900009MA1101121999999MD1110461+9999MW1001REMMET097KMTC 062357Z 25009KT 10SM OVC026 M03/M06 A2986 RMK SLP122 WND DATA ESTMD 60000 4/003 51046 PSR18;EQDQ01+000000PRSWM2Q02  99998PRCP06
0248725377999992005010701003+42600-082833FM-15+0181KMTC V0202601N005110081019N0160931N1-00401-00601101361ADDGD14991+0081019GF108991999999999999999999GP10060000002000000002000000002000GR100600000900009MA1101251999999MW1711REMMET088KMTC 070055Z 26010KT 10SM -SN OVC027 M04/M06 A2990 RMK SLP136 WND DATA ESTMD PSR18P DRY;EQDQ01+000003PRSWM1Q02    003PRSWM1
0159725377999992005010701214+42600-082833FM-16+0181KMTC V0202701N003110069019N0160931N1-00401-00601999999ADDGD14991+0069019GF108991999999999999999999MA1101321999999MW1001REMMET066KMTC 070121Z 27006KT 10SM OVC023 M04/M06 A2992 RMK WND DATA ESTMD;EQDQ01+000000PRSWM2
0228725377999992005010702003+42600-082833FM-15+0181KMTC V0202901N006210069019N0160931N1-00401-00801101481ADDGD13991+0069019GF107991999999999999999999GP10060000002000000002000000002000GR100600000900009MA1101391999999MW1001REMMET084KMTC 070155Z 29012KT 10SM BKN023 M04/M08 A2994 RMK SLP148 WND DATA ESTMD PSR18P DRY;EQDQ01+000000PRSWM2
0281725377999992005010703003+42600-082833FM-15+0181KMTC V0202801N004610072019N0160931N1-00401-00701101641ADDAA103000021GD13991+0072019GF107991999999999999999999GP10060000002000000002000000002000GR100600000900009MA1101521999999MD1310411+9999MW1001REMMET096KMTC 070255Z 28009KT 10SM BKN024 M04/M07 A2998 RMK SLP164 WND DATA ESTMD 60000 53041 PSR18P DRY;EQDQ01+000000PRSWM2Q02  00008PRCP03
0159725377999992005010703124+42600-082833FM-16+0181KMTC V0202801N004112200019N0160931N1-00501-00801999999ADDGD12991+0072019GF104991999999999999999999MA1101561999999MW1001REMMET066KMTC 070312Z 28008KT 10SM SCT024 M05/M08 A2999 RMK WND DATA ESTMD;EQDQ01+000000PRSWM2
0228725377999992005010704003+42600-082833FM-15+0181KMTC V0202701N003112200019N0160931N1-00501-00801101641ADDGD12991+0072019GF104991999999999999999999GP10060000002000000002000000002000GR100600000900009MA1101521999999MW1001REMMET084KMTC 070355Z 27006KT 10SM SCT024 M05/M08 A2998 RMK SLP164 WND DATA ESTMD PSR18P DRY;EQDQ01+000000PRSWM2
0228725377999992005010705003+42600-082833FM-15+0181KMTC V0202701N003612200019N0160931N1-00601-00801101761ADDGD11991+0072019GF102991999999999999999999GP10060000002000000002000000002000GR100600000900009MA1101661999999MW1001REMMET084KMTC 070455Z 27007KT 10SM FEW024 M06/M08 A3002 RMK SLP176 WND DATA ESTMD PSR18P DRY;EQDQ01+000000PRSWM2
0281725377999992005010706003+42600-082833FM-15+0181KMTC V0202801N002112200019N0160931N1-00801-00901101911ADDAA106000021GD11991+0075019GF102991999999999999999999GP10060000002000000002000000002000GR100600000900009MA1101801999999MD1310251+9999MW1001REMMET096KMTC 070555Z 28004KT 10SM FEW025 M08/M09 A3006 RMK SLP191 WND DATA ESTMD 60000 53025 PSR18P DRY;EQDQ01+000000PRSWM2Q02  99998PRCP06
0228725377999992005010707003+42600-082833FM-15+0181KMTC V0202501N002112200019N0160931N1-00801-00901101981ADDGD11991+0075019GF102991999999999999999999GP10060000002000000002000000002000GR100600000900009MA1101861999999MW1001REMMET084KMTC 070655Z 25004KT 10SM FEW025 M08/M09 A3008 RMK SLP198 WND DATA ESTMD PSR18P DRY;EQDQ01+000000PRSWM2
0250725377999992005010708003+42600-082833FM-15+0181KMTC V0202301N001010390019N0160931N1-00901-00901102111ADDGD12991+0120019GD23991+0390019GF107991999999999999999999GP10060000002000000002000000002000GR100600000900009MA1102001999999MW1001REMMET091KMTC 070755Z 23002KT 10SM SCT040 BKN130 M09/M09 A3012 RMK SLP211 WND DATA ESTMD PSR18P DRY;EQDQ01+000000PRSWM2
0270725377999992005010709003+42600-082833FM-15+0181KMTC V0202301N002110126019N0160931N1-00801-00801102251ADDGD13991+0126019GD23991+0390019GF107991999999999999999999GP10060000002000000002000000002000GR100600000900009MA1102131999999MD1310341+9999MW1001REMMET097KMTC 070856Z 23004KT 10SM BKN042 BKN130 M08/M08 A3016 RMK SLP225 WND DATA ESTMD 53034 PSR18P DRY;EQDQ01+000000PRSWM2
0250725377999992005010710003+42600-082833FM-15+0181KMTC V0202201N002610096019N0160931N1-00501-00701102321ADDGD13991+0096019GD24991+0390019GF108991999999999999999999GP10060000002000000002000000002000GR100600000900009MA1102201999999MW1001REMMET091KMTC 070955Z 22005KT 10SM BKN032 OVC130 M05/M07 A3018 RMK SLP232 WND DATA ESTMD PSR18P DRY;EQDQ01+000000PRSWM2
0159725377999992005010710334+42600-082833FM-16+0181KMTC V0202001N001510087019N0160931N1-00501-00601999999ADDGD14991+0087019GF108991999999999999999999MA1102201999999MW1001REMMET066KMTC 071033Z 20003KT 10SM OVC029 M05/M06 A3018 RMK WND DATA ESTMD;EQDQ01+000000PRSWM2
0228725377999992005010711003+42600-082833FM-15+0181KMTC V0202001N001510084019N0160931N1-00501-00601102351ADDGD14991+0084019GF108991999999999999999999GP10060000002000000002000000002000GR100600000900009MA1102241999999MW1001REMMET084KMTC 071055Z 20003KT 10SM OVC028 M05/M06 A3019 RMK SLP235 WND DATA ESTMD PSR18P DRY;EQDQ01+000000PRSWM2
0304725377999992005010712003+42600-082833FM-15+0181KMTC V0202101N001510084019N0160931N1-00401-00501102381ADDAA124002891AJ100089199999999GD14991+0084019GF108991999999999999999999GP10060000002000000002000000002000GR100600000900009MA1102271999999MD1110141+9999MW1001REMMET102KMTC 071155Z 21003KT 10SM OVC028 M04/M05 A3020 RMK SLP238 WND DATA ESTMD 70011 4/003 51014 PSR18P DRY;EQDQ01+000000PRSWM2Q02  00288PRCP24
0228725377999992005010713003+42600-082833FM-15+0181KMTC V0202001N002110084019N0160931N1-00401-00501102421ADDGD14991+0084019GF108991999999999999999999GP10060000002000000002000000002000GR100600000900009MA1102301999999MW1001REMMET084KMTC 071255Z 20004KT 10SM OVC028 M04/M05 A3021 RMK SLP242 WND DATA ESTMD PSR18P DRY;EQDQ01+000000PRSWM2
0170725377999992005010713174+42600-082833FM-16+0181KMTC V0202001N002610084019N0160931N1-00401-00501999999ADDGD14991+0084019GF108991999999999999999999MA1102341999999MW1001REMMET077KMTC 071317Z 20005KT 10SM OVC028 M04/M05 A3022 RMK WND DATA ESTMD PSR20P DRY;EQDQ01+000000PRSWM2
0267725377999992005010714003+42600-082833FM-15+0181KMTC V0202101N004110084019N0160931N1-00401-00501102521ADDGD13991+0084019GD24991+0600019GF108991999999999999999999GP10060004602009000002021004602009GQ100600860912549GR100600095913569MA1102401999999MW1001REMMET091KMTC 071355Z 21008KT 10SM BKN028 OVC200 M04/M05 A3024 RMK SLP252 WND DATA ESTMD PSR20P DRY;EQDQ01+000000PRSWM2
0181725377999992005010714254+42600-082833FM-15+0181KMTC V0202201N004610096019N0160931N1-00401-00501999999ADDGD13991+0096019GD24991+0600019GF108991999999999999999999MA1102471999999MW1001REMMET073KMTC 071425Z 22009KT 10SM BKN032 OVC200 M04/M05 A3026 RMK WND DATA ESTMD;EQDQ01+000000PRSWM2
0309725377999992005010715003+42600-082833FM-15+0181KMTC V0202301N005710420019N0160931N1-00501-00701102661ADDGD12991+0105019GD23991+0420019GD33991+0600019GF107991999999999999999999GP10060011802009010602021009602009GQ100600780913649GR100600294914159MA1102541999999MD1310271+9999MW1001REMMET104KMTC 071455Z 23011KT 10SM SCT035 BKN140 BKN200 M05/M07 A3028 RMK SLP266 WND DATA ESTMD 53027 PSR20P DRY;EQDQ01+000000PRSWM2
0071725377999992005010716009+42617-082833NSRDB+017799999V020999999999999999999999999999+99999+99999999999ADDGP10060030302009050302021014102009GQ100600713914899GR100600453914159
0188725377999992005010716144+42600-082833FM-16+0181KMTC V0202301N003110060019N0160931N1-00401-00601999999ADDGD13991+0060019GD24991+0420019GF108991999999999999999999MA1102511999999MW1001REMMET080KMTC 071614Z 23006KT 10SM BKN020 OVC140 M04/M06 A3027 RMK PRESFR WND DATA ESTMD;EQDQ01+000000PRSWM2
0245725377999992005010717003+42600-082833FM-15+0181KMTC V0202401N002110060019N0160931N1-00401-00601102631ADDGD14991+0060019GF108991999999999999999999GP10060034702009048602021015502009GQ100600668916309GR100600556914159MA1102511999999MW1001REMMET084KMTC 071655Z 24004KT 10SM OVC020 M04/M06 A3027 RMK SLP263 WND DATA ESTMD PSR20P DRY;EQDQ01+000000PRSWM2
0286725377999992005010718003+42600-082833FM-15+0181KMTC V0201901N003110054019N0112651N1-00401-00601102571ADDGD11991+0036019GD24991+0054019GF108991999999999999999999GP10060030302009027102021018802009GQ100600650917809GR100600597914159MA1102441999999MD1810101+9999MW1001REMMET096KMTC 071755Z 19006KT 7SM FEW012 OVC018 M04/M06 A3025 RMK SLP257 WND DATA ESTMD 58010 PSR20P DRY;EQDQ01+000000PRSWM2
0267725377999992005010719003+42600-082833FM-15+0181KMTC V0202201N003110075019N0160931N1-00301-00601102431ADDGD13991+0075019GD24991+0390019GF108991999999999999999999GP10060024502009014302021018702009GQ100600661919329GR100600573914159MA1102301999999MW1001REMMET091KMTC 071855Z 22006KT 10SM BKN025 OVC130 M03/M06 A3021 RMK SLP243 WND DATA ESTMD PSR20P DRY;EQDQ01+000000PRSWM2
0159725377999992005010719404+42600-082833FM-16+0181KMTC V0202101N004110066019N0160931N1-00301-00601999999ADDGD14991+0066019GF108991999999999999999999MA1102301999999MW1001REMMET066KMTC 071940Z 21008KT 10SM OVC022 M03/M06 A3021 RMK WND DATA ESTMD;EQDQ01+000000PRSWM2
0245725377999992005010720003+42600-082833FM-15+0181KMTC V0202001N003110066019N0160931N1-00301-00601102431ADDGD14991+0066019GF108991999999999999999999GP10060007202009000002021007202009GQ100600699920759GR100600486914159MA1102301999999MW1001REMMET084KMTC 071955Z 20006KT 10SM OVC022 M03/M06 A3021 RMK SLP243 WND DATA ESTMD PSR20P DRY;EQDQ01+000000PRSWM2
0264725377999992005010721003+42600-082833FM-15+0181KMTC V0202001N004110060019N0112651N1-00201-00501102461ADDGD14991+0060019GF108991999999999999999999GP10060012202009009702021009802009GQ100600761922059GR100600341914159MA1102341999999MD1510101+9999MW1001REMMET089KMTC 072055Z 20008KT 7SM OVC020 M02/M05 A3022 RMK SLP246 WND DATA ESTMD 55010 PSR20P DRY;EQDQ01+000000PRSWM2
0244725377999992005010722003+42600-082833FM-15+0181KMTC V0201801N004110054019N0112651N1-00201-00401102451ADDGD14991+0054019GF108991999999999999999999GP10060004102009004002021003702009GQ100600839923219GR100600149914159MA1102341999999MW1001REMMET083KMTC 072155Z 18008KT 7SM OVC018 M02/M04 A3022 RMK SLP245 WND DATA ESTMD PSR20P DRY;EQDQ01+000000PRSWM2
0245725377999992005010723003+42600-082833FM-15+0181KMTC V0201801N003110060019N0160931N1-00201-00401102431ADDGD14991+0060019GF108991999999999999999999GP10060000002009000002021000002009GQ100600891923859GR100600005902959MA1102341999999MW1001REMMET084KMTC 072255Z 18006KT 10SM OVC020 M02/M04 A3022 RMK SLP243 WND DATA ESTMD PSR20P DRY;EQDQ01+000000PRSWM2
0271725377999992005010800003+42600-082833FM-15+0181KMTC V0202001N002610066019N0160931N1-00201-00401102471ADDAJ100089199999999GD14991+0066019GF108991999999999999999999GP10060000002000000002000000002000GR100600000900009MA1102371999999MD1310021+9999MW1001REMMET096KMTC 072355Z 20005KT 10SM OVC022 M02/M04 A3023 RMK SLP247 WND DATA ESTMD 4/003 53002 PSR20P DRY;EQDQ01+000000PRSWM2
0228725377999992005010801003+42600-082833FM-15+0181KMTC V0201901N001510069019N0160931N1-00301-00401102381ADDGD14991+0069019GF108991999999999999999999GP10060000002000000002000000002000GR100600000900009MA1102271999999MW1001REMMET084KMTC 080055Z 19003KT 10SM OVC023 M03/M04 A3020 RMK SLP238 WND DATA ESTMD PSR20P DRY;EQDQ01+000000PRSWM2
