0172725386999992005010100514+44017-082800AUTO +0183KP58 V0202801N006219999999N9999999N1+00701-00201101381ADDAA106000091MA1101321999999MW1001OC101181REMMET085KP58 010051Z AUTO 28012G23KT 07/M02 A2992 RMK AO2 PRESRR SLP138 T00671022 PWINO TSNO;EQDQ01+000000PRSWM2Q02  00002PRCP06
0138725386999992005010101514+44017-082800AUTO +0183KP58 V0202901N006712200019N9999999N1+00401-00301101571ADDMA1101521999999MW1001OC100981REMMET078KP58 010151Z AUTO 29013G19KT 04/M03 A2998 RMK AO2 SLP157 T00441033 PWINO TSNO;EQDQ01+000000PRSWM2
0183725386999992005010102514+44017-082800AUTO +0183KP58 V0202901N006712200019N9999999N1+00301-00501101771ADDMA1101731999999MD1110601+9999MW1001OC101031REMMET109KP58 010251Z AUTO 29013G20KT 03/M05 A3004 RMK AO2 PK WND 29026/0231 PRESRR SLP177 T00281050 51060 PWINO TSNO;EQDQ01+000000PRSWM2
0161725386999992005010103514+44017-082800AUTO +0183KP58 V0202901N007719999999N9999999N1+00201-00501101981ADDMA1101931999999MW1001OC101181REMMET085KP58 010351Z AUTO 29015G23KT 02/M05 A3010 RMK AO2 SLP198 T00171050 PWINO FZRANO TSNO;EQDQ01+000000PRSWM2Q02  00002PRCP06
0170725386999992005010104514+44017-082800AUTO +0183KP58 V0202901N005719999999N9999999N1+00101-00601102131ADDKA1999M+01391KA2999N+00111MA1102071999999MW1001REMMET092KP58 010451Z AUTO 29011KT 01/M06 A3014 RMK AO2 SLP213 T00111061 401390011 PWINO FZRANO TSNO;EQDQ01+000000PRSWM2
0185725386999992005010105514+44017-082800FM-16+0183KP58 V02099999999999999999N9999999N1+99999+99999102211ADDKA1999M+00831KA2999N+00061MD1110451+9999MW1001REMMET108KP58 010551Z AUTO 27008KT 240V300 01/M06 A3017 RMK AO2 SLP221 T00061056 10083 20006 51045 PWINO FZRANO TSNO;EQDQ01+000000PRSWM2
0161725386999992005010106514+44017-082800AUTO +0183KP58 V0202801N002119999999N9999999N1+00001-00601102331ADDAA106000091MA1102301999999MW1001REMMET082KP58 010651Z AUTO 28004KT 00/M06 A3021 RMK AO2 SLP233 T00001061 PWINO FZRANO TSNO;EQDQ01+000000PRSWM2Q02  00002PRCP06
0134725386999992005010107514+44017-082800AUTO +0183KP58 V0202701N003612200019N9999999N1+00001-00601102441ADDMA1102401999999MW1001REMMET082KP58 010751Z AUTO 27007KT 00/M06 A3024 RMK AO2 SLP244 T00001061 PWINO FZRANO TSNO;EQDQ01+000000PRSWM2
0147725386999992005010108514+44017-082800FM-16+0183KP58 V02099999999992200019N9999999N1+99999+99999102531ADDMD1110301+9999MW1001REMMET096KP58 010851Z AUTO 27007KT 230V300 00/M06 A3026 RMK AO2 SLP253 T00001061 51030 PWINO FZRANO TSNO;EQDQ01+000000PRSWM2
0150725386999992005010109514+44017-082800AUTO +0183KP58 V0202801N003619999999N9999999N1+00001-00501102611ADDMA1102541999999MW1001REMMET082KP58 010951Z AUTO 28007KT 00/M05 A3028 RMK AO2 SLP261 T00001050 PWINO FZRANO TSNO;EQDQ01+000000PRSWM2Q02  00002PRCP06
0134725386999992005010110514+44017-082800AUTO +0183KP58 V0203101N005712200019N9999999N1+00001-00501102741ADDMA1102681999999MW1001REMMET082KP58 011051Z AUTO 31011KT 00/M05 A3032 RMK AO2 SLP274 T00001050 PWINO FZRANO TSNO;EQDQ01+000000PRSWM2
0204725386999992005010111514+44017-082800AUTO +0183KP58 V0203001N005719999999N9999999N1-00101-00601102901ADDKA1999M+00061KA2999N-00111MA1102811999999MD1310341+9999MW1001OC100821REMMET104KP58 011151Z AUTO 30011G16KT M01/M06 A3036 RMK AO2 SLP290 T10061061 10006 21011 53034 PWINO FZRANO TSNO;EQDQ01+000000PRSWM2
0176725386999992005010112514+44017-082800AUTO +0183KP58 V0203101N003119999999N9999999N1-00101-00601103031ADDAA106000091MA1102951999999MD1999999+0001MW1001REMMET083KP58 011251Z AUTO 31006KT M01/M06 A3040 RMK AO2 SLP303 T10061061 PWINO FZRANO TSNO;EQDQ01+000000PRSWM2Q02  00002PRCP06
0135725386999992005010113514+44017-082800AUTO +0183KP58 V0203301N003112200019N9999999N1-00101-00701103181ADDMA1103081999999MW1001REMMET083KP58 011351Z AUTO 33006KT M01/M07 A3044 RMK AO2 SLP318 T10111067 PWINO FZRANO TSNO;EQDQ01+000000PRSWM2
0162725386999992005010114514+44017-082800AUTO +0183KP58 V0203301N003112200019N9999999N1-00101-00701103331ADDMA1103221999999MD1310401+9999MW1001REMMET096KP58 011451Z AUTO 33006KT M01/M07 A3048 RMK AO2 PRESRR SLP333 T10111072 53040 PWINO FZRANO TSNO;EQDQ01+000000PRSWM2
0162725386999992005010115514+44017-082800AUTO +0183KP58 V0209999V003119999999N9999999N1-00201-00601103371ADDMA1103251999999MW1001OC100721REMMET086KP58 011551Z AUTO VRB06G14KT M02/M06 A3049 RMK AO2 SLP337 T10171061 PWINO FZRANO TSNO;EQDQ01+000000PRSWM2Q02  00002PRCP06
0135725386999992005010116514+44017-082800AUTO +0183KP58 V0209999V002112200019N9999999N1-00201-00601103421ADDMA1103321999999MW1001REMMET083KP58 011651Z AUTO VRB04KT M02/M06 A3051 RMK AO2 SLP342 T10171061 PWINO FZRANO TSNO;EQDQ01+000000PRSWM2
0193725386999992005010117514+44017-082800AUTO +0183KP58 V0203501N002619999999N9999999N1-00101-00501103411ADDKA1999M-00061KA2999N-00171MA1103291999999MD1010061+9999MW1001REMMET101KP58 011751Z AUTO 35005KT M01/M05 A3050 RMK AO2 SLP341 T10111050 11006 21017 50006 PWINO FZRANO TSNO;EQDQ01+000000PRSWM2
0162725386999992005010118514+44017-082800AUTO +0183KP58 V0209999V002119999999N9999999N1-00101-00601103451ADDAA106000091MA1103321999999MW1001REMMET083KP58 011851Z AUTO VRB04KT M01/M06 A3051 RMK AO2 SLP345 T10111056 PWINO FZRANO TSNO;EQDQ01+000000PRSWM2Q02  00002PRCP06
0135725386999992005010119514+44017-082800AUTO +0183KP58 V0200101N003612200019N9999999N1-00101-00601103481ADDMA1103351999999MW1001REMMET083KP58 011951Z AUTO 01007KT M01/M06 A3052 RMK AO2 SLP348 T10111056 PWINO FZRANO TSNO;EQDQ01+000000PRSWM2
0155725386999992005010120514+44017-082800AUTO +0183KP58 V0200201N004112200019N9999999N1-00101-00601103501ADDMA1103391999999MD1110081+9999MW1001REMMET089KP58 012051Z AUTO 02008KT M01/M06 A3053 RMK AO2 SLP350 T10111056 51008 PWINO FZRANO TSNO;EQDQ01+000000PRSWM2
0151725386999992005010121514+44017-082800AUTO +0183KP58 V0200301N005719999999N9999999N1-00101-00501103531ADDMA1103421999999MW1001REMMET083KP58 012151Z AUTO 03011KT M01/M05 A3054 RMK AO2 SLP353 T10061050 PWINO FZRANO TSNO;EQDQ01+000000PRSWM2Q02  00002PRCP06
0135725386999992005010122514+44017-082800AUTO +0183KP58 V0200701N005112200019N9999999N1-00101-00501103531ADDMA1103421999999MW1001REMMET083KP58 012251Z AUTO 07010KT M01/M05 A3054 RMK AO2 SLP353 T10061050 PWINO FZRANO TSNO;EQDQ01+000000PRSWM2
0193725386999992005010123514+44017-082800AUTO +0183KP58 V0200601N007219999999N9999999N1-00101-00501103521ADDKA1999M-00061KA2999N-00111MA1103391999999MD1010021+9999MW1001REMMET101KP58 012351Z AUTO 06014KT M01/M05 A3053 RMK AO2 SLP352 T10111050 11006 21011 50002 PWINO FZRANO TSNO;EQDQ01+000000PRSWM2
0162725386999992005010200514+44017-082800AUTO +0183KP58 V0200801N006719999999N9999999N1-00101-00401103481ADDAA106000091MA1103351999999MW1001REMMET083KP58 020051Z AUTO 08013KT M01/M04 A3052 RMK AO2 SLP348 T10061044 PWINO FZRANO TSNO;EQDQ01+000000PRSWM2Q02  00002PRCP06
0141725386999992005010201514+44017-082800AUTO +0183KP58 V0200901N009312200019N9999999N1+00001-00401103371ADDMA1103251999999MW1001REMMET089KP58 020151Z AUTO 09018KT 00/M04 A3049 RMK AO2 PRESFR SLP337 T00001039 PWINO FZRANO TSNO;EQDQ01+000000PRSWM2
0155725386999992005010202514+44017-082800AUTO +0183KP58 V0200901N008212200019N9999999N1-00101-00401103391ADDMA1103291999999MD1510131+9999MW1001REMMET089KP58 020251Z AUTO 09016KT M01/M04 A3050 RMK AO2 SLP339 T10061039 55013 PWINO FZRANO TSNO;EQDQ01+000000PRSWM2
0150725386999992005010203514+44017-082800AUTO +0183KP58 V0201001N007719999999N9999999N1+00001-00301103331ADDMA1103221999999MW1001REMMET082KP58 020351Z AUTO 10015KT 00/M03 A3048 RMK AO2 SLP333 T00001033 PWINO FZRANO TSNO;EQDQ01+000000PRSWM2Q02  00002PRCP06
0170725386999992005010204514+44017-082800AUTO +0183KP58 V0201101N008719999999N9999999N1+00001-00301103171ADDKA1999M+00111KA2999N-00171MA1103051999999MW1001REMMET092KP58 020451Z AUTO 11017KT 00/M03 A3043 RMK AO2 SLP317 T00001028 400111017 PWINO FZRANO TSNO;EQDQ01+000000PRSWM2
0210725386999992005010205514+44017-082800AUTO +0183KP58 V0201201N009319999999N9999999N1+00101-00301102991ADDKA1999M+00061KA2999N-00111MA1102881999999MD1810391+9999MW1001OC101081REMMET110KP58 020551Z AUTO 12018G21KT 01/M03 A3038 RMK AO2 PRESFR SLP299 T00061033 10006 21011 58039 PWINO FZRANO TSNO;EQDQ01+000000PRSWM2
0163725386999992005010207514+44017-082800AUTO +0183KP58 V0201301N007712200019N9999999N1+00101-00201102751ADDMA1102641999999MW1001OC101131REMMET103KP58 020751Z AUTO 13015G22KT 01/M02 A3031 RMK AO2 PK WND 12026/0711 SLP275 T00111022 PWINO FZRANO TSNO;EQDQ01+000000PRSWM2
0199725386999992005010208514+44017-082800AUTO +0183KP58 V0201501N004119999999N9999999N1+00101-00201102691ADDAA101001391AA203001391MA1102571999999MD1610281+9999MW1001OC100871REMMET103KP58 020851Z AUTO 15008G17KT 01/M02 A3029 RMK AO2 SLP269 P0005 60005 T00061017 56028 PWINO FZRANO TSNO;EQDQ01+000000PRSWM2
0178725386999992005010209514+44017-082800AUTO +0183KP58 V0201401N007719999999N9999999N1+00101-00101102451ADDAA101001891MA1102341999999MW1001OC101031REMMET091KP58 020951Z AUTO 14015G20KT 01/M01 A3022 RMK AO2 SLP245 P0007 T00061011 PWINO FZRANO TSNO;EQDQ01+000000PRSWM2Q02  00002PRCP06
0164725386999992005010210514+44017-082800AUTO +0183KP58 V0201501N006219999999N9999999N1+00101-00101102291ADDAA101000891MA1102201999999MW1001OC101031REMMET093KP58 021051Z AUTO 15012G20KT 01/M01 A3018 RMK AO2 SLP229 P0003 T00061011 PWINO FZRANO TSNO /;EQDQ01+000000PRSWM2
0288725386999992005010211514+44017-082800AUTO +0183KP58 V0201501N006219999999N9999999N1+00101-00101102141ADDAA101000391AA206004191AA324004191KA1999M+00111KA2999N+00061MA1102031999999MD1610541+9999MW1001OC101081REMMET123KP58 021151Z AUTO 15012G21KT 01/M01 A3013 RMK AO2 SLP214 P0001 60016 70016 T00111006 10011 20006 56054 PWINO FZRANO TSNO /;EQDQ01+000000PRSWM2Q02  00418PRCP06Q03  00418PRCP24
0209725386999992005010212514+44017-082800AUTO +0183KP58 V0201601N004619999999N9999999N1+00201+00101102111ADDAA101001891MA1102001999999MD1999999+0001MW1001OC100871REMMET092KP58 021251Z AUTO 16009G17KT 02/01 A3012 RMK AO2 SLP211 P0007 T00170006 PWINO FZRANO TSNO /;EQDQ01+000000PRSWM2Q02  00002PRCP06Q03  00002PRCP06
0145725386999992005010213514+44017-082800FM-16+0183KP58 V02099999999999999999N9999999N1+99999+99999102091ADDAA101004691MW1001REMMET097KP58 021351Z AUTO 16007KT 130V190 02/01 A3012 RMK AO2 SLP209 P0018 T00220011 PWINO FZRANO TSNO /;EQDQ01+000000PRSWM2
0193725386999992005010214514+44017-082800AUTO +0183KP58 V0201701N004119999999N9999999N1+00301+00201102001ADDAA101000391AA203006691MA1101901999999MD1810141+9999MW1001OC100721REMMET097KP58 021451Z AUTO 17008G14KT 03/02 A3009 RMK AO2 SLP200 P0001 60026 T00330017 58014 PWINO TSNO /;EQDQ01+000000PRSWM2
0178725386999992005010215514+44017-082800FM-16+0183KP58 V0202101N005719999999N9999999N1+00601+00401101941ADDAA101000391MA1101861999999MW1001OC100821REMMET091SPECI KP58 021551Z AUTO 21011G16KT 06/04 A3008 RMK AO2 SLP194 P0001 T00560039 PWINO TSNO /;EQDQ01+000000PRSWM2Q02  00002PRCP06
0121725386999992005010216514+44017-082800FM-16+0183KP58 V02099999999992200019N9999999N1+99999+99999101881ADDMW1001REMMET084KP58 021651Z AUTO 21007KT 170V240 06/04 A3006 RMK AO2 SLP188 T00610044 PWINO TSNO /;EQDQ01+000000PRSWM2
0196725386999992005010217514+44017-082800FM-16+0183KP58 V02099999999999999999N9999999N1+99999+99999101861ADDAA106006991KA1999M+00671KA2999N+00111MD1610121+9999MW1001REMMET108KP58 021751Z AUTO 23007KT 190V260 07/05 A3006 RMK AO2 SLP186 60027 T00670050 10067 20011 56012 PWINO TSNO /;EQDQ01+000000PRSWM2
0160725386999992005010218514+44017-082800AUTO +0183KP58 V0202801N003619999999N9999999N1+00801+00701101901ADDMA1101831999999MW1001REMMET076KP58 021851Z AUTO 28007KT 08/07 A3007 RMK AO2 SLP190 T00780067 PWINO TSNO /;EQDQ01+000000PRSWM2Q02  00002PRCP06Q03  00002PRCP06
0128725386999992005010219514+44017-082800AUTO +0183KP58 V0202801N005112200019N9999999N1+00501+00301101961ADDMA1101901999999MW1001REMMET076KP58 021951Z AUTO 28010KT 05/03 A3009 RMK AO2 SLP196 T00500033 PWINO TSNO /;EQDQ01+000000PRSWM2
0148725386999992005010220514+44017-082800AUTO +0183KP58 V0202801N004112200019N9999999N1+00401+00301102091ADDMA1102001999999MD1310211+9999MW1001REMMET082KP58 022051Z AUTO 28008KT 04/03 A3012 RMK AO2 SLP209 T00440028 53021 PWINO TSNO /;EQDQ01+000000PRSWM2
0144725386999992005010221514+44017-082800AUTO +0183KP58 V0202801N002619999999N9999999N1+00401+00201102191ADDMA1102101999999MW1001REMMET076KP58 022151Z AUTO 28005KT 04/02 A3015 RMK AO2 SLP219 T00390022 PWINO TSNO /;EQDQ01+000000PRSWM2Q02  00002PRCP06
0121725386999992005010222514+44017-082800FM-16+0183KP58 V02099999999992200019N9999999N1+99999+99999102271ADDMW1001REMMET084KP58 022251Z AUTO 27007KT 230V290 04/02 A3017 RMK AO2 SLP227 T00390017 PWINO TSNO /;EQDQ01+000000PRSWM2
0186725386999992005010223514+44017-082800AUTO +0183KP58 V0209999V002619999999N9999999N1+00301+00101102341ADDKA1999M+00831KA2999N+00331MA1102271999999MD1110251+9999MW1001REMMET094KP58 022351Z AUTO VRB05KT 03/01 A3020 RMK AO2 SLP234 T00330011 10083 20033 51025 PWINO TSNO /;EQDQ01+000000PRSWM2
0155725386999992005010300514+44017-082800AUTO +0183KP58 V0209999V002619999999N9999999N1+00301+00101102451ADDAA106000091MA1102371999999MW1001REMMET076KP58 030051Z AUTO VRB05KT 03/01 A3023 RMK AO2 SLP245 T00280006 PWINO TSNO /;EQDQ01+000000PRSWM2Q02  00002PRCP06
0128725386999992005010301514+44017-082800AUTO +0183KP58 V0202701N004112200019N9999999N1+00301+00001102491ADDMA1102401999999MW1001REMMET076KP58 030151Z AUTO 27008KT 03/00 A3024 RMK AO2 SLP249 T00280000 PWINO TSNO /;EQDQ01+000000PRSWM2
0156725386999992005010302514+44017-082800AUTO +0183KP58 V0202901N002612200019N9999999N1+00201-00101102541ADDMA1102441999999MD1110191+9999MW1001REMMET090KP58 030251Z AUTO 29005KT 02/M01 A3025 RMK AO2 SLP254 T00221006 51019 PWINO FZRANO TSNO /;EQDQ01+000000PRSWM2
0152725386999992005010303514+44017-082800AUTO +0183KP58 V0202601N002619999999N9999999N1+00201-00101102561ADDMA1102471999999MW1001REMMET084KP58 030351Z AUTO 26005KT 02/M01 A3026 RMK AO2 SLP256 T00171011 PWINO FZRANO TSNO /;EQDQ01+000000PRSWM2Q02  00002PRCP06
0172725386999992005010304514+44017-082800AUTO +0183KP58 V0209999V002119999999N9999999N1+00201-00101102621ADDKA1999M+00831KA2999N+00001MA1102541999999MW1001REMMET094KP58 030451Z AUTO VRB04KT 02/M01 A3028 RMK AO2 SLP262 T00171011 400830000 PWINO FZRANO TSNO /;EQDQ01+000000PRSWM2
0194725386999992005010305514+44017-082800AUTO +0183KP58 V0209999C000019999999N9999999N1+00101-00201102621ADDKA1999M+00331KA2999N+00061MA1102541999999MD1110091+9999MW1001REMMET102KP58 030551Z AUTO 00000KT 01/M02 A3028 RMK AO2 SLP262 T00061017 10033 20006 51009 PWINO FZRANO TSNO /;EQDQ01+000000PRSWM2
0163725386999992005010306514+44017-082800AUTO +0183KP58 V0209999V001519999999N9999999N1+00101-00201102571ADDAA106000091MA1102511999999MW1001REMMET084KP58 030651Z AUTO VRB03KT 01/M02 A3027 RMK AO2 SLP257 T00061017 PWINO FZRANO TSNO /;EQDQ01+000000PRSWM2Q02  00002PRCP06
0136725386999992005010307514+44017-082800AUTO +0183KP58 V0209999V001512200019N9999999N1+00101-00201102631ADDMA1102541999999MW1001REMMET084KP58 030751Z AUTO VRB03KT 01/M02 A3028 RMK AO2 SLP263 T00061017 PWINO FZRANO TSNO /;EQDQ01+000000PRSWM2
0156725386999992005010308514+44017-082800AUTO +0183KP58 V0202801N002112200019N9999999N1+00101-00201102601ADDMA1102511999999MD1610041+9999MW1001REMMET090KP58 030851Z AUTO 28004KT 01/M02 A3027 RMK AO2 SLP260 T00061017 56004 PWINO FZRANO TSNO /;EQDQ01+000000PRSWM2
0152725386999992005010309514+44017-082800AUTO +0183KP58 V0209999V002619999999N9999999N1+00001-00201102661ADDMA1102571999999MW1001REMMET084KP58 030951Z AUTO VRB05KT 00/M02 A3029 RMK AO2 SLP266 T00001017 PWINO FZRANO TSNO /;EQDQ01+000000PRSWM2Q02  00002PRCP06
0136725386999992005010310514+44017-082800AUTO +0183KP58 V0202701N002112200019N9999999N1+00001-00201102651ADDMA1102571999999MW1001REMMET084KP58 031051Z AUTO 27004KT 00/M02 A3029 RMK AO2 SLP265 T00001017 PWINO FZRANO TSNO /;EQDQ01+000000PRSWM2
0228725386999992005010311514+44017-082800AUTO +0183KP58 V0202501N002119999999N9999999N1-00101-00201102711ADDAA124006991KA1999M+00061KA2999N-00061MA1102611999999MD1110101+9999MW1001REMMET109KP58 031151Z AUTO 25004KT M01/M02 A3030 RMK AO2 SLP271 70027 T10061017 10006 21006 51010 PWINO FZRANO TSNO /;EQDQ01+000000PRSWM2Q02  00698PRCP24
0178725386999992005010312514+44017-082800AUTO +0183KP58 V0202301N002619999999N9999999N1-00101-00201102731ADDAA106000091MA1102641999999MD1999999+0001MW1001REMMET085KP58 031251Z AUTO 23005KT M01/M02 A3031 RMK AO2 SLP273 T10061017 PWINO FZRANO TSNO /;EQDQ01+000000PRSWM2Q02  00002PRCP06
0137725386999992005010313514+44017-082800AUTO +0183KP58 V0202401N002112200019N9999999N1-00101-00201102751ADDMA1102641999999MW1001REMMET085KP58 031351Z AUTO 24004KT M01/M02 A3031 RMK AO2 SLP275 T10061017 PWINO FZRANO TSNO /;EQDQ01+000000PRSWM2
0156725386999992005010314514+44017-082800AUTO +0183KP58 V0209999C000012200019N9999999N1+00001-00101102741ADDMA1102641999999MD1010031+9999MW1001REMMET090KP58 031451Z AUTO 00000KT 00/M01 A3031 RMK AO2 SLP274 T00001011 50003 PWINO FZRANO TSNO /;EQDQ01+000000PRSWM2
0156725386999992005010315514+44017-082800FM-16+0183KP58 V0209999C000019999999N9999999N1+00101-00101102721ADDMA1102611999999MW1001REMMET088SPECI KP58 031551Z AUTO 00000KT 01/M01 A3030 RMK AO2 SLP272 T00111011 PWINO FZRANO TSNO;EQDQ01+000000PRSWM2Q02  00002PRCP06
0134725386999992005010316514+44017-082800AUTO +0183KP58 V0209999C000012200019N9999999N1+00201-00101102671ADDMA1102571999999MW1001REMMET082KP58 031651Z AUTO 00000KT 02/M01 A3029 RMK AO2 SLP267 T00171011 PWINO FZRANO TSNO;EQDQ01+000000PRSWM2
0192725386999992005010317514+44017-082800AUTO +0183KP58 V0203201N001519999999N9999999N1+00201-00101102571ADDKA1999M+00171KA2999N-00061MA1102471999999MD1810171+9999MW1001REMMET100KP58 031751Z AUTO 32003KT 02/M01 A3026 RMK AO2 SLP257 T00171011 10017 21006 58017 PWINO FZRANO TSNO;EQDQ01+000000PRSWM2
0161725386999992005010318514+44017-082800AUTO +0183KP58 V0203201N002119999999N9999999N1+00201-00101102501ADDAA106000091MA1102401999999MW1001REMMET082KP58 031851Z AUTO 32004KT 02/M01 A3024 RMK AO2 SLP250 T00171011 PWINO FZRANO TSNO;EQDQ01+000000PRSWM2Q02  00002PRCP06
0134725386999992005010319514+44017-082800AUTO +0183KP58 V0203001N001512200019N9999999N1+00101-00101102461ADDMA1102371999999MW1001REMMET082KP58 031951Z AUTO 30003KT 01/M01 A3023 RMK AO2 SLP246 T00111011 PWINO FZRANO TSNO;EQDQ01+000000PRSWM2
0154725386999992005010320514+44017-082800AUTO +0183KP58 V0203001N001512200019N9999999N1+00101-00101102491ADDMA1102401999999MD1510081+9999MW1001REMMET088KP58 032051Z AUTO 30003KT 01/M01 A3024 RMK AO2 SLP249 T00111011 55008 PWINO FZRANO TSNO;EQDQ01+000000PRSWM2
0150725386999992005010321514+44017-082800AUTO +0183KP58 V0203601N002619999999N9999999N1+00201-00201102481ADDMA1102371999999MW1001REMMET082KP58 032151Z AUTO 36005KT 02/M02 A3023 RMK AO2 SLP248 T00171017 PWINO FZRANO TSNO;EQDQ01+000000PRSWM2Q02  00002PRCP06
0134725386999992005010322514+44017-082800AUTO +0183KP58 V0200401N004112200019N9999999N1+00101-00101102451ADDMA1102341999999MW1001REMMET082KP58 032251Z AUTO 04008KT 01/M01 A3022 RMK AO2 SLP245 T00111011 PWINO FZRANO TSNO;EQDQ01+000000PRSWM2
0192725386999992005010323514+44017-082800AUTO +0183KP58 V0200201N004619999999N9999999N1+00101-00101102461ADDKA1999M+00171KA2999N+00111MA1102341999999MD1510041+9999MW1001REMMET100KP58 032351Z AUTO 02009KT 01/M01 A3022 RMK AO2 SLP246 T00111011 10017 20011 55004 PWINO FZRANO TSNO;EQDQ01+000000PRSWM2
0161725386999992005010400514+44017-082800AUTO +0183KP58 V0200201N005119999999N9999999N1+00101-00201102471ADDAA106000091MA1102371999999MW1001REMMET082KP58 040051Z AUTO 02010KT 01/M02 A3023 RMK AO2 SLP247 T00111017 PWINO FZRANO TSNO;EQDQ01+000000PRSWM2Q02  00002PRCP06
0134725386999992005010401514+44017-082800AUTO +0183KP58 V0200101N005712200019N9999999N1+00101-00201102511ADDMA1102401999999MW1001REMMET082KP58 040151Z AUTO 01011KT 01/M02 A3024 RMK AO2 SLP251 T00111022 PWINO FZRANO TSNO;EQDQ01+000000PRSWM2
0154725386999992005010402514+44017-082800AUTO +0183KP58 V0200101N005712200019N9999999N1+00101-00301102561ADDMA1102441999999MD1310101+9999MW1001REMMET088KP58 040251Z AUTO 01011KT 01/M03 A3025 RMK AO2 SLP256 T00061028 53010 PWINO FZRANO TSNO;EQDQ01+000000PRSWM2
0150725386999992005010403514+44017-082800AUTO +0183KP58 V0203601N005119999999N9999999N1+00101-00301102601ADDMA1102511999999MW1001REMMET082KP58 040351Z AUTO 36010KT 01/M03 A3027 RMK AO2 SLP260 T00061028 PWINO FZRANO TSNO;EQDQ01+000000PRSWM2Q02  00002PRCP06
0170725386999992005010404514+44017-082800AUTO +0183KP58 V0209999V002119999999N9999999N1+00101-00301102631ADDKA1999M+00171KA2999N-00061MA1102541999999MW1001REMMET092KP58 040451Z AUTO VRB04KT 01/M03 A3028 RMK AO2 SLP263 T00061033 400171006 PWINO FZRANO TSNO;EQDQ01+000000PRSWM2
0192725386999992005010405514+44017-082800AUTO +0183KP58 V0203401N003119999999N9999999N1+00001-00301102621ADDKA1999M+00111KA2999N+00001MA1102541999999MD1010071+9999MW1001REMMET100KP58 040551Z AUTO 34006KT 00/M03 A3028 RMK AO2 SLP262 T00001033 10011 20000 50007 PWINO FZRANO TSNO;EQDQ01+000000PRSWM2
0162725386999992005010406514+44017-082800AUTO +0183KP58 V0209999V002119999999N9999999N1-00101-00401102561ADDAA106000091MA1102471999999MW1001REMMET083KP58 040651Z AUTO VRB04KT M01/M04 A3026 RMK AO2 SLP256 T10061039 PWINO FZRANO TSNO;EQDQ01+000000PRSWM2Q02  00002PRCP06
0135725386999992005010407514+44017-082800AUTO +0183KP58 V0209999V002612200019N9999999N1-00101-00401102591ADDMA1102471999999MW1001REMMET083KP58 040751Z AUTO VRB05KT M01/M04 A3026 RMK AO2 SLP259 T10061039 PWINO FZRANO TSNO;EQDQ01+000000PRSWM2
0155725386999992005010408514+44017-082800AUTO +0183KP58 V0209999V002112200019N9999999N1-00101-00401102621ADDMA1102511999999MD1510011+9999MW1001REMMET089KP58 040851Z AUTO VRB04KT M01/M04 A3027 RMK AO2 SLP262 T10061044 55001 PWINO FZRANO TSNO;EQDQ01+000000PRSWM2
0151725386999992005010409514+44017-082800AUTO +0183KP58 V0209999V001519999999N9999999N1-00101-00401102661ADDMA1102541999999MW1001REMMET083KP58 040951Z AUTO VRB03KT M01/M04 A3028 RMK AO2 SLP266 T10061044 PWINO FZRANO TSNO;EQDQ01+000000PRSWM2Q02  00002PRCP06
0135725386999992005010410514+44017-082800AUTO +0183KP58 V0203301N002612200019N9999999N1-00101-00501102741ADDMA1102641999999MW1001REMMET083KP58 041051Z AUTO 33005KT M01/M05 A3031 RMK AO2 SLP274 T10111050 PWINO FZRANO TSNO;EQDQ01+000000PRSWM2
0193725386999992005010411514+44017-082800AUTO +0183KP58 V0209999V002619999999N9999999N1-00201-00601102751ADDKA1999M+00001KA2999N-00171MA1102641999999MD1110121+9999MW1001REMMET101KP58 041151Z AUTO VRB05KT M02/M06 A3031 RMK AO2 SLP275 T10171056 10000 21017 51012 PWINO FZRANO TSNO;EQDQ01+000000PRSWM2
0175725386999992005010412514+44017-082800AUTO +0183KP58 V0209999V001519999999N9999999N1-00201-00601999999ADDAA106000091MA1102681999999MD1999999+0001MW1001REMMET082KP58 041251Z AUTO VRB03KT M02/M06 A3032 RMK AO2 LP277 T10171061 PWINO FZRANO TSNO;EQDQ01+000000PRSWM2Q02  00002PRCP06
0135725386999992005010413514+44017-082800AUTO +0183KP58 V0209999V002112200019N9999999N1-00201-00601102811ADDMA1102711999999MW1001REMMET083KP58 041351Z AUTO VRB04KT M02/M06 A3033 RMK AO2 SLP281 T10171061 PWINO FZRANO TSNO;EQDQ01+000000PRSWM2
0155725386999992005010414514+44017-082800AUTO +0183KP58 V0203201N002112200019N9999999N1-00201-00601102881ADDMA1102781999999MD1310121+9999MW1001REMMET089KP58 041451Z AUTO 32004KT M02/M06 A3035 RMK AO2 SLP288 T10171056 53012 PWINO FZRANO TSNO;EQDQ01+000000PRSWM2
0157725386999992005010415514+44017-082800FM-16+0183KP58 V0203101N002619999999N9999999N1-00201-00601102921ADDMA1102811999999MW1001REMMET089SPECI KP58 041551Z AUTO 31005KT M02/M06 A3036 RMK AO2 SLP292 T10221061 PWINO FZRANO TSNO;EQDQ01+000000PRSWM2Q02  00002PRCP06
0135725386999992005010416514+44017-082800AUTO +0183KP58 V0203001N002612200019N9999999N1-00201-00701102891ADDMA1102781999999MW1001REMMET083KP58 041651Z AUTO 30005KT M02/M07 A3035 RMK AO2 SLP289 T10221067 PWINO FZRANO TSNO;EQDQ01+000000PRSWM2
0193725386999992005010417514+44017-082800AUTO +0183KP58 V0203201N002119999999N9999999N1-00201-00601102791ADDKA1999M-00171KA2999N-00221MA1102681999999MD1810091+9999MW1001REMMET101KP58 041751Z AUTO 32004KT M02/M06 A3032 RMK AO2 SLP279 T10221061 11017 21022 58009 PWINO FZRANO TSNO;EQDQ01+000000PRSWM2
0162725386999992005010418514+44017-082800AUTO +0183KP58 V0202901N002619999999N9999999N1-00201-00601102731ADDAA106000091MA1102611999999MW1001REMMET083KP58 041851Z AUTO 29005KT M02/M06 A3030 RMK AO2 SLP273 T10221061 PWINO FZRANO TSNO;EQDQ01+000000PRSWM2Q02  00002PRCP06
0135725386999992005010419514+44017-082800AUTO +0183KP58 V0202801N002612200019N9999999N1-00201-00701102691ADDMA1102571999999MW1001REMMET083KP58 041951Z AUTO 28005KT M02/M07 A3029 RMK AO2 SLP269 T10221067 PWINO FZRANO TSNO;EQDQ01+000000PRSWM2
0155725386999992005010420514+44017-082800AUTO +0183KP58 V0203101N003112200019N9999999N1-00201-00601102641ADDMA1102541999999MD1610141+9999MW1001REMMET089KP58 042051Z AUTO 31006KT M02/M06 A3028 RMK AO2 SLP264 T10221061 56014 PWINO FZRANO TSNO;EQDQ01+000000PRSWM2
0151725386999992005010421514+44017-082800AUTO +0183KP58 V0202901N002619999999N9999999N1-00201-00701102651ADDMA1102541999999MW1001REMMET083KP58 042151Z AUTO 29005KT M02/M07 A3028 RMK AO2 SLP265 T10221072 PWINO FZRANO TSNO;EQDQ01+000000PRSWM2Q02  00002PRCP06
0135725386999992005010422514+44017-082800AUTO +0183KP58 V0202801N002112200019N9999999N1-00201-00801102771ADDMA1102641999999MW1001REMMET083KP58 042251Z AUTO 28004KT M02/M08 A3031 RMK AO2 SLP277 T10171078 PWINO FZRANO TSNO;EQDQ01+000000PRSWM2
0199725386999992005010423514+44017-082800FM-16+0183KP58 V0209999V001519999999N9999999N1-00201-00701102781ADDKA1999M-00171KA2999N-00221MA1102641999999MD1010121+9999MW1001REMMET107SPECI KP58 042351Z AUTO VRB03KT M02/M07 A3031 RMK AO2 SLP278 T10171072 11017 21022 50012 PWINO FZRANO TSNO;EQDQ01+000000PRSWM2
0162725386999992005010500514+44017-082800AUTO +0183KP58 V0203201N002119999999N9999999N1-00101-00701102721ADDAA106000091MA1102611999999MW1001REMMET083KP58 050051Z AUTO 32004KT M01/M07 A3030 RMK AO2 SLP272 T10111067 PWINO FZRANO TSNO;EQDQ01+000000PRSWM2Q02  00002PRCP06
0135725386999992005010501514+44017-082800AUTO +0183KP58 V0203101N003112200019N9999999N1-00101-00601102721ADDMA1102611999999MW1001REMMET083KP58 050151Z AUTO 31006KT M01/M06 A3030 RMK AO2 SLP272 T10111061 PWINO FZRANO TSNO;EQDQ01+000000PRSWM2
0155725386999992005010502514+44017-082800AUTO +0183KP58 V0209999V002612200019N9999999N1-00101-00701102771ADDMA1102641999999MD1310011+9999MW1001REMMET089KP58 050251Z AUTO VRB05KT M01/M07 A3031 RMK AO2 SLP277 T10111067 53001 PWINO FZRANO TSNO;EQDQ01+000000PRSWM2
0151725386999992005010503514+44017-082800AUTO +0183KP58 V0209999V002619999999N9999999N1-00101-00601102781ADDMA1102641999999MW1001REMMET083KP58 050351Z AUTO VRB05KT M01/M06 A3031 RMK AO2 SLP278 T10111061 PWINO FZRANO TSNO;EQDQ01+000000PRSWM2Q02  00002PRCP06
0171725386999992005010504514+44017-082800AUTO +0183KP58 V0203401N003119999999N9999999N1-00201-00601102741ADDKA1999M+00001KA2999N-00221MA1102611999999MW1001REMMET093KP58 050451Z AUTO 34006KT M02/M06 A3030 RMK AO2 SLP274 T10171061 400001022 PWINO FZRANO TSNO;EQDQ01+000000PRSWM2
0193725386999992005010505514+44017-082800AUTO +0183KP58 V0209999V002119999999N9999999N1-00101-00501102701ADDKA1999M-00111KA2999N-00171MA1102571999999MD1810091+9999MW1001REMMET101KP58 050551Z AUTO VRB04KT M01/M05 A3029 RMK AO2 SLP270 T10111050 11011 21017 58009 PWINO FZRANO TSNO;EQDQ01+000000PRSWM2
0173725386999992005010506514+44017-082800AUTO +0183KP58 V0203501N004619999999N9999999N1-00201-00701102691ADDAA106000091MA1102571999999MW1001OC101031REMMET086KP58 050651Z AUTO 35009G20KT M02/M07 A3029 RMK AO2 SLP269 T10171067 PWINO FZRANO TSNO;EQDQ01+000000PRSWM2Q02  00002PRCP06
0128725386999992005010507514+44017-082800FM-16+0183KP58 V02099999999992200019N9999999N1+99999+99999102761ADDMW1001REMMET091KP58 050751Z AUTO 34007KT 320V020 M02/M07 A3031 RMK AO2 SLP276 T10221072 PWINO FZRANO TSNO;EQDQ01+000000PRSWM2
0166725386999992005010508514+44017-082800AUTO +0183KP58 V0203501N004612200019N9999999N1-00201-00801102771ADDMA1102641999999MD1310071+9999MW1001OC100871REMMET092KP58 050851Z AUTO 35009G17KT M02/M08 A3031 RMK AO2 SLP277 T10221078 53007 PWINO FZRANO TSNO;EQDQ01+000000PRSWM2
0147725386999992005010509514+44017-082800FM-16+0183KP58 V02099999999999999999N9999999N1+99999+99999102741ADDMW1001REMMET094KP58 050951Z AUTO 35011G24KT 320V060 M03/M08 A3030 RMK AO2 SLP274 T10281078 PWINO FZRANO TSNO;EQDQ01+000000PRSWM2Q02  00002PRCP06
0149725386999992005010510514+44017-082800FM-16+0183KP58 V02099999999992200019N9999999N1+99999+99999102731ADDMW1001REMMET112KP58 051051Z AUTO 01017G23KT 350V060 M03/M08 A3030 RMK AO2 PK WND 01027/1039 SLP273 T10281083 PWINO FZRANO TSNO;EQDQ01+000000PRSWM2
0171725386999992005010511514+44017-082800AUTO +0183KP58 V0200201N009319999999N9999999N1-00301-00801999999ADDKA1999M-00111KA2999N-00391MW1001REMMET108KP58 051151Z AUTO 02018KT M03/M08 RMK AO2 PK WND 03026/1137 SLPNO T10331078 11011 21039 PWINO FZRANO TSNO /;EQDQ01+000000PRSWM2
0196725386999992005010512514+44017-082800AUTO +0183KP58 V0200201N008219999999N9999999N1-00401-00801102851ADDAA106000091MA1102711999999MD1999999+0001MW1001REMMET103KP58 051251Z AUTO 02016KT M04/M08 A3033 RMK AO2 PK WND 02026/1153 SLP285 T10391083 PWINO FZRANO TSNO /;EQDQ01+000000PRSWM2Q02  00002PRCP06
0137725386999992005010513514+44017-082800AUTO +0183KP58 V0200201N008712200019N9999999N1-00401-00801102841ADDMA1102711999999MW1001REMMET085KP58 051351Z AUTO 02017KT M04/M08 A3033 RMK AO2 SLP284 T10441083 PWINO FZRANO TSNO /;EQDQ01+000000PRSWM2
0137725386999992005010514514+44017-082800AUTO +0183KP58 V0200401N009312200019N9999999N1-00401-00801102831ADDMA1102681999999MW1001REMMET085KP58 051451Z AUTO 04018KT M04/M08 A3032 RMK AO2 SLP283 T10441078 PWINO FZRANO TSNO /;EQDQ01+000000PRSWM2
0131725386999992005010515514+44017-082800AUTO +0183KP58 V0200501N009319999999N9999999N1-00401-00801999999ADDMW1001REMMET078KP58 051551Z AUTO 05018KT M04/M08 RMK AO2 SLPNO T10441083 PWINO FZRANO TSNO /;EQDQ01+000000PRSWM2Q02  00002PRCP06
0137725386999992005010516514+44017-082800AUTO +0183KP58 V0200401N008712200019N9999999N1-00501-00901102831ADDMA1102711999999MW1001REMMET085KP58 051651Z AUTO 04017KT M05/M09 A3033 RMK AO2 SLP283 T10501089 PWINO FZRANO TSNO /;EQDQ01+000000PRSWM2
0153725386999992005010517514+44017-082800AUTO +0183KP58 V0200301N009319999999N9999999N1-00401-00901999999ADDKA1999M-00331KA2999N-00501MW1001REMMET090KP58 051751Z AUTO 03018KT M04/M09 RMK AO2 SLPNO T10441089 11033 21050 PWINO FZRANO TSNO /;EQDQ01+000000PRSWM2
0164725386999992005010518514+44017-082800AUTO +0183KP58 V0200401N008219999999N9999999N1-00401-00901102721ADDAA106000091MA1102571999999MW1001REMMET085KP58 051851Z AUTO 04016KT M04/M09 A3029 RMK AO2 SLP272 T10441089 PWINO FZRANO TSNO /;EQDQ01+000000PRSWM2Q02  00002PRCP06
0115725386999992005010519514+44017-082800AUTO +0183KP58 V0200401N008212200019N9999999N1-00501-00901999999ADDMW1001REMMET078KP58 051951Z AUTO 04016KT M05/M09 RMK AO2 SLPNO T10501089 PWINO FZRANO TSNO /;EQDQ01+000000PRSWM2
0135725386999992005010520514+44017-082800AUTO +0183KP58 V0200401N008712200019N9999999N1-00501-00901102601ADDMA1102471999999MW1001REMMET083KP58 052051Z AUTO 04017KT M05/M09 A3026 RMK AO2 SLP260 T10501094 PWINO FZRANO TSNO;EQDQ01+000000PRSWM2
0153725386999992005010521514+44017-082800AUTO +0183KP58 V0200401N009819999999N9999999N1-00501-00901102461ADDMA1102301999999MW1001REMMET085KP58 052151Z AUTO 04019KT M05/M09 A3021 RMK AO2 SLP246 T10501089 PWINO FZRANO TSNO /;EQDQ01+000000PRSWM2Q02  00002PRCP06
0115725386999992005010522514+44017-082800AUTO +0183KP58 V0200401N009812200019N9999999N1-00501-00901999999ADDMW1001REMMET078KP58 052251Z AUTO 04019KT M05/M09 RMK AO2 SLPNO T10501089 PWINO FZRANO TSNO /;EQDQ01+000000PRSWM2
0175725386999992005010523514+44017-082800AUTO +0183KP58 V0200501N009319999999N9999999N1-00401-00901102361ADDKA1999M-00441KA2999N-00501MA1102201999999MW1001REMMET097KP58 052351Z AUTO 05018KT M04/M09 A3018 RMK AO2 SLP236 T10441089 11044 21050 PWINO FZRANO TSNO /;EQDQ01+000000PRSWM2
0164725386999992005010600514+44017-082800AUTO +0183KP58 V0200601N009319999999N9999999N1-00401-00901102301ADDAA106000091MA1102171999999MW1001REMMET085KP58 060051Z AUTO 06018KT M04/M09 A3017 RMK AO2 SLP230 T10441089 PWINO FZRANO TSNO /;EQDQ01+000000PRSWM2Q02  00002PRCP06
0137725386999992005010601514+44017-082800AUTO +0183KP58 V0200601N008712200019N9999999N1-00401-00801102261ADDMA1102131999999MW1001REMMET085KP58 060151Z AUTO 06017KT M04/M08 A3016 RMK AO2 SLP226 T10391083 PWINO FZRANO TSNO /;EQDQ01+000000PRSWM2
0157725386999992005010602514+44017-082800AUTO +0183KP58 V0200501N009312200019N9999999N1-00401-00801102171ADDMA1102031999999MD1810191+9999MW1001REMMET091KP58 060251Z AUTO 05018KT M04/M08 A3013 RMK AO2 SLP217 T10391083 58019 PWINO FZRANO TSNO /;EQDQ01+000000PRSWM2
0131725386999992005010603514+44017-082800AUTO +0183KP58 V0200601N008719999999N9999999N1-00401-00901999999ADDMW1001REMMET078KP58 060351Z AUTO 06017KT M04/M09 RMK AO2 SLPNO T10391094 PWINO FZRANO TSNO /;EQDQ01+000000PRSWM2Q02  00002PRCP06
0173725386999992005010604514+44017-082800AUTO +0183KP58 V0200601N008719999999N9999999N1-00301-00901101921ADDKA1999M-00111KA2999N-00501MA1101801999999MW1001REMMET095KP58 060451Z AUTO 06017KT M03/M09 A3006 RMK AO2 SLP192 T10331089 410111050 PWINO FZRANO TSNO /;EQDQ01+000000PRSWM2
0175725386999992005010605514+44017-082800AUTO +0183KP58 V0200701N009819999999N9999999N1-00301-01001101811ADDKA1999M-00331KA2999N-00441MA1101661999999MW1001REMMET097KP58 060551Z AUTO 07019KT M03/M10 A3002 RMK AO2 SLP181 T10331100 11033 21044 PWINO FZRANO TSNO /;EQDQ01+000000PRSWM2
0142725386999992005010606514+44017-082800AUTO +0183KP58 V0200701N008719999999N9999999N1-00301-01001999999ADDAA106000091MW1001REMMET078KP58 060651Z AUTO 07017KT M03/M10 RMK AO2 SLPNO T10331100 PWINO FZRANO TSNO /;EQDQ01+000000PRSWM2Q02  00002PRCP06
0115725386999992005010607514+44017-082800AUTO +0183KP58 V0200801N007712200019N9999999N1-00301-00901999999ADDMW1001REMMET078KP58 060751Z AUTO 08015KT M03/M09 RMK AO2 SLPNO T10331089 PWINO FZRANO TSNO /;EQDQ01+000000PRSWM2
0115725386999992005010608514+44017-082800AUTO +0183KP58 V0200801N008212200019N9999999N1-00301-00901999999ADDMW1001REMMET078KP58 060851Z AUTO 08016KT M03/M09 RMK AO2 SLPNO T10331094 PWINO FZRANO TSNO /;EQDQ01+000000PRSWM2
0131725386999992005010609514+44017-082800AUTO +0183KP58 V0200701N008219999999N9999999N1-00301-00901999999ADDMW1001REMMET078KP58 060951Z AUTO 07016KT M03/M09 RMK AO2 SLPNO T10331094 PWINO FZRANO TSNO /;EQDQ01+000000PRSWM2Q02  00002PRCP06
0115725386999992005010610514+44017-082800AUTO +0183KP58 V0200701N009312200019N9999999N1-00301-00801999999ADDMW1001REMMET078KP58 061051Z AUTO 07018KT M03/M08 RMK AO2 SLPNO T10331083 PWINO FZRANO TSNO /;EQDQ01+000000PRSWM2
0153725386999992005010611514+44017-082800AUTO +0183KP58 V0200801N009319999999N9999999N1-00301-00701999999ADDKA1999M-00331KA2999N-00331MW1001REMMET090KP58 061151Z AUTO 08018KT M03/M07 RMK AO2 SLPNO T10331067 11033 21033 PWINO FZRANO TSNO /;EQDQ01+000000PRSWM2
0196725386999992005010612514+44017-082800AUTO +0183KP58 V0200701N011319999999N9999999N1-00301-00601100671ADDAA106000091MA1100541999999MD1999999+0001MW1001REMMET103KP58 061251Z AUTO 07022KT M03/M06 A2969 RMK AO2 PK WND 07026/1247 SLP067 T10331056 PWINO FZRANO TSNO /;EQDQ01+000000PRSWM2Q02  00002PRCP06
0150725386999992005010613514+44017-082800AUTO +0183KP58 V0200601N009819999999N9999999N1-00301-00601999999ADDAA101000891MW1001REMMET102KP58 061351Z AUTO 06019KT M03/M06 RMK AO2 PK WND 07026/1259 SLPNO P0003 T10331056 PWINO FZRANO TSNO /;EQDQ01+000000PRSWM2
0149725386999992005010614514+44017-082800AUTO +0183KP58 V0200501N006219999999N9999999N1-00301-00501999999ADDAA101001591AA203002391MW1001REMMET090KP58 061451Z AUTO 05012KT M03/M05 RMK AO2 SLPNO P0006 60009 T10331050 PWINO FZRANO TSNO /;EQDQ01+000000PRSWM2
0148725386999992005010615514+44017-082800AUTO +0183KP58 V0200501N005719999999N9999999N1-00401-00501999999ADDAA101002591MW1001REMMET084KP58 061551Z AUTO 05011KT M04/M05 RMK AO2 SLPNO P0010 T10391050 PWINO FZRANO TSNO /;EQDQ01+000000PRSWM2Q02  00002PRCP06
0132725386999992005010616514+44017-082800AUTO +0183KP58 V0200601N005719999999N9999999N1-00301-00501999999ADDAA101002391MW1001REMMET084KP58 061651Z AUTO 06011KT M03/M05 RMK AO2 SLPNO P0009 T10331050 PWINO FZRANO TSNO /;EQDQ01+000000PRSWM2
0223725386999992005010617514+44017-082800AUTO +0183KP58 V0200401N003619999999N9999999N1-00301-00601100351ADDAA101000391AA206007491KA1999M-00281KA2999N-00391MA1100241999999MW1001REMMET107KP58 061751Z AUTO 04007KT M03/M06 A2960 RMK AO2 SLP035 P0001 60029 T10281056 11028 21039 PWINO FZRANO TSNO;EQDQ01+000000PRSWM2Q02  00748PRCP06
0157725386999992005010618514+44017-082800FM-16+0183KP58 V0200101N003119999999N9999999N1-00201-00501100331ADDMA1100201999999MW1001REMMET089SPECI KP58 061851Z AUTO 01006KT M02/M05 A2959 RMK AO2 SLP033 T10221050 PWINO FZRANO TSNO;EQDQ01+000000PRSWM2Q02  00002PRCP06
0148725386999992005010619514+44017-082800FM-16+0183KP58 V02099999999999999999N9999999N1+99999+99999100381ADDAA101000391MW1001REMMET100KP58 061951Z AUTO 33008G18KT 300V010 M02/M05 A2961 RMK AO2 SLP038 P0001 T10221050 PWINO FZRANO TSNO;EQDQ01+000000PRSWM2
0204725386999992005010620514+44017-082800AUTO +0183KP58 V0203301N003619999999N9999999N1-00301-00601100531ADDAA103000391MA1100411999999MD1310171+9999MW1001REMMET095KP58 062051Z AUTO 33007KT M03/M06 A2965 RMK AO2 SLP053 60001 T10281061 53017 PWINO FZRANO TSNO;EQDQ01+000000PRSWM2Q02  00002PRCP03Q03  00008PRCP03
0162725386999992005010621514+44017-082800AUTO +0183KP58 V0203101N007219999999N9999999N1-00401-00601100671ADDMA1100541999999MW1001OC101131REMMET086KP58 062151Z AUTO 31014G22KT M04/M06 A2969 RMK AO2 SLP067 T10391061 PWINO FZRANO TSNO;EQDQ01+000000PRSWM2Q02  00002PRCP06
0148725386999992005010622514+44017-082800AUTO +0183KP58 V0203001N006712200019N9999999N1-00501-00801100841ADDMA1100711999999MW1001OC101181REMMET088KP58 062251Z AUTO 30013G23KT M05/M08 A2974 RMK AO2 SLP084 T10501078 PWINO FZRANO TSNO /;EQDQ01+000000PRSWM2
0187725386999992005010623514+44017-082800FM-16+0183KP58 V0202901N004619999999N9999999N1-00601-00901999999ADDAA106000391KA1999M-00221KA2999N-00561MW1001OC100771REMMET105SPECI KP58 062351Z AUTO 29009G15KT M06/M09 RMK AO2 SLPNO 60001 T10561094 11022 21056 PWINO FZRANO TSNO /;EQDQ01+000000PRSWM2
0169725386999992005010700514+44017-082800AUTO +0183KP58 V0202801N004119999999N9999999N1-00601-00901101151ADDMA1101021999999MW1001REMMET085KP58 070051Z AUTO 28008KT M06/M09 A2983 RMK AO2 SLP115 T10561094 PWINO FZRANO TSNO /;EQDQ01+000000PRSWM2Q02  00002PRCP06Q03  00002PRCP06
0115725386999992005010701514+44017-082800AUTO +0183KP58 V0202801N003612200019N9999999N1-00601-01001999999ADDMW1001REMMET078KP58 070151Z AUTO 28007KT M06/M10 RMK AO2 SLPNO T10611100 PWINO FZRANO TSNO /;EQDQ01+000000PRSWM2
0137725386999992005010702514+44017-082800AUTO +0183KP58 V0202901N004612200019N9999999N1-00601-01001101421ADDMA1101291999999MW1001REMMET085KP58 070251Z AUTO 29009KT M06/M10 A2991 RMK AO2 SLP142 T10611100 PWINO FZRANO TSNO /;EQDQ01+000000PRSWM2
0146725386999992005010703514+44017-082800FM-16+0183KP58 V02099999999999999999N9999999N1+99999+99999101531ADDMW1001REMMET093KP58 070351Z AUTO 29008KT 250V310 M06/M10 A2994 RMK AO2 SLP153 T10611100 PWINO FZRANO TSNO /;EQDQ01+000000PRSWM2Q02  00002PRCP06
0173725386999992005010704514+44017-082800AUTO +0183KP58 V0202601N003619999999N9999999N1-00601-00901101671ADDKA1999M-00221KA2999N-00671MA1101521999999MW1001REMMET095KP58 070451Z AUTO 26007KT M06/M09 A2998 RMK AO2 SLP167 T10611094 410221067 PWINO FZRANO TSNO /;EQDQ01+000000PRSWM2
0195725386999992005010705514+44017-082800AUTO +0183KP58 V0202301N004119999999N9999999N1-00801-01101101751ADDKA1999M-00561KA2999N-00831MA1101591999999MD1110311+9999MW1001REMMET103KP58 070551Z AUTO 23008KT M08/M11 A3000 RMK AO2 SLP175 T10831111 11056 21083 51031 PWINO FZRANO TSNO /;EQDQ01+000000PRSWM2
0164725386999992005010706514+44017-082800AUTO +0183KP58 V0202301N003119999999N9999999N1-00901-01201101801ADDAA106000091MA1101661999999MW1001REMMET085KP58 070651Z AUTO 23006KT M09/M12 A3002 RMK AO2 SLP180 T10891117 PWINO FZRANO TSNO /;EQDQ01+000000PRSWM2Q02  00002PRCP06
0115725386999992005010707514+44017-082800AUTO +0183KP58 V0202301N004112200019N9999999N1-00801-01101999999ADDMW1001REMMET078KP58 070751Z AUTO 23008KT M08/M11 RMK AO2 SLPNO T10781111 PWINO FZRANO TSNO /;EQDQ01+000000PRSWM2
0137725386999992005010708514+44017-082800AUTO +0183KP58 V0202301N003612200019N9999999N1-00801-01101102051ADDMA1101901999999MW1001REMMET085KP58 070851Z AUTO 23007KT M08/M11 A3009 RMK AO2 SLP205 T10831111 PWINO FZRANO TSNO /;EQDQ01+000000PRSWM2
0153725386999992005010709514+44017-082800AUTO +0183KP58 V0202101N002619999999N9999999N1-00801-01101102071ADDMA1101931999999MW1001REMMET085KP58 070951Z AUTO 21005KT M08/M11 A3010 RMK AO2 SLP207 T10781106 PWINO FZRANO TSNO /;EQDQ01+000000PRSWM2Q02  00002PRCP06
0137725386999992005010710514+44017-082800AUTO +0183KP58 V0202101N002112200019N9999999N1-00701-01101102131ADDMA1101961999999MW1001REMMET085KP58 071051Z AUTO 21004KT M07/M11 A3011 RMK AO2 SLP213 T10721106 PWINO FZRANO TSNO /;EQDQ01+000000PRSWM2
0228725386999992005010711514+44017-082800AUTO +0183KP58 V0209999V002619999999N9999999N1-00701-01001102241ADDAA124007691KA1999M-00721KA2999N-00941MA1102071999999MD1310181+9999MW1001REMMET109KP58 071151Z AUTO VRB05KT M07/M10 A3014 RMK AO2 SLP224 70030 T10721100 11072 21094 53018 PWINO FZRANO TSNO /;EQDQ01+000000PRSWM2Q02  00768PRCP24
0156725386999992005010712514+44017-082800AUTO +0183KP58 V0209999V002119999999N9999999N1-00701-00901999999ADDAA106000091MD1999999+0001MW1001REMMET078KP58 071251Z AUTO VRB04KT M07/M09 RMK AO2 SLPNO T10671094 PWINO FZRANO TSNO /;EQDQ01+000000PRSWM2Q02  00002PRCP06
0115725386999992005010713514+44017-082800AUTO +0183KP58 V0201901N002112200019N9999999N1-00601-00801999999ADDMW1001REMMET078KP58 071351Z AUTO 19004KT M06/M08 RMK AO2 SLPNO T10561083 PWINO FZRANO TSNO /;EQDQ01+000000PRSWM2
0115725386999992005010714514+44017-082800AUTO +0183KP58 V0202001N003612200019N9999999N1-00401-00801999999ADDMW1001REMMET078KP58 071451Z AUTO 20007KT M04/M08 RMK AO2 SLPNO T10441078 PWINO FZRANO TSNO /;EQDQ01+000000PRSWM2
0137725386999992005010716514+44017-082800AUTO +0183KP58 V0202301N004112200019N9999999N1-00201-00701102401ADDMA1102241999999MW1001REMMET085KP58 071651Z AUTO 23008KT M02/M07 A3019 RMK AO2 SLP240 T10221067 PWINO FZRANO TSNO /;EQDQ01+000000PRSWM2
0175725386999992005010717514+44017-082800AUTO +0183KP58 V0202201N004119999999N9999999N1-00201-00701102341ADDKA1999M-00221KA2999N-00721MA1102171999999MW1001REMMET097KP58 071751Z AUTO 22008KT M02/M07 A3017 RMK AO2 SLP234 T10221072 11022 21072 PWINO FZRANO TSNO /;EQDQ01+000000PRSWM2
0164725386999992005010718514+44017-082800AUTO +0183KP58 V0202401N003119999999N9999999N1-00301-00701102301ADDAA106000091MA1102131999999MW1001REMMET085KP58 071851Z AUTO 24006KT M03/M07 A3016 RMK AO2 SLP230 T10331072 PWINO FZRANO TSNO /;EQDQ01+000000PRSWM2Q02  00002PRCP06
0143725386999992005010719514+44017-082800FM-16+0183KP58 V0209999V002612200019N9999999N1-00301-00801102271ADDMA1102101999999MW1001REMMET091SPECI KP58 071951Z AUTO VRB05KT M03/M08 A3015 RMK AO2 SLP227 T10331083 PWINO FZRANO TSNO /;EQDQ01+000000PRSWM2
0157725386999992005010720514+44017-082800AUTO +0183KP58 V0202401N003112200019N9999999N1-00401-00901102301ADDMA1102131999999MD1510041+9999MW1001REMMET091KP58 072051Z AUTO 24006KT M04/M09 A3016 RMK AO2 SLP230 T10391089 55004 PWINO FZRANO TSNO /;EQDQ01+000000PRSWM2
0153725386999992005010721514+44017-082800AUTO +0183KP58 V0202201N002619999999N9999999N1-00501-00901102351ADDMA1102201999999MW1001REMMET085KP58 072151Z AUTO 22005KT M05/M09 A3018 RMK AO2 SLP235 T10501089 PWINO FZRANO TSNO /;EQDQ01+000000PRSWM2Q02  00002PRCP06
0115725386999992005010722514+44017-082800AUTO +0183KP58 V0202201N001512200019N9999999N1-00601-01001999999ADDMW1001REMMET078KP58 072251Z AUTO 22003KT M06/M10 RMK AO2 SLPNO T10611100 PWINO FZRANO TSNO /;EQDQ01+000000PRSWM2
0175725386999992005010723514+44017-082800AUTO +0183KP58 V0202401N001519999999N9999999N1-00701-01101102401ADDKA1999M-00221KA2999N-00671MA1102241999999MW1001REMMET097KP58 072351Z AUTO 24003KT M07/M11 A3019 RMK AO2 SLP240 T10671106 11022 21067 PWINO FZRANO TSNO /;EQDQ01+000000PRSWM2
0142725386999992005010800514+44017-082800AUTO +0183KP58 V0209999C000019999999N9999999N1-00701-01101999999ADDAA106000091MW1001REMMET078KP58 080051Z AUTO 00000KT M07/M11 RMK AO2 SLPNO T10721106 PWINO FZRANO TSNO /;EQDQ01+000000PRSWM2Q02  00002PRCP06
0137725386999992005010801514+44017-082800AUTO +0183KP58 V0209999C000012200019N9999999N1-01001-01201102331ADDMA1102171999999MW1001REMMET085KP58 080151Z AUTO 00000KT M10/M12 A3017 RMK AO2 SLP233 T11001122 PWINO FZRANO TSNO /;EQDQ01+000000PRSWM2
0115725386999992005010802514+44017-082800AUTO +0183KP58 V0209999C000012200019N9999999N1-00901-01201999999ADDMW1001REMMET078KP58 080251Z AUTO 00000KT M09/M12 RMK AO2 SLPNO T10941117 PWINO FZRANO TSNO /;EQDQ01+000000PRSWM2
0153725386999992005010803514+44017-082800AUTO +0183KP58 V0209999C000019999999N9999999N1-01101-01301102271ADDMA1102101999999MW1001REMMET085KP58 080351Z AUTO 00000KT M11/M13 A3015 RMK AO2 SLP227 T11111128 PWINO FZRANO TSNO /;EQDQ01+000000PRSWM2Q02  00002PRCP06
0151725386999992005010804514+44017-082800AUTO +0183KP58 V0209999C000019999999N9999999N1-01101-01201999999ADDKA1999M-00221KA2999N-01171MW1001REMMET088KP58 080451Z AUTO 00000KT M11/M12 RMK AO2 SLPNO T11061122 410221117 PWINO FZRANO TSNO /;EQDQ01+000000PRSWM2
0175725386999992005010805514+44017-082800AUTO +0183KP58 V0209999C000019999999N9999999N1-00801-01001102241ADDKA1999M-00671KA2999N-01171MA1102101999999MW1001REMMET097KP58 080551Z AUTO 00000KT M08/M10 A3015 RMK AO2 SLP224 T10781100 11067 21117 PWINO FZRANO TSNO /;EQDQ01+000000PRSWM2
0164725386999992005010806514+44017-082800AUTO +0183KP58 V0202401N001519999999N9999999N1-00701-00901102221ADDAA106000091MA1102071999999MW1001REMMET085KP58 080651Z AUTO 24003KT M07/M09 A3014 RMK AO2 SLP222 T10721094 PWINO FZRANO TSNO /;EQDQ01+000000PRSWM2Q02  00002PRCP06
0137725386999992005010807514+44017-082800FM-16+0183KP58 V0202401N001512200019N9999999N1-00701-00801102191ADDMA1102031999999MW1001REMMET085KP58 080751Z AUTO 24003KT M07/M08 A3013 RMK AO2 SLP219 T10671083 PWINO FZRANO TSNO /;EQDQ01+000000PRSWM2
0157725386999992005010808514+44017-082800AUTO +0183KP58 V0202501N001512200019N9999999N1-00601-00801102111ADDMA1101961999999MD1810121+9999MW1001REMMET091KP58 080851Z AUTO 25003KT M06/M08 A3011 RMK AO2 SLP211 T10561078 58012 PWINO FZRANO TSNO /;EQDQ01+000000PRSWM2
0153725386999992005010809514+44017-082800AUTO +0183KP58 V0202301N001519999999N9999999N1-00601-00801102041ADDMA1101901999999MW1001REMMET085KP58 080951Z AUTO 23003KT M06/M08 A3009 RMK AO2 SLP204 T10561078 PWINO FZRANO TSNO /;EQDQ01+000000PRSWM2Q02  00002PRCP06
0137725386999992005010810514+44017-082800AUTO +0183KP58 V0200101N002612200019N9999999N1-00401-00701102051ADDMA1101901999999MW1001REMMET085KP58 081051Z AUTO 01005KT M04/M07 A3009 RMK AO2 SLP205 T10391072 PWINO FZRANO TSNO /;EQDQ01+000000PRSWM2
0195725386999992005010811514+44017-082800AUTO +0183KP58 V0202601N001519999999N9999999N1-00601-00801102091ADDKA1999M-00281KA2999N-00831MA1101931999999MD1510041+9999MW1001REMMET103KP58 081151Z AUTO 26003KT M06/M08 A3010 RMK AO2 SLP209 T10561078 11028 21083 55004 PWINO FZRANO TSNO /;EQDQ01+000000PRSWM2
0178725386999992005010812514+44017-082800AUTO +0183KP58 V0202401N002119999999N9999999N1-00501-00701102181ADDAA106000091MA1102001999999MD1999999+0001MW1001REMMET085KP58 081251Z AUTO 24004KT M05/M07 A3012 RMK AO2 SLP218 T10501072 PWINO FZRANO TSNO /;EQDQ01+000000PRSWM2Q02  00002PRCP06
0137725386999992005010813514+44017-082800AUTO +0183KP58 V0202701N001512200019N9999999N1-00401-00701102241ADDMA1102071999999MW1001REMMET085KP58 081351Z AUTO 27003KT M04/M07 A3014 RMK AO2 SLP224 T10391067 PWINO FZRANO TSNO /;EQDQ01+000000PRSWM2
0157725386999992005010814514+44017-082800AUTO +0183KP58 V0202501N002612200019N9999999N1-00301-00601102391ADDMA1102241999999MD1310301+9999MW1001REMMET091KP58 081451Z AUTO 25005KT M03/M06 A3019 RMK AO2 SLP239 T10281061 53030 PWINO FZRANO TSNO /;EQDQ01+000000PRSWM2
0153725386999992005010815514+44017-082800AUTO +0183KP58 V0202401N002119999999N9999999N1-00301-00601102521ADDMA1102371999999MW1001REMMET085KP58 081551Z AUTO 24004KT M03/M06 A3023 RMK AO2 SLP252 T10281056 PWINO FZRANO TSNO /;EQDQ01+000000PRSWM2Q02  00002PRCP06
0137725386999992005010816514+44017-082800AUTO +0183KP58 V0202301N002112200019N9999999N1-00301-00601102541ADDMA1102371999999MW1001REMMET085KP58 081651Z AUTO 23004KT M03/M06 A3023 RMK AO2 SLP254 T10281056 PWINO FZRANO TSNO /;EQDQ01+000000PRSWM2
0195725386999992005010817514+44017-082800AUTO +0183KP58 V0202301N002119999999N9999999N1-00201-00601102521ADDKA1999M-00221KA2999N-00561MA1102371999999MD1010141+9999MW1001REMMET103KP58 081751Z AUTO 23004KT M02/M06 A3023 RMK AO2 SLP252 T10221056 11022 21056 50014 PWINO FZRANO TSNO /;EQDQ01+000000PRSWM2
0164725386999992005010818514+44017-082800AUTO +0183KP58 V0202601N002119999999N9999999N1-00201-00401102521ADDAA106000091MA1102371999999MW1001REMMET085KP58 081851Z AUTO 26004KT M02/M04 A3023 RMK AO2 SLP252 T10171044 PWINO FZRANO TSNO /;EQDQ01+000000PRSWM2Q02  00002PRCP06
0130725386999992005010819514+44017-082800FM-16+0183KP58 V02099999999992200019N9999999N1+99999+99999102651ADDMW1001REMMET093KP58 081951Z AUTO 26007KT 210V280 M02/M05 A3027 RMK AO2 SLP265 T10171050 PWINO FZRANO TSNO /;EQDQ01+000000PRSWM2
0157725386999992005010820514+44017-082800AUTO +0183KP58 V0209999V002112200019N9999999N1-00201-00601102721ADDMA1102571999999MD1310221+9999MW1001REMMET091KP58 082051Z AUTO VRB04KT M02/M06 A3029 RMK AO2 SLP272 T10171056 53022 PWINO FZRANO TSNO /;EQDQ01+000000PRSWM2
0153725386999992005010821514+44017-082800AUTO +0183KP58 V0202701N004119999999N9999999N1-00201-00601102871ADDMA1102711999999MW1001REMMET085KP58 082151Z AUTO 27008KT M02/M06 A3033 RMK AO2 SLP287 T10221056 PWINO FZRANO TSNO /;EQDQ01+000000PRSWM2Q02  00002PRCP06
0137725386999992005010822514+44017-082800AUTO +0183KP58 V0209999V002112200019N9999999N1-00301-00601102921ADDMA1102781999999MW1001REMMET085KP58 082251Z AUTO VRB04KT M03/M06 A3035 RMK AO2 SLP292 T10281056 PWINO FZRANO TSNO /;EQDQ01+000000PRSWM2
0195725386999992005010823514+44017-082800AUTO +0183KP58 V0202301N002119999999N9999999N1-00301-00601102891ADDKA1999M-00171KA2999N-00331MA1102741999999MD1010161+9999MW1001REMMET103KP58 082351Z AUTO 23004KT M03/M06 A3034 RMK AO2 SLP289 T10331061 11017 21033 50016 PWINO FZRANO TSNO /;EQDQ01+000000PRSWM2
0164725386999992005010900514+44020-082800AUTO +0183KP58 V0209999C000019999999N9999999N1-00301-00701102911ADDAA106000091MA1102741999999MW1001REMMET085KP58 090051Z AUTO 00000KT M03/M07 A3034 RMK AO2 SLP291 T10281067 PWINO FZRANO TSNO /;EQDQ01+000000PRSWM2Q02  00002PRCP06
0137725386999992005010901514+44020-082800AUTO +0183KP58 V0202301N002112200019N9999999N1-00401-00701102951ADDMA1102811999999MW1001REMMET085KP58 090151Z AUTO 23004KT M04/M07 A3036 RMK AO2 SLP295 T10441072 PWINO FZRANO TSNO /;EQDQ01+000000PRSWM2
0157725386999992005010902514+44020-082800AUTO +0183KP58 V0209999C000012200019N9999999N1-00501-00801102941ADDMA1102781999999MD1010051+9999MW1001REMMET091KP58 090251Z AUTO 00000KT M05/M08 A3035 RMK AO2 SLP294 T10501078 50005 PWINO FZRANO TSNO /;EQDQ01+000000PRSWM2
0153725386999992005010903514+44020-082800AUTO +0183KP58 V0209999C000019999999N9999999N1-00401-00701102891ADDMA1102741999999MW1001REMMET085KP58 090351Z AUTO 00000KT M04/M07 A3034 RMK AO2 SLP289 T10441072 PWINO FZRANO TSNO /;EQDQ01+000000PRSWM2Q02  00002PRCP06
0173725386999992005010904514+44020-082800AUTO +0183KP58 V0209999C000019999999N9999999N1-00401-00701102921ADDKA1999M-00171KA2999N-01001MA1102781999999MW1001REMMET095KP58 090451Z AUTO 00000KT M04/M07 A3035 RMK AO2 SLP292 T10391067 410171100 PWINO FZRANO TSNO /;EQDQ01+000000PRSWM2
0195725386999992005010905514+44020-082800AUTO +0183KP58 V0209999C000019999999N9999999N1-00301-00701102891ADDKA1999M-00281KA2999N-00501MA1102741999999MD1710041+9999MW1001REMMET103KP58 090551Z AUTO 00000KT M03/M07 A3034 RMK AO2 SLP289 T10331067 11028 21050 57004 PWINO FZRANO TSNO /;EQDQ01+000000PRSWM2
0164725386999992005010906514+44020-082800AUTO +0183KP58 V0201601N001519999999N9999999N1-00301-00701102831ADDAA106000091MA1102711999999MW1001REMMET085KP58 090651Z AUTO 16003KT M03/M07 A3033 RMK AO2 SLP283 T10331067 PWINO FZRANO TSNO /;EQDQ01+000000PRSWM2Q02  00002PRCP06
0137725386999992005010907514+44020-082800AUTO +0183KP58 V0209999V002112200019N9999999N1-00301-00601102861ADDMA1102741999999MW1001REMMET085KP58 090751Z AUTO VRB04KT M03/M06 A3034 RMK AO2 SLP286 T10281056 PWINO FZRANO TSNO /;EQDQ01+000000PRSWM2
0157725386999992005010908514+44020-082800AUTO +0183KP58 V0201601N002612200019N9999999N1-00301-00401102771ADDMA1102641999999MD1810111+9999MW1001REMMET091KP58 090851Z AUTO 16005KT M03/M04 A3031 RMK AO2 SLP277 T10281044 58011 PWINO FZRANO TSNO /;EQDQ01+000000PRSWM2
0153725386999992005010909514+44020-082800AUTO +0183KP58 V0201701N002619999999N9999999N1-00301-00501102681ADDMA1102541999999MW1001REMMET085KP58 090951Z AUTO 17005KT M03/M05 A3028 RMK AO2 SLP268 T10281050 PWINO FZRANO TSNO /;EQDQ01+000000PRSWM2Q02  00002PRCP06
0137725386999992005010910514+44020-082800AUTO +0183KP58 V0209999V002612200019N9999999N1-00301-00601102661ADDMA1102511999999MW1001REMMET085KP58 091051Z AUTO VRB05KT M03/M06 A3027 RMK AO2 SLP266 T10281056 PWINO FZRANO TSNO /;EQDQ01+000000PRSWM2
0195725386999992005010911514+44020-082800AUTO +0183KP58 V0209999V002119999999N9999999N1-00201-00601102691ADDKA1999M-00221KA2999N-00331MA1102541999999MD1510081+9999MW1001REMMET103KP58 091151Z AUTO VRB04KT M02/M06 A3028 RMK AO2 SLP269 T10221056 11022 21033 55008 PWINO FZRANO TSNO /;EQDQ01+000000PRSWM2
0178725386999992005010912514+44020-082800AUTO +0183KP58 V0209999V002119999999N9999999N1-00201-00501102641ADDAA106000091MA1102511999999MD1999999+0001MW1001REMMET085KP58 091251Z AUTO VRB04KT M02/M05 A3027 RMK AO2 SLP264 T10221050 PWINO FZRANO TSNO /;EQDQ01+000000PRSWM2Q02  00002PRCP06
0137725386999992005010913514+44020-082800AUTO +0183KP58 V0209999V002612200019N9999999N1-00201-00501102611ADDMA1102471999999MW1001REMMET085KP58 091351Z AUTO VRB05KT M02/M05 A3026 RMK AO2 SLP261 T10171050 PWINO FZRANO TSNO /;EQDQ01+000000PRSWM2
0157725386999992005010914514+44020-082800AUTO +0183KP58 V0209999V002112200019N9999999N1-00201-00401102591ADDMA1102441999999MD1610101+9999MW1001REMMET091KP58 091451Z AUTO VRB04KT M02/M04 A3025 RMK AO2 SLP259 T10171044 56010 PWINO FZRANO TSNO /;EQDQ01+000000PRSWM2
0153725386999992005010915514+44020-082800AUTO +0183KP58 V0209999V002119999999N9999999N1-00101-00401102521ADDMA1102371999999MW1001REMMET085KP58 091551Z AUTO VRB04KT M01/M04 A3023 RMK AO2 SLP252 T10111039 PWINO FZRANO TSNO /;EQDQ01+000000PRSWM2Q02  00002PRCP06
0137725386999992005010916514+44020-082800AUTO +0183KP58 V0201701N003112200019N9999999N1-00101-00401102351ADDMA1102241999999MW1001REMMET085KP58 091651Z AUTO 17006KT M01/M04 A3019 RMK AO2 SLP235 T10061039 PWINO FZRANO TSNO /;EQDQ01+000000PRSWM2
0188725386999992005010917514+44020-082800FM-16+0183KP58 V02099999999999999999N9999999N1+99999+99999102251ADDKA1999M-00061KA2999N-00221MD1810321+9999MW1001REMMET111KP58 091751Z AUTO 19007KT 160V230 M01/M04 A3016 RMK AO2 SLP225 T10061044 11006 21022 58032 PWINO FZRANO TSNO /;EQDQ01+000000PRSWM2
0164725386999992005010918514+44020-082800AUTO +0183KP58 V0209999V002619999999N9999999N1-00101-00401102181ADDAA106000091MA1102071999999MW1001REMMET085KP58 091851Z AUTO VRB05KT M01/M04 A3014 RMK AO2 SLP218 T10061044 PWINO FZRANO TSNO /;EQDQ01+000000PRSWM2Q02  00002PRCP06
0143725386999992005010919514+44020-082800FM-16+0183KP58 V0209999V002612200019N9999999N1-00101-00401102041ADDMA1101901999999MW1001REMMET091SPECI KP58 091951Z AUTO VRB05KT M01/M04 A3009 RMK AO2 SLP204 T10061044 PWINO FZRANO TSNO /;EQDQ01+000000PRSWM2
0164725386999992005010920514+44020-082800AUTO +0183KP58 V0209999V003112200019N9999999N1-00101-00501101961ADDMA1101831999999MD1810281+9999MW1001REMMET098KP58 092051Z AUTO VRB06KT M01/M05 A3007 RMK AO2 PRESFR SLP196 T10061050 58028 PWINO FZRANO TSNO /;EQDQ01+000000PRSWM2
0153725386999992005010921514+44020-082800AUTO +0183KP58 V0209999V002119999999N9999999N1-00101-00501101881ADDMA1101761999999MW1001REMMET085KP58 092151Z AUTO VRB04KT M01/M05 A3005 RMK AO2 SLP188 T10061050 PWINO FZRANO TSNO /;EQDQ01+000000PRSWM2Q02  00002PRCP06
0137725386999992005010922514+44020-082800AUTO +0183KP58 V0209999C000012200019N9999999N1-00101-00401101811ADDMA1101691999999MW1001REMMET085KP58 092251Z AUTO 00000KT M01/M04 A3003 RMK AO2 SLP181 T10061044 PWINO FZRANO TSNO /;EQDQ01+000000PRSWM2
0195725386999992005010923514+44020-082800AUTO +0183KP58 V0201601N001519999999N9999999N1-00101-00401101681ADDKA1999M-00061KA2999N-00111MA1101561999999MD1810271+9999MW1001REMMET103KP58 092351Z AUTO 16003KT M01/M04 A2999 RMK AO2 SLP168 T10061039 11006 21011 58027 PWINO FZRANO TSNO /;EQDQ01+000000PRSWM2
0163725386999992005011000514+44017-082800AUTO +0183KP58 V0209999C000019999999N9999999N1+00001-00401101571ADDAA106000091MA1101461999999MW1001REMMET084KP58 100051Z AUTO 00000KT 00/M04 A2996 RMK AO2 SLP157 T00001039 PWINO FZRANO TSNO /;EQDQ01+000000PRSWM2Q02  00002PRCP06
0136725386999992005011001514+44017-082800AUTO +0183KP58 V0209999V001512200019N9999999N1+00001-00301101541ADDMA1101421999999MW1001REMMET084KP58 100151Z AUTO VRB03KT 00/M03 A2995 RMK AO2 SLP154 T00001033 PWINO FZRANO TSNO /;EQDQ01+000000PRSWM2
0156725386999992005011002514+44017-082800AUTO +0183KP58 V0202001N001512200019N9999999N1+00001-00301101481ADDMA1101351999999MD1610201+9999MW1001REMMET090KP58 100251Z AUTO 20003KT 00/M03 A2993 RMK AO2 SLP148 T00001033 56020 PWINO FZRANO TSNO /;EQDQ01+000000PRSWM2
0169725386999992005011003514+44017-082800AUTO +0183KP58 V0209999V001519999999N9999999N1+00001-00201101381ADDAA101000391MA1101251999999MW1001REMMET090KP58 100351Z AUTO VRB03KT 00/M02 A2990 RMK AO2 SLP138 P0001 T00001022 PWINO FZRANO TSNO /;EQDQ01+000000PRSWM2Q02  00002PRCP06
0172725386999992005011004514+44017-082800AUTO +0183KP58 V0209999V003119999999N9999999N1+00001-00201101251ADDKA1999M+00001KA2999N-00441MA1101151999999MW1001REMMET094KP58 100451Z AUTO VRB06KT 00/M02 A2987 RMK AO2 SLP125 T00001017 400001044 PWINO FZRANO TSNO /;EQDQ01+000000PRSWM2
0227725386999992005011005514+44017-082800AUTO +0183KP58 V0209999V003119999999N9999999N1+00001-00201101191ADDAA106000391KA1999M+00001KA2999N-00111MA1101081999999MD1610271+9999MW1001REMMET108KP58 100551Z AUTO VRB06KT 00/M02 A2985 RMK AO2 SLP119 60001 T00001022 10000 21011 56027 PWINO FZRANO TSNO /;EQDQ01+000000PRSWM2Q02  00038PRCP06
0148725386999992005011006514+44017-082800FM-16+0183KP58 V02099999999999999999N9999999N1+99999+99999101201ADDMW1001REMMET095KP58 100651Z AUTO 24008G14KT 210V290 01/M02 A2986 RMK AO2 SLP120 T00061017 PWINO FZRANO TSNO /;EQDQ01+000000PRSWM2Q02  00002PRCP06
0147725386999992005011007514+44017-082800AUTO +0183KP58 V0202801N004612200019N9999999N1+00101-00201101321ADDMA1101221999999MW1001OC100931REMMET087KP58 100751Z AUTO 28009G18KT 01/M02 A2989 RMK AO2 SLP132 T00061017 PWINO FZRANO TSNO /;EQDQ01+000000PRSWM2
0167725386999992005011008514+44017-082800AUTO +0183KP58 V0202901N006712200019N9999999N1+00101-00401101451ADDMA1101351999999MD1310251+9999MW1001OC101031REMMET093KP58 100851Z AUTO 29013G20KT 01/M04 A2993 RMK AO2 SLP145 T00061039 53025 PWINO FZRANO TSNO /;EQDQ01+000000PRSWM2
0163725386999992005011009514+44017-082800AUTO +0183KP58 V0202901N005119999999N9999999N1+00001-00601101541ADDMA1101461999999MW1001OC100871REMMET087KP58 100951Z AUTO 29010G17KT 00/M06 A2996 RMK AO2 SLP154 T00001056 PWINO FZRANO TSNO /;EQDQ01+000000PRSWM2Q02  00002PRCP06
0148725386999992005011010514+44017-082800AUTO +0183KP58 V0202901N005712200019N9999999N1-00101-00601101691ADDMA1101561999999MW1001OC100871REMMET088KP58 101051Z AUTO 29011G17KT M01/M06 A2999 RMK AO2 SLP169 T10061061 PWINO FZRANO TSNO /;EQDQ01+000000PRSWM2
0239725386999992005011011514+44017-082800AUTO +0183KP58 V0202901N005719999999N9999999N1-00201-00701101791ADDAA124000391KA1999M+00061KA2999N-00171MA1101691999999MD1310321+9999MW1001OC100931REMMET112KP58 101151Z AUTO 29011G18KT M02/M07 A3003 RMK AO2 SLP179 70001 T10171067 10006 21017 53032 PWINO FZRANO TSNO /;EQDQ01+000000PRSWM2Q02  00038PRCP24
0178725386999992005011012514+44017-082800AUTO +0183KP58 V0202901N003619999999N9999999N1-00101-00701101871ADDAA106000091MA1101761999999MD1999999+0001MW1001REMMET085KP58 101251Z AUTO 29007KT M01/M07 A3005 RMK AO2 SLP187 T10111067 PWINO FZRANO TSNO /;EQDQ01+000000PRSWM2Q02  00002PRCP06
0148725386999992005011013514+44017-082800AUTO +0183KP58 V0202801N004612200019N9999999N1-00201-00701101961ADDMA1101861999999MW1001OC100721REMMET088KP58 101351Z AUTO 28009G14KT M02/M07 A3008 RMK AO2 SLP196 T10171067 PWINO FZRANO TSNO /;EQDQ01+000000PRSWM2
0168725386999992005011014514+44017-082800AUTO +0183KP58 V0202801N006712200019N9999999N1-00101-00701102081ADDMA1101961999999MD1310281+9999MW1001OC100871REMMET094KP58 101451Z AUTO 28013G17KT M01/M07 A3011 RMK AO2 SLP208 T10111072 53028 PWINO FZRANO TSNO /;EQDQ01+000000PRSWM2
0153725386999992005011015514+44017-082800AUTO +0183KP58 V0202601N004119999999N9999999N1-00101-00701102141ADDMA1102031999999MW1001REMMET085KP58 101551Z AUTO 26008KT M01/M07 A3013 RMK AO2 SLP214 T10111067 PWINO FZRANO TSNO /;EQDQ01+000000PRSWM2Q02  00002PRCP06
0148725386999992005011016514+44017-082800AUTO +0183KP58 V0202601N004612200019N9999999N1-00101-00701102171ADDMA1102071999999MW1001OC101031REMMET088KP58 101651Z AUTO 26009G20KT M01/M07 A3014 RMK AO2 SLP217 T10061067 PWINO FZRANO TSNO /;EQDQ01+000000PRSWM2
0206725386999992005011017514+44017-082800AUTO +0183KP58 V0202701N006219999999N9999999N1-00101-00601102141ADDKA1999M-00061KA2999N-00171MA1102031999999MD1010081+9999MW1001OC100871REMMET106KP58 101751Z AUTO 27012G17KT M01/M06 A3013 RMK AO2 SLP214 T10061061 11006 21017 50008 PWINO FZRANO TSNO /;EQDQ01+000000PRSWM2
0149725386999992005011018514+44017-082800FM-16+0183KP58 V02099999999999999999N9999999N1+99999+99999102141ADDMW1001REMMET096KP58 101851Z AUTO 27010G16KT 240V310 M01/M06 A3013 RMK AO2 SLP214 T10061061 PWINO FZRANO TSNO /;EQDQ01+000000PRSWM2Q02  00002PRCP06
0136725386999992005011019514+44017-082800AUTO +0183KP58 V0202901N004112200019N9999999N1+00001-00601102161ADDMA1102071999999MW1001REMMET084KP58 101951Z AUTO 29008KT 00/M06 A3014 RMK AO2 SLP216 T00001056 PWINO FZRANO TSNO /;EQDQ01+000000PRSWM2
0157725386999992005011020514+44017-082800AUTO +0183KP58 V0202801N004112200019N9999999N1-00101-00601102251ADDMA1102131999999MD1310101+9999MW1001REMMET091KP58 102051Z AUTO 28008KT M01/M06 A3016 RMK AO2 SLP225 T10061061 53010 PWINO FZRANO TSNO /;EQDQ01+000000PRSWM2
0159725386999992005011021514+44017-082800FM-16+0183KP58 V0202901N004119999999N9999999N1-00101-00701102291ADDMA1102171999999MW1001REMMET091SPECI KP58 102151Z AUTO 29008KT M01/M07 A3017 RMK AO2 SLP229 T10111067 PWINO FZRANO TSNO /;EQDQ01+000000PRSWM2Q02  00002PRCP06
0137725386999992005011022514+44017-082800AUTO +0183KP58 V0202901N002612200019N9999999N1-00201-00701102311ADDMA1102201999999MW1001REMMET085KP58 102251Z AUTO 29005KT M02/M07 A3018 RMK AO2 SLP231 T10171067 PWINO FZRANO TSNO /;EQDQ01+000000PRSWM2
0195725386999992005011023514+44017-082800AUTO +0183KP58 V0203101N003119999999N9999999N1-00201-00601102371ADDKA1999M+00061KA2999N-00221MA1102241999999MD1310091+9999MW1001REMMET103KP58 102351Z AUTO 31006KT M02/M06 A3019 RMK AO2 SLP237 T10171061 10006 21022 53009 PWINO FZRANO TSNO /;EQDQ01+000000PRSWM2
0164725386999992005011100514+44017-082800AUTO +0183KP58 V0203101N002119999999N9999999N1-00201-00701102361ADDAA106000091MA1102241999999MW1001REMMET085KP58 110051Z AUTO 31004KT M02/M07 A3019 RMK AO2 SLP236 T10171067 PWINO FZRANO TSNO /;EQDQ01+000000PRSWM2Q02  00002PRCP06
0137725386999992005011101514+44017-082800AUTO +0183KP58 V0203101N001512200019N9999999N1-00201-00701102441ADDMA1102301999999MW1001REMMET085KP58 110151Z AUTO 31003KT M02/M07 A3021 RMK AO2 SLP244 T10171067 PWINO FZRANO TSNO /;EQDQ01+000000PRSWM2
0157725386999992005011102514+44017-082800AUTO +0183KP58 V0200301N002612200019N9999999N1-00101-00701102421ADDMA1102301999999MD1010061+9999MW1001REMMET091KP58 110251Z AUTO 03005KT M01/M07 A3021 RMK AO2 SLP242 T10111072 50006 PWINO FZRANO TSNO /;EQDQ01+000000PRSWM2
0153725386999992005011103514+44017-082800AUTO +0183KP58 V0200201N003119999999N9999999N1-00101-00701102431ADDMA1102301999999MW1001REMMET085KP58 110351Z AUTO 02006KT M01/M07 A3021 RMK AO2 SLP243 T10111067 PWINO FZRANO TSNO /;EQDQ01+000000PRSWM2Q02  00002PRCP06
0173725386999992005011104514+44017-082800AUTO +0183KP58 V0200401N001519999999N9999999N1-00101-00701102471ADDKA1999M+00061KA2999N-00221MA1102371999999MW1001REMMET095KP58 110451Z AUTO 04003KT M01/M07 A3023 RMK AO2 SLP247 T10111067 400061022 PWINO FZRANO TSNO /;EQDQ01+000000PRSWM2
0195725386999992005011105514+44017-082800AUTO +0183KP58 V0200701N003119999999N9999999N1-00101-00601102381ADDKA1999M-00111KA2999N-00221MA1102271999999MD1810041+9999MW1001REMMET103KP58 110551Z AUTO 07006KT M01/M06 A3020 RMK AO2 SLP238 T10111061 11011 21022 58004 PWINO FZRANO TSNO /;EQDQ01+000000PRSWM2
0164725386999992005011106514+44017-082800AUTO +0183KP58 V0200601N004619999999N9999999N1-00101-00601102341ADDAA106000091MA1102241999999MW1001REMMET085KP58 110651Z AUTO 06009KT M01/M06 A3019 RMK AO2 SLP234 T10111061 PWINO FZRANO TSNO /;EQDQ01+000000PRSWM2Q02  00002PRCP06
0137725386999992005011107514+44017-082800AUTO +0183KP58 V0200901N005112200019N9999999N1-00101-00601102311ADDMA1102201999999MW1001REMMET085KP58 110751Z AUTO 09010KT M01/M06 A3018 RMK AO2 SLP231 T10111056 PWINO FZRANO TSNO /;EQDQ01+000000PRSWM2
0153725386999992005011109514+44017-082800AUTO +0183KP58 V0200901N004619999999N9999999N1-00101-00401102241ADDMA1102131999999MW1001REMMET085KP58 110951Z AUTO 09009KT M01/M04 A3016 RMK AO2 SLP224 T10061039 PWINO FZRANO TSNO /;EQDQ01+000000PRSWM2Q02  00002PRCP06
0137725386999992005011110514+44017-082800AUTO +0183KP58 V0201101N004112200019N9999999N1-00101-00401102161ADDMA1102031999999MW1001REMMET085KP58 111051Z AUTO 11008KT M01/M04 A3013 RMK AO2 SLP216 T10061039 PWINO FZRANO TSNO /;EQDQ01+000000PRSWM2
0195725386999992005011111514+44017-082800AUTO +0183KP58 V0201301N003119999999N9999999N1-00101-00501102141ADDKA1999M-00061KA2999N-00111MA1102031999999MD1810081+9999MW1001REMMET103KP58 111151Z AUTO 13006KT M01/M05 A3013 RMK AO2 SLP214 T10061050 11006 21011 58008 PWINO FZRANO TSNO /;EQDQ01+000000PRSWM2
0178725386999992005011112514+44017-082800AUTO +0183KP58 V0201301N003119999999N9999999N1-00101-00401102101ADDAA106000091MA1102001999999MD1999999+0001MW1001REMMET085KP58 111251Z AUTO 13006KT M01/M04 A3012 RMK AO2 SLP210 T10061044 PWINO FZRANO TSNO /;EQDQ01+000000PRSWM2Q02  00002PRCP06
0136725386999992005011113514+44017-082800AUTO +0183KP58 V0201301N003112200019N9999999N1+00001-00301102101ADDMA1102001999999MW1001REMMET084KP58 111351Z AUTO 13006KT 00/M03 A3012 RMK AO2 SLP210 T00001028 PWINO FZRANO TSNO /;EQDQ01+000000PRSWM2
0154725386999992005011114514+44017-082800AUTO +0183KP58 V0201401N002612200019N9999999N1+00001-00201102111ADDMA1102001999999MD1510031+9999MW1001REMMET088KP58 111451Z AUTO 14005KT 00/M02 A3012 RMK AO2 SLP211 T00001022 55003 PWINO FZRANO TSNO;EQDQ01+000000PRSWM2
0156725386999992005011115514+44017-082800FM-16+0183KP58 V0201201N003619999999N9999999N1+00001-00201102101ADDMA1102001999999MW1001REMMET088SPECI KP58 111551Z AUTO 12007KT 00/M02 A3012 RMK AO2 SLP210 T00001022 PWINO FZRANO TSNO;EQDQ01+000000PRSWM2Q02  00002PRCP06
0134725386999992005011116514+44017-082800AUTO +0183KP58 V0201201N005712200019N9999999N1+00101-00201102031ADDMA1101931999999MW1001REMMET082KP58 111651Z AUTO 12011KT 01/M02 A3010 RMK AO2 SLP203 T00061022 PWINO FZRANO TSNO;EQDQ01+000000PRSWM2
0192725386999992005011117514+44017-082800AUTO +0183KP58 V0201201N005119999999N9999999N1+00101-00201101941ADDKA1999M+00061KA2999N-00061MA1101831999999MD1810161+9999MW1001REMMET100KP58 111751Z AUTO 12010KT 01/M02 A3007 RMK AO2 SLP194 T00061022 10006 21006 58016 PWINO FZRANO TSNO;EQDQ01+000000PRSWM2
0161725386999992005011118514+44017-082800AUTO +0183KP58 V0201201N005719999999N9999999N1+00101-00201101901ADDAA106000091MA1101801999999MW1001REMMET082KP58 111851Z AUTO 12011KT 01/M02 A3006 RMK AO2 SLP190 T00061022 PWINO FZRANO TSNO;EQDQ01+000000PRSWM2Q02  00002PRCP06
0134725386999992005011119514+44017-082800AUTO +0183KP58 V0201101N005712200019N9999999N1+00101-00201101871ADDMA1101761999999MW1001REMMET082KP58 111951Z AUTO 11011KT 01/M02 A3005 RMK AO2 SLP187 T00061022 PWINO FZRANO TSNO;EQDQ01+000000PRSWM2
0154725386999992005011120514+44017-082800AUTO +0183KP58 V0201101N005712200019N9999999N1+00101-00201101851ADDMA1101761999999MD1610091+9999MW1001REMMET088KP58 112051Z AUTO 11011KT 01/M02 A3005 RMK AO2 SLP185 T00061022 56009 PWINO FZRANO TSNO;EQDQ01+000000PRSWM2
0150725386999992005011121514+44017-082800AUTO +0183KP58 V0201001N005119999999N9999999N1+00101-00201101881ADDMA1101801999999MW1001REMMET082KP58 112151Z AUTO 10010KT 01/M02 A3006 RMK AO2 SLP188 T00061022 PWINO FZRANO TSNO;EQDQ01+000000PRSWM2Q02  00002PRCP06
0134725386999992005011122514+44017-082800AUTO +0183KP58 V0200901N005112200019N9999999N1+00101-00201101891ADDMA1101801999999MW1001REMMET082KP58 112251Z AUTO 09010KT 01/M02 A3006 RMK AO2 SLP189 T00061022 PWINO FZRANO TSNO;EQDQ01+000000PRSWM2
0192725386999992005011123514+44017-082800AUTO +0183KP58 V0200901N007219999999N9999999N1+00101-00201101881ADDKA1999M+00061KA2999N+00061MA1101801999999MD1010031+9999MW1001REMMET100KP58 112351Z AUTO 09014KT 01/M02 A3006 RMK AO2 SLP188 T00061022 10006 20006 50003 PWINO FZRANO TSNO;EQDQ01+000000PRSWM2
0161725386999992005011200514+44017-082800AUTO +0183KP58 V0200901N005719999999N9999999N1+00001-00201101891ADDAA106000091MA1101801999999MW1001REMMET082KP58 120051Z AUTO 09011KT 00/M02 A3006 RMK AO2 SLP189 T00001022 PWINO FZRANO TSNO;EQDQ01+000000PRSWM2Q02  00002PRCP06
0134725386999992005011201514+44017-082800AUTO +0183KP58 V0201001N006712200019N9999999N1+00001-00201101841ADDMA1101731999999MW1001REMMET082KP58 120151Z AUTO 10013KT 00/M02 A3004 RMK AO2 SLP184 T00001022 PWINO FZRANO TSNO;EQDQ01+000000PRSWM2
0154725386999992005011202514+44017-082800AUTO +0183KP58 V0201101N007212200019N9999999N1+00001-00301101761ADDMA1101661999999MD1810121+9999MW1001REMMET088KP58 120251Z AUTO 11014KT 00/M03 A3002 RMK AO2 SLP176 T00001028 58012 PWINO FZRANO TSNO;EQDQ01+000000PRSWM2
0150725386999992005011203514+44017-082800AUTO +0183KP58 V0201101N007719999999N9999999N1+00001-00301101701ADDMA1101591999999MW1001REMMET082KP58 120351Z AUTO 11015KT 00/M03 A3000 RMK AO2 SLP170 T00001028 PWINO FZRANO TSNO;EQDQ01+000000PRSWM2Q02  00002PRCP06
0170725386999992005011204514+44017-082800AUTO +0183KP58 V0201101N006719999999N9999999N1+00001-00201101651ADDKA1999M+00061KA2999N-00171MA1101561999999MW1001REMMET092KP58 120451Z AUTO 11013KT 00/M02 A2999 RMK AO2 SLP165 T00001022 400061017 PWINO FZRANO TSNO;EQDQ01+000000PRSWM2
0192725386999992005011205514+44017-082800AUTO +0183KP58 V0201201N007219999999N9999999N1+00001-00201101561ADDKA1999M+00061KA2999N+00001MA1101461999999MD1810201+9999MW1001REMMET100KP58 120551Z AUTO 12014KT 00/M02 A2996 RMK AO2 SLP156 T00001022 10006 20000 58020 PWINO FZRANO TSNO;EQDQ01+000000PRSWM2
0161725386999992005011206514+44017-082800AUTO +0183KP58 V0201101N005119999999N9999999N1+00001-00201101571ADDAA106000091MA1101461999999MW1001REMMET082KP58 120651Z AUTO 11010KT 00/M02 A2996 RMK AO2 SLP157 T00001017 PWINO FZRANO TSNO;EQDQ01+000000PRSWM2Q02  00002PRCP06
0134725386999992005011207514+44017-082800AUTO +0183KP58 V0200901N006712200019N9999999N1+00101-00201101481ADDMA1101391999999MW1001REMMET082KP58 120751Z AUTO 09013KT 01/M02 A2994 RMK AO2 SLP148 T00061017 PWINO FZRANO TSNO;EQDQ01+000000PRSWM2
0154725386999992005011208514+44017-082800AUTO +0183KP58 V0200901N006712200019N9999999N1+00001-00201101401ADDMA1101291999999MD1810151+9999MW1001REMMET088KP58 120851Z AUTO 09013KT 00/M02 A2991 RMK AO2 SLP140 T00001017 58015 PWINO FZRANO TSNO;EQDQ01+000000PRSWM2
0167725386999992005011209514+44017-082800AUTO +0183KP58 V0200901N007219999999N9999999N1+00001-00101101331ADDAA101000891MA1101221999999MW1001REMMET088KP58 120951Z AUTO 09014KT 00/M01 A2989 RMK AO2 SLP133 P0003 T00001011 PWINO FZRANO TSNO;EQDQ01+000000PRSWM2Q02  00002PRCP06
0151725386999992005011210514+44017-082800AUTO +0183KP58 V0201001N006219999999N9999999N1+00001-00201101271ADDAA101000391MA1101191999999MW1001REMMET088KP58 121051Z AUTO 10012KT 00/M02 A2988 RMK AO2 SLP127 P0001 T00001017 PWINO FZRANO TSNO;EQDQ01+000000PRSWM2
0258725386999992005011211514+44017-082800AUTO +0183KP58 V0201101N007219999999N9999999N1+00001-00201101201ADDAA106001091AA224001091KA1999M+00061KA2999N+00001MA1101081999999MD1810201+9999MW1001REMMET112KP58 121151Z AUTO 11014KT 00/M02 A2985 RMK AO2 SLP120 60004 70004 T00001017 10006 20000 58020 PWINO FZRANO TSNO;EQDQ01+000000PRSWM2Q02  00108PRCP06Q03  00108PRCP24
0180725386999992005011212514+44017-082800AUTO +0183KP58 V0201101N006719999999N9999999N1+00101-00101101091ADDMA1100981999999MD1999999+0001MW1001REMMET082KP58 121251Z AUTO 11013KT 01/M01 A2982 RMK AO2 SLP109 T00061011 PWINO FZRANO TSNO;EQDQ01+000000PRSWM2Q02  00002PRCP06Q03  00002PRCP06
0151725386999992005011213514+44017-082800AUTO +0183KP58 V0201201N004619999999N9999999N1+00101-00101101091ADDAA101000891MA1100981999999MW1001REMMET088KP58 121351Z AUTO 12009KT 01/M01 A2982 RMK AO2 SLP109 P0003 T00061006 PWINO FZRANO TSNO;EQDQ01+000000PRSWM2
0187725386999992005011214514+44017-082800AUTO +0183KP58 V0201201N005119999999N9999999N1+00101+00001101021ADDAA101003391AA203004191MA1100911999999MD1610171+9999MW1001REMMET099KP58 121451Z AUTO 12010KT 01/00 A2980 RMK AO2 SLP102 P0013 60016 T00110000 56017 PWINO FZRANO TSNO;EQDQ01+000000PRSWM2
0166725386999992005011215514+44017-082800AUTO +0183KP58 V0201301N005119999999N9999999N1+00101+00001101001ADDAA101002891MA1100911999999MW1001REMMET087KP58 121551Z AUTO 13010KT 01/00 A2980 RMK AO2 SLP100 P0011 T00110000 PWINO FZRANO TSNO;EQDQ01+000000PRSWM2Q02  00002PRCP06
0168725386999992005011216514+44017-082800AUTO +0183KP58 V0201301N007219999999N9999999N1+00201+00101100791ADDAA101001091MA1100711999999MW1001OC101031REMMET097KP58 121651Z AUTO 13014G20KT 02/01 A2974 RMK AO2 PRESFR SLP079 P0004 T00170006 PWINO FZRANO TSNO;EQDQ01+000000PRSWM2
0241725386999992005011217514+44017-082800AUTO +0183KP58 V0201401N004619999999N9999999N1+00201+00101100681ADDAA101000591AA206008491KA1999M+00221KA2999N+00001MA1100611999999MD1810321+9999MW1001REMMET111KP58 121751Z AUTO 14009KT 02/01 A2971 RMK AO2 SLP068 P0002 60033 T00170006 10022 20000 58032 PWINO FZRANO TSNO;EQDQ01+000000PRSWM2Q02  00848PRCP06
0158725386999992005011218514+44017-082800AUTO +0183KP58 V0201601N005119999999N9999999N1+00301+00201100601ADDMA1100511999999MW1001REMMET074KP58 121851Z AUTO 16010KT 03/02 A2968 RMK AO2 SLP060 T00280017 PWINO TSNO;EQDQ01+000000PRSWM2Q02  00002PRCP06Q03  00002PRCP06
0126725386999992005011219514+44017-082800AUTO +0183KP58 V0201601N003612200019N9999999N1+00301+00201100561ADDMA1100471999999MW1001REMMET074KP58 121951Z AUTO 16007KT 03/02 A2967 RMK AO2 SLP056 T00280017 PWINO TSNO;EQDQ01+000000PRSWM2
0187725386999992005011220514+44017-082800AUTO +0183KP58 V0201401N005119999999N9999999N1+00301+00201100391ADDAA101004891AA203004891MA1100311999999MD1810281+9999MW1001REMMET099KP58 122051Z AUTO 14010KT 03/02 A2962 RMK AO2 PRESFR SLP039 P0019 60019 T00280022 58028 PWINO TSNO;EQDQ01+000000PRSWM2
0159725386999992005011221514+44017-082800AUTO +0183KP58 V0201501N003119999999N9999999N1+00301+00201100531ADDAA101002391MA1100441999999MW1001REMMET080KP58 122151Z AUTO 15006KT 03/02 A2966 RMK AO2 SLP053 P0009 T00280022 PWINO TSNO;EQDQ01+000000PRSWM2Q02  00002PRCP06
0126725386999992005011222514+44017-082800AUTO +0183KP58 V0201501N002612200019N9999999N1+00301+00301100481ADDMA1100411999999MW1001REMMET074KP58 122251Z AUTO 15005KT 03/03 A2965 RMK AO2 SLP048 T00330028 PWINO TSNO;EQDQ01+000000PRSWM2
0217725386999992005011223514+44017-082800AUTO +0183KP58 V0201501N004119999999N9999999N1+00601+00601100491ADDAA106007191KA1999M+00671KA2999N+00171MA1100441999999MD1110121+9999MW1001REMMET098KP58 122351Z AUTO 15008KT 06/06 A2966 RMK AO2 SLP049 60028 T00610056 10067 20017 51012 PWINO TSNO;EQDQ01+000000PRSWM2Q02  00718PRCP06
0186725386999992005011300514+44017-082800AUTO +0183KP58 V0201501N004119999999N9999999N1+00601+00501100441ADDAA101000391MA1100371999999MW1001OC100721REMMET083KP58 130051Z AUTO 15008G14KT 06/05 A2964 RMK AO2 SLP044 P0001 T00560050 PWINO TSNO;EQDQ01+000000PRSWM2Q02  00002PRCP06Q03  00002PRCP06
0132725386999992005011301514+44017-082800FM-16+0183KP58 V0201601N004612200019N9999999N1+00701+00601100361ADDMA1100311999999MW1001REMMET080SPECI KP58 130151Z AUTO 16009KT 07/06 A2962 RMK AO2 SLP036 T00670061 PWINO TSNO;EQDQ01+000000PRSWM2
0206725386999992005011302514+44017-082800AUTO +0183KP58 V0201601N004119999999N9999999N1+00801+00701100271ADDAA103000391MA1100201999999MD1810211+9999MW1001OC100721REMMET089KP58 130251Z AUTO 16008G14KT 08/07 A2959 RMK AO2 SLP027 60001 T00780072 58021 PWINO TSNO;EQDQ01+000000PRSWM2Q02  00002PRCP03Q03  00008PRCP03
0190725386999992005011304514+44017-082800AUTO +0183KP58 V0201701N005119999999N9999999N1+01001+00901100131ADDAA101000391KA1999M+01061KA2999N+00001MA1100101999999MW1001OC100771REMMET093KP58 130451Z AUTO 17010G15KT 10/09 A2956 RMK AO2 SLP013 P0001 T01000094 401060000 PWINO TSNO;EQDQ01+000000PRSWM2
0211725386999992005011305514+44017-082800FM-16+0183KP58 V02099999999999999999N9999999N1+99999+99999100061ADDAA101000391AA206001091KA1999M+01111KA2999N+00561MD1610201+9999MW1001REMMET112KP58 130551Z AUTO 17008KT 140V220 11/09 A2953 RMK AO2 SLP006 P0001 60004 T01110094 10111 20056 56020 PWINO TSNO;EQDQ01+000000PRSWM2
0169725386999992005011306514+44017-082800AUTO +0183KP58 V0203001N003119999999N9999999N1+01101+00901100121ADDMA1100071999999MW1001OC100771REMMET077KP58 130651Z AUTO 30006G15KT 11/09 A2955 RMK AO2 SLP012 T01110094 PWINO TSNO;EQDQ01+000000PRSWM2Q02  00002PRCP06Q03  00002PRCP06
0126725386999992005011307514+44017-082800AUTO +0183KP58 V0201301N001512200019N9999999N1+01101+00901100061ADDMA1100001999999MW1001REMMET074KP58 130751Z AUTO 13003KT 11/09 A2953 RMK AO2 SLP006 T01060089 PWINO TSNO;EQDQ01+000000PRSWM2
0146725386999992005011308514+44017-082800AUTO +0183KP58 V0209999C000012200019N9999999N1+00801+00701100061ADDMA1100001999999MD1810011+9999MW1001REMMET080KP58 130851Z AUTO 00000KT 08/07 A2953 RMK AO2 SLP006 T00780072 58001 PWINO TSNO;EQDQ01+000000PRSWM2
0159725386999992005011309514+44017-082800AUTO +0183KP58 V0209999C000019999999N9999999N1+00901+00801099991ADDAA101002891MA1099931999999MW1001REMMET080KP58 130951Z AUTO 00000KT 09/08 A2951 RMK AO2 SLP999 P0011 T00890083 PWINO TSNO;EQDQ01+000000PRSWM2Q02  00002PRCP06
0143725386999992005011310514+44017-082800AUTO +0183KP58 V0209999C000019999999N9999999N1+01001+00901099941ADDAA101000591MA1099901999999MW1001REMMET080KP58 131051Z AUTO 00000KT 10/09 A2950 RMK AO2 SLP994 P0002 T01000094 PWINO TSNO;EQDQ01+000000PRSWM2
0267725386999992005011311514+44017-082800AUTO +0183KP58 V0202301N002119999999N9999999N1+01001+00901099901ADDAA101003691AA206006991AA324023491KA1999M+01331KA2999N+00781MA1099861999999MD1610141+9999MW1001REMMET110KP58 131151Z AUTO 23004KT 10/09 A2949 RMK AO2 SLP990 P0014 60027 70092 T01000094 10133 20078 56014 PWINO TSNO;EQDQ01+000000PRSWM2Q02  00698PRCP06Q03  02348PRCP24
0189725386999992005011312514+44017-082800AUTO +0183KP58 V0209999V002119999999N9999999N1+01001+00901099901ADDAA101002591MA1099861999999MD1999999+0001MW1001REMMET080KP58 131251Z AUTO VRB04KT 10/09 A2949 RMK AO2 SLP990 P0010 T01000094 PWINO TSNO;EQDQ01+000000PRSWM2Q02  00002PRCP06Q03  00002PRCP06
0143725386999992005011313514+44017-082800AUTO +0183KP58 V0202701N002619999999N9999999N1+01001+00901099921ADDAA101001891MA1099901999999MW1001REMMET080KP58 131351Z AUTO 27005KT 10/09 A2950 RMK AO2 SLP992 P0007 T01000089 PWINO TSNO;EQDQ01+000000PRSWM2
0180725386999992005011314514+44017-082800AUTO +0183KP58 V0209999C000019999999N9999999N1+00301+00201100071ADDAA101003691AA203007991MA1100001999999MD1310141+9999MW1001REMMET092KP58 131451Z AUTO 00000KT 03/02 A2953 RMK AO2 SLP007 P0014 60031 T00280022 53014 PWINO TSNO;EQDQ01+000000PRSWM2
0159725386999992005011315514+44017-082800AUTO +0183KP58 V0200301N001519999999N9999999N1+00301+00201100051ADDAA101001591MA1100001999999MW1001REMMET080KP58 131551Z AUTO 03003KT 03/02 A2953 RMK AO2 SLP005 P0006 T00280017 PWINO TSNO;EQDQ01+000000PRSWM2Q02  00002PRCP06
0150725386999992005011316514+44017-082800AUTO +0183KP58 V0203101N004119999999N9999999N1+00201+00101100181ADDAA101001891MA1100141999999MW1001REMMET087KP58 131651Z AUTO 31008KT 02/01 A2957 RMK AO2 SLP018 P0007 T00170011 PWINO FZRANO TSNO;EQDQ01+000000PRSWM2
0241725386999992005011317514+44017-082800AUTO +0183KP58 V0209999V002119999999N9999999N1+00201+00101100061ADDAA101000591AA206011791KA1999M+01061KA2999N+00171MA1100001999999MD1010001+9999MW1001REMMET111KP58 131751Z AUTO VRB04KT 02/01 A2953 RMK AO2 SLP006 P0002 60046 T00170011 10106 20017 50000 PWINO FZRANO TSNO;EQDQ01+000000PRSWM2Q02  01178PRCP06
0182725386999992005011318514+44017-082800AUTO +0183KP58 V0209999V003119999999N9999999N1+00201+00101100141ADDAA101000891MA1100101999999MW1001REMMET087KP58 131851Z AUTO VRB06KT 02/01 A2956 RMK AO2 SLP014 P0003 T00170006 PWINO FZRANO TSNO;EQDQ01+000000PRSWM2Q02  00002PRCP06Q03  00002PRCP06
0151725386999992005011319514+44017-082800AUTO +0183KP58 V0203301N003119999999N9999999N1+00101-00101100211ADDAA101001091MA1100171999999MW1001REMMET088KP58 131951Z AUTO 33006KT 01/M01 A2958 RMK AO2 SLP021 P0004 T00061006 PWINO FZRANO TSNO;EQDQ01+000000PRSWM2
0188725386999992005011320514+44017-082800AUTO +0183KP58 V0203301N003119999999N9999999N1+00101-00101100431ADDAA101000891AA203002591MA1100371999999MD1310361+9999MW1001REMMET100KP58 132051Z AUTO 33006KT 01/M01 A2964 RMK AO2 SLP043 P0003 60010 T00061006 53036 PWINO FZRANO TSNO;EQDQ01+000000PRSWM2
0167725386999992005011321514+44017-082800AUTO +0183KP58 V0203201N004619999999N9999999N1+00101-00101100591ADDAA101002091MA1100541999999MW1001REMMET088KP58 132151Z AUTO 32009KT 01/M01 A2969 RMK AO2 SLP059 P0008 T00061006 PWINO FZRANO TSNO;EQDQ01+000000PRSWM2Q02  00002PRCP06
0151725386999992005011322514+44017-082800AUTO +0183KP58 V0203301N002619999999N9999999N1+00001-00101100691ADDAA101001591MA1100641999999MW1001REMMET088KP58 132251Z AUTO 33005KT 00/M01 A2972 RMK AO2 SLP069 P0006 T00001011 PWINO FZRANO TSNO;EQDQ01+000000PRSWM2
0242725386999992005011323514+44017-082800AUTO +0183KP58 V0203101N005119999999N9999999N1+00001-00101100861ADDAA101000891AA206006991KA1999M+00171KA2999N+00001MA1100811999999MD1310421+9999MW1001REMMET112KP58 132351Z AUTO 31010KT 00/M01 A2977 RMK AO2 SLP086 P0003 60027 T00001011 10017 20000 53042 PWINO FZRANO TSNO;EQDQ01+000000PRSWM2Q02  00698PRCP06
0183725386999992005011400514+44017-082800AUTO +0183KP58 V0203001N005119999999N9999999N1+00001-00101100981ADDAA101000891MA1100911999999MW1001REMMET088KP58 140051Z AUTO 30010KT 00/M01 A2980 RMK AO2 SLP098 P0003 T00001011 PWINO FZRANO TSNO;EQDQ01+000000PRSWM2Q02  00002PRCP06Q03  00002PRCP06
0134725386999992005011401514+44017-082800AUTO +0183KP58 V0202901N003612200019N9999999N1+00001-00201101091ADDMA1101051999999MW1001REMMET082KP58 140151Z AUTO 29007KT 00/M02 A2984 RMK AO2 SLP109 T00001017 PWINO FZRANO TSNO;EQDQ01+000000PRSWM2
0203725386999992005011402514+44017-082800AUTO +0183KP58 V0202901N003119999999N9999999N1+00001-00201101131ADDAA103000891MA1101051999999MD1110231+9999MW1001REMMET094KP58 140251Z AUTO 29006KT 00/M02 A2984 RMK AO2 SLP113 60003 T00001022 51023 PWINO FZRANO TSNO;EQDQ01+000000PRSWM2Q02  00002PRCP03Q03  00008PRCP03
0150725386999992005011403514+44017-082800AUTO +0183KP58 V0202901N002619999999N9999999N1+00001-00301101251ADDMA1101151999999MW1001REMMET082KP58 140351Z AUTO 29005KT 00/M03 A2987 RMK AO2 SLP125 T00001033 PWINO FZRANO TSNO;EQDQ01+000000PRSWM2Q02  00002PRCP06
0171725386999992005011404514+44017-082800AUTO +0183KP58 V0202801N003619999999N9999999N1-00101-00301101411ADDKA1999M+01331KA2999N-00061MA1101321999999MW1001REMMET093KP58 140451Z AUTO 28007KT M01/M03 A2992 RMK AO2 SLP141 T10061033 401331006 PWINO FZRANO TSNO;EQDQ01+000000PRSWM2
0237725386999992005011405514+44017-082800AUTO +0183KP58 V0202801N003619999999N9999999N1-00101-00501101521ADDAA106000891KA1999M+00001KA2999N-00111MA1101421999999MD1110371+9999MW1001OC100721REMMET110KP58 140551Z AUTO 28007G14KT M01/M05 A2995 RMK AO2 SLP152 60003 T10111050 10000 21011 51037 PWINO FZRANO TSNO;EQDQ01+000000PRSWM2Q02  00088PRCP06
0167725386999992005011406514+44017-082800AUTO +0183KP58 V0203101N005119999999N9999999N1-00201-00501101671ADDMA1101561999999MW1001REMMET083KP58 140651Z AUTO 31010KT M02/M05 A2999 RMK AO2 SLP167 T10221050 PWINO FZRANO TSNO;EQDQ01+000000PRSWM2Q02  00002PRCP06Q03  00002PRCP06
0146725386999992005011407514+44017-082800AUTO +0183KP58 V0203001N007712200019N9999999N1-00301-00701101851ADDMA1101731999999MW1001OC101031REMMET086KP58 140751Z AUTO 30015G20KT M03/M07 A3004 RMK AO2 SLP185 T10331067 PWINO FZRANO TSNO;EQDQ01+000000PRSWM2
0168725386999992005011408514+44017-082800AUTO +0183KP58 V0202801N005712200019N9999999N1-00501-01001102031ADDMA1101901999999MD1310481+9999MW1001OC101031REMMET094KP58 140851Z AUTO 28011G20KT M05/M10 A3009 RMK AO2 SLP203 T10501100 53048 PWINO FZRANO TSNO /;EQDQ01+000000PRSWM2
0142725386999992005011409514+44017-082800AUTO +0183KP58 V0203001N008219999999N9999999N1-00801-01201999999ADDMW1001OC101181REMMET081KP58 140951Z AUTO 30016G23KT M08/M12 RMK AO2 SLPNO T10781122 PWINO FZRANO TSNO /;EQDQ01+000000PRSWM2Q02  00002PRCP06
0126725386999992005011410514+44017-082800AUTO +0183KP58 V0202901N006212200019N9999999N1-00801-01401999999ADDMW1001OC100981REMMET081KP58 141051Z AUTO 29012G19KT M08/M14 RMK AO2 SLPNO T10831139 PWINO FZRANO TSNO /;EQDQ01+000000PRSWM2
0197725386999992005011411514+44017-082800AUTO +0183KP58 V0202801N006219999999N9999999N1-00901-01301999999ADDAA124019391KA1999M-00111KA2999N-00891MW1001OC100821REMMET099KP58 141151Z AUTO 28012G16KT M09/M13 RMK AO2 SLPNO 70076 T10891133 11011 21089 PWINO FZRANO TSNO /;EQDQ01+000000PRSWM2Q02  01938PRCP24
0167725386999992005011412514+44017-082800AUTO +0183KP58 V0202801N006219999999N9999999N1-01001-01501999999ADDAA106000091MD1999999+0001MW1001OC100931REMMET081KP58 141251Z AUTO 28012G18KT M10/M15 RMK AO2 SLPNO T11001150 PWINO FZRANO TSNO /;EQDQ01+000000PRSWM2Q02  00002PRCP06
0126725386999992005011413514+44017-082800AUTO +0183KP58 V0202901N004612200019N9999999N1-01101-01601999999ADDMW1001OC100931REMMET081KP58 141351Z AUTO 29009G18KT M11/M16 RMK AO2 SLPNO T11061156 PWINO FZRANO TSNO /;EQDQ01+000000PRSWM2
0126725386999992005011414514+44017-082800AUTO +0183KP58 V0202801N004112200019N9999999N1-01101-01701999999ADDMW1001OC100931REMMET081KP58 141451Z AUTO 28008G18KT M11/M17 RMK AO2 SLPNO T11111167 PWINO FZRANO TSNO /;EQDQ01+000000PRSWM2
0139725386999992005011415514+44017-082800FM-16+0183KP58 V02099999999999999999N9999999N1+99999+99999999999ADDMW1001REMMET086KP58 141551Z AUTO 26009KT 220V290 M11/M17 RMK AO2 SLPNO T11111167 PWINO FZRANO TSNO /;EQDQ01+000000PRSWM2Q02  00002PRCP06
0133725386999992005011416514+44017-082800FM-16+0183KP58 V02099999999992200019N9999999N1+99999+99999103181ADDMW1001REMMET096KP58 141651Z AUTO 27011G19KT 230V300 M11/M17 A3042 RMK AO2 SLP318 T11111172 PWINO FZRANO TSNO /;EQDQ01+000000PRSWM2
0171725386999992005011417514+44017-082800FM-16+0183KP58 V02099999999999999999N9999999N1+99999+99999103191ADDKA1999M-00891KA2999N-01111MW1001REMMET108KP58 141751Z AUTO 26009G18KT 210V310 M10/M17 A3042 RMK AO2 SLP319 T11001167 11089 21111 PWINO FZRANO TSNO /;EQDQ01+000000PRSWM2
0149725386999992005011418514+44017-082800FM-16+0183KP58 V02099999999999999999N9999999N1+99999+99999103191ADDMW1001REMMET096KP58 141851Z AUTO 28012G21KT 250V320 M10/M17 A3042 RMK AO2 SLP319 T11001172 PWINO FZRANO TSNO /;EQDQ01+000000PRSWM2Q02  00002PRCP06
0133725386999992005011419514+44017-082800FM-16+0183KP58 V02099999999992200019N9999999N1+99999+99999103211ADDMW1001REMMET096KP58 141951Z AUTO 27009G17KT 240V300 M11/M18 A3043 RMK AO2 SLP321 T11061178 PWINO FZRANO TSNO /;EQDQ01+000000PRSWM2
0168725386999992005011420514+44017-082800AUTO +0183KP58 V0202501N005112200019N9999999N1-01101-01701103301ADDMA1103121999999MD1310091+9999MW1001OC100721REMMET094KP58 142051Z AUTO 25010G14KT M11/M17 A3045 RMK AO2 SLP330 T11061167 53009 PWINO FZRANO TSNO /;EQDQ01+000000PRSWM2
0159725386999992005011421514+44017-082800FM-16+0183KP58 V0202401N004119999999N9999999N1-01101-01701103351ADDMA1103151999999MW1001REMMET091SPECI KP58 142151Z AUTO 24008KT M11/M17 A3046 RMK AO2 SLP335 T11061172 PWINO FZRANO TSNO /;EQDQ01+000000PRSWM2Q02  00002PRCP06
0137725386999992005011422514+44017-082800AUTO +0183KP58 V0202401N004612200019N9999999N1-01101-01701103441ADDMA1103251999999MW1001REMMET085KP58 142251Z AUTO 24009KT M11/M17 A3049 RMK AO2 SLP344 T11061167 PWINO FZRANO TSNO /;EQDQ01+000000PRSWM2
0195725386999992005011423514+44017-082800AUTO +0183KP58 V0202401N003619999999N9999999N1-01101-01701103501ADDKA1999M-01001KA2999N-01061MA1103291999999MD1310171+9999MW1001REMMET103KP58 142351Z AUTO 24007KT M11/M17 A3050 RMK AO2 SLP350 T11061172 11100 21106 53017 PWINO FZRANO TSNO /;EQDQ01+000000PRSWM2
0146725386999992005011500514+44017-082800FM-16+0183KP58 V02099999999999999999N9999999N1+99999+99999103601ADDMW1001REMMET093KP58 150051Z AUTO 26010KT 220V290 M11/M18 A3053 RMK AO2 SLP360 T11061178 PWINO FZRANO TSNO /;EQDQ01+000000PRSWM2Q02  00002PRCP06
0137725386999992005011501514+44017-082800AUTO +0183KP58 V0202601N003612200019N9999999N1-01201-01801103671ADDMA1103451999999MW1001REMMET085KP58 150151Z AUTO 26007KT M12/M18 A3055 RMK AO2 SLP367 T11171183 PWINO FZRANO TSNO /;EQDQ01+000000PRSWM2
0157725386999992005011502514+44017-082800AUTO +0183KP58 V0209999V003112200019N9999999N1-01201-01801103781ADDMA1103561999999MD1110251+9999MW1001REMMET091KP58 150251Z AUTO VRB06KT M12/M18 A3058 RMK AO2 SLP378 T11221183 51025 PWINO FZRANO TSNO /;EQDQ01+000000PRSWM2
0153725386999992005011503514+44017-082800AUTO +0183KP58 V0209999V003119999999N9999999N1-01301-01801103821ADDMA1103591999999MW1001REMMET085KP58 150351Z AUTO VRB06KT M13/M18 A3059 RMK AO2 SLP382 T11281183 PWINO FZRANO TSNO /;EQDQ01+000000PRSWM2Q02  00002PRCP06
0173725386999992005011504514+44017-082800AUTO +0183KP58 V0209999V003119999999N9999999N1-01301-01901103861ADDKA1999M-00061KA2999N-01331MA1103621999999MW1001REMMET095KP58 150451Z AUTO VRB06KT M13/M19 A3060 RMK AO2 SLP386 T11331189 410061133 PWINO FZRANO TSNO /;EQDQ01+000000PRSWM2
0195725386999992005011505514+44017-082800AUTO +0183KP58 V0209999V002619999999N9999999N1-01301-01801103861ADDKA1999M-01061KA2999N-01331MA1103621999999MD1110081+9999MW1001REMMET103KP58 150551Z AUTO VRB05KT M13/M18 A3060 RMK AO2 SLP386 T11331183 11106 21133 51008 PWINO FZRANO TSNO /;EQDQ01+000000PRSWM2
0164725386999992005011506514+44017-082800AUTO +0183KP58 V0202301N003619999999N9999999N1-01401-01901103881ADDAA106000091MA1103661999999MW1001REMMET085KP58 150651Z AUTO 23007KT M14/M19 A3061 RMK AO2 SLP388 T11391189 PWINO FZRANO TSNO /;EQDQ01+000000PRSWM2Q02  00002PRCP06
0137725386999992005011507514+44017-082800AUTO +0183KP58 V0202401N003612200019N9999999N1-01401-01801103921ADDMA1103691999999MW1001REMMET085KP58 150751Z AUTO 24007KT M14/M18 A3062 RMK AO2 SLP392 T11391183 PWINO FZRANO TSNO /;EQDQ01+000000PRSWM2
0115725386999992005011508514+44017-082800AUTO +0183KP58 V0202301N004612200019N9999999N1-01401-01801999999ADDMW1001REMMET078KP58 150851Z AUTO 23009KT M14/M18 RMK AO2 SLPNO T11391183 PWINO FZRANO TSNO /;EQDQ01+000000PRSWM2
0142725386999992005011509514+44017-082800AUTO +0183KP58 V0202501N005119999999N9999999N1-01301-01801999999ADDMW1001OC100721REMMET081KP58 150951Z AUTO 25010G14KT M13/M18 RMK AO2 SLPNO T11331183 PWINO FZRANO TSNO /;EQDQ01+000000PRSWM2Q02  00002PRCP06
0148725386999992005011510514+44017-082800AUTO +0183KP58 V0202501N003612200019N9999999N1-01301-01801103941ADDMA1103731999999MW1001OC100821REMMET088KP58 151051Z AUTO 25007G16KT M13/M18 A3063 RMK AO2 SLP394 T11331178 PWINO FZRANO TSNO /;EQDQ01+000000PRSWM2
0168725386999992005011511514+44017-082800FM-16+0183KP58 V02099999999999999999N9999999N1+99999+99999103951ADDKA1999M-01331KA2999N-01391MW1001REMMET105KP58 151151Z AUTO 23008KT 190V260 M13/M18 A3063 RMK AO2 SLP395 T11331183 11133 21139 PWINO FZRANO TSNO /;EQDQ01+000000PRSWM2
0178725386999992005011512514+44017-082800AUTO +0183KP58 V0202301N002619999999N9999999N1-01401-01801104001ADDAA106000091MA1103761999999MD1999999+0001MW1001REMMET085KP58 151251Z AUTO 23005KT M14/M18 A3064 RMK AO2 SLP400 T11391178 PWINO FZRANO TSNO /;EQDQ01+000000PRSWM2Q02  00002PRCP06
0137725386999992005011513514+44017-082800AUTO +0183KP58 V0202301N003612200019N9999999N1-01301-01701104031ADDMA1103791999999MW1001REMMET085KP58 151351Z AUTO 23007KT M13/M17 A3065 RMK AO2 SLP403 T11331172 PWINO FZRANO TSNO /;EQDQ01+000000PRSWM2
0157725386999992005011514514+44017-082800AUTO +0183KP58 V0209999V002612200019N9999999N1-01201-01601104061ADDMA1103831999999MD1110111+9999MW1001REMMET091KP58 151451Z AUTO VRB05KT M12/M16 A3066 RMK AO2 SLP406 T11171161 51011 PWINO FZRANO TSNO /;EQDQ01+000000PRSWM2
0149725386999992005011515514+44017-082800FM-16+0183KP58 V02099999999999999999N9999999N1+99999+99999104071ADDMW1001REMMET096KP58 151551Z AUTO 25011G21KT 220V280 M11/M17 A3066 RMK AO2 SLP407 T11111172 PWINO FZRANO TSNO /;EQDQ01+000000PRSWM2Q02  00002PRCP06
0133725386999992005011516514+44017-082800FM-16+0183KP58 V02099999999992200019N9999999N1+99999+99999104021ADDMW1001REMMET096KP58 151651Z AUTO 24009G18KT 210V270 M11/M17 A3065 RMK AO2 SLP402 T11061172 PWINO FZRANO TSNO /;EQDQ01+000000PRSWM2
0206725386999992005011517514+44017-082800AUTO +0183KP58 V0202501N006719999999N9999999N1-01001-01801103961ADDKA1999M-01001KA2999N-01391MA1103731999999MD1810101+9999MW1001OC101131REMMET106KP58 151751Z AUTO 25013G22KT M10/M18 A3063 RMK AO2 SLP396 T11001178 11100 21139 58010 PWINO FZRANO TSNO /;EQDQ01+000000PRSWM2
0153725386999992005011518514+44017-082800AUTO +0183KP58 V0202301N005719999999N9999999N1-01001-01801999999ADDAA106000091MW1001OC101081REMMET081KP58 151851Z AUTO 23011G21KT M10/M18 RMK AO2 SLPNO T11001178 PWINO FZRANO TSNO /;EQDQ01+000000PRSWM2Q02  00002PRCP06
0126725386999992005011519514+44017-082800FM-16+0183KP58 V02099999999992200019N9999999N1+99999+99999999999ADDMW1001REMMET089KP58 151951Z AUTO 26007G18KT 210V280 M09/M18 RMK AO2 SLPNO T10941178 PWINO FZRANO TSNO /;EQDQ01+000000PRSWM2
0133725386999992005011520514+44017-082800FM-16+0183KP58 V02099999999992200019N9999999N1+99999+99999103871ADDMW1001REMMET096KP58 152051Z AUTO 25008G19KT 210V290 M09/M17 A3061 RMK AO2 SLP387 T10941172 PWINO FZRANO TSNO /;EQDQ01+000000PRSWM2
0149725386999992005011521514+44017-082800FM-16+0183KP58 V02099999999999999999N9999999N1+99999+99999103851ADDMW1001REMMET096KP58 152151Z AUTO 24007G15KT 210V280 M09/M17 A3060 RMK AO2 SLP385 T10941167 PWINO FZRANO TSNO /;EQDQ01+000000PRSWM2Q02  00002PRCP06
0137725386999992005011522514+44017-082800AUTO +0183KP58 V0202401N003112200019N9999999N1-01001-01601103901ADDMA1103691999999MW1001REMMET085KP58 152251Z AUTO 24006KT M10/M16 A3062 RMK AO2 SLP390 T11001161 PWINO FZRANO TSNO /;EQDQ01+000000PRSWM2
0201725386999992005011523514+44017-082800FM-16+0183KP58 V0209999V002619999999N9999999N1-01101-01601103951ADDKA1999M-00891KA2999N-01061MA1103731999999MD1310071+9999MW1001REMMET109SPECI KP58 152351Z AUTO VRB05KT M11/M16 A3063 RMK AO2 SLP395 T11061161 11089 21106 53007 PWINO FZRANO TSNO /;EQDQ01+000000PRSWM2
0164725386999992005011600514+44017-082800AUTO +0183KP58 V0209999V002119999999N9999999N1-01101-01701104001ADDAA106000091MA1103761999999MW1001REMMET085KP58 160051Z AUTO VRB04KT M11/M17 A3064 RMK AO2 SLP400 T11061167 PWINO FZRANO TSNO /;EQDQ01+000000PRSWM2Q02  00002PRCP06
0115725386999992005011601514+44017-082800AUTO +0183KP58 V0202701N002112200019N9999999N1-01101-01701999999ADDMW1001REMMET078KP58 160151Z AUTO 27004KT M11/M17 RMK AO2 SLPNO T11111172 PWINO FZRANO TSNO /;EQDQ01+000000PRSWM2
0115725386999992005011602514+44017-082800AUTO +0183KP58 V0202401N002612200019N9999999N1-01101-01701999999ADDMW1001REMMET078KP58 160251Z AUTO 24005KT M11/M17 RMK AO2 SLPNO T11111172 PWINO FZRANO TSNO /;EQDQ01+000000PRSWM2
0131725386999992005011603514+44017-082800AUTO +0183KP58 V0202501N003119999999N9999999N1-01101-01701999999ADDMW1001REMMET078KP58 160351Z AUTO 25006KT M11/M17 RMK AO2 SLPNO T11111172 PWINO FZRANO TSNO /;EQDQ01+000000PRSWM2Q02  00002PRCP06
0173725386999992005011604514+44017-082800AUTO +0183KP58 V0202601N002619999999N9999999N1-01101-01701104081ADDKA1999M-00891KA2999N-01391MA1103861999999MW1001REMMET095KP58 160451Z AUTO 26005KT M11/M17 A3067 RMK AO2 SLP408 T11111172 410891139 PWINO FZRANO TSNO /;EQDQ01+000000PRSWM2
0175725386999992005011605514+44017-082800AUTO +0183KP58 V0202801N003119999999N9999999N1-01101-01701104051ADDKA1999M-01001KA2999N-01111MA1103831999999MW1001REMMET097KP58 160551Z AUTO 28006KT M11/M17 A3066 RMK AO2 SLP405 T11111172 11100 21111 PWINO FZRANO TSNO /;EQDQ01+000000PRSWM2
0164725386999992005011606514+44017-082800AUTO +0183KP58 V0202701N004119999999N9999999N1-01201-01801104001ADDAA106000091MA1103791999999MW1001REMMET085KP58 160651Z AUTO 27008KT M12/M18 A3065 RMK AO2 SLP400 T11171178 PWINO FZRANO TSNO /;EQDQ01+000000PRSWM2Q02  00002PRCP06
0137725386999992005011607514+44017-082800AUTO +0183KP58 V0202801N003112200019N9999999N1-01201-01801103991ADDMA1103761999999MW1001REMMET085KP58 160751Z AUTO 28006KT M12/M18 A3064 RMK AO2 SLP399 T11171178 PWINO FZRANO TSNO /;EQDQ01+000000PRSWM2
0157725386999992005011608514+44017-082800AUTO +0183KP58 V0209999V003112200019N9999999N1-01201-01801103961ADDMA1103761999999MD1610081+9999MW1001REMMET091KP58 160851Z AUTO VRB06KT M12/M18 A3064 RMK AO2 SLP396 T11221183 56008 PWINO FZRANO TSNO /;EQDQ01+000000PRSWM2
0153725386999992005011609514+44017-082800AUTO +0183KP58 V0209999V003119999999N9999999N1-01101-01701103861ADDMA1103661999999MW1001REMMET085KP58 160951Z AUTO VRB06KT M11/M17 A3061 RMK AO2 SLP386 T11111172 PWINO FZRANO TSNO /;EQDQ01+000000PRSWM2Q02  00002PRCP06
0137725386999992005011610514+44017-082800AUTO +0183KP58 V0202901N004112200019N9999999N1-01101-01701103861ADDMA1103661999999MW1001REMMET085KP58 161051Z AUTO 29008KT M11/M17 A3061 RMK AO2 SLP386 T11111167 PWINO FZRANO TSNO /;EQDQ01+000000PRSWM2
0195725386999992005011611514+44017-082800AUTO +0183KP58 V0203101N003119999999N9999999N1-01101-01701103891ADDKA1999M-01111KA2999N-01221MA1103691999999MD1510071+9999MW1001REMMET103KP58 161151Z AUTO 31006KT M11/M17 A3062 RMK AO2 SLP389 T11111167 11111 21122 55007 PWINO FZRANO TSNO /;EQDQ01+000000PRSWM2
0178725386999992005011612514+44017-082800AUTO +0183KP58 V0203001N003619999999N9999999N1-01101-01701103891ADDAA106000091MA1103691999999MD1999999+0001MW1001REMMET085KP58 161251Z AUTO 30007KT M11/M17 A3062 RMK AO2 SLP389 T11111167 PWINO FZRANO TSNO /;EQDQ01+000000PRSWM2Q02  00002PRCP06
0115725386999992005011613514+44017-082800AUTO +0183KP58 V0203101N003112200019N9999999N1-01101-01701999999ADDMW1001REMMET078KP58 161351Z AUTO 31006KT M11/M17 RMK AO2 SLPNO T11111167 PWINO FZRANO TSNO /;EQDQ01+000000PRSWM2
0115725386999992005011614514+44017-082800AUTO +0183KP58 V0209999V002612200019N9999999N1-01201-01801999999ADDMW1001REMMET078KP58 161451Z AUTO VRB05KT M12/M18 RMK AO2 SLPNO T11171178 PWINO FZRANO TSNO /;EQDQ01+000000PRSWM2
0131725386999992005011615514+44017-082800AUTO +0183KP58 V0202801N003619999999N9999999N1-01201-01801999999ADDMW1001REMMET078KP58 161551Z AUTO 28007KT M12/M18 RMK AO2 SLPNO T11171178 PWINO FZRANO TSNO /;EQDQ01+000000PRSWM2Q02  00002PRCP06
0137725386999992005011616514+44017-082800AUTO +0183KP58 V0203001N004612200019N9999999N1-01101-01801103761ADDMA1103561999999MW1001REMMET085KP58 161651Z AUTO 30009KT M11/M18 A3058 RMK AO2 SLP376 T11111178 PWINO FZRANO TSNO /;EQDQ01+000000PRSWM2
0175725386999992005011617514+44017-082800AUTO +0183KP58 V0202801N003619999999N9999999N1-01101-01801103671ADDKA1999M-01111KA2999N-01171MA1103451999999MW1001REMMET097KP58 161751Z AUTO 28007KT M11/M18 A3055 RMK AO2 SLP367 T11111178 11111 21117 PWINO FZRANO TSNO /;EQDQ01+000000PRSWM2
0175725386999992005011618514+44017-082800AUTO +0183KP58 V0203001N005719999999N9999999N1-01101-01701103541ADDAA106000091MA1103321999999MW1001OC100771REMMET088KP58 161851Z AUTO 30011G15KT M11/M17 A3051 RMK AO2 SLP354 T11111172 PWINO FZRANO TSNO /;EQDQ01+000000PRSWM2Q02  00002PRCP06
0135725386999992005011619514+44017-082800AUTO +0183KP58 V0203001N004612200019N9999999N1-01101-01701103501ADDMA1103291999999MW1001REMMET083KP58 161951Z AUTO 30009KT M11/M17 A3050 RMK AO2 SLP350 T11111172 PWINO FZRANO TSNO;EQDQ01+000000PRSWM2
