0191725387999992005010100514+47450-087900AUTO +0186KP59 V0203601N010819999999N9999999N1-00701-01001101961ADDAA106000091MA1101831999999MW1001OC101341REMMET104KP59 010051Z AUTO 36021G26KT M07/M10 A3007 RMK AO2 PK WND 36031/0023 SLP196 T10721100 PWINO FZRANO TSNO;EQDQ01+000000PRSWM2Q02  00002PRCP06
0171725387999992005010101514+47450-087900AUTO +0186KP59 V0200101N010312200019N9999999N1-00701-01001102141ADDMA1102001999999MW1001OC101341REMMET111KP59 010151Z AUTO 01020G26KT M07/M10 A3012 RMK AO2 PK WND 36027/0107 PRESRR SLP214 T10721100 PWINO FZRANO TSNO;EQDQ01+000000PRSWM2
0166725387999992005010102514+47450-087900AUTO +0186KP59 V0200101N009312200019N9999999N1-00701-00901102331ADDMA1102201999999MD1110591+9999MW1001OC101131REMMET092KP59 010251Z AUTO 01018G22KT M07/M09 A3018 RMK AO2 SLP233 T10671094 51059 PWINO FZRANO TSNO;EQDQ01+000000PRSWM2
0151725387999992005010103514+47450-087900AUTO +0186KP59 V0200101N008719999999N9999999N1-00601-00901102531ADDMA1102401999999MW1001REMMET083KP59 010351Z AUTO 01017KT M06/M09 A3024 RMK AO2 SLP253 T10611094 PWINO FZRANO TSNO;EQDQ01+000000PRSWM2Q02  00002PRCP06
0200725387999992005010104514+47450-087900AUTO +0186KP59 V0200301N010819999999N9999999N1-00601-00801102621ADDKA1999M+00611KA2999N-00781MA1102471999999MW1001OC101391REMMET114KP59 010451Z AUTO 03021G27KT M06/M08 A3026 RMK AO2 PK WND 03027/0451 SLP262 T10611083 400611078 PWINO FZRANO TSNO;EQDQ01+000000PRSWM2
0222725387999992005010105514+47450-087900AUTO +0186KP59 V0200401N009319999999N9999999N1-00701-00901102801ADDKA1999M-00561KA2999N-00781MA1102641999999MD1110461+9999MW1001OC101181REMMET122KP59 010551Z AUTO 04018G23KT M07/M09 A3031 RMK AO2 PK WND 04028/0452 SLP280 T10671089 11056 21078 51046 PWINO FZRANO TSNO;EQDQ01+000000PRSWM2
0173725387999992005010106514+47450-087900AUTO +0186KP59 V0200401N007719999999N9999999N1-00701-01001102951ADDAA106000091MA1102781999999MW1001OC101031REMMET086KP59 010651Z AUTO 04015G20KT M07/M10 A3035 RMK AO2 SLP295 T10671100 PWINO FZRANO TSNO;EQDQ01+000000PRSWM2Q02  00002PRCP06
0146725387999992005010107514+47450-087900AUTO +0186KP59 V0200401N005712200019N9999999N1-00701-01101103131ADDMA1102981999999MW1001OC100871REMMET086KP59 010751Z AUTO 04011G17KT M07/M11 A3041 RMK AO2 SLP313 T10671106 PWINO FZRANO TSNO;EQDQ01+000000PRSWM2
0166725387999992005010108514+47450-087900AUTO +0186KP59 V0200401N007212200019N9999999N1-00701-01001103181ADDMA1103011999999MD1110351+9999MW1001OC100931REMMET092KP59 010851Z AUTO 04014G18KT M07/M10 A3042 RMK AO2 SLP318 T10671100 51035 PWINO FZRANO TSNO;EQDQ01+000000PRSWM2
0151725387999992005010109514+47450-087900AUTO +0186KP59 V0200501N007219999999N9999999N1-00701-00901103331ADDMA1103151999999MW1001REMMET083KP59 010951Z AUTO 05014KT M07/M09 A3046 RMK AO2 SLP333 T10671094 PWINO FZRANO TSNO;EQDQ01+000000PRSWM2Q02  00002PRCP06
0146725387999992005010110514+47450-087900AUTO +0186KP59 V0200601N007712200019N9999999N1-00701-01001103451ADDMA1103251999999MW1001OC101031REMMET086KP59 011051Z AUTO 06015G20KT M07/M10 A3049 RMK AO2 SLP345 T10721100 PWINO FZRANO TSNO;EQDQ01+000000PRSWM2
0237725387999992005010111514+47450-087900AUTO +0186KP59 V0200501N007219999999N9999999N1-00701-01101103601ADDAA124000591KA1999M-00671KA2999N-00721MA1103421999999MD1310391+9999MW1001OC100981REMMET110KP59 011151Z AUTO 05014G19KT M07/M11 A3054 RMK AO2 SLP360 70002 T10721106 11067 21072 53039 PWINO FZRANO TSNO;EQDQ01+000000PRSWM2Q02  00058PRCP24
0176725387999992005010112514+47450-087900AUTO +0186KP59 V0200501N004119999999N9999999N1-00701-01101103741ADDAA106000091MA1103561999999MD1999999+0001MW1001REMMET083KP59 011251Z AUTO 05008KT M07/M11 A3058 RMK AO2 SLP374 T10721106 PWINO FZRANO TSNO;EQDQ01+000000PRSWM2Q02  00002PRCP06
0135725387999992005010113514+47450-087900AUTO +0186KP59 V0200701N006212200019N9999999N1-00801-01101103681ADDMA1103491999999MW1001REMMET083KP59 011351Z AUTO 07012KT M08/M11 A3056 RMK AO2 SLP368 T10781111 PWINO FZRANO TSNO;EQDQ01+000000PRSWM2
0155725387999992005010114514+47450-087900AUTO +0186KP59 V0200801N004112200019N9999999N1-00801-01101103841ADDMA1103661999999MD1310231+9999MW1001REMMET089KP59 011451Z AUTO 08008KT M08/M11 A3061 RMK AO2 SLP384 T10781111 53023 PWINO FZRANO TSNO;EQDQ01+000000PRSWM2
0162725387999992005010115514+47450-087900AUTO +0186KP59 V0200701N005119999999N9999999N1-00801-01101103851ADDMA1103661999999MW1001OC100771REMMET086KP59 011551Z AUTO 07010G15KT M08/M11 A3061 RMK AO2 SLP385 T10781111 PWINO FZRANO TSNO;EQDQ01+000000PRSWM2Q02  00002PRCP06
0135725387999992005010116514+47450-087900AUTO +0186KP59 V0200801N003112200019N9999999N1-00801-01101103941ADDMA1103761999999MW1001REMMET083KP59 011651Z AUTO 08006KT M08/M11 A3064 RMK AO2 SLP394 T10781111 PWINO FZRANO TSNO;EQDQ01+000000PRSWM2
0186725387999992005010117514+47450-087900FM-16+0186KP59 V02099999999999999999N9999999N1+99999+99999103901ADDKA1999M-00071KA2999N-00781MD1010061+9999MW1001REMMET109KP59 011751Z AUTO 11007KT 080V150 M08/M12 A3063 RMK AO2 SLP390 T10781117 11072 21078 50006 PWINO FZRANO TSNO;EQDQ01+000000PRSWM2
0173725387999992005010118514+47450-087900AUTO +0186KP59 V0200901N005719999999N9999999N1-00801-01101103831ADDAA106000091MA1103621999999MW1001OC100771REMMET086KP59 011851Z AUTO 09011G15KT M08/M11 A3060 RMK AO2 SLP383 T10781111 PWINO FZRANO TSNO;EQDQ01+000000PRSWM2Q02  00002PRCP06
0146725387999992005010119514+47450-087900AUTO +0186KP59 V0209999V003112200019N9999999N1-00801-01201103771ADDMA1103591999999MW1001OC100771REMMET086KP59 011951Z AUTO VRB06G15KT M08/M12 A3059 RMK AO2 SLP377 T10781117 PWINO FZRANO TSNO;EQDQ01+000000PRSWM2
0155725387999992005010120514+47450-087900AUTO +0186KP59 V0209999V002612200019N9999999N1-00801-01201103791ADDMA1103591999999MD1510101+9999MW1001REMMET089KP59 012051Z AUTO VRB05KT M08/M12 A3059 RMK AO2 SLP379 T10781117 55010 PWINO FZRANO TSNO;EQDQ01+000000PRSWM2
0151725387999992005010121514+47450-087900AUTO +0186KP59 V0209999V002619999999N9999999N1-00701-01201103701ADDMA1103521999999MW1001REMMET083KP59 012151Z AUTO VRB05KT M07/M12 A3057 RMK AO2 SLP370 T10721117 PWINO FZRANO TSNO;EQDQ01+000000PRSWM2Q02  00002PRCP06
0135725387999992005010122514+47450-087900AUTO +0186KP59 V0201201N003612200019N9999999N1-00701-01101103581ADDMA1103391999999MW1001REMMET083KP59 012251Z AUTO 12007KT M07/M11 A3053 RMK AO2 SLP358 T10671106 PWINO FZRANO TSNO;EQDQ01+000000PRSWM2
0193725387999992005010123514+47450-087900AUTO +0186KP59 V0201501N004119999999N9999999N1-00701-01001103511ADDKA1999M-00671KA2999N-00781MA1103321999999MD1610271+9999MW1001REMMET101KP59 012351Z AUTO 15008KT M07/M10 A3051 RMK AO2 SLP351 T10671100 11067 21078 56027 PWINO FZRANO TSNO;EQDQ01+000000PRSWM2
0162725387999992005010200514+47450-087900AUTO +0186KP59 V0201401N003619999999N9999999N1-00601-00901103391ADDAA106000091MA1103221999999MW1001REMMET083KP59 020051Z AUTO 14007KT M06/M09 A3048 RMK AO2 SLP339 T10561094 PWINO FZRANO TSNO;EQDQ01+000000PRSWM2Q02  00002PRCP06
0128725387999992005010201514+47450-087900FM-16+0186KP59 V02099999999992200019N9999999N1+99999+99999103201ADDMW1001REMMET091KP59 020151Z AUTO 14007KT 100V170 M04/M09 A3042 RMK AO2 SLP320 T10441089 PWINO FZRANO TSNO;EQDQ01+000000PRSWM2
0166725387999992005010202514+47450-087900AUTO +0186KP59 V0201501N004612200019N9999999N1-00401-00701102961ADDMA1102781999999MD1810531+9999MW1001OC100821REMMET092KP59 020251Z AUTO 15009G16KT M04/M07 A3035 RMK AO2 SLP296 T10441072 58053 PWINO FZRANO TSNO;EQDQ01+000000PRSWM2
0179725387999992005010203514+47450-087900AUTO +0186KP59 V0201501N005719999999N9999999N1-00501-00701102841ADDAA101001391MA1102681999999MW1001OC100981REMMET092KP59 020351Z AUTO 15011G19KT M05/M07 A3032 RMK AO2 SLP284 P0005 T10501067 PWINO FZRANO TSNO;EQDQ01+000000PRSWM2Q02  00002PRCP06
0184725387999992005010204514+47450-087900FM-16+0186KP59 V02099999999999999999N9999999N1+99999+99999102731ADDAA101000591KA1999M-00391KA2999N-00781MW1001REMMET110KP59 020451Z AUTO 16008G18KT 130V220 M04/M07 A3028 RMK AO2 SLP273 P0002 T10441067 410391078 PWINO FZRANO TSNO;EQDQ01+000000PRSWM2
0254725387999992005010205514+47450-087900AUTO +0186KP59 V0201601N005719999999N9999999N1-00401-00501102551ADDAA101002091AA206003891KA1999M-00391KA2999N-00671MA1102371999999MD1810401+9999MW1001OC101231REMMET116KP59 020551Z AUTO 16011G24KT M04/M05 A3023 RMK AO2 SLP255 P0008 60015 T10391050 11039 21067 58040 PWINO FZRANO TSNO;EQDQ01+000000PRSWM2Q02  00388PRCP06
0145725387999992005010207514+47450-087900FM-16+0186KP59 V02099999999999999999N9999999N1+99999+99999102341ADDAA101004391MW1001REMMET097KP59 020751Z AUTO 15007KT 090V180 M03/M04 A3017 RMK AO2 SLP234 P0017 T10331044 PWINO FZRANO TSNO;EQDQ01+000000PRSWM2
0200725387999992005010208514+47450-087900AUTO +0186KP59 V0201501N003619999999N9999999N1-00301-00401102181ADDAA101001591AA203009991MA1102001999999MD1610361+9999MW1001OC100771REMMET104KP59 020851Z AUTO 15007G15KT M03/M04 A3012 RMK AO2 SLP218 P0006 60039 T10331044 56036 PWINO FZRANO TSNO;EQDQ01+000000PRSWM2
0168725387999992005010209514+47450-087900AUTO +0186KP59 V0201601N004119999999N9999999N1-00201-00401102001ADDAA101000591MA1101861999999MW1001REMMET089KP59 020951Z AUTO 16008KT M02/M04 A3008 RMK AO2 SLP200 P0002 T10221039 PWINO FZRANO TSNO;EQDQ01+000000PRSWM2Q02  00002PRCP06
0163725387999992005010210514+47450-087900AUTO +0186KP59 V0201801N004119999999N9999999N1-00201-00301101841ADDAA101000391MA1101691999999MW1001OC100771REMMET092KP59 021051Z AUTO 18008G15KT M02/M03 A3003 RMK AO2 SLP184 P0001 T10171028 PWINO FZRANO TSNO;EQDQ01+000000PRSWM2
0276725387999992005010211514+47450-087900AUTO +0186KP59 V0201901N003619999999N9999999N1-00101-00201101801ADDAA101000391AA206010991AA324014791KA1999M-00111KA2999N-00391MA1101661999999MD1610361+9999MW1001REMMET119KP59 021151Z AUTO 19007KT M01/M02 A3002 RMK AO2 SLP180 P0001 60043 70058 T10111022 11011 21039 56036 PWINO FZRANO TSNO;EQDQ01+000000PRSWM2Q02  01098PRCP06Q03  01478PRCP24
0181725387999992005010212514+47450-087900AUTO +0186KP59 V0202201N003119999999N9999999N1-00101-00201101791ADDMA1101661999999MD1999999+0001MW1001REMMET083KP59 021251Z AUTO 22006KT M01/M02 A3002 RMK AO2 SLP179 T10061022 PWINO FZRANO TSNO;EQDQ01+000000PRSWM2Q02  00002PRCP06Q03  00002PRCP06
0135725387999992005010213514+47450-087900AUTO +0186KP59 V0209999V002612200019N9999999N1-00101-00301101781ADDMA1101661999999MW1001REMMET083KP59 021351Z AUTO VRB05KT M01/M03 A3002 RMK AO2 SLP178 T10111028 PWINO FZRANO TSNO;EQDQ01+000000PRSWM2
0148725387999992005010214514+47450-087900FM-16+0186KP59 V02099999999992200019N9999999N1+99999+99999101831ADDMD1310041+9999MW1001REMMET097KP59 021451Z AUTO 28007KT 240V320 M02/M03 A3003 RMK AO2 SLP183 T10171033 53004 PWINO FZRANO TSNO;EQDQ01+000000PRSWM2
0157725387999992005010215514+47450-087900FM-16+0186KP59 V0209999V002619999999N9999999N1-00101-00301101851ADDMA1101691999999MW1001REMMET089SPECI KP59 021551Z AUTO VRB05KT M01/M03 A3003 RMK AO2 SLP185 T10111033 PWINO FZRANO TSNO;EQDQ01+000000PRSWM2Q02  00002PRCP06
0162725387999992005010216514+47450-087900AUTO +0186KP59 V0209999V003119999999N9999999N1+00001-00201101841ADDAA101000391MA1101731999999MW1001OC100721REMMET091KP59 021651Z AUTO VRB06G14KT 00/M02 A3004 RMK AO2 SLP184 P0001 T00001022 PWINO FZRANO TSNO;EQDQ01+000000PRSWM2
0206725387999992005010217514+47450-087900FM-16+0186KP59 V02099999999999999999N9999999N1+99999+99999101801ADDAA106000391KA1999M+00001KA2999N-00171MD1810011+9999MW1001REMMET118KP59 021751Z AUTO 30008G17KT 240V330 M01/M04 A3002 RMK AO2 SLP180 60001 T10061039 10000 21017 58001 PWINO FZRANO TSNO;EQDQ01+000000PRSWM2
0147725387999992005010218514+47450-087900FM-16+0186KP59 V02099999999999999999N9999999N1+99999+99999101831ADDMW1001REMMET094KP59 021851Z AUTO 30012G18KT 270V340 M01/M04 A3003 RMK AO2 SLP183 T10111044 PWINO FZRANO TSNO;EQDQ01+000000PRSWM2Q02  00002PRCP06
0131725387999992005010219514+47450-087900FM-16+0186KP59 V02099999999992200019N9999999N1+99999+99999101901ADDMW1001REMMET094KP59 021951Z AUTO 30009G24KT 260V340 M02/M06 A3005 RMK AO2 SLP190 T10221061 PWINO FZRANO TSNO;EQDQ01+000000PRSWM2
0166725387999992005010220514+47450-087900AUTO +0186KP59 V0203001N004112200019N9999999N1-00201-00701101991ADDMA1101861999999MD1310171+9999MW1001OC101081REMMET092KP59 022051Z AUTO 30008G21KT M02/M07 A3008 RMK AO2 SLP199 T10221067 53017 PWINO FZRANO TSNO;EQDQ01+000000PRSWM2
0165725387999992005010221514+47450-087900FM-16+0186KP59 V02099999999999999999N9999999N1+99999+99999102061ADDMW1001REMMET112KP59 022151Z AUTO 29011G21KT 260V330 M03/M07 A3010 RMK AO2 PK WND 31028/2118 SLP206 T10281067 PWINO FZRANO TSNO;EQDQ01+000000PRSWM2Q02  00002PRCP06
0131725387999992005010222514+47450-087900FM-16+0186KP59 V02099999999992200019N9999999N1+99999+99999102171ADDMW1001REMMET094KP59 022251Z AUTO 31011G25KT 260V330 M03/M08 A3013 RMK AO2 SLP217 T10281078 PWINO FZRANO TSNO;EQDQ01+000000PRSWM2
0221725387999992005010223514+47450-087900AUTO +0186KP59 V0203201N006219999999N9999999N1-00301-00801102231ADDKA1999M-00061KA2999N-00331MA1102101999999MD1110241+9999MW1001OC101391REMMET121KP59 022351Z AUTO 32012G27KT M3/M08 A3015 RMK AO2 PK WND 33027/2344 SLP223 T10331078 11006 21033 51024 PWINO FZRANO TSNO;EQDQ01+000000PRSWM2
0191725387999992005010300514+47450-087900AUTO +0186KP59 V0203201N010819999999N9999999N1-00301-00801102291ADDAA106000091MA1102171999999MW1001OC101391REMMET104KP59 030051Z AUTO 32021G27KT M03/M08 A3017 RMK AO2 PK WND 33027/0051 SLP229 T10331078 PWINO FZRANO TSNO;EQDQ01+000000PRSWM2Q02  00002PRCP06
0164725387999992005010301514+47450-087900AUTO +0186KP59 V0203101N007712200019N9999999N1-00501-01001102391ADDMA1102241999999MW1001OC101231REMMET104KP59 030151Z AUTO 31015G24KT M05/M10 A3019 RMK AO2 PK WND 31030/0059 SLP239 T10501100 PWINO FZRANO TSNO;EQDQ01+000000PRSWM2
0184725387999992005010302514+47450-087900AUTO +0186KP59 V0203201N010312200019N9999999N1-00501-00901102461ADDMA1102301999999MD1310211+9999MW1001OC101341REMMET110KP59 030251Z AUTO 32020G26KT M05/M09 A3021 RMK AO2 PK WND 33030/0239 SLP246 T10501094 53021 PWINO FZRANO TSNO;EQDQ01+000000PRSWM2
0180725387999992005010303514+47450-087900AUTO +0186KP59 V0203201N010819999999N9999999N1-00601-01001102511ADDMA1102371999999MW1001OC101391REMMET104KP59 030351Z AUTO 32021G27KT M06/M10 A3023 RMK AO2 PK WND 33030/0310 SLP251 T10561100 PWINO FZRANO TSNO;EQDQ01+000000PRSWM2Q02  00002PRCP06
0200725387999992005010304514+47450-087900AUTO +0186KP59 V0203301N009819999999N9999999N1-00601-01001102621ADDKA1999M+00001KA2999N-00611MA1102471999999MW1001OC101541REMMET114KP59 030451Z AUTO 33019G30KT M06/M10 A3026 RMK AO2 PK WND 34031/0426 SLP262 T10611100 400001061 PWINO FZRANO TSNO;EQDQ01+000000PRSWM2
0222725387999992005010305514+47450-087900AUTO +0186KP59 V0203201N006219999999N9999999N1-00701-01001102701ADDKA1999M-00331KA2999N-00671MA1102541999999MD1310231+9999MW1001OC101231REMMET122KP59 030551Z AUTO 32012G24KT M07/M10 A3028 RMK AO2 PK WND 32026/0522 SLP270 T10671100 11033 21067 53023 PWINO FZRANO TSNO;EQDQ01+000000PRSWM2
0173725387999992005010306514+47450-087900AUTO +0186KP59 V0203101N004119999999N9999999N1-00701-01001102741ADDAA106000091MA1102571999999MW1001OC100821REMMET086KP59 030651Z AUTO 31008G16KT M07/M10 A3029 RMK AO2 SLP274 T10721100 PWINO FZRANO TSNO;EQDQ01+000000PRSWM2Q02  00002PRCP06
0146725387999992005010307514+47450-087900AUTO +0186KP59 V0203301N008712200019N9999999N1-00701-00901102781ADDMA1102641999999MW1001OC101031REMMET086KP59 030751Z AUTO 33017G20KT M07/M09 A3031 RMK AO2 SLP278 T10721094 PWINO FZRANO TSNO;EQDQ01+000000PRSWM2
0166725387999992005010308514+47450-087900AUTO +0186KP59 V0203401N008212200019N9999999N1-00801-00901102831ADDMA1102681999999MD1310111+9999MW1001OC101081REMMET092KP59 030851Z AUTO 34016G21KT M08/M09 A3032 RMK AO2 SLP283 T10781094 53011 PWINO FZRANO TSNO;EQDQ01+000000PRSWM2
0151725387999992005010309514+47450-087900AUTO +0186KP59 V0203201N005719999999N9999999N1-00901-01201102861ADDMA1102681999999MW1001REMMET083KP59 030951Z AUTO 32011KT M09/M12 A3032 RMK AO2 SLP286 T10891117 PWINO FZRANO TSNO;EQDQ01+000000PRSWM2Q02  00002PRCP06
0135725387999992005010310514+47450-087900AUTO +0186KP59 V0203201N005712200019N9999999N1-00901-01201102871ADDMA1102711999999MW1001REMMET083KP59 031051Z AUTO 32011KT M09/M12 A3033 RMK AO2 SLP287 T10941122 PWINO FZRANO TSNO;EQDQ01+000000PRSWM2
0226725387999992005010311514+47450-087900AUTO +0186KP59 V0203501N006219999999N9999999N1-00901-01101102901ADDAA124000391KA1999M-00671KA2999N-00941MA1102711999999MD1310051+9999MW1001REMMET107KP59 031151Z AUTO 35012KT M09/M11 A3033 RMK AO2 SLP290 70001 T10891111 11067 21094 53005 PWINO FZRANO TSNO;EQDQ01+000000PRSWM2Q02  00038PRCP24
0176725387999992005010312514+47450-087900AUTO +0186KP59 V0203301N006219999999N9999999N1-00901-01101102921ADDAA106000091MA1102741999999MD1999999+0001MW1001REMMET083KP59 031251Z AUTO 33012KT M09/M11 A3034 RMK AO2 SLP292 T10891111 PWINO FZRANO TSNO;EQDQ01+000000PRSWM2Q02  00002PRCP06
0135725387999992005010313514+47450-087900AUTO +0186KP59 V0203101N003112200019N9999999N1-01001-01301102961ADDMA1102781999999MW1001REMMET083KP59 031351Z AUTO 31006KT M10/M13 A3035 RMK AO2 SLP296 T11001133 PWINO FZRANO TSNO;EQDQ01+000000PRSWM2
0155725387999992005010314514+47450-087900AUTO +0186KP59 V0203201N004612200019N9999999N1-00901-01201102991ADDMA1102811999999MD1310081+9999MW1001REMMET089KP59 031451Z AUTO 32009KT M09/M12 A3036 RMK AO2 SLP299 T10941122 53008 PWINO FZRANO TSNO;EQDQ01+000000PRSWM2
0157725387999992005010315514+47450-087900FM-16+0186KP59 V0203301N007219999999N9999999N1-00901-01201103061ADDMA1102881999999MW1001REMMET089SPECI KP59 031551Z AUTO 33014KT M09/M12 A3038 RMK AO2 SLP306 T10941122 PWINO FZRANO TSNO;EQDQ01+000000PRSWM2Q02  00002PRCP06
0146725387999992005010316514+47450-087900AUTO +0186KP59 V0203301N006712200019N9999999N1-00901-01301103041ADDMA1102841999999MW1001OC100871REMMET086KP59 031651Z AUTO 33013G17KT M09/M13 A3037 RMK AO2 SLP304 T10941128 PWINO FZRANO TSNO;EQDQ01+000000PRSWM2
0204725387999992005010317514+47450-087900AUTO +0186KP59 V0203301N008219999999N9999999N1-00901-01201102951ADDKA1999M-00891KA2999N-01061MA1102741999999MD1810051+9999MW1001OC101031REMMET104KP59 031751Z AUTO 33016G20KT M09/M12 A3034 RMK AO2 SLP295 T10941117 11089 21106 58005 PWINO FZRANO TSNO;EQDQ01+000000PRSWM2
0173725387999992005010318514+47450-087900AUTO +0186KP59 V0203201N007719999999N9999999N1-01001-01201102941ADDAA106000091MA1102741999999MW1001OC101031REMMET086KP59 031851Z AUTO 32015G20KT M10/M12 A3034 RMK AO2 SLP294 T11001122 PWINO FZRANO TSNO;EQDQ01+000000PRSWM2Q02  00002PRCP06
0135725387999992005010319514+47450-087900AUTO +0186KP59 V0203101N004112200019N9999999N1-01001-01301102941ADDMA1102741999999MW1001REMMET083KP59 031951Z AUTO 31008KT M10/M13 A3034 RMK AO2 SLP294 T11001133 PWINO FZRANO TSNO;EQDQ01+000000PRSWM2
0155725387999992005010320514+47450-087900AUTO +0186KP59 V0203301N004612200019N9999999N1-01001-01301102951ADDMA1102741999999MD1510011+9999MW1001REMMET089KP59 032051Z AUTO 33009KT M10/M13 A3034 RMK AO2 SLP295 T11001128 55001 PWINO FZRANO TSNO;EQDQ01+000000PRSWM2
0151725387999992005010321514+47450-087900AUTO +0186KP59 V0209999V003119999999N9999999N1-01001-01301102951ADDMA1102741999999MW1001REMMET083KP59 032151Z AUTO VRB06KT M10/M13 A3034 RMK AO2 SLP295 T11001128 PWINO FZRANO TSNO;EQDQ01+000000PRSWM2Q02  00002PRCP06
0135725387999992005010322514+47450-087900AUTO +0186KP59 V0209999V002612200019N9999999N1-00901-01201102981ADDMA1102781999999MW1001REMMET083KP59 032251Z AUTO VRB05KT M09/M12 A3035 RMK AO2 SLP298 T10941122 PWINO FZRANO TSNO;EQDQ01+000000PRSWM2
0193725387999992005010323514+47450-087900AUTO +0186KP59 V0203301N007219999999N9999999N1-00901-01101102951ADDKA1999M-00831KA2999N-01061MA1102741999999MD1810011+9999MW1001REMMET101KP59 032351Z AUTO 33014KT M09/M11 A3034 RMK AO2 SLP295 T10891111 11083 21106 58001 PWINO FZRANO TSNO;EQDQ01+000000PRSWM2
0162725387999992005010400514+47450-087900AUTO +0186KP59 V0203501N005119999999N9999999N1-00801-01101102931ADDAA106000091MA1102741999999MW1001REMMET083KP59 040051Z AUTO 35010KT M08/M11 A3034 RMK AO2 SLP293 T10831106 PWINO FZRANO TSNO;EQDQ01+000000PRSWM2Q02  00002PRCP06
0135725387999992005010401514+47450-087900AUTO +0186KP59 V0203401N004112200019N9999999N1-00901-01201102941ADDMA1102741999999MW1001REMMET083KP59 040151Z AUTO 34008KT M09/M12 A3034 RMK AO2 SLP294 T10891117 PWINO FZRANO TSNO;EQDQ01+000000PRSWM2
0155725387999992005010402514+47450-087900AUTO +0186KP59 V0209999V002612200019N9999999N1-00901-01201102951ADDMA1102741999999MD1310011+9999MW1001REMMET089KP59 040251Z AUTO VRB05KT M09/M12 A3034 RMK AO2 SLP295 T10891117 53001 PWINO FZRANO TSNO;EQDQ01+000000PRSWM2
0151725387999992005010403514+47450-087900AUTO +0186KP59 V0209999V002119999999N9999999N1-00901-01201102921ADDMA1102711999999MW1001REMMET083KP59 040351Z AUTO VRB04KT M09/M12 A3033 RMK AO2 SLP292 T10891117 PWINO FZRANO TSNO;EQDQ01+000000PRSWM2Q02  00002PRCP06
0171725387999992005010404514+47450-087900AUTO +0186KP59 V0202401N002119999999N9999999N1-00901-01201102921ADDKA1999M-00611KA2999N-01061MA1102711999999MW1001REMMET093KP59 040451Z AUTO 24004KT M09/M12 A3033 RMK AO2 SLP292 T10891117 410611106 PWINO FZRANO TSNO;EQDQ01+000000PRSWM2
0193725387999992005010405514+47450-087900AUTO +0186KP59 V0202301N002619999999N9999999N1-00901-01101102901ADDKA1999M-00781KA2999N-00941MA1102711999999MD1610051+9999MW1001REMMET101KP59 040551Z AUTO 23005KT M09/M11 A3033 RMK AO2 SLP290 T10891111 11078 21094 56005 PWINO FZRANO TSNO;EQDQ01+000000PRSWM2
0162725387999992005010406514+47450-087900AUTO +0186KP59 V0209999V001519999999N9999999N1-00901-01101102851ADDAA106000091MA1102641999999MW1001REMMET083KP59 040651Z AUTO VRB03KT M09/M11 A3031 RMK AO2 SLP285 T10891111 PWINO FZRANO TSNO;EQDQ01+000000PRSWM2Q02  00002PRCP06
0135725387999992005010407514+47450-087900AUTO +0186KP59 V0209999V002612200019N9999999N1-00801-01101102901ADDMA1102711999999MW1001REMMET083KP59 040751Z AUTO VRB05KT M08/M11 A3033 RMK AO2 SLP290 T10831106 PWINO FZRANO TSNO;EQDQ01+000000PRSWM2
0155725387999992005010408514+47450-087900AUTO +0186KP59 V0203101N002612200019N9999999N1-00701-00901102861ADDMA1102681999999MD1610041+9999MW1001REMMET089KP59 040851Z AUTO 31005KT M07/M09 A3032 RMK AO2 SLP286 T10671094 56004 PWINO FZRANO TSNO;EQDQ01+000000PRSWM2
0147725387999992005010409514+47450-087900FM-16+0186KP59 V02099999999999999999N9999999N1+99999+99999102841ADDMW1001REMMET094KP59 040951Z AUTO 32007G19KT 270V340 M06/M08 A3031 RMK AO2 SLP284 T10611083 PWINO FZRANO TSNO;EQDQ01+000000PRSWM2Q02  00002PRCP06
0163725387999992005010410514+47450-087900AUTO +0186KP59 V0203201N003119999999N9999999N1-00701-00801102841ADDAA101000391MA1102641999999MW1001OC100721REMMET092KP59 041051Z AUTO 32006G14KT M07/M08 A3031 RMK AO2 SLP284 P0001 T10671083 PWINO FZRANO TSNO;EQDQ01+000000PRSWM2
0270725387999992005010411514+47450-087900AUTO +0186KP59 V0203301N006219999999N9999999N1-00601-00801102821ADDAA106000391AA224000391KA1999M-00561KA2999N-00891MA1102641999999MD1610021+9999MW1001OC100871REMMET116KP59 041151Z AUTO 33012G17KT M06/M08 A3031 RMK AO2 SLP282 60001 70001 T10611083 11056 21089 56002 PWINO FZRANO TSNO;EQDQ01+000000PRSWM2Q02  00038PRCP06Q03  00038PRCP24
0209725387999992005010412514+47450-087900AUTO +0186KP59 V0203301N005719999999N9999999N1-00601-00801102811ADDAA101000391MA1102641999999MD1999999+0001MW1001OC101031REMMET092KP59 041251Z AUTO 33011G20KT M06/M08 A3031 RMK AO2 SLP281 P0001 T10561083 PWINO FZRANO TSNO;EQDQ01+000000PRSWM2Q02  00002PRCP06Q03  00002PRCP06
0146725387999992005010413514+47450-087900AUTO +0186KP59 V0203301N007712200019N9999999N1-00601-00801102831ADDMA1102641999999MW1001OC101031REMMET086KP59 041351Z AUTO 33015G20KT M06/M08 A3031 RMK AO2 SLP283 T10561083 PWINO FZRANO TSNO;EQDQ01+000000PRSWM2
0204725387999992005010414514+47450-087900AUTO +0186KP59 V0203401N009819999999N9999999N1-00601-00801102881ADDAA103000391MA1102711999999MD1310051+9999MW1001REMMET095KP59 041451Z AUTO 34019KT M06/M08 A3033 RMK AO2 SLP288 60001 T10611083 53005 PWINO FZRANO TSNO;EQDQ01+000000PRSWM2Q02  00002PRCP03Q03  00008PRCP03
0168725387999992005010415514+47450-087900FM-16+0186KP59 V0203501N010319999999N9999999N1-00701-00901102971ADDMA1102781999999MW1001OC101181REMMET092SPECI KP59 041551Z AUTO 35020G23KT M07/M09 A3035 RMK AO2 SLP297 T10721094 PWINO FZRANO TSNO;EQDQ01+000000PRSWM2Q02  00002PRCP06
0135725387999992005010416514+47450-087900AUTO +0186KP59 V0203501N009812200019N9999999N1-00801-01101103021ADDMA1102811999999MW1001REMMET083KP59 041651Z AUTO 35019KT M08/M11 A3036 RMK AO2 SLP302 T10831111 PWINO FZRANO TSNO;EQDQ01+000000PRSWM2
0244725387999992005010417514+47450-087900AUTO +0186KP59 V0203401N009819999999N9999999N1-00901-01201103041ADDAA106000391KA1999M-00561KA2999N-00891MA1102841999999MD1110141+9999MW1001REMMET125KP59 041751Z AUTO 34019KT M09/M12 A3037 RMK AO2 PK WND 35027/1714 SLP304 60001 T10891117 11056 21089 51014 PWINO FZRANO TSNO;EQDQ01+000000PRSWM2Q02  00038PRCP06
0185725387999992005010418514+47450-087900AUTO +0186KP59 V0203501N010819999999N9999999N1-00901-01201103011ADDMA1102811999999MW1001REMMET101KP59 041851Z AUTO 35021KT M09/M12 A3036 RMK AO2 PK WND 35026/1757 SLP301 T10891122 PWINO FZRANO TSNO;EQDQ01+000000PRSWM2Q02  00002PRCP06Q03  00002PRCP06
0164725387999992005010419514+47450-087900AUTO +0186KP59 V0203601N010812200019N9999999N1-00901-01301103041ADDMA1102841999999MW1001OC101391REMMET104KP59 041951Z AUTO 36021G27KT M09/M13 A3037 RMK AO2 PK WND 35027/1951 SLP304 T10941128 PWINO FZRANO TSNO;EQDQ01+000000PRSWM2
0184725387999992005010420514+47450-087900AUTO +0186KP59 V0203501N009312200019N9999999N1-00901-01301103161ADDMA1102981999999MD1310131+9999MW1001OC101291REMMET110KP59 042051Z AUTO 35018G25KT M09/M13 A3041 RMK AO2 PK WND 35026/2008 SLP316 T10941128 53013 PWINO FZRANO TSNO;EQDQ01+000000PRSWM2
0151725387999992005010421514+47450-087900AUTO +0186KP59 V0203501N008219999999N9999999N1-00901-01301103241ADDMA1103051999999MW1001REMMET083KP59 042151Z AUTO 35016KT M09/M13 A3043 RMK AO2 SLP324 T10941128 PWINO FZRANO TSNO;EQDQ01+000000PRSWM2Q02  00002PRCP06
0146725387999992005010422514+47450-087900AUTO +0186KP59 V0203501N009812200019N9999999N1-00901-01201103311ADDMA1103121999999MW1001OC101181REMMET086KP59 042251Z AUTO 35019G23KT M09/M12 A3045 RMK AO2 SLP331 T10941122 PWINO FZRANO TSNO;EQDQ01+000000PRSWM2
0199725387999992005010423514+47450-087900FM-16+0186KP59 V0203501N009819999999N9999999N1-00901-01301103381ADDKA1999M-00831KA2999N-01001MA1103181999999MD1210221+9999MW1001REMMET107SPECI KP59 042351Z AUTO 35019KT M09/M13 A3047 RMK AO2 SLP338 T10941128 11083 21100 52022 PWINO FZRANO TSNO;EQDQ01+000000PRSWM2
0180725387999992005010500514+47450-087900AUTO +0186KP59 V0203601N009319999999N9999999N1-00901-01201103421ADDAA106000091MA1103221999999MW1001REMMET101KP59 050051Z AUTO 36018KT M09/M12 A3048 RMK AO2 PK WND 34026/2353 SLP342 T10941122 PWINO FZRANO TSNO;EQDQ01+000000PRSWM2Q02  00002PRCP06
0146725387999992005010501514+47450-087900AUTO +0186KP59 V0200101N009312200019N9999999N1-01001-01301103441ADDMA1103251999999MW1001OC101181REMMET086KP59 050151Z AUTO 01018G23KT M10/M13 A3049 RMK AO2 SLP344 T11001133 PWINO FZRANO TSNO;EQDQ01+000000PRSWM2
0166725387999992005010502514+47450-087900AUTO +0186KP59 V0200201N008212200019N9999999N1-01001-01201103451ADDMA1103251999999MD1110061+9999MW1001OC101081REMMET092KP59 050251Z AUTO 02016G21KT M10/M12 A3049 RMK AO2 SLP345 T11001122 51006 PWINO FZRANO TSNO;EQDQ01+000000PRSWM2
0162725387999992005010503514+47450-087900AUTO +0186KP59 V0200201N006219999999N9999999N1-01101-01301103481ADDMA1103291999999MW1001OC100981REMMET086KP59 050351Z AUTO 02012G19KT M11/M13 A3050 RMK AO2 SLP348 T11061133 PWINO FZRANO TSNO;EQDQ01+000000PRSWM2Q02  00002PRCP06
0182725387999992005010504514+47450-087900AUTO +0186KP59 V0200101N007219999999N9999999N1-01101-01301103471ADDKA1999M-00561KA2999N-01061MA1103251999999MW1001OC100981REMMET096KP59 050451Z AUTO 01014G19KT M11/M13 A3049 RMK AO2 SLP347 T11061128 410561106 PWINO FZRANO TSNO;EQDQ01+000000PRSWM2
0204725387999992005010505514+47450-087900AUTO +0186KP59 V0200301N008219999999N9999999N1-01101-01301103521ADDKA1999M-00941KA2999N-01111MA1103321999999MD1310061+9999MW1001OC101081REMMET104KP59 050551Z AUTO 03016G21KT M11/M13 A3051 RMK AO2 SLP352 T11061133 11094 21111 53006 PWINO FZRANO TSNO;EQDQ01+000000PRSWM2
0173725387999992005010506514+47450-087900AUTO +0186KP59 V0200201N005719999999N9999999N1-01101-01401103491ADDAA106000091MA1103291999999MW1001OC100871REMMET086KP59 050651Z AUTO 02011G17KT M11/M14 A3050 RMK AO2 SLP349 T11061139 PWINO FZRANO TSNO;EQDQ01+000000PRSWM2Q02  00002PRCP06
0135725387999992005010507514+47450-087900AUTO +0186KP59 V0200101N006712200019N9999999N1-01101-01301103501ADDMA1103291999999MW1001REMMET083KP59 050751Z AUTO 01013KT M11/M13 A3050 RMK AO2 SLP350 T11061133 PWINO FZRANO TSNO;EQDQ01+000000PRSWM2
0166725387999992005010508514+47450-087900AUTO +0186KP59 V0200301N006712200019N9999999N1-01001-01301103511ADDMA1103321999999MD1510011+9999MW1001OC100981REMMET092KP59 050851Z AUTO 03013G19KT M10/M13 A3051 RMK AO2 SLP351 T11001133 55001 PWINO FZRANO TSNO;EQDQ01+000000PRSWM2
0151725387999992005010509514+47450-087900AUTO +0186KP59 V0200201N005119999999N9999999N1-01001-01301103491ADDMA1103291999999MW1001REMMET083KP59 050951Z AUTO 02010KT M10/M13 A3050 RMK AO2 SLP349 T11001133 PWINO FZRANO TSNO;EQDQ01+000000PRSWM2Q02  00002PRCP06
0135725387999992005010510514+47450-087900AUTO +0186KP59 V0203601N006212200019N9999999N1-01101-01401103551ADDMA1103321999999MW1001REMMET083KP59 051051Z AUTO 36012KT M11/M14 A3051 RMK AO2 SLP355 T11061144 PWINO FZRANO TSNO;EQDQ01+000000PRSWM2
0226725387999992005010511514+47450-087900AUTO +0186KP59 V0200101N005119999999N9999999N1-01001-01401103521ADDAA124000391KA1999M-01001KA2999N-01111MA1103321999999MD1010011+9999MW1001REMMET107KP59 051151Z AUTO 01010KT M10/M14 A3051 RMK AO2 SLP352 70001 T11001139 11100 21111 50001 PWINO FZRANO TSNO;EQDQ01+000000PRSWM2Q02  00038PRCP24
0187725387999992005010512514+47450-087900AUTO +0186KP59 V0200201N004119999999N9999999N1-01001-01301103491ADDAA106000091MA1103291999999MD1999999+0001MW1001OC100771REMMET086KP59 051251Z AUTO 02008G15KT M10/M13 A3050 RMK AO2 SLP349 T11001133 PWINO FZRANO TSNO;EQDQ01+000000PRSWM2Q02  00002PRCP06
0135725387999992005010513514+47450-087900AUTO +0186KP59 V0200101N005712200019N9999999N1-01001-01301103361ADDMA1103151999999MW1001REMMET083KP59 051351Z AUTO 01011KT M10/M13 A3046 RMK AO2 SLP336 T11001133 PWINO FZRANO TSNO;EQDQ01+000000PRSWM2
0155725387999992005010514514+47450-087900AUTO +0186KP59 V0200201N005112200019N9999999N1-00901-01301103491ADDMA1103291999999MD1510031+9999MW1001REMMET089KP59 051451Z AUTO 02010KT M09/M13 A3050 RMK AO2 SLP349 T10941133 55003 PWINO FZRANO TSNO;EQDQ01+000000PRSWM2
0151725387999992005010515514+47450-087900AUTO +0186KP59 V0200201N003619999999N9999999N1-00901-01301103421ADDMA1103221999999MW1001REMMET083KP59 051551Z AUTO 02007KT M09/M13 A3048 RMK AO2 SLP342 T10941133 PWINO FZRANO TSNO;EQDQ01+000000PRSWM2Q02  00002PRCP06
0135725387999992005010516514+47450-087900AUTO +0186KP59 V0203501N004112200019N9999999N1-00901-01301103401ADDMA1103181999999MW1001REMMET083KP59 051651Z AUTO 35008KT M09/M13 A3047 RMK AO2 SLP340 T10941128 PWINO FZRANO TSNO;EQDQ01+000000PRSWM2
0193725387999992005010517514+47450-087900AUTO +0186KP59 V0203601N004119999999N9999999N1-00901-01401103341ADDKA1999M-00941KA2999N-01001MA1103121999999MD1610161+9999MW1001REMMET101KP59 051751Z AUTO 36008KT M09/M14 A3045 RMK AO2 SLP334 T10941139 11094 21100 56016 PWINO FZRANO TSNO;EQDQ01+000000PRSWM2
0162725387999992005010518514+47450-087900AUTO +0186KP59 V0203301N006219999999N9999999N1-00901-01301103241ADDAA106000091MA1103011999999MW1001REMMET083KP59 051851Z AUTO 33012KT M09/M13 A3042 RMK AO2 SLP324 T10941133 PWINO FZRANO TSNO;EQDQ01+000000PRSWM2Q02  00002PRCP06
0135725387999992005010519514+47450-087900AUTO +0186KP59 V0203401N005712200019N9999999N1-00901-01301103111ADDMA1102881999999MW1001REMMET083KP59 051951Z AUTO 34011KT M09/M13 A3038 RMK AO2 SLP311 T10941128 PWINO FZRANO TSNO;EQDQ01+000000PRSWM2
0155725387999992005010520514+47450-087900AUTO +0186KP59 V0203501N004612200019N9999999N1-00901-01401103011ADDMA1102811999999MD1610311+9999MW1001REMMET089KP59 052051Z AUTO 35009KT M09/M14 A3036 RMK AO2 SLP301 T10941139 56031 PWINO FZRANO TSNO;EQDQ01+000000PRSWM2
0151725387999992005010521514+47450-087900AUTO +0186KP59 V0203501N004619999999N9999999N1-00901-01301102921ADDMA1102711999999MW1001REMMET083KP59 052151Z AUTO 35009KT M09/M13 A3033 RMK AO2 SLP292 T10941128 PWINO FZRANO TSNO;EQDQ01+000000PRSWM2Q02  00002PRCP06
0193725387999992005010523514+47450-087900AUTO +0186KP59 V0209999V002119999999N9999999N1-01001-01401102811ADDKA1999M-00891KA2999N-01001MA1102611999999MD1610211+9999MW1001REMMET101KP59 052351Z AUTO VRB04KT M10/M14 A3030 RMK AO2 SLP281 T11001139 11089 21100 56021 PWINO FZRANO TSNO;EQDQ01+000000PRSWM2
0162725387999992005010600514+47450-087900AUTO +0186KP59 V0203401N004619999999N9999999N1-00801-01201102741ADDAA106000091MA1102541999999MW1001REMMET083KP59 060051Z AUTO 34009KT M08/M12 A3028 RMK AO2 SLP274 T10831122 PWINO FZRANO TSNO;EQDQ01+000000PRSWM2Q02  00002PRCP06
0146725387999992005010601514+47450-087900AUTO +0186KP59 V0203301N003112200019N9999999N1-00801-01201102681ADDMA1102471999999MW1001OC100721REMMET086KP59 060151Z AUTO 33006G14KT M08/M12 A3026 RMK AO2 SLP268 T10831122 PWINO FZRANO TSNO;EQDQ01+000000PRSWM2
0155725387999992005010602514+47450-087900AUTO +0186KP59 V0203501N004612200019N9999999N1-00801-01201102521ADDMA1102341999999MD1810261+9999MW1001REMMET089KP59 060251Z AUTO 35009KT M08/M12 A3022 RMK AO2 SLP252 T10781122 58026 PWINO FZRANO TSNO;EQDQ01+000000PRSWM2
0151725387999992005010603514+47450-087900AUTO +0186KP59 V0209999V001519999999N9999999N1-00901-01301102411ADDMA1102201999999MW1001REMMET083KP59 060351Z AUTO VRB03KT M09/M13 A3018 RMK AO2 SLP241 T10941128 PWINO FZRANO TSNO;EQDQ01+000000PRSWM2Q02  00002PRCP06
0171725387999992005010604514+47450-087900AUTO +0186KP59 V0202401N003119999999N9999999N1-01301-01501102301ADDKA1999M-00781KA2999N-01281MA1102101999999MW1001REMMET093KP59 060451Z AUTO 24006KT M13/M15 A3015 RMK AO2 SLP230 T11281150 410781128 PWINO FZRANO TSNO;EQDQ01+000000PRSWM2
0193725387999992005010605514+47450-087900AUTO +0186KP59 V0202401N003619999999N9999999N1-01401-01701102191ADDKA1999M-00781KA2999N-01441MA1101961999999MD1610351+9999MW1001REMMET101KP59 060551Z AUTO 24007KT M14/M17 A3011 RMK AO2 SLP219 T11441167 11078 21144 56035 PWINO FZRANO TSNO;EQDQ01+000000PRSWM2
0162725387999992005010606514+47450-087900AUTO +0186KP59 V0202401N004119999999N9999999N1-01501-01701102111ADDAA106000091MA1101861999999MW1001REMMET083KP59 060651Z AUTO 24008KT M15/M17 A3008 RMK AO2 SLP211 T11501172 PWINO FZRANO TSNO;EQDQ01+000000PRSWM2Q02  00002PRCP06
0135725387999992005010607514+47450-087900AUTO +0186KP59 V0202301N005112200019N9999999N1-01601-01701102011ADDMA1101801999999MW1001REMMET083KP59 060751Z AUTO 23010KT M16/M17 A3006 RMK AO2 SLP201 T11561172 PWINO FZRANO TSNO;EQDQ01+000000PRSWM2
0155725387999992005010608514+47450-087900AUTO +0186KP59 V0202401N003112200019N9999999N1-01401-01601101921ADDMA1101691999999MD1610271+9999MW1001REMMET089KP59 060851Z AUTO 24006KT M14/M16 A3003 RMK AO2 SLP192 T11391161 56027 PWINO FZRANO TSNO;EQDQ01+000000PRSWM2
0151725387999992005010609514+47450-087900AUTO +0186KP59 V0209999V002619999999N9999999N1-01201-01501101771ADDMA1101561999999MW1001REMMET083KP59 060951Z AUTO VRB05KT M12/M15 A2999 RMK AO2 SLP177 T11221150 PWINO FZRANO TSNO;EQDQ01+000000PRSWM2Q02  00002PRCP06
0135725387999992005010610514+47450-087900AUTO +0186KP59 V0202201N003112200019N9999999N1-01201-01401101691ADDMA1101491999999MW1001REMMET083KP59 061051Z AUTO 22006KT M12/M14 A2997 RMK AO2 SLP169 T11171139 PWINO FZRANO TSNO;EQDQ01+000000PRSWM2
0193725387999992005010611514+47450-087900AUTO +0186KP59 V0202201N002619999999N9999999N1-01101-01301101671ADDKA1999M-01001KA2999N-01561MA1101461999999MD1610241+9999MW1001REMMET101KP59 061151Z AUTO 22005KT M11/M13 A2996 RMK AO2 SLP167 T11061128 11100 21156 56024 PWINO FZRANO TSNO;EQDQ01+000000PRSWM2
0176725387999992005010612514+47450-087900AUTO +0186KP59 V0209999C000019999999N9999999N1-00901-01201101611ADDAA106000091MA1101421999999MD1999999+0001MW1001REMMET083KP59 061251Z AUTO 00000KT M09/M12 A2995 RMK AO2 SLP161 T10941117 PWINO FZRANO TSNO;EQDQ01+000000PRSWM2Q02  00002PRCP06
0152725387999992005010613514+47450-087900AUTO +0186KP59 V0202301N002619999999N9999999N1-00901-01201101561ADDAA101000391MA1101351999999MW1001REMMET089KP59 061351Z AUTO 23005KT M09/M12 A2993 RMK AO2 SLP156 P0001 T10941117 PWINO FZRANO TSNO;EQDQ01+000000PRSWM2
0204725387999992005010614514+47450-087900AUTO +0186KP59 V0202501N002119999999N9999999N1-00901-01101101471ADDAA103000391MA1101291999999MD1810171+9999MW1001REMMET095KP59 061451Z AUTO 25004KT M09/M11 A2991 RMK AO2 SLP147 60001 T10891106 58017 PWINO FZRANO TSNO;EQDQ01+000000PRSWM2Q02  00002PRCP03Q03  00008PRCP03
0151725387999992005010615514+47450-087900AUTO +0186KP59 V0209999V002619999999N9999999N1-00801-01001101431ADDMA1101251999999MW1001REMMET083KP59 061551Z AUTO VRB05KT M08/M10 A2990 RMK AO2 SLP143 T10781100 PWINO FZRANO TSNO;EQDQ01+000000PRSWM2Q02  00002PRCP06
0152725387999992005010616514+47450-087900AUTO +0186KP59 V0209999V001519999999N9999999N1-00701-01001101361ADDAA101000391MA1101151999999MW1001REMMET089KP59 061651Z AUTO VRB03KT M07/M10 A2987 RMK AO2 SLP136 P0001 T10671100 PWINO FZRANO TSNO;EQDQ01+000000PRSWM2
0226725387999992005010617514+47450-087900AUTO +0186KP59 V0203101N003619999999N9999999N1-00601-01101101211ADDAA106000591KA1999M-00611KA2999N-01061MA1101021999999MD1810271+9999MW1001REMMET107KP59 061751Z AUTO 31007KT M06/M11 A2983 RMK AO2 SLP121 60002 T10611111 11061 21106 58027 PWINO FZRANO TSNO;EQDQ01+000000PRSWM2Q02  00058PRCP06
0178725387999992005010618514+47450-087900AUTO +0186KP59 V0203001N004119999999N9999999N1-00601-01101101091ADDMA1100881999999MW1001OC100721REMMET086KP59 061851Z AUTO 30008G14KT M06/M11 A2979 RMK AO2 SLP109 T10611106 PWINO FZRANO TSNO;EQDQ01+000000PRSWM2Q02  00002PRCP06Q03  00002PRCP06
0135725387999992005010619514+47450-087900AUTO +0186KP59 V0209999V003112200019N9999999N1-00601-01101101071ADDMA1100881999999MW1001REMMET083KP59 061951Z AUTO VRB06KT M06/M11 A2979 RMK AO2 SLP107 T10561111 PWINO FZRANO TSNO;EQDQ01+000000PRSWM2
0155725387999992005010620514+47450-087900AUTO +0186KP59 V0209999V003112200019N9999999N1-00601-01201101091ADDMA1100881999999MD1510121+9999MW1001REMMET089KP59 062051Z AUTO VRB06KT M06/M12 A2979 RMK AO2 SLP109 T10611117 55012 PWINO FZRANO TSNO;EQDQ01+000000PRSWM2
0151725387999992005010621514+47450-087900AUTO +0186KP59 V0209999V003119999999N9999999N1-00701-01201101111ADDMA1100911999999MW1001REMMET083KP59 062151Z AUTO VRB06KT M07/M12 A2980 RMK AO2 SLP111 T10671122 PWINO FZRANO TSNO;EQDQ01+000000PRSWM2Q02  00002PRCP06
0135725387999992005010622514+47450-087900AUTO +0186KP59 V0209999V002112200019N9999999N1-00701-01101101111ADDMA1100911999999MW1001REMMET083KP59 062251Z AUTO VRB04KT M07/M11 A2980 RMK AO2 SLP111 T10721111 PWINO FZRANO TSNO;EQDQ01+000000PRSWM2
0199725387999992005010623514+47450-087900FM-16+0186KP59 V0209999V002619999999N9999999N1-00801-01301101141ADDKA1999M-00501KA2999N-00831MA1100951999999MD1210051+9999MW1001REMMET107SPECI KP59 062351Z AUTO VRB05KT M08/M13 A2981 RMK AO2 SLP114 T10831128 11050 21083 52005 PWINO FZRANO TSNO;EQDQ01+000000PRSWM2
0162725387999992005010700514+47450-087900AUTO +0186KP59 V0202201N004119999999N9999999N1-01001-01301101161ADDAA106000091MA1100951999999MW1001REMMET083KP59 070051Z AUTO 22008KT M10/M13 A2981 RMK AO2 SLP116 T11001133 PWINO FZRANO TSNO;EQDQ01+000000PRSWM2Q02  00002PRCP06
0135725387999992005010701514+47450-087900AUTO +0186KP59 V0202301N004112200019N9999999N1-01001-01601101141ADDMA1100951999999MW1001REMMET083KP59 070151Z AUTO 23008KT M10/M16 A2981 RMK AO2 SLP114 T11001161 PWINO FZRANO TSNO;EQDQ01+000000PRSWM2
0155725387999992005010702514+47450-087900AUTO +0186KP59 V0202301N003112200019N9999999N1-01101-01701101151ADDMA1100951999999MD1110021+9999MW1001REMMET089KP59 070251Z AUTO 23006KT M11/M17 A2981 RMK AO2 SLP115 T11061167 51002 PWINO FZRANO TSNO;EQDQ01+000000PRSWM2
0151725387999992005010703514+47450-087900AUTO +0186KP59 V0202301N004119999999N9999999N1-01001-01601101171ADDMA1100981999999MW1001REMMET083KP59 070351Z AUTO 23008KT M10/M16 A2982 RMK AO2 SLP117 T11001161 PWINO FZRANO TSNO;EQDQ01+000000PRSWM2Q02  00002PRCP06
0171725387999992005010704514+47450-087900AUTO +0186KP59 V0202201N003619999999N9999999N1-01101-01601101171ADDKA1999M-00501KA2999N-01561MA1100981999999MW1001REMMET093KP59 070451Z AUTO 22007KT M11/M16 A2982 RMK AO2 SLP117 T11061161 410501156 PWINO FZRANO TSNO;EQDQ01+000000PRSWM2
0186725387999992005010705514+47450-087900FM-16+0186KP59 V02099999999999999999N9999999N1+99999+99999101151ADDKA1999M-00891KA2999N-01111MD1010011+9999MW1001REMMET109KP59 070551Z AUTO 23007KT 180V280 M11/M16 A2982 RMK AO2 SLP115 T11111161 11089 21111 50001 PWINO FZRANO TSNO;EQDQ01+000000PRSWM2
0162725387999992005010706514+47450-087900AUTO +0186KP59 V0209999V002119999999N9999999N1-01201-01601101191ADDAA106000091MA1100981999999MW1001REMMET083KP59 070651Z AUTO VRB04KT M12/M16 A2982 RMK AO2 SLP119 T11171161 PWINO FZRANO TSNO;EQDQ01+000000PRSWM2Q02  00002PRCP06
0135725387999992005010707514+47450-087900AUTO +0186KP59 V0209999V002112200019N9999999N1-01201-01601101241ADDMA1101051999999MW1001REMMET083KP59 070751Z AUTO VRB04KT M12/M16 A2984 RMK AO2 SLP124 T11171161 PWINO FZRANO TSNO;EQDQ01+000000PRSWM2
0155725387999992005010708514+47450-087900AUTO +0186KP59 V0209999V002612200019N9999999N1-01101-01601101291ADDMA1101121999999MD1310131+9999MW1001REMMET089KP59 070851Z AUTO VRB05KT M11/M16 A2986 RMK AO2 SLP129 T11111161 53013 PWINO FZRANO TSNO;EQDQ01+000000PRSWM2
0151725387999992005010709514+47450-087900AUTO +0186KP59 V0209999V001519999999N9999999N1-01101-01701101301ADDMA1101121999999MW1001REMMET083KP59 070951Z AUTO VRB03KT M11/M17 A2986 RMK AO2 SLP130 T11111172 PWINO FZRANO TSNO;EQDQ01+000000PRSWM2Q02  00002PRCP06
0135725387999992005010710514+47450-087900AUTO +0186KP59 V0209999V003112200019N9999999N1-01201-01801101331ADDMA1101121999999MW1001REMMET083KP59 071051Z AUTO VRB06KT M12/M18 A2986 RMK AO2 SLP133 T11171178 PWINO FZRANO TSNO;EQDQ01+000000PRSWM2
0203725387999992005010711514+47450-087900FM-16+0186KP59 V02099999999999999999N9999999N1+99999+99999101371ADDAA124000591KA1999M-01111KA2999N-01221MD1310061+9999MW1001REMMET115KP59 071151Z AUTO 23007KT 190V270 M12/M18 A2987 RMK AO2 SLP137 70002 T11171183 11111 21122 53006 PWINO FZRANO TSNO;EQDQ01+000000PRSWM2
0158725387999992005010712514+47450-087900FM-16+0186KP59 V02099999999999999999N9999999N1+99999+99999101381ADDMD1999999+0001MW1001REMMET091KP59 071251Z AUTO 23008KT 190V260 M11/M18 A2988 RMK AO2 SLP138 T11111178 PWINO FZRANO TSNO;EQDQ01+000000PRSWM2Q02  00002PRCP06
0135725387999992005010713514+47450-087900AUTO +0186KP59 V0202301N005112200019N9999999N1-01101-01701101371ADDMA1101151999999MW1001REMMET083KP59 071351Z AUTO 23010KT M11/M17 A2987 RMK AO2 SLP137 T11061167 PWINO FZRANO TSNO;EQDQ01+000000PRSWM2
0166725387999992005010714514+47450-087900AUTO +0186KP59 V0202401N004612200019N9999999N1-00901-01601101421ADDMA1101221999999MD1310041+9999MW1001OC100771REMMET092KP59 071451Z AUTO 24009G15KT M09/M16 A2989 RMK AO2 SLP142 T10941156 53004 PWINO FZRANO TSNO;EQDQ01+000000PRSWM2
0131725387999992005010716514+47450-087900FM-16+0186KP59 V02099999999992200019N9999999N1+99999+99999101481ADDMW1001REMMET094KP59 071651Z AUTO 23009G16KT 180V240 M09/M14 A2991 RMK AO2 SLP148 T10891139 PWINO FZRANO TSNO;EQDQ01+000000PRSWM2
0186725387999992005010717514+47450-087900FM-16+0186KP59 V02099999999999999999N9999999N1+99999+99999101461ADDKA1999M-00781KA2999N-01171MD1010051+9999MW1001REMMET109KP59 071751Z AUTO 24007KT 210V270 M08/M12 A2990 RMK AO2 SLP146 T10781122 11078 21117 50005 PWINO FZRANO TSNO;EQDQ01+000000PRSWM2
0144725387999992005010718514+47450-087900FM-16+0186KP59 V02099999999999999999N9999999N1+99999+99999101471ADDMW1001REMMET091KP59 071851Z AUTO 24008KT 180V260 M07/M11 A2990 RMK AO2 SLP147 T10721111 PWINO FZRANO TSNO;EQDQ01+000000PRSWM2Q02  00002PRCP06
0141725387999992005010719514+47450-087900FM-16+0186KP59 V0202401N003612200019N9999999N1-00701-01101101481ADDMA1101291999999MW1001REMMET089SPECI KP59 071951Z AUTO 24007KT M07/M11 A2991 RMK AO2 SLP148 T10721106 PWINO FZRANO TSNO;EQDQ01+000000PRSWM2
0155725387999992005010720514+47450-087900AUTO +0186KP59 V0202301N004112200019N9999999N1-00701-01101101541ADDMA1101351999999MD1310081+9999MW1001REMMET089KP59 072051Z AUTO 23008KT M07/M11 A2993 RMK AO2 SLP154 T10721106 53008 PWINO FZRANO TSNO;EQDQ01+000000PRSWM2
0144725387999992005010721514+47450-087900FM-16+0186KP59 V02099999999999999999N9999999N1+99999+99999101611ADDMW1001REMMET091KP59 072151Z AUTO 22007KT 190V250 M07/M10 A2995 RMK AO2 SLP161 T10721100 PWINO FZRANO TSNO;EQDQ01+000000PRSWM2Q02  00002PRCP06
0135725387999992005010722514+47450-087900AUTO +0186KP59 V0202401N004112200019N9999999N1-00701-01001101691ADDMA1101491999999MW1001REMMET083KP59 072251Z AUTO 24008KT M07/M10 A2997 RMK AO2 SLP169 T10671100 PWINO FZRANO TSNO;EQDQ01+000000PRSWM2
0193725387999992005010723514+47450-087900AUTO +0186KP59 V0202301N003619999999N9999999N1-00601-01101101741ADDKA1999M-00611KA2999N-00781MA1101561999999MD1110201+9999MW1001REMMET101KP59 072351Z AUTO 23007KT M06/M11 A2999 RMK AO2 SLP174 T10611106 11061 21078 51020 PWINO FZRANO TSNO;EQDQ01+000000PRSWM2
0162725387999992005010800514+47450-087900AUTO +0186KP59 V0202401N003119999999N9999999N1-00601-01101101761ADDAA106000091MA1101561999999MW1001REMMET083KP59 080051Z AUTO 24006KT M06/M11 A2999 RMK AO2 SLP176 T10611106 PWINO FZRANO TSNO;EQDQ01+000000PRSWM2Q02  00002PRCP06
0135725387999992005010801514+47450-087900AUTO +0186KP59 V0202201N003112200019N9999999N1-00601-01101101821ADDMA1101631999999MW1001REMMET083KP59 080151Z AUTO 22006KT M06/M11 A3001 RMK AO2 SLP182 T10561106 PWINO FZRANO TSNO;EQDQ01+000000PRSWM2
0155725387999992005010802514+47450-087900AUTO +0186KP59 V0209999V003112200019N9999999N1-00601-01201101881ADDMA1101691999999MD1310141+9999MW1001REMMET089KP59 080251Z AUTO VRB06KT M06/M12 A3003 RMK AO2 SLP188 T10611117 53014 PWINO FZRANO TSNO;EQDQ01+000000PRSWM2
0144725387999992005010803514+47450-087900FM-16+0186KP59 V02099999999999999999N9999999N1+99999+99999101871ADDMW1001REMMET091KP59 080351Z AUTO 23007KT 200V260 M07/M12 A3003 RMK AO2 SLP187 T10671117 PWINO FZRANO TSNO;EQDQ01+000000PRSWM2Q02  00002PRCP06
0171725387999992005010804514+47450-087900AUTO +0186KP59 V0209999V002619999999N9999999N1-00701-01201101951ADDKA1999M-00561KA2999N-01221MA1101761999999MW1001REMMET093KP59 080451Z AUTO VRB05KT M07/M12 A3005 RMK AO2 SLP195 T10721117 410561122 PWINO FZRANO TSNO;EQDQ01+000000PRSWM2
0193725387999992005010805514+47450-087900AUTO +0186KP59 V0200101N005719999999N9999999N1-00401-00701101951ADDKA1999M-00441KA2999N-00721MA1101801999999MD1310101+9999MW1001REMMET101KP59 080551Z AUTO 01011KT M04/M07 A3006 RMK AO2 SLP195 T10441072 11044 21072 53010 PWINO FZRANO TSNO;EQDQ01+000000PRSWM2
0162725387999992005010806514+47450-087900AUTO +0186KP59 V0203601N006719999999N9999999N1-00501-00801101971ADDAA106000091MA1101801999999MW1001REMMET083KP59 080651Z AUTO 36013KT M05/M08 A3006 RMK AO2 SLP197 T10501078 PWINO FZRANO TSNO;EQDQ01+000000PRSWM2Q02  00002PRCP06
0135725387999992005010807514+47450-087900AUTO +0186KP59 V0200201N004612200019N9999999N1-00501-00801102041ADDMA1101861999999MW1001REMMET083KP59 080751Z AUTO 02009KT M05/M08 A3008 RMK AO2 SLP204 T10501083 PWINO FZRANO TSNO;EQDQ01+000000PRSWM2
0155725387999992005010808514+47450-087900AUTO +0186KP59 V0200101N006212200019N9999999N1-00501-00801102091ADDMA1101931999999MD1310141+9999MW1001REMMET089KP59 080851Z AUTO 01012KT M05/M08 A3010 RMK AO2 SLP209 T10501083 53014 PWINO FZRANO TSNO;EQDQ01+000000PRSWM2
0151725387999992005010809514+47450-087900AUTO +0186KP59 V0203601N005119999999N9999999N1-00601-00901102101ADDMA1101931999999MW1001REMMET083KP59 080951Z AUTO 36010KT M06/M09 A3010 RMK AO2 SLP210 T10561089 PWINO FZRANO TSNO;EQDQ01+000000PRSWM2Q02  00002PRCP06
0146725387999992005010810514+47450-087900AUTO +0186KP59 V0200101N005112200019N9999999N1-00601-00901102171ADDMA1102001999999MW1001OC100821REMMET086KP59 081051Z AUTO 01010G16KT M06/M09 A3012 RMK AO2 SLP217 T10561089 PWINO FZRANO TSNO;EQDQ01+000000PRSWM2
0193725387999992005010811514+47450-087900AUTO +0186KP59 V0200101N005719999999N9999999N1-00601-00901102291ADDKA1999M-00441KA2999N-00561MA1102131999999MD1310191+9999MW1001REMMET101KP59 081151Z AUTO 01011KT M06/M09 A3016 RMK AO2 SLP229 T10561094 11044 21056 53019 PWINO FZRANO TSNO;EQDQ01+000000PRSWM2
0176725387999992005010812514+47450-087900AUTO +0186KP59 V0200201N003619999999N9999999N1-00601-00901102411ADDAA106000091MA1102241999999MD1999999+0001MW1001REMMET083KP59 081251Z AUTO 02007KT M06/M09 A3019 RMK AO2 SLP241 T10561089 PWINO FZRANO TSNO;EQDQ01+000000PRSWM2Q02  00002PRCP06
0146725387999992005010813514+47450-087900AUTO +0186KP59 V0200301N004112200019N9999999N1-00601-00901102471ADDMA1102301999999MW1001OC100821REMMET086KP59 081351Z AUTO 03008G16KT M06/M09 A3021 RMK AO2 SLP247 T10561089 PWINO FZRANO TSNO;EQDQ01+000000PRSWM2
0155725387999992005010814514+47450-087900AUTO +0186KP59 V0200501N006212200019N9999999N1-00601-00901102551ADDMA1102371999999MD1110251+9999MW1001REMMET089KP59 081451Z AUTO 05012KT M06/M09 A3023 RMK AO2 SLP255 T10561089 51025 PWINO FZRANO TSNO;EQDQ01+000000PRSWM2
0151725387999992005010815514+47450-087900AUTO +0186KP59 V0200601N004619999999N9999999N1-00601-00901102621ADDMA1102441999999MW1001REMMET083KP59 081551Z AUTO 06009KT M06/M09 A3025 RMK AO2 SLP262 T10561089 PWINO FZRANO TSNO;EQDQ01+000000PRSWM2Q02  00002PRCP06
0135725387999992005010816514+47450-087900AUTO +0186KP59 V0200701N003612200019N9999999N1-00501-00801102671ADDMA1102511999999MW1001REMMET083KP59 081651Z AUTO 07007KT M05/M08 A3027 RMK AO2 SLP267 T10501083 PWINO FZRANO TSNO;EQDQ01+000000PRSWM2
0193725387999992005010817514+47450-087900AUTO +0186KP59 V0200701N002619999999N9999999N1-00601-00901102611ADDKA1999M-00501KA2999N-00561MA1102441999999MD1010071+9999MW1001REMMET101KP59 081751Z AUTO 07005KT M06/M09 A3025 RMK AO2 SLP261 T10561089 11050 21056 50007 PWINO FZRANO TSNO;EQDQ01+000000PRSWM2
0162725387999992005010818514+47450-087900AUTO +0186KP59 V0200601N003119999999N9999999N1-00501-00901102601ADDAA106000091MA1102441999999MW1001REMMET083KP59 081851Z AUTO 06006KT M05/M09 A3025 RMK AO2 SLP260 T10501089 PWINO FZRANO TSNO;EQDQ01+000000PRSWM2Q02  00002PRCP06
0135725387999992005010819514+47450-087900AUTO +0186KP59 V0200801N002612200019N9999999N1-00601-00801102651ADDMA1102471999999MW1001REMMET083KP59 081951Z AUTO 08005KT M06/M08 A3026 RMK AO2 SLP265 T10561083 PWINO FZRANO TSNO;EQDQ01+000000PRSWM2
0155725387999992005010820514+47450-087900AUTO +0186KP59 V0201001N002112200019N9999999N1-00601-00901102671ADDMA1102511999999MD1310061+9999MW1001REMMET089KP59 082051Z AUTO 10004KT M06/M09 A3027 RMK AO2 SLP267 T10561094 53006 PWINO FZRANO TSNO;EQDQ01+000000PRSWM2
0151725387999992005010821514+47450-087900AUTO +0186KP59 V0209999C000019999999N9999999N1-00601-00901102631ADDMA1102471999999MW1001REMMET083KP59 082151Z AUTO 00000KT M06/M09 A3026 RMK AO2 SLP263 T10561094 PWINO FZRANO TSNO;EQDQ01+000000PRSWM2Q02  00002PRCP06
0135725387999992005010822514+47450-087900AUTO +0186KP59 V0209999C000012200019N9999999N1-00601-00901102631ADDMA1102471999999MW1001REMMET083KP59 082251Z AUTO 00000KT M06/M09 A3026 RMK AO2 SLP263 T10611094 PWINO FZRANO TSNO;EQDQ01+000000PRSWM2
0193725387999992005010823514+47450-087900AUTO +0186KP59 V0202301N001519999999N9999999N1-00601-00901102641ADDKA1999M-00501KA2999N-00671MA1102471999999MD1510031+9999MW1001REMMET101KP59 082351Z AUTO 23003KT M06/M09 A3026 RMK AO2 SLP264 T10611094 11050 21067 55003 PWINO FZRANO TSNO;EQDQ01+000000PRSWM2
0162725387999992005010900514+47450-087900AUTO +0186KP59 V0209999C000019999999N9999999N1-00601-00901102671ADDAA106000091MA1102511999999MW1001REMMET083KP59 090051Z AUTO 00000KT M06/M09 A3027 RMK AO2 SLP267 T10611094 PWINO FZRANO TSNO;EQDQ01+000000PRSWM2Q02  00002PRCP06
0135725387999992005010901514+47450-087900AUTO +0186KP59 V0209999C000012200019N9999999N1-00701-00901102591ADDMA1102401999999MW1001REMMET083KP59 090151Z AUTO 00000KT M07/M09 A3024 RMK AO2 SLP259 T10671089 PWINO FZRANO TSNO;EQDQ01+000000PRSWM2
0155725387999992005010902514+47450-087900AUTO +0186KP59 V0201501N002112200019N9999999N1-00601-00901102501ADDMA1102341999999MD1810151+9999MW1001REMMET089KP59 090251Z AUTO 15004KT M06/M09 A3022 RMK AO2 SLP250 T10561094 58015 PWINO FZRANO TSNO;EQDQ01+000000PRSWM2
0151725387999992005010903514+47450-087900AUTO +0186KP59 V0209999C000019999999N9999999N1-00601-00901102531ADDMA1102371999999MW1001REMMET083KP59 090351Z AUTO 00000KT M06/M09 A3023 RMK AO2 SLP253 T10561089 PWINO FZRANO TSNO;EQDQ01+000000PRSWM2Q02  00002PRCP06
0171725387999992005010904514+47450-087900AUTO +0186KP59 V0202101N003119999999N9999999N1-00301-00801102441ADDKA1999M-00331KA2999N-00721MA1102301999999MW1001REMMET093KP59 090451Z AUTO 21006KT M03/M08 A3021 RMK AO2 SLP244 T10331078 410331072 PWINO FZRANO TSNO;EQDQ01+000000PRSWM2
0193725387999992005010905514+47450-087900AUTO +0186KP59 V0209999V002119999999N9999999N1-00401-00801102351ADDKA1999M-00331KA2999N-00671MA1102201999999MD1810121+9999MW1001REMMET101KP59 090551Z AUTO VRB04KT M04/M08 A3018 RMK AO2 SLP235 T10391078 11033 21067 58012 PWINO FZRANO TSNO;EQDQ01+000000PRSWM2
0169725387999992005010906514+47450-087900AUTO +0186KP59 V0209999C000019999999N9999999N1-00401-00801102231ADDAA106000091MA1102071999999MW1001REMMET090KP59 090651Z AUTO 00000KT M04/M08 A3014 RMK AO2 PRESFR SLP223 T10391078 PWINO FZRANO TSNO;EQDQ01+000000PRSWM2Q02  00002PRCP06
0135725387999992005010907514+47450-087900AUTO +0186KP59 V0209999C000012200019N9999999N1-00401-00801102221ADDMA1102071999999MW1001REMMET083KP59 090751Z AUTO 00000KT M04/M08 A3014 RMK AO2 SLP222 T10441083 PWINO FZRANO TSNO;EQDQ01+000000PRSWM2
0155725387999992005010908514+47450-087900AUTO +0186KP59 V0209999C000012200019N9999999N1-00501-00901102231ADDMA1102071999999MD1510131+9999MW1001REMMET089KP59 090851Z AUTO 00000KT M05/M09 A3014 RMK AO2 SLP223 T10501089 55013 PWINO FZRANO TSNO;EQDQ01+000000PRSWM2
0151725387999992005010909514+47450-087900AUTO +0186KP59 V0209999C000019999999N9999999N1-00501-00901102211ADDMA1102071999999MW1001REMMET083KP59 090951Z AUTO 00000KT M05/M09 A3014 RMK AO2 SLP221 T10501089 PWINO FZRANO TSNO;EQDQ01+000000PRSWM2Q02  00002PRCP06
0135725387999992005010910514+47450-087900AUTO +0186KP59 V0209999C000012200019N9999999N1-00501-00901102121ADDMA1101931999999MW1001REMMET083KP59 091051Z AUTO 00000KT M05/M09 A3010 RMK AO2 SLP212 T10501089 PWINO FZRANO TSNO;EQDQ01+000000PRSWM2
0193725387999992005010911514+47450-087900AUTO +0186KP59 V0209999C000019999999N9999999N1-00601-00901102061ADDKA1999M-00391KA2999N-00561MA1101901999999MD1810171+9999MW1001REMMET101KP59 091151Z AUTO 00000KT M06/M09 A3009 RMK AO2 SLP206 T10561089 11039 21056 58017 PWINO FZRANO TSNO;EQDQ01+000000PRSWM2
0176725387999992005010912514+47450-087900AUTO +0186KP59 V0209999C000019999999N9999999N1-00601-00901102001ADDAA106000091MA1101831999999MD1999999+0001MW1001REMMET083KP59 091251Z AUTO 00000KT M06/M09 A3007 RMK AO2 SLP200 T10561094 PWINO FZRANO TSNO;EQDQ01+000000PRSWM2Q02  00002PRCP06
0135725387999992005010913514+47450-087900AUTO +0186KP59 V0209999C000012200019N9999999N1-00601-00901101941ADDMA1101761999999MW1001REMMET083KP59 091351Z AUTO 00000KT M06/M09 A3005 RMK AO2 SLP194 T10611094 PWINO FZRANO TSNO;EQDQ01+000000PRSWM2
0155725387999992005010914514+47450-087900AUTO +0186KP59 V0209999V001512200019N9999999N1-00601-01001101941ADDMA1101761999999MD1610121+9999MW1001REMMET089KP59 091451Z AUTO VRB03KT M06/M10 A3005 RMK AO2 SLP194 T10611100 56012 PWINO FZRANO TSNO;EQDQ01+000000PRSWM2
0151725387999992005010915514+47450-087900AUTO +0186KP59 V0209999V001519999999N9999999N1-00601-00901101931ADDMA1101761999999MW1001REMMET083KP59 091551Z AUTO VRB03KT M06/M09 A3005 RMK AO2 SLP193 T10611094 PWINO FZRANO TSNO;EQDQ01+000000PRSWM2Q02  00002PRCP06
0135725387999992005010916514+47450-087900AUTO +0186KP59 V0209999C000012200019N9999999N1-00601-00901101851ADDMA1101691999999MW1001REMMET083KP59 091651Z AUTO 00000KT M06/M09 A3003 RMK AO2 SLP185 T10561094 PWINO FZRANO TSNO;EQDQ01+000000PRSWM2
0193725387999992005010917514+47450-087900AUTO +0186KP59 V0209999V002619999999N9999999N1-00601-00901101721ADDKA1999M-00561KA2999N-00611MA1101591999999MD1810191+9999MW1001REMMET101KP59 091751Z AUTO VRB05KT M06/M09 A3000 RMK AO2 SLP172 T10561094 11056 21061 58019 PWINO FZRANO TSNO;EQDQ01+000000PRSWM2
0144725387999992005010918514+47450-087900FM-16+0186KP59 V02099999999999999999N9999999N1+99999+99999101531ADDMW1001REMMET091KP59 091851Z AUTO 29007KT 260V320 M05/M10 A2994 RMK AO2 SLP153 T10501100 PWINO FZRANO TSNO;EQDQ01+000000PRSWM2Q02  00002PRCP06
0141725387999992005010919514+47450-087900FM-16+0186KP59 V0209999V001512200019N9999999N1-00601-01001101481ADDMA1101321999999MW1001REMMET089SPECI KP59 091951Z AUTO VRB03KT M06/M10 A2992 RMK AO2 SLP148 T10561100 PWINO FZRANO TSNO;EQDQ01+000000PRSWM2
0155725387999992005010920514+47450-087900AUTO +0186KP59 V0209999V002612200019N9999999N1-00601-01001101361ADDMA1101221999999MD1610371+9999MW1001REMMET089KP59 092051Z AUTO VRB05KT M06/M10 A2989 RMK AO2 SLP136 T10561100 56037 PWINO FZRANO TSNO;EQDQ01+000000PRSWM2
0144725387999992005010921514+47450-087900FM-16+0186KP59 V02099999999999999999N9999999N1+99999+99999101341ADDMW1001REMMET091KP59 092151Z AUTO 23007KT 190V250 M06/M09 A2988 RMK AO2 SLP134 T10561094 PWINO FZRANO TSNO;EQDQ01+000000PRSWM2Q02  00002PRCP06
0135725387999992005010922514+47450-087900AUTO +0186KP59 V0209999V003112200019N9999999N1-00601-00901101211ADDMA1101051999999MW1001REMMET083KP59 092251Z AUTO VRB06KT M06/M09 A2984 RMK AO2 SLP121 T10561089 PWINO FZRANO TSNO;EQDQ01+000000PRSWM2
0243725387999992005010923514+47450-087900AUTO +0186KP59 V0209999V003119999999N9999999N1-00601-00801101141ADDAA101001091AA206001091KA1999M-00501KA2999N-00611MA1100981999999MD1810231+9999MW1001REMMET113KP59 092351Z AUTO VRB06KT M06/M08 A2982 RMK AO2 SLP114 P0004 60004 T10561078 11050 21061 58023 PWINO FZRANO TSNO;EQDQ01+000000PRSWM2Q02  00108PRCP06
0184725387999992005011000514+47450-087900AUTO +0186KP59 V0202301N004119999999N9999999N1-00601-00701101081ADDAA101000591MA1100911999999MW1001REMMET089KP59 100051Z AUTO 23008KT M06/M07 A2980 RMK AO2 SLP108 P0002 T10561072 PWINO FZRANO TSNO;EQDQ01+000000PRSWM2Q02  00002PRCP06Q03  00002PRCP06
0148725387999992005011001514+47450-087900FM-16+0186KP59 V02099999999999999999N9999999N1+99999+99999101061ADDAA101001891MW1001REMMET100KP59 100151Z AUTO 25007G16KT 210V280 M06/M07 A2979 RMK AO2 SLP106 P0007 T10561072 PWINO FZRANO TSNO;EQDQ01+000000PRSWM2
0229725387999992005011002514+47450-087900AUTO +0186KP59 V0203301N011819999999N9999999N1-00301-00501101041ADDAA101001391AA203003691MA1100881999999MD1510071+9999MW1001OC101441REMMET133KP59 100251Z AUTO 33023G28KT M03/M05 A2979 RMK AO2 PK WND 33031/0236 WSHFT 0232 SLP104 P0005 60014 T10281050 55007 PWINO FZRANO TSNO;EQDQ01+000000PRSWM2
0169725387999992005011003514+47450-087900AUTO +0186KP59 V0203301N012319999999N9999999N1-00301-00701101151ADDMA1101021999999MW1001REMMET101KP59 100351Z AUTO 33024KT M03/M07 A2983 RMK AO2 PK WND 33030/0338 SLP115 T10331072 PWINO FZRANO TSNO;EQDQ01+000000PRSWM2Q02  00002PRCP06
0200725387999992005011004514+47450-087900AUTO +0186KP59 V0203201N009819999999N9999999N1-00401-00901101241ADDKA1999M-00281KA2999N-00611MA1101081999999MW1001OC101391REMMET114KP59 100451Z AUTO 32019G27KT M04/M09 A2985 RMK AO2 PK WND 33033/0424 SLP124 T10441089 410281061 PWINO FZRANO TSNO;EQDQ01+000000PRSWM2
0255725387999992005011005514+47450-087900AUTO +0186KP59 V0203301N013419999999N9999999N1-00401-00901101341ADDAA106003691KA1999M-00281KA2999N-00611MA1101191999999MD1110281+9999MW1001OC101751REMMET128KP59 100551Z AUTO 33026G34KT M04/M09 A2988 RMK AO2 PK WND 33034/0550 SLP134 60014 T10441089 11028 21061 51028 PWINO FZRANO TSNO;EQDQ01+000000PRSWM2Q02  00368PRCP06
0196725387999992005011006514+47450-087900AUTO +0186KP59 V0203401N013919999999N9999999N1-00501-00901101391ADDMA1101251999999MW1001OC101701REMMET104KP59 100651Z AUTO 34027G33KT M05/M09 A2990 RMK AO2 PK WND 33037/0558 SLP139 T10501094 PWINO FZRANO TSNO;EQDQ01+000000PRSWM2Q02  00002PRCP06Q03  00002PRCP06
0164725387999992005011007514+47450-087900AUTO +0186KP59 V0203401N012312200019N9999999N1-00501-00901101501ADDMA1101351999999MW1001OC101651REMMET104KP59 100751Z AUTO 34024G32KT M05/M09 A2993 RMK AO2 PK WND 34033/0719 SLP150 T10501094 PWINO FZRANO TSNO;EQDQ01+000000PRSWM2
0184725387999992005011008514+47450-087900AUTO +0186KP59 V0203401N014412200019N9999999N1-00601-00901101581ADDMA1101421999999MD1310231+9999MW1001OC101801REMMET110KP59 100851Z AUTO 34028G35KT M06/M09 A2995 RMK AO2 PK WND 34035/0842 SLP158 T10561094 53023 PWINO FZRANO TSNO;EQDQ01+000000PRSWM2
0180725387999992005011009514+47450-087900AUTO +0186KP59 V0203301N013919999999N9999999N1-00701-01101101691ADDMA1101521999999MW1001OC101651REMMET104KP59 100951Z AUTO 33027G32KT M07/M11 A2998 RMK AO2 PK WND 33033/0936 SLP169 T10671111 PWINO FZRANO TSNO;EQDQ01+000000PRSWM2Q02  00002PRCP06
0164725387999992005011010514+47450-087900AUTO +0186KP59 V0203301N011312200019N9999999N1-00701-01101101781ADDMA1101631999999MW1001OC101341REMMET104KP59 101051Z AUTO 33022G26KT M07/M11 A3001 RMK AO2 PK WND 33033/0952 SLP178 T10671111 PWINO FZRANO TSNO;EQDQ01+000000PRSWM2
0255725387999992005011011514+47450-087900AUTO +0186KP59 V0203301N011819999999N9999999N1-00701-01101101911ADDAA124004691KA1999M-00441KA2999N-00721MA1101731999999MD1310321+9999MW1001OC101541REMMET128KP59 101151Z AUTO 33023G30KT M07/M11 A3004 RMK AO2 PK WND 34032/1106 SLP191 70018 T10671106 11044 21072 53032 PWINO FZRANO TSNO;EQDQ01+000000PRSWM2Q02  00468PRCP24
0194725387999992005011012514+47450-087900AUTO +0186KP59 V0203401N011319999999N9999999N1-00701-01101102021ADDAA106000091MA1101861999999MD1999999+0001MW1001REMMET101KP59 101251Z AUTO 34022KT M07/M11 A3008 RMK AO2 PK WND 33031/1214 SLP202 T10721111 PWINO FZRANO TSNO;EQDQ01+000000PRSWM2Q02  00002PRCP06
0153725387999992005011013514+47450-087900AUTO +0186KP59 V0203401N012912200019N9999999N1-00801-01101102131ADDMA1101931999999MW1001REMMET101KP59 101351Z AUTO 34025KT M08/M11 A3010 RMK AO2 PK WND 34030/1254 SLP213 T10781111 PWINO FZRANO TSNO;EQDQ01+000000PRSWM2
0184725387999992005011014514+47450-087900AUTO +0186KP59 V0203301N009812200019N9999999N1-00801-01201102231ADDMA1102071999999MD1310321+9999MW1001OC101291REMMET110KP59 101451Z AUTO 33019G25KT M08/M12 A3014 RMK AO2 PK WND 34027/1409 SLP223 T10781117 53032 PWINO FZRANO TSNO;EQDQ01+000000PRSWM2
0162725387999992005011015514+47450-087900AUTO +0186KP59 V0203401N008719999999N9999999N1-00801-01201102341ADDMA1102171999999MW1001OC101181REMMET086KP59 101551Z AUTO 34017G23KT M08/M12 A3017 RMK AO2 SLP234 T10831117 PWINO FZRANO TSNO;EQDQ01+000000PRSWM2Q02  00002PRCP06
0135725387999992005011016514+47450-087900AUTO +0186KP59 V0203401N009312200019N9999999N1-00901-01201102361ADDMA1102171999999MW1001REMMET083KP59 101651Z AUTO 34018KT M09/M12 A3017 RMK AO2 SLP236 T10891117 PWINO FZRANO TSNO;EQDQ01+000000PRSWM2
0193725387999992005011017514+47450-087900AUTO +0186KP59 V0203201N005119999999N9999999N1-00901-01201102411ADDKA1999M-00671KA2999N-00891MA1102241999999MD1110151+9999MW1001REMMET101KP59 101751Z AUTO 32010KT M09/M12 A3019 RMK AO2 SLP241 T10891122 11067 21089 51015 PWINO FZRANO TSNO;EQDQ01+000000PRSWM2
0162725387999992005011018514+47450-087900AUTO +0186KP59 V0203301N005719999999N9999999N1-00901-01201102391ADDAA106000091MA1102201999999MW1001REMMET083KP59 101851Z AUTO 33011KT M09/M12 A3018 RMK AO2 SLP239 T10891122 PWINO FZRANO TSNO;EQDQ01+000000PRSWM2Q02  00002PRCP06
0135725387999992005011019514+47450-087900AUTO +0186KP59 V0203101N003612200019N9999999N1-00901-01301102421ADDMA1102241999999MW1001REMMET083KP59 101951Z AUTO 31007KT M09/M13 A3019 RMK AO2 SLP242 T10891128 PWINO FZRANO TSNO;EQDQ01+000000PRSWM2
0155725387999992005011020514+47450-087900AUTO +0186KP59 V0203101N002112200019N9999999N1-00901-01401102451ADDMA1102271999999MD1310041+9999MW1001REMMET089KP59 102051Z AUTO 31004KT M09/M14 A3020 RMK AO2 SLP245 T10891139 53004 PWINO FZRANO TSNO;EQDQ01+000000PRSWM2
0157725387999992005011021514+47450-087900FM-16+0186KP59 V0209999V001519999999N9999999N1-00901-01301102481ADDMA1102271999999MW1001REMMET089SPECI KP59 102151Z AUTO VRB03KT M09/M13 A3020 RMK AO2 SLP248 T10941128 PWINO FZRANO TSNO;EQDQ01+000000PRSWM2Q02  00002PRCP06
0135725387999992005011022514+47450-087900AUTO +0186KP59 V0209999V001512200019N9999999N1-00901-01301102501ADDMA1102301999999MW1001REMMET083KP59 102251Z AUTO VRB03KT M09/M13 A3021 RMK AO2 SLP250 T10941128 PWINO FZRANO TSNO;EQDQ01+000000PRSWM2
0193725387999992005011023514+47450-087900AUTO +0186KP59 V0209999V003119999999N9999999N1-00901-01301102471ADDKA1999M-00831KA2999N-01001MA1102271999999MD1010011+9999MW1001REMMET101KP59 102351Z AUTO VRB06KT M09/M13 A3020 RMK AO2 SLP247 T10941128 11083 21100 50001 PWINO FZRANO TSNO;EQDQ01+000000PRSWM2
0162725387999992005011100514+47450-087900AUTO +0186KP59 V0209999V002119999999N9999999N1-00901-01301102441ADDAA106000091MA1102241999999MW1001REMMET083KP59 110051Z AUTO VRB04KT M09/M13 A3019 RMK AO2 SLP244 T10941128 PWINO FZRANO TSNO;EQDQ01+000000PRSWM2Q02  00002PRCP06
0135725387999992005011101514+47450-087900AUTO +0186KP59 V0209999V001512200019N9999999N1-00901-01301102431ADDMA1102241999999MW1001REMMET083KP59 110151Z AUTO VRB03KT M09/M13 A3019 RMK AO2 SLP243 T10941128 PWINO FZRANO TSNO;EQDQ01+000000PRSWM2
0155725387999992005011102514+47450-087900AUTO +0186KP59 V0209999V002612200019N9999999N1-00901-01201102401ADDMA1102201999999MD1610071+9999MW1001REMMET089KP59 110251Z AUTO VRB05KT M09/M12 A3018 RMK AO2 SLP240 T10941122 56007 PWINO FZRANO TSNO;EQDQ01+000000PRSWM2
0151725387999992005011103514+47450-087900AUTO +0186KP59 V0209999V003119999999N9999999N1-00901-01201102381ADDMA1102201999999MW1001REMMET083KP59 110351Z AUTO VRB06KT M09/M12 A3018 RMK AO2 SLP238 T10891122 PWINO FZRANO TSNO;EQDQ01+000000PRSWM2Q02  00002PRCP06
0171725387999992005011104514+47450-087900AUTO +0186KP59 V0202101N002619999999N9999999N1-00901-01201102341ADDKA1999M-00391KA2999N-01001MA1102131999999MW1001REMMET093KP59 110451Z AUTO 21005KT M09/M12 A3016 RMK AO2 SLP234 T10891122 410391100 PWINO FZRANO TSNO;EQDQ01+000000PRSWM2
0193725387999992005011105514+47450-087900AUTO +0186KP59 V0202201N003119999999N9999999N1-01001-01301102331ADDKA1999M-00891KA2999N-01061MA1102131999999MD1610081+9999MW1001REMMET101KP59 110551Z AUTO 22006KT M10/M13 A3016 RMK AO2 SLP233 T11001128 11089 21106 56008 PWINO FZRANO TSNO;EQDQ01+000000PRSWM2
0162725387999992005011106514+47450-087900AUTO +0186KP59 V0202301N003119999999N9999999N1-01201-01401102321ADDAA106000091MA1102101999999MW1001REMMET083KP59 110651Z AUTO 23006KT M12/M14 A3015 RMK AO2 SLP232 T11171144 PWINO FZRANO TSNO;EQDQ01+000000PRSWM2Q02  00002PRCP06
0135725387999992005011107514+47450-087900AUTO +0186KP59 V0202201N002612200019N9999999N1-01201-01401102321ADDMA1102101999999MW1001REMMET083KP59 110751Z AUTO 22005KT M12/M14 A3015 RMK AO2 SLP232 T11171139 PWINO FZRANO TSNO;EQDQ01+000000PRSWM2
0151725387999992005011109514+47450-087900AUTO +0186KP59 V0202201N002119999999N9999999N1-01001-01301102211ADDMA1102001999999MW1001REMMET083KP59 110951Z AUTO 22004KT M10/M13 A3012 RMK AO2 SLP221 T11001128 PWINO FZRANO TSNO;EQDQ01+000000PRSWM2Q02  00002PRCP06
0135725387999992005011110514+47450-087900AUTO +0186KP59 V0209999C000012200019N9999999N1-01101-01301102221ADDMA1102001999999MW1001REMMET083KP59 111051Z AUTO 00000KT M11/M13 A3012 RMK AO2 SLP222 T11111128 PWINO FZRANO TSNO;EQDQ01+000000PRSWM2
0193725387999992005011111514+47450-087900AUTO +0186KP59 V0202101N003119999999N9999999N1-01401-01601102181ADDKA1999M-00941KA2999N-01391MA1101961999999MD1610141+9999MW1001REMMET101KP59 111151Z AUTO 21006KT M14/M16 A3011 RMK AO2 SLP218 T11391156 11094 21139 56014 PWINO FZRANO TSNO;EQDQ01+000000PRSWM2
0176725387999992005011112514+47450-087900AUTO +0186KP59 V0202201N002119999999N9999999N1-01201-01501102171ADDAA106000091MA1101961999999MD1999999+0001MW1001REMMET083KP59 111251Z AUTO 22004KT M12/M15 A3011 RMK AO2 SLP217 T11221150 PWINO FZRANO TSNO;EQDQ01+000000PRSWM2Q02  00002PRCP06
0135725387999992005011113514+47450-087900AUTO +0186KP59 V0202201N003112200019N9999999N1-01101-01401102141ADDMA1101931999999MW1001REMMET083KP59 111351Z AUTO 22006KT M11/M14 A3010 RMK AO2 SLP214 T11111144 PWINO FZRANO TSNO;EQDQ01+000000PRSWM2
0155725387999992005011114514+47450-087900AUTO +0186KP59 V0202201N002612200019N9999999N1-01101-01501102161ADDMA1101961999999MD1510001+9999MW1001REMMET089KP59 111451Z AUTO 22005KT M11/M15 A3011 RMK AO2 SLP216 T11061150 55000 PWINO FZRANO TSNO;EQDQ01+000000PRSWM2
0157725387999992005011115514+47450-087900FM-16+0186KP59 V0202201N002619999999N9999999N1-00701-01301102151ADDMA1101961999999MW1001REMMET089SPECI KP59 111551Z AUTO 22005KT M07/M13 A3011 RMK AO2 SLP215 T10721133 PWINO FZRANO TSNO;EQDQ01+000000PRSWM2Q02  00002PRCP06
0135725387999992005011116514+47450-087900AUTO +0186KP59 V0209999V002112200019N9999999N1-00601-01401102091ADDMA1101901999999MW1001REMMET083KP59 111651Z AUTO VRB04KT M06/M14 A3009 RMK AO2 SLP209 T10561139 PWINO FZRANO TSNO;EQDQ01+000000PRSWM2
0193725387999992005011117514+47450-087900AUTO +0186KP59 V0209999V002619999999N9999999N1-00501-01201102011ADDKA1999M-00501KA2999N-01441MA1101831999999MD1810121+9999MW1001REMMET101KP59 111751Z AUTO VRB05KT M05/M12 A3007 RMK AO2 SLP201 T10501122 11050 21144 58012 PWINO FZRANO TSNO;EQDQ01+000000PRSWM2
0162725387999992005011118514+47450-087900AUTO +0186KP59 V0209999V002119999999N9999999N1-00401-01101101951ADDAA106000091MA1101761999999MW1001REMMET083KP59 111851Z AUTO VRB04KT M04/M11 A3005 RMK AO2 SLP195 T10441106 PWINO FZRANO TSNO;EQDQ01+000000PRSWM2Q02  00002PRCP06
0135725387999992005011119514+47450-087900AUTO +0186KP59 V0200201N001512200019N9999999N1-00301-01101101911ADDMA1101731999999MW1001REMMET083KP59 111951Z AUTO 02003KT M03/M11 A3004 RMK AO2 SLP191 T10331111 PWINO FZRANO TSNO;EQDQ01+000000PRSWM2
0155725387999992005011120514+47450-087900AUTO +0186KP59 V0200101N002112200019N9999999N1-00401-01101101921ADDMA1101731999999MD1510091+9999MW1001REMMET089KP59 112051Z AUTO 01004KT M04/M11 A3004 RMK AO2 SLP192 T10391111 55009 PWINO FZRANO TSNO;EQDQ01+000000PRSWM2
0151725387999992005011121514+47450-087900AUTO +0186KP59 V0209999C000019999999N9999999N1-00601-01101101971ADDMA1101761999999MW1001REMMET083KP59 112151Z AUTO 00000KT M06/M11 A3005 RMK AO2 SLP197 T10561111 PWINO FZRANO TSNO;EQDQ01+000000PRSWM2Q02  00002PRCP06
0135725387999992005011122514+47450-087900AUTO +0186KP59 V0202301N002112200019N9999999N1-00701-01101101961ADDMA1101761999999MW1001REMMET083KP59 112251Z AUTO 23004KT M07/M11 A3005 RMK AO2 SLP196 T10721111 PWINO FZRANO TSNO;EQDQ01+000000PRSWM2
0193725387999992005011123514+47450-087900AUTO +0186KP59 V0202301N001519999999N9999999N1-00701-01101101901ADDKA1999M-00331KA2999N-00721MA1101691999999MD1810041+9999MW1001REMMET101KP59 112351Z AUTO 23003KT M07/M11 A3003 RMK AO2 SLP190 T10721111 11033 21072 58004 PWINO FZRANO TSNO;EQDQ01+000000PRSWM2
0162725387999992005011200514+47450-087900AUTO +0186KP59 V0209999C000019999999N9999999N1-00701-01001101881ADDAA106000091MA1101691999999MW1001REMMET083KP59 120051Z AUTO 00000KT M07/M10 A3003 RMK AO2 SLP188 T10671100 PWINO FZRANO TSNO;EQDQ01+000000PRSWM2Q02  00002PRCP06
0135725387999992005011201514+47450-087900AUTO +0186KP59 V0209999V001512200019N9999999N1-00701-01001101861ADDMA1101661999999MW1001REMMET083KP59 120151Z AUTO VRB03KT M07/M10 A3002 RMK AO2 SLP186 T10671100 PWINO FZRANO TSNO;EQDQ01+000000PRSWM2
0155725387999992005011202514+47450-087900AUTO +0186KP59 V0202301N001512200019N9999999N1-00601-00901101791ADDMA1101591999999MD1810081+9999MW1001REMMET089KP59 120251Z AUTO 23003KT M06/M09 A3000 RMK AO2 SLP179 T10611089 58008 PWINO FZRANO TSNO;EQDQ01+000000PRSWM2
0151725387999992005011203514+47450-087900AUTO +0186KP59 V0209999C000019999999N9999999N1-00601-00901101691ADDMA1101521999999MW1001REMMET083KP59 120351Z AUTO 00000KT M06/M09 A2998 RMK AO2 SLP169 T10611089 PWINO FZRANO TSNO;EQDQ01+000000PRSWM2Q02  00002PRCP06
0171725387999992005011204514+47450-087900AUTO +0186KP59 V0202301N002119999999N9999999N1-00601-00801101641ADDKA1999M-00331KA2999N-01441MA1101491999999MW1001REMMET093KP59 120451Z AUTO 23004KT M06/M08 A2997 RMK AO2 SLP164 T10561083 410331144 PWINO FZRANO TSNO;EQDQ01+000000PRSWM2
0193725387999992005011205514+47450-087900AUTO +0186KP59 V0209999C000019999999N9999999N1-00601-00801101591ADDKA1999M-00501KA2999N-00781MA1101421999999MD1610171+9999MW1001REMMET101KP59 120551Z AUTO 00000KT M06/M08 A2995 RMK AO2 SLP159 T10561078 11050 21078 56017 PWINO FZRANO TSNO;EQDQ01+000000PRSWM2
0162725387999992005011206514+47450-087900AUTO +0186KP59 V0209999C000019999999N9999999N1-00401-00701101541ADDAA106000091MA1101391999999MW1001REMMET083KP59 120651Z AUTO 00000KT M04/M07 A2994 RMK AO2 SLP154 T10441072 PWINO FZRANO TSNO;EQDQ01+000000PRSWM2Q02  00002PRCP06
0135725387999992005011207514+47450-087900AUTO +0186KP59 V0201901N001512200019N9999999N1-00401-00601101501ADDMA1101351999999MW1001REMMET083KP59 120751Z AUTO 19003KT M04/M06 A2993 RMK AO2 SLP150 T10441061 PWINO FZRANO TSNO;EQDQ01+000000PRSWM2
0155725387999992005011208514+47450-087900AUTO +0186KP59 V0201501N002112200019N9999999N1-00201-00401101341ADDMA1101221999999MD1810221+9999MW1001REMMET089KP59 120851Z AUTO 15004KT M02/M04 A2989 RMK AO2 SLP134 T10221039 58022 PWINO FZRANO TSNO;EQDQ01+000000PRSWM2
0151725387999992005011209514+47450-087900AUTO +0186KP59 V0209999V001519999999N9999999N1-00101-00301101281ADDMA1101151999999MW1001REMMET083KP59 120951Z AUTO VRB03KT M01/M03 A2987 RMK AO2 SLP128 T10111028 PWINO FZRANO TSNO;EQDQ01+000000PRSWM2Q02  00002PRCP06
0135725387999992005011210514+47450-087900AUTO +0186KP59 V0201501N002612200019N9999999N1-00101-00201101151ADDMA1101021999999MW1001REMMET083KP59 121051Z AUTO 15005KT M01/M02 A2983 RMK AO2 SLP115 T10061022 PWINO FZRANO TSNO;EQDQ01+000000PRSWM2
0192725387999992005011211514+47450-087900AUTO +0186KP59 V0209999V003119999999N9999999N1+00001-00201101041ADDKA1999M+00001KA2999N-00501MA1100911999999MD1810301+9999MW1001REMMET100KP59 121151Z AUTO VRB06KT 00/M02 A2980 RMK AO2 SLP104 T00001022 10000 21050 58030 PWINO FZRANO TSNO;EQDQ01+000000PRSWM2
0157725387999992005011212514+47450-087900FM-16+0186KP59 V02099999999999999999N9999999N1+99999+99999100881ADDMD1999999+0001MW1001REMMET090KP59 121251Z AUTO 16008KT 120V190 00/M02 A2975 RMK AO2 SLP088 T00001017 PWINO FZRANO TSNO;EQDQ01+000000PRSWM2Q02  00002PRCP06
0162725387999992005011213514+47450-087900AUTO +0186KP59 V0201601N004619999999N9999999N1+00001-00201100741ADDAA101000391MA1100611999999MW1001OC100821REMMET091KP59 121351Z AUTO 16009G16KT 00/M02 A2971 RMK AO2 SLP074 P0001 T00001017 PWINO FZRANO TSNO;EQDQ01+000000PRSWM2
0199725387999992005011214514+47450-087900AUTO +0186KP59 V0201501N005119999999N9999999N1+00001-00201100641ADDAA101000891AA203001091MA1100511999999MD1610391+9999MW1001OC100871REMMET103KP59 121451Z AUTO 15010G17KT 00/M02 A2968 RMK AO2 SLP064 P0003 60004 T00001017 56039 PWINO FZRANO TSNO;EQDQ01+000000PRSWM2
0163725387999992005011215514+47450-087900FM-16+0186KP59 V02099999999999999999N9999999N1+99999+99999100511ADDAA101000591MW1001REMMET099KP59 121551Z AUTO 15010G19KT 110V180 00/M02 A2964 RMK AO2 SLP051 P0002 T00001017 PWINO FZRANO TSNO;EQDQ01+000000PRSWM2Q02  00002PRCP06
0147725387999992005011216514+47450-087900FM-16+0186KP59 V02099999999999999999N9999999N1+99999+99999100401ADDAA101001591MW1001REMMET099KP59 121651Z AUTO 15008G16KT 120V190 00/M02 A2961 RMK AO2 SLP040 P0006 T00001017 PWINO FZRANO TSNO;EQDQ01+000000PRSWM2
0222725387999992005011217514+47450-087900FM-16+0186KP59 V02099999999999999999N9999999N1+99999+99999100181ADDAA101002391AA206005391KA1999M+00001KA2999N-00061MD1810451+9999MW1001REMMET123KP59 121751Z AUTO 15007G15KT 110V190 00/M02 A2955 RMK AO2 SLP018 P0009 60021 T00001017 10000 21006 58045 PWINO FZRANO TSNO;EQDQ01+000000PRSWM2
0183725387999992005011218514+47450-087900AUTO +0186KP59 V0201701N003619999999N9999999N1+00001-00101099941ADDAA101001391MA1099831999999MW1001REMMET088KP59 121851Z AUTO 17007KT 00/M01 A2948 RMK AO2 SLP994 P0005 T00001011 PWINO FZRANO TSNO;EQDQ01+000000PRSWM2Q02  00002PRCP06Q03  00002PRCP06
0147725387999992005011219514+47450-087900FM-16+0186KP59 V02099999999999999999N9999999N1+99999+99999099751ADDAA101000891MW1001REMMET099KP59 121951Z AUTO 19010G21KT 150V210 01/M01 A2942 RMK AO2 SLP975 P0003 T00061011 PWINO FZRANO TSNO;EQDQ01+000000PRSWM2
0194725387999992005011220514+47450-087900FM-16+0186KP59 V0201901N004119999999N9999999N1+00101-00101099661ADDAA101000591MA1099561999999MD1610491+9999MW1001OC100981REMMET109SPECI KP59 122051Z AUTO 19008G19KT 01/M01 A2940 RMK AO2 SLP966 P0002 60010 T00061006 56049 PWINO FZRANO TSNO;EQDQ01+000000PRSWM2
0160725387999992005011221514+47450-087900AUTO +0186KP59 V0201901N005119999999N9999999N1+00101+00001099631ADDMA1099531999999MW1001OC100721REMMET084KP59 122151Z AUTO 19010G14KT 01/00 A2939 RMK AO2 SLP963 T00060000 PWINO FZRANO TSNO;EQDQ01+000000PRSWM2Q02  00002PRCP06
0157725387999992005011222514+47450-087900AUTO +0186KP59 V0202101N005119999999N9999999N1+00101+00001099571ADDAA101000591MA1099461999999MW1001REMMET094KP59 122251Z AUTO 21010KT 01/00 A2937 RMK AO2 PRESFR SLP957 P0002 T00110000 PWINO FZRANO TSNO;EQDQ01+000000PRSWM2
0224725387999992005011223514+47450-087900AUTO +0186KP59 V0202201N004119999999N9999999N1+00101+00001099541ADDAA106003091KA1999M+00111KA2999N+00001MA1099421999999MD1810121+9999MW1001REMMET105KP59 122351Z AUTO 22008KT 01/00 A2936 RMK AO2 SLP954 60012 T00110000 10011 20000 58012 PWINO FZRANO TSNO;EQDQ01+000000PRSWM2Q02  00308PRCP06
0165725387999992005011300514+47450-087900AUTO +0186KP59 V0202301N003619999999N9999999N1+00101+00001099531ADDMA1099421999999MW1001REMMET081KP59 130051Z AUTO 23007KT 01/00 A2936 RMK AO2 SLP953 T00110000 PWINO FZRANO TSNO;EQDQ01+000000PRSWM2Q02  00002PRCP06Q03  00002PRCP06
0139725387999992005011301514+47450-087900FM-16+0186KP59 V0209999V002112200019N9999999N1+00101+00001099481ADDMA1099391999999MW1001REMMET087SPECI KP59 130151Z AUTO VRB04KT 01/00 A2935 RMK AO2 SLP948 T00110000 PWINO FZRANO TSNO;EQDQ01+000000PRSWM2
0154725387999992005011302514+47450-087900AUTO +0186KP59 V0209999V003112200019N9999999N1+00101-00101099521ADDMA1099421999999MD1510021+9999MW1001REMMET088KP59 130251Z AUTO VRB06KT 01/M01 A2936 RMK AO2 SLP952 T00111006 55002 PWINO FZRANO TSNO;EQDQ01+000000PRSWM2
0163725387999992005011304514+47450-087900FM-16+0186KP59 V02099999999999999999N9999999N1+99999+99999099671ADDKA1999M+00111KA2999N-00561MW1001REMMET100KP59 130451Z AUTO 30008KT 220V330 01/M02 A2940 RMK AO2 SLP967 T00061017 400111056 PWINO FZRANO TSNO;EQDQ01+000000PRSWM2
0203725387999992005011305514+47450-087900AUTO +0186KP59 V0209999V003119999999N9999999N1+00101-00201099731ADDKA1999M+00111KA2999N+00061MA1099631999999MD1110201+9999MW1001OC100931REMMET103KP59 130551Z AUTO VRB06G18KT 01/M02 A2942 RMK AO2 SLP973 T00061022 10011 20006 51020 PWINO FZRANO TSNO;EQDQ01+000000PRSWM2
0172725387999992005011306514+47450-087900AUTO +0186KP59 V0203201N007219999999N9999999N1+00101-00301099801ADDAA106000091MA1099701999999MW1001OC101031REMMET085KP59 130651Z AUTO 32014G20KT 01/M03 A2944 RMK AO2 SLP980 T00061028 PWINO FZRANO TSNO;EQDQ01+000000PRSWM2Q02  00002PRCP06
0163725387999992005011307514+47450-087900AUTO +0186KP59 V0203301N010312200019N9999999N1+00001-00401099901ADDMA1099801999999MW1001OC101441REMMET103KP59 130751Z AUTO 33020G28KT 00/M04 A2947 RMK AO2 PK WND 32028/0750 SLP990 T00001044 PWINO FZRANO TSNO;EQDQ01+000000PRSWM2
0184725387999992005011308514+47450-087900AUTO +0186KP59 V0203201N009812200019N9999999N1-00101-00501099931ADDMA1099831999999MD1110191+9999MW1001OC101341REMMET110KP59 130851Z AUTO 32019G26KT M01/M05 A2948 RMK AO2 PK WND 33029/0824 SLP993 T10061050 51019 PWINO FZRANO TSNO;EQDQ01+000000PRSWM2
0180725387999992005011309514+47450-087900AUTO +0186KP59 V0203201N009319999999N9999999N1-00101-00601100041ADDMA1099931999999MW1001OC101341REMMET104KP59 130951Z AUTO 32018G26KT M01/M06 A2951 RMK AO2 PK WND 33029/0901 SLP004 T10111061 PWINO FZRANO TSNO;EQDQ01+000000PRSWM2Q02  00002PRCP06
0164725387999992005011310514+47450-087900AUTO +0186KP59 V0203201N007712200019N9999999N1-00201-00601100111ADDMA1100001999999MW1001OC101031REMMET104KP59 131051Z AUTO 32015G20KT M02/M06 A2953 RMK AO2 PK WND 32027/1007 SLP011 T10171061 PWINO FZRANO TSNO;EQDQ01+000000PRSWM2
0255725387999992005011311514+47450-087900AUTO +0186KP59 V0203101N007219999999N9999999N1-00201-00601100161ADDAA124008491KA1999M+00061KA2999N-00171MA1100071999999MD1110231+9999MW1001OC101031REMMET128KP59 131151Z AUTO 31014G20KT M02/M06 A2955 RMK AO2 PK WND 33027/1119 SLP016 70033 T10171056 10006 21017 51023 PWINO FZRANO TSNO;EQDQ01+000000PRSWM2Q02  00848PRCP24
0187725387999992005011312514+47450-087900AUTO +0186KP59 V0203201N007719999999N9999999N1-00201-00601100131ADDAA106000091MA1100031999999MD1999999+0001MW1001OC101181REMMET086KP59 131251Z AUTO 32015G23KT M02/M06 A2954 RMK AO2 SLP013 T10171061 PWINO FZRANO TSNO;EQDQ01+000000PRSWM2Q02  00002PRCP06
0146725387999992005011313514+47450-087900AUTO +0186KP59 V0203101N006712200019N9999999N1-00201-00701100381ADDMA1100271999999MW1001OC100981REMMET086KP59 131351Z AUTO 31013G19KT M02/M07 A2961 RMK AO2 SLP038 T10221067 PWINO FZRANO TSNO;EQDQ01+000000PRSWM2
0184725387999992005011314514+47450-087900AUTO +0186KP59 V0203101N008712200019N9999999N1-00301-00701100441ADDMA1100341999999MD1310261+9999MW1001OC101391REMMET110KP59 131451Z AUTO 31017G27KT M03/M07 A2963 RMK AO2 PK WND 30027/1450 SLP044 T10281072 53026 PWINO FZRANO TSNO;EQDQ01+000000PRSWM2
0180725387999992005011315514+47450-087900AUTO +0186KP59 V0203101N008219999999N9999999N1-00401-00901100631ADDMA1100511999999MW1001OC101441REMMET104KP59 131551Z AUTO 31016G28KT M04/M09 A2968 RMK AO2 PK WND 33029/1500 SLP063 T10441094 PWINO FZRANO TSNO;EQDQ01+000000PRSWM2Q02  00002PRCP06
0164725387999992005011316514+47450-087900AUTO +0186KP59 V0203201N009812200019N9999999N1-00601-00901100651ADDMA1100511999999MW1001OC101491REMMET104KP59 131651Z AUTO 32019G29KT M06/M09 A2968 RMK AO2 PK WND 32032/1626 SLP065 T10611094 PWINO FZRANO TSNO;EQDQ01+000000PRSWM2
0222725387999992005011317514+47450-087900AUTO +0186KP59 V0203201N012919999999N9999999N1-00801-01301100681ADDKA1999M-00171KA2999N-00831MA1100541999999MD1110201+9999MW1001OC101951REMMET122KP59 131751Z AUTO 32025G38KT M08/M13 A2969 RMK AO2 PK WND 33038/1743 SLP068 T10831128 11017 21083 51020 PWINO FZRANO TSNO;EQDQ01+000000PRSWM2
0191725387999992005011318514+47450-087900AUTO +0186KP59 V0203301N013419999999N9999999N1-00901-01201100751ADDAA106000091MA1100611999999MW1001OC101651REMMET104KP59 131851Z AUTO 33026G32KT M09/M12 A2971 RMK AO2 PK WND 32038/1839 SLP075 T10941122 PWINO FZRANO TSNO;EQDQ01+000000PRSWM2Q02  00002PRCP06
0164725387999992005011319514+47450-087900AUTO +0186KP59 V0203201N013912200019N9999999N1-01001-01301100851ADDMA1100711999999MW1001OC101901REMMET104KP59 131951Z AUTO 32027G37KT M10/M13 A2974 RMK AO2 PK WND 33037/1949 SLP085 T11001133 PWINO FZRANO TSNO;EQDQ01+000000PRSWM2
0169725387999992005011320514+47450-087900FM-16+0186KP59 V02099999999992200019N9999999N1+99999+99999101051ADDMD1310351+9999MW1001REMMET118KP59 132051Z AUTO 31009G28KT 270V340 M11/M14 A2979 RMK AO2 PK WND 34040/1953 SLP105 T11111139 53035 PWINO FZRANO TSNO;EQDQ01+000000PRSWM2
0197725387999992005011321514+47450-087900AUTO +0186KP59 V0203201N012319999999N9999999N1-01201-01501101151ADDAA101000391MA1100981999999MW1001OC101651REMMET110KP59 132151Z AUTO 32024G32KT M12/M15 A2982 RMK AO2 PK WND 32032/2151 SLP115 P0001 T11221150 PWINO FZRANO TSNO;EQDQ01+000000PRSWM2Q02  00002PRCP06
0164725387999992005011322514+47450-087900AUTO +0186KP59 V0203301N010812200019N9999999N1-01301-01601101301ADDMA1101121999999MW1001OC101541REMMET104KP59 132251Z AUTO 33021G30KT M13/M16 A2986 RMK AO2 PK WND 33035/2154 SLP130 T11331161 PWINO FZRANO TSNO;EQDQ01+000000PRSWM2
0255725387999992005011323514+47450-087900AUTO +0186KP59 V0203201N010319999999N9999999N1-01401-01701101501ADDAA106000391KA1999M-00831KA2999N-01391MA1101321999999MD1310411+9999MW1001OC101901REMMET128KP59 132351Z AUTO 32020G37KT M14/M17 A2992 RMK AO2 PK WND 34040/2338 SLP150 60001 T11391167 11083 21139 53041 PWINO FZRANO TSNO;EQDQ01+000000PRSWM2Q02  00038PRCP06
0203725387999992005011400514+47450-087900AUTO +0186KP59 V0203301N015419999999N9999999N1-01401-01701101621ADDMA1101421999999MW1001OC102161REMMET111KP59 140051Z AUTO 33030G42KT M14/M17 A2995 RMK AO2 PK WND 34042/0046 PRESRR SLP162 T11391167 PWINO FZRANO TSNO;EQDQ01+000000PRSWM2Q02  00002PRCP06Q03  00002PRCP06
0164725387999992005011401514+47450-087900AUTO +0186KP59 V0203301N013912200019N9999999N1-01501-01801101751ADDMA1101561999999MW1001OC102261REMMET104KP59 140151Z AUTO 33027G44KT M15/M18 A2999 RMK AO2 PK WND 35044/0150 SLP175 T11501178 PWINO FZRANO TSNO;EQDQ01+000000PRSWM2
0184725387999992005011402514+47450-087900AUTO +0186KP59 V0203301N013412200019N9999999N1-01601-01801101861ADDMA1101661999999MD1110351+9999MW1001OC101801REMMET110KP59 140251Z AUTO 33026G35KT M16/M18 A3002 RMK AO2 PK WND 34036/0233 SLP186 T11561178 51035 PWINO FZRANO TSNO;EQDQ01+000000PRSWM2
0180725387999992005011403514+47450-087900AUTO +0186KP59 V0203201N014919999999N9999999N1-01601-01801101971ADDMA1101761999999MW1001OC101701REMMET104KP59 140351Z AUTO 32029G33KT M16/M18 A3005 RMK AO2 PK WND 33038/0320 SLP197 T11611178 PWINO FZRANO TSNO;EQDQ01+000000PRSWM2Q02  00002PRCP06
0200725387999992005011404514+47450-087900AUTO +0186KP59 V0203301N013419999999N9999999N1-01701-01801102041ADDKA1999M+00061KA2999N-01721MA1101831999999MW1001OC101801REMMET114KP59 140451Z AUTO 33026G35KT M17/M18 A3007 RMK AO2 PK WND 35035/0450 SLP204 T11671183 400061172 PWINO FZRANO TSNO;EQDQ01+000000PRSWM2
0222725387999992005011405514+47450-087900AUTO +0186KP59 V0203201N009319999999N9999999N1-01701-01901102131ADDKA1999M-01281KA2999N-01721MA1101901999999MD1110231+9999MW1001OC101801REMMET122KP59 140551Z AUTO 32018G35KT M17/M19 A3009 RMK AO2 PK WND 33035/0546 SLP213 T11671194 11128 21172 51023 PWINO FZRANO TSNO;EQDQ01+000000PRSWM2
0191725387999992005011406514+47450-087900AUTO +0186KP59 V0203101N010319999999N9999999N1-01701-01901102241ADDAA106000091MA1102001999999MW1001OC101541REMMET104KP59 140651Z AUTO 31020G30KT M17/M19 A3012 RMK AO2 PK WND 33032/0641 SLP224 T11671189 PWINO FZRANO TSNO;EQDQ01+000000PRSWM2Q02  00002PRCP06
0164725387999992005011407514+47450-087900AUTO +0186KP59 V0203301N013412200019N9999999N1-01601-01801102311ADDMA1102071999999MW1001OC101851REMMET104KP59 140751Z AUTO 33026G36KT M16/M18 A3014 RMK AO2 PK WND 34036/0743 SLP231 T11611178 PWINO FZRANO TSNO;EQDQ01+000000PRSWM2
0184725387999992005011408514+47450-087900AUTO +0186KP59 V0203301N015412200019N9999999N1-01601-01801102401ADDMA1102171999999MD1110261+9999MW1001OC101901REMMET110KP59 140851Z AUTO 33030G37KT M16/M18 A3017 RMK AO2 PK WND 34038/0800 SLP240 T11611183 51026 PWINO FZRANO TSNO;EQDQ01+000000PRSWM2
0180725387999992005011409514+47450-087900AUTO +0186KP59 V0203301N011319999999N9999999N1-01701-02101102531ADDMA1102271999999MW1001OC101701REMMET104KP59 140951Z AUTO 33022G33KT M17/M21 A3020 RMK AO2 PK WND 34039/0857 SLP253 T11721206 PWINO FZRANO TSNO;EQDQ01+000000PRSWM2Q02  00002PRCP06
0164725387999992005011410514+47450-087900AUTO +0186KP59 V0203201N010312200019N9999999N1-01701-01901102661ADDMA1102401999999MW1001OC101391REMMET104KP59 141051Z AUTO 32020G27KT M17/M19 A3024 RMK AO2 PK WND 33032/1026 SLP266 T11671189 PWINO FZRANO TSNO;EQDQ01+000000PRSWM2
0255725387999992005011411514+47450-087900AUTO +0186KP59 V0203301N011819999999N9999999N1-01501-01701102691ADDAA124000391KA1999M-01501KA2999N-01781MA1102441999999MD1110271+9999MW1001OC101651REMMET128KP59 141151Z AUTO 33023G32KT M15/M17 A3025 RMK AO2 PK WND 34032/1148 SLP269 70001 T11501172 11150 21178 51027 PWINO FZRANO TSNO;EQDQ01+000000PRSWM2Q02  00038PRCP24
0205725387999992005011412514+47450-087900AUTO +0186KP59 V0203301N010319999999N9999999N1-01601-01801102801ADDAA106000091MA1102541999999MD1999999+0001MW1001OC101391REMMET104KP59 141251Z AUTO 33020G27KT M16/M18 A3028 RMK AO2 PK WND 35033/1227 SLP280 T11611183 PWINO FZRANO TSNO;EQDQ01+000000PRSWM2Q02  00002PRCP06
0164725387999992005011413514+47450-087900AUTO +0186KP59 V0203201N008212200019N9999999N1-01601-01801102871ADDMA1102611999999MW1001OC101391REMMET104KP59 141351Z AUTO 32016G27KT M16/M18 A3030 RMK AO2 PK WND 34032/1316 SLP287 T11611183 PWINO FZRANO TSNO;EQDQ01+000000PRSWM2
0184725387999992005011414514+47450-087900AUTO +0186KP59 V0203401N013412200019N9999999N1-01501-01801102971ADDMA1102711999999MD1310271+9999MW1001OC101541REMMET110KP59 141451Z AUTO 34026G30KT M15/M18 A3033 RMK AO2 PK WND 34033/1430 SLP297 T11501178 53027 PWINO FZRANO TSNO;EQDQ01+000000PRSWM2
0187725387999992005011415514+47450-087900AUTO +0186KP59 V0203301N009819999999N9999999N1-01601-01801103141ADDMA1102881999999MW1001OC101591REMMET111KP59 141551Z AUTO 33019G31KT M16/M18 A3038 RMK AO2 PK WND 34033/1516 PRESRR SLP314 T11561178 PWINO FZRANO TSNO;EQDQ01+000000PRSWM2Q02  00002PRCP06
0164725387999992005011416514+47450-087900AUTO +0186KP59 V0203201N008212200019N9999999N1-01601-01901103241ADDMA1102951999999MW1001OC101391REMMET104KP59 141651Z AUTO 32016G27KT M16/M19 A3040 RMK AO2 PK WND 34033/1616 SLP324 T11611194 PWINO FZRANO TSNO;EQDQ01+000000PRSWM2
0222725387999992005011417514+47450-087900AUTO +0186KP59 V0203301N011319999999N9999999N1-01601-01901103241ADDKA1999M-01441KA2999N-01671MA1102951999999MD1010241+9999MW1001OC101341REMMET122KP59 141751Z AUTO 33022G26KT M16/M19 A3040 RMK AO2 PK WND 33030/1740 SLP324 T11561189 11144 21167 50024 PWINO FZRANO TSNO;EQDQ01+000000PRSWM2
0191725387999992005011418514+47450-087900AUTO +0186KP59 V0203301N010319999999N9999999N1-01601-02001103261ADDAA106000091MA1102981999999MW1001OC101591REMMET104KP59 141851Z AUTO 33020G31KT M16/M20 A3041 RMK AO2 PK WND 33032/1753 SLP326 T11561200 PWINO FZRANO TSNO;EQDQ01+000000PRSWM2Q02  00002PRCP06
0164725387999992005011419514+47450-087900AUTO +0186KP59 V0203101N006712200019N9999999N1-01601-01901103231ADDMA1102981999999MW1001OC101131REMMET104KP59 141951Z AUTO 31013G22KT M16/M19 A3041 RMK AO2 PK WND 33030/1901 SLP323 T11561189 PWINO FZRANO TSNO;EQDQ01+000000PRSWM2
0184725387999992005011420514+47450-087900AUTO +0186KP59 V0203001N005112200019N9999999N1-01501-01901103181ADDMA1102911999999MD1810041+9999MW1001OC100821REMMET110KP59 142051Z AUTO 30010G16KT M15/M19 A3039 RMK AO2 PK WND 32028/1955 SLP318 T11501194 58004 PWINO FZRANO TSNO;EQDQ01+000000PRSWM2
0170725387999992005011421514+47450-087900FM-16+0186KP59 V02099999999999999999N9999999N1+99999+99999103191ADDAA101000391MW1001REMMET106SPECI KP59 142151Z AUTO 28012G18KT 250V320 M15/M19 A3039 RMK AO2 SLP319 P0001 T11501194 PWINO FZRANO TSNO;EQDQ01+000000PRSWM2Q02  00002PRCP06
0148725387999992005011422514+47450-087900FM-16+0186KP59 V02099999999999999999N9999999N1+99999+99999103151ADDAA101000591MW1001REMMET100KP59 142251Z AUTO 24010G16KT 210V280 M15/M18 A3038 RMK AO2 SLP315 P0002 T11501178 PWINO FZRANO TSNO;EQDQ01+000000PRSWM2
0223725387999992005011423514+47450-087900FM-16+0186KP59 V02099999999999999999N9999999N1+99999+99999103171ADDAA101000391AA206001091KA1999M-01501KA2999N-01671MD1510011+9999MW1001REMMET124KP59 142351Z AUTO 24009G16KT 210V270 M17/M19 A3039 RMK AO2 SLP317 P0001 60004 T11671194 11150 21167 55001 PWINO FZRANO TSNO;EQDQ01+000000PRSWM2
0195725387999992005011500514+47450-087900AUTO +0186KP59 V0202301N005719999999N9999999N1-01701-01901103171ADDAA101000891MA1102881999999MW1001OC100981REMMET092KP59 150051Z AUTO 23011G19KT M17/M19 A3038 RMK AO2 SLP317 P0003 T11721194 PWINO FZRANO TSNO;EQDQ01+000000PRSWM2Q02  00002PRCP06Q03  00002PRCP06
0163725387999992005011501514+47450-087900AUTO +0186KP59 V0202301N005719999999N9999999N1-01801-02001103141ADDAA101001391MA1102841999999MW1001OC100931REMMET092KP59 150151Z AUTO 23011G18KT M18/M20 A3037 RMK AO2 SLP314 P0005 T11781200 PWINO FZRANO TSNO;EQDQ01+000000PRSWM2
0200725387999992005011502514+47450-087900AUTO +0186KP59 V0202301N006219999999N9999999N1-01801-02001103131ADDAA101001891AA203003891MA1102841999999MD1610051+9999MW1001OC101181REMMET104KP59 150251Z AUTO 23012G23KT M18/M20 A3037 RMK AO2 SLP313 P0007 60015 T11781200 56005 PWINO FZRANO TSNO;EQDQ01+000000PRSWM2
0179725387999992005011503514+47450-087900AUTO +0186KP59 V0202301N006219999999N9999999N1-01801-02001103131ADDAA101001591MA1102841999999MW1001OC100931REMMET092KP59 150351Z AUTO 23012G18KT M18/M20 A3037 RMK AO2 SLP313 P0006 T11831200 PWINO FZRANO TSNO;EQDQ01+000000PRSWM2Q02  00002PRCP06
0199725387999992005011504514+47450-087900AUTO +0186KP59 V0202401N006219999999N9999999N1-01801-02001103151ADDAA101000891KA1999M-01441KA2999N-01831MA1102881999999MW1001OC100981REMMET102KP59 150451Z AUTO 24012G19KT M18/M20 A3038 RMK AO2 SLP315 P0003 T11831200 411441183 PWINO FZRANO TSNO;EQDQ01+000000PRSWM2
0223725387999992005011505514+47450-087900FM-16+0186KP59 V02099999999999999999N9999999N1+99999+99999103161ADDAA101001091AA206007191KA1999M-01671KA2999N-01831MD1310021+9999MW1001REMMET124KP59 150551Z AUTO 23010G18KT 200V270 M18/M21 A3038 RMK AO2 SLP316 P0004 60028 T11831206 11167 21183 53002 PWINO FZRANO TSNO;EQDQ01+000000PRSWM2
0195725387999992005011506514+47450-087900AUTO +0186KP59 V0202301N006219999999N9999999N1-01801-02101103151ADDAA101000591MA1102881999999MW1001OC100931REMMET092KP59 150651Z AUTO 23012G18KT M18/M21 A3038 RMK AO2 SLP315 P0002 T11831206 PWINO FZRANO TSNO;EQDQ01+000000PRSWM2Q02  00002PRCP06Q03  00002PRCP06
0148725387999992005011507514+47450-087900FM-16+0186KP59 V02099999999999999999N9999999N1+99999+99999103171ADDAA101000591MW1001REMMET100KP59 150751Z AUTO 24010G17KT 200V270 M18/M21 A3038 RMK AO2 SLP317 P0002 T11831211 PWINO FZRANO TSNO;EQDQ01+000000PRSWM2
0200725387999992005011508514+47450-087900AUTO +0186KP59 V0202301N005119999999N9999999N1-01901-02101103171ADDAA101000391AA203001391MA1102881999999MD1310011+9999MW1001OC100821REMMET104KP59 150851Z AUTO 23010G16KT M19/M21 A3038 RMK AO2 SLP317 P0001 60005 T11891211 53001 PWINO FZRANO TSNO;EQDQ01+000000PRSWM2
0179725387999992005011509514+47450-087900AUTO +0186KP59 V0202301N006219999999N9999999N1-01801-02101103161ADDAA101000591MA1102881999999MW1001OC100871REMMET092KP59 150951Z AUTO 23012G17KT M18/M21 A3038 RMK AO2 SLP316 P0002 T11831206 PWINO FZRANO TSNO;EQDQ01+000000PRSWM2Q02  00002PRCP06
0145725387999992005011510514+47450-087900FM-16+0186KP59 V02099999999999999999N9999999N1+99999+99999103191ADDAA101000391MW1001REMMET097KP59 151051Z AUTO 26008KT 210V320 M18/M21 A3039 RMK AO2 SLP319 P0001 T11781206 PWINO FZRANO TSNO;EQDQ01+000000PRSWM2
0258725387999992005011511514+47450-087900FM-16+0186KP59 V02099999999999999999N9999999N1+99999+99999103241ADDAA101000391AA206002391AA324010491KA1999M-01561KA2999N-01891MD1310081+9999MW1001REMMET148KP59 151151Z AUTO 31017G27KT 270V330 M16/M19 A3041 RMK AO2 PK WND 32028/1124 SLP324 P0001 60009 70041 T11611189 11156 21189 53008 PWINO FZRANO TSNO;EQDQ01+000000PRSWM2
0210725387999992005011512514+47450-087900AUTO +0186KP59 V0203001N006719999999N9999999N1-01701-01901103291ADDMA1103011999999MD1999999+0001MW1001OC101181REMMET104KP59 151251Z AUTO 30013G23KT M17/M19 A3042 RMK AO2 PK WND 33029/1200 SLP329 T11671194 PWINO FZRANO TSNO;EQDQ01+000000PRSWM2Q02  00002PRCP06Q03  00002PRCP06
0181725387999992005011513514+47450-087900AUTO +0186KP59 V0203201N007219999999N9999999N1-01701-02001103381ADDAA101000391MA1103081999999MW1001OC101231REMMET110KP59 151351Z AUTO 32014G24KT M17/M20 A3044 RMK AO2 PK WND 33027/1313 SLP338 P0001 T11721200 PWINO FZRANO TSNO;EQDQ01+000000PRSWM2
0233725387999992005011514514+47450-087900AUTO +0186KP59 V0203201N008719999999N9999999N1-01701-01901103441ADDAA103000391MA1103151999999MD1310181+9999MW1001OC101541REMMET116KP59 151451Z AUTO 32017G30KT M17/M19 A3046 RMK AO2 PK WND 32033/1433 SLP344 60001 T11671189 53018 PWINO FZRANO TSNO;EQDQ01+000000PRSWM2Q02  00002PRCP03Q03  00008PRCP03
0180725387999992005011515514+47450-087900AUTO +0186KP59 V0203401N011819999999N9999999N1-01701-01901103531ADDMA1103251999999MW1001OC101651REMMET104KP59 151551Z AUTO 34023G32KT M17/M19 A3049 RMK AO2 PK WND 33034/1540 SLP353 T11721194 PWINO FZRANO TSNO;EQDQ01+000000PRSWM2Q02  00002PRCP06
0164725387999992005011516514+47450-087900AUTO +0186KP59 V0203401N010312200019N9999999N1-01801-02001103641ADDMA1103321999999MW1001OC101291REMMET104KP59 151651Z AUTO 34020G25KT M18/M20 A3051 RMK AO2 PK WND 35035/1605 SLP364 T11781200 PWINO FZRANO TSNO;EQDQ01+000000PRSWM2
0255725387999992005011517514+47450-087900AUTO +0186KP59 V0203201N007719999999N9999999N1-01801-02101103671ADDAA106000391KA1999M-01611KA2999N-01891MA1103391999999MD1110221+9999MW1001OC101491REMMET128KP59 151751Z AUTO 32015G29KT M18/M21 A3053 RMK AO2 PK WND 33029/1747 SLP367 60001 T11831211 11161 21189 51022 PWINO FZRANO TSNO;EQDQ01+000000PRSWM2Q02  00038PRCP06
0196725387999992005011518514+47450-087900AUTO +0186KP59 V0203201N007219999999N9999999N1-01801-02101103671ADDMA1103391999999MW1001OC101341REMMET104KP59 151851Z AUTO 32014G26KT M18/M21 A3053 RMK AO2 PK WND 33029/1838 SLP367 T11831206 PWINO FZRANO TSNO;EQDQ01+000000PRSWM2Q02  00002PRCP06Q03  00002PRCP06
0146725387999992005011519514+47450-087900AUTO +0186KP59 V0203101N005112200019N9999999N1-01801-02101103701ADDMA1103391999999MW1001OC101181REMMET086KP59 151951Z AUTO 31010G23KT M18/M21 A3053 RMK AO2 SLP370 T11831211 PWINO FZRANO TSNO;EQDQ01+000000PRSWM2
0184725387999992005011520514+47450-087900AUTO +0186KP59 V0203201N008212200019N9999999N1-01801-02101103721ADDMA1103421999999MD1310041+9999MW1001OC101131REMMET110KP59 152051Z AUTO 32016G22KT M18/M21 A3054 RMK AO2 PK WND 34031/2022 SLP372 T11781206 53004 PWINO FZRANO TSNO;EQDQ01+000000PRSWM2
0162725387999992005011521514+47450-087900AUTO +0186KP59 V0203101N005719999999N9999999N1-01801-02101103751ADDMA1103451999999MW1001OC100821REMMET086KP59 152151Z AUTO 31011G16KT M18/M21 A3055 RMK AO2 SLP375 T11781206 PWINO FZRANO TSNO;EQDQ01+000000PRSWM2Q02  00002PRCP06
0164725387999992005011522514+47450-087900AUTO +0186KP59 V0203101N004612200019N9999999N1-01701-02001103781ADDMA1103491999999MW1001OC101081REMMET104KP59 152251Z AUTO 31009G21KT M17/M20 A3056 RMK AO2 PK WND 33026/2203 SLP378 T11721200 PWINO FZRANO TSNO;EQDQ01+000000PRSWM2
0229725387999992005011523514+47450-087900FM-16+0186KP59 V02099999999999999999N9999999N1+99999+99999103811ADDAA101000391AA206000391KA1999M-01671KA2999N-01891MD1310121+9999MW1001REMMET130SPECI KP59 152351Z AUTO 31010G14KT 270V340 M17/M21 A3057 RMK AO2 SLP381 P0001 60001 T11671206 11167 21189 53012 PWINO FZRANO TSNO;EQDQ01+000000PRSWM2
0196725387999992005011600514+47450-087900AUTO +0186KP59 V0203101N005119999999N9999999N1-01701-02001103851ADDMA1103561999999MW1001OC100931REMMET104KP59 160051Z AUTO 31010G18KT M17/M20 A3058 RMK AO2 PK WND 33026/0024 SLP385 T11671200 PWINO FZRANO TSNO;EQDQ01+000000PRSWM2Q02  00002PRCP06Q03  00002PRCP06
0164725387999992005011601514+47450-087900AUTO +0186KP59 V0203301N011312200019N9999999N1-01601-01801103851ADDMA1103561999999MW1001OC101491REMMET104KP59 160151Z AUTO 33022G29KT M16/M18 A3058 RMK AO2 PK WND 34029/0149 SLP385 T11561178 PWINO FZRANO TSNO;EQDQ01+000000PRSWM2
0184725387999992005011602514+47450-087900AUTO +0186KP59 V0203301N011312200019N9999999N1-01601-01801103841ADDMA1103561999999MD1010031+9999MW1001OC101491REMMET110KP59 160251Z AUTO 33022G29KT M16/M18 A3058 RMK AO2 PK WND 33029/0250 SLP384 T11561178 50003 PWINO FZRANO TSNO;EQDQ01+000000PRSWM2
0180725387999992005011603514+47450-087900AUTO +0186KP59 V0203301N010819999999N9999999N1-01501-01801103851ADDMA1103561999999MW1001OC101441REMMET104KP59 160351Z AUTO 33021G28KT M15/M18 A3058 RMK AO2 PK WND 34030/0334 SLP385 T11501183 PWINO FZRANO TSNO;EQDQ01+000000PRSWM2Q02  00002PRCP06
0200725387999992005011604514+47450-087900AUTO +0186KP59 V0203401N011819999999N9999999N1-01601-01901103871ADDKA1999M-01501KA2999N-01891MA1103591999999MW1001OC101391REMMET114KP59 160451Z AUTO 34023G27KT M16/M19 A3059 RMK AO2 PK WND 33031/0359 SLP387 T11611189 411501189 PWINO FZRANO TSNO;EQDQ01+000000PRSWM2
0222725387999992005011605514+47450-087900AUTO +0186KP59 V0203301N009319999999N9999999N1-01701-02001103931ADDKA1999M-01501KA2999N-01671MA1103621999999MD1310071+9999MW1001OC101491REMMET122KP59 160551Z AUTO 33018G29KT M17/M20 A3060 RMK AO2 PK WND 34029/0548 SLP393 T11671200 11150 21167 53007 PWINO FZRANO TSNO;EQDQ01+000000PRSWM2
0191725387999992005011606514+47450-087900AUTO +0186KP59 V0203301N010319999999N9999999N1-01701-02101103921ADDAA106000091MA1103621999999MW1001OC101341REMMET104KP59 160651Z AUTO 33020G26KT M17/M21 A3060 RMK AO2 PK WND 34028/0554 SLP392 T11671206 PWINO FZRANO TSNO;EQDQ01+000000PRSWM2Q02  00002PRCP06
