0054727430999992005010100009+46533-087550NSRDB+043199999V020999999999999999999999999999+99999+99999999999ADDGP10060000002000000002000000002000GR100600000900009
0054727430999992005010101009+46533-087550NSRDB+043199999V020999999999999999999999999999+99999+99999999999ADDGP10060000002000000002000000002000GR100600000900009
0054727430999992005010102009+46533-087550NSRDB+043199999V020999999999999999999999999999+99999+99999999999ADDGP10060000002000000002000000002000GR100600000900009
0054727430999992005010103009+46533-087550NSRDB+043199999V020999999999999999999999999999+99999+99999999999ADDGP10060000002000000002000000002000GR100600000900009
0054727430999992005010104009+46533-087550NSRDB+043199999V020999999999999999999999999999+99999+99999999999ADDGP10060000002000000002000000002000GR100600000900009
0054727430999992005010105009+46533-087550NSRDB+043199999V020999999999999999999999999999+99999+99999999999ADDGP10060000002000000002000000002000GR100600000900009
0054727430999992005010106009+46533-087550NSRDB+043199999V020999999999999999999999999999+99999+99999999999ADDGP10060000002000000002000000002000GR100600000900009
0054727430999992005010107009+46533-087550NSRDB+043199999V020999999999999999999999999999+99999+99999999999ADDGP10060000002000000002000000002000GR100600000900009
0054727430999992005010108009+46533-087550NSRDB+043199999V020999999999999999999999999999+99999+99999999999ADDGP10060000002000000002000000002000GR100600000900009
0054727430999992005010109009+46533-087550NSRDB+043199999V020999999999999999999999999999+99999+99999999999ADDGP10060000002000000002000000002000GR100600000900009
0054727430999992005010110009+46533-087550NSRDB+043199999V020999999999999999999999999999+99999+99999999999ADDGP10060000002000000002000000002000GR100600000900009
0054727430999992005010111009+46533-087550NSRDB+043199999V020999999999999999999999999999+99999+99999999999ADDGP10060000002000000002000000002000GR100600000900009
0054727430999992005010112009+46533-087550NSRDB+043199999V020999999999999999999999999999+99999+99999999999ADDGP10060000002000000002000000002000GR100600000900009
0054727430999992005010113009+46533-087550NSRDB+043199999V020999999999999999999999999999+99999+99999999999ADDGP10060000002000000002000000002000GR100600000900009
0071727430999992005010114009+46533-087550NSRDB+043199999V020999999999999999999999999999+99999+99999999999ADDGP10060000002009000002021000002009GQ100600885912609GR100600014905549
0071727430999992005010115009+46533-087550NSRDB+043199999V020999999999999999999999999999+99999+99999999999ADDGP10060009202009040102021004502009GQ100600833913409GR100600165914159
0071727430999992005010116009+46533-087550NSRDB+043199999V020999999999999999999999999999+99999+99999999999ADDGP10060020702009042002021011002009GQ100600767914639GR100600324914159
0071727430999992005010117009+46533-087550NSRDB+043199999V020999999999999999999999999999+99999+99999999999ADDGP10060009702009000002021009702009GQ100600721915989GR100600435914159
0071727430999992005010118009+46533-087550NSRDB+043199999V020999999999999999999999999999+99999+99999999999ADDGP10060017802009007902021015102009GQ100600698917419GR100600489914159
0071727430999992005010119009+46533-087550NSRDB+043199999V020999999999999999999999999999+99999+99999999999ADDGP10060017002009008402021014202009GQ100600700918889GR100600483914159
0071727430999992005010120009+46533-087550NSRDB+043199999V020999999999999999999999999999+99999+99999999999ADDGP10060026202009054002021010202009GQ100600728920309GR100600418914159
0071727430999992005010121009+46533-087550NSRDB+043199999V020999999999999999999999999999+99999+99999999999ADDGP10060017202009063502021003902009GQ100600779921639GR100600296914159
0071727430999992005010122009+46533-087550NSRDB+043199999V020999999999999999999999999999+99999+99999999999ADDGP10060005502009034502021002302009GQ100600847922849GR100600130914159
0071727430999992005010123009+46533-087550NSRDB+043199999V020999999999999999999999999999+99999+99999999999ADDGP10060000002009000002021000002009GQ100600892923519GR100600004902719
0054727430999992005010200009+46533-087550NSRDB+043199999V020999999999999999999999999999+99999+99999999999ADDGP10060000002000000002000000002000GR100600000900009
0054727430999992005010201009+46533-087550NSRDB+043199999V020999999999999999999999999999+99999+99999999999ADDGP10060000002000000002000000002000GR100600000900009
0054727430999992005010202009+46533-087550NSRDB+043199999V020999999999999999999999999999+99999+99999999999ADDGP10060000002000000002000000002000GR100600000900009
0054727430999992005010203009+46533-087550NSRDB+043199999V020999999999999999999999999999+99999+99999999999ADDGP10060000002000000002000000002000GR100600000900009
0054727430999992005010204009+46533-087550NSRDB+043199999V020999999999999999999999999999+99999+99999999999ADDGP10060000002000000002000000002000GR100600000900009
0054727430999992005010205009+46533-087550NSRDB+043199999V020999999999999999999999999999+99999+99999999999ADDGP10060000002000000002000000002000GR100600000900009
0054727430999992005010206009+46533-087550NSRDB+043199999V020999999999999999999999999999+99999+99999999999ADDGP10060000002000000002000000002000GR100600000900009
0054727430999992005010207009+46533-087550NSRDB+043199999V020999999999999999999999999999+99999+99999999999ADDGP10060000002000000002000000002000GR100600000900009
0054727430999992005010208009+46533-087550NSRDB+043199999V020999999999999999999999999999+99999+99999999999ADDGP10060000002000000002000000002000GR100600000900009
0054727430999992005010209009+46533-087550NSRDB+043199999V020999999999999999999999999999+99999+99999999999ADDGP10060000002000000002000000002000GR100600000900009
0054727430999992005010210009+46533-087550NSRDB+043199999V020999999999999999999999999999+99999+99999999999ADDGP10060000002000000002000000002000GR100600000900009
0054727430999992005010211009+46533-087550NSRDB+043199999V020999999999999999999999999999+99999+99999999999ADDGP10060000002000000002000000002000GR100600000900009
0054727430999992005010212009+46533-087550NSRDB+043199999V020999999999999999999999999999+99999+99999999999ADDGP10060000002000000002000000002000GR100600000900009
0054727430999992005010213009+46533-087550NSRDB+043199999V020999999999999999999999999999+99999+99999999999ADDGP10060000002000000002000000002000GR100600000900009
0071727430999992005010214009+46533-087550NSRDB+043199999V020999999999999999999999999999+99999+99999999999ADDGP10060000002009000002021000002009GQ100600885912599GR100600015905549
0071727430999992005010215009+46533-087550NSRDB+043199999V020999999999999999999999999999+99999+99999999999ADDGP10060009202009021502021006702009GQ100600833913389GR100600166914159
0071727430999992005010216009+46533-087550NSRDB+043199999V020999999999999999999999999999+99999+99999999999ADDGP10060012902009014002021009602009GQ100600767914619GR100600325914159
0071727430999992005010217009+46533-087550NSRDB+043199999V020999999999999999999999999999+99999+99999999999ADDGP10060024602009033802021014102009GQ100600720915969GR100600437914159
0071727430999992005010218009+46533-087550NSRDB+043199999V020999999999999999999999999999+99999+99999999999ADDGP10060005502009000002021005502009GQ100600697917409GR100600491914159
0071727430999992005010219009+46533-087550NSRDB+043199999V020999999999999999999999999999+99999+99999999999ADDGP10060012302009000602021012102009GQ100600699918879GR100600486914159
0071727430999992005010220009+46533-087550NSRDB+043199999V020999999999999999999999999999+99999+99999999999ADDGP10060026802009055802021010102009GQ100600727920309GR100600420914159
0071727430999992005010221009+46533-087550NSRDB+043199999V020999999999999999999999999999+99999+99999999999ADDGP10060018302009063002021004902009GQ100600778921629GR100600299914159
0071727430999992005010222009+46533-087550NSRDB+043199999V020999999999999999999999999999+99999+99999999999ADDGP10060005602009029802021002702009GQ100600846922839GR100600133914159
0071727430999992005010223009+46533-087550NSRDB+043199999V020999999999999999999999999999+99999+99999999999ADDGP10060000002009000002021000002009GQ100600892923519GR100600004902959
0054727430999992005010300009+46533-087550NSRDB+043199999V020999999999999999999999999999+99999+99999999999ADDGP10060000002000000002000000002000GR100600000900009
0054727430999992005010301009+46533-087550NSRDB+043199999V020999999999999999999999999999+99999+99999999999ADDGP10060000002000000002000000002000GR100600000900009
0054727430999992005010302009+46533-087550NSRDB+043199999V020999999999999999999999999999+99999+99999999999ADDGP10060000002000000002000000002000GR100600000900009
0054727430999992005010303009+46533-087550NSRDB+043199999V020999999999999999999999999999+99999+99999999999ADDGP10060000002000000002000000002000GR100600000900009
0054727430999992005010304009+46533-087550NSRDB+043199999V020999999999999999999999999999+99999+99999999999ADDGP10060000002000000002000000002000GR100600000900009
0054727430999992005010305009+46533-087550NSRDB+043199999V020999999999999999999999999999+99999+99999999999ADDGP10060000002000000002000000002000GR100600000900009
0054727430999992005010306009+46533-087550NSRDB+043199999V020999999999999999999999999999+99999+99999999999ADDGP10060000002000000002000000002000GR100600000900009
0054727430999992005010307009+46533-087550NSRDB+043199999V020999999999999999999999999999+99999+99999999999ADDGP10060000002000000002000000002000GR100600000900009
0054727430999992005010308009+46533-087550NSRDB+043199999V020999999999999999999999999999+99999+99999999999ADDGP10060000002000000002000000002000GR100600000900009
0054727430999992005010309009+46533-087550NSRDB+043199999V020999999999999999999999999999+99999+99999999999ADDGP10060000002000000002000000002000GR100600000900009
0054727430999992005010310009+46533-087550NSRDB+043199999V020999999999999999999999999999+99999+99999999999ADDGP10060000002000000002000000002000GR100600000900009
0054727430999992005010311009+46533-087550NSRDB+043199999V020999999999999999999999999999+99999+99999999999ADDGP10060000002000000002000000002000GR100600000900009
0054727430999992005010312009+46533-087550NSRDB+043199999V020999999999999999999999999999+99999+99999999999ADDGP10060000002000000002000000002000GR100600000900009
0054727430999992005010313009+46533-087550NSRDB+043199999V020999999999999999999999999999+99999+99999999999ADDGP10060000002000000002000000002000GR100600000900009
0071727430999992005010314009+46533-087550NSRDB+043199999V020999999999999999999999999999+99999+99999999999ADDGP10060000002009000002021000002009GQ100600885912589GR100600015905549
0071727430999992005010315009+46533-087550NSRDB+043199999V020999999999999999999999999999+99999+99999999999ADDGP10060002002009000002021002002009GQ100600832913379GR100600167914159
0071727430999992005010316009+46533-087550NSRDB+043199999V020999999999999999999999999999+99999+99999999999ADDGP10060015702009026702021009502009GQ100600767914609GR100600326914159
0071727430999992005010317009+46533-087550NSRDB+043199999V020999999999999999999999999999+99999+99999999999ADDGP10060029102009057102021011402009GQ100600720915959GR100600438914159
0071727430999992005010318009+46533-087550NSRDB+043199999V020999999999999999999999999999+99999+99999999999ADDGP10060018402009009702021015002009GQ100600696917399GR100600493914159
0071727430999992005010319009+46533-087550NSRDB+043199999V020999999999999999999999999999+99999+99999999999ADDGP10060021202009019102021014602009GQ100600698918869GR100600488914159
0071727430999992005010320009+46533-087550NSRDB+043199999V020999999999999999999999999999+99999+99999999999ADDGP10060025702009055202021009102009GQ100600726920299GR100600423914159
0071727430999992005010321009+46533-087550NSRDB+043199999V020999999999999999999999999999+99999+99999999999ADDGP10060016802009058502021004202009GQ100600776921629GR100600303914159
0071727430999992005010322009+46533-087550NSRDB+043199999V020999999999999999999999999999+99999+99999999999ADDGP10060005602009032402021002502009GQ100600845922839GR100600136914159
0071727430999992005010323009+46533-087550NSRDB+043199999V020999999999999999999999999999+99999+99999999999ADDGP10060000002009000002021000002009GQ100600891923529GR100600005903189
0054727430999992005010400009+46533-087550NSRDB+043199999V020999999999999999999999999999+99999+99999999999ADDGP10060000002000000002000000002000GR100600000900009
0054727430999992005010401009+46533-087550NSRDB+043199999V020999999999999999999999999999+99999+99999999999ADDGP10060000002000000002000000002000GR100600000900009
0054727430999992005010402009+46533-087550NSRDB+043199999V020999999999999999999999999999+99999+99999999999ADDGP10060000002000000002000000002000GR100600000900009
0054727430999992005010403009+46533-087550NSRDB+043199999V020999999999999999999999999999+99999+99999999999ADDGP10060000002000000002000000002000GR100600000900009
0054727430999992005010404009+46533-087550NSRDB+043199999V020999999999999999999999999999+99999+99999999999ADDGP10060000002000000002000000002000GR100600000900009
0054727430999992005010405009+46533-087550NSRDB+043199999V020999999999999999999999999999+99999+99999999999ADDGP10060000002000000002000000002000GR100600000900009
0054727430999992005010406009+46533-087550NSRDB+043199999V020999999999999999999999999999+99999+99999999999ADDGP10060000002000000002000000002000GR100600000900009
0054727430999992005010407009+46533-087550NSRDB+043199999V020999999999999999999999999999+99999+99999999999ADDGP10060000002000000002000000002000GR100600000900009
0054727430999992005010408009+46533-087550NSRDB+043199999V020999999999999999999999999999+99999+99999999999ADDGP10060000002000000002000000002000GR100600000900009
0054727430999992005010409009+46533-087550NSRDB+043199999V020999999999999999999999999999+99999+99999999999ADDGP10060000002000000002000000002000GR100600000900009
0054727430999992005010410009+46533-087550NSRDB+043199999V020999999999999999999999999999+99999+99999999999ADDGP10060000002000000002000000002000GR100600000900009
0054727430999992005010411009+46533-087550NSRDB+043199999V020999999999999999999999999999+99999+99999999999ADDGP10060000002000000002000000002000GR100600000900009
0054727430999992005010412009+46533-087550NSRDB+043199999V020999999999999999999999999999+99999+99999999999ADDGP10060000002000000002000000002000GR100600000900009
0054727430999992005010413009+46533-087550NSRDB+043199999V020999999999999999999999999999+99999+99999999999ADDGP10060000002000000002000000002000GR100600000900009
0071727430999992005010414009+46533-087550NSRDB+043199999V020999999999999999999999999999+99999+99999999999ADDGP10060000002009000002021000002009GQ100600885912559GR100600015905789
0071727430999992005010415009+46533-087550NSRDB+043199999V020999999999999999999999999999+99999+99999999999ADDGP10060010202009040802021005302009GQ100600832913359GR100600167914159
0071727430999992005010416009+46533-087550NSRDB+043199999V020999999999999999999999999999+99999+99999999999ADDGP10060020702009069402021004602009GQ100600766914599GR100600328914159
0071727430999992005010417009+46533-087550NSRDB+043199999V020999999999999999999999999999+99999+99999999999ADDGP10060029802009051602021013702009GQ100600719915949GR100600440914159
0071727430999992005010418009+46533-087550NSRDB+043199999V020999999999999999999999999999+99999+99999999999ADDGP10060006802009000002021006802009GQ100600695917389GR100600496914159
0071727430999992005010419009+46533-087550NSRDB+043199999V020999999999999999999999999999+99999+99999999999ADDGP10060012902009001202021012502009GQ100600697918859GR100600491914159
0071727430999992005010420009+46533-087550NSRDB+043199999V020999999999999999999999999999+99999+99999999999ADDGP10060017302009017002021012202009GQ100600725920289GR100600426914159
0071727430999992005010421009+46533-087550NSRDB+043199999V020999999999999999999999999999+99999+99999999999ADDGP10060017902009046602021007702009GQ100600775921619GR100600306914159
0071727430999992005010422009+46533-087550NSRDB+043199999V020999999999999999999999999999+99999+99999999999ADDGP10060006402009038102021002602009GQ100600843922839GR100600140914159
0071727430999992005010423009+46533-087550NSRDB+043199999V020999999999999999999999999999+99999+99999999999ADDGP10060000002009000002021000002009GQ100600890923539GR100600006903429
0054727430999992005010500009+46533-087550NSRDB+043199999V020999999999999999999999999999+99999+99999999999ADDGP10060000002000000002000000002000GR100600000900009
0054727430999992005010501009+46533-087550NSRDB+043199999V020999999999999999999999999999+99999+99999999999ADDGP10060000002000000002000000002000GR100600000900009
0054727430999992005010502009+46533-087550NSRDB+043199999V020999999999999999999999999999+99999+99999999999ADDGP10060000002000000002000000002000GR100600000900009
0054727430999992005010503009+46533-087550NSRDB+043199999V020999999999999999999999999999+99999+99999999999ADDGP10060000002000000002000000002000GR100600000900009
0054727430999992005010504009+46533-087550NSRDB+043199999V020999999999999999999999999999+99999+99999999999ADDGP10060000002000000002000000002000GR100600000900009
0054727430999992005010505009+46533-087550NSRDB+043199999V020999999999999999999999999999+99999+99999999999ADDGP10060000002000000002000000002000GR100600000900009
0054727430999992005010506009+46533-087550NSRDB+043199999V020999999999999999999999999999+99999+99999999999ADDGP10060000002000000002000000002000GR100600000900009
0054727430999992005010507009+46533-087550NSRDB+043199999V020999999999999999999999999999+99999+99999999999ADDGP10060000002000000002000000002000GR100600000900009
0054727430999992005010508009+46533-087550NSRDB+043199999V020999999999999999999999999999+99999+99999999999ADDGP10060000002000000002000000002000GR100600000900009
0054727430999992005010509009+46533-087550NSRDB+043199999V020999999999999999999999999999+99999+99999999999ADDGP10060000002000000002000000002000GR100600000900009
0054727430999992005010510009+46533-087550NSRDB+043199999V020999999999999999999999999999+99999+99999999999ADDGP10060000002000000002000000002000GR100600000900009
0054727430999992005010511009+46533-087550NSRDB+043199999V020999999999999999999999999999+99999+99999999999ADDGP10060000002000000002000000002000GR100600000900009
0054727430999992005010512009+46533-087550NSRDB+043199999V020999999999999999999999999999+99999+99999999999ADDGP10060000002000000002000000002000GR100600000900009
0054727430999992005010513009+46533-087550NSRDB+043199999V020999999999999999999999999999+99999+99999999999ADDGP10060000002000000002000000002000GR100600000900009
0071727430999992005010514009+46533-087550NSRDB+043199999V020999999999999999999999999999+99999+99999999999ADDGP10060000002009000002021000002009GQ100600885912549GR100600015905789
0071727430999992005010515009+46533-087550NSRDB+043199999V020999999999999999999999999999+99999+99999999999ADDGP10060006102009007402021005202009GQ100600832913349GR100600168914159
0071727430999992005010516009+46533-087550NSRDB+043199999V020999999999999999999999999999+99999+99999999999ADDGP10060007902009000002021007902009GQ100600766914579GR100600329914159
0071727430999992005010517009+46533-087550NSRDB+043199999V020999999999999999999999999999+99999+99999999999ADDGP10060022702009031902021012602009GQ100600718915929GR100600442914159
0071727430999992005010518009+46533-087550NSRDB+043199999V020999999999999999999999999999+99999+99999999999ADDGP10060023302009021102021015902009GQ100600694917369GR100600498914159
0071727430999992005010519009+46533-087550NSRDB+043199999V020999999999999999999999999999+99999+99999999999ADDGP10060031202009053702021012402009GQ100600696918849GR100600494914159
0071727430999992005010520009+46533-087550NSRDB+043199999V020999999999999999999999999999+99999+99999999999ADDGP10060019602009022902021012602009GQ100600723920279GR100600430914159
0071727430999992005010521009+46533-087550NSRDB+043199999V020999999999999999999999999999+99999+99999999999ADDGP10060016402009035902021008502009GQ100600774921619GR100600310914159
0071727430999992005010522009+46533-087550NSRDB+043199999V020999999999999999999999999999+99999+99999999999ADDGP10060003802009006002021003202009GQ100600842922839GR100600143914159
0071727430999992005010523009+46533-087550NSRDB+043199999V020999999999999999999999999999+99999+99999999999ADDGP10060000002009000002021000002009GQ100600890923559GR100600007903899
0054727430999992005010600009+46533-087550NSRDB+043199999V020999999999999999999999999999+99999+99999999999ADDGP10060000002000000002000000002000GR100600000900009
0054727430999992005010601009+46533-087550NSRDB+043199999V020999999999999999999999999999+99999+99999999999ADDGP10060000002000000002000000002000GR100600000900009
0054727430999992005010602009+46533-087550NSRDB+043199999V020999999999999999999999999999+99999+99999999999ADDGP10060000002000000002000000002000GR100600000900009
0054727430999992005010603009+46533-087550NSRDB+043199999V020999999999999999999999999999+99999+99999999999ADDGP10060000002000000002000000002000GR100600000900009
0054727430999992005010604009+46533-087550NSRDB+043199999V020999999999999999999999999999+99999+99999999999ADDGP10060000002000000002000000002000GR100600000900009
0054727430999992005010605009+46533-087550NSRDB+043199999V020999999999999999999999999999+99999+99999999999ADDGP10060000002000000002000000002000GR100600000900009
0054727430999992005010606009+46533-087550NSRDB+043199999V020999999999999999999999999999+99999+99999999999ADDGP10060000002000000002000000002000GR100600000900009
0054727430999992005010607009+46533-087550NSRDB+043199999V020999999999999999999999999999+99999+99999999999ADDGP10060000002000000002000000002000GR100600000900009
0054727430999992005010608009+46533-087550NSRDB+043199999V020999999999999999999999999999+99999+99999999999ADDGP10060000002000000002000000002000GR100600000900009
0054727430999992005010609009+46533-087550NSRDB+043199999V020999999999999999999999999999+99999+99999999999ADDGP10060000002000000002000000002000GR100600000900009
0054727430999992005010610009+46533-087550NSRDB+043199999V020999999999999999999999999999+99999+99999999999ADDGP10060000002000000002000000002000GR100600000900009
0054727430999992005010611009+46533-087550NSRDB+043199999V020999999999999999999999999999+99999+99999999999ADDGP10060000002000000002000000002000GR100600000900009
0054727430999992005010612009+46533-087550NSRDB+043199999V020999999999999999999999999999+99999+99999999999ADDGP10060000002000000002000000002000GR100600000900009
0054727430999992005010613009+46533-087550NSRDB+043199999V020999999999999999999999999999+99999+99999999999ADDGP10060000002000000002000000002000GR100600000900009
0071727430999992005010614009+46533-087550NSRDB+043199999V020999999999999999999999999999+99999+99999999999ADDGP10060000002009000002021000002009GQ100600885912529GR100600015905789
0071727430999992005010615009+46533-087550NSRDB+043199999V020999999999999999999999999999+99999+99999999999ADDGP10060009102009018502021006902009GQ100600831913329GR100600169914159
0071727430999992005010616009+46533-087550NSRDB+043199999V020999999999999999999999999999+99999+99999999999ADDGP10060008602009000002021008602009GQ100600765914569GR100600331914159
0071727430999992005010617009+46533-087550NSRDB+043199999V020999999999999999999999999999+99999+99999999999ADDGP10060007802009000002021007802009GQ100600717915919GR100600444914159
0071727430999992005010618009+46533-087550NSRDB+043199999V020999999999999999999999999999+99999+99999999999ADDGP10060009202009000002021009202009GQ100600693917359GR100600501914159
0071727430999992005010619009+46533-087550NSRDB+043199999V020999999999999999999999999999+99999+99999999999ADDGP10060017702009007202021015102009GQ100600694918839GR100600497914159
0071727430999992005010620009+46533-087550NSRDB+043199999V020999999999999999999999999999+99999+99999999999ADDGP10060012902009001802021012302009GQ100600722920279GR100600433914159
0071727430999992005010621009+46533-087550NSRDB+043199999V020999999999999999999999999999+99999+99999999999ADDGP10060008702009001702021008302009GQ100600772921619GR100600313914159
0071727430999992005010622009+46533-087550NSRDB+043199999V020999999999999999999999999999+99999+99999999999ADDGP10060003502009002502021003202009GQ100600840922829GR100600147914159
0071727430999992005010623009+46533-087550NSRDB+043199999V020999999999999999999999999999+99999+99999999999ADDGP10060000002009000002021000002009GQ100600890923559GR100600008904139
0054727430999992005010700009+46533-087550NSRDB+043199999V020999999999999999999999999999+99999+99999999999ADDGP10060000002000000002000000002000GR100600000900009
0054727430999992005010701009+46533-087550NSRDB+043199999V020999999999999999999999999999+99999+99999999999ADDGP10060000002000000002000000002000GR100600000900009
0054727430999992005010702009+46533-087550NSRDB+043199999V020999999999999999999999999999+99999+99999999999ADDGP10060000002000000002000000002000GR100600000900009
0054727430999992005010703009+46533-087550NSRDB+043199999V020999999999999999999999999999+99999+99999999999ADDGP10060000002000000002000000002000GR100600000900009
0054727430999992005010704009+46533-087550NSRDB+043199999V020999999999999999999999999999+99999+99999999999ADDGP10060000002000000002000000002000GR100600000900009
0054727430999992005010705009+46533-087550NSRDB+043199999V020999999999999999999999999999+99999+99999999999ADDGP10060000002000000002000000002000GR100600000900009
0054727430999992005010706009+46533-087550NSRDB+043199999V020999999999999999999999999999+99999+99999999999ADDGP10060000002000000002000000002000GR100600000900009
0054727430999992005010707009+46533-087550NSRDB+043199999V020999999999999999999999999999+99999+99999999999ADDGP10060000002000000002000000002000GR100600000900009
0054727430999992005010708009+46533-087550NSRDB+043199999V020999999999999999999999999999+99999+99999999999ADDGP10060000002000000002000000002000GR100600000900009
0054727430999992005010709009+46533-087550NSRDB+043199999V020999999999999999999999999999+99999+99999999999ADDGP10060000002000000002000000002000GR100600000900009
0054727430999992005010710009+46533-087550NSRDB+043199999V020999999999999999999999999999+99999+99999999999ADDGP10060000002000000002000000002000GR100600000900009
0054727430999992005010711009+46533-087550NSRDB+043199999V020999999999999999999999999999+99999+99999999999ADDGP10060000002000000002000000002000GR100600000900009
0054727430999992005010712009+46533-087550NSRDB+043199999V020999999999999999999999999999+99999+99999999999ADDGP10060000002000000002000000002000GR100600000900009
0054727430999992005010713009+46533-087550NSRDB+043199999V020999999999999999999999999999+99999+99999999999ADDGP10060000002000000002000000002000GR100600000900009
0071727430999992005010714009+46533-087550NSRDB+043199999V020999999999999999999999999999+99999+99999999999ADDGP10060000002009000002021000002009GQ100600884912519GR100600016905789
0071727430999992005010715009+46533-087550NSRDB+043199999V020999999999999999999999999999+99999+99999999999ADDGP10060010102009040602021005202009GQ100600831913319GR100600171914159
0071727430999992005010716009+46533-087550NSRDB+043199999V020999999999999999999999999999+99999+99999999999ADDGP10060022102009072502021005002009GQ100600764914549GR100600332914159
0071727430999992005010717009+46533-087550NSRDB+043199999V020999999999999999999999999999+99999+99999999999ADDGP10060030402009080402021005002009GQ100600716915899GR100600446914159
0071727430999992005010718009+46533-087550NSRDB+043199999V020999999999999999999999999999+99999+99999999999ADDGP10060035002009070702021009802009GQ100600692917349GR100600503914159
0071727430999992005010719009+46533-087550NSRDB+043199999V020999999999999999999999999999+99999+99999999999ADDGP10060028302009043602021012802009GQ100600693918829GR100600500914159
0071727430999992005010720009+46533-087550NSRDB+043199999V020999999999999999999999999999+99999+99999999999ADDGP10060024102009047102021009502009GQ100600720920269GR100600437914159
0071727430999992005010721009+46533-087550NSRDB+043199999V020999999999999999999999999999+99999+99999999999ADDGP10060019502009059302021006202009GQ100600770921609GR100600317914159
0071727430999992005010722009+46533-087550NSRDB+043199999V020999999999999999999999999999+99999+99999999999ADDGP10060007002009041702021002602009GQ100600839922829GR100600151914159
0071727430999992005010723009+46533-087550NSRDB+043199999V020999999999999999999999999999+99999+99999999999ADDGP10060000002009000002021000002009GQ100600889923569GR100609999904369
0054727430999992005010800009+46533-087550NSRDB+043199999V020999999999999999999999999999+99999+99999999999ADDGP10060000002000000002000000002000GR100600000900009
0054727430999992005010801009+46533-087550NSRDB+043199999V020999999999999999999999999999+99999+99999999999ADDGP10060000002000000002000000002000GR100600000900009
0054727430999992005010802009+46533-087550NSRDB+043199999V020999999999999999999999999999+99999+99999999999ADDGP10060000002000000002000000002000GR100600000900009
0054727430999992005010803009+46533-087550NSRDB+043199999V020999999999999999999999999999+99999+99999999999ADDGP10060000002000000002000000002000GR100600000900009
0054727430999992005010804009+46533-087550NSRDB+043199999V020999999999999999999999999999+99999+99999999999ADDGP10060000002000000002000000002000GR100600000900009
0054727430999992005010805009+46533-087550NSRDB+043199999V020999999999999999999999999999+99999+99999999999ADDGP10060000002000000002000000002000GR100600000900009
0054727430999992005010806009+46533-087550NSRDB+043199999V020999999999999999999999999999+99999+99999999999ADDGP10060000002000000002000000002000GR100600000900009
0054727430999992005010807009+46533-087550NSRDB+043199999V020999999999999999999999999999+99999+99999999999ADDGP10060000002000000002000000002000GR100600000900009
0054727430999992005010808009+46533-087550NSRDB+043199999V020999999999999999999999999999+99999+99999999999ADDGP10060000002000000002000000002000GR100600000900009
0054727430999992005010809009+46533-087550NSRDB+043199999V020999999999999999999999999999+99999+99999999999ADDGP10060000002000000002000000002000GR100600000900009
0054727430999992005010810009+46533-087550NSRDB+043199999V020999999999999999999999999999+99999+99999999999ADDGP10060000002000000002000000002000GR100600000900009
0054727430999992005010811009+46533-087550NSRDB+043199999V020999999999999999999999999999+99999+99999999999ADDGP10060000002000000002000000002000GR100600000900009
0054727430999992005010812009+46533-087550NSRDB+043199999V020999999999999999999999999999+99999+99999999999ADDGP10060000002000000002000000002000GR100600000900009
0054727430999992005010813009+46533-087550NSRDB+043199999V020999999999999999999999999999+99999+99999999999ADDGP10060000002000000002000000002000GR100600000900009
0071727430999992005010814009+46533-087550NSRDB+043199999V020999999999999999999999999999+99999+99999999999ADDGP10060000002009000002021000002009GQ100600885912489GR100600016906019
0071727430999992005010815009+46533-087550NSRDB+043199999V020999999999999999999999999999+99999+99999999999ADDGP10060004002009000002021004002009GQ100600830913299GR100600172914159
0071727430999992005010816009+46533-087550NSRDB+043199999V020999999999999999999999999999+99999+99999999999ADDGP10060005002009000002021005002009GQ100600763914539GR100600334914159
0071727430999992005010817009+46533-087550NSRDB+043199999V020999999999999999999999999999+99999+99999999999ADDGP10060006502009000002021006502009GQ100600715915889GR100600449914159
0071727430999992005010818009+46533-087550NSRDB+043199999V020999999999999999999999999999+99999+99999999999ADDGP10060008002009000002021008002009GQ100600690917339GR100600506914159
0071727430999992005010819009+46533-087550NSRDB+043199999V020999999999999999999999999999+99999+99999999999ADDGP10060009402009000002021009402009GQ100600692918819GR100600503914159
0071727430999992005010820009+46533-087550NSRDB+043199999V020999999999999999999999999999+99999+99999999999ADDGP10060006702009000002021006702009GQ100600719920269GR100600440914159
0071727430999992005010821009+46533-087550NSRDB+043199999V020999999999999999999999999999+99999+99999999999ADDGP10060006702009000002021006702009GQ100600769921609GR100600321914159
0071727430999992005010822009+46533-087550NSRDB+043199999V020999999999999999999999999999+99999+99999999999ADDGP10060002402009000002021002402009GQ100600837922829GR100600155914159
0071727430999992005010823009+46533-087550NSRDB+043199999V020999999999999999999999999999+99999+99999999999ADDGP10060000002009000002021000002009GQ100600888923579GR100600010904609
0054727430999992005010900009+46533-087550NSRDB+043199999V020999999999999999999999999999+99999+99999999999ADDGP10060000002000000002000000002000GR100600000900009
0054727430999992005010901009+46533-087550NSRDB+043199999V020999999999999999999999999999+99999+99999999999ADDGP10060000002000000002000000002000GR100600000900009
0054727430999992005010902009+46533-087550NSRDB+043199999V020999999999999999999999999999+99999+99999999999ADDGP10060000002000000002000000002000GR100600000900009
0054727430999992005010903009+46533-087550NSRDB+043199999V020999999999999999999999999999+99999+99999999999ADDGP10060000002000000002000000002000GR100600000900009
0054727430999992005010904009+46533-087550NSRDB+043199999V020999999999999999999999999999+99999+99999999999ADDGP10060000002000000002000000002000GR100600000900009
0054727430999992005010905009+46533-087550NSRDB+043199999V020999999999999999999999999999+99999+99999999999ADDGP10060000002000000002000000002000GR100600000900009
0054727430999992005010906009+46533-087550NSRDB+043199999V020999999999999999999999999999+99999+99999999999ADDGP10060000002000000002000000002000GR100600000900009
0054727430999992005010907009+46533-087550NSRDB+043199999V020999999999999999999999999999+99999+99999999999ADDGP10060000002000000002000000002000GR100600000900009
0054727430999992005010908009+46533-087550NSRDB+043199999V020999999999999999999999999999+99999+99999999999ADDGP10060000002000000002000000002000GR100600000900009
0054727430999992005010909009+46533-087550NSRDB+043199999V020999999999999999999999999999+99999+99999999999ADDGP10060000002000000002000000002000GR100600000900009
0054727430999992005010910009+46533-087550NSRDB+043199999V020999999999999999999999999999+99999+99999999999ADDGP10060000002000000002000000002000GR100600000900009
0054727430999992005010911009+46533-087550NSRDB+043199999V020999999999999999999999999999+99999+99999999999ADDGP10060000002000000002000000002000GR100600000900009
0054727430999992005010912009+46533-087550NSRDB+043199999V020999999999999999999999999999+99999+99999999999ADDGP10060000002000000002000000002000GR100600000900009
0054727430999992005010913009+46533-087550NSRDB+043199999V020999999999999999999999999999+99999+99999999999ADDGP10060000002000000002000000002000GR100600000900009
0071727430999992005010914009+46533-087550NSRDB+043199999V020999999999999999999999999999+99999+99999999999ADDGP10060000002009000002021000002009GQ100600884912469GR100600017906019
0071727430999992005010915009+46533-087550NSRDB+043199999V020999999999999999999999999999+99999+99999999999ADDGP10060002002009000002021002002009GQ100600829913289GR100600174914159
0071727430999992005010916009+46533-087550NSRDB+043199999V020999999999999999999999999999+99999+99999999999ADDGP10060007102009000002021007102009GQ100600762914519GR100600336914159
0071727430999992005010917009+46533-087550NSRDB+043199999V020999999999999999999999999999+99999+99999999999ADDGP10060008402009000002021008402009GQ100600714915879GR100600451914159
0071727430999992005010918009+46533-087550NSRDB+043199999V020999999999999999999999999999+99999+99999999999ADDGP10060005502009000002021005502009GQ100600689917329GR100600509914159
0071727430999992005010919009+46533-087550NSRDB+043199999V020999999999999999999999999999+99999+99999999999ADDGP10060005302009000002021005302009GQ100600690918819GR100600507914159
0071727430999992005010920009+46533-087550NSRDB+043199999V020999999999999999999999999999+99999+99999999999ADDGP10060009602009000002021009602009GQ100600717920259GR100600444914159
0071727430999992005010921009+46533-087550NSRDB+043199999V020999999999999999999999999999+99999+99999999999ADDGP10060016002009034302021008102009GQ100600767921609GR100600325914159
0071727430999992005010922009+46533-087550NSRDB+043199999V020999999999999999999999999999+99999+99999999999ADDGP10060006402009030302021003002009GQ100600835922829GR100600159914159
0071727430999992005010923009+46533-087550NSRDB+043199999V020999999999999999999999999999+99999+99999999999ADDGP10060000002009000002021000002009GQ100600887923589GR100600011904839
0054727430999992005011000009+46533-087550NSRDB+043199999V020999999999999999999999999999+99999+99999999999ADDGP10060000002000000002000000002000GR100600000900009
0054727430999992005011001009+46533-087550NSRDB+043199999V020999999999999999999999999999+99999+99999999999ADDGP10060000002000000002000000002000GR100600000900009
0054727430999992005011002009+46533-087550NSRDB+043199999V020999999999999999999999999999+99999+99999999999ADDGP10060000002000000002000000002000GR100600000900009
0054727430999992005011003009+46533-087550NSRDB+043199999V020999999999999999999999999999+99999+99999999999ADDGP10060000002000000002000000002000GR100600000900009
0054727430999992005011004009+46533-087550NSRDB+043199999V020999999999999999999999999999+99999+99999999999ADDGP10060000002000000002000000002000GR100600000900009
0054727430999992005011005009+46533-087550NSRDB+043199999V020999999999999999999999999999+99999+99999999999ADDGP10060000002000000002000000002000GR100600000900009
0054727430999992005011006009+46533-087550NSRDB+043199999V020999999999999999999999999999+99999+99999999999ADDGP10060000002000000002000000002000GR100600000900009
0054727430999992005011007009+46533-087550NSRDB+043199999V020999999999999999999999999999+99999+99999999999ADDGP10060000002000000002000000002000GR100600000900009
0054727430999992005011008009+46533-087550NSRDB+043199999V020999999999999999999999999999+99999+99999999999ADDGP10060000002000000002000000002000GR100600000900009
0054727430999992005011009009+46533-087550NSRDB+043199999V020999999999999999999999999999+99999+99999999999ADDGP10060000002000000002000000002000GR100600000900009
0054727430999992005011010009+46533-087550NSRDB+043199999V020999999999999999999999999999+99999+99999999999ADDGP10060000002000000002000000002000GR100600000900009
0054727430999992005011011009+46533-087550NSRDB+043199999V020999999999999999999999999999+99999+99999999999ADDGP10060000002000000002000000002000GR100600000900009
0054727430999992005011012009+46533-087550NSRDB+043199999V020999999999999999999999999999+99999+99999999999ADDGP10060000002000000002000000002000GR100600000900009
0054727430999992005011013009+46533-087550NSRDB+043199999V020999999999999999999999999999+99999+99999999999ADDGP10060000002000000002000000002000GR100600000900009
0071727430999992005011014009+46533-087550NSRDB+043199999V020999999999999999999999999999+99999+99999999999ADDGP10060000002009000002021000002009GQ100600884912459GR100600017906019
0071727430999992005011015009+46533-087550NSRDB+043199999V020999999999999999999999999999+99999+99999999999ADDGP10060009002009029402021005302009GQ100600829913269GR100600175914159
0071727430999992005011016009+46533-087550NSRDB+043199999V020999999999999999999999999999+99999+99999999999ADDGP10060020002009046402021008802009GQ100600761914509GR100600339914159
0071727430999992005011017009+46533-087550NSRDB+043199999V020999999999999999999999999999+99999+99999999999ADDGP10060025302009049702021009202009GQ100600713915859GR100600454914159
0071727430999992005011018009+46533-087550NSRDB+043199999V020999999999999999999999999999+99999+99999999999ADDGP10060028302009044702021012002009GQ100600688917319GR100600513914159
0071727430999992005011019009+46533-087550NSRDB+043199999V020999999999999999999999999999+99999+99999999999ADDGP10060028302009046002021011602009GQ100600688918809GR100600511914159
0071727430999992005011020009+46533-087550NSRDB+043199999V020999999999999999999999999999+99999+99999999999ADDGP10060024202009044202021010102009GQ100600715920259GR100600448914159
0071727430999992005011021009+46533-087550NSRDB+043199999V020999999999999999999999999999+99999+99999999999ADDGP10060016602009038902021007502009GQ100600765921599GR100600329914159
0071727430999992005011022009+46533-087550NSRDB+043199999V020999999999999999999999999999+99999+99999999999ADDGP10060006502009022702021003802009GQ100600834922829GR100600164914159
0071727430999992005011023009+46533-087550NSRDB+043199999V020999999999999999999999999999+99999+99999999999ADDGP10060000002009000002021000002009GQ100600886923609GR100600012905079
0054727430999992005011100009+46533-087550NSRDB+043199999V020999999999999999999999999999+99999+99999999999ADDGP10060000002000000002000000002000GR100600000900009
0054727430999992005011101009+46533-087550NSRDB+043199999V020999999999999999999999999999+99999+99999999999ADDGP10060000002000000002000000002000GR100600000900009
0054727430999992005011102009+46533-087550NSRDB+043199999V020999999999999999999999999999+99999+99999999999ADDGP10060000002000000002000000002000GR100600000900009
0054727430999992005011103009+46533-087550NSRDB+043199999V020999999999999999999999999999+99999+99999999999ADDGP10060000002000000002000000002000GR100600000900009
0054727430999992005011104009+46533-087550NSRDB+043199999V020999999999999999999999999999+99999+99999999999ADDGP10060000002000000002000000002000GR100600000900009
0054727430999992005011105009+46533-087550NSRDB+043199999V020999999999999999999999999999+99999+99999999999ADDGP10060000002000000002000000002000GR100600000900009
0054727430999992005011106009+46533-087550NSRDB+043199999V020999999999999999999999999999+99999+99999999999ADDGP10060000002000000002000000002000GR100600000900009
0054727430999992005011107009+46533-087550NSRDB+043199999V020999999999999999999999999999+99999+99999999999ADDGP10060000002000000002000000002000GR100600000900009
0054727430999992005011108009+46533-087550NSRDB+043199999V020999999999999999999999999999+99999+99999999999ADDGP10060000002000000002000000002000GR100600000900009
0054727430999992005011109009+46533-087550NSRDB+043199999V020999999999999999999999999999+99999+99999999999ADDGP10060000002000000002000000002000GR100600000900009
0054727430999992005011110009+46533-087550NSRDB+043199999V020999999999999999999999999999+99999+99999999999ADDGP10060000002000000002000000002000GR100600000900009
0054727430999992005011111009+46533-087550NSRDB+043199999V020999999999999999999999999999+99999+99999999999ADDGP10060000002000000002000000002000GR100600000900009
0054727430999992005011112009+46533-087550NSRDB+043199999V020999999999999999999999999999+99999+99999999999ADDGP10060000002000000002000000002000GR100600000900009
0054727430999992005011113009+46533-087550NSRDB+043199999V020999999999999999999999999999+99999+99999999999ADDGP10060000002000000002000000002000GR100600000900009
0071727430999992005011114009+46533-087550NSRDB+043199999V020999999999999999999999999999+99999+99999999999ADDGP10060000002009000002021000002009GQ100600884912429GR100600018906259
0071727430999992005011115009+46533-087550NSRDB+043199999V020999999999999999999999999999+99999+99999999999ADDGP10060008902009023402021006002009GQ100600828913259GR100600177914149
0071727430999992005011116009+46533-087550NSRDB+043199999V020999999999999999999999999999+99999+99999999999ADDGP10060018502009043802021007902009GQ100600760914489GR100600341914149
0071727430999992005011117009+46533-087550NSRDB+043199999V020999999999999999999999999999+99999+99999999999ADDGP10060026502009052102021009602009GQ100600712915849GR100600457914149
0071727430999992005011118009+46533-087550NSRDB+043199999V020999999999999999999999999999+99999+99999999999ADDGP10060030802009056202021010202009GQ100600686917309GR100600516914149
0071727430999992005011119009+46533-087550NSRDB+043199999V020999999999999999999999999999+99999+99999999999ADDGP10060030702009055002021010602009GQ100600687918799GR100600514914149
0071727430999992005011120009+46533-087550NSRDB+043199999V020999999999999999999999999999+99999+99999999999ADDGP10060027002009061902021007102009GQ100600714920249GR100600452914149
0071727430999992005011121009+46533-087550NSRDB+043199999V020999999999999999999999999999+99999+99999999999ADDGP10060017602009051502021005402009GQ100600764921599GR100600334914149
0071727430999992005011122009+46533-087550NSRDB+043199999V020999999999999999999999999999+99999+99999999999ADDGP10060006902009026402021003802009GQ100600832922829GR100600168914149
0071727430999992005011123009+46533-087550NSRDB+043199999V020999999999999999999999999999+99999+99999999999ADDGP10060000002009000002021000002009GQ100600886923629GR100600014905549
0054727430999992005011200009+46533-087550NSRDB+043199999V020999999999999999999999999999+99999+99999999999ADDGP10060000002000000002000000002000GR100600000900009
0054727430999992005011201009+46533-087550NSRDB+043199999V020999999999999999999999999999+99999+99999999999ADDGP10060000002000000002000000002000GR100600000900009
0054727430999992005011202009+46533-087550NSRDB+043199999V020999999999999999999999999999+99999+99999999999ADDGP10060000002000000002000000002000GR100600000900009
0054727430999992005011203009+46533-087550NSRDB+043199999V020999999999999999999999999999+99999+99999999999ADDGP10060000002000000002000000002000GR100600000900009
0054727430999992005011204009+46533-087550NSRDB+043199999V020999999999999999999999999999+99999+99999999999ADDGP10060000002000000002000000002000GR100600000900009
0054727430999992005011205009+46533-087550NSRDB+043199999V020999999999999999999999999999+99999+99999999999ADDGP10060000002000000002000000002000GR100600000900009
0054727430999992005011206009+46533-087550NSRDB+043199999V020999999999999999999999999999+99999+99999999999ADDGP10060000002000000002000000002000GR100600000900009
0054727430999992005011207009+46533-087550NSRDB+043199999V020999999999999999999999999999+99999+99999999999ADDGP10060000002000000002000000002000GR100600000900009
0054727430999992005011208009+46533-087550NSRDB+043199999V020999999999999999999999999999+99999+99999999999ADDGP10060000002000000002000000002000GR100600000900009
0054727430999992005011209009+46533-087550NSRDB+043199999V020999999999999999999999999999+99999+99999999999ADDGP10060000002000000002000000002000GR100600000900009
0054727430999992005011210009+46533-087550NSRDB+043199999V020999999999999999999999999999+99999+99999999999ADDGP10060000002000000002000000002000GR100600000900009
0054727430999992005011211009+46533-087550NSRDB+043199999V020999999999999999999999999999+99999+99999999999ADDGP10060000002000000002000000002000GR100600000900009
0054727430999992005011212009+46533-087550NSRDB+043199999V020999999999999999999999999999+99999+99999999999ADDGP10060000002000000002000000002000GR100600000900009
0054727430999992005011213009+46533-087550NSRDB+043199999V020999999999999999999999999999+99999+99999999999ADDGP10060000002000000002000000002000GR100600000900009
0071727430999992005011214009+46533-087550NSRDB+043199999V020999999999999999999999999999+99999+99999999999ADDGP10060000002009000002021000002009GQ100600883912419GR100600019906259
0071727430999992005011215009+46533-087550NSRDB+043199999V020999999999999999999999999999+99999+99999999999ADDGP10060006902009008002021005902009GQ100600827913239GR100600179914149
0071727430999992005011216009+46533-087550NSRDB+043199999V020999999999999999999999999999+99999+99999999999ADDGP10060017102009031102021009502009GQ100600759914479GR100600344914149
0071727430999992005011217009+46533-087550NSRDB+043199999V020999999999999999999999999999+99999+99999999999ADDGP10060026502009055202021008502009GQ100600710915839GR100600460914149
0071727430999992005011218009+46533-087550NSRDB+043199999V020999999999999999999999999999+99999+99999999999ADDGP10060030802009053202021011102009GQ100600685917289GR100600519914149
0071727430999992005011219009+46533-087550NSRDB+043199999V020999999999999999999999999999+99999+99999999999ADDGP10060030702009053802021010902009GQ100600685918789GR100600518914149
0071727430999992005011220009+46533-087550NSRDB+043199999V020999999999999999999999999999+99999+99999999999ADDGP10060025902009051302021009302009GQ100600712920249GR100600456914149
0071727430999992005011221009+46533-087550NSRDB+043199999V020999999999999999999999999999+99999+99999999999ADDGP10060017702009045802021006702009GQ100600762921599GR100600338914149
0071727430999992005011222009+46533-087550NSRDB+043199999V020999999999999999999999999999+99999+99999999999ADDGP10060007002009026502021003802009GQ100600830922839GR100600172914149
0071727430999992005011223009+46533-087550NSRDB+043199999V020999999999999999999999999999+99999+99999999999ADDGP10060000002009000002021000002009GQ100600885923639GR100600016905789
0054727430999992005011300009+46533-087550NSRDB+043199999V020999999999999999999999999999+99999+99999999999ADDGP10060000002000000002000000002000GR100600000900009
0054727430999992005011301009+46533-087550NSRDB+043199999V020999999999999999999999999999+99999+99999999999ADDGP10060000002000000002000000002000GR100600000900009
0054727430999992005011302009+46533-087550NSRDB+043199999V020999999999999999999999999999+99999+99999999999ADDGP10060000002000000002000000002000GR100600000900009
0054727430999992005011303009+46533-087550NSRDB+043199999V020999999999999999999999999999+99999+99999999999ADDGP10060000002000000002000000002000GR100600000900009
0054727430999992005011304009+46533-087550NSRDB+043199999V020999999999999999999999999999+99999+99999999999ADDGP10060000002000000002000000002000GR100600000900009
0054727430999992005011305009+46533-087550NSRDB+043199999V020999999999999999999999999999+99999+99999999999ADDGP10060000002000000002000000002000GR100600000900009
0054727430999992005011306009+46533-087550NSRDB+043199999V020999999999999999999999999999+99999+99999999999ADDGP10060000002000000002000000002000GR100600000900009
0054727430999992005011307009+46533-087550NSRDB+043199999V020999999999999999999999999999+99999+99999999999ADDGP10060000002000000002000000002000GR100600000900009
0054727430999992005011308009+46533-087550NSRDB+043199999V020999999999999999999999999999+99999+99999999999ADDGP10060000002000000002000000002000GR100600000900009
0054727430999992005011309009+46533-087550NSRDB+043199999V020999999999999999999999999999+99999+99999999999ADDGP10060000002000000002000000002000GR100600000900009
0054727430999992005011310009+46533-087550NSRDB+043199999V020999999999999999999999999999+99999+99999999999ADDGP10060000002000000002000000002000GR100600000900009
0054727430999992005011311009+46533-087550NSRDB+043199999V020999999999999999999999999999+99999+99999999999ADDGP10060000002000000002000000002000GR100600000900009
0054727430999992005011312009+46533-087550NSRDB+043199999V020999999999999999999999999999+99999+99999999999ADDGP10060000002000000002000000002000GR100600000900009
0054727430999992005011313009+46533-087550NSRDB+043199999V020999999999999999999999999999+99999+99999999999ADDGP10060000002000000002000000002000GR100600000900009
0071727430999992005011314009+46533-087550NSRDB+043199999V020999999999999999999999999999+99999+99999999999ADDGP10060000002009000002021000002009GQ100600883912389GR100600019906489
0071727430999992005011315009+46533-087550NSRDB+043199999V020999999999999999999999999999+99999+99999999999ADDGP10060007902009018902021005402009GQ100600826913219GR100600182914149
0071727430999992005011316009+46533-087550NSRDB+043199999V020999999999999999999999999999+99999+99999999999ADDGP10060018502009043202021007802009GQ100600758914459GR100600346914149
0071727430999992005011317009+46533-087550NSRDB+043199999V020999999999999999999999999999+99999+99999999999ADDGP10060029102009064402021007902009GQ100600709915819GR100600463914149
0071727430999992005011318009+46533-087550NSRDB+043199999V020999999999999999999999999999+99999+99999999999ADDGP10060032602009066502021007902009GQ100600683917279GR100600523914149
0071727430999992005011319009+46533-087550NSRDB+043199999V020999999999999999999999999999+99999+99999999999ADDGP10060031902009063302021008402009GQ100600683918779GR100600522914149
0071727430999992005011320009+46533-087550NSRDB+043199999V020999999999999999999999999999+99999+99999999999ADDGP10060027102009058902021007802009GQ100600710920239GR100600461914149
0071727430999992005011321009+46533-087550NSRDB+043199999V020999999999999999999999999999+99999+99999999999ADDGP10060018802009053302021005802009GQ100600760921599GR100600343914149
0071727430999992005011322009+46533-087550NSRDB+043199999V020999999999999999999999999999+99999+99999999999ADDGP10060007502009035002021003102009GQ100600828922839GR100600177914149
0071727430999992005011323009+46533-087550NSRDB+043199999V020999999999999999999999999999+99999+99999999999ADDGP10060000002009000002021000002009GQ100600884923649GR100600017906019
0054727430999992005011400009+46533-087550NSRDB+043199999V020999999999999999999999999999+99999+99999999999ADDGP10060000002000000002000000002000GR100600000900009
0054727430999992005011401009+46533-087550NSRDB+043199999V020999999999999999999999999999+99999+99999999999ADDGP10060000002000000002000000002000GR100600000900009
0054727430999992005011402009+46533-087550NSRDB+043199999V020999999999999999999999999999+99999+99999999999ADDGP10060000002000000002000000002000GR100600000900009
0054727430999992005011403009+46533-087550NSRDB+043199999V020999999999999999999999999999+99999+99999999999ADDGP10060000002000000002000000002000GR100600000900009
0054727430999992005011404009+46533-087550NSRDB+043199999V020999999999999999999999999999+99999+99999999999ADDGP10060000002000000002000000002000GR100600000900009
0054727430999992005011405009+46533-087550NSRDB+043199999V020999999999999999999999999999+99999+99999999999ADDGP10060000002000000002000000002000GR100600000900009
0054727430999992005011406009+46533-087550NSRDB+043199999V020999999999999999999999999999+99999+99999999999ADDGP10060000002000000002000000002000GR100600000900009
0054727430999992005011407009+46533-087550NSRDB+043199999V020999999999999999999999999999+99999+99999999999ADDGP10060000002000000002000000002000GR100600000900009
0054727430999992005011408009+46533-087550NSRDB+043199999V020999999999999999999999999999+99999+99999999999ADDGP10060000002000000002000000002000GR100600000900009
0054727430999992005011409009+46533-087550NSRDB+043199999V020999999999999999999999999999+99999+99999999999ADDGP10060000002000000002000000002000GR100600000900009
0054727430999992005011410009+46533-087550NSRDB+043199999V020999999999999999999999999999+99999+99999999999ADDGP10060000002000000002000000002000GR100600000900009
0054727430999992005011411009+46533-087550NSRDB+043199999V020999999999999999999999999999+99999+99999999999ADDGP10060000002000000002000000002000GR100600000900009
0054727430999992005011412009+46533-087550NSRDB+043199999V020999999999999999999999999999+99999+99999999999ADDGP10060000002000000002000000002000GR100600000900009
0054727430999992005011413009+46533-087550NSRDB+043199999V020999999999999999999999999999+99999+99999999999ADDGP10060000002000000002000000002000GR100600000900009
0071727430999992005011414009+46533-087550NSRDB+043199999V020999999999999999999999999999+99999+99999999999ADDGP10060000002009000002021000002009GQ100600882912369GR100600020906489
0071727430999992005011415009+46533-087550NSRDB+043199999V020999999999999999999999999999+99999+99999999999ADDGP10060006802009008002021005802009GQ100600825913209GR100600184914149
0071727430999992005011416009+46533-087550NSRDB+043199999V020999999999999999999999999999+99999+99999999999ADDGP10060017702009036802021008602009GQ100600757914439GR100600349914149
0071727430999992005011417009+46533-087550NSRDB+043199999V020999999999999999999999999999+99999+99999999999ADDGP10060025902009044202021011202009GQ100600707915809GR100600466914149
0071727430999992005011418009+46533-087550NSRDB+043199999V020999999999999999999999999999+99999+99999999999ADDGP10060030102009047102021012502009GQ100600681917269GR100600527914149
0071727430999992005011419009+46533-087550NSRDB+043199999V020999999999999999999999999999+99999+99999999999ADDGP10060030102009047802021012302009GQ100600681918779GR100600526914149
0071727430999992005011420009+46533-087550NSRDB+043199999V020999999999999999999999999999+99999+99999999999ADDGP10060026002009046602021010602009GQ100600708920239GR100600465914149
0071727430999992005011421009+46533-087550NSRDB+043199999V020999999999999999999999999999+99999+99999999999ADDGP10060017802009039602021008002009GQ100600758921599GR100600347914149
0071727430999992005011422009+46533-087550NSRDB+043199999V020999999999999999999999999999+99999+99999999999ADDGP10060007102009024102021004002009GQ100600826922839GR100600182914149
0071727430999992005011423009+46533-087550NSRDB+043199999V020999999999999999999999999999+99999+99999999999ADDGP10060000002009000002021000002009GQ100600882923669GR100600019906259
0054727430999992005011500009+46533-087550NSRDB+043199999V020999999999999999999999999999+99999+99999999999ADDGP10060000002000000002000000002000GR100600000900009
0054727430999992005011501009+46533-087550NSRDB+043199999V020999999999999999999999999999+99999+99999999999ADDGP10060000002000000002000000002000GR100600000900009
0054727430999992005011502009+46533-087550NSRDB+043199999V020999999999999999999999999999+99999+99999999999ADDGP10060000002000000002000000002000GR100600000900009
0054727430999992005011503009+46533-087550NSRDB+043199999V020999999999999999999999999999+99999+99999999999ADDGP10060000002000000002000000002000GR100600000900009
0054727430999992005011504009+46533-087550NSRDB+043199999V020999999999999999999999999999+99999+99999999999ADDGP10060000002000000002000000002000GR100600000900009
0054727430999992005011505009+46533-087550NSRDB+043199999V020999999999999999999999999999+99999+99999999999ADDGP10060000002000000002000000002000GR100600000900009
0054727430999992005011506009+46533-087550NSRDB+043199999V020999999999999999999999999999+99999+99999999999ADDGP10060000002000000002000000002000GR100600000900009
0054727430999992005011507009+46533-087550NSRDB+043199999V020999999999999999999999999999+99999+99999999999ADDGP10060000002000000002000000002000GR100600000900009
0054727430999992005011508009+46533-087550NSRDB+043199999V020999999999999999999999999999+99999+99999999999ADDGP10060000002000000002000000002000GR100600000900009
0054727430999992005011509009+46533-087550NSRDB+043199999V020999999999999999999999999999+99999+99999999999ADDGP10060000002000000002000000002000GR100600000900009
0054727430999992005011510009+46533-087550NSRDB+043199999V020999999999999999999999999999+99999+99999999999ADDGP10060000002000000002000000002000GR100600000900009
0054727430999992005011511009+46533-087550NSRDB+043199999V020999999999999999999999999999+99999+99999999999ADDGP10060000002000000002000000002000GR100600000900009
0054727430999992005011512009+46533-087550NSRDB+043199999V020999999999999999999999999999+99999+99999999999ADDGP10060000002000000002000000002000GR100600000900009
0054727430999992005011513009+46533-087550NSRDB+043199999V020999999999999999999999999999+99999+99999999999ADDGP10060000002000000002000000002000GR100600000900009
0071727430999992005011514009+46533-087550NSRDB+043199999V020999999999999999999999999999+99999+99999999999ADDGP10060000002009000002021000002009GQ100600882912339GR100600021906729
0071727430999992005011515009+46533-087550NSRDB+043199999V020999999999999999999999999999+99999+99999999999ADDGP10060007702009015902021005602009GQ100600824913189GR100600187914149
0071727430999992005011516009+46533-087550NSRDB+043199999V020999999999999999999999999999+99999+99999999999ADDGP10060018402009043102021007602009GQ100600756914429GR100600352914149
0071727430999992005011517009+46533-087550NSRDB+043199999V020999999999999999999999999999+99999+99999999999ADDGP10060027802009058202021008302009GQ100600706915789GR100600470914149
0071727430999992005011518009+46533-087550NSRDB+043199999V020999999999999999999999999999+99999+99999999999ADDGP10060032602009064002021008402009GQ100600679917259GR100600531914149
0071727430999992005011519009+46533-087550NSRDB+043199999V020999999999999999999999999999+99999+99999999999ADDGP10060030702009054402021010202009GQ100600680918769GR100600531914149
0071727430999992005011520009+46533-087550NSRDB+043199999V020999999999999999999999999999+99999+99999999999ADDGP10060026502009049502021010002009GQ100600706920239GR100600470914149
0071727430999992005011521009+46533-087550NSRDB+043199999V020999999999999999999999999999+99999+99999999999ADDGP10060018302009043102021007502009GQ100600756921599GR100600352914149
0071727430999992005011522009+46533-087550NSRDB+043199999V020999999999999999999999999999+99999+99999999999ADDGP10060008102009035302021003402009GQ100600824922839GR100600186914149
0071727430999992005011523009+46533-087550NSRDB+043199999V020999999999999999999999999999+99999+99999999999ADDGP10060000002009000002021000002009GQ100600882923689GR100600021906729
0054727430999992005011600009+46533-087550NSRDB+043199999V020999999999999999999999999999+99999+99999999999ADDGP10060000002000000002000000002000GR100600000900009
0054727430999992005011601009+46533-087550NSRDB+043199999V020999999999999999999999999999+99999+99999999999ADDGP10060000002000000002000000002000GR100600000900009
0054727430999992005011602009+46533-087550NSRDB+043199999V020999999999999999999999999999+99999+99999999999ADDGP10060000002000000002000000002000GR100600000900009
0054727430999992005011603009+46533-087550NSRDB+043199999V020999999999999999999999999999+99999+99999999999ADDGP10060000002000000002000000002000GR100600000900009
0054727430999992005011604009+46533-087550NSRDB+043199999V020999999999999999999999999999+99999+99999999999ADDGP10060000002000000002000000002000GR100600000900009
0054727430999992005011605009+46533-087550NSRDB+043199999V020999999999999999999999999999+99999+99999999999ADDGP10060000002000000002000000002000GR100600000900009
0054727430999992005011606009+46533-087550NSRDB+043199999V020999999999999999999999999999+99999+99999999999ADDGP10060000002000000002000000002000GR100600000900009
0054727430999992005011607009+46533-087550NSRDB+043199999V020999999999999999999999999999+99999+99999999999ADDGP10060000002000000002000000002000GR100600000900009
0054727430999992005011608009+46533-087550NSRDB+043199999V020999999999999999999999999999+99999+99999999999ADDGP10060000002000000002000000002000GR100600000900009
0054727430999992005011609009+46533-087550NSRDB+043199999V020999999999999999999999999999+99999+99999999999ADDGP10060000002000000002000000002000GR100600000900009
0054727430999992005011610009+46533-087550NSRDB+043199999V020999999999999999999999999999+99999+99999999999ADDGP10060000002000000002000000002000GR100600000900009
0054727430999992005011611009+46533-087550NSRDB+043199999V020999999999999999999999999999+99999+99999999999ADDGP10060000002000000002000000002000GR100600000900009
0054727430999992005011612009+46533-087550NSRDB+043199999V020999999999999999999999999999+99999+99999999999ADDGP10060000002000000002000000002000GR100600000900009
0054727430999992005011613009+46533-087550NSRDB+043199999V020999999999999999999999999999+99999+99999999999ADDGP10060000002000000002000000002000GR100600000900009
0071727430999992005011614009+46533-087550NSRDB+043199999V020999999999999999999999999999+99999+99999999999ADDGP10060000002009000002021000002009GQ100600882912319GR100600022906959
0071727430999992005011615009+46533-087550NSRDB+043199999V020999999999999999999999999999+99999+99999999999ADDGP10060007702009011502021006102009GQ100600823913169GR100600189914149
0071727430999992005011616009+46533-087550NSRDB+043199999V020999999999999999999999999999+99999+99999999999ADDGP10060019802009045002021008402009GQ100600754914409GR100600355914149
0071727430999992005011617009+46533-087550NSRDB+043199999V020999999999999999999999999999+99999+99999999999ADDGP10060028402009059502021008402009GQ100600704915779GR100600474914149
0071727430999992005011618009+46533-087550NSRDB+043199999V020999999999999999999999999999+99999+99999999999ADDGP10060032002009057402021010202009GQ100600678917249GR100600535914149
0071727430999992005011619009+46533-087550NSRDB+043199999V020999999999999999999999999999+99999+99999999999ADDGP10060032502009061002021009302009GQ100600678918759GR100600535914149
0071727430999992005011620009+46533-087550NSRDB+043199999V020999999999999999999999999999+99999+99999999999ADDGP10060027702009054302021009402009GQ100600704920229GR100600474914149
0071727430999992005011621009+46533-087550NSRDB+043199999V020999999999999999999999999999+99999+99999999999ADDGP10060018902009044902021007502009GQ100600754921599GR100600357914149
0071727430999992005011622009+46533-087550NSRDB+043199999V020999999999999999999999999999+99999+99999999999ADDGP10060008102009027502021004402009GQ100600822922849GR100600191914149
0071727430999992005011623009+46533-087550NSRDB+043199999V020999999999999999999999999999+99999+99999999999ADDGP10060000002009000002021000002009GQ100600881923699GR100600023906959
0054727430999992005011700009+46533-087550NSRDB+043199999V020999999999999999999999999999+99999+99999999999ADDGP10060000002000000002000000002000GR100600000900009
0054727430999992005011701009+46533-087550NSRDB+043199999V020999999999999999999999999999+99999+99999999999ADDGP10060000002000000002000000002000GR100600000900009
0054727430999992005011702009+46533-087550NSRDB+043199999V020999999999999999999999999999+99999+99999999999ADDGP10060000002000000002000000002000GR100600000900009
0054727430999992005011703009+46533-087550NSRDB+043199999V020999999999999999999999999999+99999+99999999999ADDGP10060000002000000002000000002000GR100600000900009
0054727430999992005011704009+46533-087550NSRDB+043199999V020999999999999999999999999999+99999+99999999999ADDGP10060000002000000002000000002000GR100600000900009
0054727430999992005011705009+46533-087550NSRDB+043199999V020999999999999999999999999999+99999+99999999999ADDGP10060000002000000002000000002000GR100600000900009
0054727430999992005011706009+46533-087550NSRDB+043199999V020999999999999999999999999999+99999+99999999999ADDGP10060000002000000002000000002000GR100600000900009
0054727430999992005011707009+46533-087550NSRDB+043199999V020999999999999999999999999999+99999+99999999999ADDGP10060000002000000002000000002000GR100600000900009
0054727430999992005011708009+46533-087550NSRDB+043199999V020999999999999999999999999999+99999+99999999999ADDGP10060000002000000002000000002000GR100600000900009
0054727430999992005011709009+46533-087550NSRDB+043199999V020999999999999999999999999999+99999+99999999999ADDGP10060000002000000002000000002000GR100600000900009
0054727430999992005011710009+46533-087550NSRDB+043199999V020999999999999999999999999999+99999+99999999999ADDGP10060000002000000002000000002000GR100600000900009
0054727430999992005011711009+46533-087550NSRDB+043199999V020999999999999999999999999999+99999+99999999999ADDGP10060000002000000002000000002000GR100600000900009
0054727430999992005011712009+46533-087550NSRDB+043199999V020999999999999999999999999999+99999+99999999999ADDGP10060000002000000002000000002000GR100600000900009
0054727430999992005011713009+46533-087550NSRDB+043199999V020999999999999999999999999999+99999+99999999999ADDGP10060000002000000002000000002000GR100600000900009
0071727430999992005011714009+46533-087550NSRDB+043199999V020999999999999999999999999999+99999+99999999999ADDGP10060000002009000002021000002009GQ100600881912299GR100600024906959
0071727430999992005011715009+46533-087550NSRDB+043199999V020999999999999999999999999999+99999+99999999999ADDGP10060007602009011502021006102009GQ100600822913149GR100600192914149
0071727430999992005011716009+46533-087550NSRDB+043199999V020999999999999999999999999999+99999+99999999999ADDGP10060024002009060102021008702009GQ100600753914399GR100600359914149
0071727430999992005011717009+46533-087550NSRDB+043199999V020999999999999999999999999999+99999+99999999999ADDGP10060032302009080902021004802009GQ100600703915769GR100600477914149
0071727430999992005011718009+46533-087550NSRDB+043199999V020999999999999999999999999999+99999+99999999999ADDGP10060037502009084602021005102009GQ100600676917239GR100600539914149
0071727430999992005011719009+46533-087550NSRDB+043199999V020999999999999999999999999999+99999+99999999999ADDGP10060037902009084902021005302009GQ100600675918759GR100600540914149
0071727430999992005011720009+46533-087550NSRDB+043199999V020999999999999999999999999999+99999+99999999999ADDGP10060032302009080902021004702009GQ100600702920229GR100600479914149
0071727430999992005011721009+46533-087550NSRDB+043199999V020999999999999999999999999999+99999+99999999999ADDGP10060022602009073102021003802009GQ100600752921609GR100600362914149
0071727430999992005011722009+46533-087550NSRDB+043199999V020999999999999999999999999999+99999+99999999999ADDGP10060009902009052002021002702009GQ100600820922849GR100600196914149
0071727430999992005011723009+46533-087550NSRDB+043199999V020999999999999999999999999999+99999+99999999999ADDGP10060000002009000002021000002009GQ100600879923719GR100600026907199
0054727430999992005011800009+46533-087550NSRDB+043199999V020999999999999999999999999999+99999+99999999999ADDGP10060000002000000002000000002000GR100600000900009
0054727430999992005011801009+46533-087550NSRDB+043199999V020999999999999999999999999999+99999+99999999999ADDGP10060000002000000002000000002000GR100600000900009
0054727430999992005011802009+46533-087550NSRDB+043199999V020999999999999999999999999999+99999+99999999999ADDGP10060000002000000002000000002000GR100600000900009
0054727430999992005011803009+46533-087550NSRDB+043199999V020999999999999999999999999999+99999+99999999999ADDGP10060000002000000002000000002000GR100600000900009
0054727430999992005011804009+46533-087550NSRDB+043199999V020999999999999999999999999999+99999+99999999999ADDGP10060000002000000002000000002000GR100600000900009
0054727430999992005011805009+46533-087550NSRDB+043199999V020999999999999999999999999999+99999+99999999999ADDGP10060000002000000002000000002000GR100600000900009
0054727430999992005011806009+46533-087550NSRDB+043199999V020999999999999999999999999999+99999+99999999999ADDGP10060000002000000002000000002000GR100600000900009
0054727430999992005011807009+46533-087550NSRDB+043199999V020999999999999999999999999999+99999+99999999999ADDGP10060000002000000002000000002000GR100600000900009
0054727430999992005011808009+46533-087550NSRDB+043199999V020999999999999999999999999999+99999+99999999999ADDGP10060000002000000002000000002000GR100600000900009
0054727430999992005011809009+46533-087550NSRDB+043199999V020999999999999999999999999999+99999+99999999999ADDGP10060000002000000002000000002000GR100600000900009
0054727430999992005011810009+46533-087550NSRDB+043199999V020999999999999999999999999999+99999+99999999999ADDGP10060000002000000002000000002000GR100600000900009
0054727430999992005011811009+46533-087550NSRDB+043199999V020999999999999999999999999999+99999+99999999999ADDGP10060000002000000002000000002000GR100600000900009
0054727430999992005011812009+46533-087550NSRDB+043199999V020999999999999999999999999999+99999+99999999999ADDGP10060000002000000002000000002000GR100600000900009
0054727430999992005011813009+46533-087550NSRDB+043199999V020999999999999999999999999999+99999+99999999999ADDGP10060000002000000002000000002000GR100600000900009
0071727430999992005011814009+46533-087550NSRDB+043199999V020999999999999999999999999999+99999+99999999999ADDGP10060000002009006602021000002009GQ100600880912269GR100600025907189
0071727430999992005011815009+46533-087550NSRDB+043199999V020999999999999999999999999999+99999+99999999999ADDGP10060010402009035802021005402009GQ100600820913139GR100600195914139
0071727430999992005011816009+46533-087550NSRDB+043199999V020999999999999999999999999999+99999+99999999999ADDGP10060024702009074002021005602009GQ100600751914379GR100600362914139
0071727430999992005011817009+46533-087550NSRDB+043199999V020999999999999999999999999999+99999+99999999999ADDGP10060034202009062502021012802009GQ100600701915749GR100600481914139
0071727430999992005011818009+46533-087550NSRDB+043199999V020999999999999999999999999999+99999+99999999999ADDGP10060022102009013302021017002009GQ100600674917229GR100600544914139
0071727430999992005011819009+46533-087550NSRDB+043199999V020999999999999999999999999999+99999+99999999999ADDGP10060030202009038902021015102009GQ100600673918749GR100600545914139
0071727430999992005011820009+46533-087550NSRDB+043199999V020999999999999999999999999999+99999+99999999999ADDGP10060011302009000002021011302009GQ100600700920229GR100600484914139
0071727430999992005011821009+46533-087550NSRDB+043199999V020999999999999999999999999999+99999+99999999999ADDGP10060003702009000002021003702009GQ100600749921609GR100600367914139
0071727430999992005011822009+46533-087550NSRDB+043199999V020999999999999999999999999999+99999+99999999999ADDGP10060004802009002102021004502009GQ100600818922859GR100600201914139
0071727430999992005011823009+46533-087550NSRDB+043199999V020999999999999999999999999999+99999+99999999999ADDGP10060000002009000002021000002009GQ100600879923739GR100600028907669
0054727430999992005011900009+46533-087550NSRDB+043199999V020999999999999999999999999999+99999+99999999999ADDGP10060000002000000002000000002000GR100600000900009
0054727430999992005011901009+46533-087550NSRDB+043199999V020999999999999999999999999999+99999+99999999999ADDGP10060000002000000002000000002000GR100600000900009
0054727430999992005011902009+46533-087550NSRDB+043199999V020999999999999999999999999999+99999+99999999999ADDGP10060000002000000002000000002000GR100600000900009
0054727430999992005011903009+46533-087550NSRDB+043199999V020999999999999999999999999999+99999+99999999999ADDGP10060000002000000002000000002000GR100600000900009
0054727430999992005011904009+46533-087550NSRDB+043199999V020999999999999999999999999999+99999+99999999999ADDGP10060000002000000002000000002000GR100600000900009
0054727430999992005011905009+46533-087550NSRDB+043199999V020999999999999999999999999999+99999+99999999999ADDGP10060000002000000002000000002000GR100600000900009
0054727430999992005011906009+46533-087550NSRDB+043199999V020999999999999999999999999999+99999+99999999999ADDGP10060000002000000002000000002000GR100600000900009
0054727430999992005011907009+46533-087550NSRDB+043199999V020999999999999999999999999999+99999+99999999999ADDGP10060000002000000002000000002000GR100600000900009
0054727430999992005011908009+46533-087550NSRDB+043199999V020999999999999999999999999999+99999+99999999999ADDGP10060000002000000002000000002000GR100600000900009
0054727430999992005011909009+46533-087550NSRDB+043199999V020999999999999999999999999999+99999+99999999999ADDGP10060000002000000002000000002000GR100600000900009
0054727430999992005011910009+46533-087550NSRDB+043199999V020999999999999999999999999999+99999+99999999999ADDGP10060000002000000002000000002000GR100600000900009
0054727430999992005011911009+46533-087550NSRDB+043199999V020999999999999999999999999999+99999+99999999999ADDGP10060000002000000002000000002000GR100600000900009
0054727430999992005011912009+46533-087550NSRDB+043199999V020999999999999999999999999999+99999+99999999999ADDGP10060000002000000002000000002000GR100600000900009
0054727430999992005011913009+46533-087550NSRDB+043199999V020999999999999999999999999999+99999+99999999999ADDGP10060000002000000002000000002000GR100600000900009
0071727430999992005011914009+46533-087550NSRDB+043199999V020999999999999999999999999999+99999+99999999999ADDGP10060000002009000002021000002009GQ100600880912239GR100600026907429
0071727430999992005011915009+46533-087550NSRDB+043199999V020999999999999999999999999999+99999+99999999999ADDGP10060001902009000002021001902009GQ100600819913119GR100600199914139
0071727430999992005011916009+46533-087550NSRDB+043199999V020999999999999999999999999999+99999+99999999999ADDGP10060003502009000002021003502009GQ100600750914359GR100600366914139
0071727430999992005011917009+46533-087550NSRDB+043199999V020999999999999999999999999999+99999+99999999999ADDGP10060005802009000002021005802009GQ100600699915739GR100600485914139
0071727430999992005011918009+46533-087550NSRDB+043199999V020999999999999999999999999999+99999+99999999999ADDGP10060006202009000002021006202009GQ100600672917219GR100600548914139
0071727430999992005011919009+46533-087550NSRDB+043199999V020999999999999999999999999999+99999+99999999999ADDGP10060005902009000002021005902009GQ100600671918749GR100600549914139
0071727430999992005011920009+46533-087550NSRDB+043199999V020999999999999999999999999999+99999+99999999999ADDGP10060005702009000002021005702009GQ100600697920229GR100600489914139
0071727430999992005011921009+46533-087550NSRDB+043199999V020999999999999999999999999999+99999+99999999999ADDGP10060013702009012102021010502009GQ100600747921609GR100600372914139
0071727430999992005011922009+46533-087550NSRDB+043199999V020999999999999999999999999999+99999+99999999999ADDGP10060007002009009102021005702009GQ100600816922859GR100600206914139
0071727430999992005011923009+46533-087550NSRDB+043199999V020999999999999999999999999999+99999+99999999999ADDGP10060000102009000002021000102009GQ100600878923759GR100600031907899
0054727430999992005012000009+46533-087550NSRDB+043199999V020999999999999999999999999999+99999+99999999999ADDGP10060000002000000002000000002000GR100600000900009
0054727430999992005012001009+46533-087550NSRDB+043199999V020999999999999999999999999999+99999+99999999999ADDGP10060000002000000002000000002000GR100600000900009
0054727430999992005012002009+46533-087550NSRDB+043199999V020999999999999999999999999999+99999+99999999999ADDGP10060000002000000002000000002000GR100600000900009
0054727430999992005012003009+46533-087550NSRDB+043199999V020999999999999999999999999999+99999+99999999999ADDGP10060000002000000002000000002000GR100600000900009
0054727430999992005012004009+46533-087550NSRDB+043199999V020999999999999999999999999999+99999+99999999999ADDGP10060000002000000002000000002000GR100600000900009
0054727430999992005012005009+46533-087550NSRDB+043199999V020999999999999999999999999999+99999+99999999999ADDGP10060000002000000002000000002000GR100600000900009
0054727430999992005012006009+46533-087550NSRDB+043199999V020999999999999999999999999999+99999+99999999999ADDGP10060000002000000002000000002000GR100600000900009
0054727430999992005012007009+46533-087550NSRDB+043199999V020999999999999999999999999999+99999+99999999999ADDGP10060000002000000002000000002000GR100600000900009
0054727430999992005012008009+46533-087550NSRDB+043199999V020999999999999999999999999999+99999+99999999999ADDGP10060000002000000002000000002000GR100600000900009
0054727430999992005012009009+46533-087550NSRDB+043199999V020999999999999999999999999999+99999+99999999999ADDGP10060000002000000002000000002000GR100600000900009
0054727430999992005012010009+46533-087550NSRDB+043199999V020999999999999999999999999999+99999+99999999999ADDGP10060000002000000002000000002000GR100600000900009
0054727430999992005012011009+46533-087550NSRDB+043199999V020999999999999999999999999999+99999+99999999999ADDGP10060000002000000002000000002000GR100600000900009
0054727430999992005012012009+46533-087550NSRDB+043199999V020999999999999999999999999999+99999+99999999999ADDGP10060000002000000002000000002000GR100600000900009
0054727430999992005012013009+46533-087550NSRDB+043199999V020999999999999999999999999999+99999+99999999999ADDGP10060000002000000002000000002000GR100600000900009
0071727430999992005012014009+46533-087550NSRDB+043199999V020999999999999999999999999999+99999+99999999999ADDGP10060000002009000002021000002009GQ100600879912219GR100600028907659
0071727430999992005012015009+46533-087550NSRDB+043199999V020999999999999999999999999999+99999+99999999999ADDGP10060003702009000002021003702009GQ100600818913099GR100600202914139
0071727430999992005012016009+46533-087550NSRDB+043199999V020999999999999999999999999999+99999+99999999999ADDGP10060009902009000602021009702009GQ100600748914349GR100600370914139
0071727430999992005012017009+46533-087550NSRDB+043199999V020999999999999999999999999999+99999+99999999999ADDGP10060007102009000002021007102009GQ100600697915729GR100600490914139
0071727430999992005012018009+46533-087550NSRDB+043199999V020999999999999999999999999999+99999+99999999999ADDGP10060015402009001202021014902009GQ100600670917209GR100600553914139
0071727430999992005012019009+46533-087550NSRDB+043199999V020999999999999999999999999999+99999+99999999999ADDGP10060021302009010202021017302009GQ100600669918739GR100600554914139
0071727430999992005012020009+46533-087550NSRDB+043199999V020999999999999999999999999999+99999+99999999999ADDGP10060011902009000002021011902009GQ100600695920229GR100600494914139
0071727430999992005012021009+46533-087550NSRDB+043199999V020999999999999999999999999999+99999+99999999999ADDGP10060013202009009802021010602009GQ100600745921609GR100600377914139
0071727430999992005012022009+46533-087550NSRDB+043199999V020999999999999999999999999999+99999+99999999999ADDGP10060011102009030602021006402009GQ100600814922869GR100600212914139
0071727430999992005012023009+46533-087550NSRDB+043199999V020999999999999999999999999999+99999+99999999999ADDGP10060000102009000002021000102009GQ100600877923789GR100600034908369
0054727430999992005012100009+46533-087550NSRDB+043199999V020999999999999999999999999999+99999+99999999999ADDGP10060000002000000002000000002000GR100600000900009
0054727430999992005012101009+46533-087550NSRDB+043199999V020999999999999999999999999999+99999+99999999999ADDGP10060000002000000002000000002000GR100600000900009
0054727430999992005012102009+46533-087550NSRDB+043199999V020999999999999999999999999999+99999+99999999999ADDGP10060000002000000002000000002000GR100600000900009
0054727430999992005012103009+46533-087550NSRDB+043199999V020999999999999999999999999999+99999+99999999999ADDGP10060000002000000002000000002000GR100600000900009
0054727430999992005012104009+46533-087550NSRDB+043199999V020999999999999999999999999999+99999+99999999999ADDGP10060000002000000002000000002000GR100600000900009
0054727430999992005012105009+46533-087550NSRDB+043199999V020999999999999999999999999999+99999+99999999999ADDGP10060000002000000002000000002000GR100600000900009
0054727430999992005012106009+46533-087550NSRDB+043199999V020999999999999999999999999999+99999+99999999999ADDGP10060000002000000002000000002000GR100600000900009
0054727430999992005012107009+46533-087550NSRDB+043199999V020999999999999999999999999999+99999+99999999999ADDGP10060000002000000002000000002000GR100600000900009
0054727430999992005012108009+46533-087550NSRDB+043199999V020999999999999999999999999999+99999+99999999999ADDGP10060000002000000002000000002000GR100600000900009
0054727430999992005012109009+46533-087550NSRDB+043199999V020999999999999999999999999999+99999+99999999999ADDGP10060000002000000002000000002000GR100600000900009
0054727430999992005012110009+46533-087550NSRDB+043199999V020999999999999999999999999999+99999+99999999999ADDGP10060000002000000002000000002000GR100600000900009
0054727430999992005012111009+46533-087550NSRDB+043199999V020999999999999999999999999999+99999+99999999999ADDGP10060000002000000002000000002000GR100600000900009
0054727430999992005012112009+46533-087550NSRDB+043199999V020999999999999999999999999999+99999+99999999999ADDGP10060000002000000002000000002000GR100600000900009
0054727430999992005012113009+46533-087550NSRDB+043199999V020999999999999999999999999999+99999+99999999999ADDGP10060000002000000002000000002000GR100600000900009
0071727430999992005012114009+46533-087550NSRDB+043199999V020999999999999999999999999999+99999+99999999999ADDGP10060000102009006702021000102009GQ100600878912199GR100600029907659
0071727430999992005012115009+46533-087550NSRDB+043199999V020999999999999999999999999999+99999+99999999999ADDGP10060011102009031902021006402009GQ100600816913079GR100600206914139
0071727430999992005012116009+46533-087550NSRDB+043199999V020999999999999999999999999999+99999+99999999999ADDGP10060020402009048002021007602009GQ100600746914329GR100600374914139
0071727430999992005012117009+46533-087550NSRDB+043199999V020999999999999999999999999999+99999+99999999999ADDGP10060029702009060602021008402009GQ100600695915709GR100600494914139
0071727430999992005012118009+46533-087550NSRDB+043199999V020999999999999999999999999999+99999+99999999999ADDGP10060038102009075502021008202009GQ100600668917199GR100600557914139
0071727430999992005012119009+46533-087550NSRDB+043199999V020999999999999999999999999999+99999+99999999999ADDGP10060035502009067602021008702009GQ100600667918739GR100600559914139
0071727430999992005012120009+46533-087550NSRDB+043199999V020999999999999999999999999999+99999+99999999999ADDGP10060030702009063802021008002009GQ100600693920229GR100600500914139
0071727430999992005012121009+46533-087550NSRDB+043199999V020999999999999999999999999999+99999+99999999999ADDGP10060024402009054302021009602009GQ100600743921619GR100600383914139
0071727430999992005012122009+46533-087550NSRDB+043199999V020999999999999999999999999999+99999+99999999999ADDGP10060005302009003202021004802009GQ100600812922879GR100600217914139
0071727430999992005012123009+46533-087550NSRDB+043199999V020999999999999999999999999999+99999+99999999999ADDGP10060000102009000002021000102009GQ100600876923799GR100600037908599
0054727430999992005012200009+46533-087550NSRDB+043199999V020999999999999999999999999999+99999+99999999999ADDGP10060000002000000002000000002000GR100600000900009
0054727430999992005012201009+46533-087550NSRDB+043199999V020999999999999999999999999999+99999+99999999999ADDGP10060000002000000002000000002000GR100600000900009
0054727430999992005012202009+46533-087550NSRDB+043199999V020999999999999999999999999999+99999+99999999999ADDGP10060000002000000002000000002000GR100600000900009
0054727430999992005012203009+46533-087550NSRDB+043199999V020999999999999999999999999999+99999+99999999999ADDGP10060000002000000002000000002000GR100600000900009
0054727430999992005012204009+46533-087550NSRDB+043199999V020999999999999999999999999999+99999+99999999999ADDGP10060000002000000002000000002000GR100600000900009
0054727430999992005012205009+46533-087550NSRDB+043199999V020999999999999999999999999999+99999+99999999999ADDGP10060000002000000002000000002000GR100600000900009
0054727430999992005012206009+46533-087550NSRDB+043199999V020999999999999999999999999999+99999+99999999999ADDGP10060000002000000002000000002000GR100600000900009
0054727430999992005012207009+46533-087550NSRDB+043199999V020999999999999999999999999999+99999+99999999999ADDGP10060000002000000002000000002000GR100600000900009
0054727430999992005012208009+46533-087550NSRDB+043199999V020999999999999999999999999999+99999+99999999999ADDGP10060000002000000002000000002000GR100600000900009
0054727430999992005012209009+46533-087550NSRDB+043199999V020999999999999999999999999999+99999+99999999999ADDGP10060000002000000002000000002000GR100600000900009
0054727430999992005012210009+46533-087550NSRDB+043199999V020999999999999999999999999999+99999+99999999999ADDGP10060000002000000002000000002000GR100600000900009
0054727430999992005012211009+46533-087550NSRDB+043199999V020999999999999999999999999999+99999+99999999999ADDGP10060000002000000002000000002000GR100600000900009
0054727430999992005012212009+46533-087550NSRDB+043199999V020999999999999999999999999999+99999+99999999999ADDGP10060000002000000002000000002000GR100600000900009
0054727430999992005012213009+46533-087550NSRDB+043199999V020999999999999999999999999999+99999+99999999999ADDGP10060000002000000002000000002000GR100600000900009
0071727430999992005012214009+46533-087550NSRDB+043199999V020999999999999999999999999999+99999+99999999999ADDGP10060000102009000202021000102009GQ100600877912169GR100600031907899
0071727430999992005012215009+46533-087550NSRDB+043199999V020999999999999999999999999999+99999+99999999999ADDGP10060006402009000702021006302009GQ100600815913059GR100600209914129
0071727430999992005012216009+46533-087550NSRDB+043199999V020999999999999999999999999999+99999+99999999999ADDGP10060014002009010102021011302009GQ100600745914319GR100600378914129
0071727430999992005012217009+46533-087550NSRDB+043199999V020999999999999999999999999999+99999+99999999999ADDGP10060013502009000602021013302009GQ100600693915699GR100600499914129
0071727430999992005012218009+46533-087550NSRDB+043199999V020999999999999999999999999999+99999+99999999999ADDGP10060012302009000002021012302009GQ100600665917189GR100600562914129
0071727430999992005012219009+46533-087550NSRDB+043199999V020999999999999999999999999999+99999+99999999999ADDGP10060017802009003002021016602009GQ100600664918729GR100600565914129
0071727430999992005012220009+46533-087550NSRDB+043199999V020999999999999999999999999999+99999+99999999999ADDGP10060011902009000002021011902009GQ100600690920229GR100600505914129
0071727430999992005012221009+46533-087550NSRDB+043199999V020999999999999999999999999999+99999+99999999999ADDGP10060015402009016202021010902009GQ100600740921619GR100600388914129
0071727430999992005012222009+46533-087550NSRDB+043199999V020999999999999999999999999999+99999+99999999999ADDGP10060012102009034002021006702009GQ100600809922879GR100600223914129
0071727430999992005012223009+46533-087550NSRDB+043199999V020999999999999999999999999999+99999+99999999999ADDGP10060000302009000002021000302009GQ100600875923829GR100600040909069
0054727430999992005012300009+46533-087550NSRDB+043199999V020999999999999999999999999999+99999+99999999999ADDGP10060000002000000002000000002000GR100600000900009
0054727430999992005012301009+46533-087550NSRDB+043199999V020999999999999999999999999999+99999+99999999999ADDGP10060000002000000002000000002000GR100600000900009
0054727430999992005012302009+46533-087550NSRDB+043199999V020999999999999999999999999999+99999+99999999999ADDGP10060000002000000002000000002000GR100600000900009
0054727430999992005012303009+46533-087550NSRDB+043199999V020999999999999999999999999999+99999+99999999999ADDGP10060000002000000002000000002000GR100600000900009
0054727430999992005012304009+46533-087550NSRDB+043199999V020999999999999999999999999999+99999+99999999999ADDGP10060000002000000002000000002000GR100600000900009
0054727430999992005012305009+46533-087550NSRDB+043199999V020999999999999999999999999999+99999+99999999999ADDGP10060000002000000002000000002000GR100600000900009
0054727430999992005012306009+46533-087550NSRDB+043199999V020999999999999999999999999999+99999+99999999999ADDGP10060000002000000002000000002000GR100600000900009
0054727430999992005012307009+46533-087550NSRDB+043199999V020999999999999999999999999999+99999+99999999999ADDGP10060000002000000002000000002000GR100600000900009
0054727430999992005012308009+46533-087550NSRDB+043199999V020999999999999999999999999999+99999+99999999999ADDGP10060000002000000002000000002000GR100600000900009
0054727430999992005012309009+46533-087550NSRDB+043199999V020999999999999999999999999999+99999+99999999999ADDGP10060000002000000002000000002000GR100600000900009
0054727430999992005012310009+46533-087550NSRDB+043199999V020999999999999999999999999999+99999+99999999999ADDGP10060000002000000002000000002000GR100600000900009
0054727430999992005012311009+46533-087550NSRDB+043199999V020999999999999999999999999999+99999+99999999999ADDGP10060000002000000002000000002000GR100600000900009
0054727430999992005012312009+46533-087550NSRDB+043199999V020999999999999999999999999999+99999+99999999999ADDGP10060000002000000002000000002000GR100600000900009
0054727430999992005012313009+46533-087550NSRDB+043199999V020999999999999999999999999999+99999+99999999999ADDGP10060000002000000002000000002000GR100600000900009
0071727430999992005012314009+46533-087550NSRDB+043199999V020999999999999999999999999999+99999+99999999999ADDGP10060000202009010902021000102009GQ100600877912139GR100600033908129
0071727430999992005012315009+46533-087550NSRDB+043199999V020999999999999999999999999999+99999+99999999999ADDGP10060012702009047102021005602009GQ100600813913049GR100600213914129
0071727430999992005012316009+46533-087550NSRDB+043199999V020999999999999999999999999999+99999+99999999999ADDGP10060025902009077502021004802009GQ100600743914299GR100600382914129
0071727430999992005012317009+46533-087550NSRDB+043199999V020999999999999999999999999999+99999+99999999999ADDGP10060036102009085702021005402009GQ100600691915689GR100600503914129
0071727430999992005012318009+46533-087550NSRDB+043199999V020999999999999999999999999999+99999+99999999999ADDGP10060040002009082702021006602009GQ100600663917179GR100600567914129
0071727430999992005012319009+46533-087550NSRDB+043199999V020999999999999999999999999999+99999+99999999999ADDGP10060040302009065202021013902009GQ100600662918729GR100600570914129
0071727430999992005012320009+46533-087550NSRDB+043199999V020999999999999999999999999999+99999+99999999999ADDGP10060021002009015402021015502009GQ100600688920229GR100600511914129
0071727430999992005012321009+46533-087550NSRDB+043199999V020999999999999999999999999999+99999+99999999999ADDGP10060022402009043402021010202009GQ100600738921629GR100600394914129
0071727430999992005012322009+46533-087550NSRDB+043199999V020999999999999999999999999999+99999+99999999999ADDGP10060012702009046602021005102009GQ100600807922889GR100600228914129
0071727430999992005012323009+46533-087550NSRDB+043199999V020999999999999999999999999999+99999+99999999999ADDGP10060000802009017002021000402009GQ100600874923849GR100600043909309
0054727430999992005012400009+46533-087550NSRDB+043199999V020999999999999999999999999999+99999+99999999999ADDGP10060000002000000002000000002000GR100600000900009
0054727430999992005012401009+46533-087550NSRDB+043199999V020999999999999999999999999999+99999+99999999999ADDGP10060000002000000002000000002000GR100600000900009
0054727430999992005012402009+46533-087550NSRDB+043199999V020999999999999999999999999999+99999+99999999999ADDGP10060000002000000002000000002000GR100600000900009
0054727430999992005012403009+46533-087550NSRDB+043199999V020999999999999999999999999999+99999+99999999999ADDGP10060000002000000002000000002000GR100600000900009
0054727430999992005012404009+46533-087550NSRDB+043199999V020999999999999999999999999999+99999+99999999999ADDGP10060000002000000002000000002000GR100600000900009
0054727430999992005012405009+46533-087550NSRDB+043199999V020999999999999999999999999999+99999+99999999999ADDGP10060000002000000002000000002000GR100600000900009
0054727430999992005012406009+46533-087550NSRDB+043199999V020999999999999999999999999999+99999+99999999999ADDGP10060000002000000002000000002000GR100600000900009
0054727430999992005012407009+46533-087550NSRDB+043199999V020999999999999999999999999999+99999+99999999999ADDGP10060000002000000002000000002000GR100600000900009
0054727430999992005012408009+46533-087550NSRDB+043199999V020999999999999999999999999999+99999+99999999999ADDGP10060000002000000002000000002000GR100600000900009
0054727430999992005012409009+46533-087550NSRDB+043199999V020999999999999999999999999999+99999+99999999999ADDGP10060000002000000002000000002000GR100600000900009
0054727430999992005012410009+46533-087550NSRDB+043199999V020999999999999999999999999999+99999+99999999999ADDGP10060000002000000002000000002000GR100600000900009
0054727430999992005012411009+46533-087550NSRDB+043199999V020999999999999999999999999999+99999+99999999999ADDGP10060000002000000002000000002000GR100600000900009
0054727430999992005012412009+46533-087550NSRDB+043199999V020999999999999999999999999999+99999+99999999999ADDGP10060000002000000002000000002000GR100600000900009
0054727430999992005012413009+46533-087550NSRDB+043199999V020999999999999999999999999999+99999+99999999999ADDGP10060000002000000002000000002000GR100600000900009
0071727430999992005012414009+46533-087550NSRDB+043199999V020999999999999999999999999999+99999+99999999999ADDGP10060000102009001402021000102009GQ100600876912109GR100600035908359
0071727430999992005012415009+46533-087550NSRDB+043199999V020999999999999999999999999999+99999+99999999999ADDGP10060007202009005602021006302009GQ100600811913029GR100600217914129
0071727430999992005012416009+46533-087550NSRDB+043199999V020999999999999999999999999999+99999+99999999999ADDGP10060006302009000002021006302009GQ100600741914279GR100600387914129
0071727430999992005012417009+46533-087550NSRDB+043199999V020999999999999999999999999999+99999+99999999999ADDGP10060007702009000002021007702009GQ100600689915669GR100600508914129
0071727430999992005012418009+46533-087550NSRDB+043199999V020999999999999999999999999999+99999+99999999999ADDGP10060006802009000002021006802009GQ100600661917169GR100600573914129
0071727430999992005012419009+46533-087550NSRDB+043199999V020999999999999999999999999999+99999+99999999999ADDGP10060006502009000002021006502009GQ100600660918719GR100600575914129
0071727430999992005012420009+46533-087550NSRDB+043199999V020999999999999999999999999999+99999+99999999999ADDGP10060005702009000002021005702009GQ100600685920229GR100600516914129
0071727430999992005012421009+46533-087550NSRDB+043199999V020999999999999999999999999999+99999+99999999999ADDGP10060004302009000002021004302009GQ100600736921629GR100600399914129
0071727430999992005012422009+46533-087550NSRDB+043199999V020999999999999999999999999999+99999+99999999999ADDGP10060004102009000002021004102009GQ100600805922899GR100600234914129
0071727430999992005012423009+46533-087550NSRDB+043199999V020999999999999999999999999999+99999+99999999999ADDGP10060000702009002502021000702009GQ100600872923869GR100600046909539
0054727430999992005012500009+46533-087550NSRDB+043199999V020999999999999999999999999999+99999+99999999999ADDGP10060000002000000002000000002000GR100600000900009
0054727430999992005012501009+46533-087550NSRDB+043199999V020999999999999999999999999999+99999+99999999999ADDGP10060000002000000002000000002000GR100600000900009
0054727430999992005012502009+46533-087550NSRDB+043199999V020999999999999999999999999999+99999+99999999999ADDGP10060000002000000002000000002000GR100600000900009
0054727430999992005012503009+46533-087550NSRDB+043199999V020999999999999999999999999999+99999+99999999999ADDGP10060000002000000002000000002000GR100600000900009
0054727430999992005012504009+46533-087550NSRDB+043199999V020999999999999999999999999999+99999+99999999999ADDGP10060000002000000002000000002000GR100600000900009
0054727430999992005012505009+46533-087550NSRDB+043199999V020999999999999999999999999999+99999+99999999999ADDGP10060000002000000002000000002000GR100600000900009
0054727430999992005012506009+46533-087550NSRDB+043199999V020999999999999999999999999999+99999+99999999999ADDGP10060000002000000002000000002000GR100600000900009
0054727430999992005012507009+46533-087550NSRDB+043199999V020999999999999999999999999999+99999+99999999999ADDGP10060000002000000002000000002000GR100600000900009
0054727430999992005012508009+46533-087550NSRDB+043199999V020999999999999999999999999999+99999+99999999999ADDGP10060000002000000002000000002000GR100600000900009
0054727430999992005012509009+46533-087550NSRDB+043199999V020999999999999999999999999999+99999+99999999999ADDGP10060000002000000002000000002000GR100600000900009
0054727430999992005012510009+46533-087550NSRDB+043199999V020999999999999999999999999999+99999+99999999999ADDGP10060000002000000002000000002000GR100600000900009
0054727430999992005012511009+46533-087550NSRDB+043199999V020999999999999999999999999999+99999+99999999999ADDGP10060000002000000002000000002000GR100600000900009
0054727430999992005012512009+46533-087550NSRDB+043199999V020999999999999999999999999999+99999+99999999999ADDGP10060000002000000002000000002000GR100600000900009
0054727430999992005012513009+46533-087550NSRDB+043199999V020999999999999999999999999999+99999+99999999999ADDGP10060000002000000002000000002000GR100600000900009
0071727430999992005012514009+46533-087550NSRDB+043199999V020999999999999999999999999999+99999+99999999999ADDGP10060000002009000002021000002009GQ100600875912079GR100600037908599
0071727430999992005012515009+46533-087550NSRDB+043199999V020999999999999999999999999999+99999+99999999999ADDGP10060001802009000002021001802009GQ100600810913009GR100600221914119
0071727430999992005012516009+46533-087550NSRDB+043199999V020999999999999999999999999999+99999+99999999999ADDGP10060004202009000002021004202009GQ100600739914269GR100600391914119
0071727430999992005012517009+46533-087550NSRDB+043199999V020999999999999999999999999999+99999+99999999999ADDGP10060005802009000002021005802009GQ100600687915659GR100600513914119
0071727430999992005012518009+46533-087550NSRDB+043199999V020999999999999999999999999999+99999+99999999999ADDGP10060008002009000002021008002009GQ100600658917169GR100600578914119
0071727430999992005012519009+46533-087550NSRDB+043199999V020999999999999999999999999999+99999+99999999999ADDGP10060006502009000002021006502009GQ100600657918719GR100600581914119
0071727430999992005012520009+46533-087550NSRDB+043199999V020999999999999999999999999999+99999+99999999999ADDGP10060005702009000002021005702009GQ100600683920229GR100600522914119
0071727430999992005012521009+46533-087550NSRDB+043199999V020999999999999999999999999999+99999+99999999999ADDGP10060004302009000002021004302009GQ100600733921639GR100600405914119
