0225994090999992005010100004+48217-088367FM-12+0209PILM V0203501N007719999999N9999999N1-01071+99999102011ADDMD1110791+9999OA139901391REMSYN188CMAN  01004 PILM4 46/// /3515 11107 40201 51079 90000 333 91227 555 11015 22015 32301 433033 62359 350016 355016 346018 338019 3424 084024 08009 1902097 100088 097085 099086 105085 102082;
0017994090999992005010101004+48217-088367FM-12+0209PILM V0203501N007219999999N9999999N1-01061+99999102211ADDMD1110721+9999
0212994090999992005010102004+48217-088367FM-12+0209PILM V0203501N007719999999N9999999N1-01091+99999102431ADDMD1110661+9999OA139901541REMSYN175CMAN  01024 PILM4 46/// /3515 11109 40243 51066 90200 333 91230 555 11014 22015 30106 401031 60159 000014 358014 000014 000015 0023 087024 08014 078013 07805036 104037 098037;
0017994090999992005010103004+48217-088367FM-12+0209PILM V0203601N008719999999N9999999N1-01141+99999102661ADDMD1310651+9999
0225994090999992005010104004+48217-088367FM-12+0209PILM V0203601N006219999999N9999999N1-01181+99999102891ADDMD1310681+9999OA139901131REMSYN188CMAN  01044 PILM4 46/// /3612 11118 40289 53068 90400 333 91222 555 11012 22012 30355 434027 60359 354013 357013 357014 001012 0022 251022 250349 102082 103083 102093 100093 097093 099090;
0017994090999992005010105004+48217-088367FM-12+0209PILM V0203601N007219999999N9999999N1-01231+99999103061ADDMD1110631+9999
0179994090999992005010106004+48217-088367FM-12+0209PILM V0203601N008719999999N9999999N1-01261+99999103121ADDMD1110461+9999OA139901291REMSYN142CMAN  01064 PILM4 46/// /3617 11126 40312 51046 90600 333 91225 555 11016 22017 30552 401027 60559 005015 004013 359013 004013 0014 287018 28;
0183994090999992005010107004+48217-088367FM-12+0209PILM V0200101N007219999999N9999999N1-01291+99999103241ADDMD1110351+9999OA139901131REMSYN146CMAN  01074 PILM4 46/// /0114 11129 40324 51035 90700 333 91222 555 11014 22014 30602 402025 60659 008014 009013 007014 006013 0029 246030 245032;
0017994090999992005010108004+48217-088367FM-12+0209PILM V0200301N006719999999N9999999N1-01301+99999103361ADDMD1310301+9999
0017994090999992005010110004+48217-088367FM-12+0209PILM V0200101N007219999999N9999999N1-01361+99999103631ADDMD1110391+9999
0017994090999992005010111004+48217-088367FM-12+0209PILM V0200101N005119999999N9999999N1-01371+99999103741ADDMD1110381+9999
0183994090999992005010112004+48217-088367FM-12+0209PILM V0200301N005719999999N9999999N1-01401+99999103841ADDMD1310301+9999OA139900771REMSYN146CMAN  01124 PILM4 46/// /0311 11140 40384 53030 91200 333 91215 555 11011 22011 31151 401021 61159 019012 015012 012013 014012 0113 293014 293014;
0017994090999992005010113004+48217-088367FM-12+0209PILM V0200301N005119999999N9999999N1-01421+99999103991ADDMD1310361+9999
0017994090999992005010114004+48217-088367FM-12+0209PILM V0200201N005119999999N9999999N1-01431+99999104031ADDMD1110291+9999
0017994090999992005010115004+48217-088367FM-12+0209PILM V0200301N005119999999N9999999N1-01451+99999104081ADDMD1110241+9999
0017994090999992005010116004+48217-088367FM-12+0209PILM V0200201N005719999999N9999999N1-01421+99999104111ADDMD1110121+9999
0231994090999992005010117004+48217-088367FM-12+0209PILM V0200401N005119999999N9999999N1-01321+99999104131ADDMD1110101+9999OA139900721REMSYN194CMAN  01174 PILM4 46/// /0410 11132 40413 51010 91700 333 91214 555 11010 22010 31622 404019 61659 033011 039011 037012 038013 0305 339004 343515 61649 349109 351112 351116 352117 350123 349124;
0225994090999992005010118004+48217-088367FM-12+0209PILM V0200601N005719999999N9999999N1-01231+99999104061ADDMD1010001+9999OA139900671REMSYN188CMAN  01184 PILM4 46/// /0611 11123 40406 50000 91800 333 91213 555 11011 22012 31727 407017 61759 052011 041008 043010 053012 04022 29006 070000 50102 60000 60018 60035 70000 77R// 7OR//;
0017994090999992005010119004+48217-088367FM-12+0209PILM V0200501N006219999999N9999999N1-01121+99999104001ADDMD1810111+9999
0017994090999992005010120004+48217-088367FM-12+0209PILM V0200401N005719999999N9999999N1-01111+99999103911ADDMD1810221+9999
0017994090999992005010121004+48217-088367FM-12+0209PILM V0200701N006219999999N9999999N1-01031+99999103941ADDMD1510121+9999
0017994090999992005010122004+48217-088367FM-12+0209PILM V0200701N008719999999N9999999N1-00911+99999103841ADDMD1810161+9999
0017994090999992005010123004+48217-088367FM-12+0209PILM V0200801N010319999999N9999999N1-00831+99999103731ADDMD1810181+9999
0257994090999992005010200004+48217-088367FM-12+0209PILM V0200801N012319999999N9999999N1-00721+99999103571ADDMD1810371+9999OA139901391REMSYN220CMAN  02004 PILM4 46/// /0824 11072 40357 58037 90000 333 91227 555 11023 22024 32359 407027 62359 078023 081021 076022 074021 08011 18022 08009 080113 40117 51032 60134 78082 889// 333 56999 70127 58007 88916 555 90200;
0017994090999992005010201004+48217-088367FM-12+0209PILM V0201001N010319999999N9999999N1-00621+99999103481ADDMD1610361+9999
0017994090999992005010202004+48217-088367FM-12+0209PILM V0201101N012319999999N9999999N1-00521+99999103301ADDMD1810431+9999
0017994090999992005010203004+48217-088367FM-12+0209PILM V0201001N013919999999N9999999N1-00451+99999103111ADDMD1810461+9999
0225994090999992005010204004+48217-088367FM-12+0209PILM V0200901N014919999999N9999999N1-00411+99999102921ADDMD1810561+9999OA139901651REMSYN188CMAN  02044 PILM4 46/// /0929 11041 40292 58056 90400 333 91232 555 11028 22030 30323 410034 60359 091028 090027 101026 105026 0914 068015 06007 0896018 294017 297019 291017 295023 292019;
0017994090999992005010205004+48217-088367FM-12+0209PILM V0200901N012919999999N9999999N1-00351+99999102831ADDMD1610471+9999
0017994090999992005010206004+48217-088367FM-12+0209PILM V0201101N014419999999N9999999N1-00281+99999102711ADDMD1610401+9999
0017994090999992005010207004+48217-088367FM-12+0209PILM V0201101N013419999999N9999999N1-00301+99999102541ADDMD1810381+9999
0017994090999992005010208004+48217-088367FM-12+0209PILM V0201201N014919999999N9999999N1-00201+99999102331ADDMD1810501+9999
0017994090999992005010209004+48217-088367FM-12+0209PILM V0201301N017019999999N9999999N1-00191+99999102171ADDMD1610541+9999
0225994090999992005010210004+48217-088367FM-12+0209PILM V0201301N015419999999N9999999N1-00121+99999102001ADDMD1610541+9999OA139901701REMSYN188CMAN  02104 PILM4 46/// /1330 11012 40200 56054 91000 333 91233 555 11029 22031 30904 414037 60959 131030 129031 128032 130032 13011 07021 07013 1077014 276017 278016 274016 273016 274015;
0183994090999992005010211004+48217-088367FM-12+0209PILM V0201501N010819999999N9999999N1-00111+99999101881ADDMD1610451+9999OA139901241REMSYN146CMAN  02114 PILM4 46/// /1521 11011 40188 56045 91100 333 91224 555 11021 22022 31009 413038 61059 143024 140026 139027 138028 1304 056006 053007;
0183994090999992005010212004+48217-088367FM-12+0209PILM V0201701N010319999999N9999999N1-00031+99999101831ADDMD1610341+9999OA139901181REMSYN146CMAN  02124 PILM4 46/// /1720 11003 40183 56034 91200 333 91223 555 11019 22020 31105 414028 61159 164019 155021 150022 146023 1410 171005 167004;
0183994090999992005010213004+48217-088367FM-12+0209PILM V0202401N006719999999N9999999N1-00061+99999101751ADDMD1610251+9999OA139900721REMSYN146CMAN  02134 PILM4 46/// /2413 11006 40175 56025 91300 333 91214 555 11012 22013 31201 418022 61259 236013 223015 217016 205016 1908 180006 171009;
0183994090999992005010214004+48217-088367FM-12+0209PILM V0202501N008719999999N9999999N1-00071+99999101721ADDMD1610161+9999OA139900981REMSYN146CMAN  02144 PILM4 46/// /2517 11007 40172 56016 91400 333 91219 555 11017 22018 31346 425022 61359 248018 251019 251018 252017 2411 155012 151007;
0017994090999992005010215004+48217-088367FM-12+0209PILM V0203101N008719999999N9999999N1-00121+99999101741ADDMD1610091+9999
0017994090999992005010216004+48217-088367FM-12+0209PILM V0203101N007219999999N9999999N1-00231+99999101811ADDMD1310061+9999
0183994090999992005010217004+48217-088367FM-12+0209PILM V0202901N013919999999N9999999N1-00241+99999101791ADDMD1210071+9999OA139901491REMSYN146CMAN  02174 PILM4 46/// /2927 11024 40179 52007 91700 333 91229 555 11026 22027 31658 429029 61659 295024 310020 304017 308014 3113 162014 163013;
0017994090999992005010218004+48217-088367FM-12+0209PILM V0202901N013419999999N9999999N1-00291+99999101781ADDMD1110041+9999
0017994090999992005010219004+48217-088367FM-12+0209PILM V0202801N013919999999N9999999N1-00281+99999101781ADDMD1710031+9999
0183994090999992005010220004+48217-088367FM-12+0209PILM V0202801N014419999999N9999999N1-00321+99999101811ADDMD1510001+9999OA139901701REMSYN146CMAN  02204 PILM4 46/// /2828 11032 40181 55000 92000 333 91233 555 11027 22029 31940 427034 61959 275028 276029 272029 269027 2611 187010 182010;
0017994090999992005010221004+48217-088367FM-12+0209PILM V0202801N014419999999N9999999N1-00361+99999101901ADDMD1310121+9999
0017994090999992005010222004+48217-088367FM-12+0209PILM V0202801N013919999999N9999999N1-00431+99999102031ADDMD1310251+9999
0017994090999992005010223004+48217-088367FM-12+0209PILM V0202801N014919999999N9999999N1-00531+99999102161ADDMD1310351+9999
0017994090999992005010300004+48217-088367FM-12+0209PILM V0202901N015919999999N9999999N1-00671+99999102261ADDMD1110361+9999
0017994090999992005010301004+48217-088367FM-12+0209PILM V0202801N015919999999N9999999N1-00781+99999102351ADDMD1110321+9999
0017994090999992005010302004+48217-088367FM-12+0209PILM V0202901N014419999999N9999999N1-00881+99999102431ADDMD1110271+9999
0183994090999992005010303004+48217-088367FM-12+0209PILM V0202901N012319999999N9999999N1-01111+99999102611ADDMD1310351+9999OA139901391REMSYN146CMAN  03034 PILM4 46/// /2924 11111 40261 53035 90300 333 91227 555 11023 22024 30200 429033 60259 289024 290024 299025 296025 2808 264007 239009;
0225994090999992005010304004+48217-088367FM-12+0209PILM V0202801N011819999999N9999999N1-01111+99999102711ADDMD1310361+9999OA139901391REMSYN188CMAN  03044 PILM4 46/// /2823 11111 40271 53036 90400 333 91227 555 11022 22024 30315 428034 60359 280024 284024 283024 282025 28005 04014 33007 0752023 151022 155024 156023 155021 160022;
0183994090999992005010305004+48217-088367FM-12+0209PILM V0202901N010319999999N9999999N1-01201+99999102811ADDMD1110381+9999OA139901291REMSYN146CMAN  03054 PILM4 46/// /2920 11120 40281 51038 90500 333 91225 555 11020 22021 30440 429031 60459 290021 293023 292024 288025 2812 244014 246015;
0017994090999992005010306004+48217-088367FM-12+0209PILM V0202901N012319999999N9999999N1-01201+99999102821ADDMD1110211+9999
0225994090999992005010307004+48217-088367FM-12+0209PILM V0203001N010819999999N9999999N1-01241+99999102891ADDMD1110181+9999OA139901181REMSYN188CMAN  03074 PILM4 46/// /3021 11124 40289 51018 90700 333 91223 555 11020 22021 30624 429027 60659 297022 302019 294019 295021 2920 079019 08008 0710094 111096 109098 109100 108096 106093;
0017994090999992005010308004+48217-088367FM-12+0209PILM V0203201N007219999999N9999999N1-01321+99999102991ADDMD1310181+9999
0017994090999992005010309004+48217-088367FM-12+0209PILM V0203201N008219999999N9999999N1-01371+99999103031ADDMD1110211+9999
0225994090999992005010310004+48217-088367FM-12+0209PILM V0203201N009319999999N9999999N1-01421+99999102991ADDMD1010101+9999OA139901081REMSYN188CMAN  03104 PILM4 46/// /3218 11142 40299 50010 91000 333 91221 555 11017 22018 30903 432025 60959 320018 317018 311018 313019 3216 079016 07009 1007098 106092 105098 103090 103086 102091;
0183994090999992005010311004+48217-088367FM-12+0209PILM V0203301N007719999999N9999999N1-01521+99999103061ADDMD1310071+9999OA139900931REMSYN146CMAN  03114 PILM4 46/// /3315 11152 40306 53007 91100 333 91218 555 11014 22015 31003 431024 61059 323014 322013 325015 328016 3205 319004 323004;
0183994090999992005010312004+48217-088367FM-12+0209PILM V0203201N005119999999N9999999N1-01521+99999103101ADDMD1310071+9999OA139900671REMSYN146CMAN  03124 PILM4 46/// /3210 11152 40310 53007 91200 333 91213 555 11010 22010 31112 433021 61159 327010 322013 327013 332013 3204 003005 004005;
0017994090999992005010313004+48217-088367FM-12+0209PILM V0203201N004119999999N9999999N1-01511+99999103111ADDMD1110121+9999
0183994090999992005010314004+48217-088367FM-12+0209PILM V0203401N005119999999N9999999N1-01521+99999103131ADDMD1110071+9999OA139900771REMSYN146CMAN  03144 PILM4 46/// /3410 11152 40313 51007 91400 333 91215 555 11010 22011 31300 433017 61359 328010 317010 312011 315010 3105 056006 052005;
0017994090999992005010315004+48217-088367FM-12+0209PILM V0202801N004619999999N9999999N1-01531+99999103161ADDMD1310061+9999
0017994090999992005010316004+48217-088367FM-12+0209PILM V0203401N003119999999N9999999N1-01551+99999103241ADDMD1310131+9999
0017994090999992005010318004+48217-088367FM-12+0209PILM V0203101N005119999999N9999999N1-01511+99999103131ADDMD1810031+9999
0017994090999992005010319004+48217-088367FM-12+0209PILM V0203201N004119999999N9999999N1-01491+99999103051ADDMD1810191+9999
0183994090999992005010320004+48217-088367FM-12+0209PILM V0202701N002619999999N9999999N1-01421+99999103031ADDMD1610161+9999OA139900311REMSYN146CMAN  03204 PILM4 46/// /2705 11142 40303 56016 92000 333 91206 555 11005 22005 31915 431014 61959 300008 337006 316007 322007 3008 045008 037007;
0017994090999992005010321004+48217-088367FM-12+0209PILM V0202901N004119999999N9999999N1-01331+99999103011ADDMD1610121+9999
0017994090999992005010322004+48217-088367FM-12+0209PILM V0202801N006219999999N9999999N1-01281+99999103031ADDMD1410001+9999
0017994090999992005010323004+48217-088367FM-12+0209PILM V0203001N005719999999N9999999N1-01231+99999103061ADDMD1310031+9999
0017994090999992005010400004+48217-088367FM-12+0209PILM V0203101N005719999999N9999999N1-01151+99999103001ADDMD1010001+9999
0017994090999992005010401004+48217-088367FM-12+0209PILM V0203201N006719999999N9999999N1-01131+99999102981ADDMD1810051+9999
0017994090999992005010402004+48217-088367FM-12+0209PILM V0203201N005719999999N9999999N1-01191+99999103001ADDMD1610061+9999
0017994090999992005010403004+48217-088367FM-12+0209PILM V0203101N006219999999N9999999N1-01171+99999103001ADDMD1410001+9999
0017994090999992005010404004+48217-088367FM-12+0209PILM V0202901N006219999999N9999999N1-01171+99999102991ADDMD1410001+9999
0183994090999992005010405004+48217-088367FM-12+0209PILM V0203001N006219999999N9999999N1-01211+99999103001ADDMD1410001+9999OA139900721REMSYN146CMAN  04054 PILM4 46/// /3012 11121 40300 54000 90500 333 91214 555 11011 22012 30430 431018 60459 299011 307012 309014 309012 3116 046016 046015;
0017994090999992005010406004+48217-088367FM-12+0209PILM V0203001N005119999999N9999999N1-01161+99999102971ADDMD1810031+9999
0017994090999992005010407004+48217-088367FM-12+0209PILM V0202901N008719999999N9999999N1-01131+99999102921ADDMD1810071+9999
0017994090999992005010408004+48217-088367FM-12+0209PILM V0202901N008719999999N9999999N1-01151+99999102951ADDMD1510051+9999
0195994090999992005010409004+48217-088367FM-12+0209PILM V0202901N010319999999N9999999N1-01141+99999102941ADDMD1610031+9999OA139901181REMSYN158CMAN  04094 PILM4 46/// /2920 11114 40294 56003 90900 333 91223 555 11020 22021 30824 430026 60859 292020 295021 295021 293022 29007 0611 053010 054009 05700;
0017994090999992005010410004+48217-088367FM-12+0209PILM V0202901N009319999999N9999999N1-01121+99999102901ADDMD1010001+9999
0017994090999992005010411004+48217-088367FM-12+0209PILM V0202801N007719999999N9999999N1-01091+99999102911ADDMD1710041+9999
0017994090999992005010412004+48217-088367FM-12+0209PILM V0203001N009319999999N9999999N1-01121+99999102941ADDMD1510001+9999
0017994090999992005010413004+48217-088367FM-12+0209PILM V0203101N011319999999N9999999N1-01151+99999102941ADDMD1210041+9999
0183994090999992005010414004+48217-088367FM-12+0209PILM V0203201N008719999999N9999999N1-01221+99999103001ADDMD1310091+9999OA139900981REMSYN146CMAN  04144 PILM4 46/// /3217 11122 40300 53009 91400 333 91219 555 11016 22017 31330 432024 61359 315017 306018 307019 313020 3110 003010 004010;
0017994090999992005010415004+48217-088367FM-12+0209PILM V0203201N011819999999N9999999N1-01251+99999103091ADDMD1310151+9999
0017994090999992005010416004+48217-088367FM-12+0209PILM V0203201N010319999999N9999999N1-01401+99999103191ADDMD1310251+9999
0183994090999992005010417004+48217-088367FM-12+0209PILM V0203201N010819999999N9999999N1-01401+99999103231ADDMD1110231+9999OA139901291REMSYN146CMAN  04174 PILM4 46/// /3221 11140 40323 51023 91700 333 91225 555 11020 22021 31612 432027 61659 319020 320019 318020 315019 3107 023006 033007;
0017994090999992005010418004+48217-088367FM-12+0209PILM V0203401N007719999999N9999999N1-01411+99999103231ADDMD1110141+9999
0017994090999992005010419004+48217-088367FM-12+0209PILM V0203301N008719999999N9999999N1-01341+99999103201ADDMD1010001+9999
0183994090999992005010420004+48217-088367FM-12+0209PILM V0203201N009819999999N9999999N1-01291+99999103191ADDMD1710041+9999OA139901081REMSYN146CMAN  04204 PILM4 46/// /3219 11129 40319 57004 92000 333 91221 555 11018 22019 31930 432028 61959 319020 324021 320022 323022 3106 229006 222003;
0017994090999992005010421004+48217-088367FM-12+0209PILM V0203301N010319999999N9999999N1-01301+99999103291ADDMD1310061+9999
0017994090999992005010422004+48217-088367FM-12+0209PILM V0203201N009319999999N9999999N1-01361+99999103381ADDMD1310181+9999
0017994090999992005010423004+48217-088367FM-12+0209PILM V0203201N010819999999N9999999N1-01381+99999103471ADDMD1110281+9999
0017994090999992005010500004+48217-088367FM-12+0209PILM V0203201N009319999999N9999999N1-01441+99999103621ADDMD1310331+9999
0017994090999992005010501004+48217-088367FM-12+0209PILM V0203201N009319999999N9999999N1-01491+99999103721ADDMD1310341+9999
0017994090999992005010502004+48217-088367FM-12+0209PILM V0203501N008219999999N9999999N1-01561+99999103751ADDMD1110281+9999
0017994090999992005010503004+48217-088367FM-12+0209PILM V0203401N007719999999N9999999N1-01631+99999103761ADDMD1110141+9999
0017994090999992005010504004+48217-088367FM-12+0209PILM V0203501N008219999999N9999999N1-01651+99999103741ADDMD1010001+9999
0177994090999992005010505004+48217-088367FM-12+0209PILM V0203401N008219999999N9999999N1-01671+99999103691ADDMD1810061+9999OA139901241REMSYN140CMAN 05054 PILM4 46/// /3416 11167 40369 58006 90500 333 91224 555 11016 22017 30436 434027 60459 348015 342017 338017 350013 345013 336017;
0017994090999992005010506004+48217-088367FM-12+0209PILM V0203401N009319999999N9999999N1-01701+99999103691ADDMD1710071+9999
0183994090999992005010507004+48217-088367FM-12+0209PILM V0203601N003619999999N9999999N1-01691+99999103701ADDMD1610041+9999OA139900721REMSYN146CMAN  05074 PILM4 46/// /3607 11169 40370 56004 90700 333 91214 555 11007 22007 30607 434024 60659 352009 348012 348011 348012 3420 090019 092014;
0017994090999992005010508004+48217-088367FM-12+0209PILM V0203601N004119999999N9999999N1-01691+99999103721ADDMD1210031+9999
0017994090999992005010509004+48217-088367FM-12+0209PILM V0203501N005719999999N9999999N1-01651+99999103721ADDMD1210031+9999
0017994090999992005010510004+48217-088367FM-12+0209PILM V0203401N005719999999N9999999N1-01671+99999103691ADDMD1010001+9999
0017994090999992005010511004+48217-088367FM-12+0209PILM V0203301N006219999999N9999999N1-01661+99999103731ADDMD1510001+9999
0177994090999992005010512004+48217-088367FM-12+0209PILM V0203301N004619999999N9999999N1-01641+99999103691ADDMD1810031+9999OA139900511REMSYN140CMAN 05124 PILM4 46/// /3309 11164 40369 58003 91200 333 91210 555 11008 22009 31110 432018 61159 334010 330011 333012 329014 329013 328012;
0017994090999992005010513004+48217-088367FM-12+0209PILM V0203401N004619999999N9999999N1-01621+99999103631ADDMD1810061+9999
0017994090999992005010514004+48217-088367FM-12+0209PILM V0203201N006219999999N9999999N1-01571+99999103611ADDMD1610121+9999
0017994090999992005010516004+48217-088367FM-12+0209PILM V0203301N005119999999N9999999N1-01541+99999103581ADDMD1710051+9999
0017994090999992005010517004+48217-088367FM-12+0209PILM V0203201N004619999999N9999999N1-01511+99999103521ADDMD1810091+9999
0017994090999992005010518004+48217-088367FM-12+0209PILM V0203101N006719999999N9999999N1-01491+99999103461ADDMD1810141+9999
0183994090999992005010519004+48217-088367FM-12+0209PILM V0202701N005119999999N9999999N1-01371+99999103321ADDMD1810261+9999OA139900671REMSYN146CMAN  05194 PILM4 46/// /2710 11137 40332 58026 91900 333 91213 555 11010 22011 31810 431016 61859 292010 297011 300012 313012 3223 050024 047022;
0017994090999992005010520004+48217-088367FM-12+0209PILM V0202901N005719999999N9999999N1-01281+99999103181ADDMD1810341+9999
0017994090999992005010521004+48217-088367FM-12+0209PILM V0203001N005119999999N9999999N1-01251+99999103071ADDMD1610391+9999
0017994090999992005010522004+48217-088367FM-12+0209PILM V0203301N005719999999N9999999N1-01231+99999102961ADDMD1610361+9999
0017994090999992005010523004+48217-088367FM-12+0209PILM V0203001N005719999999N9999999N1-01241+99999102911ADDMD1610271+9999
0017994090999992005010600004+48217-088367FM-12+0209PILM V0203101N005719999999N9999999N1-01211+99999102851ADDMD1610221+9999
0017994090999992005010601004+48217-088367FM-12+0209PILM V0202901N005719999999N9999999N1-01161+99999102791ADDMD1810171+9999
0017994090999992005010602004+48217-088367FM-12+0209PILM V0202901N005119999999N9999999N1-01131+99999102681ADDMD1810231+9999
0017994090999992005010603004+48217-088367FM-12+0209PILM V0202701N007719999999N9999999N1-01161+99999102541ADDMD1810311+9999
0017994090999992005010604004+48217-088367FM-12+0209PILM V0202901N006219999999N9999999N1-01141+99999102401ADDMD1810391+9999
0225994090999992005010605004+48217-088367FM-12+0209PILM V0202801N009319999999N9999999N1-01151+99999102281ADDMD1610401+9999OA139901031REMSYN188CMAN  06054 PILM4 46/// /2818 11115 40228 56040 90500 333 91220 555 11018 22019 30454 428022 60459 277017 289013 294013 293014 29014 35022 03010 1750045 359041 007045 013050 006051 017052;
0183994090999992005010606004+48217-088367FM-12+0209PILM V0202901N009819999999N9999999N1-01181+99999102171ADDMD1610371+9999OA139901081REMSYN146CMAN  06064 PILM4 46/// /2919 11118 40217 56037 90600 333 91221 555 11018 22020 30519 428026 60559 287020 288020 285020 284023 2822 123022 126505;
0017994090999992005010607004+48217-088367FM-12+0209PILM V0202901N011319999999N9999999N1-01191+99999102061ADDMD1610341+9999
0017994090999992005010608004+48217-088367FM-12+0209PILM V0202801N008719999999N9999999N1-01251+99999102061ADDMD1610221+9999
0182994090999992005010609004+48217-088367FM-12+0209PILM V0202901N009319999999N9999999N1-01221+99999101931ADDMD1810241+9999OA139901031REMSYN145CMAN  06094 PILM4 46/// /2918 11122 40193 58024 90900 333 91220 555 11017 22018 30813 429023 60859 288016 290016 286017 284019 2822 038022 04044;
0225994090999992005010610004+48217-088367FM-12+0209PILM V0202901N007719999999N9999999N1-01211+99999101841ADDMD1810221+9999OA139900881REMSYN188CMAN  06104 PILM4 46/// /2915 11121 40184 58022 91000 333 91217 555 11014 22015 30903 428020 60959 292014 293014 289014 288015 29006 07019 13013 137013 1340041 353041 356047 346045 343042;
0183994090999992005010611004+48217-088367FM-12+0209PILM V0203001N007719999999N9999999N1-01301+99999101771ADDMD1610291+9999OA139900931REMSYN146CMAN  06114 PILM4 46/// /3015 11130 40177 56029 91100 333 91218 555 11014 22015 31032 429022 61059 295015 293018 298019 294018 2917 062018 059020;
0017994090999992005010612004+48217-088367FM-12+0209PILM V0203001N006219999999N9999999N1-01221+99999101691ADDMD1610241+9999
0017994090999992005010613004+48217-088367FM-12+0209PILM V0202601N008219999999N9999999N1-01241+99999101661ADDMD1610181+9999
0017994090999992005010614004+48217-088367FM-12+0209PILM V0202801N010819999999N9999999N1-01231+99999101561ADDMD1810211+9999
0189994090999992005010615004+48217-088367FM-12+0209PILM V0202801N008719999999N9999999N1-01241+99999101551ADDMD1610141+9999OA139901031REMSYN152CMAN  06154 PILM4 46/// /2817 11124 40155 56014 91500 333 91220 555 11016 22017 31410 428025 61459 280017 283018 281019 279020 28006 0608 239008 242007;
0000994090999992005010616004+48217-088367FM-12+0209PILM V0202801N009319999999N9999999N1-01291+99999101461
0000994090999992005010617004+48217-088367FM-12+0209PILM V0202801N009319999999N9999999N1-01221+99999101381
0017994090999992005010618004+48217-088367FM-12+0209PILM V0202801N008219999999N9999999N1-01171+99999101251ADDMD1810301+9999
0213994090999992005010619004+48217-088367FM-12+0209PILM V0202701N008219999999N9999999N1-01021+99999101131ADDMD1710331+9999OA139900931REMSYN176CMAN  06194 PILM4 46/// /2716 11102 40113 57033 91900 333 91218 555 11016 22017 31802 428022 61859 267016 267016 269015 266015 2615 136015 13011 128009 135030054 134053 130057;
0000994090999992005010620004+48217-088367FM-12+0209PILM V0202601N009819999999N9999999N1-00931+99999101031
0183994090999992005010621004+48217-088367FM-12+0209PILM V0202701N011319999999N9999999N1-00771+99999100961ADDMD1610291+9999OA139901241REMSYN146CMAN  06214 PILM4 46/// /2722 11077 40096 56029 92100 333 91224 555 11021 22022 32034 426026 62059 261021 265020 266021 266020 2639 239039 236040;
0017994090999992005010622004+48217-088367FM-12+0209PILM V0202301N008219999999N9999999N1-00711+99999101021ADDMD1510111+9999
0017994090999992005010623004+48217-088367FM-12+0209PILM V0202301N009319999999N9999999N1-00711+99999101031ADDMD1510001+9999
0000994090999992005010700004+48217-088367FM-12+0209PILM V0202301N011319999999N9999999N1-00661+99999101021
0000994090999992005010701004+48217-088367FM-12+0209PILM V0202301N010819999999N9999999N1-00631+99999101011
0000994090999992005010702004+48217-088367FM-12+0209PILM V0202301N011319999999N9999999N1-00591+99999100981
0183994090999992005010703004+48217-088367FM-12+0209PILM V0202301N011819999999N9999999N1-00541+99999100981ADDMD1710041+9999OA139901291REMSYN146CMAN  07034 PILM4 46/// /2323 11054 40098 57004 90300 333 91225 555 11022 22023 30241 423027 60259 231022 232021 232021 229021 2236 256037 252037;
0017994090999992005010704004+48217-088367FM-12+0209PILM V0202401N011819999999N9999999N1-00481+99999100981ADDMD1610031+9999
0017994090999992005010705004+48217-088367FM-12+0209PILM V0202301N009319999999N9999999N1-00491+99999101011ADDMD1310031+9999
0017994090999992005010706004+48217-088367FM-12+0209PILM V0202301N009819999999N9999999N1-00501+99999101011ADDMD1210031+9999
0017994090999992005010707004+48217-088367FM-12+0209PILM V0202301N008719999999N9999999N1-00471+99999101031ADDMD1110051+9999
0017994090999992005010708004+48217-088367FM-12+0209PILM V0202301N010319999999N9999999N1-00441+99999101061ADDMD1310051+9999
0017994090999992005010709004+48217-088367FM-12+0209PILM V0202301N011319999999N9999999N1-00431+99999101121ADDMD1310111+9999
0195994090999992005010710004+48217-088367FM-12+0209PILM V0202301N008719999999N9999999N1-00421+99999101141ADDMD1110111+9999OA139900981REMSYN158CMAN  07104 PILM4 46/// /2317 11042 40114 51011 91000 333 91219 555 11016 22018 30905 424025 60959 226019 227020 229020 231021 2314 232014 2308 003009 000000;
0017994090999992005010711004+48217-088367FM-12+0209PILM V0202201N009819999999N9999999N1-00411+99999101151ADDMD1110091+9999
0225994090999992005010712004+48217-088367FM-12+0209PILM V0202201N010819999999N9999999N1-00391+99999101161ADDMD1210041+9999OA139901181REMSYN188CMAN  07124 PILM4 46/// /2221 11039 40116 52004 91200 333 91223 555 11020 22021 31112 422026 61159 225022 223022 228021 225021 2213 213013 211149 101039 078028 163036 170029 168054 114089;
0017994090999992005010713004+48217-088367FM-12+0209PILM V0202501N009819999999N9999999N1-00411+99999101191ADDMD1310051+9999
0017994090999992005010714004+48217-088367FM-12+0209PILM V0202501N008719999999N9999999N1-00401+99999101181ADDMD1210031+9999
0017994090999992005010716004+48217-088367FM-12+0209PILM V0202301N008719999999N9999999N1-00481+99999101311ADDMD1310121+9999
0017994090999992005010717004+48217-088367FM-12+0209PILM V0203201N008219999999N9999999N1-00661+99999101321ADDMD1110141+9999
0183994090999992005010718004+48217-088367FM-12+0209PILM V0202901N008219999999N9999999N1-00641+99999101331ADDMD1110091+9999OA139900931REMSYN146CMAN  07184 PILM4 46/// /2916 11064 40133 51009 91800 333 91218 555 11016 22017 31715 431021 61759 291015 291014 302013 312015 3103 188003 168003;
0017994090999992005010719004+48217-088367FM-12+0209PILM V0202601N012319999999N9999999N1-00551+99999101301ADDMD1010001+9999
0183994090999992005010720004+48217-088367FM-12+0209PILM V0202301N009319999999N9999999N1-00591+99999101351ADDMD1310031+9999OA139901081REMSYN146CMAN  07204 PILM4 46/// /2318 11059 40135 53003 92000 333 91221 555 11017 22018 31902 425028 61959 230020 232020 237019 241019 2403 192004 183003;
0176994090999992005010721004+48217-088367FM-12+0209PILM V0202301N009319999999N9999999N1-00601+99999101431ADDMD1310101+9999OA139901031REMSYN139CMAN 07214 PILM4 46/// /2318 11060 40143 53010 92100 333 91220 555 11018 22019 32027 423025 62059 229018 227018 229020227020 226019 229018;
0189994090999992005010722004+48217-088367FM-12+0209PILM V0202301N008219999999N9999999N1-00551+99999101491ADDMD1310191+9999OA139901031REMSYN152CMAN  07224 PILM4 46/// /2316 11055 40149 53019 92200 333 91220 555 11016 22017 32149 423022 62159 227018 226018 227017 228018 2214 113013 11005 156006;
0017994090999992005010723004+48217-088367FM-12+0209PILM V0203101N007219999999N9999999N1-00631+99999101601ADDMD1310251+9999
0017994090999992005010800004+48217-088367FM-12+0209PILM V0202901N007219999999N9999999N1-00631+99999101691ADDMD1310261+9999
0017994090999992005010801004+48217-088367FM-12+0209PILM V0203101N009819999999N9999999N1-00671+99999101761ADDMD1110271+9999
0017994090999992005010802004+48217-088367FM-12+0209PILM V0203201N010319999999N9999999N1-00741+99999101831ADDMD1110231+9999
0017994090999992005010803004+48217-088367FM-12+0209PILM V0203201N008719999999N9999999N1-00801+99999101931ADDMD1310241+9999
0017994090999992005010804004+48217-088367FM-12+0209PILM V0203301N007719999999N9999999N1-00851+99999101981ADDMD1110221+9999
0017994090999992005010805004+48217-088367FM-12+0209PILM V0203601N004619999999N9999999N1-00901+99999102061ADDMD1110231+9999
0177994090999992005010806004+48217-088367FM-12+0209PILM V0203601N005719999999N9999999N1-00941+99999102121ADDMD1310191+9999OA139901031REMSYN140CMAN 08064 PILM4 46/// /3611 11094 40212 53019 90600 333 91220 555 11011 22011 30538 434021 60559 359010 350010 351011 350011 352008 352011;
0017994090999992005010807004+48217-088367FM-12+0209PILM V0200101N006719999999N9999999N1-00971+99999102181ADDMD1110201+9999
0017994090999992005010808004+48217-088367FM-12+0209PILM V0200101N005119999999N9999999N1-00981+99999102261ADDMD1310201+9999
0017994090999992005010809004+48217-088367FM-12+0209PILM V0200101N005119999999N9999999N1-01001+99999102301ADDMD1110181+9999
0017994090999992005010810004+48217-088367FM-12+0209PILM V0203601N004619999999N9999999N1-00981+99999102371ADDMD1110191+9999
0017994090999992005010811004+48217-088367FM-12+0209PILM V0200101N006219999999N9999999N1-01041+99999102431ADDMD1310171+9999
0017994090999992005010812004+48217-088367FM-12+0209PILM V0200201N005719999999N9999999N1-01001+99999102541ADDMD1310241+9999
0017994090999992005010813004+48217-088367FM-12+0209PILM V0200101N005719999999N9999999N1-01041+99999102621ADDMD1310251+9999
0017994090999992005010814004+48217-088367FM-12+0209PILM V0200301N005119999999N9999999N1-01011+99999102691ADDMD1110261+9999
0017994090999992005010815004+48217-088367FM-12+0209PILM V0200401N005119999999N9999999N1-00991+99999102721ADDMD1110181+9999
0017994090999992005010816004+48217-088367FM-12+0209PILM V0200301N004619999999N9999999N1-00931+99999102871ADDMD1310251+9999
0213994090999992005010817004+48217-088367FM-12+0209PILM V0200201N003119999999N9999999N1-00891+99999102891ADDMD1110201+9999OA139900461REMSYN176CMAN  08174 PILM4 46/// /0206 11089 40289 51020 91700 333 91209 555 11006 22006 31644 404017 61659 036009 040011 043010 039009 04011 14014 10009 00 326057 326064 324059 318061;
0017994090999992005010818004+48217-088367FM-12+0209PILM V0200201N003119999999N9999999N1-00861+99999102831ADDMD1010111+9999
0225994090999992005010819004+48217-088367FM-12+0209PILM V0200201N003619999999N9999999N1-00841+99999102821ADDMD1710051+9999OA139900461REMSYN188CMAN  08194 PILM4 46/// /0207 11084 40282 57005 91900 333 91209 555 11007 22007 31848 436013 61859 015008 015008 028007 033008 03011 13012 09009 060008 0540037 303032 302036 309040 307043;
0017994090999992005010820004+48217-088367FM-12+0209PILM V0200201N004119999999N9999999N1-00901+99999102791ADDMD1610101+9999
0183994090999992005010821004+48217-088367FM-12+0209PILM V0200501N003619999999N9999999N1-00881+99999102821ADDMD1510001+9999OA139900511REMSYN146CMAN  08214 PILM4 46/// /0507 11088 40282 55000 92100 333 91210 555 11007 22007 32024 402016 62059 033008 028008 031008 019009 0211 133010 133009;
0017994090999992005010822004+48217-088367FM-12+0209PILM V0200301N004119999999N9999999N1-00861+99999102821ADDMD1510001+9999
0183994090999992005010823004+48217-088367FM-12+0209PILM V0200301N004119999999N9999999N1-00851+99999102811ADDMD1010001+9999OA139900621REMSYN146CMAN  08234 PILM4 46/// /0308 11085 40281 50000 92300 333 91212 555 11008 22009 32216 403013 62259 033008 024009 033009 031008 0311 320009 308009;
0017994090999992005010900004+48120-088220FM-12+0209PILM V0200401N005719999999N9999999N1-00821+99999102761ADDMD1810061+9999
0231994090999992005010901004+48120-088220FM-12+0209PILM V0200601N006719999999N9999999N1-00721+99999102701ADDMD1810121+9999OA139900821REMSYN194CMAN  09014 PILM4 46/// /0613 11072 40270 58012 90100 333 91216 555 11012 22013 30057 405018 60059 059013 053012 051011 045010 0405 351006 342010 60049 195066 204071 202080 198076 195075 206065;
0183994090999992005010902004+48120-088220FM-12+0209PILM V0200601N007219999999N9999999N1-00651+99999102631ADDMD1810181+9999OA139900821REMSYN146CMAN  09024 PILM4 46/// /0614 11065 40263 58018 90200 333 91216 555 11013 22014 30140 407018 60159 065014 065014 061013 063014 0507 298008 301008;
0017994090999992005010903004+48120-088220FM-12+0209PILM V0200601N006219999999N9999999N1-00611+99999102581ADDMD1610181+9999
0183994090999992005010904004+48120-088220FM-12+0209PILM V0200501N005119999999N9999999N1-00561+99999102561ADDMD1610141+9999OA139900621REMSYN146CMAN  09044 PILM4 46/// /0510 11056 40256 56014 90400 333 91212 555 11009 22010 30314 405015 60359 046010 050010 065011 046010 0515 086014 081102;
0183994090999992005010905004+48120-088220FM-12+0209PILM V0200601N007219999999N9999999N1-00501+99999102481ADDMD1810151+9999OA139900821REMSYN146CMAN  09054 PILM4 46/// /0614 11050 40248 58015 90500 333 91216 555 11014 22014 30450 406017 60459 062015 057012 051011 046009 05012 34013 326012;
0183994090999992005010906004+48120-088220FM-12+0209PILM V0200701N007219999999N9999999N1-00461+99999102381ADDMD1810201+9999OA139900821REMSYN146CMAN  09064 PILM4 46/// /0714 11046 40238 58020 90600 333 91216 555 11014 22015 30536 407022 60559 068016 068016 067016 067015 0603 201003 198004;
0017994090999992005010907004+48120-088220FM-12+0209PILM V0201801N005119999999N9999999N1-00271+99999102211ADDMD1810351+9999
0183994090999992005010908004+48120-088220FM-12+0209PILM V0201901N006719999999N9999999N1-00271+99999102181ADDMD1610301+9999OA139900771REMSYN146CMAN  09084 PILM4 46/// /1913 11027 40218 56030 90800 333 91215 555 11012 22013 30758 419015 60759 190011 178011 177011 168011 1604 270003 234006;
0017994090999992005010909004+48120-088220FM-12+0209PILM V0201901N006719999999N9999999N1-00271+99999102201ADDMD1610181+9999
0017994090999992005010910004+48120-088220FM-12+0209PILM V0202501N006719999999N9999999N1-00301+99999102141ADDMD1810071+9999
0183994090999992005010911004+48120-088220FM-12+0209PILM V0202501N005719999999N9999999N1-00311+99999102021ADDMD1810161+9999OA139900721REMSYN146CMAN  09114 PILM4 46/// /2511 11031 40202 58016 91100 333 91214 555 11011 22011 31006 423015 61059 240010 246009 240010 246011 2402 173002 176002;
0017994090999992005010912004+48120-088220FM-12+0209PILM V0202401N006719999999N9999999N1-00351+99999101971ADDMD1610231+9999
0017994090999992005010913004+48120-088220FM-12+0209PILM V0202401N005119999999N9999999N1-00351+99999101891ADDMD1610251+9999
0183994090999992005010914004+48120-088220FM-12+0209PILM V0202501N005719999999N9999999N1-00351+99999101891ADDMD1610131+9999OA139900721REMSYN146CMAN  09144 PILM4 46/// /2511 11035 40189 56013 91400 333 91214 555 11011 22012 31340 425014 61359 249012 246012 239011 248012 2404 162004 164003;
0231994090999992005010915004+48120-088220FM-12+0209PILM V0202201N007219999999N9999999N1-00301+99999101861ADDMD1610111+9999OA139900821REMSYN194CMAN  09154 PILM4 46/// /2214 11030 40186 56011 91500 333 91216 555 11013 22014 3151 420016 61459 200012 200012 217009 236011 23011 206012 201712 61449 166082 165082 147068 160086 155078 150090;
0183994090999992005010917004+48120-088220FM-12+0209PILM V0202201N005719999999N9999999N1-00361+99999101731ADDMD1810161+9999OA139900621REMSYN146CMAN  09174 PILM4 46/// /2211 11036 40173 58016 91700 333 91212 555 11010 22011 31613 425017 61659 225010 219010 234010 243011 2506 083006 088002;
0207994090999992005010918004+48120-088220FM-12+0209PILM V0201901N007719999999N9999999N1-00311+99999101541ADDMD1810321+9999OA139900881REMSYN170CMAN  09184 PILM4 46/// /1915 11031 40154 58032 91800 333 91217 555 11015 22016 31755 419017 61759 189014 215011 229011 238011 23009 08017 07007 072 074015 061016 049018;
0231994090999992005010919004+48120-088220FM-12+0209PILM V0202201N008719999999N9999999N1-00301+99999101461ADDMD1610441+9999OA139900981REMSYN194CMAN  09194 PILM4 46/// /2217 11030 40146 56044 91900 333 91219 555 11016 22017 31820 421020 61859 212015 221015 202012 204016 1913 169013 171911 61849 182072 182080 185076 193073 195069 202072;
0017994090999992005010920004+48120-088220FM-12+0209PILM V0202401N007719999999N9999999N1-00321+99999101381ADDMD1610351+9999
0017994090999992005010921004+48120-088220FM-12+0209PILM V0202501N007219999999N9999999N1-00321+99999101221ADDMD1810321+9999
0225994090999992005010922004+48120-088220FM-12+0209PILM V0202501N008219999999N9999999N1-00321+99999101231ADDMD1610231+9999OA139900881REMSYN188CMAN  09224 PILM4 46/// /2516 11032 40123 56023 92200 333 91217 555 11015 22016 32123 426019 62159 253016 254016 255016 255017 2513 181013 182149 121079 120079 122079 114078 111077 108076;
0183994090999992005010923004+48120-088220FM-12+0209PILM V0202301N007219999999N9999999N1-00441+99999101151ADDMD1610231+9999OA139900771REMSYN146CMAN  09234 PILM4 46/// /2314 11044 40115 56023 92300 333 91215 555 11013 22014 32200 426017 62259 231013 241010 223009 239011 2303 188002 192003;
0183994090999992005011000004+48217-088367FM-12+0209PILM V0202301N007219999999N9999999N1-00441+99999101071ADDMD1810151+9999OA139900821REMSYN146CMAN  10004 PILM4 46/// /2314 11044 40107 58015 90000 333 91216 555 11014 22015 32325 424019 62359 231014 239013 238016 235016 2304 134003 144004;
0017994090999992005011001004+48217-088367FM-12+0209PILM V0202901N010319999999N9999999N1-00431+99999101011ADDMD1610221+9999
0182994090999992005011002004+48217-088367FM-12+0209PILM V0203101N013919999999N9999999N1-00481+99999101081ADDMD1510071+9999OA139901541REMSYN145CMAN  10024 PILM4 46/// /3127 11048 40108 55007 90200 333 91230 555 11026 22028 30131 431033 60159 303028 307028 307029 301027 2906 211005 21004;
0017994090999992005011003004+48217-088367FM-12+0209PILM V0203101N013419999999N9999999N1-00521+99999101131ADDMD1310061+9999
0017994090999992005011004004+48217-088367FM-12+0209PILM V0203101N012919999999N9999999N1-00591+99999101231ADDMD1310221+9999
0017994090999992005011005004+48217-088367FM-12+0209PILM V0203001N015419999999N9999999N1-00651+99999101291ADDMD1310211+9999
0017994090999992005011006004+48217-088367FM-12+0209PILM V0202901N015919999999N9999999N1-00721+99999101411ADDMD1310281+9999
0017994090999992005011007004+48217-088367FM-12+0209PILM V0202901N014919999999N9999999N1-00811+99999101501ADDMD1310271+9999
0017994090999992005011008004+48217-088367FM-12+0209PILM V0203001N015419999999N9999999N1-00931+99999101661ADDMD1310371+9999
0017994090999992005011009004+48217-088367FM-12+0209PILM V0203001N015919999999N9999999N1-00991+99999101701ADDMD1110291+9999
0017994090999992005011010004+48217-088367FM-12+0209PILM V0203001N011819999999N9999999N1-01071+99999101871ADDMD1310371+9999
0183994090999992005011011004+48217-088367FM-12+0209PILM V0203201N011319999999N9999999N1-01151+99999101991ADDMD1310331+9999OA139901341REMSYN146CMAN  10114 PILM4 46/// /3222 11115 40199 53033 91100 333 91226 555 11021 22023 31047 432030 61059 319024 308023 296021 298021 2929 266029 268032;
0017994090999992005011012004+48217-088367FM-12+0209PILM V0203101N012919999999N9999999N1-01221+99999102111ADDMD1110411+9999
0178994090999992005011013004+48217-088367FM-12+0209PILM V0203001N013919999999N9999999N1-01221+99999102151ADDMD1110281+9999OA139901541REMSYN141CMAN  10134 PILM4 46/// /3027 11122 40215 51028 91300 333 91230 555 11026 22028 31220 431033 61259 305025 305024 301025 303025 300 ICE /////;
0017994090999992005011014004+48217-088367FM-12+0209PILM V0203101N013919999999N9999999N1-01211+99999102271ADDMD1210281+9999
0017994090999992005011015004+48217-088367FM-12+0209PILM V0203101N010819999999N9999999N1-01221+99999102381ADDMD1310271+9999
0017994090999992005011016004+48217-088367FM-12+0209PILM V0203101N008219999999N9999999N1-01241+99999102471ADDMD1110321+9999
0017994090999992005011017004+48217-088367FM-12+0209PILM V0203101N008219999999N9999999N1-01231+99999102471ADDMD1110201+9999
0183994090999992005011018004+48217-088367FM-12+0209PILM V0202901N005119999999N9999999N1-01221+99999102471ADDMD1110091+9999OA139900571REMSYN146CMAN  10184 PILM4 46/// /2910 11122 40247 51009 91800 333 91211 555 11010 22011 31700 432022 61759 300012 305014 314014 312013 3122 269025 270025;
0017994090999992005011019004+48217-088367FM-12+0209PILM V0203001N006219999999N9999999N1-01171+99999102461ADDMD1410001+9999
0017994090999992005011020004+48217-088367FM-12+0209PILM V0203101N005119999999N9999999N1-01141+99999102471ADDMD1410001+9999
0017994090999992005011021004+48217-088367FM-12+0209PILM V0202901N007219999999N9999999N1-01091+99999102471ADDMD1410001+9999
0017994090999992005011022004+48217-088367FM-12+0209PILM V0202701N007219999999N9999999N1-01061+99999102511ADDMD1310051+9999
0177994090999992005011023004+48217-088367FM-12+0209PILM V0202801N007219999999N9999999N1-01071+99999102531ADDMD1210061+9999OA139900931REMSYN140CMAN  10234 PILM4 46/// /2814 11107 40253 52006 92300 333 91218 555 11014 22015 32248 428022 62259 279014 278014 275015 277016 28023 254017;
0183994090999992005011100004+48217-088367FM-12+0209PILM V0202701N006719999999N9999999N1-01021+99999102501ADDMD1010031+9999OA139900721REMSYN146CMAN  11004 PILM4 46/// /2713 11102 40250 50003 90000 333 91214 555 11012 22013 32347 428020 62359 274012 286014 287014 285014 2719 269020 265020;
0183994090999992005011101004+48217-088367FM-12+0209PILM V0203101N005719999999N9999999N1-01031+99999102521ADDMD1410001+9999OA139900721REMSYN146CMAN  11014 PILM4 46/// /3111 11103 40252 54000 90100 333 91214 555 11011 22011 30006 429020 60059 296011 288010 279009 294011 2813 273014 279014;
0183994090999992005011102004+48217-088367FM-12+0209PILM V0203101N006719999999N9999999N1-01051+99999102501ADDMD1610031+9999OA139900821REMSYN146CMAN  11024 PILM4 46/// /3113 11105 40250 56003 90200 333 91216 555 11013 22014 30118 429016 60159 305012 294011 296011 298011 2906 242007 244012;
0017994090999992005011103004+48217-088367FM-12+0209PILM V0203201N005119999999N9999999N1-01051+99999102431ADDMD1810071+9999
0183994090999992005011104004+48217-088367FM-12+0209PILM V0203201N002619999999N9999999N1-01081+99999102411ADDMD1710111+9999OA139900361REMSYN146CMAN  11044 PILM4 46/// /3205 11108 40241 57011 90400 333 91207 555 11004 22005 30300 432011 60359 353004 004005 332006 336005 3210 288010 285011;
0017994090999992005011105004+48217-088367FM-12+0209PILM V0209999C000019999999N9999999N1-01061+99999102401ADDMD1610101+9999
0017994090999992005011106004+48217-088367FM-12+0209PILM V0203601N001519999999N9999999N1-01041+99999102361ADDMD1810071+9999
0017994090999992005011107004+48217-088367FM-12+0209PILM V0202801N001519999999N9999999N1-00971+99999102331ADDMD1810081+9999
0017994090999992005011108004+48217-088367FM-12+0209PILM V0209999C000019999999N9999999N1-00941+99999102331ADDMD1610071+9999
0017994090999992005011109004+48217-088367FM-12+0209PILM V0209999C000019999999N9999999N1-00911+99999102271ADDMD1810091+9999
0017994090999992005011110004+48217-088367FM-12+0209PILM V0202101N001019999999N9999999N1-00831+99999102211ADDMD1810121+9999
0017994090999992005011111004+48217-088367FM-12+0209PILM V0202801N002119999999N9999999N1-00771+99999102161ADDMD1610171+9999
0183994090999992005011112004+48217-088367FM-12+0209PILM V0202601N001519999999N9999999N1-00731+99999102101ADDMD1710171+9999OA139900311REMSYN146CMAN  11124 PILM4 46/// /2603 11073 40210 57017 91200 333 91206 555 11003 22003 31147 426006 61159 264003 267004 294003 281004 2603 243004 238005;
0017994090999992005011113004+48217-088367FM-12+0209PILM V0202701N002619999999N9999999N1-00671+99999102091ADDMD1610121+9999
0017994090999992005011114004+48217-088367FM-12+0209PILM V0203101N003619999999N9999999N1-00671+99999102081ADDMD1610081+9999
0017994090999992005011115004+48217-088367FM-12+0209PILM V0203301N004119999999N9999999N1-00741+99999102091ADDMD1410001+9999
0183994090999992005011116004+48217-088367FM-12+0209PILM V0203401N005119999999N9999999N1-00791+99999102151ADDMD1310061+9999OA139900671REMSYN146CMAN  11164 PILM4 46/// /3410 11079 40215 53006 91600 333 91213 555 11009 22010 31555 433013 61559 335010 326010 333009 334009 3314 045015 039015;
0017994090999992005011117004+48217-088367FM-12+0209PILM V0203401N003619999999N9999999N1-00781+99999102101ADDMD1010001+9999
0017994090999992005011118004+48217-088367FM-12+0209PILM V0203401N003119999999N9999999N1-00741+99999102031ADDMD1810061+9999
0225994090999992005011119004+48217-088367FM-12+0209PILM V0203201N002619999999N9999999N1-00691+99999101981ADDMD1710171+9999OA139900411REMSYN188CMAN  11194 PILM4 46/// /3205 11069 40198 57017 91900 333 91208 555 11005 22006 31814 433010 61859 327006 333005 333005 335006 32004 0806 143006 1506068 297074 296076 296081 292087 295088;
0017994090999992005011120004+48217-088367FM-12+0209PILM V0203301N003119999999N9999999N1-00681+99999101971ADDMD1610131+9999
0017994090999992005011121004+48217-088367FM-12+0209PILM V0203301N003119999999N9999999N1-00641+99999101951ADDMD1610081+9999
0017994090999992005011122004+48217-088367FM-12+0209PILM V0202901N001519999999N9999999N1-00621+99999101971ADDMD1410001+9999
0017994090999992005011123004+48217-088367FM-12+0209PILM V0202401N002119999999N9999999N1-00561+99999101941ADDMD1810031+9999
0017994090999992005011200004+48217-088367FM-12+0209PILM V0202201N001019999999N9999999N1-00521+99999101891ADDMD1810061+9999
0017994090999992005011201004+48217-088367FM-12+0209PILM V0201101N001519999999N9999999N1-00461+99999101851ADDMD1810121+9999
0017994090999992005011202004+48217-088367FM-12+0209PILM V0201601N001019999999N9999999N1-00421+99999101831ADDMD1610111+9999
0017994090999992005011203004+48217-088367FM-12+0209PILM V0201701N006219999999N9999999N1-00291+99999101801ADDMD1610091+9999
0017994090999992005011204004+48217-088367FM-12+0209PILM V0201701N005719999999N9999999N1-00281+99999101731ADDMD1810121+9999
0017994090999992005011205004+48217-088367FM-12+0209PILM V0201901N002619999999N9999999N1-00271+99999101681ADDMD1810151+9999
0017994090999992005011206004+48217-088367FM-12+0209PILM V0201501N002119999999N9999999N1-00251+99999101621ADDMD1610181+9999
0017994090999992005011207004+48217-088367FM-12+0209PILM V0201501N003119999999N9999999N1-00201+99999101601ADDMD1610131+9999
0017994090999992005011208004+48217-088367FM-12+0209PILM V0201301N003619999999N9999999N1-00161+99999101521ADDMD1810161+9999
0017994090999992005011209004+48217-088367FM-12+0209PILM V0201101N004619999999N9999999N1-00111+99999101411ADDMD1810211+9999
0017994090999992005011210004+48217-088367FM-12+0209PILM V0201301N006219999999N9999999N1-00021+99999101321ADDMD1810281+9999
0017994090999992005011211004+48217-088367FM-12+0209PILM V0201101N007719999999N9999999N1+00041+99999101221ADDMD1610301+9999
0017994090999992005011212004+48217-088367FM-12+0209PILM V0201001N008719999999N9999999N1+00061+99999101091ADDMD1810321+9999
0017994090999992005011213004+48217-088367FM-12+0209PILM V0200901N010819999999N9999999N1+00061+99999100941ADDMD1810381+9999
0225994090999992005011214004+48217-088367FM-12+0209PILM V0201101N012319999999N9999999N1+00091+99999100841ADDMD1610381+9999OA139901391REMSYN188CMAN  12144 PILM4 46/// /1124 10009 40084 56038 91400 333 91227 555 11023 22025 31344 411027 61359 107023 108024 103023 102021 10013 2407 42008 14122040 326038 318046 321048 323060 322059;
0017994090999992005011215004+48217-088367FM-12+0209PILM V0201101N013919999999N9999999N1+00081+99999100731ADDMD1610361+9999
0017994090999992005011216004+48217-088367FM-12+0209PILM V0201001N014919999999N9999999N1+00031+99999100631ADDMD1710311+9999
0017994090999992005011217004+48217-088367FM-12+0209PILM V0201001N014919999999N9999999N1+00001+99999100461ADDMD1810381+9999
0017994090999992005011218004+48217-088367FM-12+0209PILM V0201101N014919999999N9999999N1+00001+99999100241ADDMD1810491+9999
0183994090999992005011219004+48217-088367FM-12+0209PILM V0201101N016419999999N9999999N1-00011+99999099981ADDMD1810651+9999OA139901801REMSYN146CMAN  12194 PILM4 46/// /1132 11001 49998 58065 91900 333 91235 555 11031 22033 31826 411038 61859 112032 115031 113031 111031 1009 155010 155010;
0017994090999992005011220004+48217-088367FM-12+0209PILM V0201301N014419999999N9999999N1-00011+99999099831ADDMD1610631+9999
0017994090999992005011221004+48217-088367FM-12+0209PILM V0201501N011819999999N9999999N1+00001+99999099741ADDMD1610501+9999
0017994090999992005011222004+48217-088367FM-12+0209PILM V0201401N009819999999N9999999N1+00001+99999099681ADDMD1610301+9999
0225994090999992005011223004+48217-088367FM-12+0209PILM V0201701N008219999999N9999999N1+00031+99999099691ADDMD1610141+9999OA139900881REMSYN188CMAN  12234 PILM4 46/// /1716 10003 49969 56014 92300 333 91217 555 11015 22016 32202 415022 62259 167016 165017 163018 161018 1516 173016 172249 068053 071054 070049 074048 074050 074055;
0177994090999992005011300004+48217-088367FM-12+0209PILM V0201901N007719999999N9999999N1+00051+99999099511ADDMD1810231+9999OA139900821REMSYN140CMAN 13004 PILM4 46/// /1915 10005 49951 58023 90000 333 91216 555 11014 22015 32306 418018 62359 185015 185014 183015 181015 182016 175016;
0183994090999992005011301004+48217-088367FM-12+0209PILM V0202101N009319999999N9999999N1+00121+99999099501ADDMD1710181+9999OA139901081REMSYN146CMAN  13014 PILM4 46/// /2118 10012 49950 57018 90100 333 91221 555 11018 22019 30051 421021 60059 209018 207017 206018 202017 1909 184011 173011;
0017994090999992005011302004+48217-088367FM-12+0209PILM V0202401N008219999999N9999999N1+00101+99999099451ADDMD1610241+9999
0017994090999992005011303004+48217-088367FM-12+0209PILM V0202501N012919999999N9999999N1+00101+99999099431ADDMD1710081+9999
0017994090999992005011304004+48217-088367FM-12+0209PILM V0202601N014419999999N9999999N1+00111+99999099491ADDMD1510001+9999
0017994090999992005011305004+48217-088367FM-12+0209PILM V0202801N015419999999N9999999N1+00081+99999099491ADDMD1210041+9999
0182994090999992005011306004+48217-088367FM-12+0209PILM V0202801N014919999999N9999999N1-00021+99999099651ADDMD1310221+9999OA139901541REMSYN145CMAN  13064 PILM4 46/// /2829 11002 49965 53022 90600 333 91230 555 11028 22029 30501 427034 60559 278028 279027 274028 276029 2723 179022 18005;
0017994090999992005011307004+48217-088367FM-12+0209PILM V0202901N018519999999N9999999N1-00151+99999099731ADDMD1310241+9999
0225994090999992005011308004+48217-088367FM-12+0209PILM V0202901N015919999999N9999999N1-00201+99999099931ADDMD1310441+9999OA139901751REMSYN188CMAN  13084 PILM4 46/// /2931 11020 49993 53044 90800 333 91234 555 11029 22031 30701 429041 60759 289033 284034 283033 287034 2823 127022 12017 130017 1290033 039029 034023 014031 035024;
0183994090999992005011309004+48217-088367FM-12+0209PILM V0202801N017019999999N9999999N1-00261+99999099931ADDMD1110281+9999OA139901901REMSYN146CMAN  13094 PILM4 46/// /2833 11026 49993 51028 90900 333 91237 555 11032 22034 30858 429037 60859 287030 287030 286030 292030 2809 224009 205007;
0017994090999992005011310004+48217-088367FM-12+0209PILM V0202901N015419999999N9999999N1-00301+99999100011ADDMD1110281+9999
0183994090999992005011311004+48217-088367FM-12+0209PILM V0202801N014419999999N9999999N1-00361+99999100121ADDMD1310191+9999OA139901651REMSYN146CMAN  13114 PILM4 46/// /2828 11036 40012 53019 91100 333 91232 555 11026 22028 31024 428037 61059 282028 283028 277031 280032 2813 172014 166014;
0017994090999992005011312004+48217-088367FM-12+0209PILM V0202801N016419999999N9999999N1-00471+99999100201ADDMD1210271+9999
0017994090999992005011313004+48217-088367FM-12+0209PILM V0202801N014919999999N9999999N1-00531+99999100201ADDMD1110191+9999
0017994090999992005011314004+48217-088367FM-12+0209PILM V0202901N014919999999N9999999N1-00681+99999100421ADDMD1310301+9999
0017994090999992005011316004+48217-088367FM-12+0209PILM V0202801N018519999999N9999999N1-01111+99999100751ADDMD1110551+9999
0017994090999992005011317004+48217-088367FM-12+0209PILM V0202901N019019999999N9999999N1-01291+99999100821ADDMD1110401+9999
0225994090999992005011318004+48217-088367FM-12+0209PILM V0202801N018519999999N9999999N1-01431+99999100821ADDMD1110271+9999OA139902061REMSYN188CMAN  13184 PILM4 46/// /2836 11143 40082 51027 91800 333 91240 555 11034 22036 31737 428046 61759 288035 288036 283036 283035 281709 43607 61749 356027 341028 342031 357034 359029 010033;
0270994090999992005011319004+48217-088367FM-12+0209PILM V0202901N017519999999N9999999N1-01521+99999100861ADDMD1110111+9999OA139901961REMSYN233CMAN  13194 PILM4 46/// /2934 11152 40086 51011 91900 333 91238 555 11033 22035 31808 428048 61859 286035 282037 284037 280037 28006 0718 347017 34003 59010 62750 73208 73604 80007 80007 80007 87275 EEE EEE EEE IAWUTV IUAUTV RLYWKWQ;
0017994090999992005011320004+48217-088367FM-12+0209PILM V0203001N018019999999N9999999N1-01631+99999100981ADDMD1310161+9999
0017994090999992005011321004+48217-088367FM-12+0209PILM V0203001N017019999999N9999999N1-01701+99999101171ADDMD1310351+9999
0017994090999992005011322004+48217-088367FM-12+0209PILM V0203001N018519999999N9999999N1-01781+99999101311ADDMD1310451+9999
0017994090999992005011323004+48217-088367FM-12+0209PILM V0203001N018519999999N9999999N1-01891+99999101481ADDMD1110501+9999
0219994090999992005011400004+48217-088367FM-12+0209PILM V0203001N019519999999N9999999N1-01981+99999101601ADDMD1110431+9999OA139902211REMSYN182CMAN  14004 PILM4 46/// /3038 11198 40160 51043 90000 333 91243 555 11037 22039 32325 429048 62359 294035 301033 302036 295038 30003 0508 066008 05162007 121006 109013 121015 127015;
0017994090999992005011401004+48217-088367FM-12+0209PILM V0203101N020619999999N9999999N1-01971+99999101751ADDMD1110441+9999
0017994090999992005011402004+48217-088367FM-12+0209PILM V0203001N021619999999N9999999N1-02031+99999101831ADDMD1110351+9999
0017994090999992005011403004+48217-088367FM-12+0209PILM V0202901N019519999999N9999999N1-02051+99999101961ADDMD1110361+9999
0225994090999992005011404004+48217-088367FM-12+0209PILM V0203101N016419999999N9999999N1-02051+99999102041ADDMD1210291+9999OA139902111REMSYN188CMAN  14044 PILM4 46/// /3132 11205 40204 52029 90400 333 91241 555 11031 22033 30336 429047 60359 301033 305036 300035 298034 2912 295012 29020 0053025 154025 156023 153020 155015 148018;
0017994090999992005011405004+48217-088367FM-12+0209PILM V0203001N017019999999N9999999N1-02021+99999102141ADDMD1110311+9999
0017994090999992005011406004+48217-088367FM-12+0209PILM V0203001N015919999999N9999999N1-02001+99999102191ADDMD1110231+9999
0017994090999992005011407004+48217-088367FM-12+0209PILM V0203001N017019999999N9999999N1-02091+99999102301ADDMD1310261+9999
0017994090999992005011408004+48217-088367FM-12+0209PILM V0202901N017519999999N9999999N1-02091+99999102381ADDMD1310241+9999
0017994090999992005011409004+48217-088367FM-12+0209PILM V0203001N017019999999N9999999N1-02091+99999102491ADDMD1210301+9999
0017994090999992005011410004+48217-088367FM-12+0209PILM V0203001N017519999999N9999999N1-02021+99999102521ADDMD1110221+9999
0017994090999992005011411004+48217-088367FM-12+0209PILM V0203001N015919999999N9999999N1-02051+99999102661ADDMD1310281+9999
0183994090999992005011412004+48217-088367FM-12+0209PILM V0203001N014919999999N9999999N1-02021+99999102751ADDMD1310261+9999OA139901751REMSYN146CMAN  14124 PILM4 46/// /3029 11202 40275 53026 91200 333 91234 555 11028 22029 31107 429040 61159 297030 302032 304033 296031 2918 297018 293018;
0017994090999992005011413004+48217-088367FM-12+0209PILM V0203001N016419999999N9999999N1-02091+99999102861ADDMD1110341+9999
0017994090999992005011414004+48217-088367FM-12+0209PILM V0203201N012919999999N9999999N1-02131+99999102991ADDMD1310331+9999
0017994090999992005011415004+48217-088367FM-12+0209PILM V0203101N013919999999N9999999N1-02141+99999103111ADDMD1310361+9999
0017994090999992005011416004+48217-088367FM-12+0209PILM V0203101N011819999999N9999999N1-02101+99999103211ADDMD1110351+9999
0219994090999992005011417004+48217-088367FM-12+0209PILM V0202901N012919999999N9999999N1-02051+99999103231ADDMD1110241+9999OA139901541REMSYN182CMAN  14174 PILM4 46/// /2925 11205 40323 51024 91700 333 91230 555 11024 22025 31608 429033 61659 290025 293024 298025 302025 30013 0815 015015 00109013 094010 094010 107011 112012;
0017994090999992005011418004+48217-088367FM-12+0209PILM V0202901N012319999999N9999999N1-01961+99999103221ADDMD1110111+9999
0017994090999992005011419004+48217-088367FM-12+0209PILM V0202801N012919999999N9999999N1-01861+99999103201ADDMD1410001+9999
0017994090999992005011420004+48217-088367FM-12+0209PILM V0202801N013419999999N9999999N1-01751+99999103141ADDMD1810091+9999
0017994090999992005011421004+48217-088367FM-12+0209PILM V0202801N017519999999N9999999N1-01631+99999103071ADDMD1810151+9999
0017994090999992005011422004+48217-088367FM-12+0209PILM V0202801N016419999999N9999999N1-01601+99999103041ADDMD1610161+9999
0017994090999992005011423004+48217-088367FM-12+0209PILM V0202601N018519999999N9999999N1-01571+99999103021ADDMD1610121+9999
0017994090999992005011500004+48217-088367FM-12+0209PILM V0202801N021119999999N9999999N1-01581+99999102981ADDMD1810091+9999
0017994090999992005011501004+48217-088367FM-12+0209PILM V0202801N018019999999N9999999N1-01571+99999103021ADDMD1510001+9999
0017994090999992005011502004+48217-088367FM-12+0209PILM V0202901N019019999999N9999999N1-01591+99999103001ADDMD1510001+9999
0017994090999992005011503004+48217-088367FM-12+0209PILM V0202801N015919999999N9999999N1-01671+99999103051ADDMD1310071+9999
0183994090999992005011504004+48217-088367FM-12+0209PILM V0202701N014919999999N9999999N1-01671+99999103061ADDMD1210041+9999OA139901651REMSYN146CMAN  15044 PILM4 46/// /2729 11167 40306 52004 90400 333 91232 555 11027 22029 30306 429037 60359 278028 278028 276029 281029 27014 08006 084005;
0017994090999992005011505004+48217-088367FM-12+0209PILM V0202701N014919999999N9999999N1-01641+99999103061ADDMD1110061+9999
0177994090999992005011506004+48217-088367FM-12+0209PILM V0202901N014419999999N9999999N1-01631+99999103051ADDMD1410001+9999OA139901751REMSYN140CMAN 15064 PILM4 46/// /2928 11163 40305 54000 90600 333 91234 555 11027 22029 30539 428036 60559 282028 280028 284028 284028 277028 276027;
0183994090999992005011507004+48217-088367FM-12+0209PILM V0202801N016419999999N9999999N1-01691+99999103031ADDMD1710031+9999OA139902011REMSYN146CMAN  15074 PILM4 46/// /2832 11169 40303 57003 90700 333 91239 555 11031 22033 30650 428043 60659 279033 279032 284031 277030 2814 059013 068013;
0017994090999992005011508004+48217-088367FM-12+0209PILM V0202801N017019999999N9999999N1-01821+99999103101ADDMD1310041+9999
0183994090999992005011509004+48217-088367FM-12+0209PILM V0202801N015919999999N9999999N1-01931+99999103171ADDMD1310121+9999OA139902011REMSYN146CMAN  15094 PILM4 46/// /2831 11193 40317 53012 90900 333 91239 555 11029 22031 30849 429042 60859 284032 290032 289031 286031 2914 286014 287013;
0183994090999992005011510004+48217-088367FM-12+0209PILM V0203101N013919999999N9999999N1-02111+99999103251ADDMD1310221+9999OA139901651REMSYN146CMAN  15104 PILM4 46/// /3127 11211 40325 53022 91000 333 91232 555 11026 22027 30901 428040 60959 300029 296030 290030 288032 2916 278014 277015;
0017994090999992005011511004+48217-088367FM-12+0209PILM V0203001N014419999999N9999999N1-02121+99999103301ADDMD1110201+9999
0017994090999992005011512004+48217-088367FM-12+0209PILM V0202901N014919999999N9999999N1-02261+99999103391ADDMD1310221+9999
0017994090999992005011513004+48217-088367FM-12+0209PILM V0203001N013419999999N9999999N1-02261+99999103431ADDMD1110181+9999
0017994090999992005011514004+48217-088367FM-12+0209PILM V0203001N013419999999N9999999N1-02311+99999103511ADDMD1110211+9999
0017994090999992005011515004+48217-088367FM-12+0209PILM V0202901N014419999999N9999999N1-02311+99999103581ADDMD1310191+9999
0017994090999992005011516004+48217-088367FM-12+0209PILM V0203001N013419999999N9999999N1-02391+99999103691ADDMD1310261+9999
0183994090999992005011517004+48217-088367FM-12+0209PILM V0203101N013419999999N9999999N1-02341+99999103771ADDMD1310261+9999OA139901541REMSYN146CMAN  15174 PILM4 46/// /3126 11234 40377 53026 91700 333 91230 555 11025 22026 31618 430036 61659 298025 290027 298028 301028 2916 261015 258016;
0017994090999992005011518004+48217-088367FM-12+0209PILM V0203001N010819999999N9999999N1-02381+99999103771ADDMD1110191+9999
0017994090999992005011519004+48217-088367FM-12+0209PILM V0203001N012319999999N9999999N1-02351+99999103761ADDMD1110071+9999
0287994090999992005011520004+48217-088367FM-12+0209PILM V0202901N010819999999N9999999N1-02291+99999103741ADDMD1710031+9999OA139901441REMSYN250CMAN  15204 PILM4 46/// /2921 11229 40374 57003 92000 333 91228 555 11020 22022 31952 430032 61959 291024 293022 297023 304022 30016 0711 359010 000012 00300 11011 21021 40176 56006 92000 333 91237 555 11029 22031 31955 405037 61959 047032 046029 044
0017994090999992005011521004+48217-088367FM-12+0209PILM V0203101N011819999999N9999999N1-02241+99999103791ADDMD1510001+9999
0017994090999992005011522004+48217-088367FM-12+0209PILM V0203001N012919999999N9999999N1-02191+99999103811ADDMD1210051+9999
0017994090999992005011523004+48217-088367FM-12+0209PILM V0203001N010319999999N9999999N1-02111+99999103871ADDMD1310131+9999
0017994090999992005011600004+48217-088367FM-12+0209PILM V0203001N012919999999N9999999N1-02131+99999103941ADDMD1310151+9999
0017994090999992005011601004+48217-088367FM-12+0209PILM V0202901N016419999999N9999999N1-02101+99999103941ADDMD1110131+9999
0219994090999992005011602004+48217-088367FM-12+0209PILM V0203001N017019999999N9999999N1-02091+99999103971ADDMD1110101+9999OA139901901REMSYN182CMAN  16024 PILM4 46/// /3033 11209 40397 51010 90200 333 91237 555 11032 22034 30144 431039 60159 301033 304033 303031 294028 29011 089 013010 01 269043 274034 275035 276040 274035;
0017994090999992005011603004+48217-088367FM-12+0209PILM V0202901N015419999999N9999999N1-02121+99999103981ADDMD1210041+9999
0225994090999992005011604004+48217-088367FM-12+0209PILM V0203001N012919999999N9999999N1-02191+99999104021ADDMD1310081+9999OA139901601REMSYN188CMAN  16044 PILM4 46/// /3025 11219 40402 53008 90400 333 91231 555 11024 22026 30326 430037 60359 299026 297027 299028 293029 290327 40205 60349 017040 016043 016043 019041 020042 016040;
0017994090999992005011605004+48217-088367FM-12+0209PILM V0202901N012319999999N9999999N1-02201+99999104051ADDMD1310081+9999
0017994090999992005011606004+48217-088367FM-12+0209PILM V0203101N011819999999N9999999N1-02211+99999104051ADDMD1110071+9999
0017994090999992005011607004+48217-088367FM-12+0209PILM V0203101N012319999999N9999999N1-02181+99999104021ADDMD1010001+9999
0183994090999992005011608004+48217-088367FM-12+0209PILM V0203201N008719999999N9999999N1-02231+99999104071ADDMD1510001+9999OA139901031REMSYN146CMAN  16084 PILM4 46/// /3217 11223 40407 55000 90800 333 91220 555 11016 22017 30737 432028 60759 314018 313019 322020 305020 3105 138005 147004;
0183994090999992005011609004+48217-088367FM-12+0209PILM V0203201N006219999999N9999999N1-02251+99999104081ADDMD1310031+9999OA139900881REMSYN146CMAN  16094 PILM4 46/// /3212 11225 40408 53003 90900 333 91217 555 11012 22012 30831 432028 60859 324016 320017 320017 323018 3207 091007 097007;
0183994090999992005011610004+48217-088367FM-12+0209PILM V0203301N007719999999N9999999N1-02251+99999104061ADDMD1110041+9999OA139900981REMSYN146CMAN  16104 PILM4 46/// /3315 11225 40406 51004 91000 333 91219 555 11015 22016 30953 433025 60959 332015 330016 332013 325016 3308 090009 091009;
0183994090999992005011611004+48217-088367FM-12+0209PILM V0203201N007719999999N9999999N1-02251+99999104051ADDMD1410001+9999OA139901031REMSYN146CMAN  16114 PILM4 46/// /3215 11225 40405 54000 91100 333 91220 555 11014 22015 31054 432024 61059 321015 326017 329016 326015 3208 098009 100008;
0017994090999992005011612004+48217-088367FM-12+0209PILM V0203301N007719999999N9999999N1-02231+99999104061ADDMD1410001+9999
0177994090999992005011613004+48217-088367FM-12+0209PILM V0203401N006219999999N9999999N1-02281+99999104051ADDMD1410001+9999OA139900821REMSYN140CMAN 16134 PILM4 46/// /3412 11228 40405 54000 91300 333 91216 555 11012 22012 31251 433020 61259 330013 332014 327012 325013 326012 325012;
0204994090999992005011614004+48217-088367FM-12+0209PILM V0203201N006719999999N9999999N1-02251+99999104011ADDMD1810041+9999OA139900821REMSYN167CMAN  16144 PILM4 46/// /3213 11225 40401 58004 91400 333 91216 555 11012 22013 31303 432020 61359 329011 317013 330012 326012 33010 070 316018 321018 326018 TIDE1015;
0177994090999992005011615004+48217-088367FM-12+0209PILM V0203301N008219999999N9999999N1-02221+99999104021ADDMD1710041+9999OA139900931REMSYN140CMAN  16154 PILM4 46/// /3316 11222 40402 57004 91500 333 91218 555 11015 22016 31423 433021 61459 320015 326013 323014 328015 31022 006022;
0017994090999992005011616004+48217-088367FM-12+0209PILM V0203201N008719999999N9999999N1-02231+99999104061ADDMD1510001+9999
0183994090999992005011617004+48217-088367FM-12+0209PILM V0203101N007719999999N9999999N1-02301+99999104071ADDMD1210061+9999OA139900981REMSYN146CMAN  16174 PILM4 46/// /3115 11230 40407 52006 91700 333 91219 555 11014 22015 31620 433023 61659 320015 329015 323016 329016 3207 081008 082008;
0017994090999992005011618004+48217-088367FM-12+0209PILM V0203201N007719999999N9999999N1-02271+99999103981ADDMD1810041+9999
0017994090999992005011619004+48217-088367FM-12+0209PILM V0203301N005719999999N9999999N1-02301+99999103921ADDMD1810141+9999
0017994090999992005011620004+48217-088367FM-12+0209PILM V0203201N005719999999N9999999N1-02191+99999103881ADDMD1610191+9999
0183994090999992005011621004+48217-088367FM-12+0209PILM V0203301N006219999999N9999999N1-02201+99999103881ADDMD1610101+9999OA139900821REMSYN146CMAN  16214 PILM4 46/// /3312 11220 40388 56010 92100 333 91216 555 11011 22012 32035 433021 62059 331012 314012 324013 326010 3214 043015 044014;
0213994090999992005011622004+48217-088367FM-12+0209PILM V0203101N007719999999N9999999N1-02181+99999103901ADDMD1510001+9999OA139900931REMSYN176CMAN  16224 PILM4 46/// /3115 11218 40390 55000 92200 333 91218 555 11014 22015 32145 430020 62159 315014 298014 302013 313013 3314 321013 32004040 336023 352033 312029 334034;
0017994090999992005011623004+48217-088367FM-12+0209PILM V0203201N008219999999N9999999N1-02191+99999103961ADDMD1310081+9999
0177994090999992005011700004+48120-088220FM-12+0209PILM V0203301N006719999999N9999999N1-02211+99999104011ADDMD1310131+9999OA139901081REMSYN140CMAN 17004 PILM4 46/// /3313 11221 40401 53013 90000 333 91221 555 11012 22013 32346 432030 62359 331015 321018 317017 321017 319017 317019;
0189994090999992005011701004+48120-088220FM-12+0209PILM V0203201N009319999999N9999999N1-02241+99999104011ADDMD1110111+9999OA139901181REMSYN152CMAN  17014 PILM4 46/// /3218 11224 40401 51011 90100 333 91223 555 11018 22019 30008 432025 60059 317018 319017 323016 323017 318 353018 354024 351024;
0017994090999992005011702004+48120-088220FM-12+0209PILM V0203301N010319999999N9999999N1-02241+99999104031ADDMD1110071+9999
0017994090999992005011703004+48120-088220FM-12+0209PILM V0203301N006719999999N9999999N1-02291+99999104071ADDMD1310061+9999
0017994090999992005011704004+48120-088220FM-12+0209PILM V0203301N008219999999N9999999N1-02311+99999104071ADDMD1210061+9999
0183994090999992005011705004+48120-088220FM-12+0209PILM V0203301N008219999999N9999999N1-02351+99999104111ADDMD1210081+9999OA139901181REMSYN146CMAN  17054 PILM4 46/// /3316 11235 40411 52008 90500 333 91223 555 11015 22016 30452 432027 60459 332017 341014 346012 345013 3316 342017 340016;
0183994090999992005011705004+48217-088367FM-12+0209PILM V0203301N008219999999N9999999N1-02351+99999104111ADDMD1210081+9999OA139901181REMSYN146CMAN  17054 PILM4 46/// /3316 11235 40411 52008 90500 333 91223 555 11015 22016 30452 432027 60459 332017 341014 346012 345013 3316 342017 340016;
0017994090999992005011706004+48120-088220FM-12+0209PILM V0203301N007219999999N9999999N1-02391+99999104161ADDMD1310091+9999
0017994090999992005011707004+48120-088220FM-12+0209PILM V0203501N006719999999N9999999N1-02351+99999104161ADDMD1110091+9999
0017994090999992005011708004+48120-088220FM-12+0209PILM V0200101N008219999999N9999999N1-02441+99999104221ADDMD1310111+9999
0225994090999992005011709004+48120-088220FM-12+0209PILM V0203501N004619999999N9999999N1-02451+99999104251ADDMD1310091+9999OA139900821REMSYN188CMAN  17094 PILM4 46/// /3509 11245 40425 53009 90900 333 91216 555 11009 22009 30847 434025 60859 000012 359012 003013 007014 0015 292015 290849 002055 003050 008041 015036 013043 009055;
0017994090999992005011710004+48120-088220FM-12+0209PILM V0203501N007719999999N9999999N1-02441+99999104261ADDMD1110101+9999
0183994090999992005011711004+48120-088220FM-12+0209PILM V0203601N006719999999N9999999N1-02501+99999104331ADDMD1310111+9999OA139901031REMSYN146CMAN  17114 PILM4 46/// /3613 11250 40433 53011 91100 333 91220 555 11012 22013 31026 434023 61059 357012 351010 354014 352013 3517 284017 289019;
0017994090999992005011712004+48120-088220FM-12+0209PILM V0200101N006219999999N9999999N1-02511+99999104401ADDMD1310151+9999
0017994090999992005011713004+48120-088220FM-12+0209PILM V0200201N007219999999N9999999N1-02531+99999104451ADDMD1110191+9999
0017994090999992005011714004+48120-088220FM-12+0209PILM V0203601N007719999999N9999999N1-02481+99999104501ADDMD1110171+9999
0234994090999992005011715004+48120-088220FM-12+0209PILM V0203601N006219999999N9999999N1-02461+99999104541ADDMD1110141+9999OA139900881REMSYN197CMAN  17154 PILM4 46/// /3612 11246 40454 51014 91500 333 91217 555 11011 22012 31453 434023 61459 353012 000013 351013 348010 35020 010020 0130                  T     1024 30240 40293 56003 885//;
0017994090999992005011716004+48120-088220FM-12+0209PILM V0203501N007219999999N9999999N1-02371+99999104541ADDMD1110091+9999
0017994090999992005011717004+48120-088220FM-12+0209PILM V0203501N004619999999N9999999N1-02311+99999104571ADDMD1110071+9999
0017994090999992005011718004+48120-088220FM-12+0209PILM V0203501N006219999999N9999999N1-02311+99999104541ADDMD1010001+9999
0017994090999992005011719004+48120-088220FM-12+0209PILM V0203501N005719999999N9999999N1-02231+99999104531ADDMD1010001+9999
0155994090999992005011720004+48120-088220FM-12+0209PILM V0203201N007719999999N9999999N1-02141+99999104531REMSYN146CMAN  17204 PILM4 46/// /3215 11214 40453 5600 92000 333 91220 555 11015 22016 31950 434021 61959 325014 337012 338013 337012 33022 270021 270023;
0017994090999992005011721004+48120-088220FM-12+0209PILM V0203201N006719999999N9999999N1-02111+99999104511ADDMD1710031+9999
0017994090999992005011722004+48120-088220FM-12+0209PILM V0203201N005119999999N9999999N1-02101+99999104511ADDMD1410001+9999
0183994090999992005011723004+48120-088220FM-12+0209PILM V0203401N004119999999N9999999N1-02021+99999104491ADDMD1710041+9999OA139900511REMSYN146CMAN  17234 PILM4 46/// /3408 11202 40449 57004 92300 333 91210 555 11008 22009 32233 432016 62259 331009 327010 325011 335009 3228 288027 287027;
0177994090999992005011800004+48217-088367FM-12+0209PILM V0203001N006719999999N9999999N1-01901+99999104451ADDMD1810061+9999OA139900771REMSYN140CMAN 18004 PILM4 46/// /3013 11190 40445 58006 90000 333 91215 555 11013 22014 32327 433017 62359 304011 319009 318009 322011 318011 334010;
0017994090999992005011801004+48217-088367FM-12+0209PILM V0203101N002619999999N9999999N1-01891+99999104441ADDMD1710071+9999
0017994090999992005011802004+48217-088367FM-12+0209PILM V0203001N005119999999N9999999N1-01921+99999104421ADDMD1610071+9999
0017994090999992005011803004+48217-088367FM-12+0209PILM V0203301N005119999999N9999999N1-01901+99999104341ADDMD1810111+9999
0017994090999992005011804004+48217-088367FM-12+0209PILM V0202601N005719999999N9999999N1-01761+99999104221ADDMD1810221+9999
0183994090999992005011805004+48217-088367FM-12+0209PILM V0202101N005119999999N9999999N1-01701+99999104161ADDMD1610261+9999OA139900671REMSYN146CMAN  18054 PILM4 46/// /2110 11170 40416 56026 90500 333 91213 555 11010 22011 30423 427017 60459 238010 267011 265010 265012 2723 315026 316023;
0017994090999992005011806004+48217-088367FM-12+0209PILM V0202301N005719999999N9999999N1-01691+99999104041ADDMD1710301+9999
0017994090999992005011807004+48217-088367FM-12+0209PILM V0202101N003619999999N9999999N1-01551+99999103921ADDMD1810301+9999
0017994090999992005011808004+48217-088367FM-12+0209PILM V0202401N004119999999N9999999N1-01431+99999103831ADDMD1610331+9999
0017994090999992005011809004+48217-088367FM-12+0209PILM V0202201N006219999999N9999999N1-01261+99999103701ADDMD1810341+9999
0183994090999992005011810004+48217-088367FM-12+0209PILM V0202201N009819999999N9999999N1-01231+99999103501ADDMD1810421+9999OA139901131REMSYN146CMAN  18104 PILM4 46/// /2219 11123 40350 58042 91000 333 91222 555 11018 22020 30917 423023 60959 223018 231017 229018 224018 2218 330019 320020;
0183994090999992005011811004+48217-088367FM-12+0209PILM V0202101N013419999999N9999999N1-01091+99999103301ADDMD1810531+9999OA139901541REMSYN146CMAN  18114 PILM4 46/// /2126 11109 40330 58053 91100 333 91230 555 11025 22026 31041 421035 61059 208028 208028 219024 232022 2322 322019 320020;
0172994090999992005011812004+48217-088367FM-12+0209PILM V0202101N014919999999N9999999N1-01011+99999103161ADDMD1610541+9999OA139901701REMSYN135CMAN  18124 PILM4 46/// /2129 11101 40316 56054 91200 333 91233 555 11028 22030 31109 421033 61159 204027 200026 194026 200025 2054020;
0017994090999992005011813004+48217-088367FM-12+0209PILM V0202201N014919999999N9999999N1-00991+99999102951ADDMD1810551+9999
0213994090999992005011814004+48217-088367FM-12+0209PILM V0201901N014419999999N9999999N1-01011+99999102791ADDMD1810511+9999OA139901651REMSYN176CMAN  18144 PILM4 46/// /1928 11101 40279 58051 91400 333 91232 555 11027 22029 31314 422034 61359 197026 199025 200025 203027 2013 324013 32130030 125030 132029 126034 123038;
0017994090999992005011815004+48217-088367FM-12+0209PILM V0201901N012319999999N9999999N1-01021+99999102541ADDMD1810621+9999
0017994090999992005011816004+48217-088367FM-12+0209PILM V0201901N014919999999N9999999N1-00931+99999102321ADDMD1810631+9999
0017994090999992005011817004+48217-088367FM-12+0209PILM V0201901N014919999999N9999999N1-00891+99999102081ADDMD1610711+9999
0017994090999992005011818004+48217-088367FM-12+0209PILM V0201901N015919999999N9999999N1-00731+99999101801ADDMD1810741+9999
0017994090999992005011819004+48217-088367FM-12+0209PILM V0202001N018519999999N9999999N1-00741+99999101521ADDMD1810801+9999
0017994090999992005011820004+48217-088367FM-12+0209PILM V0201901N014919999999N9999999N1-00671+99999101261ADDMD1610821+9999
0017994090999992005011821004+48217-088367FM-12+0209PILM V0201901N018019999999N9999999N1-00651+99999101051ADDMD1610751+9999
0017994090999992005011823004+48217-088367FM-12+0209PILM V0202001N016419999999N9999999N1-00601+99999100761ADDMD1610501+9999
0017994090999992005011900004+48217-088367FM-12+0209PILM V0202101N014919999999N9999999N1-00551+99999100641ADDMD1610411+9999
0017994090999992005011901004+48217-088367FM-12+0209PILM V0202401N011319999999N9999999N1-00511+99999100491ADDMD1810321+9999
0017994090999992005011902004+48217-088367FM-12+0209PILM V0202301N010819999999N9999999N1-00501+99999100391ADDMD1610371+9999
0017994090999992005011903004+48217-088367FM-12+0209PILM V0202301N009319999999N9999999N1-00481+99999100321ADDMD1610321+9999
0017994090999992005011904004+48217-088367FM-12+0209PILM V0202301N008719999999N9999999N1-00491+99999100281ADDMD1610211+9999
0225994090999992005011905004+48217-088367FM-12+0209PILM V0203101N011819999999N9999999N1-00481+99999100241ADDMD1610151+9999OA139901341REMSYN188CMAN  19054 PILM4 46/// /3123 11048 40024 56015 90500 333 91226 555 11022 22024 30454 431027 60459 310023 299020 290019 251018 2230 189028 190449 094059 093060 089058 086056 084056 081056;
0183994090999992005011906004+48217-088367FM-12+0209PILM V0203301N010819999999N9999999N1-00581+99999100331ADDMD1510001+9999OA139901341REMSYN146CMAN  19064 PILM4 46/// /3321 11058 40033 55000 90600 333 91226 555 11020 22022 30555 432029 60559 328021 325021 321021 318022 3107 182008 180009;
0017994090999992005011907004+48217-088367FM-12+0209PILM V0203401N009819999999N9999999N1-00611+99999100451ADDMD1310171+9999
0177994090999992005011908004+48217-088367FM-12+0209PILM V0203401N011319999999N9999999N1-00671+99999100561ADDMD1310321+9999OA139901491REMSYN140CMAN  19084 PILM4 46/// /3422 11067 40056 53032 90800 333 91229 555 11021 22022 30740 433036 60759 337024 335026 336024 338023 33006 18////;
0017994090999992005011909004+48217-088367FM-12+0209PILM V0203301N015419999999N9999999N1-00711+99999100691ADDMD1310361+9999
0017994090999992005011910004+48217-088367FM-12+0209PILM V0203401N010819999999N9999999N1-00791+99999100881ADDMD1310431+9999
0017994090999992005011911004+48217-088367FM-12+0209PILM V0203301N013419999999N9999999N1-00861+99999101091ADDMD1310531+9999
0017994090999992005011912004+48217-088367FM-12+0209PILM V0203501N008719999999N9999999N1-00961+99999101251ADDMD1110561+9999
0017994090999992005011913004+48217-088367FM-12+0209PILM V0203301N014419999999N9999999N1-01071+99999101461ADDMD1210581+9999
0017994090999992005011914004+48217-088367FM-12+0209PILM V0203601N010319999999N9999999N1-01261+99999101721ADDMD1310631+9999
0017994090999992005011915004+48217-088367FM-12+0209PILM V0203401N011819999999N9999999N1-01421+99999101971ADDMD1310721+9999
0017994090999992005011916004+48217-088367FM-12+0209PILM V0203501N011319999999N9999999N1-01461+99999102111ADDMD1110651+9999
0017994090999992005011917004+48217-088367FM-12+0209PILM V0203401N008719999999N9999999N1-01521+99999102231ADDMD1110511+9999
0017994090999992005011918004+48217-088367FM-12+0209PILM V0203301N011319999999N9999999N1-01471+99999102321ADDMD1110351+9999
0017994090999992005011919004+48217-088367FM-12+0209PILM V0203401N006719999999N9999999N1-01431+99999102361ADDMD1110251+9999
0017994090999992005011920004+48217-088367FM-12+0209PILM V0203501N007219999999N9999999N1-01361+99999102361ADDMD1110131+9999
0017994090999992005011921004+48217-088367FM-12+0209PILM V0203401N008219999999N9999999N1-01331+99999102431ADDMD1310111+9999
0017994090999992005011922004+48217-088367FM-12+0209PILM V0203401N007719999999N9999999N1-01321+99999102481ADDMD1310121+9999
0017994090999992005011923004+48217-088367FM-12+0209PILM V0203501N004119999999N9999999N1-01281+99999102531ADDMD1110171+9999
0017994090999992005012000004+48217-088367FM-12+0209PILM V0203501N007219999999N9999999N1-01301+99999102591ADDMD1310161+9999
0017994090999992005012001004+48217-088367FM-12+0209PILM V0203501N004619999999N9999999N1-01361+99999102581ADDMD1110101+9999
0017994090999992005012002004+48217-088367FM-12+0209PILM V0203501N005719999999N9999999N1-01361+99999102641ADDMD1210111+9999
0157994090999992005012003004+48217-088367FM-12+0209PILM V0203501N004119999999N9999999N1-01381+99999102671ADDOA139900881REMSYN134CMAN  20034 PILM4 46/// /3508 11138 40267 90300 333 91217 555 11008 22008 30243 434021 60259 345011 342012 346011 348010 34025 184021;
0000994090999992005012004004+48217-088367FM-12+0209PILM V0203501N005119999999N9999999N1-01421+99999102681
0017994090999992005012005004+48217-088367FM-12+0209PILM V0203501N003619999999N9999999N1-01401+99999102701ADDMD1110061+9999
0017994090999992005012006004+48217-088367FM-12+0209PILM V0203501N005119999999N9999999N1-01421+99999102671ADDMD1010001+9999
0017994090999992005012007004+48217-088367FM-12+0209PILM V0200301N003619999999N9999999N1-01411+99999102611ADDMD1810071+9999
0017994090999992005012008004+48217-088367FM-12+0209PILM V0200201N005719999999N9999999N1-01411+99999102601ADDMD1610101+9999
0017994090999992005012009004+48217-088367FM-12+0209PILM V0200301N004619999999N9999999N1-01371+99999102561ADDMD1610111+9999
0017994090999992005012010004+48217-088367FM-12+0209PILM V0200301N005119999999N9999999N1-01341+99999102541ADDMD1710071+9999
0017994090999992005012011004+48217-088367FM-12+0209PILM V0200301N004119999999N9999999N1-01331+99999102511ADDMD1610091+9999
0017994090999992005012012004+48217-088367FM-12+0209PILM V0200301N005719999999N9999999N1-01321+99999102521ADDMD1710041+9999
0017994090999992005012013004+48217-088367FM-12+0209PILM V0200201N005119999999N9999999N1-01291+99999102561ADDMD1510001+9999
0017994090999992005012014004+48217-088367FM-12+0209PILM V0200201N005119999999N9999999N1-01281+99999102621ADDMD1310111+9999
0225994090999992005012015004+48217-088367FM-12+0209PILM V0200301N005719999999N9999999N1-01261+99999102641ADDMD1110121+9999OA139900821REMSYN188CMAN  20154 PILM4 46/// /0311 11126 40264 51012 91500 333 91216 555 11011 22012 31403 402018 61459 026011 023010 025010 030011 02011 18015 349909 100103 102102 102104 101099 102096 103110;
0017994090999992005012016004+48217-088367FM-12+0209PILM V0200301N006219999999N9999999N1-01311+99999102681ADDMD1110121+9999
0017994090999992005012017004+48217-088367FM-12+0209PILM V0200401N005119999999N9999999N1-01261+99999102671ADDMD1210051+9999
0017994090999992005012018004+48217-088367FM-12+0209PILM V0200301N006219999999N9999999N1-01251+99999102661ADDMD1010001+9999
0017994090999992005012019004+48217-088367FM-12+0209PILM V0200501N006219999999N9999999N1-01241+99999102661ADDMD1410001+9999
0017994090999992005012020004+48217-088367FM-12+0209PILM V0200401N003619999999N9999999N1-01251+99999102691ADDMD1510001+9999
0017994090999992005012021004+48217-088367FM-12+0209PILM V0200301N004619999999N9999999N1-01271+99999102731ADDMD1310071+9999
0017994090999992005012022004+48217-088367FM-12+0209PILM V0200301N003619999999N9999999N1-01271+99999102771ADDMD1310111+9999
0225994090999992005012023004+48217-088367FM-12+0209PILM V0200201N005119999999N9999999N1-01261+99999102821ADDMD1310131+9999OA139900721REMSYN188CMAN  20234 PILM4 46/// /0210 11126 40282 53013 92300 333 91214 555 11010 22010 32208 402015 62259 026009 032008 028008 033009 02011 19011 25013 2592054 090049 094049 095053 096050 097051;
0017994090999992005012100004+48217-088367FM-12+0209PILM V0200201N004619999999N9999999N1-01261+99999102871ADDMD1310141+9999
0017994090999992005012101004+48217-088367FM-12+0209PILM V0200301N004119999999N9999999N1-01281+99999102891ADDMD1110121+9999
0017994090999992005012102004+48217-088367FM-12+0209PILM V0200401N004119999999N9999999N1-01251+99999102901ADDMD1110081+9999
0173994090999992005012103004+48217-088367FM-12+0209PILM V0200301N005119999999N9999999N1-01241+99999102931ADDMD1310061+9999OA139900621REMSYN136CMAN  21034 PILM4 46/// /0310 11124 40293 53006 90300 333 91212 555 11010 22010 30204 403014 60259 031009 027007 032008 047007 03013 02;
0017994090999992005012104004+48217-088367FM-12+0209PILM V0200401N004619999999N9999999N1-01251+99999102901ADDMD1010001+9999
0017994090999992005012105004+48217-088367FM-12+0209PILM V0200401N005119999999N9999999N1-01271+99999102911ADDMD1010001+9999
0177994090999992005012106004+48217-088367FM-12+0209PILM V0200401N004119999999N9999999N1-01261+99999102951ADDMD1510001+9999OA139900511REMSYN140CMAN 21064 PILM4 46/// /0408 11126 40295 55000 90600 333 91210 555 11008 22008 30504 405015 60559 037008 032007 044007 045008 061008 053009;
0017994090999992005012107004+48217-088367FM-12+0209PILM V0200301N003619999999N9999999N1-01231+99999102951ADDMD1210051+9999
0017994090999992005012108004+48217-088367FM-12+0209PILM V0200601N005119999999N9999999N1-01211+99999102941ADDMD1110031+9999
0017994090999992005012109004+48217-088367FM-12+0209PILM V0200801N006219999999N9999999N1-01181+99999102921ADDMD1710031+9999
0017994090999992005012110004+48217-088367FM-12+0209PILM V0200701N004619999999N9999999N1-01141+99999102911ADDMD1710041+9999
0017994090999992005012111004+48217-088367FM-12+0209PILM V0201101N002619999999N9999999N1-01111+99999102881ADDMD1810061+9999
0017994090999992005012112004+48217-088367FM-12+0209PILM V0201001N003619999999N9999999N1-01061+99999102791ADDMD1810131+9999
0017994090999992005012113004+48217-088367FM-12+0209PILM V0201101N005119999999N9999999N1-00991+99999102721ADDMD1810191+9999
0017994090999992005012114004+48217-088367FM-12+0209PILM V0201201N005719999999N9999999N1-00931+99999102671ADDMD1610211+9999
0017994090999992005012115004+48217-088367FM-12+0209PILM V0201101N006719999999N9999999N1-00871+99999102641ADDMD1610151+9999
0017994090999992005012116004+48217-088367FM-12+0209PILM V0201401N006719999999N9999999N1-00801+99999102571ADDMD1810151+9999
0017994090999992005012117004+48217-088367FM-12+0209PILM V0201301N007219999999N9999999N1-00731+99999102531ADDMD1810141+9999
0017994090999992005012118004+48217-088367FM-12+0209PILM V0201801N005719999999N9999999N1-00691+99999102441ADDMD1810201+9999
0017994090999992005012119004+48217-088367FM-12+0209PILM V0201501N007219999999N9999999N1-00681+99999102321ADDMD1810251+9999
0017994090999992005012120004+48217-088367FM-12+0209PILM V0201601N009319999999N9999999N1-00671+99999102201ADDMD1810331+9999
0017994090999992005012121004+48217-088367FM-12+0209PILM V0201401N009819999999N9999999N1-00681+99999102101ADDMD1610341+9999
0017994090999992005012122004+48217-088367FM-12+0209PILM V0201401N009319999999N9999999N1-00641+99999102071ADDMD1610251+9999
0017994090999992005012123004+48217-088367FM-12+0209PILM V0201701N007219999999N9999999N1-00631+99999102051ADDMD1610151+9999
0017994090999992005012200004+48217-088367FM-12+0209PILM V0201701N008219999999N9999999N1-00661+99999101991ADDMD1810111+9999
0017994090999992005012201004+48217-088367FM-12+0209PILM V0201501N007719999999N9999999N1-00661+99999101911ADDMD1810161+9999
0017994090999992005012202004+48217-088367FM-12+0209PILM V0201501N008719999999N9999999N1-00621+99999101841ADDMD1810211+9999
0017994090999992005012203004+48217-088367FM-12+0209PILM V0201401N009319999999N9999999N1-00611+99999101791ADDMD1610201+9999
0017994090999992005012204004+48217-088367FM-12+0209PILM V0201401N009319999999N9999999N1-00621+99999101771ADDMD1610141+9999
0225994090999992005012205004+48217-088367FM-12+0209PILM V0201401N010319999999N9999999N1-00591+99999101761ADDMD1610081+9999OA139901131REMSYN188CMAN  22054 PILM4 46/// /1420 11059 40176 56008 90500 333 91222 555 11019 22020 30422 413024 60459 142018 144017 149016 140019 148 203008 206008 2047059 244062 248062 250063 248060 253059;
0017994090999992005012206004+48217-088367FM-12+0209PILM V0201301N011319999999N9999999N1-00601+99999101791ADDMD1510001+9999
0182994090999992005012208004+48217-088367FM-12+0209PILM V0201101N012919999999N9999999N1-00531+99999101881ADDMD1310121+9999OA139901441REMSYN145CMAN  22084 PILM4 46/// /1125 11053 40188 53012 90800 333 91228 555 11024 22026 30718 412032 60759 107025 105026 105028 106027 11001 13555 60005;
0017994090999992005012209004+48217-088367FM-12+0209PILM V0201001N013919999999N9999999N1-00511+99999101961ADDMD1310171+9999
0170994090999992005012210004+48217-088367FM-12+0209PILM V0200801N016419999999N9999999N1-00631+99999102101ADDMD1310281+9999OA139901751REMSYN133CMAN  22104 PILM4 46/// /0832 11063 40210 53028 91000 333 91234 555 11031 22033 30959 407034 60959 084029 088029 086027 094026 08016;
0017994090999992005012212004+48217-088367FM-12+0209PILM V0200501N011319999999N9999999N1-00921+99999102511ADDMD1310551+9999
0017994090999992005012213004+48217-088367FM-12+0209PILM V0200301N010319999999N9999999N1-01101+99999102721ADDMD1310621+9999
0036994090999992005012214004+48217-088367FM-12+0209PILM V0200301N008219999999N9999999N1-01341+99999102921ADDMD1110672+9999EQDQ01+000672APC3  
0017994090999992005012215004+48217-088367FM-12+0209PILM V0200201N010319999999N9999999N1-01471+99999103071ADDMD1110561+9999
0286994090999992005012216004+48217-088367FM-12+0209PILM V0200201N008719999999N9999999N1-01531+99999103221ADDMD1110501+9999OA139901441REMSYN249CMAN  22164 PILM4 46/// /0217 11153 40322 51050 91600 333 91228 555 11017 22018 31509 401032 61559 018018 021019 018018 020019 029 226009 225008 230285 20231 70522 83504 333 564/9 83620 83170 80091 31462 61803 10270 20226 70522 86201 333 569/0 86815
0017994090999992005012217004+48217-088367FM-12+0209PILM V0200101N008219999999N9999999N1-01561+99999103311ADDMD1110391+9999
0017994090999992005012219004+48217-088367FM-12+0209PILM V0203501N005719999999N9999999N1-01671+99999103401ADDMD1110181+9999
0017994090999992005012220004+48217-088367FM-12+0209PILM V0203601N007719999999N9999999N1-01691+99999103461ADDMD1110151+9999
0017994090999992005012221004+48217-088367FM-12+0209PILM V0203601N006719999999N9999999N1-01631+99999103491ADDMD1310091+9999
0017994090999992005012222004+48217-088367FM-12+0209PILM V0203501N005119999999N9999999N1-01581+99999103581ADDMD1310181+9999
0017994090999992005012223004+48217-088367FM-12+0209PILM V0203601N006719999999N9999999N1-01601+99999103681ADDMD1310221+9999
0017994090999992005012300004+48120-088220FM-12+0209PILM V0203501N005119999999N9999999N1-01581+99999103721ADDMD1110231+9999
0017994090999992005012301004+48120-088220FM-12+0209PILM V0203501N005719999999N9999999N1-01491+99999103771ADDMD1110191+9999
0017994090999992005012302004+48120-088220FM-12+0209PILM V0203501N007219999999N9999999N1-01511+99999103781ADDMD1110101+9999
0017994090999992005012303004+48120-088220FM-12+0209PILM V0203501N006219999999N9999999N1-01491+99999103711ADDMD1010001+9999
0017994090999992005012304004+48120-088220FM-12+0209PILM V0203601N005119999999N9999999N1-01471+99999103621ADDMD1810151+9999
0017994090999992005012305004+48120-088220FM-12+0209PILM V0200101N002119999999N9999999N1-01501+99999103591ADDMD1610191+9999
0185994090999992005012306004+48120-088220FM-12+0209PILM V0200101N001019999999N9999999N1-01471+99999103541ADDMD1610171+9999OA139900211REMSYN148CMAN  23064 PILM4 46/// /0102 11147 40354 56017 90600 333 91204 555 11002 22002 30525 434008 60559 353003 340004 305003 345004 00008 18009 26027 35;
0017994090999992005012307004+48120-088220FM-12+0209PILM V0203001N003619999999N9999999N1-01431+99999103541ADDMD1610081+9999
0017994090999992005012308004+48120-088220FM-12+0209PILM V0202601N003119999999N9999999N1-01351+99999103461ADDMD1810131+9999
0017994090999992005012309004+48120-088220FM-12+0209PILM V0202401N004619999999N9999999N1-01281+99999103371ADDMD1810171+9999
0017994090999992005012310004+48120-088220FM-12+0209PILM V0202301N007719999999N9999999N1-01211+99999103251ADDMD1810291+9999
0017994090999992005012311004+48120-088220FM-12+0209PILM V0202301N008719999999N9999999N1-01151+99999103131ADDMD1810331+9999
0017994090999992005012312004+48120-088220FM-12+0209PILM V0202301N006219999999N9999999N1-00981+99999103071ADDMD1610301+9999
0017994090999992005012313004+48120-088220FM-12+0209PILM V0202401N010319999999N9999999N1-00791+99999102941ADDMD1810311+9999
0017994090999992005012314004+48120-088220FM-12+0209PILM V0202401N010819999999N9999999N1-00721+99999102831ADDMD1810301+9999
0225994090999992005012315004+48120-088220FM-12+0209PILM V0202501N013919999999N9999999N1-00671+99999102701ADDMD1710371+9999OA139901601REMSYN188CMAN  23154 PILM4 46/// /2527 11067 40270 57037 91500 333 91231 555 11026 22028 31451 425032 61459 246026 242025 237023 241023 2419 332021 331449 090074 090075 093076 090075 091074 092073;
0017994090999992005012316004+48120-088220FM-12+0209PILM V0202301N010319999999N9999999N1-00691+99999102581ADDMD1810361+9999
0017994090999992005012317004+48120-088220FM-12+0209PILM V0202301N011319999999N9999999N1-00641+99999102431ADDMD1810401+9999
0017994090999992005012318004+48120-088220FM-12+0209PILM V0202301N011319999999N9999999N1-00621+99999102271ADDMD1810431+9999
0017994090999992005012319004+48120-088220FM-12+0209PILM V0202301N013919999999N9999999N1-00571+99999102081ADDMD1810501+9999
0017994090999992005012320004+48120-088220FM-12+0209PILM V0202301N014419999999N9999999N1-00551+99999101851ADDMD1810581+9999
0017994090999992005012321004+48120-088220FM-12+0209PILM V0202301N013919999999N9999999N1-00501+99999101741ADDMD1610531+9999
0017994090999992005012322004+48120-088220FM-12+0209PILM V0202301N015919999999N9999999N1-00491+99999101631ADDMD1610451+9999
0183994090999992005012323004+48120-088220FM-12+0209PILM V0202401N012919999999N9999999N1-00421+99999101521ADDMD1710331+9999OA139901441REMSYN146CMAN  23234 PILM4 46/// /2425 11042 40152 57033 92300 333 91228 555 11024 22026 32243 421037 62259 235026 225030 229025 231028 2322 051022 050022;
0017994090999992005012400004+48120-088220FM-12+0209PILM V0202301N013919999999N9999999N1-00371+99999101301ADDMD1810441+9999
0183994090999992005012401004+48120-088220FM-12+0209PILM V0202401N011819999999N9999999N1-00311+99999101311ADDMD1610321+9999OA139901391REMSYN146CMAN  24014 PILM4 46/// /2423 11031 40131 56032 90100 333 91227 555 11022 22024 30010 423037 60059 237024 240027 236027 234029 2311 306011 314011;
0219994090999992005012402004+48120-088220FM-12+0209PILM V0202301N011819999999N9999999N1-00341+99999101171ADDMD1610351+9999OA139901391REMSYN182CMAN  24024 PILM4 46/// /2323 11034 40117 56035 90200 333 91227 555 11022 22023 30128 424032 60159 230024 230024 235022 243026 24010 1817 357016 35261040 262045 262042 263031 260024;
0017994090999992005012403004+48120-088220FM-12+0209PILM V0202301N012319999999N9999999N1-00341+99999101081ADDMD1810221+9999
0017994090999992005012404004+48120-088220FM-12+0209PILM V0202601N019519999999N9999999N1-00291+99999100871ADDMD1810441+9999
0017994090999992005012405004+48120-088220FM-12+0209PILM V0202601N018519999999N9999999N1-00311+99999100841ADDMD1610331+9999
0200994090999992005012406004+48120-088220FM-12+0209PILM V0202701N018519999999N9999999N1-00331+99999100811ADDMD1610271+9999OA139902061REMSYN163CMAN  24064 PILM4 46/// /2736 11033 40081 56027 90600 333 91240 555 11035 22037 30547 427042 60559 269034 270035 265034 265034 264 029015 030014 0293101 555 69905;
0000994090999992005012407004+48120-088220FM-12+0209PILM V0202701N014419999999N9999999N1-00451+99999100821
0017994090999992005012408004+48120-088220FM-12+0209PILM V0202801N012919999999N9999999N1-00361+99999100851ADDMD1510001+9999
0017994090999992005012409004+48120-088220FM-12+0209PILM V0202801N011819999999N9999999N1-00431+99999100821ADDMD1010001+9999
0219994090999992005012410004+48120-088220FM-12+0209PILM V0202901N009319999999N9999999N1-00451+99999100831ADDMD1010001+9999OA139901031REMSYN182CMAN  24104 PILM4 46/// /2918 11045 40083 50000 91000 333 91220 555 11018 22019 30911 427025 60959 286019 283018 282021 286021 2817 208017 2066045 259052 254063 260057 260055 256052;
0183994090999992005012411004+48120-088220FM-12+0209PILM V0203101N009819999999N9999999N1-00461+99999100881ADDMD1310031+9999OA139901031REMSYN146CMAN  24114 PILM4 46/// /3119 11046 40088 53003 91100 333 91220 555 11018 22019 31044 430025 61059 305020 301020 300021 302019 2908 201008 200010;
0017994090999992005012412004+48120-088220FM-12+0209PILM V0203301N008719999999N9999999N1-00471+99999100961ADDMD1310141+9999
0017994090999992005012413004+48120-088220FM-12+0209PILM V0203301N007719999999N9999999N1-00441+99999101041ADDMD1310211+9999
0017994090999992005012414004+48120-088220FM-12+0209PILM V0203401N004119999999N9999999N1-00451+99999101131ADDMD1310251+9999
0017994090999992005012415004+48120-088220FM-12+0209PILM V0203501N004119999999N9999999N1-00491+99999101261ADDMD1310301+9999
0000994090999992005012416004+48120-088220FM-12+0209PILM V0200101N005719999999N9999999N1-00521+99999101331
0000994090999992005012417004+48120-088220FM-12+0209PILM V0203601N005119999999N9999999N1-00531+99999101401
0000994090999992005012418004+48120-088220FM-12+0209PILM V0203601N005119999999N9999999N1-00531+99999101471
0017994090999992005012419004+48120-088220FM-12+0209PILM V0203401N005119999999N9999999N1-00541+99999101531ADDMD1110201+9999
0017994090999992005012420004+48120-088220FM-12+0209PILM V0203501N004119999999N9999999N1-00561+99999101631ADDMD1310231+9999
0017994090999992005012421004+48120-088220FM-12+0209PILM V0203501N005719999999N9999999N1-00581+99999101691ADDMD1210221+9999
0017994090999992005012422004+48120-088220FM-12+0209PILM V0203601N004119999999N9999999N1-00621+99999101801ADDMD1310271+9999
0017994090999992005012423004+48120-088220FM-12+0209PILM V0200101N005719999999N9999999N1-00671+99999101861ADDMD1210231+9999
0017994090999992005012500004+48217-088367FM-12+0209PILM V0203601N004119999999N9999999N1-00731+99999101911ADDMD1110221+9999
0017994090999992005012501004+48217-088367FM-12+0209PILM V0200201N004619999999N9999999N1-00781+99999101951ADDMD1110151+9999
0017994090999992005012502004+48217-088367FM-12+0209PILM V0200401N004619999999N9999999N1-00721+99999101861ADDMD1010001+9999
0225994090999992005012503004+48217-088367FM-12+0209PILM V0200401N003119999999N9999999N1-00711+99999101971ADDMD1210061+9999OA139900361REMSYN188CMAN  25034 PILM4 46/// /0406 11071 40197 52006 90300 333 91207 555 11006 22006 30215 404018 60259 030006 036008 044009 044009 05004 01018 356809 046025 048024 050021 041022 046018 069013;
0183994090999992005012504004+48217-088367FM-12+0209PILM V0200501N005119999999N9999999N1-00731+99999101881ADDMD1710071+9999OA139900621REMSYN146CMAN  25044 PILM4 46/// /0510 11073 40188 57007 90400 333 91212 555 11009 22010 30348 404013 60359 045009 042009 044008 035007 04001 08019 096017;
0000994090999992005012505004+48217-088367FM-12+0209PILM V0200701N007719999999N9999999N1-00731+99999101831
0017994090999992005012506004+48217-088367FM-12+0209PILM V0200801N007719999999N9999999N1-00701+99999101731ADDMD1710241+9999
0017994090999992005012507004+48217-088367FM-12+0209PILM V0200901N005719999999N9999999N1-00671+99999101711ADDMD1710171+9999
0000994090999992005012508004+48217-088367FM-12+0209PILM V0201101N008219999999N9999999N1-00681+99999101631
0017994090999992005012509004+48217-088367FM-12+0209PILM V0201201N009819999999N9999999N1-00651+99999101481ADDMD1810251+9999
0017994090999992005012510004+48217-088367FM-12+0209PILM V0201101N009819999999N9999999N1-00631+99999101371ADDMD1810341+9999
0017994090999992005012511004+48217-088367FM-12+0209PILM V0201101N010819999999N9999999N1-00571+99999101211ADDMD1810421+9999
0017994090999992005012512004+48217-088367FM-12+0209PILM V0201201N011319999999N9999999N1-00481+99999101071ADDMD1810411+9999
0017994090999992005012513004+48217-088367FM-12+0209PILM V0201201N012319999999N9999999N1-00421+99999100971ADDMD1610401+9999
0017994090999992005012514004+48217-088367FM-12+0209PILM V0201201N011819999999N9999999N1-00371+99999100851ADDMD1610361+9999
0017994090999992005012515004+48217-088367FM-12+0209PILM V0201201N015919999999N9999999N1-00321+99999100591ADDMD1810481+9999
0017994090999992005012516004+48217-088367FM-12+0209PILM V0201201N017019999999N9999999N1-00271+99999100421ADDMD1810551+9999
0017994090999992005012517004+48217-088367FM-12+0209PILM V0201501N008219999999N9999999N1-00271+99999100431ADDMD1610421+9999
0017994090999992005012518004+48217-088367FM-12+0209PILM V0201301N008219999999N9999999N1-00271+99999100181ADDMD1810411+9999
0017994090999992005012519004+48217-088367FM-12+0209PILM V0201301N006219999999N9999999N1-00231+99999100191ADDMD1710231+9999
0017994090999992005012520004+48217-088367FM-12+0209PILM V0201001N003619999999N9999999N1-00201+99999100171ADDMD1610261+9999
0017994090999992005012521004+48217-088367FM-12+0209PILM V0200701N017519999999N9999999N1-00391+99999100221ADDMD1310041+9999
0017994090999992005012522004+48217-088367FM-12+0209PILM V0200701N017519999999N9999999N1-00471+99999100371ADDMD1310181+9999
0017994090999992005012523004+48217-088367FM-12+0209PILM V0200701N017519999999N9999999N1-00581+99999100531ADDMD1310361+9999
