0225994130999992005010100004+47867-089317FM-12+0223ROAM V0203501N011819999999N9999999N1-01051+99999102011ADDMD1110821+9999OA139901491REMSYN188CMAN  01004 ROAM4 46/// /3523 11105 40201 51082 90000 333 91229 555 11020 22021 32346 435031 62359 342023 346024 338024 341023 349 055009 052007 053007 0500088 096087 094096 093097 093101;
0017994130999992005010101004+47867-089317FM-12+0223ROAM V0203601N010819999999N9999999N1-01041+99999102251ADDMD1310721+9999
0212994130999992005010102004+47867-089317FM-12+0223ROAM V0203601N011319999999N9999999N1-01011+99999102441ADDMD1110681+9999OA139901241REMSYN175CMAN  01024 ROAM4 46/// /3622 11101 40244 51068 90200 333 91224 555 11019 22020 30142 435025 60159 355021 354020 353020 354021 352 077012 077012 075012 07405036 104037 098037;
0017994130999992005010103004+47867-089317FM-12+0223ROAM V0203601N008219999999N9999999N1-00981+99999102681ADDMD1210671+9999
0017994130999992005010104004+47867-089317FM-12+0223ROAM V0203501N010319999999N9999999N1-01001+99999102831ADDMD1110581+9999
0017994130999992005010105004+47867-089317FM-12+0223ROAM V0203601N011319999999N9999999N1-01081+99999102921ADDMD1110481+9999
0177994130999992005010106004+47867-089317FM-12+0223ROAM V0200101N010319999999N9999999N1-01111+99999103051ADDMD1110371+9999OA139901181REMSYN140CMAN  01064 ROAM4 46/// /0120 11111 40305 51037 90600 333 91223 555 11017 22018 30521 401027 60559 010020 010019 010019 003021 00029 212025;
0017994130999992005010107004+47867-089317FM-12+0223ROAM V0200101N008719999999N9999999N1-01131+99999103201ADDMD1310371+9999
0017994130999992005010108004+47867-089317FM-12+0223ROAM V0200101N009319999999N9999999N1-01161+99999103281ADDMD1110361+9999
0167994130999992005010109004+47867-089317FM-12+0223ROAM V0203601N018019999999N9999999N1-01171+99999103441ADDMD1310391+9999REMSYN141CMN   1094  ROAM4 46/// /3618 11117 40344 53039 90900 333 91221 555 11016 22017 30801 401022 60859 000018 003018 000018 007017 006016 008018;
0183994130999992005010110004+47867-089317FM-12+0223ROAM V0200101N008219999999N9999999N1-01171+99999103571ADDMD1310371+9999OA139901031REMSYN146CMAN  01104 ROAM4 46/// /0116 11117 40357 53037 91000 333 91220 555 11014 22015 30912 436022 60959 006016 014016 007017 002017 0025 053026 052025;
0177994130999992005010111004+47867-089317FM-12+0223ROAM V0200201N008219999999N9999999N1-01181+99999103651ADDMD1110371+9999OA139900931REMSYN140CMAN 01114 ROAM4 46/// /0216 11118 40365 51037 91100 333 91218 555 11014 22015 31027 401023 61059 016015 017017 016018 010019 007017 005017;
0017994130999992005010112004+47867-089317FM-12+0223ROAM V0200101N007219999999N9999999N1-01161+99999103771ADDMD1110331+9999
0017994130999992005010113004+47867-089317FM-12+0223ROAM V0200201N007719999999N9999999N1-01141+99999103831ADDMD1110261+9999
0017994130999992005010114004+47867-089317FM-12+0223ROAM V0200401N009819999999N9999999N1-01171+99999103911ADDMD1110261+9999
0017994130999992005010115004+47867-089317FM-12+0223ROAM V0200401N012319999999N9999999N1-01231+99999103861ADDMD1010091+9999
0017994130999992005010116004+47867-089317FM-12+0223ROAM V0200401N010319999999N9999999N1-01211+99999104001ADDMD1310171+9999
0017994130999992005010117004+47867-089317FM-12+0223ROAM V0200601N008719999999N9999999N1-01191+99999104051ADDMD1310141+9999
0017994130999992005010118004+47867-089317FM-12+0223ROAM V0200601N008719999999N9999999N1-01231+99999103951ADDMD1010091+9999
0177994130999992005010119004+47867-089317FM-12+0223ROAM V0200501N008219999999N9999999N1-01121+99999103841ADDMD1810161+9999OA139900981REMSYN140CMAN  01194 ROAM4 46/// /0516 11112 40384 58016 91900 333 91219 555 11014 22015 31853 405020 61859 052017 051016 050014 053015 05011 157012;
0017994130999992005010120004+47867-089317FM-12+0223ROAM V0200601N009319999999N9999999N1-01021+99999103821ADDMD1610231+9999
0017994130999992005010121004+47867-089317FM-12+0223ROAM V0200601N009319999999N9999999N1-00951+99999103761ADDMD1610191+9999
0017994130999992005010122004+47867-089317FM-12+0223ROAM V0200501N008219999999N9999999N1-00911+99999103711ADDMD1810131+9999
0017994130999992005010123004+47867-089317FM-12+0223ROAM V0200601N008719999999N9999999N1-00841+99999103551ADDMD1810271+9999
0257994130999992005010200004+47867-089317FM-12+0223ROAM V0200701N007219999999N9999999N1-00741+99999103471ADDMD1810291+9999OA139900881REMSYN220CMAN  02004 ROAM4 46/// /0714 11074 40347 58029 90000 333 91217 555 11013 22013 32300 406020 62359 065014 061015 057014 058015 051 076012 074011 077011 07607 51032 60134 78082 889// 333 56999 70127 58007 88916 555 90200;
0017994130999992005010201004+47867-089317FM-12+0223ROAM V0200701N008719999999N9999999N1-00611+99999103281ADDMD1810431+9999
0017994130999992005010202004+47867-089317FM-12+0223ROAM V0200901N008719999999N9999999N1-00551+99999103081ADDMD1810471+9999
0017994130999992005010203004+47867-089317FM-12+0223ROAM V0200801N009819999999N9999999N1-00501+99999102901ADDMD1610571+9999
0017994130999992005010204004+47867-089317FM-12+0223ROAM V0200901N011319999999N9999999N1-00421+99999102651ADDMD1810631+9999
0017994130999992005010205004+47867-089317FM-12+0223ROAM V0200901N012919999999N9999999N1-00351+99999102561ADDMD1610521+9999
0017994130999992005010206004+47867-089317FM-12+0223ROAM V0200901N010819999999N9999999N1-00361+99999102531ADDMD1610371+9999
0189994130999992005010207004+47867-089317FM-12+0223ROAM V0201001N012919999999N9999999N1-00321+99999102271ADDMD1810381+9999OA139901391REMSYN152CMAN  02074 ROAM4 46/// /1025 11032 40227 58038 90700 333 91227 555 11021 22023 30626 411034 60659 097024 095025 101027 104028 100 083020 087021 084021;
0017994130999992005010208004+47867-089317FM-12+0223ROAM V0201101N013919999999N9999999N1-00231+99999102071ADDMD1810491+9999
0017994130999992005010209004+47867-089317FM-12+0223ROAM V0201201N013919999999N9999999N1-00191+99999101951ADDMD1610581+9999
0017994130999992005010210004+47867-089317FM-12+0223ROAM V0201401N011319999999N9999999N1-00151+99999101851ADDMD1610421+9999
0213994130999992005010211004+47867-089317FM-12+0223ROAM V0201701N010319999999N9999999N1-00141+99999101791ADDMD1610281+9999OA139901181REMSYN176CMAN  02114 ROAM4 46/// /1720 11014 40179 56028 91100 333 91223 555 11017 22019 31002 414025 61059 168020 168019 158020 150020 141 124007 127008 121010 119073046 069045 075044;
0017994130999992005010212004+47867-089317FM-12+0223ROAM V0202201N008719999999N9999999N1-00131+99999101851ADDMD1510101+9999
0017994130999992005010213004+47867-089317FM-12+0223ROAM V0202401N008719999999N9999999N1-00101+99999101811ADDMD1610041+9999
0017994130999992005010214004+47867-089317FM-12+0223ROAM V0202501N010319999999N9999999N1-00081+99999101801ADDMD1010001+9999
0017994130999992005010215004+47867-089317FM-12+0223ROAM V0202701N011319999999N9999999N1-00081+99999101811ADDMD1610041+9999
0017994130999992005010216004+47867-089317FM-12+0223ROAM V0202601N011319999999N9999999N1-00111+99999101891ADDMD1310081+9999
0017994130999992005010217004+47867-089317FM-12+0223ROAM V0202901N011319999999N9999999N1-00221+99999101891ADDMD1210091+9999
0017994130999992005010218004+47867-089317FM-12+0223ROAM V0202601N012319999999N9999999N1-00331+99999101901ADDMD1110091+9999
0017994130999992005010219004+47867-089317FM-12+0223ROAM V0202601N013919999999N9999999N1-00341+99999101881ADDMD1410001+9999
0017994130999992005010220004+47867-089317FM-12+0223ROAM V0202601N013919999999N9999999N1-00351+99999101931ADDMD1310041+9999
0017994130999992005010221004+47867-089317FM-12+0223ROAM V0202601N012919999999N9999999N1-00401+99999102031ADDMD1310131+9999
0017994130999992005010222004+47867-089317FM-12+0223ROAM V0202601N010819999999N9999999N1-00521+99999102201ADDMD1310321+9999
0017994130999992005010223004+47867-089317FM-12+0223ROAM V0202701N010819999999N9999999N1-00661+99999102341ADDMD1310411+9999
0017994130999992005010300004+47867-089317FM-12+0223ROAM V0202601N011319999999N9999999N1-00811+99999102431ADDMD1110401+9999
0017994130999992005010301004+47867-089317FM-12+0223ROAM V0202701N011319999999N9999999N1-00911+99999102501ADDMD1110301+9999
0017994130999992005010302004+47867-089317FM-12+0223ROAM V0202801N010819999999N9999999N1-01051+99999102601ADDMD1310261+9999
0017994130999992005010303004+47867-089317FM-12+0223ROAM V0202801N009819999999N9999999N1-01131+99999102721ADDMD1310291+9999
0225994130999992005010304004+47867-089317FM-12+0223ROAM V0202901N009319999999N9999999N1-01211+99999102791ADDMD1110291+9999OA139901081REMSYN188CMAN  03044 ROAM4 46/// /2918 11121 40279 51029 90400 333 91221 555 11016 22017 30329 429026 60359 288018 299017 293018 285021 28005 04014 33007 0752023 151022 155024 156023 155021 160022;
0017994130999992005010305004+47867-089317FM-12+0223ROAM V0202901N008219999999N9999999N1-01281+99999102881ADDMD1110281+9999
0183994130999992005010306004+47867-089317FM-12+0223ROAM V0203101N008219999999N9999999N1-01371+99999102931ADDMD1110211+9999OA139900981REMSYN146CMAN  03064 ROAM4 46/// /3116 11137 40293 51021 90600 333 91219 555 11014 22015 30529 430023 60559 304017 299016 301017 294017 29006 057008 06302;
0225994130999992005010307004+47867-089317FM-12+0223ROAM V0203001N008219999999N9999999N1-01441+99999102971ADDMD1110181+9999OA139900881REMSYN188CMAN  03074 ROAM4 46/// /3016 11144 40297 51018 90700 333 91217 555 11014 22014 30647 429020 60659 303014 292015 299014 308014 302 117012 117012 115013 1150096 109098 109100 108096 106093;
0017994130999992005010308004+47867-089317FM-12+0223ROAM V0202901N007219999999N9999999N1-01451+99999103021ADDMD1210141+9999
0017994130999992005010309004+47867-089317FM-12+0223ROAM V0203301N007219999999N9999999N1-01461+99999103041ADDMD1110111+9999
0225994130999992005010310004+47867-089317FM-12+0223ROAM V0203301N010319999999N9999999N1-01571+99999103021ADDMD1110051+9999OA139901131REMSYN188CMAN  03104 ROAM4 46/// /3320 11157 40302 51005 91000 333 91222 555 11017 22018 30945 433023 60959 325019 325018 329017 328015 3216 079016 07009 1007098 106092 105098 103090 103086 102091;
0017994130999992005010311004+47867-089317FM-12+0223ROAM V0203201N008719999999N9999999N1-01571+99999103081ADDMD1310061+9999
0183994130999992005010312004+47867-089317FM-12+0223ROAM V0203301N006219999999N9999999N1-01591+99999103121ADDMD1310081+9999OA139900771REMSYN146CMAN  03124 ROAM4 46/// /3312 11159 40312 53008 91200 333 91215 555 11010 22011 31110 432019 61159 322011 316011 306012 311012 31009 05015 060020;
0017994130999992005010313004+47867-089317FM-12+0223ROAM V0202901N004119999999N9999999N1-01611+99999103161ADDMD1110141+9999
0017994130999992005010314004+47867-089317FM-12+0223ROAM V0202901N005719999999N9999999N1-01621+99999103201ADDMD1210121+9999
0017994130999992005010315004+47867-089317FM-12+0223ROAM V0203301N005719999999N9999999N1-01701+99999103231ADDMD1110111+9999
0017994130999992005010317004+47867-089317FM-12+0223ROAM V0203301N004619999999N9999999N1-01691+99999103271ADDMD1010071+9999
0017994130999992005010318004+47867-089317FM-12+0223ROAM V0203301N006719999999N9999999N1-01701+99999103171ADDMD1810061+9999
0017994130999992005010319004+47867-089317FM-12+0223ROAM V0202901N004119999999N9999999N1-01581+99999103141ADDMD1610171+9999
0017994130999992005010320004+47867-089317FM-12+0223ROAM V0202801N003619999999N9999999N1-01471+99999103101ADDMD1610171+9999
0017994130999992005010321004+47867-089317FM-12+0223ROAM V0203001N003619999999N9999999N1-01341+99999103081ADDMD1610091+9999
0213994130999992005010322004+47867-089317FM-12+0223ROAM V0202901N004619999999N9999999N1-01231+99999103081ADDMD1610061+9999OA139900571REMSYN176CMAN  03224 ROAM4 46/// /2909 11123 40308 56006 92200 333 91211 555 11008 22008 32156 429014 62159 284011 273008 285010 290010 28010 0413 054012 058013 059009143 109136 111139;
0017994130999992005010323004+47867-089317FM-12+0223ROAM V0203001N006219999999N9999999N1-01181+99999103111ADDMD1510001+9999
0017994130999992005010400004+47867-089317FM-12+0223ROAM V0203001N005119999999N9999999N1-01211+99999103091ADDMD1410001+9999
0017994130999992005010401004+47867-089317FM-12+0223ROAM V0203201N005719999999N9999999N1-01211+99999103081ADDMD1010001+9999
0017994130999992005010402004+47867-089317FM-12+0223ROAM V0203201N005119999999N9999999N1-01231+99999103081ADDMD1710031+9999
0017994130999992005010403004+47867-089317FM-12+0223ROAM V0202901N004619999999N9999999N1-01231+99999103111ADDMD1510001+9999
0017994130999992005010404004+47867-089317FM-12+0223ROAM V0203201N004619999999N9999999N1-01251+99999103051ADDMD1810031+9999
0017994130999992005010405004+47867-089317FM-12+0223ROAM V0203301N004619999999N9999999N1-01191+99999103071ADDMD1010001+9999
0183994130999992005010406004+47867-089317FM-12+0223ROAM V0202901N003119999999N9999999N1-01191+99999103051ADDMD1610061+9999OA139900361REMSYN146CMAN  04064 ROAM4 46/// /2906 11119 40305 56006 90600 333 91207 555 11005 22005 30500 434011 60559 292006 286005 313006 329007 33010 05020 086014;
0017994130999992005010407004+47867-089317FM-12+0223ROAM V0203001N003619999999N9999999N1-01211+99999103041ADDMD1410001+9999
0182994130999992005010408004+47867-089317FM-12+0223ROAM V0203201N006219999999N9999999N1-01141+99999103011ADDMD1810061+9999OA139900721REMSYN145CMAN  04084 ROAM4 46/// /3212 11114 40301 58006 90800 333 91214 555 11011 22011 30746 431016 60759 310012 316012 310010 298009 28008 0709 309006;
0017994130999992005010409004+47867-089317FM-12+0223ROAM V0203001N006219999999N9999999N1-01131+99999103021ADDMD1710031+9999
0017994130999992005010410004+47867-089317FM-12+0223ROAM V0202701N005119999999N9999999N1-01091+99999102961ADDMD1810081+9999
0017994130999992005010411004+47867-089317FM-12+0223ROAM V0202801N006219999999N9999999N1-01061+99999102981ADDMD1710031+9999
0017994130999992005010412004+47867-089317FM-12+0223ROAM V0202901N007719999999N9999999N1-01071+99999102981ADDMD1610041+9999
0017994130999992005010413004+47867-089317FM-12+0223ROAM V0203001N008219999999N9999999N1-01141+99999103001ADDMD1210041+9999
0017994130999992005010414004+47867-089317FM-12+0223ROAM V0203201N008719999999N9999999N1-01261+99999103091ADDMD1310111+9999
0017994130999992005010415004+47867-089317FM-12+0223ROAM V0203101N007219999999N9999999N1-01391+99999103131ADDMD1310151+9999
0017994130999992005010416004+47867-089317FM-12+0223ROAM V0203201N006719999999N9999999N1-01421+99999103301ADDMD1310301+9999
0017994130999992005010417004+47867-089317FM-12+0223ROAM V0203201N006219999999N9999999N1-01461+99999103361ADDMD1310271+9999
0017994130999992005010418004+47867-089317FM-12+0223ROAM V0203301N007719999999N9999999N1-01411+99999103341ADDMD1110211+9999
0017994130999992005010419004+47867-089317FM-12+0223ROAM V0203301N008219999999N9999999N1-01361+99999103311ADDMD1010001+9999
0017994130999992005010420004+47867-089317FM-12+0223ROAM V0203201N005119999999N9999999N1-01301+99999103361ADDMD1510001+9999
0017994130999992005010421004+47867-089317FM-12+0223ROAM V0203201N008219999999N9999999N1-01281+99999103391ADDMD1310051+9999
0017994130999992005010422004+47867-089317FM-12+0223ROAM V0203201N007219999999N9999999N1-01331+99999103461ADDMD1310151+9999
0017994130999992005010423004+47867-089317FM-12+0223ROAM V0203101N007219999999N9999999N1-01391+99999103571ADDMD1310211+9999
0017994130999992005010500004+47867-089317FM-12+0223ROAM V0203301N010319999999N9999999N1-01471+99999103661ADDMD1310271+9999
0017994130999992005010501004+47867-089317FM-12+0223ROAM V0203401N009319999999N9999999N1-01551+99999103761ADDMD1110301+9999
0017994130999992005010502004+47867-089317FM-12+0223ROAM V0203301N010819999999N9999999N1-01631+99999103761ADDMD1110191+9999
0017994130999992005010503004+47867-089317FM-12+0223ROAM V0203501N011819999999N9999999N1-01701+99999103771ADDMD1110111+9999
0017994130999992005010504004+47867-089317FM-12+0223ROAM V0203501N011319999999N9999999N1-01751+99999103741ADDMD1010001+9999
0017994130999992005010505004+47867-089317FM-12+0223ROAM V0203501N011319999999N9999999N1-01781+99999103721ADDMD1710041+9999
0017994130999992005010506004+47867-089317FM-12+0223ROAM V0203601N011819999999N9999999N1-01781+99999103711ADDMD1610061+9999
0183994130999992005010507004+47867-089317FM-12+0223ROAM V0203401N009819999999N9999999N1-01751+99999103711ADDMD1710031+9999OA139901181REMSYN146CMAN  05074 ROAM4 46/// /3419 11175 40371 57003 90700 333 91223 555 11016 22017 30609 434028 60659 339018 342019 345020 342023 3420 090019 092014;
0017994130999992005010508004+47867-089317FM-12+0223ROAM V0203401N006719999999N9999999N1-01761+99999103781ADDMD1310061+9999
0017994130999992005010509004+47867-089317FM-12+0223ROAM V0203501N007219999999N9999999N1-01751+99999103771ADDMD1210061+9999
0017994130999992005010510004+47867-089317FM-12+0223ROAM V0203301N007219999999N9999999N1-01811+99999103791ADDMD1110081+9999
0176994130999992005010511004+47867-089317FM-12+0223ROAM V0203401N004119999999N9999999N1-01751+99999103811ADDMD1210031+9999OA139900511REMSYN139CMAN  05114 ROAM4 46/// /3408 11175 40381 52003 91100 333 91210 555 11007 22008 31012 434016 61059 340009 343011 358012 358012 3408 331007;
0177994130999992005010512004+47867-089317FM-12+0223ROAM V0200101N006219999999N9999999N1-01721+99999103701ADDMD1810071+9999OA139900721REMSYN140CMAN 05124 ROAM4 46/// /0112 11172 40370 58007 91200 333 91214 555 11011 22011 31117 433015 61159 002011 346011 345010 345011 337012 339011;
0017994130999992005010513004+47867-089317FM-12+0223ROAM V0203501N005119999999N9999999N1-01751+99999103691ADDMD1710101+9999
0017994130999992005010514004+47867-089317FM-12+0223ROAM V0203601N007219999999N9999999N1-01761+99999103611ADDMD1610201+9999
0017994130999992005010515004+47867-089317FM-12+0223ROAM V0200101N003619999999N9999999N1-01721+99999103751ADDMD1310051+9999
0192994130999992005010516004+47867-089317FM-12+0223ROAM V0200101N005119999999N9999999N1-01651+99999103571ADDMD1810121+9999OA139900571REMSYN155CMAN  05164 ROAM4 46/// /0110 11165 40357 58012 91600 333 91211 555 11008 22009 31517 436013 61559 004009 005010 006009 005010 0008 125009 123010 TIDE1073;
0017994130999992005010517004+47867-089317FM-12+0223ROAM V0203601N002619999999N9999999N1-01551+99999103651ADDMD1110041+9999
0017994130999992005010518004+47867-089317FM-12+0223ROAM V0203501N002119999999N9999999N1-01441+99999103531ADDMD1610221+9999
0017994130999992005010519004+47867-089317FM-12+0223ROAM V0203201N001519999999N9999999N1-01301+99999103401ADDMD1810171+9999
0177994130999992005010520004+47867-089317FM-12+0223ROAM V0203201N004119999999N9999999N1-01211+99999103241ADDMD1810411+9999OA139900511REMSYN140CMAN  05204 ROAM4 46/// /3208 11121 40324 58041 92000 333 91210 555 11007 22008 31940 430010 61959 315007 317008 304004 311004 31006 137004;
0017994130999992005010521004+47867-089317FM-12+0223ROAM V0203001N005719999999N9999999N1-01191+99999103111ADDMD1710421+9999
0017994130999992005010522004+47867-089317FM-12+0223ROAM V0203101N005719999999N9999999N1-01121+99999103011ADDMD1610391+9999
0017994130999992005010523004+47867-089317FM-12+0223ROAM V0202901N006719999999N9999999N1-01061+99999102931ADDMD1610311+9999
0017994130999992005010600004+47867-089317FM-12+0223ROAM V0203101N008219999999N9999999N1-01201+99999102921ADDMD1610191+9999
0017994130999992005010601004+47867-089317FM-12+0223ROAM V0203201N005719999999N9999999N1-01271+99999102881ADDMD1610131+9999
0017994130999992005010602004+47867-089317FM-12+0223ROAM V0203401N004119999999N9999999N1-01291+99999102801ADDMD1810131+9999
0017994130999992005010603004+47867-089317FM-12+0223ROAM V0203401N002619999999N9999999N1-01301+99999102651ADDMD1810271+9999
0017994130999992005010604004+47867-089317FM-12+0223ROAM V0203101N007219999999N9999999N1-01311+99999102521ADDMD1810361+9999
0017994130999992005010605004+47867-089317FM-12+0223ROAM V0203001N004119999999N9999999N1-01271+99999102391ADDMD1610411+9999
0231994130999992005010606004+47867-089317FM-12+0223ROAM V0203001N004619999999N9999999N1-01261+99999102291ADDMD1610361+9999OA139900511REMSYN194CMAN  06064 ROAM4 46/// /3009 11126 40229 56036 90600 333 91210 555 11008 22008 30552 430013 60559 301010 297009 297009 286008 289 008019 007022 008020 01002 60/// 40000 47160 44140 50000 51042;
0017994130999992005010607004+47867-089317FM-12+0223ROAM V0203101N005719999999N9999999N1-01311+99999102181ADDMD1610341+9999
0017994130999992005010608004+47867-089317FM-12+0223ROAM V0203101N006219999999N9999999N1-01281+99999102071ADDMD1810321+9999
0017994130999992005010609004+47867-089317FM-12+0223ROAM V0203101N005719999999N9999999N1-01291+99999101921ADDMD1810371+9999
0183994130999992005010610004+47867-089317FM-12+0223ROAM V0203101N006719999999N9999999N1-01371+99999101891ADDMD1610291+9999OA139900721REMSYN146CMAN  06104 ROAM4 46/// /3113 11137 40189 56029 91000 333 91214 555 11011 22012 30952 431015 60959 312013 313010 320010 310010 31012 22024 268024;
0017994130999992005010611004+47867-089317FM-12+0223ROAM V0203101N006719999999N9999999N1-01361+99999101801ADDMD1610271+9999
0017994130999992005010612004+47867-089317FM-12+0223ROAM V0203001N006219999999N9999999N1-01321+99999101751ADDMD1810171+9999
0017994130999992005010613004+47867-089317FM-12+0223ROAM V0202901N005119999999N9999999N1-01241+99999101721ADDMD1610171+9999
0177994130999992005010614004+47867-089317FM-12+0223ROAM V0203001N005119999999N9999999N1-01241+99999101651ADDMD1810151+9999OA139900621REMSYN140CMAN 06144 ROAM4 46/// /3010 11124 40165 58015 91400 333 91212 555 11009 22010 31345 429013 61359 298010 299010 300010 301009 291009 293009;
0225994130999992005010615004+47867-089317FM-12+0223ROAM V0203001N005719999999N9999999N1-01271+99999101611ADDMD1810141+9999OA139900671REMSYN188CMAN  06154 ROAM4 46/// /3011 11127 40161 58014 91500 333 91213 555 11009 22010 31446 429014 61459 302011 300011 295010 292010 299 000021 004023 001021 0020057 086056 083056 081052 084052;
0000994130999992005010616004+47867-089317FM-12+0223ROAM V0203001N004119999999N9999999N1-01261+99999101521
0017994130999992005010617004+47867-089317FM-12+0223ROAM V0202701N003619999999N9999999N1-01141+99999101431ADDMD1810221+9999
0017994130999992005010618004+47867-089317FM-12+0223ROAM V0202501N005719999999N9999999N1-01011+99999101301ADDMD1810311+9999
0185994130999992005010619004+47867-089317FM-12+0223ROAM V0202501N007719999999N9999999N1-00881+99999999999REMSYN176CMAN  06194 ROAM4 46/// /2515 11088 91900 555 0 57021 91900 222// 00155 333 91218 555 11017 22017 31851 401022 61859 006017 007018 006017 008017 008017 014030054 134053 130057;
0017994130999992005010620004+47867-089317FM-12+0223ROAM V0202401N011819999999N9999999N1-00831+99999101071ADDMD1710361+9999
0219994130999992005010621004+47867-089317FM-12+0223ROAM V0202501N011819999999N9999999N1-00741+99999101031ADDMD1710271+9999OA139901341REMSYN182CMAN  06214 ROAM4 46/// /2523 11074 40103 57027 92100 333 91226 555 11020 22022 32054 425028 62059 245024 240023 245024 241023 246 006016 007016 007016 00704016 326019 316019 295014;
0000994130999992005010622004+47867-089317FM-12+0223ROAM V0202301N011819999999N9999999N1-00661+99999101051
0183994130999992005010623004+47867-089317FM-12+0223ROAM V0202301N012319999999N9999999N1-00611+99999101041ADDMD1610031+9999OA139901391REMSYN146CMAN  06234 ROAM4 46/// /2324 11061 40104 56003 92300 333 91227 555 11021 22022 32240 424032 62259 234025 238025 236024 235024 2322 313023 304020;
0157994130999992005010700004+47867-089317FM-12+0223ROAM V0202401N012919999999N9999999N1-00571+99999101031ADDOA139901491REMSYN134CMAN  07004 ROAM4 46/// /2425 11057 40103 90000 333 91229 555 11022 22023 32341 424030 62359 235025 234025 234025 237025 23026 120009;
0000994130999992005010701004+47867-089317FM-12+0223ROAM V0202401N012919999999N9999999N1-00531+99999101041
0000994130999992005010702004+47867-089317FM-12+0223ROAM V0202401N015919999999N9999999N1-00501+99999100991
0017994130999992005010703004+47867-089317FM-12+0223ROAM V0202401N015419999999N9999999N1-00491+99999101021ADDMD1510001+9999
0017994130999992005010704004+47867-089317FM-12+0223ROAM V0202401N013419999999N9999999N1-00471+99999101021ADDMD1510001+9999
0017994130999992005010705004+47867-089317FM-12+0223ROAM V0202301N014419999999N9999999N1-00451+99999101021ADDMD1110031+9999
0170994130999992005010706004+47867-089317FM-12+0223ROAM V0202401N012919999999N9999999N1-00451+99999101021ADDMD1410001+9999OA139901541REMSYN133CMAN  07064 ROAM4 46/// /2425 11045 40102 54000 90600 333 91230 555 11022 22023 30539 424035 60559 239028 238029 234029 235029 23009;
0017994130999992005010707004+47867-089317FM-12+0223ROAM V0202401N013919999999N9999999N1-00461+99999101031ADDMD1410001+9999
0017994130999992005010708004+47867-089317FM-12+0223ROAM V0202301N014919999999N9999999N1-00461+99999101051ADDMD1210031+9999
0017994130999992005010709004+47867-089317FM-12+0223ROAM V0202301N014419999999N9999999N1-00441+99999101101ADDMD1310081+9999
0017994130999992005010710004+47867-089317FM-12+0223ROAM V0202201N012919999999N9999999N1-00461+99999101111ADDMD1210081+9999
0017994130999992005010711004+47867-089317FM-12+0223ROAM V0202301N010819999999N9999999N1-00481+99999101141ADDMD1110091+9999
0017994130999992005010712004+47867-089317FM-12+0223ROAM V0202201N010319999999N9999999N1-00501+99999101131ADDMD1210031+9999
0017994130999992005010713004+47867-089317FM-12+0223ROAM V0202301N011319999999N9999999N1-00521+99999101161ADDMD1210051+9999
0017994130999992005010714004+47867-089317FM-12+0223ROAM V0202101N011819999999N9999999N1-00541+99999101161ADDMD1410001+9999
0017994130999992005010715004+47867-089317FM-12+0223ROAM V0202501N009819999999N9999999N1-00531+99999101241ADDMD1310111+9999
0017994130999992005010716004+47867-089317FM-12+0223ROAM V0202601N011819999999N9999999N1-00631+99999101331ADDMD1310171+9999
0017994130999992005010717004+47867-089317FM-12+0223ROAM V0202501N012319999999N9999999N1-00731+99999101371ADDMD1110211+9999
0017994130999992005010718004+47867-089317FM-12+0223ROAM V0202401N011319999999N9999999N1-00731+99999101391ADDMD1110151+9999
0217994130999992005010719004+47867-089317FM-12+0223ROAM V0202501N012319999999N9999999N1-00691+99999101351ADDMD1010001+9999OA139901341REMSYN180CMAN  07194 ROAM4 46/// /2524 11069 40135 50000 91900 333 91226 555 11021 22022 31824 425029 61859 243024 237024 240023 242023 242 327012 330011 341010 3370536 8703/ 997 333 91107;
0017994130999992005010720004+47867-089317FM-12+0223ROAM V0202401N012319999999N9999999N1-00651+99999101351ADDMD1410001+9999
0017994130999992005010721004+47867-089317FM-12+0223ROAM V0202401N013419999999N9999999N1-00621+99999101401ADDMD1510001+9999
0017994130999992005010722004+47867-089317FM-12+0223ROAM V0202501N011819999999N9999999N1-00571+99999101521ADDMD1310171+9999
0017994130999992005010723004+47867-089317FM-12+0223ROAM V0202501N008719999999N9999999N1-00561+99999101591ADDMD1310241+9999
0017994130999992005010800004+47867-089317FM-12+0223ROAM V0202701N007219999999N9999999N1-00531+99999101691ADDMD1110291+9999
0017994130999992005010801004+47867-089317FM-12+0223ROAM V0203101N008219999999N9999999N1-00591+99999101771ADDMD1310251+9999
0017994130999992005010802004+47867-089317FM-12+0223ROAM V0203101N009319999999N9999999N1-00751+99999101821ADDMD1110231+9999
0017994130999992005010803004+47867-089317FM-12+0223ROAM V0203301N008219999999N9999999N1-00811+99999101911ADDMD1310221+9999
0213994130999992005010804004+47867-089317FM-12+0223ROAM V0203301N008719999999N9999999N1-00871+99999102001ADDMD1310231+9999OA139900981REMSYN176CMAN  08044 ROAM4 46/// /3317 11087 40200 53023 90400 333 91219 555 11014 22015 30328 433021 60359 329016 330016 333017 330017 326 003006 005005 009004 009034072 343085 348088;
0017994130999992005010805004+47867-089317FM-12+0223ROAM V0203401N008219999999N9999999N1-00941+99999102081ADDMD1110261+9999
0177994130999992005010806004+47867-089317FM-12+0223ROAM V0203501N008219999999N9999999N1-00981+99999102081ADDMD1110171+9999OA139900931REMSYN140CMAN  08064 ROAM4 46/// /3516 11098 40208 51017 90600 333 91218 555 11014 22015 30542 434021 60559 348017 342017 347017 349017 34008 352011;
0017994130999992005010807004+47867-089317FM-12+0223ROAM V0203501N008719999999N9999999N1-00991+99999102171ADDMD1310171+9999
0017994130999992005010808004+47867-089317FM-12+0223ROAM V0203601N006219999999N9999999N1-00991+99999102241ADDMD1310161+9999
0017994130999992005010809004+47867-089317FM-12+0223ROAM V0200101N007219999999N9999999N1-00951+99999102311ADDMD1110231+9999
0017994130999992005010810004+47867-089317FM-12+0223ROAM V0200101N007719999999N9999999N1-00981+99999102311ADDMD1110141+9999
0017994130999992005010811004+47867-089317FM-12+0223ROAM V0200101N008719999999N9999999N1-01001+99999102401ADDMD1310161+9999
0017994130999992005010812004+47867-089317FM-12+0223ROAM V0200101N009819999999N9999999N1-01021+99999102521ADDMD1310211+9999
0177994130999992005010813004+47867-089317FM-12+0223ROAM V0200101N010319999999N9999999N1-01021+99999102541ADDMD1110231+9999OA139901181REMSYN140CMAN  08134 ROAM4 46/// /0120 11102 40254 51023 91300 333 91223 555 11018 22019 31231 403024 61259 017019 018019 019019 017019 01011 095010;
0017994130999992005010814004+47867-089317FM-12+0223ROAM V0200301N009319999999N9999999N1-00981+99999102641ADDMD1110241+9999
0017994130999992005010815004+47867-089317FM-12+0223ROAM V0200401N010319999999N9999999N1-00971+99999102721ADDMD1310201+9999
0225994130999992005010816004+47867-089317FM-12+0223ROAM V0200301N007719999999N9999999N1-00901+99999102821ADDMD1210281+9999OA139900881REMSYN188CMAN  08164 ROAM4 46/// /0315 11090 40282 52028 91600 333 91217 555 11013 22014 31500 405025 61559 035016 034016 042015 056015 06004 04013 11010 085011 0880111 016112 016109 018106 018102;
0213994130999992005010817004+47867-089317FM-12+0223ROAM V0200301N008719999999N9999999N1-00911+99999102811ADDMD1110171+9999OA139900981REMSYN176CMAN  08174 ROAM4 46/// /0317 11091 40281 51017 91700 333 91219 555 11015 22016 31650 402021 61659 029018 030017 028016 026016 035 022013 027013 033012 035026064 324059 318061;
0017994130999992005010818004+47867-089317FM-12+0223ROAM V0200101N009819999999N9999999N1-00931+99999102771ADDMD1010051+9999
0225994130999992005010819004+47867-089317FM-12+0223ROAM V0200301N009819999999N9999999N1-00921+99999102741ADDMD1810081+9999OA139901081REMSYN188CMAN  08194 ROAM4 46/// /0319 11092 40274 58008 91900 333 91221 555 11017 22018 31803 401023 61859 027019 021018 019017 019017 01011 13012 09009 060008 0540037 303032 302036 309040 307043;
0017994130999992005010820004+47867-089317FM-12+0223ROAM V0200601N009319999999N9999999N1-00791+99999102641ADDMD1810171+9999
0017994130999992005010821004+47867-089317FM-12+0223ROAM V0200601N007219999999N9999999N1-00751+99999102661ADDMD1610111+9999
0017994130999992005010822004+47867-089317FM-12+0223ROAM V0200601N005119999999N9999999N1-00681+99999102731ADDMD1510001+9999
0017994130999992005010823004+47867-089317FM-12+0223ROAM V0200701N007719999999N9999999N1-00681+99999102671ADDMD1010031+9999
0183994130999992005010900004+47520-089180FM-12+0223ROAM V0200601N007219999999N9999999N1-00711+99999102701ADDMD1110041+9999OA139900881REMSYN146CMAN  09004 ROAM4 46/// /0614 11071 40270 51004 90000 333 91217 555 11013 22013 32354 406017 62359 062015 057015 058014 059014 06011 13029 175010;
0177994130999992005010901004+47520-089180FM-12+0223ROAM V0200701N007719999999N9999999N1-00671+99999102581ADDMD1810151+9999OA139900881REMSYN140CMAN 09014 ROAM4 46/// /0715 11067 40258 58015 90100 333 91217 555 11013 22014 30029 407018 60059 067015 066015 061015 060015 062015 066015;
0183994130999992005010902004+47520-089180FM-12+0223ROAM V0200701N007719999999N9999999N1-00631+99999102531ADDMD1810141+9999OA139900821REMSYN146CMAN  09024 ROAM4 46/// /0715 11063 40253 58014 90200 333 91216 555 11013 22014 30131 407020 60159 070016 069017 072018 073017 07019 33000 003001;
0017994130999992005010903004+47520-089180FM-12+0223ROAM V0201401N009319999999N9999999N1-00351+99999102421ADDMD1610281+9999
0017994130999992005010904004+47520-089180FM-12+0223ROAM V0201601N006719999999N9999999N1-00311+99999102431ADDMD1610151+9999
0183994130999992005010906004+47520-089180FM-12+0223ROAM V0201601N007219999999N9999999N1-00291+99999102221ADDMD1810201+9999OA139900821REMSYN146CMAN  09064 ROAM4 46/// /1614 11029 40222 58020 90600 333 91216 555 11012 22013 30518 417017 60559 166013 173012 169012 169012 16009 14000 000000;
0017994130999992005010907004+47520-089180FM-12+0223ROAM V0201801N006219999999N9999999N1-00301+99999102141ADDMD1810291+9999
0017994130999992005010908004+47520-089180FM-12+0223ROAM V0202101N008719999999N9999999N1-00331+99999102161ADDMD1610211+9999
0017994130999992005010909004+47520-089180FM-12+0223ROAM V0202001N007219999999N9999999N1-00381+99999102181ADDMD1610041+9999
0017994130999992005010910004+47520-089180FM-12+0223ROAM V0202101N006719999999N9999999N1-00411+99999102101ADDMD1810041+9999
0017994130999992005010911004+47520-089180FM-12+0223ROAM V0202301N004619999999N9999999N1-00421+99999102021ADDMD1810141+9999
0017994130999992005010912004+47520-089180FM-12+0223ROAM V0201901N005719999999N9999999N1-00411+99999101921ADDMD1810261+9999
0017994130999992005010913004+47520-089180FM-12+0223ROAM V0202101N006719999999N9999999N1-00411+99999101891ADDMD1610211+9999
0017994130999992005010914004+47520-089180FM-12+0223ROAM V0202001N007719999999N9999999N1-00391+99999101851ADDMD1610171+9999
0017994130999992005010915004+47520-089180FM-12+0223ROAM V0202101N008219999999N9999999N1-00371+99999101831ADDMD1610091+9999
0017994130999992005010916004+47520-089180FM-12+0223ROAM V0202401N006719999999N9999999N1-00371+99999101851ADDMD1610041+9999
0017994130999992005010917004+47520-089180FM-12+0223ROAM V0202001N008719999999N9999999N1-00361+99999101691ADDMD1810161+9999
0207994130999992005010918004+47520-089180FM-12+0223ROAM V0202001N009819999999N9999999N1-00361+99999101501ADDMD1810331+9999OA139901081REMSYN170CMAN  09184 ROAM4 46/// /2019 11036 40150 58033 91800 333 91221 555 11016 22017 31746 422022 61759 204018 211019 208017 206016 207 052005 047005 049007 0460061016 049018;
0017994130999992005010919004+47520-089180FM-12+0223ROAM V0202101N010819999999N9999999N1-00391+99999101451ADDMD1610401+9999
0017994130999992005010920004+47520-089180FM-12+0223ROAM V0202401N008719999999N9999999N1-00421+99999101341ADDMD1610351+9999
0017994130999992005010921004+47520-089180FM-12+0223ROAM V0202301N006719999999N9999999N1-00391+99999101211ADDMD1810291+9999
0017994130999992005010922004+47520-089180FM-12+0223ROAM V0202601N011319999999N9999999N1-00351+99999101191ADDMD1610261+9999
0017994130999992005010923004+47520-089180FM-12+0223ROAM V0202701N010319999999N9999999N1-00461+99999101161ADDMD1610181+9999
0183994130999992005011000004+47867-089317FM-12+0223ROAM V0203001N010319999999N9999999N1-00511+99999101121ADDMD1810091+9999OA139901131REMSYN146CMAN  10004 ROAM4 46/// /3020 11051 40112 58009 90000 333 91222 555 11018 22019 32310 428023 62359 289019 282020 286019 285019 2804 134003 144004;
0017994130999992005011001004+47867-089317FM-12+0223ROAM V0203001N010819999999N9999999N1-00571+99999101171ADDMD1510001+9999
0017994130999992005011002004+47867-089317FM-12+0223ROAM V0203001N013419999999N9999999N1-00591+99999101221ADDMD1310061+9999
0017994130999992005011003004+47867-089317FM-12+0223ROAM V0202901N013419999999N9999999N1-00681+99999101321ADDMD1310201+9999
0017994130999992005011004004+47867-089317FM-12+0223ROAM V0202901N009319999999N9999999N1-00751+99999101451ADDMD1310281+9999
0017994130999992005011005004+47867-089317FM-12+0223ROAM V0202801N010819999999N9999999N1-00801+99999101551ADDMD1210331+9999
0017994130999992005011006004+47867-089317FM-12+0223ROAM V0202801N011319999999N9999999N1-00851+99999101591ADDMD1110271+9999
0017994130999992005011007004+47867-089317FM-12+0223ROAM V0202801N010819999999N9999999N1-00941+99999101711ADDMD1310261+9999
0017994130999992005011008004+47867-089317FM-12+0223ROAM V0202701N011819999999N9999999N1-01001+99999101821ADDMD1310271+9999
0017994130999992005011009004+47867-089317FM-12+0223ROAM V0202901N010319999999N9999999N1-01051+99999101871ADDMD1110281+9999
0017994130999992005011010004+47867-089317FM-12+0223ROAM V0202901N009319999999N9999999N1-01081+99999101951ADDMD1110241+9999
0017994130999992005011011004+47867-089317FM-12+0223ROAM V0203101N010319999999N9999999N1-01141+99999102061ADDMD1310241+9999
0017994130999992005011012004+47867-089317FM-12+0223ROAM V0203001N008719999999N9999999N1-01201+99999102201ADDMD1310331+9999
0177994130999992005011013004+47867-089317FM-12+0223ROAM V0203101N009819999999N9999999N1-01251+99999102271ADDMD1110321+9999OA139901131REMSYN140CMAN  10134 ROAM4 46/// /3119 11125 40227 51032 91300 333 91222 555 11016 22017 31239 431025 61259 302019 304020 304019 315018 30010 074008;
0017994130999992005011014004+47867-089317FM-12+0223ROAM V0203001N009319999999N9999999N1-01301+99999102371ADDMD1110311+9999
0017994130999992005011015004+47867-089317FM-12+0223ROAM V0203201N008219999999N9999999N1-01321+99999102471ADDMD1310271+9999
0017994130999992005011016004+47867-089317FM-12+0223ROAM V0203201N006719999999N9999999N1-01311+99999102531ADDMD1110261+9999
0017994130999992005011017004+47867-089317FM-12+0223ROAM V0203401N005119999999N9999999N1-01241+99999102551ADDMD1110181+9999
0017994130999992005011018004+47867-089317FM-12+0223ROAM V0202801N005119999999N9999999N1-01191+99999102551ADDMD1110081+9999
0017994130999992005011019004+47867-089317FM-12+0223ROAM V0202601N004619999999N9999999N1-01131+99999102471ADDMD1810061+9999
0017994130999992005011020004+47867-089317FM-12+0223ROAM V0202601N005719999999N9999999N1-01081+99999102511ADDMD1510041+9999
0017994130999992005011021004+47867-089317FM-12+0223ROAM V0202701N003619999999N9999999N1-01031+99999102521ADDMD1610031+9999
0017994130999992005011022004+47867-089317FM-12+0223ROAM V0202701N005119999999N9999999N1-01021+99999102551ADDMD1110081+9999
0017994130999992005011023004+47867-089317FM-12+0223ROAM V0202801N004619999999N9999999N1-01021+99999102561ADDMD1210051+9999
0017994130999992005011100004+47867-089317FM-12+0223ROAM V0203301N003619999999N9999999N1-01041+99999102531ADDMD1010001+9999
0017994130999992005011101004+47867-089317FM-12+0223ROAM V0203401N004119999999N9999999N1-01051+99999102531ADDMD1410001+9999
0017994130999992005011102004+47867-089317FM-12+0223ROAM V0203601N004619999999N9999999N1-01071+99999102481ADDMD1810081+9999
0017994130999992005011103004+47867-089317FM-12+0223ROAM V0203601N003619999999N9999999N1-01061+99999102451ADDMD1810081+9999
0017994130999992005011104004+47867-089317FM-12+0223ROAM V0200201N003619999999N9999999N1-01051+99999102411ADDMD1610121+9999
0017994130999992005011105004+47867-089317FM-12+0223ROAM V0200401N002619999999N9999999N1-01011+99999102391ADDMD1610091+9999
0017994130999992005011106004+47867-089317FM-12+0223ROAM V0200701N003119999999N9999999N1-00981+99999102351ADDMD1710101+9999
0017994130999992005011107004+47867-089317FM-12+0223ROAM V0200801N002119999999N9999999N1-00931+99999102291ADDMD1810121+9999
0201994130999992005011108004+47867-089317FM-12+0223ROAM V0200801N002619999999N9999999N1-00911+99999102311ADDMD1610081+9999OA139900311REMSYN164CMAN  11084 ROAM4 46/// /0805 11091 40231 56008 90800 333 91206 555 11004 22005 30706 408007 60759 060003 073003 081002 067004 079 137008 144009 146008 1440 023045;
0017994130999992005011109004+47867-089317FM-12+0223ROAM V0200501N003119999999N9999999N1-00871+99999102261ADDMD1610091+9999
0017994130999992005011110004+47867-089317FM-12+0223ROAM V0200501N003119999999N9999999N1-00801+99999102181ADDMD1810111+9999
0017994130999992005011111004+47867-089317FM-12+0223ROAM V0203601N003119999999N9999999N1-00731+99999102141ADDMD1610171+9999
0017994130999992005011112004+47867-089317FM-12+0223ROAM V0203501N004619999999N9999999N1-00781+99999102101ADDMD1610161+9999
0017994130999992005011113004+47867-089317FM-12+0223ROAM V0203601N003119999999N9999999N1-00761+99999102101ADDMD1610081+9999
0017994130999992005011114004+47867-089317FM-12+0223ROAM V0203601N006719999999N9999999N1-00821+99999102081ADDMD1610061+9999
0017994130999992005011115004+47867-089317FM-12+0223ROAM V0203601N005119999999N9999999N1-00831+99999102101ADDMD1410001+9999
0225994130999992005011116004+47867-089317FM-12+0223ROAM V0200101N004119999999N9999999N1-00851+99999102131ADDMD1310031+9999OA139900461REMSYN188CMAN  11164 ROAM4 46/// /0108 11085 40213 53003 91600 333 91209 555 11007 22007 31508 436012 61559 005008 357009 000009 000008 003 154013 157013 156011 1550027 025026 021026 008029 007029;
0177994130999992005011117004+47867-089317FM-12+0223ROAM V0203501N004119999999N9999999N1-00841+99999102051ADDMD1810031+9999OA139900461REMSYN140CMAN  11174 ROAM4 46/// /3508 11084 40205 58003 91700 333 91209 555 11007 22007 31610 401010 61659 347008 355007 344008 346007 35019 002017;
0017994130999992005011118004+47867-089317FM-12+0223ROAM V0200101N003119999999N9999999N1-00811+99999102051ADDMD1810051+9999
0017994130999992005011119004+47867-089317FM-12+0223ROAM V0200401N004119999999N9999999N1-00781+99999101971ADDMD1710161+9999
0017994130999992005011120004+47867-089317FM-12+0223ROAM V0200201N003619999999N9999999N1-00691+99999101961ADDMD1710091+9999
0017994130999992005011121004+47867-089317FM-12+0223ROAM V0200401N002119999999N9999999N1-00621+99999101891ADDMD1610161+9999
0017994130999992005011122004+47867-089317FM-12+0223ROAM V0201701N002619999999N9999999N1-00541+99999101951ADDMD1510001+9999
0017994130999992005011123004+47867-089317FM-12+0223ROAM V0201501N003619999999N9999999N1-00501+99999101891ADDMD1610071+9999
0017994130999992005011200004+47867-089317FM-12+0223ROAM V0201701N002119999999N9999999N1-00451+99999101861ADDMD1810031+9999
0017994130999992005011201004+47867-089317FM-12+0223ROAM V0201601N003619999999N9999999N1-00421+99999101821ADDMD1610131+9999
0017994130999992005011202004+47867-089317FM-12+0223ROAM V0201501N004619999999N9999999N1-00411+99999101771ADDMD1810121+9999
0017994130999992005011203004+47867-089317FM-12+0223ROAM V0201501N004119999999N9999999N1-00381+99999101751ADDMD1610111+9999
0017994130999992005011204004+47867-089317FM-12+0223ROAM V0201701N004119999999N9999999N1-00361+99999101701ADDMD1710121+9999
0017994130999992005011205004+47867-089317FM-12+0223ROAM V0201401N003119999999N9999999N1-00351+99999101621ADDMD1810151+9999
0017994130999992005011206004+47867-089317FM-12+0223ROAM V0201501N005119999999N9999999N1-00301+99999101601ADDMD1610151+9999
0017994130999992005011207004+47867-089317FM-12+0223ROAM V0201301N004119999999N9999999N1-00281+99999101531ADDMD1610171+9999
0017994130999992005011208004+47867-089317FM-12+0223ROAM V0200801N005119999999N9999999N1-00311+99999101431ADDMD1810191+9999
0017994130999992005011209004+47867-089317FM-12+0223ROAM V0200601N005119999999N9999999N1-00321+99999101311ADDMD1810291+9999
0017994130999992005011210004+47867-089317FM-12+0223ROAM V0200601N005719999999N9999999N1-00271+99999101261ADDMD1610271+9999
0183994130999992005011211004+47867-089317FM-12+0223ROAM V0200401N007219999999N9999999N1-00211+99999101121ADDMD1810311+9999OA139900771REMSYN146CMAN  12114 ROAM4 46/// /0414 11021 40112 58031 91100 333 91215 555 11012 22013 31059 404015 61059 040013 047012 056012 059012 0518 031017 040017;
0017994130999992005011212004+47867-089317FM-12+0223ROAM V0200501N008219999999N9999999N1-00151+99999100961ADDMD1810351+9999
0017994130999992005011213004+47867-089317FM-12+0223ROAM V0200601N006719999999N9999999N1-00121+99999100831ADDMD1610431+9999
0017994130999992005011214004+47867-089317FM-12+0223ROAM V0200901N010319999999N9999999N1+00011+99999100641ADDMD1810481+9999
0017994130999992005011215004+47867-089317FM-12+0223ROAM V0200901N008719999999N9999999N1+00011+99999100551ADDMD1610411+9999
0017994130999992005011216004+47867-089317FM-12+0223ROAM V0201001N012919999999N9999999N1+00021+99999100341ADDMD1810491+9999
0017994130999992005011217004+47867-089317FM-12+0223ROAM V0201001N013919999999N9999999N1+00011+99999100151ADDMD1810491+9999
0017994130999992005011218004+47867-089317FM-12+0223ROAM V0201101N015419999999N9999999N1-00011+99999099871ADDMD1810681+9999
0225994130999992005011219004+47867-089317FM-12+0223ROAM V0201101N012919999999N9999999N1-00011+99999099751ADDMD1610591+9999OA139901391REMSYN188CMAN  12194 ROAM4 46/// /1125 11001 49975 56059 91900 333 91227 555 11022 22023 31804 411032 61859 111024 110026 108025 105025 104 155023 156023 154022 1550056 350050 352053 346051 347051;
0017994130999992005011220004+47867-089317FM-12+0223ROAM V0201401N010319999999N9999999N1+00001+99999099701ADDMD1610451+9999
0017994130999992005011221004+47867-089317FM-12+0223ROAM V0201401N007719999999N9999999N1+00001+99999099601ADDMD1610271+9999
0017994130999992005011222004+47867-089317FM-12+0223ROAM V0201601N008719999999N9999999N1+00001+99999099601ADDMD1610151+9999
0017994130999992005011223004+47867-089317FM-12+0223ROAM V0201901N010319999999N9999999N1+00031+99999099511ADDMD1610191+9999
0017994130999992005011300004+47867-089317FM-12+0223ROAM V0202201N009819999999N9999999N1+00081+99999099501ADDMD1710101+9999
0017994130999992005011301004+47867-089317FM-12+0223ROAM V0202401N011319999999N9999999N1+00081+99999099511ADDMD1610091+9999
0017994130999992005011302004+47867-089317FM-12+0223ROAM V0202501N012919999999N9999999N1+00071+99999099501ADDMD1410001+9999
0017994130999992005011303004+47867-089317FM-12+0223ROAM V0202401N012919999999N9999999N1+00091+99999099531ADDMD1310031+9999
0017994130999992005011304004+47867-089317FM-12+0223ROAM V0202501N013919999999N9999999N1+00081+99999099561ADDMD1310051+9999
0017994130999992005011305004+47867-089317FM-12+0223ROAM V0202801N012319999999N9999999N1-00071+99999099651ADDMD1310151+9999
0017994130999992005011306004+47867-089317FM-12+0223ROAM V0202701N011819999999N9999999N1-00161+99999099861ADDMD1310331+9999
0017994130999992005011307004+47867-089317FM-12+0223ROAM V0202701N010819999999N9999999N1-00211+99999099941ADDMD1110381+9999
0225994130999992005011308004+47867-089317FM-12+0223ROAM V0202801N013919999999N9999999N1-00281+99999100031ADDMD1110381+9999OA139901491REMSYN188CMAN  13084 ROAM4 46/// /2827 11028 40003 51038 90800 333 91229 555 11023 22025 30725 427032 60759 281026 283026 282027 274027 274 328017 339019 283015 2420033 039029 034023 014031 035024;
0017994130999992005011309004+47867-089317FM-12+0223ROAM V0202701N012319999999N9999999N1-00311+99999100061ADDMD1110201+9999
0017994130999992005011310004+47867-089317FM-12+0223ROAM V0202801N010319999999N9999999N1-00401+99999100181ADDMD1310241+9999
0017994130999992005011311004+47867-089317FM-12+0223ROAM V0202801N009819999999N9999999N1-00461+99999100261ADDMD1310231+9999
0017994130999992005011312004+47867-089317FM-12+0223ROAM V0202901N009319999999N9999999N1-00531+99999100361ADDMD1110301+9999
0017994130999992005011313004+47867-089317FM-12+0223ROAM V0202901N010319999999N9999999N1-00711+99999100391ADDMD1110211+9999
0017994130999992005011314004+47867-089317FM-12+0223ROAM V0202901N010819999999N9999999N1-00891+99999100631ADDMD1310371+9999
0177994130999992005011316004+47867-089317FM-12+0223ROAM V0202901N013419999999N9999999N1-01451+99999100991ADDMD1110601+9999OA139901441REMSYN140CMAN  13164 ROAM4 46/// /2926 11145 40099 51060 91600 333 91228 555 11022 22024 31521 428033 61559 286026 282027 277027 276027 27011 327012;
0017994130999992005011317004+47867-089317FM-12+0223ROAM V0202801N011319999999N9999999N1-01541+99999101081ADDMD1110451+9999
0017994130999992005011318004+47867-089317FM-12+0223ROAM V0202801N013419999999N9999999N1-01621+99999101061ADDMD1110241+9999
0270994130999992005011319004+47867-089317FM-12+0223ROAM V0202801N013919999999N9999999N1-01671+99999101041ADDMD1110051+9999OA139901491REMSYN233CMAN  13194 ROAM4 46/// /2827 11167 40104 51005 91900 333 91229 555 11023 22025 31846 428036 61859 279027 281030 282029 284029 288 326018 324019 329018 3250 62750 73208 73604 80007 80007 80007 87275 EEE EEE EEE IAWUTV IUAUTV RLYWKWQ;
0017994130999992005011320004+47867-089317FM-12+0223ROAM V0202901N013919999999N9999999N1-01691+99999101131ADDMD1310051+9999
0017994130999992005011321004+47867-089317FM-12+0223ROAM V0202801N014419999999N9999999N1-01741+99999101301ADDMD1310241+9999
0017994130999992005011322004+47867-089317FM-12+0223ROAM V0202801N015919999999N9999999N1-01901+99999101461ADDMD1310421+9999
0017994130999992005011323004+47867-089317FM-12+0223ROAM V0202901N017019999999N9999999N1-02001+99999101591ADDMD1110461+9999
0017994130999992005011400004+47867-089317FM-12+0223ROAM V0202901N014419999999N9999999N1-02031+99999101801ADDMD1310501+9999
0017994130999992005011401004+47867-089317FM-12+0223ROAM V0202901N015419999999N9999999N1-02101+99999101931ADDMD1210471+9999
0017994130999992005011402004+47867-089317FM-12+0223ROAM V0202901N011819999999N9999999N1-02101+99999102071ADDMD1110481+9999
0017994130999992005011403004+47867-089317FM-12+0223ROAM V0202901N011319999999N9999999N1-02131+99999102171ADDMD1110371+9999
0017994130999992005011404004+47867-089317FM-12+0223ROAM V0202801N013919999999N9999999N1-02121+99999102231ADDMD1110301+9999
0017994130999992005011405004+47867-089317FM-12+0223ROAM V0202801N012919999999N9999999N1-02161+99999102321ADDMD1110251+9999
0017994130999992005011406004+47867-089317FM-12+0223ROAM V0202801N013919999999N9999999N1-02161+99999102401ADDMD1310231+9999
0017994130999992005011407004+47867-089317FM-12+0223ROAM V0202901N013919999999N9999999N1-02191+99999102481ADDMD1110251+9999
0017994130999992005011408004+47867-089317FM-12+0223ROAM V0202901N012919999999N9999999N1-02171+99999102621ADDMD1310301+9999
0192994130999992005011409004+47867-089317FM-12+0223ROAM V0203001N011319999999N9999999N1-02171+99999102721ADDMD1310321+9999OA139901241REMSYN155CMAN  14094 ROAM4 46/// /3022 11217 40272 53032 90900 333 91224 555 11019 22020 30808 429036 60859 293024 292023 294025 292026 2916 334017 334017 TIDE1178;
0017994130999992005011410004+47867-089317FM-12+0223ROAM V0202801N011819999999N9999999N1-02161+99999102791ADDMD1110311+9999
0017994130999992005011411004+47867-089317FM-12+0223ROAM V0202901N010819999999N9999999N1-02181+99999102901ADDMD1310281+9999
0017994130999992005011412004+47867-089317FM-12+0223ROAM V0202901N013419999999N9999999N1-02201+99999102961ADDMD1110241+9999
0017994130999992005011413004+47867-089317FM-12+0223ROAM V0202901N014419999999N9999999N1-02141+99999103041ADDMD1110251+9999
0017994130999992005011414004+47867-089317FM-12+0223ROAM V0203001N011819999999N9999999N1-02211+99999103171ADDMD1310271+9999
0017994130999992005011415004+47867-089317FM-12+0223ROAM V0203101N010319999999N9999999N1-02221+99999103311ADDMD1310351+9999
0017994130999992005011416004+47867-089317FM-12+0223ROAM V0203001N010819999999N9999999N1-02111+99999103361ADDMD1110321+9999
0017994130999992005011417004+47867-089317FM-12+0223ROAM V0202901N009319999999N9999999N1-02031+99999103401ADDMD1110231+9999
0017994130999992005011419004+47867-089317FM-12+0223ROAM V0202701N009819999999N9999999N1-01791+99999103331ADDMD1710031+9999
0017994130999992005011420004+47867-089317FM-12+0223ROAM V0202701N012919999999N9999999N1-01681+99999103231ADDMD1710171+9999
0000994130999992005011421004+47867-089317FM-12+0223ROAM V0202601N015919999999N9999999N1-01641+99999103161
0017994130999992005011422004+47867-089317FM-12+0223ROAM V0202601N013919999999N9999999N1-01641+99999103161ADDMD1610171+9999
0017994130999992005011423004+47867-089317FM-12+0223ROAM V0202701N015419999999N9999999N1-01571+99999103121ADDMD1610111+9999
0017994130999992005011500004+47867-089317FM-12+0223ROAM V0202701N017519999999N9999999N1-01641+99999103141ADDMD1410001+9999
0017994130999992005011501004+47867-089317FM-12+0223ROAM V0202601N018519999999N9999999N1-01671+99999103151ADDMD1510001+9999
0204994130999992005011502004+47867-089317FM-12+0223ROAM V0202601N018519999999N9999999N1-01711+99999103131ADDMD1410001+9999OA139902211REMSYN167CMAN  15024 ROAM4 46/// /2636 11171 40313 54000 90200 333 91243 555 11031 22034 30124 425044 60159 260035 266034 264035 264035 269 015009 012008 009008 01205 TIDE0990;
0017994130999992005011503004+47867-089317FM-12+0223ROAM V0202701N016419999999N9999999N1-01751+99999103181ADDMD1310041+9999
0183994130999992005011504004+47867-089317FM-12+0223ROAM V0202701N013919999999N9999999N1-01751+99999103191ADDMD1210041+9999OA139901601REMSYN146CMAN  15044 ROAM4 46/// /2727 11175 40319 52004 90400 333 91231 555 11024 22025 30303 426037 60359 274028 266027 264028 265028 26014 08006 084005;
0017994130999992005011505004+47867-089317FM-12+0223ROAM V0202701N011319999999N9999999N1-01811+99999103241ADDMD1210111+9999
0017994130999992005011506004+47867-089317FM-12+0223ROAM V0202801N012919999999N9999999N1-01781+99999103211ADDMD1010031+9999
0225994130999992005011507004+47867-089317FM-12+0223ROAM V0202801N013919999999N9999999N1-01901+99999103231ADDMD1110041+9999OA139901491REMSYN188CMAN  15074 ROAM4 46/// /2827 11190 40323 51004 90700 333 91229 555 11023 22025 30653 427031 60659 272027 274026 271025 275025 263 054013 067013 067014 0650071 115075 119077 116076 114077;
0017994130999992005011508004+47867-089317FM-12+0223ROAM V0202801N013919999999N9999999N1-01981+99999103251ADDMD1510001+9999
0183994130999992005011509004+47867-089317FM-12+0223ROAM V0202901N012319999999N9999999N1-02181+99999103371ADDMD1310161+9999OA139901391REMSYN146CMAN  15094 ROAM4 46/// /2924 11218 40337 53016 90900 333 91227 555 11021 22023 30815 428033 60859 280025 282025 280025 275026 2814 286014 287013;
0017994130999992005011510004+47867-089317FM-12+0223ROAM V0202801N012919999999N9999999N1-02231+99999103401ADDMD1310171+9999
0017994130999992005011511004+47867-089317FM-12+0223ROAM V0202701N010819999999N9999999N1-02241+99999103451ADDMD1110201+9999
0207994130999992005011512004+47867-089317FM-12+0223ROAM V0202801N011819999999N9999999N1-02301+99999103501ADDMD1310131+9999OA139901441REMSYN170CMAN  15124 ROAM4 46/// /2823 11230 40350 53013 91200 333 91228 555 11020 22022 31118 427032 61159 281024 278026 276026 277026 2722 339022 330072 60300 70000 77R// 7RD//;
0017994130999992005011513004+47867-089317FM-12+0223ROAM V0202801N011819999999N9999999N1-02331+99999103561ADDMD1310161+9999
0017994130999992005011514004+47867-089317FM-12+0223ROAM V0203001N012919999999N9999999N1-02401+99999103621ADDMD1310171+9999
0017994130999992005011515004+47867-089317FM-12+0223ROAM V0202901N013919999999N9999999N1-02401+99999103691ADDMD1310191+9999
0017994130999992005011516004+47867-089317FM-12+0223ROAM V0202801N011319999999N9999999N1-02481+99999103811ADDMD1310251+9999
0017994130999992005011517004+47867-089317FM-12+0223ROAM V0203001N009819999999N9999999N1-02461+99999103871ADDMD1110251+9999
0017994130999992005011518004+47867-089317FM-12+0223ROAM V0203101N010819999999N9999999N1-02441+99999103881ADDMD1110191+9999
0017994130999992005011519004+47867-089317FM-12+0223ROAM V0202801N008719999999N9999999N1-02381+99999103891ADDMD1110081+9999
0287994130999992005011520004+47867-089317FM-12+0223ROAM V0202801N007219999999N9999999N1-02321+99999103901ADDMD1210031+9999OA139900981REMSYN250CMAN  15204 ROAM4 46/// /2814 11232 40390 52003 92000 333 91219 555 11012 22013 31930 428022 61959 279017 287017 276018 285017 285 028014 026014 023013 02700 11011 21021 40176 56006 92000 333 91237 555 11029 22031 31955 405037 61959 047032 046029 044
0017994130999992005011521004+47867-089317FM-12+0223ROAM V0202801N007219999999N9999999N1-02261+99999103911ADDMD1210031+9999
0017994130999992005011522004+47867-089317FM-12+0223ROAM V0202801N009819999999N9999999N1-02191+99999103931ADDMD1210041+9999
0017994130999992005011523004+47867-089317FM-12+0223ROAM V0202701N010819999999N9999999N1-02131+99999103971ADDMD1310071+9999
0017994130999992005011600004+47867-089317FM-12+0223ROAM V0202801N010819999999N9999999N1-02131+99999103871ADDMD1810041+9999
0183994130999992005011601004+47867-089317FM-12+0223ROAM V0202801N012919999999N9999999N1-02121+99999104041ADDMD1310111+9999OA139901541REMSYN146CMAN  16014 ROAM4 46/// /2825 11212 40404 53011 90100 333 91230 555 11022 22023 30052 428031 60059 277026 280025 280024 282024 27015 07030 048031;
0017994130999992005011602004+47867-089317FM-12+0223ROAM V0202801N011819999999N9999999N1-02081+99999104061ADDMD1310091+9999
0017994130999992005011603004+47867-089317FM-12+0223ROAM V0203001N012319999999N9999999N1-02071+99999104051ADDMD1110181+9999
0225994130999992005011604004+47867-089317FM-12+0223ROAM V0202901N012919999999N9999999N1-02101+99999104081ADDMD1310041+9999OA139901491REMSYN188CMAN  16044 ROAM4 46/// /2925 11210 40408 53004 90400 333 91229 555 11022 22023 30350 430034 60359 292024 299025 293024 293023 280327 40205 60349 017040 016043 016043 019041 020042 016040;
0017994130999992005011605004+47867-089317FM-12+0223ROAM V0202901N009819999999N9999999N1-02091+99999104101ADDMD1210041+9999
0017994130999992005011606004+47867-089317FM-12+0223ROAM V0203101N007719999999N9999999N1-02081+99999104101ADDMD1110051+9999
0183994130999992005011607004+47867-089317FM-12+0223ROAM V0203101N007719999999N9999999N1-02091+99999104061ADDMD1010001+9999OA139900931REMSYN146CMAN  16074 ROAM4 46/// /3115 11209 40406 50000 90700 333 91218 555 11013 22014 30621 429021 60659 313016 308015 298014 293016 2928 054028 051029;
0017994130999992005011608004+47867-089317FM-12+0223ROAM V0203101N007219999999N9999999N1-02101+99999104041ADDMD1710061+9999
0017994130999992005011609004+47867-089317FM-12+0223ROAM V0203101N007219999999N9999999N1-02111+99999104061ADDMD1610041+9999
0017994130999992005011610004+47867-089317FM-12+0223ROAM V0203401N006719999999N9999999N1-02121+99999104041ADDMD1410001+9999
0017994130999992005011611004+47867-089317FM-12+0223ROAM V0203201N008219999999N9999999N1-02181+99999104041ADDMD1410001+9999
0017994130999992005011612004+47867-089317FM-12+0223ROAM V0203301N006219999999N9999999N1-02191+99999104061ADDMD1410001+9999
0017994130999992005011613004+47867-089317FM-12+0223ROAM V0203501N006719999999N9999999N1-02191+99999104041ADDMD1410001+9999
0204994130999992005011614004+47867-089317FM-12+0223ROAM V0203201N008219999999N9999999N1-02161+99999103991ADDMD1810051+9999OA139900981REMSYN167CMAN  16144 ROAM4 46/// /3216 11216 40399 58005 91400 333 91219 555 11014 22015 31339 433019 61359 318015 317014 334014 334013 33010 070 316018 321018 326018 TIDE1015;
0017994130999992005011615004+47867-089317FM-12+0223ROAM V0203401N007219999999N9999999N1-02221+99999104051ADDMD1510001+9999
0017994130999992005011616004+47867-089317FM-12+0223ROAM V0203301N006719999999N9999999N1-02231+99999104071ADDMD1310031+9999
0017994130999992005011617004+47867-089317FM-12+0223ROAM V0203301N006719999999N9999999N1-02241+99999104071ADDMD1110081+9999
0017994130999992005011618004+47867-089317FM-12+0223ROAM V0203401N006719999999N9999999N1-02261+99999103991ADDMD1810061+9999
0017994130999992005011619004+47867-089317FM-12+0223ROAM V0203301N006719999999N9999999N1-02221+99999103921ADDMD1810151+9999
0017994130999992005011620004+47867-089317FM-12+0223ROAM V0203301N005119999999N9999999N1-02191+99999103931ADDMD1610141+9999
0017994130999992005011621004+47867-089317FM-12+0223ROAM V0202901N004619999999N9999999N1-02131+99999103921ADDMD1610071+9999
0017994130999992005011622004+47867-089317FM-12+0223ROAM V0203101N007219999999N9999999N1-02101+99999103921ADDMD1410001+9999
0017994130999992005011623004+47867-089317FM-12+0223ROAM V0203001N007719999999N9999999N1-02121+99999103991ADDMD1310061+9999
0017994130999992005011700004+47520-089180FM-12+0223ROAM V0203001N008719999999N9999999N1-02171+99999104031ADDMD1310111+9999
0017994130999992005011701004+47520-089180FM-12+0223ROAM V0203201N008219999999N9999999N1-02251+99999104071ADDMD1110151+9999
0017994130999992005011702004+47520-089180FM-12+0223ROAM V0203201N009819999999N9999999N1-02331+99999104081ADDMD1110091+9999
0017994130999992005011703004+47520-089180FM-12+0223ROAM V0203401N009819999999N9999999N1-02391+99999104131ADDMD1310101+9999
0017994130999992005011704004+47520-089180FM-12+0223ROAM V0203601N009819999999N9999999N1-02411+99999104141ADDMD1210071+9999
0017994130999992005011705004+47520-089180FM-12+0223ROAM V0203401N009819999999N9999999N1-02411+99999104191ADDMD1210111+9999
0017994130999992005011705004+47867-089317FM-12+0223ROAM V0203401N009819999999N9999999N1-02411+99999104191ADDMD1210111+9999
0195994130999992005011706004+47520-089180FM-12+0223ROAM V0203301N010819999999N9999999N1-02451+99999104191ADDMD1210061+9999OA139901341REMSYN158CMAN  17064 ROAM4 46/// /3321 11245 40419 52006 90600 333 91226 555 11019 22020 30514 434027 60559 340021 346020 343019 335020 34 336022 336023 336022 334022;
0017994130999992005011707004+47520-089180FM-12+0223ROAM V0203501N011319999999N9999999N1-02481+99999104221ADDMD1110081+9999
0177994130999992005011708004+47520-089180FM-12+0223ROAM V0203601N012919999999N9999999N1-02511+99999104231ADDMD1210041+9999OA139901541REMSYN140CMAN  17084 ROAM4 46/// /3625 11251 40423 52004 90800 333 91230 555 11022 22023 30753 435031 60759 355026 345024 345023 340022 33007 095032;
0017994130999992005011709004+47520-089180FM-12+0223ROAM V0203501N011319999999N9999999N1-02491+99999104301ADDMD1310111+9999
0017994130999992005011710004+47520-089180FM-12+0223ROAM V0203501N011319999999N9999999N1-02511+99999104321ADDMD1210101+9999
0017994130999992005011711004+47520-089180FM-12+0223ROAM V0200101N011319999999N9999999N1-02481+99999104371ADDMD1110141+9999
0017994130999992005011712004+47520-089180FM-12+0223ROAM V0203601N011819999999N9999999N1-02501+99999104391ADDMD1210091+9999
0017994130999992005011713004+47520-089180FM-12+0223ROAM V0203601N010819999999N9999999N1-02551+99999104491ADDMD1310171+9999
0017994130999992005011714004+47520-089180FM-12+0223ROAM V0203501N009819999999N9999999N1-02491+99999104551ADDMD1310181+9999
0017994130999992005011715004+47520-089180FM-12+0223ROAM V0203501N011319999999N9999999N1-02451+99999104561ADDMD1110171+9999
0017994130999992005011716004+47520-089180FM-12+0223ROAM V0203501N010819999999N9999999N1-02491+99999104621ADDMD1210131+9999
0017994130999992005011717004+47520-089180FM-12+0223ROAM V0203601N008719999999N9999999N1-02431+99999104651ADDMD1310101+9999
0017994130999992005011718004+47520-089180FM-12+0223ROAM V0203501N009819999999N9999999N1-02371+99999104611ADDMD1010051+9999
0017994130999992005011719004+47520-089180FM-12+0223ROAM V0203101N004119999999N9999999N1-02241+99999104621ADDMD1010001+9999
0017994130999992005011720004+47520-089180FM-12+0223ROAM V0203401N003119999999N9999999N1-02181+99999104631ADDMD1510001+9999
0017994130999992005011721004+47520-089180FM-12+0223ROAM V0203301N003619999999N9999999N1-02051+99999104601ADDMD1010001+9999
0017994130999992005011722004+47520-089180FM-12+0223ROAM V0203101N003619999999N9999999N1-02001+99999104591ADDMD1710031+9999
0017994130999992005011723004+47520-089180FM-12+0223ROAM V0203001N002619999999N9999999N1-01921+99999104561ADDMD1710071+9999
0017994130999992005011800004+47867-089317FM-12+0223ROAM V0202801N004619999999N9999999N1-01871+99999104511ADDMD1810091+9999
0017994130999992005011801004+47867-089317FM-12+0223ROAM V0202801N002619999999N9999999N1-01851+99999104501ADDMD1610091+9999
0017994130999992005011802004+47867-089317FM-12+0223ROAM V0203301N002619999999N9999999N1-01801+99999104441ADDMD1810121+9999
0017994130999992005011803004+47867-089317FM-12+0223ROAM V0203101N002619999999N9999999N1-01741+99999104181ADDMD1810331+9999
0017994130999992005011804004+47867-089317FM-12+0223ROAM V0202301N001019999999N9999999N1-01641+99999104261ADDMD1510241+9999
0017994130999992005011805004+47867-089317FM-12+0223ROAM V0202601N003119999999N9999999N1-01511+99999104141ADDMD1610301+9999
0017994130999992005011806004+47867-089317FM-12+0223ROAM V0202301N002619999999N9999999N1-01421+99999103971ADDMD1810211+9999
0177994130999992005011807004+47867-089317FM-12+0223ROAM V0202201N011319999999N9999999N1-01241+99999103851ADDMD1710411+9999OA139901291REMSYN140CMAN 18074 ROAM4 46/// /2222 11124 40385 57041 90700 333 91225 555 11019 22021 30640 423025 60659 227018 214020 213016 227010 214006 245005;
0017994130999992005011808004+47867-089317FM-12+0223ROAM V0202201N011819999999N9999999N1-01241+99999103841ADDMD1610301+9999
0017994130999992005011809004+47867-089317FM-12+0223ROAM V0202101N014419999999N9999999N1-01151+99999103641ADDMD1810331+9999
0017994130999992005011810004+47867-089317FM-12+0223ROAM V0202101N013919999999N9999999N1-01171+99999103471ADDMD1810381+9999
0017994130999992005011811004+47867-089317FM-12+0223ROAM V0202101N015419999999N9999999N1-01191+99999103251ADDMD1810591+9999
0017994130999992005011812004+47867-089317FM-12+0223ROAM V0202101N016419999999N9999999N1-01141+99999103101ADDMD1610541+9999
0017994130999992005011813004+47867-089317FM-12+0223ROAM V0202001N018019999999N9999999N1-01051+99999102801ADDMD1810671+9999
0225994130999992005011814004+47867-089317FM-12+0223ROAM V0201901N015919999999N9999999N1-01021+99999102581ADDMD1810671+9999OA139901851REMSYN188CMAN  18144 ROAM4 46/// /1931 11102 40258 58067 91400 333 91236 555 11027 22029 31343 421040 61359 201031 208032 210031 209031 209 021021 020020 036021 0410022 007023 007036 005043 011043;
0017994130999992005011815004+47867-089317FM-12+0223ROAM V0201901N017019999999N9999999N1-00951+99999102301ADDMD1610801+9999
0017994130999992005011816004+47867-089317FM-12+0223ROAM V0201901N019519999999N9999999N1-00861+99999102031ADDMD1810771+9999
0017994130999992005011817004+47867-089317FM-12+0223ROAM V0202001N020019999999N9999999N1-00821+99999101771ADDMD1610811+9999
0017994130999992005011818004+47867-089317FM-12+0223ROAM V0202001N018519999999N9999999N1-00801+99999101621ADDMD1610681+9999
0017994130999992005011819004+47867-089317FM-12+0223ROAM V0201901N019019999999N9999999N1-00701+99999101261ADDMD1810771+9999
0017994130999992005011820004+47867-089317FM-12+0223ROAM V0202001N020019999999N9999999N1-00621+99999101001ADDMD1810771+9999
0177994130999992005011821004+47867-089317FM-12+0223ROAM V0202001N022619999999N9999999N1-00661+99999100711ADDMD1610911+9999OA139902471REMSYN140CMAN  18214 ROAM4 46/// /2044 11066 40071 56091 92100 333 91248 555 11038 22040 32058 420048 62059 200041 200041 196040 198039 20034 017032;
0017994130999992005011822004+47867-089317FM-12+0223ROAM V0202001N018519999999N9999999N1-00601+99999100641ADDMD1610621+9999
0017994130999992005011823004+47867-089317FM-12+0223ROAM V0202101N019519999999N9999999N1-00561+99999100561ADDMD1610441+9999
0017994130999992005011900004+47867-089317FM-12+0223ROAM V0202201N019019999999N9999999N1-00571+99999100521ADDMD1610191+9999
0017994130999992005011901004+47867-089317FM-12+0223ROAM V0202201N017519999999N9999999N1-00501+99999100371ADDMD1810271+9999
0017994130999992005011902004+47867-089317FM-12+0223ROAM V0202201N014919999999N9999999N1-00481+99999100291ADDMD1810271+9999
0017994130999992005011903004+47867-089317FM-12+0223ROAM V0202301N011819999999N9999999N1-00491+99999100281ADDMD1610241+9999
0017994130999992005011904004+47867-089317FM-12+0223ROAM V0202701N009819999999N9999999N1-00441+99999100271ADDMD1610101+9999
0017994130999992005011905004+47867-089317FM-12+0223ROAM V0203201N009819999999N9999999N1-00511+99999100311ADDMD1510001+9999
0183994130999992005011906004+47867-089317FM-12+0223ROAM V0203301N012919999999N9999999N1-00591+99999100401ADDMD1310121+9999OA139901441REMSYN146CMAN  19064 ROAM4 46/// /3325 11059 40040 53012 90600 333 91228 555 11022 22023 30557 433028 60559 328024 329023 335021 340022 3207 182008 180009;
0017994130999992005011907004+47867-089317FM-12+0223ROAM V0203301N014419999999N9999999N1-00671+99999100481ADDMD1310211+9999
0017994130999992005011908004+47867-089317FM-12+0223ROAM V0203301N014919999999N9999999N1-00721+99999100621ADDMD1310311+9999
0017994130999992005011909004+47867-089317FM-12+0223ROAM V0203401N012919999999N9999999N1-00771+99999100821ADDMD1310421+9999
0017994130999992005011910004+47867-089317FM-12+0223ROAM V0203301N013919999999N9999999N1-00831+99999100981ADDMD1310501+9999
0017994130999992005011911004+47867-089317FM-12+0223ROAM V0203201N012919999999N9999999N1-00901+99999101171ADDMD1110551+9999
0017994130999992005011912004+47867-089317FM-12+0223ROAM V0203401N014919999999N9999999N1-00961+99999101261ADDMD1110441+9999
0017994130999992005011913004+47867-089317FM-12+0223ROAM V0203401N013419999999N9999999N1-01051+99999101541ADDMD1310561+9999
0017994130999992005011914004+47867-089317FM-12+0223ROAM V0203401N015419999999N9999999N1-01181+99999101711ADDMD1310541+9999
0017994130999992005011915004+47867-089317FM-12+0223ROAM V0203401N013419999999N9999999N1-01361+99999102021ADDMD1310761+9999
0017994130999992005011916004+47867-089317FM-12+0223ROAM V0203501N011819999999N9999999N1-01431+99999102201ADDMD1310661+9999
0017994130999992005011917004+47867-089317FM-12+0223ROAM V0203301N009319999999N9999999N1-01421+99999102321ADDMD1110611+9999
0225994130999992005011918004+47867-089317FM-12+0223ROAM V0203601N009819999999N9999999N1-01381+99999102331ADDMD1110311+9999OA139901131REMSYN188CMAN  19184 ROAM4 46/// /3619 11138 40233 51031 91800 333 91222 555 11017 22018 31731 436026 61759 344017 358018 349021 352021 3517 332014 04007 003006 0000066 188061 192063 197067 192070;
0225994130999992005011920004+47867-089317FM-12+0223ROAM V0203401N009319999999N9999999N1-01291+99999102351ADDMD1210031+9999OA139901031REMSYN188CMAN  19204 ROAM4 46/// /3418 11129 40235 52003 92000 333 91220 555 11016 22017 31939 436023 61959 349019 357019 353019 347017 34017 34011 05008 034008 0270064 182064 177056 183061 188062;
0017994130999992005011921004+47867-089317FM-12+0223ROAM V0203401N011319999999N9999999N1-01231+99999102371ADDMD1210041+9999
0000994130999992005011922004+47867-089317FM-12+0223ROAM V0203501N007219999999N9999999N1-01171+99999102421
0189994130999992005011923004+47867-089317FM-12+0223ROAM V0203601N005719999999N9999999N1-01181+99999102541ADDMD1310191+9999OA139900671REMSYN152CMAN  19234 ROAM4 46/// /3611 11118 40254 53019 92300 333 91213 555 11010 22011 32219 436018 62259 352013 355014 353012 353013 357 017007 012006 358006;
0017994130999992005012000004+47867-089317FM-12+0223ROAM V0203501N005719999999N9999999N1-01181+99999102591ADDMD1210221+9999
0017994130999992005012001004+47867-089317FM-12+0223ROAM V0203601N005119999999N9999999N1-01221+99999102581ADDMD1110161+9999
0017994130999992005012002004+47867-089317FM-12+0223ROAM V0203601N006219999999N9999999N1-01271+99999102601ADDMD1110061+9999
0157994130999992005012003004+47867-089317FM-12+0223ROAM V0203601N006219999999N9999999N1-01311+99999102661ADDOA139900771REMSYN134CMAN  20034 ROAM4 46/// /3612 11131 40266 90300 333 91215 555 11011 22012 30202 401018 60259 004012 000013 005013 005012 00025 184021;
0169994130999992005012004004+47867-089317FM-12+0223ROAM V0200101N006719999999N9999999N1-01281+99999102641ADDOA139900931REMSYN146CMAN  20044 ROAM4 46/// /0113 11128 40264 90400 333 91218 555 11012 22012 30358 436018 60359 006013 005013 005012 002012 00028 17006 271208 53000;
0017994130999992005012005004+47867-089317FM-12+0223ROAM V0200201N007219999999N9999999N1-01241+99999102671ADDMD1110071+9999
0177994130999992005012006004+47867-089317FM-12+0223ROAM V0200401N005719999999N9999999N1-01221+99999102611ADDMD1810051+9999OA139900671REMSYN140CMAN  20064 ROAM4 46/// /0411 11122 40261 58005 90600 333 91213 555 11010 22010 30508 436018 60559 036012 024012 019012 025012 01003 162017;
0017994130999992005012007004+47867-089317FM-12+0223ROAM V0200701N006219999999N9999999N1-01271+99999102581ADDMD1810061+9999
0017994130999992005012008004+47867-089317FM-12+0223ROAM V0200601N008719999999N9999999N1-01291+99999102501ADDMD1810171+9999
0017994130999992005012009004+47867-089317FM-12+0223ROAM V0200701N008219999999N9999999N1-01291+99999102491ADDMD1610121+9999
0017994130999992005012010004+47867-089317FM-12+0223ROAM V0200401N010319999999N9999999N1-01261+99999102441ADDMD1610141+9999
0017994130999992005012011004+47867-089317FM-12+0223ROAM V0200501N009819999999N9999999N1-01251+99999102411ADDMD1810091+9999
0017994130999992005012012004+47867-089317FM-12+0223ROAM V0200501N009319999999N9999999N1-01241+99999102431ADDMD1610061+9999
0017994130999992005012013004+47867-089317FM-12+0223ROAM V0200501N008219999999N9999999N1-01211+99999102471ADDMD1310031+9999
0017994130999992005012014004+47867-089317FM-12+0223ROAM V0200301N010319999999N9999999N1-01151+99999102481ADDMD1210071+9999
0225994130999992005012015004+47867-089317FM-12+0223ROAM V0200301N011319999999N9999999N1-01151+99999102531ADDMD1310101+9999OA139901241REMSYN188CMAN  20154 ROAM4 46/// /0322 11115 40253 53010 91500 333 91224 555 11019 22021 31448 403027 61459 030022 028022 030022 033021 03011 18015 349909 100103 102102 102104 101099 102096 103110;
0017994130999992005012016004+47867-089317FM-12+0223ROAM V0200401N010819999999N9999999N1-01141+99999102541ADDMD1210071+9999
0017994130999992005012017004+47867-089317FM-12+0223ROAM V0200401N010819999999N9999999N1-01131+99999102531ADDMD1110051+9999
0177994130999992005012018004+47867-089317FM-12+0223ROAM V0200301N010819999999N9999999N1-01111+99999102521ADDMD1410001+9999OA139901181REMSYN140CMAN 20184 ROAM4 46/// /0321 11111 40252 54000 91800 333 91223 555 11018 22020 31747 404028 61759 035022 035022 038022 038022 035023 038022;
0017994130999992005012019004+47867-089317FM-12+0223ROAM V0200401N011319999999N9999999N1-01111+99999102531ADDMD1410001+9999
0017994130999992005012020004+47867-089317FM-12+0223ROAM V0200301N011819999999N9999999N1-01121+99999102551ADDMD1410001+9999
0017994130999992005012021004+47867-089317FM-12+0223ROAM V0200301N009819999999N9999999N1-01151+99999102621ADDMD1310101+9999
0189994130999992005012022004+47867-089317FM-12+0223ROAM V0200301N009819999999N9999999N1-01131+99999102651ADDMD1310121+9999OA139901131REMSYN152CMAN  20224 ROAM4 46/// /0319 11113 40265 53012 92200 333 91222 555 11017 22018 32125 403025 62159 035020 032020 026020 028020 0301 041001 31003 227005;
0225994130999992005012023004+47867-089317FM-12+0223ROAM V0200401N009819999999N9999999N1-01151+99999102721ADDMD1210171+9999OA139901131REMSYN188CMAN  20234 ROAM4 46/// /0419 11115 40272 52017 92300 333 91222 555 11017 22018 32219 404025 62259 037019 035019 031019 038019 037 062007 048005 045006 0470049 094049 095053 096050 097051;
0017994130999992005012100004+47867-089317FM-12+0223ROAM V0200301N010319999999N9999999N1-01141+99999102781ADDMD1310161+9999
0017994130999992005012101004+47867-089317FM-12+0223ROAM V0200401N009819999999N9999999N1-01131+99999102811ADDMD1110161+9999
0017994130999992005012102004+47867-089317FM-12+0223ROAM V0200401N009319999999N9999999N1-01141+99999102841ADDMD1110121+9999
0177994130999992005012103004+47867-089317FM-12+0223ROAM V0200501N008219999999N9999999N1-01181+99999102861ADDMD1110081+9999OA139901031REMSYN140CMAN 21034 ROAM4 46/// /0516 11118 40286 51008 90300 333 91220 555 11014 22015 30201 406021 60259 056015 050015 049015 048015 049016 050016;
0017994130999992005012104004+47867-089317FM-12+0223ROAM V0200401N007719999999N9999999N1-01181+99999102861ADDMD1110051+9999
0225994130999992005012105004+47867-089317FM-12+0223ROAM V0200301N007719999999N9999999N1-01151+99999102851ADDMD1410001+9999OA139900881REMSYN188CMAN  21054 ROAM4 46/// /0315 11115 40285 54000 90500 333 91217 555 11013 22014 30428 404019 60459 038015 038015 038014 035015 03023 06010 26007 267009 2480063 128061 132052 133048 135048;
0017994130999992005012106004+47867-089317FM-12+0223ROAM V0200501N006719999999N9999999N1-01101+99999102861ADDMD1410001+9999
0017994130999992005012107004+47867-089317FM-12+0223ROAM V0200501N006719999999N9999999N1-01071+99999102851ADDMD1410001+9999
0017994130999992005012108004+47867-089317FM-12+0223ROAM V0200501N007219999999N9999999N1-01051+99999102851ADDMD1410001+9999
0017994130999992005012109004+47867-089317FM-12+0223ROAM V0200401N008719999999N9999999N1-01021+99999102831ADDMD1710031+9999
0017994130999992005012110004+47867-089317FM-12+0223ROAM V0200601N006719999999N9999999N1-01011+99999102821ADDMD1710031+9999
0017994130999992005012111004+47867-089317FM-12+0223ROAM V0200501N007219999999N9999999N1-01001+99999102721ADDMD1810131+9999
0209994130999992005012112004+47867-089317FM-12+0223ROAM V0200601N007719999999N9999999N1-01021+99999102721ADDMD1710111+9999OA139900821REMSYN172CMAN  21124 ROAM4 46/// /0615 11102 40272 57011 91200 333 91216 555 11013 22014 31124 406017 61159 059014 060014 058014 054014 04022 05017 26010 291009 2890062 96010 96754;
0017994130999992005012113004+47867-089317FM-12+0223ROAM V0200701N006219999999N9999999N1-01021+99999102631ADDMD1610191+9999
0017994130999992005012114004+47867-089317FM-12+0223ROAM V0200801N005119999999N9999999N1-00861+99999102581ADDMD1810141+9999
0017994130999992005012115004+47867-089317FM-12+0223ROAM V0201601N008219999999N9999999N1-00711+99999102521ADDMD1610201+9999
0017994130999992005012116004+47867-089317FM-12+0223ROAM V0201701N010319999999N9999999N1-00711+99999102441ADDMD1810191+9999
0017994130999992005012117004+47867-089317FM-12+0223ROAM V0201601N009819999999N9999999N1-00731+99999102411ADDMD1610171+9999
0017994130999992005012118004+47867-089317FM-12+0223ROAM V0201501N010319999999N9999999N1-00751+99999102301ADDMD1810221+9999
0017994130999992005012119004+47867-089317FM-12+0223ROAM V0201601N008219999999N9999999N1-00741+99999102201ADDMD1810241+9999
0017994130999992005012120004+47867-089317FM-12+0223ROAM V0201401N010319999999N9999999N1-00741+99999102011ADDMD1810401+9999
0017994130999992005012121004+47867-089317FM-12+0223ROAM V0201401N009819999999N9999999N1-00721+99999101941ADDMD1610361+9999
0225994130999992005012122004+47867-089317FM-12+0223ROAM V0201401N010819999999N9999999N1-00701+99999101891ADDMD1610311+9999OA139901131REMSYN188CMAN  21224 ROAM4 46/// /1421 11070 40189 56031 92200 333 91222 555 11018 22019 32147 414024 62159 136021 136021 136019 135018 13017 35016 25007 290007 2740145 140146 136143 131152 130157;
0017994130999992005012123004+47867-089317FM-12+0223ROAM V0201401N011819999999N9999999N1-00681+99999101821ADDMD1710191+9999
0017994130999992005012200004+47867-089317FM-12+0223ROAM V0201401N011819999999N9999999N1-00691+99999101761ADDMD1810181+9999
0017994130999992005012201004+47867-089317FM-12+0223ROAM V0201401N011819999999N9999999N1-00661+99999101691ADDMD1710201+9999
0017994130999992005012202004+47867-089317FM-12+0223ROAM V0201401N011319999999N9999999N1-00671+99999101591ADDMD1810231+9999
0017994130999992005012203004+47867-089317FM-12+0223ROAM V0201501N010819999999N9999999N1-00651+99999101561ADDMD1610201+9999
0017994130999992005012204004+47867-089317FM-12+0223ROAM V0201401N011819999999N9999999N1-00671+99999101541ADDMD1610151+9999
0017994130999992005012205004+47867-089317FM-12+0223ROAM V0201401N009319999999N9999999N1-00661+99999101581ADDMD1510001+9999
0017994130999992005012206004+47867-089317FM-12+0223ROAM V0201301N008719999999N9999999N1-00651+99999101591ADDMD1210031+9999
0017994130999992005012208004+47867-089317FM-12+0223ROAM V0200901N007719999999N9999999N1-00621+99999101661ADDMD1310081+9999
0017994130999992005012209004+47867-089317FM-12+0223ROAM V0200901N007719999999N9999999N1-00641+99999101801ADDMD1310211+9999
0017994130999992005012210004+47867-089317FM-12+0223ROAM V0200801N006719999999N9999999N1-00611+99999101931ADDMD1310351+9999
0017994130999992005012212004+47867-089317FM-12+0223ROAM V0200501N012319999999N9999999N1-00651+99999102291ADDMD1310491+9999
0017994130999992005012213004+47867-089317FM-12+0223ROAM V0200301N020019999999N9999999N1-00931+99999102441ADDMD1210511+9999
0036994130999992005012214004+47867-089317FM-12+0223ROAM V0200201N017519999999N9999999N1-01121+99999102701ADDMD1310622+9999EQDQ01+000622APC3  
0017994130999992005012215004+47867-089317FM-12+0223ROAM V0200201N014919999999N9999999N1-01361+99999102971ADDMD1310681+9999
0017994130999992005012216004+47867-089317FM-12+0223ROAM V0200201N013919999999N9999999N1-01451+99999103151ADDMD1110711+9999
0017994130999992005012217004+47867-089317FM-12+0223ROAM V0200101N015919999999N9999999N1-01501+99999103201ADDMD1110501+9999
0017994130999992005012219004+47867-089317FM-12+0223ROAM V0200101N013919999999N9999999N1-01471+99999103281ADDMD1110131+9999
0195994130999992005012220004+47867-089317FM-12+0223ROAM V0203601N011319999999N9999999N1-01411+99999103371ADDMD1310171+9999OA139901341REMSYN158CMAN  22204 ROAM4 46/// /3622 11141 40337 53017 92000 333 91226 555 11019 22020 31905 401032 61959 006022 014024 012024 011025 00009 184 176025 176026 176025;
0017994130999992005012221004+47867-089317FM-12+0223ROAM V0200101N010319999999N9999999N1-01371+99999103481ADDMD1310201+9999
0017994130999992005012222004+47867-089317FM-12+0223ROAM V0203501N008719999999N9999999N1-01351+99999103541ADDMD1110261+9999
0017994130999992005012223004+47867-089317FM-12+0223ROAM V0203601N009319999999N9999999N1-01341+99999103631ADDMD1110261+9999
0017994130999992005012300004+47520-089180FM-12+0223ROAM V0203601N009319999999N9999999N1-01331+99999103691ADDMD1210211+9999
0017994130999992005012301004+47520-089180FM-12+0223ROAM V0200101N008219999999N9999999N1-01341+99999103731ADDMD1110191+9999
0017994130999992005012302004+47520-089180FM-12+0223ROAM V0203501N007719999999N9999999N1-01361+99999103791ADDMD1210161+9999
0017994130999992005012303004+47520-089180FM-12+0223ROAM V0203601N007219999999N9999999N1-01391+99999103701ADDMD1010001+9999
0017994130999992005012304004+47520-089180FM-12+0223ROAM V0203601N005719999999N9999999N1-01381+99999103661ADDMD1810071+9999
0183994130999992005012305004+47520-089180FM-12+0223ROAM V0203601N004119999999N9999999N1-01401+99999103621ADDMD1610171+9999OA139900461REMSYN146CMAN  23054 ROAM4 46/// /3608 11140 40362 56017 90500 333 91209 555 11007 22007 30401 436016 60459 010007 353010 004011 002011 3506 325007 314009;
0017994130999992005012306004+47520-089180FM-12+0223ROAM V0203001N001019999999N9999999N1-01371+99999103601ADDMD1610101+9999
0017994130999992005012307004+47520-089180FM-12+0223ROAM V0202201N001519999999N9999999N1-01311+99999103541ADDMD1810121+9999
0017994130999992005012308004+47520-089180FM-12+0223ROAM V0202101N005719999999N9999999N1-01201+99999103461ADDMD1810161+9999
0017994130999992005012309004+47520-089180FM-12+0223ROAM V0202401N005119999999N9999999N1-01051+99999103361ADDMD1810241+9999
0017994130999992005012310004+47520-089180FM-12+0223ROAM V0202301N007719999999N9999999N1-00891+99999103091ADDMD1810451+9999
0017994130999992005012311004+47520-089180FM-12+0223ROAM V0202101N011319999999N9999999N1-00811+99999103061ADDMD1610401+9999
0017994130999992005012312004+47520-089180FM-12+0223ROAM V0202201N011819999999N9999999N1-00741+99999102991ADDMD1610371+9999
0017994130999992005012313004+47520-089180FM-12+0223ROAM V0202301N010319999999N9999999N1-00711+99999102931ADDMD1810161+9999
0017994130999992005012314004+47520-089180FM-12+0223ROAM V0202201N012919999999N9999999N1-00751+99999102801ADDMD1810261+9999
0017994130999992005012315004+47520-089180FM-12+0223ROAM V0202201N012919999999N9999999N1-00761+99999102761ADDMD1610231+9999
0017994130999992005012316004+47520-089180FM-12+0223ROAM V0202201N014419999999N9999999N1-00731+99999102631ADDMD1710301+9999
0177994130999992005012317004+47520-089180FM-12+0223ROAM V0202201N014919999999N9999999N1-00721+99999102501ADDMD1810301+9999OA139901701REMSYN140CMAN  23174 ROAM4 46/// /2229 11072 40250 58030 91700 333 91233 555 11025 22027 31612 422035 61659 224029 220029 218030 219029 22049 025039;
0209994130999992005012318004+47520-089180FM-12+0223ROAM V0202201N015919999999N9999999N1-00691+99999102291ADDMD1810471+9999OA139901901REMSYN172CMAN  23184 ROAM4 46/// /2231 11069 40229 58047 91800 333 91237 555 11027 22029 31724 422037 61759 222030 220031 223030 221032 228 018017 021018 01 91216 96486 96483 96487;
0225994130999992005012319004+47520-089180FM-12+0223ROAM V0202301N015419999999N9999999N1-00671+99999102101ADDMD1810531+9999OA139901801REMSYN188CMAN  23194 ROAM4 46/// /2330 11067 40210 58053 91900 333 91235 555 11026 22028 31844 423038 61859 225031 227031 222030 225030 22020 08019 27019 309018 3110045 008046 008046 007047 016043;
0017994130999992005012320004+47520-089180FM-12+0223ROAM V0202201N017019999999N9999999N1-00641+99999101871ADDMD1810631+9999
0225994130999992005012321004+47520-089180FM-12+0223ROAM V0202201N015919999999N9999999N1-00601+99999101751ADDMD1610541+9999OA139901801REMSYN188CMAN  23214 ROAM4 46/// /2231 11060 40175 56054 92100 333 91235 555 11027 22029 32001 423041 62059 217033 220034 218035 220034 21018 06023 27026 322025 3200040 352038 353036 358034 000034;
0204994130999992005012322004+47520-089180FM-12+0223ROAM V0202201N018519999999N9999999N1-00531+99999101611ADDMD1610491+9999OA139902111REMSYN167CMAN  23224 ROAM4 46/// /2236 11053 40161 56049 92200 333 91241 555 11031 22033 32110 422042 62159 218034 218032 217033 219034 22 033007 035008 039008 043008 TIDE1126;
0183994130999992005012323004+47520-089180FM-12+0223ROAM V0202201N018519999999N9999999N1-00411+99999101461ADDMD1810411+9999OA139902061REMSYN146CMAN  23234 ROAM4 46/// /2236 11041 40146 58041 92300 333 91240 555 11031 22033 32247 421043 62259 218036 216035 215035 215036 2122 051022 050022;
0017994130999992005012400004+47520-089180FM-12+0223ROAM V0202201N019019999999N9999999N1-00361+99999101281ADDMD1810471+9999
0017994130999992005012401004+47520-089180FM-12+0223ROAM V0202301N018019999999N9999999N1-00351+99999101261ADDMD1610351+9999
0017994130999992005012402004+47520-089180FM-12+0223ROAM V0202301N018019999999N9999999N1-00371+99999101191ADDMD1610271+9999
0017994130999992005012403004+47520-089180FM-12+0223ROAM V0202401N018519999999N9999999N1-00351+99999101111ADDMD1810171+9999
0017994130999992005012404004+47520-089180FM-12+0223ROAM V0202401N019019999999N9999999N1-00361+99999100991ADDMD1810271+9999
0017994130999992005012405004+47520-089180FM-12+0223ROAM V0202501N018519999999N9999999N1-00351+99999100961ADDMD1610231+9999
0017994130999992005012406004+47520-089180FM-12+0223ROAM V0202401N017519999999N9999999N1-00401+99999100911ADDMD1610201+9999
0000994130999992005012407004+47520-089180FM-12+0223ROAM V0202401N014419999999N9999999N1-00401+99999100911
0017994130999992005012408004+47520-089180FM-12+0223ROAM V0202601N012319999999N9999999N1-00391+99999100871ADDMD1610091+9999
0017994130999992005012409004+47520-089180FM-12+0223ROAM V0202601N011319999999N9999999N1-00381+99999100861ADDMD1710051+9999
0017994130999992005012410004+47520-089180FM-12+0223ROAM V0202701N009319999999N9999999N1-00361+99999100891ADDMD1510001+9999
0017994130999992005012411004+47520-089180FM-12+0223ROAM V0202901N008219999999N9999999N1-00371+99999100911ADDMD1210041+9999
0017994130999992005012412004+47520-089180FM-12+0223ROAM V0203001N007219999999N9999999N1-00381+99999100991ADDMD1310131+9999
0017994130999992005012413004+47520-089180FM-12+0223ROAM V0203301N007219999999N9999999N1-00401+99999101081ADDMD1310191+9999
0017994130999992005012414004+47520-089180FM-12+0223ROAM V0203401N008719999999N9999999N1-00421+99999101131ADDMD1110221+9999
0017994130999992005012415004+47520-089180FM-12+0223ROAM V0203501N009819999999N9999999N1-00441+99999101241ADDMD1310251+9999
0000994130999992005012416004+47520-089180FM-12+0223ROAM V0200101N009319999999N9999999N1-00451+99999101331
0000994130999992005012417004+47520-089180FM-12+0223ROAM V0200101N008719999999N9999999N1-00451+99999101431
0000994130999992005012418004+47520-089180FM-12+0223ROAM V0200101N008219999999N9999999N1-00451+99999101491
0017994130999992005012419004+47520-089180FM-12+0223ROAM V0200101N007219999999N9999999N1-00441+99999101541ADDMD1110211+9999
0017994130999992005012420004+47520-089180FM-12+0223ROAM V0200201N008219999999N9999999N1-00461+99999101581ADDMD1110151+9999
0017994130999992005012421004+47520-089180FM-12+0223ROAM V0203601N006219999999N9999999N1-00461+99999101701ADDMD1310211+9999
0017994130999992005012422004+47520-089180FM-12+0223ROAM V0200301N006219999999N9999999N1-00481+99999101731ADDMD1110191+9999
0017994130999992005012423004+47520-089180FM-12+0223ROAM V0200201N006219999999N9999999N1-00501+99999101831ADDMD1110251+9999
0017994130999992005012500004+47867-089317FM-12+0223ROAM V0200201N007219999999N9999999N1-00551+99999101891ADDMD1310191+9999
0017994130999992005012501004+47867-089317FM-12+0223ROAM V0200501N005719999999N9999999N1-00571+99999101871ADDMD1110141+9999
0225994130999992005012503004+47867-089317FM-12+0223ROAM V0200801N006719999999N9999999N1-00671+99999101841ADDMD1710051+9999OA139900721REMSYN188CMAN  25034 ROAM4 46/// /0813 11067 40184 57005 90300 333 91214 555 11011 22012 30252 408015 60259 077012 079011 080009 087009 083 074004 066005 061004 0580024 050021 041022 046018 069013;
0183994130999992005012504004+47867-089317FM-12+0223ROAM V0200701N006719999999N9999999N1-00751+99999101801ADDMD1710071+9999OA139900721REMSYN146CMAN  25044 ROAM4 46/// /0713 11075 40180 57007 90400 333 91214 555 11012 22012 30331 407019 60359 073013 070015 067015 068016 07001 08019 096017;
0017994130999992005012506004+47867-089317FM-12+0223ROAM V0200801N004119999999N9999999N1-00631+99999101661ADDMD1710181+9999
0017994130999992005012507004+47867-089317FM-12+0223ROAM V0200701N005119999999N9999999N1-00641+99999101651ADDMD1710151+9999
0000994130999992005012508004+47867-089317FM-12+0223ROAM V0200801N004119999999N9999999N1-00621+99999101531
0017994130999992005012509004+47867-089317FM-12+0223ROAM V0201001N004619999999N9999999N1-00531+99999101361ADDMD1810301+9999
0225994130999992005012510004+47867-089317FM-12+0223ROAM V0201201N006719999999N9999999N1-00441+99999101161ADDMD1810491+9999OA139900721REMSYN188CMAN  25104 ROAM4 46/// /1213 11044 40116 58049 91000 333 91214 555 11011 22012 30959 412014 60959 113012 102010 090008 092007 09018 08015 35013 007012 0080048 108042 101044 098045 096045;
0017994130999992005012511004+47867-089317FM-12+0223ROAM V0201501N009319999999N9999999N1-00361+99999100991ADDMD1710541+9999
0017994130999992005012512004+47867-089317FM-12+0223ROAM V0201401N010319999999N9999999N1-00361+99999100841ADDMD1610521+9999
0017994130999992005012513004+47867-089317FM-12+0223ROAM V0201501N008219999999N9999999N1-00371+99999100751ADDMD1610411+9999
0017994130999992005012514004+47867-089317FM-12+0223ROAM V0201401N009319999999N9999999N1-00321+99999100661ADDMD1610331+9999
0017994130999992005012515004+47867-089317FM-12+0223ROAM V0201401N009819999999N9999999N1-00301+99999100461ADDMD1810381+9999
0017994130999992005012516004+47867-089317FM-12+0223ROAM V0201501N009819999999N9999999N1-00261+99999100321ADDMD1810431+9999
0017994130999992005012517004+47867-089317FM-12+0223ROAM V0201601N006719999999N9999999N1-00221+99999100181ADDMD1610481+9999
0017994130999992005012518004+47867-089317FM-12+0223ROAM V0201601N005119999999N9999999N1-00211+99999100061ADDMD1610401+9999
0017994130999992005012519004+47867-089317FM-12+0223ROAM V0200801N001019999999N9999999N1-00201+99999100121ADDMD1510201+9999
0017994130999992005012520004+47867-089317FM-12+0223ROAM V0200501N004119999999N9999999N1-00201+99999100081ADDMD1610101+9999
0017994130999992005012521004+47867-089317FM-12+0223ROAM V0200401N006719999999N9999999N1-00181+99999100141ADDMD1210081+9999
0017994130999992005012522004+47867-089317FM-12+0223ROAM V0200301N013419999999N9999999N1-00231+99999100191ADDMD1310071+9999
0017994130999992005012523004+47867-089317FM-12+0223ROAM V0200401N017019999999N9999999N1-00301+99999100301ADDMD1310221+9999
0183994130999992005012600004+47867-089317FM-12+0223ROAM V0200501N016419999999N9999999N1-00461+99999100531ADDMD1310391+9999OA139901751REMSYN146CMAN  26004 ROAM4 46/// /0532 11046 40053 53039 90000 333 91234 555 11028 22029 32342 404039 62359 045032 044033 043033 042034 04010 08027 049027;
0017994130999992005012601004+47867-089317FM-12+0223ROAM V0200301N015419999999N9999999N1-00561+99999100731ADDMD1310541+9999
0017994130999992005012602004+47867-089317FM-12+0223ROAM V0200301N017519999999N9999999N1-00741+99999100911ADDMD1110611+9999
0017994130999992005012603004+47867-089317FM-12+0223ROAM V0200301N015919999999N9999999N1-00891+99999101121ADDMD1310591+9999
0017994130999992005012604004+47867-089317FM-12+0223ROAM V0200201N015919999999N9999999N1-01001+99999101291ADDMD1110561+9999
0225994130999992005012605004+47867-089317FM-12+0223ROAM V0200301N013919999999N9999999N1-01121+99999101461ADDMD1110551+9999OA139901701REMSYN188CMAN  26054 ROAM4 46/// /0327 11112 40146 51055 90500 333 91233 555 11023 22025 30417 403036 60459 034029 030029 022030 032031 03006 06008 32006 342005 3480073 074071 072072 073072 073074;
0017994130999992005012606004+47867-089317FM-12+0223ROAM V0200301N013419999999N9999999N1-01241+99999101641ADDMD1310521+9999
0017994130999992005012607004+47867-089317FM-12+0223ROAM V0200301N016419999999N9999999N1-01321+99999101751ADDMD1110461+9999
0017994130999992005012608004+47867-089317FM-12+0223ROAM V0200301N015419999999N9999999N1-01391+99999101911ADDMD1110451+9999
0017994130999992005012609004+47867-089317FM-12+0223ROAM V0200201N013919999999N9999999N1-01451+99999102061ADDMD1310421+9999
0017994130999992005012610004+47867-089317FM-12+0223ROAM V0200201N013419999999N9999999N1-01501+99999102201ADDMD1110451+9999
0017994130999992005012611004+47867-089317FM-12+0223ROAM V0200401N014419999999N9999999N1-01531+99999102371ADDMD1310461+9999
0017994130999992005012612004+47867-089317FM-12+0223ROAM V0200301N013419999999N9999999N1-01601+99999102561ADDMD1310501+9999
0017994130999992005012613004+47867-089317FM-12+0223ROAM V0200201N012919999999N9999999N1-01611+99999102661ADDMD1110461+9999
0017994130999992005012614004+47867-089317FM-12+0223ROAM V0200301N013419999999N9999999N1-01681+99999102801ADDMD1110431+9999
0017994130999992005012615004+47867-089317FM-12+0223ROAM V0200201N010819999999N9999999N1-01701+99999102951ADDMD1310391+9999
0017994130999992005012616004+47867-089317FM-12+0223ROAM V0200301N010819999999N9999999N1-01691+99999103051ADDMD1110391+9999
0189994130999992005012617004+47867-089317FM-12+0223ROAM V0200101N007719999999N9999999N1-01681+99999103161ADDMD1110361+9999OA139900881REMSYN152CMAN  26174 ROAM4 46/// /0115 11168 40316 51036 91700 333 91217 555 11013 22014 31626 403028 61659 022017 030019 030020 027020 027 319008 320008 319008;
0017994130999992005012618004+47867-089317FM-12+0223ROAM V0200201N007219999999N9999999N1-01681+99999103181ADDMD1110231+9999
0017994130999992005012619004+47867-089317FM-12+0223ROAM V0200301N007719999999N9999999N1-01641+99999103201ADDMD1110151+9999
0017994130999992005012620004+47867-089317FM-12+0223ROAM V0200101N006219999999N9999999N1-01541+99999103261ADDMD1310101+9999
0017994130999992005012621004+47867-089317FM-12+0223ROAM V0200101N006219999999N9999999N1-01481+99999103291ADDMD1310111+9999
0017994130999992005012622004+47867-089317FM-12+0223ROAM V0200201N005719999999N9999999N1-01451+99999103321ADDMD1110121+9999
0017994130999992005012623004+47867-089317FM-12+0223ROAM V0203601N006219999999N9999999N1-01411+99999103361ADDMD1310101+9999
0017994130999992005012700004+47867-089317FM-12+0223ROAM V0200101N003119999999N9999999N1-01371+99999103411ADDMD1310121+9999
0017994130999992005012701004+47867-089317FM-12+0223ROAM V0200101N004119999999N9999999N1-01361+99999103481ADDMD1310161+9999
0017994130999992005012702004+47867-089317FM-12+0223ROAM V0203601N003619999999N9999999N1-01351+99999103511ADDMD1110151+9999
0017994130999992005012703004+47867-089317FM-12+0223ROAM V0203501N006719999999N9999999N1-01341+99999103541ADDMD1110131+9999
0017994130999992005012704004+47867-089317FM-12+0223ROAM V0203401N005719999999N9999999N1-01381+99999103611ADDMD1310131+9999
0017994130999992005012705004+47867-089317FM-12+0223ROAM V0200301N002619999999N9999999N1-01391+99999103591ADDMD1110081+9999
0194994130999992005012706004+47867-089317FM-12+0223ROAM V0203501N001519999999N9999999N1-01361+99999103631ADDMD1110091+9999OA139900211REMSYN157CMAN  27064 ROAM4 46/// /3503 11136 40363 51009 90600 333 91204 555 11003 22003 30546 435008 60559 349004 343006 000005 015004 324 093005 090005 079005 0840;
0017994130999992005012707004+47867-089317FM-12+0223ROAM V0200801N000519999999N9999999N1-01341+99999103621ADDMD1410001+9999
0017994130999992005012708004+47867-089317FM-12+0223ROAM V0203601N001519999999N9999999N1-01311+99999103631ADDMD1110041+9999
0017994130999992005012709004+47867-089317FM-12+0223ROAM V0201901N001019999999N9999999N1-01281+99999103651ADDMD1410001+9999
0017994130999992005012710004+47867-089317FM-12+0223ROAM V0203101N002119999999N9999999N1-01211+99999103671ADDMD1210051+9999
0017994130999992005012711004+47867-089317FM-12+0223ROAM V0201101N002119999999N9999999N1-01171+99999103671ADDMD1210041+9999
0017994130999992005012712004+47867-089317FM-12+0223ROAM V0202101N003619999999N9999999N1-01071+99999103671ADDMD1410001+9999
0017994130999992005012713004+47867-089317FM-12+0223ROAM V0202201N004119999999N9999999N1-00951+99999103681ADDMD1410001+9999
0225994130999992005012714004+47867-089317FM-12+0223ROAM V0202101N008219999999N9999999N1-00841+99999103661ADDMD1410001+9999OA139900931REMSYN188CMAN  27144 ROAM4 46/// /2116 11084 40366 54000 91400 333 91218 555 11014 22014 31359 421018 61359 208014 207011 213012 206009 195 039004 009004 026004 0340087 084086 078079 081083 079080;
0017994130999992005012715004+47867-089317FM-12+0223ROAM V0203301N003119999999N9999999N1-00861+99999103701ADDMD1310031+9999
0183994130999992005012716004+47867-089317FM-12+0223ROAM V0201401N000519999999N9999999N1-00811+99999103681ADDMD1410001+9999OA139900211REMSYN146CMAN  27164 ROAM4 46/// /1401 11081 40368 54000 91600 333 91204 555 11001 22001 31553 402010 61559 011005 033004 015003 003003 02013 34007 323404;
0195994130999992005012717004+47867-089317FM-12+0223ROAM V0202201N009819999999N9999999N1-00721+99999103641ADDMD1010001+9999OA139901081REMSYN158CMAN  27174 ROAM4 46/// /2219 11072 40364 50000 91700 333 91221 555 11017 22018 31654 422023 61659 218020 218018 215019 218019 2104 309005 3127 357028 354027;
0017994130999992005012718004+47867-089317FM-12+0223ROAM V0202101N007219999999N9999999N1-00791+99999103631ADDMD1710071+9999
0017994130999992005012719004+47867-089317FM-12+0223ROAM V0202101N008219999999N9999999N1-00791+99999103571ADDMD1810111+9999
0017994130999992005012720004+47867-089317FM-12+0223ROAM V0202101N008719999999N9999999N1-00781+99999103481ADDMD1810161+9999
0017994130999992005012721004+47867-089317FM-12+0223ROAM V0202101N009319999999N9999999N1-00741+99999103451ADDMD1610181+9999
0017994130999992005012722004+47867-089317FM-12+0223ROAM V0202101N009819999999N9999999N1-00681+99999103451ADDMD1610121+9999
0017994130999992005012723004+47867-089317FM-12+0223ROAM V0202101N010319999999N9999999N1-00631+99999103391ADDMD1810091+9999
0017994130999992005012800004+47867-089317FM-12+0223ROAM V0202101N010819999999N9999999N1-00561+99999103381ADDMD1710071+9999
0017994130999992005012801004+47867-089317FM-12+0223ROAM V0202101N012919999999N9999999N1-00481+99999103351ADDMD1610101+9999
0177994130999992005012802004+47867-089317FM-12+0223ROAM V0202101N010819999999N9999999N1-00431+99999103331ADDMD1710061+9999OA139901181REMSYN140CMAN  28024 ROAM4 46/// /2121 11043 40333 57006 90200 333 91223 555 11018 22020 30124 422030 60159 210024 217024 217025 215026 21031 347020;
0017994130999992005012803004+47867-089317FM-12+0223ROAM V0202101N013419999999N9999999N1-00361+99999103261ADDMD1810121+9999
0017994130999992005012804004+47867-089317FM-12+0223ROAM V0202201N013419999999N9999999N1-00361+99999103231ADDMD1810121+9999
0225994130999992005012805004+47867-089317FM-12+0223ROAM V0202201N014919999999N9999999N1-00391+99999103201ADDMD1610131+9999OA139901601REMSYN188CMAN  28054 ROAM4 46/// /2229 11039 40320 56013 90500 333 91231 555 11025 22027 30433 422033 60459 220028 221028 216028 216027 21013 34010 32005 345006 3490084 139085 142083 151083 156090;
0017994130999992005012806004+47867-089317FM-12+0223ROAM V0202201N015419999999N9999999N1-00421+99999103171ADDMD1710091+9999
0017994130999992005012807004+47867-089317FM-12+0223ROAM V0202301N015419999999N9999999N1-00431+99999103131ADDMD1810101+9999
0017994130999992005012808004+47867-089317FM-12+0223ROAM V0202301N015919999999N9999999N1-00451+99999103121ADDMD1610081+9999
0017994130999992005012809004+47867-089317FM-12+0223ROAM V0202301N014919999999N9999999N1-00441+99999103111ADDMD1610061+9999
0017994130999992005012810004+47867-089317FM-12+0223ROAM V0202201N014919999999N9999999N1-00441+99999103091ADDMD1710041+9999
0017994130999992005012811004+47867-089317FM-12+0223ROAM V0202201N015419999999N9999999N1-00451+99999103061ADDMD1810061+9999
0017994130999992005012812004+47867-089317FM-12+0223ROAM V0202201N014919999999N9999999N1-00461+99999103021ADDMD1810091+9999
0017994130999992005012813004+47867-089317FM-12+0223ROAM V0202201N015419999999N9999999N1-00451+99999102991ADDMD1710101+9999
0017994130999992005012814004+47867-089317FM-12+0223ROAM V0202201N015419999999N9999999N1-00451+99999102961ADDMD1610101+9999
0225994130999992005012815004+47867-089317FM-12+0223ROAM V0202201N014919999999N9999999N1-00441+99999102921ADDMD1810101+9999OA139901651REMSYN188CMAN  28154 ROAM4 46/// /2229 11044 40292 58010 91500 333 91232 555 11025 22027 31427 422035 61459 218028 218029 218030 218028 214 327014 322015 321014 3240080 331083 330085 329084 332084;
