0032994200999992005010100004+47300-087367FM-12+0212STDM V0203201N016419999999N9999999N1-00711-01001101451ADDMA1999999098851MD1110791+9999
0032994200999992005010101004+47300-087367FM-12+0212STDM V0203301N015919999999N9999999N1-00711-00941101701ADDMA1999999099081MD1110781+9999
0032994200999992005010102004+47300-087367FM-12+0212STDM V0203301N014419999999N9999999N1-00671-00901101901ADDMA1999999099271MD1110681+9999
0032994200999992005010103004+47300-087367FM-12+0212STDM V0203401N011819999999N9999999N1-00691-00971102141ADDMA1999999099501MD1110691+9999
0240994200999992005010104004+47300-087367FM-12+0212STDM V0203401N012319999999N9999999N1-00681-00891102301ADDMA1999999099661MD1110601+9999OA139901341REMSYN188CMAN  01044 STDM4 46/// /3424 11068 21089 39966 40230 51060 90400 333 91226 555 11021 22023 30311 433027 60359 338022 337021 333021 333022 330349 102082 103083 102093 100093 097093 099090;
0032994200999992005010105004+47300-087367FM-12+0212STDM V0203501N012919999999N9999999N1-00641-00951102441ADDMA1999999099801MD1110541+9999
0194994200999992005010106004+47300-087367FM-12+0212STDM V0203601N012919999999N9999999N1-00651-00921102621ADDMA1999999099971MD1310481+9999OA139901441REMSYN142CMAN  01064 STDM4 46/// /3625 11065 21092 39997 40262 53048 90600 333 91228 555 11022 22024 30544 435032 60559 003024 354026 353025 354025 35;
0032994200999992005010107004+47300-087367FM-12+0212STDM V0200101N009319999999N9999999N1-00721-00971102801ADDMA1999999100141MD1310501+9999
0032994200999992005010108004+47300-087367FM-12+0212STDM V0200101N009319999999N9999999N1-00751-01031102991ADDMA1999999100331MD1310551+9999
0240994200999992005010109004+47300-087367FM-12+0212STDM V0203601N008719999999N9999999N1-00741-01011103071ADDMA1999999100391MD1110451+9999OA139901081REMSYN188CMAN  01094 STDM4 46/// /3617 11074 21101 30039 40307 51045 90900 333 91221 555 11015 22016 30807 435023 60859 013017 016018 019019 008018 000849 296047 295044 298048 303057 303047 320040;
0032994200999992005010110004+47300-087367FM-12+0212STDM V0200101N010819999999N9999999N1-00741-01011103191ADDMA1999999100501MD1110391+9999
0032994200999992005010111004+47300-087367FM-12+0212STDM V0200101N011319999999N9999999N1-00781-01111103291ADDMA1999999100601MD1310301+9999
0032994200999992005010112004+47300-087367FM-12+0212STDM V0200201N007219999999N9999999N1-00801-01161103511ADDMA1999999100811MD1310441+9999
0032994200999992005010113004+47300-087367FM-12+0212STDM V0200101N007219999999N9999999N1-00811-01181103581ADDMA1999999100881MD1110391+9999
0032994200999992005010114004+47300-087367FM-12+0212STDM V0200301N008719999999N9999999N1-00841-01181103601ADDMA1999999100891MD1110311+9999
0032994200999992005010115004+47300-087367FM-12+0212STDM V0200401N008219999999N9999999N1-00831-01091103721ADDMA1999999101011MD1310211+9999
0204994200999992005010116004+47300-087367FM-12+0212STDM V0200301N008719999999N9999999N1-00831-01121103761ADDMA1999999101051MD1310181+9999OA139901131REMSYN152CMAN  01164 STDM4 46/// /0317 11083 21112 30105 40376 53018 91600 333 91222 555 11015 22016 31532 403022 61559 032017 031017 028018 031017 03008 327008;
0246994200999992005010117004+47300-087367FM-12+0212STDM V0200401N005719999999N9999999N1-00791-01071103801ADDMA1999999101101MD1110201+9999OA139900771REMSYN194CMAN  01174 STDM4 46/// /0411 11079 21107 30110 40380 51020 91700 333 91215 555 11010 22011 31615 403021 61659 037012 043011 043013 034015 033515 61649 349109 351112 351116 352117 350123 349124;
0198994200999992005010118004+47300-087367FM-12+0212STDM V0200601N005119999999N9999999N1-00761-01141103761ADDMA1999999101061MD1010041+9999OA139900671REMSYN146CMAN  01184 STDM4 46/// /0610 11076 21114 30106 40376 50004 91800 333 91213 555 11009 22010 31701 403016 61759 072010 083010 053011 049010 030014;
0032994200999992005010119004+47300-087367FM-12+0212STDM V0200501N006219999999N9999999N1-00741-01011103661ADDMA1999999100961MD1810101+9999
0032994200999992005010120004+47300-087367FM-12+0212STDM V0200801N006719999999N9999999N1-00691-01031103631ADDMA1999999100931MD1610171+9999
0032994200999992005010121004+47300-087367FM-12+0212STDM V0200801N005719999999N9999999N1-00721-01071103631ADDMA1999999100971MD1610131+9999
0032994200999992005010122004+47300-087367FM-12+0212STDM V0200801N009319999999N9999999N1-00701-00951103591ADDMA1999999100891MD1810071+9999
0032994200999992005010123004+47300-087367FM-12+0212STDM V0200801N009819999999N9999999N1-00631-00871103491ADDMA1999999100801MD1810141+9999
0032994200999992005010200004+47300-087367FM-12+0212STDM V0201101N010319999999N9999999N1-00551-00941103391ADDMA1999999100701MD1810241+9999
0032994200999992005010201004+47300-087367FM-12+0212STDM V0201201N010819999999N9999999N1-00441-00811103271ADDMA1999999100581MD1810321+9999
0032994200999992005010202004+47300-087367FM-12+0212STDM V0201101N011819999999N9999999N1-00371-00911103061ADDMA1999999100381MD1810431+9999
0032994200999992005010203004+47300-087367FM-12+0212STDM V0201101N013919999999N9999999N1-00351-01331102901ADDMA1999999100221MD1810491+9999
0240994200999992005010204004+47300-087367FM-12+0212STDM V0201201N013919999999N9999999N1-00491+99999102761ADDMA1999999100081MD1610511+9999OA139901541REMSYN188CMAN  02044 STDM4 46/// /1227 11049 30008 40276 56051 90400 333 91230 555 11024 22026 30321 412038 60359 115028 119029 119029 122030 1112 092012 090012 0910017 297019 291017 295023 292019;
0032994200999992005010205004+47300-087367FM-12+0212STDM V0201201N017019999999N9999999N1-00371+99999102491ADDMA1999999099831MD1810571+9999
0240994200999992005010206004+47300-087367FM-12+0212STDM V0201201N015919999999N9999999N1-00351-00501102371ADDMA1999999099721MD1610531+9999OA139901701REMSYN188CMAN  02064 STDM4 46/// /1231 11035 21050 39972 40237 56053 90600 333 91233 555 11027 22029 30534 412038 60559 117031 119033 121032 121030 110549 122058 122063 126060 122065 127068 126067;
0032994200999992005010207004+47300-087367FM-12+0212STDM V0201201N013919999999N9999999N1-00311-00491102321ADDMA1999999099671MD1610441+9999
0032994200999992005010208004+47300-087367FM-12+0212STDM V0201101N013419999999N9999999N1-00321-00411102171ADDMA1999999099561MD1810321+9999
0032994200999992005010209004+47300-087367FM-12+0212STDM V0201201N011819999999N9999999N1-00301-00361102091ADDMA1999999099441MD1810281+9999
0198994200999992005010210004+47300-087367FM-12+0212STDM V0201201N010319999999N9999999N1-00241-00301101941ADDMA1999999099301MD1710381+9999OA139901131REMSYN146CMAN  02104 STDM4 46/// /1220 11024 21030 39930 40194 57038 91000 333 91222 555 11018 22019 30914 411024 60959 116020 114021 114021 112022 116009;
0032994200999992005010211004+47300-087367FM-12+0212STDM V0201301N011819999999N9999999N1-00161-00211101791ADDMA1999999099161MD1810381+9999
0032994200999992005010212004+47300-087367FM-12+0212STDM V0201601N010319999999N9999999N1-00081-00141101721ADDMA1999999099091MD1610371+9999
0240994200999992005010213004+47300-087367FM-12+0212STDM V0201901N009319999999N9999999N1+00001-00131101721ADDMA1999999099101MD1610221+9999OA139901031REMSYN188CMAN  02134 STDM4 46/// /1918 10000 21013 39910 40172 56022 91300 333 91220 555 11016 22017 31201 416023 61259 185018 180018 167018 162018 151249 343138 342136 346135 339138 346138 352133;
0198994200999992005010214004+47300-087367FM-12+0212STDM V0202301N011319999999N9999999N1+00011-00131101681ADDMA1999999099061MD1610111+9999OA139901241REMSYN146CMAN  02144 STDM4 46/// /2322 10001 21013 39906 40168 56011 91400 333 91224 555 22011 31308 428018 61359 278011 274010 273012 268012 26012 151007;
0032994200999992005010215004+47300-087367FM-12+0212STDM V0202501N012919999999N9999999N1+00001-00191101711ADDMA1999999099091MD1510001+9999
0032994200999992005010216004+47300-087367FM-12+0212STDM V0202701N015919999999N9999999N1-00071-00241101731ADDMA1999999099101MD1510001+9999
0032994200999992005010217004+47300-087367FM-12+0212STDM V0202701N018019999999N9999999N1+00001-00211101721ADDMA1999999099101MD1110041+9999
0200994200999992005010218004+47300-087367FM-12+0212STDM V0202601N015419999999N9999999N1-00031-00311101721ADDMA1999999099101MD1410001+9999OA139901701REMSYN148CMAN  02184 STDM4 46/// /2630 11003 21031 39910 40172 54000 91800 333 91233 555 11027 22029 31738 426039 61759 262031 261033 265034 264034 26 96436;
0032994200999992005010219004+47300-087367FM-12+0212STDM V0202601N015919999999N9999999N1-00041-00401101741ADDMA1999999099121MD1410001+9999
0246994200999992005010220004+47300-087367FM-12+0212STDM V0202601N017019999999N9999999N1-00131-00431101791ADDMA1999999099171MD1310071+9999OA139901901REMSYN194CMAN  02204 STDM4 46/// /2633 11013 21043 39917 40179 53007 92000 333 91237 555 11030 22032 31950 427040 61959 266034 267033 267032 267030 261012 61949 097098 097098 096094 099092 098092 099094;
0246994200999992005010221004+47300-087367FM-12+0212STDM V0202601N016419999999N9999999N1-00181-00491101891ADDMA1999999099261MD1310171+9999OA139901901REMSYN194CMAN  02214 STDM4 46/// /2632 11018 21049 39926 40189 53017 92100 333 91237 555 11029 22031 32003 427039 62059 258032 255031 259030 263031 270410 62049 047083 044084 043085 038087 038086 039083;
0032994200999992005010222004+47300-087367FM-12+0212STDM V0202701N017019999999N9999999N1-00201-00571101971ADDMA1999999099341MD1310231+9999
0032994200999992005010223004+47300-087367FM-12+0212STDM V0202601N018019999999N9999999N1-00221-00651102041ADDMA1999999099411MD1110251+9999
0246994200999992005010300004+47300-087367FM-12+0212STDM V0202701N019519999999N9999999N1-00241-00681102111ADDMA1999999099481MD1110221+9999OA139902111REMSYN194CMAN  03004 STDM4 46/// /2738 11024 21068 39948 40211 51022 90000 333 91241 555 11033 22036 32336 426044 62359 267038 268037 267038 270038 260311 62349 030092 035093 033094 034085 033087 034085;
0032994200999992005010301004+47300-087367FM-12+0212STDM V0202701N016419999999N9999999N1-00281-00701102161ADDMA1999999099531MD1110191+9999
0032994200999992005010302004+47300-087367FM-12+0212STDM V0202701N019519999999N9999999N1-00301-00731102191ADDMA1999999099561MD1110151+9999
0240994200999992005010303004+47300-087367FM-12+0212STDM V0202701N017019999999N9999999N1-00341-00791102281ADDMA1999999099651MD1310171+9999OA139901901REMSYN188CMAN  03034 STDM4 46/// /2733 11034 21079 39965 40228 53017 90300 333 91237 555 11029 22031 30208 427041 60259 273033 272034 271035 271034 270249 000011 008012 018009 011011 005006 111005;
0240994200999992005010304004+47300-087367FM-12+0212STDM V0202901N014919999999N9999999N1-00401-00841102371ADDMA1999999099731MD1310211+9999OA139901701REMSYN188CMAN  03044 STDM4 46/// /2929 11040 21084 39973 40237 53021 90400 333 91233 555 11025 22027 30357 429038 60359 285030 278031 277030 276031 27007 0752023 151022 155024 156023 155021 160022;
0032994200999992005010305004+47300-087367FM-12+0212STDM V0202901N014419999999N9999999N1-00491-00901102491ADDMA1999999099841MD1310301+9999
0032994200999992005010306004+47300-087367FM-12+0212STDM V0202801N013919999999N9999999N1-00551-00891102531ADDMA1999999099881MD1110251+9999
0032994200999992005010307004+47300-087367FM-12+0212STDM V0202801N011819999999N9999999N1-00581-00921102591ADDMA1999999099941MD1110221+9999
0032994200999992005010308004+47300-087367FM-12+0212STDM V0202901N012319999999N9999999N1-00621-00891102611ADDMA1999999099961MD1110121+9999
0032994200999992005010309004+47300-087367FM-12+0212STDM V0203101N011319999999N9999999N1-00661-00981102641ADDMA1999999099981MD1110111+9999
0032994200999992005010310004+47300-087367FM-12+0212STDM V0202901N011319999999N9999999N1-00701-00991102651ADDMA1999999099991MD1210061+9999
0032994200999992005010311004+47300-087367FM-12+0212STDM V0203001N009319999999N9999999N1-00761-01001102701ADDMA1999999100031MD1310091+9999
0032994200999992005010312004+47300-087367FM-12+0212STDM V0202901N009319999999N9999999N1-00811-01121102721ADDMA1999999100051MD1210081+9999
0032994200999992005010313004+47300-087367FM-12+0212STDM V0203101N009819999999N9999999N1-00821-01041102741ADDMA1999999100071MD1110091+9999
0198994200999992005010314004+47300-087367FM-12+0212STDM V0202801N009319999999N9999999N1-00851-01161102811ADDMA1999999100141MD1310111+9999OA139901031REMSYN146CMAN  03144 STDM4 46/// /2818 11085 21116 30014 40281 53011 91400 333 91220 555 22010 31355 434013 61359 336010 332009 329009 328009 32008 028025;
0032994200999992005010315004+47300-087367FM-12+0212STDM V0203001N006219999999N9999999N1-00871-01221102861ADDMA1999999100181MD1310141+9999
0032994200999992005010316004+47300-087367FM-12+0212STDM V0202901N009319999999N9999999N1-00881-01221102921ADDMA1999999100241MD1110181+9999
0032994200999992005010317004+47300-087367FM-12+0212STDM V0202901N008219999999N9999999N1-00891-01161102841ADDMA1999999100161MD1010031+9999
0240994200999992005010319004+47300-087367FM-12+0212STDM V0203101N009319999999N9999999N1-00911-01241102791ADDMA1999999100111MD1610131+9999OA139901081REMSYN188CMAN  03194 STDM4 46/// /3118 11091 21124 30011 40279 56013 91900 333 91221 555 11016 22017 31843 429028 61859 292021 287022 293019 287020 285 11212 21224 39863 49926 5304 77+ 333 8670 68;
0032994200999992005010320004+47300-087367FM-12+0212STDM V0202901N011319999999N9999999N1-00901-01251102771ADDMA1999999100091MD1610071+9999
0032994200999992005010321004+47300-087367FM-12+0212STDM V0202901N009319999999N9999999N1-00841-01131102751ADDMA1999999100071MD1710051+9999
0032994200999992005010322004+47300-087367FM-12+0212STDM V0202901N011319999999N9999999N1-00851-01121102751ADDMA1999999100071MD1710041+9999
0032994200999992005010323004+47300-087367FM-12+0212STDM V0203001N009319999999N9999999N1-00901-01171102821ADDMA1999999100131MD1310051+9999
0032994200999992005010400004+47300-087367FM-12+0212STDM V0203001N009319999999N9999999N1-00881-01161102801ADDMA1999999100111MD1210051+9999
0032994200999992005010401004+47300-087367FM-12+0212STDM V0203001N008219999999N9999999N1-00841-01081102801ADDMA1999999100111MD1110051+9999
0032994200999992005010402004+47300-087367FM-12+0212STDM V0203001N009319999999N9999999N1-00811-01061102801ADDMA1999999100121MD1410001+9999
0032994200999992005010403004+47300-087367FM-12+0212STDM V0202901N007719999999N9999999N1-00801-01071102821ADDMA1999999100131MD1410001+9999
0032994200999992005010404004+47300-087367FM-12+0212STDM V0202901N007219999999N9999999N1-00781-01031102801ADDMA1999999100111MD1410001+9999
0032994200999992005010405004+47300-087367FM-12+0212STDM V0202801N008219999999N9999999N1-00761-01031102791ADDMA1999999100101MD1410001+9999
0032994200999992005010406004+47300-087367FM-12+0212STDM V0202901N008219999999N9999999N1-00721-00981102781ADDMA1999999100101MD1710041+9999
0032994200999992005010407004+47300-087367FM-12+0212STDM V0202801N008219999999N9999999N1-00671-00981102751ADDMA1999999100061MD1810051+9999
0032994200999992005010408004+47300-087367FM-12+0212STDM V0202801N009319999999N9999999N1-00601-00911102751ADDMA1999999100071MD1710041+9999
0032994200999992005010409004+47300-087367FM-12+0212STDM V0202801N010319999999N9999999N1-00551-00821102691ADDMA1999999100011MD1810091+9999
0032994200999992005010410004+47300-087367FM-12+0212STDM V0202801N010819999999N9999999N1-00561-00781102691ADDMA1999999100011MD1710061+9999
0032994200999992005010411004+47300-087367FM-12+0212STDM V0202901N010319999999N9999999N1-00531-00771102671ADDMA1999999099991MD1610081+9999
0032994200999992005010412004+47300-087367FM-12+0212STDM V0203001N008719999999N9999999N1-00521-00781102691ADDMA1999999100021MD1410001+9999
0032994200999992005010413004+47300-087367FM-12+0212STDM V0203001N010319999999N9999999N1-00511-00801102671ADDMA1999999099991MD1410001+9999
0240994200999992005010414004+47300-087367FM-12+0212STDM V0202901N009319999999N9999999N1-00491-00771102701ADDMA1999999100031MD1310031+9999OA139901081REMSYN188CMAN  04144 STDM4 46/// /2918 11049 21077 30003 40270 53003 91400 333 91221 555 11016 22017 31302 429026 61359 288018 296018 291017 292018 281349 187063 187060 184060 181063 185064 185061;
0032994200999992005010415004+47300-087367FM-12+0212STDM V0202901N011819999999N9999999N1-00511-00741102721ADDMA1999999100051MD1210031+9999
0032994200999992005010416004+47300-087367FM-12+0212STDM V0203101N012319999999N9999999N1-00591-00771102771ADDMA1999999100091MD1310101+9999
0240994200999992005010417004+47300-087367FM-12+0212STDM V0203101N011819999999N9999999N1-00651-00961102781ADDMA1999999100101MD1210081+9999OA139901341REMSYN188CMAN  04174 STDM4 46/// /3123 11065 21096 30010 40278 52008 91700 333 91226 555 11021 22022 31657 432028 61659 314024 315023 310021 311022 301649 285090 282090 286087 283087 285091 287089;
0240994200999992005010418004+47300-087367FM-12+0212STDM V0203101N013919999999N9999999N1-00761-01051102791ADDMA1999999100111MD1110071+9999OA139901491REMSYN188CMAN  04184 STDM4 46/// /3127 11076 21105 30011 40279 51007 91800 333 91229 555 11024 22025 31752 432031 61759 312027 314026 313026 313025 311749 111022 097014 071008 113008 102010 052012;
0032994200999992005010419004+47300-087367FM-12+0212STDM V0203101N012919999999N9999999N1-00821-01121102781ADDMA1999999100101MD1410001+9999
0032994200999992005010420004+47300-087367FM-12+0212STDM V0203101N011819999999N9999999N1-00901-01341102851ADDMA1999999100171MD1310071+9999
0240994200999992005010421004+47300-087367FM-12+0212STDM V0203101N011319999999N9999999N1-00931-01381102971ADDMA1999999100291MD1310181+9999OA139901341REMSYN188CMAN  04214 STDM4 46/// /3122 11093 21138 30029 40297 53018 92100 333 91226 555 11019 22021 32012 432030 62059 311024 312023 317024 314024 312049 236072 231068 200057 199059 202057 197056;
0032994200999992005010422004+47300-087367FM-12+0212STDM V0203101N011319999999N9999999N1-00971-01311103041ADDMA1999999100351MD1210261+9999
0032994200999992005010423004+47300-087367FM-12+0212STDM V0203101N011319999999N9999999N1-00951-01351103101ADDMA1999999100411MD1110251+9999
0032994200999992005010500004+47300-087367FM-12+0212STDM V0203101N013919999999N9999999N1-00961-01251103141ADDMA1999999100451MD1110171+9999
0032994200999992005010501004+47300-087367FM-12+0212STDM V0203201N012319999999N9999999N1-00951-01331103231ADDMA1999999100531MD1310191+9999
0032994200999992005010502004+47300-087367FM-12+0212STDM V0203401N014419999999N9999999N1-00971-01221103201ADDMA1999999100511MD1010101+9999
0032994200999992005010503004+47300-087367FM-12+0212STDM V0203401N012919999999N9999999N1-00981-01271103241ADDMA1999999100541MD1110101+9999
0032994200999992005010504004+47300-087367FM-12+0212STDM V0203501N011319999999N9999999N1-01021-01361103281ADDMA1999999100581MD1310051+9999
0032994200999992005010505004+47300-087367FM-12+0212STDM V0203601N012319999999N9999999N1-01031-01321103291ADDMA1999999100591MD1110091+9999
0032994200999992005010506004+47300-087367FM-12+0212STDM V0203601N010819999999N9999999N1-01041-01391103301ADDMA1999999100591MD1110061+9999
0032994200999992005010507004+47300-087367FM-12+0212STDM V0203301N008219999999N9999999N1-01011-01441103281ADDMA1999999100571MD1410001+9999
0032994200999992005010508004+47300-087367FM-12+0212STDM V0203301N006219999999N9999999N1-00991-01381103331ADDMA1999999100621MD1310041+9999
0032994200999992005010509004+47300-087367FM-12+0212STDM V0203401N007719999999N9999999N1-00991-01321103331ADDMA1999999100621MD1210031+9999
0032994200999992005010510004+47300-087367FM-12+0212STDM V0203601N007219999999N9999999N1-01001-01311103341ADDMA1999999100631MD1110061+9999
0032994200999992005010511004+47300-087367FM-12+0212STDM V0203601N008219999999N9999999N1-00971-01301103341ADDMA1999999100631MD1410001+9999
0234994200999992005010512004+47300-087367FM-12+0212STDM V0203601N008719999999N9999999N1-00961-01391103351ADDMA1999999100641MD1410001+9999OA139900981REMSYN182CMAN  05124 STDM4 46/// /3617 11096 21139 30064 40335 54000 91200 333 91219 555 11016 22017 31156 436020 61159 353017 000011 356013 349016 3571117 278111 273122 274116 273116 273109;
0032994200999992005010513004+47300-087367FM-12+0212STDM V0203501N007219999999N9999999N1-00971-01271103291ADDMA1999999100581MD1810051+9999
0246994200999992005010514004+47300-087367FM-12+0212STDM V0203501N005719999999N9999999N1-00971-01301103241ADDMA1999999100531MD1810101+9999OA139900671REMSYN194CMAN  05144 STDM4 46/// /3511 11097 21130 30053 40324 58010 91400 333 91213 555 11010 22010 61359 346010 335012 338013 347013 341012 1413 137013 138013 136074 122073 123069 111073 109076 102073;
0032994200999992005010516004+47300-087367FM-12+0212STDM V0203401N004619999999N9999999N1-00921-01351103281ADDMA1999999100571MD1410001+9999
0198994200999992005010517004+47300-087367FM-12+0212STDM V0203301N006219999999N9999999N1-00901-01241103241ADDMA1999999100541MD1010001+9999OA139900821REMSYN146CMAN  05174 STDM4 46/// /3312 11090 21124 30054 40324 50000 91700 333 91216 555 11011 22012 31628 434016 61659 328011 330009 322010 330011 348012;
0032994200999992005010518004+47300-087367FM-12+0212STDM V0203401N005719999999N9999999N1-00891-01251103151ADDMA1999999100441MD1810181+9999
0032994200999992005010519004+47300-087367FM-12+0212STDM V0203101N004619999999N9999999N1-00881-01351103071ADDMA1999999100371MD1810211+9999
0032994200999992005010520004+47300-087367FM-12+0212STDM V0203201N008219999999N9999999N1-00871-01201102891ADDMA1999999100191MD1810351+9999
0240994200999992005010521004+47300-087367FM-12+0212STDM V0203101N006219999999N9999999N1-00871-01191102851ADDMA1999999100161MD1610301+9999OA139900721REMSYN188CMAN  05214 STDM4 46/// /3112 11087 21119 30016 40285 56030 92100 333 91214 555 11011 22012 32045 431019 62059 317014 312016 317013 308012 312049 093041 100040 097044 099049 097049 104049;
0032994200999992005010522004+47300-087367FM-12+0212STDM V0203201N009319999999N9999999N1-00861-01181102761ADDMA1999999100071MD1610311+9999
0032994200999992005010523004+47300-087367FM-12+0212STDM V0203301N007719999999N9999999N1-00861-01141102691ADDMA1999999100001MD1810201+9999
0032994200999992005010600004+47300-087367FM-12+0212STDM V0203001N007719999999N9999999N1-00841-01111102681ADDMA1999999099991MD1610171+9999
0032994200999992005010601004+47300-087367FM-12+0212STDM V0203201N005719999999N9999999N1-00831-01141102631ADDMA1999999099941MD1610131+9999
0032994200999992005010602004+47300-087367FM-12+0212STDM V0203001N006219999999N9999999N1-00811-01121102541ADDMA1999999099861MD1810151+9999
0032994200999992005010603004+47300-087367FM-12+0212STDM V0203101N005119999999N9999999N1-00821-01101102391ADDMA1999999099711MD1810291+9999
0032994200999992005010604004+47300-087367FM-12+0212STDM V0202801N002619999999N9999999N1-00791-01151102281ADDMA1999999099601MD1810351+9999
0240994200999992005010605004+47300-087367FM-12+0212STDM V0203101N004619999999N9999999N1-00771-01111102171ADDMA1999999099501MD1610371+9999OA139900571REMSYN188CMAN  06054 STDM4 46/// /3109 11077 21111 39950 40217 56037 90500 333 91211 555 11009 22009 30437 429017 60459 314009 308009 286010 291009 28010 1650045 359041 007045 013050 006051 017052;
0032994200999992005010606004+47300-087367FM-12+0212STDM V0203001N003619999999N9999999N1-00801-01111102051ADDMA1999999099381MD1810341+9999
0032994200999992005010607004+47300-087367FM-12+0212STDM V0202601N003119999999N9999999N1-00781-01101101971ADDMA1999999099311MD1610311+9999
0198994200999992005010608004+47300-087367FM-12+0212STDM V0202801N005119999999N9999999N1-00761-01111101861ADDMA1999999099201MD1610311+9999OA139900571REMSYN146CMAN  06084 STDM4 46/// /2810 11076 21111 39920 40186 56031 90800 333 91211 555 11009 22010 30711 429013 60759 301009 278008 276007 276008 278012;
0197994200999992005010609004+47300-087367FM-12+0212STDM V0202901N005719999999N9999999N1-00761-01121101761ADDMA1999999099101MD1810291+9999OA139900621REMSYN145CMAN  06094 STDM4 46/// /2911 11076 21112 39910 40176 58029 90900 333 91212 555 11010 22011 30849 430014 60859 304010 294010 311010 290009 29044;
0032994200999992005010610004+47300-087367FM-12+0212STDM V0203101N005119999999N9999999N1-00741-01121101641ADDMA1999999098991MD1810331+9999
0032994200999992005010611004+47300-087367FM-12+0212STDM V0203201N005719999999N9999999N1-00711-01071101571ADDMA1999999098921MD1610291+9999
0032994200999992005010612004+47300-087367FM-12+0212STDM V0203001N005119999999N9999999N1-00701-01031101521ADDMA1999999098871MD1610241+9999
0032994200999992005010613004+47300-087367FM-12+0212STDM V0203301N002619999999N9999999N1-00691-01021101501ADDMA1999999098851MD1610141+9999
0032994200999992005010614004+47300-087367FM-12+0212STDM V0203001N005119999999N9999999N1-00671-00941101421ADDMA1999999098771MD1810151+9999
0032994200999992005010615004+47300-087367FM-12+0212STDM V0203001N003119999999N9999999N1-00651-01001101351ADDMA1999999098701MD1810171+9999
0032994200999992005010616004+47300-087367FM-12+0212STDM V0202901N003619999999N9999999N1-00621-00841101281ADDMA1999999098641MD1610221+9999
0018994200999992005010617004+47300-087367FM-12+0212STDM V0203001N005719999999N9999999N1-00601-00861101181ADDMA1999999098541
0032994200999992005010618004+47300-087367FM-12+0212STDM V0203101N006219999999N9999999N1-00621-01011101031ADDMA1999999098401MD1810321+9999
0198994200999992005010619004+47300-087367FM-12+0212STDM V0202801N005719999999N9999999N1-00621-00991100981ADDMA1999999098351MD1710301+9999OA139900671REMSYN146CMAN  06194 STDM4 46/// /2811 11062 21099 39835 40098 57030 91900 333 91213 555 11010 22011 31804 430017 61859 297012 298012 300013 304014 300011;
0018994200999992005010620004+47300-087367FM-12+0212STDM V0202901N008219999999N9999999N1-00611-01021100951ADDMA1999999098321
0032994200999992005010621004+47300-087367FM-12+0212STDM V0202901N006719999999N9999999N1-00581-00951100971ADDMA1999999098341MD1610061+9999
0228994200999992005010622004+47300-087367FM-12+0212STDM V0202701N011319999999N9999999N1-00561-00961100971ADDMA1999999098341MD1510001+9999OA139901241REMSYN176CMAN  06224 STDM4 46/// /2722 11056 21096 39834 40097 55000 92200 333 91224 555 11019 22021 32153 428026 62159 281020 277020 277019 278017 27065022 055019 032021 031018 036020;
0032994200999992005010623004+47300-087367FM-12+0212STDM V0202701N011319999999N9999999N1-00541-00861100951ADDMA1999999098361MD1410001+9999
0018994200999992005010700004+47300-087367FM-12+0212STDM V0202701N012319999999N9999999N1-00591-00981101011ADDMA1999999098381
0220994200999992005010701004+47300-087367FM-12+0212STDM V0202601N011819999999N9999999N1-00581-01261101001ADDMA1999999098411OA139901291REMSYN182CMAN  07014 STDM4 46/// /2623 11058 21126 39841 40100 90100 333 91225 555 11021 22022 30033 427031 60059 265022 262022 265024 259022 250049 078085 081086 083087 081080 083085 084088;
0178994200999992005010702004+47300-087367FM-12+0212STDM V0202501N010319999999N9999999N1-00561-01201101051ADDMA1999999098421OA139901131REMSYN140CMAN  07024 STDM4 46/// /2520 11056 21120 39842 40105 90200 333 91222 555 11018 22019 30156 426026 60159 248021 251020 254021 259022 264013;
0032994200999992005010703004+47300-087367FM-12+0212STDM V0202401N010819999999N9999999N1-00551-01131101081ADDMA1999999098451MD1310071+9999
0032994200999992005010704004+47300-087367FM-12+0212STDM V0202501N010819999999N9999999N1-00531-01061101111ADDMA1999999098491MD1110111+9999
0032994200999992005010705004+47300-087367FM-12+0212STDM V0202401N010819999999N9999999N1-00491-00951101111ADDMA1999999098481MD1110061+9999
0032994200999992005010706004+47300-087367FM-12+0212STDM V0202501N011819999999N9999999N1-00511-01031101081ADDMA1999999098461MD1010001+9999
0032994200999992005010707004+47300-087367FM-12+0212STDM V0202501N012319999999N9999999N1-00521-01081101111ADDMA1999999098481MD1510001+9999
0032994200999992005010708004+47300-087367FM-12+0212STDM V0202501N011319999999N9999999N1-00521-01071101201ADDMA1999999098571MD1310091+9999
0032994200999992005010709004+47300-087367FM-12+0212STDM V0202501N010819999999N9999999N1-00501-01061101231ADDMA1999999098601MD1210151+9999
0210994200999992005010710004+47300-087367FM-12+0212STDM V0202501N013419999999N9999999N1-00491-01221101221ADDMA1999999098591MD1110111+9999OA139901541REMSYN158CMAN  07104 STDM4 46/// /2526 11049 21122 39859 40122 51011 91000 333 91230 555 11023 22025 30959 425030 60959 247025 245024 238022 243022 2408 003009 000000;
0032994200999992005010711004+47300-087367FM-12+0212STDM V0202401N010319999999N9999999N1-00451-01401101281ADDMA1999999098651MD1310081+9999
0240994200999992005010712004+47300-087367FM-12+0212STDM V0202101N007219999999N9999999N1-00471-01291101331ADDMA1999999098701MD1310101+9999OA139900821REMSYN188CMAN  07124 STDM4 46/// /2114 11047 21129 39870 40133 53010 91200 333 91216 555 11012 22013 31117 424024 61159 215014 214015 222014 241019 231149 101039 078028 163036 170029 168054 114089;
0032994200999992005010713004+47300-087367FM-12+0212STDM V0202101N007719999999N9999999N1-00481-01351101331ADDMA1999999098701MD1110111+9999
0032994200999992005010714004+47300-087367FM-12+0212STDM V0202001N008219999999N9999999N1-00431-01171101301ADDMA1999999098681MD1010001+9999
0032994200999992005010716004+47300-087367FM-12+0212STDM V0202101N011319999999N9999999N1-00411-01011101361ADDMA1999999098731MD1310031+9999
0032994200999992005010717004+47300-087367FM-12+0212STDM V0202201N009819999999N9999999N1-00481-01021101391ADDMA1999999098761MD1110091+9999
0194994200999992005010718004+47300-087367FM-12+0212STDM V0202301N009319999999N9999999N1-00491-01001101361ADDMA1999999098731MD1010001+9999OA139901131REMSYN142CMAN  07184 STDM4 46/// /2318 11049 21100 39873 40136 50000 91800 333 91222 555 11016 22017 31730 423024 61759 232018 224017 230017 227017 22;
0032994200999992005010719004+47300-087367FM-12+0212STDM V0202601N010319999999N9999999N1-00541-00921101381ADDMA1999999098751MD1010001+9999
0032994200999992005010720004+47300-087367FM-12+0212STDM V0202601N008219999999N9999999N1-00561-01011101411ADDMA1999999098781MD1510001+9999
0240994200999992005010721004+47300-087367FM-12+0212STDM V0202701N005119999999N9999999N1-00511-00961101471ADDMA1999999098841MD1310111+9999OA139900621REMSYN188CMAN  07214 STDM4 46/// /2710 11051 21096 39884 40147 53011 92100 333 91212 555 11009 22009 32007 427017 62059 276010 274011 266011 260012 262049 087080 086087 084080 085087 088093 085094;
0032994200999992005010722004+47300-087367FM-12+0212STDM V0203001N003119999999N9999999N1-00501-00931101511ADDMA1999999098881MD1310131+9999
0246994200999992005010723004+47300-087367FM-12+0212STDM V0202901N003119999999N9999999N1-00501-00891101601ADDMA1999999098971MD1310191+9999OA139900411REMSYN194CMAN  07234 STDM4 46/// /2906 11050 21089 39897 40160 53019 92300 333 91208 555 11005 22006 32229 429011 62259 292006 287006 290006 299007 280718 62249 071138 069146 070141 069139 071139 069138;
0251994200999992005010800004+47300-087367FM-12+0212STDM V0202801N003119999999N9999999N1-00471-00901101631ADDMA1999999098991MD1110161+9999OA139900411REMSYN199CMAN  08004 STDM4 46/// /2806 11047 21090 39899 40163 51016 90000 333 91208 555 11006 22006 32331 429011 62359 287006 285005 282007 290006 27253 42208 62349 219054 217054 217056 212056 217060 225067;
0032994200999992005010801004+47300-087367FM-12+0212STDM V0202801N003119999999N9999999N1-00431-00861101691ADDMA1999999099051MD1110181+9999
0032994200999992005010802004+47300-087367FM-12+0212STDM V0202901N006719999999N9999999N1-00441-00881101751ADDMA1999999099111MD1310151+9999
0196994200999992005010803004+47300-087367FM-12+0212STDM V0202601N008719999999N9999999N1-00401-00901101751ADDMA1999999099121MD1110121+9999OA139901081REMSYN144CMAN  08034 STDM4 46/// /2617 11040 21090 39912 40175 51012 90300 333 91221 555 11016 22017 30245 427022 60259 263016 269016 270015 276016 2732;
0032994200999992005010804004+47300-087367FM-12+0212STDM V0202801N008219999999N9999999N1-00391-00771101781ADDMA1999999099151MD1110091+9999
0032994200999992005010805004+47300-087367FM-12+0212STDM V0202701N008719999999N9999999N1-00391-00771101821ADDMA1999999099181MD1310071+9999
0032994200999992005010806004+47300-087367FM-12+0212STDM V0202601N007719999999N9999999N1-00391-00741101821ADDMA1999999099181MD1110071+9999
0032994200999992005010807004+47300-087367FM-12+0212STDM V0202801N008219999999N9999999N1-00411-00661101831ADDMA1999999099191MD1110051+9999
0032994200999992005010808004+47300-087367FM-12+0212STDM V0203001N006719999999N9999999N1-00441-00631101901ADDMA1999999099251MD1310081+9999
0032994200999992005010809004+47300-087367FM-12+0212STDM V0203101N007719999999N9999999N1-00431-00691101941ADDMA1999999099301MD1310121+9999
0018994200999992005010810004+47300-087367FM-12+0212STDM V0203101N008219999999N9999999N1-00441-00731999999ADDMA1999999099301
0032994200999992005010811004+47300-087367FM-12+0212STDM V0203301N007719999999N9999999N1-00461-00731102041ADDMA1999999099401MD1210141+9999
0032994200999992005010812004+47300-087367FM-12+0212STDM V0203401N005119999999N9999999N1-00491-00791102151ADDMA1999999099501MD1210211+9999
0018994200999992005010813004+47300-087367FM-12+0212STDM V0203201N006719999999N9999999N1-00501-00801102271ADDMA1999999099621
0017994200999992005010814004+47300-087367FM-12+0212STDM V0203401N004119999999N9999999N1-00501-00791102341ADDMD1110301+9999
0032994200999992005010815004+47300-087367FM-12+0212STDM V0203601N006719999999N9999999N1-00541-00791102411ADDMA1999999099751MD1110261+9999
0032994200999992005010816004+47300-087367FM-12+0212STDM V0200201N006219999999N9999999N1-00531-00761102491ADDMA1999999099831MD1310221+9999
0032994200999992005010817004+47300-087367FM-12+0212STDM V0203501N005719999999N9999999N1-00531-00801102511ADDMA1999999099851MD1110171+9999
0222994200999992005010818004+47300-087367FM-12+0212STDM V0203601N005719999999N9999999N1-00541-00801102471ADDMA1999999099811MD1010061+9999OA139900671REMSYN170CMAN  08184 STDM4 46/// /3611 11054 21080 39981 40247 50006 91800 333 91213 555 11010 22011 31722 401015 61759 357012 355010 347010 357011 35 126014 138005 012012 356022;
0032994200999992005010819004+47300-087367FM-12+0212STDM V0203501N005119999999N9999999N1-00541-00831102471ADDMA1999999099821MD1410001+9999
0032994200999992005010820004+47300-087367FM-12+0212STDM V0203401N005119999999N9999999N1-00531-00851102541ADDMA1999999099881MD1310031+9999
0032994200999992005010821004+47300-087367FM-12+0212STDM V0203501N002619999999N9999999N1-00521-00921102591ADDMA1999999099931MD1310121+9999
0032994200999992005010822004+47300-087367FM-12+0212STDM V0203201N001019999999N9999999N1-00511-00841102581ADDMA1999999099921MD1110111+9999
0032994200999992005010823004+47300-087367FM-12+0212STDM V0200801N002619999999N9999999N1-00481-00791102501ADDMA1999999099841MD1810041+9999
0032994200999992005010900004+47100-087120FM-12+0212STDM V0201001N001019999999N9999999N1-00441-00761102531ADDMA1999999099871MD1510061+9999
0246994200999992005010901004+47100-087120FM-12+0212STDM V0201801N002619999999N9999999N1-00401-00701102571ADDMA1999999099911MD1510001+9999OA139900261REMSYN194CMAN  09014 STDM4 46/// /1805 11040 21070 39991 40257 55000 90100 333 91205 555 11004 22005 30051 419006 60059 178005 173003 153004 151002 122010 60049 195066 204071 202080 198076 195075 206065;
0032994200999992005010902004+47100-087120FM-12+0212STDM V0201401N004119999999N9999999N1-00331-00591102511ADDMA1999999099851MD1010001+9999
0032994200999992005010903004+47100-087120FM-12+0212STDM V0201801N008219999999N9999999N1-00231-00581102411ADDMA1999999099761MD1810121+9999
0246994200999992005010904004+47100-087120FM-12+0212STDM V0201701N009819999999N9999999N1-00221-00591102391ADDMA1999999099741MD1610181+9999OA139901081REMSYN194CMAN  09044 STDM4 46/// /1719 11022 21059 39974 40239 56018 90400 333 91221 555 11017 22018 30345 417023 60359 172018 174017 174016 173016 171709 60349 166039 165037 157039 178042 168057 185049;
0240994200999992005010905004+47100-087120FM-12+0212STDM V0201701N008219999999N9999999N1-00271-00581102371ADDMA1999999099721MD1610141+9999OA139900931REMSYN188CMAN  09054 STDM4 46/// /1716 11027 21058 39972 40237 56014 90500 333 91218 555 11015 22015 30410 417021 60459 183016 186016 172018 162016 160449 072072 070073 075066 073067 070071 070068;
0210994200999992005010906004+47100-087120FM-12+0212STDM V0202001N008219999999N9999999N1-00321-00601102291ADDMA1999999099641MD1810121+9999OA139900931REMSYN158CMAN  09064 STDM4 46/// /2016 11032 21060 39964 40229 58012 90600 333 91218 555 11014 22015 30526 418022 60559 193015 192013 187016 182017 17 95150 444 16240;
0032994200999992005010907004+47100-087120FM-12+0212STDM V0201801N006219999999N9999999N1-00361-00661102191ADDMA1999999099541MD1810201+9999
0240994200999992005010908004+47100-087120FM-12+0212STDM V0202101N007219999999N9999999N1-00351-00731102171ADDMA1999999099521MD1610201+9999OA139900821REMSYN188CMAN  09084 STDM4 46/// /2114 11035 21073 39952 40217 56020 90800 333 91216 555 11012 22013 30710 419018 60759 203012 194011 191012 191012 180749 165062 163062 163061 166062 161058 163057;
0032994200999992005010909004+47100-087120FM-12+0212STDM V0202001N008219999999N9999999N1-00301-00551102141ADDMA1999999099501MD1610151+9999
0246994200999992005010910004+47100-087120FM-12+0212STDM V0201901N008719999999N9999999N1+99999+99999102121ADDMA1999999099471MD1710071+9999OA139901081REMSYN194CMAN  09104 STDM4 46/// /1917 1//// 39947 40212 57007 91000 333 91221 555 11016 22017 30949 420022 60959 193018 190017 187017 184017 18009 180407 60949 050062 047062 050060 054058 047060 036060;
0032994200999992005010911004+47100-087120FM-12+0212STDM V0201901N007719999999N9999999N1-00361-00641102011ADDMA1999999099361MD1810161+9999
0032994200999992005010912004+47100-087120FM-12+0212STDM V0202001N006719999999N9999999N1-00401-00701101971ADDMA1999999099331MD1810171+9999
0032994200999992005010913004+47100-087120FM-12+0212STDM V0201901N006219999999N9999999N1-00411-00631101921ADDMA1999999099281MD1610201+9999
0197994200999992005010914004+47100-087120FM-12+0212STDM V0201701N005719999999N9999999N1-00431-00671101841ADDMA1999999099201MD1810171+9999OA139900621REMSYN145CMAN  09144 STDM4 46/// /1711 11043 21067 39920 40184 58017 91400 333 91212 555 11010 22011 31349 417016 61359 176013 175011 180012 191011 20035;
0246994200999992005010915004+47100-087120FM-12+0212STDM V0202001N006219999999N9999999N1-00441-00681101841ADDMA1999999099211MD1610131+9999OA139900771REMSYN194CMAN  09154 STDM4 46/// /2012 11044 21068 39921 40184 56013 91500 333 91215 555 11011 22011 31421 420016 61459 193012 176013 190013 193013 181712 61449 166082 165082 147068 160086 155078 150090;
0032994200999992005010917004+47100-087120FM-12+0212STDM V0202301N005719999999N9999999N1-00491-00731101791ADDMA1999999099161MD1710051+9999
0032994200999992005010918004+47100-087120FM-12+0212STDM V0201901N006219999999N9999999N1-00511-00741101621ADDMA1999999098991MD1810221+9999
0246994200999992005010919004+47100-087120FM-12+0212STDM V0202001N004619999999N9999999N1-00521-00751101451ADDMA1999999098821MD1810351+9999OA139900571REMSYN194CMAN  09194 STDM4 46/// /2009 11052 21075 39882 40145 58035 91900 333 91211 555 11008 22009 31808 420016 61859 204010 212010 214009 222011 201911 61849 182072 182080 185076 193073 195069 202072;
0228994200999992005010920004+47100-087120FM-12+0212STDM V0202601N003619999999N9999999N1-00511-00771101331ADDMA1999999098711MD1610461+9999OA139900461REMSYN176CMAN  09204 STDM4 46/// /2607 11051 21077 39871 40133 56046 92000 333 91209 555 11006 22006 31925 420015 61959 244008 222010 227008 200010 20076027 090025 095024 086021 070027;
0032994200999992005010921004+47100-087120FM-12+0212STDM V0202501N003619999999N9999999N1-00501-00781101291ADDMA1999999098671MD1610331+9999
0240994200999992005010922004+47100-087120FM-12+0212STDM V0202601N005719999999N9999999N1-00491-00791101251ADDMA1999999098631MD1610201+9999OA139900671REMSYN188CMAN  09224 STDM4 46/// /2611 11049 21079 39863 40125 56020 92200 333 91213 555 11010 22011 32116 424014 62159 244010 234007 230009 225010 222149 121079 120079 122079 114078 111077 108076;
0032994200999992005010923004+47100-087120FM-12+0212STDM V0202401N007219999999N9999999N1-00431-00751101201ADDMA1999999098581MD1810131+9999
0032994200999992005011000004+47300-087367FM-12+0212STDM V0202301N009319999999N9999999N1-00431-00741101081ADDMA1999999098461MD1810211+9999
0032994200999992005011001004+47300-087367FM-12+0212STDM V0202301N010819999999N9999999N1-00481-00621100981ADDMA1999999098361MD1810271+9999
0032994200999992005011002004+47300-087367FM-12+0212STDM V0202401N013419999999N9999999N1-00401-00491100951ADDMA1999999098331MD1610251+9999
0032994200999992005011003004+47300-087367FM-12+0212STDM V0202601N017519999999N9999999N1-00301-00421100881ADDMA1999999098271MD1610201+9999
0240994200999992005011004004+47300-087367FM-12+0212STDM V0202901N016419999999N9999999N1-00271-00481100951ADDMA1999999098341MD1510031+9999OA139901851REMSYN188CMAN  10044 STDM4 46/// /2932 11027 21048 39834 40095 55003 90400 333 91236 555 11028 22030 30331 427044 60359 279032 272037 275038 269037 260349 079037 071039 066042 066039 066038 071035;
0196994200999992005011005004+47300-087367FM-12+0212STDM V0203001N019019999999N9999999N1-00351-00741101031ADDMA1999999098411MD1310081+9999OA139902111REMSYN144CMAN  10054 STDM4 46/// /3037 11035 21074 39841 40103 53008 90500 333 91241 555 11033 22035 30436 429044 60459 298037 296037 293036 294033 2912;
0032994200999992005011006004+47300-087367FM-12+0212STDM V0203001N018519999999N9999999N1-00421-00751101101ADDMA1999999098481MD1210221+9999
0032994200999992005011007004+47300-087367FM-12+0212STDM V0203001N019019999999N9999999N1-00481-00931101171ADDMA1999999098541MD1110221+9999
0032994200999992005011008004+47300-087367FM-12+0212STDM V0203001N018519999999N9999999N1-00511-00951101291ADDMA1999999098661MD1310261+9999
0240994200999992005011009004+47300-087367FM-12+0212STDM V0203001N017019999999N9999999N1-00531-00921101381ADDMA1999999098741MD1310281+9999OA139902061REMSYN188CMAN  10094 STDM4 46/// /3033 11053 21092 39874 40138 53028 90900 333 91240 555 11029 22031 30810 429042 60859 297033 297034 292035 299033 300849 163037 159039 164041 157030 145027 146028;
0032994200999992005011010004+47300-087367FM-12+0212STDM V0203001N015419999999N9999999N1-00601-00981101501ADDMA1999999098861MD1210331+9999
0032994200999992005011011004+47300-087367FM-12+0212STDM V0203101N020019999999N9999999N1-00671-01081101541ADDMA1999999098901MD1110251+9999
0032994200999992005011012004+47300-087367FM-12+0212STDM V0203001N015919999999N9999999N1-00691-01051101691ADDMA1999999099051MD1310311+9999
0032994200999992005011013004+47300-087367FM-12+0212STDM V0202901N014919999999N9999999N1-00721-01071101841ADDMA1999999099191MD1310341+9999
0032994200999992005011014004+47300-087367FM-12+0212STDM V0203001N014919999999N9999999N1-00771-01061101941ADDMA1999999099291MD1110401+9999
0032994200999992005011015004+47300-087367FM-12+0212STDM V0203001N015919999999N9999999N1-00791-01071102051ADDMA1999999099401MD1110361+9999
0032994200999992005011016004+47300-087367FM-12+0212STDM V0203201N013419999999N9999999N1-00831-01151102141ADDMA1999999099491MD1110301+9999
0032994200999992005011017004+47300-087367FM-12+0212STDM V0203101N012319999999N9999999N1-00831-01201102171ADDMA1999999099521MD1110231+9999
0032994200999992005011018004+47300-087367FM-12+0212STDM V0203001N009319999999N9999999N1-00801-01091102261ADDMA1999999099601MD1210211+9999
0196994200999992005011019004+47300-087367FM-12+0212STDM V0202901N010819999999N9999999N1-00831-01161102241ADDMA1999999099581MD1110101+9999OA139901291REMSYN144CMAN  10194 STDM4 46/// /2921 11083 21116 39958 40224 51010 91900 333 91225 555 11018 22020 31848 428027 61859 286020 283020 287020 281020 2888;
0229994200999992005011020004+47300-087367FM-12+0212STDM V0202801N007219999999N9999999N1-00821-01291102281ADDMA1999999099621MD1110111+9999OA139900821REMSYN177CMAN  10204 STDM4 46/// /2814 11082 21129 39962 40228 51011 92000 333 91216 555 11012 22013 31904 428022 61959 278015 270016 289014 288017 27101 84232 333 56119 84815 555 91018;
0032994200999992005011021004+47300-087367FM-12+0212STDM V0203001N005119999999N9999999N1-00821-01301102341ADDMA1999999099681MD1310081+9999
0198994200999992005011022004+47300-087367FM-12+0212STDM V0202901N007219999999N9999999N1-00801-01301102351ADDMA1999999099681MD1110111+9999OA139900821REMSYN146CMAN  10224 STDM4 46/// /2914 11080 21130 39968 40235 51011 92200 333 91216 555 11012 22013 32127 427019 62159 295012 278013 273013 278015 286014;
0032994200999992005011023004+47300-087367FM-12+0212STDM V0202501N006219999999N9999999N1-00791-01221102381ADDMA1999999099711MD1110101+9999
0032994200999992005011100004+47300-087367FM-12+0212STDM V0202601N006719999999N9999999N1-00791-01251102371ADDMA1999999099701MD1210031+9999
0228994200999992005011101004+47300-087367FM-12+0212STDM V0203001N005719999999N9999999N1-00781-01231102351ADDMA1999999099681MD1010001+9999OA139900671REMSYN176CMAN  11014 STDM4 46/// /3011 11078 21123 39968 40235 50000 90100 333 91213 555 11010 22010 30029 428018 60059 302011 288012 288013 284012 27022046 016046 021045 018045 010048;
0032994200999992005011102004+47300-087367FM-12+0212STDM V0203001N006719999999N9999999N1-00741-01161102331ADDMA1999999099661MD1710051+9999
0032994200999992005011103004+47300-087367FM-12+0212STDM V0202901N005719999999N9999999N1-00711-01191102341ADDMA1999999099671MD1710031+9999
0032994200999992005011104004+47300-087367FM-12+0212STDM V0202501N004119999999N9999999N1-00691-01121102291ADDMA1999999099621MD1810061+9999
0032994200999992005011105004+47300-087367FM-12+0212STDM V0202501N003619999999N9999999N1-00661-01161102251ADDMA1999999099581MD1810081+9999
0198994200999992005011106004+47300-087367FM-12+0212STDM V0202101N003619999999N9999999N1-00641-01091102251ADDMA1999999099591MD1610091+9999OA139900461REMSYN146CMAN  11064 STDM4 46/// /2107 11064 21109 39959 40225 56009 90600 333 91209 555 11007 22007 30550 424011 60559 211008 214007 237007 257005 269015;
0032994200999992005011107004+47300-087367FM-12+0212STDM V0202001N006219999999N9999999N1-00611-01061102211ADDMA1999999099541MD1710081+9999
0032994200999992005011108004+47300-087367FM-12+0212STDM V0202201N006719999999N9999999N1-00581-01031102201ADDMA1999999099541MD1710051+9999
0032994200999992005011109004+47300-087367FM-12+0212STDM V0201901N008219999999N9999999N1-00551-01091102181ADDMA1999999099521MD1610071+9999
0032994200999992005011110004+47300-087367FM-12+0212STDM V0202101N008719999999N9999999N1-00521-01031102101ADDMA1999999099441MD1810111+9999
0032994200999992005011111004+47300-087367FM-12+0212STDM V0202101N008219999999N9999999N1-00501-00981102081ADDMA1999999099421MD1710121+9999
0032994200999992005011112004+47300-087367FM-12+0212STDM V0202201N008219999999N9999999N1-00471-00941102041ADDMA1999999099381MD1610141+9999
0032994200999992005011113004+47300-087367FM-12+0212STDM V0202001N008719999999N9999999N1-00451-00841102041ADDMA1999999099391MD1710061+9999
0032994200999992005011114004+47300-087367FM-12+0212STDM V0202101N008719999999N9999999N1-00451-00791102031ADDMA1999999099371MD1610051+9999
0032994200999992005011115004+47300-087367FM-12+0212STDM V0202101N007219999999N9999999N1-00431-00791102031ADDMA1999999099381MD1410001+9999
0032994200999992005011116004+47300-087367FM-12+0212STDM V0202201N006219999999N9999999N1-00401-00691102051ADDMA1999999099401MD1410001+9999
0032994200999992005011117004+47300-087367FM-12+0212STDM V0202201N004619999999N9999999N1-00401-00711101991ADDMA1999999099341MD1810041+9999
0032994200999992005011118004+47300-087367FM-12+0212STDM V0202201N005119999999N9999999N1-00401-00681101861ADDMA1999999099221MD1810171+9999
0032994200999992005011119004+47300-087367FM-12+0212STDM V0202401N004619999999N9999999N1-00381-00641101861ADDMA1999999099221MD1610191+9999
0032994200999992005011120004+47300-087367FM-12+0212STDM V0202401N003619999999N9999999N1-00351-00591101851ADDMA1999999099211MD1610141+9999
0032994200999992005011121004+47300-087367FM-12+0212STDM V0202101N002119999999N9999999N1-00331-00601101841ADDMA1999999099201MD1410001+9999
0032994200999992005011122004+47300-087367FM-12+0212STDM V0202001N004119999999N9999999N1-00281-00601101821ADDMA1999999099191MD1710041+9999
0032994200999992005011123004+47300-087367FM-12+0212STDM V0201501N002619999999N9999999N1-00251-00611101831ADDMA1999999099191MD1410001+9999
0032994200999992005011200004+47300-087367FM-12+0212STDM V0201501N005119999999N9999999N1-00191-00521101741ADDMA1999999099111MD1810101+9999
0032994200999992005011201004+47300-087367FM-12+0212STDM V0201501N005719999999N9999999N1-00161-00501101741ADDMA1999999099111MD1710081+9999
0198994200999992005011202004+47300-087367FM-12+0212STDM V0201701N006219999999N9999999N1-00131-00491101721ADDMA1999999099091MD1610111+9999OA139900671REMSYN146CMAN  12024 STDM4 46/// /1712 11013 21049 39909 40172 56011 90200 333 91213 555 11010 22011 30141 417015 60159 169012 165012 159012 152012 156015;
0032994200999992005011203004+47300-087367FM-12+0212STDM V0201701N006219999999N9999999N1-00111-00401101681ADDMA1999999099051MD1810061+9999
0032994200999992005011204004+47300-087367FM-12+0212STDM V0201401N005719999999N9999999N1-00101-00351101541ADDMA1999999098921MD1810201+9999
0198994200999992005011205004+47300-087367FM-12+0212STDM V0201401N006219999999N9999999N1-00111-00321101531ADDMA1999999098911MD1610191+9999OA139900721REMSYN146CMAN  12054 STDM4 46/// /1412 11011 21032 39891 40153 56019 90500 333 91214 555 11011 22012 30458 413014 60459 133012 139011 133011 138011 139003;
0032994200999992005011206004+47300-087367FM-12+0212STDM V0201401N006219999999N9999999N1-00101-00301101491ADDMA1999999098881MD1610191+9999
0032994200999992005011207004+47300-087367FM-12+0212STDM V0201301N006719999999N9999999N1-00091-00231101451ADDMA1999999098831MD1810091+9999
0032994200999992005011208004+47300-087367FM-12+0212STDM V0201301N006719999999N9999999N1-00081-00211101391ADDMA1999999098771MD1810141+9999
0032994200999992005011209004+47300-087367FM-12+0212STDM V0201201N007219999999N9999999N1-00071-00151101311ADDMA1999999098701MD1810181+9999
0032994200999992005011210004+47300-087367FM-12+0212STDM V0201101N008719999999N9999999N1-00031-00141101131ADDMA1999999098531MD1810321+9999
0032994200999992005011211004+47300-087367FM-12+0212STDM V0201101N009819999999N9999999N1+00001-00121101051ADDMA1999999098451MD1710341+9999
0240994200999992005011212004+47300-087367FM-12+0212STDM V0201001N010319999999N9999999N1-00011-00111100921ADDMA1999999098321MD1610391+9999OA139901131REMSYN188CMAN  12124 STDM4 46/// /1020 11001 21011 39832 40092 56039 91200 333 91222 555 11018 22019 31109 411022 61159 108020 109020 109019 108019 111149 200021 189021 190023 205024 194022 186020;
0198994200999992005011213004+47300-087367FM-12+0212STDM V0201101N012319999999N9999999N1-00021-00091100791ADDMA1999999098201MD1810341+9999OA139901291REMSYN146CMAN  12134 STDM4 46/// /1124 11002 21009 39820 40079 58034 91300 333 91225 555 11021 22022 31235 411027 61259 107024 110024 108025 107023 100010;
0032994200999992005011214004+47300-087367FM-12+0212STDM V0201001N013919999999N9999999N1-00071-00111100651ADDMA1999999098061MD1810401+9999
0032994200999992005011215004+47300-087367FM-12+0212STDM V0201101N015919999999N9999999N1-00081-00161100491ADDMA1999999097901MD1810431+9999
0032994200999992005011216004+47300-087367FM-12+0212STDM V0201101N013919999999N9999999N1-00071-00151100401ADDMA1999999097821MD1610391+9999
0032994200999992005011217004+47300-087367FM-12+0212STDM V0201201N013919999999N9999999N1-00081-00141100261ADDMA1999999097681MD1610391+9999
0206994200999992005011218004+47300-087367FM-12+0212STDM V0201301N012919999999N9999999N1-00041-00101100031ADDMA1999999097461MD1810461+9999OA139901341REMSYN154CMAN  12184 STDM4 46/// /1325 11004 21010 39746 40003 58046 91800 333 91226 555 11022 22024 31732 413034 61759 133025 130027 128029 125029 12 96451 96445;
0032994200999992005011219004+47300-087367FM-12+0212STDM V0201301N006719999999N9999999N1-00041-00081099871ADDMA1999999097311MD1810531+9999
0032994200999992005011220004+47300-087367FM-12+0212STDM V0201401N013919999999N9999999N1+00041-00041099661ADDMA1999999097101MD1610601+9999
0032994200999992005011221004+47300-087367FM-12+0212STDM V0201401N012319999999N9999999N1+00061+00021099571ADDMA1999999097011MD1610461+9999
0032994200999992005011222004+47300-087367FM-12+0212STDM V0201601N012319999999N9999999N1+00111+00091099611ADDMA1999999097051MD1510261+9999
0240994200999992005011223004+47300-087367FM-12+0212STDM V0201601N008719999999N9999999N1+00131+00111099561ADDMA1999999097011MD1610101+9999OA139900931REMSYN188CMAN  12234 STDM4 46/// /1617 10013 20011 39701 49956 56010 92300 333 91218 555 11016 22017 32201 416026 62259 161018 159019 157021 160022 162249 068053 071054 070049 074048 074050 074055;
0032994200999992005011300004+47300-087367FM-12+0212STDM V0201701N008219999999N9999999N1+00151+00131099511ADDMA1999999096961MD1810061+9999
0032994200999992005011301004+47300-087367FM-12+0212STDM V0202001N008219999999N9999999N1+00201+00151099461ADDMA1999999096911MD1710151+9999
0032994200999992005011302004+47300-087367FM-12+0212STDM V0202001N009319999999N9999999N1+00211+00141099471ADDMA1999999096921MD1610091+9999
0032994200999992005011303004+47300-087367FM-12+0212STDM V0202301N009819999999N9999999N1+00241+00051099501ADDMA1999999096951MD1510001+9999
0032994200999992005011304004+47300-087367FM-12+0212STDM V0202701N012319999999N9999999N1+00201+00031099541ADDMA1999999096991MD1310081+9999
0032994200999992005011305004+47300-087367FM-12+0212STDM V0202601N012919999999N9999999N1+00151-00161099591ADDMA1999999097031MD1310121+9999
0197994200999992005011306004+47300-087367FM-12+0212STDM V0202501N015419999999N9999999N1+00091-00161099701ADDMA1999999097141MD1310201+9999OA139901651REMSYN145CMAN  13064 STDM4 46/// /2530 10009 21016 39714 49970 53020 90600 333 91232 555 11026 22028 30510 425034 60559 256030 256029 255027 254027 25005;
0032994200999992005011307004+47300-087367FM-12+0212STDM V0202601N015919999999N9999999N1+00061-00221099711ADDMA1999999097151MD1110171+9999
0032994200999992005011308004+47300-087367FM-12+0212STDM V0202701N018519999999N9999999N1+00071+99999099731ADDMA1999999097171MD1110141+9999
0032994200999992005011309004+47300-087367FM-12+0212STDM V0202901N016419999999N9999999N1+00001-00401099831ADDMA1999999097271MD1310131+9999
0032994200999992005011310004+47300-087367FM-12+0212STDM V0202801N013419999999N9999999N1-00011-00411099991ADDMA1999999097431MD1310281+9999
0032994200999992005011311004+47300-087367FM-12+0212STDM V0202801N014919999999N9999999N1-00051-00441100021ADDMA1999999097451MD1110291+9999
0032994200999992005011312004+47300-087367FM-12+0212STDM V0202701N016419999999N9999999N1-00091-00491100071ADDMA1999999097501MD1110241+9999
0032994200999992005011313004+47300-087367FM-12+0212STDM V0202801N014419999999N9999999N1-00111-00481100041ADDMA1999999097471MD1010051+9999
0032994200999992005011314004+47300-087367FM-12+0212STDM V0202801N017019999999N9999999N1-00131-00511100211ADDMA1999999097641MD1310191+9999
0194994200999992005011315004+47300-087367FM-12+0212STDM V0202701N019019999999N9999999N1-00181-00541100301ADDMA1999999097731MD1310231+9999OA139902061REMSYN142CMAN  13154 STDM4 46/// /2737 11018 21054 39773 40030 53023 91500 333 91240 555 11032 22035 31404 427042 61459 275035 279035 277033 274037 27;
0032994200999992005011316004+47300-087367FM-12+0212STDM V0202801N019519999999N9999999N1-00301-00671100391ADDMA1999999097811MD1110351+9999
0032994200999992005011317004+47300-087367FM-12+0212STDM V0202701N019019999999N9999999N1-00431-00771100391ADDMA1999999097811MD1110181+9999
0206994200999992005011318004+47300-087367FM-12+0212STDM V0202701N022619999999N9999999N1-00631-00991100411ADDMA1999999097811MD1110111+9999OA139902471REMSYN154CMAN  13184 STDM4 46/// /2744 11063 21099 39781 40041 51011 91800 333 91248 555 11039 22042 31746 428049 61759 279043 280041 276042 275041 27 96486 96485;
0032994200999992005011319004+47300-087367FM-12+0212STDM V0202901N021119999999N9999999N1-00771-01041100481ADDMA1999999097891MD1310091+9999
0032994200999992005011320004+47300-087367FM-12+0212STDM V0202901N020019999999N9999999N1-00931-01291100631ADDMA1999999098031MD1310241+9999
0032994200999992005011321004+47300-087367FM-12+0212STDM V0202801N021119999999N9999999N1-01011-01461100781ADDMA1999999098161MD1310371+9999
0032994200999992005011322004+47300-087367FM-12+0212STDM V0202901N022619999999N9999999N1-01051-01451100841ADDMA1999999098221MD1110361+9999
0240994200999992005011323004+47300-087367FM-12+0212STDM V0202801N020019999999N9999999N1-01121-01531101051ADDMA1999999098421MD1310421+9999OA139902211REMSYN188CMAN  13234 STDM4 46/// /2839 11112 21153 39842 40105 53042 92300 333 91243 555 11034 22037 32200 429049 62259 284040 287038 281040 284041 282249 221037 226040 230041 229043 231046 236048;
0032994200999992005011400004+47300-087367FM-12+0212STDM V0202801N021119999999N9999999N1-01261-01691101211ADDMA1999999098571MD1310431+9999
0032994200999992005011401004+47300-087367FM-12+0212STDM V0203001N018519999999N9999999N1-01341-01601101381ADDMA1999999098731MD1110541+9999
0032994200999992005011402004+47300-087367FM-12+0212STDM V0202901N018519999999N9999999N1-01481-01831101481ADDMA1999999098831MD1110431+9999
0032994200999992005011403004+47300-087367FM-12+0212STDM V0203001N017019999999N9999999N1-01571-01881101651ADDMA1999999098991MD1210441+9999
0240994200999992005011404004+47300-087367FM-12+0212STDM V0203001N016419999999N9999999N1-01581-01821101721ADDMA1999999099061MD1110341+9999OA139901961REMSYN188CMAN  14044 STDM4 46/// /3032 11158 21182 39906 40172 51034 90400 333 91238 555 11028 22030 30349 429043 60359 299032 298035 297032 301033 30020 0053025 154025 156023 153020 155015 148018;
0032994200999992005011405004+47300-087367FM-12+0212STDM V0202901N018519999999N9999999N1-01591-01911101821ADDMA1999999099151MD1110341+9999
0222994200999992005011406004+47300-087367FM-12+0212STDM V0202801N018019999999N9999999N1-01611-02071101901ADDMA1999999099211MD1310251+9999OA139902111REMSYN170CMAN  14064 STDM4 46/// /2835 11161 21207 39921 40190 53025 90600 333 91241 555 11031 22033 30518 429043 60559 286035 286034 286033 287034 28 003044 011038 025042 003050;
0032994200999992005011407004+47300-087367FM-12+0212STDM V0202801N020619999999N9999999N1-01561-01971101941ADDMA1999999099261MD1110221+9999
0032994200999992005011408004+47300-087367FM-12+0212STDM V0202801N022119999999N9999999N1-01601-02061102011ADDMA1999999099321MD1110191+9999
0032994200999992005011409004+47300-087367FM-12+0212STDM V0202901N019519999999N9999999N1-01601-01931102171ADDMA1999999099471MD1310271+9999
0032994200999992005011410004+47300-087367FM-12+0212STDM V0202901N019019999999N9999999N1-01621-01901102251ADDMA1999999099551MD1310311+9999
0032994200999992005011411004+47300-087367FM-12+0212STDM V0203101N017019999999N9999999N1-01651-01951102391ADDMA1999999099681MD1110381+9999
0032994200999992005011412004+47300-087367FM-12+0212STDM V0202901N017019999999N9999999N1-01611-02061102501ADDMA1999999099781MD1310331+9999
0032994200999992005011413004+47300-087367FM-12+0212STDM V0203001N014419999999N9999999N1-01501-01831102551ADDMA1999999099831MD1110301+9999
0032994200999992005011414004+47300-087367FM-12+0212STDM V0203001N017019999999N9999999N1-01511-01951102601ADDMA1999999099871MD1110211+9999
0032994200999992005011415004+47300-087367FM-12+0212STDM V0203001N017519999999N9999999N1-01511-01911102721ADDMA1999999099991MD1310221+9999
0032994200999992005011416004+47300-087367FM-12+0212STDM V0203001N015419999999N9999999N1-01551-02001102891ADDMA1999999100151MD1310341+9999
0032994200999992005011417004+47300-087367FM-12+0212STDM V0203001N014419999999N9999999N1-01571-01881102961ADDMA1999999100221MD1110361+9999
0032994200999992005011418004+47300-087367FM-12+0212STDM V0203001N015419999999N9999999N1-01591-02111102981ADDMA1999999100231MD1110261+9999
0032994200999992005011419004+47300-087367FM-12+0212STDM V0202901N014419999999N9999999N1-01571-02091103041ADDMA1999999100301MD1110151+9999
0032994200999992005011420004+47300-087367FM-12+0212STDM V0203001N014419999999N9999999N1-01541-02041103051ADDMA1999999100311MD1210091+9999
0032994200999992005011421004+47300-087367FM-12+0212STDM V0202801N014919999999N9999999N1-01481-02091103051ADDMA1999999100311MD1110071+9999
0032994200999992005011422004+47300-087367FM-12+0212STDM V0202701N014919999999N9999999N1-01401-01881103021ADDMA1999999100281MD1010001+9999
0032994200999992005011423004+47300-087367FM-12+0212STDM V0202501N015919999999N9999999N1-01341-01791102991ADDMA1999999100261MD1810061+9999
0032994200999992005011500004+47300-087367FM-12+0212STDM V0202401N020619999999N9999999N1-01371-01631102971ADDMA1999999100241MD1610081+9999
0032994200999992005011501004+47300-087367FM-12+0212STDM V0202501N019019999999N9999999N1-01401-01811102981ADDMA1999999100251MD1610041+9999
0032994200999992005011502004+47300-087367FM-12+0212STDM V0202401N021119999999N9999999N1-01431-01891102951ADDMA1999999100221MD1810041+9999
0032994200999992005011503004+47300-087367FM-12+0212STDM V0202401N020019999999N9999999N1-01421-01861102951ADDMA1999999100221MD1410001+9999
0032994200999992005011504004+47300-087367FM-12+0212STDM V0202301N020019999999N9999999N1-01451-01781102971ADDMA1999999100231MD1510001+9999
0032994200999992005011505004+47300-087367FM-12+0212STDM V0202401N021119999999N9999999N1-01461-01731102951ADDMA1999999100221MD1410001+9999
0032994200999992005011506004+47300-087367FM-12+0212STDM V0202401N020619999999N9999999N1-01501-01761102961ADDMA1999999100221MD1410001+9999
0032994200999992005011507004+47300-087367FM-12+0212STDM V0202401N021119999999N9999999N1-01501-01771102931ADDMA1999999100191MD1810041+9999
0032994200999992005011508004+47300-087367FM-12+0212STDM V0202401N022119999999N9999999N1-01481-01651102911ADDMA1999999100181MD1710041+9999
0032994200999992005011509004+47300-087367FM-12+0212STDM V0202401N020019999999N9999999N1-01451-01651102941ADDMA1999999100211MD1510001+9999
0240994200999992005011510004+47300-087367FM-12+0212STDM V0202401N020019999999N9999999N1-01481-01711102951ADDMA1999999100221MD1410001+9999OA139902321REMSYN188CMAN  15104 STDM4 46/// /2439 11148 21171 30022 40295 54000 91000 333 91245 555 11034 22037 30950 425049 60959 239042 241039 241038 239038 240949 351035 355034 006030 004028 357031 003037;
0032994200999992005011511004+47300-087367FM-12+0212STDM V0202501N021119999999N9999999N1-01481-01651102951ADDMA1999999100221MD1110041+9999
0032994200999992005011512004+47300-087367FM-12+0212STDM V0202501N019019999999N9999999N1-01461-01611102991ADDMA1999999100261MD1310051+9999
0032994200999992005011513004+47300-087367FM-12+0212STDM V0202701N018019999999N9999999N1-01541-01981103061ADDMA1999999100331MD1310111+9999
0032994200999992005011514004+47300-087367FM-12+0212STDM V0202701N017519999999N9999999N1-01511-01781103101ADDMA1999999100371MD1210151+9999
0032994200999992005011515004+47300-087367FM-12+0212STDM V0202901N018019999999N9999999N1-01591-01931103191ADDMA1999999100441MD1310201+9999
0032994200999992005011516004+47300-087367FM-12+0212STDM V0202901N015919999999N9999999N1-01601-01921103281ADDMA1999999100541MD1310221+9999
0032994200999992005011517004+47300-087367FM-12+0212STDM V0202901N017519999999N9999999N1-01641-01971103311ADDMA1999999100561MD1110211+9999
0032994200999992005011518004+47300-087367FM-12+0212STDM V0202801N014919999999N9999999N1-01701-02081103391ADDMA1999999100641MD1110201+9999
0032994200999992005011519004+47300-087367FM-12+0212STDM V0202901N015919999999N9999999N1-01731-02071103391ADDMA1999999100641MD1110111+9999
0032994200999992005011520004+47300-087367FM-12+0212STDM V0203001N014919999999N9999999N1-01741-02091103441ADDMA1999999100691MD1110131+9999
0032994200999992005011521004+47300-087367FM-12+0212STDM V0202801N016419999999N9999999N1-01681-02051103491ADDMA1999999100731MD1310101+9999
0032994200999992005011522004+47300-087367FM-12+0212STDM V0202901N015419999999N9999999N1-01621-01981103531ADDMA1999999100781MD1110141+9999
0032994200999992005011523004+47300-087367FM-12+0212STDM V0202701N016419999999N9999999N1-01571-01791103551ADDMA1999999100801MD1110111+9999
0032994200999992005011600004+47300-087367FM-12+0212STDM V0202801N014919999999N9999999N1-01561-01891103621ADDMA1999999100861MD1310131+9999
0032994200999992005011601004+47300-087367FM-12+0212STDM V0202701N012319999999N9999999N1-01561-01971103661ADDMA1999999100901MD1310131+9999
0032994200999992005011602004+47300-087367FM-12+0212STDM V0202901N013419999999N9999999N1-01511-01941103651ADDMA1999999100901MD1110101+9999
0234994200999992005011603004+47300-087367FM-12+0212STDM V0202901N013419999999N9999999N1-01501-01861103661ADDMA1999999100901MD1110041+9999OA139901541REMSYN182CMAN  16034 STDM4 46/// /2926 11150 21186 30090 40366 51004 90300 333 91230 555 11023 22025 30235 428035 60259 292026 290027 281027 295027 2919035 320034 324032 325028 331029 337027;
0032994200999992005011604004+47300-087367FM-12+0212STDM V0203001N012919999999N9999999N1-01491-01871103661ADDMA1999999100911MD1410001+9999
0032994200999992005011605004+47300-087367FM-12+0212STDM V0203001N012319999999N9999999N1-01501-01871103691ADDMA1999999100941MD1310041+9999
0032994200999992005011606004+47300-087367FM-12+0212STDM V0203101N012919999999N9999999N1-01521-01861103691ADDMA1999999100931MD1210031+9999
0032994200999992005011607004+47300-087367FM-12+0212STDM V0203001N011819999999N9999999N1-01561-01901103721ADDMA1999999100961MD1210061+9999
0032994200999992005011608004+47300-087367FM-12+0212STDM V0203001N012319999999N9999999N1-01581-01951103741ADDMA1999999100971MD1210051+9999
0032994200999992005011609004+47300-087367FM-12+0212STDM V0202901N009819999999N9999999N1-01581-02021103761ADDMA1999999100991MD1110071+9999
0032994200999992005011610004+47300-087367FM-12+0212STDM V0203101N008219999999N9999999N1-01561-02131103721ADDMA1999999100961MD1010001+9999
0032994200999992005011611004+47300-087367FM-12+0212STDM V0203101N007719999999N9999999N1-01521-02031103671ADDMA1999999100911MD1810071+9999
0032994200999992005011612004+47300-087367FM-12+0212STDM V0202901N007219999999N9999999N1-01501-02061103661ADDMA1999999100911MD1610101+9999
0032994200999992005011613004+47300-087367FM-12+0212STDM V0202901N007219999999N9999999N1-01451-02031103631ADDMA1999999100871MD1610091+9999
0032994200999992005011614004+47300-087367FM-12+0212STDM V0203101N006719999999N9999999N1-01451-01991103601ADDMA1999999100851MD1810071+9999
0032994200999992005011615004+47300-087367FM-12+0212STDM V0203001N007719999999N9999999N1-01451-02171103601ADDMA1999999100851MD1610061+9999
0032994200999992005011616004+47300-087367FM-12+0212STDM V0202801N007219999999N9999999N1-01441-02131103611ADDMA1999999100861MD1510001+9999
0032994200999992005011617004+47300-087367FM-12+0212STDM V0202801N007719999999N9999999N1-01441-02031103601ADDMA1999999100851MD1410001+9999
0032994200999992005011618004+47300-087367FM-12+0212STDM V0203101N007219999999N9999999N1-01471-02041103521ADDMA1999999100771MD1810081+9999
0032994200999992005011619004+47300-087367FM-12+0212STDM V0203001N008719999999N9999999N1-01481-01991103481ADDMA1999999100731MD1810131+9999
0240994200999992005011620004+47300-087367FM-12+0212STDM V0202901N009319999999N9999999N1-01531-01981103461ADDMA1999999100711MD1610141+9999OA139901131REMSYN188CMAN  16204 STDM4 46/// /2918 11153 21198 30071 40346 56014 92000 333 91222 555 11016 22017 31957 430027 61959 295017 297018 302016 306016 291949 123086 122088 123088 121085 121085 118090;
0032994200999992005011621004+47300-087367FM-12+0212STDM V0202901N009819999999N9999999N1-01511-01951103471ADDMA1999999100711MD1610051+9999
0228994200999992005011622004+47300-087367FM-12+0212STDM V0203001N011319999999N9999999N1-01521-02031103491ADDMA1999999100731MD1410001+9999OA139901241REMSYN176CMAN  16224 STDM4 46/// /3022 11152 21203 30073 40349 54000 92200 333 91224 555 11019 22021 32115 429028 62159 299018 306019 299015 292017 29004040 336023 352033 312029 334034;
0032994200999992005011623004+47300-087367FM-12+0212STDM V0203001N007719999999N9999999N1-01531-01981103561ADDMA1999999100801MD1310101+9999
0032994200999992005011700004+47100-087120FM-12+0212STDM V0202901N009319999999N9999999N1-01551-02041103571ADDMA1999999100821MD1210101+9999
0032994200999992005011701004+47100-087120FM-12+0212STDM V0202801N011819999999N9999999N1-01561-02151103571ADDMA1999999100811MD1110081+9999
0032994200999992005011702004+47100-087120FM-12+0212STDM V0203101N010819999999N9999999N1-01591-02211103561ADDMA1999999100811MD1410001+9999
0032994200999992005011703004+47100-087120FM-12+0212STDM V0203001N009819999999N9999999N1-01631-02161103571ADDMA1999999100811MD1410001+9999
0032994200999992005011704004+47100-087120FM-12+0212STDM V0203001N010819999999N9999999N1-01591-01971103541ADDMA1999999100791MD1810031+9999
0032994200999992005011705004+47100-087120FM-12+0212STDM V0203201N008219999999N9999999N1-01641-02191103591ADDMA1999999100841MD1310031+9999
0032994200999992005011705004+47300-087367FM-12+0212STDM V0203201N008219999999N9999999N1-01641-02191103591ADDMA1999999100841MD1310031+9999
0032994200999992005011706004+47100-087120FM-12+0212STDM V0203001N008719999999N9999999N1-01641-02141103591ADDMA1999999100831MD1510001+9999
0032994200999992005011707004+47100-087120FM-12+0212STDM V0203001N008719999999N9999999N1-01641-01971103601ADDMA1999999100841MD1110061+9999
0032994200999992005011708004+47100-087120FM-12+0212STDM V0203101N009319999999N9999999N1-01681-02141103631ADDMA1999999100871MD1310041+9999
0240994200999992005011709004+47100-087120FM-12+0212STDM V0203401N011819999999N9999999N1-01721-02071103651ADDMA1999999100891MD1210061+9999OA139901341REMSYN188CMAN  17094 STDM4 46/// /3423 11172 21207 30089 40365 52006 90900 333 91226 555 11020 22022 30841 433030 60859 327021 329024 336019 329021 320849 002055 003050 008041 015036 013043 009055;
0032994200999992005011710004+47100-087120FM-12+0212STDM V0203201N009819999999N9999999N1-01741-02191103681ADDMA1999999100921MD1210081+9999
0032994200999992005011711004+47100-087120FM-12+0212STDM V0203301N010319999999N9999999N1-01701-02091103691ADDMA1999999100931MD1210061+9999
0032994200999992005011712004+47100-087120FM-12+0212STDM V0203301N011319999999N9999999N1-01711-01991103751ADDMA1999999100981MD1310101+9999
0032994200999992005011713004+47100-087120FM-12+0212STDM V0203501N010819999999N9999999N1-01691-02221103841ADDMA1999999101071MD1310161+9999
0240994200999992005011714004+47100-087120FM-12+0212STDM V0203601N012919999999N9999999N1-01711-01981103911ADDMA1999999101141MD1310221+9999OA139901391REMSYN188CMAN  17144 STDM4 46/// /3625 11171 21198 30114 40391 53022 91400 333 91227 555 11022 22024 31345 434031 61359 347024 353024 352024 344024 341349 116055 120060 119063 116064 123065 123070;
0032994200999992005011715004+47100-087120FM-12+0212STDM V0203501N011319999999N9999999N1-01701-02071103941ADDMA1999999101171MD1110191+9999
0032994200999992005011716004+47100-087120FM-12+0212STDM V0203401N009819999999N9999999N1-01691-02301104001ADDMA1999999101231MD1110161+9999
0032994200999992005011717004+47100-087120FM-12+0212STDM V0203301N011319999999N9999999N1-01681-02041104011ADDMA1999999101241MD1110101+9999
0032994200999992005011718004+47100-087120FM-12+0212STDM V0203501N009319999999N9999999N1-01651-02041104061ADDMA1999999101281MD1110121+9999
0246994200999992005011719004+47100-087120FM-12+0212STDM V0203401N010819999999N9999999N1-01631-01911104061ADDMA1999999101281MD1210061+9999OA139901291REMSYN194CMAN  17194 STDM4 46/// /3421 11163 21191 30128 40406 52006 91900 333 91225 555 11019 22020 31824 434027 61859 338020 340018 344018 338020 341715 61849 158085 159098 165087 155084 140065 143078;
0032994200999992005011720004+47100-087120FM-12+0212STDM V0203201N008219999999N9999999N1-01591-02021104091ADDMA1999999101311MD1110081+9999
0032994200999992005011721004+47100-087120FM-12+0212STDM V0203301N010819999999N9999999N1-01601-01911104101ADDMA1999999101331MD1210041+9999
0032994200999992005011722004+47100-087120FM-12+0212STDM V0203101N010319999999N9999999N1-01571-01881104131ADDMA1999999101351MD1210071+9999
0032994200999992005011723004+47100-087120FM-12+0212STDM V0203101N007719999999N9999999N1-01571-02081104181ADDMA1999999101401MD1310091+9999
0251994200999992005011800004+47300-087367FM-12+0212STDM V0203101N007719999999N9999999N1-01521-01891104171ADDMA1999999101391MD1110071+9999OA139901031REMSYN199CMAN  18004 STDM4 46/// /3115 11152 21189 30139 40417 51007 90000 333 91220 555 11014 22015 32325 432028 62359 318016 319020 320020 313018 33319 43408 62349 333055 343056 344065 341064 337065 339064;
0032994200999992005011801004+47300-087367FM-12+0212STDM V0203001N009319999999N9999999N1-01451-01841104151ADDMA1999999101381MD1010001+9999
0032994200999992005011802004+47300-087367FM-12+0212STDM V0203201N009319999999N9999999N1-01441-01751104131ADDMA1999999101361MD1710051+9999
0032994200999992005011803004+47300-087367FM-12+0212STDM V0203001N008719999999N9999999N1-01401-01701104091ADDMA1999999101321MD1810081+9999
0032994200999992005011804004+47300-087367FM-12+0212STDM V0202901N005719999999N9999999N1-01411-01701104071ADDMA1999999101301MD1710081+9999
0032994200999992005011805004+47300-087367FM-12+0212STDM V0202801N007219999999N9999999N1-01391-01741104051ADDMA1999999101291MD1610081+9999
0032994200999992005011806004+47300-087367FM-12+0212STDM V0202401N003119999999N9999999N1-01421-01911103941ADDMA1999999101181MD1810151+9999
0246994200999992005011807004+47300-087367FM-12+0212STDM V0202601N007719999999N9999999N1-01381-01741103891ADDMA1999999101131MD1810181+9999OA139900881REMSYN194CMAN  18074 STDM4 46/// /2615 11138 21174 30113 40389 58018 90700 333 91217 555 11013 22014 30659 426017 60659 255012 254011 251009 249009 222012 60649 194083 196085 197086 202082 195094 196087;
0246994200999992005011808004+47300-087367FM-12+0212STDM V0202401N004619999999N9999999N1-01321-01621103791ADDMA1999999101131MD1610261+9999OA139900571REMSYN194CMAN  18084 STDM4 46/// /2409 11132 21162 30113 40379 56026 90800 333 91211 555 11008 22009 30718 423018 60759 255010 260011 251014 249013 221910 60749 189064 189071 190072 188079 189080 190080;
0032994200999992005011809004+47300-087367FM-12+0212STDM V0202201N008719999999N9999999N1-01351-01661103831ADDMA1999999101071MD1510111+9999
0240994200999992005011810004+47300-087367FM-12+0212STDM V0202101N012919999999N9999999N1-01311-01731103721ADDMA1999999100971MD1810171+9999OA139901441REMSYN188CMAN  18104 STDM4 46/// /2125 11131 21173 30097 40372 58017 91000 333 91228 555 11022 22024 30957 421030 60959 209023 218022 218023 218020 210949 191096 190099 194102 196099 195101 194099;
0032994200999992005011811004+47300-087367FM-12+0212STDM V0202101N012319999999N9999999N1-01311-02041103541ADDMA1999999100791MD1810251+9999
0032994200999992005011812004+47300-087367FM-12+0212STDM V0202001N012919999999N9999999N1-01301-01821103401ADDMA1999999100651MD1810431+9999
0240994200999992005011813004+47300-087367FM-12+0212STDM V0202001N013419999999N9999999N1-01241-01701103301ADDMA1999999100571MD1610421+9999OA139901651REMSYN188CMAN  18134 STDM4 46/// /2026 11124 21170 30057 40330 56042 91300 333 91232 555 11024 22025 31259 420032 61259 198027 195026 194025 195025 191249 011044 016046 022043 037040 040041 047041;
0228994200999992005011814004+47300-087367FM-12+0212STDM V0201901N014419999999N9999999N1-01341-01721103051ADDMA1999999100321MD1810491+9999OA139901601REMSYN176CMAN  18144 STDM4 46/// /1928 11134 21172 30032 40305 58049 91400 333 91231 555 11025 22026 31336 420038 61359 186028 197030 195031 198030 19130030 125030 132029 126034 123038;
0032994200999992005011815004+47300-087367FM-12+0212STDM V0201901N016419999999N9999999N1-01281-01791102871ADDMA1999999100151MD1810531+9999
0032994200999992005011816004+47300-087367FM-12+0212STDM V0201801N017519999999N9999999N1-01211-01561102671ADDMA1999999099951MD1610631+9999
0032994200999992005011817004+47300-087367FM-12+0212STDM V0201801N018019999999N9999999N1-01141-01701102431ADDMA1999999099721MD1810621+9999
0032994200999992005011818004+47300-087367FM-12+0212STDM V0201701N020019999999N9999999N1-01071-01571102161ADDMA1999999099471MD1810711+9999
0032994200999992005011819004+47300-087367FM-12+0212STDM V0201701N021619999999N9999999N1-00951-01561101831ADDMA1999999099151MD1810841+9999
0032994200999992005011820004+47300-087367FM-12+0212STDM V0201801N021119999999N9999999N1-00851-01611101591ADDMA1999999098911MD1610841+9999
0032994200999992005011821004+47300-087367FM-12+0212STDM V0201801N019019999999N9999999N1-00801-01381101311ADDMA1999999098651MD1610851+9999
0032994200999992005011822004+47300-087367FM-12+0212STDM V0201801N019019999999N9999999N1-00741-01531101121ADDMA1999999098461MD1610711+9999
0032994200999992005011823004+47300-087367FM-12+0212STDM V0201801N019519999999N9999999N1-00861+99999100901ADDMA1999999098241MD1610691+9999
0032994200999992005011900004+47300-087367FM-12+0212STDM V0201901N018519999999N9999999N1-00891+99999100921ADDMA1999999098261MD1610391+9999
0032994200999992005011901004+47300-087367FM-12+0212STDM V0201901N017519999999N9999999N1-00891-01041100821ADDMA1999999098171MD1610301+9999
0032994200999992005011902004+47300-087367FM-12+0212STDM V0201801N019519999999N9999999N1-00861-01111100601ADDMA1999999097951MD1810301+9999
0032994200999992005011903004+47300-087367FM-12+0212STDM V0202001N017519999999N9999999N1-00811-00961100481ADDMA1999999097841MD1810441+9999
0032994200999992005011904004+47300-087367FM-12+0212STDM V0202101N012919999999N9999999N1-00801-01021100441ADDMA1999999097811MD1610381+9999
0240994200999992005011905004+47300-087367FM-12+0212STDM V0202101N010819999999N9999999N1-00771-00961100351ADDMA1999999097721MD1610251+9999OA139901241REMSYN188CMAN  19054 STDM4 46/// /2121 11077 21096 39772 40035 56025 90500 333 91224 555 11019 22020 30412 420030 60459 211023 210024 210024 208025 200449 094059 093060 089058 086056 084056 081056;
0204994200999992005011906004+47300-087367FM-12+0212STDM V0202201N009319999999N9999999N1-00741-00911100291ADDMA1999999097661MD1810191+9999OA139901081REMSYN152CMAN  19064 STDM4 46/// /2218 11074 21091 39766 40029 58019 90600 333 91221 555 11016 22017 30539 421027 60559 217019 214020 213021 212022 21 555 69965;
0032994200999992005011907004+47300-087367FM-12+0212STDM V0202301N009319999999N9999999N1-00671-00821100251ADDMA1999999097631MD1610191+9999
0032994200999992005011908004+47300-087367FM-12+0212STDM V0202501N009819999999N9999999N1-00531-00661100241ADDMA1999999097631MD1610111+9999
0032994200999992005011909004+47300-087367FM-12+0212STDM V0203001N011319999999N9999999N1-00461-00581100261ADDMA1999999097651MD1610031+9999
0032994200999992005011910004+47300-087367FM-12+0212STDM V0203201N016419999999N9999999N1-00381-00741100341ADDMA1999999097741MD1310091+9999
0032994200999992005011911004+47300-087367FM-12+0212STDM V0203201N018519999999N9999999N1-00471-00741100491ADDMA1999999097871MD1310251+9999
0032994200999992005011912004+47300-087367FM-12+0212STDM V0203301N019519999999N9999999N1-00541-00891100651ADDMA1999999098021MD1310391+9999
0032994200999992005011913004+47300-087367FM-12+0212STDM V0203201N020019999999N9999999N1-00641-01011100831ADDMA1999999098201MD1310491+9999
0032994200999992005011914004+47300-087367FM-12+0212STDM V0203201N019519999999N9999999N1-00731-01071101051ADDMA1999999098411MD1310561+9999
0198994200999992005011915004+47300-087367FM-12+0212STDM V0203201N018019999999N9999999N1-00841-01121101261ADDMA1999999098611MD1310611+9999OA139902111REMSYN146CMAN  19154 STDM4 46/// /3235 11084 21112 39861 40126 53061 91500 333 91241 555 11031 22033 31414 433047 61459 325036 328038 329037 328038 320011;
0032994200999992005011917004+47300-087367FM-12+0212STDM V0203301N018019999999N9999999N1-00991-01271101551ADDMA1999999098901MD1110501+9999
0032994200999992005011918004+47300-087367FM-12+0212STDM V0203301N016419999999N9999999N1-00981-01241101641ADDMA1999999098981MD1110381+9999
0032994200999992005011919004+47300-087367FM-12+0212STDM V0203301N015419999999N9999999N1-00991-01311101761ADDMA1999999099101MD1310321+9999
0032994200999992005011920004+47300-087367FM-12+0212STDM V0203501N014919999999N9999999N1-00991-01301101891ADDMA1999999099231MD1310341+9999
0240994200999992005011921004+47300-087367FM-12+0212STDM V0203401N013419999999N9999999N1-00991-01331101961ADDMA1999999099301MD1110321+9999OA139901541REMSYN188CMAN  19214 STDM4 46/// /3426 11099 21133 39930 40196 51032 92100 333 91230 555 11023 22025 32005 434035 62059 343027 336027 342025 341027 342049 135038 137034 137030 135032 131030 130029;
0198994200999992005011922004+47300-087367FM-12+0212STDM V0203301N011319999999N9999999N1-00961-01271102071ADDMA1999999099411MD1110311+9999OA139901391REMSYN146CMAN  19224 STDM4 46/// /3322 11096 21127 39941 40207 51031 92200 333 91227 555 11019 22021 32143 434032 62159 340023 338026 344025 340025 342015;
0032994200999992005011923004+47300-087367FM-12+0212STDM V0203401N009819999999N9999999N1-00961-01281102141ADDMA1999999099481MD1210251+9999
0032994200999992005012000004+47300-087367FM-12+0212STDM V0203501N010819999999N9999999N1-00911-01251102191ADDMA1999999099521MD1110231+9999
0032994200999992005012001004+47300-087367FM-12+0212STDM V0203501N009819999999N9999999N1-00891-01341102281ADDMA1999999099611MD1310211+9999
0032994200999992005012002004+47300-087367FM-12+0212STDM V0203401N008219999999N9999999N1-00901-01311102231ADDMA1999999099561MD1010091+9999
0018994200999992005012003004+47300-087367FM-12+0212STDM V0203301N006219999999N9999999N1-00931-01121102271ADDMA1999999099591
0018994200999992005012004004+47300-087367FM-12+0212STDM V0200101N006719999999N9999999N1-00931-01111102341ADDMA1999999099661
0234994200999992005012005004+47300-087367FM-12+0212STDM V0203501N006219999999N9999999N1-00921-01291102341ADDMA1999999099651MD1110111+9999OA139900771REMSYN182CMAN  20054 STDM4 46/// /3512 11092 21129 39965 40234 51011 90500 333 91215 555 11011 22011 30447 436018 60459 355013 002014 010014 005013 3530038 319038 319040 309039 296039 296042;
0198994200999992005012006004+47300-087367FM-12+0212STDM V0203601N005719999999N9999999N1-00911-01331102331ADDMA1999999099641MD1110061+9999OA139900671REMSYN146CMAN  20064 STDM4 46/// /3611 11091 21133 39964 40233 51006 90600 333 91213 555 11010 22011 30519 435018 60559 008011 003012 019011 006013 353000;
0032994200999992005012007004+47300-087367FM-12+0212STDM V0200301N005719999999N9999999N1-00901-01211102291ADDMA1999999099611MD1810051+9999
0198994200999992005012008004+47300-087367FM-12+0212STDM V0200401N005119999999N9999999N1-00881-01201102261ADDMA1999999099581MD1810081+9999OA139900621REMSYN146CMAN  20084 STDM4 46/// /0410 11088 21120 39958 40226 58008 90800 333 91212 555 11009 22009 30704 402014 60759 030009 026011 033009 027010 021026;
0032994200999992005012009004+47300-087367FM-12+0212STDM V0200401N005119999999N9999999N1-00901-01201102241ADDMA1999999099561MD1610091+9999
0032994200999992005012010004+47300-087367FM-12+0212STDM V0200401N005719999999N9999999N1-00901-01141102201ADDMA1999999099521MD1810091+9999
0032994200999992005012011004+47300-087367FM-12+0212STDM V0200501N006719999999N9999999N1-00911-01201102201ADDMA1999999099521MD1710061+9999
0032994200999992005012012004+47300-087367FM-12+0212STDM V0200701N005719999999N9999999N1-00921-01261102181ADDMA1999999099501MD1610061+9999
0032994200999992005012013004+47300-087367FM-12+0212STDM V0200601N006219999999N9999999N1-00901-01141102221ADDMA1999999099541MD1510001+9999
0032994200999992005012014004+47300-087367FM-12+0212STDM V0200601N007219999999N9999999N1-00901-01151102281ADDMA1999999099601MD1310081+9999
0240994200999992005012015004+47300-087367FM-12+0212STDM V0200501N007219999999N9999999N1-00901-01181102311ADDMA1999999099631MD1110131+9999OA139900881REMSYN188CMAN  20154 STDM4 46/// /0514 11090 21118 39963 40231 51013 91500 333 91217 555 11013 22014 31427 406018 61459 050014 055013 054015 057014 05013 3400103 102102 102104 101099 102096 103110;
0032994200999992005012016004+47300-087367FM-12+0212STDM V0200501N007719999999N9999999N1-00901-01241102361ADDMA1999999099681MD1110141+9999
0198994200999992005012017004+47300-087367FM-12+0212STDM V0200501N007219999999N9999999N1-00881-01261102341ADDMA1999999099661MD1110061+9999OA139900821REMSYN146CMAN  20174 STDM4 46/// /0514 11088 21126 39966 40234 51006 91700 333 91216 555 11013 22013 31632 406019 61659 049013 055015 055015 052014 048023;
0032994200999992005012019004+47300-087367FM-12+0212STDM V0200501N008219999999N9999999N1-00911-01201102331ADDMA1999999099651MD1710031+9999
0032994200999992005012020004+47300-087367FM-12+0212STDM V0200401N007719999999N9999999N1-00931-01211102351ADDMA1999999099671MD1510001+9999
0032994200999992005012021004+47300-087367FM-12+0212STDM V0200401N007719999999N9999999N1-00951-01261102411ADDMA1999999099721MD1310101+9999
0032994200999992005012022004+47300-087367FM-12+0212STDM V0200401N007719999999N9999999N1-00971-01321102451ADDMA1999999099771MD1310121+9999
0032994200999992005012023004+47300-087367FM-12+0212STDM V0200301N006719999999N9999999N1-00981-01421102511ADDMA1999999099831MD1210161+9999
0224994200999992005012100004+47300-087367FM-12+0212STDM V0200401N006219999999N9999999N1-01011-01491102581ADDMA1999999099891MD1310171+9999OA139900721REMSYN172CMAN  21004 STDM4 46/// /0412 11101 21149 39989 40258 53017 90000 333 91214 555 11011 22012 32348 403020 62359 028014 020015 028014 027015 02 96263 96259 96463 96461 96460;
0032994200999992005012101004+47300-087367FM-12+0212STDM V0200401N005719999999N9999999N1-01031-01441102621ADDMA1999999099931MD1110171+9999
0032994200999992005012102004+47300-087367FM-12+0212STDM V0200501N007219999999N9999999N1-01041-01471102621ADDMA1999999099931MD1110111+9999
0032994200999992005012103004+47300-087367FM-12+0212STDM V0200401N006719999999N9999999N1-01031-01421102671ADDMA1999999099981MD1310091+9999
0032994200999992005012104004+47300-087367FM-12+0212STDM V0200401N006719999999N9999999N1-01051-01461102681ADDMA1999999099991MD1210061+9999
0032994200999992005012105004+47300-087367FM-12+0212STDM V0200601N004619999999N9999999N1-01061-01491102691ADDMA1999999099991MD1110071+9999
0032994200999992005012106004+47300-087367FM-12+0212STDM V0200301N004119999999N9999999N1-01061-01561102721ADDMA1999999100031MD1310051+9999
0032994200999992005012107004+47300-087367FM-12+0212STDM V0200301N003619999999N9999999N1-01081-01461102731ADDMA1999999100031MD1210051+9999
0032994200999992005012108004+47300-087367FM-12+0212STDM V0200401N004619999999N9999999N1-01071-01531102751ADDMA1999999100051MD1110061+9999
0240994200999992005012109004+47300-087367FM-12+0212STDM V0200701N002119999999N9999999N1-01061-01621102751ADDMA1999999100051MD1210031+9999OA139900261REMSYN188CMAN  21094 STDM4 46/// /0704 11106 21162 30005 40275 52003 90900 333 91205 555 11004 22004 30802 406012 60859 062004 053005 042004 038007 040849 096061 098064 095062 092064 102066 099061;
0032994200999992005012110004+47300-087367FM-12+0212STDM V0203301N002619999999N9999999N1-01041-01561102751ADDMA1999999100051MD1410001+9999
0032994200999992005012111004+47300-087367FM-12+0212STDM V0200301N002619999999N9999999N1-01011-01461102741ADDMA1999999100041MD1410001+9999
0032994200999992005012112004+47300-087367FM-12+0212STDM V0200601N004119999999N9999999N1-01011-01381102711ADDMA1999999100011MD1810041+9999
0032994200999992005012113004+47300-087367FM-12+0212STDM V0200601N003119999999N9999999N1-00981-01411102681ADDMA1999999099981MD1810071+9999
0032994200999992005012114004+47300-087367FM-12+0212STDM V0200701N003619999999N9999999N1-00961-01501102641ADDMA1999999099941MD1810101+9999
0032994200999992005012115004+47300-087367FM-12+0212STDM V0201101N004619999999N9999999N1-00921-01451102561ADDMA1999999099871MD1810151+9999
0196994200999992005012116004+47300-087367FM-12+0212STDM V0200601N004619999999N9999999N1-00881-01211102601ADDMA1999999099911MD1510081+9999OA139900511REMSYN144CMAN  21164 STDM4 46/// /0609 11088 21121 39991 40260 55008 91600 333 91210 555 11008 22009 31514 409014 61559 067008 078009 089009 098008 1000;
0032994200999992005012117004+47300-087367FM-12+0212STDM V0201401N009319999999N9999999N1-00901-01161102501ADDMA1999999099811MD1810141+9999
0252994200999992005012118004+47300-087367FM-12+0212STDM V0201301N008219999999N9999999N1-00881-01121102441ADDMA1999999099751MD1810121+9999OA139900931REMSYN200CMAN  21184 STDM4 46/// /1316 11088 21112 39975 40244 58012 91800 333 91218 555 11014 22015 31703 415023 61759 133016 135016 134017 133018 13 69902 878// 91750 333 10049 55300 20000 81820 83635 86650;
0032994200999992005012119004+47300-087367FM-12+0212STDM V0201501N010319999999N9999999N1-00821-01201102281ADDMA1999999099601MD1810321+9999
0032994200999992005012120004+47300-087367FM-12+0212STDM V0201601N010319999999N9999999N1-00851-01261102221ADDMA1999999099541MD1710281+9999
0032994200999992005012121004+47300-087367FM-12+0212STDM V0201501N008719999999N9999999N1-00821-01241102131ADDMA1999999099461MD1610311+9999
0032994200999992005012122004+47300-087367FM-12+0212STDM V0201601N010319999999N9999999N1-00761-01161102061ADDMA1999999099381MD1810221+9999
0032994200999992005012123004+47300-087367FM-12+0212STDM V0201601N012319999999N9999999N1-00731-01121102001ADDMA1999999099331MD1610221+9999
0032994200999992005012200004+47300-087367FM-12+0212STDM V0201501N011819999999N9999999N1-00791-01071102001ADDMA1999999099321MD1610131+9999
0224994200999992005012201004+47300-087367FM-12+0212STDM V0201501N025019999999N9999999N1-00851-01071101981ADDMA1999999099311MD1610081+9999OA139999999REMSYN153CMTI   46// STDM4 46/// /1525 11085 21107 39931 40198 56008 90100 333 91228 555 11022 22023 30041 416029 60059 147024 151023 153023 157022 156022 155023;EQDQ01  01442WGOSPD
0032994200999992005012202004+47300-087367FM-12+0212STDM V0201501N013419999999N9999999N1-00881-01101101881ADDMA1999999099211MD1810121+9999
0032994200999992005012203004+47300-087367FM-12+0212STDM V0201601N013419999999N9999999N1-00871-01091101761ADDMA1999999099101MD1810241+9999
0032994200999992005012204004+47300-087367FM-12+0212STDM V0201401N012319999999N9999999N1-00841-01051101711ADDMA1999999099051MD1610271+9999
0240994200999992005012205004+47300-087367FM-12+0212STDM V0201301N010819999999N9999999N1-00811-00961101711ADDMA1999999099051MD1610171+9999OA139901181REMSYN188CMAN  22054 STDM4 46/// /1321 11081 21096 39905 40171 56017 90500 333 91223 555 11019 22020 30405 415027 60459 131022 131022 136022 133022 13013 162014 1600062 248062 250063 248060 253059;
0032994200999992005012206004+47300-087367FM-12+0212STDM V0201401N010819999999N9999999N1-00801-00961101691ADDMA1999999099041MD1610071+9999
0032994200999992005012207004+47300-087367FM-12+0212STDM V0201201N010819999999N9999999N1-00791-01001101681ADDMA1999999099021MD1710031+9999
0197994200999992005012208004+47300-087367FM-12+0212STDM V0201001N009319999999N9999999N1-00761-00991101721ADDMA1999999099061MD1510001+9999OA139901031REMSYN145CMAN  22084 STDM4 46/// /1018 11076 21099 39906 40172 55000 90800 333 91220 555 11016 22017 30701 412025 60759 105018 108018 114017 114019 11005;
0032994200999992005012209004+47300-087367FM-12+0212STDM V0200901N009319999999N9999999N1-00781-01041101751ADDMA1999999099091MD1310061+9999
0032994200999992005012210004+47300-087367FM-12+0212STDM V0200901N009819999999N9999999N1-00791-01121101781ADDMA1999999099121MD1110101+9999
0198994200999992005012212004+47300-087367FM-12+0212STDM V0200501N011819999999N9999999N1-00741-01091102001ADDMA1999999099331MD1310251+9999OA139901291REMSYN146CMAN  22124 STDM4 46/// /0523 11074 21109 39933 40200 53025 91200 333 91225 555 11021 22022 31135 407029 61159 058023 058024 066022 063022 076022;
0032994200999992005012213004+47300-087367FM-12+0212STDM V0200501N014419999999N9999999N1-00731-01171102161ADDMA1999999099491MD1310381+9999
0032994200999992005012214004+47300-087367FM-12+0212STDM V0200401N014419999999N9999999N1-00801-01261102271ADDMA1999999099641MD1110431+9999
0032994200999992005012215004+47300-087367FM-12+0212STDM V0200301N013919999999N9999999N1-00871-01221102441ADDMA1999999099761MD1310441+9999
0032994200999992005012216004+47300-087367FM-12+0212STDM V0200201N013919999999N9999999N1-00941-01401102581ADDMA1999999099901MD1310421+9999
0032994200999992005012217004+47300-087367FM-12+0212STDM V0200201N014919999999N9999999N1-01021-01261102681ADDMA1999999099991MD1110411+9999
0224994200999992005012218004+47300-087367FM-12+0212STDM V0200201N014919999999N9999999N1-01121-01431102791ADDMA1999999100101MD1110351+9999OA139901601REMSYN172CMAN  22184 STDM4 46/// /0229 11112 21143 30010 40279 51035 91800 333 91231 555 11026 22027 31709 401035 61759 018029 020028 022028 017028 01 96473 96471 96278 96271 96270;
0032994200999992005012219004+47300-087367FM-12+0212STDM V0200201N012919999999N9999999N1-01151-01621102831ADDMA1999999100131MD1110251+9999
0032994200999992005012220004+47300-087367FM-12+0212STDM V0200101N014419999999N9999999N1-01151-01551102881ADDMA1999999100181MD1110201+9999
0032994200999992005012221004+47300-087367FM-12+0212STDM V0203601N014919999999N9999999N1-01141-01481102971ADDMA1999999100271MD1310181+9999
0032994200999992005012222004+47300-087367FM-12+0212STDM V0200101N011819999999N9999999N1-01151-01491103091ADDMA1999999100391MD1310261+9999
0032994200999992005012223004+47300-087367FM-12+0212STDM V0200101N011819999999N9999999N1-01141-01481103221ADDMA1999999100511MD1310341+9999
0240994200999992005012300004+47100-087120FM-12+0212STDM V0200101N012919999999N9999999N1-01091-01441103311ADDMA1999999100601MD1110341+9999OA139901391REMSYN188CMAN  23004 STDM4 46/// /0125 11109 21144 30060 40331 51034 90000 333 91227 555 11022 22024 32342 434033 62359 012023 358025 004024 011024 012349 082068 085065 086063 082067 081067 082065;
0032994200999992005012301004+47100-087120FM-12+0212STDM V0200101N010819999999N9999999N1-01071-01391103371ADDMA1999999100661MD1110281+9999
0240994200999992005012302004+47100-087120FM-12+0212STDM V0200101N010319999999N9999999N1-01071-01391103391ADDMA1999999100681MD1110171+9999OA139901181REMSYN188CMAN  23024 STDM4 46/// /0120 11107 21139 30068 40339 51017 90200 333 91223 555 11018 22019 30110 402029 60159 013020 018021 021020 023019 010149 069062 072062 074063 074061 072060 067062;
0032994200999992005012303004+47100-087120FM-12+0212STDM V0203401N008719999999N9999999N1-01071-01461103351ADDMA1999999100641MD1010041+9999
0032994200999992005012304004+47100-087120FM-12+0212STDM V0203601N009319999999N9999999N1-01061-01341103361ADDMA1999999100651MD1410001+9999
0032994200999992005012305004+47100-087120FM-12+0212STDM V0203601N005719999999N9999999N1-01051-01481103321ADDMA1999999100611MD1710071+9999
0032994200999992005012306004+47100-087120FM-12+0212STDM V0203501N005119999999N9999999N1-01041-01431103281ADDMA1999999100571MD1810071+9999
0032994200999992005012307004+47100-087120FM-12+0212STDM V0203501N002619999999N9999999N1-01011-01391103281ADDMA1999999100571MD1610081+9999
0032994200999992005012308004+47100-087120FM-12+0212STDM V0202801N002119999999N9999999N1-01001-01401103271ADDMA1999999100561MD1610051+9999
0032994200999992005012309004+47100-087120FM-12+0212STDM V0202901N004619999999N9999999N1-00971-01401103241ADDMA1999999100521MD1810041+9999
0032994200999992005012310004+47100-087120FM-12+0212STDM V0203001N003619999999N9999999N1-00941-01351103171ADDMA1999999100461MD1810111+9999
0032994200999992005012311004+47100-087120FM-12+0212STDM V0202701N005719999999N9999999N1-00931-01301103111ADDMA1999999100401MD1810161+9999
0032994200999992005012312004+47100-087120FM-12+0212STDM V0202601N004619999999N9999999N1-00991-01341103061ADDMA1999999100351MD1610181+9999
0032994200999992005012313004+47100-087120FM-12+0212STDM V0202501N006719999999N9999999N1-00971-01251103031ADDMA1999999100321MD1610141+9999
0032994200999992005012314004+47100-087120FM-12+0212STDM V0202301N008219999999N9999999N1-01011-01261102991ADDMA1999999100281MD1610121+9999
0240994200999992005012315004+47100-087120FM-12+0212STDM V0202201N008219999999N9999999N1-00991-01231102951ADDMA1999999100251MD1810111+9999OA139900981REMSYN188CMAN  23154 STDM4 46/// /2216 11099 21123 30025 40295 58011 91500 333 91219 555 11014 22015 31434 423021 61459 216016 225017 223016 219015 221449 090074 090075 093076 090075 091074 092073;
0032994200999992005012316004+47100-087120FM-12+0212STDM V0202001N012919999999N9999999N1-00851-01251102781ADDMA1999999100091MD1810251+9999
0032994200999992005012317004+47100-087120FM-12+0212STDM V0202101N010819999999N9999999N1-00891-01481102661ADDMA1999999099971MD1810331+9999
0032994200999992005012318004+47100-087120FM-12+0212STDM V0202101N010819999999N9999999N1-00811-01481102491ADDMA1999999099811MD1710461+9999
0032994200999992005012319004+47100-087120FM-12+0212STDM V0202101N009819999999N9999999N1-00751-01431102301ADDMA1999999099631MD1810481+9999
0032994200999992005012320004+47100-087120FM-12+0212STDM V0202101N011319999999N9999999N1-00631-01351102101ADDMA1999999099431MD1810561+9999
0032994200999992005012321004+47100-087120FM-12+0212STDM V0202101N011819999999N9999999N1-00541-01421101981ADDMA1999999099311MD1610511+9999
0032994200999992005012322004+47100-087120FM-12+0212STDM V0201901N011819999999N9999999N1-00541-01341101861ADDMA1999999099211MD1610441+9999
0032994200999992005012323004+47100-087120FM-12+0212STDM V0201901N013419999999N9999999N1-00501-01431101761ADDMA1999999099111MD1610341+9999
0032994200999992005012400004+47100-087120FM-12+0212STDM V0202001N014419999999N9999999N1-00461-01401101631ADDMA1999999098981MD1810351+9999
0032994200999992005012401004+47100-087120FM-12+0212STDM V0202101N015419999999N9999999N1-00451-01341101481ADDMA1999999098831MD1810381+9999
0032994200999992005012402004+47100-087120FM-12+0212STDM V0202101N014919999999N9999999N1-00461-01351101321ADDMA1999999098671MD1810441+9999
0032994200999992005012403004+47100-087120FM-12+0212STDM V0202201N012319999999N9999999N1-00461-01241101281ADDMA1999999098641MD1610351+9999
0032994200999992005012404004+47100-087120FM-12+0212STDM V0202401N015919999999N9999999N1-00451-01301101151ADDMA1999999098521MD1610331+9999
0032994200999992005012405004+47100-087120FM-12+0212STDM V0202301N013919999999N9999999N1-00511-01141101051ADDMA1999999098411MD1810271+9999
0224994200999992005012406004+47100-087120FM-12+0212STDM V0202401N014919999999N9999999N1-00481-01031100981ADDMA1999999098361MD1610301+9999OA139901801REMSYN172CMAN  24064 STDM4 46/// /2429 11048 21103 39836 40098 56030 90600 333 91235 555 11026 22028 30549 424038 60559 240029 239029 238028 239028 23 96288 96286 96488 96486 96471;
0176994200999992005012407004+47100-087120FM-12+0212STDM V0202601N014919999999N9999999N1-00481-00921100891ADDMA1999999098261OA139901651REMSYN138CMAN  24074 STDM4 46/// /2629 11048 21092 39826 40089 90700 333 91232 555 11026 22028 30626 425039 60659 254031 252031 249031 245030 2476;
0032994200999992005012408004+47100-087120FM-12+0212STDM V0202501N013919999999N9999999N1-00471-00881100841ADDMA1999999098231MD1610211+9999
0032994200999992005012409004+47100-087120FM-12+0212STDM V0202601N014419999999N9999999N1-00461-00841100781ADDMA1999999098161MD1610201+9999
0234994200999992005012410004+47100-087120FM-12+0212STDM V0202601N013419999999N9999999N1-00461-00761100731ADDMA1999999098121MD1710161+9999OA139901491REMSYN182CMAN  24104 STDM4 46/// /2626 11046 21076 39812 40073 57016 91000 333 91229 555 11023 22025 30907 426033 60959 253027 254025 258026 257027 2566045 259052 254063 260057 260055 256052;
0240994200999992005012411004+47100-087120FM-12+0212STDM V0202501N013919999999N9999999N1-00441-00641100721ADDMA1999999098101MD1610121+9999OA139901541REMSYN188CMAN  24114 STDM4 46/// /2527 11044 21064 39810 40072 56012 91100 333 91230 555 11024 22026 31012 426031 61059 251026 252026 255027 254026 251049 087082 093073 087075 090077 084080 087076;
0032994200999992005012412004+47100-087120FM-12+0212STDM V0202501N012919999999N9999999N1-00431-00571100721ADDMA1999999098111MD1610061+9999
0032994200999992005012413004+47100-087120FM-12+0212STDM V0202701N012919999999N9999999N1-00361-00491100751ADDMA1999999098141MD1510001+9999
0032994200999992005012414004+47100-087120FM-12+0212STDM V0203201N011319999999N9999999N1-00281-00431100821ADDMA1999999098211MD1310101+9999
0032994200999992005012415004+47100-087120FM-12+0212STDM V0203401N008719999999N9999999N1-00261-00571100911ADDMA1999999098301MD1310191+9999
0018994200999992005012416004+47100-087120FM-12+0212STDM V0203401N009319999999N9999999N1-00261-00611100991ADDMA1999999098381
0018994200999992005012417004+47100-087120FM-12+0212STDM V0203401N010319999999N9999999N1-00271-00641101071ADDMA1999999098451
0018994200999992005012418004+47100-087120FM-12+0212STDM V0203401N009319999999N9999999N1-00271-00671101091ADDMA1999999098471
0032994200999992005012419004+47100-087120FM-12+0212STDM V0203401N009819999999N9999999N1-00281-00641101151ADDMA1999999098541MD1110161+9999
0032994200999992005012420004+47100-087120FM-12+0212STDM V0203501N009819999999N9999999N1-00301-00601101241ADDMA1999999098621MD1310171+9999
0032994200999992005012421004+47100-087120FM-12+0212STDM V0203501N009819999999N9999999N1-00311-00691101361ADDMA1999999098741MD1310271+9999
