0032994770999992005010100004+42467-082750FM-12+0180LSCM V0202001N011819999999N9999999N1+00771+00681101611ADDMA1999999099431MD1110251+9999
0032994770999992005010101004+42467-082750FM-12+0180LSCM V0202101N011319999999N9999999N1+00731+00661101721ADDMA1999999099541MD1310231+9999
0032994770999992005010102004+42467-082750FM-12+0180LSCM V0202101N011319999999N9999999N1+00651+00621101781ADDMA1999999099591MD1210231+9999
0198994770999992005010103004+42467-082750FM-12+0180LSCM V0202501N010319999999N9999999N1+00981+00441101891ADDMA1999999099721MD1210281+9999OA139901241REMSYN146CMAN  01034 LSCM4 46/// /2520 10098 20044 39972 40189 52028 90300 333 91224 555 11019 22021 30252 425029 60259 248022 231017 224017 223019 210018;
0240994770999992005010104004+42467-082750FM-12+0180LSCM V0202701N010319999999N9999999N1+00891+00101102051ADDMA1999999099871MD1310331+9999OA139901081REMSYN188CMAN  01044 LSCM4 46/// /2720 10089 20010 39987 40205 53033 90400 333 91221 555 11019 22020 30333 425028 60359 267020 259022 254022 251022 250349 102082 103083 102093 100093 097093 099090;
0032994770999992005010105004+42467-082750FM-12+0180LSCM V0203001N010319999999N9999999N1+00611-00101102231ADDMA1999999100041MD1310451+9999
0194994770999992005010106004+42467-082750FM-12+0180LSCM V0203001N008719999999N9999999N1+00501-00161102381ADDMA1999999100181MD1110491+9999OA139900931REMSYN142CMAN  01064 LSCM4 46/// /3017 10050 21016 30018 40238 51049 90600 333 91218 555 11017 22018 30508 429029 60559 298017 296019 300014 287018 28;
0032994770999992005010107004+42467-082750FM-12+0180LSCM V0203001N008219999999N9999999N1+00321-00351102481ADDMA1999999100261MD1110431+9999
0032994770999992005010108004+42467-082750FM-12+0180LSCM V0203101N006719999999N9999999N1+00191-00511102621ADDMA1999999100391MD1110391+9999
0240994770999992005010109004+42467-082750FM-12+0180LSCM V0203401N006219999999N9999999N1+00071-00481102691ADDMA1999999100461MD1110311+9999OA139900671REMSYN188CMAN  01094 LSCM4 46/// /3412 10007 21048 30046 40269 51031 90900 333 91213 555 11012 22013 30801 431017 60859 337012 335012 328012 308012 300849 296047 295044 298048 303057 303047 320040;
0032994770999992005010110004+42467-082750FM-12+0180LSCM V0203201N006719999999N9999999N1+00011-00521102811ADDMA1999999100571MD1110331+9999
0032994770999992005010111004+42467-082750FM-12+0180LSCM V0203201N006219999999N9999999N1-00041-00621102941ADDMA1999999100691MD1310321+9999
0032994770999992005010112004+42467-082750FM-12+0180LSCM V0203201N004619999999N9999999N1-00081-00621103051ADDMA1999999100801MD1110361+9999
0032994770999992005010113004+42467-082750FM-12+0180LSCM V0203101N004119999999N9999999N1-00111-00631103131ADDMA1999999100881MD1110321+9999
0032994770999992005010114004+42467-082750FM-12+0180LSCM V0203101N003619999999N9999999N1-00111-00541103241ADDMA1999999100991MD1210301+9999
0032994770999992005010115004+42467-082750FM-12+0180LSCM V0203301N003619999999N9999999N1-00111-00611103321ADDMA1999999101061MD1210271+9999
0204994770999992005010116004+42467-082750FM-12+0180LSCM V0203401N003119999999N9999999N1-00061-00551103381ADDMA1999999101131MD1110251+9999OA139900361REMSYN152CMAN 01164 LSCM4 46/// /3406 11006 21055 30113 40338 51025 91600 333 91207 555 11006 22007 31516 433009 61559 345006 342007 336007 337007 333008 327008;
0246994770999992005010117004+42467-082750FM-12+0180LSCM V0200101N004619999999N9999999N1-00031-00541103391ADDMA1999999101131MD1110151+9999OA139900461REMSYN194CMAN  01174 LSCM4 46/// /0109 11003 21054 30113 40339 51015 91700 333 91209 555 11008 22009 31659 401009 61659 001008 358008 344005 339004 343515 61649 349109 351112 351116 352117 350123 349124;
0198994770999992005010118004+42467-082750FM-12+0180LSCM V0203601N004119999999N9999999N1+00001-00501103401ADDMA1999999101141MD1110081+9999OA139900461REMSYN146CMAN  01184 LSCM4 46/// /3608 10000 21050 30114 40340 51008 91800 333 91209 555 11008 22008 31705 401010 61759 356008 355008 356007 008005 010014;
0032994770999992005010119004+42467-082750FM-12+0180LSCM V0203601N004119999999N9999999N1+00031-00501103361ADDMA1999999101111MD1010001+9999
0032994770999992005010120004+42467-082750FM-12+0180LSCM V0200601N003119999999N9999999N1+00101-00371103341ADDMA1999999101101MD1710051+9999
0032994770999992005010121004+42467-082750FM-12+0180LSCM V0200501N007219999999N9999999N1+00061-00311103341ADDMA1999999101101MD1610061+9999
0032994770999992005010122004+42467-082750FM-12+0180LSCM V0200401N006719999999N9999999N1+00001-00381103441ADDMA1999999101191MD1310081+9999
0032994770999992005010123004+42467-082750FM-12+0180LSCM V0200601N006719999999N9999999N1+00001-00391103481ADDMA1999999101231MD1310141+9999
0032994770999992005010200004+42467-082750FM-12+0180LSCM V0200501N008219999999N9999999N1-00021-00371103421ADDMA1999999101171MD1010081+9999
0032994770999992005010201004+42467-082750FM-12+0180LSCM V0200701N007219999999N9999999N1-00031-00381103411ADDMA1999999101161MD1810031+9999
0032994770999992005010202004+42467-082750FM-12+0180LSCM V0200501N007219999999N9999999N1-00021-00381103351ADDMA1999999101101MD1710131+9999
0032994770999992005010203004+42467-082750FM-12+0180LSCM V0200701N007219999999N9999999N1-00021-00341103261ADDMA1999999101011MD1810161+9999
0240994770999992005010204004+42467-082750FM-12+0180LSCM V0200701N006219999999N9999999N1-00011-00281103231ADDMA1999999100981MD1610181+9999OA139900721REMSYN188CMAN  02044 LSCM4 46/// /0712 11001 21028 30098 40323 56018 90400 333 91214 555 11012 22012 30331 407016 60359 071012 071013 070014 068015 06007 0896018 294017 297019 291017 295023 292019;
0032994770999992005010205004+42467-082750FM-12+0180LSCM V0200801N006719999999N9999999N1+00001-00171103151ADDMA1999999100901MD1610201+9999
0240994770999992005010206004+42467-082750FM-12+0180LSCM V0201101N007219999999N9999999N1+00031-00051103041ADDMA1999999100791MD1810221+9999OA139900771REMSYN188CMAN  02064 LSCM4 46/// /1114 10003 21005 30079 40304 58022 90600 333 91215 555 11013 22014 30524 408016 60559 108011 098011 084013 080015 080549 122058 122063 126060 122065 127068 126067;
0032994770999992005010207004+42467-082750FM-12+0180LSCM V0201001N006719999999N9999999N1+00051-00021102901ADDMA1999999100661MD1810331+9999
0032994770999992005010208004+42467-082750FM-12+0180LSCM V0201201N008219999999N9999999N1+00111+00011102831ADDMA1999999100591MD1610321+9999
0032994770999992005010209004+42467-082750FM-12+0180LSCM V0201201N007719999999N9999999N1+00111+00021102741ADDMA1999999100511MD1610301+9999
0198994770999992005010210004+42467-082750FM-12+0180LSCM V0201201N007219999999N9999999N1+00111+00041102641ADDMA1999999100411MD1810261+9999OA139900771REMSYN146CMAN  02104 LSCM4 46/// /1214 10011 20004 30041 40264 58026 91000 333 91215 555 11013 22014 30900 411016 60959 119014 118014 117013 15013 1136009;
0032994770999992005010211004+42467-082750FM-12+0180LSCM V0201301N006719999999N9999999N1+00141+00071102541ADDMA1999999100311MD1810291+9999
0032994770999992005010212004+42467-082750FM-12+0180LSCM V0201401N006219999999N9999999N1+00141+00081102481ADDMA1999999100261MD1610261+9999
0240994770999992005010213004+42467-082750FM-12+0180LSCM V0201501N007219999999N9999999N1+00191+00141102401ADDMA1999999100181MD1610241+9999OA139900771REMSYN188CMAN  02134 LSCM4 46/// /1514 10019 20014 30018 40240 56024 91300 333 91215 555 11013 22014 31249 415016 61259 148015 147015 145013 143013 141249 343138 342136 346135 339138 346138 352133;
0198994770999992005010214004+42467-082750FM-12+0180LSCM V0201801N004619999999N9999999N1+00231+00191102391ADDMA1999999100171MD1610151+9999OA139900461REMSYN146CMAN  02144 LSCM4 46/// /1809 10023 20019 30017 40239 56015 91400 333 91209 555 11009 22009 31300 415015 61359 179009 169010 163011 155012 151007;
0032994770999992005010215004+42467-082750FM-12+0180LSCM V0202001N005719999999N9999999N1+00401+00371102351ADDMA1999999100141MD1610131+9999
0032994770999992005010216004+42467-082750FM-12+0180LSCM V0202101N008219999999N9999999N1+00591+00581102291ADDMA1999999100091MD1810111+9999
0032994770999992005010217004+42467-082750FM-12+0180LSCM V0202101N009319999999N9999999N1+00621+00601102171ADDMA1999999099971MD1810221+9999
0200994770999992005010218004+42467-082750FM-12+0180LSCM V0202201N008719999999N9999999N1+00831+00821102121ADDMA1999999099941MD1610231+9999OA139900881REMSYN148CMAN  02184 LSCM4 46/// /2217 10083 20082 39994 40212 56023 91800 333 91217 555 11016 22017 31754 422017 61759 222017 223016 231014 245013 25 96436;
0032994770999992005010219004+42467-082750FM-12+0180LSCM V0202101N009319999999N9999999N1+00851+00841102061ADDMA1999999099881MD1610231+9999
0246994770999992005010220004+42467-082750FM-12+0180LSCM V0202101N007719999999N9999999N1+00991+00991102051ADDMA1999999099871MD1610121+9999OA139900771REMSYN194CMAN  02204 LSCM4 46/// /2115 10099 20099 39987 40205 56012 92000 333 91215 555 11015 22015 31900 421018 61959 213016 215017 214017 212017 211012 61949 097098 097098 096094 099092 098092 099094;
0246994770999992005010221004+42467-082750FM-12+0180LSCM V0202201N008219999999N9999999N1+01121+01111102101ADDMA1999999099921MD1510001+9999OA139900821REMSYN194CMAN  02214 LSCM4 46/// /2216 10112 20111 39992 40210 55000 92100 333 91216 555 11015 22016 32016 421016 62059 220015 218015 213015 212015 210410 62049 047083 044084 043085 038087 038086 039083;
0198994770999992005010222004+42467-082750FM-12+0180LSCM V0202301N006719999999N9999999N1+00951+00941102181ADDMA1999999100001MD1310121+9999OA139900671REMSYN146CMAN  02224 LSCM4 46/// /2313 10095 20094 30000 40218 53012 92200 333 91213 555 11012 22013 32143 423018 62159 226013 221014 221014 219015 225014;
0032994770999992005010223004+42467-082750FM-12+0180LSCM V0202401N005719999999N9999999N1+01091+01081102241ADDMA1999999100061MD1310191+9999
0246994770999992005010300004+42467-082750FM-12+0180LSCM V0202601N005119999999N9999999N1+01151+01151102291ADDMA1999999100111MD1110191+9999OA139900571REMSYN194CMAN  03004 LSCM4 46/// /2610 10115 20115 30011 40229 51019 90000 333 91211 555 11010 22010 32300 424012 62359 253010 256009 247009 247010 250311 62349 030092 035093 033094 034085 033087 034085;
0032994770999992005010301004+42467-082750FM-12+0180LSCM V0203101N008219999999N9999999N1+00811+00801102401ADDMA1999999100201MD1310221+9999
0032994770999992005010302004+42467-082750FM-12+0180LSCM V0203101N008219999999N9999999N1+00761+00611102481ADDMA1999999100281MD1310241+9999
0240994770999992005010303004+42467-082750FM-12+0180LSCM V0203301N007719999999N9999999N1+00481+00361102561ADDMA1999999100351MD1110271+9999OA139900821REMSYN188CMAN  03034 LSCM4 46/// /3315 10048 20036 30035 40256 51027 90300 333 91216 555 11015 22015 30220 433016 60259 330014 336013 327015 330016 330249 000011 008012 018009 011011 005006 111005;
0240994770999992005010304004+42467-082750FM-12+0180LSCM V0203201N006219999999N9999999N1+00451+00301102631ADDMA1999999100421MD1110231+9999OA139900621REMSYN188CMAN  03044 LSCM4 46/// /3212 10045 20030 30042 40263 51023 90400 333 91212 555 11012 22012 30327 433015 60359 325012 326013 326013 329014 33007 0752023 151022 155024 156023 155021 160022;
0032994770999992005010305004+42467-082750FM-12+0180LSCM V0203401N005719999999N9999999N1+00341+00201102661ADDMA1999999100451MD1110181+9999
0032994770999992005010306004+42467-082750FM-12+0180LSCM V0203201N005719999999N9999999N1+00271+00111102651ADDMA1999999100431MD1110091+9999
0032994770999992005010307004+42467-082750FM-12+0180LSCM V0203501N003619999999N9999999N1+00231+00091102611ADDMA1999999100391MD1010001+9999
0032994770999992005010308004+42467-082750FM-12+0180LSCM V0203501N003619999999N9999999N1+00231+00041102691ADDMA1999999100471MD1310031+9999
0032994770999992005010309004+42467-082750FM-12+0180LSCM V0203601N002619999999N9999999N1+00211+00051102661ADDMA1999999100441MD1510001+9999
0032994770999992005010310004+42467-082750FM-12+0180LSCM V0200101N003119999999N9999999N1+00201+00041102691ADDMA1999999100461MD1110081+9999
0032994770999992005010311004+42467-082750FM-12+0180LSCM V0200101N003119999999N9999999N1+00191+00071102731ADDMA1999999100501MD1310041+9999
0032994770999992005010312004+42467-082750FM-12+0180LSCM V0200101N004119999999N9999999N1+00171+00051102781ADDMA1999999100551MD1310121+9999
0032994770999992005010313004+42467-082750FM-12+0180LSCM V0203601N003119999999N9999999N1+00161+00021102781ADDMA1999999100551MD1110091+9999
0198994770999992005010314004+42467-082750FM-12+0180LSCM V0200701N007219999999N9999999N1+00121+00021102611ADDMA1999999100381MD1810121+9999OA139900771REMSYN146CMAN  03144 LSCM4 46/// /0714 10012 20002 30038 40261 58012 91400 333 91215 555 11013 22014 31356 407016 61359 073014 060010 049009 031008 028025;
0032994770999992005010315004+42467-082750FM-12+0180LSCM V0200501N004119999999N9999999N1+00141+00031102701ADDMA1999999100471MD1510081+9999
0032994770999992005010316004+42467-082750FM-12+0180LSCM V0200201N003619999999N9999999N1+00141+00021102741ADDMA1999999100511MD1510041+9999
0032994770999992005010317004+42467-082750FM-12+0180LSCM V0200501N002619999999N9999999N1+00171+00051102601ADDMA1999999100371MD1010001+9999
0240994770999992005010319004+42467-082750FM-12+0180LSCM V0200201N004619999999N9999999N1+00191+00081102361ADDMA1999999100141MD1610381+9999OA139900511REMSYN188CMAN  03194 LSCM4 46/// /0209 10019 20008 30014 40236 56038 91900 333 91210 555 11008 22009 31854 401010 61859 009009 002007 007006 012005 025 11212 21224 39863 49926 5304 77+ 333 8670 68;
0032994770999992005010320004+42467-082750FM-12+0180LSCM V0200201N004119999999N9999999N1+00211+00091102351ADDMA1999999100131MD1610251+9999
0032994770999992005010321004+42467-082750FM-12+0180LSCM V0200101N005719999999N9999999N1+00221+00111102371ADDMA1999999100151MD1610081+9999
0032994770999992005010322004+42467-082750FM-12+0180LSCM V0200301N005119999999N9999999N1+00181+00091102371ADDMA1999999100151MD1410001+9999
0032994770999992005010323004+42467-082750FM-12+0180LSCM V0200401N005119999999N9999999N1+00151+00061102331ADDMA1999999100111MD1010001+9999
0032994770999992005010400004+42467-082750FM-12+0180LSCM V0200201N006719999999N9999999N1+00141+00071102301ADDMA1999999100081MD1810071+9999
0032994770999992005010401004+42467-082750FM-12+0180LSCM V0200101N007719999999N9999999N1+00151+00081102311ADDMA1999999100091MD1610061+9999
0032994770999992005010402004+42467-082750FM-12+0180LSCM V0200101N008719999999N9999999N1+00141+00081102351ADDMA1999999100131MD1510001+9999
0032994770999992005010403004+42467-082750FM-12+0180LSCM V0203501N006719999999N9999999N1+00121+00061102451ADDMA1999999100231MD1310151+9999
0032994770999992005010404004+42467-082750FM-12+0180LSCM V0200101N006719999999N9999999N1+00081+00021102491ADDMA1999999100261MD1210181+9999
0032994770999992005010405004+42467-082750FM-12+0180LSCM V0203601N006719999999N9999999N1+00091+00041102491ADDMA1999999100261MD1110141+9999
0032994770999992005010406004+42467-082750FM-12+0180LSCM V0200101N005719999999N9999999N1+00091+00041102491ADDMA1999999100271MD1110041+9999
0032994770999992005010407004+42467-082750FM-12+0180LSCM V0200301N005119999999N9999999N1+00101+00021102471ADDMA1999999100241MD1410001+9999
0032994770999992005010408004+42467-082750FM-12+0180LSCM V0200101N005719999999N9999999N1+00121+00031102541ADDMA1999999100321MD1310051+9999
0032994770999992005010409004+42467-082750FM-12+0180LSCM V0200101N006719999999N9999999N1+00121+00001102501ADDMA1999999100271MD1010001+9999
0032994770999992005010410004+42467-082750FM-12+0180LSCM V0200101N006219999999N9999999N1+00101-00031102551ADDMA1999999100321MD1110081+9999
0032994770999992005010411004+42467-082750FM-12+0180LSCM V0203601N006719999999N9999999N1+00091-00071102671ADDMA1999999100441MD1310131+9999
0032994770999992005010412004+42467-082750FM-12+0180LSCM V0200101N006719999999N9999999N1+00061-00111102681ADDMA1999999100441MD1110181+9999
0032994770999992005010413004+42467-082750FM-12+0180LSCM V0200101N006219999999N9999999N1+00041-00141102751ADDMA1999999100511MD1110201+9999
0240994770999992005010414004+42467-082750FM-12+0180LSCM V0200101N006219999999N9999999N1+00031-00161102761ADDMA1999999100531MD1210091+9999OA139900621REMSYN188CMAN  04144 LSCM4 46/// /0112 10003 21016 30053 40276 52009 91400 333 91212 555 11011 22012 31345 436014 61359 009012 007012 008011 013012 011349 187063 187060 184060 181063 185064 185061;
0032994770999992005010415004+42467-082750FM-12+0180LSCM V0203601N006219999999N9999999N1+00021-00181102891ADDMA1999999100651MD1310211+9999
0032994770999992005010416004+42467-082750FM-12+0180LSCM V0200301N004619999999N9999999N1+00041-00181102871ADDMA1999999100631MD1210121+9999
0240994770999992005010417004+42467-082750FM-12+0180LSCM V0200101N004619999999N9999999N1+00021-00201102871ADDMA1999999100631MD1110111+9999OA139900571REMSYN188CMAN  04174 LSCM4 46/// /0109 10002 21020 30063 40287 51011 91700 333 91211 555 11009 22010 31653 436012 61659 359010 003010 007009 012009 021649 285090 282090 286087 283087 285091 287089;
0240994770999992005010418004+42467-082750FM-12+0180LSCM V0203401N004619999999N9999999N1+00031-00221102761ADDMA1999999100531MD1810131+9999OA139900511REMSYN188CMAN  04184 LSCM4 46/// /3409 10003 21022 30053 40276 58013 91800 333 91210 555 11008 22009 31726 435011 61759 348008 343009 351009 355009 001749 111022 097014 071008 113008 102010 052012;
0032994770999992005010419004+42467-082750FM-12+0180LSCM V0200101N004119999999N9999999N1+00031-00241102671ADDMA1999999100431MD1810201+9999
0032994770999992005010420004+42467-082750FM-12+0180LSCM V0200101N002619999999N9999999N1+00011-00251102621ADDMA1999999100391MD1610251+9999
0240994770999992005010421004+42467-082750FM-12+0180LSCM V0203601N002119999999N9999999N1+00021-00251102671ADDMA1999999100441MD1510091+9999OA139900211REMSYN188CMAN  04214 LSCM4 46/// /3604 10002 21025 30044 40267 55009 92100 333 91204 555 11003 22004 32036 435007 62059 002004 352004 352006 357006 002049 236072 231068 200057 199059 202057 197056;
0032994770999992005010422004+42467-082750FM-12+0180LSCM V0203601N003619999999N9999999N1+00021-00251102671ADDMA1999999100441MD1510001+9999
0032994770999992005010423004+42467-082750FM-12+0180LSCM V0200101N003619999999N9999999N1+00031-00251102641ADDMA1999999100411MD1010001+9999
0032994770999992005010500004+42467-082750FM-12+0180LSCM V0203501N004619999999N9999999N1+00051-00221102731ADDMA1999999100491MD1310061+9999
0032994770999992005010501004+42467-082750FM-12+0180LSCM V0200201N004619999999N9999999N1+00041-00191102641ADDMA1999999100411MD1810031+9999
0032994770999992005010502004+42467-082750FM-12+0180LSCM V0200201N005719999999N9999999N1+00031-00191102641ADDMA1999999100411MD1010001+9999
0198994770999992005010503004+42467-082750FM-12+0180LSCM V0200201N007219999999N9999999N1+00001-00261102651ADDMA1999999100421MD1610081+9999OA139900771REMSYN146CMAN  05034 LSCM4 46/// /0214 10000 21026 30042 40265 56008 90300 333 91215 555 11014 22015 30255 401015 60259 016013 028012 028012 026011 011014;
0032994770999992005010504004+42467-082750FM-12+0180LSCM V0200201N006219999999N9999999N1+00001-00241102651ADDMA1999999100411MD1410001+9999
0032994770999992005010505004+42467-082750FM-12+0180LSCM V0200101N008719999999N9999999N1+00001-00271102541ADDMA1999999100311MD1810101+9999
0032994770999992005010506004+42467-082750FM-12+0180LSCM V0200101N009819999999N9999999N1-00081-00271102511ADDMA1999999100271MD1810141+9999
0198994770999992005010507004+42467-082750FM-12+0180LSCM V0200201N009819999999N9999999N1-00221-00411102471ADDMA1999999100221MD1610181+9999OA139901081REMSYN146CMAN  05074 LSCM4 46/// /0219 11022 21041 30022 40247 56018 90700 333 91221 555 11019 22020 30638 403024 60659 016018 023019 027021 018019 012014;
0032994770999992005010508004+42467-082750FM-12+0180LSCM V0200101N010319999999N9999999N1-00171-00321102461ADDMA1999999100221MD1610081+9999
0032994770999992005010509004+42467-082750FM-12+0180LSCM V0200101N011319999999N9999999N1-00181-00291102471ADDMA1999999100231MD1610041+9999
0032994770999992005010510004+42467-082750FM-12+0180LSCM V0200101N011819999999N9999999N1-00171-00291102441ADDMA1999999100201MD1810031+9999
0032994770999992005010511004+42467-082750FM-12+0180LSCM V0203601N012319999999N9999999N1-00211-00361102531ADDMA1999999100291MD1310071+9999
0234994770999992005010512004+42467-082750FM-12+0180LSCM V0200101N011819999999N9999999N1-00241-00451102601ADDMA1999999100361MD1310131+9999OA139901291REMSYN182CMAN  05124 LSCM4 46/// /0123 11024 21045 30036 40260 53013 91200 333 91225 555 11022 22024 31105 402029 61159 009023 009022 007023 008024 0171117 278111 273122 274116 273116 273109;
0032994770999992005010513004+42467-082750FM-12+0180LSCM V0200201N009319999999N9999999N1-00231-00401102631ADDMA1999999100391MD1110191+9999
0246994770999992005010514004+42467-082750FM-12+0180LSCM V0200201N008219999999N9999999N1-00221-00391102561ADDMA1999999100311MD1010031+9999OA139900931REMSYN194CMAN  05144 LSCM4 46/// /0216 11022 21039 30031 40256 50003 91400 333 91218 555 11016 22017 31308 401022 61359 022018 021017 019016 019018 01005 111349 125074 122073 123069 111073 109076 102073;
0032994770999992005010516004+42467-082750FM-12+0180LSCM V0200301N010819999999N9999999N1-00241-00591102511ADDMA1999999100271MD1610121+9999
0198994770999992005010517004+42467-082750FM-12+0180LSCM V0200201N010819999999N9999999N1-00271-00651102511ADDMA1999999100261MD1710051+9999OA139901181REMSYN146CMAN  05174 LSCM4 46/// /0221 11027 21065 30026 40251 57005 91700 333 91223 555 11020 22021 31602 403025 61659 023021 024021 027020 028021 038012;
0032994770999992005010518004+42467-082750FM-12+0180LSCM V0200301N009819999999N9999999N1-00281-00621102411ADDMA1999999100161MD1810141+9999
0032994770999992005010519004+42467-082750FM-12+0180LSCM V0200201N010319999999N9999999N1-00281-00551102301ADDMA1999999100061MD1810211+9999
0032994770999992005010520004+42467-082750FM-12+0180LSCM V0200201N012319999999N9999999N1-00321-00611102181ADDMA1999999099941MD1810331+9999
0240994770999992005010521004+42467-082750FM-12+0180LSCM V0200301N012319999999N9999999N1-00331-00641102141ADDMA1999999099891MD1610271+9999OA139901391REMSYN188CMAN  05214 LSCM4 46/// /0324 11033 21064 39989 40214 56027 92100 333 91227 555 11023 22025 32022 402027 62059 034024 034022 032022 030022 022049 093041 100040 097044 099049 097049 104049;
0032994770999992005010522004+42467-082750FM-12+0180LSCM V0200301N010819999999N9999999N1-00381-00611102141ADDMA1999999099901MD1610161+9999
0032994770999992005010523004+42467-082750FM-12+0180LSCM V0200401N011319999999N9999999N1-00421-00651102091ADDMA1999999099851MD1810091+9999
0032994770999992005010600004+42467-082750FM-12+0180LSCM V0200301N010819999999N9999999N1-00441-00671102041ADDMA1999999099801MD1810101+9999
0032994770999992005010601004+42467-082750FM-12+0180LSCM V0200401N009319999999N9999999N1-00451-00701101981ADDMA1999999099731MD1810161+9999
0032994770999992005010602004+42467-082750FM-12+0180LSCM V0200401N010319999999N9999999N1-00461-00681101911ADDMA1999999099671MD1810181+9999
0032994770999992005010603004+42467-082750FM-12+0180LSCM V0200401N010819999999N9999999N1-00441-00681101811ADDMA1999999099571MD1810231+9999
0032994770999992005010604004+42467-082750FM-12+0180LSCM V0200301N011819999999N9999999N1-00441-00631101671ADDMA1999999099431MD1810311+9999
0240994770999992005010605004+42467-082750FM-12+0180LSCM V0200501N012919999999N9999999N1-00381-00561101541ADDMA1999999099311MD1810371+9999OA139901491REMSYN188CMAN  06054 LSCM4 46/// /0525 11038 21056 39931 40154 58037 90500 333 91229 555 11024 22025 30459 405029 60459 046022 042022 035022 036022 03010 1750045 359041 007045 013050 006051 017052;
0032994770999992005010606004+42467-082750FM-12+0180LSCM V0200501N011319999999N9999999N1-00401-00561101431ADDMA1999999099201MD1610381+9999
0032994770999992005010607004+42467-082750FM-12+0180LSCM V0200401N011319999999N9999999N1-00431-00631101311ADDMA1999999099081MD1610361+9999
0198994770999992005010608004+42467-082750FM-12+0180LSCM V0200401N010819999999N9999999N1-00431-00621101241ADDMA1999999099021MD1610301+9999OA139901181REMSYN146CMAN  06084 LSCM4 46/// /0421 11043 21062 39902 40124 56030 90800 333 91223 555 11020 22021 30707 405027 60759 037021 038020 040021 038022 038012;
0197994770999992005010609004+42467-082750FM-12+0180LSCM V0200401N010819999999N9999999N1-00401-00571101041ADDMA1999999098821MD1810391+9999OA139901181REMSYN145CMAN  06094 LSCM4 46/// /0421 11040 21057 39882 40104 58039 90900 333 91223 555 11021 22022 30838 404026 60859 040021 038022 038022 038022 04044;
0032994770999992005010610004+42467-082750FM-12+0180LSCM V0200601N010319999999N9999999N1-00391-00561100811ADDMA1999999098601MD1810501+9999
0032994770999992005010611004+42467-082750FM-12+0180LSCM V0200601N008219999999N9999999N1-00361-00541100831ADDMA1999999098621MD1610411+9999
0032994770999992005010612004+42467-082750FM-12+0180LSCM V0200701N009819999999N9999999N1-00351-00501100551ADDMA1999999098351MD1810491+9999
0032994770999992005010613004+42467-082750FM-12+0180LSCM V0200701N008719999999N9999999N1-00311-00451100401ADDMA1999999098201MD1810411+9999
0032994770999992005010614004+42467-082750FM-12+0180LSCM V0209999C000019999999N9999999N1-00231-00331100531ADDMA1999999098331MD1510301+9999
0032994770999992005010615004+42467-082750FM-12+0180LSCM V0203301N005719999999N9999999N1-00261-00331100501ADDMA1999999098301MD1610051+9999
0032994770999992005010616004+42467-082750FM-12+0180LSCM V0203201N006219999999N9999999N1-00311-00471100481ADDMA1999999098281MD1110081+9999
0018994770999992005010617004+42467-082750FM-12+0180LSCM V0203101N006719999999N9999999N1-00281-00511100471ADDMA1999999098271
0032994770999992005010618004+42467-082750FM-12+0180LSCM V0202701N005119999999N9999999N1-00251-00541100491ADDMA1999999098291MD1410001+9999
0228994770999992005010619004+42467-082750FM-12+0180LSCM V0202601N007219999999N9999999N1-00211-00541100541ADDMA1999999098341MD1210061+9999OA139900821REMSYN176CMAN  06194 LSCM4 46/// /2614 11021 21054 39834 40054 52006 91900 333 91216 555 11014 22015 31856 425018 61859 252014 256012 253013 258012 25011 128009 135030054 134053 130057;
0018994770999992005010620004+42467-082750FM-12+0180LSCM V0202501N010319999999N9999999N1-00201-00541100641ADDMA1999999098431
0032994770999992005010621004+42467-082750FM-12+0180LSCM V0202501N010819999999N9999999N1-00201-00651100751ADDMA1999999098541MD1310261+9999
0228994770999992005010622004+42467-082750FM-12+0180LSCM V0202601N010819999999N9999999N1-00201-00661100911ADDMA1999999098711MD1310371+9999OA139901241REMSYN176CMAN  06224 LSCM4 46/// /2621 11020 21066 39871 40091 53037 92200 333 91224 555 11021 22022 32135 425030 62159 259021 260023 254024 251022 25065022 055019 032021 031018 036020;
0032994770999992005010623004+42467-082750FM-12+0180LSCM V0202601N011319999999N9999999N1-00251-00741101071ADDMA1999999098851MD1310431+9999
0018994770999992005010700004+42467-082750FM-12+0180LSCM V0202601N011319999999N9999999N1-00291-00751101241ADDMA1999999099021
0220994770999992005010701004+42467-082750FM-12+0180LSCM V0202701N010819999999N9999999N1-00311-00751101371ADDMA1999999099151OA139901181REMSYN182CMAN  07014 LSCM4 46/// /2721 11031 21075 39915 40137 90100 333 91223 555 11020 22021 30006 426029 60059 272022 273023 272022 270023 260049 078085 081086 083087 081080 083085 084088;
0178994770999992005010702004+42467-082750FM-12+0180LSCM V0202701N009319999999N9999999N1-00361-00801101491ADDMA1999999099261OA139901031REMSYN140CMAN  07024 LSCM4 46/// /2718 11036 21080 39926 40149 90200 333 91220 555 11017 22018 30137 428024 60159 268018 267019 270019 272020 274013;
0032994770999992005010703004+42467-082750FM-12+0180LSCM V0202801N010319999999N9999999N1-00401-00841101641ADDMA1999999099411MD1310401+9999
0032994770999992005010704004+42467-082750FM-12+0180LSCM V0202701N009819999999N9999999N1-00421-00801101791ADDMA1999999099561MD1310421+9999
0032994770999992005010705004+42467-082750FM-12+0180LSCM V0202901N009319999999N9999999N1-00451-00801101881ADDMA1999999099641MD1110391+9999
0032994770999992005010706004+42467-082750FM-12+0180LSCM V0202801N006719999999N9999999N1-00491-00851101991ADDMA1999999099741MD1110351+9999
0032994770999992005010707004+42467-082750FM-12+0180LSCM V0202701N006719999999N9999999N1-00501-00811102061ADDMA1999999099821MD1110271+9999
0032994770999992005010708004+42467-082750FM-12+0180LSCM V0202601N006719999999N9999999N1-00451-00791102151ADDMA1999999099901MD1110271+9999
0032994770999992005010709004+42467-082750FM-12+0180LSCM V0202401N006719999999N9999999N1-00371-00761102231ADDMA1999999099981MD1310241+9999
0210994770999992005010710004+42467-082750FM-12+0180LSCM V0202301N006719999999N9999999N1-00291-00751102261ADDMA1999999100021MD1110201+9999OA139900721REMSYN158CMAN  07104 LSCM4 46/// /2313 11029 21075 30002 40226 51020 91000 333 91214 555 11012 22013 30928 422018 60959 228013 225014 232014 232014 2308 003009 000000;
0032994770999992005010711004+42467-082750FM-12+0180LSCM V0202201N006219999999N9999999N1-00261-00531102291ADDMA1999999100051MD1110141+9999
0240994770999992005010712004+42467-082750FM-12+0180LSCM V0202001N006719999999N9999999N1-00301-00521102361ADDMA1999999100121MD1310131+9999OA139900771REMSYN188CMAN  07124 LSCM4 46/// /2013 11030 21052 30012 40236 53013 91200 333 91215 555 11013 22014 31157 420015 61159 205013 209012 209013 213013 211149 101039 078028 163036 170029 168054 114089;
0032994770999992005010713004+42467-082750FM-12+0180LSCM V0202001N007219999999N9999999N1-00361-00591102401ADDMA1999999100161MD1310141+9999
0032994770999992005010714004+42467-082750FM-12+0180LSCM V0202301N009319999999N9999999N1-00391-00661102511ADDMA1999999100261MD1310221+9999
0032994770999992005010716004+42467-082750FM-12+0180LSCM V0202401N005119999999N9999999N1-00401-00671102651ADDMA1999999100401MD1110251+9999
0198994770999992005010717004+42467-082750FM-12+0180LSCM V0202301N004619999999N9999999N1-00371-00671102571ADDMA1999999100321MD1010061+9999OA139900571REMSYN146CMAN  07174 LSCM4 46/// /2309 11037 21067 30032 40257 50006 91700 333 91211 555 11009 22010 31618 422013 61659 231008 232008 231008 229009 233017;
0194994770999992005010718004+42467-082750FM-12+0180LSCM V0202101N006219999999N9999999N1-00351-00651102501ADDMA1999999100251MD1810151+9999OA139900671REMSYN142CMAN  07184 LSCM4 46/// /2112 11035 21065 30025 40250 58015 91800 333 91213 555 11012 22012 31726 421015 61759 207012 211011 211012 208012 21;
0032994770999992005010719004+42467-082750FM-12+0180LSCM V0202001N004619999999N9999999N1-00331-00671102401ADDMA1999999100161MD1810251+9999
0032994770999992005010720004+42467-082750FM-12+0180LSCM V0202001N005719999999N9999999N1-00311-00631102421ADDMA1999999100171MD1610151+9999
0240994770999992005010721004+42467-082750FM-12+0180LSCM V0202001N005719999999N9999999N1-00281-00571102461ADDMA1999999100211MD1510041+9999OA139900621REMSYN188CMAN  07214 LSCM4 46/// /2011 11028 21057 30021 40246 55004 92100 333 91212 555 11011 22012 32002 421014 62059 197011 199010 194011 192012 192049 087080 086087 084080 085087 088093 085094;
0032994770999992005010722004+42467-082750FM-12+0180LSCM V0202001N005719999999N9999999N1-00241-00531102431ADDMA1999999100191MD1010031+9999
0246994770999992005010723004+42467-082750FM-12+0180LSCM V0201701N005719999999N9999999N1-00221-00481102431ADDMA1999999100181MD1010001+9999OA139900621REMSYN194CMAN  07234 LSCM4 46/// /1711 11022 21048 30018 40243 50000 92300 333 91212 555 11010 22011 32204 419014 62259 175011 182010 176009 180010 180718 62249 071138 069146 070141 069139 071139 069138;
0251994770999992005010800004+42467-082750FM-12+0180LSCM V0201701N005119999999N9999999N1-00211-00471102441ADDMA1999999100201MD1510001+9999OA139900571REMSYN199CMAN  08004 LSCM4 46/// /1710 11021 21047 30020 40244 55000 90000 333 91211 555 11010 22010 32309 418014 62359 167010 164010 172011 181011 18253 42208 62349 219054 217054 217056 212056 217060 225067;
0032994770999992005010801004+42467-082750FM-12+0180LSCM V0201601N003619999999N9999999N1-00201-00431102351ADDMA1999999100111MD1810081+9999
0032994770999992005010802004+42467-082750FM-12+0180LSCM V0201501N002619999999N9999999N1-00181-00391102291ADDMA1999999100061MD1810141+9999
0203994770999992005010803004+42467-082750FM-12+0180LSCM V0201301N003619999999N9999999N1-00141-00371102251ADDMA1999999100021MD1610191+9999OA139900411REMSYN151CMAN  08034 LSCM4 46/// /1307 11014 21037 30002 40225 56019 90300 333 91208 555 11007 22008 30259 413008 60259 134007 136005 141005 134006 14101 70///;
0032994770999992005010804004+42467-082750FM-12+0180LSCM V0201201N003119999999N9999999N1-00121-00351102201ADDMA1999999099971MD1610151+9999
0032994770999992005010805004+42467-082750FM-12+0180LSCM V0201001N001519999999N9999999N1-00091-00341102161ADDMA1999999099931MD1710131+9999
0032994770999992005010806004+42467-082750FM-12+0180LSCM V0200701N004619999999N9999999N1-00171-00331102031ADDMA1999999099801MD1810221+9999
0032994770999992005010807004+42467-082750FM-12+0180LSCM V0200501N005119999999N9999999N1-00141-00321101961ADDMA1999999099731MD1810241+9999
0032994770999992005010808004+42467-082750FM-12+0180LSCM V0200201N005119999999N9999999N1-00121-00341101991ADDMA1999999099761MD1510171+9999
0032994770999992005010809004+42467-082750FM-12+0180LSCM V0200201N007719999999N9999999N1-00151-00341101891ADDMA1999999099671MD1810141+9999
0032994770999992005010810004+42467-082750FM-12+0180LSCM V0200201N008719999999N9999999N1-00201-00321101821ADDMA1999999099601MD1810141+9999
0032994770999992005010811004+42467-082750FM-12+0180LSCM V0200301N008219999999N9999999N1-00211-00321101861ADDMA1999999099631MD1510131+9999
0032994770999992005010812004+42467-082750FM-12+0180LSCM V0203501N009819999999N9999999N1-00271-00371101891ADDMA1999999099661MD1510001+9999
0032994770999992005010813004+42467-082750FM-12+0180LSCM V0203301N008719999999N9999999N1-00331-00451102091ADDMA1999999099851MD1310271+9999
0032994770999992005010814004+42467-082750FM-12+0180LSCM V0203201N008719999999N9999999N1-00371-00481102291ADDMA1999999100041MD1310431+9999
0032994770999992005010815004+42467-082750FM-12+0180LSCM V0203301N006719999999N9999999N1-00381-00531102421ADDMA1999999100171MD1110531+9999
0198994770999992005010816004+42467-082750FM-12+0180LSCM V0203401N005719999999N9999999N1-00371-00521102531ADDMA1999999100281MD1110441+9999OA139900621REMSYN146CMAN  08164 LSCM4 46/// /3411 11037 21052 30028 40253 51044 91600 333 91212 555 11011 22011 31512 433017 61559 343011 339012 339012 339012 333017;
0032994770999992005010817004+42467-082750FM-12+0180LSCM V0203401N005719999999N9999999N1-00301-00511102581ADDMA1999999100331MD1110291+9999
0222994770999992005010818004+42467-082750FM-12+0180LSCM V0203001N003619999999N9999999N1-00211-00511102541ADDMA1999999100291MD1010121+9999OA139900411REMSYN170CMAN  08184 LSCM4 46/// /3007 11021 21051 30029 40254 50012 91800 333 91208 555 11007 22007 31701 433014 61759 296008 293008 308005 345006 34 126014 138005 012012 356022;
0032994770999992005010819004+42467-082750FM-12+0180LSCM V0203001N005719999999N9999999N1-00151-00541102641ADDMA1999999100401MD1310111+9999
0032994770999992005010820004+42467-082750FM-12+0180LSCM V0202601N002619999999N9999999N1-00111-00531102671ADDMA1999999100431MD1310091+9999
0032994770999992005010821004+42467-082750FM-12+0180LSCM V0203001N005119999999N9999999N1-00091-00541102791ADDMA1999999100551MD1310251+9999
0032994770999992005010822004+42467-082750FM-12+0180LSCM V0202901N002119999999N9999999N1-00061-00511102891ADDMA1999999100651MD1310251+9999
0032994770999992005010823004+42467-082750FM-12+0180LSCM V0203401N003119999999N9999999N1-00061-00541102951ADDMA1999999100701MD1110281+9999
0032994770999992005010900004+42470-082750FM-12+0180LSCM V0203201N003619999999N9999999N1-00101-00551103021ADDMA1999999100771MD1110231+9999
0246994770999992005010901004+42470-082750FM-12+0180LSCM V0203601N002119999999N9999999N1-00131-00551103011ADDMA1999999100761MD1110121+9999OA139900211REMSYN194CMAN  09014 LSCM4 46/// /3604 11013 21055 30076 40301 51012 90100 333 91204 555 11004 22004 30009 435009 60059 359004 353004 004005 351006 342010 60049 195066 204071 202080 198076 195075 206065;
0032994770999992005010902004+42470-082750FM-12+0180LSCM V0203001N001019999999N9999999N1-00131-00561103001ADDMA1999999100751MD1110051+9999
0032994770999992005010903004+42470-082750FM-12+0180LSCM V0200201N001519999999N9999999N1-00131-00541102971ADDMA1999999100721MD1810051+9999
0246994770999992005010904004+42470-082750FM-12+0180LSCM V0200601N002119999999N9999999N1-00121-00531102981ADDMA1999999100731MD1710031+9999OA139900261REMSYN194CMAN  09044 LSCM4 46/// /0604 11012 21053 30073 40298 57003 90400 333 91205 555 11004 22004 30340 407005 60359 074004 074004 066003 045002 021709 60349 166039 165037 157039 178042 168057 185049;
0240994770999992005010905004+42470-082750FM-12+0180LSCM V0201001N003119999999N9999999N1-00131-00511102961ADDMA1999999100711MD1610041+9999OA139900311REMSYN188CMAN  09054 LSCM4 46/// /1006 11013 21051 30071 40296 56004 90500 333 91206 555 11006 22006 30442 410007 60459 100006 106006 094005 094005 080449 072072 070073 075066 073067 070071 070068;
0210994770999992005010906004+42470-082750FM-12+0180LSCM V0201201N003119999999N9999999N1-00151-00371102921ADDMA1999999100671MD1810051+9999OA139900361REMSYN158CMAN  09064 LSCM4 46/// /1206 11015 21037 30067 40292 58005 90600 333 91207 555 11006 22006 30511 411008 60559 118006 116006 119005 123006 12 95150 444 16240;
0032994770999992005010907004+42470-082750FM-12+0180LSCM V0201901N003119999999N9999999N1-00151-00421102901ADDMA1999999100661MD1710081+9999
0240994770999992005010908004+42470-082750FM-12+0180LSCM V0202101N004119999999N9999999N1-00141-00361102931ADDMA1999999100681MD1510031+9999OA139900461REMSYN188CMAN  09084 LSCM4 46/// /2108 11014 21036 30068 40293 55003 90800 333 91209 555 11008 22009 30757 421009 60759 211008 205007 198008 194006 190749 165062 163062 163061 166062 161058 163057;
0032994770999992005010909004+42470-082750FM-12+0180LSCM V0201901N004119999999N9999999N1-00131-00321102871ADDMA1999999100621MD1810051+9999
0246994770999992005010910004+42470-082750FM-12+0180LSCM V0201701N005719999999N9999999N1-00141-00291102761ADDMA1999999100511MD1810141+9999OA139900621REMSYN194CMAN  09104 LSCM4 46/// /1711 11014 21029 30051 40276 58014 91000 333 91212 555 11010 22011 30956 417012 60959 168010 172010 175009 175009 180407 60949 050062 047062 050060 054058 047060 036060;
0032994770999992005010911004+42470-082750FM-12+0180LSCM V0201701N004619999999N9999999N1-00151-00271102761ADDMA1999999100521MD1610171+9999
0032994770999992005010912004+42470-082750FM-12+0180LSCM V0201901N006219999999N9999999N1-00131-00231102761ADDMA1999999100521MD1610111+9999
0032994770999992005010913004+42470-082750FM-12+0180LSCM V0201901N006219999999N9999999N1-00101-00201102741ADDMA1999999100501MD1410001+9999
0197994770999992005010914004+42470-082750FM-12+0180LSCM V0202001N006219999999N9999999N1-00091-00241102731ADDMA1999999100491MD1710031+9999OA139900671REMSYN145CMAN  09144 LSCM4 46/// /2012 11009 21024 30049 40273 57003 91400 333 91213 555 11011 22012 31314 420016 61359 200011 203012 203013 199013 19035;
0246994770999992005010915004+42470-082750FM-12+0180LSCM V0202101N005719999999N9999999N1-00081-00381102691ADDMA1999999100451MD1810071+9999OA139900621REMSYN194CMAN  09154 LSCM4 46/// /2111 11008 21038 30045 40269 58007 91500 333 91212 555 11011 22011 31441 421014 61459 207011 209012 203011 206012 201712 61449 166082 165082 147068 160086 155078 150090;
0032994770999992005010917004+42470-082750FM-12+0180LSCM V0202001N003619999999N9999999N1-00081-00291102541ADDMA1999999100301MD1810191+9999
0032994770999992005010918004+42470-082750FM-12+0180LSCM V0201801N005719999999N9999999N1-00021-00231102351ADDMA1999999100121MD1810341+9999
0246994770999992005010919004+42470-082750FM-12+0180LSCM V0201801N006719999999N9999999N1+00001-00201102211ADDMA1999999099991MD1810431+9999OA139900721REMSYN194CMAN  09194 LSCM4 46/// /1813 10000 21020 39999 40221 58043 91900 333 91214 555 11013 22013 31844 417016 61859 175013 173014 166013 169013 171911 61849 182072 182080 185076 193073 195069 202072;
0228994770999992005010920004+42470-082750FM-12+0180LSCM V0201701N006719999999N9999999N1+00021-00161102191ADDMA1999999099961MD1610351+9999OA139900771REMSYN176CMAN  09204 LSCM4 46/// /1713 10002 21016 39996 40219 56035 92000 333 91215 555 11012 22013 31958 418015 61959 178012 178011 175010 174011 17076027 090025 095024 086021 070027;
0032994770999992005010921004+42470-082750FM-12+0180LSCM V0201901N006219999999N9999999N1+00061-00151102111ADDMA1999999099891MD1610241+9999
0240994770999992005010922004+42470-082750FM-12+0180LSCM V0201801N006719999999N9999999N1+00061-00131101991ADDMA1999999099781MD1810221+9999OA139900721REMSYN188CMAN  09224 LSCM4 46/// /1813 10006 21013 39978 40199 58022 92200 333 91214 555 11012 22013 32131 418015 62159 181012 184012 183013 181013 182149 121079 120079 122079 114078 111077 108076;
0032994770999992005010923004+42470-082750FM-12+0180LSCM V0201801N006219999999N9999999N1+00061-00141101891ADDMA1999999099681MD1810301+9999
0032994770999992005011000004+42467-082750FM-12+0180LSCM V0201701N005119999999N9999999N1+00051-00121101831ADDMA1999999099621MD1610281+9999
0032994770999992005011001004+42467-082750FM-12+0180LSCM V0201701N003619999999N9999999N1+00031-00121101731ADDMA1999999099521MD1710261+9999
0032994770999992005011002004+42467-082750FM-12+0180LSCM V0201701N003619999999N9999999N1+00001-00111101621ADDMA1999999099411MD1810271+9999
0032994770999992005011003004+42467-082750FM-12+0180LSCM V0202301N002619999999N9999999N1+00011-00121101591ADDMA1999999099381MD1610241+9999
0240994770999992005011004004+42467-082750FM-12+0180LSCM V0202201N003619999999N9999999N1+00041-00111101481ADDMA1999999099271MD1710251+9999OA139900361REMSYN188CMAN  10044 LSCM4 46/// /2207 10004 21011 39927 40148 57025 90400 333 91207 555 11006 22007 30356 422008 60359 222007 227007 222007 225006 230349 079037 071039 066042 066039 066038 071035;
0032994770999992005011005004+42467-082750FM-12+0180LSCM V0202301N004119999999N9999999N1+00081-00061101441ADDMA1999999099241MD1810181+9999
0032994770999992005011006004+42467-082750FM-12+0180LSCM V0202401N007719999999N9999999N1+00151+00001101381ADDMA1999999099181MD1610211+9999
0032994770999992005011007004+42467-082750FM-12+0180LSCM V0202501N006219999999N9999999N1+00131+00001101431ADDMA1999999099221MD1510051+9999
0032994770999992005011008004+42467-082750FM-12+0180LSCM V0202601N006219999999N9999999N1+00151+00011101521ADDMA1999999099321MD1310081+9999
0240994770999992005011009004+42467-082750FM-12+0180LSCM V0202801N007719999999N9999999N1+00191-00041101631ADDMA1999999099421MD1310251+9999OA139900821REMSYN188CMAN  10094 LSCM4 46/// /2815 10019 21004 39942 40163 53025 90900 333 91216 555 11014 22015 30829 429017 60859 277014 274014 276015 278014 270849 163037 159039 164041 157030 145027 146028;
0032994770999992005011010004+42467-082750FM-12+0180LSCM V0203001N008219999999N9999999N1+00091-00011101771ADDMA1999999099561MD1310341+9999
0032994770999992005011011004+42467-082750FM-12+0180LSCM V0202901N008219999999N9999999N1+00141-00161101911ADDMA1999999099701MD1310391+9999
0032994770999992005011012004+42467-082750FM-12+0180LSCM V0202901N008219999999N9999999N1+00121-00271102031ADDMA1999999099811MD1110401+9999
0032994770999992005011013004+42467-082750FM-12+0180LSCM V0202901N006219999999N9999999N1+00101-00341102051ADDMA1999999099841MD1110281+9999
0032994770999992005011014004+42467-082750FM-12+0180LSCM V0202601N006719999999N9999999N1+00081-00401102181ADDMA1999999099961MD1310271+9999
0032994770999992005011015004+42467-082750FM-12+0180LSCM V0202801N007219999999N9999999N1+00071-00361102321ADDMA1999999100101MD1310291+9999
0032994770999992005011016004+42467-082750FM-12+0180LSCM V0202901N007219999999N9999999N1+00041-00431102401ADDMA1999999100171MD1110351+9999
0032994770999992005011017004+42467-082750FM-12+0180LSCM V0202701N007719999999N9999999N1+00101-00381102371ADDMA1999999100151MD1010191+9999
0032994770999992005011018004+42467-082750FM-12+0180LSCM V0202701N007719999999N9999999N1+00151-00391102311ADDMA1999999100091MD1010001+9999
0032994770999992005011019004+42467-082750FM-12+0180LSCM V0202701N007219999999N9999999N1+00211-00401102261ADDMA1999999100041MD1810141+9999
0229994770999992005011020004+42467-082750FM-12+0180LSCM V0202801N006719999999N9999999N1+00201-00351102291ADDMA1999999100071MD1510081+9999OA139900721REMSYN177CMAN  10204 LSCM4 46/// /2813 10020 21035 30007 40229 55008 92000 333 91214 555 31955 425008 61959 246006 243005 246005 246005 26009 35098 40101 84232 333 56119 84815 555 91018;
0032994770999992005011021004+42467-082750FM-12+0180LSCM V0202901N004119999999N9999999N1+00201-00351102301ADDMA1999999100081MD1510001+9999
0198994770999992005011022004+42467-082750FM-12+0180LSCM V0202601N001519999999N9999999N1+00201-00371102311ADDMA1999999100091MD1110051+9999OA139900151REMSYN146CMAN  10224 LSCM4 46/// /2603 10020 21037 30009 40231 51005 92200 333 91203 555 11003 22003 32100 429009 62159 247003 250004 249004 288003 296014;
0032994770999992005011023004+42467-082750FM-12+0180LSCM V0202001N001519999999N9999999N1+00121-00241102361ADDMA1999999100141MD1310071+9999
0032994770999992005011100004+42467-082750FM-12+0180LSCM V0202201N001519999999N9999999N1+00151-00281102361ADDMA1999999100141MD1210061+9999
0228994770999992005011101004+42467-082750FM-12+0180LSCM V0202201N002119999999N9999999N1+00061-00161102401ADDMA1999999100181MD1110091+9999OA139900261REMSYN176CMAN  11014 LSCM4 46/// /2204 10006 21016 30018 40240 51009 90100 333 91205 555 11004 22004 30024 420006 60059 218004 215002 247002 209004 19022046 016046 021045 018045 010048;
0032994770999992005011102004+42467-082750FM-12+0180LSCM V0202101N002619999999N9999999N1+00061-00171102411ADDMA1999999100181MD1210051+9999
0032994770999992005011103004+42467-082750FM-12+0180LSCM V0202101N004619999999N9999999N1+00051-00161102421ADDMA1999999100191MD1110061+9999
0032994770999992005011104004+42467-082750FM-12+0180LSCM V0202201N002619999999N9999999N1+00041-00121102421ADDMA1999999100191MD1410001+9999
0032994770999992005011105004+42467-082750FM-12+0180LSCM V0200501N002119999999N9999999N1+00051-00061102361ADDMA1999999100131MD1810051+9999
0198994770999992005011106004+42467-082750FM-12+0180LSCM V0200601N003119999999N9999999N1+00051-00081102291ADDMA1999999100061MD1810131+9999OA139900311REMSYN146CMAN  11064 LSCM4 46/// /0606 10005 21008 30006 40229 58013 90600 333 91206 555 11006 22006 30514 406006 60559 071005 085005 078005 065005 069015;
0032994770999992005011107004+42467-082750FM-12+0180LSCM V0200801N004119999999N9999999N1-00011-00111102271ADDMA1999999100041MD1610151+9999
0198994770999992005011108004+42467-082750FM-12+0180LSCM V0200801N006719999999N9999999N1-00031-00161102151ADDMA1999999099921MD1810211+9999OA139900721REMSYN146CMAN  11084 LSCM4 46/// /0813 11003 21016 39992 40215 58021 90800 333 91214 555 11012 22013 30758 408014 60759 079013 086012 086011 079010 093018;
0032994770999992005011109004+42467-082750FM-12+0180LSCM V0201001N005119999999N9999999N1-00031-00201102261ADDMA1999999100031MD1510031+9999
0032994770999992005011110004+42467-082750FM-12+0180LSCM V0200901N006719999999N9999999N1-00061-00111102141ADDMA1999999099921MD1710131+9999
0198994770999992005011111004+42467-082750FM-12+0180LSCM V0201001N007719999999N9999999N1-00061-00101102071ADDMA1999999099841MD1810081+9999OA139900821REMSYN146CMAN  11114 LSCM4 46/// /1015 11006 21010 39984 40207 58008 91100 333 91216 555 11015 22016 31031 409018 61059 094016 090016 088016 091015 090015;
0032994770999992005011112004+42467-082750FM-12+0180LSCM V0200901N007219999999N9999999N1-00021-00061101991ADDMA1999999099771MD1610271+9999
0032994770999992005011113004+42467-082750FM-12+0180LSCM V0200801N007719999999N9999999N1+00001-00031102001ADDMA1999999099781MD1610141+9999
0198994770999992005011114004+42467-082750FM-12+0180LSCM V0201101N007719999999N9999999N1+00011-00021101951ADDMA1999999099731MD1610121+9999OA139900821REMSYN146CMAN  11144 LSCM4 46/// /1115 10001 21002 39973 40195 56012 91400 333 91216 555 11014 22015 31346 410017 61359 104015 101015 099015 095015 091013;
0032994770999992005011115004+42467-082750FM-12+0180LSCM V0201101N006219999999N9999999N1+00031+00001101981ADDMA1999999099761MD1510001+9999
0032994770999992005011116004+42467-082750FM-12+0180LSCM V0200801N006719999999N9999999N1+00021-00011101941ADDMA1999999099721MD1610061+9999
0032994770999992005011117004+42467-082750FM-12+0180LSCM V0200901N007219999999N9999999N1+00041+00001101791ADDMA1999999099581MD1810161+9999
0032994770999992005011118004+42467-082750FM-12+0180LSCM V0200701N006719999999N9999999N1+00061+00001101731ADDMA1999999099521MD1810251+9999
0198994770999992005011119004+42467-082750FM-12+0180LSCM V0200501N006219999999N9999999N1+00081+00001101711ADDMA1999999099501MD1610231+9999OA139900671REMSYN146CMAN  11194 LSCM4 46/// /0512 10008 20000 39950 40171 56023 91900 333 91213 555 11012 22013 31830 406016 61859 051012 056012 062013 067013 067016;
0198994770999992005011120004+42467-082750FM-12+0180LSCM V0200601N006719999999N9999999N1+00071+00001101631ADDMA1999999099421MD1810161+9999OA139900721REMSYN146CMAN  11204 LSCM4 46/// /0613 10007 20000 39942 40163 58016 92000 333 91214 555 11012 22013 31926 406017 61959 059013 062014 062015 059015 055012;
0032994770999992005011121004+42467-082750FM-12+0180LSCM V0200501N006719999999N9999999N1+00071-00041101681ADDMA1999999099471MD1510051+9999
0032994770999992005011122004+42467-082750FM-12+0180LSCM V0200501N007219999999N9999999N1+00051-00101101721ADDMA1999999099501MD1510001+9999
0032994770999992005011123004+42467-082750FM-12+0180LSCM V0200601N007219999999N9999999N1+00041-00141101721ADDMA1999999099511MD1110091+9999
0198994770999992005011200004+42467-082750FM-12+0180LSCM V0200601N006719999999N9999999N1+00041-00151101741ADDMA1999999099531MD1110061+9999OA139900721REMSYN146CMAN  12004 LSCM4 46/// /0613 10004 21015 39953 40174 51006 90000 333 91214 555 11013 22014 32349 407017 62359 064014 062014 062014 060014 068016;
0032994770999992005011201004+42467-082750FM-12+0180LSCM V0200701N007219999999N9999999N1+00021-00161101681ADDMA1999999099471MD1810041+9999
0198994770999992005011202004+42467-082750FM-12+0180LSCM V0200701N007219999999N9999999N1+00021-00181101701ADDMA1999999099481MD1410001+9999OA139900771REMSYN146CMAN  12024 LSCM4 46/// /0714 10002 21018 39948 40170 54000 90200 333 91215 555 11013 22014 30146 407016 60159 070013 072013 073013 068013 076015;
0032994770999992005011203004+42467-082750FM-12+0180LSCM V0200701N007219999999N9999999N1+00011-00161101631ADDMA1999999099411MD1810111+9999
0032994770999992005011204004+42467-082750FM-12+0180LSCM V0200801N005719999999N9999999N1+00021-00131101601ADDMA1999999099391MD1810081+9999
0198994770999992005011205004+42467-082750FM-12+0180LSCM V0200901N006719999999N9999999N1+00011-00121101511ADDMA1999999099301MD1810191+9999OA139900771REMSYN146CMAN  12054 LSCM4 46/// /0913 10001 21012 39930 40151 58019 90500 333 91215 555 11013 22014 30443 409016 60459 090013 091014 090014 093013 089003;
0198994770999992005011206004+42467-082750FM-12+0180LSCM V0200801N006219999999N9999999N1+00021-00091101391ADDMA1999999099191MD1810241+9999OA139900721REMSYN146CMAN  12064 LSCM4 46/// /0812 10002 21009 39919 40139 58024 90600 333 91214 555 11011 22012 30519 408017 60559 078013 085013 081012 078014 082005;
0032994770999992005011207004+42467-082750FM-12+0180LSCM V0200501N006219999999N9999999N1+00031-00081101321ADDMA1999999099111MD1610281+9999
0032994770999992005011208004+42467-082750FM-12+0180LSCM V0200801N005119999999N9999999N1+00051-00061101321ADDMA1999999099121MD1610191+9999
0032994770999992005011209004+42467-082750FM-12+0180LSCM V0200801N005719999999N9999999N1+00071+00001101211ADDMA1999999099011MD1810181+9999
0032994770999992005011210004+42467-082750FM-12+0180LSCM V0200701N004619999999N9999999N1+00081+00021101231ADDMA1999999099031MD1710091+9999
0198994770999992005011211004+42467-082750FM-12+0180LSCM V0200901N007219999999N9999999N1+00071+00021101141ADDMA1999999098951MD1610181+9999OA139900771REMSYN146CMAN  12114 LSCM4 46/// /0914 10007 20002 39895 40114 56018 91100 333 91215 555 11013 22014 31057 409015 61059 090013 081011 075010 071009 074015;
0240994770999992005011212004+42467-082750FM-12+0180LSCM V0200901N008219999999N9999999N1+00071+00041101041ADDMA1999999098841MD1810171+9999OA139900981REMSYN188CMAN  12124 LSCM4 46/// /0916 10007 20004 39884 40104 58017 91200 333 91219 555 11016 22017 31136 408022 61159 082015 071015 076019 082015 081149 200021 189021 190023 205024 194022 186020;
0198994770999992005011213004+42467-082750FM-12+0180LSCM V0201101N006719999999N9999999N1+00081+00051101021ADDMA1999999098821MD1610211+9999OA139900771REMSYN146CMAN  12134 LSCM4 46/// /1113 10008 20005 39882 40102 56021 91300 333 91215 555 11013 22014 31209 410020 61259 110014 107014 114014 107017 100010;
0032994770999992005011214004+42467-082750FM-12+0180LSCM V0201001N003119999999N9999999N1+00111+00081101051ADDMA1999999098861MD1510091+9999
0198994770999992005011215004+42467-082750FM-12+0180LSCM V0201101N003619999999N9999999N1+00121+00101100991ADDMA1999999098801MD1810051+9999OA139900361REMSYN146CMAN  12154 LSCM4 46/// /1107 10012 20010 39880 40099 58005 91500 333 91207 555 11006 22007 31421 412014 61459 114007 102006 110007 123012 091013;
0204994770999992005011216004+42467-082750FM-12+0180LSCM V0200501N002619999999N9999999N1+00191+00171101031ADDMA1999999098841MD1510001+9999OA139900261REMSYN152CMAN 12164 LSCM4 46/// /0505 10019 20017 39884 40103 55000 91600 333 91205 555 11004 22005 31525 433015 61559 075006 052004 012006 349010 111011 116008;
0032994770999992005011217004+42467-082750FM-12+0180LSCM V0201301N004119999999N9999999N1+00271+00251100921ADDMA1999999098731MD1810131+9999
0206994770999992005011218004+42467-082750FM-12+0180LSCM V0201801N003619999999N9999999N1+00261+00251100861ADDMA1999999098671MD1810131+9999OA139900361REMSYN154CMAN  12184 LSCM4 46/// /1807 10026 20025 39867 40086 58013 91800 333 91207 555 11007 22007 31711 414008 61759 177007 178005 165005 155006 14 96451 96445;
0032994770999992005011219004+42467-082750FM-12+0180LSCM V0201901N002119999999N9999999N1+00321+00301100771ADDMA1999999098591MD1610261+9999
0032994770999992005011220004+42467-082750FM-12+0180LSCM V0201901N001519999999N9999999N1+00381+00371100781ADDMA1999999098601MD1610141+9999
0198994770999992005011221004+42467-082750FM-12+0180LSCM V0201701N006219999999N9999999N1+00661+00651100761ADDMA1999999098601MD1610101+9999OA139900621REMSYN146CMAN  12214 LSCM4 46/// /1712 10066 20065 39860 40076 56010 92100 333 91212 555 11011 22012 32000 417012 62059 165011 165009 167008 165007 178019;
0032994770999992005011222004+42467-082750FM-12+0180LSCM V0201701N007219999999N9999999N1+00681+00671100761ADDMA1999999098601MD1410001+9999
0240994770999992005011223004+42467-082750FM-12+0180LSCM V0201701N010819999999N9999999N1+00751+00741100711ADDMA1999999098551MD1810071+9999OA139901081REMSYN188CMAN  12234 LSCM4 46/// /1721 10075 20074 39855 40071 58007 92300 333 91221 555 11020 22021 32254 417022 62259 171021 170019 172016 173016 172249 068053 071054 070049 074048 074050 074055;
0032994770999992005011300004+42467-082750FM-12+0180LSCM V0201701N009319999999N9999999N1+00731+00721100771ADDMA1999999098611MD1510001+9999
0032994770999992005011301004+42467-082750FM-12+0180LSCM V0201701N010319999999N9999999N1+00771+00761100731ADDMA1999999098571MD1610031+9999
0032994770999992005011302004+42467-082750FM-12+0180LSCM V0201801N011819999999N9999999N1+00851+00841100681ADDMA1999999098531MD1810031+9999
0032994770999992005011303004+42467-082750FM-12+0180LSCM V0201801N011319999999N9999999N1+00811+00801100651ADDMA1999999098491MD1610121+9999
0032994770999992005011304004+42467-082750FM-12+0180LSCM V0201801N011819999999N9999999N1+00911+00841100591ADDMA1999999098441MD1810141+9999
0032994770999992005011305004+42467-082750FM-12+0180LSCM V0201801N011319999999N9999999N1+00901+00781100571ADDMA1999999098421MD1610111+9999
0197994770999992005011306004+42467-082750FM-12+0180LSCM V0201801N011819999999N9999999N1+00941+00761100491ADDMA1999999098351MD1810161+9999OA139901291REMSYN145CMAN  13064 LSCM4 46/// /1823 10094 20076 39835 40049 58016 90600 333 91225 555 11023 22024 30542 418026 60559 177024 179024 179023 179022 18005;
0032994770999992005011307004+42467-082750FM-12+0180LSCM V0201801N011319999999N9999999N1+00931+00721100451ADDMA1999999098311MD1810141+9999
0032994770999992005011308004+42467-082750FM-12+0180LSCM V0201801N011819999999N9999999N1+00981+00751100381ADDMA1999999098241MD1610191+9999
0032994770999992005011309004+42467-082750FM-12+0180LSCM V0201801N011319999999N9999999N1+00941+00711100301ADDMA1999999098161MD1810191+9999
0032994770999992005011310004+42467-082750FM-12+0180LSCM V0201801N011819999999N9999999N1+00921+00661100231ADDMA1999999098091MD1710221+9999
0032994770999992005011311004+42467-082750FM-12+0180LSCM V0201901N011819999999N9999999N1+01001+00701100151ADDMA1999999098021MD1710231+9999
0032994770999992005011312004+42467-082750FM-12+0180LSCM V0201901N014419999999N9999999N1+01071+00801100081ADDMA1999999097951MD1710221+9999
0032994770999992005011313004+42467-082750FM-12+0180LSCM V0201901N011819999999N9999999N1+00961+00751100091ADDMA1999999097961MD1610141+9999
0032994770999992005011314004+42467-082750FM-12+0180LSCM V0201901N012919999999N9999999N1+00991+00621100081ADDMA1999999097941MD1610071+9999
0194994770999992005011315004+42467-082750FM-12+0180LSCM V0202001N009319999999N9999999N1+00951+00591100091ADDMA1999999097951MD1410001+9999OA139900981REMSYN142CMAN  13154 LSCM4 46/// /2018 10095 20059 39795 40009 54000 91500 333 91219 555 11017 22018 31404 419027 61459 198019 194020 191021 189022 18;
0032994770999992005011316004+42467-082750FM-12+0180LSCM V0202201N009319999999N9999999N1+00991+00651100071ADDMA1999999097941MD1410001+9999
0032994770999992005011317004+42467-082750FM-12+0180LSCM V0202201N010819999999N9999999N1+00951+00781100021ADDMA1999999097881MD1810061+9999
0206994770999992005011318004+42467-082750FM-12+0180LSCM V0202001N007719999999N9999999N1+01061+01041099911ADDMA1999999097781MD1810181+9999OA139900821REMSYN154CMAN  13184 LSCM4 46/// /2015 10106 20104 39778 49991 58018 91800 333 91216 555 11015 22016 31701 422021 61759 204016 211017 212017 216016 21 96486 96485;
0032994770999992005011319004+42467-082750FM-12+0180LSCM V0202201N008219999999N9999999N1+01031+01021099901ADDMA1999999097771MD1610171+9999
0198994770999992005011320004+42467-082750FM-12+0180LSCM V0203301N010319999999N9999999N1+00481+00371100091ADDMA1999999097941MD1310071+9999OA139901181REMSYN146CMAN  13204 LSCM4 46/// /3320 10048 20037 39794 40009 53007 92000 333 91223 555 11019 22020 31922 428028 61959 333019 322020 313022 291022 224028;
0032994770999992005011321004+42467-082750FM-12+0180LSCM V0203201N008719999999N9999999N1+00391+00281100341ADDMA1999999098171MD1310431+9999
0198994770999992005011322004+42467-082750FM-12+0180LSCM V0203301N009319999999N9999999N1+00321+00211100511ADDMA1999999098331MD1110611+9999OA139901031REMSYN146CMAN  13224 LSCM4 46/// /3318 10032 20021 39833 40051 51061 92200 333 91220 555 11018 22019 32107 433024 62159 331019 324019 321016 325017 335029;
0240994770999992005011323004+42467-082750FM-12+0180LSCM V0203301N008719999999N9999999N1+00121+00061100731ADDMA1999999098541MD1110641+9999OA139900981REMSYN188CMAN  13234 LSCM4 46/// /3317 10012 20006 39854 40073 51064 92300 333 91219 555 11016 22017 32224 434024 62259 329016 331016 334018 337019 332249 221037 226040 230041 229043 231046 236048;
0032994770999992005011400004+42467-082750FM-12+0180LSCM V0203201N007719999999N9999999N1+00021+00001100921ADDMA1999999098731MD1310581+9999
0198994770999992005011401004+42467-082750FM-12+0180LSCM V0203201N006719999999N9999999N1+00031+00001101051ADDMA1999999098851MD1110541+9999OA139900721REMSYN146CMAN  14014 LSCM4 46/// /3213 10003 20000 39885 40105 51054 90100 333 91214 555 11013 22014 30028 433018 60059 319013 324013 329014 326015 322028;
0032994770999992005011402004+42467-082750FM-12+0180LSCM V0203201N007719999999N9999999N1+00061+00031101121ADDMA1999999098931MD1110391+9999
0032994770999992005011403004+42467-082750FM-12+0180LSCM V0203101N005719999999N9999999N1+00071+00021101301ADDMA1999999099101MD1310381+9999
0240994770999992005011404004+42467-082750FM-12+0180LSCM V0202901N007219999999N9999999N1+00101-00021101441ADDMA1999999099241MD1310391+9999OA139900821REMSYN188CMAN  14044 LSCM4 46/// /2914 10010 21002 39924 40144 53039 90400 333 91216 555 11014 22015 30348 430019 60359 292014 292013 298012 295012 29020 0053025 154025 156023 153020 155015 148018;
0032994770999992005011405004+42467-082750FM-12+0180LSCM V0203101N009319999999N9999999N1+00091-00081101531ADDMA1999999099331MD1110411+9999
0222994770999992005011406004+42467-082750FM-12+0180LSCM V0203001N011319999999N9999999N1+00061-00231101641ADDMA1999999099431MD1110341+9999OA139901181REMSYN170CMAN  14064 LSCM4 46/// /3022 10006 21023 39943 40164 51034 90600 333 91223 555 11021 22022 30551 430025 60559 293022 291019 295016 295017 29 003044 011038 025042 003050;
0032994770999992005011407004+42467-082750FM-12+0180LSCM V0203101N010319999999N9999999N1+00001-00401101781ADDMA1999999099571MD1310341+9999
0198994770999992005011408004+42467-082750FM-12+0180LSCM V0203101N011819999999N9999999N1-00061-00501101951ADDMA1999999099731MD1310421+9999OA139901341REMSYN146CMAN  14084 LSCM4 46/// /3123 11006 21050 39973 40195 53042 90800 333 91226 555 11022 22023 30753 430027 60759 303023 306021 305021 309019 309030;
0198994770999992005011409004+42467-082750FM-12+0180LSCM V0203101N012919999999N9999999N1-00121-00611102111ADDMA1999999099881MD1310471+9999OA139901391REMSYN146CMAN  14094 LSCM4 46/// /3125 11012 21061 39988 40211 53047 90900 333 91227 555 11024 22026 30835 430030 60859 305023 303023 297026 305023 296028;
0032994770999992005011410004+42467-082750FM-12+0180LSCM V0203201N013419999999N9999999N1-00251-00741102281ADDMA1999999100041MD1210501+9999
0032994770999992005011411004+42467-082750FM-12+0180LSCM V0203001N012319999999N9999999N1-00311-00791102451ADDMA1999999100211MD1310501+9999
0198994770999992005011412004+42467-082750FM-12+0180LSCM V0203301N010819999999N9999999N1-00431-00891102601ADDMA1999999100351MD1110491+9999OA139901241REMSYN146CMAN  14124 LSCM4 46/// /3321 11043 21089 30035 40260 51049 91200 333 91224 555 11020 22022 31105 430028 61159 324022 315023 318022 315021 300023;
0032994770999992005011413004+42467-082750FM-12+0180LSCM V0202901N010319999999N9999999N1-00611-01171102821ADDMA1999999100551MD1310541+9999
0032994770999992005011414004+42467-082750FM-12+0180LSCM V0203101N011319999999N9999999N1-00641-01241102981ADDMA1999999100711MD1310531+9999
0032994770999992005011415004+42467-082750FM-12+0180LSCM V0202901N009319999999N9999999N1-00741-01371103141ADDMA1999999100861MD1110541+9999
0032994770999992005011416004+42467-082750FM-12+0180LSCM V0202901N009819999999N9999999N1-00811-01531103291ADDMA1999999101001MD1110471+9999
0032994770999992005011417004+42467-082750FM-12+0180LSCM V0202901N008719999999N9999999N1-00801-01571103311ADDMA1999999101021MD1110331+9999
0032994770999992005011418004+42467-082750FM-12+0180LSCM V0203001N006219999999N9999999N1-00741-01461103321ADDMA1999999101031MD1110181+9999
0032994770999992005011419004+42467-082750FM-12+0180LSCM V0203001N007719999999N9999999N1-00731-01681103251ADDMA1999999100971MD1810041+9999
0198994770999992005011420004+42467-082750FM-12+0180LSCM V0202901N007219999999N9999999N1-00681-01751103331ADDMA1999999101051MD1510001+9999OA139900931REMSYN146CMAN  14204 LSCM4 46/// /2914 11068 21175 30105 40333 55000 92000 333 91218 555 11014 22015 31945 430020 61959 292015 296015 296015 301015 293019;
0032994770999992005011421004+42467-082750FM-12+0180LSCM V0202901N007219999999N9999999N1-00701-01801103431ADDMA1999999101141MD1310111+9999
0198994770999992005011422004+42467-082750FM-12+0180LSCM V0203001N005719999999N9999999N1-00751-01761103461ADDMA1999999101171MD1110211+9999OA139900621REMSYN146CMAN  14224 LSCM4 46/// /3011 11075 21176 30117 40346 51021 92200 333 91212 555 11010 22011 32104 429019 62159 284012 281012 286012 293013 303017;
0198994770999992005011423004+42467-082750FM-12+0180LSCM V0203001N007719999999N9999999N1-00751-01641103551ADDMA1999999101251MD1110221+9999OA139900931REMSYN146CMAN  14234 LSCM4 46/// /3015 11075 21164 30125 40355 51022 92300 333 91218 555 11014 22015 32243 429019 62259 291013 290014 297014 292014 292018;
0198994770999992005011500004+42467-082750FM-12+0180LSCM V0202701N005719999999N9999999N1-00771-01641103651ADDMA1999999101351MD1310221+9999OA139900721REMSYN146CMAN  15004 LSCM4 46/// /2711 11077 21164 30135 40365 53022 90000 333 91214 555 11011 22011 32319 429019 62359 283012 286013 285012 282012 285019;
0032994770999992005011501004+42467-082750FM-12+0180LSCM V0202601N006719999999N9999999N1-00801-01661103761ADDMA1999999101461MD1310301+9999
0032994770999992005011502004+42467-082750FM-12+0180LSCM V0202801N006719999999N9999999N1-00811-01611103771ADDMA1999999101471MD1110221+9999
0032994770999992005011503004+42467-082750FM-12+0180LSCM V0202701N008219999999N9999999N1-00851-01551103841ADDMA1999999101541MD1110191+9999
0032994770999992005011504004+42467-082750FM-12+0180LSCM V0202701N008219999999N9999999N1-00881-01521103881ADDMA1999999101571MD1310121+9999
0032994770999992005011505004+42467-082750FM-12+0180LSCM V0202701N009819999999N9999999N1-00931-01661103911ADDMA1999999101601MD1110141+9999
0032994770999992005011506004+42467-082750FM-12+0180LSCM V0202901N007219999999N9999999N1-00981-01531103931ADDMA1999999101621MD1110091+9999
0032994770999992005011507004+42467-082750FM-12+0180LSCM V0203001N008719999999N9999999N1-01031-01541103991ADDMA1999999101671MD1310111+9999
0032994770999992005011508004+42467-082750FM-12+0180LSCM V0203001N010819999999N9999999N1-01051-01611104051ADDMA1999999101731MD1310141+9999
0032994770999992005011509004+42467-082750FM-12+0180LSCM V0203001N008719999999N9999999N1-01071-01691104051ADDMA1999999101731MD1110121+9999
0240994770999992005011510004+42467-082750FM-12+0180LSCM V0203201N005719999999N9999999N1-01051-01621104061ADDMA1999999101741MD1110071+9999OA139900671REMSYN188CMAN  15104 LSCM4 46/// /3211 11105 21162 30174 40406 51007 91000 333 91213 555 11010 22011 30903 429020 60959 315011 307012 310011 307012 300949 351035 355034 006030 004028 357031 003037;
0032994770999992005011511004+42467-082750FM-12+0180LSCM V0202901N005719999999N9999999N1-01041-01641104081ADDMA1999999101761MD1210031+9999
0032994770999992005011512004+42467-082750FM-12+0180LSCM V0202701N006219999999N9999999N1-01001-01551104131ADDMA1999999101811MD1310081+9999
0032994770999992005011513004+42467-082750FM-12+0180LSCM V0202701N005119999999N9999999N1-00971-01481104171ADDMA1999999101851MD1310111+9999
0032994770999992005011514004+42467-082750FM-12+0180LSCM V0202501N006219999999N9999999N1-00921-01451104191ADDMA1999999101871MD1110111+9999
0032994770999992005011515004+42467-082750FM-12+0180LSCM V0202701N007219999999N9999999N1-00901-01461104221ADDMA1999999101911MD1110091+9999
0032994770999992005011516004+42467-082750FM-12+0180LSCM V0202801N004119999999N9999999N1-00841-01421104251ADDMA1999999101941MD1310081+9999
0032994770999992005011517004+42467-082750FM-12+0180LSCM V0202401N003119999999N9999999N1-00751-01361104171ADDMA1999999101861MD1010001+9999
0032994770999992005011518004+42467-082750FM-12+0180LSCM V0202301N005119999999N9999999N1-00711-01541104071ADDMA1999999101771MD1810151+9999
0032994770999992005011519004+42467-082750FM-12+0180LSCM V0202201N005119999999N9999999N1-00641-01471103981ADDMA1999999101681MD1810271+9999
0032994770999992005011520004+42467-082750FM-12+0180LSCM V0202301N004119999999N9999999N1-00561-01451103911ADDMA1999999101621MD1610261+9999
0032994770999992005011521004+42467-082750FM-12+0180LSCM V0202201N006219999999N9999999N1-00541-01481103931ADDMA1999999101641MD1610141+9999
0032994770999992005011522004+42467-082750FM-12+0180LSCM V0202601N005119999999N9999999N1-00521-01451103931ADDMA1999999101641MD1610051+9999
0032994770999992005011523004+42467-082750FM-12+0180LSCM V0202601N005719999999N9999999N1-00531-01471103971ADDMA1999999101671MD1310061+9999
0032994770999992005011600004+42467-082750FM-12+0180LSCM V0202801N006719999999N9999999N1-00571-01531104031ADDMA1999999101731MD1310101+9999
0032994770999992005011601004+42467-082750FM-12+0180LSCM V0202801N006219999999N9999999N1-00591-01511104041ADDMA1999999101741MD1110111+9999
0032994770999992005011602004+42467-082750FM-12+0180LSCM V0202501N005119999999N9999999N1-00601-01511104021ADDMA1999999101731MD1110051+9999
0234994770999992005011603004+42467-082750FM-12+0180LSCM V0202801N006719999999N9999999N1-00611-01431104001ADDMA1999999101711MD1710031+9999OA139900771REMSYN182CMAN  16034 LSCM4 46/// /2813 11061 21143 30171 40400 57003 90300 333 91215 555 11012 22013 30235 428015 60259 276011 271010 274010 267010 2719035 320034 324032 325028 331029 337027;
0198994770999992005011604004+42467-082750FM-12+0180LSCM V0203101N006719999999N9999999N1-00691-01541103991ADDMA1999999101691MD1710051+9999OA139900771REMSYN146CMAN  16044 LSCM4 46/// /3113 11069 21154 30169 40399 57005 90400 333 91215 555 11013 22014 30355 430016 60359 305013 306012 308011 308011 304027;
0032994770999992005011605004+42467-082750FM-12+0180LSCM V0203301N006719999999N9999999N1-00781-01371103981ADDMA1999999101681MD1710041+9999
0032994770999992005011606004+42467-082750FM-12+0180LSCM V0203201N006219999999N9999999N1-00881-01431103961ADDMA1999999101651MD1710041+9999
0032994770999992005011607004+42467-082750FM-12+0180LSCM V0203401N008219999999N9999999N1-00951-01461103941ADDMA1999999101631MD1710051+9999
0032994770999992005011608004+42467-082750FM-12+0180LSCM V0203501N006219999999N9999999N1-01021-01601103941ADDMA1999999101631MD1710041+9999
0032994770999992005011609004+42467-082750FM-12+0180LSCM V0203401N006719999999N9999999N1-01041-01681103931ADDMA1999999101621MD1710031+9999
0032994770999992005011610004+42467-082750FM-12+0180LSCM V0203601N006219999999N9999999N1-01041-01641103881ADDMA1999999101561MD1810061+9999
0032994770999992005011611004+42467-082750FM-12+0180LSCM V0200101N007219999999N9999999N1-01051-01601103851ADDMA1999999101531MD1810091+9999
0032994770999992005011612004+42467-082750FM-12+0180LSCM V0203601N006219999999N9999999N1-01061-01571103841ADDMA1999999101521MD1610091+9999
0032994770999992005011613004+42467-082750FM-12+0180LSCM V0203601N006219999999N9999999N1-01081-01631103841ADDMA1999999101521MD1610041+9999
0032994770999992005011614004+42467-082750FM-12+0180LSCM V0203601N004619999999N9999999N1-01081-01551103811ADDMA1999999101491MD1810041+9999
0032994770999992005011615004+42467-082750FM-12+0180LSCM V0203301N006219999999N9999999N1-01131-01511103801ADDMA1999999101481MD1710041+9999
0032994770999992005011616004+42467-082750FM-12+0180LSCM V0203301N006719999999N9999999N1-01091-01491103751ADDMA1999999101441MD1810091+9999
0032994770999992005011617004+42467-082750FM-12+0180LSCM V0203201N006719999999N9999999N1-01101-01661103661ADDMA1999999101341MD1810151+9999
0032994770999992005011618004+42467-082750FM-12+0180LSCM V0203301N007219999999N9999999N1-01081-01711103561ADDMA1999999101251MD1810241+9999
0032994770999992005011619004+42467-082750FM-12+0180LSCM V0203201N005119999999N9999999N1-01011-01681103451ADDMA1999999101141MD1810301+9999
0240994770999992005011620004+42467-082750FM-12+0180LSCM V0203101N007719999999N9999999N1-00991-01751103401ADDMA1999999101101MD1610261+9999OA139900821REMSYN188CMAN  16204 LSCM4 46/// /3115 11099 21175 30110 40340 56026 92000 333 91216 555 11014 22015 31942 431019 61959 317014 319014 322013 313014 311949 123086 122088 123088 121085 121085 118090;
0032994770999992005011621004+42467-082750FM-12+0180LSCM V0203401N007719999999N9999999N1-00981-01721103381ADDMA1999999101081MD1610181+9999
0228994770999992005011622004+42467-082750FM-12+0180LSCM V0203201N008219999999N9999999N1-01011-01801103391ADDMA1999999101081MD1610061+9999OA139900881REMSYN176CMAN  16224 LSCM4 46/// /3216 11101 21180 30108 40339 56006 92200 333 91217 555 11015 22016 32142 433020 62159 318014 326014 327014 321013 32004040 336023 352033 312029 334034;
0032994770999992005011623004+42467-082750FM-12+0180LSCM V0203301N008219999999N9999999N1-01061-01811103441ADDMA1999999101141MD1310041+9999
0032994770999992005011700004+42470-082750FM-12+0180LSCM V0203301N009319999999N9999999N1-01101-01831103531ADDMA1999999101211MD1310151+9999
0032994770999992005011701004+42470-082750FM-12+0180LSCM V0203101N009319999999N9999999N1-01181-01841103591ADDMA1999999101271MD1310201+9999
0032994770999992005011702004+42470-082750FM-12+0180LSCM V0203101N007219999999N9999999N1-01181-01811103591ADDMA1999999101271MD1110151+9999
0032994770999992005011703004+42470-082750FM-12+0180LSCM V0203301N005719999999N9999999N1-01171-01821103611ADDMA1999999101291MD1110081+9999
0032994770999992005011704004+42470-082750FM-12+0180LSCM V0203201N007219999999N9999999N1-01151-01841103591ADDMA1999999101271MD1410001+9999
0032994770999992005011705004+42467-082750FM-12+0180LSCM V0203101N008219999999N9999999N1-01131-01861103561ADDMA1999999101251MD1810031+9999
0032994770999992005011705004+42470-082750FM-12+0180LSCM V0203101N008219999999N9999999N1-01131-01861103561ADDMA1999999101251MD1810031+9999
0032994770999992005011706004+42470-082750FM-12+0180LSCM V0203001N008219999999N9999999N1-01141-01821103521ADDMA1999999101211MD1810091+9999
0032994770999992005011707004+42470-082750FM-12+0180LSCM V0203101N009319999999N9999999N1-01211-02001103521ADDMA1999999101201MD1610071+9999
0032994770999992005011708004+42470-082750FM-12+0180LSCM V0202901N007219999999N9999999N1-01231-01961103541ADDMA1999999101221MD1510001+9999
0240994770999992005011709004+42470-082750FM-12+0180LSCM V0202901N007219999999N9999999N1-01251-01911103531ADDMA1999999101211MD1410001+9999OA139900881REMSYN188CMAN  17094 LSCM4 46/// /2914 11125 21191 30121 40353 54000 90900 333 91217 555 11014 22014 30839 428020 60859 288014 291015 291015 292015 290849 002055 003050 008041 015036 013043 009055;
0032994770999992005011710004+42470-082750FM-12+0180LSCM V0202901N008719999999N9999999N1-01281-01821103511ADDMA1999999101191MD1410001+9999
0032994770999992005011711004+42470-082750FM-12+0180LSCM V0202901N008219999999N9999999N1-01291-01771103501ADDMA1999999101181MD1710041+9999
0032994770999992005011712004+42470-082750FM-12+0180LSCM V0202801N008719999999N9999999N1-01291-01731103531ADDMA1999999101211MD1510001+9999
0032994770999992005011713004+42470-082750FM-12+0180LSCM V0202801N008719999999N9999999N1-01301-01711103531ADDMA1999999101211MD1410001+9999
0240994770999992005011714004+42470-082750FM-12+0180LSCM V0203001N008219999999N9999999N1-01271-01671103551ADDMA1999999101231MD1110051+9999OA139900981REMSYN188CMAN  17144 LSCM4 46/// /3016 11127 21167 30123 40355 51005 91400 333 91219 555 11016 22017 31315 429021 61359 292017 290018 289017 287018 281349 116055 120060 119063 116064 123065 123070;
0032994770999992005011715004+42470-082750FM-12+0180LSCM V0203001N007719999999N9999999N1-01241-01731103571ADDMA1999999101251MD1210041+9999
0198994770999992005011716004+42470-082750FM-12+0180LSCM V0203201N009819999999N9999999N1-01221-01921103561ADDMA1999999101251MD1210031+9999OA139901081REMSYN146CMAN  17164 LSCM4 46/// /3219 11122 21192 30125 40356 52003 91600 333 91221 555 11018 22019 31545 430025 61559 309019 304020 302018 303017 296021;
0032994770999992005011717004+42470-082750FM-12+0180LSCM V0203001N010819999999N9999999N1-01201-01921103511ADDMA1999999101191MD1810041+9999
0032994770999992005011718004+42470-082750FM-12+0180LSCM V0203001N012319999999N9999999N1-01191-01991103471ADDMA1999999101151MD1810101+9999
0246994770999992005011719004+42470-082750FM-12+0180LSCM V0203101N009319999999N9999999N1-01191-01861103471ADDMA1999999101161MD1610091+9999OA139901291REMSYN194CMAN  17194 LSCM4 46/// /3118 11119 21186 30116 40347 56009 91900 333 91225 555 11017 22019 31821 430026 61859 308019 293019 295020 294022 291715 61849 158085 159098 165087 155084 140065 143078;
0032994770999992005011720004+42470-082750FM-12+0180LSCM V0203201N008219999999N9999999N1-01231-01861103531ADDMA1999999101211MD1510001+9999
0032994770999992005011721004+42470-082750FM-12+0180LSCM V0203301N011319999999N9999999N1-01221-01631103571ADDMA1999999101251MD1310101+9999
0032994770999992005011722004+42470-082750FM-12+0180LSCM V0203101N010319999999N9999999N1-01181-01911103641ADDMA1999999101331MD1310171+9999
0032994770999992005011723004+42470-082750FM-12+0180LSCM V0203001N009819999999N9999999N1-01201-01671103711ADDMA1999999101391MD1310181+9999
0251994770999992005011800004+42467-082750FM-12+0180LSCM V0203201N009819999999N9999999N1-01231-01751103821ADDMA1999999101491MD1310251+9999OA139901081REMSYN199CMAN  18004 LSCM4 46/// /3219 11123 21175 30149 40382 53025 90000 333 91221 555 11018 22019 32355 433024 62359 322020 317017 311017 308017 30319 43408 62349 333055 343056 344065 341064 337065 339064;
0032994770999992005011801004+42467-082750FM-12+0180LSCM V0203301N009819999999N9999999N1-01271-02021103871ADDMA1999999101541MD1110231+9999
0032994770999992005011802004+42467-082750FM-12+0180LSCM V0203301N009819999999N9999999N1-01311-02131103921ADDMA1999999101591MD1110211+9999
0032994770999992005011803004+42467-082750FM-12+0180LSCM V0203301N009819999999N9999999N1-01391-02231103991ADDMA1999999101651MD1310171+9999
0032994770999992005011804004+42467-082750FM-12+0180LSCM V0203401N010319999999N9999999N1-01471-02261104051ADDMA1999999101711MD1310181+9999
0032994770999992005011805004+42467-082750FM-12+0180LSCM V0203301N010819999999N9999999N1-01551-02411104121ADDMA1999999101771MD1210201+9999
0032994770999992005011806004+42467-082750FM-12+0180LSCM V0203101N010319999999N9999999N1-01591-02411104121ADDMA1999999101771MD1110131+9999
0246994770999992005011807004+42467-082750FM-12+0180LSCM V0203101N010319999999N9999999N1-01641-02371104141ADDMA1999999101781MD1110091+9999OA139901131REMSYN194CMAN  18074 LSCM4 46/// /3120 11164 21237 30178 40414 51009 90700 333 91222 555 11019 22020 30639 432025 60659 316019 317020 313021 310020 312012 60649 194083 196085 197086 202082 195094 196087;
0246994770999992005011808004+42467-082750FM-12+0180LSCM V0203101N009319999999N9999999N1-01671-02341104141ADDMA1999999101791MD1410001+9999OA139900981REMSYN194CMAN  18084 LSCM4 46/// /3118 11167 21234 30179 40414 54000 90800 333 91219 555 11017 22018 30709 432022 60759 311017 314017 317016 318017 311910 60749 189064 189071 190072 188079 189080 190080;
0032994770999992005011809004+42467-082750FM-12+0180LSCM V0203201N007719999999N9999999N1-01661-02301104211ADDMA1999999101851MD1310091+9999
0240994770999992005011810004+42467-082750FM-12+0180LSCM V0203201N006719999999N9999999N1-01691-02281104191ADDMA1999999101841MD1210051+9999OA139900771REMSYN188CMAN  18104 LSCM4 46/// /3213 11169 21228 30184 40419 52005 91000 333 91215 555 11013 22014 30901 432017 60959 313013 314013 319013 318013 320949 191096 190099 194102 196099 195101 194099;
0032994770999992005011811004+42467-082750FM-12+0180LSCM V0203301N008219999999N9999999N1-01671-02251104251ADDMA1999999101891MD1110111+9999
0032994770999992005011812004+42467-082750FM-12+0180LSCM V0203101N006719999999N9999999N1-01691-02231104321ADDMA1999999101961MD1310111+9999
0240994770999992005011813004+42467-082750FM-12+0180LSCM V0203401N006219999999N9999999N1-01641-02191104331ADDMA1999999101981MD1110141+9999OA139900721REMSYN188CMAN  18134 LSCM4 46/// /3412 11164 21219 30198 40433 51014 91300 333 91214 555 11012 22012 31210 432015 61259 333012 327012 328012 324012 321249 011044 016046 022043 037040 040041 047041;
0228994770999992005011814004+42467-082750FM-12+0180LSCM V0203301N005719999999N9999999N1-01611-02221104391ADDMA1999999102031MD1110141+9999OA139900621REMSYN176CMAN  18144 LSCM4 46/// /3311 11161 21222 30203 40439 51014 91400 333 91212 555 11010 22011 31327 432015 61359 322011 321012 316013 324013 32130030 125030 132029 126034 123038;
0198994770999992005011815004+42467-082750FM-12+0180LSCM V0203101N003119999999N9999999N1-01481-02121104341ADDMA1999999101991MD1010001+9999OA139900311REMSYN146CMAN  18154 LSCM4 46/// /3106 11148 21212 30199 40434 50000 91500 333 91206 555 11005 22006 31414 433012 61459 319005 328006 330007 319009 313015;
0198994770999992005011816004+42467-082750FM-12+0180LSCM V0202301N002119999999N9999999N1-01371-02181104351ADDMA1999999102011MD1010001+9999OA139900261REMSYN146CMAN  18164 LSCM4 46/// /2304 11137 21218 30201 40435 50000 91600 333 91205 555 11004 22004 31533 427011 61559 245004 269007 276009 291006 307021;
0198994770999992005011817004+42467-082750FM-12+0180LSCM V0201901N004619999999N9999999N1-01281-02171104201ADDMA1999999101861MD1810191+9999OA139900511REMSYN146CMAN  18174 LSCM4 46/// /1909 11128 21217 30186 40420 58019 91700 333 91210 555 11008 22009 31658 420010 61659 192008 192007 187007 214006 191014;
0032994770999992005011818004+42467-082750FM-12+0180LSCM V0201701N007719999999N9999999N1-01201-02041103951ADDMA1999999101631MD1810391+9999
0198994770999992005011819004+42467-082750FM-12+0180LSCM V0202001N008219999999N9999999N1-01091-02011103891ADDMA1999999101581MD1610461+9999OA139900981REMSYN146CMAN  18194 LSCM4 46/// /2016 11109 21201 30158 40389 56046 91900 333 91219 555 11016 22017 31855 419021 61859 192017 183015 186016 190016 189016;
0032994770999992005011820004+42467-082750FM-12+0180LSCM V0202001N009319999999N9999999N1-01091-01971103821ADDMA1999999101511MD1610381+9999
0032994770999992005011821004+42467-082750FM-12+0180LSCM V0201901N009319999999N9999999N1-01091-01981103711ADDMA1999999101401MD1810241+9999
0032994770999992005011822004+42467-082750FM-12+0180LSCM V0201901N011319999999N9999999N1-01111-01941103571ADDMA1999999101261MD1810321+9999
0198994770999992005011823004+42467-082750FM-12+0180LSCM V0201901N011319999999N9999999N1-01111-01961103481ADDMA1999999101171MD1610341+9999OA139901241REMSYN146CMAN  18234 LSCM4 46/// /1922 11111 21196 30117 40348 56034 92300 333 91224 555 11021 22023 32234 420027 62259 190022 189023 192024 189023 188015;
0032994770999992005011900004+42467-082750FM-12+0180LSCM V0201901N012919999999N9999999N1-01081-01851103241ADDMA1999999100941MD1810471+9999
0032994770999992005011901004+42467-082750FM-12+0180LSCM V0201901N014919999999N9999999N1-01031-01851103121ADDMA1999999100821MD1810451+9999
0032994770999992005011902004+42467-082750FM-12+0180LSCM V0201901N014419999999N9999999N1-01031-01681102891ADDMA1999999100601MD1610591+9999
0032994770999992005011903004+42467-082750FM-12+0180LSCM V0201901N015919999999N9999999N1-00981-01671102711ADDMA1999999100421MD1810531+9999
0032994770999992005011904004+42467-082750FM-12+0180LSCM V0201901N015419999999N9999999N1-00921-01601102461ADDMA1999999100191MD1810661+9999
0240994770999992005011905004+42467-082750FM-12+0180LSCM V0201901N015419999999N9999999N1-00851-01521102241ADDMA1999999099981MD1810651+9999OA139901701REMSYN188CMAN  19054 LSCM4 46/// /1930 11085 21152 39998 40224 58065 90500 333 91233 555 11029 22031 30419 420036 60459 190030 190029 187030 189028 190449 094059 093060 089058 086056 084056 081056;
0204994770999992005011906004+42467-082750FM-12+0180LSCM V0202001N014419999999N9999999N1-00761-01441102161ADDMA1999999099891MD1610551+9999OA139901601REMSYN152CMAN  19064 LSCM4 46/// /2028 11076 21144 39989 40216 56055 90600 333 91231 555 11027 22029 30510 419034 60559 197027 194028 192029 187029 19 555 69965;
0032994770999992005011907004+42467-082750FM-12+0180LSCM V0201801N015419999999N9999999N1-00861+99999101881ADDMA1999999099621MD1810581+9999
0198994770999992005011908004+42467-082750FM-12+0180LSCM V0201901N015919999999N9999999N1-00821-01031101641ADDMA1999999099381MD1810601+9999OA139901751REMSYN146CMAN  19084 LSCM4 46/// /1931 11082 21103 39938 40164 58060 90800 333 91234 555 11030 22032 30737 419036 60759 187031 187031 188029 187028 188013;
0198994770999992005011909004+42467-082750FM-12+0180LSCM V0202001N016419999999N9999999N1-00761-00981101431ADDMA1999999099191MD1610731+9999OA139901851REMSYN146CMAN  19094 LSCM4 46/// /2032 11076 21098 39919 40143 56073 90900 333 91236 555 11031 22033 30855 419037 60859 193033 192031 192031 190032 187013;
0032994770999992005011910004+42467-082750FM-12+0180LSCM V0202001N015419999999N9999999N1-00721-00921101251ADDMA1999999099011MD1610631+9999
0032994770999992005011911004+42467-082750FM-12+0180LSCM V0202101N013419999999N9999999N1-00651-00861101111ADDMA1999999098881MD1610531+9999
0032994770999992005011912004+42467-082750FM-12+0180LSCM V0202101N012919999999N9999999N1-00591-00751101011ADDMA1999999098791MD1610421+9999
0198994770999992005011913004+42467-082750FM-12+0180LSCM V0202201N012919999999N9999999N1-00531-00701100961ADDMA1999999098741MD1610291+9999OA139901441REMSYN146CMAN  19134 LSCM4 46/// /2225 11053 21070 39874 40096 56029 91300 333 91228 555 11024 22026 31217 421029 61259 214024 213025 213025 213025 214012;
0032994770999992005011914004+42467-082750FM-12+0180LSCM V0202201N010819999999N9999999N1-00461-00601100951ADDMA1999999098731MD1610161+9999
0198994770999992005011915004+42467-082750FM-12+0180LSCM V0202201N010819999999N9999999N1-00391-00551100951ADDMA1999999098731MD1610061+9999OA139901131REMSYN146CMAN  19154 LSCM4 46/// /2221 11039 21055 39873 40095 56006 91500 333 91222 555 11020 22022 31405 422025 61459 221020 220021 219021 218021 210011;
0032994770999992005011916004+42467-082750FM-12+0180LSCM V0202401N009319999999N9999999N1-00291-00501100991ADDMA1999999098771MD1310031+9999
0032994770999992005011917004+42467-082750FM-12+0180LSCM V0202601N010319999999N9999999N1-00181-00461101001ADDMA1999999098791MD1210051+9999
0198994770999992005011918004+42467-082750FM-12+0180LSCM V0202901N012319999999N9999999N1-00141-00591101011ADDMA1999999098811MD1110061+9999OA139901391REMSYN146CMAN  19184 LSCM4 46/// /2924 11014 21059 39881 40101 51006 91800 333 91227 555 11024 22025 31754 429027 61759 287023 277021 277020 270021 260016;
0032994770999992005011919004+42467-082750FM-12+0180LSCM V0203001N011319999999N9999999N1-00111-00711101061ADDMA1999999098861MD1310071+9999
0198994770999992005011920004+42467-082750FM-12+0180LSCM V0203001N011319999999N9999999N1-00081-00771101151ADDMA1999999098941MD1310151+9999OA139901241REMSYN146CMAN  19204 LSCM4 46/// /3022 11008 21077 39894 40115 53015 92000 333 91224 555 11021 22023 31914 431026 61959 302021 305022 306019 302019 308014;
0240994770999992005011921004+42467-082750FM-12+0180LSCM V0203001N011819999999N9999999N1-00111-00711101241ADDMA1999999099031MD1310231+9999OA139901241REMSYN188CMAN  19214 LSCM4 46/// /3023 11011 21071 39903 40124 53023 92100 333 91224 555 11022 22024 32008 431028 62059 295022 296018 303019 302024 302049 135038 137034 137030 135032 131030 130029;
0198994770999992005011922004+42467-082750FM-12+0180LSCM V0203101N012919999999N9999999N1-00141-00711101361ADDMA1999999099151MD1310301+9999OA139901391REMSYN146CMAN  19224 LSCM4 46/// /3125 11014 21071 39915 40136 53030 92200 333 91227 555 11024 22025 32157 430028 62159 302025 302022 300022 300020 302015;
0198994770999992005011923004+42467-082750FM-12+0180LSCM V0202901N007219999999N9999999N1-00201-00531101511ADDMA1999999099291MD1310361+9999OA139900821REMSYN146CMAN  19234 LSCM4 46/// /2914 11020 21053 39929 40151 53036 92300 333 91216 555 11013 22014 32200 431026 62259 283016 287018 292020 294020 290017;
0198994770999992005012000004+42467-082750FM-12+0180LSCM V0203001N006719999999N9999999N1-00191-00631101611ADDMA1999999099391MD1110371+9999OA139900771REMSYN146CMAN  20004 LSCM4 46/// /3013 11019 21063 39939 40161 51037 90000 333 91215 555 11013 22013 32311 429024 62359 305015 297017 292016 290017 289016;
0198994770999992005012001004+42467-082750FM-12+0180LSCM V0203101N013919999999N9999999N1-00301-00871101711ADDMA1999999099481MD1110351+9999OA139901491REMSYN146CMAN  20014 LSCM4 46/// /3127 11030 21087 39948 40171 51035 90100 333 91229 555 11026 22028 30058 431029 60059 309025 304025 307023 309023 316016;
0032994770999992005012002004+42467-082750FM-12+0180LSCM V0203201N011319999999N9999999N1-00351-00921101771ADDMA1999999099541MD1110261+9999
0198994770999992005012003004+42467-082750FM-12+0180LSCM V0203301N012919999999N9999999N1-00501-01101101901ADDMA1999999099661MD1310291+9999OA139901391REMSYN146CMAN  20034 LSCM4 46/// /3325 11050 21110 39966 40190 53029 90300 333 91227 555 11024 22025 30225 433030 60259 332025 324023 323026 328025 337018;
0018994770999992005012004004+42467-082750FM-12+0180LSCM V0203201N009319999999N9999999N1-00561-01231101971ADDMA1999999099731
0234994770999992005012005004+42467-082750FM-12+0180LSCM V0203301N008219999999N9999999N1-00621-01181102011ADDMA1999999099761MD1110241+9999OA139900931REMSYN182CMAN  20054 LSCM4 46/// /3316 11062 21118 39976 40201 51024 90500 333 91218 555 11016 22017 30416 432022 60459 324018 323018 322018 323019 3230038 319038 319040 309039 296039 296042;
0198994770999992005012006004+42467-082750FM-12+0180LSCM V0203501N008719999999N9999999N1-00681-01201102011ADDMA1999999099751MD1110111+9999OA139900931REMSYN146CMAN  20064 LSCM4 46/// /3517 11068 21120 39975 40201 51011 90600 333 91218 555 11016 22017 30542 436022 60559 352018 353020 343017 336016 329028;
0251994770999992005012007004+42467-082750FM-12+0180LSCM V0203401N007219999999N9999999N1-00791-01321102131ADDMA1999999099861MD1210161+9999OA139900771REMSYN199CMAN  20074 LSCM4 46/// /3414 11079 21132 39986 40213 52016 90700 333 91215 555 11014 22015 30616 435023 60659 346016 341016 338016 346017 34630 41408 60649 154069 150068 143063 156064 168065 174068;
0184994770999992005012008004+42467-082750FM-12+0180LSCM V0203201N007719999999N9999999N1-00861-01351102181ADDMA1999999099911OA139900821REMSYN146CMAN  20084 LSCM4 46/// /3215 11086 21135 39991 40218 90800 333 91216 555 11015 22015 30737 434018 60759 325015 331014 335015 331015 32028 051026;
0198994770999992005012009004+42467-082750FM-12+0180LSCM V0203201N008219999999N9999999N1-00891-01381102141ADDMA1999999099871MD1010131+9999OA139900881REMSYN146CMAN  20094 LSCM4 46/// /3216 11089 21138 39987 40214 50013 90900 333 91217 555 11016 22017 30838 432019 60859 315016 320016 321015 323014 320028;
0198994770999992005012010004+42467-082750FM-12+0180LSCM V0203101N007719999999N9999999N1-00881-01391102141ADDMA1999999099871MD1010001+9999OA139900881REMSYN146CMAN  20104 LSCM4 46/// /3115 11088 21139 39987 40214 50000 91000 333 91217 555 11014 22015 30908 432021 60959 313015 315015 319015 318016 318019;
0198994770999992005012011004+42467-082750FM-12+0180LSCM V0203301N007719999999N9999999N1-00891-01361102121ADDMA1999999099851MD1610061+9999OA139900821REMSYN146CMAN  20114 LSCM4 46/// /3315 11089 21136 39985 40212 56006 91100 333 91216 555 11014 22015 31002 431017 61059 329014 328013 327014 321014 310029;
0198994770999992005012012004+42467-082750FM-12+0180LSCM V0203401N007719999999N9999999N1-00911-01361102141ADDMA1999999099871MD1410001+9999OA139900821REMSYN146CMAN  20124 LSCM4 46/// /3415 11091 21136 39987 40214 54000 91200 333 91216 555 11014 22015 31154 434016 61159 338014 339014 334014 334014 322030;
0198994770999992005012013004+42467-082750FM-12+0180LSCM V0203401N007719999999N9999999N1-00921-01351102161ADDMA1999999099891MD1410001+9999OA139900821REMSYN146CMAN  20134 LSCM4 46/// /3415 11092 21135 39989 40216 54000 91300 333 91216 555 11014 22015 31214 434017 61259 340015 340014 337014 338014 338029;
0198994770999992005012014004+42467-082750FM-12+0180LSCM V0203501N006719999999N9999999N1-00921-01331102121ADDMA1999999099851MD1010001+9999OA139900721REMSYN146CMAN  20144 LSCM4 46/// /3513 11092 21133 39985 40212 50000 91400 333 91214 555 11013 22014 31309 434017 61359 347013 347014 347014 346014 348030;
0240994770999992005012015004+42467-082750FM-12+0180LSCM V0203501N007219999999N9999999N1-00891-01281102171ADDMA1999999099901MD1310031+9999OA139900771REMSYN188CMAN  20154 LSCM4 46/// /3514 11089 21128 39990 40217 53003 91500 333 91215 555 11013 22014 31403 434016 61459 357014 356012 354013 350013 349909 100103 102102 102104 101099 102096 103110;
0198994770999992005012016004+42467-082750FM-12+0180LSCM V0200101N006219999999N9999999N1-00891-01261102181ADDMA1999999099911MD1510001+9999OA139900671REMSYN146CMAN  20164 LSCM4 46/// /0112 11089 21126 39991 40218 55000 91600 333 91213 555 11012 22012 31524 436017 61559 008013 011013 009014 006015 007029;
0198994770999992005012017004+42467-082750FM-12+0180LSCM V0200101N004619999999N9999999N1-00861-01241102161ADDMA1999999099891MD1110041+9999OA139900511REMSYN146CMAN  20174 LSCM4 46/// /0109 11086 21124 39989 40216 51004 91700 333 91210 555 11008 22009 31613 401016 61659 015010 011011 011012 017013 008023;
0032994770999992005012019004+42467-082750FM-12+0180LSCM V0200701N004119999999N9999999N1-00831-01131102061ADDMA1999999099791MD1710121+9999
0198994770999992005012020004+42467-082750FM-12+0180LSCM V0200801N004619999999N9999999N1-00831-01141102021ADDMA1999999099761MD1610141+9999OA139900511REMSYN146CMAN  20204 LSCM4 46/// /0809 11083 21114 39976 40202 56014 92000 333 91210 555 11009 22010 31957 407011 61959 071009 064009 062009 060008 052018;
0032994770999992005012021004+42467-082750FM-12+0180LSCM V0200701N006219999999N9999999N1-00901-01251102011ADDMA1999999099741MD1710071+9999
0032994770999992005012022004+42467-082750FM-12+0180LSCM V0200501N007219999999N9999999N1-00931-01321102061ADDMA1999999099791MD1510001+9999
0032994770999992005012023004+42467-082750FM-12+0180LSCM V0200501N007219999999N9999999N1-00971-01421102121ADDMA1999999099851MD1310101+9999
0198994770999992005012100004+42467-082750FM-12+0180LSCM V0200601N005119999999N9999999N1-01021-01561102201ADDMA1999999099921MD1310191+9999OA139900621REMSYN146CMAN  21004 LSCM4 46/// /0610 11102 21156 39992 40220 53019 90000 333 91212 555 11010 22011 32306 405016 62359 061010 062011 057012 057012 058020;
0032994770999992005012101004+42467-082750FM-12+0180LSCM V0200601N004619999999N9999999N1-01041-01601102241ADDMA1999999099961MD1110181+9999
0032994770999992005012102004+42467-082750FM-12+0180LSCM V0200501N003619999999N9999999N1-01041-01661102261ADDMA1999999099981MD1110141+9999
0197994770999992005012103004+42467-082750FM-12+0180LSCM V0200401N005719999999N9999999N1-01061-01741102301ADDMA1999999100021MD1210101+9999OA139900671REMSYN145CMAN  21034 LSCM4 46/// /0411 11106 21174 30002 40230 52010 90300 333 91213 555 11011 22012 30253 405015 60259 047012 040010 043010 040009 04016;
0032994770999992005012104004+42467-082750FM-12+0180LSCM V0200401N007719999999N9999999N1-01071-01811102341ADDMA1999999100061MD1310101+9999
0198994770999992005012105004+42467-082750FM-12+0180LSCM V0200401N006219999999N9999999N1-01101-01951102381ADDMA1999999100091MD1210121+9999OA139900721REMSYN146CMAN  21054 LSCM4 46/// /0412 11110 21195 30009 40238 52012 90500 333 91214 555 11012 22012 30400 404017 60459 040013 040013 047012 042012 033017;
0032994770999992005012106004+42467-082750FM-12+0180LSCM V0200401N006219999999N9999999N1-01131-02081102421ADDMA1999999100131MD1210121+9999
0198994770999992005012107004+42467-082750FM-12+0180LSCM V0200401N006719999999N9999999N1-01201-02111102401ADDMA1999999100111MD1110061+9999OA139900721REMSYN146CMAN  21074 LSCM4 46/// /0413 11120 21211 30011 40240 51006 90700 333 91214 555 11012 22013 30643 405016 60659 045013 046014 049012 042011 045019;
0198994770999992005012108004+42467-082750FM-12+0180LSCM V0200501N006219999999N9999999N1-01271-01981102511ADDMA1999999100211MD1310131+9999OA139900721REMSYN146CMAN  21084 LSCM4 46/// /0512 11127 21198 30021 40251 53013 90800 333 91214 555 11012 22013 30709 404015 60759 045012 043012 040012 040013 042021;
0240994770999992005012109004+42467-082750FM-12+0180LSCM V0200501N007219999999N9999999N1-01331-01881102511ADDMA1999999100211MD1210091+9999OA139900771REMSYN188CMAN  21094 LSCM4 46/// /0514 11133 21188 30021 40251 52009 90900 333 91215 555 11013 22014 30818 405015 60859 046014 045013 045013 048013 040849 096061 098064 095062 092064 102066 099061;
0198994770999992005012110004+42467-082750FM-12+0180LSCM V0200501N007219999999N9999999N1-01391-01911102581ADDMA1999999100271MD1110181+9999OA139900821REMSYN146CMAN  21104 LSCM4 46/// /0514 11139 21191 30027 40258 51018 91000 333 91216 555 11014 22015 30908 404016 60959 048013 044013 045013 047013 046020;
0032994770999992005012111004+42467-082750FM-12+0180LSCM V0200501N005719999999N9999999N1-01451-01981102661ADDMA1999999100351MD1310151+9999
0032994770999992005012112004+42467-082750FM-12+0180LSCM V0200501N005719999999N9999999N1-01491-02031102771ADDMA1999999100451MD1310261+9999
0198994770999992005012113004+42467-082750FM-12+0180LSCM V0200701N007219999999N9999999N1-01581-02071102811ADDMA1999999100491MD1110231+9999OA139900821REMSYN146CMAN  21134 LSCM4 46/// /0714 11158 21207 30049 40281 51023 91300 333 91216 555 11013 22014 31258 407016 61259 063013 059013 059012 059011 052023;
0032994770999992005012114004+42467-082750FM-12+0180LSCM V0200801N006219999999N9999999N1-01631-02111102871ADDMA1999999100551MD1110211+9999
0032994770999992005012115004+42467-082750FM-12+0180LSCM V0200601N004119999999N9999999N1-01571-02141103001ADDMA1999999100671MD1310231+9999
0032994770999992005012116004+42467-082750FM-12+0180LSCM V0200801N004619999999N9999999N1-01521-02151103041ADDMA1999999100721MD1110231+9999
0198994770999992005012117004+42467-082750FM-12+0180LSCM V0200401N004619999999N9999999N1-01441-02271102991ADDMA1999999100671MD1010121+9999OA139900671REMSYN146CMAN  21174 LSCM4 46/// /0409 11144 21227 30067 40299 50012 91700 333 91213 555 11009 22009 31643 406013 61659 050009 059011 065010 070008 062031;
0252994770999992005012118004+42467-082750FM-12+0180LSCM V0200401N004619999999N9999999N1-01351-02251102911ADDMA1999999100601MD1810091+9999OA139900571REMSYN200CMAN  21184 LSCM4 46/// /0409 11135 21225 30060 40291 58009 91800 333 91211 555 11008 22009 31700 404013 61759 042008 046009 050010 046009 04 69902 878// 91750 333 10049 55300 20000 81820 83635 86650;
0032994770999992005012119004+42467-082750FM-12+0180LSCM V0200901N002619999999N9999999N1-01331-02231102851ADDMA1999999100541MD1810191+9999
0198994770999992005012120004+42467-082750FM-12+0180LSCM V0201001N002119999999N9999999N1-01291-02161102821ADDMA1999999100511MD1610171+9999OA139900311REMSYN146CMAN  21204 LSCM4 46/// /1004 11129 21216 30051 40282 56017 92000 333 91206 555 11004 22004 31931 410007 61959 091004 096005 085004 095005 104032;
0032994770999992005012121004+42467-082750FM-12+0180LSCM V0200701N003619999999N9999999N1-01291-02181102751ADDMA1999999100451MD1810161+9999
0198994770999992005012122004+42467-082750FM-12+0180LSCM V0200901N004119999999N9999999N1-01351-02211102721ADDMA1999999100411MD1710131+9999OA139900461REMSYN146CMAN  21224 LSCM4 46/// /0908 11135 21221 30041 40272 57013 92200 333 91209 555 11008 22008 32126 408010 62159 087009 088008 084008 080009 078027;
0032994770999992005012123004+42467-082750FM-12+0180LSCM V0200901N004619999999N9999999N1-01421-02181102691ADDMA1999999100381MD1610131+9999
0032994770999992005012200004+42467-082750FM-12+0180LSCM V0200701N004619999999N9999999N1-01451-02191102691ADDMA1999999100381MD1610061+9999
0224994770999992005012201004+42467-082750FM-12+0180LSCM V0200601N012019999999N9999999N1-01441-02191102581ADDMA1999999100271MD1810141+9999OA139999999REMSYN153CMTI   46// LSCM4 46/// /0612 11144 21219 30027 40258 58014 90100 333 91214 555 11012 22013 30058 406014 60059 060012 062011 065010 071009 073009 074009;EQDQ01  00722WGOSPD
0198994770999992005012202004+42467-082750FM-12+0180LSCM V0200701N007219999999N9999999N1-01451-02241102471ADDMA1999999100161MD1810221+9999OA139900821REMSYN146CMAN  22024 LSCM4 46/// /0714 11145 21224 30016 40247 58022 90200 333 91216 555 11014 22015 30100 407016 60159 066014 066013 065011 063011 062028;
0198994770999992005012203004+42467-082750FM-12+0180LSCM V0200701N007219999999N9999999N1-01451-02031102341ADDMA1999999100041MD1810351+9999OA139900821REMSYN146CMAN  22034 LSCM4 46/// /0714 11145 21203 30004 40234 58035 90300 333 91216 555 11014 22015 30227 407017 60259 070014 070014 072015 071015 063029;
0032994770999992005012204004+42467-082750FM-12+0180LSCM V0200701N007719999999N9999999N1-01461-01901102231ADDMA1999999099931MD1710351+9999
0198994770999992005012205004+42467-082750FM-12+0180LSCM V0200701N009319999999N9999999N1-01351-01671102061ADDMA1999999099771MD1810411+9999OA139900981REMSYN146CMAN  22054 LSCM4 46/// /0718 11135 21167 39977 40206 58041 90500 333 91219 555 11017 22019 30453 407020 60459 072018 072016 072016 071016 077019;
0198994770999992005012206004+42467-082750FM-12+0180LSCM V0200801N010319999999N9999999N1-01271-01541101881ADDMA1999999099601MD1810461+9999OA139901081REMSYN146CMAN  22064 LSCM4 46/// /0820 11127 21154 39960 40188 58046 90600 333 91221 555 11019 22021 30523 407025 60559 079019 077020 075021 074022 071026;
