0078997262999992005010100004+46533-087367FM-18+0197MCGM V0202701N002119999999N9999999N1-00301+99999101691REMSYN069CMAN  01004 MCGM4 46/// /2704 11030 40169 90006 222// 0003 333 91213;
0078997262999992005010103004+46533-087367FM-18+0197MCGM V0203101N004619999999N9999999N1-00661+99999102321REMSYN069CMAN  01034 MCGM4 46/// /3109 11066 40232 9030 222// 00037 333 91209;
0078997262999992005010104004+46533-087367FM-18+0197MCGM V0203001N003619999999N9999999N1-00691+99999102451REMSYN069CMAN  01044 MCGM4 46/// /3007 11069 40245 9040 222// 00037 333 91210;
0067997262999992005010105004+46533-087367FM-18+0197MCGM V0202901N006019999999N9999999N1-00711+99999102631REMSYN058CMTI   46// MCGM4 46/// /2906 11071 40263 90554 333 91211;
0090997262999992005010106004+46533-087367FM-18+0197MCGM V0202901N006019999999N9999999N1-00711+99999102651ADDMD1210331+9999REMSYN064CMTI   46// MCGM4 46/// /2906 11071 40265 52033 90600 333 91212;
0090997262999992005010107004+46533-087367FM-18+0197MCGM V0203001N006019999999N9999999N1-00651+99999102741ADDMD1210291+9999REMSYN064CMTI   46// MCGM4 46/// /3006 11065 40274 52029 90700 333 91210;
0067997262999992005010108004+46533-087367FM-18+0197MCGM V0203401N012019999999N9999999N1-00441+99999102911REMSYN058CMTI   46// MCGM4 46/// /3412 11044 40291 90800 333 91219;
0090997262999992005010109004+46533-087367FM-18+0197MCGM V0203401N013019999999N9999999N1-00481+99999102961ADDMD1110311+9999REMSYN064CMTI   46// MCGM4 46/// /3413 11048 40296 51031 90900 333 91221;
0090997262999992005010110004+46533-087367FM-18+0197MCGM V0203401N013019999999N9999999N1-00491+99999103071ADDMD1110331+9999REMSYN064CMTI   46// MCGM4 46/// /3413 11049 40307 51033 91000 333 91218;
0090997262999992005010111004+46533-087367FM-18+0197MCGM V0203401N007019999999N9999999N1-00521+99999103311ADDMD1310401+9999REMSYN064CMTI   46// MCGM4 46/// /3407 11052 40331 53040 91100 333 91216;
0090997262999992005010112004+46533-087367FM-18+0197MCGM V0203501N003019999999N9999999N1-00521+99999103351ADDMD1110391+9999REMSYN064CMTI   46// MCGM4 46/// /3503 11052 40335 51039 91200 333 91211;
0090997262999992005010113004+46533-087367FM-18+0197MCGM V0203401N008019999999N9999999N1-00541+99999103451ADDMD1110381+9999REMSYN064CMTI   46// MCGM4 46/// /3408 11054 40345 51038 91300 333 91213;
0090997262999992005010114004+46533-087367FM-18+0197MCGM V0203501N006019999999N9999999N1-00571+99999103521ADDMD1310211+9999REMSYN064CMTI   46// MCGM4 46/// /3506 11057 40352 53021 91400 333 91209;
0090997262999992005010115004+46533-087367FM-18+0197MCGM V0203501N005019999999N9999999N1-00541+99999103571ADDMD1110221+9999REMSYN064CMTI   46// MCGM4 46/// /3505 11054 40357 51022 91500 333 91210;
0090997262999992005010116004+46533-087367FM-18+0197MCGM V0200401N009019999999N9999999N1-00521+99999103701ADDMD1310251+9999REMSYN064CMTI   46// MCGM4 46/// /0409 11052 40370 53025 91600 333 91211;
0090997262999992005010117004+46533-087367FM-18+0197MCGM V0200401N004019999999N9999999N1-00511+99999103701ADDMD1110181+9999REMSYN064CMTI   46// MCGM4 46/// /0404 11051 40370 51018 91700 333 91210;
0067997262999992005010118004+46533-087367FM-18+0197MCGM V0200501N007019999999N9999999N1-00491+99999103591REMSYN058CMTI   46// MCGM4 46/// /0507 11049 40359 91824 333 91210;
0101997262999992005010119004+46533-087367FM-18+0197MCGM V0200701N004619999999N9999999N1-00491+99999103601ADDMD1710101+9999REMSYN075CMAN  01194 MCGM4 46/// /0709 11049 40360 57010 91900 222// 0003 333 91211;
0067997262999992005010121004+46533-087367FM-18+0197MCGM V0200501N007019999999N9999999N1-00491+99999103591REMSYN058CMTI   46// MCGM4 46/// /0507 11049 40359 92106 333 91212;
0078997262999992005010201004+46533-087367FM-18+0197MCGM V0201001N004119999999N9999999N1-00431+99999103211REMSYN069CMAN  02014 MCGM4 46/// /1008 11043 40321 9010 222// 00036 333 91221;
0078997262999992005010202004+46533-087367FM-18+0197MCGM V0201001N006719999999N9999999N1-00601+99999103041REMSYN069CMAN  02024 MCGM4 46/// /1013 11060 40304 90200 222// 0003 333 91211;
0078997262999992005010203004+46533-087367FM-18+0197MCGM V0201101N006219999999N9999999N1-00581+99999102931REMSYN069CMAN  02034 MCGM4 46/// /1112 11058 40293 90300 222// 0003 333 91207;
0101997262999992005010204004+46533-087367FM-18+0197MCGM V0201201N006719999999N9999999N1-00541+99999102731ADDMD1810481+9999REMSYN075CMAN  02044 MCGM4 46/// /1213 11054 40273 58048 90400 222// 0003 333 91212;
0101997262999992005010205004+46533-087367FM-18+0197MCGM V0201201N005119999999N9999999N1-00451+99999102561ADDMD1810481+9999REMSYN075CMAN  02054 MCGM4 46/// /1210 11045 40256 58048 90500 222// 0003 333 91217;
0101997262999992005010206004+46533-087367FM-18+0197MCGM V0201201N006219999999N9999999N1-00331+99999102321ADDMD1810611+9999REMSYN075CMAN  02064 MCGM4 46/// /1212 11033 40232 58061 9060 222// 00039 333 91215;
0067997262999992005010208004+46533-087367FM-18+0197MCGM V0201101N007019999999N9999999N1-00191+99999102131REMSYN058CMTI   46// MCGM4 46/// /1107 11019 40213 90824 333 91208;
0090997262999992005010209004+46533-087367FM-18+0197MCGM V0201201N007019999999N9999999N1-00181+99999102111ADDMD1710211+9999REMSYN064CMTI   46// MCGM4 46/// /1207 11018 40211 57021 90900 333 91208;
0067997262999992005010210004+46533-087367FM-18+0197MCGM V0201101N006019999999N9999999N1-00151+99999101981REMSYN058CMTI   46// MCGM4 46/// /1106 11015 40198 91000 333 91208;
0067997262999992005010211004+46533-087367FM-18+0197MCGM V0201501N006019999999N9999999N1-00171+99999101891REMSYN058CMTI   46// MCGM4 46/// /1506 11017 40189 91100 333 91207;
0090997262999992005010212004+46533-087367FM-18+0197MCGM V0201801N004019999999N9999999N1-00191+99999101801ADDMD1610311+9999REMSYN064CMTI   46// MCGM4 46/// /1804 11019 40180 56031 91200 333 91206;
0090997262999992005010213004+46533-087367FM-18+0197MCGM V0201901N005019999999N9999999N1-00071+99999101831ADDMD1510151+9999REMSYN064CMTI   46// MCGM4 46/// /1905 11007 40183 55015 91300 333 91210;
0090997262999992005010214004+46533-087367FM-18+0197MCGM V0202001N002019999999N9999999N1-00031+99999101891ADDMD1510001+9999REMSYN064CMTI   46// MCGM4 46/// /2002 11003 40189 55000 91400 333 91205;
0090997262999992005010215004+46533-087367FM-18+0197MCGM V0209999C000019999999N9999999N1+00011+99999101881ADDMD1110081+9999REMSYN064CMTI   46// MCGM4 46/// /0000 10001 40188 51008 91500 333 91205;
0090997262999992005010216004+46533-087367FM-18+0197MCGM V0202701N002019999999N9999999N1+00111+99999101941ADDMD1210111+9999REMSYN064CMTI   46// MCGM4 46/// /2702 10011 40194 52011 91600 333 91204;
0090997262999992005010217004+46533-087367FM-18+0197MCGM V0202501N004019999999N9999999N1+00061+99999101961ADDMD1210071+9999REMSYN064CMTI   46// MCGM4 46/// /2504 10006 40196 52007 91700 333 91210;
0090997262999992005010218004+46533-087367FM-18+0197MCGM V0202901N006019999999N9999999N1+00011+99999101981ADDMD1110101+9999REMSYN064CMTI   46// MCGM4 46/// /2906 10001 40198 51010 91800 333 91210;
0090997262999992005010219004+46533-087367FM-18+0197MCGM V0202701N004019999999N9999999N1-00021+99999101991ADDMD1210051+9999REMSYN064CMTI   46// MCGM4 46/// /2704 11002 40199 52005 91900 333 91208;
0067997262999992005010220004+46533-087367FM-18+0197MCGM V0202501N004019999999N9999999N1+00051+99999102011REMSYN058CMTI   46// MCGM4 46/// /2504 10005 40201 92006 333 91208;
0067997262999992005010221004+46533-087367FM-18+0197MCGM V0202701N002019999999N9999999N1+00051+99999102111REMSYN058CMTI   46// MCGM4 46/// /2702 10005 40211 92124 333 91205;
0078997262999992005010223004+46533-087367FM-18+0197MCGM V0202201N000519999999N9999999N1-00071+99999102231REMSYN069CMAN  02234 MCGM4 46/// /2201 11007 40223 92300 222// 0003 333 91210;
0067997262999992005010301004+46533-087367FM-18+0197MCGM V0209999C000019999999N9999999N1-00271+99999102431REMSYN058CMTI   46// MCGM4 46/// /0000 11027 40243 90130 333 91201;
0090997262999992005010302004+46533-087367FM-18+0197MCGM V0202401N003019999999N9999999N1-00291+99999102491ADDMD1210261+9999REMSYN064CMTI   46// MCGM4 46/// /2403 11029 40249 52026 90200 333 91206;
0067997262999992005010303004+46533-087367FM-18+0197MCGM V0202901N001019999999N9999999N1-00391+99999102521REMSYN058CMTI   46// MCGM4 46/// /2901 11039 40252 90300 333 91208;
0067997262999992005010304004+46533-087367FM-18+0197MCGM V0202901N002019999999N9999999N1-00501+99999102621REMSYN058CMTI   46// MCGM4 46/// /2902 11050 40262 90400 333 91205;
0090997262999992005010305004+46533-087367FM-18+0197MCGM V0202801N003019999999N9999999N1-00601+99999102721ADDMD1310231+9999REMSYN064CMTI   46// MCGM4 46/// /2803 11060 40272 53023 90500 333 91210;
0090997262999992005010306004+46533-087367FM-18+0197MCGM V0209999C000019999999N9999999N1-00671+99999102721ADDMD1110201+9999REMSYN064CMTI   46// MCGM4 46/// /0000 11067 40272 51020 90600 333 91202;
0090997262999992005010307004+46533-087367FM-18+0197MCGM V0202301N002019999999N9999999N1-00701+99999102751ADDMD1110131+9999REMSYN064CMTI   46// MCGM4 46/// /2302 11070 40275 51013 90700 333 91204;
0090997262999992005010308004+46533-087367FM-18+0197MCGM V0202801N001019999999N9999999N1-00731+99999102761ADDMD1210041+9999REMSYN064CMTI   46// MCGM4 46/// /2801 11073 40276 52004 90800 333 91203;
0090997262999992005010309004+46533-087367FM-18+0197MCGM V0203001N006019999999N9999999N1-00701+99999102791ADDMD1210071+9999REMSYN064CMTI   46// MCGM4 46/// /3006 11070 40279 52007 90900 333 91208;
0090997262999992005010310004+46533-087367FM-18+0197MCGM V0203001N006019999999N9999999N1-00701+99999102761ADDMD1010001+9999REMSYN064CMTI   46// MCGM4 46/// /3006 11070 40276 50000 91000 333 91212;
0090997262999992005010311004+46533-087367FM-18+0197MCGM V0202601N002019999999N9999999N1-00701+99999102821ADDMD1310061+9999REMSYN064CMTI   46// MCGM4 46/// /2602 11070 40282 53006 91100 333 91205;
0090997262999992005010312004+46533-087367FM-18+0197MCGM V0202501N002019999999N9999999N1-00701+99999102801ADDMD1510001+9999REMSYN064CMTI   46// MCGM4 46/// /2502 11070 40280 55000 91200 333 91206;
0090997262999992005010313004+46533-087367FM-18+0197MCGM V0202401N004019999999N9999999N1-00701+99999102871ADDMD1310111+9999REMSYN064CMTI   46// MCGM4 46/// /2404 11070 40287 53011 91300 333 91206;
0090997262999992005010314004+46533-087367FM-18+0197MCGM V0203001N002019999999N9999999N1-00731+99999102881ADDMD1210061+9999REMSYN064CMTI   46// MCGM4 46/// /3002 11073 40288 52006 91400 333 91204;
0090997262999992005010315004+46533-087367FM-18+0197MCGM V0202601N004019999999N9999999N1-00731+99999102941ADDMD1110141+9999REMSYN064CMTI   46// MCGM4 46/// /2604 11073 40294 51014 91500 333 91206;
0090997262999992005010316004+46533-087367FM-18+0197MCGM V0202501N003019999999N9999999N1-00711+99999102951ADDMD1210081+9999REMSYN064CMTI   46// MCGM4 46/// /2503 11071 40295 52008 91600 333 91206;
0090997262999992005010317004+46533-087367FM-18+0197MCGM V0202401N004019999999N9999999N1-00671+99999102871ADDMD1010001+9999REMSYN064CMTI   46// MCGM4 46/// /2404 11067 40287 50000 91700 333 91208;
0090997262999992005010318004+46533-087367FM-18+0197MCGM V0203301N003019999999N9999999N1-00601+99999102851ADDMD1710091+9999REMSYN064CMTI   46// MCGM4 46/// /3303 11060 40285 57009 91800 333 91207;
0090997262999992005010319004+46533-087367FM-18+0197MCGM V0203101N005019999999N9999999N1-00621+99999102841ADDMD1610111+9999REMSYN064CMTI   46// MCGM4 46/// /3105 11062 40284 56011 91900 333 91208;
0090997262999992005010320004+46533-087367FM-18+0197MCGM V0203101N003019999999N9999999N1-00611+99999102791ADDMD1810081+9999REMSYN064CMTI   46// MCGM4 46/// /3103 11061 40279 58008 92000 333 91207;
0090997262999992005010321004+46533-087367FM-18+0197MCGM V0203201N005019999999N9999999N1-00721+99999102801ADDMD1710051+9999REMSYN064CMTI   46// MCGM4 46/// /3205 11072 40280 57005 92100 333 91208;
0090997262999992005010322004+46533-087367FM-18+0197MCGM V0203001N004019999999N9999999N1-00771+99999102841ADDMD1510001+9999REMSYN064CMTI   46// MCGM4 46/// /3004 11077 40284 55000 92200 333 91207;
0090997262999992005010323004+46533-087367FM-18+0197MCGM V0202801N004019999999N9999999N1-00811+99999102861ADDMD1210071+9999REMSYN064CMTI   46// MCGM4 46/// /2804 11081 40286 52007 92300 333 91206;
0090997262999992005010400004+46533-087367FM-18+0197MCGM V0202601N004019999999N9999999N1-00861+99999102871ADDMD1110071+9999REMSYN064CMTI   46// MCGM4 46/// /2604 11086 40287 51007 90000 333 91209;
0067997262999992005010402004+46533-087367FM-18+0197MCGM V0202301N004019999999N9999999N1-00871+99999102891REMSYN058CMTI   46// MCGM4 46/// /2304 11087 40289 90206 333 91208;
0090997262999992005010403004+46533-087367FM-18+0197MCGM V0202401N003019999999N9999999N1-00871+99999102911ADDMD1210041+9999REMSYN064CMTI   46// MCGM4 46/// /2403 11087 40291 52004 90300 333 91206;
0067997262999992005010404004+46533-087367FM-18+0197MCGM V0202301N004019999999N9999999N1-00861+99999102861REMSYN058CMTI   46// MCGM4 46/// /2304 11086 40286 90400 333 91208;
0067997262999992005010405004+46533-087367FM-18+0197MCGM V0209999C000019999999N9999999N1-00861+99999102871REMSYN058CMTI   46// MCGM4 46/// /0000 11086 40287 90500 333 91207;
0090997262999992005010406004+46533-087367FM-18+0197MCGM V0202401N004019999999N9999999N1-00861+99999102901ADDMD1510001+9999REMSYN064CMTI   46// MCGM4 46/// /2404 11086 40290 55000 90600 333 91207;
0090997262999992005010407004+46533-087367FM-18+0197MCGM V0202301N003019999999N9999999N1-00921+99999102881ADDMD1410001+9999REMSYN064CMTI   46// MCGM4 46/// /2303 11092 40288 54000 90700 333 91207;
0090997262999992005010408004+46533-087367FM-18+0197MCGM V0202201N005019999999N9999999N1-00991+99999102861ADDMD1010001+9999REMSYN064CMTI   46// MCGM4 46/// /2205 11099 40286 50000 90800 333 91207;
0090997262999992005010409004+46533-087367FM-18+0197MCGM V0202101N004019999999N9999999N1-00901+99999102851ADDMD1710051+9999REMSYN064CMTI   46// MCGM4 46/// /2104 11090 40285 57005 90900 333 91208;
0090997262999992005010410004+46533-087367FM-18+0197MCGM V0202301N003019999999N9999999N1-00891+99999102861ADDMD1410001+9999REMSYN064CMTI   46// MCGM4 46/// /2303 11089 40286 54000 91000 333 91208;
0090997262999992005010411004+46533-087367FM-18+0197MCGM V0202301N003019999999N9999999N1-00891+99999102821ADDMD1810041+9999REMSYN064CMTI   46// MCGM4 46/// /2303 11089 40282 58004 91100 333 91207;
0090997262999992005010412004+46533-087367FM-18+0197MCGM V0202101N003019999999N9999999N1-00821+99999102831ADDMD1410001+9999REMSYN064CMTI   46// MCGM4 46/// /2103 11082 40283 54000 91200 333 91205;
0090997262999992005010413004+46533-087367FM-18+0197MCGM V0202101N004019999999N9999999N1-00781+99999102861ADDMD1510001+9999REMSYN064CMTI   46// MCGM4 46/// /2104 11078 40286 55000 91300 333 91205;
0090997262999992005010414004+46533-087367FM-18+0197MCGM V0202201N006019999999N9999999N1-00781+99999102851ADDMD1210031+9999REMSYN064CMTI   46// MCGM4 46/// /2206 11078 40285 52003 91400 333 91209;
0090997262999992005010415004+46533-087367FM-18+0197MCGM V0202401N004019999999N9999999N1-00711+99999102881ADDMD1210051+9999REMSYN064CMTI   46// MCGM4 46/// /2404 11071 40288 52005 91500 333 91209;
0090997262999992005010416004+46533-087367FM-18+0197MCGM V0202801N004019999999N9999999N1-00551+99999102891ADDMD1210031+9999REMSYN064CMTI   46// MCGM4 46/// /2804 11055 40289 52003 91600 333 91209;
0090997262999992005010417004+46533-087367FM-18+0197MCGM V0202601N005019999999N9999999N1-00521+99999102911ADDMD1110061+9999REMSYN064CMTI   46// MCGM4 46/// /2605 11052 40291 51006 91700 333 91209;
0090997262999992005010418004+46533-087367FM-18+0197MCGM V0203101N004019999999N9999999N1-00461+99999102851ADDMD1810031+9999REMSYN064CMTI   46// MCGM4 46/// /3104 11046 40285 58003 91800 333 91207;
0090997262999992005010419004+46533-087367FM-18+0197MCGM V0203001N005019999999N9999999N1-00541+99999102861ADDMD1710031+9999REMSYN064CMTI   46// MCGM4 46/// /3005 11054 40286 57003 91900 333 91215;
0090997262999992005010420004+46533-087367FM-18+0197MCGM V0203201N006019999999N9999999N1-00731+99999102911ADDMD1510001+9999REMSYN064CMTI   46// MCGM4 46/// /3206 11073 40291 55000 92000 333 91212;
0066997262999992005010421004+46533-087367FM-18+0197MCGM V0203101N003619999999N9999999N1-00871+99999103031REMSYN057CMAN 04214 MCGM4 46/// /3107 11087 40303 92106 333 91213;
0090997262999992005010422004+46533-087367FM-18+0197MCGM V0202801N007019999999N9999999N1-00951+99999103131ADDMD1210271+9999REMSYN064CMTI   46// MCGM4 46/// /2807 11095 40313 52027 92200 333 91213;
0090997262999992005010423004+46533-087367FM-18+0197MCGM V0202901N006019999999N9999999N1-01001+99999103211ADDMD1210301+9999REMSYN064CMTI   46// MCGM4 46/// /2906 11100 40321 52030 92300 333 91210;
0067997262999992005010500004+46533-087367FM-18+0197MCGM V0202701N004019999999N9999999N1-01011+99999103261REMSYN058CMTI   46// MCGM4 46/// /2704 11101 40326 90000 333 91210;
0090997262999992005010501004+46533-087367FM-18+0197MCGM V0202901N005019999999N9999999N1-01021+99999103271ADDMD1110141+9999REMSYN064CMTI   46// MCGM4 46/// /2905 11102 40327 51014 90100 333 91210;
0090997262999992005010502004+46533-087367FM-18+0197MCGM V0203001N006019999999N9999999N1-00971+99999103301ADDMD1110091+9999REMSYN064CMTI   46// MCGM4 46/// /3006 11097 40330 51009 90200 333 91212;
0067997262999992005010503004+46533-087367FM-18+0197MCGM V0203101N006019999999N9999999N1-00951+99999103251REMSYN058CMTI   46// MCGM4 46/// /3106 11095 40325 90306 333 91212;
0067997262999992005010504004+46533-087367FM-18+0197MCGM V0203101N007019999999N9999999N1-00871+99999103221REMSYN058CMTI   46// MCGM4 46/// /3107 11087 40322 90424 333 91215;
0101997262999992005010505004+46533-087367FM-18+0197MCGM V0203301N006219999999N9999999N1-00811+99999103211ADDMD1710091+9999REMSYN075CMAN  05054 MCGM4 46/// /3312 11081 40321 57009 90500 222// 0003 333 91225;
0067997262999992005010507004+46533-087367FM-18+0197MCGM V0203401N011019999999N9999999N1-00861+99999103311REMSYN058CMTI   46// MCGM4 46/// /3411 11086 40331 90718 333 91216;
0090997262999992005010508004+46533-087367FM-18+0197MCGM V0203401N007019999999N9999999N1-00841+99999103321ADDMD1210111+9999REMSYN064CMTI   46// MCGM4 46/// /3407 11084 40332 52011 90800 333 91215;
0067997262999992005010509004+46533-087367FM-18+0197MCGM V0203201N007019999999N9999999N1-00851+99999103271REMSYN058CMTI   46// MCGM4 46/// /3207 11085 40327 90900 333 91217;
0067997262999992005010510004+46533-087367FM-18+0197MCGM V0202901N005019999999N9999999N1-00991+99999103311REMSYN058CMTI   46// MCGM4 46/// /2905 11099 40331 91000 333 91208;
0090997262999992005010511004+46533-087367FM-18+0197MCGM V0203001N005019999999N9999999N1-00931+99999103251ADDMD1810071+9999REMSYN064CMTI   46// MCGM4 46/// /3005 11093 40325 58007 91100 333 91210;
0090997262999992005010512004+46533-087367FM-18+0197MCGM V0203201N005019999999N9999999N1-00841+99999103271ADDMD1010001+9999REMSYN064CMTI   46// MCGM4 46/// /3205 11084 40327 50000 91200 333 91212;
0090997262999992005010513004+46533-087367FM-18+0197MCGM V0203401N004019999999N9999999N1-00751+99999103211ADDMD1710101+9999REMSYN064CMTI   46// MCGM4 46/// /3404 11075 40321 57010 91300 333 91213;
0090997262999992005010514004+46533-087367FM-18+0197MCGM V0203401N006019999999N9999999N1-00771+99999103251ADDMD1510001+9999REMSYN064CMTI   46// MCGM4 46/// /3406 11077 40325 55000 91400 333 91212;
0090997262999992005010515004+46533-087367FM-18+0197MCGM V0203401N007019999999N9999999N1-00791+99999103231ADDMD1610041+9999REMSYN064CMTI   46// MCGM4 46/// /3407 11079 40323 56004 91500 333 91212;
0090997262999992005010516004+46533-087367FM-18+0197MCGM V0203301N009019999999N9999999N1-00781+99999103241ADDMD1110031+9999REMSYN064CMTI   46// MCGM4 46/// /3309 11078 40324 51003 91600 333 91213;
0090997262999992005010517004+46533-087367FM-18+0197MCGM V0203401N006019999999N9999999N1-00751+99999103141ADDMD1810111+9999REMSYN064CMTI   46// MCGM4 46/// /3406 11075 40314 58011 91700 333 91212;
0090997262999992005010518004+46533-087367FM-18+0197MCGM V0203401N006019999999N9999999N1-00721+99999103121ADDMD1710111+9999REMSYN064CMTI   46// MCGM4 46/// /3406 11072 40312 57011 91800 333 91210;
0090997262999992005010519004+46533-087367FM-18+0197MCGM V0203301N007019999999N9999999N1-00731+99999102981ADDMD1810261+9999REMSYN064CMTI   46// MCGM4 46/// /3307 11073 40298 58026 91900 333 91212;
0090997262999992005010520004+46533-087367FM-18+0197MCGM V0203401N007019999999N9999999N1-00731+99999102931ADDMD1810211+9999REMSYN064CMTI   46// MCGM4 46/// /3407 11073 40293 58021 92000 333 91211;
0090997262999992005010521004+46533-087367FM-18+0197MCGM V0203001N005019999999N9999999N1-00841+99999102831ADDMD1610291+9999REMSYN064CMTI   46// MCGM4 46/// /3005 11084 40283 56029 92100 333 91208;
0090997262999992005010522004+46533-087367FM-18+0197MCGM V0202901N003019999999N9999999N1-00871+99999102771ADDMD1810211+9999REMSYN064CMTI   46// MCGM4 46/// /2903 11087 40277 58021 92200 333 91209;
0090997262999992005010523004+46533-087367FM-18+0197MCGM V0202801N003019999999N9999999N1-00911+99999102761ADDMD1610171+9999REMSYN064CMTI   46// MCGM4 46/// /2803 11091 40276 56017 92300 333 91207;
0101997262999992005010600004+46533-087367FM-18+0197MCGM V0202901N002119999999N9999999N1-00951+99999102671ADDMD1810161+9999REMSYN075CMAN  06004 MCGM4 46/// /2904 11095 40267 58016 90000 222// 0003 333 91225;
0101997262999992005010601004+46533-087367FM-18+0197MCGM V0202901N002619999999N9999999N1-00931+99999102651ADDMD1710121+9999REMSYN075CMAN  06014 MCGM4 46/// /2905 11093 40265 57012 90100 222// 0003 333 91225;
0067997262999992005010603004+46533-087367FM-18+0197MCGM V0202601N003019999999N9999999N1-00931+99999102401REMSYN058CMTI   46// MCGM4 46/// /2603 11093 40240 90324 333 91208;
0090997262999992005010604004+46533-087367FM-18+0197MCGM V0203001N005019999999N9999999N1-00941+99999102321ADDMD1710331+9999REMSYN064CMTI   46// MCGM4 46/// /3005 11094 40232 57033 90400 333 91209;
0067997262999992005010605004+46533-087367FM-18+0197MCGM V0202901N006019999999N9999999N1-00931+99999102221REMSYN058CMTI   46// MCGM4 46/// /2906 11093 40222 90500 333 91209;
0067997262999992005010606004+46533-087367FM-18+0197MCGM V0202701N003019999999N9999999N1-00921+99999102131REMSYN058CMTI   46// MCGM4 46/// /2703 11092 40213 90600 333 91206;
0090997262999992005010607004+46533-087367FM-18+0197MCGM V0202901N005019999999N9999999N1-00941+99999101981ADDMD1810341+9999REMSYN064CMTI   46// MCGM4 46/// /2905 11094 40198 58034 90700 333 91207;
0090997262999992005010608004+46533-087367FM-18+0197MCGM V0202801N003019999999N9999999N1-00931+99999101881ADDMD1810341+9999REMSYN064CMTI   46// MCGM4 46/// /2803 11093 40188 58034 90800 333 91206;
0090997262999992005010609004+46533-087367FM-18+0197MCGM V0202801N002019999999N9999999N1-00901+99999101771ADDMD1610361+9999REMSYN064CMTI   46// MCGM4 46/// /2802 11090 40177 56036 90900 333 91206;
0090997262999992005010610004+46533-087367FM-18+0197MCGM V0202501N001019999999N9999999N1-00911+99999101681ADDMD1610301+9999REMSYN064CMTI   46// MCGM4 46/// /2501 11091 40168 56030 91000 333 91206;
0090997262999992005010611004+46533-087367FM-18+0197MCGM V0202701N005019999999N9999999N1-00891+99999101621ADDMD1610261+9999REMSYN064CMTI   46// MCGM4 46/// /2705 11089 40162 56026 91100 333 91208;
0090997262999992005010612004+46533-087367FM-18+0197MCGM V0202701N003019999999N9999999N1-00891+99999101591ADDMD1610181+9999REMSYN064CMTI   46// MCGM4 46/// /2703 11089 40159 56018 91200 333 91207;
0090997262999992005010613004+46533-087367FM-18+0197MCGM V0202801N006019999999N9999999N1-00941+99999101531ADDMD1710151+9999REMSYN064CMTI   46// MCGM4 46/// /2806 11094 40153 57015 91300 333 91210;
0090997262999992005010614004+46533-087367FM-18+0197MCGM V0202801N005019999999N9999999N1-00881+99999101501ADDMD1710121+9999REMSYN064CMTI   46// MCGM4 46/// /2805 11088 40150 57012 91400 333 91210;
0090997262999992005010615004+46533-087367FM-18+0197MCGM V0202701N003019999999N9999999N1-00821+99999101421ADDMD1810171+9999REMSYN064CMTI   46// MCGM4 46/// /2703 11082 40142 58017 91500 333 91210;
0067997262999992005010616004+46533-087367FM-18+0197MCGM V0202601N004019999999N9999999N1-00771+99999101351REMSYN058CMTI   46// MCGM4 46/// /2604 11077 40135 91606 333 91206;
0090997262999992005010617004+46533-087367FM-18+0197MCGM V0202801N003019999999N9999999N1-00721+99999101261ADDMD1810241+9999REMSYN064CMTI   46// MCGM4 46/// /2803 11072 40126 58024 91700 333 91207;
0090997262999992005010618004+46533-087367FM-18+0197MCGM V0202801N003019999999N9999999N1-00691+99999101161ADDMD1810261+9999REMSYN064CMTI   46// MCGM4 46/// /2803 11069 40116 58026 91800 333 91206;
0067997262999992005010619004+46533-087367FM-18+0197MCGM V0202701N002019999999N9999999N1-00661+99999101091REMSYN058CMTI   46// MCGM4 46/// /2702 11066 40109 91906 333 91205;
0090997262999992005010620004+46533-087367FM-18+0197MCGM V0202601N002019999999N9999999N1-00631+99999101061ADDMD1710201+9999REMSYN064CMTI   46// MCGM4 46/// /2602 11063 40106 57020 92000 333 91204;
0067997262999992005010621004+46533-087367FM-18+0197MCGM V0202801N002019999999N9999999N1-00641+99999101111REMSYN058CMTI   46// MCGM4 46/// /2802 11064 40111 92100 333 91207;
0067997262999992005010622004+46533-087367FM-18+0197MCGM V0202201N002019999999N9999999N1-00671+99999101171REMSYN058CMTI   46// MCGM4 46/// /2202 11067 40117 92200 333 91204;
0090997262999992005010623004+46533-087367FM-18+0197MCGM V0202201N003019999999N9999999N1-00711+99999101191ADDMD1110131+9999REMSYN064CMTI   46// MCGM4 46/// /2203 11071 40119 51013 92300 333 91205;
0090997262999992005010700004+46533-087367FM-18+0197MCGM V0209999C000019999999N9999999N1-00791+99999101211ADDMD1110101+9999REMSYN064CMTI   46// MCGM4 46/// /0000 11079 40121 51010 90000 333 91201;
0090997262999992005010701004+46533-087367FM-18+0197MCGM V0209999C000019999999N9999999N1-00831+99999101241ADDMD1310071+9999REMSYN064CMTI   46// MCGM4 46/// /0000 11083 40124 53007 90100 333 91202;
0090997262999992005010702004+46533-087367FM-18+0197MCGM V0201601N002019999999N9999999N1-00811+99999101241ADDMD1210051+9999REMSYN064CMTI   46// MCGM4 46/// /1602 11081 40124 52005 90200 333 91204;
0090997262999992005010703004+46533-087367FM-18+0197MCGM V0202301N003019999999N9999999N1-00851+99999101271ADDMD1210061+9999REMSYN064CMTI   46// MCGM4 46/// /2303 11085 40127 52006 90300 333 91206;
0090997262999992005010704004+46533-087367FM-18+0197MCGM V0201901N002019999999N9999999N1-00821+99999101331ADDMD1310091+9999REMSYN064CMTI   46// MCGM4 46/// /1902 11082 40133 53009 90400 333 91205;
0090997262999992005010705004+46533-087367FM-18+0197MCGM V0201501N007019999999N9999999N1-00831+99999101341ADDMD1110101+9999REMSYN064CMTI   46// MCGM4 46/// /1507 11083 40134 51010 90500 333 91210;
0090997262999992005010706004+46533-087367FM-18+0197MCGM V0201301N006019999999N9999999N1-00871+99999101301ADDMD1010031+9999REMSYN064CMTI   46// MCGM4 46/// /1306 11087 40130 50003 90600 333 91209;
0090997262999992005010707004+46533-087367FM-18+0197MCGM V0203501N002019999999N9999999N1-00891+99999101331ADDMD1510001+9999REMSYN064CMTI   46// MCGM4 46/// /3502 11089 40133 55000 90700 333 91204;
0090997262999992005010708004+46533-087367FM-18+0197MCGM V0209999C000019999999N9999999N1-00991+99999101421ADDMD1310081+9999REMSYN064CMTI   46// MCGM4 46/// /0000 11099 40142 53008 90800 333 91201;
0090997262999992005010709004+46533-087367FM-18+0197MCGM V0201801N002019999999N9999999N1-00981+99999101451ADDMD1210151+9999REMSYN064CMTI   46// MCGM4 46/// /1802 11098 40145 52015 90900 333 91205;
0090997262999992005010710004+46533-087367FM-18+0197MCGM V0201701N006019999999N9999999N1-00991+99999101441ADDMD1110111+9999REMSYN064CMTI   46// MCGM4 46/// /1706 11099 40144 51011 91000 333 91209;
0090997262999992005010711004+46533-087367FM-18+0197MCGM V0201901N003019999999N9999999N1-01021+99999101471ADDMD1210051+9999REMSYN064CMTI   46// MCGM4 46/// /1903 11102 40147 52005 91100 333 91210;
0090997262999992005010712004+46533-087367FM-18+0197MCGM V0201301N008019999999N9999999N1-00981+99999101461ADDMD1410001+9999REMSYN064CMTI   46// MCGM4 46/// /1308 11098 40146 54000 91200 333 91212;
0090997262999992005010713004+46533-087367FM-18+0197MCGM V0201801N004019999999N9999999N1-01081+99999101491ADDMD1210051+9999REMSYN064CMTI   46// MCGM4 46/// /1804 11108 40149 52005 91300 333 91210;
0090997262999992005010714004+46533-087367FM-18+0197MCGM V0201701N007019999999N9999999N1-01051+99999101481ADDMD1410001+9999REMSYN064CMTI   46// MCGM4 46/// /1707 11105 40148 54000 91400 333 91213;
0000997262999992005010715004+46533-087367FM-18+0197MCGM V0201701N004619999999N9999999N1-00991+99999101561
0090997262999992005010716004+46533-087367FM-18+0197MCGM V0201501N009019999999N9999999N1-00851+99999101581ADDMD1210091+9999REMSYN064CMTI   46// MCGM4 46/// /1509 11085 40158 52009 91600 333 91212;
0090997262999992005010717004+46533-087367FM-18+0197MCGM V0201901N010019999999N9999999N1-00731+99999101541ADDMD1210061+9999REMSYN064CMTI   46// MCGM4 46/// /1910 11073 40154 52006 91700 333 91217;
0067997262999992005010718004+46533-087367FM-18+0197MCGM V0201801N008019999999N9999999N1-00541+99999101481REMSYN058CMTI   46// MCGM4 46/// /1808 11054 40148 91800 333 91213;
0090997262999992005010719004+46533-087367FM-18+0197MCGM V0202001N010019999999N9999999N1-00441+99999101471ADDMD1610111+9999REMSYN064CMTI   46// MCGM4 46/// /2010 11044 40147 56011 91900 333 91214;
0090997262999992005010720004+46533-087367FM-18+0197MCGM V0202101N009019999999N9999999N1-00371+99999101521ADDMD1510001+9999REMSYN064CMTI   46// MCGM4 46/// /2109 11037 40152 55000 92000 333 91213;
0090997262999992005010721004+46533-087367FM-18+0197MCGM V0201701N009019999999N9999999N1-00311+99999101511ADDMD1210031+9999REMSYN064CMTI   46// MCGM4 46/// /1709 11031 40151 52003 92100 333 91211;
0090997262999992005010722004+46533-087367FM-18+0197MCGM V0201801N005019999999N9999999N1-00341+99999101581ADDMD1310111+9999REMSYN064CMTI   46// MCGM4 46/// /1805 11034 40158 53011 92200 333 91211;
0090997262999992005010723004+46533-087367FM-18+0197MCGM V0201801N006019999999N9999999N1-00431+99999101651ADDMD1310131+9999REMSYN064CMTI   46// MCGM4 46/// /1806 11043 40165 53013 92300 333 91207;
0067997262999992005010820004+46533-087367FM-18+0197MCGM V0209999C000019999999N9999999N1-00351+99999102621REMSYN058CMTI   46// MCGM4 46/// /0000 11035 40262 92018 333 91203;
0067997262999992005010821004+46533-087367FM-18+0197MCGM V0209999C000019999999N9999999N1-00341+99999102631REMSYN058CMTI   46// MCGM4 46/// /0000 11034 40263 92100 333 91201;
0057997262999992005010822004+46533-087367FM-18+0197MCGM V0209999C000019999999N9999999N1-00341+99999102611REMSYN048CMTI   46// MCGM4 46/// /0000 11034 40261 92136;
0067997262999992005010823004+46533-087367FM-18+0197MCGM V0201401N010019999999N9999999N1-00321+99999102511REMSYN058CMTI   46// MCGM4 46/// /1410 11032 40251 92300 333 91211;
0090997262999992005010900004+46530-087370FM-18+0197MCGM V0201501N007019999999N9999999N1-00341+99999102561ADDMD1510071+9999REMSYN064CMTI   46// MCGM4 46/// /1507 11034 40256 55007 90000 333 91211;
0090997262999992005010901004+46530-087370FM-18+0197MCGM V0201901N001019999999N9999999N1-00351+99999102621ADDMD1510001+9999REMSYN064CMTI   46// MCGM4 46/// /1901 11035 40262 55000 90100 333 91205;
0090997262999992005010902004+46530-087370FM-18+0197MCGM V0201601N008019999999N9999999N1-00351+99999102571ADDMD1010061+9999REMSYN064CMTI   46// MCGM4 46/// /1608 11035 40257 50006 90200 333 91211;
0090997262999992005010903004+46530-087370FM-18+0197MCGM V0201601N007019999999N9999999N1-00371+99999102511ADDMD1810051+9999REMSYN064CMTI   46// MCGM4 46/// /1607 11037 40251 58005 90300 333 91212;
0090997262999992005010904004+46530-087370FM-18+0197MCGM V0201701N005019999999N9999999N1-00391+99999102521ADDMD1610101+9999REMSYN064CMTI   46// MCGM4 46/// /1705 11039 40252 56010 90400 333 91208;
0090997262999992005010905004+46530-087370FM-18+0197MCGM V0201701N008019999999N9999999N1-00431+99999102511ADDMD1610061+9999REMSYN064CMTI   46// MCGM4 46/// /1708 11043 40251 56006 90500 333 91211;
0090997262999992005010906004+46530-087370FM-18+0197MCGM V0201501N007019999999N9999999N1-00451+99999102381ADDMD1810131+9999REMSYN064CMTI   46// MCGM4 46/// /1507 11045 40238 58013 90600 333 91210;
0090997262999992005010907004+46530-087370FM-18+0197MCGM V0201501N008019999999N9999999N1-00481+99999102311ADDMD1810211+9999REMSYN064CMTI   46// MCGM4 46/// /1508 11048 40231 58021 90700 333 91211;
0090997262999992005010908004+46530-087370FM-18+0197MCGM V0201701N008019999999N9999999N1-00501+99999102251ADDMD1610261+9999REMSYN064CMTI   46// MCGM4 46/// /1708 11050 40225 56026 90800 333 91211;
0090997262999992005010909004+46530-087370FM-18+0197MCGM V0201701N006019999999N9999999N1-00531+99999102241ADDMD1610141+9999REMSYN064CMTI   46// MCGM4 46/// /1706 11053 40224 56014 90900 333 91209;
0090997262999992005010910004+46530-087370FM-18+0197MCGM V0201601N009019999999N9999999N1-00551+99999102211ADDMD1610101+9999REMSYN064CMTI   46// MCGM4 46/// /1609 11055 40221 56010 91000 333 91211;
0090997262999992005010911004+46530-087370FM-18+0197MCGM V0201801N004019999999N9999999N1-00551+99999102141ADDMD1810111+9999REMSYN064CMTI   46// MCGM4 46/// /1804 11055 40214 58011 91100 333 91207;
0090997262999992005010912004+46530-087370FM-18+0197MCGM V0201701N007019999999N9999999N1-00571+99999102131ADDMD1610111+9999REMSYN064CMTI   46// MCGM4 46/// /1707 11057 40213 56011 91200 333 91211;
0090997262999992005010913004+46530-087370FM-18+0197MCGM V0201701N007019999999N9999999N1-00611+99999102061ADDMD1710151+9999REMSYN064CMTI   46// MCGM4 46/// /1707 11061 40206 57015 91300 333 91212;
0090997262999992005010914004+46530-087370FM-18+0197MCGM V0201801N009019999999N9999999N1-00641+99999102011ADDMD1810131+9999REMSYN064CMTI   46// MCGM4 46/// /1809 11064 40201 58013 91400 333 91213;
0090997262999992005010915004+46530-087370FM-18+0197MCGM V0201701N007019999999N9999999N1-00631+99999101941ADDMD1710191+9999REMSYN064CMTI   46// MCGM4 46/// /1707 11063 40194 57019 91500 333 91211;
0090997262999992005010916004+46530-087370FM-18+0197MCGM V0201901N009019999999N9999999N1-00611+99999101881ADDMD1810181+9999REMSYN064CMTI   46// MCGM4 46/// /1909 11061 40188 58018 91600 333 91212;
0090997262999992005010917004+46530-087370FM-18+0197MCGM V0202001N006019999999N9999999N1-00541+99999101851ADDMD1610161+9999REMSYN064CMTI   46// MCGM4 46/// /2006 11054 40185 56016 91700 333 91212;
0090997262999992005010918004+46530-087370FM-18+0197MCGM V0201901N004019999999N9999999N1-00521+99999101781ADDMD1810161+9999REMSYN064CMTI   46// MCGM4 46/// /1904 11052 40178 58016 91800 333 91213;
0090997262999992005010919004+46530-087370FM-18+0197MCGM V0202101N006019999999N9999999N1-00491+99999101541ADDMD1810341+9999REMSYN064CMTI   46// MCGM4 46/// /2106 11049 40154 58034 91900 333 91209;
0090997262999992005010920004+46530-087370FM-18+0197MCGM V0201901N005019999999N9999999N1-00481+99999101461ADDMD1810391+9999REMSYN064CMTI   46// MCGM4 46/// /1905 11048 40146 58039 92000 333 91210;
0090997262999992005010921004+46530-087370FM-18+0197MCGM V0202001N005019999999N9999999N1-00481+99999101431ADDMD1610351+9999REMSYN064CMTI   46// MCGM4 46/// /2005 11048 40143 56035 92100 333 91209;
0090997262999992005010922004+46530-087370FM-18+0197MCGM V0202101N005019999999N9999999N1-00481+99999101391ADDMD1610151+9999REMSYN064CMTI   46// MCGM4 46/// /2105 11048 40139 56015 92200 333 91209;
0090997262999992005010923004+46530-087370FM-18+0197MCGM V0209999C000019999999N9999999N1-00491+99999101321ADDMD1810141+9999REMSYN064CMTI   46// MCGM4 46/// /0000 11049 40132 58014 92300 333 91205;
0090997262999992005011000004+46533-087367FM-18+0197MCGM V0201801N005019999999N9999999N1-00471+99999101241ADDMD1810191+9999REMSYN064CMTI   46// MCGM4 46/// /1805 11047 40124 58019 90000 333 91208;
0090997262999992005011001004+46533-087367FM-18+0197MCGM V0202101N007019999999N9999999N1-00511+99999101201ADDMD1610191+9999REMSYN064CMTI   46// MCGM4 46/// /2107 11051 40120 56019 90100 333 91210;
0090997262999992005011002004+46533-087367FM-18+0197MCGM V0202101N006019999999N9999999N1-00561+99999101181ADDMD1610141+9999REMSYN064CMTI   46// MCGM4 46/// /2106 11056 40118 56014 90200 333 91208;
0090997262999992005011003004+46533-087367FM-18+0197MCGM V0202301N009019999999N9999999N1-00461+99999101191ADDMD1610051+9999REMSYN064CMTI   46// MCGM4 46/// /2309 11046 40119 56005 90300 333 91213;
0090997262999992005011004004+46533-087367FM-18+0197MCGM V0202601N001019999999N9999999N1-00421+99999101251ADDMD1310051+9999REMSYN064CMTI   46// MCGM4 46/// /2601 11042 40125 53005 90400 333 91207;
0067997262999992005011005004+46533-087367FM-18+0197MCGM V0202901N005019999999N9999999N1-00371+99999101351REMSYN058CMTI   46// MCGM4 46/// /2905 11037 40135 90506 333 91212;
0090997262999992005011006004+46533-087367FM-18+0197MCGM V0203101N006019999999N9999999N1-00401+99999101381ADDMD1210191+9999REMSYN064CMTI   46// MCGM4 46/// /3106 11040 40138 52019 90600 333 91210;
0090997262999992005011007004+46533-087367FM-18+0197MCGM V0202901N006019999999N9999999N1-00471+99999101441ADDMD1210191+9999REMSYN064CMTI   46// MCGM4 46/// /2906 11047 40144 52019 90700 333 91213;
0067997262999992005011008004+46533-087367FM-18+0197MCGM V0202901N008019999999N9999999N1-00471+99999101571REMSYN058CMTI   46// MCGM4 46/// /2908 11047 40157 90800 333 91213;
0090997262999992005011009004+46533-087367FM-18+0197MCGM V0202901N004019999999N9999999N1-00511+99999101671ADDMD1310291+9999REMSYN064CMTI   46// MCGM4 46/// /2904 11051 40167 53029 90900 333 91214;
0090997262999992005011010004+46533-087367FM-18+0197MCGM V0202901N003019999999N9999999N1-00551+99999101701ADDMD1110261+9999REMSYN064CMTI   46// MCGM4 46/// /2903 11055 40170 51026 91000 333 91207;
0090997262999992005011011004+46533-087367FM-18+0197MCGM V0202801N005019999999N9999999N1-00571+99999101801ADDMD1210231+9999REMSYN064CMTI   46// MCGM4 46/// /2805 11057 40180 52023 91100 333 91210;
0090997262999992005011012004+46533-087367FM-18+0197MCGM V0202901N009019999999N9999999N1-00601+99999101931ADDMD1310261+9999REMSYN064CMTI   46// MCGM4 46/// /2909 11060 40193 53026 91200 333 91214;
0090997262999992005011013004+46533-087367FM-18+0197MCGM V0203001N005019999999N9999999N1-00631+99999102021ADDMD1110321+9999REMSYN064CMTI   46// MCGM4 46/// /3005 11063 40202 51032 91300 333 91211;
0090997262999992005011014004+46533-087367FM-18+0197MCGM V0202901N005019999999N9999999N1-00641+99999102101ADDMD1110301+9999REMSYN064CMTI   46// MCGM4 46/// /2905 11064 40210 51030 91400 333 91210;
0061997262999992005011015004+46533-087367FM-18+0197MCGM V0203101N005019999999N9999999N1-00661+99999999999REMSYN052CMTI   46// MCGM4 46/// /3105 11066 91500 333 91208;
0061997262999992005011016004+46533-087367FM-18+0197MCGM V0203001N006019999999N9999999N1-00651+99999999999REMSYN052CMTI   46// MCGM4 46/// /3006 11065 91600 333 91210;
0090997262999992005011017004+46533-087367FM-18+0197MCGM V0203101N006019999999N9999999N1-00601+99999102331ADDMD1110231+9999REMSYN064CMTI   46// MCGM4 46/// /3106 11060 40233 51023 91700 333 91212;
0090997262999992005011018004+46533-087367FM-18+0197MCGM V0202901N005019999999N9999999N1-00601+99999102361ADDMD1110171+9999REMSYN064CMTI   46// MCGM4 46/// /2905 11060 40236 51017 91800 333 91210;
0000997262999992005011019004+46533-087367FM-18+0197MCGM V0203101N001019999999N9999999N1-00611+99999999999
0061997262999992005011020004+46533-087367FM-18+0197MCGM V0202901N001019999999N9999999N1-00581+99999999999REMSYN052CMTI   46// MCGM4 46/// /2901 11058 92000 333 91206;
0061997262999992005011021004+46533-087367FM-18+0197MCGM V0203201N002019999999N9999999N1-00631+99999999999REMSYN052CMTI   46// MCGM4 46/// /3202 11063 92106 333 91206;
0061997262999992005011022004+46533-087367FM-18+0197MCGM V0203201N003019999999N9999999N1-00691+99999999999REMSYN052CMTI   46// MCGM4 46/// /3203 11069 92200 333 91207;
0061997262999992005011023004+46533-087367FM-18+0197MCGM V0202901N004019999999N9999999N1-00771+99999999999REMSYN052CMTI   46// MCGM4 46/// /2904 11077 92300 333 91205;
0061997262999992005011100004+46533-087367FM-18+0197MCGM V0202701N001019999999N9999999N1-00841+99999999999REMSYN052CMTI   46// MCGM4 46/// /2701 11084 90000 333 91206;
0061997262999992005011101004+46533-087367FM-18+0197MCGM V0202701N001019999999N9999999N1-00901+99999999999REMSYN052CMTI   46// MCGM4 46/// /2701 11090 90100 333 91204;
0000997262999992005011102004+46533-087367FM-18+0197MCGM V0202601N000519999999N9999999N1-00891+99999999999
0061997262999992005011103004+46533-087367FM-18+0197MCGM V0209999C000019999999N9999999N1-00861+99999999999REMSYN052CMTI   46// MCGM4 46/// /0000 11086 90300 333 91204;
0061997262999992005011104004+46533-087367FM-18+0197MCGM V0209999C000019999999N9999999N1-00861+99999999999REMSYN052CMTI   46// MCGM4 46/// /0000 11086 90400 333 91202;
0061997262999992005011105004+46533-087367FM-18+0197MCGM V0202201N003019999999N9999999N1-00881+99999999999REMSYN052CMTI   46// MCGM4 46/// /2203 11088 90500 333 91204;
0061997262999992005011106004+46533-087367FM-18+0197MCGM V0209999C000019999999N9999999N1-00871+99999999999REMSYN052CMTI   46// MCGM4 46/// /0000 11087 90600 333 91204;
0061997262999992005011107004+46533-087367FM-18+0197MCGM V0209999C000019999999N9999999N1-00861+99999999999REMSYN052CMTI   46// MCGM4 46/// /0000 11086 90700 333 91204;
0061997262999992005011108004+46533-087367FM-18+0197MCGM V0202101N004019999999N9999999N1-00791+99999999999REMSYN052CMTI   46// MCGM4 46/// /2104 11079 90800 333 91205;
0061997262999992005011109004+46533-087367FM-18+0197MCGM V0209999C000019999999N9999999N1-00771+99999999999REMSYN052CMTI   46// MCGM4 46/// /0000 11077 90900 333 91203;
0061997262999992005011110004+46533-087367FM-18+0197MCGM V0201601N005019999999N9999999N1-00701+99999999999REMSYN052CMTI   46// MCGM4 46/// /1605 11070 91006 333 91206;
0061997262999992005011111004+46533-087367FM-18+0197MCGM V0201601N003019999999N9999999N1-00651+99999999999REMSYN052CMTI   46// MCGM4 46/// /1603 11065 91100 333 91205;
0061997262999992005011112004+46533-087367FM-18+0197MCGM V0201601N003019999999N9999999N1-00621+99999999999REMSYN052CMTI   46// MCGM4 46/// /1603 11062 91200 333 91204;
0067997262999992005011114004+46533-087367FM-18+0197MCGM V0209999C000019999999N9999999N1-00651+99999102121REMSYN058CMTI   46// MCGM4 46/// /0000 11065 40212 91418 333 91201;
0090997262999992005011115004+46533-087367FM-18+0197MCGM V0202001N002019999999N9999999N1-00641+99999102111ADDMD1710041+9999REMSYN064CMTI   46// MCGM4 46/// /2002 11064 40211 57004 91500 333 91204;
0067997262999992005011116004+46533-087367FM-18+0197MCGM V0201601N004019999999N9999999N1-00581+99999102101REMSYN058CMTI   46// MCGM4 46/// /1604 11058 40210 91606 333 91205;
0057997262999992005011117004+46533-087367FM-18+0197MCGM V0209999C000019999999N9999999N1-00491+99999102041REMSYN048CMTI   46// MCGM4 46/// /0000 11049 40204 91700;
0067997262999992005011118004+46533-087367FM-18+0197MCGM V0201401N004019999999N9999999N1-00381+99999101911REMSYN058CMTI   46// MCGM4 46/// /1404 11038 40191 91806 333 91205;
0067997262999992005011119004+46533-087367FM-18+0197MCGM V0200601N003019999999N9999999N1-00301+99999101881REMSYN058CMTI   46// MCGM4 46/// /0603 11030 40188 91900 333 91204;
0067997262999992005011120004+46533-087367FM-18+0197MCGM V0201101N002019999999N9999999N1-00211+99999101841REMSYN058CMTI   46// MCGM4 46/// /1102 11021 40184 92018 333 91203;
0067997262999992005011121004+46533-087367FM-18+0197MCGM V0200701N004019999999N9999999N1-00211+99999101871REMSYN058CMTI   46// MCGM4 46/// /0704 11021 40187 92100 333 91206;
0067997262999992005011122004+46533-087367FM-18+0197MCGM V0201301N008019999999N9999999N1-00181+99999101851REMSYN058CMTI   46// MCGM4 46/// /1308 11018 40185 92224 333 91209;
0067997262999992005011123004+46533-087367FM-18+0197MCGM V0201401N005019999999N9999999N1-00181+99999101841REMSYN058CMTI   46// MCGM4 46/// /1405 11018 40184 92324 333 91206;
0090997262999992005011200004+46533-087367FM-18+0197MCGM V0201501N006019999999N9999999N1-00181+99999101841ADDMD1610031+9999REMSYN064CMTI   46// MCGM4 46/// /1506 11018 40184 56003 90000 333 91208;
0101997262999992005011201004+46533-087367FM-18+0197MCGM V0201401N004119999999N9999999N1-00201+99999101791ADDMD1810051+9999REMSYN075CMAN  12014 MCGM4 46/// /1408 11020 40179 58005 90100 222// 0003 333 91208;
0067997262999992005011204004+46533-087367FM-18+0197MCGM V0201001N005019999999N9999999N1-00211+99999101611REMSYN058CMTI   46// MCGM4 46/// /1005 11021 40161 90436 333 91207;
0067997262999992005011205004+46533-087367FM-18+0197MCGM V0200901N004019999999N9999999N1-00201+99999101621REMSYN058CMTI   46// MCGM4 46/// /0904 11020 40162 90500 333 91205;
0067997262999992005011206004+46533-087367FM-18+0197MCGM V0201201N005019999999N9999999N1-00221+99999101541REMSYN058CMTI   46// MCGM4 46/// /1205 11022 40154 90600 333 91205;
0067997262999992005011207004+46533-087367FM-18+0197MCGM V0201201N006019999999N9999999N1-00231+99999101471REMSYN058CMTI   46// MCGM4 46/// /1206 11023 40147 90700 333 91207;
0090997262999992005011208004+46533-087367FM-18+0197MCGM V0201201N005019999999N9999999N1-00211+99999101441ADDMD1610181+9999REMSYN064CMTI   46// MCGM4 46/// /1205 11021 40144 56018 90800 333 91206;
0090997262999992005011209004+46533-087367FM-18+0197MCGM V0201001N004019999999N9999999N1-00211+99999101341ADDMD1810201+9999REMSYN064CMTI   46// MCGM4 46/// /1004 11021 40134 58020 90900 333 91205;
0090997262999992005011210004+46533-087367FM-18+0197MCGM V0201201N007019999999N9999999N1-00171+99999101201ADDMD1810271+9999REMSYN064CMTI   46// MCGM4 46/// /1207 11017 40120 58027 91000 333 91209;
0090997262999992005011211004+46533-087367FM-18+0197MCGM V0200901N007019999999N9999999N1-00101+99999101071ADDMD1810371+9999REMSYN064CMTI   46// MCGM4 46/// /0907 11010 40107 58037 91100 333 91209;
0067997262999992005011213004+46533-087367FM-18+0197MCGM V0201101N007019999999N9999999N1-00121+99999100791REMSYN058CMTI   46// MCGM4 46/// /1107 11012 40079 91324 333 91209;
0090997262999992005011214004+46533-087367FM-18+0197MCGM V0201101N008019999999N9999999N1-00091+99999100721ADDMD1710351+9999REMSYN064CMTI   46// MCGM4 46/// /1108 11009 40072 57035 91400 333 91209;
0067997262999992005011215004+46533-087367FM-18+0197MCGM V0201201N009019999999N9999999N1-00071+99999100601REMSYN058CMTI   46// MCGM4 46/// /1209 11007 40060 91500 333 91210;
0067997262999992005011216004+46533-087367FM-18+0197MCGM V0201301N011019999999N9999999N1-00031+99999100491REMSYN058CMTI   46// MCGM4 46/// /1311 11003 40049 91600 333 91212;
0090997262999992005011217004+46533-087367FM-18+0197MCGM V0201301N009019999999N9999999N1-00011+99999100351ADDMD1810371+9999REMSYN064CMTI   46// MCGM4 46/// /1309 11001 40035 58037 91700 333 91210;
0090997262999992005011218004+46533-087367FM-18+0197MCGM V0201301N007019999999N9999999N1+00021+99999100131ADDMD1810471+9999REMSYN064CMTI   46// MCGM4 46/// /1307 10002 40013 58047 91800 333 91210;
0090997262999992005011219004+46533-087367FM-18+0197MCGM V0201301N010019999999N9999999N1+00061+99999099941ADDMD1810551+9999REMSYN064CMTI   46// MCGM4 46/// /1310 10006 49994 58055 91900 333 91213;
0090997262999992005011220004+46533-087367FM-18+0197MCGM V0201401N011019999999N9999999N1+00101+99999099801ADDMD1610551+9999REMSYN064CMTI   46// MCGM4 46/// /1411 10010 49980 56055 92000 333 91213;
0090997262999992005011221004+46533-087367FM-18+0197MCGM V0201401N005019999999N9999999N1+00091+99999099761ADDMD1610371+9999REMSYN064CMTI   46// MCGM4 46/// /1405 10009 49976 56037 92100 333 91206;
0090997262999992005011222004+46533-087367FM-18+0197MCGM V0201201N005019999999N9999999N1+00111+99999099771ADDMD1610171+9999REMSYN064CMTI   46// MCGM4 46/// /1205 10011 49977 56017 92200 333 91205;
0090997262999992005011223004+46533-087367FM-18+0197MCGM V0201001N005019999999N9999999N1+00101+99999099731ADDMD1710071+9999REMSYN064CMTI   46// MCGM4 46/// /1005 10010 49973 57007 92300 333 91205;
0090997262999992005011300004+46533-087367FM-18+0197MCGM V0201101N007019999999N9999999N1+00121+99999099721ADDMD1710041+9999REMSYN064CMTI   46// MCGM4 46/// /1107 10012 49972 57004 90000 333 91208;
0090997262999992005011301004+46533-087367FM-18+0197MCGM V0201201N006019999999N9999999N1+00151+99999099691ADDMD1610081+9999REMSYN064CMTI   46// MCGM4 46/// /1206 10015 49969 56008 90100 333 91206;
0090997262999992005011302004+46533-087367FM-18+0197MCGM V0201601N007019999999N9999999N1+00161+99999099691ADDMD1710041+9999REMSYN064CMTI   46// MCGM4 46/// /1607 10016 49969 57004 90200 333 91208;
0090997262999992005011303004+46533-087367FM-18+0197MCGM V0201701N006019999999N9999999N1+00161+99999099751ADDMD1310031+9999REMSYN064CMTI   46// MCGM4 46/// /1706 10016 49975 53003 90300 333 91209;
0090997262999992005011304004+46533-087367FM-18+0197MCGM V0202001N001019999999N9999999N1+00131+99999099781ADDMD1310091+9999REMSYN064CMTI   46// MCGM4 46/// /2001 10013 49978 53009 90400 333 91204;
0090997262999992005011305004+46533-087367FM-18+0197MCGM V0209999C000019999999N9999999N1+00151+99999099881ADDMD1310191+9999REMSYN064CMTI   46// MCGM4 46/// /0000 10015 49988 53019 90500 333 91201;
0090997262999992005011306004+46533-087367FM-18+0197MCGM V0202701N003019999999N9999999N1+00201+99999099891ADDMD1110141+9999REMSYN064CMTI   46// MCGM4 46/// /2703 10020 49989 51014 90600 333 91205;
0090997262999992005011307004+46533-087367FM-18+0197MCGM V0202901N003019999999N9999999N1+00131+99999099991ADDMD1210211+9999REMSYN064CMTI   46// MCGM4 46/// /2903 10013 49999 52021 90700 333 91212;
0090997262999992005011308004+46533-087367FM-18+0197MCGM V0202801N007019999999N9999999N1+00041+99999100051ADDMD1310171+9999REMSYN064CMTI   46// MCGM4 46/// /2807 10004 40005 53017 90800 333 91213;
0090997262999992005011309004+46533-087367FM-18+0197MCGM V0202801N006019999999N9999999N1-00031+99999100171ADDMD1310281+9999REMSYN064CMTI   46// MCGM4 46/// /2806 11003 40017 53028 90900 333 91209;
0090997262999992005011310004+46533-087367FM-18+0197MCGM V0202801N002019999999N9999999N1-00041+99999100291ADDMD1310301+9999REMSYN064CMTI   46// MCGM4 46/// /2802 11004 40029 53030 91000 333 91208;
0000997262999992005011311004+46533-087367FM-18+0197MCGM V0202801N001519999999N9999999N1-00061+99999100271
0090997262999992005011312004+46533-087367FM-18+0197MCGM V0202801N003019999999N9999999N1-00101+99999100351ADDMD1210181+9999REMSYN064CMTI   46// MCGM4 46/// /2803 11010 40035 52018 91200 333 91207;
0090997262999992005011313004+46533-087367FM-18+0197MCGM V0202801N003019999999N9999999N1-00131+99999100241ADDMD1710051+9999REMSYN064CMTI   46// MCGM4 46/// /2803 11013 40024 57005 91300 333 91207;
0067997262999992005011314004+46533-087367FM-18+0197MCGM V0202801N003019999999N9999999N1-00161+99999100481REMSYN058CMTI   46// MCGM4 46/// /2803 11016 40048 91400 333 91210;
0090997262999992005011315004+46533-087367FM-18+0197MCGM V0202701N002019999999N9999999N1-00201+99999100611ADDMD1310261+9999REMSYN064CMTI   46// MCGM4 46/// /2702 11020 40061 53026 91500 333 91209;
0090997262999992005011316004+46533-087367FM-18+0197MCGM V0202801N006019999999N9999999N1-00211+99999100701ADDMD1110461+9999REMSYN064CMTI   46// MCGM4 46/// /2806 11021 40070 51046 91600 333 91209;
0067997262999992005011318004+46533-087367FM-18+0197MCGM V0202601N005019999999N9999999N1-00581+99999100731REMSYN058CMTI   46// MCGM4 46/// /2605 11058 40073 91848 333 91209;
0090997262999992005011319004+46533-087367FM-18+0197MCGM V0202801N009019999999N9999999N1-00601+99999100741ADDMD1210041+9999REMSYN064CMTI   46// MCGM4 46/// /2809 11060 40074 52004 91900 333 91213;
0067997262999992005011320004+46533-087367FM-18+0197MCGM V0202901N011019999999N9999999N1-00801+99999100941REMSYN058CMTI   46// MCGM4 46/// /2911 11080 40094 92000 333 91217;
0067997262999992005011321004+46533-087367FM-18+0197MCGM V0202601N003019999999N9999999N1-00811+99999101071REMSYN058CMTI   46// MCGM4 46/// /2603 11081 40107 92100 333 91209;
0090997262999992005011322004+46533-087367FM-18+0197MCGM V0202901N010019999999N9999999N1-01051+99999101231ADDMD1110491+9999REMSYN064CMTI   46// MCGM4 46/// /2910 11105 40123 51049 92200 333 91216;
0090997262999992005011323004+46533-087367FM-18+0197MCGM V0202601N006019999999N9999999N1-01221+99999101421ADDMD1310481+9999REMSYN064CMTI   46// MCGM4 46/// /2606 11122 40142 53048 92300 333 91216;
0090997262999992005011400004+46533-087367FM-18+0197MCGM V0202701N005019999999N9999999N1-01351+99999101591ADDMD1310521+9999REMSYN064CMTI   46// MCGM4 46/// /2705 11135 40159 53052 90000 333 91211;
0090997262999992005011401004+46533-087367FM-18+0197MCGM V0202601N005019999999N9999999N1-01431+99999101681ADDMD1110451+9999REMSYN064CMTI   46// MCGM4 46/// /2605 11143 40168 51045 90100 333 91208;
0067997262999992005011402004+46533-087367FM-18+0197MCGM V0202501N004019999999N9999999N1-01541+99999101811REMSYN058CMTI   46// MCGM4 46/// /2504 11154 40181 90224 333 91211;
0101997262999992005011403004+46533-087367FM-18+0197MCGM V0202201N004619999999N9999999N1-01621+99999101921ADDMD1210331+9999REMSYN075CMAN  14034 MCGM4 46/// /2209 11162 40192 52033 90300 222// 0003 333 91210;
0101997262999992005011404004+46533-087367FM-18+0197MCGM V0202401N004119999999N9999999N1-01731+99999101981ADDMD1210301+9999REMSYN075CMAN  14044 MCGM4 46/// /2408 11173 40198 52030 90400 222// 0003 333 91216;
0078997262999992005011405004+46533-087367FM-18+0197MCGM V0202301N004119999999N9999999N1-01791+99999102131REMSYN069CMAN  14054 MCGM4 46/// /2308 11179 40213 90500 222// 0003 333 91221;
0101997262999992005011406004+46533-087367FM-18+0197MCGM V0202301N003619999999N9999999N1-01841+99999102181ADDMD1110261+9999REMSYN075CMAN  14064 MCGM4 46/// /2307 11184 40218 51026 90600 222// 0003 333 91214;
0067997262999992005011408004+46533-087367FM-18+0197MCGM V0202201N009019999999N9999999N1-01931+99999102411REMSYN058CMTI   46// MCGM4 46/// /2209 11193 40241 90806 333 91212;
0090997262999992005011409004+46533-087367FM-18+0197MCGM V0202301N008019999999N9999999N1-01931+99999102511ADDMD1210331+9999REMSYN064CMTI   46// MCGM4 46/// /2308 11193 40251 52033 90900 333 91216;
0067997262999992005011410004+46533-087367FM-18+0197MCGM V0202201N008019999999N9999999N1-01971+99999102581REMSYN058CMTI   46// MCGM4 46/// /2208 11197 40258 91000 333 91212;
0067997262999992005011411004+46533-087367FM-18+0197MCGM V0202201N010019999999N9999999N1-02011+99999102691REMSYN058CMTI   46// MCGM4 46/// /2210 11201 40269 91100 333 91215;
0090997262999992005011412004+46533-087367FM-18+0197MCGM V0202301N010019999999N9999999N1-02021+99999102761ADDMD1210251+9999REMSYN064CMTI   46// MCGM4 46/// /2310 11202 40276 52025 91200 333 91216;
0090997262999992005011413004+46533-087367FM-18+0197MCGM V0202301N008019999999N9999999N1-02041+99999102841ADDMD1110261+9999REMSYN064CMTI   46// MCGM4 46/// /2308 11204 40284 51026 91300 333 91215;
0067997262999992005011414004+46533-087367FM-18+0197MCGM V0202301N010019999999N9999999N1-02011+99999102881REMSYN058CMTI   46// MCGM4 46/// /2310 11201 40288 91406 333 91218;
0067997262999992005011415004+46533-087367FM-18+0197MCGM V0202301N010019999999N9999999N1-01881+99999103021REMSYN058CMTI   46// MCGM4 46/// /2310 11188 40302 91506 333 91215;
0067997262999992005011416004+46533-087367FM-18+0197MCGM V0202401N005019999999N9999999N1-01711+99999103131REMSYN058CMTI   46// MCGM4 46/// /2405 11171 40313 91606 333 91216;
0067997262999992005011417004+46533-087367FM-18+0197MCGM V0202401N006019999999N9999999N1-01621+99999103151REMSYN058CMTI   46// MCGM4 46/// /2406 11162 40315 91700 333 91212;
0067997262999992005011418004+46533-087367FM-18+0197MCGM V0202801N007019999999N9999999N1-01451+99999103171REMSYN058CMTI   46// MCGM4 46/// /2807 11145 40317 91800 333 91214;
0067997262999992005011419004+46533-087367FM-18+0197MCGM V0203001N006019999999N9999999N1-01441+99999103181REMSYN058CMTI   46// MCGM4 46/// /3006 11144 40318 91900 333 91217;
0090997262999992005011420004+46533-087367FM-18+0197MCGM V0202501N004019999999N9999999N1-01451+99999103211ADDMD1310061+9999REMSYN064CMTI   46// MCGM4 46/// /2504 11145 40321 53006 92000 333 91211;
0090997262999992005011421004+46533-087367FM-18+0197MCGM V0202501N005019999999N9999999N1-01501+99999103251ADDMD1310081+9999REMSYN064CMTI   46// MCGM4 46/// /2505 11150 40325 53008 92100 333 91210;
0090997262999992005011422004+46533-087367FM-18+0197MCGM V0202401N007019999999N9999999N1-01551+99999103291ADDMD1310111+9999REMSYN064CMTI   46// MCGM4 46/// /2407 11155 40329 53011 92200 333 91211;
0090997262999992005011423004+46533-087367FM-18+0197MCGM V0202201N008019999999N9999999N1-01621+99999103321ADDMD1110111+9999REMSYN064CMTI   46// MCGM4 46/// /2208 11162 40332 51011 92300 333 91210;
0090997262999992005011500004+46533-087367FM-18+0197MCGM V0202201N009019999999N9999999N1-01651+99999103331ADDMD1110081+9999REMSYN064CMTI   46// MCGM4 46/// /2209 11165 40333 51008 90000 333 91215;
0090997262999992005011501004+46533-087367FM-18+0197MCGM V0202201N010019999999N9999999N1-01721+99999103371ADDMD1310081+9999REMSYN064CMTI   46// MCGM4 46/// /2210 11172 40337 53008 90100 333 91214;
0090997262999992005011502004+46533-087367FM-18+0197MCGM V0202201N011019999999N9999999N1-01751+99999103391ADDMD1210071+9999REMSYN064CMTI   46// MCGM4 46/// /2211 11175 40339 52007 90200 333 91215;
0090997262999992005011503004+46533-087367FM-18+0197MCGM V0202201N009019999999N9999999N1-01801+99999103381ADDMD1110051+9999REMSYN064CMTI   46// MCGM4 46/// /2209 11180 40338 51005 90300 333 91213;
0090997262999992005011504004+46533-087367FM-18+0197MCGM V0202201N010019999999N9999999N1-01831+99999103401ADDMD1210031+9999REMSYN064CMTI   46// MCGM4 46/// /2210 11183 40340 52003 90400 333 91219;
0090997262999992005011505004+46533-087367FM-18+0197MCGM V0202101N012019999999N9999999N1-01891+99999103401ADDMD1410001+9999REMSYN064CMTI   46// MCGM4 46/// /2112 11189 40340 54000 90500 333 91217;
0090997262999992005011506004+46533-087367FM-18+0197MCGM V0202101N013019999999N9999999N1-01941+99999103411ADDMD1210031+9999REMSYN064CMTI   46// MCGM4 46/// /2113 11194 40341 52003 90600 333 91217;
0090997262999992005011507004+46533-087367FM-18+0197MCGM V0202201N015019999999N9999999N1-01981+99999103351ADDMD1810051+9999REMSYN064CMTI   46// MCGM4 46/// /2215 11198 40335 58005 90700 333 91218;
0090997262999992005011508004+46533-087367FM-18+0197MCGM V0202201N014019999999N9999999N1-02011+99999103341ADDMD1710061+9999REMSYN064CMTI   46// MCGM4 46/// /2214 11201 40334 57006 90800 333 91221;
0090997262999992005011509004+46533-087367FM-18+0197MCGM V0202201N014019999999N9999999N1-02041+99999103361ADDMD1610051+9999REMSYN064CMTI   46// MCGM4 46/// /2214 11204 40336 56005 90900 333 91221;
0090997262999992005011510004+46533-087367FM-18+0197MCGM V0202201N012019999999N9999999N1-02071+99999103411ADDMD1310061+9999REMSYN064CMTI   46// MCGM4 46/// /2212 11207 40341 53006 91000 333 91219;
0090997262999992005011511004+46533-087367FM-18+0197MCGM V0202101N010019999999N9999999N1-02101+99999103451ADDMD1310111+9999REMSYN064CMTI   46// MCGM4 46/// /2110 11210 40345 53011 91100 333 91217;
0090997262999992005011512004+46533-087367FM-18+0197MCGM V0202101N012019999999N9999999N1-02101+99999103461ADDMD1110101+9999REMSYN064CMTI   46// MCGM4 46/// /2112 11210 40346 51010 91200 333 91217;
0090997262999992005011513004+46533-087367FM-18+0197MCGM V0202201N015019999999N9999999N1-02151+99999103471ADDMD1110061+9999REMSYN064CMTI   46// MCGM4 46/// /2215 11215 40347 51006 91300 333 91219;
0090997262999992005011514004+46533-087367FM-18+0197MCGM V0202201N012019999999N9999999N1-02141+99999103501ADDMD1310051+9999REMSYN064CMTI   46// MCGM4 46/// /2212 11214 40350 53005 91400 333 91217;
0090997262999992005011515004+46533-087367FM-18+0197MCGM V0202201N013019999999N9999999N1-02091+99999103581ADDMD1310121+9999REMSYN064CMTI   46// MCGM4 46/// /2213 11209 40358 53012 91500 333 91219;
0090997262999992005011516004+46533-087367FM-18+0197MCGM V0202201N010019999999N9999999N1-01981+99999103631ADDMD1310161+9999REMSYN064CMTI   46// MCGM4 46/// /2210 11198 40363 53016 91600 333 91218;
0090997262999992005011517004+46533-087367FM-18+0197MCGM V0202201N009019999999N9999999N1-01851+99999103661ADDMD1110161+9999REMSYN064CMTI   46// MCGM4 46/// /2209 11185 40366 51016 91700 333 91213;
0090997262999992005011518004+46533-087367FM-18+0197MCGM V0202201N011019999999N9999999N1-01761+99999103631ADDMD1010051+9999REMSYN064CMTI   46// MCGM4 46/// /2211 11176 40363 50005 91800 333 91219;
0090997262999992005011519004+46533-087367FM-18+0197MCGM V0202301N005019999999N9999999N1-01691+99999103621ADDMD1010001+9999REMSYN064CMTI   46// MCGM4 46/// /2305 11169 40362 50000 91900 333 91214;
0090997262999992005011520004+46533-087367FM-18+0197MCGM V0202401N005019999999N9999999N1-01661+99999103641ADDMD1510001+9999REMSYN064CMTI   46// MCGM4 46/// /2405 11166 40364 55000 92000 333 91213;
0090997262999992005011521004+46533-087367FM-18+0197MCGM V0202301N006019999999N9999999N1-01711+99999103701ADDMD1310071+9999REMSYN064CMTI   46// MCGM4 46/// /2306 11171 40370 53007 92100 333 91214;
0090997262999992005011522004+46533-087367FM-18+0197MCGM V0202501N005019999999N9999999N1-01781+99999103771ADDMD1310151+9999REMSYN064CMTI   46// MCGM4 46/// /2505 11178 40377 53015 92200 333 91210;
0090997262999992005011523004+46533-087367FM-18+0197MCGM V0202101N009019999999N9999999N1-01861+99999103831ADDMD1210191+9999REMSYN064CMTI   46// MCGM4 46/// /2109 11186 40383 52019 92300 333 91212;
0090997262999992005011600004+46533-087367FM-18+0197MCGM V0202301N008019999999N9999999N1-01911+99999103871ADDMD1110171+9999REMSYN064CMTI   46// MCGM4 46/// /2308 11191 40387 51017 90000 333 91211;
0090997262999992005011601004+46533-087367FM-18+0197MCGM V0202201N009019999999N9999999N1-01931+99999103881ADDMD1110111+9999REMSYN064CMTI   46// MCGM4 46/// /2209 11193 40388 51011 90100 333 91212;
0090997262999992005011602004+46533-087367FM-18+0197MCGM V0202201N009019999999N9999999N1-01961+99999103891ADDMD1110061+9999REMSYN064CMTI   46// MCGM4 46/// /2209 11196 40389 51006 90200 333 91213;
0090997262999992005011603004+46533-087367FM-18+0197MCGM V0202301N009019999999N9999999N1-01991+99999103851ADDMD1010001+9999REMSYN064CMTI   46// MCGM4 46/// /2309 11199 40385 50000 90300 333 91214;
0090997262999992005011604004+46533-087367FM-18+0197MCGM V0202301N008019999999N9999999N1-02011+99999103861ADDMD1410001+9999REMSYN064CMTI   46// MCGM4 46/// /2308 11201 40386 54000 90400 333 91214;
0090997262999992005011605004+46533-087367FM-18+0197MCGM V0202401N008019999999N9999999N1-02041+99999103901ADDMD1510001+9999REMSYN064CMTI   46// MCGM4 46/// /2408 11204 40390 55000 90500 333 91215;
0090997262999992005011606004+46533-087367FM-18+0197MCGM V0202301N009019999999N9999999N1-02061+99999103861ADDMD1010001+9999REMSYN064CMTI   46// MCGM4 46/// /2309 11206 40386 50000 90600 333 91216;
0090997262999992005011607004+46533-087367FM-18+0197MCGM V0202301N008019999999N9999999N1-02061+99999103851ADDMD1010001+9999REMSYN064CMTI   46// MCGM4 46/// /2308 11206 40385 50000 90700 333 91216;
0090997262999992005011608004+46533-087367FM-18+0197MCGM V0202301N009019999999N9999999N1-02061+99999103861ADDMD1610041+9999REMSYN064CMTI   46// MCGM4 46/// /2309 11206 40386 56004 90800 333 91216;
0090997262999992005011609004+46533-087367FM-18+0197MCGM V0202301N008019999999N9999999N1-02091+99999103861ADDMD1410001+9999REMSYN064CMTI   46// MCGM4 46/// /2308 11209 40386 54000 90900 333 91215;
0090997262999992005011610004+46533-087367FM-18+0197MCGM V0202301N009019999999N9999999N1-02081+99999103821ADDMD1810031+9999REMSYN064CMTI   46// MCGM4 46/// /2309 11208 40382 58003 91000 333 91216;
0090997262999992005011611004+46533-087367FM-18+0197MCGM V0202301N008019999999N9999999N1-02021+99999103761ADDMD1810101+9999REMSYN064CMTI   46// MCGM4 46/// /2308 11202 40376 58010 91100 333 91216;
0090997262999992005011612004+46533-087367FM-18+0197MCGM V0202401N006019999999N9999999N1-02011+99999103721ADDMD1710141+9999REMSYN064CMTI   46// MCGM4 46/// /2406 11201 40372 57014 91200 333 91213;
0090997262999992005011613004+46533-087367FM-18+0197MCGM V0202401N006019999999N9999999N1-01981+99999103701ADDMD1610121+9999REMSYN064CMTI   46// MCGM4 46/// /2406 11198 40370 56012 91300 333 91210;
0090997262999992005011614004+46533-087367FM-18+0197MCGM V0202301N007019999999N9999999N1-01921+99999103681ADDMD1610081+9999REMSYN064CMTI   46// MCGM4 46/// /2307 11192 40368 56008 91400 333 91210;
0090997262999992005011615004+46533-087367FM-18+0197MCGM V0202301N006019999999N9999999N1-01791+99999103671ADDMD1710051+9999REMSYN064CMTI   46// MCGM4 46/// /2306 11179 40367 57005 91500 333 91209;
0090997262999992005011616004+46533-087367FM-18+0197MCGM V0202501N004019999999N9999999N1-01571+99999103671ADDMD1710031+9999REMSYN064CMTI   46// MCGM4 46/// /2504 11157 40367 57003 91600 333 91210;
0090997262999992005011617004+46533-087367FM-18+0197MCGM V0202601N007019999999N9999999N1-01481+99999103641ADDMD1810041+9999REMSYN064CMTI   46// MCGM4 46/// /2607 11148 40364 58004 91700 333 91210;
0090997262999992005011618004+46533-087367FM-18+0197MCGM V0202601N005019999999N9999999N1-01381+99999103541ADDMD1810131+9999REMSYN064CMTI   46// MCGM4 46/// /2605 11138 40354 58013 91800 333 91209;
0090997262999992005011619004+46533-087367FM-18+0197MCGM V0202801N005019999999N9999999N1-01351+99999103491ADDMD1810181+9999REMSYN064CMTI   46// MCGM4 46/// /2805 11135 40349 58018 91900 333 91208;
0090997262999992005011620004+46533-087367FM-18+0197MCGM V0202501N003019999999N9999999N1-01381+99999103471ADDMD1610171+9999REMSYN064CMTI   46// MCGM4 46/// /2503 11138 40347 56017 92000 333 91209;
0090997262999992005011621004+46533-087367FM-18+0197MCGM V0202501N002019999999N9999999N1-01411+99999103511ADDMD1510031+9999REMSYN064CMTI   46// MCGM4 46/// /2502 11141 40351 55003 92100 333 91208;
0090997262999992005011622004+46533-087367FM-18+0197MCGM V0202701N005019999999N9999999N1-01471+99999103531ADDMD1210041+9999REMSYN064CMTI   46// MCGM4 46/// /2705 11147 40353 52004 92200 333 91209;
0090997262999992005011623004+46533-087367FM-18+0197MCGM V0202601N001019999999N9999999N1-01581+99999103591ADDMD1310121+9999REMSYN064CMTI   46// MCGM4 46/// /2601 11158 40359 53012 92300 333 91205;
0090997262999992005011700004+46530-087370FM-18+0197MCGM V0202301N006019999999N9999999N1-01641+99999103591ADDMD1210081+9999REMSYN064CMTI   46// MCGM4 46/// /2306 11164 40359 52008 90000 333 91210;
0090997262999992005011701004+46530-087370FM-18+0197MCGM V0202601N002019999999N9999999N1-01701+99999103611ADDMD1110081+9999REMSYN064CMTI   46// MCGM4 46/// /2602 11170 40361 51008 90100 333 91209;
0090997262999992005011702004+46530-087370FM-18+0197MCGM V0202601N005019999999N9999999N1-01751+99999103621ADDMD1210031+9999REMSYN064CMTI   46// MCGM4 46/// /2605 11175 40362 52003 90200 333 91212;
0090997262999992005011703004+46530-087370FM-18+0197MCGM V0202501N005019999999N9999999N1-01851+99999103611ADDMD1410001+9999REMSYN064CMTI   46// MCGM4 46/// /2505 11185 40361 54000 90300 333 91211;
0090997262999992005011704004+46530-087370FM-18+0197MCGM V0202401N006019999999N9999999N1-01921+99999103611ADDMD1410001+9999REMSYN064CMTI   46// MCGM4 46/// /2406 11192 40361 54000 90400 333 91213;
0090997262999992005011705004+46530-087370FM-18+0197MCGM V0202501N005019999999N9999999N1-01931+99999103641ADDMD1510001+9999REMSYN064CMTI   46// MCGM4 46/// /2505 11193 40364 55000 90500 333 91208;
0090997262999992005011705004+46533-087367FM-18+0197MCGM V0202501N005019999999N9999999N1-01931+99999103641ADDMD1510001+9999REMSYN064CMTI   46// MCGM4 46/// /2505 11193 40364 55000 90500 333 91208;
0090997262999992005011706004+46530-087370FM-18+0197MCGM V0202401N004019999999N9999999N1-01941+99999103651ADDMD1210041+9999REMSYN064CMTI   46// MCGM4 46/// /2404 11194 40365 52004 90600 333 91209;
0090997262999992005011707004+46530-087370FM-18+0197MCGM V0202601N005019999999N9999999N1-01931+99999103661ADDMD1110051+9999REMSYN064CMTI   46// MCGM4 46/// /2605 11193 40366 51005 90700 333 91208;
0090997262999992005011708004+46530-087370FM-18+0197MCGM V0202501N003019999999N9999999N1-01861+99999103691ADDMD1310051+9999REMSYN064CMTI   46// MCGM4 46/// /2503 11186 40369 53005 90800 333 91211;
0090997262999992005011709004+46530-087370FM-18+0197MCGM V0202601N003019999999N9999999N1-01881+99999103671ADDMD1410001+9999REMSYN064CMTI   46// MCGM4 46/// /2603 11188 40367 54000 90900 333 91208;
0090997262999992005011710004+46530-087370FM-18+0197MCGM V0202501N005019999999N9999999N1-01901+99999103691ADDMD1110031+9999REMSYN064CMTI   46// MCGM4 46/// /2505 11190 40369 51003 91000 333 91209;
0090997262999992005011711004+46530-087370FM-18+0197MCGM V0202601N003019999999N9999999N1-01901+99999103721ADDMD1310031+9999REMSYN064CMTI   46// MCGM4 46/// /2603 11190 40372 53003 91100 333 91211;
0090997262999992005011712004+46530-087370FM-18+0197MCGM V0202501N004019999999N9999999N1-01931+99999103761ADDMD1310091+9999REMSYN064CMTI   46// MCGM4 46/// /2504 11193 40376 53009 91200 333 91207;
0090997262999992005011713004+46530-087370FM-18+0197MCGM V0202801N006019999999N9999999N1-01861+99999103801ADDMD1310111+9999REMSYN064CMTI   46// MCGM4 46/// /2806 11186 40380 53011 91300 333 91213;
0090997262999992005011714004+46530-087370FM-18+0197MCGM V0202801N006019999999N9999999N1-01851+99999103841ADDMD1210121+9999REMSYN064CMTI   46// MCGM4 46/// /2806 11185 40384 52012 91400 333 91213;
0090997262999992005011715004+46530-087370FM-18+0197MCGM V0202901N006019999999N9999999N1-01831+99999103901ADDMD1310141+9999REMSYN064CMTI   46// MCGM4 46/// /2906 11183 40390 53014 91500 333 91212;
0090997262999992005011716004+46530-087370FM-18+0197MCGM V0202801N007019999999N9999999N1-01801+99999103971ADDMD1310171+9999REMSYN064CMTI   46// MCGM4 46/// /2807 11180 40397 53017 91600 333 91212;
0090997262999992005011717004+46530-087370FM-18+0197MCGM V0202801N008019999999N9999999N1-01751+99999104011ADDMD1110171+9999REMSYN064CMTI   46// MCGM4 46/// /2808 11175 40401 51017 91700 333 91215;
0090997262999992005011718004+46530-087370FM-18+0197MCGM V0202701N005019999999N9999999N1-01701+99999104031ADDMD1110131+9999REMSYN064CMTI   46// MCGM4 46/// /2705 11170 40403 51013 91800 333 91214;
0090997262999992005011719004+46530-087370FM-18+0197MCGM V0202901N009019999999N9999999N1-01661+99999104051ADDMD1110081+9999REMSYN064CMTI   46// MCGM4 46/// /2909 11166 40405 51008 91900 333 91216;
0090997262999992005011720004+46530-087370FM-18+0197MCGM V0202801N005019999999N9999999N1-01601+99999104071ADDMD1210061+9999REMSYN064CMTI   46// MCGM4 46/// /2805 11160 40407 52006 92000 333 91212;
0090997262999992005011721004+46530-087370FM-18+0197MCGM V0202901N010019999999N9999999N1-01621+99999104111ADDMD1310081+9999REMSYN064CMTI   46// MCGM4 46/// /2910 11162 40411 53008 92100 333 91213;
0090997262999992005011722004+46530-087370FM-18+0197MCGM V0203001N007019999999N9999999N1-01651+99999104141ADDMD1310091+9999REMSYN064CMTI   46// MCGM4 46/// /3007 11165 40414 53009 92200 333 91212;
0067997262999992005011723004+46530-087370FM-18+0197MCGM V0202701N005019999999N9999999N1-01741+99999104171REMSYN058CMTI   46// MCGM4 46/// /2705 11174 40417 92306 333 91212;
0090997262999992005011800004+46533-087367FM-18+0197MCGM V0202501N004019999999N9999999N1-01831+99999104191ADDMD1210081+9999REMSYN064CMTI   46// MCGM4 46/// /2504 11183 40419 52008 90000 333 91209;
0090997262999992005011801004+46533-087367FM-18+0197MCGM V0202501N002019999999N9999999N1-01861+99999104191ADDMD1210051+9999REMSYN064CMTI   46// MCGM4 46/// /2502 11186 40419 52005 90100 333 91207;
0067997262999992005011802004+46533-087367FM-18+0197MCGM V0202501N005019999999N9999999N1-01861+99999104181REMSYN058CMTI   46// MCGM4 46/// /2505 11186 40418 90200 333 91210;
0090997262999992005011803004+46533-087367FM-18+0197MCGM V0202401N004019999999N9999999N1-01861+99999104171ADDMD1410001+9999REMSYN064CMTI   46// MCGM4 46/// /2404 11186 40417 54000 90300 333 91209;
0090997262999992005011804004+46533-087367FM-18+0197MCGM V0202601N004019999999N9999999N1-01841+99999104131ADDMD1810061+9999REMSYN064CMTI   46// MCGM4 46/// /2604 11184 40413 58006 90400 333 91210;
0090997262999992005011805004+46533-087367FM-18+0197MCGM V0202501N005019999999N9999999N1-01831+99999104101ADDMD1810081+9999REMSYN064CMTI   46// MCGM4 46/// /2505 11183 40410 58008 90500 333 91211;
0090997262999992005011806004+46533-087367FM-18+0197MCGM V0202401N005019999999N9999999N1-01851+99999104011ADDMD1810161+9999REMSYN064CMTI  46/// MCGM4 46/// /2405 11185 40401 58016 90600 333 91209;
0090997262999992005011807004+46533-087367FM-18+0197MCGM V0202201N008019999999N9999999N1-01901+99999103941ADDMD1810191+9999REMSYN064CMTI   46// MCGM4 46/// /2208 11190 40394 58019 90700 333 91212;
0090997262999992005011808004+46533-087367FM-18+0197MCGM V0202301N006019999999N9999999N1-01911+99999103961ADDMD1610141+9999REMSYN064CMTI   46// MCGM4 46/// /2306 11191 40396 56014 90800 333 91210;
0090997262999992005011809004+46533-087367FM-18+0197MCGM V0202301N002019999999N9999999N1-01951+99999103901ADDMD1610111+9999REMSYN064CMTI   46// MCGM4 46/// /2302 11195 40390 56011 90900 333 91207;
0090997262999992005011810004+46533-087367FM-18+0197MCGM V0202201N008019999999N9999999N1-01851+99999103831ADDMD1810111+9999REMSYN064CMTI   46// MCGM4 46/// /2208 11185 40383 58011 91000 333 91212;
0090997262999992005011811004+46533-087367FM-18+0197MCGM V0202001N008019999999N9999999N1-01741+99999103691ADDMD1810271+9999REMSYN064CMTI   46// MCGM4 46/// /2008 11174 40369 58027 91100 333 91216;
0090997262999992005011812004+46533-087367FM-18+0197MCGM V0201501N012019999999N9999999N1-01821+99999103561ADDMD1810341+9999REMSYN064CMTI   46// MCGM4 46/// /1512 11182 40356 58034 91200 333 91215;
0090997262999992005011813004+46533-087367FM-18+0197MCGM V0201801N012019999999N9999999N1-01811+99999103481ADDMD1610351+9999REMSYN064CMTI   46// MCGM4 46/// /1812 11181 40348 56035 91300 333 91219;
0090997262999992005011814004+46533-087367FM-18+0197MCGM V0201601N013019999999N9999999N1-01791+99999103291ADDMD1810401+9999REMSYN064CMTI   46// MCGM4 46/// /1613 11179 40329 58040 91400 333 91217;
0090997262999992005011815004+46533-087367FM-18+0197MCGM V0201801N010019999999N9999999N1-01741+99999103181ADDMD1810381+9999REMSYN064CMTI   46// MCGM4 46/// /1810 11174 40318 58038 91500 333 91216;
0090997262999992005011816004+46533-087367FM-18+0197MCGM V0201701N012019999999N9999999N1-01521+99999102921ADDMD1810561+9999REMSYN064CMTI   46// MCGM4 46/// /1712 11152 40292 58056 91600 333 91221;
0090997262999992005011817004+46533-087367FM-18+0197MCGM V0201801N015019999999N9999999N1-01321+99999102591ADDMD1810701+9999REMSYN064CMTI   46// MCGM4 46/// /1815 11132 40259 58070 91700 333 91222;
0090997262999992005011818004+46533-087367FM-18+0197MCGM V0201801N022019999999N9999999N1-01171+99999102381ADDMD1610801+9999REMSYN064CMTI   46// MCGM4 46/// /1822 11117 40238 56080 91800 333 91228;
0090997262999992005011819004+46533-087367FM-18+0197MCGM V0201701N025019999999N9999999N1-01091+99999101981ADDMD1810941+9999REMSYN064CMTI   46// MCGM4 46/// /1725 11109 40198 58094 91900 333 91236;
0090997262999992005011820004+46533-087367FM-18+0197MCGM V0201701N025019999999N9999999N1-01041+99999101741ADDMD1810851+9999REMSYN064CMTI   46// MCGM4 46/// /1725 11104 40174 58085 92000 333 91232;
0090997262999992005011821004+46533-087367FM-18+0197MCGM V0201701N024019999999N9999999N1-00971+99999101361ADDMD1611021+9999REMSYN064CMTI   46// MCGM4 46/// /1724 11097 40136 56102 92100 333 91241;
0090997262999992005011822004+46533-087367FM-18+0197MCGM V0201801N027019999999N9999999N1-00921+99999101151ADDMD1610831+9999REMSYN064CMTI   46// MCGM4 46/// /1827 11092 40115 56083 92200 333 91238;
0090997262999992005011823004+46533-087367FM-18+0197MCGM V0201701N023019999999N9999999N1-01081+99999100961ADDMD1610781+9999REMSYN064CMTI   46// MCGM4 46/// /1723 11108 40096 56078 92300 333 91238;
0090997262999992005011900004+46533-087367FM-18+0197MCGM V0201801N024019999999N9999999N1-01061+99999100911ADDMD1610451+9999REMSYN064CMTI   46// MCGM4 46/// /1824 11106 40091 56045 90000 333 91231;
0090997262999992005011901004+46533-087367FM-18+0197MCGM V0201701N013019999999N9999999N1-01021+99999101051ADDMD1510101+9999REMSYN064CMTI   46// MCGM4 46/// /1713 11102 40105 55010 90100 333 91219;
0090997262999992005011902004+46533-087367FM-18+0197MCGM V0201801N017019999999N9999999N1-00981+99999100771ADDMD1810191+9999REMSYN064CMTI   46// MCGM4 46/// /1817 11098 40077 58019 90200 333 91226;
0090997262999992005011903004+46533-087367FM-18+0197MCGM V0201801N015019999999N9999999N1-00941+99999100641ADDMD1810271+9999REMSYN064CMTI   46// MCGM4 46/// /1815 11094 40064 58027 90300 333 91225;
0090997262999992005011904004+46533-087367FM-18+0197MCGM V0201801N012019999999N9999999N1-00911+99999100561ADDMD1610491+9999REMSYN064CMTI   46// MCGM4 46/// /1812 11091 40056 56049 90400 333 91218;
0090997262999992005011905004+46533-087367FM-18+0197MCGM V0202101N010019999999N9999999N1-00911+99999100461ADDMD1610311+9999REMSYN064CMTI   46// MCGM4 46/// /2110 11091 40046 56031 90500 333 91222;
0090997262999992005011906004+46533-087367FM-18+0197MCGM V0201801N006019999999N9999999N1-00881+99999100441ADDMD1610201+9999REMSYN064CMTI   46// MCGM4 46/// /1806 11088 40044 56020 90600 333 91209;
0090997262999992005011907004+46533-087367FM-18+0197MCGM V0201801N004019999999N9999999N1-00861+99999100381ADDMD1610181+9999REMSYN064CMTI   46// MCGM4 46/// /1804 11086 40038 56018 90700 333 91207;
0090997262999992005011908004+46533-087367FM-18+0197MCGM V0202301N008019999999N9999999N1-00841+99999100401ADDMD1710061+9999REMSYN064CMTI   46// MCGM4 46/// /2308 11084 40040 57006 90800 333 91212;
0090997262999992005011909004+46533-087367FM-18+0197MCGM V0202501N005019999999N9999999N1-00751+99999100441ADDMD1510001+9999REMSYN064CMTI   46// MCGM4 46/// /2505 11075 40044 55000 90900 333 91211;
0090997262999992005011910004+46533-087367FM-18+0197MCGM V0202801N006019999999N9999999N1-00631+99999100551ADDMD1310171+9999REMSYN064CMTI   46// MCGM4 46/// /2806 11063 40055 53017 91000 333 91208;
0090997262999992005011911004+46533-087367FM-18+0197MCGM V0203001N009019999999N9999999N1-00511+99999100701ADDMD1310301+9999REMSYN064CMTI   46// MCGM4 46/// /3009 11051 40070 53030 91100 333 91217;
0090997262999992005011912004+46533-087367FM-18+0197MCGM V0203001N011019999999N9999999N1-00521+99999100871ADDMD1310431+9999REMSYN064CMTI   46// MCGM4 46/// /3011 11052 40087 53043 91200 333 91220;
0090997262999992005011913004+46533-087367FM-18+0197MCGM V0203101N011019999999N9999999N1-00581+99999101051ADDMD1310501+9999REMSYN064CMTI   46// MCGM4 46/// /3111 11058 40105 53050 91300 333 91216;
0090997262999992005011914004+46533-087367FM-18+0197MCGM V0203201N010019999999N9999999N1-00621+99999101221ADDMD1210521+9999REMSYN064CMTI   46// MCGM4 46/// /3210 11062 40122 52052 91400 333 91217;
0090997262999992005011915004+46533-087367FM-18+0197MCGM V0203201N010019999999N9999999N1-00671+99999101371ADDMD1110501+9999REMSYN064CMTI   46// MCGM4 46/// /3210 11067 40137 51050 91500 333 91225;
0090997262999992005011916004+46533-087367FM-18+0197MCGM V0203301N011019999999N9999999N1-00771+99999101561ADDMD1310511+9999REMSYN064CMTI   46// MCGM4 46/// /3311 11077 40156 53051 91600 333 91224;
0090997262999992005011917004+46533-087367FM-18+0197MCGM V0203201N012019999999N9999999N1-00901+99999101711ADDMD1210491+9999REMSYN064CMTI   46// MCGM4 46/// /3212 11090 40171 52049 91700 333 91225;
0090997262999992005011918004+46533-087367FM-18+0197MCGM V0203201N014019999999N9999999N1-00951+99999101801ADDMD1110431+9999REMSYN064CMTI   46// MCGM4 46/// /3214 11095 40180 51043 91800 333 91222;
0090997262999992005011919004+46533-087367FM-18+0197MCGM V0203101N010019999999N9999999N1-01021+99999101891ADDMD1110331+9999REMSYN064CMTI   46// MCGM4 46/// /3110 11102 40189 51033 91900 333 91221;
0090997262999992005011920004+46533-087367FM-18+0197MCGM V0203001N010019999999N9999999N1-00991+99999101971ADDMD1110261+9999REMSYN064CMTI   46// MCGM4 46/// /3010 11099 40197 51026 92000 333 91214;
0090997262999992005011921004+46533-087367FM-18+0197MCGM V0203201N007019999999N9999999N1-00931+99999102061ADDMD1210261+9999REMSYN064CMTI   46// MCGM4 46/// /3207 11093 40206 52026 92100 333 91218;
0090997262999992005011922004+46533-087367FM-18+0197MCGM V0203201N009019999999N9999999N1-00911+99999102161ADDMD1310271+9999REMSYN064CMTI   46// MCGM4 46/// /3209 11091 40216 53027 92200 333 91216;
0090997262999992005011923004+46533-087367FM-18+0197MCGM V0203001N005019999999N9999999N1-00971+99999102191ADDMD1110221+9999REMSYN064CMTI   46// MCGM4 46/// /3005 11097 40219 51022 92300 333 91210;
0067997262999992005012000004+46533-087367FM-18+0197MCGM V0203101N005019999999N9999999N1-00981+99999102271REMSYN058CMTI   46// MCGM4 46/// /3105 11098 40227 90006 333 91209;
0090997262999992005012001004+46533-087367FM-18+0197MCGM V0202901N006019999999N9999999N1-00971+99999102321ADDMD1210161+9999REMSYN064CMTI   46// MCGM4 46/// /2906 11097 40232 52016 90100 333 91213;
0090997262999992005012002004+46533-087367FM-18+0197MCGM V0202801N005019999999N9999999N1-00951+99999102281ADDMD1210091+9999REMSYN064CMTI   46// MCGM4 46/// /2805 11095 40228 52009 90200 333 91208;
0067997262999992005012004004+46533-087367FM-18+0197MCGM V0202901N003019999999N9999999N1-00931+99999102311REMSYN058CMTI   46// MCGM4 46/// /2903 11093 40231 90418 333 91207;
0090997262999992005012005004+46533-087367FM-18+0197MCGM V0202801N003019999999N9999999N1-00931+99999102321ADDMD1110041+9999REMSYN064CMTI   46// MCGM4 46/// /2803 11093 40232 51004 90500 333 91207;
0090997262999992005012006004+46533-087367FM-18+0197MCGM V0202501N001019999999N9999999N1-00901+99999102321ADDMD1410001+9999REMSYN064CMTI   46// MCGM4 46/// /2501 11090 40232 54000 90600 333 91206;
0090997262999992005012007004+46533-087367FM-18+0197MCGM V0202801N004019999999N9999999N1-00931+99999102271ADDMD1810031+9999REMSYN064CMTI   46// MCGM4 46/// /2804 11093 40227 58003 90700 333 91207;
0090997262999992005012008004+46533-087367FM-18+0197MCGM V0202801N001019999999N9999999N1-00941+99999102241ADDMD1810081+9999REMSYN064CMTI   46// MCGM4 46/// /2801 11094 40224 58008 90800 333 91208;
0090997262999992005012009004+46533-087367FM-18+0197MCGM V0202901N005019999999N9999999N1-00931+99999102191ADDMD1710131+9999REMSYN064CMTI   46// MCGM4 46/// /2905 11093 40219 57013 90900 333 91208;
0090997262999992005012010004+46533-087367FM-18+0197MCGM V0202801N004019999999N9999999N1-00941+99999102171ADDMD1610101+9999REMSYN064CMTI   46// MCGM4 46/// /2804 11094 40217 56010 91000 333 91207;
0090997262999992005012011004+46533-087367FM-18+0197MCGM V0202801N005019999999N9999999N1-00921+99999102111ADDMD1810131+9999REMSYN064CMTI   46// MCGM4 46/// /2805 11092 40211 58013 91100 333 91207;
0090997262999992005012012004+46533-087367FM-18+0197MCGM V0201901N001019999999N9999999N1-00881+99999102121ADDMD1710071+9999REMSYN064CMTI   46// MCGM4 46/// /1901 11088 40212 57007 91200 333 91205;
0090997262999992005012013004+46533-087367FM-18+0197MCGM V0201601N010019999999N9999999N1-00931+99999102151ADDMD1510001+9999REMSYN064CMTI   46// MCGM4 46/// /1610 11093 40215 55000 91300 333 91212;
0090997262999992005012014004+46533-087367FM-18+0197MCGM V0201801N007019999999N9999999N1-00951+99999102241ADDMD1310131+9999REMSYN064CMTI   46// MCGM4 46/// /1807 11095 40224 53013 91400 333 91210;
0090997262999992005012015004+46533-087367FM-18+0197MCGM V0201701N005019999999N9999999N1-00961+99999102261ADDMD1110141+9999REMSYN064CMTI   46// MCGM4 46/// /1705 11096 40226 51014 91500 333 91208;
0067997262999992005012016004+46533-087367FM-18+0197MCGM V0201701N005019999999N9999999N1-00921+99999102321REMSYN058CMTI   46// MCGM4 46/// /1705 11092 40232 91606 333 91207;
0067997262999992005012017004+46533-087367FM-18+0197MCGM V0201801N003019999999N9999999N1-00861+99999102281REMSYN058CMTI   46// MCGM4 46/// /1803 11086 40228 91718 333 91206;
0067997262999992005012018004+46533-087367FM-18+0197MCGM V0201301N004019999999N9999999N1-00841+99999102261REMSYN058CMTI   46// MCGM4 46/// /1304 11084 40226 91806 333 91207;
0067997262999992005012019004+46533-087367FM-18+0197MCGM V0201001N004019999999N9999999N1-00831+99999102271REMSYN058CMTI   46// MCGM4 46/// /1004 11083 40227 91900 333 91207;
0090997262999992005012020004+46533-087367FM-18+0197MCGM V0200701N005019999999N9999999N1-00831+99999102271ADDMD1710031+9999REMSYN064CMTI   46// MCGM4 46/// /0705 11083 40227 57003 92000 333 91207;
0067997262999992005012021004+46533-087367FM-18+0197MCGM V0201201N005019999999N9999999N1-00821+99999102301REMSYN058CMTI   46// MCGM4 46/// /1205 11082 40230 92100 333 91207;
0067997262999992005012022004+46533-087367FM-18+0197MCGM V0201001N005019999999N9999999N1-00831+99999102361REMSYN058CMTI   46// MCGM4 46/// /1005 11083 40236 92200 333 91206;
0090997262999992005012023004+46533-087367FM-18+0197MCGM V0201101N004019999999N9999999N1-00831+99999102411ADDMD1210141+9999REMSYN064CMTI   46// MCGM4 46/// /1104 11083 40241 52014 92300 333 91208;
0067997262999992005012100004+46533-087367FM-18+0197MCGM V0201301N005019999999N9999999N1-00901+99999102491REMSYN058CMTI   46// MCGM4 46/// /1305 11090 40249 90000 333 91210;
0067997262999992005012101004+46533-087367FM-18+0197MCGM V0201701N005019999999N9999999N1-00991+99999102541REMSYN058CMTI   46// MCGM4 46/// /1705 11099 40254 90100 333 91206;
0090997262999992005012102004+46533-087367FM-18+0197MCGM V0209999C000019999999N9999999N1-01041+99999102561ADDMD1110151+9999REMSYN064CMTI   46// MCGM4 46/// /0000 11104 40256 51015 90200 333 91205;
0090997262999992005012103004+46533-087367FM-18+0197MCGM V0201901N004019999999N9999999N1-01061+99999102611ADDMD1210121+9999REMSYN064CMTI   46// MCGM4 46/// /1904 11106 40261 52012 90300 333 91206;
0090997262999992005012104004+46533-087367FM-18+0197MCGM V0201901N004019999999N9999999N1-01031+99999102601ADDMD1210061+9999REMSYN064CMTI   46// MCGM4 46/// /1904 11103 40260 52006 90400 333 91206;
0090997262999992005012105004+46533-087367FM-18+0197MCGM V0202101N003019999999N9999999N1-01061+99999102621ADDMD1110061+9999REMSYN064CMTI   46// MCGM4 46/// /2103 11106 40262 51006 90500 333 91205;
0090997262999992005012107004+46533-087367FM-18+0197MCGM V0202301N003019999999N9999999N1-01031+99999102631ADDMD1210031+9999REMSYN064CMTI   46// MCGM4 46/// /2303 11103 40263 52003 90700 333 91206;
0090997262999992005012108004+46533-087367FM-18+0197MCGM V0203401N006019999999N9999999N1-00811+99999102651ADDMD1210031+9999REMSYN064CMTI   46// MCGM4 46/// /3406 11081 40265 52003 90800 333 91212;
0067997262999992005012109004+46533-087367FM-18+0197MCGM V0203401N008019999999N9999999N1-00821+99999102661REMSYN058CMTI   46// MCGM4 46/// /3408 11082 40266 90900 333 91212;
0090997262999992005012110004+46533-087367FM-18+0197MCGM V0202101N001019999999N9999999N1-00921+99999102691ADDMD1310061+9999REMSYN064CMTI   46// MCGM4 46/// /2101 11092 40269 53006 91000 333 91205;
0090997262999992005012111004+46533-087367FM-18+0197MCGM V0202701N004019999999N9999999N1-00941+99999102681ADDMD1210031+9999REMSYN064CMTI   46// MCGM4 46/// /2704 11094 40268 52003 91100 333 91206;
0090997262999992005012112004+46533-087367FM-18+0197MCGM V0202701N002019999999N9999999N1-00941+99999102661ADDMD1010001+9999REMSYN064CMTI   46// MCGM4 46/// /2702 11094 40266 50000 91200 333 91204;
0090997262999992005012113004+46533-087367FM-18+0197MCGM V0209999C000019999999N9999999N1-00921+99999102651ADDMD1710041+9999REMSYN064CMTI   46// MCGM4 46/// /0000 11092 40265 57004 91300 333 91203;
0090997262999992005012114004+46533-087367FM-18+0197MCGM V0209999C000019999999N9999999N1-00931+99999102631ADDMD1710051+9999REMSYN064CMTI   46// MCGM4 46/// /0000 11093 40263 57005 91400 333 91203;
0067997262999992005012115004+46533-087367FM-18+0197MCGM V0202101N006019999999N9999999N1-01061+99999102631REMSYN058CMTI   46// MCGM4 46/// /2106 11106 40263 91554 333 91209;
0090997262999992005012116004+46533-087367FM-18+0197MCGM V0202101N007019999999N9999999N1-01061+99999102631ADDMD1410001+9999REMSYN064CMTI   46// MCGM4 46/// /2107 11106 40263 54000 91600 333 91210;
0067997262999992005012118004+46533-087367FM-18+0197MCGM V0201701N010019999999N9999999N1-00901+99999102471REMSYN058CMTI   46// MCGM4 46/// /1710 11090 40247 91818 333 91215;
0067997262999992005012119004+46533-087367FM-18+0197MCGM V0201601N010019999999N9999999N1-00791+99999102341REMSYN058CMTI   46// MCGM4 46/// /1610 11079 40234 91918 333 91217;
0067997262999992005012120004+46533-087367FM-18+0197MCGM V0201501N012019999999N9999999N1-00771+99999102261REMSYN058CMTI   46// MCGM4 46/// /1512 11077 40226 92000 333 91216;
0067997262999992005012121004+46533-087367FM-18+0197MCGM V0201701N011019999999N9999999N1-00771+99999102201REMSYN058CMTI   46// MCGM4 46/// /1711 11077 40220 92100 333 91213;
0067997262999992005012122004+46533-087367FM-18+0197MCGM V0201601N013019999999N9999999N1-00791+99999102151REMSYN058CMTI   46// MCGM4 46/// /1613 11079 40215 92200 333 91217;
0090997262999992005012123004+46533-087367FM-18+0197MCGM V0201501N014019999999N9999999N1-00851+99999102101ADDMD1610161+9999REMSYN064CMTI   46// MCGM4 46/// /1514 11085 40210 56016 92300 333 91217;
0090997262999992005012200004+46533-087367FM-18+0197MCGM V0201501N019019999999N9999999N1-00871+99999102061ADDMD1610141+9999REMSYN064CMTI   46// MCGM4 46/// /1519 11087 40206 56014 90000 333 91222;
0090997262999992005012201004+46533-087367FM-18+0197MCGM V0201501N014019999999N9999999N1-00931+99999102061ADDMD1610091+9999REMSYN064CMTI   46// MCGM4 46/// /1514 11093 40206 56009 90100 333 91217;
0090997262999992005012202004+46533-087367FM-18+0197MCGM V0201301N014019999999N9999999N1-00961+99999101931ADDMD1810171+9999REMSYN064CMTI   46// MCGM4 46/// /1314 11096 40193 58017 90200 333 91216;
0073997262999992005012203004+46533-087367FM-18+0197MCGM V0201201N007219999999N9999999N1-01041+99999101871REMSYN064CMAN  22034 MCGM4 46/// /1214 11104 40187 90306 222// 000191212;
0090997262999992005012204004+46533-087367FM-18+0197MCGM V0201301N013019999999N9999999N1-01121+99999101801ADDMD1710261+9999REMSYN064CMTI   46// MCGM4 46/// /1313 11112 40180 57026 90400 333 91217;
0090997262999992005012205004+46533-087367FM-18+0197MCGM V0201501N012019999999N9999999N1-01161+99999101771ADDMD1710161+9999REMSYN064CMTI   46// MCGM4 46/// /1512 11116 40177 57016 90500 333 91214;
0090997262999992005012207004+46533-087367FM-18+0197MCGM V0201301N006019999999N9999999N1-01101+99999101691ADDMD1710111+9999REMSYN064CMTI   46// MCGM4 46/// /1306 11110 40169 57011 90700 333 91209;
0090997262999992005012208004+46533-087367FM-18+0197MCGM V0201001N009019999999N9999999N1-01041+99999101691ADDMD1610081+9999REMSYN064CMTI   46// MCGM4 46/// /1009 11104 40169 56008 90800 333 91212;
0090997262999992005012209004+46533-087367FM-18+0197MCGM V0200901N010019999999N9999999N1-00971+99999101731ADDMD1510001+9999REMSYN064CMTI   46// MCGM4 46/// /0910 11097 40173 55000 90900 333 91214;
0090997262999992005012210004+46533-087367FM-18+0197MCGM V0200801N010019999999N9999999N1-00941+99999101721ADDMD1210031+9999REMSYN064CMTI   46// MCGM4 46/// /0810 11094 40172 52003 91000 333 91213;
0090997262999992005012211004+46533-087367FM-18+0197MCGM V0200701N018019999999N9999999N1-00891+99999101791ADDMD1310101+9999REMSYN064CMTI   46// MCGM4 46/// /0718 11089 40179 53010 91100 333 91223;
0090997262999992005012213004+46533-087367FM-18+0197MCGM V0201001N011019999999N9999999N1-00951+99999102011ADDMD1210291+9999REMSYN064CMTI   46// MCGM4 46/// /1011 11095 40201 52029 91300 333 91215;
0090997262999992005012214004+46533-087367FM-18+0197MCGM V0201501N002019999999N9999999N1-00951+99999102111ADDMD1210321+9999REMSYN064CMTI   46// MCGM4 46/// /1502 11095 40211 52032 91400 333 91205;
0067997262999992005012215004+46533-087367FM-18+0197MCGM V0200401N009019999999N9999999N1-00651+99999102191REMSYN058CMTI   46// MCGM4 46/// /0409 11065 40219 91500 333 91213;
0090997262999992005012216004+46533-087367FM-18+0197MCGM V0203601N006019999999N9999999N1-00691+99999102341ADDMD1310331+9999REMSYN064CMTI   46// MCGM4 46/// /3606 11069 40234 53033 91600 333 91212;
0090997262999992005012217004+46533-087367FM-18+0197MCGM V0203401N011019999999N9999999N1-00741+99999102441ADDMD1310331+9999REMSYN064CMTI   46// MCGM4 46/// /3411 11074 40244 53033 91700 333 91215;
0090997262999992005012218004+46533-087367FM-18+0197MCGM V0203401N012019999999N9999999N1-00831+99999102551ADDMD1110361+9999REMSYN064CMTI   46// MCGM4 46/// /3412 11083 40255 51036 91800 333 91221;
0090997262999992005012219004+46533-087367FM-18+0197MCGM V0203601N005019999999N9999999N1-00861+99999102631ADDMD1110291+9999REMSYN064CMTI   46// MCGM4 46/// /3605 11086 40263 51029 91900 333 91210;
0090997262999992005012220004+46533-087367FM-18+0197MCGM V0203401N018019999999N9999999N1-00881+99999102701ADDMD1110261+9999REMSYN064CMTI   46// MCGM4 46/// /3418 11088 40270 51026 92000 333 91224;
0066997262999992005012221004+46533-087367FM-18+0197MCGM V0203501N005119999999N9999999N1-00921+99999102821REMSYN057CMAN 22214 MCGM4 46/// /3510 11092 40282 92106 333 91216;
0090997262999992005012222004+46533-087367FM-18+0197MCGM V0203401N017019999999N9999999N1-00921+99999102941ADDMD1210311+9999REMSYN064CMTI   46// MCGM4 46/// /3417 11092 40294 52031 92200 333 91226;
0090997262999992005012223004+46533-087367FM-18+0197MCGM V0203401N016019999999N9999999N1-00921+99999103061ADDMD1210361+9999REMSYN064CMTI   46// MCGM4 46/// /3416 11092 40306 52036 92300 333 91224;
0067997262999992005012300004+46530-087370FM-18+0197MCGM V0203501N008019999999N9999999N1-00881+99999103181REMSYN058CMTI   46// MCGM4 46/// /3508 11088 40318 90000 333 91216;
0090997262999992005012301004+46530-087370FM-18+0197MCGM V0203401N018019999999N9999999N1-00901+99999103251ADDMD1110311+9999REMSYN064CMTI   46// MCGM4 46/// /3418 11090 40325 51031 90100 333 91223;
0090997262999992005012302004+46530-087370FM-18+0197MCGM V0203401N013019999999N9999999N1-00861+99999103271ADDMD1110211+9999REMSYN064CMTI   46// MCGM4 46/// /3413 11086 40327 51021 90200 333 91220;
0090997262999992005012303004+46530-087370FM-18+0197MCGM V0203401N012019999999N9999999N1-00871+99999103291ADDMD1110111+9999REMSYN064CMTI   46// MCGM4 46/// /3412 11087 40329 51011 90300 333 91220;
0090997262999992005012304004+46530-087370FM-18+0197MCGM V0203401N012019999999N9999999N1-00911+99999103301ADDMD1210051+9999REMSYN064CMTI   46// MCGM4 46/// /3412 11091 40330 52005 90400 333 91217;
0067997262999992005012305004+46530-087370FM-18+0197MCGM V0203401N007019999999N9999999N1-00871+99999103271REMSYN058CMTI   46// MCGM4 46/// /3407 11087 40327 90506 333 91211;
0090997262999992005012306004+46530-087370FM-18+0197MCGM V0203301N006019999999N9999999N1-00921+99999103241ADDMD1710051+9999REMSYN064CMTI   46// MCGM4 46/// /3306 11092 40324 57005 90600 333 91211;
0090997262999992005012307004+46530-087370FM-18+0197MCGM V0203201N005019999999N9999999N1-00881+99999103251ADDMD1710051+9999REMSYN064CMTI   46// MCGM4 46/// /3205 11088 40325 57005 90700 333 91210;
0067997262999992005012308004+46530-087370FM-18+0197MCGM V0209999C000019999999N9999999N1-00971+99999103251REMSYN058CMTI   46// MCGM4 46/// /0000 11097 40325 90800 333 91204;
0090997262999992005012309004+46530-087370FM-18+0197MCGM V0202701N003019999999N9999999N1-01011+99999103231ADDMD1410001+9999REMSYN064CMTI   46// MCGM4 46/// /2703 11101 40323 54000 90900 333 91207;
0067997262999992005012310004+46530-087370FM-18+0197MCGM V0202501N001019999999N9999999N1-01031+99999103181REMSYN058CMTI   46// MCGM4 46/// /2501 11103 40318 91006 333 91206;
0090997262999992005012311004+46530-087370FM-18+0197MCGM V0202501N001019999999N9999999N1-01061+99999103161ADDMD1710091+9999REMSYN064CMTI   46// MCGM4 46/// /2501 11106 40316 57009 91100 333 91209;
0090997262999992005012312004+46530-087370FM-18+0197MCGM V0202301N005019999999N9999999N1-01091+99999103131ADDMD1710101+9999REMSYN064CMTI   46// MCGM4 46/// /2305 11109 40313 57010 91200 333 91207;
0067997262999992005012313004+46530-087370FM-18+0197MCGM V0202301N005019999999N9999999N1-01171+99999103081REMSYN058CMTI   46// MCGM4 46/// /2305 11117 40308 91300 333 91208;
0090997262999992005012314004+46530-087370FM-18+0197MCGM V0202201N007019999999N9999999N1-01251+99999103091ADDMD1610071+9999REMSYN064CMTI   46// MCGM4 46/// /2207 11125 40309 56007 91400 333 91209;
0090997262999992005012315004+46530-087370FM-18+0197MCGM V0201901N004019999999N9999999N1-01091+99999103041ADDMD1710091+9999REMSYN064CMTI   46// MCGM4 46/// /1904 11109 40304 57009 91500 333 91209;
0090997262999992005012316004+46530-087370FM-18+0197MCGM V0201701N008019999999N9999999N1-00961+99999102981ADDMD1810101+9999REMSYN064CMTI   46// MCGM4 46/// /1708 11096 40298 58010 91600 333 91212;
0017997262999992005012317004+46530-087370FM-18+0197MCGM V0201901N006719999999N9999999N1-00941+99999102811ADDMD1810281+9999
0090997262999992005012318004+46530-087370FM-18+0197MCGM V0201901N007019999999N9999999N1-00821+99999102641ADDMD1810401+9999REMSYN064CMTI   46// MCGM4 46/// /1907 11082 40264 58040 91800 333 91219;
0090997262999992005012319004+46530-087370FM-18+0197MCGM V0201801N011019999999N9999999N1-00711+99999102491ADDMD1610491+9999REMSYN064CMTI   46// MCGM4 46/// /1811 11071 40249 56049 91900 333 91216;
0090997262999992005012320004+46530-087370FM-18+0197MCGM V0201801N011019999999N9999999N1-00711+99999102261ADDMD1810551+9999REMSYN064CMTI   46// MCGM4 46/// /1811 11071 40226 58055 92000 333 91219;
0090997262999992005012321004+46530-087370FM-18+0197MCGM V0201901N007019999999N9999999N1-00591+99999102131ADDMD1610511+9999REMSYN064CMTI   46// MCGM4 46/// /1907 11059 40213 56051 92100 333 91217;
0090997262999992005012323004+46530-087370FM-18+0197MCGM V0201601N010019999999N9999999N1-00631+99999101971ADDMD1610291+9999REMSYN064CMTI   46// MCGM4 46/// /1610 11063 40197 56029 92300 333 91214;
0090997262999992005012400004+46530-087370FM-18+0197MCGM V0201601N010019999999N9999999N1-00681+99999101861ADDMD1810271+9999REMSYN064CMTI   46// MCGM4 46/// /1610 11068 40186 58027 90000 333 91212;
0090997262999992005012401004+46530-087370FM-18+0197MCGM V0201801N010019999999N9999999N1-00701+99999101681ADDMD1810381+9999REMSYN064CMTI   46// MCGM4 46/// /1810 11070 40168 58038 90100 333 91216;
0090997262999992005012402004+46530-087370FM-18+0197MCGM V0201801N010019999999N9999999N1-00701+99999101541ADDMD1810431+9999REMSYN064CMTI   46// MCGM4 46/// /1810 11070 40154 58043 90200 333 91214;
0090997262999992005012403004+46530-087370FM-18+0197MCGM V0201701N008019999999N9999999N1-00731+99999101421ADDMD1610441+9999REMSYN064CMTI   46// MCGM4 46/// /1708 11073 40142 56044 90300 333 91212;
0090997262999992005012404004+46530-087370FM-18+0197MCGM V0201701N002019999999N9999999N1-00761+99999101451ADDMD1510231+9999REMSYN064CMTI   46// MCGM4 46/// /1702 11076 40145 55023 90400 333 91206;
0090997262999992005012405004+46530-087370FM-18+0197MCGM V0201501N010019999999N9999999N1-00771+99999101331ADDMD1710211+9999REMSYN064CMTI   46// MCGM4 46/// /1510 11077 40133 57021 90500 333 91212;
0090997262999992005012406004+46530-087370FM-18+0197MCGM V0201601N007019999999N9999999N1-00831+99999101241ADDMD1810181+9999REMSYN064CMTI   46// MCGM4 46/// /1607 11083 40124 58018 90600 333 91211;
0067997262999992005012407004+46530-087370FM-18+0197MCGM V0201701N007019999999N9999999N1-00751+99999101121REMSYN058CMTI   46// MCGM4 46/// /1707 11075 40112 90754 333 91209;
0090997262999992005012408004+46530-087370FM-18+0197MCGM V0201701N006019999999N9999999N1-00751+99999101121ADDMD1610211+9999REMSYN064CMTI   46// MCGM4 46/// /1706 11075 40112 56021 90800 333 91208;
0090997262999992005012409004+46530-087370FM-18+0197MCGM V0201701N006019999999N9999999N1-00701+99999101001ADDMD1810241+9999REMSYN064CMTI   46// MCGM4 46/// /1706 11070 40100 58024 90900 333 91209;
0090997262999992005012410004+46530-087370FM-18+0197MCGM V0209999C000019999999N9999999N1-00601+99999101001ADDMD1610151+9999REMSYN064CMTI   46// MCGM4 46/// /0000 11060 40100 56015 91000 333 91202;
0090997262999992005012411004+46530-087370FM-18+0197MCGM V0201701N001019999999N9999999N1-00621+99999100971ADDMD1610151+9999REMSYN064CMTI   46// MCGM4 46/// /1701 11062 40097 56015 91100 333 91205;
0090997262999992005012413004+46530-087370FM-18+0197MCGM V0209999C000019999999N9999999N1-00581+99999100971ADDMD1610031+9999REMSYN064CMTI   46// MCGM4 46/// /0000 11058 40097 56003 91300 333 91201;
0090997262999992005012414004+46530-087370FM-18+0197MCGM V0209999C000019999999N9999999N1-00511+99999101011ADDMD1310041+9999REMSYN064CMTI   46// MCGM4 46/// /0000 11051 40101 53004 91400 333 91203;
0090997262999992005012415004+46530-087370FM-18+0197MCGM V0209999C000019999999N9999999N1-00421+99999101051ADDMD1310091+9999REMSYN064CMTI   46// MCGM4 46/// /0000 11042 40105 53009 91500 333 91204;
0090997262999992005012416004+46530-087370FM-18+0197MCGM V0203001N003019999999N9999999N1-00301+99999101141ADDMD1310171+9999REMSYN064CMTI   46// MCGM4 46/// /3003 11030 40114 53017 91600 333 91207;
0090997262999992005012417004+46530-087370FM-18+0197MCGM V0203001N002019999999N9999999N1-00281+99999101171ADDMD1110161+9999REMSYN064CMTI   46// MCGM4 46/// /3002 11028 40117 51016 91700 333 91209;
