0078997266999992005010100004+46267-084183FM-18+0189RCKM V0202901N006719999999N9999999N1+99999+99999101241REMSYN069CMAN  01004 RCKM4 46/// /2913 1//// 40124 90018 222// 0002 333 91225;
0078997266999992005010104004+46267-084183FM-18+0189RCKM V0202901N006719999999N9999999N1+99999+99999101881REMSYN069CMAN 01044 RCKM4 46/// /2913 1//// 40188 90400 222// 00027 333 91222;
0090997266999992005010105004+46267-084183FM-18+0189RCKM V0202901N009019999999N9999999N1+99999+99999102171ADDSA1+0309REMSYN070CMTI   46// RCKM4 46/// /2909 1//// 40217 90554 222// 00030 333 91215;
0090997266999992005010106004+46267-084183FM-18+0189RCKM V0203001N009019999999N9999999N1+99999+99999102181ADDSA1+0309REMSYN070CMTI   46// RCKM4 46/// /3009 1//// 40218 90600 222// 00030 333 91214;
0110997266999992005010107004+46267-084183FM-18+0189RCKM V0203101N013019999999N9999999N1+99999+99999102361ADDMD1210481+9999SA1+0299REMSYN076CMTI   46// RCKM4 46/// /3113 1//// 40236 52048 90700 222// 00029 333 91219;
0090997266999992005010108004+46267-084183FM-18+0189RCKM V0203101N013019999999N9999999N1+99999+99999102541ADDSA1+0309REMSYN070CMTI   46// RCKM4 46/// /3113 1//// 40254 90800 222// 00030 333 91218;
0110997266999992005010109004+46267-084183FM-18+0189RCKM V0203401N012019999999N9999999N1+99999+99999102701ADDMD1110521+9999SA1+0319REMSYN076CMTI   46// RCKM4 46/// /3412 1//// 40270 51052 90900 222// 00031 333 91215;
0110997266999992005010110004+46267-084183FM-18+0189RCKM V0200101N010019999999N9999999N1+99999+99999102841ADDMD1110481+9999SA1+0329REMSYN076CMTI   46// RCKM4 46/// /0110 1//// 40284 51048 91000 222// 00032 333 91215;
0110997266999992005010111004+46267-084183FM-18+0189RCKM V0200101N006019999999N9999999N1+99999+99999102921ADDMD1110381+9999SA1+0329REMSYN076CMTI   46// RCKM4 46/// /0106 1//// 40292 51038 91100 222// 00032 333 91209;
0110997266999992005010112004+46267-084183FM-18+0189RCKM V0200101N008019999999N9999999N1+99999+99999103071ADDMD1310371+9999SA1+0319REMSYN076CMTI   46// RCKM4 46/// /0108 1//// 40307 53037 91200 222// 00031 333 91209;
0110997266999992005010113004+46267-084183FM-18+0189RCKM V0203601N006019999999N9999999N1+99999+99999103321ADDMD1310481+9999SA1+0329REMSYN076CMTI   46// RCKM4 46/// /3606 1//// 40332 53048 91300 222// 00032 333 91208;
0110997266999992005010114004+46267-084183FM-18+0189RCKM V0203401N007019999999N9999999N1+99999+99999103491ADDMD1310571+9999SA1+0339REMSYN076CMTI   46// RCKM4 46/// /3407 1//// 40349 53057 91400 222// 00033 333 91208;
0110997266999992005010115004+46267-084183FM-18+0189RCKM V0200401N007019999999N9999999N1+99999+99999103491ADDMD1110421+9999SA1+0339REMSYN076CMTI   46// RCKM4 46/// /0407 1//// 40349 51042 91500 222// 00033 333 91210;
0110997266999992005010116004+46267-084183FM-18+0189RCKM V0200701N005019999999N9999999N1+99999+99999103661ADDMD1210341+9999SA1+0329REMSYN076CMTI   46// RCKM4 46/// /0705 1//// 40366 52034 91600 222// 00032 333 91209;
0110997266999992005010117004+46267-084183FM-18+0189RCKM V0200401N005019999999N9999999N1+99999+99999103651ADDMD1210161+9999SA1+0309REMSYN076CMTI   46// RCKM4 46/// /0405 1//// 40365 52016 91700 222// 00030 333 91207;
0090997266999992005010118004+46267-084183FM-18+0189RCKM V0200501N005019999999N9999999N1+99999+99999103591ADDSA1+0329REMSYN070CMTI   46// RCKM4 46/// /0505 1//// 40359 91824 222// 00032 333 91207;
0101997266999992005010119004+46267-084183FM-18+0189RCKM V0203301N003119999999N9999999N1+99999+99999103591ADDMD1710071+9999REMSYN075CMAN 01194 RCKM4 46/// /3306 1//// 40359 57007 91900 222// 00032 333 91208;
0101997266999992005010120004+46267-084183FM-18+0189RCKM V0200501N002619999999N9999999N1+99999+99999103591ADDMD1710061+9999REMSYN075CMAN 01204 RCKM4 46/// /0505 1//// 40359 57006 92000 222// 00032 333 91208;
0090997266999992005010121004+46267-084183FM-18+0189RCKM V0200801N007019999999N9999999N1+99999+99999103621ADDSA1+0299REMSYN070CMTI   46// RCKM4 46/// /0807 1//// 40362 92106 222// 00029 333 91209;
0078997266999992005010202004+46267-084183FM-18+0189RCKM V0200901N004619999999N9999999N1+99999+99999103521REMSYN069CMAN 02024 RCKM4 46/// /0909 1//// 40352 90200 222// 00028 333 91215;
0078997266999992005010203004+46267-084183FM-18+0189RCKM V0201001N005719999999N9999999N1+99999+99999103451REMSYN069CMAN 02034 RCKM4 46/// /1011 1//// 40345 90300 222// 00029 333 91213;
0078997266999992005010204004+46267-084183FM-18+0189RCKM V0201201N008219999999N9999999N1+99999+99999103311REMSYN069CMAN 02044 RCKM4 46/// /1216 1//// 40331 90400 222// 00029 333 91221;
0101997266999992005010205004+46267-084183FM-18+0189RCKM V0201201N006219999999N9999999N1+99999+99999103211ADDMD1810311+9999REMSYN075CMAN 02054 RCKM4 46/// /1212 1//// 40321 58031 90500 222// 00025 333 91221;
0101997266999992005010207004+46267-084183FM-18+0189RCKM V0201001N004619999999N9999999N1+99999+99999102781ADDMD1710531+9999REMSYN075CMAN 02074 RCKM4 46/// /1009 1//// 40278 57053 90700 222// 00027 333 91220;
0090997266999992005010208004+46267-084183FM-18+0189RCKM V0201001N011019999999N9999999N1+99999+99999102561ADDSA1+0299REMSYN070CMTI   46// RCKM4 46/// /1011 1//// 40256 90824 222// 00029 333 91214;
0090997266999992005010209004+46267-084183FM-18+0189RCKM V0200801N008019999999N9999999N1+99999+99999102551ADDSA1+0289REMSYN070CMTI   46// RCKM4 46/// /0808 1//// 40255 90900 222// 00028 333 91210;
0110997266999992005010210004+46267-084183FM-18+0189RCKM V0201101N009019999999N9999999N1+99999+99999102331ADDMD1710451+9999SA1+0299REMSYN076CMTI   46// RCKM4 46/// /1109 1//// 40233 57045 91000 222// 00029 333 91213;
0090997266999992005010211004+46267-084183FM-18+0189RCKM V0200901N006019999999N9999999N1+99999+99999102281ADDSA1+0309REMSYN070CMTI   46// RCKM4 46/// /0906 1//// 40228 91100 222// 00030 333 91209;
0110997266999992005010212004+46267-084183FM-18+0189RCKM V0201001N011019999999N9999999N1+99999+99999102111ADDMD1610441+9999SA1+0309REMSYN076CMTI   46// RCKM4 46/// /1011 1//// 40211 56044 91200 222// 00030 333 91214;
0110997266999992005010213004+46267-084183FM-18+0189RCKM V0201001N012019999999N9999999N1+99999+99999102031ADDMD1810301+9999SA1+0319REMSYN076CMTI   46// RCKM4 46/// /1012 1//// 40203 58030 91300 222// 00031 333 91218;
0110997266999992005010214004+46267-084183FM-18+0189RCKM V0201001N006019999999N9999999N1+99999+99999101951ADDMD1610331+9999SA1+0319REMSYN076CMTI   46// RCKM4 46/// /1006 1//// 40195 56033 91400 222// 00031 333 91208;
0110997266999992005010215004+46267-084183FM-18+0189RCKM V0200501N002019999999N9999999N1+99999+99999101931ADDMD1610181+9999SA1+0329REMSYN076CMTI   46// RCKM4 46/// /0502 1//// 40193 56018 91500 222// 00032 333 91204;
0110997266999992005010216004+46267-084183FM-18+0189RCKM V0200301N002019999999N9999999N1+99999+99999101941ADDMD1610091+9999SA1+0329REMSYN076CMTI   46// RCKM4 46/// /0302 1//// 40194 56009 91600 222// 00032 333 91204;
0110997266999992005010217004+46267-084183FM-18+0189RCKM V0209999C000019999999N9999999N1+99999+99999101861ADDMD1810091+9999SA1+0329REMSYN076CMTI   46// RCKM4 46/// /0000 1//// 40186 58009 91700 222// 00032 333 91203;
0110997266999992005010218004+46267-084183FM-18+0189RCKM V0203301N007019999999N9999999N1+99999+99999101861ADDMD1710071+9999SA1+0329REMSYN076CMTI   46// RCKM4 46/// /3307 1//// 40186 57007 91800 222// 00032 333 91209;
0100997266999992005010219004+46267-084183FM-18+0189RCKM V0209999C000019999999N9999999N1+99999+99999101851ADDMD1610091+9999SA1+0329REMSYN066CMTI   46// RCKM4 46/// /0000 1//// 40185 56009 91900 222// 00032;
0090997266999992005010220004+46267-084183FM-18+0189RCKM V0209999C000019999999N9999999N1+99999+99999101871ADDSA1+0329REMSYN070CMTI   46// RCKM4 46/// /0000 1//// 40187 92006 222// 00032 333 91203;
0090997266999992005010221004+46267-084183FM-18+0189RCKM V0202901N007019999999N9999999N1+99999+99999101991ADDSA1+0309REMSYN070CMTI   46// RCKM4 46/// /2907 1//// 40199 92124 222// 00030 333 91211;
0078997266999992005010300004+46267-084183FM-18+0189RCKM V0202801N001019999999N9999999N1+99999+99999102201REMSYN069CMAN 03004 RCKM4 46/// /2802 1//// 40220 90000 222// 00029 333 91211;
0090997266999992005010301004+46267-084183FM-18+0189RCKM V0202901N003019999999N9999999N1+99999+99999102271ADDSA1+0319REMSYN070CMTI   46// RCKM4 46/// /2903 1//// 40227 90130 222// 00031 333 91207;
0090997266999992005010302004+46267-084183FM-18+0189RCKM V0202901N002019999999N9999999N1+99999+99999102301ADDSA1+0319REMSYN070CMTI   46// RCKM4 46/// /2902 1//// 40230 90200 222// 00031 333 91206;
0110997266999992005010303004+46267-084183FM-18+0189RCKM V0202701N002019999999N9999999N1+99999+99999102331ADDMD1210131+9999SA1+0289REMSYN076CMTI   46// RCKM4 46/// /2702 1//// 40233 52013 90300 222// 00028 333 91204;
0090997266999992005010304004+46267-084183FM-18+0189RCKM V0209999C000019999999N9999999N1+99999+99999102341ADDSA1+0309REMSYN070CMTI   46// RCKM4 46/// /0000 1//// 40234 90400 222// 00030 333 91204;
0110997266999992005010305004+46267-084183FM-18+0189RCKM V0202701N001019999999N9999999N1+99999+99999102381ADDMD1310081+9999SA1+0319REMSYN076CMTI   46// RCKM4 46/// /2701 1//// 40238 53008 90500 222// 00031 333 91204;
0110997266999992005010306004+46267-084183FM-18+0189RCKM V0202901N006019999999N9999999N1+99999+99999102421ADDMD1310091+9999SA1+0319REMSYN076CMTI   46// RCKM4 46/// /2906 1//// 40242 53009 90600 222// 00031 333 91208;
0110997266999992005010307004+46267-084183FM-18+0189RCKM V0202901N005019999999N9999999N1+99999+99999102491ADDMD1310151+9999SA1+0319REMSYN076CMTI   46// RCKM4 46/// /2905 1//// 40249 53015 90700 222// 00031 333 91212;
0110997266999992005010308004+46267-084183FM-18+0189RCKM V0202901N006019999999N9999999N1+99999+99999102511ADDMD1110131+9999SA1+0319REMSYN076CMTI   46// RCKM4 46/// /2906 1//// 40251 51013 90800 222// 00031 333 91209;
0110997266999992005010309004+46267-084183FM-18+0189RCKM V0202601N004019999999N9999999N1+99999+99999102521ADDMD1110101+9999SA1+0319REMSYN076CMTI   46// RCKM4 46/// /2604 1//// 40252 51010 90900 222// 00031 333 91207;
0110997266999992005010310004+46267-084183FM-18+0189RCKM V0202901N004019999999N9999999N1+99999+99999102541ADDMD1210051+9999SA1+0329REMSYN076CMTI   46// RCKM4 46/// /2904 1//// 40254 52005 91000 222// 00032 333 91206;
0110997266999992005010311004+46267-084183FM-18+0189RCKM V0202801N005019999999N9999999N1+99999+99999102571ADDMD1310061+9999SA1+0329REMSYN076CMTI   46// RCKM4 46/// /2805 1//// 40257 53006 91100 222// 00032 333 91208;
0110997266999992005010312004+46267-084183FM-18+0189RCKM V0202601N004019999999N9999999N1+99999+99999102611ADDMD1310091+9999SA1+0329REMSYN076CMTI   46// RCKM4 46/// /2604 1//// 40261 53009 91200 222// 00032 333 91206;
0110997266999992005010313004+46267-084183FM-18+0189RCKM V0202601N002019999999N9999999N1+99999+99999102611ADDMD1110071+9999SA1+0299REMSYN076CMTI   46// RCKM4 46/// /2602 1//// 40261 51007 91300 222// 00029 333 91205;
0110997266999992005010314004+46267-084183FM-18+0189RCKM V0202501N003019999999N9999999N1+99999+99999102691ADDMD1310121+9999SA1+0299REMSYN076CMTI   46// RCKM4 46/// /2503 1//// 40269 53012 91400 222// 00029 333 91206;
0110997266999992005010315004+46267-084183FM-18+0189RCKM V0202701N003019999999N9999999N1+99999+99999102721ADDMD1310111+9999SA1+0299REMSYN076CMTI   46// RCKM4 46/// /2703 1//// 40272 53011 91500 222// 00029 333 91206;
0110997266999992005010316004+46267-084183FM-18+0189RCKM V0202701N006019999999N9999999N1+99999+99999102741ADDMD1110131+9999SA1+0309REMSYN076CMTI   46// RCKM4 46/// /2706 1//// 40274 51013 91600 222// 00030 333 91208;
0110997266999992005010317004+46267-084183FM-18+0189RCKM V0202901N007019999999N9999999N1+99999+99999102671ADDMD1010001+9999SA1+0299REMSYN076CMTI   46// RCKM4 46/// /2907 1//// 40267 50000 91700 222// 00029 333 91210;
0110997266999992005010318004+46267-084183FM-18+0189RCKM V0202901N005019999999N9999999N1+99999+99999102621ADDMD1810101+9999SA1+0299REMSYN076CMTI   46// RCKM4 46/// /2905 1//// 40262 58010 91800 222// 00029 333 91207;
0110997266999992005010319004+46267-084183FM-18+0189RCKM V0202901N008019999999N9999999N1+99999+99999102561ADDMD1610181+9999SA1+0309REMSYN076CMTI   46// RCKM4 46/// /2908 1//// 40256 56018 91900 222// 00030 333 91211;
0110997266999992005010320004+46267-084183FM-18+0189RCKM V0203001N007019999999N9999999N1+99999+99999102551ADDMD1610121+9999SA1+0309REMSYN076CMTI   46// RCKM4 46/// /3007 1//// 40255 56012 92000 222// 00030 333 91211;
0110997266999992005010321004+46267-084183FM-18+0189RCKM V0203001N007019999999N9999999N1+99999+99999102591ADDMD1510031+9999SA1+0309REMSYN076CMTI   46// RCKM4 46/// /3007 1//// 40259 55003 92100 222// 00030 333 91209;
0110997266999992005010322004+46267-084183FM-18+0189RCKM V0203001N006019999999N9999999N1+99999+99999102571ADDMD1410001+9999SA1+0319REMSYN076CMTI   46// RCKM4 46/// /3006 1//// 40257 54000 92200 222// 00031 333 91208;
0110997266999992005010323004+46267-084183FM-18+0189RCKM V0203001N005019999999N9999999N1+99999+99999102611ADDMD1210061+9999SA1+0319REMSYN076CMTI   46// RCKM4 46/// /3005 1//// 40261 52006 92300 222// 00031 333 91209;
0110997266999992005010400004+46267-084183FM-18+0189RCKM V0202901N005019999999N9999999N1+99999+99999102611ADDMD1410001+9999SA1+0329REMSYN076CMTI   46// RCKM4 46/// /2905 1//// 40261 54000 90000 222// 00032 333 91209;
0101997266999992005010401004+46267-084183FM-18+0189RCKM V0202701N002119999999N9999999N1+99999+99999102641ADDMD1110071+9999REMSYN075CMAN 04014 RCKM4 46/// /2704 1//// 40264 51007 90100 222// 00029 333 91209;
0090997266999992005010402004+46267-084183FM-18+0189RCKM V0202801N004019999999N9999999N1+99999+99999102651ADDSA1+0309REMSYN070CMTI   46// RCKM4 46/// /2804 1//// 40265 90206 222// 00030 333 91205;
0110997266999992005010403004+46267-084183FM-18+0189RCKM V0202601N004019999999N9999999N1+99999+99999102681ADDMD1210071+9999SA1+0319REMSYN076CMTI   46// RCKM4 46/// /2604 1//// 40268 52007 90300 222// 00031 333 91206;
0000997266999992005010404004+46267-084183FM-18+0189RCKM V0202601N001519999999N9999999N1+99999+99999102711
0078997266999992005010405004+46267-084183FM-18+0189RCKM V0202601N001519999999N9999999N1+99999+99999102681REMSYN069CMAN 04054 RCKM4 46/// /2603 1//// 40268 90506 222// 00032 333 91205;
0110997266999992005010406004+46267-084183FM-18+0189RCKM V0202501N004019999999N9999999N1+99999+99999102661ADDMD1410001+9999SA1+0329REMSYN076CMTI   46// RCKM4 46/// /2504 1//// 40266 54000 90600 222// 00032 333 91206;
0090997266999992005010407004+46267-084183FM-18+0189RCKM V0202501N005019999999N9999999N1+99999+99999102621ADDSA1+0329REMSYN070CMTI   46// RCKM4 46/// /2505 1//// 40262 90700 222// 00032 333 91207;
0090997266999992005010408004+46267-084183FM-18+0189RCKM V0202601N002019999999N9999999N1+99999+99999102681ADDSA1+0329REMSYN070CMTI   46// RCKM4 46/// /2602 1//// 40268 90800 222// 00032 333 91205;
0000997266999992005010409004+46267-084183FM-18+0189RCKM V0202501N001519999999N9999999N1+99999+99999102671
0110997266999992005010410004+46267-084183FM-18+0189RCKM V0202601N005019999999N9999999N1+99999+99999102671ADDMD1210051+9999SA1+0299REMSYN076CMTI   46// RCKM4 46/// /2605 1//// 40267 52005 91000 222// 00029 333 91207;
0110997266999992005010411004+46267-084183FM-18+0189RCKM V0202401N002019999999N9999999N1+99999+99999102631ADDMD1710051+9999SA1+0319REMSYN076CMTI   46// RCKM4 46/// /2402 1//// 40263 57005 91100 222// 00031 333 91206;
0090997266999992005010412004+46267-084183FM-18+0189RCKM V0202401N004019999999N9999999N1+99999+99999102721ADDSA1+0289REMSYN070CMTI   46// RCKM4 46/// /2404 1//// 40272 91200 222// 00028 333 91206;
0110997266999992005010413004+46267-084183FM-18+0189RCKM V0202601N001019999999N9999999N1+99999+99999102741ADDMD1310071+9999SA1+0309REMSYN076CMTI   46// RCKM4 46/// /2601 1//// 40274 53007 91300 222// 00030 333 91206;
0110997266999992005010414004+46267-084183FM-18+0189RCKM V0202401N004019999999N9999999N1+99999+99999102731ADDMD1110101+9999SA1+0299REMSYN076CMTI   46// RCKM4 46/// /2404 1//// 40273 51010 91400 222// 00029 333 91208;
0110997266999992005010415004+46267-084183FM-18+0189RCKM V0202401N005019999999N9999999N1+99999+99999102751ADDMD1210031+9999SA1+0299REMSYN076CMTI   46// RCKM4 46/// /2405 1//// 40275 52003 91500 222// 00029 333 91207;
0110997266999992005010416004+46267-084183FM-18+0189RCKM V0202601N005019999999N9999999N1+99999+99999102721ADDMD1010001+9999SA1+0309REMSYN076CMTI   46// RCKM4 46/// /2605 1//// 40272 50000 91600 222// 00030 333 91209;
0110997266999992005010417004+46267-084183FM-18+0189RCKM V0202701N006019999999N9999999N1+99999+99999102701ADDMD1710031+9999SA1+0309REMSYN076CMTI   46// RCKM4 46/// /2706 1//// 40270 57003 91700 222// 00030 333 91211;
0110997266999992005010418004+46267-084183FM-18+0189RCKM V0202601N002019999999N9999999N1+99999+99999102591ADDMD1810161+9999SA1+0309REMSYN076CMTI   46// RCKM4 46/// /2602 1//// 40259 58016 91800 222// 00030 333 91208;
0110997266999992005010419004+46267-084183FM-18+0189RCKM V0202501N006019999999N9999999N1+99999+99999102551ADDMD1810171+9999SA1+0309REMSYN076CMTI   46// RCKM4 46/// /2506 1//// 40255 58017 91900 222// 00030 333 91212;
0110997266999992005010420004+46267-084183FM-18+0189RCKM V0202801N004019999999N9999999N1+99999+99999102541ADDMD1610161+9999SA1+0319REMSYN076CMTI   46// RCKM4 46/// /2804 1//// 40254 56016 92000 222// 00031 333 91209;
0110997266999992005010421004+46267-084183FM-18+0189RCKM V0202901N006019999999N9999999N1+99999+99999102571ADDMD1510001+9999SA1+0319REMSYN076CMTI   46// RCKM4 46/// /2906 1//// 40257 55000 92100 222// 00031 333 91212;
0110997266999992005010422004+46267-084183FM-18+0189RCKM V0203001N007019999999N9999999N1+99999+99999102611ADDMD1310061+9999SA1+0329REMSYN076CMTI   46// RCKM4 46/// /3007 1//// 40261 53006 92200 222// 00032 333 91212;
0110997266999992005010423004+46267-084183FM-18+0189RCKM V0203101N007019999999N9999999N1+99999+99999102681ADDMD1310141+9999SA1+0329REMSYN076CMTI   46// RCKM4 46/// /3107 1//// 40268 53014 92300 222// 00032 333 91209;
0110997266999992005010500004+46267-084183FM-18+0189RCKM V0203101N012019999999N9999999N1+99999+99999102761ADDMD1310191+9999SA1+0339REMSYN076CMTI   46// RCKM4 46/// /3112 1//// 40276 53019 90000 222// 00033 333 91217;
0110997266999992005010501004+46267-084183FM-18+0189RCKM V0203201N016019999999N9999999N1+99999+99999102841ADDMD1310231+9999SA1+0279REMSYN076CMTI   46// RCKM4 46/// /3216 1//// 40284 53023 90100 222// 00027 333 91219;
0110997266999992005010502004+46267-084183FM-18+0189RCKM V0203001N015019999999N9999999N1+99999+99999102821ADDMD1110141+9999SA1+0299REMSYN076CMTI   46// RCKM4 46/// /3015 1//// 40282 51014 90200 222// 00029 333 91222;
0090997266999992005010503004+46267-084183FM-18+0189RCKM V0203401N016019999999N9999999N1+99999+99999102911ADDSA1+0319REMSYN070CMTI   46// RCKM4 46/// /3416 1//// 40291 90306 222// 00031 333 91219;
0090997266999992005010504004+46267-084183FM-18+0189RCKM V0203501N016019999999N9999999N1+99999+99999102951ADDSA1+0319REMSYN070CMTI   46// RCKM4 46/// /3516 1//// 40295 90424 222// 00031 333 91219;
0078997266999992005010506004+46267-084183FM-18+0189RCKM V0200301N004119999999N9999999N1+99999+99999103041REMSYN069CMAN 05064 RCKM4 46/// /0308 1//// 40304 90600 222// 00031 333 91216;
0090997266999992005010507004+46267-084183FM-18+0189RCKM V0200201N008019999999N9999999N1+99999+99999103061ADDSA1+0319REMSYN070CMTI   46// RCKM4 46/// /0208 1//// 40306 90718 222// 00031 333 91210;
0090997266999992005010508004+46267-084183FM-18+0189RCKM V0200101N007019999999N9999999N1+99999+99999103151ADDSA1+0329REMSYN070CMTI   46// RCKM4 46/// /0107 1//// 40315 90800 222// 00032 333 91209;
0110997266999992005010509004+46267-084183FM-18+0189RCKM V0200201N006019999999N9999999N1+99999+99999103181ADDMD1210141+9999SA1+0329REMSYN076CMTI   46// RCKM4 46/// /0206 1//// 40318 52014 90900 222// 00032 333 91208;
0090997266999992005010510004+46267-084183FM-18+0189RCKM V0200201N006019999999N9999999N1+99999+99999103211ADDSA1+0329REMSYN070CMTI   46// RCKM4 46/// /0206 1//// 40321 91000 222// 00032 333 91209;
0110997266999992005010511004+46267-084183FM-18+0189RCKM V0200201N007019999999N9999999N1+99999+99999103241ADDMD1210091+9999SA1+0329REMSYN076CMTI   46// RCKM4 46/// /0207 1//// 40324 52009 91100 222// 00032 333 91208;
0110997266999992005010512004+46267-084183FM-18+0189RCKM V0200301N005019999999N9999999N1+99999+99999103231ADDMD1110051+9999SA1+0289REMSYN076CMTI   46// RCKM4 46/// /0305 1//// 40323 51005 91200 222// 00028 333 91206;
0110997266999992005010513004+46267-084183FM-18+0189RCKM V0200201N005019999999N9999999N1+99999+99999103281ADDMD1310071+9999SA1+0279REMSYN076CMTI   46// RCKM4 46/// /0205 1//// 40328 53007 91300 222// 00027 333 91207;
0110997266999992005010514004+46267-084183FM-18+0189RCKM V0200101N006019999999N9999999N1+99999+99999103181ADDMD1810061+9999SA1+0309REMSYN076CMTI   46// RCKM4 46/// /0106 1//// 40318 58006 91400 222// 00030 333 91207;
0110997266999992005010515004+46267-084183FM-18+0189RCKM V0200101N005019999999N9999999N1+99999+99999103201ADDMD1810031+9999SA1+0289REMSYN076CMTI   46// RCKM4 46/// /0105 1//// 40320 58003 91500 222// 00028 333 91206;
0110997266999992005010516004+46267-084183FM-18+0189RCKM V0209999C000019999999N9999999N1+99999+99999103281ADDMD1510001+9999SA1+0289REMSYN076CMTI   46// RCKM4 46/// /0000 1//// 40328 55000 91600 222// 00028 333 91204;
0110997266999992005010517004+46267-084183FM-18+0189RCKM V0203601N002019999999N9999999N1+99999+99999103181ADDMD1010001+9999SA1+0309REMSYN076CMTI   46// RCKM4 46/// /3602 1//// 40318 50000 91700 222// 00030 333 91204;
0110997266999992005010518004+46267-084183FM-18+0189RCKM V0203101N003019999999N9999999N1+99999+99999103051ADDMD1810151+9999SA1+0289REMSYN076CMTI   46// RCKM4 46/// /3103 1//// 40305 58015 91800 222// 00028 333 91205;
0110997266999992005010519004+46267-084183FM-18+0189RCKM V0203101N003019999999N9999999N1+99999+99999102991ADDMD1610291+9999SA1+0299REMSYN076CMTI   46// RCKM4 46/// /3103 1//// 40299 56029 91900 222// 00029 333 91205;
0110997266999992005010520004+46267-084183FM-18+0189RCKM V0203401N006019999999N9999999N1+99999+99999102831ADDMD1810351+9999SA1+0289REMSYN076CMTI   46// RCKM4 46/// /3406 1//// 40283 58035 92000 222// 00028 333 91207;
0110997266999992005010521004+46267-084183FM-18+0189RCKM V0203201N004019999999N9999999N1+99999+99999102851ADDMD1610201+9999SA1+0279REMSYN076CMTI   46// RCKM4 46/// /3204 1//// 40285 56020 92100 222// 00027 333 91205;
0110997266999992005010522004+46267-084183FM-18+0189RCKM V0209999C000019999999N9999999N1+99999+99999102731ADDMD1610261+9999SA1+0279REMSYN076CMTI   46// RCKM4 46/// /0000 1//// 40273 56026 92200 222// 00027 333 91203;
0110997266999992005010523004+46267-084183FM-18+0189RCKM V0202601N002019999999N9999999N1+99999+99999102661ADDMD1810171+9999SA1+0299REMSYN076CMTI   46// RCKM4 46/// /2602 1//// 40266 58017 92300 222// 00029 333 91203;
0101997266999992005010600004+46267-084183FM-18+0189RCKM V0202401N001019999999N9999999N1+99999+99999102661ADDMD1610191+9999REMSYN075CMAN 06004 RCKM4 46/// /2402 1//// 40266 56019 90000 222// 00031 333 91204;
0101997266999992005010601004+46267-084183FM-18+0189RCKM V0209999C000019999999N9999999N1+99999+99999102571ADDMD1810161+9999REMSYN075CMAN 06014 RCKM4 46/// /0000 1//// 40257 58016 90100 222// 00028 333 91203;
0068997266999992005010603004+46267-084183FM-18+0189RCKM V0209999C000019999999N9999999N1+99999+99999102401REMSYN059CMAN 06034 RCKM4 46/// /0000 1//// 40240 90330 222// 00028;
0110997266999992005010604004+46267-084183FM-18+0189RCKM V0200101N001019999999N9999999N1+99999+99999102351ADDMD1710221+9999SA1+0299REMSYN076CMTI   46// RCKM4 46/// /0101 1//// 40235 57022 90400 222// 00029 333 91202;
0090997266999992005010605004+46267-084183FM-18+0189RCKM V0209999C000019999999N9999999N1+99999+99999102151ADDSA1+0309REMSYN070CMTI   46// RCKM4 46/// /0000 1//// 40215 90500 222// 00030 333 91202;
0090997266999992005010606004+46267-084183FM-18+0189RCKM V0209999C000019999999N9999999N1+99999+99999102031ADDSA1+0319REMSYN070CMTI   46// RCKM4 46/// /0000 1//// 40203 90600 222// 00031 333 91201;
0110997266999992005010607004+46267-084183FM-18+0189RCKM V0200101N001019999999N9999999N1+99999+99999102011ADDMD1610341+9999SA1+0319REMSYN076CMTI   46// RCKM4 46/// /0101 1//// 40201 56034 90700 222// 00031 333 91202;
0110997266999992005010608004+46267-084183FM-18+0189RCKM V0209999C000019999999N9999999N1+99999+99999101911ADDMD1610241+9999SA1+0329REMSYN076CMTI   46// RCKM4 46/// /0000 1//// 40191 56024 90800 222// 00032 333 91202;
0110997266999992005010609004+46267-084183FM-18+0189RCKM V0203501N003019999999N9999999N1+99999+99999101801ADDMD1810231+9999SA1+0329REMSYN076CMTI   46// RCKM4 46/// /3503 1//// 40180 58023 90900 222// 00032 333 91204;
0110997266999992005010610004+46267-084183FM-18+0189RCKM V0203401N003019999999N9999999N1+99999+99999101721ADDMD1610291+9999SA1+0289REMSYN076CMTI   46// RCKM4 46/// /3403 1//// 40172 56029 91000 222// 00028 333 91205;
0110997266999992005010611004+46267-084183FM-18+0189RCKM V0200301N005019999999N9999999N1+99999+99999101561ADDMD1810351+9999SA1+0309REMSYN076CMTI   46// RCKM4 46/// /0305 1//// 40156 58035 91100 222// 00030 333 91206;
0110997266999992005010612004+46267-084183FM-18+0189RCKM V0200301N002019999999N9999999N1+99999+99999101521ADDMD1610281+9999SA1+0319REMSYN076CMTI   46// RCKM4 46/// /0302 1//// 40152 56028 91200 222// 00031 333 91203;
0110997266999992005010613004+46267-084183FM-18+0189RCKM V0200101N004019999999N9999999N1+99999+99999101491ADDMD1610231+9999SA1+0329REMSYN076CMTI   46// RCKM4 46/// /0104 1//// 40149 56023 91300 222// 00032 333 91205;
0110997266999992005010614004+46267-084183FM-18+0189RCKM V0202501N001019999999N9999999N1+99999+99999101451ADDMD1710111+9999SA1+0329REMSYN076CMTI   46// RCKM4 46/// /2501 1//// 40145 57011 91400 222// 00032 333 91202;
0110997266999992005010615004+46267-084183FM-18+0189RCKM V0200101N005019999999N9999999N1+99999+99999101311ADDMD1810211+9999SA1+0309REMSYN076CMTI   46// RCKM4 46/// /0105 1//// 40131 58021 91500 222// 00030 333 91206;
0090997266999992005010616004+46267-084183FM-18+0189RCKM V0203301N006019999999N9999999N1+99999+99999101161ADDSA1+0309REMSYN070CMTI   46// RCKM4 46/// /3306 1//// 40116 91606 222// 00030 333 91207;
0110997266999992005010617004+46267-084183FM-18+0189RCKM V0203601N001019999999N9999999N1+99999+99999101081ADDMD1610371+9999SA1+0309REMSYN076CMTI   46// RCKM4 46/// /3601 1//// 40108 56037 91700 222// 00030 333 91205;
0110997266999992005010618004+46267-084183FM-18+0189RCKM V0203301N003019999999N9999999N1+99999+99999100931ADDMD1810381+9999SA1+0309REMSYN076CMTI   46// RCKM4 46/// /3303 1//// 40093 58038 91800 222// 00030 333 91205;
0090997266999992005010619004+46267-084183FM-18+0189RCKM V0203601N007019999999N9999999N1+99999+99999100821ADDSA1+0319REMSYN070CMTI   46// RCKM4 46/// /3607 1//// 40082 91906 222// 00031 333 91209;
0110997266999992005010620004+46267-084183FM-18+0189RCKM V0203301N007019999999N9999999N1+99999+99999100781ADDMD1710301+9999SA1+0299REMSYN076CMTI   46// RCKM4 46/// /3307 1//// 40078 57030 92000 222// 00029 333 91209;
0110997266999992005010621004+46267-084183FM-18+0189RCKM V0203101N002019999999N9999999N1+99999+99999100831ADDMD1710101+9999SA1+0289REMSYN076CMTI   46// RCKM4 46/// /3102 1//// 40083 57010 92100 222// 00028 333 91204;
0080997266999992005010622004+46267-084183FM-18+0189RCKM V0209999C000019999999N9999999N1+99999+99999100911ADDSA1+0309REMSYN060CMTI   46// RCKM4 46/// /0000 1//// 40091 92200 222// 00030;
0110997266999992005010623004+46267-084183FM-18+0189RCKM V0202101N002019999999N9999999N1+99999+99999100961ADDMD1210181+9999SA1+0319REMSYN076CMTI   46// RCKM4 46/// /2102 1//// 40096 52018 92300 222// 00031 333 91204;
0078997266999992005010700004+46267-084183FM-18+0189RCKM V0202101N001519999999N9999999N1+99999+99999101001REMSYN069CMAN 07004 RCKM4 46/// /2103 1//// 40100 90006 222// 00031 333 91204;
0078997266999992005010701004+46267-084183FM-18+0189RCKM V0209999C000019999999N9999999N1+99999+99999101091REMSYN069CMAN 07014 RCKM4 46/// /0000 1//// 40109 90106 222// 00032 333 91202;
0110997266999992005010702004+46267-084183FM-18+0189RCKM V0202601N004019999999N9999999N1+99999+99999101121ADDMD1210161+9999SA1+0329REMSYN076CMTI   46// RCKM4 46/// /2604 1//// 40112 52016 90200 222// 00032 333 91206;
0090997266999992005010703004+46267-084183FM-18+0189RCKM V0202701N005019999999N9999999N1+99999+99999101181ADDSA1+0299REMSYN070CMTI   46// RCKM4 46/// /2705 1//// 40118 90300 222// 00029 333 91210;
0090997266999992005010704004+46267-084183FM-18+0189RCKM V0202701N004019999999N9999999N1+99999+99999101231ADDSA1+0269REMSYN070CMTI   46// RCKM4 46/// /2704 1//// 40123 90400 222// 00026 333 91207;
0110997266999992005010705004+46267-084183FM-18+0189RCKM V0202401N005019999999N9999999N1+99999+99999101341ADDMD1310221+9999SA1+0269REMSYN076CMTI   46// RCKM4 46/// /2405 1//// 40134 53022 90500 222// 00026 333 91208;
0078997266999992005010706004+46267-084183FM-18+0189RCKM V0202501N001519999999N9999999N1+99999+99999101391REMSYN069CMAN 07064 RCKM4 46/// /2503 1//// 40139 90606 222// 00028 333 91209;
0110997266999992005010707004+46267-084183FM-18+0189RCKM V0202601N002019999999N9999999N1+99999+99999101441ADDMD1210211+9999SA1+0289REMSYN076CMTI   46// RCKM4 46/// /2602 1//// 40144 52021 90700 222// 00028 333 91205;
0100997266999992005010708004+46267-084183FM-18+0189RCKM V0209999C000019999999N9999999N1+99999+99999101511ADDMD1210171+9999SA1+0309REMSYN066CMTI   46// RCKM4 46/// /0000 1//// 40151 52017 90800 222// 00030;
0080997266999992005010709004+46267-084183FM-18+0189RCKM V0209999C000019999999N9999999N1+99999+99999101591ADDSA1+0319REMSYN060CMTI   46// RCKM4 46/// /0000 1//// 40159 90900 222// 00031;
0100997266999992005010710004+46267-084183FM-18+0189RCKM V0209999C000019999999N9999999N1+99999+99999101631ADDMD1110191+9999SA1+0319REMSYN066CMTI   46// RCKM4 46/// /0000 1//// 40163 51019 91000 222// 00031;
0100997266999992005010711004+46267-084183FM-18+0189RCKM V0209999C000019999999N9999999N1+99999+99999101651ADDMD1110141+9999SA1+0309REMSYN066CMTI   46// RCKM4 46/// /0000 1//// 40165 51014 91100 222// 00030;
0100997266999992005010712004+46267-084183FM-18+0189RCKM V0209999C000019999999N9999999N1+99999+99999101741ADDMD1310151+9999SA1+0309REMSYN066CMTI   46// RCKM4 46/// /0000 1//// 40174 53015 91200 222// 00030;
0110997266999992005010713004+46267-084183FM-18+0189RCKM V0203201N002019999999N9999999N1+99999+99999101801ADDMD1310171+9999SA1+0309REMSYN076CMTI   46// RCKM4 46/// /3202 1//// 40180 53017 91300 222// 00030 333 91203;
0100997266999992005010714004+46267-084183FM-18+0189RCKM V0209999C000019999999N9999999N1+99999+99999101851ADDMD1110201+9999SA1+0259REMSYN066CMTI   46// RCKM4 46/// /0000 1//// 40185 51020 91400 222// 00025;
0100997266999992005010715004+46267-084183FM-18+0189RCKM V0209999C000019999999N9999999N1+99999+99999101881ADDMD1110141+9999SA1+0289REMSYN066CMTI   46// RCKM4 46/// /0000 1//// 40188 51014 91500 222// 00028;
0110997266999992005010716004+46267-084183FM-18+0189RCKM V0201501N001019999999N9999999N1+99999+99999101961ADDMD1310161+9999SA1+0299REMSYN076CMTI   46// RCKM4 46/// /1501 1//// 40196 53016 91600 222// 00029 333 91202;
0110997266999992005010717004+46267-084183FM-18+0189RCKM V0201501N004019999999N9999999N1+99999+99999101931ADDMD1010081+9999SA1+0289REMSYN076CMTI   46// RCKM4 46/// /1504 1//// 40193 50008 91700 222// 00028 333 91205;
0110997266999992005010718004+46267-084183FM-18+0189RCKM V0202201N003019999999N9999999N1+99999+99999101881ADDMD1010001+9999SA1+0289REMSYN076CMTI   46// RCKM4 46/// /2203 1//// 40188 50000 91800 222// 00028 333 91211;
0110997266999992005010719004+46267-084183FM-18+0189RCKM V0202201N006019999999N9999999N1+99999+99999101831ADDMD1810131+9999SA1+0299REMSYN076CMTI   46// RCKM4 46/// /2206 1//// 40183 58013 91900 222// 00029 333 91212;
0110997266999992005010720004+46267-084183FM-18+0189RCKM V0201801N005019999999N9999999N1+99999+99999101821ADDMD1610111+9999SA1+0309REMSYN076CMTI   46// RCKM4 46/// /1805 1//// 40182 56011 92000 222// 00030 333 91209;
0110997266999992005010721004+46267-084183FM-18+0189RCKM V0201801N005019999999N9999999N1+99999+99999101821ADDMD1610061+9999SA1+0319REMSYN076CMTI   46// RCKM4 46/// /1805 1//// 40182 56006 92100 222// 00031 333 91209;
0110997266999992005010722004+46267-084183FM-18+0189RCKM V0201801N004019999999N9999999N1+99999+99999101841ADDMD1410001+9999SA1+0319REMSYN076CMTI   46// RCKM4 46/// /1804 1//// 40184 54000 92200 222// 00031 333 91207;
0110997266999992005010723004+46267-084183FM-18+0189RCKM V0201701N005019999999N9999999N1+99999+99999101881ADDMD1310061+9999SA1+0319REMSYN076CMTI   46// RCKM4 46/// /1705 1//// 40188 53006 92300 222// 00031 333 91209;
0090997266999992005010820004+46267-084183FM-18+0189RCKM V0201501N002019999999N9999999N1+99999+99999102541ADDSA1+0319REMSYN070CMTI   46// RCKM4 46/// /1502 1//// 40254 92024 222// 00031 333 91203;
0090997266999992005010821004+46267-084183FM-18+0189RCKM V0209999C000019999999N9999999N1+99999+99999102601ADDSA1+0299REMSYN070CMTI   46// RCKM4 46/// /0000 1//// 40260 92100 222// 00029 333 91201;
0110997266999992005010823004+46267-084183FM-18+0189RCKM V0209999C000019999999N9999999N1+99999+99999102731ADDMD1210211+9999SA1+0309REMSYN076CMTI   46// RCKM4 46/// /0000 1//// 40273 52021 92300 222// 00030 333 91201;
0090997266999992005010900004+46270-084180FM-18+0189RCKM V0201401N002019999999N9999999N1+99999+99999102731ADDSA1+0319REMSYN070CMTI   46// RCKM4 46/// /1402 1//// 40273 90000 222// 00031 333 91203;
0110997266999992005010901004+46270-084180FM-18+0189RCKM V0201701N002019999999N9999999N1+99999+99999102701ADDMD1010001+9999SA1+0329REMSYN076CMTI   46// RCKM4 46/// /1702 1//// 40270 50000 90100 222// 00032 333 91204;
0110997266999992005010902004+46270-084180FM-18+0189RCKM V0201601N007019999999N9999999N1+99999+99999102691ADDMD1710041+9999SA1+0329REMSYN076CMTI   46// RCKM4 46/// /1607 1//// 40269 57004 90200 222// 00032 333 91208;
0110997266999992005010903004+46270-084180FM-18+0189RCKM V0201301N004019999999N9999999N1+99999+99999102651ADDMD1810081+9999SA1+0329REMSYN076CMTI   46// RCKM4 46/// /1304 1//// 40265 58008 90300 222// 00032 333 91205;
0110997266999992005010904004+46270-084180FM-18+0189RCKM V0209999C000019999999N9999999N1+99999+99999102681ADDMD1510001+9999SA1+0319REMSYN076CMTI   46// RCKM4 46/// /0000 1//// 40268 55000 90400 222// 00031 333 91202;
0110997266999992005010905004+46270-084180FM-18+0189RCKM V0209999C000019999999N9999999N1+99999+99999102651ADDMD1610041+9999SA1+0309REMSYN076CMTI   46// RCKM4 46/// /0000 1//// 40265 56004 90500 222// 00030 333 91205;
0078997266999992005010906004+46270-084180FM-18+0189RCKM V0209999C000019999999N9999999N1+99999+99999102661REMSYN069CMAN 09064 RCKM4 46/// /0000 1//// 40266 90606 222// 00030 333 91203;
0110997266999992005010907004+46270-084180FM-18+0189RCKM V0209999C000019999999N9999999N1+99999+99999102581ADDMD1710101+9999SA1+0329REMSYN076CMTI   46// RCKM4 46/// /0000 1//// 40258 57010 90700 222// 00032 333 91203;
0110997266999992005010908004+46270-084180FM-18+0189RCKM V0201301N004019999999N9999999N1+99999+99999102521ADDMD1710131+9999SA1+0289REMSYN076CMTI   46// RCKM4 46/// /1304 1//// 40252 57013 90800 222// 00028 333 91205;
0090997266999992005010909004+46270-084180FM-18+0189RCKM V0201501N004019999999N9999999N1+99999+99999102491ADDSA1+0309REMSYN070CMTI   46// RCKM4 46/// /1504 1//// 40249 90900 222// 00030 333 91205;
0110997266999992005010910004+46270-084180FM-18+0189RCKM V0201501N006019999999N9999999N1+99999+99999102371ADDMD1810211+9999SA1+0309REMSYN076CMTI   46// RCKM4 46/// /1506 1//// 40237 58021 91000 222// 00030 333 91208;
0110997266999992005010911004+46270-084180FM-18+0189RCKM V0201701N005019999999N9999999N1+99999+99999102411ADDMD1510111+9999SA1+0319REMSYN076CMTI   46// RCKM4 46/// /1705 1//// 40241 55011 91100 222// 00031 333 91207;
0110997266999992005010912004+46270-084180FM-18+0189RCKM V0201701N005019999999N9999999N1+99999+99999102331ADDMD1610161+9999SA1+0319REMSYN076CMTI   46// RCKM4 46/// /1705 1//// 40233 56016 91200 222// 00031 333 91207;
0110997266999992005010913004+46270-084180FM-18+0189RCKM V0201601N005019999999N9999999N1+99999+99999102271ADDMD1810101+9999SA1+0319REMSYN076CMTI   46// RCKM4 46/// /1605 1//// 40227 58010 91300 222// 00031 333 91207;
0110997266999992005010914004+46270-084180FM-18+0189RCKM V0201701N005019999999N9999999N1+99999+99999102251ADDMD1610161+9999SA1+0279REMSYN076CMTI   46// RCKM4 46/// /1705 1//// 40225 56016 91400 222// 00027 333 91208;
0110997266999992005010915004+46270-084180FM-18+0189RCKM V0201701N007019999999N9999999N1+99999+99999102181ADDMD1810151+9999SA1+0289REMSYN076CMTI   46// RCKM4 46/// /1707 1//// 40218 58015 91500 222// 00028 333 91209;
0110997266999992005010916004+46270-084180FM-18+0189RCKM V0201601N007019999999N9999999N1+99999+99999102131ADDMD1810141+9999SA1+0309REMSYN076CMTI   46// RCKM4 46/// /1607 1//// 40213 58014 91600 222// 00030 333 91209;
0110997266999992005010917004+46270-084180FM-18+0189RCKM V0201601N007019999999N9999999N1+99999+99999102021ADDMD1810231+9999SA1+0319REMSYN076CMTI   46// RCKM4 46/// /1607 1//// 40202 58023 91700 222// 00031 333 91208;
0110997266999992005010918004+46270-084180FM-18+0189RCKM V0201601N008019999999N9999999N1+99999+99999101901ADDMD1810281+9999SA1+0319REMSYN076CMTI   46// RCKM4 46/// /1608 1//// 40190 58028 91800 222// 00031 333 91213;
0110997266999992005010919004+46270-084180FM-18+0189RCKM V0201701N007019999999N9999999N1+99999+99999101801ADDMD1610331+9999SA1+0319REMSYN076CMTI   46// RCKM4 46/// /1707 1//// 40180 56033 91900 222// 00031 333 91210;
0110997266999992005010920004+46270-084180FM-18+0189RCKM V0201701N009019999999N9999999N1+99999+99999101681ADDMD1710341+9999SA1+0319REMSYN076CMTI   46// RCKM4 46/// /1709 1//// 40168 57034 92000 222// 00031 333 91213;
0110997266999992005010921004+46270-084180FM-18+0189RCKM V0201601N010019999999N9999999N1+99999+99999101541ADDMD1810361+9999SA1+0329REMSYN076CMTI   46// RCKM4 46/// /1610 1//// 40154 58036 92100 222// 00032 333 91213;
0110997266999992005010922004+46270-084180FM-18+0189RCKM V0201701N008019999999N9999999N1+99999+99999101481ADDMD1610321+9999SA1+0289REMSYN076CMTI   46// RCKM4 46/// /1708 1//// 40148 56032 92200 222// 00028 333 91212;
0110997266999992005010923004+46270-084180FM-18+0189RCKM V0201701N008019999999N9999999N1+99999+99999101421ADDMD1610261+9999SA1+0299REMSYN076CMTI   46// RCKM4 46/// /1708 1//// 40142 56026 92300 222// 00029 333 91210;
0078997266999992005011000004+46267-084183FM-18+0189RCKM V0201701N004119999999N9999999N1+99999+99999101341REMSYN069CMAN 10004 RCKM4 46/// /1708 1//// 40134 90006 222// 00028 333 91214;
0110997266999992005011001004+46267-084183FM-18+0189RCKM V0201701N007019999999N9999999N1+99999+99999101221ADDMD1710261+9999SA1+0279REMSYN076CMTI   46// RCKM4 46/// /1707 1//// 40122 57026 90100 222// 00027 333 91212;
0110997266999992005011002004+46267-084183FM-18+0189RCKM V0201701N008019999999N9999999N1+99999+99999101091ADDMD1710331+9999SA1+0289REMSYN076CMTI   46// RCKM4 46/// /1708 1//// 40109 57033 90200 222// 00028 333 91212;
0090997266999992005011003004+46267-084183FM-18+0189RCKM V0201701N009019999999N9999999N1+99999+99999100991ADDSA1+0299REMSYN070CMTI   46// RCKM4 46/// /1709 1//// 40099 90300 222// 00029 333 91212;
0110997266999992005011004004+46267-084183FM-18+0189RCKM V0202701N005019999999N9999999N1+99999+99999100991ADDMD1610231+9999SA1+0289REMSYN076CMTI   46// RCKM4 46/// /2705 1//// 40099 56023 90400 222// 00028 333 91208;
0090997266999992005011005004+46267-084183FM-18+0189RCKM V0202801N008019999999N9999999N1+99999+99999101041ADDSA1+0299REMSYN070CMTI   46// RCKM4 46/// /2808 1//// 40104 90506 222// 00029 333 91213;
0110997266999992005011006004+46267-084183FM-18+0189RCKM V0202701N007019999999N9999999N1+99999+99999101081ADDMD1210091+9999SA1+0299REMSYN076CMTI   46// RCKM4 46/// /2707 1//// 40108 52009 90600 222// 00029 333 91213;
0110997266999992005011007004+46267-084183FM-18+0189RCKM V0202501N010019999999N9999999N1+99999+99999101071ADDMD1210081+9999SA1+0309REMSYN076CMTI   46// RCKM4 46/// /2510 1//// 40107 52008 90700 222// 00030 333 91218;
0090997266999992005011008004+46267-084183FM-18+0189RCKM V0202401N006019999999N9999999N1+99999+99999101121ADDSA1+0319REMSYN070CMTI   46// RCKM4 46/// /2406 1//// 40112 90800 222// 00031 333 91212;
0110997266999992005011009004+46267-084183FM-18+0189RCKM V0202701N008019999999N9999999N1+99999+99999101191ADDMD1310111+9999SA1+0329REMSYN076CMTI   46// RCKM4 46/// /2708 1//// 40119 53011 90900 222// 00032 333 91214;
0110997266999992005011010004+46267-084183FM-18+0189RCKM V0202801N010019999999N9999999N1+99999+99999101311ADDMD1310241+9999SA1+0279REMSYN076CMTI   46// RCKM4 46/// /2810 1//// 40131 53024 91000 222// 00027 333 91214;
0078997266999992005011011004+46267-084183FM-18+0189RCKM V0202801N005119999999N9999999N1+99999+99999101381REMSYN069CMAN 10114 RCKM4 46/// /2810 1//// 40138 91106 222// 00029 333 91212;
0110997266999992005011012004+46267-084183FM-18+0189RCKM V0202801N010019999999N9999999N1+99999+99999101481ADDMD1210291+9999SA1+0289REMSYN076CMTI   46// RCKM4 46/// /2810 1//// 40148 52029 91200 222// 00028 333 91214;
0110997266999992005011013004+46267-084183FM-18+0189RCKM V0202901N009019999999N9999999N1+99999+99999101581ADDMD1210271+9999SA1+0299REMSYN076CMTI   46// RCKM4 46/// /2909 1//// 40158 52027 91300 222// 00029 333 91214;
0090997266999992005011014004+46267-084183FM-18+0189RCKM V0202701N010019999999N9999999N1+99999+99999101691ADDSA1+0319REMSYN070CMTI   46// RCKM4 46/// /2710 1//// 40169 91400 222// 00031 333 91217;
0084997266999992005011015004+46267-084183FM-18+0189RCKM V0202801N009019999999N9999999N1+99999+99999999999ADDSA1+0289REMSYN064CMTI   46// RCKM4 46/// /2809 1//// 91500 222// 00028 333 91214;
0084997266999992005011016004+46267-084183FM-18+0189RCKM V0202801N008019999999N9999999N1+99999+99999999999ADDSA1+0309REMSYN064CMTI   46// RCKM4 46/// /2808 1//// 91600 222// 00030 333 91221;
0094997266999992005011017004+46267-084183FM-18+0189RCKM V0203101N006219999999N9999999N1+99999+99999101971REMSYN085CMAN  10174 RCKM4 46/// /3112 1//// 40197 91718 222// 000391212 555  555 11010 22012;
0110997266999992005011018004+46267-084183FM-18+0189RCKM V0203101N011019999999N9999999N1+99999+99999102021ADDMD1210241+9999SA1+0289REMSYN076CMTI   46// RCKM4 46/// /3111 1//// 40202 52024 91800 222// 00028 333 91219;
0000997266999992005011019004+46267-084183FM-18+0189RCKM V0203001N006719999999N9999999N1+99999+99999999999
0084997266999992005011020004+46267-084183FM-18+0189RCKM V0203001N012019999999N9999999N1+99999+99999999999ADDSA1+0309REMSYN064CMTI   46// RCKM4 46/// /3012 1//// 92000 222// 00030 333 91216;
0084997266999992005011021004+46267-084183FM-18+0189RCKM V0203001N011019999999N9999999N1+99999+99999999999ADDSA1+0309REMSYN064CMTI   46// RCKM4 46/// /3011 1//// 92106 222// 00030 333 91217;
0084997266999992005011022004+46267-084183FM-18+0189RCKM V0202901N008019999999N9999999N1+99999+99999999999ADDSA1+0299REMSYN064CMTI   46// RCKM4 46/// /2908 1//// 92200 222// 00029 333 91212;
0084997266999992005011023004+46267-084183FM-18+0189RCKM V0202801N006019999999N9999999N1+99999+99999999999ADDSA1+0309REMSYN064CMTI   46// RCKM4 46/// /2806 1//// 92300 222// 00030 333 91209;
0084997266999992005011100004+46267-084183FM-18+0189RCKM V0202801N005019999999N9999999N1+99999+99999999999ADDSA1+0309REMSYN064CMTI   46// RCKM4 46/// /2805 1//// 90000 222// 00030 333 91208;
0084997266999992005011101004+46267-084183FM-18+0189RCKM V0203001N003019999999N9999999N1+99999+99999999999ADDSA1+0299REMSYN064CMTI   46// RCKM4 46/// /3003 1//// 90100 222// 00029 333 91205;
0000997266999992005011102004+46267-084183FM-18+0189RCKM V0209999C000019999999N9999999N1+99999+99999999999
0084997266999992005011103004+46267-084183FM-18+0189RCKM V0209999C000019999999N9999999N1+99999+99999999999ADDSA1+0299REMSYN064CMTI   46// RCKM4 46/// /0000 1//// 90300 222// 00029 333 91202;
0074997266999992005011104004+46267-084183FM-18+0189RCKM V0209999C000019999999N9999999N1+99999+99999999999ADDSA1+0309REMSYN054CMTI   46// RCKM4 46/// /0000 1//// 90400 222// 00030;
0084997266999992005011105004+46267-084183FM-18+0189RCKM V0209999C000019999999N9999999N1+99999+99999999999ADDSA1+0289REMSYN064CMTI   46// RCKM4 46/// /0000 1//// 90500 222// 00028 333 91202;
0084997266999992005011106004+46267-084183FM-18+0189RCKM V0209999C000019999999N9999999N1+99999+99999999999ADDSA1+0299REMSYN064CMTI   46// RCKM4 46/// /0000 1//// 90600 222// 00029 333 91200;
0084997266999992005011107004+46267-084183FM-18+0189RCKM V0209999C000019999999N9999999N1+99999+99999999999ADDSA1+0319REMSYN064CMTI   46// RCKM4 46/// /0000 1//// 90700 222// 00031 333 91203;
0084997266999992005011108004+46267-084183FM-18+0189RCKM V0209999C000019999999N9999999N1+99999+99999999999ADDSA1+0299REMSYN064CMTI   46// RCKM4 46/// /0000 1//// 90800 222// 00029 333 91201;
0084997266999992005011109004+46267-084183FM-18+0189RCKM V0200701N002019999999N9999999N1+99999+99999999999ADDSA1+0289REMSYN064CMTI   46// RCKM4 46/// /0702 1//// 90900 222// 00028 333 91204;
0084997266999992005011110004+46267-084183FM-18+0189RCKM V0209999C000019999999N9999999N1+99999+99999999999ADDSA1+0299REMSYN064CMTI   46// RCKM4 46/// /0000 1//// 91006 222// 00029 333 91202;
0084997266999992005011111004+46267-084183FM-18+0189RCKM V0209999C000019999999N9999999N1+99999+99999999999ADDSA1+0319REMSYN064CMTI   46// RCKM4 46/// /0000 1//// 91100 222// 00031 333 91202;
0084997266999992005011112004+46267-084183FM-18+0189RCKM V0200801N003019999999N9999999N1+99999+99999999999ADDSA1+0329REMSYN064CMTI   46// RCKM4 46/// /0803 1//// 91200 222// 00032 333 91204;
0090997266999992005011114004+46267-084183FM-18+0189RCKM V0200801N007019999999N9999999N1+99999+99999102311ADDSA1+0259REMSYN070CMTI   46// RCKM4 46/// /0807 1//// 40231 91418 222// 00025 333 91210;
0110997266999992005011115004+46267-084183FM-18+0189RCKM V0201001N006019999999N9999999N1+99999+99999102281ADDMD1410001+9999SA1+0269REMSYN076CMTI   46// RCKM4 46/// /1006 1//// 40228 54000 91500 222// 00026 333 91210;
0090997266999992005011116004+46267-084183FM-18+0189RCKM V0200801N004019999999N9999999N1+99999+99999102301ADDSA1+0269REMSYN070CMTI   46// RCKM4 46/// /0804 1//// 40230 91606 222// 00026 333 91206;
0090997266999992005011117004+46267-084183FM-18+0189RCKM V0200801N007019999999N9999999N1+99999+99999102221ADDSA1+0269REMSYN070CMTI   46// RCKM4 46/// /0807 1//// 40222 91700 222// 00026 333 91209;
0090997266999992005011118004+46267-084183FM-18+0189RCKM V0200701N005019999999N9999999N1+99999+99999102151ADDSA1+0279REMSYN070CMTI   46// RCKM4 46/// /0705 1//// 40215 91806 222// 00027 333 91208;
0090997266999992005011119004+46267-084183FM-18+0189RCKM V0200801N006019999999N9999999N1+99999+99999102091ADDSA1+0299REMSYN070CMTI   46// RCKM4 46/// /0806 1//// 40209 91900 222// 00029 333 91210;
0090997266999992005011120004+46267-084183FM-18+0189RCKM V0200901N006019999999N9999999N1+99999+99999102061ADDSA1+0309REMSYN070CMTI   46// RCKM4 46/// /0906 1//// 40206 92018 222// 00030 333 91210;
0090997266999992005011121004+46267-084183FM-18+0189RCKM V0201001N006019999999N9999999N1+99999+99999102071ADDSA1+0319REMSYN070CMTI   46// RCKM4 46/// /1006 1//// 40207 92100 222// 00031 333 91209;
0078997266999992005011122004+46267-084183FM-18+0189RCKM V0200801N002619999999N9999999N1+99999+99999102061REMSYN069CMAN 11224 RCKM4 46/// /0805 1//// 40206 92230 222// 00030 333 91209;
0090997266999992005011123004+46267-084183FM-18+0189RCKM V0201001N006019999999N9999999N1+99999+99999102071ADDSA1+0299REMSYN070CMTI   46// RCKM4 46/// /1006 1//// 40207 92324 222// 00029 333 91208;
0110997266999992005011200004+46267-084183FM-18+0189RCKM V0201101N005019999999N9999999N1+99999+99999102051ADDMD1410001+9999SA1+0289REMSYN076CMTI   46// RCKM4 46/// /1105 1//// 40205 54000 90000 222// 00028 333 91210;
0101997266999992005011201004+46267-084183FM-18+0189RCKM V0201201N003619999999N9999999N1+99999+99999101981ADDMD1810081+9999REMSYN075CMAN 12014 RCKM4 46/// /1207 1//// 40198 58008 90100 222// 00030 333 91214;
0101997266999992005011202004+46267-084183FM-18+0189RCKM V0201201N004619999999N9999999N1+99999+99999102011ADDMD1510061+9999REMSYN075CMAN 12024 RCKM4 46/// /1209 1//// 40201 55006 90200 222// 00030 333 91212;
0101997266999992005011203004+46267-084183FM-18+0189RCKM V0201101N003119999999N9999999N1+99999+99999101941ADDMD1710111+9999REMSYN075CMAN 12034 RCKM4 46/// /1106 1//// 40194 57011 90300 222// 00031 333 91212;
0090997266999992005011204004+46267-084183FM-18+0189RCKM V0201001N008019999999N9999999N1+99999+99999101901ADDSA1+0319REMSYN070CMTI   46// RCKM4 46/// /1008 1//// 40190 90436 222// 00031 333 91211;
0110997266999992005011205004+46267-084183FM-18+0189RCKM V0201001N008019999999N9999999N1+99999+99999101881ADDMD1710131+9999SA1+0319REMSYN076CMTI   46// RCKM4 46/// /1008 1//// 40188 57013 90500 222// 00031 333 91214;
0110997266999992005011206004+46267-084183FM-18+0189RCKM V0201101N008019999999N9999999N1+99999+99999101811ADDMD1710131+9999SA1+0329REMSYN076CMTI   46// RCKM4 46/// /1108 1//// 40181 57013 90600 222// 00032 333 91213;
0090997266999992005011207004+46267-084183FM-18+0189RCKM V0201201N008019999999N9999999N1+99999+99999101761ADDSA1+0319REMSYN070CMTI   46// RCKM4 46/// /1208 1//// 40176 90700 222// 00031 333 91212;
0110997266999992005011208004+46267-084183FM-18+0189RCKM V0201101N005019999999N9999999N1+99999+99999101691ADDMD1710191+9999SA1+0319REMSYN076CMTI   46// RCKM4 46/// /1105 1//// 40169 57019 90800 222// 00031 333 91212;
0110997266999992005011209004+46267-084183FM-18+0189RCKM V0201101N007019999999N9999999N1+99999+99999101591ADDMD1810221+9999SA1+0319REMSYN076CMTI   46// RCKM4 46/// /1107 1//// 40159 58022 90900 222// 00031 333 91211;
0110997266999992005011210004+46267-084183FM-18+0189RCKM V0201101N007019999999N9999999N1+99999+99999101521ADDMD1710241+9999SA1+0319REMSYN076CMTI   46// RCKM4 46/// /1107 1//// 40152 57024 91000 222// 00031 333 91210;
0110997266999992005011211004+46267-084183FM-18+0189RCKM V0200901N010019999999N9999999N1+99999+99999101431ADDMD1610261+9999SA1+0319REMSYN076CMTI   46// RCKM4 46/// /0910 1//// 40143 56026 91100 222// 00031 333 91212;
0090997266999992005011213004+46267-084183FM-18+0189RCKM V0201001N010019999999N9999999N1+99999+99999101231ADDSA1+0319REMSYN070CMTI   46// RCKM4 46/// /1010 1//// 40123 91324 222// 00031 333 91213;
0110997266999992005011214004+46267-084183FM-18+0189RCKM V0201101N013019999999N9999999N1+99999+99999101171ADDMD1710261+9999SA1+0309REMSYN076CMTI   46// RCKM4 46/// /1113 1//// 40117 57026 91400 222// 00030 333 91218;
0090997266999992005011215004+46267-084183FM-18+0189RCKM V0200901N011019999999N9999999N1+99999+99999101121ADDSA1+0309REMSYN070CMTI   46// RCKM4 46/// /0911 1//// 40112 91500 222// 00030 333 91215;
0090997266999992005011216004+46267-084183FM-18+0189RCKM V0201101N010019999999N9999999N1+99999+99999101041ADDSA1+0309REMSYN070CMTI   46// RCKM4 46/// /1110 1//// 40104 91600 222// 00030 333 91216;
0110997266999992005011217004+46267-084183FM-18+0189RCKM V0201101N011019999999N9999999N1+99999+99999100841ADDMD1810331+9999SA1+0309REMSYN076CMTI   46// RCKM4 46/// /1111 1//// 40084 58033 91700 222// 00030 333 91217;
0110997266999992005011218004+46267-084183FM-18+0189RCKM V0201101N014019999999N9999999N1+99999+99999100671ADDMD1810451+9999SA1+0309REMSYN076CMTI   46// RCKM4 46/// /1114 1//// 40067 58045 91800 222// 00030 333 91218;
0110997266999992005011219004+46267-084183FM-18+0189RCKM V0201201N013019999999N9999999N1+99999+99999100501ADDMD1610541+9999SA1+0309REMSYN076CMTI   46// RCKM4 46/// /1213 1//// 40050 56054 91900 222// 00030 333 91217;
0110997266999992005011220004+46267-084183FM-18+0189RCKM V0201301N013019999999N9999999N1+99999+99999100371ADDMD1610471+9999SA1+0309REMSYN076CMTI   46// RCKM4 46/// /1313 1//// 40037 56047 92000 222// 00030 333 91218;
0110997266999992005011221004+46267-084183FM-18+0189RCKM V0201301N009019999999N9999999N1+99999+99999100321ADDMD1610351+9999SA1+0309REMSYN076CMTI   46// RCKM4 46/// /1309 1//// 40032 56035 92100 222// 00030 333 91213;
0110997266999992005011222004+46267-084183FM-18+0189RCKM V0201301N007019999999N9999999N1+99999+99999100181ADDMD1810321+9999SA1+0319REMSYN076CMTI   46// RCKM4 46/// /1307 1//// 40018 58032 92200 222// 00031 333 91208;
0110997266999992005011223004+46267-084183FM-18+0189RCKM V0201301N005019999999N9999999N1+99999+99999100131ADDMD1710241+9999SA1+0309REMSYN076CMTI   46// RCKM4 46/// /1305 1//// 40013 57024 92300 222// 00030 333 91206;
0110997266999992005011300004+46267-084183FM-18+0189RCKM V0201401N013019999999N9999999N1+99999+99999100061ADDMD1610261+9999SA1+0309REMSYN076CMTI   46// RCKM4 46/// /1413 1//// 40006 56026 90000 222// 00030 333 91216;
0110997266999992005011301004+46267-084183FM-18+0189RCKM V0201501N007019999999N9999999N1+99999+99999099971ADDMD1810211+9999SA1+0309REMSYN076CMTI   46// RCKM4 46/// /1507 1//// 49997 58021 90100 222// 00030 333 91211;
0110997266999992005011302004+46267-084183FM-18+0189RCKM V0201501N009019999999N9999999N1+99999+99999099901ADDMD1710231+9999SA1+0279REMSYN076CMTI   46// RCKM4 46/// /1509 1//// 49990 57023 90200 222// 00027 333 91213;
0110997266999992005011303004+46267-084183FM-18+0189RCKM V0201601N008019999999N9999999N1+99999+99999099791ADDMD1810271+9999SA1+0289REMSYN076CMTI   46// RCKM4 46/// /1608 1//// 49979 58027 90300 222// 00028 333 91210;
0110997266999992005011304004+46267-084183FM-18+0189RCKM V0201601N006019999999N9999999N1+99999+99999099791ADDMD1610181+9999SA1+0309REMSYN076CMTI   46// RCKM4 46/// /1606 1//// 49979 56018 90400 222// 00030 333 91208;
0110997266999992005011305004+46267-084183FM-18+0189RCKM V0201701N004019999999N9999999N1+99999+99999099781ADDMD1610121+9999SA1+0319REMSYN076CMTI   46// RCKM4 46/// /1704 1//// 49978 56012 90500 222// 00031 333 91206;
0110997266999992005011306004+46267-084183FM-18+0189RCKM V0202601N003019999999N9999999N1+99999+99999099861ADDMD1310071+9999SA1+0319REMSYN076CMTI   46// RCKM4 46/// /2603 1//// 49986 53007 90600 222// 00031 333 91208;
0110997266999992005011307004+46267-084183FM-18+0189RCKM V0202901N003019999999N9999999N1+99999+99999099881ADDMD1210091+9999SA1+0319REMSYN076CMTI   46// RCKM4 46/// /2903 1//// 49988 52009 90700 222// 00031 333 91204;
0110997266999992005011308004+46267-084183FM-18+0189RCKM V0202901N003019999999N9999999N1+99999+99999099931ADDMD1110151+9999SA1+0299REMSYN076CMTI   46// RCKM4 46/// /2903 1//// 49993 51015 90800 222// 00029 333 91206;
0110997266999992005011309004+46267-084183FM-18+0189RCKM V0202801N002019999999N9999999N1+99999+99999099931ADDMD1210071+9999SA1+0309REMSYN076CMTI   46// RCKM4 46/// /2802 1//// 49993 52007 90900 222// 00030 333 91205;
0110997266999992005011310004+46267-084183FM-18+0189RCKM V0202601N001019999999N9999999N1+99999+99999100001ADDMD1310121+9999SA1+0319REMSYN076CMTI   46// RCKM4 46/// /2601 1//// 40000 53012 91000 222// 00031 333 91204;
0110997266999992005011311004+46267-084183FM-18+0189RCKM V0202901N005019999999N9999999N1+99999+99999100051ADDMD1310121+9999SA1+0319REMSYN076CMTI   46// RCKM4 46/// /2905 1//// 40005 53012 91100 222// 00031 333 91208;
0110997266999992005011312004+46267-084183FM-18+0189RCKM V0203101N008019999999N9999999N1+99999+99999100091ADDMD1110161+9999SA1+0319REMSYN076CMTI   46// RCKM4 46/// /3108 1//// 40009 51016 91200 222// 00031 333 91211;
0110997266999992005011313004+46267-084183FM-18+0189RCKM V0203001N008019999999N9999999N1+99999+99999100101ADDMD1110101+9999SA1+0289REMSYN076CMTI   46// RCKM4 46/// /3008 1//// 40010 51010 91300 222// 00028 333 91209;
0110997266999992005011314004+46267-084183FM-18+0189RCKM V0203201N008019999999N9999999N1+99999+99999100001ADDMD1810051+9999SA1+0299REMSYN076CMTI   46// RCKM4 46/// /3208 1//// 40000 58005 91400 222// 00029 333 91210;
0110997266999992005011315004+46267-084183FM-18+0189RCKM V0203001N007019999999N9999999N1+99999+99999100291ADDMD1310201+9999SA1+0299REMSYN076CMTI   46// RCKM4 46/// /3007 1//// 40029 53020 91500 222// 00029 333 91210;
0110997266999992005011316004+46267-084183FM-18+0189RCKM V0203201N007019999999N9999999N1+99999+99999100291ADDMD1310191+9999SA1+0299REMSYN076CMTI   46// RCKM4 46/// /3207 1//// 40029 53019 91600 222// 00029 333 91212;
0090997266999992005011318004+46267-084183FM-18+0189RCKM V0203101N014019999999N9999999N1+99999+99999100291ADDSA1+0319REMSYN070CMTI   46// RCKM4 46/// /3114 1//// 40029 91848 222// 00031 333 91226;
0110997266999992005011319004+46267-084183FM-18+0189RCKM V0203201N012019999999N9999999N1+99999+99999100301ADDMD1410001+9999SA1+0319REMSYN076CMTI   46// RCKM4 46/// /3212 1//// 40030 54000 91900 222// 00031 333 91219;
0090997266999992005011320004+46267-084183FM-18+0189RCKM V0203101N015019999999N9999999N1+99999+99999100451ADDSA1+0309REMSYN070CMTI   46// RCKM4 46/// /3115 1//// 40045 92000 222// 00030 333 91222;
0090997266999992005011321004+46267-084183FM-18+0189RCKM V0203101N017019999999N9999999N1+99999+99999100561ADDSA1+0299REMSYN070CMTI   46// RCKM4 46/// /3117 1//// 40056 92100 222// 00029 333 91223;
0110997266999992005011322004+46267-084183FM-18+0189RCKM V0203101N016019999999N9999999N1+99999+99999100661ADDMD1110361+9999SA1+0289REMSYN076CMTI   46// RCKM4 46/// /3116 1//// 40066 51036 92200 222// 00028 333 91220;
0110997266999992005011323004+46267-084183FM-18+0189RCKM V0203101N017019999999N9999999N1+99999+99999100841ADDMD1310391+9999SA1+0309REMSYN076CMTI   46// RCKM4 46/// /3117 1//// 40084 53039 92300 222// 00030 333 91223;
0110997266999992005011400004+46267-084183FM-18+0189RCKM V0202901N014019999999N9999999N1+99999+99999101031ADDMD1310471+9999SA1+0309REMSYN076CMTI   46// RCKM4 46/// /2914 1//// 40103 53047 90000 222// 00030 333 91218;
0110997266999992005011401004+46267-084183FM-18+0189RCKM V0203001N012019999999N9999999N1+99999+99999101161ADDMD1110501+9999SA1+0319REMSYN076CMTI   46// RCKM4 46/// /3012 1//// 40116 51050 90100 222// 00031 333 91223;
0090997266999992005011402004+46267-084183FM-18+0189RCKM V0202901N010019999999N9999999N1+99999+99999101261ADDSA1+0319REMSYN070CMTI   46// RCKM4 46/// /2910 1//// 40126 90224 222// 00031 333 91214;
0101997266999992005011403004+46267-084183FM-18+0189RCKM V0203001N004619999999N9999999N1+99999+99999101351ADDMD1210321+9999REMSYN075CMAN 14034 RCKM4 46/// /3009 1//// 40135 52032 90300 222// 00029 333 91221;
0101997266999992005011404004+46267-084183FM-18+0189RCKM V0202901N004619999999N9999999N1+99999+99999101431ADDMD1210271+9999REMSYN075CMAN 14044 RCKM4 46/// /2909 1//// 40143 52027 90400 222// 00030 333 91223;
0078997266999992005011405004+46267-084183FM-18+0189RCKM V0202901N005719999999N9999999N1+99999+99999101561REMSYN069CMAN 14054 RCKM4 46/// /2911 1//// 40156 90500 222// 00030 333 91221;
0101997266999992005011406004+46267-084183FM-18+0189RCKM V0202901N004619999999N9999999N1+99999+99999101651ADDMD1310301+9999REMSYN075CMAN 14064 RCKM4 46/// /2909 1//// 40165 53030 90600 222// 00031 333 91221;
0101997266999992005011407004+46267-084183FM-18+0189RCKM V0202601N003119999999N9999999N1+99999+99999101801ADDMD1310371+9999REMSYN075CMAN 14074 RCKM4 46/// /2606 1//// 40180 53037 90700 222// 00031 333 91216;
0090997266999992005011408004+46267-084183FM-18+0189RCKM V0202501N007019999999N9999999N1+99999+99999101951ADDSA1+0319REMSYN070CMTI   46// RCKM4 46/// /2507 1//// 40195 90806 222// 00031 333 91211;
0110997266999992005011409004+46267-084183FM-18+0189RCKM V0202701N007019999999N9999999N1+99999+99999102061ADDMD1210411+9999SA1+0319REMSYN076CMTI   46// RCKM4 46/// /2707 1//// 40206 52041 90900 222// 00031 333 91217;
0094997266999992005011410004+46267-084183FM-18+0189RCKM V0202601N004119999999N9999999N1+99999+99999102221REMSYN085CMAN  14104 RCKM4 46/// /2608 1//// 40222 91018 222// 000391219 555  555 11015 22018;
0078997266999992005011411004+46267-084183FM-18+0189RCKM V0202601N005119999999N9999999N1+99999+99999102321REMSYN069CMAN 14114 RCKM4 46/// /2610 1//// 40232 91106 222// 00031 333 91217;
0110997266999992005011412004+46267-084183FM-18+0189RCKM V0202601N009019999999N9999999N1+99999+99999102391ADDMD1210331+9999SA1+0309REMSYN076CMTI   46// RCKM4 46/// /2609 1//// 40239 52033 91200 222// 00030 333 91215;
0090997266999992005011413004+46267-084183FM-18+0189RCKM V0202601N007019999999N9999999N1+99999+99999102451ADDSA1+0319REMSYN070CMTI   46// RCKM4 46/// /2607 1//// 40245 91300 222// 00031 333 91215;
0090997266999992005011414004+46267-084183FM-18+0189RCKM V0202601N012019999999N9999999N1+99999+99999102561ADDSA1+0279REMSYN070CMTI   46// RCKM4 46/// /2612 1//// 40256 91406 222// 00027 333 91217;
0090997266999992005011415004+46267-084183FM-18+0189RCKM V0202501N007019999999N9999999N1+99999+99999102651ADDSA1+0289REMSYN070CMTI   46// RCKM4 46/// /2507 1//// 40265 91506 222// 00028 333 91215;
0090997266999992005011416004+46267-084183FM-18+0189RCKM V0202501N010019999999N9999999N1+99999+99999102761ADDSA1+0289REMSYN070CMTI   46// RCKM4 46/// /2510 1//// 40276 91606 222// 00028 333 91215;
0090997266999992005011417004+46267-084183FM-18+0189RCKM V0202701N007019999999N9999999N1+99999+99999102781ADDSA1+0279REMSYN070CMTI   46// RCKM4 46/// /2707 1//// 40278 91700 222// 00027 333 91216;
0090997266999992005011418004+46267-084183FM-18+0189RCKM V0202801N011019999999N9999999N1+99999+99999102781ADDSA1+0289REMSYN070CMTI   46// RCKM4 46/// /2811 1//// 40278 91800 222// 00028 333 91216;
0090997266999992005011419004+46267-084183FM-18+0189RCKM V0202901N008019999999N9999999N1+99999+99999102791ADDSA1+0309REMSYN070CMTI   46// RCKM4 46/// /2908 1//// 40279 91900 222// 00030 333 91217;
0110997266999992005011420004+46267-084183FM-18+0189RCKM V0202701N009019999999N9999999N1+99999+99999102851ADDMD1310071+9999SA1+0309REMSYN076CMTI   46// RCKM4 46/// /2709 1//// 40285 53007 92000 222// 00030 333 91217;
0110997266999992005011421004+46267-084183FM-18+0189RCKM V0202901N011019999999N9999999N1+99999+99999102921ADDMD1310141+9999SA1+0309REMSYN076CMTI   46// RCKM4 46/// /2911 1//// 40292 53014 92100 222// 00030 333 91217;
0110997266999992005011422004+46267-084183FM-18+0189RCKM V0202801N005019999999N9999999N1+99999+99999102991ADDMD1310201+9999SA1+0309REMSYN076CMTI   46// RCKM4 46/// /2805 1//// 40299 53020 92200 222// 00030 333 91213;
0110997266999992005011423004+46267-084183FM-18+0189RCKM V0202801N002019999999N9999999N1+99999+99999103071ADDMD1310221+9999SA1+0319REMSYN076CMTI   46// RCKM4 46/// /2802 1//// 40307 53022 92300 222// 00031 333 91212;
0110997266999992005011500004+46267-084183FM-18+0189RCKM V0202601N006019999999N9999999N1+99999+99999103121ADDMD1110201+9999SA1+0319REMSYN076CMTI   46// RCKM4 46/// /2606 1//// 40312 51020 90000 222// 00031 333 91211;
0110997266999992005011501004+46267-084183FM-18+0189RCKM V0202601N006019999999N9999999N1+99999+99999103161ADDMD1110171+9999SA1+0329REMSYN076CMTI   46// RCKM4 46/// /2606 1//// 40316 51017 90100 222// 00032 333 91209;
0110997266999992005011502004+46267-084183FM-18+0189RCKM V0202601N006019999999N9999999N1+99999+99999103191ADDMD1110121+9999SA1+0319REMSYN076CMTI   46// RCKM4 46/// /2606 1//// 40319 51012 90200 222// 00031 333 91212;
0110997266999992005011503004+46267-084183FM-18+0189RCKM V0202701N006019999999N9999999N1+99999+99999103231ADDMD1210111+9999SA1+0319REMSYN076CMTI   46// RCKM4 46/// /2706 1//// 40323 52011 90300 222// 00031 333 91210;
0110997266999992005011504004+46267-084183FM-18+0189RCKM V0202601N005019999999N9999999N1+99999+99999103301ADDMD1310141+9999SA1+0319REMSYN076CMTI   46// RCKM4 46/// /2605 1//// 40330 53014 90400 222// 00031 333 91211;
0110997266999992005011505004+46267-084183FM-18+0189RCKM V0202601N007019999999N9999999N1+99999+99999103321ADDMD1110131+9999SA1+0309REMSYN076CMTI   46// RCKM4 46/// /2607 1//// 40332 51013 90500 222// 00030 333 91212;
0110997266999992005011506004+46267-084183FM-18+0189RCKM V0202601N005019999999N9999999N1+99999+99999103321ADDMD1110091+9999SA1+0309REMSYN076CMTI   46// RCKM4 46/// /2605 1//// 40332 51009 90600 222// 00030 333 91209;
0110997266999992005011507004+46267-084183FM-18+0189RCKM V0202501N005019999999N9999999N1+99999+99999103331ADDMD1210031+9999SA1+0319REMSYN076CMTI   46// RCKM4 46/// /2505 1//// 40333 52003 90700 222// 00031 333 91207;
0110997266999992005011508004+46267-084183FM-18+0189RCKM V0202601N008019999999N9999999N1+99999+99999103341ADDMD1410001+9999SA1+0319REMSYN076CMTI   46// RCKM4 46/// /2608 1//// 40334 54000 90800 222// 00031 333 91217;
0110997266999992005011509004+46267-084183FM-18+0189RCKM V0202601N005019999999N9999999N1+99999+99999103321ADDMD1410001+9999SA1+0319REMSYN076CMTI   46// RCKM4 46/// /2605 1//// 40332 54000 90900 222// 00031 333 91207;
0110997266999992005011510004+46267-084183FM-18+0189RCKM V0202901N003019999999N9999999N1+99999+99999103311ADDMD1410001+9999SA1+0339REMSYN076CMTI   46// RCKM4 46/// /2903 1//// 40331 54000 91000 222// 00033 333 91208;
0110997266999992005011511004+46267-084183FM-18+0189RCKM V0202801N005019999999N9999999N1+99999+99999103321ADDMD1410001+9999SA1+0329REMSYN076CMTI   46// RCKM4 46/// /2805 1//// 40332 54000 91100 222// 00032 333 91209;
0110997266999992005011512004+46267-084183FM-18+0189RCKM V0202701N009019999999N9999999N1+99999+99999103341ADDMD1410001+9999SA1+0319REMSYN076CMTI   46// RCKM4 46/// /2709 1//// 40334 54000 91200 222// 00031 333 91213;
0110997266999992005011513004+46267-084183FM-18+0189RCKM V0202501N005019999999N9999999N1+99999+99999103351ADDMD1210041+9999SA1+0309REMSYN076CMTI   46// RCKM4 46/// /2505 1//// 40335 52004 91300 222// 00030 333 91209;
0110997266999992005011514004+46267-084183FM-18+0189RCKM V0202601N007019999999N9999999N1+99999+99999103391ADDMD1310071+9999SA1+0319REMSYN076CMTI   46// RCKM4 46/// /2607 1//// 40339 53007 91400 222// 00031 333 91212;
0110997266999992005011515004+46267-084183FM-18+0189RCKM V0202501N007019999999N9999999N1+99999+99999103451ADDMD1310111+9999SA1+0299REMSYN076CMTI   46// RCKM4 46/// /2507 1//// 40345 53011 91500 222// 00029 333 91217;
0110997266999992005011516004+46267-084183FM-18+0189RCKM V0202701N011019999999N9999999N1+99999+99999103461ADDMD1110111+9999SA1+0309REMSYN076CMTI   46// RCKM4 46/// /2711 1//// 40346 51011 91600 222// 00030 333 91217;
0110997266999992005011517004+46267-084183FM-18+0189RCKM V0202801N011019999999N9999999N1+99999+99999103451ADDMD1110061+9999SA1+0309REMSYN076CMTI   46// RCKM4 46/// /2811 1//// 40345 51006 91700 222// 00030 333 91216;
0110997266999992005011518004+46267-084183FM-18+0189RCKM V0202801N008019999999N9999999N1+99999+99999103421ADDMD1810031+9999SA1+0309REMSYN076CMTI   46// RCKM4 46/// /2808 1//// 40342 58003 91800 222// 00030 333 91216;
0110997266999992005011519004+46267-084183FM-18+0189RCKM V0202401N006019999999N9999999N1+99999+99999103391ADDMD1810071+9999SA1+0309REMSYN076CMTI   46// RCKM4 46/// /2406 1//// 40339 58007 91900 222// 00030 333 91211;
0110997266999992005011520004+46267-084183FM-18+0189RCKM V0202601N009019999999N9999999N1+99999+99999103401ADDMD1610051+9999SA1+0289REMSYN076CMTI   46// RCKM4 46/// /2609 1//// 40340 56005 92000 222// 00028 333 91213;
0110997266999992005011521004+46267-084183FM-18+0189RCKM V0202501N008019999999N9999999N1+99999+99999103441ADDMD1510001+9999SA1+0279REMSYN076CMTI   46// RCKM4 46/// /2508 1//// 40344 55000 92100 222// 00027 333 91215;
0110997266999992005011522004+46267-084183FM-18+0189RCKM V0202601N009019999999N9999999N1+99999+99999103491ADDMD1310101+9999SA1+0309REMSYN076CMTI   46// RCKM4 46/// /2609 1//// 40349 53010 92200 222// 00030 333 91213;
0110997266999992005011523004+46267-084183FM-18+0189RCKM V0202501N005019999999N9999999N1+99999+99999103571ADDMD1310171+9999SA1+0309REMSYN076CMTI   46// RCKM4 46/// /2505 1//// 40357 53017 92300 222// 00030 333 91210;
0110997266999992005011601004+46267-084183FM-18+0189RCKM V0202601N006019999999N9999999N1+99999+99999103691ADDMD1210201+9999SA1+0319REMSYN076CMTI   46// RCKM4 46/// /2606 1//// 40369 52020 90100 222// 00031 333 91210;
0110997266999992005011602004+46267-084183FM-18+0189RCKM V0202501N006019999999N9999999N1+99999+99999103721ADDMD1210151+9999SA1+0309REMSYN076CMTI   46// RCKM4 46/// /2506 1//// 40372 52015 90200 222// 00030 333 91212;
0090997266999992005011603004+46267-084183FM-18+0189RCKM V0202501N007019999999N9999999N1+99999+99999103731ADDSA1+0309REMSYN070CMTI   46// RCKM4 46/// /2507 1//// 40373 90300 222// 00030 333 91212;
0110997266999992005011604004+46267-084183FM-18+0189RCKM V0202501N007019999999N9999999N1+99999+99999103731ADDMD1110041+9999SA1+0299REMSYN076CMTI   46// RCKM4 46/// /2507 1//// 40373 51004 90400 222// 00029 333 91213;
0110997266999992005011605004+46267-084183FM-18+0189RCKM V0202701N003019999999N9999999N1+99999+99999103721ADDMD1410001+9999SA1+0309REMSYN076CMTI   46// RCKM4 46/// /2703 1//// 40372 54000 90500 222// 00030 333 91209;
0110997266999992005011606004+46267-084183FM-18+0189RCKM V0202501N005019999999N9999999N1+99999+99999103711ADDMD1410001+9999SA1+0309REMSYN076CMTI   46// RCKM4 46/// /2505 1//// 40371 54000 90600 222// 00030 333 91209;
0110997266999992005011607004+46267-084183FM-18+0189RCKM V0202501N004019999999N9999999N1+99999+99999103681ADDMD1810051+9999SA1+0319REMSYN076CMTI   46// RCKM4 46/// /2504 1//// 40368 58005 90700 222// 00031 333 91210;
0110997266999992005011608004+46267-084183FM-18+0189RCKM V0201701N001019999999N9999999N1+99999+99999103721ADDMD1510001+9999SA1+0319REMSYN076CMTI   46// RCKM4 46/// /1701 1//// 40372 55000 90800 222// 00031 333 91203;
0110997266999992005011609004+46267-084183FM-18+0189RCKM V0202501N001019999999N9999999N1+99999+99999103721ADDMD1510001+9999SA1+0319REMSYN076CMTI   46// RCKM4 46/// /2501 1//// 40372 55000 90900 222// 00031 333 91204;
0110997266999992005011610004+46267-084183FM-18+0189RCKM V0202301N002019999999N9999999N1+99999+99999103671ADDMD1010001+9999SA1+0319REMSYN076CMTI   46// RCKM4 46/// /2302 1//// 40367 50000 91000 222// 00031 333 91206;
0110997266999992005011611004+46267-084183FM-18+0189RCKM V0209999C000019999999N9999999N1+99999+99999103651ADDMD1710071+9999SA1+0319REMSYN076CMTI   46// RCKM4 46/// /0000 1//// 40365 57007 91100 222// 00031 333 91203;
0110997266999992005011612004+46267-084183FM-18+0189RCKM V0201701N002019999999N9999999N1+99999+99999103631ADDMD1610091+9999SA1+0329REMSYN076CMTI   46// RCKM4 46/// /1702 1//// 40363 56009 91200 222// 00032 333 91203;
0100997266999992005011613004+46267-084183FM-18+0189RCKM V0209999C000019999999N9999999N1+99999+99999103621ADDMD1710051+9999SA1+0319REMSYN066CMTI   46// RCKM4 46/// /0000 1//// 40362 57005 91300 222// 00031;
0110997266999992005011614004+46267-084183FM-18+0189RCKM V0203101N001019999999N9999999N1+99999+99999103631ADDMD1410001+9999SA1+0329REMSYN076CMTI   46// RCKM4 46/// /3101 1//// 40363 54000 91400 222// 00032 333 91208;
0100997266999992005011615004+46267-084183FM-18+0189RCKM V0209999C000019999999N9999999N1+99999+99999103621ADDMD1410001+9999SA1+0269REMSYN066CMTI   46// RCKM4 46/// /0000 1//// 40362 54000 91500 222// 00026;
0110997266999992005011616004+46267-084183FM-18+0189RCKM V0202101N001019999999N9999999N1+99999+99999103581ADDMD1810041+9999SA1+0249REMSYN076CMTI   46// RCKM4 46/// /2101 1//// 40358 58004 91600 222// 00024 333 91204;
0110997266999992005011617004+46267-084183FM-18+0189RCKM V0201601N006019999999N9999999N1+99999+99999103491ADDMD1810141+9999SA1+0289REMSYN076CMTI   46// RCKM4 46/// /1606 1//// 40349 58014 91700 222// 00028 333 91208;
0110997266999992005011618004+46267-084183FM-18+0189RCKM V0202201N007019999999N9999999N1+99999+99999103381ADDMD1810241+9999SA1+0279REMSYN076CMTI   46// RCKM4 46/// /2207 1//// 40338 58024 91800 222// 00027 333 91212;
0110997266999992005011619004+46267-084183FM-18+0189RCKM V0202301N005019999999N9999999N1+99999+99999103291ADDMD1710291+9999SA1+0299REMSYN076CMTI   46// RCKM4 46/// /2305 1//// 40329 57029 91900 222// 00029 333 91209;
0110997266999992005011620004+46267-084183FM-18+0189RCKM V0202501N002019999999N9999999N1+99999+99999103251ADDMD1610241+9999SA1+0319REMSYN076CMTI   46// RCKM4 46/// /2502 1//// 40325 56024 92000 222// 00031 333 91208;
0110997266999992005011621004+46267-084183FM-18+0189RCKM V0202601N006019999999N9999999N1+99999+99999103251ADDMD1610131+9999SA1+0319REMSYN076CMTI   46// RCKM4 46/// /2606 1//// 40325 56013 92100 222// 00031 333 91208;
0110997266999992005011622004+46267-084183FM-18+0189RCKM V0202501N002019999999N9999999N1+99999+99999103251ADDMD1610041+9999SA1+0319REMSYN076CMTI   46// RCKM4 46/// /2502 1//// 40325 56004 92200 222// 00031 333 91204;
0110997266999992005011623004+46267-084183FM-18+0189RCKM V0202401N001019999999N9999999N1+99999+99999103291ADDMD1310041+9999SA1+0329REMSYN076CMTI   46// RCKM4 46/// /2401 1//// 40329 53004 92300 222// 00032 333 91204;
0110997266999992005011700004+46270-084180FM-18+0189RCKM V0209999C000019999999N9999999N1+99999+99999103291ADDMD1210041+9999SA1+0329REMSYN076CMTI   46// RCKM4 46/// /0000 1//// 40329 52004 90000 222// 00032 333 91203;
0110997266999992005011701004+46270-084180FM-18+0189RCKM V0202401N003019999999N9999999N1+99999+99999103271ADDMD1010001+9999SA1+0329REMSYN076CMTI   46// RCKM4 46/// /2403 1//// 40327 50000 90100 222// 00032 333 91205;
0110997266999992005011702004+46270-084180FM-18+0189RCKM V0209999C000019999999N9999999N1+99999+99999103261ADDMD1710031+9999SA1+0329REMSYN076CMTI   46// RCKM4 46/// /0000 1//// 40326 57003 90200 222// 00032 333 91200;
0110997266999992005011703004+46270-084180FM-18+0189RCKM V0202601N004019999999N9999999N1+99999+99999103251ADDMD1710041+9999SA1+0329REMSYN076CMTI   46// RCKM4 46/// /2604 1//// 40325 57004 90300 222// 00032 333 91207;
0110997266999992005011704004+46270-084180FM-18+0189RCKM V0203201N001019999999N9999999N1+99999+99999103251ADDMD1410001+9999SA1+0329REMSYN076CMTI   46// RCKM4 46/// /3201 1//// 40325 54000 90400 222// 00032 333 91203;
0110997266999992005011705004+46267-084183FM-18+0189RCKM V0200301N004019999999N9999999N1+99999+99999103271ADDMD1410001+9999SA1+0329REMSYN076CMTI   46// RCKM4 46/// /0304 1//// 40327 54000 90500 222// 00032 333 91206;
0110997266999992005011705004+46270-084180FM-18+0189RCKM V0200301N004019999999N9999999N1+99999+99999103271ADDMD1410001+9999SA1+0329REMSYN076CMTI   46// RCKM4 46/// /0304 1//// 40327 54000 90500 222// 00032 333 91206;
0110997266999992005011706004+46270-084180FM-18+0189RCKM V0203501N005019999999N9999999N1+99999+99999103261ADDMD1410001+9999SA1+0329REMSYN076CMTI   46// RCKM4 46/// /3505 1//// 40326 54000 90600 222// 00032 333 91205;
0110997266999992005011707004+46270-084180FM-18+0189RCKM V0203101N001019999999N9999999N1+99999+99999103301ADDMD1310051+9999SA1+0329REMSYN076CMTI   46// RCKM4 46/// /3101 1//// 40330 53005 90700 222// 00032 333 91203;
0110997266999992005011708004+46270-084180FM-18+0189RCKM V0200101N002019999999N9999999N1+99999+99999103331ADDMD1310061+9999SA1+0329REMSYN076CMTI   46// RCKM4 46/// /0102 1//// 40333 53006 90800 222// 00032 333 91205;
0110997266999992005011709004+46270-084180FM-18+0189RCKM V0203601N005019999999N9999999N1+99999+99999103351ADDMD1110091+9999SA1+0329REMSYN076CMTI   46// RCKM4 46/// /3605 1//// 40335 51009 90900 222// 00032 333 91206;
0110997266999992005011710004+46270-084180FM-18+0189RCKM V0203601N004019999999N9999999N1+99999+99999103361ADDMD1110061+9999SA1+0329REMSYN076CMTI   46// RCKM4 46/// /3604 1//// 40336 51006 91000 222// 00032 333 91206;
0110997266999992005011711004+46270-084180FM-18+0189RCKM V0203501N004019999999N9999999N1+99999+99999103371ADDMD1210041+9999SA1+0329REMSYN076CMTI   46// RCKM4 46/// /3504 1//// 40337 52004 91100 222// 00032 333 91205;
0100997266999992005011712004+46270-084180FM-18+0189RCKM V0209999C000019999999N9999999N1+99999+99999103411ADDMD1310061+9999SA1+0329REMSYN066CMTI   46// RCKM4 46/// /0000 1//// 40341 53006 91200 222// 00032;
0110997266999992005011713004+46270-084180FM-18+0189RCKM V0209999C000019999999N9999999N1+99999+99999103471ADDMD1310111+9999SA1+0329REMSYN076CMTI   46// RCKM4 46/// /0000 1//// 40347 53011 91300 222// 00032 333 91201;
0110997266999992005011714004+46270-084180FM-18+0189RCKM V0203501N006019999999N9999999N1+99999+99999103551ADDMD1310181+9999SA1+0339REMSYN076CMTI   46// RCKM4 46/// /3506 1//// 40355 53018 91400 222// 00033 333 91208;
0110997266999992005011715004+46270-084180FM-18+0189RCKM V0203601N015019999999N9999999N1+99999+99999103621ADDMD1310211+9999SA1+0329REMSYN076CMTI   46// RCKM4 46/// /3615 1//// 40362 53021 91500 222// 00032 333 91219;
0078997266999992005011716004+46270-084180FM-18+0189RCKM V0200101N005119999999N9999999N1+99999+99999103731REMSYN069CMAN 17164 RCKM4 46/// /0110 1//// 40373 91606 222// 00033 333 91213;
0110997266999992005011717004+46270-084180FM-18+0189RCKM V0203301N012019999999N9999999N1+99999+99999103731ADDMD1210181+9999SA1+0329REMSYN076CMTI   46// RCKM4 46/// /3312 1//// 40373 52018 91700 222// 00032 333 91216;
0110997266999992005011718004+46270-084180FM-18+0189RCKM V0203201N012019999999N9999999N1+99999+99999103711ADDMD1210091+9999SA1+0329REMSYN076CMTI   46// RCKM4 46/// /3212 1//// 40371 52009 91800 222// 00032 333 91214;
0090997266999992005011719004+46270-084180FM-18+0189RCKM V0203101N010019999999N9999999N1+99999+99999103711ADDSA1+0329REMSYN070CMTI   46// RCKM4 46/// /3110 1//// 40371 91900 222// 00032 333 91214;
0110997266999992005011720004+46270-084180FM-18+0189RCKM V0203301N011019999999N9999999N1+99999+99999103751ADDMD1510001+9999SA1+0329REMSYN076CMTI   46// RCKM4 46/// /3311 1//// 40375 55000 92000 222// 00032 333 91216;
0110997266999992005011721004+46270-084180FM-18+0189RCKM V0203201N012019999999N9999999N1+99999+99999103821ADDMD1310111+9999SA1+0329REMSYN076CMTI   46// RCKM4 46/// /3212 1//// 40382 53011 92100 222// 00032 333 91214;
0110997266999992005011722004+46270-084180FM-18+0189RCKM V0203501N010019999999N9999999N1+99999+99999103871ADDMD1310161+9999SA1+0329REMSYN076CMTI   46// RCKM4 46/// /3510 1//// 40387 53016 92200 222// 00032 333 91216;
0078997266999992005011723004+46270-084180FM-18+0189RCKM V0200101N003119999999N9999999N1+99999+99999103951REMSYN069CMAN 17234 RCKM4 46/// /0106 1//// 40395 92330 222// 00032 333 91207;
0110997266999992005011800004+46267-084183FM-18+0189RCKM V0203601N005019999999N9999999N1+99999+99999103971ADDMD1210151+9999SA1+0329REMSYN076CMTI   46// RCKM4 46/// /3605 1//// 40397 52015 90000 222// 00032 333 91208;
0110997266999992005011801004+46267-084183FM-18+0189RCKM V0200201N006019999999N9999999N1+99999+99999104001ADDMD1210131+9999SA1+0329REMSYN076CMTI   46// RCKM4 46/// /0206 1//// 40400 52013 90100 222// 00032 333 91208;
0090997266999992005011802004+46267-084183FM-18+0189RCKM V0200401N006019999999N9999999N1+99999+99999104031ADDSA1+0319REMSYN070CMTI   46// RCKM4 46/// /0406 1//// 40403 90200 222// 00031 333 91210;
0110997266999992005011803004+46267-084183FM-18+0189RCKM V0200401N007019999999N9999999N1+99999+99999104061ADDMD1210091+9999SA1+0329REMSYN076CMTI   46// RCKM4 46/// /0407 1//// 40406 52009 90300 222// 00032 333 91209;
0110997266999992005011804004+46267-084183FM-18+0189RCKM V0203401N002019999999N9999999N1+99999+99999104081ADDMD1110081+9999SA1+0319REMSYN076CMTI   46// RCKM4 46/// /3402 1//// 40408 51008 90400 222// 00031 333 91204;
0110997266999992005011805004+46267-084183FM-18+0189RCKM V0203601N002019999999N9999999N1+99999+99999104081ADDMD1110051+9999SA1+0329REMSYN076CMTI   46// RCKM4 46/// /3602 1//// 40408 51005 90500 222// 00032 333 91204;
0100997266999992005011806004+46267-084183FM-18+0189RCKM V0209999C000019999999N9999999N1+99999+99999104041ADDMD1010001+9999SA1+0329REMSYN066CMTI  46/// RCKM4 46/// /0000 1//// 40404 50000 90600 222// 00032;
0110997266999992005011807004+46267-084183FM-18+0189RCKM V0209999C000019999999N9999999N1+99999+99999104071ADDMD1510001+9999SA1+0329REMSYN076CMTI   46// RCKM4 46/// /0000 1//// 40407 55000 90700 222// 00032 333 91200;
0110997266999992005011808004+46267-084183FM-18+0189RCKM V0201001N003019999999N9999999N1+99999+99999104051ADDMD1610031+9999SA1+0339REMSYN076CMTI   46// RCKM4 46/// /1003 1//// 40405 56003 90800 222// 00033 333 91204;
0100997266999992005011809004+46267-084183FM-18+0189RCKM V0209999C000019999999N9999999N1+99999+99999104111ADDMD1310071+9999SA1+0319REMSYN066CMTI   46// RCKM4 46/// /0000 1//// 40411 53007 90900 222// 00031;
0110997266999992005011810004+46267-084183FM-18+0189RCKM V0209999C000019999999N9999999N1+99999+99999104061ADDMD1010001+9999SA1+0329REMSYN076CMTI   46// RCKM4 46/// /0000 1//// 40406 50000 91000 222// 00032 333 91203;
0110997266999992005011811004+46267-084183FM-18+0189RCKM V0201101N004019999999N9999999N1+99999+99999104031ADDMD1010001+9999SA1+0329REMSYN076CMTI   46// RCKM4 46/// /1104 1//// 40403 50000 91100 222// 00032 333 91205;
0110997266999992005011812004+46267-084183FM-18+0189RCKM V0201101N002019999999N9999999N1+99999+99999104001ADDMD1610111+9999SA1+0329REMSYN076CMTI   46// RCKM4 46/// /1102 1//// 40400 56011 91200 222// 00032 333 91204;
0110997266999992005011813004+46267-084183FM-18+0189RCKM V0201001N004019999999N9999999N1+99999+99999103891ADDMD1810171+9999SA1+0329REMSYN076CMTI   46// RCKM4 46/// /1004 1//// 40389 58017 91300 222// 00032 333 91205;
0110997266999992005011814004+46267-084183FM-18+0189RCKM V0200901N004019999999N9999999N1+99999+99999103871ADDMD1610161+9999SA1+0319REMSYN076CMTI   46// RCKM4 46/// /0904 1//// 40387 56016 91400 222// 00031 333 91205;
0000997266999992005011815004+46267-084183FM-18+0189RCKM V0200901N002619999999N9999999N1+99999+99999103751
0110997266999992005011816004+46267-084183FM-18+0189RCKM V0200901N003019999999N9999999N1+99999+99999103611ADDMD1710281+9999SA1+0329REMSYN076CMTI   46// RCKM4 46/// /0903 1//// 40361 57028 91600 222// 00032 333 91205;
0110997266999992005011817004+46267-084183FM-18+0189RCKM V0201201N005019999999N9999999N1+99999+99999103401ADDMD1710471+9999SA1+0329REMSYN076CMTI   46// RCKM4 46/// /1205 1//// 40340 57047 91700 222// 00032 333 91207;
0090997266999992005011818004+46267-084183FM-18+0189RCKM V0201501N008019999999N9999999N1+99999+99999103211ADDSA1+0319REMSYN070CMTI   46// RCKM4 46/// /1508 1//// 40321 91800 222// 00031 333 91211;
0110997266999992005011820004+46267-084183FM-18+0189RCKM V0201601N013019999999N9999999N1+99999+99999102691ADDMD1710711+9999SA1+0319REMSYN076CMTI   46// RCKM4 46/// /1613 1//// 40269 57071 92000 222// 00031 333 91217;
0110997266999992005011821004+46267-084183FM-18+0189RCKM V0201601N012019999999N9999999N1+99999+99999102571ADDMD1710641+9999SA1+0319REMSYN076CMTI   46// RCKM4 46/// /1612 1//// 40257 57064 92100 222// 00031 333 91217;
0090997266999992005011822004+46267-084183FM-18+0189RCKM V0201601N015019999999N9999999N1+99999+99999102311ADDSA1+0319REMSYN070CMTI   46// RCKM4 46/// /1615 1//// 40231 92200 222// 00031 333 91219;
0110997266999992005011823004+46267-084183FM-18+0189RCKM V0201601N015019999999N9999999N1+99999+99999102101ADDMD1810591+9999SA1+0319REMSYN076CMTI   46// RCKM4 46/// /1615 1//// 40210 58059 92300 222// 00031 333 91221;
0110997266999992005011900004+46267-084183FM-18+0189RCKM V0201601N017019999999N9999999N1+99999+99999101911ADDMD1610661+9999SA1+0309REMSYN076CMTI   46// RCKM4 46/// /1617 1//// 40191 56066 90000 222// 00030 333 91224;
0110997266999992005011901004+46267-084183FM-18+0189RCKM V0201701N017019999999N9999999N1+99999+99999101721ADDMD1610591+9999SA1+0329REMSYN076CMTI   46// RCKM4 46/// /1717 1//// 40172 56059 90100 222// 00032 333 91221;
0110997266999992005011902004+46267-084183FM-18+0189RCKM V0201701N014019999999N9999999N1+99999+99999101531ADDMD1710571+9999SA1+0319REMSYN076CMTI   46// RCKM4 46/// /1714 1//// 40153 57057 90200 222// 00031 333 91220;
0110997266999992005011903004+46267-084183FM-18+0189RCKM V0201701N013019999999N9999999N1+99999+99999101371ADDMD1610541+9999SA1+0319REMSYN076CMTI   46// RCKM4 46/// /1713 1//// 40137 56054 90300 222// 00031 333 91219;
0110997266999992005011904004+46267-084183FM-18+0189RCKM V0201701N012019999999N9999999N1+99999+99999101201ADDMD1610521+9999SA1+0319REMSYN076CMTI   46// RCKM4 46/// /1712 1//// 40120 56052 90400 222// 00031 333 91217;
0110997266999992005011905004+46267-084183FM-18+0189RCKM V0201601N013019999999N9999999N1+99999+99999101001ADDMD1810531+9999SA1+0319REMSYN076CMTI   46// RCKM4 46/// /1613 1//// 40100 58053 90500 222// 00031 333 91216;
0110997266999992005011906004+46267-084183FM-18+0189RCKM V0201701N012019999999N9999999N1+99999+99999100821ADDMD1810551+9999SA1+0319REMSYN076CMTI   46// RCKM4 46/// /1712 1//// 40082 58055 90600 222// 00031 333 91214;
0110997266999992005011907004+46267-084183FM-18+0189RCKM V0201601N010019999999N9999999N1+99999+99999100661ADDMD1610541+9999SA1+0319REMSYN076CMTI   46// RCKM4 46/// /1610 1//// 40066 56054 90700 222// 00031 333 91216;
0110997266999992005011908004+46267-084183FM-18+0189RCKM V0201701N007019999999N9999999N1+99999+99999100541ADDMD1610461+9999SA1+0319REMSYN076CMTI   46// RCKM4 46/// /1707 1//// 40054 56046 90800 222// 00031 333 91210;
0110997266999992005011909004+46267-084183FM-18+0189RCKM V0201801N004019999999N9999999N1+99999+99999100481ADDMD1610341+9999SA1+0319REMSYN076CMTI   46// RCKM4 46/// /1804 1//// 40048 56034 90900 222// 00031 333 91208;
0110997266999992005011910004+46267-084183FM-18+0189RCKM V0201801N004019999999N9999999N1+99999+99999100441ADDMD1610221+9999SA1+0319REMSYN076CMTI   46// RCKM4 46/// /1804 1//// 40044 56022 91000 222// 00031 333 91206;
0100997266999992005011911004+46267-084183FM-18+0189RCKM V0209999C000019999999N9999999N1+99999+99999100461ADDMD1610081+9999SA1+0319REMSYN066CMTI   46// RCKM4 46/// /0000 1//// 40046 56008 91100 222// 00031;
0100997266999992005011912004+46267-084183FM-18+0189RCKM V0209999C000019999999N9999999N1+99999+99999100511ADDMD1310031+9999SA1+0329REMSYN066CMTI   46// RCKM4 46/// /0000 1//// 40051 53003 91200 222// 00032;
0110997266999992005011913004+46267-084183FM-18+0189RCKM V0209999C000019999999N9999999N1+99999+99999100581ADDMD1310141+9999SA1+0329REMSYN076CMTI   46// RCKM4 46/// /0000 1//// 40058 53014 91300 222// 00032 333 91202;
0110997266999992005011914004+46267-084183FM-18+0189RCKM V0209999C000019999999N9999999N1+99999+99999100621ADDMD1110161+9999SA1+0329REMSYN076CMTI   46// RCKM4 46/// /0000 1//// 40062 51016 91400 222// 00032 333 91200;
0110997266999992005011915004+46267-084183FM-18+0189RCKM V0202601N003019999999N9999999N1+99999+99999100701ADDMD1310191+9999SA1+0339REMSYN076CMTI   46// RCKM4 46/// /2603 1//// 40070 53019 91500 222// 00033 333 91205;
0110997266999992005011916004+46267-084183FM-18+0189RCKM V0209999C000019999999N9999999N1+99999+99999100771ADDMD1310191+9999SA1+0329REMSYN076CMTI   46// RCKM4 46/// /0000 1//// 40077 53019 91600 222// 00032 333 91204;
0110997266999992005011917004+46267-084183FM-18+0189RCKM V0202901N004019999999N9999999N1+99999+99999100761ADDMD1110141+9999SA1+0339REMSYN076CMTI   46// RCKM4 46/// /2904 1//// 40076 51014 91700 222// 00033 333 91208;
0110997266999992005011918004+46267-084183FM-18+0189RCKM V0203301N011019999999N9999999N1+99999+99999100871ADDMD1310171+9999SA1+0339REMSYN076CMTI   46// RCKM4 46/// /3311 1//// 40087 53017 91800 222// 00033 333 91216;
0110997266999992005011919004+46267-084183FM-18+0189RCKM V0203301N016019999999N9999999N1+99999+99999100981ADDMD1310211+9999SA1+0329REMSYN076CMTI   46// RCKM4 46/// /3316 1//// 40098 53021 91900 222// 00032 333 91220;
0110997266999992005011920004+46267-084183FM-18+0189RCKM V0203201N016019999999N9999999N1+99999+99999101191ADDMD1310431+9999SA1+0329REMSYN076CMTI   46// RCKM4 46/// /3216 1//// 40119 53043 92000 222// 00032 333 91222;
0110997266999992005011921004+46267-084183FM-18+0189RCKM V0203201N015019999999N9999999N1+99999+99999101381ADDMD1310511+9999SA1+0329REMSYN076CMTI   46// RCKM4 46/// /3215 1//// 40138 53051 92100 222// 00032 333 91221;
0110997266999992005011922004+46267-084183FM-18+0189RCKM V0203401N014019999999N9999999N1+99999+99999101591ADDMD1210611+9999SA1+0329REMSYN076CMTI   46// RCKM4 46/// /3414 1//// 40159 52061 92200 222// 00032 333 91219;
0110997266999992005011923004+46267-084183FM-18+0189RCKM V0203601N012019999999N9999999N1+99999+99999101751ADDMD1110561+9999SA1+0339REMSYN076CMTI   46// RCKM4 46/// /3612 1//// 40175 51056 92300 222// 00033 333 91216;
0090997266999992005012000004+46267-084183FM-18+0189RCKM V0203301N007019999999N9999999N1+99999+99999101901ADDSA1+0329REMSYN070CMTI   46// RCKM4 46/// /3307 1//// 40190 90006 222// 00032 333 91209;
0110997266999992005012001004+46267-084183FM-18+0189RCKM V0203301N006019999999N9999999N1+99999+99999102071ADDMD1210481+9999SA1+0329REMSYN076CMTI   46// RCKM4 46/// /3306 1//// 40207 52048 90100 222// 00032 333 91210;
0090997266999992005012004004+46267-084183FM-18+0189RCKM V0203201N004019999999N9999999N1+99999+99999102311ADDSA1+0339REMSYN070CMTI   46// RCKM4 46/// /3204 1//// 40231 90418 222// 00033 333 91206;
0090997266999992005012005004+46267-084183FM-18+0189RCKM V0203501N006019999999N9999999N1+99999+99999102331ADDSA1+0329REMSYN070CMTI   46// RCKM4 46/// /3506 1//// 40233 90500 222// 00032 333 91207;
0110997266999992005012006004+46267-084183FM-18+0189RCKM V0203401N003019999999N9999999N1+99999+99999102401ADDMD1110211+9999SA1+0319REMSYN076CMTI   46// RCKM4 46/// /3403 1//// 40240 51021 90600 222// 00031 333 91205;
0110997266999992005012007004+46267-084183FM-18+0189RCKM V0203601N005019999999N9999999N1+99999+99999102411ADDMD1110111+9999SA1+0319REMSYN076CMTI   46// RCKM4 46/// /3605 1//// 40241 51011 90700 222// 00031 333 91208;
0110997266999992005012008004+46267-084183FM-18+0189RCKM V0200101N004019999999N9999999N1+99999+99999102401ADDMD1110071+9999SA1+0309REMSYN076CMTI   46// RCKM4 46/// /0104 1//// 40240 51007 90800 222// 00030 333 91206;
0110997266999992005012009004+46267-084183FM-18+0189RCKM V0200201N001019999999N9999999N1+99999+99999102341ADDMD1810061+9999SA1+0319REMSYN076CMTI   46// RCKM4 46/// /0201 1//// 40234 58006 90900 222// 00031 333 91203;
0110997266999992005012010004+46267-084183FM-18+0189RCKM V0209999C000019999999N9999999N1+99999+99999102331ADDMD1710081+9999SA1+0329REMSYN076CMTI   46// RCKM4 46/// /0000 1//// 40233 57008 91000 222// 00032 333 91201;
0100997266999992005012011004+46267-084183FM-18+0189RCKM V0209999C000019999999N9999999N1+99999+99999102341ADDMD1610061+9999SA1+0329REMSYN066CMTI   46// RCKM4 46/// /0000 1//// 40234 56006 91100 222// 00032;
0100997266999992005012012004+46267-084183FM-18+0189RCKM V0209999C000019999999N9999999N1+99999+99999102391ADDMD1310051+9999SA1+0329REMSYN066CMTI   46// RCKM4 46/// /0000 1//// 40239 53005 91200 222// 00032;
0110997266999992005012013004+46267-084183FM-18+0189RCKM V0200701N001019999999N9999999N1+99999+99999102391ADDMD1210061+9999SA1+0329REMSYN076CMTI   46// RCKM4 46/// /0701 1//// 40239 52006 91300 222// 00032 333 91203;
0110997266999992005012014004+46267-084183FM-18+0189RCKM V0200701N003019999999N9999999N1+99999+99999102451ADDMD1310111+9999SA1+0329REMSYN076CMTI   46// RCKM4 46/// /0703 1//// 40245 53011 91400 222// 00032 333 91203;
0110997266999992005012015004+46267-084183FM-18+0189RCKM V0200401N005019999999N9999999N1+99999+99999102501ADDMD1310111+9999SA1+0329REMSYN076CMTI   46// RCKM4 46/// /0405 1//// 40250 53011 91500 222// 00032 333 91206;
0090997266999992005012016004+46267-084183FM-18+0189RCKM V0200801N004019999999N9999999N1+99999+99999102511ADDSA1+0339REMSYN070CMTI   46// RCKM4 46/// /0804 1//// 40251 91606 222// 00033 333 91205;
0090997266999992005012017004+46267-084183FM-18+0189RCKM V0200401N003019999999N9999999N1+99999+99999102461ADDSA1+0329REMSYN070CMTI   46// RCKM4 46/// /0403 1//// 40246 91718 222// 00032 333 91204;
0090997266999992005012018004+46267-084183FM-18+0189RCKM V0201101N003019999999N9999999N1+99999+99999102411ADDSA1+0329REMSYN070CMTI   46// RCKM4 46/// /1103 1//// 40241 91806 222// 00032 333 91204;
0090997266999992005012019004+46267-084183FM-18+0189RCKM V0209999C000019999999N9999999N1+99999+99999102381ADDSA1+0329REMSYN070CMTI   46// RCKM4 46/// /0000 1//// 40238 91900 222// 00032 333 91201;
0110997266999992005012020004+46267-084183FM-18+0189RCKM V0209999C000019999999N9999999N1+99999+99999102381ADDMD1710101+9999SA1+0319REMSYN076CMTI   46// RCKM4 46/// /0000 1//// 40238 57010 92000 222// 00031 333 91202;
0090997266999992005012021004+46267-084183FM-18+0189RCKM V0203101N003019999999N9999999N1+99999+99999102391ADDSA1+0329REMSYN070CMTI   46// RCKM4 46/// /3103 1//// 40239 92100 222// 00032 333 91204;
0090997266999992005012022004+46267-084183FM-18+0189RCKM V0209999C000019999999N9999999N1+99999+99999102401ADDSA1+0329REMSYN070CMTI   46// RCKM4 46/// /0000 1//// 40240 92200 222// 00032 333 91200;
0100997266999992005012023004+46267-084183FM-18+0189RCKM V0209999C000019999999N9999999N1+99999+99999102451ADDMD1210071+9999SA1+0329REMSYN066CMTI   46// RCKM4 46/// /0000 1//// 40245 52007 92300 222// 00032;
0080997266999992005012100004+46267-084183FM-18+0189RCKM V0209999C000019999999N9999999N1+99999+99999102511ADDSA1+0339REMSYN060CMTI   46// RCKM4 46/// /0000 1//// 40251 90000 222// 00033;
0080997266999992005012101004+46267-084183FM-18+0189RCKM V0209999C000019999999N9999999N1+99999+99999102561ADDSA1+0329REMSYN060CMTI   46// RCKM4 46/// /0000 1//// 40256 90100 222// 00032;
0100997266999992005012102004+46267-084183FM-18+0189RCKM V0209999C000019999999N9999999N1+99999+99999102601ADDMD1110151+9999SA1+0329REMSYN066CMTI   46// RCKM4 46/// /0000 1//// 40260 51015 90200 222// 00032;
0100997266999992005012103004+46267-084183FM-18+0189RCKM V0209999C000019999999N9999999N1+99999+99999102631ADDMD1110121+9999SA1+0329REMSYN066CMTI   46// RCKM4 46/// /0000 1//// 40263 51012 90300 222// 00032;
0110997266999992005012104004+46267-084183FM-18+0189RCKM V0203401N002019999999N9999999N1+99999+99999102681ADDMD1310121+9999SA1+0339REMSYN076CMTI   46// RCKM4 46/// /3402 1//// 40268 53012 90400 222// 00033 333 91203;
0110997266999992005012105004+46267-084183FM-18+0189RCKM V0209999C000019999999N9999999N1+99999+99999102771ADDMD1310171+9999SA1+0329REMSYN076CMTI   46// RCKM4 46/// /0000 1//// 40277 53017 90500 222// 00032 333 91201;
0100997266999992005012107004+46267-084183FM-18+0189RCKM V0209999C000019999999N9999999N1+99999+99999102821ADDMD1210141+9999SA1+0329REMSYN066CMTI   46// RCKM4 46/// /0000 1//// 40282 52014 90700 222// 00032;
0100997266999992005012108004+46267-084183FM-18+0189RCKM V0209999C000019999999N9999999N1+99999+99999102881ADDMD1210111+9999SA1+0329REMSYN066CMTI   46// RCKM4 46/// /0000 1//// 40288 52011 90800 222// 00032;
0080997266999992005012109004+46267-084183FM-18+0189RCKM V0209999C000019999999N9999999N1+99999+99999102911ADDSA1+0319REMSYN060CMTI   46// RCKM4 46/// /0000 1//// 40291 90900 222// 00031;
0000997266999992005012110004+46267-084183FM-18+0189RCKM V0209999C000019999999N9999999N1+99999+99999102951
0100997266999992005012111004+46267-084183FM-18+0189RCKM V0209999C000019999999N9999999N1+99999+99999102961ADDMD1210081+9999SA1+0329REMSYN066CMTI   46// RCKM4 46/// /0000 1//// 40296 52008 91100 222// 00032;
0100997266999992005012112004+46267-084183FM-18+0189RCKM V0209999C000019999999N9999999N1+99999+99999103011ADDMD1210101+9999SA1+0329REMSYN066CMTI   46// RCKM4 46/// /0000 1//// 40301 52010 91200 222// 00032;
0080997266999992005012113004+46267-084183FM-18+0189RCKM V0209999C000019999999N9999999N1+99999+99999103031ADDSA1+0329REMSYN060CMTI   46// RCKM4 46/// /0000 1//// 40303 91300 222// 00032;
0100997266999992005012114004+46267-084183FM-18+0189RCKM V0209999C000019999999N9999999N1+99999+99999103021ADDMD1110061+9999SA1+0329REMSYN066CMTI   46// RCKM4 46/// /0000 1//// 40302 51006 91400 222// 00032;
0090997266999992005012115004+46267-084183FM-18+0189RCKM V0209999C000019999999N9999999N1+99999+99999103051ADDSA1+0329REMSYN070CMTI   46// RCKM4 46/// /0000 1//// 40305 91554 222// 00032 333 91204;
0110997266999992005012116004+46267-084183FM-18+0189RCKM V0209999C000019999999N9999999N1+99999+99999103041ADDMD1410001+9999SA1+0329REMSYN076CMTI   46// RCKM4 46/// /0000 1//// 40304 54000 91600 222// 00032 333 91201;
0101997266999992005012117004+46267-084183FM-18+0189RCKM V0201701N002619999999N9999999N1+99999+99999102981ADDMD1810041+9999REMSYN075CMAN 21174 RCKM4 46/// /1705 1//// 40298 58004 91700 222// 00032 333 91207;
0090997266999992005012118004+46267-084183FM-18+0189RCKM V0201401N006019999999N9999999N1+99999+99999102851ADDSA1+0329REMSYN070CMTI   46// RCKM4 46/// /1406 1//// 40285 91818 222// 00032 333 91207;
0090997266999992005012119004+46267-084183FM-18+0189RCKM V0200701N007019999999N9999999N1+99999+99999102771ADDSA1+0339REMSYN070CMTI   46// RCKM4 46/// /0707 1//// 40277 91918 222// 00033 333 91210;
0110997266999992005012120004+46267-084183FM-18+0189RCKM V0200701N005019999999N9999999N1+99999+99999102761ADDMD1710221+9999SA1+0329REMSYN076CMTI   46// RCKM4 46/// /0705 1//// 40276 57022 92000 222// 00032 333 91206;
0090997266999992005012121004+46267-084183FM-18+0189RCKM V0200701N002019999999N9999999N1+99999+99999102711ADDSA1+0329REMSYN070CMTI   46// RCKM4 46/// /0702 1//// 40271 92100 222// 00032 333 91208;
0090997266999992005012122004+46267-084183FM-18+0189RCKM V0200601N004019999999N9999999N1+99999+99999102651ADDSA1+0329REMSYN070CMTI   46// RCKM4 46/// /0604 1//// 40265 92200 222// 00032 333 91206;
0110997266999992005012123004+46267-084183FM-18+0189RCKM V0201201N003019999999N9999999N1+99999+99999102601ADDMD1710161+9999SA1+0319REMSYN076CMTI   46// RCKM4 46/// /1203 1//// 40260 57016 92300 222// 00031 333 91204;
0100997266999992005012200004+46267-084183FM-18+0189RCKM V0209999C000019999999N9999999N1+99999+99999102551ADDMD1610161+9999SA1+0329REMSYN066CMTI   46// RCKM4 46/// /0000 1//// 40255 56016 90000 222// 00032;
0110997266999992005012201004+46267-084183FM-18+0189RCKM V0201001N003019999999N9999999N1+99999+99999102521ADDMD1610131+9999SA1+0329REMSYN076CMTI   46// RCKM4 46/// /1003 1//// 40252 56013 90100 222// 00032 333 91204;
0110997266999992005012202004+46267-084183FM-18+0189RCKM V0201201N004019999999N9999999N1+99999+99999102421ADDMD1810181+9999SA1+0329REMSYN076CMTI   46// RCKM4 46/// /1204 1//// 40242 58018 90200 222// 00032 333 91206;
0110997266999992005012203004+46267-084183FM-18+0189RCKM V0201101N006019999999N9999999N1+99999+99999102381ADDMD1810171+9999SA1+0329REMSYN076CMTI   46// RCKM4 46/// /1106 1//// 40238 58017 90300 222// 00032 333 91209;
0110997266999992005012204004+46267-084183FM-18+0189RCKM V0200901N004019999999N9999999N1+99999+99999102241ADDMD1810281+9999SA1+0329REMSYN076CMTI   46// RCKM4 46/// /0904 1//// 40224 58028 90400 222// 00032 333 91207;
0110997266999992005012205004+46267-084183FM-18+0189RCKM V0201001N005019999999N9999999N1+99999+99999102211ADDMD1610211+9999SA1+0329REMSYN076CMTI   46// RCKM4 46/// /1005 1//// 40221 56021 90500 222// 00032 333 91209;
0110997266999992005012207004+46267-084183FM-18+0189RCKM V0201001N006019999999N9999999N1+99999+99999102061ADDMD1810181+9999SA1+0329REMSYN076CMTI   46// RCKM4 46/// /1006 1//// 40206 58018 90700 222// 00032 333 91210;
0110997266999992005012208004+46267-084183FM-18+0189RCKM V0200901N009019999999N9999999N1+99999+99999102021ADDMD1610191+9999SA1+0329REMSYN076CMTI   46// RCKM4 46/// /0909 1//// 40202 56019 90800 222// 00032 333 91213;
0110997266999992005012209004+46267-084183FM-18+0189RCKM V0200801N010019999999N9999999N1+99999+99999102001ADDMD1610131+9999SA1+0309REMSYN076CMTI   46// RCKM4 46/// /0810 1//// 40200 56013 90900 222// 00030 333 91213;
0110997266999992005012210004+46267-084183FM-18+0189RCKM V0200601N010019999999N9999999N1+99999+99999102001ADDMD1610061+9999SA1+0309REMSYN076CMTI   46// RCKM4 46/// /0610 1//// 40200 56006 91000 222// 00030 333 91214;
0110997266999992005012211004+46267-084183FM-18+0189RCKM V0200901N008019999999N9999999N1+99999+99999101981ADDMD1710041+9999SA1+0319REMSYN076CMTI   46// RCKM4 46/// /0908 1//// 40198 57004 91100 222// 00031 333 91215;
0110997266999992005012212004+46267-084183FM-18+0189RCKM V0200801N008019999999N9999999N1+99999+99999101981ADDMD1410001+9999SA1+0319REMSYN076CMTI   46// RCKM4 46/// /0808 1//// 40198 54000 91200 222// 00031 333 91215;
0110997266999992005012213004+46267-084183FM-18+0189RCKM V0200701N008019999999N9999999N1+99999+99999102031ADDMD1310031+9999SA1+0319REMSYN076CMTI   46// RCKM4 46/// /0708 1//// 40203 53003 91300 222// 00031 333 91210;
0110997266999992005012214004+46267-084183FM-18+0189RCKM V0200601N006019999999N9999999N1+99999+99999102061ADDMD1310081+9999SA1+0319REMSYN076CMTI   46// RCKM4 46/// /0606 1//// 40206 53008 91400 222// 00031 333 91208;
0110997266999992005012215004+46267-084183FM-18+0189RCKM V0200201N006019999999N9999999N1+99999+99999102101ADDMD1110121+9999SA1+0319REMSYN076CMTI   46// RCKM4 46/// /0206 1//// 40210 51012 91500 222// 00031 333 91208;
0110997266999992005012216004+46267-084183FM-18+0189RCKM V0200501N009019999999N9999999N1+99999+99999102141ADDMD1310111+9999SA1+0329REMSYN076CMTI   46// RCKM4 46/// /0509 1//// 40214 53011 91600 222// 00032 333 91213;
0110997266999992005012217004+46267-084183FM-18+0189RCKM V0200301N011019999999N9999999N1+99999+99999102151ADDMD1110091+9999SA1+0329REMSYN076CMTI   46// RCKM4 46/// /0311 1//// 40215 51009 91700 222// 00032 333 91217;
