0078997258999992005010100004+43017-082417FM-18+0189FTGM V02099999999999999999N9999999N1+99999+99999999999REMSYN069CMAN  01004 FTGM4 46/// ///// 1//// 40117 90018 222// 0002 333 91225;
0057997258999992005010105004+43017-082417FM-18+0189FTGM V02099999999999999999N9999999N1+99999+99999102381REMSYN048CMTI   46// FTGM4 46/// ///// 1//// 40238 90554;
0057997258999992005010106004+43017-082417FM-18+0189FTGM V02099999999999999999N9999999N1+99999+99999102391REMSYN048CMTI   46// FTGM4 46/// ///// 1//// 40239 90600;
0057997258999992005010107004+43017-082417FM-18+0189FTGM V02099999999999999999N9999999N1+99999+99999102451REMSYN048CMTI   46// FTGM4 46/// ///// 1//// 40245 90700;
0057997258999992005010108004+43017-082417FM-18+0189FTGM V02099999999999999999N9999999N1+99999+99999102561REMSYN048CMTI   46// FTGM4 46/// ///// 1//// 40256 90800;
0080997258999992005010109004+43017-082417FM-18+0189FTGM V02099999999999999999N9999999N1+99999+99999102641ADDMD1310251+9999REMSYN054CMTI   46// FTGM4 46/// ///// 1//// 40264 53025 90900;
0080997258999992005010110004+43017-082417FM-18+0189FTGM V02099999999999999999N9999999N1+99999+99999102741ADDMD1110291+9999REMSYN054CMTI   46// FTGM4 46/// ///// 1//// 40274 51029 91000;
0080997258999992005010111004+43017-082417FM-18+0189FTGM V02099999999999999999N9999999N1+99999+99999102841ADDMD1310281+9999REMSYN054CMTI   46// FTGM4 46/// ///// 1//// 40284 53028 91100;
0080997258999992005010112004+43017-082417FM-18+0189FTGM V02099999999999999999N9999999N1+99999+99999102961ADDMD1310321+9999REMSYN054CMTI   46// FTGM4 46/// ///// 1//// 40296 53032 91200;
0080997258999992005010113004+43017-082417FM-18+0189FTGM V02099999999999999999N9999999N1+99999+99999103061ADDMD1210321+9999REMSYN054CMTI   46// FTGM4 46/// ///// 1//// 40306 52032 91300;
0080997258999992005010114004+43017-082417FM-18+0189FTGM V02099999999999999999N9999999N1+99999+99999103151ADDMD1110311+9999REMSYN054CMTI   46// FTGM4 46/// ///// 1//// 40315 51031 91400;
0080997258999992005010115004+43017-082417FM-18+0189FTGM V02099999999999999999N9999999N1+99999+99999103251ADDMD1210291+9999REMSYN054CMTI   46// FTGM4 46/// ///// 1//// 40325 52029 91500;
0080997258999992005010116004+43017-082417FM-18+0189FTGM V02099999999999999999N9999999N1+99999+99999103321ADDMD1110261+9999REMSYN054CMTI   46// FTGM4 46/// ///// 1//// 40332 51026 91600;
0080997258999992005010117004+43017-082417FM-18+0189FTGM V02099999999999999999N9999999N1+99999+99999103301ADDMD1110151+9999REMSYN054CMTI   46// FTGM4 46/// ///// 1//// 40330 51015 91700;
0057997258999992005010118004+43017-082417FM-18+0189FTGM V02099999999999999999N9999999N1+99999+99999103351REMSYN048CMTI   46// FTGM4 46/// ///// 1//// 40335 91824;
0057997258999992005010121004+43017-082417FM-18+0189FTGM V02099999999999999999N9999999N1+99999+99999103411REMSYN048CMTI   46// FTGM4 46/// ///// 1//// 40341 92106;
0085997258999992005010208004+43017-082417FM-18+0189FTGM V02099999999999999999N9999999N1+99999+99999999999REMSYN076CMAN  02084 FTGM4 46/// ///// 1//// 0754 222// 00191 333 91206 555 TIDE1219;
0057997258999992005010209004+43017-082417FM-18+0189FTGM V02099999999999999999N9999999N1+99999+99999102711REMSYN048CMTI   46// FTGM4 46/// ///// 1//// 40271 90900;
0056997258999992005010210004+43017-082417FM-18+0189FTGM V02099999999999999999N9999999N1+99999+99999102571REMSYN047CMAN 02104 FTGM4 46/// ///// 1//// 40257 91006;
0057997258999992005010211004+43017-082417FM-18+0189FTGM V02099999999999999999N9999999N1+99999+99999102491REMSYN048CMTI   46// FTGM4 46/// ///// 1//// 40249 91100;
0080997258999992005010212004+43017-082417FM-18+0189FTGM V02099999999999999999N9999999N1+99999+99999102411ADDMD1710301+9999REMSYN054CMTI   46// FTGM4 46/// ///// 1//// 40241 57030 91200;
0057997258999992005010213004+43017-082417FM-18+0189FTGM V02099999999999999999N9999999N1+99999+99999102321REMSYN048CMTI   46// FTGM4 46/// ///// 1//// 40232 91300;
0080997258999992005010214004+43017-082417FM-18+0189FTGM V02099999999999999999N9999999N1+99999+99999102291ADDMD1610201+9999REMSYN054CMTI   46// FTGM4 46/// ///// 1//// 40229 56020 91400;
0080997258999992005010215004+43017-082417FM-18+0189FTGM V02099999999999999999N9999999N1+99999+99999102251ADDMD1610161+9999REMSYN054CMTI   46// FTGM4 46/// ///// 1//// 40225 56016 91500;
0080997258999992005010216004+43017-082417FM-18+0189FTGM V02099999999999999999N9999999N1+99999+99999102191ADDMD1810131+9999REMSYN054CMTI   46// FTGM4 46/// ///// 1//// 40219 58013 91600;
0080997258999992005010217004+43017-082417FM-18+0189FTGM V02099999999999999999N9999999N1+99999+99999102091ADDMD1810201+9999REMSYN054CMTI   46// FTGM4 46/// ///// 1//// 40209 58020 91700;
0080997258999992005010218004+43017-082417FM-18+0189FTGM V02099999999999999999N9999999N1+99999+99999102011ADDMD1810241+9999REMSYN054CMTI   46// FTGM4 46/// ///// 1//// 40201 58024 91800;
0080997258999992005010219004+43017-082417FM-18+0189FTGM V02099999999999999999N9999999N1+99999+99999101981ADDMD1610211+9999REMSYN054CMTI   46// FTGM4 46/// ///// 1//// 40198 56021 91900;
0057997258999992005010220004+43017-082417FM-18+0189FTGM V02099999999999999999N9999999N1+99999+99999102011REMSYN048CMTI   46// FTGM4 46/// ///// 1//// 40201 92006;
0057997258999992005010221004+43017-082417FM-18+0189FTGM V02099999999999999999N9999999N1+99999+99999102101REMSYN048CMTI   46// FTGM4 46/// ///// 1//// 40210 92124;
0057997258999992005010301004+43017-082417FM-18+0189FTGM V02099999999999999999N9999999N1+99999+99999102471REMSYN048CMTI   46// FTGM4 46/// ///// 1//// 40247 90130;
0057997258999992005010302004+43017-082417FM-18+0189FTGM V02099999999999999999N9999999N1+99999+99999102491REMSYN048CMTI   46// FTGM4 46/// ///// 1//// 40249 90200;
0057997258999992005010303004+43017-082417FM-18+0189FTGM V02099999999999999999N9999999N1+99999+99999102551REMSYN048CMTI   46// FTGM4 46/// ///// 1//// 40255 90300;
0078997258999992005010304004+43017-082417FM-18+0189FTGM V02099999999999999999N9999999N1+99999+99999999999REMSYN069CMAN  03044 FTGM4 46/// ///// 1//// 0312 90406 222// 00057 333 91201;
0056997258999992005010305004+43017-082417FM-18+0189FTGM V02099999999999999999N9999999N1+99999+99999102651REMSYN047CMAN 03054 FTGM4 46/// ///// 1//// 40265 90506;
0080997258999992005010306004+43017-082417FM-18+0189FTGM V02099999999999999999N9999999N1+99999+99999102621ADDMD1210071+9999REMSYN054CMTI   46// FTGM4 46/// ///// 1//// 40262 52007 90600;
0057997258999992005010307004+43017-082417FM-18+0189FTGM V02099999999999999999N9999999N1+99999+99999102641REMSYN048CMTI   46// FTGM4 46/// ///// 1//// 40264 90700;
0057997258999992005010308004+43017-082417FM-18+0189FTGM V02099999999999999999N9999999N1+99999+99999102621REMSYN048CMTI   46// FTGM4 46/// ///// 1//// 40262 90800;
0080997258999992005010309004+43017-082417FM-18+0189FTGM V02099999999999999999N9999999N1+99999+99999102671ADDMD1310051+9999REMSYN054CMTI   46// FTGM4 46/// ///// 1//// 40267 53005 90900;
0080997258999992005010310004+43017-082417FM-18+0189FTGM V02099999999999999999N9999999N1+99999+99999102681ADDMD1210041+9999REMSYN054CMTI   46// FTGM4 46/// ///// 1//// 40268 52004 91000;
0080997258999992005010311004+43017-082417FM-18+0189FTGM V02099999999999999999N9999999N1+99999+99999102681ADDMD1110061+9999REMSYN054CMTI   46// FTGM4 46/// ///// 1//// 40268 51006 91100;
0080997258999992005010312004+43017-082417FM-18+0189FTGM V02099999999999999999N9999999N1+99999+99999102721ADDMD1310051+9999REMSYN054CMTI   46// FTGM4 46/// ///// 1//// 40272 53005 91200;
0080997258999992005010313004+43017-082417FM-18+0189FTGM V02099999999999999999N9999999N1+99999+99999102711ADDMD1210031+9999REMSYN054CMTI   46// FTGM4 46/// ///// 1//// 40271 52003 91300;
0080997258999992005010314004+43017-082417FM-18+0189FTGM V02099999999999999999N9999999N1+99999+99999102701ADDMD1010001+9999REMSYN054CMTI   46// FTGM4 46/// ///// 1//// 40270 50000 91400;
0080997258999992005010315004+43017-082417FM-18+0189FTGM V02099999999999999999N9999999N1+99999+99999102711ADDMD1410001+9999REMSYN054CMTI   46// FTGM4 46/// ///// 1//// 40271 54000 91500;
0080997258999992005010316004+43017-082417FM-18+0189FTGM V02099999999999999999N9999999N1+99999+99999102671ADDMD1810041+9999REMSYN054CMTI   46// FTGM4 46/// ///// 1//// 40267 58004 91600;
0080997258999992005010317004+43017-082417FM-18+0189FTGM V02099999999999999999N9999999N1+99999+99999102591ADDMD1810111+9999REMSYN054CMTI   46// FTGM4 46/// ///// 1//// 40259 58011 91700;
0080997258999992005010318004+43017-082417FM-18+0189FTGM V02099999999999999999N9999999N1+99999+99999102501ADDMD1810211+9999REMSYN054CMTI   46// FTGM4 46/// ///// 1//// 40250 58021 91800;
0080997258999992005010319004+43017-082417FM-18+0189FTGM V02099999999999999999N9999999N1+99999+99999102411ADDMD1810261+9999REMSYN054CMTI   46// FTGM4 46/// ///// 1//// 40241 58026 91900;
0080997258999992005010320004+43017-082417FM-18+0189FTGM V02099999999999999999N9999999N1+99999+99999102351ADDMD1610241+9999REMSYN054CMTI   46// FTGM4 46/// ///// 1//// 40235 56024 92000;
0056997258999992005010321004+43017-082417FM-18+0189FTGM V02099999999999999999N9999999N1+99999+99999102391REMSYN047CMAN 03214 FTGM4 46/// ///// 1//// 40239 92106;
0080997258999992005010322004+43017-082417FM-18+0189FTGM V02099999999999999999N9999999N1+99999+99999102381ADDMD1710031+9999REMSYN054CMTI   46// FTGM4 46/// ///// 1//// 40238 57003 92200;
0056997258999992005010323004+43017-082417FM-18+0189FTGM V02099999999999999999N9999999N1+99999+99999102351REMSYN047CMAN 03234 FTGM4 46/// ///// 1//// 40235 92306;
0057997258999992005010400004+43017-082417FM-18+0189FTGM V02099999999999999999N9999999N1+99999+99999102301REMSYN048CMTI   46// FTGM4 46/// ///// 1//// 40230 90000;
0057997258999992005010402004+43017-082417FM-18+0189FTGM V02099999999999999999N9999999N1+99999+99999102371REMSYN048CMTI   46// FTGM4 46/// ///// 1//// 40237 90206;
0080997258999992005010403004+43017-082417FM-18+0189FTGM V02099999999999999999N9999999N1+99999+99999102431ADDMD1210131+9999REMSYN054CMTI   46// FTGM4 46/// ///// 1//// 40243 52013 90300;
0057997258999992005010404004+43017-082417FM-18+0189FTGM V02099999999999999999N9999999N1+99999+99999102481REMSYN048CMTI   46// FTGM4 46/// ///// 1//// 40248 90400;
0057997258999992005010405004+43017-082417FM-18+0189FTGM V02099999999999999999N9999999N1+99999+99999102481REMSYN048CMTI   46// FTGM4 46/// ///// 1//// 40248 90500;
0080997258999992005010406004+43017-082417FM-18+0189FTGM V02099999999999999999N9999999N1+99999+99999102461ADDMD1110031+9999REMSYN054CMTI   46// FTGM4 46/// ///// 1//// 40246 51003 90600;
0080997258999992005010407004+43017-082417FM-18+0189FTGM V02099999999999999999N9999999N1+99999+99999102441ADDMD1710041+9999REMSYN054CMTI   46// FTGM4 46/// ///// 1//// 40244 57004 90700;
0080997258999992005010408004+43017-082417FM-18+0189FTGM V02099999999999999999N9999999N1+99999+99999102481ADDMD1510001+9999REMSYN054CMTI   46// FTGM4 46/// ///// 1//// 40248 55000 90800;
0080997258999992005010409004+43017-082417FM-18+0189FTGM V02099999999999999999N9999999N1+99999+99999102471ADDMD1410001+9999REMSYN054CMTI   46// FTGM4 46/// ///// 1//// 40247 54000 90900;
0000997258999992005010410004+43017-082417FM-18+0189FTGM V02099999999999999999N9999999N1+99999+99999999999
0080997258999992005010411004+43017-082417FM-18+0189FTGM V02099999999999999999N9999999N1+99999+99999102601ADDMD1210121+9999REMSYN054CMTI   46// FTGM4 46/// ///// 1//// 40260 52012 91100;
0080997258999992005010412004+43017-082417FM-18+0189FTGM V02099999999999999999N9999999N1+99999+99999102621ADDMD1210151+9999REMSYN054CMTI   46// FTGM4 46/// ///// 1//// 40262 52015 91200;
0057997258999992005010413004+43017-082417FM-18+0189FTGM V02099999999999999999N9999999N1+99999+99999102691REMSYN048CMTI   46// FTGM4 46/// ///// 1//// 40269 91300;
0080997258999992005010414004+43017-082417FM-18+0189FTGM V02099999999999999999N9999999N1+99999+99999102731ADDMD1310131+9999REMSYN054CMTI   46// FTGM4 46/// ///// 1//// 40273 53013 91400;
0080997258999992005010415004+43017-082417FM-18+0189FTGM V02099999999999999999N9999999N1+99999+99999102811ADDMD1310191+9999REMSYN054CMTI   46// FTGM4 46/// ///// 1//// 40281 53019 91500;
0080997258999992005010416004+43017-082417FM-18+0189FTGM V02099999999999999999N9999999N1+99999+99999102831ADDMD1110141+9999REMSYN054CMTI   46// FTGM4 46/// ///// 1//// 40283 51014 91600;
0080997258999992005010417004+43017-082417FM-18+0189FTGM V02099999999999999999N9999999N1+99999+99999102781ADDMD1010051+9999REMSYN054CMTI   46// FTGM4 46/// ///// 1//// 40278 50005 91700;
0080997258999992005010418004+43017-082417FM-18+0189FTGM V02099999999999999999N9999999N1+99999+99999102711ADDMD1810101+9999REMSYN054CMTI   46// FTGM4 46/// ///// 1//// 40271 58010 91800;
0080997258999992005010419004+43017-082417FM-18+0189FTGM V02099999999999999999N9999999N1+99999+99999102641ADDMD1810191+9999REMSYN054CMTI   46// FTGM4 46/// ///// 1//// 40264 58019 91900;
0080997258999992005010420004+43017-082417FM-18+0189FTGM V02099999999999999999N9999999N1+99999+99999102551ADDMD1810231+9999REMSYN054CMTI   46// FTGM4 46/// ///// 1//// 40255 58023 92000;
0080997258999992005010421004+43017-082417FM-18+0189FTGM V02099999999999999999N9999999N1+99999+99999102621ADDMD1510091+9999REMSYN054CMTI   46// FTGM4 46/// ///// 1//// 40262 55009 92100;
0080997258999992005010422004+43017-082417FM-18+0189FTGM V02099999999999999999N9999999N1+99999+99999102651ADDMD1510001+9999REMSYN054CMTI   46// FTGM4 46/// ///// 1//// 40265 55000 92200;
0080997258999992005010423004+43017-082417FM-18+0189FTGM V02099999999999999999N9999999N1+99999+99999102631ADDMD1110081+9999REMSYN054CMTI   46// FTGM4 46/// ///// 1//// 40263 51008 92300;
0080997258999992005010500004+43017-082417FM-18+0189FTGM V02099999999999999999N9999999N1+99999+99999102621ADDMD1010001+9999REMSYN054CMTI   46// FTGM4 46/// ///// 1//// 40262 50000 90000;
0080997258999992005010501004+43017-082417FM-18+0189FTGM V02099999999999999999N9999999N1+99999+99999102631ADDMD1410001+9999REMSYN054CMTI   46// FTGM4 46/// ///// 1//// 40263 54000 90100;
0080997258999992005010502004+43017-082417FM-18+0189FTGM V02099999999999999999N9999999N1+99999+99999102641ADDMD1410001+9999REMSYN054CMTI   46// FTGM4 46/// ///// 1//// 40264 54000 90200;
0057997258999992005010503004+43017-082417FM-18+0189FTGM V02099999999999999999N9999999N1+99999+99999102641REMSYN048CMTI   46// FTGM4 46/// ///// 1//// 40264 90306;
0057997258999992005010504004+43017-082417FM-18+0189FTGM V02099999999999999999N9999999N1+99999+99999102601REMSYN048CMTI   46// FTGM4 46/// ///// 1//// 40260 90424;
0057997258999992005010507004+43017-082417FM-18+0189FTGM V02099999999999999999N9999999N1+99999+99999102471REMSYN048CMTI   46// FTGM4 46/// ///// 1//// 40247 90718;
0057997258999992005010508004+43017-082417FM-18+0189FTGM V02099999999999999999N9999999N1+99999+99999102491REMSYN048CMTI   46// FTGM4 46/// ///// 1//// 40249 90800;
0057997258999992005010509004+43017-082417FM-18+0189FTGM V02099999999999999999N9999999N1+99999+99999102481REMSYN048CMTI   46// FTGM4 46/// ///// 1//// 40248 90900;
0057997258999992005010510004+43017-082417FM-18+0189FTGM V02099999999999999999N9999999N1+99999+99999102461REMSYN048CMTI   46// FTGM4 46/// ///// 1//// 40246 91000;
0080997258999992005010511004+43017-082417FM-18+0189FTGM V02099999999999999999N9999999N1+99999+99999102441ADDMD1710051+9999REMSYN054CMTI   46// FTGM4 46/// ///// 1//// 40244 57005 91100;
0080997258999992005010512004+43017-082417FM-18+0189FTGM V02099999999999999999N9999999N1+99999+99999102591ADDMD1310111+9999REMSYN054CMTI   46// FTGM4 46/// ///// 1//// 40259 53011 91200;
0080997258999992005010513004+43017-082417FM-18+0189FTGM V02099999999999999999N9999999N1+99999+99999102591ADDMD1210131+9999REMSYN054CMTI   46// FTGM4 46/// ///// 1//// 40259 52013 91300;
0080997258999992005010514004+43017-082417FM-18+0189FTGM V02099999999999999999N9999999N1+99999+99999102611ADDMD1110171+9999REMSYN054CMTI   46// FTGM4 46/// ///// 1//// 40261 51017 91400;
0080997258999992005010515004+43017-082417FM-18+0189FTGM V02099999999999999999N9999999N1+99999+99999102561ADDMD1810031+9999REMSYN054CMTI   46// FTGM4 46/// ///// 1//// 40256 58003 91500;
0080997258999992005010516004+43017-082417FM-18+0189FTGM V02099999999999999999N9999999N1+99999+99999102621ADDMD1310031+9999REMSYN054CMTI   46// FTGM4 46/// ///// 1//// 40262 53003 91600;
0080997258999992005010517004+43017-082417FM-18+0189FTGM V02099999999999999999N9999999N1+99999+99999102541ADDMD1810071+9999REMSYN054CMTI   46// FTGM4 46/// ///// 1//// 40254 58007 91700;
0080997258999992005010518004+43017-082417FM-18+0189FTGM V02099999999999999999N9999999N1+99999+99999102471ADDMD1810091+9999REMSYN054CMTI   46// FTGM4 46/// ///// 1//// 40247 58009 91800;
0080997258999992005010519004+43017-082417FM-18+0189FTGM V02099999999999999999N9999999N1+99999+99999102381ADDMD1810241+9999REMSYN054CMTI   46// FTGM4 46/// ///// 1//// 40238 58024 91900;
0080997258999992005010520004+43017-082417FM-18+0189FTGM V02099999999999999999N9999999N1+99999+99999102301ADDMD1810241+9999REMSYN054CMTI   46// FTGM4 46/// ///// 1//// 40230 58024 92000;
0080997258999992005010521004+43017-082417FM-18+0189FTGM V02099999999999999999N9999999N1+99999+99999102251ADDMD1610221+9999REMSYN054CMTI   46// FTGM4 46/// ///// 1//// 40225 56022 92100;
0080997258999992005010522004+43017-082417FM-18+0189FTGM V02099999999999999999N9999999N1+99999+99999102191ADDMD1610191+9999REMSYN054CMTI   46// FTGM4 46/// ///// 1//// 40219 56019 92200;
0080997258999992005010523004+43017-082417FM-18+0189FTGM V02099999999999999999N9999999N1+99999+99999102151ADDMD1610151+9999REMSYN054CMTI   46// FTGM4 46/// ///// 1//// 40215 56015 92300;
0057997258999992005010603004+43017-082417FM-18+0189FTGM V02099999999999999999N9999999N1+99999+99999101881REMSYN048CMTI   46// FTGM4 46/// ///// 1//// 40188 90324;
0057997258999992005010604004+43017-082417FM-18+0189FTGM V02099999999999999999N9999999N1+99999+99999101831REMSYN048CMTI   46// FTGM4 46/// ///// 1//// 40183 90400;
0057997258999992005010605004+43017-082417FM-18+0189FTGM V02099999999999999999N9999999N1+99999+99999101691REMSYN048CMTI   46// FTGM4 46/// ///// 1//// 40169 90500;
0057997258999992005010606004+43017-082417FM-18+0189FTGM V02099999999999999999N9999999N1+99999+99999101551REMSYN048CMTI   46// FTGM4 46/// ///// 1//// 40155 90600;
0080997258999992005010607004+43017-082417FM-18+0189FTGM V02099999999999999999N9999999N1+99999+99999101461ADDMD1610371+9999REMSYN054CMTI   46// FTGM4 46/// ///// 1//// 40146 56037 90700;
0080997258999992005010608004+43017-082417FM-18+0189FTGM V02099999999999999999N9999999N1+99999+99999101371ADDMD1610321+9999REMSYN054CMTI   46// FTGM4 46/// ///// 1//// 40137 56032 90800;
0080997258999992005010609004+43017-082417FM-18+0189FTGM V02099999999999999999N9999999N1+99999+99999101191ADDMD1810361+9999REMSYN054CMTI   46// FTGM4 46/// ///// 1//// 40119 58036 90900;
0056997258999992005010610004+43017-082417FM-18+0189FTGM V02099999999999999999N9999999N1+99999+99999100911REMSYN047CMAN 06104 FTGM4 46/// ///// 1//// 40091 91006;
0080997258999992005010611004+43017-082417FM-18+0189FTGM V02099999999999999999N9999999N1+99999+99999100871ADDMD1710501+9999REMSYN054CMTI   46// FTGM4 46/// ///// 1//// 40087 57050 91100;
0080997258999992005010612004+43017-082417FM-18+0189FTGM V02099999999999999999N9999999N1+99999+99999100691ADDMD1710501+9999REMSYN054CMTI   46// FTGM4 46/// ///// 1//// 40069 57050 91200;
0056997258999992005010613004+43017-082417FM-18+0189FTGM V02099999999999999999N9999999N1+99999+99999100411REMSYN047CMAN 06134 FTGM4 46/// ///// 1//// 40041 91306;
0080997258999992005010614004+43017-082417FM-18+0189FTGM V02099999999999999999N9999999N1+99999+99999100341ADDMD1710531+9999REMSYN054CMTI   46// FTGM4 46/// ///// 1//// 40034 57053 91400;
0080997258999992005010615004+43017-082417FM-18+0189FTGM V02099999999999999999N9999999N1+99999+99999100481ADDMD1710211+9999REMSYN054CMTI   46// FTGM4 46/// ///// 1//// 40048 57021 91500;
0057997258999992005010616004+43017-082417FM-18+0189FTGM V02099999999999999999N9999999N1+99999+99999100431REMSYN048CMTI   46// FTGM4 46/// ///// 1//// 40043 91606;
0080997258999992005010617004+43017-082417FM-18+0189FTGM V02099999999999999999N9999999N1+99999+99999100421ADDMD1110081+9999REMSYN054CMTI   46// FTGM4 46/// ///// 1//// 40042 51008 91700;
0080997258999992005010618004+43017-082417FM-18+0189FTGM V02099999999999999999N9999999N1+99999+99999100341ADDMD1810141+9999REMSYN054CMTI   46// FTGM4 46/// ///// 1//// 40034 58014 91800;
0057997258999992005010619004+43017-082417FM-18+0189FTGM V02099999999999999999N9999999N1+99999+99999100401REMSYN048CMTI   46// FTGM4 46/// ///// 1//// 40040 91906;
0080997258999992005010620004+43017-082417FM-18+0189FTGM V02099999999999999999N9999999N1+99999+99999100491ADDMD1210071+9999REMSYN054CMTI   46// FTGM4 46/// ///// 1//// 40049 52007 92000;
0080997258999992005010621004+43017-082417FM-18+0189FTGM V02099999999999999999N9999999N1+99999+99999100601ADDMD1310261+9999REMSYN054CMTI   46// FTGM4 46/// ///// 1//// 40060 53026 92100;
0057997258999992005010622004+43017-082417FM-18+0189FTGM V02099999999999999999N9999999N1+99999+99999100761REMSYN048CMTI   46// FTGM4 46/// ///// 1//// 40076 92200;
0080997258999992005010623004+43017-082417FM-18+0189FTGM V02099999999999999999N9999999N1+99999+99999100941ADDMD1310451+9999REMSYN054CMTI   46// FTGM4 46/// ///// 1//// 40094 53045 92300;
0080997258999992005010700004+43017-082417FM-18+0189FTGM V02099999999999999999N9999999N1+99999+99999101131ADDMD1310531+9999REMSYN054CMTI   46// FTGM4 46/// ///// 1//// 40113 53053 90000;
0080997258999992005010701004+43017-082417FM-18+0189FTGM V02099999999999999999N9999999N1+99999+99999101271ADDMD1110511+9999REMSYN054CMTI   46// FTGM4 46/// ///// 1//// 40127 51051 90100;
0080997258999992005010702004+43017-082417FM-18+0189FTGM V02099999999999999999N9999999N1+99999+99999101361ADDMD1110421+9999REMSYN054CMTI   46// FTGM4 46/// ///// 1//// 40136 51042 90200;
0080997258999992005010703004+43017-082417FM-18+0189FTGM V02099999999999999999N9999999N1+99999+99999101501ADDMD1210371+9999REMSYN054CMTI   46// FTGM4 46/// ///// 1//// 40150 52037 90300;
0080997258999992005010704004+43017-082417FM-18+0189FTGM V02099999999999999999N9999999N1+99999+99999101651ADDMD1310381+9999REMSYN054CMTI   46// FTGM4 46/// ///// 1//// 40165 53038 90400;
0080997258999992005010705004+43017-082417FM-18+0189FTGM V02099999999999999999N9999999N1+99999+99999101751ADDMD1110391+9999REMSYN054CMTI   46// FTGM4 46/// ///// 1//// 40175 51039 90500;
0128997258999992005010706004+43017-082417FM-18+0189FTGM V02099999999999999999N9999999N1+99999+99999999999REMSYN119CMAN  07064 FTGM4 46/// ///// 1//// 40105 52022 90559 222// 00061 10702 70012 333 91208 555 45 20404 336// 40706 80100;
0080997258999992005010707004+43017-082417FM-18+0189FTGM V02099999999999999999N9999999N1+99999+99999101951ADDMD1210301+9999REMSYN054CMTI   46// FTGM4 46/// ///// 1//// 40195 52030 90700;
0080997258999992005010708004+43017-082417FM-18+0189FTGM V02099999999999999999N9999999N1+99999+99999102041ADDMD1210291+9999REMSYN054CMTI   46// FTGM4 46/// ///// 1//// 40204 52029 90800;
0057997258999992005010709004+43017-082417FM-18+0189FTGM V02099999999999999999N9999999N1+99999+99999102101REMSYN048CMTI   46// FTGM4 46/// ///// 1//// 40210 90900;
0080997258999992005010710004+43017-082417FM-18+0189FTGM V02099999999999999999N9999999N1+99999+99999102151ADDMD1110201+9999REMSYN054CMTI   46// FTGM4 46/// ///// 1//// 40215 51020 91000;
0080997258999992005010711004+43017-082417FM-18+0189FTGM V02099999999999999999N9999999N1+99999+99999102221ADDMD1310181+9999REMSYN054CMTI   46// FTGM4 46/// ///// 1//// 40222 53018 91100;
0080997258999992005010712004+43017-082417FM-18+0189FTGM V02099999999999999999N9999999N1+99999+99999102271ADDMD1210171+9999REMSYN054CMTI   46// FTGM4 46/// ///// 1//// 40227 52017 91200;
0080997258999992005010713004+43017-082417FM-18+0189FTGM V02099999999999999999N9999999N1+99999+99999102311ADDMD1110161+9999REMSYN054CMTI   46// FTGM4 46/// ///// 1//// 40231 51016 91300;
0080997258999992005010714004+43017-082417FM-18+0189FTGM V02099999999999999999N9999999N1+99999+99999102391ADDMD1310171+9999REMSYN054CMTI   46// FTGM4 46/// ///// 1//// 40239 53017 91400;
0080997258999992005010715004+43017-082417FM-18+0189FTGM V02099999999999999999N9999999N1+99999+99999102471ADDMD1310201+9999REMSYN054CMTI   46// FTGM4 46/// ///// 1//// 40247 53020 91500;
0080997258999992005010717004+43017-082417FM-18+0189FTGM V02099999999999999999N9999999N1+99999+99999102461ADDMD1210071+9999REMSYN054CMTI   46// FTGM4 46/// ///// 1//// 40246 52007 91700;
0080997258999992005010718004+43017-082417FM-18+0189FTGM V02099999999999999999N9999999N1+99999+99999102411ADDMD1710061+9999REMSYN054CMTI   46// FTGM4 46/// ///// 1//// 40241 57006 91800;
0057997258999992005010719004+43017-082417FM-18+0189FTGM V02099999999999999999N9999999N1+99999+99999102311REMSYN048CMTI   46// FTGM4 46/// ///// 1//// 40231 91900;
0080997258999992005010720004+43017-082417FM-18+0189FTGM V02099999999999999999N9999999N1+99999+99999102311ADDMD1610151+9999REMSYN054CMTI   46// FTGM4 46/// ///// 1//// 40231 56015 92000;
0080997258999992005010721004+43017-082417FM-18+0189FTGM V02099999999999999999N9999999N1+99999+99999102341ADDMD1510071+9999REMSYN054CMTI   46// FTGM4 46/// ///// 1//// 40234 55007 92100;
0080997258999992005010722004+43017-082417FM-18+0189FTGM V02099999999999999999N9999999N1+99999+99999102351ADDMD1210041+9999REMSYN054CMTI   46// FTGM4 46/// ///// 1//// 40235 52004 92200;
0080997258999992005010723004+43017-082417FM-18+0189FTGM V02099999999999999999N9999999N1+99999+99999102301ADDMD1010001+9999REMSYN054CMTI   46// FTGM4 46/// ///// 1//// 40230 50000 92300;
0057997258999992005010820004+43017-082417FM-18+0189FTGM V02099999999999999999N9999999N1+99999+99999102641REMSYN048CMTI   46// FTGM4 46/// ///// 1//// 40264 92024;
0057997258999992005010821004+43017-082417FM-18+0189FTGM V02099999999999999999N9999999N1+99999+99999102721REMSYN048CMTI   46// FTGM4 46/// ///// 1//// 40272 92100;
0057997258999992005010823004+43017-082417FM-18+0189FTGM V02099999999999999999N9999999N1+99999+99999102901REMSYN048CMTI   46// FTGM4 46/// ///// 1//// 40290 92300;
0080997258999992005010900004+43020-082420FM-18+0189FTGM V02099999999999999999N9999999N1+99999+99999102941ADDMD1110221+9999REMSYN054CMTI   46// FTGM4 46/// ///// 1//// 40294 51022 90000;
0080997258999992005010901004+43020-082420FM-18+0189FTGM V02099999999999999999N9999999N1+99999+99999102911ADDMD1010071+9999REMSYN054CMTI   46// FTGM4 46/// ///// 1//// 40291 50007 90100;
0080997258999992005010902004+43020-082420FM-18+0189FTGM V02099999999999999999N9999999N1+99999+99999102921ADDMD1010001+9999REMSYN054CMTI   46// FTGM4 46/// ///// 1//// 40292 50000 90200;
0080997258999992005010903004+43020-082420FM-18+0189FTGM V02099999999999999999N9999999N1+99999+99999102911ADDMD1610031+9999REMSYN054CMTI   46// FTGM4 46/// ///// 1//// 40291 56003 90300;
0080997258999992005010904004+43020-082420FM-18+0189FTGM V02099999999999999999N9999999N1+99999+99999102881ADDMD1810031+9999REMSYN054CMTI   46// FTGM4 46/// ///// 1//// 40288 58003 90400;
0080997258999992005010905004+43020-082420FM-18+0189FTGM V02099999999999999999N9999999N1+99999+99999102891ADDMD1710031+9999REMSYN054CMTI   46// FTGM4 46/// ///// 1//// 40289 57003 90500;
0080997258999992005010906004+43020-082420FM-18+0189FTGM V02099999999999999999N9999999N1+99999+99999102851ADDMD1810061+9999REMSYN054CMTI   46// FTGM4 46/// ///// 1//// 40285 58006 90600;
0056997258999992005010907004+43020-082420FM-18+0189FTGM V02099999999999999999N9999999N1+99999+99999102831REMSYN047CMAN 09074 FTGM4 46/// ///// 1//// 40283 90706;
0056997258999992005010908004+43020-082420FM-18+0189FTGM V02099999999999999999N9999999N1+99999+99999102861REMSYN047CMAN 09084 FTGM4 46/// ///// 1//// 40286 90806;
0080997258999992005010909004+43020-082420FM-18+0189FTGM V02099999999999999999N9999999N1+99999+99999102791ADDMD1710061+9999REMSYN054CMTI   46// FTGM4 46/// ///// 1//// 40279 57006 90900;
0057997258999992005010910004+43020-082420FM-18+0189FTGM V02099999999999999999N9999999N1+99999+99999102701REMSYN048CMTI   46// FTGM4 46/// ///// 1//// 40270 91000;
0056997258999992005010911004+43020-082420FM-18+0189FTGM V02099999999999999999N9999999N1+99999+99999102691REMSYN047CMAN 09114 FTGM4 46/// ///// 1//// 40269 91106;
0080997258999992005010912004+43020-082420FM-18+0189FTGM V02099999999999999999N9999999N1+99999+99999102711ADDMD1710081+9999REMSYN054CMTI   46// FTGM4 46/// ///// 1//// 40271 57008 91200;
0080997258999992005010913004+43020-082420FM-18+0189FTGM V02099999999999999999N9999999N1+99999+99999102661ADDMD1710041+9999REMSYN054CMTI   46// FTGM4 46/// ///// 1//// 40266 57004 91300;
0057997258999992005010914004+43020-082420FM-18+0189FTGM V02099999999999999999N9999999N1+99999+99999102681REMSYN048CMTI   46// FTGM4 46/// ///// 1//// 40268 91400;
0080997258999992005010915004+43020-082420FM-18+0189FTGM V02099999999999999999N9999999N1+99999+99999102601ADDMD1810111+9999REMSYN054CMTI   46// FTGM4 46/// ///// 1//// 40260 58011 91500;
0080997258999992005010916004+43020-082420FM-18+0189FTGM V02099999999999999999N9999999N1+99999+99999102551ADDMD1810111+9999REMSYN054CMTI   46// FTGM4 46/// ///// 1//// 40255 58011 91600;
0080997258999992005010917004+43020-082420FM-18+0189FTGM V02099999999999999999N9999999N1+99999+99999102451ADDMD1810231+9999REMSYN054CMTI   46// FTGM4 46/// ///// 1//// 40245 58023 91700;
0080997258999992005010918004+43020-082420FM-18+0189FTGM V02099999999999999999N9999999N1+99999+99999102281ADDMD1810321+9999REMSYN054CMTI   46// FTGM4 46/// ///// 1//// 40228 58032 91800;
0080997258999992005010919004+43020-082420FM-18+0189FTGM V02099999999999999999N9999999N1+99999+99999102151ADDMD1810401+9999REMSYN054CMTI   46// FTGM4 46/// ///// 1//// 40215 58040 91900;
0056997258999992005010920004+43020-082420FM-18+0189FTGM V02099999999999999999N9999999N1+99999+99999102091REMSYN047CMAN 09204 FTGM4 46/// ///// 1//// 40209 92006;
0056997258999992005010921004+43020-082420FM-18+0189FTGM V02099999999999999999N9999999N1+99999+99999101991REMSYN047CMAN 09214 FTGM4 46/// ///// 1//// 40199 92106;
0080997258999992005010922004+43020-082420FM-18+0189FTGM V02099999999999999999N9999999N1+99999+99999101901ADDMD1710251+9999REMSYN054CMTI   46// FTGM4 46/// ///// 1//// 40190 57025 92200;
0056997258999992005010923004+43020-082420FM-18+0189FTGM V02099999999999999999N9999999N1+99999+99999101831REMSYN047CMAN 09234 FTGM4 46/// ///// 1//// 40183 92306;
0057997258999992005011000004+43017-082417FM-18+0189FTGM V02099999999999999999N9999999N1+99999+99999101741REMSYN048CMTI   46// FTGM4 46/// ///// 1//// 40174 90000;
0080997258999992005011001004+43017-082417FM-18+0189FTGM V02099999999999999999N9999999N1+99999+99999101631ADDMD1710271+9999REMSYN054CMTI   46// FTGM4 46/// ///// 1//// 40163 57027 90100;
0057997258999992005011002004+43017-082417FM-18+0189FTGM V02099999999999999999N9999999N1+99999+99999101541REMSYN048CMTI   46// FTGM4 46/// ///// 1//// 40154 90200;
0080997258999992005011003004+43017-082417FM-18+0189FTGM V02099999999999999999N9999999N1+99999+99999101501ADDMD1610241+9999REMSYN054CMTI   46// FTGM4 46/// ///// 1//// 40150 56024 90300;
0080997258999992005011004004+43017-082417FM-18+0189FTGM V02099999999999999999N9999999N1+99999+99999101401ADDMD1810231+9999REMSYN054CMTI   46// FTGM4 46/// ///// 1//// 40140 58023 90400;
0057997258999992005011005004+43017-082417FM-18+0189FTGM V02099999999999999999N9999999N1+99999+99999101331REMSYN048CMTI   46// FTGM4 46/// ///// 1//// 40133 90506;
0080997258999992005011006004+43017-082417FM-18+0189FTGM V02099999999999999999N9999999N1+99999+99999101271ADDMD1710231+9999REMSYN054CMTI   46// FTGM4 46/// ///// 1//// 40127 57023 90600;
0056997258999992005011007004+43017-082417FM-18+0189FTGM V02099999999999999999N9999999N1+99999+99999101361REMSYN047CMAN 10074 FTGM4 46/// ///// 1//// 40136 90706;
0057997258999992005011008004+43017-082417FM-18+0189FTGM V02099999999999999999N9999999N1+99999+99999101431REMSYN048CMTI   46// FTGM4 46/// ///// 1//// 40143 90800;
0080997258999992005011009004+43017-082417FM-18+0189FTGM V02099999999999999999N9999999N1+99999+99999101551ADDMD1210281+9999REMSYN054CMTI   46// FTGM4 46/// ///// 1//// 40155 52028 90900;
0057997258999992005011010004+43017-082417FM-18+0189FTGM V02099999999999999999N9999999N1+99999+99999101681REMSYN048CMTI   46// FTGM4 46/// ///// 1//// 40168 91000;
0080997258999992005011011004+43017-082417FM-18+0189FTGM V02099999999999999999N9999999N1+99999+99999101801ADDMD1210371+9999REMSYN054CMTI   46// FTGM4 46/// ///// 1//// 40180 52037 91100;
0080997258999992005011012004+43017-082417FM-18+0189FTGM V02099999999999999999N9999999N1+99999+99999101911ADDMD1110361+9999REMSYN054CMTI   46// FTGM4 46/// ///// 1//// 40191 51036 91200;
0080997258999992005011013004+43017-082417FM-18+0189FTGM V02099999999999999999N9999999N1+99999+99999101991ADDMD1110311+9999REMSYN054CMTI   46// FTGM4 46/// ///// 1//// 40199 51031 91300;
0080997258999992005011014004+43017-082417FM-18+0189FTGM V02099999999999999999N9999999N1+99999+99999102071ADDMD1110271+9999REMSYN054CMTI   46// FTGM4 46/// ///// 1//// 40207 51027 91400;
0080997258999992005011015004+43017-082417FM-18+0189FTGM V02099999999999999999N9999999N1+99999+99999102201ADDMD1310291+9999REMSYN054CMTI   46// FTGM4 46/// ///// 1//// 40220 53029 91500;
0080997258999992005011016004+43017-082417FM-18+0189FTGM V02099999999999999999N9999999N1+99999+99999102281ADDMD1210291+9999REMSYN054CMTI   46// FTGM4 46/// ///// 1//// 40228 52029 91600;
0080997258999992005011017004+43017-082417FM-18+0189FTGM V02099999999999999999N9999999N1+99999+99999102271ADDMD1110201+9999REMSYN054CMTI   46// FTGM4 46/// ///// 1//// 40227 51020 91700;
0080997258999992005011018004+43017-082417FM-18+0189FTGM V02099999999999999999N9999999N1+99999+99999102211ADDMD1010001+9999REMSYN054CMTI   46// FTGM4 46/// ///// 1//// 40221 50000 91800;
0000997258999992005011019004+43017-082417FM-18+0189FTGM V02099999999999999999N9999999N1+99999+99999102151
0080997258999992005011020004+43017-082417FM-18+0189FTGM V02099999999999999999N9999999N1+99999+99999102231ADDMD1510041+9999REMSYN054CMTI   46// FTGM4 46/// ///// 1//// 40223 55004 92000;
0056997258999992005011021004+43017-082417FM-18+0189FTGM V02099999999999999999N9999999N1+99999+99999102261REMSYN047CMAN 10214 FTGM4 46/// ///// 1//// 40226 92154;
0080997258999992005011022004+43017-082417FM-18+0189FTGM V02099999999999999999N9999999N1+99999+99999102261ADDMD1210111+9999REMSYN054CMTI   46// FTGM4 46/// ///// 1//// 40226 52011 92200;
0080997258999992005011023004+43017-082417FM-18+0189FTGM V02099999999999999999N9999999N1+99999+99999102321ADDMD1210091+9999REMSYN054CMTI   46// FTGM4 46/// ///// 1//// 40232 52009 92300;
0057997258999992005011100004+43017-082417FM-18+0189FTGM V02099999999999999999N9999999N1+99999+99999102331REMSYN048CMTI   46// FTGM4 46/// ///// 1//// 40233 90000;
0056997258999992005011101004+43017-082417FM-18+0189FTGM V02099999999999999999N9999999N1+99999+99999102381REMSYN047CMAN 11014 FTGM4 46/// ///// 1//// 40238 90106;
0080997258999992005011102004+43017-082417FM-18+0189FTGM V02099999999999999999N9999999N1+99999+99999102341ADDMD1410001+9999REMSYN054CMTI   46// FTGM4 46/// ///// 1//// 40234 54000 90200;
0080997258999992005011103004+43017-082417FM-18+0189FTGM V02099999999999999999N9999999N1+99999+99999102331ADDMD1410001+9999REMSYN054CMTI   46// FTGM4 46/// ///// 1//// 40233 54000 90300;
0057997258999992005011104004+43017-082417FM-18+0189FTGM V02099999999999999999N9999999N1+99999+99999102431REMSYN048CMTI   46// FTGM4 46/// ///// 1//// 40243 90400;
0080997258999992005011105004+43017-082417FM-18+0189FTGM V02099999999999999999N9999999N1+99999+99999102401ADDMD1010061+9999REMSYN054CMTI   46// FTGM4 46/// ///// 1//// 40240 50006 90500;
0080997258999992005011106004+43017-082417FM-18+0189FTGM V02099999999999999999N9999999N1+99999+99999102311ADDMD1010001+9999REMSYN054CMTI   46// FTGM4 46/// ///// 1//// 40231 50000 90600;
0080997258999992005011107004+43017-082417FM-18+0189FTGM V02099999999999999999N9999999N1+99999+99999102301ADDMD1610131+9999REMSYN054CMTI   46// FTGM4 46/// ///// 1//// 40230 56013 90700;
0080997258999992005011108004+43017-082417FM-18+0189FTGM V02099999999999999999N9999999N1+99999+99999102211ADDMD1710191+9999REMSYN054CMTI   46// FTGM4 46/// ///// 1//// 40221 57019 90800;
0080997258999992005011109004+43017-082417FM-18+0189FTGM V02099999999999999999N9999999N1+99999+99999102201ADDMD1710111+9999REMSYN054CMTI   46// FTGM4 46/// ///// 1//// 40220 57011 90900;
0056997258999992005011110004+43017-082417FM-18+0189FTGM V02099999999999999999N9999999N1+99999+99999102171REMSYN047CMAN 11104 FTGM4 46/// ///// 1//// 40217 91018;
0080997258999992005011111004+43017-082417FM-18+0189FTGM V02099999999999999999N9999999N1+99999+99999102091ADDMD1710121+9999REMSYN054CMTI   46// FTGM4 46/// ///// 1//// 40209 57012 91100;
0080997258999992005011112004+43017-082417FM-18+0189FTGM V02099999999999999999N9999999N1+99999+99999102051ADDMD1710151+9999REMSYN054CMTI   46// FTGM4 46/// ///// 1//// 40205 57015 91200;
0057997258999992005011114004+43017-082417FM-18+0189FTGM V02099999999999999999N9999999N1+99999+99999102041REMSYN048CMTI   46// FTGM4 46/// ///// 1//// 40204 91418;
0057997258999992005011116004+43017-082417FM-18+0189FTGM V02099999999999999999N9999999N1+99999+99999102011REMSYN048CMTI   46// FTGM4 46/// ///// 1//// 40201 91606;
0078997258999992005011117004+43017-082417FM-18+0189FTGM V02099999999999999999N9999999N1+99999+99999999999REMSYN069CMAN  11174 FTGM4 46/// ///// 1//// 0255 91712 222// 00052 333 91202;
0057997258999992005011118004+43017-082417FM-18+0189FTGM V02099999999999999999N9999999N1+99999+99999101811REMSYN048CMTI   46// FTGM4 46/// ///// 1//// 40181 91806;
0057997258999992005011119004+43017-082417FM-18+0189FTGM V02099999999999999999N9999999N1+99999+99999101791REMSYN048CMTI   46// FTGM4 46/// ///// 1//// 40179 91900;
0062997258999992005011120004+43017-082417FM-18+0189FTGM V02099999999999999999N9999999N1+99999+99999999999REMSYN053CMAN  11204 FTGM4 46/// ///// 1//// 2000 222// 00085;
0057997258999992005011121004+43017-082417FM-18+0189FTGM V02099999999999999999N9999999N1+99999+99999101781REMSYN048CMTI   46// FTGM4 46/// ///// 1//// 40178 92100;
0057997258999992005011122004+43017-082417FM-18+0189FTGM V02099999999999999999N9999999N1+99999+99999101791REMSYN048CMTI   46// FTGM4 46/// ///// 1//// 40179 92224;
0057997258999992005011123004+43017-082417FM-18+0189FTGM V02099999999999999999N9999999N1+99999+99999101811REMSYN048CMTI   46// FTGM4 46/// ///// 1//// 40181 92330;
0080997258999992005011200004+43017-082417FM-18+0189FTGM V02099999999999999999N9999999N1+99999+99999101781ADDMD1410001+9999REMSYN054CMTI   46// FTGM4 46/// ///// 1//// 40178 54000 90000;
0000997258999992005011204004+43017-082417FM-18+0189FTGM V02099999999999999999N9999999N1+99999+99999999999
0057997258999992005011205004+43017-082417FM-18+0189FTGM V02099999999999999999N9999999N1+99999+99999101541REMSYN048CMTI   46// FTGM4 46/// ///// 1//// 40154 90500;
0057997258999992005011206004+43017-082417FM-18+0189FTGM V02099999999999999999N9999999N1+99999+99999101461REMSYN048CMTI   46// FTGM4 46/// ///// 1//// 40146 90600;
0056997258999992005011207004+43017-082417FM-18+0189FTGM V02099999999999999999N9999999N1+99999+99999101381REMSYN047CMAN 12074 FTGM4 46/// ///// 1//// 40138 90706;
0127997258999992005011208004+43017-082417FM-18+0189FTGM V02099999999999999999N9999999N1+99999+99999999999REMSYN118CMAN  12084 FTGM4 46/// ///// 1//// 40281 90806 222// 000340190 58010 76066 887// 22283 20203 304// 40505 5//// 80205;
0080997258999992005011209004+43017-082417FM-18+0189FTGM V02099999999999999999N9999999N1+99999+99999101321ADDMD1710141+9999REMSYN054CMTI   46// FTGM4 46/// ///// 1//// 40132 57014 90900;
0057997258999992005011210004+43017-082417FM-18+0189FTGM V02099999999999999999N9999999N1+99999+99999101221REMSYN048CMTI   46// FTGM4 46/// ///// 1//// 40122 91000;
0057997258999992005011211004+43017-082417FM-18+0189FTGM V02099999999999999999N9999999N1+99999+99999101211REMSYN048CMTI   46// FTGM4 46/// ///// 1//// 40121 91100;
0057997258999992005011213004+43017-082417FM-18+0189FTGM V02099999999999999999N9999999N1+99999+99999101101REMSYN048CMTI   46// FTGM4 46/// ///// 1//// 40110 91324;
0080997258999992005011214004+43017-082417FM-18+0189FTGM V02099999999999999999N9999999N1+99999+99999101031ADDMD1710181+9999REMSYN054CMTI   46// FTGM4 46/// ///// 1//// 40103 57018 91400;
0057997258999992005011215004+43017-082417FM-18+0189FTGM V02099999999999999999N9999999N1+99999+99999101091REMSYN048CMTI   46// FTGM4 46/// ///// 1//// 40109 91500;
0057997258999992005011216004+43017-082417FM-18+0189FTGM V02099999999999999999N9999999N1+99999+99999101031REMSYN048CMTI   46// FTGM4 46/// ///// 1//// 40103 91600;
0080997258999992005011217004+43017-082417FM-18+0189FTGM V02099999999999999999N9999999N1+99999+99999100901ADDMD1810131+9999REMSYN054CMTI   46// FTGM4 46/// ///// 1//// 40090 58013 91700;
0056997258999992005011218004+43017-082417FM-18+0189FTGM V02099999999999999999N9999999N1+99999+99999100821REMSYN047CMAN 12184 FTGM4 46/// ///// 1//// 40082 91806;
0080997258999992005011219004+43017-082417FM-18+0189FTGM V02099999999999999999N9999999N1+99999+99999100761ADDMD1710271+9999REMSYN054CMTI   46// FTGM4 46/// ///// 1//// 40076 57027 91900;
0080997258999992005011220004+43017-082417FM-18+0189FTGM V02099999999999999999N9999999N1+99999+99999100731ADDMD1710171+9999REMSYN054CMTI   46// FTGM4 46/// ///// 1//// 40073 57017 92000;
0057997258999992005011221004+43017-082417FM-18+0189FTGM V02099999999999999999N9999999N1+99999+99999100731REMSYN048CMTI   46// FTGM4 46/// ///// 1//// 40073 92100;
0080997258999992005011222004+43017-082417FM-18+0189FTGM V02099999999999999999N9999999N1+99999+99999100691ADDMD1810071+9999REMSYN054CMTI   46// FTGM4 46/// ///// 1//// 40069 58007 92200;
0080997258999992005011223004+43017-082417FM-18+0189FTGM V02099999999999999999N9999999N1+99999+99999100671ADDMD1710061+9999REMSYN054CMTI   46// FTGM4 46/// ///// 1//// 40067 57006 92300;
0080997258999992005011300004+43017-082417FM-18+0189FTGM V02099999999999999999N9999999N1+99999+99999100721ADDMD1510001+9999REMSYN054CMTI   46// FTGM4 46/// ///// 1//// 40072 55000 90000;
0080997258999992005011301004+43017-082417FM-18+0189FTGM V02099999999999999999N9999999N1+99999+99999100721ADDMD1210031+9999REMSYN054CMTI   46// FTGM4 46/// ///// 1//// 40072 52003 90100;
0080997258999992005011302004+43017-082417FM-18+0189FTGM V02099999999999999999N9999999N1+99999+99999100681ADDMD1010001+9999REMSYN054CMTI   46// FTGM4 46/// ///// 1//// 40068 50000 90200;
0080997258999992005011303004+43017-082417FM-18+0189FTGM V02099999999999999999N9999999N1+99999+99999100621ADDMD1810101+9999REMSYN054CMTI   46// FTGM4 46/// ///// 1//// 40062 58010 90300;
0080997258999992005011304004+43017-082417FM-18+0189FTGM V02099999999999999999N9999999N1+99999+99999100571ADDMD1810151+9999REMSYN054CMTI   46// FTGM4 46/// ///// 1//// 40057 58015 90400;
0080997258999992005011305004+43017-082417FM-18+0189FTGM V02099999999999999999N9999999N1+99999+99999100511ADDMD1710171+9999REMSYN054CMTI   46// FTGM4 46/// ///// 1//// 40051 57017 90500;
0062997258999992005011306004+43017-082417FM-18+0189FTGM V02099999999999999999N9999999N1+99999+99999999999REMSYN053CMAN  13064 FTGM4 46/// ///// 1//// 0600 222// 00107;
0080997258999992005011307004+43017-082417FM-18+0189FTGM V02099999999999999999N9999999N1+99999+99999100431ADDMD1710141+9999REMSYN054CMTI   46// FTGM4 46/// ///// 1//// 40043 57014 90700;
0062997258999992005011308004+43017-082417FM-18+0189FTGM V02099999999999999999N9999999N1+99999+99999999999REMSYN053CMAN  13084 FTGM4 46/// ///// 1//// 0806 222// 00054;
0057997258999992005011309004+43017-082417FM-18+0189FTGM V02099999999999999999N9999999N1+99999+99999100311REMSYN048CMTI   46// FTGM4 46/// ///// 1//// 40031 90900;
0080997258999992005011310004+43017-082417FM-18+0189FTGM V02099999999999999999N9999999N1+99999+99999100211ADDMD1710221+9999REMSYN054CMTI   46// FTGM4 46/// ///// 1//// 40021 57022 91000;
0000997258999992005011311004+43017-082417FM-18+0189FTGM V02099999999999999999N9999999N1+99999+99999999999
0056997258999992005011312004+43017-082417FM-18+0189FTGM V02099999999999999999N9999999N1+99999+99999100101REMSYN047CMAN 13124 FTGM4 46/// ///// 1//// 40010 91206;
0080997258999992005011313004+43017-082417FM-18+0189FTGM V02099999999999999999N9999999N1+99999+99999100101ADDMD1710111+9999REMSYN054CMTI   46// FTGM4 46/// ///// 1//// 40010 57011 91300;
0000997258999992005011314004+43017-082417FM-18+0189FTGM V02099999999999999999N9999999N1+99999+99999999999
0000997258999992005011315004+43017-082417FM-18+0189FTGM V02099999999999999999N9999999N1+99999+99999999999
0080997258999992005011316004+43017-082417FM-18+0189FTGM V02099999999999999999N9999999N1+99999+99999100141ADDMD1210041+9999REMSYN054CMTI   46// FTGM4 46/// ///// 1//// 40014 52004 91600;
0057997258999992005011318004+43017-082417FM-18+0189FTGM V02099999999999999999N9999999N1+99999+99999100031REMSYN048CMTI   46// FTGM4 46/// ///// 1//// 40003 91848;
0080997258999992005011319004+43017-082417FM-18+0189FTGM V02099999999999999999N9999999N1+99999+99999100091ADDMD1710051+9999REMSYN054CMTI   46// FTGM4 46/// ///// 1//// 40009 57005 91900;
0057997258999992005011320004+43017-082417FM-18+0189FTGM V02099999999999999999N9999999N1+99999+99999100201REMSYN048CMTI   46// FTGM4 46/// ///// 1//// 40020 92000;
0057997258999992005011321004+43017-082417FM-18+0189FTGM V02099999999999999999N9999999N1+99999+99999100411REMSYN048CMTI   46// FTGM4 46/// ///// 1//// 40041 92100;
0080997258999992005011323004+43017-082417FM-18+0189FTGM V02099999999999999999N9999999N1+99999+99999100751ADDMD1210551+9999REMSYN054CMTI   46// FTGM4 46/// ///// 1//// 40075 52055 92300;
0080997258999992005011400004+43017-082417FM-18+0189FTGM V02099999999999999999N9999999N1+99999+99999100921ADDMD1210511+9999REMSYN054CMTI   46// FTGM4 46/// ///// 1//// 40092 52051 90000;
0094997258999992005011401004+43017-082417FM-18+0189FTGM V02099999999999999999N9999999N1+99999+99999999999REMSYN085CMAN  14014 FTGM4 46/// ///// 1//// 40149 58013 90059 333 91216 555  555 11011 22012;
0057997258999992005011402004+43017-082417FM-18+0189FTGM V02099999999999999999N9999999N1+99999+99999101161REMSYN048CMTI   46// FTGM4 46/// ///// 1//// 40116 90224;
0057997258999992005011408004+43017-082417FM-18+0189FTGM V02099999999999999999N9999999N1+99999+99999101891REMSYN048CMTI   46// FTGM4 46/// ///// 1//// 40189 90806;
0057997258999992005011409004+43017-082417FM-18+0189FTGM V02099999999999999999N9999999N1+99999+99999102021REMSYN048CMTI   46// FTGM4 46/// ///// 1//// 40202 90900;
0057997258999992005011410004+43017-082417FM-18+0189FTGM V02099999999999999999N9999999N1+99999+99999102211REMSYN048CMTI   46// FTGM4 46/// ///// 1//// 40221 91000;
0057997258999992005011411004+43017-082417FM-18+0189FTGM V02099999999999999999N9999999N1+99999+99999102401REMSYN048CMTI   46// FTGM4 46/// ///// 1//// 40240 91100;
0080997258999992005011412004+43017-082417FM-18+0189FTGM V02099999999999999999N9999999N1+99999+99999102551ADDMD1110531+9999REMSYN054CMTI   46// FTGM4 46/// ///// 1//// 40255 51053 91200;
0080997258999992005011413004+43017-082417FM-18+0189FTGM V02099999999999999999N9999999N1+99999+99999102741ADDMD1210531+9999REMSYN054CMTI   46// FTGM4 46/// ///// 1//// 40274 52053 91300;
0057997258999992005011414004+43017-082417FM-18+0189FTGM V02099999999999999999N9999999N1+99999+99999102911REMSYN048CMTI   46// FTGM4 46/// ///// 1//// 40291 91406;
0057997258999992005011415004+43017-082417FM-18+0189FTGM V02099999999999999999N9999999N1+99999+99999103051REMSYN048CMTI   46// FTGM4 46/// ///// 1//// 40305 91506;
0057997258999992005011416004+43017-082417FM-18+0189FTGM V02099999999999999999N9999999N1+99999+99999103161REMSYN048CMTI   46// FTGM4 46/// ///// 1//// 40316 91606;
0057997258999992005011417004+43017-082417FM-18+0189FTGM V02099999999999999999N9999999N1+99999+99999103151REMSYN048CMTI   46// FTGM4 46/// ///// 1//// 40315 91700;
0056997258999992005011418004+43017-082417FM-18+0189FTGM V02099999999999999999N9999999N1+99999+99999103171REMSYN047CMAN 14184 FTGM4 46/// ///// 1//// 40317 91806;
0057997258999992005011419004+43017-082417FM-18+0189FTGM V02099999999999999999N9999999N1+99999+99999103161REMSYN048CMTI   46// FTGM4 46/// ///// 1//// 40316 91900;
0080997258999992005011420004+43017-082417FM-18+0189FTGM V02099999999999999999N9999999N1+99999+99999103241ADDMD1210091+9999REMSYN054CMTI   46// FTGM4 46/// ///// 1//// 40324 52009 92000;
0057997258999992005011421004+43017-082417FM-18+0189FTGM V02099999999999999999N9999999N1+99999+99999103321REMSYN048CMTI   46// FTGM4 46/// ///// 1//// 40332 92100;
0080997258999992005011422004+43017-082417FM-18+0189FTGM V02099999999999999999N9999999N1+99999+99999103341ADDMD1110181+9999REMSYN054CMTI   46// FTGM4 46/// ///// 1//// 40334 51018 92200;
0080997258999992005011423004+43017-082417FM-18+0189FTGM V02099999999999999999N9999999N1+99999+99999103441ADDMD1310201+9999REMSYN054CMTI   46// FTGM4 46/// ///// 1//// 40344 53020 92300;
0056997258999992005011500004+43017-082417FM-18+0189FTGM V02099999999999999999N9999999N1+99999+99999103511REMSYN047CMAN 15004 FTGM4 46/// ///// 1//// 40351 90006;
0080997258999992005011501004+43017-082417FM-18+0189FTGM V02099999999999999999N9999999N1+99999+99999103621ADDMD1210281+9999REMSYN054CMTI   46// FTGM4 46/// ///// 1//// 40362 52028 90100;
0080997258999992005011502004+43017-082417FM-18+0189FTGM V02099999999999999999N9999999N1+99999+99999103641ADDMD1210201+9999REMSYN054CMTI   46// FTGM4 46/// ///// 1//// 40364 52020 90200;
0057997258999992005011503004+43017-082417FM-18+0189FTGM V02099999999999999999N9999999N1+99999+99999103681REMSYN048CMTI   46// FTGM4 46/// ///// 1//// 40368 90300;
0080997258999992005011504004+43017-082417FM-18+0189FTGM V02099999999999999999N9999999N1+99999+99999103731ADDMD1310111+9999REMSYN054CMTI   46// FTGM4 46/// ///// 1//// 40373 53011 90400;
0080997258999992005011506004+43017-082417FM-18+0189FTGM V02099999999999999999N9999999N1+99999+99999103811ADDMD1210131+9999REMSYN054CMTI   46// FTGM4 46/// ///// 1//// 40381 52013 90600;
0056997258999992005011507004+43017-082417FM-18+0189FTGM V02099999999999999999N9999999N1+99999+99999103871REMSYN047CMAN 15074 FTGM4 46/// ///// 1//// 40387 90706;
0057997258999992005011508004+43017-082417FM-18+0189FTGM V02099999999999999999N9999999N1+99999+99999103921REMSYN048CMTI   46// FTGM4 46/// ///// 1//// 40392 90800;
0080997258999992005011509004+43017-082417FM-18+0189FTGM V02099999999999999999N9999999N1+99999+99999103951ADDMD1210141+9999REMSYN054CMTI   46// FTGM4 46/// ///// 1//// 40395 52014 90900;
0057997258999992005011510004+43017-082417FM-18+0189FTGM V02099999999999999999N9999999N1+99999+99999103921REMSYN048CMTI   46// FTGM4 46/// ///// 1//// 40392 91000;
0056997258999992005011511004+43017-082417FM-18+0189FTGM V02099999999999999999N9999999N1+99999+99999103941REMSYN047CMAN 15114 FTGM4 46/// ///// 1//// 40394 91106;
0080997258999992005011512004+43017-082417FM-18+0189FTGM V02099999999999999999N9999999N1+99999+99999103971ADDMD1410001+9999REMSYN054CMTI   46// FTGM4 46/// ///// 1//// 40397 54000 91200;
0080997258999992005011513004+43017-082417FM-18+0189FTGM V02099999999999999999N9999999N1+99999+99999104001ADDMD1210081+9999REMSYN054CMTI   46// FTGM4 46/// ///// 1//// 40400 52008 91300;
0056997258999992005011514004+43017-082417FM-18+0189FTGM V02099999999999999999N9999999N1+99999+99999104041REMSYN047CMAN 15144 FTGM4 46/// ///// 1//// 40404 91424;
0080997258999992005011515004+43017-082417FM-18+0189FTGM V02099999999999999999N9999999N1+99999+99999104051ADDMD1210081+9999REMSYN054CMTI   46// FTGM4 46/// ///// 1//// 40405 52008 91500;
0080997258999992005011516004+43017-082417FM-18+0189FTGM V02099999999999999999N9999999N1+99999+99999104061ADDMD1210061+9999REMSYN054CMTI   46// FTGM4 46/// ///// 1//// 40406 52006 91600;
0057997258999992005011517004+43017-082417FM-18+0189FTGM V02099999999999999999N9999999N1+99999+99999103991REMSYN048CMTI   46// FTGM4 46/// ///// 1//// 40399 91700;
0080997258999992005011518004+43017-082417FM-18+0189FTGM V02099999999999999999N9999999N1+99999+99999103901ADDMD1810151+9999REMSYN054CMTI   46// FTGM4 46/// ///// 1//// 40390 58015 91800;
0080997258999992005011519004+43017-082417FM-18+0189FTGM V02099999999999999999N9999999N1+99999+99999103821ADDMD1810241+9999REMSYN054CMTI   46// FTGM4 46/// ///// 1//// 40382 58024 91900;
0080997258999992005011520004+43017-082417FM-18+0189FTGM V02099999999999999999N9999999N1+99999+99999103781ADDMD1610211+9999REMSYN054CMTI   46// FTGM4 46/// ///// 1//// 40378 56021 92000;
0080997258999992005011521004+43017-082417FM-18+0189FTGM V02099999999999999999N9999999N1+99999+99999103781ADDMD1610121+9999REMSYN054CMTI   46// FTGM4 46/// ///// 1//// 40378 56012 92100;
0080997258999992005011522004+43017-082417FM-18+0189FTGM V02099999999999999999N9999999N1+99999+99999103801ADDMD1510001+9999REMSYN054CMTI   46// FTGM4 46/// ///// 1//// 40380 55000 92200;
0080997258999992005011523004+43017-082417FM-18+0189FTGM V02099999999999999999N9999999N1+99999+99999103851ADDMD1310071+9999REMSYN054CMTI   46// FTGM4 46/// ///// 1//// 40385 53007 92300;
0056997258999992005011600004+43017-082417FM-18+0189FTGM V02099999999999999999N9999999N1+99999+99999103901REMSYN047CMAN 16004 FTGM4 46/// ///// 1//// 40390 90006;
0080997258999992005011601004+43017-082417FM-18+0189FTGM V02099999999999999999N9999999N1+99999+99999103911ADDMD1210111+9999REMSYN054CMTI   46// FTGM4 46/// ///// 1//// 40391 52011 90100;
0056997258999992005011602004+43017-082417FM-18+0189FTGM V02099999999999999999N9999999N1+99999+99999103921REMSYN047CMAN 16024 FTGM4 46/// ///// 1//// 40392 90206;
0057997258999992005011603004+43017-082417FM-18+0189FTGM V02099999999999999999N9999999N1+99999+99999103921REMSYN048CMTI   46// FTGM4 46/// ///// 1//// 40392 90300;
0080997258999992005011604004+43017-082417FM-18+0189FTGM V02099999999999999999N9999999N1+99999+99999103901ADDMD1410001+9999REMSYN054CMTI   46// FTGM4 46/// ///// 1//// 40390 54000 90400;
0057997258999992005011605004+43017-082417FM-18+0189FTGM V02099999999999999999N9999999N1+99999+99999103911REMSYN048CMTI   46// FTGM4 46/// ///// 1//// 40391 90500;
0080997258999992005011606004+43017-082417FM-18+0189FTGM V02099999999999999999N9999999N1+99999+99999103861ADDMD1810061+9999REMSYN054CMTI   46// FTGM4 46/// ///// 1//// 40386 58006 90600;
0080997258999992005011607004+43017-082417FM-18+0189FTGM V02099999999999999999N9999999N1+99999+99999103851ADDMD1710051+9999REMSYN054CMTI   46// FTGM4 46/// ///// 1//// 40385 57005 90700;
0080997258999992005011608004+43017-082417FM-18+0189FTGM V02099999999999999999N9999999N1+99999+99999103811ADDMD1610101+9999REMSYN054CMTI   46// FTGM4 46/// ///// 1//// 40381 56010 90800;
0080997258999992005011609004+43017-082417FM-18+0189FTGM V02099999999999999999N9999999N1+99999+99999103781ADDMD1810081+9999REMSYN054CMTI   46// FTGM4 46/// ///// 1//// 40378 58008 90900;
0080997258999992005011610004+43017-082417FM-18+0189FTGM V02099999999999999999N9999999N1+99999+99999103771ADDMD1610081+9999REMSYN054CMTI   46// FTGM4 46/// ///// 1//// 40377 56008 91000;
0080997258999992005011611004+43017-082417FM-18+0189FTGM V02099999999999999999N9999999N1+99999+99999103771ADDMD1610041+9999REMSYN054CMTI   46// FTGM4 46/// ///// 1//// 40377 56004 91100;
0080997258999992005011612004+43017-082417FM-18+0189FTGM V02099999999999999999N9999999N1+99999+99999103721ADDMD1810061+9999REMSYN054CMTI   46// FTGM4 46/// ///// 1//// 40372 58006 91200;
0080997258999992005011613004+43017-082417FM-18+0189FTGM V02099999999999999999N9999999N1+99999+99999103711ADDMD1710061+9999REMSYN054CMTI   46// FTGM4 46/// ///// 1//// 40371 57006 91300;
0080997258999992005011614004+43017-082417FM-18+0189FTGM V02099999999999999999N9999999N1+99999+99999103661ADDMD1710111+9999REMSYN054CMTI   46// FTGM4 46/// ///// 1//// 40366 57011 91400;
0080997258999992005011615004+43017-082417FM-18+0189FTGM V02099999999999999999N9999999N1+99999+99999103651ADDMD1710071+9999REMSYN054CMTI   46// FTGM4 46/// ///// 1//// 40365 57007 91500;
0080997258999992005011616004+43017-082417FM-18+0189FTGM V02099999999999999999N9999999N1+99999+99999103611ADDMD1610101+9999REMSYN054CMTI   46// FTGM4 46/// ///// 1//// 40361 56010 91600;
0056997258999992005011617004+43017-082417FM-18+0189FTGM V02099999999999999999N9999999N1+99999+99999103511REMSYN047CMAN 16174 FTGM4 46/// ///// 1//// 40351 91706;
0080997258999992005011618004+43017-082417FM-18+0189FTGM V02099999999999999999N9999999N1+99999+99999103421ADDMD1710231+9999REMSYN054CMTI   46// FTGM4 46/// ///// 1//// 40342 57023 91800;
0080997258999992005011619004+43017-082417FM-18+0189FTGM V02099999999999999999N9999999N1+99999+99999103331ADDMD1710281+9999REMSYN054CMTI   46// FTGM4 46/// ///// 1//// 40333 57028 91900;
0057997258999992005011620004+43017-082417FM-18+0189FTGM V02099999999999999999N9999999N1+99999+99999103281REMSYN048CMTI   46// FTGM4 46/// ///// 1//// 40328 92000;
0080997258999992005011621004+43017-082417FM-18+0189FTGM V02099999999999999999N9999999N1+99999+99999103281ADDMD1610141+9999REMSYN054CMTI   46// FTGM4 46/// ///// 1//// 40328 56014 92100;
0080997258999992005011622004+43017-082417FM-18+0189FTGM V02099999999999999999N9999999N1+99999+99999103281ADDMD1610051+9999REMSYN054CMTI   46// FTGM4 46/// ///// 1//// 40328 56005 92200;
0080997258999992005011623004+43017-082417FM-18+0189FTGM V02099999999999999999N9999999N1+99999+99999103331ADDMD1310051+9999REMSYN054CMTI   46// FTGM4 46/// ///// 1//// 40333 53005 92300;
0080997258999992005011700004+43020-082420FM-18+0189FTGM V02099999999999999999N9999999N1+99999+99999103391ADDMD1310111+9999REMSYN054CMTI   46// FTGM4 46/// ///// 1//// 40339 53011 90000;
0080997258999992005011701004+43020-082420FM-18+0189FTGM V02099999999999999999N9999999N1+99999+99999103431ADDMD1110151+9999REMSYN054CMTI   46// FTGM4 46/// ///// 1//// 40343 51015 90100;
0080997258999992005011702004+43020-082420FM-18+0189FTGM V02099999999999999999N9999999N1+99999+99999103411ADDMD1110081+9999REMSYN054CMTI   46// FTGM4 46/// ///// 1//// 40341 51008 90200;
0080997258999992005011703004+43020-082420FM-18+0189FTGM V02099999999999999999N9999999N1+99999+99999103421ADDMD1110031+9999REMSYN054CMTI   46// FTGM4 46/// ///// 1//// 40342 51003 90300;
0080997258999992005011704004+43020-082420FM-18+0189FTGM V02099999999999999999N9999999N1+99999+99999103411ADDMD1410001+9999REMSYN054CMTI   46// FTGM4 46/// ///// 1//// 40341 54000 90400;
0056997258999992005011705004+43017-082417FM-18+0189FTGM V02099999999999999999N9999999N1+99999+99999103391REMSYN047CMAN 17054 FTGM4 46/// ///// 1//// 40339 90506;
0056997258999992005011705004+43020-082420FM-18+0189FTGM V02099999999999999999N9999999N1+99999+99999103391REMSYN047CMAN 17054 FTGM4 46/// ///// 1//// 40339 90506;
0080997258999992005011706004+43020-082420FM-18+0189FTGM V02099999999999999999N9999999N1+99999+99999103351ADDMD1710071+9999REMSYN054CMTI   46// FTGM4 46/// ///// 1//// 40335 57007 90600;
0080997258999992005011707004+43020-082420FM-18+0189FTGM V02099999999999999999N9999999N1+99999+99999103321ADDMD1710091+9999REMSYN054CMTI   46// FTGM4 46/// ///// 1//// 40332 57009 90700;
0057997258999992005011708004+43020-082420FM-18+0189FTGM V02099999999999999999N9999999N1+99999+99999103321REMSYN048CMTI   46// FTGM4 46/// ///// 1//// 40332 90800;
0080997258999992005011709004+43020-082420FM-18+0189FTGM V02099999999999999999N9999999N1+99999+99999103321ADDMD1610031+9999REMSYN054CMTI   46// FTGM4 46/// ///// 1//// 40332 56003 90900;
0080997258999992005011710004+43020-082420FM-18+0189FTGM V02099999999999999999N9999999N1+99999+99999103291ADDMD1810031+9999REMSYN054CMTI   46// FTGM4 46/// ///// 1//// 40329 58003 91000;
0080997258999992005011711004+43020-082420FM-18+0189FTGM V02099999999999999999N9999999N1+99999+99999103301ADDMD1410001+9999REMSYN054CMTI   46// FTGM4 46/// ///// 1//// 40330 54000 91100;
0080997258999992005011712004+43020-082420FM-18+0189FTGM V02099999999999999999N9999999N1+99999+99999103321ADDMD1510001+9999REMSYN054CMTI   46// FTGM4 46/// ///// 1//// 40332 55000 91200;
0080997258999992005011713004+43020-082420FM-18+0189FTGM V02099999999999999999N9999999N1+99999+99999103341ADDMD1210051+9999REMSYN054CMTI   46// FTGM4 46/// ///// 1//// 40334 52005 91300;
0080997258999992005011714004+43020-082420FM-18+0189FTGM V02099999999999999999N9999999N1+99999+99999103341ADDMD1210041+9999REMSYN054CMTI   46// FTGM4 46/// ///// 1//// 40334 52004 91400;
0080997258999992005011715004+43020-082420FM-18+0189FTGM V02099999999999999999N9999999N1+99999+99999103341ADDMD1410001+9999REMSYN054CMTI   46// FTGM4 46/// ///// 1//// 40334 54000 91500;
0080997258999992005011716004+43020-082420FM-18+0189FTGM V02099999999999999999N9999999N1+99999+99999103351ADDMD1410001+9999REMSYN054CMTI   46// FTGM4 46/// ///// 1//// 40335 54000 91600;
0080997258999992005011717004+43020-082420FM-18+0189FTGM V02099999999999999999N9999999N1+99999+99999103281ADDMD1810061+9999REMSYN054CMTI   46// FTGM4 46/// ///// 1//// 40328 58006 91700;
0080997258999992005011718004+43020-082420FM-18+0189FTGM V02099999999999999999N9999999N1+99999+99999103261ADDMD1710081+9999REMSYN054CMTI   46// FTGM4 46/// ///// 1//// 40326 57008 91800;
0080997258999992005011719004+43020-082420FM-18+0189FTGM V02099999999999999999N9999999N1+99999+99999103271ADDMD1610081+9999REMSYN054CMTI   46// FTGM4 46/// ///// 1//// 40327 56008 91900;
0080997258999992005011720004+43020-082420FM-18+0189FTGM V02099999999999999999N9999999N1+99999+99999103301ADDMD1510001+9999REMSYN054CMTI   46// FTGM4 46/// ///// 1//// 40330 55000 92000;
0080997258999992005011721004+43020-082420FM-18+0189FTGM V02099999999999999999N9999999N1+99999+99999103391ADDMD1310131+9999REMSYN054CMTI   46// FTGM4 46/// ///// 1//// 40339 53013 92100;
0080997258999992005011722004+43020-082420FM-18+0189FTGM V02099999999999999999N9999999N1+99999+99999103451ADDMD1310181+9999REMSYN054CMTI   46// FTGM4 46/// ///// 1//// 40345 53018 92200;
0057997258999992005011723004+43020-082420FM-18+0189FTGM V02099999999999999999N9999999N1+99999+99999103571REMSYN048CMTI   46// FTGM4 46/// ///// 1//// 40357 92306;
0080997258999992005011800004+43017-082417FM-18+0189FTGM V02099999999999999999N9999999N1+99999+99999103641ADDMD1210251+9999REMSYN054CMTI   46// FTGM4 46/// ///// 1//// 40364 52025 90000;
0080997258999992005011801004+43017-082417FM-18+0189FTGM V02099999999999999999N9999999N1+99999+99999103711ADDMD1210261+9999REMSYN054CMTI   46// FTGM4 46/// ///// 1//// 40371 52026 90100;
0057997258999992005011802004+43017-082417FM-18+0189FTGM V02099999999999999999N9999999N1+99999+99999103771REMSYN048CMTI   46// FTGM4 46/// ///// 1//// 40377 90200;
0080997258999992005011803004+43017-082417FM-18+0189FTGM V02099999999999999999N9999999N1+99999+99999103801ADDMD1110161+9999REMSYN054CMTI   46// FTGM4 46/// ///// 1//// 40380 51016 90300;
0080997258999992005011804004+43017-082417FM-18+0189FTGM V02099999999999999999N9999999N1+99999+99999103791ADDMD1110081+9999REMSYN054CMTI   46// FTGM4 46/// ///// 1//// 40379 51008 90400;
0080997258999992005011805004+43017-082417FM-18+0189FTGM V02099999999999999999N9999999N1+99999+99999103861ADDMD1310091+9999REMSYN054CMTI   46// FTGM4 46/// ///// 1//// 40386 53009 90500;
0080997258999992005011806004+43017-082417FM-18+0189FTGM V02099999999999999999N9999999N1+99999+99999103841ADDMD1210041+9999REMSYN054CMTI  46/// FTGM4 46/// ///// 1//// 40384 52004 90600;
0080997258999992005011807004+43017-082417FM-18+0189FTGM V02099999999999999999N9999999N1+99999+99999103871ADDMD1110081+9999REMSYN054CMTI   46// FTGM4 46/// ///// 1//// 40387 51008 90700;
0000997258999992005011808004+43017-082417FM-18+0189FTGM V02099999999999999999N9999999N1+99999+99999999999
0056997258999992005011809004+43017-082417FM-18+0189FTGM V02099999999999999999N9999999N1+99999+99999103931REMSYN047CMAN 18094 FTGM4 46/// ///// 1//// 40393 90918;
0080997258999992005011810004+43017-082417FM-18+0189FTGM V02099999999999999999N9999999N1+99999+99999103921ADDMD1210051+9999REMSYN054CMTI   46// FTGM4 46/// ///// 1//// 40392 52005 91000;
0057997258999992005011811004+43017-082417FM-18+0189FTGM V02099999999999999999N9999999N1+99999+99999104001REMSYN048CMTI   46// FTGM4 46/// ///// 1//// 40400 91100;
0056997258999992005011812004+43017-082417FM-18+0189FTGM V02099999999999999999N9999999N1+99999+99999104031REMSYN047CMAN 18124 FTGM4 46/// ///// 1//// 40403 91206;
0080997258999992005011813004+43017-082417FM-18+0189FTGM V02099999999999999999N9999999N1+99999+99999104051ADDMD1210131+9999REMSYN054CMTI   46// FTGM4 46/// ///// 1//// 40405 52013 91300;
0080997258999992005011814004+43017-082417FM-18+0189FTGM V02099999999999999999N9999999N1+99999+99999104101ADDMD1210101+9999REMSYN054CMTI   46// FTGM4 46/// ///// 1//// 40410 52010 91400;
0056997258999992005011815004+43017-082417FM-18+0189FTGM V02099999999999999999N9999999N1+99999+99999104121REMSYN047CMAN 18154 FTGM4 46/// ///// 1//// 40412 91506;
0060997258999992005011816004+43017-082417FM-18+0189FTGM V02099999999999999999N9999999N1+99999+99999999999REMSYN051CMAN  18164 FTGM4 46/// ///// 1//// 1606 333 91223;
0098997258999992005011817004+43017-082417FM-18+0189FTGM V02099999999999999999N9999999N1+99999+99999999999REMSYN089CMAN  18174 FTGM4 46/// ///// 1//// 40292 91706 222// 0004 8//// 22243 00209 1//02 70010;
0057997258999992005011818004+43017-082417FM-18+0189FTGM V02099999999999999999N9999999N1+99999+99999103741REMSYN048CMTI   46// FTGM4 46/// ///// 1//// 40374 91800;
0057997258999992005011819004+43017-082417FM-18+0189FTGM V02099999999999999999N9999999N1+99999+99999103661REMSYN048CMTI   46// FTGM4 46/// ///// 1//// 40366 91900;
0078997258999992005011820004+43017-082417FM-18+0189FTGM V02099999999999999999N9999999N1+99999+99999999999REMSYN069CMAN  18204 FTGM4 46/// ///// 1//// 0359 92006 222// 00008 333 91225;
0080997258999992005011821004+43017-082417FM-18+0189FTGM V02099999999999999999N9999999N1+99999+99999103471ADDMD1710271+9999REMSYN054CMTI   46// FTGM4 46/// ///// 1//// 40347 57027 92100;
0080997258999992005011822004+43017-082417FM-18+0189FTGM V02099999999999999999N9999999N1+99999+99999103331ADDMD1710331+9999REMSYN054CMTI   46// FTGM4 46/// ///// 1//// 40333 57033 92200;
0056997258999992005011823004+43017-082417FM-18+0189FTGM V02099999999999999999N9999999N1+99999+99999103211REMSYN047CMAN 18234 FTGM4 46/// ///// 1//// 40321 92306;
0080997258999992005011900004+43017-082417FM-18+0189FTGM V02099999999999999999N9999999N1+99999+99999103021ADDMD1710451+9999REMSYN054CMTI   46// FTGM4 46/// ///// 1//// 40302 57045 90000;
0080997258999992005011901004+43017-082417FM-18+0189FTGM V02099999999999999999N9999999N1+99999+99999102861ADDMD1710471+9999REMSYN054CMTI   46// FTGM4 46/// ///// 1//// 40286 57047 90100;
0057997258999992005011902004+43017-082417FM-18+0189FTGM V02099999999999999999N9999999N1+99999+99999102671REMSYN048CMTI   46// FTGM4 46/// ///// 1//// 40267 90200;
0080997258999992005011903004+43017-082417FM-18+0189FTGM V02099999999999999999N9999999N1+99999+99999102481ADDMD1810541+9999REMSYN054CMTI   46// FTGM4 46/// ///// 1//// 40248 58054 90300;
0080997258999992005011904004+43017-082417FM-18+0189FTGM V02099999999999999999N9999999N1+99999+99999102271ADDMD1810591+9999REMSYN054CMTI   46// FTGM4 46/// ///// 1//// 40227 58059 90400;
0080997258999992005011905004+43017-082417FM-18+0189FTGM V02099999999999999999N9999999N1+99999+99999102081ADDMD1710591+9999REMSYN054CMTI   46// FTGM4 46/// ///// 1//// 40208 57059 90500;
0080997258999992005011906004+43017-082417FM-18+0189FTGM V02099999999999999999N9999999N1+99999+99999102001ADDMD1610481+9999REMSYN054CMTI   46// FTGM4 46/// ///// 1//// 40200 56048 90600;
0080997258999992005011907004+43017-082417FM-18+0189FTGM V02099999999999999999N9999999N1+99999+99999101691ADDMD1810581+9999REMSYN054CMTI   46// FTGM4 46/// ///// 1//// 40169 58058 90700;
0080997258999992005011908004+43017-082417FM-18+0189FTGM V02099999999999999999N9999999N1+99999+99999101491ADDMD1810591+9999REMSYN054CMTI   46// FTGM4 46/// ///// 1//// 40149 58059 90800;
0080997258999992005011909004+43017-082417FM-18+0189FTGM V02099999999999999999N9999999N1+99999+99999101361ADDMD1610641+9999REMSYN054CMTI   46// FTGM4 46/// ///// 1//// 40136 56064 90900;
0080997258999992005011910004+43017-082417FM-18+0189FTGM V02099999999999999999N9999999N1+99999+99999101141ADDMD1810551+9999REMSYN054CMTI   46// FTGM4 46/// ///// 1//// 40114 58055 91000;
0080997258999992005011911004+43017-082417FM-18+0189FTGM V02099999999999999999N9999999N1+99999+99999101011ADDMD1710481+9999REMSYN054CMTI   46// FTGM4 46/// ///// 1//// 40101 57048 91100;
0080997258999992005011912004+43017-082417FM-18+0189FTGM V02099999999999999999N9999999N1+99999+99999100921ADDMD1610441+9999REMSYN054CMTI   46// FTGM4 46/// ///// 1//// 40092 56044 91200;
0080997258999992005011913004+43017-082417FM-18+0189FTGM V02099999999999999999N9999999N1+99999+99999100871ADDMD1610271+9999REMSYN054CMTI   46// FTGM4 46/// ///// 1//// 40087 56027 91300;
0080997258999992005011914004+43017-082417FM-18+0189FTGM V02099999999999999999N9999999N1+99999+99999100851ADDMD1610161+9999REMSYN054CMTI   46// FTGM4 46/// ///// 1//// 40085 56016 91400;
0080997258999992005011915004+43017-082417FM-18+0189FTGM V02099999999999999999N9999999N1+99999+99999100831ADDMD1610091+9999REMSYN054CMTI   46// FTGM4 46/// ///// 1//// 40083 56009 91500;
0056997258999992005011916004+43017-082417FM-18+0189FTGM V02099999999999999999N9999999N1+99999+99999100871REMSYN047CMAN 19164 FTGM4 46/// ///// 1//// 40087 91606;
0080997258999992005011917004+43017-082417FM-18+0189FTGM V02099999999999999999N9999999N1+99999+99999100891ADDMD1210041+9999REMSYN054CMTI   46// FTGM4 46/// ///// 1//// 40089 52004 91700;
0080997258999992005011918004+43017-082417FM-18+0189FTGM V02099999999999999999N9999999N1+99999+99999100881ADDMD1210051+9999REMSYN054CMTI   46// FTGM4 46/// ///// 1//// 40088 52005 91800;
0057997258999992005011919004+43017-082417FM-18+0189FTGM V02099999999999999999N9999999N1+99999+99999100951REMSYN048CMTI   46// FTGM4 46/// ///// 1//// 40095 91900;
0080997258999992005011920004+43017-082417FM-18+0189FTGM V02099999999999999999N9999999N1+99999+99999101051ADDMD1310161+9999REMSYN054CMTI   46// FTGM4 46/// ///// 1//// 40105 53016 92000;
0080997258999992005011921004+43017-082417FM-18+0189FTGM V02099999999999999999N9999999N1+99999+99999101161ADDMD1310281+9999REMSYN054CMTI   46// FTGM4 46/// ///// 1//// 40116 53028 92100;
0080997258999992005011923004+43017-082417FM-18+0189FTGM V02099999999999999999N9999999N1+99999+99999101371ADDMD1210321+9999REMSYN054CMTI   46// FTGM4 46/// ///// 1//// 40137 52032 92300;
0057997258999992005012000004+43017-082417FM-18+0189FTGM V02099999999999999999N9999999N1+99999+99999101531REMSYN048CMTI   46// FTGM4 46/// ///// 1//// 40153 90006;
0056997258999992005012001004+43017-082417FM-18+0189FTGM V02099999999999999999N9999999N1+99999+99999101661REMSYN047CMAN 20014 FTGM4 46/// ///// 1//// 40166 90106;
0080997258999992005012002004+43017-082417FM-18+0189FTGM V02099999999999999999N9999999N1+99999+99999101701ADDMD1210331+9999REMSYN054CMTI   46// FTGM4 46/// ///// 1//// 40170 52033 90200;
0057997258999992005012004004+43017-082417FM-18+0189FTGM V02099999999999999999N9999999N1+99999+99999101891REMSYN048CMTI   46// FTGM4 46/// ///// 1//// 40189 90418;
0080997258999992005012005004+43017-082417FM-18+0189FTGM V02099999999999999999N9999999N1+99999+99999101891ADDMD1110191+9999REMSYN054CMTI   46// FTGM4 46/// ///// 1//// 40189 51019 90500;
0080997258999992005012006004+43017-082417FM-18+0189FTGM V02099999999999999999N9999999N1+99999+99999101891ADDMD1110061+9999REMSYN054CMTI   46// FTGM4 46/// ///// 1//// 40189 51006 90600;
0080997258999992005012007004+43017-082417FM-18+0189FTGM V02099999999999999999N9999999N1+99999+99999101971ADDMD1310081+9999REMSYN054CMTI   46// FTGM4 46/// ///// 1//// 40197 53008 90700;
0080997258999992005012008004+43017-082417FM-18+0189FTGM V02099999999999999999N9999999N1+99999+99999102031ADDMD1310141+9999REMSYN054CMTI   46// FTGM4 46/// ///// 1//// 40203 53014 90800;
0080997258999992005012009004+43017-082417FM-18+0189FTGM V02099999999999999999N9999999N1+99999+99999101981ADDMD1010091+9999REMSYN054CMTI   46// FTGM4 46/// ///// 1//// 40198 50009 90900;
0080997258999992005012010004+43017-082417FM-18+0189FTGM V02099999999999999999N9999999N1+99999+99999101981ADDMD1010001+9999REMSYN054CMTI   46// FTGM4 46/// ///// 1//// 40198 50000 91000;
0080997258999992005012011004+43017-082417FM-18+0189FTGM V02099999999999999999N9999999N1+99999+99999101971ADDMD1610061+9999REMSYN054CMTI   46// FTGM4 46/// ///// 1//// 40197 56006 91100;
0080997258999992005012012004+43017-082417FM-18+0189FTGM V02099999999999999999N9999999N1+99999+99999102011ADDMD1310031+9999REMSYN054CMTI   46// FTGM4 46/// ///// 1//// 40201 53003 91200;
0080997258999992005012013004+43017-082417FM-18+0189FTGM V02099999999999999999N9999999N1+99999+99999102041ADDMD1310061+9999REMSYN054CMTI   46// FTGM4 46/// ///// 1//// 40204 53006 91300;
0080997258999992005012014004+43017-082417FM-18+0189FTGM V02099999999999999999N9999999N1+99999+99999102071ADDMD1110101+9999REMSYN054CMTI   46// FTGM4 46/// ///// 1//// 40207 51010 91400;
0080997258999992005012015004+43017-082417FM-18+0189FTGM V02099999999999999999N9999999N1+99999+99999102111ADDMD1310101+9999REMSYN054CMTI   46// FTGM4 46/// ///// 1//// 40211 53010 91500;
0057997258999992005012016004+43017-082417FM-18+0189FTGM V02099999999999999999N9999999N1+99999+99999102111REMSYN048CMTI   46// FTGM4 46/// ///// 1//// 40211 91606;
0056997258999992005012017004+43017-082417FM-18+0189FTGM V02099999999999999999N9999999N1+99999+99999102051REMSYN047CMAN 20174 FTGM4 46/// ///// 1//// 40205 91730;
0057997258999992005012018004+43017-082417FM-18+0189FTGM V02099999999999999999N9999999N1+99999+99999102021REMSYN048CMTI   46// FTGM4 46/// ///// 1//// 40202 91806;
0057997258999992005012019004+43017-082417FM-18+0189FTGM V02099999999999999999N9999999N1+99999+99999102021REMSYN048CMTI   46// FTGM4 46/// ///// 1//// 40202 91900;
0056997258999992005012020004+43017-082417FM-18+0189FTGM V02099999999999999999N9999999N1+99999+99999102011REMSYN047CMAN 20204 FTGM4 46/// ///// 1//// 40201 92006;
0056997258999992005012021004+43017-082417FM-18+0189FTGM V02099999999999999999N9999999N1+99999+99999102011REMSYN047CMAN 20214 FTGM4 46/// ///// 1//// 40201 92112;
0080997258999992005012022004+43017-082417FM-18+0189FTGM V02099999999999999999N9999999N1+99999+99999102041ADDMD1410001+9999REMSYN054CMTI   46// FTGM4 46/// ///// 1//// 40204 54000 92200;
0057997258999992005012023004+43017-082417FM-18+0189FTGM V02099999999999999999N9999999N1+99999+99999102081REMSYN048CMTI   46// FTGM4 46/// ///// 1//// 40208 92300;
0057997258999992005012100004+43017-082417FM-18+0189FTGM V02099999999999999999N9999999N1+99999+99999102131REMSYN048CMTI   46// FTGM4 46/// ///// 1//// 40213 90000;
0057997258999992005012101004+43017-082417FM-18+0189FTGM V02099999999999999999N9999999N1+99999+99999102161REMSYN048CMTI   46// FTGM4 46/// ///// 1//// 40216 90100;
0080997258999992005012102004+43017-082417FM-18+0189FTGM V02099999999999999999N9999999N1+99999+99999102181ADDMD1110101+9999REMSYN054CMTI   46// FTGM4 46/// ///// 1//// 40218 51010 90200;
0080997258999992005012103004+43017-082417FM-18+0189FTGM V02099999999999999999N9999999N1+99999+99999102231ADDMD1310101+9999REMSYN054CMTI   46// FTGM4 46/// ///// 1//// 40223 53010 90300;
0080997258999992005012104004+43017-082417FM-18+0189FTGM V02099999999999999999N9999999N1+99999+99999102281ADDMD1310121+9999REMSYN054CMTI   46// FTGM4 46/// ///// 1//// 40228 53012 90400;
0080997258999992005012105004+43017-082417FM-18+0189FTGM V02099999999999999999N9999999N1+99999+99999102311ADDMD1110131+9999REMSYN054CMTI   46// FTGM4 46/// ///// 1//// 40231 51013 90500;
0080997258999992005012107004+43017-082417FM-18+0189FTGM V02099999999999999999N9999999N1+99999+99999102351ADDMD1210071+9999REMSYN054CMTI   46// FTGM4 46/// ///// 1//// 40235 52007 90700;
0080997258999992005012108004+43017-082417FM-18+0189FTGM V02099999999999999999N9999999N1+99999+99999102431ADDMD1210121+9999REMSYN054CMTI   46// FTGM4 46/// ///// 1//// 40243 52012 90800;
0057997258999992005012109004+43017-082417FM-18+0189FTGM V02099999999999999999N9999999N1+99999+99999102451REMSYN048CMTI   46// FTGM4 46/// ///// 1//// 40245 90900;
0080997258999992005012110004+43017-082417FM-18+0189FTGM V02099999999999999999N9999999N1+99999+99999102481ADDMD1110131+9999REMSYN054CMTI   46// FTGM4 46/// ///// 1//// 40248 51013 91000;
0080997258999992005012111004+43017-082417FM-18+0189FTGM V02099999999999999999N9999999N1+99999+99999102551ADDMD1310121+9999REMSYN054CMTI   46// FTGM4 46/// ///// 1//// 40255 53012 91100;
0080997258999992005012112004+43017-082417FM-18+0189FTGM V02099999999999999999N9999999N1+99999+99999102661ADDMD1310211+9999REMSYN054CMTI   46// FTGM4 46/// ///// 1//// 40266 53021 91200;
0080997258999992005012113004+43017-082417FM-18+0189FTGM V02099999999999999999N9999999N1+99999+99999102731ADDMD1210251+9999REMSYN054CMTI   46// FTGM4 46/// ///// 1//// 40273 52025 91300;
0080997258999992005012114004+43017-082417FM-18+0189FTGM V02099999999999999999N9999999N1+99999+99999102781ADDMD1110231+9999REMSYN054CMTI   46// FTGM4 46/// ///// 1//// 40278 51023 91400;
0057997258999992005012115004+43017-082417FM-18+0189FTGM V02099999999999999999N9999999N1+99999+99999102901REMSYN048CMTI   46// FTGM4 46/// ///// 1//// 40290 91554;
0080997258999992005012116004+43017-082417FM-18+0189FTGM V02099999999999999999N9999999N1+99999+99999102911ADDMD1210181+9999REMSYN054CMTI   46// FTGM4 46/// ///// 1//// 40291 52018 91600;
0057997258999992005012118004+43017-082417FM-18+0189FTGM V02099999999999999999N9999999N1+99999+99999102791REMSYN048CMTI   46// FTGM4 46/// ///// 1//// 40279 91818;
0056997258999992005012119004+43017-082417FM-18+0189FTGM V02099999999999999999N9999999N1+99999+99999102721REMSYN047CMAN 21194 FTGM4 46/// ///// 1//// 40272 91930;
0067997258999992005012120004+43017-082417FM-18+0189FTGM V02099999999999999999N9999999N1+99999+99999999999REMSYN058CMAN  21204 FTGM4 46/// ///// 1//// 40237 55000 920091213;
0057997258999992005012121004+43017-082417FM-18+0189FTGM V02099999999999999999N9999999N1+99999+99999102691REMSYN048CMTI   46// FTGM4 46/// ///// 1//// 40269 92100;
0057997258999992005012122004+43017-082417FM-18+0189FTGM V02099999999999999999N9999999N1+99999+99999102631REMSYN048CMTI   46// FTGM4 46/// ///// 1//// 40263 92200;
0057997258999992005012123004+43017-082417FM-18+0189FTGM V02099999999999999999N9999999N1+99999+99999102611REMSYN048CMTI   46// FTGM4 46/// ///// 1//// 40261 92300;
0056997258999992005012200004+43017-082417FM-18+0189FTGM V02099999999999999999N9999999N1+99999+99999102591REMSYN047CMAN 22004 FTGM4 46/// ///// 1//// 40259 90006;
0000997258999992005012201004+43017-082417FM-18+0189FTGM V02099999999999999999N9999999N1+99999+99999999999
0080997258999992005012202004+43017-082417FM-18+0189FTGM V02099999999999999999N9999999N1+99999+99999102431ADDMD1710181+9999REMSYN054CMTI   46// FTGM4 46/// ///// 1//// 40243 57018 90200;
0057997258999992005012203004+43017-082417FM-18+0189FTGM V02099999999999999999N9999999N1+99999+99999102331REMSYN048CMTI   46// FTGM4 46/// ///// 1//// 40233 90300;
0057997258999992005012204004+43017-082417FM-18+0189FTGM V02099999999999999999N9999999N1+99999+99999102231REMSYN048CMTI   46// FTGM4 46/// ///// 1//// 40223 90400;
0080997258999992005012205004+43017-082417FM-18+0189FTGM V02099999999999999999N9999999N1+99999+99999102141ADDMD1610291+9999REMSYN054CMTI   46// FTGM4 46/// ///// 1//// 40214 56029 90500;
0084997258999992005012207004+43017-082417FM-18+0189FTGM V02099999999999999999N9999999N1+99999+99999999999REMSYN075CMAN  22074 FTGM4 46/// ///// 1//// 0261 56012 90700 222// 00007 333 91213;
0080997258999992005012208004+43017-082417FM-18+0189FTGM V02099999999999999999N9999999N1+99999+99999101661ADDMD1710481+9999REMSYN054CMTI   46// FTGM4 46/// ///// 1//// 40166 57048 90800;
0080997258999992005012209004+43017-082417FM-18+0189FTGM V02099999999999999999N9999999N1+99999+99999101521ADDMD1710391+9999REMSYN054CMTI   46// FTGM4 46/// ///// 1//// 40152 57039 90900;
0057997258999992005012210004+43017-082417FM-18+0189FTGM V02099999999999999999N9999999N1+99999+99999101391REMSYN048CMTI   46// FTGM4 46/// ///// 1//// 40139 91000;
0080997258999992005012211004+43017-082417FM-18+0189FTGM V02099999999999999999N9999999N1+99999+99999101241ADDMD1810421+9999REMSYN054CMTI   46// FTGM4 46/// ///// 1//// 40124 58042 91100;
0080997258999992005012212004+43017-082417FM-18+0189FTGM V02099999999999999999N9999999N1+99999+99999100981ADDMD1810541+9999REMSYN054CMTI   46// FTGM4 46/// ///// 1//// 40098 58054 91200;
0080997258999992005012213004+43017-082417FM-18+0189FTGM V02099999999999999999N9999999N1+99999+99999100921ADDMD1610471+9999REMSYN054CMTI   46// FTGM4 46/// ///// 1//// 40092 56047 91300;
0080997258999992005012214004+43017-082417FM-18+0189FTGM V02099999999999999999N9999999N1+99999+99999100721ADDMD1610521+9999REMSYN054CMTI   46// FTGM4 46/// ///// 1//// 40072 56052 91400;
0080997258999992005012215004+43017-082417FM-18+0189FTGM V02099999999999999999N9999999N1+99999+99999100661ADDMD1710321+9999REMSYN054CMTI   46// FTGM4 46/// ///// 1//// 40066 57032 91500;
0080997258999992005012216004+43017-082417FM-18+0189FTGM V02099999999999999999N9999999N1+99999+99999100691ADDMD1510231+9999REMSYN054CMTI   46// FTGM4 46/// ///// 1//// 40069 55023 91600;
0056997258999992005012217004+43017-082417FM-18+0189FTGM V02099999999999999999N9999999N1+99999+99999100741REMSYN047CMAN 22174 FTGM4 46/// ///// 1//// 40074 91706;
0080997258999992005012218004+43017-082417FM-18+0189FTGM V02099999999999999999N9999999N1+99999+99999100811ADDMD1210151+9999REMSYN054CMTI   46// FTGM4 46/// ///// 1//// 40081 52015 91800;
0080997258999992005012219004+43017-082417FM-18+0189FTGM V02099999999999999999N9999999N1+99999+99999100911ADDMD1210221+9999REMSYN054CMTI   46// FTGM4 46/// ///// 1//// 40091 52022 91900;
0094997258999992005012220004+43017-082417FM-18+0189FTGM V02099999999999999999N9999999N1+99999+99999999999REMSYN085CMAN  22204 FTGM4 46/// ///// 1//// 40076 56061 91959 333 91219 555  555 11010 22011;
0080997258999992005012221004+43017-082417FM-18+0189FTGM V02099999999999999999N9999999N1+99999+99999101111ADDMD1210301+9999REMSYN054CMTI   46// FTGM4 46/// ///// 1//// 40111 52030 92100;
0080997258999992005012222004+43017-082417FM-18+0189FTGM V02099999999999999999N9999999N1+99999+99999101241ADDMD1210331+9999REMSYN054CMTI   46// FTGM4 46/// ///// 1//// 40124 52033 92200;
0057997258999992005012223004+43017-082417FM-18+0189FTGM V02099999999999999999N9999999N1+99999+99999101421REMSYN048CMTI   46// FTGM4 46/// ///// 1//// 40142 92300;
0067997258999992005012300004+43020-082420FM-18+0189FTGM V02099999999999999999N9999999N1+99999+99999999999REMSYN058CMAN  23004 FTGM4 46/// ///// 1//// 40034 90001 333 91206;
0080997258999992005012301004+43020-082420FM-18+0189FTGM V02099999999999999999N9999999N1+99999+99999101691ADDMD1210451+9999REMSYN054CMTI   46// FTGM4 46/// ///// 1//// 40169 52045 90100;
0080997258999992005012302004+43020-082420FM-18+0189FTGM V02099999999999999999N9999999N1+99999+99999101811ADDMD1210391+9999REMSYN054CMTI   46// FTGM4 46/// ///// 1//// 40181 52039 90200;
0057997258999992005012303004+43020-082420FM-18+0189FTGM V02099999999999999999N9999999N1+99999+99999101921REMSYN048CMTI   46// FTGM4 46/// ///// 1//// 40192 90300;
0080997258999992005012304004+43020-082420FM-18+0189FTGM V02099999999999999999N9999999N1+99999+99999102001ADDMD1110311+9999REMSYN054CMTI   46// FTGM4 46/// ///// 1//// 40200 51031 90400;
0094997258999992005012305004+43020-082420FM-18+0189FTGM V02099999999999999999N9999999N1+99999+99999999999REMSYN085CMAN  23054 FTGM4 46/// ///// 1//// 49948 56008 90459 333 91229 555  555 11017 22017;
0056997258999992005012306004+43020-082420FM-18+0189FTGM V02099999999999999999N9999999N1+99999+99999102171REMSYN047CMAN 23064 FTGM4 46/// ///// 1//// 40217 90606;
0080997258999992005012307004+43020-082420FM-18+0189FTGM V02099999999999999999N9999999N1+99999+99999102261ADDMD1210261+9999REMSYN054CMTI   46// FTGM4 46/// ///// 1//// 40226 52026 90700;
0056997258999992005012308004+43020-082420FM-18+0189FTGM V02099999999999999999N9999999N1+99999+99999102371REMSYN047CMAN 23084 FTGM4 46/// ///// 1//// 40237 90806;
0057997258999992005012309004+43020-082420FM-18+0189FTGM V02099999999999999999N9999999N1+99999+99999102421REMSYN048CMTI   46// FTGM4 46/// ///// 1//// 40242 90900;
0057997258999992005012310004+43020-082420FM-18+0189FTGM V02099999999999999999N9999999N1+99999+99999102511REMSYN048CMTI   46// FTGM4 46/// ///// 1//// 40251 91006;
0057997258999992005012311004+43020-082420FM-18+0189FTGM V02099999999999999999N9999999N1+99999+99999102581REMSYN048CMTI   46// FTGM4 46/// ///// 1//// 40258 91100;
0080997258999992005012312004+43020-082420FM-18+0189FTGM V02099999999999999999N9999999N1+99999+99999102671ADDMD1210251+9999REMSYN054CMTI   46// FTGM4 46/// ///// 1//// 40267 52025 91200;
0057997258999992005012313004+43020-082420FM-18+0189FTGM V02099999999999999999N9999999N1+99999+99999102761REMSYN048CMTI   46// FTGM4 46/// ///// 1//// 40276 91300;
0080997258999992005012314004+43020-082420FM-18+0189FTGM V02099999999999999999N9999999N1+99999+99999102881ADDMD1310301+9999REMSYN054CMTI   46// FTGM4 46/// ///// 1//// 40288 53030 91400;
0080997258999992005012315004+43020-082420FM-18+0189FTGM V02099999999999999999N9999999N1+99999+99999102941ADDMD1110271+9999REMSYN054CMTI   46// FTGM4 46/// ///// 1//// 40294 51027 91500;
0056997258999992005012316004+43020-082420FM-18+0189FTGM V02099999999999999999N9999999N1+99999+99999102991REMSYN047CMAN 23164 FTGM4 46/// ///// 1//// 40299 91606;
0056997258999992005012317004+43020-082420FM-18+0189FTGM V02099999999999999999N9999999N1+99999+99999102951REMSYN047CMAN 23174 FTGM4 46/// ///// 1//// 40295 91706;
0056997258999992005012318004+43020-082420FM-18+0189FTGM V02099999999999999999N9999999N1+99999+99999102911REMSYN047CMAN 23184 FTGM4 46/// ///// 1//// 40291 91806;
0057997258999992005012319004+43020-082420FM-18+0189FTGM V02099999999999999999N9999999N1+99999+99999102851REMSYN048CMTI   46// FTGM4 46/// ///// 1//// 40285 91900;
0057997258999992005012320004+43020-082420FM-18+0189FTGM V02099999999999999999N9999999N1+99999+99999102781REMSYN048CMTI   46// FTGM4 46/// ///// 1//// 40278 92000;
0057997258999992005012321004+43020-082420FM-18+0189FTGM V02099999999999999999N9999999N1+99999+99999102831REMSYN048CMTI   46// FTGM4 46/// ///// 1//// 40283 92100;
0080997258999992005012323004+43020-082420FM-18+0189FTGM V02099999999999999999N9999999N1+99999+99999102871ADDMD1110091+9999REMSYN054CMTI   46// FTGM4 46/// ///// 1//// 40287 51009 92300;
0080997258999992005012400004+43020-082420FM-18+0189FTGM V02099999999999999999N9999999N1+99999+99999102851ADDMD1410001+9999REMSYN054CMTI   46// FTGM4 46/// ///// 1//// 40285 54000 90000;
0080997258999992005012401004+43020-082420FM-18+0189FTGM V02099999999999999999N9999999N1+99999+99999102801ADDMD1810051+9999REMSYN054CMTI   46// FTGM4 46/// ///// 1//// 40280 58005 90100;
0080997258999992005012402004+43020-082420FM-18+0189FTGM V02099999999999999999N9999999N1+99999+99999102731ADDMD1810141+9999REMSYN054CMTI   46// FTGM4 46/// ///// 1//// 40273 58014 90200;
0080997258999992005012403004+43020-082420FM-18+0189FTGM V02099999999999999999N9999999N1+99999+99999102671ADDMD1810181+9999REMSYN054CMTI   46// FTGM4 46/// ///// 1//// 40267 58018 90300;
0080997258999992005012404004+43020-082420FM-18+0189FTGM V02099999999999999999N9999999N1+99999+99999102561ADDMD1810241+9999REMSYN054CMTI   46// FTGM4 46/// ///// 1//// 40256 58024 90400;
0056997258999992005012405004+43020-082420FM-18+0189FTGM V02099999999999999999N9999999N1+99999+99999102451REMSYN047CMAN 24054 FTGM4 46/// ///// 1//// 40245 90506;
0080997258999992005012406004+43020-082420FM-18+0189FTGM V02099999999999999999N9999999N1+99999+99999102421ADDMD1710251+9999REMSYN054CMTI   46// FTGM4 46/// ///// 1//// 40242 57025 90600;
0057997258999992005012407004+43020-082420FM-18+0189FTGM V02099999999999999999N9999999N1+99999+99999102231REMSYN048CMTI   46// FTGM4 46/// ///// 1//// 40223 90754;
0056997258999992005012408004+43020-082420FM-18+0189FTGM V02099999999999999999N9999999N1+99999+99999102231REMSYN047CMAN 24084 FTGM4 46/// ///// 1//// 40223 90806;
0080997258999992005012409004+43020-082420FM-18+0189FTGM V02099999999999999999N9999999N1+99999+99999102141ADDMD1710281+9999REMSYN054CMTI   46// FTGM4 46/// ///// 1//// 40214 57028 90900;
0000997258999992005012410004+43020-082420FM-18+0189FTGM V02099999999999999999N9999999N1+99999+99999999999
0057997258999992005012411004+43020-082420FM-18+0189FTGM V02099999999999999999N9999999N1+99999+99999101841REMSYN048CMTI   46// FTGM4 46/// ///// 1//// 40184 91100;
0057997258999992005012413004+43020-082420FM-18+0189FTGM V02099999999999999999N9999999N1+99999+99999101681REMSYN048CMTI   46// FTGM4 46/// ///// 1//// 40168 91300;
0080997258999992005012414004+43020-082420FM-18+0189FTGM V02099999999999999999N9999999N1+99999+99999101581ADDMD1710261+9999REMSYN054CMTI   46// FTGM4 46/// ///// 1//// 40158 57026 91400;
0080997258999992005012415004+43020-082420FM-18+0189FTGM V02099999999999999999N9999999N1+99999+99999101481ADDMD1810261+9999REMSYN054CMTI   46// FTGM4 46/// ///// 1//// 40148 58026 91500;
0080997258999992005012416004+43020-082420FM-18+0189FTGM V02099999999999999999N9999999N1+99999+99999101381ADDMD1710301+9999REMSYN054CMTI   46// FTGM4 46/// ///// 1//// 40138 57030 91600;
0080997258999992005012417004+43020-082420FM-18+0189FTGM V02099999999999999999N9999999N1+99999+99999101311ADDMD1610271+9999REMSYN054CMTI   46// FTGM4 46/// ///// 1//// 40131 56027 91700;
0080997258999992005012418004+43020-082420FM-18+0189FTGM V02099999999999999999N9999999N1+99999+99999101231ADDMD1610251+9999REMSYN054CMTI   46// FTGM4 46/// ///// 1//// 40123 56025 91800;
0080997258999992005012419004+43020-082420FM-18+0189FTGM V02099999999999999999N9999999N1+99999+99999101111ADDMD1810271+9999REMSYN054CMTI   46// FTGM4 46/// ///// 1//// 40111 58027 91900;
0080997258999992005012420004+43020-082420FM-18+0189FTGM V02099999999999999999N9999999N1+99999+99999101091ADDMD1610221+9999REMSYN054CMTI   46// FTGM4 46/// ///// 1//// 40109 56022 92000;
0080997258999992005012421004+43020-082420FM-18+0189FTGM V02099999999999999999N9999999N1+99999+99999101111ADDMD1610121+9999REMSYN054CMTI   46// FTGM4 46/// ///// 1//// 40111 56012 92100;
0080997258999992005012422004+43020-082420FM-18+0189FTGM V02099999999999999999N9999999N1+99999+99999101161ADDMD1310051+9999REMSYN054CMTI   46// FTGM4 46/// ///// 1//// 40116 53005 92200;
0080997258999992005012423004+43020-082420FM-18+0189FTGM V02099999999999999999N9999999N1+99999+99999101251ADDMD1310161+9999REMSYN054CMTI   46// FTGM4 46/// ///// 1//// 40125 53016 92300;
0080997258999992005012500004+43017-082417FM-18+0189FTGM V02099999999999999999N9999999N1+99999+99999101341ADDMD1310231+9999REMSYN054CMTI   46// FTGM4 46/// ///// 1//// 40134 53023 90000;
0080997258999992005012501004+43017-082417FM-18+0189FTGM V02099999999999999999N9999999N1+99999+99999101381ADDMD1110221+9999REMSYN054CMTI   46// FTGM4 46/// ///// 1//// 40138 51022 90100;
0057997258999992005012504004+43017-082417FM-18+0189FTGM V02099999999999999999N9999999N1+99999+99999101451REMSYN048CMTI   46// FTGM4 46/// ///// 1//// 40145 90418;
0080997258999992005012505004+43017-082417FM-18+0189FTGM V02099999999999999999N9999999N1+99999+99999101431ADDMD1010001+9999REMSYN054CMTI   46// FTGM4 46/// ///// 1//// 40143 50000 90500;
0080997258999992005012506004+43017-082417FM-18+0189FTGM V02099999999999999999N9999999N1+99999+99999101481ADDMD1310031+9999REMSYN054CMTI   46// FTGM4 46/// ///// 1//// 40148 53003 90600;
0080997258999992005012507004+43017-082417FM-18+0189FTGM V02099999999999999999N9999999N1+99999+99999101501ADDMD1310041+9999REMSYN054CMTI   46// FTGM4 46/// ///// 1//// 40150 53004 90700;
0080997258999992005012508004+43017-082417FM-18+0189FTGM V02099999999999999999N9999999N1+99999+99999101571ADDMD1310141+9999REMSYN054CMTI   46// FTGM4 46/// ///// 1//// 40157 53014 90800;
0080997258999992005012509004+43017-082417FM-18+0189FTGM V02099999999999999999N9999999N1+99999+99999101481ADDMD1010001+9999REMSYN054CMTI   46// FTGM4 46/// ///// 1//// 40148 50000 90900;
0080997258999992005012510004+43017-082417FM-18+0189FTGM V02099999999999999999N9999999N1+99999+99999101441ADDMD1810061+9999REMSYN054CMTI   46// FTGM4 46/// ///// 1//// 40144 58006 91000;
0080997258999992005012511004+43017-082417FM-18+0189FTGM V02099999999999999999N9999999N1+99999+99999101471ADDMD1510101+9999REMSYN054CMTI   46// FTGM4 46/// ///// 1//// 40147 55010 91100;
0080997258999992005012512004+43017-082417FM-18+0189FTGM V02099999999999999999N9999999N1+99999+99999101381ADDMD1810101+9999REMSYN054CMTI   46// FTGM4 46/// ///// 1//// 40138 58010 91200;
0056997258999992005012513004+43017-082417FM-18+0189FTGM V02099999999999999999N9999999N1+99999+99999101401REMSYN047CMAN 25134 FTGM4 46/// ///// 1//// 40140 91306;
0080997258999992005012514004+43017-082417FM-18+0189FTGM V02099999999999999999N9999999N1+99999+99999101331ADDMD1710141+9999REMSYN054CMTI   46// FTGM4 46/// ///// 1//// 40133 57014 91400;
0080997258999992005012515004+43017-082417FM-18+0189FTGM V02099999999999999999N9999999N1+99999+99999101281ADDMD1710101+9999REMSYN054CMTI   46// FTGM4 46/// ///// 1//// 40128 57010 91500;
0067997258999992005012516004+43017-082417FM-18+0189FTGM V02099999999999999999N9999999N1+99999+99999999999REMSYN058CMAN  25164 FTGM4 46/// ///// 1//// 222// 01004 333 91211;
0080997258999992005012517004+43017-082417FM-18+0189FTGM V02099999999999999999N9999999N1+99999+99999101091ADDMD1710241+9999REMSYN054CMTI   46// FTGM4 46/// ///// 1//// 40109 57024 91700;
0080997258999992005012518004+43017-082417FM-18+0189FTGM V02099999999999999999N9999999N1+99999+99999100951ADDMD1710331+9999REMSYN054CMTI   46// FTGM4 46/// ///// 1//// 40095 57033 91800;
0057997258999992005012519004+43017-082417FM-18+0189FTGM V02099999999999999999N9999999N1+99999+99999100841REMSYN048CMTI   46// FTGM4 46/// ///// 1//// 40084 91900;
0080997258999992005012520004+43017-082417FM-18+0189FTGM V02099999999999999999N9999999N1+99999+99999100681ADDMD1810411+9999REMSYN054CMTI   46// FTGM4 46/// ///// 1//// 40068 58041 92000;
0080997258999992005012521004+43017-082417FM-18+0189FTGM V02099999999999999999N9999999N1+99999+99999100561ADDMD1810391+9999REMSYN054CMTI   46// FTGM4 46/// ///// 1//// 40056 58039 92100;
0080997258999992005012522004+43017-082417FM-18+0189FTGM V02099999999999999999N9999999N1+99999+99999100411ADDMD1610431+9999REMSYN054CMTI   46// FTGM4 46/// ///// 1//// 40041 56043 92200;
0080997258999992005012523004+43017-082417FM-18+0189FTGM V02099999999999999999N9999999N1+99999+99999100321ADDMD1610361+9999REMSYN054CMTI   46// FTGM4 46/// ///// 1//// 40032 56036 92300;
0080997258999992005012600004+43017-082417FM-18+0189FTGM V02099999999999999999N9999999N1+99999+99999100191ADDMD1610371+9999REMSYN054CMTI   46// FTGM4 46/// ///// 1//// 40019 56037 90000;
0080997258999992005012601004+43017-082417FM-18+0189FTGM V02099999999999999999N9999999N1+99999+99999100031ADDMD1810381+9999REMSYN054CMTI   46// FTGM4 46/// ///// 1//// 40003 58038 90100;
0094997258999992005012602004+43017-082417FM-18+0189FTGM V02099999999999999999N9999999N1+99999+99999999999REMSYN085CMAN  26024 FTGM4 46/// ///// 1//// 40107 51005 90159 333 91206 555  555 11005 22005;
0080997258999992005012603004+43017-082417FM-18+0189FTGM V02099999999999999999N9999999N1+99999+99999100041ADDMD1710151+9999REMSYN054CMTI   46// FTGM4 46/// ///// 1//// 40004 57015 90300;
0080997258999992005012604004+43017-082417FM-18+0189FTGM V02099999999999999999N9999999N1+99999+99999099981ADDMD1710051+9999REMSYN054CMTI   46// FTGM4 46/// ///// 1//// 49998 57005 90400;
0057997258999992005012605004+43017-082417FM-18+0189FTGM V02099999999999999999N9999999N1+99999+99999099941REMSYN048CMTI   46// FTGM4 46/// ///// 1//// 49994 90500;
0056997258999992005012606004+43017-082417FM-18+0189FTGM V02099999999999999999N9999999N1+99999+99999099911REMSYN047CMAN 26064 FTGM4 46/// ///// 1//// 49991 90606;
0080997258999992005012607004+43017-082417FM-18+0189FTGM V02099999999999999999N9999999N1+99999+99999099991ADDMD1410001+9999REMSYN054CMTI   46// FTGM4 46/// ///// 1//// 49999 54000 90700;
0080997258999992005012608004+43017-082417FM-18+0189FTGM V02099999999999999999N9999999N1+99999+99999100101ADDMD1210161+9999REMSYN054CMTI   46// FTGM4 46/// ///// 1//// 40010 52016 90800;
0057997258999992005012609004+43017-082417FM-18+0189FTGM V02099999999999999999N9999999N1+99999+99999100201REMSYN048CMTI   46// FTGM4 46/// ///// 1//// 40020 90900;
0080997258999992005012610004+43017-082417FM-18+0189FTGM V02099999999999999999N9999999N1+99999+99999100311ADDMD1210321+9999REMSYN054CMTI   46// FTGM4 46/// ///// 1//// 40031 52032 91000;
0080997258999992005012611004+43017-082417FM-18+0189FTGM V02099999999999999999N9999999N1+99999+99999100491ADDMD1310391+9999REMSYN054CMTI   46// FTGM4 46/// ///// 1//// 40049 53039 91100;
0056997258999992005012612004+43017-082417FM-18+0189FTGM V02099999999999999999N9999999N1+99999+99999100711REMSYN047CMAN 26124 FTGM4 46/// ///// 1//// 40071 91206;
0080997258999992005012613004+43017-082417FM-18+0189FTGM V02099999999999999999N9999999N1+99999+99999100891ADDMD1210581+9999REMSYN054CMTI   46// FTGM4 46/// ///// 1//// 40089 52058 91300;
0056997258999992005012614004+43017-082417FM-18+0189FTGM V02099999999999999999N9999999N1+99999+99999101181REMSYN047CMAN 26144 FTGM4 46/// ///// 1//// 40118 91418;
0056997258999992005012615004+43017-082417FM-18+0189FTGM V02099999999999999999N9999999N1+99999+99999101341REMSYN047CMAN 26154 FTGM4 46/// ///// 1//// 40134 91506;
0080997258999992005012616004+43017-082417FM-18+0189FTGM V02099999999999999999N9999999N1+99999+99999101451ADDMD1210561+9999REMSYN054CMTI   46// FTGM4 46/// ///// 1//// 40145 52056 91600;
0057997258999992005012617004+43017-082417FM-18+0189FTGM V02099999999999999999N9999999N1+99999+99999101531REMSYN048CMTI   46// FTGM4 46/// ///// 1//// 40153 91700;
0057997258999992005012618004+43017-082417FM-18+0189FTGM V02099999999999999999N9999999N1+99999+99999101631REMSYN048CMTI   46// FTGM4 46/// ///// 1//// 40163 91800;
0080997258999992005012619004+43017-082417FM-18+0189FTGM V02099999999999999999N9999999N1+99999+99999101711ADDMD1210261+9999REMSYN054CMTI   46// FTGM4 46/// ///// 1//// 40171 52026 91900;
0056997258999992005012620004+43017-082417FM-18+0189FTGM V02099999999999999999N9999999N1+99999+99999101881REMSYN047CMAN 26204 FTGM4 46/// ///// 1//// 40188 92018;
0080997258999992005012621004+43017-082417FM-18+0189FTGM V02099999999999999999N9999999N1+99999+99999101961ADDMD1210331+9999REMSYN054CMTI   46// FTGM4 46/// ///// 1//// 40196 52033 92100;
0080997258999992005012622004+43017-082417FM-18+0189FTGM V02099999999999999999N9999999N1+99999+99999102091ADDMD1210381+9999REMSYN054CMTI   46// FTGM4 46/// ///// 1//// 40209 52038 92200;
0057997258999992005012623004+43017-082417FM-18+0189FTGM V02099999999999999999N9999999N1+99999+99999102251REMSYN048CMTI   46// FTGM4 46/// ///// 1//// 40225 92300;
0080997258999992005012700004+43017-082417FM-18+0189FTGM V02099999999999999999N9999999N1+99999+99999102391ADDMD1310431+9999REMSYN054CMTI   46// FTGM4 46/// ///// 1//// 40239 53043 90000;
0080997258999992005012701004+43017-082417FM-18+0189FTGM V02099999999999999999N9999999N1+99999+99999102461ADDMD1110371+9999REMSYN054CMTI   46// FTGM4 46/// ///// 1//// 40246 51037 90100;
0080997258999992005012702004+43017-082417FM-18+0189FTGM V02099999999999999999N9999999N1+99999+99999102591ADDMD1110341+9999REMSYN054CMTI   46// FTGM4 46/// ///// 1//// 40259 51034 90200;
0080997258999992005012703004+43017-082417FM-18+0189FTGM V02099999999999999999N9999999N1+99999+99999102681ADDMD1310291+9999REMSYN054CMTI   46// FTGM4 46/// ///// 1//// 40268 53029 90300;
0078997258999992005012704004+43017-082417FM-18+0189FTGM V02099999999999999999N9999999N1+99999+99999999999REMSYN069CMAN  27044 FTGM4 46/// ///// 1//// 0121 90406 222// 00009 333 91212;
0080997258999992005012705004+43017-082417FM-18+0189FTGM V02099999999999999999N9999999N1+99999+99999102821ADDMD1210231+9999REMSYN054CMTI   46// FTGM4 46/// ///// 1//// 40282 52023 90500;
0056997258999992005012706004+43017-082417FM-18+0189FTGM V02099999999999999999N9999999N1+99999+99999102911REMSYN047CMAN 27064 FTGM4 46/// ///// 1//// 40291 90606;
0057997258999992005012707004+43017-082417FM-18+0189FTGM V02099999999999999999N9999999N1+99999+99999102961REMSYN048CMTI   46// FTGM4 46/// ///// 1//// 40296 90700;
0080997258999992005012708004+43017-082417FM-18+0189FTGM V02099999999999999999N9999999N1+99999+99999103041ADDMD1210221+9999REMSYN054CMTI   46// FTGM4 46/// ///// 1//// 40304 52022 90800;
