0078997257999992005010100004+45983-083900FM-18+0189DTLM V02099999999999999999N9999999N1+00121+99999101171REMSYN069CMAN  01004 DTLM4 46/// ///08 10012 40117 90018 222// 0002 333 91225;
0078997257999992005010104004+45983-083900FM-18+0189DTLM V02099999999999999999N9999999N1-00181+99999101881REMSYN069CMAN 01044 DTLM4 46/// ///15 11018 40188 90400 222// 00018 333 91222;
0090997257999992005010105004+45983-083900FM-18+0189DTLM V02099999999999999999N9999999N1-00351+99999102141ADDSA1+0199REMSYN070CMTI   46// DTLM4 46/// ///08 11035 40214 90554 222// 00019 333 91217;
0090997257999992005010106004+45983-083900FM-18+0189DTLM V02099999999999999999N9999999N1-00361+99999102151ADDSA1+0189REMSYN070CMTI   46// DTLM4 46/// ///11 11036 40215 90600 222// 00018 333 91217;
0110997257999992005010107004+45983-083900FM-18+0189DTLM V02099999999999999999N9999999N1-00431+99999102281ADDMD1210401+9999SA1+0199REMSYN076CMTI   46// DTLM4 46/// ///11 11043 40228 52040 90700 222// 00019 333 91214;
0090997257999992005010108004+45983-083900FM-18+0189DTLM V02099999999999999999N9999999N1-00551+99999102471ADDSA1+0199REMSYN070CMTI   46// DTLM4 46/// ///08 11055 40247 90800 222// 00019 333 91212;
0110997257999992005010109004+45983-083900FM-18+0189DTLM V02099999999999999999N9999999N1-00661+99999102621ADDMD1310471+9999SA1+0199REMSYN076CMTI   46// DTLM4 46/// ///08 11066 40262 53047 90900 222// 00019 333 91215;
0110997257999992005010110004+45983-083900FM-18+0189DTLM V02099999999999999999N9999999N1-00701+99999102701ADDMD1110421+9999SA1+0199REMSYN076CMTI   46// DTLM4 46/// ///12 11070 40270 51042 91000 222// 00019 333 91218;
0110997257999992005010111004+45983-083900FM-18+0189DTLM V02099999999999999999N9999999N1-00811+99999102891ADDMD1310421+9999SA1+0199REMSYN076CMTI   46// DTLM4 46/// ///12 11081 40289 53042 91100 222// 00019 333 91214;
0110997257999992005010112004+45983-083900FM-18+0189DTLM V02099999999999999999N9999999N1-00861+99999103011ADDMD1310391+9999SA1+0199REMSYN076CMTI   46// DTLM4 46/// ///07 11086 40301 53039 91200 222// 00019 333 91212;
0110997257999992005010113004+45983-083900FM-18+0189DTLM V02099999999999999999N9999999N1-00911+99999103241ADDMD1310541+9999SA1+0199REMSYN076CMTI   46// DTLM4 46/// ///05 11091 40324 53054 91300 222// 00019 333 91208;
0110997257999992005010114004+45983-083900FM-18+0189DTLM V02099999999999999999N9999999N1-00921+99999103401ADDMD1310511+9999SA1+0199REMSYN076CMTI   46// DTLM4 46/// ///15 11092 40340 53051 91400 222// 00019 333 91217;
0110997257999992005010115004+45983-083900FM-18+0189DTLM V02099999999999999999N9999999N1-00931+99999103441ADDMD1110431+9999SA1+0199REMSYN076CMTI   46// DTLM4 46/// ///14 11093 40344 51043 91500 222// 00019 333 91217;
0110997257999992005010116004+45983-083900FM-18+0189DTLM V02099999999999999999N9999999N1-00871+99999103591ADDMD1110351+9999SA1+0209REMSYN076CMTI   46// DTLM4 46/// ///10 11087 40359 51035 91600 222// 00020 333 91213;
0110997257999992005010117004+45983-083900FM-18+0189DTLM V02099999999999999999N9999999N1-00851+99999103591ADDMD1110191+9999SA1+0209REMSYN076CMTI   46// DTLM4 46/// ///10 11085 40359 51019 91700 222// 00020 333 91213;
0090997257999992005010118004+45983-083900FM-18+0189DTLM V02099999999999999999N9999999N1-00811+99999103561ADDSA1+0199REMSYN070CMTI   46// DTLM4 46/// ///09 11081 40356 91824 222// 00019 333 91211;
0101997257999992005010119004+45983-083900FM-18+0189DTLM V02099999999999999999N9999999N1-00801+99999103561ADDMD1710031+9999REMSYN075CMAN 01194 DTLM4 46/// ///09 11080 40356 57003 91900 222// 00019 333 91213;
0090997257999992005010121004+45983-083900FM-18+0189DTLM V02099999999999999999N9999999N1-00621+99999103621ADDSA1+0179REMSYN070CMTI   46// DTLM4 46/// ///09 11062 40362 92106 222// 00017 333 91211;
0078997257999992005010202004+45983-083900FM-18+0189DTLM V02099999999999999999N9999999N1-00591+99999103521REMSYN069CMAN 02024 DTLM4 46/// ///07 11059 40352 90200 222// 00018 333 91210;
0078997257999992005010203004+45983-083900FM-18+0189DTLM V02099999999999999999N9999999N1-00601+99999103451REMSYN069CMAN 02034 DTLM4 46/// ///14 11060 40345 90300 222// 00018 333 91216;
0078997257999992005010204004+45983-083900FM-18+0189DTLM V02099999999999999999N9999999N1-00651+99999103331REMSYN069CMAN 02044 DTLM4 46/// ///13 11065 40333 90400 222// 00018 333 91219;
0101997257999992005010205004+45983-083900FM-18+0189DTLM V02099999999999999999N9999999N1-00731+99999103221ADDMD1810301+9999REMSYN075CMAN 02054 DTLM4 46/// ///11 11073 40322 58030 90500 222// 00018 333 91221;
0101997257999992005010206004+45983-083900FM-18+0189DTLM V02099999999999999999N9999999N1-00761+99999103121ADDMD1610331+9999REMSYN075CMAN 02064 DTLM4 46/// ///10 11076 40312 56033 90600 222// 00018 333 91218;
0090997257999992005010208004+45983-083900FM-18+0189DTLM V02099999999999999999N9999999N1-00691+99999102661ADDSA1+0179REMSYN070CMTI   46// DTLM4 46/// ///13 11069 40266 90824 222// 00017 333 91217;
0110997257999992005010209004+45983-083900FM-18+0189DTLM V02099999999999999999N9999999N1-00661+99999102541ADDMD1710581+9999SA1+0179REMSYN076CMTI   46// DTLM4 46/// ///15 11066 40254 57058 90900 222// 00017 333 91218;
0090997257999992005010210004+45983-083900FM-18+0189DTLM V02099999999999999999N9999999N1-00641+99999102401ADDSA1+0189REMSYN070CMTI   46// DTLM4 46/// ///10 11064 40240 91000 222// 00018 333 91213;
0090997257999992005010211004+45983-083900FM-18+0189DTLM V02099999999999999999N9999999N1-00561+99999102241ADDSA1+0179REMSYN070CMTI   46// DTLM4 46/// ///08 11056 40224 91100 222// 00017 333 91211;
0110997257999992005010212004+45983-083900FM-18+0189DTLM V02099999999999999999N9999999N1-00381+99999102121ADDMD1610421+9999SA1+0179REMSYN076CMTI   46// DTLM4 46/// ///06 11038 40212 56042 91200 222// 00017 333 91209;
0110997257999992005010213004+45983-083900FM-18+0189DTLM V02099999999999999999N9999999N1-00261+99999102011ADDMD1610391+9999SA1+0179REMSYN076CMTI   46// DTLM4 46/// ///06 11026 40201 56039 91300 222// 00017 333 91207;
0110997257999992005010214004+45983-083900FM-18+0189DTLM V02099999999999999999N9999999N1+00061+99999101911ADDMD1610331+9999SA1+0179REMSYN076CMTI   46// DTLM4 46/// ///12 10006 40191 56033 91400 222// 00017 333 91217;
0110997257999992005010215004+45983-083900FM-18+0189DTLM V02099999999999999999N9999999N1+00051+99999101851ADDMD1610271+9999SA1+0179REMSYN076CMTI   46// DTLM4 46/// ///06 10005 40185 56027 91500 222// 00017 333 91211;
0110997257999992005010216004+45983-083900FM-18+0189DTLM V02099999999999999999N9999999N1+00061+99999101871ADDMD1610141+9999SA1+0169REMSYN076CMTI   46// DTLM4 46/// ///03 10006 40187 56014 91600 222// 00016 333 91205;
0110997257999992005010217004+45983-083900FM-18+0189DTLM V02099999999999999999N9999999N1-00111+99999101801ADDMD1810111+9999SA1+0179REMSYN076CMTI   46// DTLM4 46/// ///07 11011 40180 58011 91700 222// 00017 333 91208;
0110997257999992005010218004+45983-083900FM-18+0189DTLM V02099999999999999999N9999999N1-00091+99999101761ADDMD1810091+9999SA1+0169REMSYN076CMTI   46// DTLM4 46/// ///03 11009 40176 58009 91800 222// 00016 333 91205;
0110997257999992005010219004+45983-083900FM-18+0189DTLM V02099999999999999999N9999999N1-00101+99999101831ADDMD1510041+9999SA1+0179REMSYN076CMTI   46// DTLM4 46/// ///06 11010 40183 55004 91900 222// 00017 333 91208;
0090997257999992005010220004+45983-083900FM-18+0189DTLM V02099999999999999999N9999999N1-00101+99999101861ADDSA1+0169REMSYN070CMTI   46// DTLM4 46/// ///02 11010 40186 92006 222// 00016 333 91205;
0090997257999992005010221004+45983-083900FM-18+0189DTLM V02099999999999999999N9999999N1+00051+99999101991ADDSA1+0169REMSYN070CMTI   46// DTLM4 46/// ///05 10005 40199 92124 222// 00016 333 91207;
0078997257999992005010223004+45983-083900FM-18+0189DTLM V02099999999999999999N9999999N1+00021+99999102121REMSYN069CMAN 02234 DTLM4 46/// ///04 10002 40212 92300 222// 00017 333 91210;
0090997257999992005010301004+45983-083900FM-18+0189DTLM V02099999999999999999N9999999N1+00001+99999102261ADDSA1+0169REMSYN070CMTI   46// DTLM4 46/// ///06 10000 40226 90130 222// 00016 333 91209;
0110997257999992005010302004+45983-083900FM-18+0189DTLM V02099999999999999999N9999999N1+00011+99999102311ADDMD1210191+9999SA1+0179REMSYN076CMTI   46// DTLM4 46/// ///06 10001 40231 52019 90200 222// 00017 333 91210;
0090997257999992005010303004+45983-083900FM-18+0189DTLM V02099999999999999999N9999999N1-00031+99999102351ADDSA1+0179REMSYN070CMTI   46// DTLM4 46/// ///06 11003 40235 90300 222// 00017 333 91211;
0090997257999992005010304004+45983-083900FM-18+0189DTLM V02099999999999999999N9999999N1-00031+99999102351ADDSA1+0189REMSYN070CMTI   46// DTLM4 46/// ///04 11003 40235 90400 222// 00018 333 91208;
0110997257999992005010305004+45983-083900FM-18+0189DTLM V02099999999999999999N9999999N1-00101+99999102371ADDMD1110061+9999SA1+0169REMSYN076CMTI   46// DTLM4 46/// ///05 11010 40237 51006 90500 222// 00016 333 91209;
0110997257999992005010306004+45983-083900FM-18+0189DTLM V02099999999999999999N9999999N1-00151+99999102421ADDMD1310071+9999SA1+0179REMSYN076CMTI   46// DTLM4 46/// ///06 11015 40242 53007 90600 222// 00017 333 91209;
0110997257999992005010307004+45983-083900FM-18+0189DTLM V02099999999999999999N9999999N1-00211+99999102491ADDMD1310141+9999SA1+0179REMSYN076CMTI   46// DTLM4 46/// ///05 11021 40249 53014 90700 222// 00017 333 91208;
0110997257999992005010308004+45983-083900FM-18+0189DTLM V02099999999999999999N9999999N1-00291+99999102511ADDMD1110141+9999SA1+0179REMSYN076CMTI   46// DTLM4 46/// ///06 11029 40251 51014 90800 222// 00017 333 91209;
0110997257999992005010309004+45983-083900FM-18+0189DTLM V02099999999999999999N9999999N1-00371+99999102541ADDMD1110121+9999SA1+0169REMSYN076CMTI   46// DTLM4 46/// ///05 11037 40254 51012 90900 222// 00016 333 91209;
0110997257999992005010310004+45983-083900FM-18+0189DTLM V02099999999999999999N9999999N1-00371+99999102541ADDMD1210051+9999SA1+0179REMSYN076CMTI   46// DTLM4 46/// ///06 11037 40254 52005 91000 222// 00017 333 91210;
0110997257999992005010311004+45983-083900FM-18+0189DTLM V02099999999999999999N9999999N1-00331+99999102581ADDMD1310071+9999SA1+0179REMSYN076CMTI   46// DTLM4 46/// ///04 11033 40258 53007 91100 222// 00017 333 91209;
0110997257999992005010312004+45983-083900FM-18+0189DTLM V02099999999999999999N9999999N1-00361+99999102631ADDMD1310091+9999SA1+0189REMSYN076CMTI   46// DTLM4 46/// ///04 11036 40263 53009 91200 222// 00018 333 91207;
0110997257999992005010313004+45983-083900FM-18+0189DTLM V02099999999999999999N9999999N1-00371+99999102611ADDMD1110071+9999SA1+0169REMSYN076CMTI   46// DTLM4 46/// ///05 11037 40261 51007 91300 222// 00016 333 91207;
0110997257999992005010314004+45983-083900FM-18+0189DTLM V02099999999999999999N9999999N1-00371+99999102701ADDMD1310121+9999SA1+0179REMSYN076CMTI   46// DTLM4 46/// ///04 11037 40270 53012 91400 222// 00017 333 91206;
0110997257999992005010315004+45983-083900FM-18+0189DTLM V02099999999999999999N9999999N1-00371+99999102731ADDMD1310101+9999SA1+0179REMSYN076CMTI   46// DTLM4 46/// ///03 11037 40273 53010 91500 222// 00017 333 91206;
0110997257999992005010316004+45983-083900FM-18+0189DTLM V02099999999999999999N9999999N1-00351+99999102741ADDMD1110131+9999SA1+0179REMSYN076CMTI   46// DTLM4 46/// ///03 11035 40274 51013 91600 222// 00017 333 91206;
0110997257999992005010317004+45983-083900FM-18+0189DTLM V02099999999999999999N9999999N1-00351+99999102671ADDMD1810031+9999SA1+0179REMSYN076CMTI   46// DTLM4 46/// ///04 11035 40267 58003 91700 222// 00017 333 91206;
0110997257999992005010318004+45983-083900FM-18+0189DTLM V02099999999999999999N9999999N1-00371+99999102631ADDMD1810101+9999SA1+0179REMSYN076CMTI   46// DTLM4 46/// ///03 11037 40263 58010 91800 222// 00017 333 91206;
0110997257999992005010319004+45983-083900FM-18+0189DTLM V02099999999999999999N9999999N1-00381+99999102541ADDMD1810201+9999SA1+0169REMSYN076CMTI   46// DTLM4 46/// ///05 11038 40254 58020 91900 222// 00016 333 91208;
0110997257999992005010320004+45983-083900FM-18+0189DTLM V02099999999999999999N9999999N1-00381+99999102541ADDMD1610131+9999SA1+0179REMSYN076CMTI   46// DTLM4 46/// ///03 11038 40254 56013 92000 222// 00017 333 91206;
0110997257999992005010321004+45983-083900FM-18+0189DTLM V02099999999999999999N9999999N1-00401+99999102551ADDMD1610081+9999SA1+0169REMSYN076CMTI   46// DTLM4 46/// ///03 11040 40255 56008 92100 222// 00016 333 91206;
0110997257999992005010322004+45983-083900FM-18+0189DTLM V02099999999999999999N9999999N1-00421+99999102561ADDMD1410001+9999SA1+0179REMSYN076CMTI   46// DTLM4 46/// ///03 11042 40256 54000 92200 222// 00017 333 91206;
0110997257999992005010323004+45983-083900FM-18+0189DTLM V02099999999999999999N9999999N1-00461+99999102591ADDMD1310051+9999SA1+0169REMSYN076CMTI   46// DTLM4 46/// ///04 11046 40259 53005 92300 222// 00016 333 91208;
0110997257999992005010400004+45983-083900FM-18+0189DTLM V02099999999999999999N9999999N1-00481+99999102601ADDMD1210051+9999SA1+0179REMSYN076CMTI   46// DTLM4 46/// ///04 11048 40260 52005 90000 222// 00017 333 91207;
0078997257999992005010402004+45983-083900FM-18+0189DTLM V02099999999999999999N9999999N1-00611+99999102661REMSYN069CMAN 04024 DTLM4 46/// ///04 11061 40266 90218 222// 00017 333 91207;
0110997257999992005010403004+45983-083900FM-18+0189DTLM V02099999999999999999N9999999N1-00681+99999102651ADDMD1210051+9999SA1+0179REMSYN076CMTI   46// DTLM4 46/// ///04 11068 40265 52005 90300 222// 00017 333 91206;
0090997257999992005010404004+45983-083900FM-18+0189DTLM V02099999999999999999N9999999N1-00731+99999102701ADDSA1+0179REMSYN070CMTI   46// DTLM4 46/// ///05 11073 40270 90400 222// 00017 333 91207;
0090997257999992005010405004+45983-083900FM-18+0189DTLM V02099999999999999999N9999999N1-00801+99999102711ADDSA1+0179REMSYN070CMTI   46// DTLM4 46/// ///05 11080 40271 90500 222// 00017 333 91207;
0110997257999992005010406004+45983-083900FM-18+0189DTLM V02099999999999999999N9999999N1-00831+99999102651ADDMD1010001+9999SA1+0159REMSYN076CMTI   46// DTLM4 46/// ///05 11083 40265 50000 90600 222// 00015 333 91207;
0110997257999992005010407004+45983-083900FM-18+0189DTLM V02099999999999999999N9999999N1-00761+99999102621ADDMD1810081+9999SA1+0179REMSYN076CMTI   46// DTLM4 46/// ///04 11076 40262 58008 90700 222// 00017 333 91207;
0110997257999992005010408004+45983-083900FM-18+0189DTLM V02099999999999999999N9999999N1-00701+99999102671ADDMD1510041+9999SA1+0169REMSYN076CMTI   46// DTLM4 46/// ///03 11070 40267 55004 90800 222// 00016 333 91205;
0110997257999992005010409004+45983-083900FM-18+0189DTLM V02099999999999999999N9999999N1-00681+99999102681ADDMD1310031+9999SA1+0169REMSYN076CMTI   46// DTLM4 46/// ///04 11068 40268 53003 90900 222// 00016 333 91205;
0110997257999992005010410004+45983-083900FM-18+0189DTLM V02099999999999999999N9999999N1-00651+99999102701ADDMD1110081+9999SA1+0179REMSYN076CMTI   46// DTLM4 46/// ///04 11065 40270 51008 91000 222// 00017 333 91207;
0110997257999992005010411004+45983-083900FM-18+0189DTLM V02099999999999999999N9999999N1-00621+99999102691ADDMD1410001+9999SA1+0169REMSYN076CMTI   46// DTLM4 46/// ///01 11062 40269 54000 91100 222// 00016 333 91205;
0110997257999992005010412004+45983-083900FM-18+0189DTLM V02099999999999999999N9999999N1-00621+99999102731ADDMD1310051+9999SA1+0169REMSYN076CMTI   46// DTLM4 46/// ///04 11062 40273 53005 91200 222// 00016 333 91207;
0110997257999992005010413004+45983-083900FM-18+0189DTLM V02099999999999999999N9999999N1-00621+99999102751ADDMD1210051+9999SA1+0189REMSYN076CMTI   46// DTLM4 46/// ///05 11062 40275 52005 91300 222// 00018 333 91208;
0110997257999992005010414004+45983-083900FM-18+0189DTLM V02099999999999999999N9999999N1-00611+99999102771ADDMD1110081+9999SA1+0179REMSYN076CMTI   46// DTLM4 46/// ///05 11061 40277 51008 91400 222// 00017 333 91208;
0110997257999992005010415004+45983-083900FM-18+0189DTLM V02099999999999999999N9999999N1-00561+99999102761ADDMD1210031+9999SA1+0179REMSYN076CMTI   46// DTLM4 46/// ///05 11056 40276 52003 91500 222// 00017 333 91208;
0110997257999992005010416004+45983-083900FM-18+0189DTLM V02099999999999999999N9999999N1-00491+99999102751ADDMD1410001+9999SA1+0169REMSYN076CMTI   46// DTLM4 46/// ///07 11049 40275 54000 91600 222// 00016 333 91210;
0110997257999992005010417004+45983-083900FM-18+0189DTLM V02099999999999999999N9999999N1-00431+99999102691ADDMD1810081+9999SA1+0169REMSYN076CMTI   46// DTLM4 46/// ///08 11043 40269 58008 91700 222// 00016 333 91212;
0110997257999992005010418004+45983-083900FM-18+0189DTLM V02099999999999999999N9999999N1-00361+99999102611ADDMD1810151+9999SA1+0169REMSYN076CMTI   46// DTLM4 46/// ///06 11036 40261 58015 91800 222// 00016 333 91212;
0110997257999992005010419004+45983-083900FM-18+0189DTLM V02099999999999999999N9999999N1-00281+99999102551ADDMD1710201+9999SA1+0169REMSYN076CMTI   46// DTLM4 46/// ///07 11028 40255 57020 91900 222// 00016 333 91212;
0110997257999992005010420004+45983-083900FM-18+0189DTLM V02099999999999999999N9999999N1-00311+99999102551ADDMD1610141+9999SA1+0169REMSYN076CMTI   46// DTLM4 46/// ///09 11031 40255 56014 92000 222// 00016 333 91213;
0110997257999992005010421004+45983-083900FM-18+0189DTLM V02099999999999999999N9999999N1-00311+99999102571ADDMD1610041+9999SA1+0179REMSYN076CMTI   46// DTLM4 46/// ///05 11031 40257 56004 92100 222// 00017 333 91209;
0110997257999992005010422004+45983-083900FM-18+0189DTLM V02099999999999999999N9999999N1-00361+99999102621ADDMD1310071+9999SA1+0179REMSYN076CMTI   46// DTLM4 46/// ///07 11036 40262 53007 92200 222// 00017 333 91210;
0110997257999992005010423004+45983-083900FM-18+0189DTLM V02099999999999999999N9999999N1-00411+99999102631ADDMD1210081+9999SA1+0169REMSYN076CMTI   46// DTLM4 46/// ///07 11041 40263 52008 92300 222// 00016 333 91212;
0110997257999992005010500004+45983-083900FM-18+0189DTLM V02099999999999999999N9999999N1-00441+99999102701ADDMD1310131+9999SA1+0179REMSYN076CMTI   46// DTLM4 46/// ///08 11044 40270 53013 90000 222// 00017 333 91213;
0110997257999992005010501004+45983-083900FM-18+0189DTLM V02099999999999999999N9999999N1-00531+99999102771ADDMD1310151+9999SA1+0189REMSYN076CMTI   46// DTLM4 46/// ///14 11053 40277 53015 90100 222// 00018 333 91219;
0110997257999992005010502004+45983-083900FM-18+0189DTLM V02099999999999999999N9999999N1-00621+99999102811ADDMD1110181+9999SA1+0179REMSYN076CMTI   46// DTLM4 46/// ///08 11062 40281 51018 90200 222// 00017 333 91212;
0090997257999992005010503004+45983-083900FM-18+0189DTLM V02099999999999999999N9999999N1-00671+99999102841ADDSA1+0189REMSYN070CMTI   46// DTLM4 46/// ///12 11067 40284 90306 222// 00018 333 91218;
0090997257999992005010504004+45983-083900FM-18+0189DTLM V02099999999999999999N9999999N1-00801+99999102891ADDSA1+0189REMSYN070CMTI   46// DTLM4 46/// ///09 11080 40289 90424 222// 00018 333 91214;
0101997257999992005010505004+45983-083900FM-18+0189DTLM V02099999999999999999N9999999N1-00831+99999102891ADDMD1210081+9999REMSYN075CMAN 05054 DTLM4 46/// ///13 11083 40289 52008 90500 222// 00018 333 91216;
0090997257999992005010507004+45983-083900FM-18+0189DTLM V02099999999999999999N9999999N1-01081+99999102971ADDSA1+0189REMSYN070CMTI   46// DTLM4 46/// ///13 11108 40297 90718 222// 00018 333 91215;
0110997257999992005010508004+45983-083900FM-18+0189DTLM V02099999999999999999N9999999N1-01181+99999103061ADDMD1210171+9999SA1+0179REMSYN076CMTI   46// DTLM4 46/// ///11 11118 40306 52017 90800 222// 00017 333 91214;
0090997257999992005010509004+45983-083900FM-18+0189DTLM V02099999999999999999N9999999N1-01271+99999103091ADDSA1+0189REMSYN070CMTI   46// DTLM4 46/// ///11 11127 40309 90900 222// 00018 333 91213;
0080997257999992005010510004+45983-083900FM-18+0189DTLM V02099999999999999999N9999999N1-01331+99999103161ADDSA1+0179REMSYN060CMTI   46// DTLM4 46/// ///// 11133 40316 91000 222// 00017;
0110997257999992005010511004+45983-083900FM-18+0189DTLM V02099999999999999999N9999999N1-01411+99999103131ADDMD1010071+9999SA1+0189REMSYN076CMTI   46// DTLM4 46/// ///13 11141 40313 50007 91100 222// 00018 333 91215;
0110997257999992005010512004+45983-083900FM-18+0189DTLM V02099999999999999999N9999999N1-01491+99999103151ADDMD1110061+9999SA1+0189REMSYN076CMTI   46// DTLM4 46/// ///13 11149 40315 51006 91200 222// 00018 333 91215;
0110997257999992005010513004+45983-083900FM-18+0189DTLM V02099999999999999999N9999999N1-01561+99999103201ADDMD1310041+9999SA1+0189REMSYN076CMTI   46// DTLM4 46/// ///11 11156 40320 53004 91300 222// 00018 333 91213;
0110997257999992005010514004+45983-083900FM-18+0189DTLM V02099999999999999999N9999999N1-01621+99999103091ADDMD1810041+9999SA1+0179REMSYN076CMTI   46// DTLM4 46/// ///12 11162 40309 58004 91400 222// 00017 333 91214;
0110997257999992005010515004+45983-083900FM-18+0189DTLM V02099999999999999999N9999999N1-01631+99999103201ADDMD1310051+9999SA1+0179REMSYN076CMTI   46// DTLM4 46/// ///10 11163 40320 53005 91500 222// 00017 333 91212;
0110997257999992005010516004+45983-083900FM-18+0189DTLM V02099999999999999999N9999999N1-01631+99999103171ADDMD1610031+9999SA1+0179REMSYN076CMTI   46// DTLM4 46/// ///08 11163 40317 56003 91600 222// 00017 333 91212;
0110997257999992005010517004+45983-083900FM-18+0189DTLM V02099999999999999999N9999999N1-01611+99999103171ADDMD1110081+9999SA1+0189REMSYN076CMTI   46// DTLM4 46/// ///07 11161 40317 51008 91700 222// 00018 333 91209;
0110997257999992005010518004+45983-083900FM-18+0189DTLM V02099999999999999999N9999999N1-01531+99999103021ADDMD1810181+9999SA1+0189REMSYN076CMTI   46// DTLM4 46/// ///06 11153 40302 58018 91800 222// 00018 333 91208;
0110997257999992005010519004+45983-083900FM-18+0189DTLM V02099999999999999999N9999999N1-01411+99999102991ADDMD1810181+9999SA1+0179REMSYN076CMTI   46// DTLM4 46/// ///06 11141 40299 58018 91900 222// 00017 333 91208;
0110997257999992005010520004+45983-083900FM-18+0189DTLM V02099999999999999999N9999999N1-01351+99999102801ADDMD1810371+9999SA1+0189REMSYN076CMTI   46// DTLM4 46/// ///05 11135 40280 58037 92000 222// 00018 333 91207;
0110997257999992005010521004+45983-083900FM-18+0189DTLM V02099999999999999999N9999999N1-01281+99999102831ADDMD1510191+9999SA1+0179REMSYN076CMTI   46// DTLM4 46/// ///03 11128 40283 55019 92100 222// 00017 333 91205;
0110997257999992005010522004+45983-083900FM-18+0189DTLM V02099999999999999999N9999999N1-01231+99999102731ADDMD1610261+9999SA1+0179REMSYN076CMTI   46// DTLM4 46/// ///04 11123 40273 56026 92200 222// 00017 333 91206;
0110997257999992005010523004+45983-083900FM-18+0189DTLM V02099999999999999999N9999999N1-01201+99999102651ADDMD1810151+9999SA1+0189REMSYN076CMTI   46// DTLM4 46/// ///06 11120 40265 58015 92300 222// 00018 333 91207;
0101997257999992005010600004+45983-083900FM-18+0189DTLM V02099999999999999999N9999999N1-01161+99999102621ADDMD1610211+9999REMSYN075CMAN 06004 DTLM4 46/// ///07 11116 40262 56021 90000 222// 00018 333 91209;
0101997257999992005010601004+45983-083900FM-18+0189DTLM V02099999999999999999N9999999N1-01141+99999102551ADDMD1610181+9999REMSYN075CMAN 06014 DTLM4 46/// ///06 11114 40255 56018 90100 222// 00017 333 91209;
0090997257999992005010603004+45983-083900FM-18+0189DTLM V02099999999999999999N9999999N1-01081+99999102371ADDSA1+0169REMSYN070CMTI   46// DTLM4 46/// ///04 11108 40237 90324 222// 00016 333 91206;
0110997257999992005010604004+45983-083900FM-18+0189DTLM V02099999999999999999N9999999N1-01061+99999102331ADDMD1710221+9999SA1+0169REMSYN076CMTI   46// DTLM4 46/// ///05 11106 40233 57022 90400 222// 00016 333 91207;
0090997257999992005010605004+45983-083900FM-18+0189DTLM V02099999999999999999N9999999N1-01111+99999102111ADDSA1+0179REMSYN070CMTI   46// DTLM4 46/// ///08 11111 40211 90500 222// 00017 333 91210;
0090997257999992005010606004+45983-083900FM-18+0189DTLM V02099999999999999999N9999999N1-01021+99999102001ADDSA1+0169REMSYN070CMTI   46// DTLM4 46/// ///05 11102 40200 90600 222// 00016 333 91208;
0110997257999992005010607004+45983-083900FM-18+0189DTLM V02099999999999999999N9999999N1-01011+99999101981ADDMD1610351+9999SA1+0159REMSYN076CMTI   46// DTLM4 46/// ///07 11101 40198 56035 90700 222// 00015 333 91209;
0110997257999992005010608004+45983-083900FM-18+0189DTLM V02099999999999999999N9999999N1-01001+99999101881ADDMD1610231+9999SA1+0169REMSYN076CMTI   46// DTLM4 46/// ///08 11100 40188 56023 90800 222// 00016 333 91209;
0110997257999992005010609004+45983-083900FM-18+0189DTLM V02099999999999999999N9999999N1-01021+99999101751ADDMD1810251+9999SA1+0169REMSYN076CMTI   46// DTLM4 46/// ///07 11102 40175 58025 90900 222// 00016 333 91209;
0110997257999992005010610004+45983-083900FM-18+0189DTLM V02099999999999999999N9999999N1-01011+99999101631ADDMD1810351+9999SA1+0169REMSYN076CMTI   46// DTLM4 46/// ///09 11101 40163 58035 91000 222// 00016 333 91210;
0110997257999992005010611004+45983-083900FM-18+0189DTLM V02099999999999999999N9999999N1-01141+99999101461ADDMD1810421+9999SA1+0169REMSYN076CMTI   46// DTLM4 46/// ///13 11114 40146 58042 91100 222// 00016 333 91216;
0110997257999992005010612004+45983-083900FM-18+0189DTLM V02099999999999999999N9999999N1-01081+99999101441ADDMD1610311+9999SA1+0179REMSYN076CMTI   46// DTLM4 46/// ///13 11108 40144 56031 91200 222// 00017 333 91216;
0110997257999992005010613004+45983-083900FM-18+0189DTLM V02099999999999999999N9999999N1-01121+99999101401ADDMD1610231+9999SA1+0179REMSYN076CMTI   46// DTLM4 46/// ///15 11112 40140 56023 91300 222// 00017 333 91217;
0110997257999992005010614004+45983-083900FM-18+0189DTLM V02099999999999999999N9999999N1-01251+99999101351ADDMD1810111+9999SA1+0169REMSYN076CMTI   46// DTLM4 46/// ///14 11125 40135 58011 91400 222// 00016 333 91215;
0110997257999992005010615004+45983-083900FM-18+0189DTLM V02099999999999999999N9999999N1-01201+99999101311ADDMD1710131+9999SA1+0179REMSYN076CMTI   46// DTLM4 46/// ///13 11120 40131 57013 91500 222// 00017 333 91214;
0090997257999992005010616004+45983-083900FM-18+0189DTLM V02099999999999999999N9999999N1-01181+99999101171ADDSA1+0179REMSYN070CMTI   46// DTLM4 46/// ///10 11118 40117 91606 222// 00017 333 91213;
0110997257999992005010617004+45983-083900FM-18+0189DTLM V02099999999999999999N9999999N1-01201+99999101011ADDMD1810341+9999SA1+0179REMSYN076CMTI   46// DTLM4 46/// ///10 11120 40101 58034 91700 222// 00017 333 91212;
0110997257999992005010618004+45983-083900FM-18+0189DTLM V02099999999999999999N9999999N1-01161+99999100881ADDMD1810431+9999SA1+0169REMSYN076CMTI   46// DTLM4 46/// ///08 11116 40088 58043 91800 222// 00016 333 91210;
0090997257999992005010619004+45983-083900FM-18+0189DTLM V02099999999999999999N9999999N1-01111+99999100741ADDSA1+0169REMSYN070CMTI   46// DTLM4 46/// ///07 11111 40074 91906 222// 00016 333 91209;
0110997257999992005010620004+45983-083900FM-18+0189DTLM V02099999999999999999N9999999N1-01011+99999100751ADDMD1710261+9999SA1+0169REMSYN076CMTI   46// DTLM4 46/// ///04 11101 40075 57026 92000 222// 00016 333 91208;
0090997257999992005010621004+45983-083900FM-18+0189DTLM V02099999999999999999N9999999N1-01001+99999100841ADDSA1+0159REMSYN070CMTI   46// DTLM4 46/// ///03 11100 40084 92100 222// 00015 333 91205;
0090997257999992005010622004+45983-083900FM-18+0189DTLM V02099999999999999999N9999999N1-00941+99999100881ADDSA1+0159REMSYN070CMTI   46// DTLM4 46/// ///03 11094 40088 92200 222// 00015 333 91204;
0110997257999992005010623004+45983-083900FM-18+0189DTLM V02099999999999999999N9999999N1-00961+99999100931ADDMD1110181+9999SA1+0159REMSYN076CMTI   46// DTLM4 46/// ///05 11096 40093 51018 92300 222// 00015 333 91207;
0110997257999992005010700004+45983-083900FM-18+0189DTLM V02099999999999999999N9999999N1-00911+99999101001ADDMD1310161+9999SA1+0159REMSYN076CMTI   46// DTLM4 46/// ///05 11091 40100 53016 90000 222// 00015 333 91208;
0110997257999992005010701004+45983-083900FM-18+0189DTLM V02099999999999999999N9999999N1-00811+99999101051ADDMD1210171+9999SA1+0159REMSYN076CMTI   46// DTLM4 46/// ///05 11081 40105 52017 90100 222// 00015 333 91209;
0110997257999992005010702004+45983-083900FM-18+0189DTLM V02099999999999999999N9999999N1-00771+99999101131ADDMD1310201+9999SA1+0159REMSYN076CMTI   46// DTLM4 46/// ///03 11077 40113 53020 90200 222// 00015 333 91206;
0110997257999992005010703004+45983-083900FM-18+0189DTLM V02099999999999999999N9999999N1-00721+99999101191ADDMD1310191+9999SA1+0169REMSYN076CMTI   46// DTLM4 46/// ///05 11072 40119 53019 90300 222// 00016 333 91210;
0110997257999992005010704004+45983-083900FM-18+0189DTLM V02099999999999999999N9999999N1-00661+99999101241ADDMD1110191+9999SA1+0159REMSYN076CMTI   46// DTLM4 46/// ///06 11066 40124 51019 90400 222// 00015 333 91211;
0110997257999992005010705004+45983-083900FM-18+0189DTLM V02099999999999999999N9999999N1-00731+99999101331ADDMD1310201+9999SA1+0169REMSYN076CMTI   46// DTLM4 46/// ///06 11073 40133 53020 90500 222// 00016 333 91211;
0110997257999992005010706004+45983-083900FM-18+0189DTLM V02099999999999999999N9999999N1-00781+99999101401ADDMD1310211+9999SA1+0169REMSYN076CMTI   46// DTLM4 46/// ///05 11078 40140 53021 90600 222// 00016 333 91208;
0110997257999992005010707004+45983-083900FM-18+0189DTLM V02099999999999999999N9999999N1-00741+99999101441ADDMD1110201+9999SA1+0159REMSYN076CMTI   46// DTLM4 46/// ///07 11074 40144 51020 90700 222// 00015 333 91211;
0110997257999992005010708004+45983-083900FM-18+0189DTLM V02099999999999999999N9999999N1-00791+99999101521ADDMD1310191+9999SA1+0159REMSYN076CMTI   46// DTLM4 46/// ///02 11079 40152 53019 90800 222// 00015 333 91202;
0110997257999992005010709004+45983-083900FM-18+0189DTLM V02099999999999999999N9999999N1-00751+99999101581ADDMD1310181+9999SA1+0149REMSYN076CMTI   46// DTLM4 46/// ///02 11075 40158 53018 90900 222// 00014 333 91204;
0110997257999992005010710004+45983-083900FM-18+0189DTLM V02099999999999999999N9999999N1-00661+99999101631ADDMD1110191+9999SA1+0189REMSYN076CMTI   46// DTLM4 46/// ///00 11066 40163 51019 91000 222// 00018 333 91202;
0110997257999992005010711004+45983-083900FM-18+0189DTLM V02099999999999999999N9999999N1-00531+99999101651ADDMD1110131+9999SA1+0159REMSYN076CMTI   46// DTLM4 46/// ///01 11053 40165 51013 91100 222// 00015 333 91202;
0110997257999992005010712004+45983-083900FM-18+0189DTLM V02099999999999999999N9999999N1-00331+99999101721ADDMD1310141+9999SA1+0169REMSYN076CMTI   46// DTLM4 46/// ///06 11033 40172 53014 91200 222// 00016 333 91212;
0110997257999992005010713004+45983-083900FM-18+0189DTLM V02099999999999999999N9999999N1-00331+99999101781ADDMD1310151+9999SA1+0169REMSYN076CMTI   46// DTLM4 46/// ///06 11033 40178 53015 91300 222// 00016 333 91212;
0110997257999992005010714004+45983-083900FM-18+0189DTLM V02099999999999999999N9999999N1-00321+99999101841ADDMD1110191+9999SA1+0169REMSYN076CMTI   46// DTLM4 46/// ///05 11032 40184 51019 91400 222// 00016 333 91213;
0110997257999992005010715004+45983-083900FM-18+0189DTLM V02099999999999999999N9999999N1-00251+99999101871ADDMD1110151+9999SA1+0159REMSYN076CMTI   46// DTLM4 46/// ///06 11025 40187 51015 91500 222// 00015 333 91212;
0110997257999992005010716004+45983-083900FM-18+0189DTLM V02099999999999999999N9999999N1-00261+99999101971ADDMD1310191+9999SA1+0169REMSYN076CMTI   46// DTLM4 46/// ///07 11026 40197 53019 91600 222// 00016 333 91215;
0110997257999992005010717004+45983-083900FM-18+0189DTLM V02099999999999999999N9999999N1-00241+99999101971ADDMD1110131+9999SA1+0169REMSYN076CMTI   46// DTLM4 46/// ///07 11024 40197 51013 91700 222// 00016 333 91215;
0110997257999992005010718004+45983-083900FM-18+0189DTLM V02099999999999999999N9999999N1-00231+99999101931ADDMD1010061+9999SA1+0169REMSYN076CMTI   46// DTLM4 46/// ///09 11023 40193 50006 91800 222// 00016 333 91215;
0110997257999992005010719004+45983-083900FM-18+0189DTLM V02099999999999999999N9999999N1-00221+99999101891ADDMD1810081+9999SA1+0169REMSYN076CMTI   46// DTLM4 46/// ///09 11022 40189 58008 91900 222// 00016 333 91214;
0110997257999992005010720004+45983-083900FM-18+0189DTLM V02099999999999999999N9999999N1-00231+99999101871ADDMD1610101+9999SA1+0169REMSYN076CMTI   46// DTLM4 46/// ///11 11023 40187 56010 92000 222// 00016 333 91217;
0110997257999992005010721004+45983-083900FM-18+0189DTLM V02099999999999999999N9999999N1-00231+99999101851ADDMD1610081+9999SA1+0159REMSYN076CMTI   46// DTLM4 46/// ///10 11023 40185 56008 92100 222// 00015 333 91217;
0110997257999992005010722004+45983-083900FM-18+0189DTLM V02099999999999999999N9999999N1-00221+99999101871ADDMD1410001+9999SA1+0159REMSYN076CMTI   46// DTLM4 46/// ///08 11022 40187 54000 92200 222// 00015 333 91213;
0110997257999992005010723004+45983-083900FM-18+0189DTLM V02099999999999999999N9999999N1-00221+99999101931ADDMD1310061+9999SA1+0159REMSYN076CMTI   46// DTLM4 46/// ///09 11022 40193 53006 92300 222// 00015 333 91217;
0090997257999992005010820004+45983-083900FM-18+0189DTLM V02099999999999999999N9999999N1-00291+99999102531ADDSA1+0159REMSYN070CMTI   46// DTLM4 46/// ///02 11029 40253 92018 222// 00015 333 91204;
0090997257999992005010821004+45983-083900FM-18+0189DTLM V02099999999999999999N9999999N1-00301+99999102581ADDSA1+0149REMSYN070CMTI   46// DTLM4 46/// ///02 11030 40258 92100 222// 00014 333 91203;
0090997257999992005010822004+45983-083900FM-18+0189DTLM V02099999999999999999N9999999N1-00311+99999102611ADDSA1+0149REMSYN070CMTI   46// DTLM4 46/// ///01 11031 40261 92136 222// 00014 333 91202;
0110997257999992005010823004+45983-083900FM-18+0189DTLM V02099999999999999999N9999999N1-00281+99999102751ADDMD1210241+9999SA1+0159REMSYN076CMTI   46// DTLM4 46/// ///00 11028 40275 52024 92300 222// 00015 333 91201;
0090997257999992005010900004+45980-083900FM-18+0189DTLM V02099999999999999999N9999999N1-00271+99999102741ADDSA1+0149REMSYN070CMTI   46// DTLM4 46/// ///02 11027 40274 90000 222// 00014 333 91203;
0110997257999992005010901004+45980-083900FM-18+0189DTLM V02099999999999999999N9999999N1-00271+99999102701ADDMD1010051+9999SA1+0149REMSYN076CMTI   46// DTLM4 46/// ///04 11027 40270 50005 90100 222// 00014 333 91205;
0110997257999992005010902004+45980-083900FM-18+0189DTLM V02099999999999999999N9999999N1-00321+99999102711ADDMD1710041+9999SA1+0159REMSYN076CMTI   46// DTLM4 46/// ///06 11032 40271 57004 90200 222// 00015 333 91207;
0110997257999992005010903004+45980-083900FM-18+0189DTLM V02099999999999999999N9999999N1-00301+99999102651ADDMD1810091+9999SA1+0159REMSYN076CMTI   46// DTLM4 46/// ///05 11030 40265 58009 90300 222// 00015 333 91206;
0110997257999992005010904004+45980-083900FM-18+0189DTLM V02099999999999999999N9999999N1-00261+99999102641ADDMD1710061+9999SA1+0159REMSYN076CMTI   46// DTLM4 46/// ///04 11026 40264 57006 90400 222// 00015 333 91205;
0110997257999992005010905004+45980-083900FM-18+0189DTLM V02099999999999999999N9999999N1-00221+99999102661ADDMD1610051+9999SA1+0169REMSYN076CMTI   46// DTLM4 46/// ///04 11022 40266 56005 90500 222// 00016 333 91208;
0110997257999992005010906004+45980-083900FM-18+0189DTLM V02099999999999999999N9999999N1-00271+99999102661ADDMD1410001+9999SA1+0159REMSYN076CMTI   46// DTLM4 46/// ///05 11027 40266 54000 90600 222// 00015 333 91208;
0110997257999992005010907004+45980-083900FM-18+0189DTLM V02099999999999999999N9999999N1-00291+99999102611ADDMD1810031+9999SA1+0159REMSYN076CMTI   46// DTLM4 46/// ///04 11029 40261 58003 90700 222// 00015 333 91207;
0110997257999992005010908004+45980-083900FM-18+0189DTLM V02099999999999999999N9999999N1-00271+99999102541ADDMD1810121+9999SA1+0169REMSYN076CMTI   46// DTLM4 46/// ///05 11027 40254 58012 90800 222// 00016 333 91208;
0110997257999992005010909004+45980-083900FM-18+0189DTLM V02099999999999999999N9999999N1-00261+99999102471ADDMD1810191+9999SA1+0159REMSYN076CMTI   46// DTLM4 46/// ///11 11026 40247 58019 90900 222// 00015 333 91214;
0110997257999992005010910004+45980-083900FM-18+0189DTLM V02099999999999999999N9999999N1-00261+99999102391ADDMD1810221+9999SA1+0159REMSYN076CMTI   46// DTLM4 46/// ///11 11026 40239 58022 91000 222// 00015 333 91214;
0110997257999992005010911004+45980-083900FM-18+0189DTLM V02099999999999999999N9999999N1-00231+99999102421ADDMD1510121+9999SA1+0169REMSYN076CMTI   46// DTLM4 46/// ///11 11023 40242 55012 91100 222// 00016 333 91214;
0110997257999992005010912004+45980-083900FM-18+0189DTLM V02099999999999999999N9999999N1-00211+99999102381ADDMD1610091+9999SA1+0169REMSYN076CMTI   46// DTLM4 46/// ///07 11021 40238 56009 91200 222// 00016 333 91213;
0110997257999992005010913004+45980-083900FM-18+0189DTLM V02099999999999999999N9999999N1-00201+99999102301ADDMD1810091+9999SA1+0159REMSYN076CMTI   46// DTLM4 46/// ///09 11020 40230 58009 91300 222// 00015 333 91213;
0110997257999992005010914004+45980-083900FM-18+0189DTLM V02099999999999999999N9999999N1-00171+99999102271ADDMD1610151+9999SA1+0159REMSYN076CMTI   46// DTLM4 46/// ///09 11017 40227 56015 91400 222// 00015 333 91217;
0110997257999992005010915004+45980-083900FM-18+0189DTLM V02099999999999999999N9999999N1-00161+99999102221ADDMD1610161+9999SA1+0159REMSYN076CMTI   46// DTLM4 46/// ///09 11016 40222 56016 91500 222// 00015 333 91215;
0110997257999992005010916004+45980-083900FM-18+0189DTLM V02099999999999999999N9999999N1-00141+99999102171ADDMD1810131+9999SA1+0159REMSYN076CMTI   46// DTLM4 46/// ///12 11014 40217 58013 91600 222// 00015 333 91216;
0110997257999992005010917004+45980-083900FM-18+0189DTLM V02099999999999999999N9999999N1-00131+99999102051ADDMD1810221+9999SA1+0169REMSYN076CMTI   46// DTLM4 46/// ///12 11013 40205 58022 91700 222// 00016 333 91216;
0110997257999992005010918004+45980-083900FM-18+0189DTLM V02099999999999999999N9999999N1-00081+99999101911ADDMD1810311+9999SA1+0169REMSYN076CMTI   46// DTLM4 46/// ///11 11008 40191 58031 91800 222// 00016 333 91218;
0110997257999992005010919004+45980-083900FM-18+0189DTLM V02099999999999999999N9999999N1-00091+99999101891ADDMD1610281+9999SA1+0169REMSYN076CMTI   46// DTLM4 46/// ///12 11009 40189 56028 91900 222// 00016 333 91215;
0110997257999992005010920004+45980-083900FM-18+0189DTLM V02099999999999999999N9999999N1-00111+99999101781ADDMD1610271+9999SA1+0159REMSYN076CMTI   46// DTLM4 46/// ///13 11011 40178 56027 92000 222// 00015 333 91216;
0110997257999992005010921004+45980-083900FM-18+0189DTLM V02099999999999999999N9999999N1-00101+99999101601ADDMD1810311+9999SA1+0169REMSYN076CMTI   46// DTLM4 46/// ///13 11010 40160 58031 92100 222// 00016 333 91217;
0110997257999992005010922004+45980-083900FM-18+0189DTLM V02099999999999999999N9999999N1-00091+99999101501ADDMD1610391+9999SA1+0169REMSYN076CMTI   46// DTLM4 46/// ///16 11009 40150 56039 92200 222// 00016 333 91220;
0110997257999992005010923004+45980-083900FM-18+0189DTLM V02099999999999999999N9999999N1-00101+99999101471ADDMD1610311+9999SA1+0169REMSYN076CMTI   46// DTLM4 46/// ///13 11010 40147 56031 92300 222// 00016 333 91219;
0110997257999992005011000004+45983-083900FM-18+0189DTLM V02099999999999999999N9999999N1-00131+99999101341ADDMD1810261+9999SA1+0169REMSYN076CMTI   46// DTLM4 46/// ///14 11013 40134 58026 90000 222// 00016 333 91219;
0110997257999992005011001004+45983-083900FM-18+0189DTLM V02099999999999999999N9999999N1-00151+99999101281ADDMD1810221+9999SA1+0169REMSYN076CMTI   46// DTLM4 46/// ///12 11015 40128 58022 90100 222// 00016 333 91219;
0110997257999992005011002004+45983-083900FM-18+0189DTLM V02099999999999999999N9999999N1-00151+99999101131ADDMD1810341+9999SA1+0169REMSYN076CMTI   46// DTLM4 46/// ///16 11015 40113 58034 90200 222// 00016 333 91220;
0110997257999992005011003004+45983-083900FM-18+0189DTLM V02099999999999999999N9999999N1-00151+99999101011ADDMD1810331+9999SA1+0159REMSYN076CMTI   46// DTLM4 46/// ///12 11015 40101 58033 90300 222// 00015 333 91219;
0110997257999992005011004004+45983-083900FM-18+0189DTLM V02099999999999999999N9999999N1-00151+99999100941ADDMD1610341+9999SA1+0169REMSYN076CMTI   46// DTLM4 46/// ///11 11015 40094 56034 90400 222// 00016 333 91219;
0088997257999992005011005004+45983-083900FM-18+0189DTLM V02099999999999999999N9999999N1-00281+99999101021REMSYN079CMAN  10054 DTLM4 46/// ///10 11028 40102 90518 222// 00011204 555 11003 22003;
0110997257999992005011006004+45983-083900FM-18+0189DTLM V02099999999999999999N9999999N1-00391+99999101071ADDMD1210061+9999SA1+0169REMSYN076CMTI   46// DTLM4 46/// ///08 11039 40107 52006 90600 222// 00016 333 91217;
0110997257999992005011007004+45983-083900FM-18+0189DTLM V02099999999999999999N9999999N1-00471+99999101081ADDMD1210141+9999SA1+0169REMSYN076CMTI   46// DTLM4 46/// ///10 11047 40108 52014 90700 222// 00016 333 91215;
0090997257999992005011008004+45983-083900FM-18+0189DTLM V02099999999999999999N9999999N1-00421+99999101131ADDSA1+0179REMSYN070CMTI   46// DTLM4 46/// ///11 11042 40113 90800 222// 00017 333 91217;
0110997257999992005011009004+45983-083900FM-18+0189DTLM V02099999999999999999N9999999N1-00401+99999101181ADDMD1310111+9999SA1+0169REMSYN076CMTI   46// DTLM4 46/// ///10 11040 40118 53011 90900 222// 00016 333 91217;
0110997257999992005011010004+45983-083900FM-18+0189DTLM V02099999999999999999N9999999N1-00361+99999101291ADDMD1310211+9999SA1+0169REMSYN076CMTI   46// DTLM4 46/// ///10 11036 40129 53021 91000 222// 00016 333 91218;
0110997257999992005011011004+45983-083900FM-18+0189DTLM V02099999999999999999N9999999N1-00371+99999101401ADDMD1310271+9999SA1+0169REMSYN076CMTI   46// DTLM4 46/// ///10 11037 40140 53027 91100 222// 00016 333 91216;
0110997257999992005011012004+45983-083900FM-18+0189DTLM V02099999999999999999N9999999N1-00381+99999101481ADDMD1110301+9999SA1+0169REMSYN076CMTI   46// DTLM4 46/// ///08 11038 40148 51030 91200 222// 00016 333 91217;
0110997257999992005011013004+45983-083900FM-18+0189DTLM V02099999999999999999N9999999N1-00381+99999101601ADDMD1310311+9999SA1+0179REMSYN076CMTI   46// DTLM4 46/// ///10 11038 40160 53031 91300 222// 00017 333 91217;
0072997257999992005011014004+45983-083900FM-18+0189DTLM V02099999999999999999N9999999N1-00421+99999999999REMSYN063CMAN 10144 DTLM4 46/// ///09 11042 91424 222// 00016 333 91213;
0084997257999992005011015004+45983-083900FM-18+0189DTLM V02099999999999999999N9999999N1-00401+99999999999ADDSA1+0169REMSYN064CMTI   46// DTLM4 46/// ///11 11040 91500 222// 00016 333 91220;
0084997257999992005011016004+45983-083900FM-18+0189DTLM V02099999999999999999N9999999N1-00371+99999999999ADDSA1+0169REMSYN064CMTI   46// DTLM4 46/// ///12 11037 91600 222// 00016 333 91221;
0090997257999992005011017004+45983-083900FM-18+0189DTLM V02099999999999999999N9999999N1-00441+99999101951ADDSA1+0169REMSYN070CMTI   46// DTLM4 46/// ///14 11044 40195 91700 222// 00016 333 91220;
0110997257999992005011018004+45983-083900FM-18+0189DTLM V02099999999999999999N9999999N1-00431+99999102001ADDMD1110211+9999SA1+0169REMSYN076CMTI   46// DTLM4 46/// ///10 11043 40200 51021 91800 222// 00016 333 91216;
0072997257999992005011019004+45983-083900FM-18+0189DTLM V02099999999999999999N9999999N1-00511+99999999999REMSYN063CMAN 10194 DTLM4 46/// ///11 11051 91900 222// 00016 333 91216;
0084997257999992005011020004+45983-083900FM-18+0189DTLM V02099999999999999999N9999999N1-00541+99999999999ADDSA1+0159REMSYN064CMTI   46// DTLM4 46/// ///07 11054 92000 222// 00015 333 91213;
0084997257999992005011021004+45983-083900FM-18+0189DTLM V02099999999999999999N9999999N1-00491+99999999999ADDSA1+0169REMSYN064CMTI   46// DTLM4 46/// ///05 11049 92106 222// 00016 333 91214;
0084997257999992005011022004+45983-083900FM-18+0189DTLM V02099999999999999999N9999999N1-00551+99999999999ADDSA1+0159REMSYN064CMTI   46// DTLM4 46/// ///09 11055 92200 222// 00015 333 91212;
0084997257999992005011023004+45983-083900FM-18+0189DTLM V02099999999999999999N9999999N1-00621+99999999999ADDSA1+0169REMSYN064CMTI   46// DTLM4 46/// ///04 11062 92300 222// 00016 333 91208;
0084997257999992005011100004+45983-083900FM-18+0189DTLM V02099999999999999999N9999999N1-00731+99999999999ADDSA1+0159REMSYN064CMTI   46// DTLM4 46/// ///03 11073 90000 222// 00015 333 91206;
0084997257999992005011101004+45983-083900FM-18+0189DTLM V02099999999999999999N9999999N1-00871+99999999999ADDSA1+0159REMSYN064CMTI   46// DTLM4 46/// ///03 11087 90100 222// 00015 333 91205;
0084997257999992005011102004+45983-083900FM-18+0189DTLM V02099999999999999999N9999999N1-00821+99999999999ADDSA1+0169REMSYN064CMTI   46// DTLM4 46/// ///03 11082 90200 222// 00016 333 91204;
0084997257999992005011103004+45983-083900FM-18+0189DTLM V02099999999999999999N9999999N1-00871+99999999999ADDSA1+0149REMSYN064CMTI   46// DTLM4 46/// ///02 11087 90300 222// 00014 333 91203;
0084997257999992005011104004+45983-083900FM-18+0189DTLM V02099999999999999999N9999999N1-00871+99999999999ADDSA1+0159REMSYN064CMTI   46// DTLM4 46/// ///03 11087 90400 222// 00015 333 91203;
0084997257999992005011105004+45983-083900FM-18+0189DTLM V02099999999999999999N9999999N1-00831+99999999999ADDSA1+0159REMSYN064CMTI   46// DTLM4 46/// ///02 11083 90500 222// 00015 333 91203;
0084997257999992005011106004+45983-083900FM-18+0189DTLM V02099999999999999999N9999999N1-00771+99999999999ADDSA1+0159REMSYN064CMTI   46// DTLM4 46/// ///01 11077 90600 222// 00015 333 91202;
0084997257999992005011107004+45983-083900FM-18+0189DTLM V02099999999999999999N9999999N1-00771+99999999999ADDSA1+0159REMSYN064CMTI   46// DTLM4 46/// ///01 11077 90700 222// 00015 333 91202;
0084997257999992005011108004+45983-083900FM-18+0189DTLM V02099999999999999999N9999999N1-00721+99999999999ADDSA1+0159REMSYN064CMTI   46// DTLM4 46/// ///01 11072 90800 222// 00015 333 91202;
0084997257999992005011109004+45983-083900FM-18+0189DTLM V02099999999999999999N9999999N1-00741+99999999999ADDSA1+0159REMSYN064CMTI   46// DTLM4 46/// ///05 11074 90900 222// 00015 333 91206;
0084997257999992005011110004+45983-083900FM-18+0189DTLM V02099999999999999999N9999999N1-00711+99999999999ADDSA1+0159REMSYN064CMTI   46// DTLM4 46/// ///05 11071 91006 222// 00015 333 91206;
0084997257999992005011111004+45983-083900FM-18+0189DTLM V02099999999999999999N9999999N1-00681+99999999999ADDSA1+0159REMSYN064CMTI   46// DTLM4 46/// ///05 11068 91100 222// 00015 333 91207;
0084997257999992005011112004+45983-083900FM-18+0189DTLM V02099999999999999999N9999999N1-00691+99999999999ADDSA1+0159REMSYN064CMTI   46// DTLM4 46/// ///06 11069 91200 222// 00015 333 91208;
0090997257999992005011114004+45983-083900FM-18+0189DTLM V02099999999999999999N9999999N1-00671+99999102251ADDSA1+0169REMSYN070CMTI   46// DTLM4 46/// ///07 11067 40225 91418 222// 00016 333 91209;
0110997257999992005011115004+45983-083900FM-18+0189DTLM V02099999999999999999N9999999N1-00641+99999102241ADDMD1710031+9999SA1+0159REMSYN076CMTI   46// DTLM4 46/// ///05 11064 40224 57003 91500 222// 00015 333 91210;
0090997257999992005011116004+45983-083900FM-18+0189DTLM V02099999999999999999N9999999N1-00641+99999102271ADDSA1+0159REMSYN070CMTI   46// DTLM4 46/// ///06 11064 40227 91606 222// 00015 333 91209;
0090997257999992005011117004+45983-083900FM-18+0189DTLM V02099999999999999999N9999999N1-00621+99999102181ADDSA1+0169REMSYN070CMTI   46// DTLM4 46/// ///07 11062 40218 91700 222// 00016 333 91209;
0088997257999992005011118004+45983-083900FM-18+0189DTLM V02099999999999999999N9999999N1-00581+99999102071REMSYN079CMAN  11184 DTLM4 46/// ///07 11058 40207 91818 222// 000191210 555 1008 22010;
0090997257999992005011119004+45983-083900FM-18+0189DTLM V02099999999999999999N9999999N1-00541+99999102051ADDSA1+0149REMSYN070CMTI   46// DTLM4 46/// ///07 11054 40205 91900 222// 00014 333 91209;
0090997257999992005011120004+45983-083900FM-18+0189DTLM V02099999999999999999N9999999N1-00501+99999102031ADDSA1+0159REMSYN070CMTI   46// DTLM4 46/// ///08 11050 40203 92018 222// 00015 333 91210;
0090997257999992005011121004+45983-083900FM-18+0189DTLM V02099999999999999999N9999999N1-00491+99999102061ADDSA1+0159REMSYN070CMTI   46// DTLM4 46/// ///08 11049 40206 92100 222// 00015 333 91211;
0090997257999992005011122004+45983-083900FM-18+0189DTLM V02099999999999999999N9999999N1-00471+99999102021ADDSA1+0159REMSYN070CMTI   46// DTLM4 46/// ///08 11047 40202 92224 222// 00015 333 91210;
0090997257999992005011123004+45983-083900FM-18+0189DTLM V02099999999999999999N9999999N1-00471+99999102041ADDSA1+0149REMSYN070CMTI   46// DTLM4 46/// ///06 11047 40204 92324 222// 00014 333 91208;
0110997257999992005011200004+45983-083900FM-18+0189DTLM V02099999999999999999N9999999N1-00451+99999102031ADDMD1710031+9999SA1+0159REMSYN076CMTI   46// DTLM4 46/// ///07 11045 40203 57003 90000 222// 00015 333 91209;
0101997257999992005011201004+45983-083900FM-18+0189DTLM V02099999999999999999N9999999N1-00461+99999102011ADDMD1610051+9999REMSYN075CMAN 12014 DTLM4 46/// ///09 11046 40201 56005 90100 222// 00015 333 91211;
0101997257999992005011202004+45983-083900FM-18+0189DTLM V02099999999999999999N9999999N1-00441+99999101991ADDMD1710041+9999REMSYN075CMAN 12024 DTLM4 46/// ///07 11044 40199 57004 90200 222// 00015 333 91211;
0017997257999992005011203004+45983-083900FM-18+0189DTLM V02099999999999999999N9999999N1-00421+99999101921ADDMD1810111+9999
0090997257999992005011204004+45983-083900FM-18+0189DTLM V02099999999999999999N9999999N1-00441+99999101891ADDSA1+0169REMSYN070CMTI   46// DTLM4 46/// ///09 11044 40189 90436 222// 00016 333 91210;
0110997257999992005011205004+45983-083900FM-18+0189DTLM V02099999999999999999N9999999N1-00441+99999101881ADDMD1710111+9999SA1+0159REMSYN076CMTI   46// DTLM4 46/// ///08 11044 40188 57011 90500 222// 00015 333 91210;
0110997257999992005011206004+45983-083900FM-18+0189DTLM V02099999999999999999N9999999N1-00391+99999101791ADDMD1710131+9999SA1+0169REMSYN076CMTI   46// DTLM4 46/// ///08 11039 40179 57013 90600 222// 00016 333 91212;
0090997257999992005011207004+45983-083900FM-18+0189DTLM V02099999999999999999N9999999N1-00391+99999101731ADDSA1+0159REMSYN070CMTI   46// DTLM4 46/// ///07 11039 40173 90700 222// 00015 333 91209;
0110997257999992005011208004+45983-083900FM-18+0189DTLM V02099999999999999999N9999999N1-00401+99999101701ADDMD1610181+9999SA1+0169REMSYN076CMTI   46// DTLM4 46/// ///09 11040 40170 56018 90800 222// 00016 333 91210;
0110997257999992005011209004+45983-083900FM-18+0189DTLM V02099999999999999999N9999999N1-00391+99999101581ADDMD1810211+9999SA1+0159REMSYN076CMTI   46// DTLM4 46/// ///08 11039 40158 58021 90900 222// 00015 333 91211;
0110997257999992005011210004+45983-083900FM-18+0189DTLM V02099999999999999999N9999999N1-00361+99999101501ADDMD1810231+9999SA1+0159REMSYN076CMTI   46// DTLM4 46/// ///07 11036 40150 58023 91000 222// 00015 333 91209;
0110997257999992005011211004+45983-083900FM-18+0189DTLM V02099999999999999999N9999999N1-00371+99999101401ADDMD1610301+9999SA1+0169REMSYN076CMTI   46// DTLM4 46/// ///08 11037 40140 56030 91100 222// 00016 333 91211;
0090997257999992005011213004+45983-083900FM-18+0189DTLM V02099999999999999999N9999999N1-00411+99999101261ADDSA1+0159REMSYN070CMTI   46// DTLM4 46/// ///11 11041 40126 91324 222// 00015 333 91214;
0110997257999992005011214004+45983-083900FM-18+0189DTLM V02099999999999999999N9999999N1-00391+99999101191ADDMD1710211+9999SA1+0169REMSYN076CMTI   46// DTLM4 46/// ///12 11039 40119 57021 91400 222// 00016 333 91216;
0090997257999992005011215004+45983-083900FM-18+0189DTLM V02099999999999999999N9999999N1-00371+99999101111ADDSA1+0169REMSYN070CMTI   46// DTLM4 46/// ///12 11037 40111 91500 222// 00016 333 91215;
0090997257999992005011216004+45983-083900FM-18+0189DTLM V02099999999999999999N9999999N1-00361+99999101071ADDSA1+0159REMSYN070CMTI   46// DTLM4 46/// ///09 11036 40107 91600 222// 00015 333 91213;
0110997257999992005011217004+45983-083900FM-18+0189DTLM V02099999999999999999N9999999N1-00321+99999100871ADDMD1810321+9999SA1+0169REMSYN076CMTI   46// DTLM4 46/// ///11 11032 40087 58032 91700 222// 00016 333 91214;
0110997257999992005011218004+45983-083900FM-18+0189DTLM V02099999999999999999N9999999N1-00281+99999100701ADDMD1810411+9999SA1+0169REMSYN076CMTI   46// DTLM4 46/// ///14 11028 40070 58041 91800 222// 00016 333 91218;
0110997257999992005011219004+45983-083900FM-18+0189DTLM V02099999999999999999N9999999N1-00251+99999100541ADDMD1610531+9999SA1+0169REMSYN076CMTI   46// DTLM4 46/// ///12 11025 40054 56053 91900 222// 00016 333 91216;
0110997257999992005011220004+45983-083900FM-18+0189DTLM V02099999999999999999N9999999N1-00081+99999100451ADDMD1610421+9999SA1+0159REMSYN076CMTI   46// DTLM4 46/// ///11 11008 40045 56042 92000 222// 00015 333 91215;
0110997257999992005011221004+45983-083900FM-18+0189DTLM V02099999999999999999N9999999N1+00081+99999100331ADDMD1610371+9999SA1+0149REMSYN076CMTI   46// DTLM4 46/// ///12 10008 40033 56037 92100 222// 00014 333 91216;
0110997257999992005011222004+45983-083900FM-18+0189DTLM V02099999999999999999N9999999N1+00151+99999100251ADDMD1610291+9999SA1+0159REMSYN076CMTI   46// DTLM4 46/// ///13 10015 40025 56029 92200 222// 00015 333 91216;
0110997257999992005011223004+45983-083900FM-18+0189DTLM V02099999999999999999N9999999N1+00191+99999100191ADDMD1610261+9999SA1+0159REMSYN076CMTI   46// DTLM4 46/// ///11 10019 40019 56026 92300 222// 00015 333 91216;
0110997257999992005011300004+45983-083900FM-18+0189DTLM V02099999999999999999N9999999N1+00191+99999100121ADDMD1610211+9999SA1+0149REMSYN076CMTI   46// DTLM4 46/// ///11 10019 40012 56021 90000 222// 00014 333 91217;
0110997257999992005011301004+45983-083900FM-18+0189DTLM V02099999999999999999N9999999N1+00211+99999100021ADDMD1810231+9999SA1+0149REMSYN076CMTI   46// DTLM4 46/// ///09 10021 40002 58023 90100 222// 00014 333 91213;
0110997257999992005011302004+45983-083900FM-18+0189DTLM V02099999999999999999N9999999N1+00271+99999099911ADDMD1810281+9999SA1+0159REMSYN076CMTI   46// DTLM4 46/// ///10 10027 49991 58028 90200 222// 00015 333 91217;
0110997257999992005011303004+45983-083900FM-18+0189DTLM V02099999999999999999N9999999N1+00251+99999099881ADDMD1610241+9999SA1+0149REMSYN076CMTI   46// DTLM4 46/// ///08 10025 49988 56024 90300 222// 00014 333 91210;
0110997257999992005011304004+45983-083900FM-18+0189DTLM V02099999999999999999N9999999N1+00341+99999099811ADDMD1610211+9999SA1+0139REMSYN076CMTI   46// DTLM4 46/// ///05 10034 49981 56021 90400 222// 00013 333 91208;
0110997257999992005011305004+45983-083900FM-18+0189DTLM V02099999999999999999N9999999N1+00351+99999099821ADDMD1610091+9999SA1+0129REMSYN076CMTI   46// DTLM4 46/// ///06 10035 49982 56009 90500 222// 00012 333 91209;
0110997257999992005011306004+45983-083900FM-18+0189DTLM V02099999999999999999N9999999N1+00521+99999099861ADDMD1510001+9999SA1+0139REMSYN076CMTI   46// DTLM4 46/// ///05 10052 49986 55000 90600 222// 00013 333 91209;
0110997257999992005011307004+45983-083900FM-18+0189DTLM V02099999999999999999N9999999N1+00381+99999099801ADDMD1010001+9999SA1+0139REMSYN076CMTI   46// DTLM4 46/// ///03 10038 49980 50000 90700 222// 00013 333 91208;
0110997257999992005011308004+45983-083900FM-18+0189DTLM V02099999999999999999N9999999N1+00271+99999099921ADDMD1310101+9999SA1+0149REMSYN076CMTI   46// DTLM4 46/// ///05 10027 49992 53010 90800 222// 00014 333 91211;
0084997257999992005011309004+45983-083900FM-18+0189DTLM V02099999999999999999N9999999N1+99999+99999999999REMSYN075CMTI   46// DTLM4 46/// ///04 1020 49994 53008 90900 222// 00013 333 91205;
0110997257999992005011310004+45983-083900FM-18+0189DTLM V02099999999999999999N9999999N1+00171+99999100001ADDMD1110201+9999SA1+0149REMSYN076CMTI   46// DTLM4 46/// ///03 10017 40000 51020 91000 222// 00014 333 91205;
0110997257999992005011311004+45983-083900FM-18+0189DTLM V02099999999999999999N9999999N1+00141+99999100001ADDMD1210081+9999SA1+0139REMSYN076CMTI   46// DTLM4 46/// ///04 10014 40000 52008 91100 222// 00013 333 91205;
0110997257999992005011312004+45983-083900FM-18+0189DTLM V02099999999999999999N9999999N1+00121+99999100051ADDMD1110111+9999SA1+0139REMSYN076CMTI   46// DTLM4 46/// ///04 10012 40005 51011 91200 222// 00013 333 91207;
0110997257999992005011313004+45983-083900FM-18+0189DTLM V02099999999999999999N9999999N1+00051+99999100101ADDMD1310101+9999SA1+0149REMSYN076CMTI   46// DTLM4 46/// ///05 10005 40010 53010 91300 222// 00014 333 91211;
0110997257999992005011314004+45983-083900FM-18+0189DTLM V02099999999999999999N9999999N1+00021+99999100061ADDMD1010061+9999SA1+0139REMSYN076CMTI   46// DTLM4 46/// ///05 10002 40006 50006 91400 222// 00013 333 91209;
0110997257999992005011315004+45983-083900FM-18+0189DTLM V02099999999999999999N9999999N1+00021+99999100231ADDMD1310181+9999SA1+0159REMSYN076CMTI   46// DTLM4 46/// ///06 10002 40023 53018 91500 222// 00015 333 91211;
0110997257999992005011316004+45983-083900FM-18+0189DTLM V02099999999999999999N9999999N1+00021+99999100291ADDMD1310191+9999SA1+0149REMSYN076CMTI   46// DTLM4 46/// ///08 10002 40029 53019 91600 222// 00014 333 91213;
0101997257999992005011317004+45983-083900FM-18+0189DTLM V02099999999999999999N9999999N1+00021+99999100241ADDMD1010181+9999REMSYN075CMAN  13174 DTLM4 46/// ///06 10002 40024 50018 91700 222// 00016990 59011;
0090997257999992005011318004+45983-083900FM-18+0189DTLM V02099999999999999999N9999999N1+00031+99999100241ADDSA1+0149REMSYN070CMTI   46// DTLM4 46/// ///09 10003 40024 91848 222// 00014 333 91216;
0110997257999992005011319004+45983-083900FM-18+0189DTLM V02099999999999999999N9999999N1+00021+99999100241ADDMD1710051+9999SA1+0149REMSYN076CMTI   46// DTLM4 46/// ///11 10002 40024 57005 91900 222// 00014 333 91218;
0110997257999992005011320004+45983-083900FM-18+0189DTLM V02099999999999999999N9999999N1-00021+99999100371ADDMD1210131+9999SA1+0149REMSYN076CMTI   46// DTLM4 46/// ///08 11002 40037 52013 92000 222// 00014 333 91218;
0090997257999992005011321004+45983-083900FM-18+0189DTLM V02099999999999999999N9999999N1-00071+99999100521ADDSA1+0149REMSYN070CMTI   46// DTLM4 46/// ///07 11007 40052 92100 222// 00014 333 91213;
0110997257999992005011322004+45983-083900FM-18+0189DTLM V02099999999999999999N9999999N1-00161+99999100571ADDMD1110331+9999SA1+0149REMSYN076CMTI   46// DTLM4 46/// ///08 11016 40057 51033 92200 222// 00014 333 91217;
0110997257999992005011323004+45983-083900FM-18+0189DTLM V02099999999999999999N9999999N1-00241+99999100771ADDMD1310401+9999SA1+0159REMSYN076CMTI   46// DTLM4 46/// ///11 11024 40077 53040 92300 222// 00015 333 91218;
0110997257999992005011400004+45983-083900FM-18+0189DTLM V02099999999999999999N9999999N1-00391+99999100951ADDMD1310431+9999SA1+0159REMSYN076CMTI   46// DTLM4 46/// ///11 11039 40095 53043 90000 222// 00015 333 91221;
0110997257999992005011401004+45983-083900FM-18+0189DTLM V02099999999999999999N9999999N1-00581+99999101091ADDMD1110521+9999SA1+0159REMSYN076CMTI   46// DTLM4 46/// ///14 11058 40109 51052 90100 222// 00015 333 91220;
0090997257999992005011402004+45983-083900FM-18+0189DTLM V02099999999999999999N9999999N1-00721+99999101221ADDSA1+0149REMSYN070CMTI   46// DTLM4 46/// ///09 11072 40122 90224 222// 00014 333 91218;
0078997257999992005011405004+45983-083900FM-18+0189DTLM V02099999999999999999N9999999N1-01041+99999101551REMSYN069CMAN 14054 DTLM4 46/// ///10 11104 40155 90500 222// 00015 333 91223;
0000997257999992005011406004+45983-083900FM-18+0189DTLM V02099999999999999999N9999999N1-01141+99999101651
0090997257999992005011408004+45983-083900FM-18+0189DTLM V02099999999999999999N9999999N1-01381+99999101961ADDSA1+0159REMSYN070CMTI   46// DTLM4 46/// ///08 11138 40196 90806 222// 00015 333 91213;
0110997257999992005011409004+45983-083900FM-18+0189DTLM V02099999999999999999N9999999N1-01441+99999102071ADDMD1210421+9999SA1+0169REMSYN076CMTI   46// DTLM4 46/// ///11 11144 40207 52042 90900 222// 00016 333 91219;
0090997257999992005011410004+45983-083900FM-18+0189DTLM V02099999999999999999N9999999N1-01511+99999102191ADDSA1+0169REMSYN070CMTI   46// DTLM4 46/// ///09 11151 40219 91000 222// 00016 333 91213;
0090997257999992005011411004+45983-083900FM-18+0189DTLM V02099999999999999999N9999999N1-01541+99999102301ADDSA1+0169REMSYN070CMTI   46// DTLM4 46/// ///11 11154 40230 91100 222// 00016 333 91215;
0110997257999992005011412004+45983-083900FM-18+0189DTLM V02099999999999999999N9999999N1-01581+99999102391ADDMD1110321+9999SA1+0159REMSYN076CMTI   46// DTLM4 46/// ///07 11158 40239 51032 91200 222// 00015 333 91215;
0110997257999992005011413004+45983-083900FM-18+0189DTLM V02099999999999999999N9999999N1-01621+99999102451ADDMD1110261+9999SA1+0169REMSYN076CMTI   46// DTLM4 46/// ///11 11162 40245 51026 91300 222// 00016 333 91215;
0090997257999992005011414004+45983-083900FM-18+0189DTLM V02099999999999999999N9999999N1-01621+99999102581ADDSA1+0159REMSYN070CMTI   46// DTLM4 46/// ///11 11162 40258 91406 222// 00015 333 91219;
0090997257999992005011415004+45983-083900FM-18+0189DTLM V02099999999999999999N9999999N1-01501+99999102681ADDSA1+0159REMSYN070CMTI   46// DTLM4 46/// ///13 11150 40268 91506 222// 00015 333 91218;
0090997257999992005011416004+45983-083900FM-18+0189DTLM V02099999999999999999N9999999N1-01381+99999102781ADDSA1+0169REMSYN070CMTI   46// DTLM4 46/// ///11 11138 40278 91606 222// 00016 333 91217;
0090997257999992005011417004+45983-083900FM-18+0189DTLM V02099999999999999999N9999999N1-01311+99999102811ADDSA1+0169REMSYN070CMTI   46// DTLM4 46/// ///07 11131 40281 91700 222// 00016 333 91223;
0090997257999992005011418004+45983-083900FM-18+0189DTLM V02099999999999999999N9999999N1-01231+99999102781ADDSA1+0159REMSYN070CMTI   46// DTLM4 46/// ///16 11123 40278 91800 222// 00015 333 91225;
0090997257999992005011419004+45983-083900FM-18+0189DTLM V02099999999999999999N9999999N1-01201+99999102821ADDSA1+0169REMSYN070CMTI   46// DTLM4 46/// ///13 11120 40282 91900 222// 00016 333 91220;
0110997257999992005011420004+45983-083900FM-18+0189DTLM V02099999999999999999N9999999N1-01211+99999102851ADDMD1310041+9999SA1+0169REMSYN076CMTI   46// DTLM4 46/// ///08 11121 40285 53004 92000 222// 00016 333 91218;
0110997257999992005011421004+45983-083900FM-18+0189DTLM V02099999999999999999N9999999N1-01161+99999102931ADDMD1310151+9999SA1+0149REMSYN076CMTI   46// DTLM4 46/// ///12 11116 40293 53015 92100 222// 00014 333 91215;
0110997257999992005011422004+45983-083900FM-18+0189DTLM V02099999999999999999N9999999N1-01271+99999103001ADDMD1310181+9999SA1+0169REMSYN076CMTI   46// DTLM4 46/// ///07 11127 40300 53018 92200 222// 00016 333 91212;
0110997257999992005011423004+45983-083900FM-18+0189DTLM V02099999999999999999N9999999N1-01351+99999103061ADDMD1110211+9999SA1+0169REMSYN076CMTI   46// DTLM4 46/// ///07 11135 40306 51021 92300 222// 00016 333 91212;
0110997257999992005011500004+45983-083900FM-18+0189DTLM V02099999999999999999N9999999N1-01421+99999103131ADDMD1210201+9999SA1+0169REMSYN076CMTI   46// DTLM4 46/// ///07 11142 40313 52020 90000 222// 00016 333 91212;
0110997257999992005011501004+45983-083900FM-18+0189DTLM V02099999999999999999N9999999N1-01471+99999103181ADDMD1110181+9999SA1+0169REMSYN076CMTI   46// DTLM4 46/// ///08 11147 40318 51018 90100 222// 00016 333 91213;
0110997257999992005011502004+45983-083900FM-18+0189DTLM V02099999999999999999N9999999N1-01501+99999103201ADDMD1110141+9999SA1+0179REMSYN076CMTI   46// DTLM4 46/// ///08 11150 40320 51014 90200 222// 00017 333 91215;
0110997257999992005011503004+45983-083900FM-18+0189DTLM V02099999999999999999N9999999N1-01581+99999103231ADDMD1110101+9999SA1+0169REMSYN076CMTI   46// DTLM4 46/// ///06 11158 40323 51010 90300 222// 00016 333 91210;
0110997257999992005011504004+45983-083900FM-18+0189DTLM V02099999999999999999N9999999N1-01601+99999103281ADDMD1310101+9999SA1+0169REMSYN076CMTI   46// DTLM4 46/// ///05 11160 40328 53010 90400 222// 00016 333 91208;
0110997257999992005011505004+45983-083900FM-18+0189DTLM V02099999999999999999N9999999N1-01641+99999103301ADDMD1110101+9999SA1+0179REMSYN076CMTI   46// DTLM4 46/// ///06 11164 40330 51010 90500 222// 00017 333 91211;
0110997257999992005011506004+45983-083900FM-18+0189DTLM V02099999999999999999N9999999N1-01631+99999103331ADDMD1110101+9999SA1+0169REMSYN076CMTI   46// DTLM4 46/// ///08 11163 40333 51010 90600 222// 00016 333 91216;
0110997257999992005011507004+45983-083900FM-18+0189DTLM V02099999999999999999N9999999N1-01651+99999103351ADDMD1210071+9999SA1+0179REMSYN076CMTI   46// DTLM4 46/// ///08 11165 40335 52007 90700 222// 00017 333 91213;
0110997257999992005011508004+45983-083900FM-18+0189DTLM V02099999999999999999N9999999N1-01631+99999103341ADDMD1110041+9999SA1+0179REMSYN076CMTI   46// DTLM4 46/// ///06 11163 40334 51004 90800 222// 00017 333 91211;
0110997257999992005011509004+45983-083900FM-18+0189DTLM V02099999999999999999N9999999N1-01651+99999103321ADDMD1410001+9999SA1+0179REMSYN076CMTI   46// DTLM4 46/// ///06 11165 40332 54000 90900 222// 00017 333 91215;
0110997257999992005011510004+45983-083900FM-18+0189DTLM V02099999999999999999N9999999N1-01611+99999103301ADDMD1710051+9999SA1+0179REMSYN076CMTI   46// DTLM4 46/// ///05 11161 40330 57005 91000 222// 00017 333 91212;
0110997257999992005011511004+45983-083900FM-18+0189DTLM V02099999999999999999N9999999N1-01541+99999103251ADDMD1810091+9999SA1+0179REMSYN076CMTI   46// DTLM4 46/// ///09 11154 40325 58009 91100 222// 00017 333 91214;
0110997257999992005011512004+45983-083900FM-18+0189DTLM V02099999999999999999N9999999N1-01631+99999103331ADDMD1510001+9999SA1+0179REMSYN076CMTI   46// DTLM4 46/// ///10 11163 40333 55000 91200 222// 00017 333 91212;
0110997257999992005011513004+45983-083900FM-18+0189DTLM V02099999999999999999N9999999N1-01721+99999103351ADDMD1310051+9999SA1+0179REMSYN076CMTI   46// DTLM4 46/// ///09 11172 40335 53005 91300 222// 00017 333 91214;
0110997257999992005011514004+45983-083900FM-18+0189DTLM V02099999999999999999N9999999N1-01711+99999103391ADDMD1110141+9999SA1+0169REMSYN076CMTI   46// DTLM4 46/// ///08 11171 40339 51014 91400 222// 00016 333 91215;
0110997257999992005011515004+45983-083900FM-18+0189DTLM V02099999999999999999N9999999N1-01591+99999103461ADDMD1310131+9999SA1+0169REMSYN076CMTI   46// DTLM4 46/// ///08 11159 40346 53013 91500 222// 00016 333 91216;
0110997257999992005011516004+45983-083900FM-18+0189DTLM V02099999999999999999N9999999N1-01531+99999103471ADDMD1110121+9999SA1+0179REMSYN076CMTI   46// DTLM4 46/// ///10 11153 40347 51012 91600 222// 00017 333 91214;
0110997257999992005011517004+45983-083900FM-18+0189DTLM V02099999999999999999N9999999N1-01401+99999103421ADDMD1010031+9999SA1+0179REMSYN076CMTI   46// DTLM4 46/// ///10 11140 40342 50003 91700 222// 00017 333 91218;
0110997257999992005011518004+45983-083900FM-18+0189DTLM V02099999999999999999N9999999N1-01481+99999103431ADDMD1710031+9999SA1+0179REMSYN076CMTI   46// DTLM4 46/// ///13 11148 40343 57003 91800 222// 00017 333 91223;
0110997257999992005011519004+45983-083900FM-18+0189DTLM V02099999999999999999N9999999N1-01471+99999103411ADDMD1610061+9999SA1+0179REMSYN076CMTI   46// DTLM4 46/// ///10 11147 40341 56006 91900 222// 00017 333 91215;
0110997257999992005011520004+45983-083900FM-18+0189DTLM V02099999999999999999N9999999N1-01481+99999103431ADDMD1410001+9999SA1+0169REMSYN076CMTI   46// DTLM4 46/// ///08 11148 40343 54000 92000 222// 00016 333 91217;
0110997257999992005011521004+45983-083900FM-18+0189DTLM V02099999999999999999N9999999N1-01511+99999103481ADDMD1310051+9999SA1+0169REMSYN076CMTI   46// DTLM4 46/// ///11 11151 40348 53005 92100 222// 00016 333 91219;
0110997257999992005011522004+45983-083900FM-18+0189DTLM V02099999999999999999N9999999N1-01541+99999103511ADDMD1310101+9999SA1+0179REMSYN076CMTI   46// DTLM4 46/// ///10 11154 40351 53010 92200 222// 00017 333 91219;
0110997257999992005011523004+45983-083900FM-18+0189DTLM V02099999999999999999N9999999N1-01601+99999103561ADDMD1210131+9999SA1+0179REMSYN076CMTI   46// DTLM4 46/// ///06 11160 40356 52013 92300 222// 00017 333 91212;
0110997257999992005011600004+45983-083900FM-18+0189DTLM V02099999999999999999N9999999N1-01641+99999103641ADDMD1310161+9999SA1+0179REMSYN076CMTI   46// DTLM4 46/// ///07 11164 40364 53016 90000 222// 00017 333 91216;
0110997257999992005011601004+45983-083900FM-18+0189DTLM V02099999999999999999N9999999N1-01681+99999103681ADDMD1110171+9999SA1+0179REMSYN076CMTI   46// DTLM4 46/// ///07 11168 40368 51017 90100 222// 00017 333 91212;
0110997257999992005011602004+45983-083900FM-18+0189DTLM V02099999999999999999N9999999N1-01691+99999103701ADDMD1110141+9999SA1+0179REMSYN076CMTI   46// DTLM4 46/// ///07 11169 40370 51014 90200 222// 00017 333 91212;
0110997257999992005011603004+45983-083900FM-18+0189DTLM V02099999999999999999N9999999N1-01731+99999103731ADDMD1110091+9999SA1+0179REMSYN076CMTI   46// DTLM4 46/// ///06 11173 40373 51009 90300 222// 00017 333 91209;
0110997257999992005011604004+45983-083900FM-18+0189DTLM V02099999999999999999N9999999N1-01781+99999103751ADDMD1210071+9999SA1+0179REMSYN076CMTI   46// DTLM4 46/// ///04 11178 40375 52007 90400 222// 00017 333 91209;
0110997257999992005011605004+45983-083900FM-18+0189DTLM V02099999999999999999N9999999N1-01821+99999103761ADDMD1110061+9999SA1+0179REMSYN076CMTI   46// DTLM4 46/// ///05 11182 40376 51006 90500 222// 00017 333 91207;
0110997257999992005011606004+45983-083900FM-18+0189DTLM V02099999999999999999N9999999N1-01841+99999103741ADDMD1410001+9999SA1+0189REMSYN076CMTI   46// DTLM4 46/// ///05 11184 40374 54000 90600 222// 00018 333 91210;
0110997257999992005011607004+45983-083900FM-18+0189DTLM V02099999999999999999N9999999N1-01871+99999103691ADDMD1810061+9999SA1+0189REMSYN076CMTI   46// DTLM4 46/// ///07 11187 40369 58006 90700 222// 00018 333 91211;
0110997257999992005011608004+45983-083900FM-18+0189DTLM V02099999999999999999N9999999N1-01901+99999103741ADDMD1510001+9999SA1+0179REMSYN076CMTI   46// DTLM4 46/// ///06 11190 40374 55000 90800 222// 00017 333 91209;
0110997257999992005011609004+45983-083900FM-18+0189DTLM V02099999999999999999N9999999N1-01871+99999103721ADDMD1510001+9999SA1+0189REMSYN076CMTI   46// DTLM4 46/// ///06 11187 40372 55000 90900 222// 00018 333 91210;
0110997257999992005011610004+45983-083900FM-18+0189DTLM V02099999999999999999N9999999N1-01861+99999103681ADDMD1010001+9999SA1+0189REMSYN076CMTI   46// DTLM4 46/// ///05 11186 40368 50000 91000 222// 00018 333 91209;
0110997257999992005011611004+45983-083900FM-18+0189DTLM V02099999999999999999N9999999N1-01871+99999103671ADDMD1710071+9999SA1+0179REMSYN076CMTI   46// DTLM4 46/// ///04 11187 40367 57007 91100 222// 00017 333 91205;
0078997257999992005011612004+45983-083900FM-18+0189DTLM V02099999999999999999N9999999N1-01841+99999103631REMSYN069CMAN 16124 DTLM4 46/// ///03 11184 40363 91206 222// 00017 333 91207;
0110997257999992005011613004+45983-083900FM-18+0189DTLM V02099999999999999999N9999999N1-01781+99999103611ADDMD1710071+9999SA1+0189REMSYN076CMTI   46// DTLM4 46/// ///04 11178 40361 57007 91300 222// 00018 333 91206;
0110997257999992005011614004+45983-083900FM-18+0189DTLM V02099999999999999999N9999999N1-01761+99999103621ADDMD1710051+9999SA1+0189REMSYN076CMTI   46// DTLM4 46/// ///04 11176 40362 57005 91400 222// 00018 333 91205;
0090997257999992005011615004+45983-083900FM-18+0189DTLM V02099999999999999999N9999999N1-01631+99999103621ADDSA1+0179REMSYN070CMTI   46// DTLM4 46/// ///04 11163 40362 91500 222// 00017 333 91207;
0110997257999992005011616004+45983-083900FM-18+0189DTLM V02099999999999999999N9999999N1-01511+99999103591ADDMD1010001+9999SA1+0189REMSYN076CMTI   46// DTLM4 46/// ///04 11151 40359 50000 91600 222// 00018 333 91205;
0110997257999992005011617004+45983-083900FM-18+0189DTLM V02099999999999999999N9999999N1-01481+99999103491ADDMD1810131+9999SA1+0169REMSYN076CMTI   46// DTLM4 46/// ///05 11148 40349 58013 91700 222// 00016 333 91206;
0110997257999992005011618004+45983-083900FM-18+0189DTLM V02099999999999999999N9999999N1-01261+99999103411ADDMD1810211+9999SA1+0169REMSYN076CMTI   46// DTLM4 46/// ///05 11126 40341 58021 91800 222// 00016 333 91209;
0110997257999992005011619004+45983-083900FM-18+0189DTLM V02099999999999999999N9999999N1-01221+99999103331ADDMD1610261+9999SA1+0169REMSYN076CMTI   46// DTLM4 46/// ///05 11122 40333 56026 91900 222// 00016 333 91207;
0110997257999992005011620004+45983-083900FM-18+0189DTLM V02099999999999999999N9999999N1-01221+99999103281ADDMD1610211+9999SA1+0189REMSYN076CMTI   46// DTLM4 46/// ///06 11122 40328 56021 92000 222// 00018 333 91210;
0110997257999992005011621004+45983-083900FM-18+0189DTLM V02099999999999999999N9999999N1-01251+99999103271ADDMD1610141+9999SA1+0179REMSYN076CMTI   46// DTLM4 46/// ///05 11125 40327 56014 92100 222// 00017 333 91209;
0110997257999992005011622004+45983-083900FM-18+0189DTLM V02099999999999999999N9999999N1-01281+99999103251ADDMD1610081+9999SA1+0179REMSYN076CMTI   46// DTLM4 46/// ///05 11128 40325 56008 92200 222// 00017 333 91211;
0110997257999992005011623004+45983-083900FM-18+0189DTLM V02099999999999999999N9999999N1-01351+99999103281ADDMD1510001+9999SA1+0189REMSYN076CMTI   46// DTLM4 46/// ///05 11135 40328 55000 92300 222// 00018 333 91210;
0110997257999992005011700004+45980-083900FM-18+0189DTLM V02099999999999999999N9999999N1-01421+99999103291ADDMD1410001+9999SA1+0179REMSYN076CMTI   46// DTLM4 46/// ///05 11142 40329 54000 90000 222// 00017 333 91208;
0110997257999992005011701004+45980-083900FM-18+0189DTLM V02099999999999999999N9999999N1-01441+99999103281ADDMD1110031+9999SA1+0169REMSYN076CMTI   46// DTLM4 46/// ///04 11144 40328 51003 90100 222// 00016 333 91206;
0110997257999992005011702004+45980-083900FM-18+0189DTLM V02099999999999999999N9999999N1-01481+99999103261ADDMD1410001+9999SA1+0179REMSYN076CMTI   46// DTLM4 46/// ///03 11148 40326 54000 90200 222// 00017 333 91205;
0110997257999992005011703004+45980-083900FM-18+0189DTLM V02099999999999999999N9999999N1-01551+99999103251ADDMD1710041+9999SA1+0179REMSYN076CMTI   46// DTLM4 46/// ///05 11155 40325 57004 90300 222// 00017 333 91207;
0110997257999992005011704004+45980-083900FM-18+0189DTLM V02099999999999999999N9999999N1-01601+99999103191ADDMD1810091+9999SA1+0189REMSYN076CMTI   46// DTLM4 46/// ///06 11160 40319 58009 90400 222// 00018 333 91211;
0110997257999992005011705004+45980-083900FM-18+0189DTLM V02099999999999999999N9999999N1-01661+99999103221ADDMD1510041+9999SA1+0189REMSYN076CMTI   46// DTLM4 46/// ///05 11166 40322 55004 90500 222// 00018 333 91209;
0110997257999992005011705004+45983-083900FM-18+0189DTLM V02099999999999999999N9999999N1-01661+99999103221ADDMD1510041+9999SA1+0189REMSYN076CMTI   46// DTLM4 46/// ///05 11166 40322 55004 90500 222// 00018 333 91209;
0110997257999992005011706004+45980-083900FM-18+0189DTLM V02099999999999999999N9999999N1-01671+99999103221ADDMD1610031+9999SA1+0189REMSYN076CMTI   46// DTLM4 46/// ///05 11167 40322 56003 90600 222// 00018 333 91209;
0110997257999992005011707004+45980-083900FM-18+0189DTLM V02099999999999999999N9999999N1-01741+99999103231ADDMD1110041+9999SA1+0189REMSYN076CMTI   46// DTLM4 46/// ///05 11174 40323 51004 90700 222// 00018 333 91207;
0110997257999992005011708004+45980-083900FM-18+0189DTLM V02099999999999999999N9999999N1-01761+99999103251ADDMD1210031+9999SA1+0199REMSYN076CMTI   46// DTLM4 46/// ///10 11176 40325 52003 90800 222// 00019 333 91212;
0110997257999992005011709004+45980-083900FM-18+0189DTLM V02099999999999999999N9999999N1-01801+99999103261ADDMD1210041+9999SA1+0189REMSYN076CMTI   46// DTLM4 46/// ///11 11180 40326 52004 90900 222// 00018 333 91212;
0110997257999992005011710004+45980-083900FM-18+0189DTLM V02099999999999999999N9999999N1-01821+99999103271ADDMD1210041+9999SA1+0199REMSYN076CMTI   46// DTLM4 46/// ///09 11182 40327 52004 91000 222// 00019 333 91212;
0110997257999992005011711004+45980-083900FM-18+0189DTLM V02099999999999999999N9999999N1-01861+99999103301ADDMD1310051+9999SA1+0199REMSYN076CMTI   46// DTLM4 46/// ///08 11186 40330 53005 91100 222// 00019 333 91212;
0110997257999992005011712004+45980-083900FM-18+0189DTLM V02099999999999999999N9999999N1-01891+99999103331ADDMD1310071+9999SA1+0189REMSYN076CMTI   46// DTLM4 46/// ///09 11189 40333 53007 91200 222// 00018 333 91211;
0110997257999992005011713004+45980-083900FM-18+0189DTLM V02099999999999999999N9999999N1-01891+99999103391ADDMD1310121+9999SA1+0199REMSYN076CMTI   46// DTLM4 46/// ///09 11189 40339 53012 91300 222// 00019 333 91211;
0110997257999992005011714004+45980-083900FM-18+0189DTLM V02099999999999999999N9999999N1-01931+99999103451ADDMD1310151+9999SA1+0199REMSYN076CMTI   46// DTLM4 46/// ///08 11193 40345 53015 91400 222// 00019 333 91212;
0000997257999992005011715004+45980-083900FM-18+0189DTLM V02099999999999999999N9999999N1-01981+99999103511
0110997257999992005011716004+45980-083900FM-18+0189DTLM V02099999999999999999N9999999N1-02011+99999103541ADDMD1210151+9999SA1+0199REMSYN076CMTI   46// DTLM4 46/// ///08 11201 40354 52015 91600 222// 00019 333 91218;
0110997257999992005011717004+45980-083900FM-18+0189DTLM V02099999999999999999N9999999N1-02151+99999103611ADDMD1210161+9999SA1+0199REMSYN076CMTI   46// DTLM4 46/// ///07 11215 40361 52016 91700 222// 00019 333 91216;
0090997257999992005011718004+45980-083900FM-18+0189DTLM V02099999999999999999N9999999N1-02151+99999103621ADDSA1+0199REMSYN070CMTI   46// DTLM4 46/// ///08 11215 40362 91800 222// 00019 333 91217;
0110997257999992005011719004+45980-083900FM-18+0189DTLM V02099999999999999999N9999999N1-02111+99999103621ADDMD1110081+9999SA1+0199REMSYN076CMTI   46// DTLM4 46/// ///09 11211 40362 51008 91900 222// 00019 333 91219;
0110997257999992005011720004+45980-083900FM-18+0189DTLM V02099999999999999999N9999999N1-02021+99999103671ADDMD1310061+9999SA1+0199REMSYN076CMTI   46// DTLM4 46/// ///09 11202 40367 53006 92000 222// 00019 333 91218;
0110997257999992005011721004+45980-083900FM-18+0189DTLM V02099999999999999999N9999999N1-01991+99999103741ADDMD1310121+9999SA1+0199REMSYN076CMTI   46// DTLM4 46/// ///10 11199 40374 53012 92100 222// 00019 333 91217;
0110997257999992005011722004+45980-083900FM-18+0189DTLM V02099999999999999999N9999999N1-02031+99999103791ADDMD1210171+9999SA1+0199REMSYN076CMTI   46// DTLM4 46/// ///08 11203 40379 52017 92200 222// 00019 333 91213;
0090997257999992005011723004+45980-083900FM-18+0189DTLM V02099999999999999999N9999999N1-02011+99999103851ADDSA1+0199REMSYN070CMTI   46// DTLM4 46/// ///13 11201 40385 92306 222// 00019 333 91217;
0110997257999992005011800004+45983-083900FM-18+0189DTLM V02099999999999999999N9999999N1-02051+99999103921ADDMD1210181+9999SA1+0199REMSYN076CMTI   46// DTLM4 46/// ///13 11205 40392 52018 90000 222// 00019 333 91214;
0110997257999992005011801004+45983-083900FM-18+0189DTLM V02099999999999999999N9999999N1-02071+99999103931ADDMD1210141+9999SA1+0189REMSYN076CMTI   46// DTLM4 46/// ///13 11207 40393 52014 90100 222// 00018 333 91217;
0090997257999992005011802004+45983-083900FM-18+0189DTLM V02099999999999999999N9999999N1-02081+99999103981ADDSA1+0199REMSYN070CMTI   46// DTLM4 46/// ///15 11208 40398 90200 222// 00019 333 91217;
0110997257999992005011803004+45983-083900FM-18+0189DTLM V02099999999999999999N9999999N1-02161+99999104021ADDMD1310101+9999SA1+0179REMSYN076CMTI   46// DTLM4 46/// ///13 11216 40402 53010 90300 222// 00017 333 91217;
0110997257999992005011804004+45983-083900FM-18+0189DTLM V02099999999999999999N9999999N1-02221+99999104021ADDMD1110091+9999SA1+0189REMSYN076CMTI   46// DTLM4 46/// ///12 11222 40402 51009 90400 222// 00018 333 91213;
0110997257999992005011805004+45983-083900FM-18+0189DTLM V02099999999999999999N9999999N1-02241+99999104021ADDMD1110041+9999SA1+0189REMSYN076CMTI   46// DTLM4 46/// ///09 11224 40402 51004 90500 222// 00018 333 91211;
0110997257999992005011806004+45983-083900FM-18+0189DTLM V02099999999999999999N9999999N1-02251+99999104021ADDMD1410001+9999SA1+0189REMSYN076CMTI  46/// DTLM4 46/// ///10 11225 40402 54000 90600 222// 00018 333 91212;
0110997257999992005011807004+45983-083900FM-18+0189DTLM V02099999999999999999N9999999N1-02281+99999104011ADDMD1410001+9999SA1+0189REMSYN076CMTI   46// DTLM4 46/// ///08 11228 40401 54000 90700 222// 00018 333 91210;
0110997257999992005011808004+45983-083900FM-18+0189DTLM V02099999999999999999N9999999N1-02321+99999104041ADDMD1510001+9999SA1+0179REMSYN076CMTI   46// DTLM4 46/// ///06 11232 40404 55000 90800 222// 00017 333 91209;
0110997257999992005011809004+45983-083900FM-18+0189DTLM V02099999999999999999N9999999N1-02291+99999104041ADDMD1410001+9999SA1+0189REMSYN076CMTI   46// DTLM4 46/// ///04 11229 40404 54000 90900 222// 00018 333 91206;
0110997257999992005011810004+45983-083900FM-18+0189DTLM V02099999999999999999N9999999N1-02291+99999104021ADDMD1010001+9999SA1+0179REMSYN076CMTI   46// DTLM4 46/// ///05 11229 40402 50000 91000 222// 00017 333 91206;
0110997257999992005011811004+45983-083900FM-18+0189DTLM V02099999999999999999N9999999N1-02251+99999104041ADDMD1410001+9999SA1+0189REMSYN076CMTI   46// DTLM4 46/// ///04 11225 40404 54000 91100 222// 00018 333 91205;
0110997257999992005011812004+45983-083900FM-18+0189DTLM V02099999999999999999N9999999N1-02231+99999104001ADDMD1810041+9999SA1+0189REMSYN076CMTI   46// DTLM4 46/// ///09 11223 40400 58004 91200 222// 00018 333 91211;
0110997257999992005011813004+45983-083900FM-18+0189DTLM V02099999999999999999N9999999N1-02201+99999103921ADDMD1810101+9999SA1+0189REMSYN076CMTI   46// DTLM4 46/// ///05 11220 40392 58010 91300 222// 00018 333 91208;
0110997257999992005011814004+45983-083900FM-18+0189DTLM V02099999999999999999N9999999N1-02121+99999103831ADDMD1810211+9999SA1+0189REMSYN076CMTI   46// DTLM4 46/// ///06 11212 40383 58021 91400 222// 00018 333 91209;
0110997257999992005011815004+45983-083900FM-18+0189DTLM V02099999999999999999N9999999N1-01931+99999103781ADDMD1610221+9999SA1+0179REMSYN076CMTI   46// DTLM4 46/// ///04 11193 40378 56022 91500 222// 00017 333 91205;
0110997257999992005011816004+45983-083900FM-18+0189DTLM V02099999999999999999N9999999N1-01791+99999103631ADDMD1810291+9999SA1+0179REMSYN076CMTI   46// DTLM4 46/// ///04 11179 40363 58029 91600 222// 00017 333 91206;
0110997257999992005011817004+45983-083900FM-18+0189DTLM V02099999999999999999N9999999N1-01191+99999103391ADDMD1810441+9999SA1+0189REMSYN076CMTI   46// DTLM4 46/// ///14 11119 40339 58044 91700 222// 00018 333 91220;
0110997257999992005011818004+45983-083900FM-18+0189DTLM V02099999999999999999N9999999N1-01061+99999103261ADDMD1610521+9999SA1+0169REMSYN076CMTI   46// DTLM4 46/// ///12 11106 40326 56052 91800 222// 00016 333 91218;
0110997257999992005011819004+45983-083900FM-18+0189DTLM V02099999999999999999N9999999N1-01001+99999103041ADDMD1610591+9999SA1+0169REMSYN076CMTI   46// DTLM4 46/// ///13 11100 40304 56059 91900 222// 00016 333 91221;
0110997257999992005011820004+45983-083900FM-18+0189DTLM V02099999999999999999N9999999N1-00921+99999102831ADDMD1810561+9999SA1+0189REMSYN076CMTI   46// DTLM4 46/// ///18 11092 40283 58056 92000 222// 00018 333 91225;
0110997257999992005011821004+45983-083900FM-18+0189DTLM V02099999999999999999N9999999N1-00851+99999102621ADDMD1610641+9999SA1+0179REMSYN076CMTI   46// DTLM4 46/// ///22 11085 40262 56064 92100 222// 00017 333 91226;
0110997257999992005011822004+45983-083900FM-18+0189DTLM V02099999999999999999N9999999N1-00801+99999102441ADDMD1610601+9999SA1+0159REMSYN076CMTI   46// DTLM4 46/// ///19 11080 40244 56060 92200 222// 00015 333 91223;
0110997257999992005011823004+45983-083900FM-18+0189DTLM V02099999999999999999N9999999N1-00791+99999102251ADDMD1610581+9999SA1+0169REMSYN076CMTI   46// DTLM4 46/// ///16 11079 40225 56058 92300 222// 00016 333 91225;
0110997257999992005011900004+45983-083900FM-18+0189DTLM V02099999999999999999N9999999N1-00811+99999102081ADDMD1610541+9999SA1+0179REMSYN076CMTI   46// DTLM4 46/// ///22 11081 40208 56054 90000 222// 00017 333 91228;
0110997257999992005011901004+45983-083900FM-18+0189DTLM V02099999999999999999N9999999N1-00871+99999101851ADDMD1810591+9999SA1+0169REMSYN076CMTI   46// DTLM4 46/// ///26 11087 40185 58059 90100 222// 00016 333 91232;
0110997257999992005011902004+45983-083900FM-18+0189DTLM V02099999999999999999N9999999N1-00881+99999101611ADDMD1810641+9999SA1+0169REMSYN076CMTI   46// DTLM4 46/// ///28 11088 40161 58064 90200 222// 00016 333 91235;
0110997257999992005011903004+45983-083900FM-18+0189DTLM V02099999999999999999N9999999N1-00861+99999101461ADDMD1610621+9999SA1+0169REMSYN076CMTI   46// DTLM4 46/// ///23 11086 40146 56062 90300 222// 00016 333 91231;
0110997257999992005011904004+45983-083900FM-18+0189DTLM V02099999999999999999N9999999N1-00831+99999101291ADDMD1610561+9999SA1+0169REMSYN076CMTI   46// DTLM4 46/// ///20 11083 40129 56056 90400 222// 00016 333 91230;
0110997257999992005011905004+45983-083900FM-18+0189DTLM V02099999999999999999N9999999N1-00791+99999101141ADDMD1710471+9999SA1+0169REMSYN076CMTI   46// DTLM4 46/// ///19 11079 40114 57047 90500 222// 00016 333 91227;
0110997257999992005011906004+45983-083900FM-18+0189DTLM V02099999999999999999N9999999N1-00801+99999100941ADDMD1810521+9999SA1+0169REMSYN076CMTI   46// DTLM4 46/// ///18 11080 40094 58052 90600 222// 00016 333 91223;
0110997257999992005011907004+45983-083900FM-18+0189DTLM V02099999999999999999N9999999N1-00761+99999100791ADDMD1710501+9999SA1+0169REMSYN076CMTI   46// DTLM4 46/// ///16 11076 40079 57050 90700 222// 00016 333 91220;
0110997257999992005011908004+45983-083900FM-18+0189DTLM V02099999999999999999N9999999N1-00761+99999100651ADDMD1610491+9999SA1+0159REMSYN076CMTI   46// DTLM4 46/// ///15 11076 40065 56049 90800 222// 00015 333 91219;
0110997257999992005011909004+45983-083900FM-18+0189DTLM V02099999999999999999N9999999N1-00701+99999100541ADDMD1610401+9999SA1+0169REMSYN076CMTI   46// DTLM4 46/// ///10 11070 40054 56040 90900 222// 00016 333 91217;
0110997257999992005011910004+45983-083900FM-18+0189DTLM V02099999999999999999N9999999N1-00711+99999100451ADDMD1610341+9999SA1+0169REMSYN076CMTI   46// DTLM4 46/// ///08 11071 40045 56034 91000 222// 00016 333 91218;
0110997257999992005011911004+45983-083900FM-18+0189DTLM V02099999999999999999N9999999N1-00671+99999100421ADDMD1610231+9999SA1+0149REMSYN076CMTI   46// DTLM4 46/// ///05 11067 40042 56023 91100 222// 00014 333 91211;
0110997257999992005011912004+45983-083900FM-18+0189DTLM V02099999999999999999N9999999N1-00671+99999100481ADDMD1510061+9999SA1+0159REMSYN076CMTI   46// DTLM4 46/// ///06 11067 40048 55006 91200 222// 00015 333 91210;
0110997257999992005011913004+45983-083900FM-18+0189DTLM V02099999999999999999N9999999N1-00731+99999100521ADDMD1310071+9999SA1+0149REMSYN076CMTI   46// DTLM4 46/// ///07 11073 40052 53007 91300 222// 00014 333 91209;
0110997257999992005011914004+45983-083900FM-18+0189DTLM V02099999999999999999N9999999N1-00751+99999100581ADDMD1210161+9999SA1+0159REMSYN076CMTI   46// DTLM4 46/// ///06 11075 40058 52016 91400 222// 00015 333 91209;
0110997257999992005011915004+45983-083900FM-18+0189DTLM V02099999999999999999N9999999N1-00731+99999100671ADDMD1310191+9999SA1+0159REMSYN076CMTI   46// DTLM4 46/// ///05 11073 40067 53019 91500 222// 00015 333 91209;
0110997257999992005011916004+45983-083900FM-18+0189DTLM V02099999999999999999N9999999N1-00631+99999100761ADDMD1310241+9999SA1+0159REMSYN076CMTI   46// DTLM4 46/// ///07 11063 40076 53024 91600 222// 00015 333 91210;
0110997257999992005011917004+45983-083900FM-18+0189DTLM V02099999999999999999N9999999N1-00551+99999100771ADDMD1110191+9999SA1+0169REMSYN076CMTI   46// DTLM4 46/// ///06 11055 40077 51019 91700 222// 00016 333 91210;
0110997257999992005011918004+45983-083900FM-18+0189DTLM V02099999999999999999N9999999N1-00381+99999100711ADDMD1010041+9999SA1+0159REMSYN076CMTI   46// DTLM4 46/// ///08 11038 40071 50004 91800 222// 00015 333 91214;
0110997257999992005011919004+45983-083900FM-18+0189DTLM V02099999999999999999N9999999N1-00531+99999100871ADDMD1310111+9999SA1+0179REMSYN076CMTI   46// DTLM4 46/// ///12 11053 40087 53011 91900 222// 00017 333 91218;
0110997257999992005011920004+45983-083900FM-18+0189DTLM V02099999999999999999N9999999N1-00601+99999101051ADDMD1310281+9999SA1+0179REMSYN076CMTI   46// DTLM4 46/// ///12 11060 40105 53028 92000 222// 00017 333 91223;
0110997257999992005011921004+45983-083900FM-18+0189DTLM V02099999999999999999N9999999N1-00741+99999101261ADDMD1310551+9999SA1+0179REMSYN076CMTI   46// DTLM4 46/// ///16 11074 40126 53055 92100 222// 00017 333 91221;
0110997257999992005011922004+45983-083900FM-18+0189DTLM V02099999999999999999N9999999N1-00941+99999101461ADDMD1310591+9999SA1+0169REMSYN076CMTI   46// DTLM4 46/// ///11 11094 40146 53059 92200 222// 00016 333 91217;
0110997257999992005011923004+45983-083900FM-18+0189DTLM V02099999999999999999N9999999N1-01071+99999101651ADDMD1110601+9999SA1+0169REMSYN076CMTI   46// DTLM4 46/// ///12 11107 40165 51060 92300 222// 00016 333 91220;
0090997257999992005012000004+45983-083900FM-18+0189DTLM V02099999999999999999N9999999N1-01261+99999101841ADDSA1+0179REMSYN070CMTI   46// DTLM4 46/// ///08 11126 40184 90006 222// 00017 333 91212;
0110997257999992005012001004+45983-083900FM-18+0189DTLM V02099999999999999999N9999999N1-01401+99999101971ADDMD1210511+9999SA1+0179REMSYN076CMTI   46// DTLM4 46/// ///08 11140 40197 52051 90100 222// 00017 333 91211;
0110997257999992005012002004+45983-083900FM-18+0189DTLM V02099999999999999999N9999999N1-01521+99999102091ADDMD1210441+9999SA1+0179REMSYN076CMTI   46// DTLM4 46/// ///07 11152 40209 52044 90200 222// 00017 333 91215;
0090997257999992005012004004+45983-083900FM-18+0189DTLM V02099999999999999999N9999999N1-01661+99999102231ADDSA1+0169REMSYN070CMTI   46// DTLM4 46/// ///11 11166 40223 90418 222// 00016 333 91215;
0110997257999992005012005004+45983-083900FM-18+0189DTLM V02099999999999999999N9999999N1-01631+99999102251ADDMD1310161+9999SA1+0169REMSYN076CMTI   46// DTLM4 46/// ///14 11163 40225 53016 90500 222// 00016 333 91215;
0110997257999992005012006004+45983-083900FM-18+0189DTLM V02099999999999999999N9999999N1-01721+99999102331ADDMD1310211+9999SA1+0179REMSYN076CMTI   46// DTLM4 46/// ///13 11172 40233 53021 90600 222// 00017 333 91215;
0110997257999992005012007004+45983-083900FM-18+0189DTLM V02099999999999999999N9999999N1-01811+99999102311ADDMD1110121+9999SA1+0169REMSYN076CMTI   46// DTLM4 46/// ///14 11181 40231 51012 90700 222// 00016 333 91217;
0110997257999992005012008004+45983-083900FM-18+0189DTLM V02099999999999999999N9999999N1-01821+99999102351ADDMD1110101+9999SA1+0169REMSYN076CMTI   46// DTLM4 46/// ///13 11182 40235 51010 90800 222// 00016 333 91216;
0110997257999992005012009004+45983-083900FM-18+0189DTLM V02099999999999999999N9999999N1-01841+99999102301ADDMD1810031+9999SA1+0169REMSYN076CMTI   46// DTLM4 46/// ///11 11184 40230 58003 90900 222// 00016 333 91214;
0110997257999992005012010004+45983-083900FM-18+0189DTLM V02099999999999999999N9999999N1-01901+99999102311ADDMD1010001+9999SA1+0159REMSYN076CMTI   46// DTLM4 46/// ///11 11190 40231 50000 91000 222// 00015 333 91213;
0110997257999992005012011004+45983-083900FM-18+0189DTLM V02099999999999999999N9999999N1-01901+99999102311ADDMD1610041+9999SA1+0169REMSYN076CMTI   46// DTLM4 46/// ///08 11190 40231 56004 91100 222// 00016 333 91212;
0110997257999992005012012004+45983-083900FM-18+0189DTLM V02099999999999999999N9999999N1-01911+99999102331ADDMD1210031+9999SA1+0179REMSYN076CMTI   46// DTLM4 46/// ///09 11191 40233 52003 91200 222// 00017 333 91211;
0110997257999992005012013004+45983-083900FM-18+0189DTLM V02099999999999999999N9999999N1-01921+99999102381ADDMD1310071+9999SA1+0169REMSYN076CMTI   46// DTLM4 46/// ///09 11192 40238 53007 91300 222// 00016 333 91211;
0110997257999992005012014004+45983-083900FM-18+0189DTLM V02099999999999999999N9999999N1-01901+99999102411ADDMD1310101+9999SA1+0179REMSYN076CMTI   46// DTLM4 46/// ///09 11190 40241 53010 91400 222// 00017 333 91212;
0110997257999992005012015004+45983-083900FM-18+0189DTLM V02099999999999999999N9999999N1-01921+99999102471ADDMD1310141+9999SA1+0179REMSYN076CMTI   46// DTLM4 46/// ///08 11192 40247 53014 91500 222// 00017 333 91211;
0090997257999992005012016004+45983-083900FM-18+0189DTLM V02099999999999999999N9999999N1-01861+99999102471ADDSA1+0179REMSYN070CMTI   46// DTLM4 46/// ///08 11186 40247 91606 222// 00017 333 91210;
0090997257999992005012017004+45983-083900FM-18+0189DTLM V02099999999999999999N9999999N1-01851+99999102441ADDSA1+0179REMSYN070CMTI   46// DTLM4 46/// ///09 11185 40244 91718 222// 00017 333 91212;
0090997257999992005012018004+45983-083900FM-18+0189DTLM V02099999999999999999N9999999N1-01871+99999102391ADDSA1+0169REMSYN070CMTI   46// DTLM4 46/// ///08 11187 40239 91806 222// 00016 333 91210;
0090997257999992005012019004+45983-083900FM-18+0189DTLM V02099999999999999999N9999999N1-01871+99999102341ADDSA1+0169REMSYN070CMTI   46// DTLM4 46/// ///06 11187 40234 91900 222// 00016 333 91209;
0110997257999992005012020004+45983-083900FM-18+0189DTLM V02099999999999999999N9999999N1-01791+99999102351ADDMD1710111+9999SA1+0179REMSYN076CMTI   46// DTLM4 46/// ///08 11179 40235 57011 92000 222// 00017 333 91210;
0090997257999992005012021004+45983-083900FM-18+0189DTLM V02099999999999999999N9999999N1-01701+99999102351ADDSA1+0169REMSYN070CMTI   46// DTLM4 46/// ///07 11170 40235 92100 222// 00016 333 91209;
0090997257999992005012022004+45983-083900FM-18+0189DTLM V02099999999999999999N9999999N1-01691+99999102371ADDSA1+0169REMSYN070CMTI   46// DTLM4 46/// ///04 11169 40237 92200 222// 00016 333 91206;
0110997257999992005012023004+45983-083900FM-18+0189DTLM V02099999999999999999N9999999N1-01781+99999102421ADDMD1210071+9999SA1+0159REMSYN076CMTI   46// DTLM4 46/// ///03 11178 40242 52007 92300 222// 00015 333 91203;
0110997257999992005012100004+45983-083900FM-18+0189DTLM V02099999999999999999N9999999N1-01811+99999102471ADDMD1210121+9999SA1+0169REMSYN076CMTI   46// DTLM4 46/// ///03 11181 40247 52012 90000 222// 00016 333 91205;
0090997257999992005012101004+45983-083900FM-18+0189DTLM V02099999999999999999N9999999N1-01831+99999102521ADDSA1+0179REMSYN070CMTI   46// DTLM4 46/// ///04 11183 40252 90100 222// 00017 333 91206;
0110997257999992005012102004+45983-083900FM-18+0189DTLM V02099999999999999999N9999999N1-01851+99999102551ADDMD1110131+9999SA1+0169REMSYN076CMTI   46// DTLM4 46/// ///05 11185 40255 51013 90200 222// 00016 333 91207;
0110997257999992005012103004+45983-083900FM-18+0189DTLM V02099999999999999999N9999999N1-01951+99999102581ADDMD1110111+9999SA1+0179REMSYN076CMTI   46// DTLM4 46/// ///05 11195 40258 51011 90300 222// 00017 333 91206;
0110997257999992005012104004+45983-083900FM-18+0189DTLM V02099999999999999999N9999999N1-02021+99999102651ADDMD1310131+9999SA1+0179REMSYN076CMTI   46// DTLM4 46/// ///09 11202 40265 53013 90400 222// 00017 333 91211;
0110997257999992005012105004+45983-083900FM-18+0189DTLM V02099999999999999999N9999999N1-02031+99999102721ADDMD1310171+9999SA1+0179REMSYN076CMTI   46// DTLM4 46/// ///10 11203 40272 53017 90500 222// 00017 333 91212;
0110997257999992005012107004+45983-083900FM-18+0189DTLM V02099999999999999999N9999999N1-02241+99999102781ADDMD1210131+9999SA1+0179REMSYN076CMTI   46// DTLM4 46/// ///05 11224 40278 52013 90700 222// 00017 333 91207;
0110997257999992005012108004+45983-083900FM-18+0189DTLM V02099999999999999999N9999999N1-02251+99999102851ADDMD1210131+9999SA1+0179REMSYN076CMTI   46// DTLM4 46/// ///07 11225 40285 52013 90800 222// 00017 333 91209;
0090997257999992005012109004+45983-083900FM-18+0189DTLM V02099999999999999999N9999999N1-02311+99999102881ADDSA1+0189REMSYN070CMTI   46// DTLM4 46/// ///06 11231 40288 90900 222// 00018 333 91208;
0110997257999992005012110004+45983-083900FM-18+0189DTLM V02099999999999999999N9999999N1-02361+99999102901ADDMD1110121+9999SA1+0179REMSYN076CMTI   46// DTLM4 46/// ///08 11236 40290 51012 91000 222// 00017 333 91209;
0110997257999992005012111004+45983-083900FM-18+0189DTLM V02099999999999999999N9999999N1-02411+99999102931ADDMD1210081+9999SA1+0189REMSYN076CMTI   46// DTLM4 46/// ///06 11241 40293 52008 91100 222// 00018 333 91209;
0110997257999992005012112004+45983-083900FM-18+0189DTLM V02099999999999999999N9999999N1-02461+99999102961ADDMD1310081+9999SA1+0189REMSYN076CMTI   46// DTLM4 46/// ///08 11246 40296 53008 91200 222// 00018 333 91209;
0110997257999992005012113004+45983-083900FM-18+0189DTLM V02099999999999999999N9999999N1-02461+99999103011ADDMD1310111+9999SA1+0189REMSYN076CMTI   46// DTLM4 46/// ///06 11246 40301 53011 91300 222// 00018 333 91207;
0110997257999992005012114004+45983-083900FM-18+0189DTLM V02099999999999999999N9999999N1-02501+99999103021ADDMD1110091+9999SA1+0179REMSYN076CMTI   46// DTLM4 46/// ///05 11250 40302 51009 91400 222// 00017 333 91207;
0090997257999992005012115004+45983-083900FM-18+0189DTLM V02099999999999999999N9999999N1-02341+99999103051ADDSA1+0189REMSYN070CMTI   46// DTLM4 46/// ///05 11234 40305 91554 222// 00018 333 91207;
0110997257999992005012116004+45983-083900FM-18+0189DTLM V02099999999999999999N9999999N1-02331+99999103041ADDMD1310031+9999SA1+0179REMSYN076CMTI   46// DTLM4 46/// ///05 11233 40304 53003 91600 222// 00017 333 91206;
0090997257999992005012118004+45983-083900FM-18+0189DTLM V02099999999999999999N9999999N1-02151+99999102881ADDSA1+0189REMSYN070CMTI   46// DTLM4 46/// ///09 11215 40288 91818 222// 00018 333 91211;
0090997257999992005012119004+45983-083900FM-18+0189DTLM V02099999999999999999N9999999N1-02091+99999102791ADDSA1+0179REMSYN070CMTI   46// DTLM4 46/// ///11 11209 40279 91918 222// 00017 333 91212;
0090997257999992005012120004+45983-083900FM-18+0189DTLM V02099999999999999999N9999999N1-02041+99999102721ADDSA1+0189REMSYN070CMTI   46// DTLM4 46/// ///10 11204 40272 92000 222// 00018 333 91211;
0090997257999992005012121004+45983-083900FM-18+0189DTLM V02099999999999999999N9999999N1-02061+99999102671ADDSA1+0189REMSYN070CMTI   46// DTLM4 46/// ///10 11206 40267 92100 222// 00018 333 91213;
0090997257999992005012122004+45983-083900FM-18+0189DTLM V02099999999999999999N9999999N1-02001+99999102641ADDSA1+0179REMSYN070CMTI   46// DTLM4 46/// ///09 11200 40264 92200 222// 00017 333 91211;
0110997257999992005012123004+45983-083900FM-18+0189DTLM V02099999999999999999N9999999N1-02061+99999102581ADDMD1810141+9999SA1+0189REMSYN076CMTI   46// DTLM4 46/// ///08 11206 40258 58014 92300 222// 00018 333 91211;
0110997257999992005012200004+45983-083900FM-18+0189DTLM V02099999999999999999N9999999N1-02051+99999102521ADDMD1810151+9999SA1+0189REMSYN076CMTI   46// DTLM4 46/// ///08 11205 40252 58015 90000 222// 00018 333 91209;
0110997257999992005012201004+45983-083900FM-18+0189DTLM V02099999999999999999N9999999N1-02001+99999102491ADDMD1610151+9999SA1+0179REMSYN076CMTI   46// DTLM4 46/// ///09 11200 40249 56015 90100 222// 00017 333 91210;
0110997257999992005012202004+45983-083900FM-18+0189DTLM V02099999999999999999N9999999N1-01931+99999102431ADDMD1710151+9999SA1+0189REMSYN076CMTI   46// DTLM4 46/// ///09 11193 40243 57015 90200 222// 00018 333 91211;
0110997257999992005012203004+45983-083900FM-18+0189DTLM V02099999999999999999N9999999N1-01831+99999102351ADDMD1810171+9999SA1+0179REMSYN076CMTI   46// DTLM4 46/// ///06 11183 40235 58017 90300 222// 00017 333 91208;
0110997257999992005012204004+45983-083900FM-18+0189DTLM V02099999999999999999N9999999N1-01801+99999102231ADDMD1810261+9999SA1+0179REMSYN076CMTI   46// DTLM4 46/// ///08 11180 40223 58026 90400 222// 00017 333 91210;
0110997257999992005012205004+45983-083900FM-18+0189DTLM V02099999999999999999N9999999N1-01741+99999102141ADDMD1810291+9999SA1+0189REMSYN076CMTI   46// DTLM4 46/// ///08 11174 40214 58029 90500 222// 00018 333 91211;
0110997257999992005012207004+45983-083900FM-18+0189DTLM V02099999999999999999N9999999N1-01791+99999102021ADDMD1610211+9999SA1+0189REMSYN076CMTI   46// DTLM4 46/// ///11 11179 40202 56021 90700 222// 00018 333 91214;
0110997257999992005012208004+45983-083900FM-18+0189DTLM V02099999999999999999N9999999N1-01721+99999101971ADDMD1610171+9999SA1+0189REMSYN076CMTI   46// DTLM4 46/// ///16 11172 40197 56017 90800 222// 00018 333 91219;
0110997257999992005012209004+45983-083900FM-18+0189DTLM V02099999999999999999N9999999N1-01691+99999101921ADDMD1710151+9999SA1+0189REMSYN076CMTI   46// DTLM4 46/// ///12 11169 40192 57015 90900 222// 00018 333 91216;
0110997257999992005012210004+45983-083900FM-18+0189DTLM V02099999999999999999N9999999N1-01711+99999101891ADDMD1610131+9999SA1+0189REMSYN076CMTI   46// DTLM4 46/// ///18 11171 40189 56013 91000 222// 00018 333 91223;
0110997257999992005012211004+45983-083900FM-18+0189DTLM V02099999999999999999N9999999N1-01671+99999101911ADDMD1610061+9999SA1+0179REMSYN076CMTI   46// DTLM4 46/// ///15 11167 40191 56006 91100 222// 00017 333 91218;
0110997257999992005012212004+45983-083900FM-18+0189DTLM V02099999999999999999N9999999N1-01681+99999101911ADDMD1510001+9999SA1+0179REMSYN076CMTI   46// DTLM4 46/// ///17 11168 40191 55000 91200 222// 00017 333 91221;
0110997257999992005012213004+45983-083900FM-18+0189DTLM V02099999999999999999N9999999N1-01721+99999101941ADDMD1310051+9999SA1+0179REMSYN076CMTI   46// DTLM4 46/// ///14 11172 40194 53005 91300 222// 00017 333 91217;
