0078997261999992005010100004+43950-086433FM-18+0189LDTM V02099999999999999999N9999999N1+00151+99999101891REMSYN069CMAN  01004 LDTM4 46/// ///14 10015 40189 90006 222// 0003 333 91213;
0078997261999992005010104004+43950-086433FM-18+0189LDTM V02099999999999999999N9999999N1-00111+99999102471REMSYN069CMAN  01044 LDTM4 46/// ///09 11011 40247 9040 222// 00018 333 91222;
0067997261999992005010105004+43950-086433FM-18+0189LDTM V02099999999999999999N9999999N1-00171+99999102631REMSYN058CMTI   46// LDTM4 46/// ///06 11017 40263 90554 333 91216;
0067997261999992005010106004+43950-086433FM-18+0189LDTM V02099999999999999999N9999999N1-00171+99999102631REMSYN058CMTI   46// LDTM4 46/// ///05 11017 40263 90600 333 91212;
0090997261999992005010107004+43950-086433FM-18+0189LDTM V02099999999999999999N9999999N1-00191+99999102691ADDMD1210221+9999REMSYN064CMTI   46// LDTM4 46/// ///07 11019 40269 52022 90700 333 91210;
0067997261999992005010108004+43950-086433FM-18+0189LDTM V02099999999999999999N9999999N1-00231+99999102811REMSYN058CMTI   46// LDTM4 46/// ///07 11023 40281 90800 333 91211;
0090997261999992005010109004+43950-086433FM-18+0189LDTM V02099999999999999999N9999999N1-00241+99999102861ADDMD1110231+9999REMSYN064CMTI   46// LDTM4 46/// ///05 11024 40286 51023 90900 333 91208;
0090997261999992005010110004+43950-086433FM-18+0189LDTM V02099999999999999999N9999999N1-00241+99999102881ADDMD1110191+9999REMSYN064CMTI   46// LDTM4 46/// ///04 11024 40288 51019 91000 333 91207;
0090997261999992005010111004+43950-086433FM-18+0189LDTM V02099999999999999999N9999999N1-00241+99999102951ADDMD1310141+9999REMSYN064CMTI   46// LDTM4 46/// ///02 11024 40295 53014 91100 333 91207;
0090997261999992005010112004+43950-086433FM-18+0189LDTM V02099999999999999999N9999999N1-00271+99999103031ADDMD1310171+9999REMSYN064CMTI   46// LDTM4 46/// ///01 11027 40303 53017 91200 333 91203;
0090997261999992005010113004+43950-086433FM-18+0189LDTM V02099999999999999999N9999999N1-00231+99999103171ADDMD1310291+9999REMSYN064CMTI   46// LDTM4 46/// ///05 11023 40317 53029 91300 333 91210;
0090997261999992005010114004+43950-086433FM-18+0189LDTM V02099999999999999999N9999999N1-00281+99999103231ADDMD1110281+9999REMSYN064CMTI   46// LDTM4 46/// ///05 11028 40323 51028 91400 333 91207;
0090997261999992005010115004+43950-086433FM-18+0189LDTM V02099999999999999999N9999999N1-00281+99999103311ADDMD1110281+9999REMSYN064CMTI   46// LDTM4 46/// ///05 11028 40331 51028 91500 333 91210;
0090997261999992005010116004+43950-086433FM-18+0189LDTM V02099999999999999999N9999999N1-00271+99999103421ADDMD1310251+9999REMSYN064CMTI   46// LDTM4 46/// ///04 11027 40342 53025 91600 333 91207;
0090997261999992005010117004+43950-086433FM-18+0189LDTM V02099999999999999999N9999999N1-00251+99999103371ADDMD1010141+9999REMSYN064CMTI   46// LDTM4 46/// ///07 11025 40337 50014 91700 333 91209;
0067997261999992005010118004+43950-086433FM-18+0189LDTM V02099999999999999999N9999999N1-00211+99999103291REMSYN058CMTI   46// LDTM4 46/// ///05 11021 40329 91824 333 91207;
0101997261999992005010119004+43950-086433FM-18+0189LDTM V02099999999999999999N9999999N1-00131+99999103201ADDMD1710221+9999REMSYN075CMAN  01194 LDTM4 46/// ///04 11013 40320 57022 9190 222// 00019 333 91213;
0067997261999992005010121004+43950-086433FM-18+0189LDTM V02099999999999999999N9999999N1-00061+99999103191REMSYN058CMTI   46// LDTM4 46/// ///07 11006 40319 92106 333 91210;
0078997261999992005010202004+43950-086433FM-18+0189LDTM V02099999999999999999N9999999N1-00141+99999102861REMSYN069CMAN  02024 LDTM4 46/// ///12 11014 40286 9020 222// 00018 333 91210;
0078997261999992005010203004+43950-086433FM-18+0189LDTM V02099999999999999999N9999999N1-00151+99999102731REMSYN069CMAN  02034 LDTM4 46/// ///12 11015 40273 9030 222// 00018 333 91216;
0078997261999992005010204004+43950-086433FM-18+0189LDTM V02099999999999999999N9999999N1-00141+99999102541REMSYN069CMAN  02044 LDTM4 46/// ///17 11014 40254 9040 222// 00018 333 91219;
0101997261999992005010205004+43950-086433FM-18+0189LDTM V02099999999999999999N9999999N1-00081+99999102501ADDMD1610361+9999REMSYN075CMAN  02054 LDTM4 46/// ///09 11008 40250 56036 9050 222// 00018 333 91221;
0067997261999992005010208004+43950-086433FM-18+0189LDTM V02099999999999999999N9999999N1+00071+99999102021REMSYN058CMTI   46// LDTM4 46/// ///09 10007 40202 90824 333 91215;
0067997261999992005010209004+43950-086433FM-18+0189LDTM V02099999999999999999N9999999N1+00071+99999102041REMSYN058CMTI   46// LDTM4 46/// ///03 10007 40204 90900 333 91209;
0067997261999992005010210004+43950-086433FM-18+0189LDTM V02099999999999999999N9999999N1+00141+99999101951REMSYN058CMTI   46// LDTM4 46/// ///09 10014 40195 91000 333 91214;
0067997261999992005010211004+43950-086433FM-18+0189LDTM V02099999999999999999N9999999N1+00171+99999101951REMSYN058CMTI   46// LDTM4 46/// ///09 10017 40195 91100 333 91212;
0090997261999992005010212004+43950-086433FM-18+0189LDTM V02099999999999999999N9999999N1+00271+99999101861ADDMD1710181+9999REMSYN064CMTI   46// LDTM4 46/// ///07 10027 40186 57018 91200 333 91212;
0090997261999992005010213004+43950-086433FM-18+0189LDTM V02099999999999999999N9999999N1+00511+99999101871ADDMD1710081+9999REMSYN064CMTI   46// LDTM4 46/// ///13 10051 40187 57008 91300 333 91219;
0090997261999992005010214004+43950-086433FM-18+0189LDTM V02099999999999999999N9999999N1+00461+99999101961ADDMD1510001+9999REMSYN064CMTI   46// LDTM4 46/// ///11 10046 40196 55000 91400 333 91214;
0090997261999992005010215004+43950-086433FM-18+0189LDTM V02099999999999999999N9999999N1+00381+99999102061ADDMD1310201+9999REMSYN064CMTI   46// LDTM4 46/// ///08 10038 40206 53020 91500 333 91212;
0090997261999992005010216004+43950-086433FM-18+0189LDTM V02099999999999999999N9999999N1+00331+99999102231ADDMD1310361+9999REMSYN064CMTI   46// LDTM4 46/// ///12 10033 40223 53036 91600 333 91219;
0090997261999992005010217004+43950-086433FM-18+0189LDTM V02099999999999999999N9999999N1+00291+99999102221ADDMD1110261+9999REMSYN064CMTI   46// LDTM4 46/// ///10 10029 40222 51026 91700 333 91213;
0090997261999992005010218004+43950-086433FM-18+0189LDTM V02099999999999999999N9999999N1+00251+99999102251ADDMD1110191+9999REMSYN064CMTI   46// LDTM4 46/// ///07 10025 40225 51019 91800 333 91214;
0090997261999992005010219004+43950-086433FM-18+0189LDTM V02099999999999999999N9999999N1+00231+99999102271ADDMD1210041+9999REMSYN064CMTI   46// LDTM4 46/// ///06 10023 40227 52004 91900 333 91212;
0067997261999992005010220004+43950-086433FM-18+0189LDTM V02099999999999999999N9999999N1+00241+99999102271REMSYN058CMTI   46// LDTM4 46/// ///08 10024 40227 92006 333 91212;
0067997261999992005010221004+43950-086433FM-18+0189LDTM V02099999999999999999N9999999N1+00221+99999102421REMSYN058CMTI   46// LDTM4 46/// ///09 10022 40242 92124 333 91212;
0078997261999992005010223004+43950-086433FM-18+0189LDTM V02099999999999999999N9999999N1+00141+99999102551REMSYN069CMAN  02234 LDTM4 46/// ///08 10014 40255 9230 222// 00017 333 91210;
0067997261999992005010301004+43950-086433FM-18+0189LDTM V02099999999999999999N9999999N1+00111+99999102641REMSYN058CMTI   46// LDTM4 46/// ///05 10011 40264 90130 333 91208;
0090997261999992005010302004+43950-086433FM-18+0189LDTM V02099999999999999999N9999999N1+00101+99999102661ADDMD1210111+9999REMSYN064CMTI   46// LDTM4 46/// ///06 10010 40266 52011 90200 333 91208;
0067997261999992005010303004+43950-086433FM-18+0189LDTM V02099999999999999999N9999999N1+00081+99999102701REMSYN058CMTI   46// LDTM4 46/// ///03 10008 40270 90300 333 91205;
0067997261999992005010304004+43950-086433FM-18+0189LDTM V02099999999999999999N9999999N1+00081+99999102771REMSYN058CMTI   46// LDTM4 46/// ///03 10008 40277 90400 333 91206;
0090997261999992005010305004+43950-086433FM-18+0189LDTM V02099999999999999999N9999999N1+00071+99999102761ADDMD1110101+9999REMSYN064CMTI   46// LDTM4 46/// ///04 10007 40276 51010 90500 333 91205;
0090997261999992005010306004+43950-086433FM-18+0189LDTM V02099999999999999999N9999999N1+00071+99999102761ADDMD1110061+9999REMSYN064CMTI   46// LDTM4 46/// ///04 10007 40276 51006 90600 333 91206;
0090997261999992005010307004+43950-086433FM-18+0189LDTM V02099999999999999999N9999999N1+00061+99999102721ADDMD1810051+9999REMSYN064CMTI   46// LDTM4 46/// ///03 10006 40272 58005 90700 333 91205;
0090997261999992005010308004+43950-086433FM-18+0189LDTM V02099999999999999999N9999999N1+00011+99999102731ADDMD1710031+9999REMSYN064CMTI   46// LDTM4 46/// ///03 10001 40273 57003 90800 333 91205;
0090997261999992005010309004+43950-086433FM-18+0189LDTM V02099999999999999999N9999999N1+00001+99999102771ADDMD1510001+9999REMSYN064CMTI   46// LDTM4 46/// ///03 10000 40277 55000 90900 333 91205;
0090997261999992005010310004+43950-086433FM-18+0189LDTM V02099999999999999999N9999999N1+00001+99999102791ADDMD1210071+9999REMSYN064CMTI   46// LDTM4 46/// ///02 10000 40279 52007 91000 333 91205;
0090997261999992005010311004+43950-086433FM-18+0189LDTM V02099999999999999999N9999999N1-00031+99999102701ADDMD1810031+9999REMSYN064CMTI   46// LDTM4 46/// ///00 11003 40270 58003 91100 333 91202;
0090997261999992005010312004+43950-086433FM-18+0189LDTM V02099999999999999999N9999999N1-00041+99999102771ADDMD1510001+9999REMSYN064CMTI   46// LDTM4 46/// ///00 11004 40277 55000 91200 333 91202;
0090997261999992005010313004+43950-086433FM-18+0189LDTM V02099999999999999999N9999999N1-00051+99999102771ADDMD1510001+9999REMSYN064CMTI   46// LDTM4 46/// ///01 11005 40277 55000 91300 333 91202;
0090997261999992005010314004+43950-086433FM-18+0189LDTM V02099999999999999999N9999999N1-00051+99999102781ADDMD1110081+9999REMSYN064CMTI   46// LDTM4 46/// ///02 11005 40278 51008 91400 333 91202;
0090997261999992005010315004+43950-086433FM-18+0189LDTM V02099999999999999999N9999999N1-00041+99999102771ADDMD1410001+9999REMSYN064CMTI   46// LDTM4 46/// ///03 11004 40277 54000 91500 333 91205;
0090997261999992005010316004+43950-086433FM-18+0189LDTM V02099999999999999999N9999999N1+00001+99999102761ADDMD1410001+9999REMSYN064CMTI   46// LDTM4 46/// ///05 10000 40276 54000 91600 333 91208;
0090997261999992005010317004+43950-086433FM-18+0189LDTM V02099999999999999999N9999999N1+00021+99999102691ADDMD1810091+9999REMSYN064CMTI   46// LDTM4 46/// ///05 10002 40269 58009 91700 333 91208;
0090997261999992005010318004+43950-086433FM-18+0189LDTM V02099999999999999999N9999999N1+00001+99999102611ADDMD1810161+9999REMSYN064CMTI   46// LDTM4 46/// ///07 10000 40261 58016 91800 333 91209;
0090997261999992005010319004+43950-086433FM-18+0189LDTM V02099999999999999999N9999999N1-00051+99999102591ADDMD1610171+9999REMSYN064CMTI   46// LDTM4 46/// ///06 11005 40259 56017 91900 333 91209;
0090997261999992005010320004+43950-086433FM-18+0189LDTM V02099999999999999999N9999999N1-00071+99999102521ADDMD1610171+9999REMSYN064CMTI   46// LDTM4 46/// ///05 11007 40252 56017 92000 333 91208;
0090997261999992005010321004+43950-086433FM-18+0189LDTM V02099999999999999999N9999999N1-00071+99999102511ADDMD1710101+9999REMSYN064CMTI   46// LDTM4 46/// ///05 11007 40251 57010 92100 333 91208;
0090997261999992005010322004+43950-086433FM-18+0189LDTM V02099999999999999999N9999999N1-00081+99999102531ADDMD1610061+9999REMSYN064CMTI   46// LDTM4 46/// ///05 11008 40253 56006 92200 333 91208;
0090997261999992005010323004+43950-086433FM-18+0189LDTM V02099999999999999999N9999999N1-00091+99999102561ADDMD1310041+9999REMSYN064CMTI   46// LDTM4 46/// ///03 11009 40256 53004 92300 333 91206;
0090997261999992005010400004+43950-086433FM-18+0189LDTM V02099999999999999999N9999999N1-00101+99999102611ADDMD1310101+9999REMSYN064CMTI   46// LDTM4 46/// ///05 11010 40261 53010 90000 333 91209;
0067997261999992005010402004+43950-086433FM-18+0189LDTM V02099999999999999999N9999999N1-00151+99999102671REMSYN058CMTI   46// LDTM4 46/// ///07 11015 40267 90206 333 91210;
0090997261999992005010403004+43950-086433FM-18+0189LDTM V02099999999999999999N9999999N1-00171+99999102711ADDMD1210101+9999REMSYN064CMTI   46// LDTM4 46/// ///06 11017 40271 52010 90300 333 91208;
0067997261999992005010404004+43950-086433FM-18+0189LDTM V02099999999999999999N9999999N1-00181+99999102771REMSYN058CMTI   46// LDTM4 46/// ///04 11018 40277 90400 333 91205;
0067997261999992005010405004+43950-086433FM-18+0189LDTM V02099999999999999999N9999999N1-00201+99999102721REMSYN058CMTI   46// LDTM4 46/// ///05 11020 40272 90500 333 91207;
0090997261999992005010406004+43950-086433FM-18+0189LDTM V02099999999999999999N9999999N1-00211+99999102681ADDMD1810031+9999REMSYN064CMTI   46// LDTM4 46/// ///04 11021 40268 58003 90600 333 91207;
0090997261999992005010407004+43950-086433FM-18+0189LDTM V02099999999999999999N9999999N1-00221+99999102711ADDMD1510061+9999REMSYN064CMTI   46// LDTM4 46/// ///03 11022 40271 55006 90700 333 91205;
0090997261999992005010408004+43950-086433FM-18+0189LDTM V02099999999999999999N9999999N1-00231+99999102721ADDMD1510001+9999REMSYN064CMTI   46// LDTM4 46/// ///04 11023 40272 55000 90800 333 91207;
0090997261999992005010409004+43950-086433FM-18+0189LDTM V02099999999999999999N9999999N1-00251+99999102761ADDMD1310081+9999REMSYN064CMTI   46// LDTM4 46/// ///04 11025 40276 53008 90900 333 91206;
0090997261999992005010410004+43950-086433FM-18+0189LDTM V02099999999999999999N9999999N1-00261+99999102731ADDMD1010001+9999REMSYN064CMTI   46// LDTM4 46/// ///03 11026 40273 50000 91000 333 91205;
0090997261999992005010411004+43950-086433FM-18+0189LDTM V02099999999999999999N9999999N1-00301+99999102771ADDMD1210051+9999REMSYN064CMTI   46// LDTM4 46/// ///04 11030 40277 52005 91100 333 91206;
0090997261999992005010412004+43950-086433FM-18+0189LDTM V02099999999999999999N9999999N1-00301+99999102791ADDMD1310031+9999REMSYN064CMTI   46// LDTM4 46/// ///06 11030 40279 53003 91200 333 91209;
0090997261999992005010413004+43950-086433FM-18+0189LDTM V02099999999999999999N9999999N1-00301+99999102851ADDMD1310121+9999REMSYN064CMTI   46// LDTM4 46/// ///06 11030 40285 53012 91300 333 91209;
0090997261999992005010414004+43950-086433FM-18+0189LDTM V02099999999999999999N9999999N1-00281+99999102921ADDMD1310151+9999REMSYN064CMTI   46// LDTM4 46/// ///03 11028 40292 53015 91400 333 91205;
0090997261999992005010415004+43950-086433FM-18+0189LDTM V02099999999999999999N9999999N1-00261+99999102951ADDMD1110161+9999REMSYN064CMTI   46// LDTM4 46/// ///05 11026 40295 51016 91500 333 91207;
0090997261999992005010416004+43950-086433FM-18+0189LDTM V02099999999999999999N9999999N1-00241+99999102961ADDMD1110111+9999REMSYN064CMTI   46// LDTM4 46/// ///04 11024 40296 51011 91600 333 91206;
0090997261999992005010417004+43950-086433FM-18+0189LDTM V02099999999999999999N9999999N1-00211+99999102901ADDMD1010001+9999REMSYN064CMTI   46// LDTM4 46/// ///04 11021 40290 50000 91700 333 91205;
0090997261999992005010418004+43950-086433FM-18+0189LDTM V02099999999999999999N9999999N1-00161+99999102861ADDMD1810091+9999REMSYN064CMTI   46// LDTM4 46/// ///04 11016 40286 58009 91800 333 91205;
0090997261999992005010419004+43950-086433FM-18+0189LDTM V02099999999999999999N9999999N1-00141+99999102791ADDMD1810171+9999REMSYN064CMTI   46// LDTM4 46/// ///04 11014 40279 58017 91900 333 91205;
0090997261999992005010420004+43950-086433FM-18+0189LDTM V02099999999999999999N9999999N1-00151+99999102721ADDMD1810181+9999REMSYN064CMTI   46// LDTM4 46/// ///03 11015 40272 58018 92000 333 91205;
0090997261999992005010421004+43950-086433FM-18+0189LDTM V02099999999999999999N9999999N1-00151+99999102751ADDMD1510111+9999REMSYN064CMTI   46// LDTM4 46/// ///05 11015 40275 55011 92100 333 91207;
0090997261999992005010422004+43950-086433FM-18+0189LDTM V02099999999999999999N9999999N1-00171+99999102801ADDMD1510001+9999REMSYN064CMTI   46// LDTM4 46/// ///05 11017 40280 55000 92200 333 91206;
0090997261999992005010423004+43950-086433FM-18+0189LDTM V02099999999999999999N9999999N1-00171+99999102811ADDMD1110091+9999REMSYN064CMTI   46// LDTM4 46/// ///05 11017 40281 51009 92300 333 91208;
0090997261999992005010500004+43950-086433FM-18+0189LDTM V02099999999999999999N9999999N1-00201+99999102821ADDMD1110071+9999REMSYN064CMTI   46// LDTM4 46/// ///07 11020 40282 51007 90000 333 91209;
0090997261999992005010501004+43950-086433FM-18+0189LDTM V02099999999999999999N9999999N1-00201+99999102901ADDMD1310101+9999REMSYN064CMTI   46// LDTM4 46/// ///06 11020 40290 53010 90100 333 91214;
0090997261999992005010502004+43950-086433FM-18+0189LDTM V02099999999999999999N9999999N1-00261+99999102871ADDMD1010061+9999REMSYN064CMTI   46// LDTM4 46/// ///06 11026 40287 50006 90200 333 91210;
0067997261999992005010503004+43950-086433FM-18+0189LDTM V02099999999999999999N9999999N1-00291+99999102861REMSYN058CMTI   46// LDTM4 46/// ///07 11029 40286 90306 333 91210;
0067997261999992005010504004+43950-086433FM-18+0189LDTM V02099999999999999999N9999999N1-00281+99999102851REMSYN058CMTI   46// LDTM4 46/// ///08 11028 40285 90424 333 91212;
0101997261999992005010505004+43950-086433FM-18+0189LDTM V02099999999999999999N9999999N1-00321+99999102821ADDMD1710051+9999REMSYN075CMAN  05054 LDTM4 46/// ///06 11032 40282 57005 9050 222// 00018 333 91216;
0067997261999992005010507004+43950-086433FM-18+0189LDTM V02099999999999999999N9999999N1-00471+99999102921REMSYN058CMTI   46// LDTM4 46/// ///09 11047 40292 90718 333 91213;
0090997261999992005010508004+43950-086433FM-18+0189LDTM V02099999999999999999N9999999N1-00501+99999102931ADDMD1210111+9999REMSYN064CMTI   46// LDTM4 46/// ///09 11050 40293 52011 90800 333 91215;
0066997261999992005010509004+43950-086433FM-18+0189LDTM V02099999999999999999N9999999N1-00531+99999102901REMSYN057CMAN 05094 LDTM4 46/// ///08 11053 40290 90906 333 91216;
0067997261999992005010510004+43950-086433FM-18+0189LDTM V02099999999999999999N9999999N1-00551+99999102821REMSYN058CMTI   46// LDTM4 46/// ///07 11055 40282 91000 333 91213;
0090997261999992005010511004+43950-086433FM-18+0189LDTM V02099999999999999999N9999999N1-00551+99999102841ADDMD1710091+9999REMSYN064CMTI   46// LDTM4 46/// ///06 11055 40284 57009 91100 333 91212;
0067997261999992005010512004+43950-086433FM-18+0189LDTM V02099999999999999999N9999999N1-00581+99999102861REMSYN058CMTI   46// LDTM4 46/// ///06 11058 40286 91200 333 91211;
0090997261999992005010513004+43950-086433FM-18+0189LDTM V02099999999999999999N9999999N1-00601+99999102751ADDMD1810071+9999REMSYN064CMTI   46// LDTM4 46/// ///06 11060 40275 58007 91300 333 91215;
0090997261999992005010514004+43950-086433FM-18+0189LDTM V02099999999999999999N9999999N1-00601+99999102781ADDMD1510061+9999REMSYN064CMTI   46// LDTM4 46/// ///08 11060 40278 55006 91400 333 91214;
0090997261999992005010515004+43950-086433FM-18+0189LDTM V02099999999999999999N9999999N1-00601+99999102791ADDMD1610071+9999REMSYN064CMTI   46// LDTM4 46/// ///06 11060 40279 56007 91500 333 91212;
0078997261999992005010516004+43950-086433FM-18+0189LDTM V02099999999999999999N9999999N1-00621+99999102851REMSYN069CMAN  05164 LDTM4 46/// ///06 11062 40285 9160 222// 00024 333 91216;
0090997261999992005010517004+43950-086433FM-18+0189LDTM V02099999999999999999N9999999N1-00621+99999102791ADDMD1410001+9999REMSYN064CMTI   46// LDTM4 46/// ///08 11062 40279 54000 91700 333 91212;
0090997261999992005010518004+43950-086433FM-18+0189LDTM V02099999999999999999N9999999N1-00601+99999102721ADDMD1710071+9999REMSYN064CMTI   46// LDTM4 46/// ///05 11060 40272 57007 91800 333 91210;
0067997261999992005010519004+43950-086433FM-18+0189LDTM V02099999999999999999N9999999N1-00591+99999102501REMSYN058CMTI   46// LDTM4 46/// ///08 11059 40250 91900 333 91214;
0090997261999992005010520004+43950-086433FM-18+0189LDTM V02099999999999999999N9999999N1-00601+99999102511ADDMD1610281+9999REMSYN064CMTI   46// LDTM4 46/// ///07 11060 40251 56028 92000 333 91212;
0090997261999992005010521004+43950-086433FM-18+0189LDTM V02099999999999999999N9999999N1-00611+99999102371ADDMD1610351+9999REMSYN064CMTI   46// LDTM4 46/// ///05 11061 40237 56035 92100 333 91212;
0090997261999992005010522004+43950-086433FM-18+0189LDTM V02099999999999999999N9999999N1-00611+99999102311ADDMD1810191+9999REMSYN064CMTI   46// LDTM4 46/// ///07 11061 40231 58019 92200 333 91212;
0090997261999992005010523004+43950-086433FM-18+0189LDTM V02099999999999999999N9999999N1-00631+99999102321ADDMD1610191+9999REMSYN064CMTI   46// LDTM4 46/// ///05 11063 40232 56019 92300 333 91212;
0101997261999992005010600004+43950-086433FM-18+0189LDTM V02099999999999999999N9999999N1-00651+99999102271ADDMD1610101+9999REMSYN075CMAN  06004 LDTM4 46/// ///06 11065 40227 56010 9000 222// 00018 333 91209;
0101997261999992005010601004+43950-086433FM-18+0189LDTM V02099999999999999999N9999999N1-00641+99999102261ADDMD1710051+9999REMSYN075CMAN  06014 LDTM4 46/// ///05 11064 40226 57005 9010 222// 00017 333 91209;
0095997261999992005010602004+43950-086433FM-18+0189LDTM V02099999999999999999N9999999N1-00651+99999102221ADDMD1610101+9999REMSYN069CMAN  06024 LDTM4 46/// ///06 11065 40222 56010 9020 00022 333 91218;
0067997261999992005010603004+43950-086433FM-18+0189LDTM V02099999999999999999N9999999N1-00671+99999101941REMSYN058CMTI   46// LDTM4 46/// ///04 11067 40194 90324 333 91211;
0090997261999992005010604004+43950-086433FM-18+0189LDTM V02099999999999999999N9999999N1-00661+99999101941ADDMD1710321+9999REMSYN064CMTI   46// LDTM4 46/// ///07 11066 40194 57032 90400 333 91211;
0090997261999992005010605004+43950-086433FM-18+0189LDTM V02099999999999999999N9999999N1-00661+99999101861ADDMD1710361+9999REMSYN064CMTI   46// LDTM4 46/// ///04 11066 40186 57036 90500 333 91209;
0067997261999992005010606004+43950-086433FM-18+0189LDTM V02099999999999999999N9999999N1-00661+99999101771REMSYN058CMTI   46// LDTM4 46/// ///05 11066 40177 90600 333 91207;
0090997261999992005010607004+43950-086433FM-18+0189LDTM V02099999999999999999N9999999N1-00751+99999101581ADDMD1810361+9999REMSYN064CMTI   46// LDTM4 46/// ///06 11075 40158 58036 90700 333 91211;
0090997261999992005010608004+43950-086433FM-18+0189LDTM V02099999999999999999N9999999N1-00831+99999101401ADDMD1810461+9999REMSYN064CMTI   46// LDTM4 46/// ///06 11083 40140 58046 90800 333 91209;
0090997261999992005010609004+43950-086433FM-18+0189LDTM V02099999999999999999N9999999N1-00841+99999101241ADDMD1610531+9999REMSYN064CMTI   46// LDTM4 46/// ///06 11084 40124 56053 90900 333 91210;
0090997261999992005010610004+43950-086433FM-18+0189LDTM V02099999999999999999N9999999N1-00841+99999101221ADDMD1610361+9999REMSYN064CMTI   46// LDTM4 46/// ///04 11084 40122 56036 91000 333 91208;
0090997261999992005010611004+43950-086433FM-18+0189LDTM V02099999999999999999N9999999N1-00841+99999101271ADDMD1510131+9999REMSYN064CMTI   46// LDTM4 46/// ///06 11084 40127 55013 91100 333 91208;
0090997261999992005010612004+43950-086433FM-18+0189LDTM V02099999999999999999N9999999N1-00841+99999101171ADDMD1810071+9999REMSYN064CMTI   46// LDTM4 46/// ///10 11084 40117 58007 91200 333 91213;
0090997261999992005010613004+43950-086433FM-18+0189LDTM V02099999999999999999N9999999N1-00811+99999101091ADDMD1810131+9999REMSYN064CMTI   46// LDTM4 46/// ///10 11081 40109 58013 91300 333 91214;
0090997261999992005010614004+43950-086433FM-18+0189LDTM V02099999999999999999N9999999N1-00821+99999101021ADDMD1610251+9999REMSYN064CMTI   46// LDTM4 46/// ///09 11082 40102 56025 91400 333 91215;
0090997261999992005010615004+43950-086433FM-18+0189LDTM V02099999999999999999N9999999N1-00791+99999100991ADDMD1610181+9999REMSYN064CMTI   46// LDTM4 46/// ///04 11079 40099 56018 91500 333 91211;
0067997261999992005010616004+43950-086433FM-18+0189LDTM V02099999999999999999N9999999N1-00711+99999101031REMSYN058CMTI   46// LDTM4 46/// ///03 11071 40103 91606 333 91207;
0090997261999992005010617004+43950-086433FM-18+0189LDTM V02099999999999999999N9999999N1-00641+99999101011ADDMD1510001+9999REMSYN064CMTI   46// LDTM4 46/// ///06 11064 40101 55000 91700 333 91208;
0090997261999992005010618004+43950-086433FM-18+0189LDTM V02099999999999999999N9999999N1-00611+99999100971ADDMD1010001+9999REMSYN064CMTI   46// LDTM4 46/// ///05 11061 40097 50000 91800 333 91208;
0067997261999992005010619004+43950-086433FM-18+0189LDTM V02099999999999999999N9999999N1-00521+99999100951REMSYN058CMTI   46// LDTM4 46/// ///03 11052 40095 91906 333 91205;
0090997261999992005010620004+43950-086433FM-18+0189LDTM V02099999999999999999N9999999N1-00441+99999100981ADDMD1710031+9999REMSYN064CMTI   46// LDTM4 46/// ///03 11044 40098 57003 92000 333 91206;
0067997261999992005010621004+43950-086433FM-18+0189LDTM V02099999999999999999N9999999N1-00451+99999101091REMSYN058CMTI   46// LDTM4 46/// ///01 11045 40109 92100 333 91204;
0067997261999992005010622004+43950-086433FM-18+0189LDTM V02099999999999999999N9999999N1-00481+99999101161REMSYN058CMTI   46// LDTM4 46/// ///01 11048 40116 92200 333 91202;
0090997261999992005010623004+43950-086433FM-18+0189LDTM V02099999999999999999N9999999N1-00511+99999101271ADDMD1210291+9999REMSYN064CMTI   46// LDTM4 46/// ///01 11051 40127 52029 92300 333 91201;
0090997261999992005010700004+43950-086433FM-18+0189LDTM V02099999999999999999N9999999N1-00291+99999101371ADDMD1310281+9999REMSYN064CMTI   46// LDTM4 46/// ///05 11029 40137 53028 90000 333 91209;
0090997261999992005010701004+43950-086433FM-18+0189LDTM V02099999999999999999N9999999N1-00311+99999101441ADDMD1110281+9999REMSYN064CMTI   46// LDTM4 46/// ///08 11031 40144 51028 90100 333 91210;
0090997261999992005010702004+43950-086433FM-18+0189LDTM V02099999999999999999N9999999N1-00331+99999101541ADDMD1210271+9999REMSYN064CMTI   46// LDTM4 46/// ///10 11033 40154 52027 90200 333 91213;
0090997261999992005010703004+43950-086433FM-18+0189LDTM V02099999999999999999N9999999N1-00371+99999101611ADDMD1210241+9999REMSYN064CMTI   46// LDTM4 46/// ///08 11037 40161 52024 90300 333 91212;
0090997261999992005010704004+43950-086433FM-18+0189LDTM V02099999999999999999N9999999N1-00351+99999101681ADDMD1110241+9999REMSYN064CMTI   46// LDTM4 46/// ///08 11035 40168 51024 90400 333 91211;
0090997261999992005010705004+43950-086433FM-18+0189LDTM V02099999999999999999N9999999N1-00341+99999101731ADDMD1110191+9999REMSYN064CMTI   46// LDTM4 46/// ///10 11034 40173 51019 90500 333 91212;
0090997261999992005010706004+43950-086433FM-18+0189LDTM V02099999999999999999N9999999N1-00321+99999101761ADDMD1110151+9999REMSYN064CMTI   46// LDTM4 46/// ///09 11032 40176 51015 90600 333 91212;
0090997261999992005010707004+43950-086433FM-18+0189LDTM V02099999999999999999N9999999N1-00331+99999101821ADDMD1310141+9999REMSYN064CMTI   46// LDTM4 46/// ///08 11033 40182 53014 90700 333 91215;
0090997261999992005010708004+43950-086433FM-18+0189LDTM V02099999999999999999N9999999N1-00311+99999101901ADDMD1310171+9999REMSYN064CMTI   46// LDTM4 46/// ///11 11031 40190 53017 90800 333 91214;
0090997261999992005010709004+43950-086433FM-18+0189LDTM V02099999999999999999N9999999N1-00311+99999101891ADDMD1110131+9999REMSYN064CMTI   46// LDTM4 46/// ///08 11031 40189 51013 90900 333 91214;
0090997261999992005010710004+43950-086433FM-18+0189LDTM V02099999999999999999N9999999N1-00291+99999101911ADDMD1110091+9999REMSYN064CMTI   46// LDTM4 46/// ///08 11029 40191 51009 91000 333 91215;
0090997261999992005010711004+43950-086433FM-18+0189LDTM V02099999999999999999N9999999N1-00301+99999102001ADDMD1310101+9999REMSYN064CMTI   46// LDTM4 46/// ///08 11030 40200 53010 91100 333 91217;
0090997261999992005010712004+43950-086433FM-18+0189LDTM V02099999999999999999N9999999N1-00311+99999102021ADDMD1210131+9999REMSYN064CMTI   46// LDTM4 46/// ///08 11031 40202 52013 91200 333 91215;
0090997261999992005010713004+43950-086433FM-18+0189LDTM V02099999999999999999N9999999N1-00321+99999102071ADDMD1110161+9999REMSYN064CMTI   46// LDTM4 46/// ///07 11032 40207 51016 91300 333 91214;
0090997261999992005010714004+43950-086433FM-18+0189LDTM V02099999999999999999N9999999N1-00321+99999102101ADDMD1310101+9999REMSYN064CMTI   46// LDTM4 46/// ///14 11032 40210 53010 91400 333 91216;
0090997261999992005010715004+43950-086433FM-18+0189LDTM V02099999999999999999N9999999N1-00331+99999102231ADDMD1310211+9999REMSYN064CMTI   46// LDTM4 46/// ///13 11033 40223 53021 91500 333 91218;
0090997261999992005010716004+43950-086433FM-18+0189LDTM V02099999999999999999N9999999N1-00321+99999102261ADDMD1210191+9999REMSYN064CMTI   46// LDTM4 46/// ///18 11032 40226 52019 91600 333 91220;
0090997261999992005010717004+43950-086433FM-18+0189LDTM V02099999999999999999N9999999N1-00331+99999102221ADDMD1010121+9999REMSYN064CMTI   46// LDTM4 46/// ///17 11033 40222 50012 91700 333 91223;
0090997261999992005010718004+43950-086433FM-18+0189LDTM V02099999999999999999N9999999N1-00311+99999102141ADDMD1810091+9999REMSYN064CMTI   46// LDTM4 46/// ///16 11031 40214 58009 91800 333 91221;
0090997261999992005010719004+43950-086433FM-18+0189LDTM V02099999999999999999N9999999N1-00221+99999102051ADDMD1810211+9999REMSYN064CMTI   46// LDTM4 46/// ///16 11022 40205 58021 91900 333 91219;
0090997261999992005010720004+43950-086433FM-18+0189LDTM V02099999999999999999N9999999N1-00161+99999102021ADDMD1610201+9999REMSYN064CMTI   46// LDTM4 46/// ///15 11016 40202 56020 92000 333 91218;
0090997261999992005010721004+43950-086433FM-18+0189LDTM V02099999999999999999N9999999N1-00361+99999102041ADDMD1610101+9999REMSYN064CMTI   46// LDTM4 46/// ///07 11036 40204 56010 92100 333 91210;
0090997261999992005010722004+43950-086433FM-18+0189LDTM V02099999999999999999N9999999N1-00351+99999102031ADDMD1510001+9999REMSYN064CMTI   46// LDTM4 46/// ///08 11035 40203 55000 92200 333 91211;
0090997261999992005010723004+43950-086433FM-18+0189LDTM V02099999999999999999N9999999N1-00401+99999102081ADDMD1310061+9999REMSYN064CMTI   46// LDTM4 46/// ///05 11040 40208 53006 92300 333 91211;
0067997261999992005010820004+43950-086433FM-18+0189LDTM V02099999999999999999N9999999N1-00251+99999102651REMSYN058CMTI   46// LDTM4 46/// ///03 11025 40265 92018 333 91208;
0067997261999992005010821004+43950-086433FM-18+0189LDTM V02099999999999999999N9999999N1-00261+99999102661REMSYN058CMTI   46// LDTM4 46/// ///01 11026 40266 92100 333 91202;
0067997261999992005010822004+43950-086433FM-18+0189LDTM V02099999999999999999N9999999N1-00251+99999102701REMSYN058CMTI   46// LDTM4 46/// ///04 11025 40270 92136 333 91205;
0090997261999992005010823004+43950-086433FM-18+0189LDTM V02099999999999999999N9999999N1-00251+99999102751ADDMD1210051+9999REMSYN064CMTI   46// LDTM4 46/// ///07 11025 40275 52005 92300 333 91211;
0067997261999992005010900004+43950-086430FM-18+0189LDTM V02099999999999999999N9999999N1-00231+99999102771REMSYN058CMTI   46// LDTM4 46/// ///08 11023 40277 90000 333 91213;
0090997261999992005010901004+43950-086430FM-18+0189LDTM V02099999999999999999N9999999N1-00241+99999102741ADDMD1010031+9999REMSYN064CMTI   46// LDTM4 46/// ///08 11024 40274 50003 90100 333 91210;
0090997261999992005010902004+43950-086430FM-18+0189LDTM V02099999999999999999N9999999N1-00281+99999102731ADDMD1410001+9999REMSYN064CMTI   46// LDTM4 46/// ///04 11028 40273 54000 90200 333 91206;
0090997261999992005010903004+43950-086430FM-18+0189LDTM V02099999999999999999N9999999N1-00291+99999102731ADDMD1610041+9999REMSYN064CMTI   46// LDTM4 46/// ///04 11029 40273 56004 90300 333 91206;
0090997261999992005010904004+43950-086430FM-18+0189LDTM V02099999999999999999N9999999N1-00311+99999102711ADDMD1710031+9999REMSYN064CMTI   46// LDTM4 46/// ///06 11031 40271 57003 90400 333 91209;
0090997261999992005010905004+43950-086430FM-18+0189LDTM V02099999999999999999N9999999N1-00281+99999102701ADDMD1710031+9999REMSYN064CMTI   46// LDTM4 46/// ///05 11028 40270 57003 90500 333 91209;
0090997261999992005010906004+43950-086430FM-18+0189LDTM V02099999999999999999N9999999N1-00271+99999102581ADDMD1810151+9999REMSYN064CMTI   46// LDTM4 46/// ///06 11027 40258 58015 90600 333 91209;
0090997261999992005010907004+43950-086430FM-18+0189LDTM V02099999999999999999N9999999N1-00241+99999102521ADDMD1810191+9999REMSYN064CMTI   46// LDTM4 46/// ///03 11024 40252 58019 90700 333 91208;
0090997261999992005010908004+43950-086430FM-18+0189LDTM V02099999999999999999N9999999N1-00271+99999102501ADDMD1610201+9999REMSYN064CMTI   46// LDTM4 46/// ///05 11027 40250 56020 90800 333 91208;
0090997261999992005010909004+43950-086430FM-18+0189LDTM V02099999999999999999N9999999N1-00251+99999102451ADDMD1610131+9999REMSYN064CMTI   46// LDTM4 46/// ///06 11025 40245 56013 90900 333 91208;
0090997261999992005010910004+43950-086430FM-18+0189LDTM V02099999999999999999N9999999N1-00211+99999102401ADDMD1810121+9999REMSYN064CMTI   46// LDTM4 46/// ///05 11021 40240 58012 91000 333 91209;
0090997261999992005010911004+43950-086430FM-18+0189LDTM V02099999999999999999N9999999N1-00171+99999102401ADDMD1610101+9999REMSYN064CMTI   46// LDTM4 46/// ///05 11017 40240 56010 91100 333 91208;
0090997261999992005010912004+43950-086430FM-18+0189LDTM V02099999999999999999N9999999N1-00151+99999102331ADDMD1810121+9999REMSYN064CMTI   46// LDTM4 46/// ///07 11015 40233 58012 91200 333 91209;
0090997261999992005010913004+43950-086430FM-18+0189LDTM V02099999999999999999N9999999N1-00141+99999102341ADDMD1710061+9999REMSYN064CMTI   46// LDTM4 46/// ///05 11014 40234 57006 91300 333 91207;
0090997261999992005010914004+43950-086430FM-18+0189LDTM V02099999999999999999N9999999N1-00181+99999102261ADDMD1810141+9999REMSYN064CMTI   46// LDTM4 46/// ///10 11018 40226 58014 91400 333 91212;
0090997261999992005010915004+43950-086430FM-18+0189LDTM V02099999999999999999N9999999N1-00221+99999102221ADDMD1810111+9999REMSYN064CMTI   46// LDTM4 46/// ///10 11022 40222 58011 91500 333 91215;
0090997261999992005010916004+43950-086430FM-18+0189LDTM V02099999999999999999N9999999N1-00211+99999102191ADDMD1610151+9999REMSYN064CMTI   46// LDTM4 46/// ///07 11021 40219 56015 91600 333 91212;
0090997261999992005010917004+43950-086430FM-18+0189LDTM V02099999999999999999N9999999N1-00191+99999102061ADDMD1810201+9999REMSYN064CMTI   46// LDTM4 46/// ///07 11019 40206 58020 91700 333 91211;
0090997261999992005010918004+43950-086430FM-18+0189LDTM V02099999999999999999N9999999N1-00161+99999101951ADDMD1810271+9999REMSYN064CMTI   46// LDTM4 46/// ///07 11016 40195 58027 91800 333 91210;
0090997261999992005010919004+43950-086430FM-18+0189LDTM V02099999999999999999N9999999N1+00011+99999101871ADDMD1610321+9999REMSYN064CMTI   46// LDTM4 46/// ///13 10001 40187 56032 91900 333 91219;
0090997261999992005010920004+43950-086430FM-18+0189LDTM V02099999999999999999N9999999N1+00061+99999101761ADDMD1710301+9999REMSYN064CMTI   46// LDTM4 46/// ///13 10006 40176 57030 92000 333 91218;
0090997261999992005010921004+43950-086430FM-18+0189LDTM V02099999999999999999N9999999N1-00101+99999101641ADDMD1810311+9999REMSYN064CMTI   46// LDTM4 46/// ///06 11010 40164 58031 92100 333 91210;
0090997261999992005010922004+43950-086430FM-18+0189LDTM V02099999999999999999N9999999N1-00091+99999101511ADDMD1810361+9999REMSYN064CMTI   46// LDTM4 46/// ///07 11009 40151 58036 92200 333 91209;
0090997261999992005010923004+43950-086430FM-18+0189LDTM V02099999999999999999N9999999N1-00081+99999101441ADDMD1610321+9999REMSYN064CMTI   46// LDTM4 46/// ///06 11008 40144 56032 92300 333 91209;
0090997261999992005011000004+43950-086433FM-18+0189LDTM V02099999999999999999N9999999N1+00191+99999101471ADDMD1510171+9999REMSYN064CMTI   46// LDTM4 46/// ///17 10019 40147 55017 90000 333 91223;
0090997261999992005011001004+43950-086433FM-18+0189LDTM V02099999999999999999N9999999N1+00181+99999101451ADDMD1610061+9999REMSYN064CMTI   46// LDTM4 46/// ///15 10018 40145 56006 90100 333 91222;
0090997261999992005011002004+43950-086433FM-18+0189LDTM V02099999999999999999N9999999N1+00101+99999101451ADDMD1010001+9999REMSYN064CMTI   46// LDTM4 46/// ///17 10010 40145 50000 90200 333 91223;
0090997261999992005011003004+43950-086433FM-18+0189LDTM V02099999999999999999N9999999N1+00081+99999101461ADDMD1410001+9999REMSYN064CMTI   46// LDTM4 46/// ///16 10008 40146 54000 90300 333 91221;
0090997261999992005011004004+43950-086433FM-18+0189LDTM V02099999999999999999N9999999N1+00031+99999101491ADDMD1310041+9999REMSYN064CMTI   46// LDTM4 46/// ///12 10003 40149 53004 90400 333 91218;
0067997261999992005011005004+43950-086433FM-18+0189LDTM V02099999999999999999N9999999N1+00031+99999101561REMSYN058CMTI   46// LDTM4 46/// ///12 10003 40156 90506 333 91222;
0090997261999992005011006004+43950-086433FM-18+0189LDTM V02099999999999999999N9999999N1+00001+99999101621ADDMD1210161+9999REMSYN064CMTI   46// LDTM4 46/// ///11 10000 40162 52016 90600 333 91220;
0090997261999992005011007004+43950-086433FM-18+0189LDTM V02099999999999999999N9999999N1-00041+99999101671ADDMD1210181+9999REMSYN064CMTI   46// LDTM4 46/// ///07 11004 40167 52018 90700 333 91211;
0067997261999992005011008004+43950-086433FM-18+0189LDTM V02099999999999999999N9999999N1-00031+99999101821REMSYN058CMTI   46// LDTM4 46/// ///12 11003 40182 90800 333 91216;
0090997261999992005011009004+43950-086433FM-18+0189LDTM V02099999999999999999N9999999N1-00031+99999101891ADDMD1310271+9999REMSYN064CMTI   46// LDTM4 46/// ///12 11003 40189 53027 90900 333 91215;
0090997261999992005011010004+43950-086433FM-18+0189LDTM V02099999999999999999N9999999N1-00081+99999101931ADDMD1110261+9999REMSYN064CMTI   46// LDTM4 46/// ///12 11008 40193 51026 91000 333 91216;
0090997261999992005011011004+43950-086433FM-18+0189LDTM V02099999999999999999N9999999N1-00101+99999102011ADDMD1310191+9999REMSYN064CMTI   46// LDTM4 46/// ///08 11010 40201 53019 91100 333 91213;
0090997261999992005011012004+43950-086433FM-18+0189LDTM V02099999999999999999N9999999N1-00131+99999102091ADDMD1310201+9999REMSYN064CMTI   46// LDTM4 46/// ///11 11013 40209 53020 91200 333 91214;
0090997261999992005011013004+43950-086433FM-18+0189LDTM V02099999999999999999N9999999N1-00231+99999102091ADDMD1110161+9999REMSYN064CMTI   46// LDTM4 46/// ///07 11023 40209 51016 91300 333 91210;
0090997261999992005011014004+43950-086433FM-18+0189LDTM V02099999999999999999N9999999N1-00281+99999102221ADDMD1310211+9999REMSYN064CMTI   46// LDTM4 46/// ///07 11028 40222 53021 91400 333 91211;
0061997261999992005011015004+43950-086433FM-18+0189LDTM V02099999999999999999N9999999N1-00321+99999999999REMSYN052CMTI   46// LDTM4 46/// ///10 11032 91500 333 91213;
0061997261999992005011016004+43950-086433FM-18+0189LDTM V02099999999999999999N9999999N1-00361+99999999999REMSYN052CMTI   46// LDTM4 46/// ///11 11036 91600 333 91215;
0090997261999992005011017004+43950-086433FM-18+0189LDTM V02099999999999999999N9999999N1-00401+99999102501ADDMD1110281+9999REMSYN064CMTI   46// LDTM4 46/// ///08 11040 40250 51028 91700 333 91212;
0090997261999992005011018004+43950-086433FM-18+0189LDTM V02099999999999999999N9999999N1-00401+99999102421ADDMD1010031+9999REMSYN064CMTI   46// LDTM4 46/// ///05 11040 40242 50003 91800 333 91209;
0000997261999992005011019004+43950-086433FM-18+0189LDTM V02099999999999999999N9999999N1-00381+99999999999
0061997261999992005011020004+43950-086433FM-18+0189LDTM V02099999999999999999N9999999N1-00361+99999999999REMSYN052CMTI   46// LDTM4 46/// ///05 11036 92006 333 91208;
0061997261999992005011021004+43950-086433FM-18+0189LDTM V02099999999999999999N9999999N1-00381+99999999999REMSYN052CMTI   46// LDTM4 46/// ///04 11038 92106 333 91205;
0061997261999992005011022004+43950-086433FM-18+0189LDTM V02099999999999999999N9999999N1-00391+99999999999REMSYN052CMTI   46// LDTM4 46/// ///00 11039 92200 333 91201;
0061997261999992005011023004+43950-086433FM-18+0189LDTM V02099999999999999999N9999999N1-00401+99999999999REMSYN052CMTI   46// LDTM4 46/// ///02 11040 92300 333 91203;
0061997261999992005011100004+43950-086433FM-18+0189LDTM V02099999999999999999N9999999N1-00411+99999999999REMSYN052CMTI   46// LDTM4 46/// ///03 11041 90000 333 91205;
0061997261999992005011101004+43950-086433FM-18+0189LDTM V02099999999999999999N9999999N1-00421+99999999999REMSYN052CMTI   46// LDTM4 46/// ///04 11042 90100 333 91206;
0000997261999992005011102004+43950-086433FM-18+0189LDTM V02099999999999999999N9999999N1-00421+99999999999
0061997261999992005011103004+43950-086433FM-18+0189LDTM V02099999999999999999N9999999N1-00421+99999999999REMSYN052CMTI   46// LDTM4 46/// ///03 11042 90300 333 91205;
0061997261999992005011104004+43950-086433FM-18+0189LDTM V02099999999999999999N9999999N1-00421+99999999999REMSYN052CMTI   46// LDTM4 46/// ///03 11042 90400 333 91205;
0061997261999992005011105004+43950-086433FM-18+0189LDTM V02099999999999999999N9999999N1-00421+99999999999REMSYN052CMTI   46// LDTM4 46/// ///04 11042 90500 333 91207;
0061997261999992005011106004+43950-086433FM-18+0189LDTM V02099999999999999999N9999999N1-00401+99999999999REMSYN052CMTI   46// LDTM4 46/// ///04 11040 90600 333 91208;
0061997261999992005011107004+43950-086433FM-18+0189LDTM V02099999999999999999N9999999N1-00371+99999999999REMSYN052CMTI   46// LDTM4 46/// ///06 11037 90700 333 91207;
0061997261999992005011108004+43950-086433FM-18+0189LDTM V02099999999999999999N9999999N1-00331+99999999999REMSYN052CMTI   46// LDTM4 46/// ///06 11033 90800 333 91209;
0061997261999992005011109004+43950-086433FM-18+0189LDTM V02099999999999999999N9999999N1-00331+99999999999REMSYN052CMTI   46// LDTM4 46/// ///07 11033 90900 333 91209;
0061997261999992005011110004+43950-086433FM-18+0189LDTM V02099999999999999999N9999999N1-00311+99999999999REMSYN052CMTI   46// LDTM4 46/// ///07 11031 91006 333 91210;
0061997261999992005011111004+43950-086433FM-18+0189LDTM V02099999999999999999N9999999N1-00331+99999999999REMSYN052CMTI   46// LDTM4 46/// ///05 11033 91100 333 91207;
0061997261999992005011112004+43950-086433FM-18+0189LDTM V02099999999999999999N9999999N1-00361+99999999999REMSYN052CMTI   46// LDTM4 46/// ///04 11036 91200 333 91206;
0067997261999992005011114004+43950-086433FM-18+0189LDTM V02099999999999999999N9999999N1-00371+99999101941REMSYN058CMTI   46// LDTM4 46/// ///07 11037 40194 91418 333 91210;
0090997261999992005011115004+43950-086433FM-18+0189LDTM V02099999999999999999N9999999N1-00311+99999101921ADDMD1210031+9999REMSYN064CMTI   46// LDTM4 46/// ///06 11031 40192 52003 91500 333 91210;
0067997261999992005011116004+43950-086433FM-18+0189LDTM V02099999999999999999N9999999N1-00161+99999101911REMSYN058CMTI   46// LDTM4 46/// ///07 11016 40191 91606 333 91212;
0067997261999992005011117004+43950-086433FM-18+0189LDTM V02099999999999999999N9999999N1-00081+99999101861REMSYN058CMTI   46// LDTM4 46/// ///08 11008 40186 91700 333 91212;
0067997261999992005011118004+43950-086433FM-18+0189LDTM V02099999999999999999N9999999N1-00011+99999101731REMSYN058CMTI   46// LDTM4 46/// ///07 11001 40173 91806 333 91211;
0067997261999992005011119004+43950-086433FM-18+0189LDTM V02099999999999999999N9999999N1+00051+99999101651REMSYN058CMTI   46// LDTM4 46/// ///07 10005 40165 91900 333 91211;
0067997261999992005011120004+43950-086433FM-18+0189LDTM V02099999999999999999N9999999N1+00111+99999101661REMSYN058CMTI   46// LDTM4 46/// ///04 10011 40166 92018 333 91206;
0067997261999992005011121004+43950-086433FM-18+0189LDTM V02099999999999999999N9999999N1+00121+99999101661REMSYN058CMTI   46// LDTM4 46/// ///05 10012 40166 92100 333 91208;
0067997261999992005011122004+43950-086433FM-18+0189LDTM V02099999999999999999N9999999N1+00091+99999101641REMSYN058CMTI   46// LDTM4 46/// ///05 10009 40164 92224 333 91208;
0067997261999992005011123004+43950-086433FM-18+0189LDTM V02099999999999999999N9999999N1+00071+99999101681REMSYN058CMTI   46// LDTM4 46/// ///04 10007 40168 92324 333 91206;
0090997261999992005011200004+43950-086433FM-18+0189LDTM V02099999999999999999N9999999N1+00051+99999101621ADDMD1810041+9999REMSYN064CMTI   46// LDTM4 46/// ///09 10005 40162 58004 90000 333 91212;
0101997261999992005011201004+43950-086433FM-18+0189LDTM V02099999999999999999N9999999N1+00071+99999101511ADDMD1810131+9999REMSYN075CMAN  12014 LDTM4 46/// ///10 10007 40151 58013 9010 222// 00015 333 91211;
0017997261999992005011202004+43950-086433FM-18+0189LDTM V02099999999999999999N9999999N1+00071+99999101521ADDMD1610131+9999
0067997261999992005011204004+43950-086433FM-18+0189LDTM V02099999999999999999N9999999N1+00071+99999101371REMSYN058CMTI   46// LDTM4 46/// ///07 10007 40137 90436 333 91212;
0090997261999992005011205004+43950-086433FM-18+0189LDTM V02099999999999999999N9999999N1+00071+99999101351ADDMD1710171+9999REMSYN064CMTI   46// LDTM4 46/// ///08 10007 40135 57017 90500 333 91212;
0090997261999992005011206004+43950-086433FM-18+0189LDTM V02099999999999999999N9999999N1+00051+99999101241ADDMD1710191+9999REMSYN064CMTI   46// LDTM4 46/// ///08 10005 40124 57019 90600 333 91213;
0067997261999992005011207004+43950-086433FM-18+0189LDTM V02099999999999999999N9999999N1+00031+99999101171REMSYN058CMTI   46// LDTM4 46/// ///06 10003 40117 90700 333 91208;
0090997261999992005011208004+43950-086433FM-18+0189LDTM V02099999999999999999N9999999N1+00021+99999101091ADDMD1610261+9999REMSYN064CMTI   46// LDTM4 46/// ///08 10002 40109 56026 90800 333 91213;
0090997261999992005011209004+43950-086433FM-18+0189LDTM V02099999999999999999N9999999N1+00021+99999100941ADDMD1810301+9999REMSYN064CMTI   46// LDTM4 46/// ///11 10002 40094 58030 90900 333 91215;
0090997261999992005011210004+43950-086433FM-18+0189LDTM V02099999999999999999N9999999N1+00041+99999100881ADDMD1610291+9999REMSYN064CMTI   46// LDTM4 46/// ///12 10004 40088 56029 91000 333 91215;
0090997261999992005011211004+43950-086433FM-18+0189LDTM V02099999999999999999N9999999N1+00041+99999100781ADDMD1610311+9999REMSYN064CMTI   46// LDTM4 46/// ///09 10004 40078 56031 91100 333 91214;
0067997261999992005011213004+43950-086433FM-18+0189LDTM V02099999999999999999N9999999N1+00041+99999100581REMSYN058CMTI   46// LDTM4 46/// ///13 10004 40058 91324 333 91218;
0090997261999992005011214004+43950-086433FM-18+0189LDTM V02099999999999999999N9999999N1+00071+99999100551ADDMD1710231+9999REMSYN064CMTI   46// LDTM4 46/// ///11 10007 40055 57023 91400 333 91218;
0067997261999992005011215004+43950-086433FM-18+0189LDTM V02099999999999999999N9999999N1+00101+99999100511REMSYN058CMTI   46// LDTM4 46/// ///06 10010 40051 91500 333 91217;
0067997261999992005011216004+43950-086433FM-18+0189LDTM V02099999999999999999N9999999N1+00151+99999100491REMSYN058CMTI   46// LDTM4 46/// ///11 10015 40049 91600 333 91217;
0090997261999992005011217004+43950-086433FM-18+0189LDTM V02099999999999999999N9999999N1+00191+99999100421ADDMD1810131+9999REMSYN064CMTI   46// LDTM4 46/// ///11 10019 40042 58013 91700 333 91215;
0090997261999992005011218004+43950-086433FM-18+0189LDTM V02099999999999999999N9999999N1+00231+99999100261ADDMD1810251+9999REMSYN064CMTI   46// LDTM4 46/// ///11 10023 40026 58025 91800 333 91215;
0090997261999992005011219004+43950-086433FM-18+0189LDTM V02099999999999999999N9999999N1+00311+99999100151ADDMD1810341+9999REMSYN064CMTI   46// LDTM4 46/// ///05 10031 40015 58034 91900 333 91210;
0090997261999992005011220004+43950-086433FM-18+0189LDTM V02099999999999999999N9999999N1+00391+99999100091ADDMD1610331+9999REMSYN064CMTI   46// LDTM4 46/// ///08 10039 40009 56033 92000 333 91211;
0090997261999992005011221004+43950-086433FM-18+0189LDTM V02099999999999999999N9999999N1+00751+99999100111ADDMD1610151+9999REMSYN064CMTI   46// LDTM4 46/// ///10 10075 40011 56015 92100 333 91214;
0090997261999992005011222004+43950-086433FM-18+0189LDTM V02099999999999999999N9999999N1+00781+99999100111ADDMD1610041+9999REMSYN064CMTI   46// LDTM4 46/// ///12 10078 40011 56004 92200 333 91217;
0090997261999992005011223004+43950-086433FM-18+0189LDTM V02099999999999999999N9999999N1+00691+99999100091ADDMD1410001+9999REMSYN064CMTI   46// LDTM4 46/// ///13 10069 40009 54000 92300 333 91217;
0090997261999992005011300004+43950-086433FM-18+0189LDTM V02099999999999999999N9999999N1+00701+99999099971ADDMD1810141+9999REMSYN064CMTI   46// LDTM4 46/// ///08 10070 49997 58014 90000 333 91210;
0090997261999992005011301004+43950-086433FM-18+0189LDTM V02099999999999999999N9999999N1+00741+99999100021ADDMD1510091+9999REMSYN064CMTI   46// LDTM4 46/// ///17 10074 40002 55009 90100 333 91222;
0090997261999992005011302004+43950-086433FM-18+0189LDTM V02099999999999999999N9999999N1+00821+99999100041ADDMD1610051+9999REMSYN064CMTI   46// LDTM4 46/// ///15 10082 40004 56005 90200 333 91221;
0090997261999992005011303004+43950-086433FM-18+0189LDTM V02099999999999999999N9999999N1+00841+99999100041ADDMD1110071+9999REMSYN064CMTI   46// LDTM4 46/// ///14 10084 40004 51007 90300 333 91219;
0090997261999992005011304004+43950-086433FM-18+0189LDTM V02099999999999999999N9999999N1+00521+99999100071ADDMD1310051+9999REMSYN064CMTI   46// LDTM4 46/// ///04 10052 40007 53005 90400 333 91206;
0090997261999992005011305004+43950-086433FM-18+0189LDTM V02099999999999999999N9999999N1+00421+99999100041ADDMD1010001+9999REMSYN064CMTI   46// LDTM4 46/// ///02 10042 40004 50000 90500 333 91206;
0090997261999992005011306004+43950-086433FM-18+0189LDTM V02099999999999999999N9999999N1+00311+99999100161ADDMD1310121+9999REMSYN064CMTI   46// LDTM4 46/// ///06 10031 40016 53012 90600 333 91209;
0090997261999992005011307004+43950-086433FM-18+0189LDTM V02099999999999999999N9999999N1+00281+99999100151ADDMD1310081+9999REMSYN064CMTI   46// LDTM4 46/// ///06 10028 40015 53008 90700 333 91210;
0090997261999992005011308004+43950-086433FM-18+0189LDTM V02099999999999999999N9999999N1+00231+99999100161ADDMD1110121+9999REMSYN064CMTI   46// LDTM4 46/// ///05 10023 40016 51012 90800 333 91207;
0090997261999992005011309004+43950-086433FM-18+0189LDTM V02099999999999999999N9999999N1+00211+99999100231ADDMD1310071+9999REMSYN064CMTI   46// LDTM4 46/// ///04 10021 40023 53007 90900 333 91208;
0090997261999992005011310004+43950-086433FM-18+0189LDTM V02099999999999999999N9999999N1+00211+99999100251ADDMD1210101+9999REMSYN064CMTI   46// LDTM4 46/// ///03 10021 40025 52010 91000 333 91207;
0090997261999992005011311004+43950-086433FM-18+0189LDTM V02099999999999999999N9999999N1+00191+99999100281ADDMD1110121+9999REMSYN064CMTI   46// LDTM4 46/// ///05 10019 40028 51012 91100 333 91208;
0090997261999992005011312004+43950-086433FM-18+0189LDTM V02099999999999999999N9999999N1+00171+99999100301ADDMD1210071+9999REMSYN064CMTI   46// LDTM4 46/// ///04 10017 40030 52007 91200 333 91209;
0090997261999992005011313004+43950-086433FM-18+0189LDTM V02099999999999999999N9999999N1+00161+99999100131ADDMD1810121+9999REMSYN064CMTI   46// LDTM4 46/// ///03 10016 40013 58012 91300 333 91204;
0090997261999992005011314004+43950-086433FM-18+0189LDTM V02099999999999999999N9999999N1+00211+99999100451ADDMD1310171+9999REMSYN064CMTI   46// LDTM4 46/// ///06 10021 40045 53017 91400 333 91211;
0090997261999992005011315004+43950-086433FM-18+0189LDTM V02099999999999999999N9999999N1+00101+99999100551ADDMD1310251+9999REMSYN064CMTI   46// LDTM4 46/// ///04 10010 40055 53025 91500 333 91209;
0090997261999992005011316004+43950-086433FM-18+0189LDTM V02099999999999999999N9999999N1+00131+99999100651ADDMD1110521+9999REMSYN064CMTI   46// LDTM4 46/// ///08 10013 40065 51052 91600 333 91213;
0101997261999992005011317004+43950-086433FM-18+0189LDTM V02099999999999999999N9999999N1+00061+99999100651ADDMD1110201+9999REMSYN075CMAN  13174 LDTM4 46/// ///06 10006 40065 51020 91700 222// 00016990 59011;
0067997261999992005011318004+43950-086433FM-18+0189LDTM V02099999999999999999N9999999N1-00071+99999100741REMSYN058CMTI   46// LDTM4 46/// ///09 11007 40074 91848 333 91213;
0090997261999992005011319004+43950-086433FM-18+0189LDTM V02099999999999999999N9999999N1-00081+99999100761ADDMD1210111+9999REMSYN064CMTI   46// LDTM4 46/// ///07 11008 40076 52011 91900 333 91211;
0090997261999992005011320004+43950-086433FM-18+0189LDTM V02099999999999999999N9999999N1-00011+99999100801ADDMD1210151+9999REMSYN064CMTI   46// LDTM4 46/// ///07 11001 40080 52015 92000 333 91213;
0067997261999992005011321004+43950-086433FM-18+0189LDTM V02099999999999999999N9999999N1-00041+99999100921REMSYN058CMTI   46// LDTM4 46/// ///07 11004 40092 92100 333 91214;
0090997261999992005011322004+43950-086433FM-18+0189LDTM V02099999999999999999N9999999N1-00071+99999101081ADDMD1310321+9999REMSYN064CMTI   46// LDTM4 46/// ///07 11007 40108 53032 92200 333 91214;
0090997261999992005011323004+43950-086433FM-18+0189LDTM V02099999999999999999N9999999N1-00051+99999101201ADDMD1210401+9999REMSYN064CMTI   46// LDTM4 46/// ///07 11005 40120 52040 92300 333 91211;
0090997261999992005011400004+43950-086433FM-18+0189LDTM V02099999999999999999N9999999N1-00061+99999101391ADDMD1310471+9999REMSYN064CMTI   46// LDTM4 46/// ///10 11006 40139 53047 90000 333 91215;
0090997261999992005011401004+43950-086433FM-18+0189LDTM V02099999999999999999N9999999N1-00131+99999101501ADDMD1110421+9999REMSYN064CMTI   46// LDTM4 46/// ///10 11013 40150 51042 90100 333 91219;
0067997261999992005011402004+43950-086433FM-18+0189LDTM V02099999999999999999N9999999N1-00361+99999101701REMSYN058CMTI   46// LDTM4 46/// ///14 11036 40170 90224 333 91219;
0089997261999992005011404004+43950-086433FM-18+0189LDTM V02099999999999999999N9999999N1-00621+99999101991ADDMD1210491+9999REMSYN063CMAN 14044 LDTM4 46/// ///08 11062 40199 52049 90400 333 91220;
0078997261999992005011405004+43950-086433FM-18+0189LDTM V02099999999999999999N9999999N1-00751+99999102151REMSYN069CMAN  14054 LDTM4 46/// ///08 11075 40215 9050 222// 00015 333 91223;
0000997261999992005011406004+43950-086433FM-18+0189LDTM V02099999999999999999N9999999N1-00871+99999102291
0067997261999992005011408004+43950-086433FM-18+0189LDTM V02099999999999999999N9999999N1-01061+99999102591REMSYN058CMTI   46// LDTM4 46/// ///10 11106 40259 90806 333 91216;
0090997261999992005011409004+43950-086433FM-18+0189LDTM V02099999999999999999N9999999N1-01131+99999102731ADDMD1210441+9999REMSYN064CMTI   46// LDTM4 46/// ///09 11113 40273 52044 90900 333 91215;
0067997261999992005011410004+43950-086433FM-18+0189LDTM V02099999999999999999N9999999N1-01261+99999102861REMSYN058CMTI   46// LDTM4 46/// ///10 11126 40286 91000 333 91218;
0067997261999992005011411004+43950-086433FM-18+0189LDTM V02099999999999999999N9999999N1-01261+99999102991REMSYN058CMTI   46// LDTM4 46/// ///08 11126 40299 91100 333 91216;
0090997261999992005011412004+43950-086433FM-18+0189LDTM V02099999999999999999N9999999N1-01291+99999103071ADDMD1110341+9999REMSYN064CMTI   46// LDTM4 46/// ///09 11129 40307 51034 91200 333 91215;
0090997261999992005011413004+43950-086433FM-18+0189LDTM V02099999999999999999N9999999N1-01311+99999103171ADDMD1110311+9999REMSYN064CMTI   46// LDTM4 46/// ///06 11131 40317 51031 91300 333 91217;
0067997261999992005011414004+43950-086433FM-18+0189LDTM V02099999999999999999N9999999N1-01321+99999103301REMSYN058CMTI   46// LDTM4 46/// ///09 11132 40330 91406 333 91216;
0067997261999992005011415004+43950-086433FM-18+0189LDTM V02099999999999999999N9999999N1-01321+99999103391REMSYN058CMTI   46// LDTM4 46/// ///08 11132 40339 91506 333 91216;
0067997261999992005011416004+43950-086433FM-18+0189LDTM V02099999999999999999N9999999N1-01291+99999103461REMSYN058CMTI   46// LDTM4 46/// ///09 11129 40346 91606 333 91214;
0067997261999992005011417004+43950-086433FM-18+0189LDTM V02099999999999999999N9999999N1-01331+99999103491REMSYN058CMTI   46// LDTM4 46/// ///13 11133 40349 91700 333 91217;
0067997261999992005011418004+43950-086433FM-18+0189LDTM V02099999999999999999N9999999N1-01371+99999103501REMSYN058CMTI   46// LDTM4 46/// ///09 11137 40350 91800 333 91214;
0067997261999992005011419004+43950-086433FM-18+0189LDTM V02099999999999999999N9999999N1-01351+99999103501REMSYN058CMTI   46// LDTM4 46/// ///09 11135 40350 91900 333 91215;
0090997261999992005011420004+43950-086433FM-18+0189LDTM V02099999999999999999N9999999N1-01351+99999103481ADDMD1410001+9999REMSYN064CMTI   46// LDTM4 46/// ///10 11135 40348 54000 92000 333 91213;
0090997261999992005011421004+43950-086433FM-18+0189LDTM V02099999999999999999N9999999N1-01331+99999103541ADDMD1310041+9999REMSYN064CMTI   46// LDTM4 46/// ///07 11133 40354 53004 92100 333 91211;
0090997261999992005011422004+43950-086433FM-18+0189LDTM V02099999999999999999N9999999N1-01311+99999103601ADDMD1310101+9999REMSYN064CMTI   46// LDTM4 46/// ///05 11131 40360 53010 92200 333 91211;
0090997261999992005011423004+43950-086433FM-18+0189LDTM V02099999999999999999N9999999N1-01291+99999103611ADDMD1110131+9999REMSYN064CMTI   46// LDTM4 46/// ///06 11129 40361 51013 92300 333 91212;
0090997261999992005011500004+43950-086433FM-18+0189LDTM V02099999999999999999N9999999N1-01251+99999103641ADDMD1110101+9999REMSYN064CMTI   46// LDTM4 46/// ///07 11125 40364 51010 90000 333 91211;
0090997261999992005011501004+43950-086433FM-18+0189LDTM V02099999999999999999N9999999N1-01231+99999103691ADDMD1310091+9999REMSYN064CMTI   46// LDTM4 46/// ///11 11123 40369 53009 90100 333 91216;
0090997261999992005011502004+43950-086433FM-18+0189LDTM V02099999999999999999N9999999N1-01211+99999103751ADDMD1310141+9999REMSYN064CMTI   46// LDTM4 46/// ///12 11121 40375 53014 90200 333 91216;
0090997261999992005011503004+43950-086433FM-18+0189LDTM V02099999999999999999N9999999N1-01231+99999103781ADDMD1110141+9999REMSYN064CMTI   46// LDTM4 46/// ///10 11123 40378 51014 90300 333 91216;
0090997261999992005011504004+43950-086433FM-18+0189LDTM V02099999999999999999N9999999N1-01251+99999103841ADDMD1210151+9999REMSYN064CMTI   46// LDTM4 46/// ///12 11125 40384 52015 90400 333 91218;
0090997261999992005011505004+43950-086433FM-18+0189LDTM V02099999999999999999N9999999N1-01241+99999103861ADDMD1110111+9999REMSYN064CMTI   46// LDTM4 46/// ///11 11124 40386 51011 90500 333 91215;
0090997261999992005011506004+43950-086433FM-18+0189LDTM V02099999999999999999N9999999N1-01221+99999103891ADDMD1110111+9999REMSYN064CMTI   46// LDTM4 46/// ///10 11122 40389 51011 90600 333 91217;
0090997261999992005011507004+43950-086433FM-18+0189LDTM V02099999999999999999N9999999N1-01171+99999103881ADDMD1210041+9999REMSYN064CMTI   46// LDTM4 46/// ///14 11117 40388 52004 90700 333 91217;
0090997261999992005011508004+43950-086433FM-18+0189LDTM V02099999999999999999N9999999N1-01161+99999103881ADDMD1010001+9999REMSYN064CMTI   46// LDTM4 46/// ///12 11116 40388 50000 90800 333 91218;
0090997261999992005011509004+43950-086433FM-18+0189LDTM V02099999999999999999N9999999N1-01211+99999103881ADDMD1410001+9999REMSYN064CMTI   46// LDTM4 46/// ///12 11121 40388 54000 90900 333 91217;
0090997261999992005011510004+43950-086433FM-18+0189LDTM V02099999999999999999N9999999N1-01201+99999103901ADDMD1410001+9999REMSYN064CMTI   46// LDTM4 46/// ///11 11120 40390 54000 91000 333 91218;
0090997261999992005011511004+43950-086433FM-18+0189LDTM V02099999999999999999N9999999N1-01221+99999103901ADDMD1410001+9999REMSYN064CMTI   46// LDTM4 46/// ///12 11122 40390 54000 91100 333 91218;
0090997261999992005011512004+43950-086433FM-18+0189LDTM V02099999999999999999N9999999N1-01251+99999103961ADDMD1310081+9999REMSYN064CMTI   46// LDTM4 46/// ///13 11125 40396 53008 91200 333 91217;
0090997261999992005011513004+43950-086433FM-18+0189LDTM V02099999999999999999N9999999N1-01271+99999103981ADDMD1210081+9999REMSYN064CMTI   46// LDTM4 46/// ///13 11127 40398 52008 91300 333 91219;
0090997261999992005011514004+43950-086433FM-18+0189LDTM V02099999999999999999N9999999N1-01271+99999104021ADDMD1110121+9999REMSYN064CMTI   46// LDTM4 46/// ///11 11127 40402 51012 91400 333 91218;
0090997261999992005011515004+43950-086433FM-18+0189LDTM V02099999999999999999N9999999N1-01261+99999104071ADDMD1310111+9999REMSYN064CMTI   46// LDTM4 46/// ///12 11126 40407 53011 91500 333 91218;
0090997261999992005011516004+43950-086433FM-18+0189LDTM V02099999999999999999N9999999N1-01261+99999104121ADDMD1310141+9999REMSYN064CMTI   46// LDTM4 46/// ///12 11126 40412 53014 91600 333 91217;
0090997261999992005011517004+43950-086433FM-18+0189LDTM V02099999999999999999N9999999N1-01221+99999104071ADDMD1010051+9999REMSYN064CMTI   46// LDTM4 46/// ///11 11122 40407 50005 91700 333 91215;
0090997261999992005011518004+43950-086433FM-18+0189LDTM V02099999999999999999N9999999N1-01211+99999104021ADDMD1810051+9999REMSYN064CMTI   46// LDTM4 46/// ///12 11121 40402 58005 91800 333 91216;
0090997261999992005011519004+43950-086433FM-18+0189LDTM V02099999999999999999N9999999N1-01171+99999103951ADDMD1810171+9999REMSYN064CMTI   46// LDTM4 46/// ///11 11117 40395 58017 91900 333 91215;
0090997261999992005011520004+43950-086433FM-18+0189LDTM V02099999999999999999N9999999N1-01121+99999103921ADDMD1610151+9999REMSYN064CMTI   46// LDTM4 46/// ///13 11112 40392 56015 92000 333 91217;
0090997261999992005011521004+43950-086433FM-18+0189LDTM V02099999999999999999N9999999N1-01101+99999103921ADDMD1610101+9999REMSYN064CMTI   46// LDTM4 46/// ///13 11110 40392 56010 92100 333 91218;
0090997261999992005011522004+43950-086433FM-18+0189LDTM V02099999999999999999N9999999N1-01101+99999103941ADDMD1510001+9999REMSYN064CMTI   46// LDTM4 46/// ///12 11110 40394 55000 92200 333 91216;
0090997261999992005011523004+43950-086433FM-18+0189LDTM V02099999999999999999N9999999N1-01121+99999103941ADDMD1410001+9999REMSYN064CMTI   46// LDTM4 46/// ///11 11112 40394 54000 92300 333 91215;
0090997261999992005011600004+43950-086433FM-18+0189LDTM V02099999999999999999N9999999N1-01111+99999103981ADDMD1310061+9999REMSYN064CMTI   46// LDTM4 46/// ///11 11111 40398 53006 90000 333 91216;
0090997261999992005011601004+43950-086433FM-18+0189LDTM V02099999999999999999N9999999N1-01171+99999104001ADDMD1210061+9999REMSYN064CMTI   46// LDTM4 46/// ///09 11117 40400 52006 90100 333 91215;
0090997261999992005011602004+43950-086433FM-18+0189LDTM V02099999999999999999N9999999N1-01211+99999104011ADDMD1110071+9999REMSYN064CMTI   46// LDTM4 46/// ///08 11121 40401 51007 90200 333 91214;
0090997261999992005011603004+43950-086433FM-18+0189LDTM V02099999999999999999N9999999N1-01211+99999104001ADDMD1410001+9999REMSYN064CMTI   46// LDTM4 46/// ///06 11121 40400 54000 90300 333 91211;
0090997261999992005011604004+43950-086433FM-18+0189LDTM V02099999999999999999N9999999N1-01231+99999104011ADDMD1410001+9999REMSYN064CMTI   46// LDTM4 46/// ///05 11123 40401 54000 90400 333 91209;
0090997261999992005011605004+43950-086433FM-18+0189LDTM V02099999999999999999N9999999N1-01241+99999104051ADDMD1310041+9999REMSYN064CMTI   46// LDTM4 46/// ///05 11124 40405 53004 90500 333 91209;
0090997261999992005011606004+43950-086433FM-18+0189LDTM V02099999999999999999N9999999N1-01271+99999104041ADDMD1210041+9999REMSYN064CMTI   46// LDTM4 46/// ///06 11127 40404 52004 90600 333 91212;
0090997261999992005011607004+43950-086433FM-18+0189LDTM V02099999999999999999N9999999N1-01331+99999104031ADDMD1010001+9999REMSYN064CMTI   46// LDTM4 46/// ///04 11133 40403 50000 90700 333 91209;
0090997261999992005011608004+43950-086433FM-18+0189LDTM V02099999999999999999N9999999N1-01361+99999104001ADDMD1810051+9999REMSYN064CMTI   46// LDTM4 46/// ///08 11136 40400 58005 90800 333 91213;
0090997261999992005011609004+43950-086433FM-18+0189LDTM V02099999999999999999N9999999N1-01391+99999103951ADDMD1810091+9999REMSYN064CMTI   46// LDTM4 46/// ///03 11139 40395 58009 90900 333 91209;
0090997261999992005011610004+43950-086433FM-18+0189LDTM V02099999999999999999N9999999N1-01361+99999103921ADDMD1710111+9999REMSYN064CMTI   46// LDTM4 46/// ///05 11136 40392 57011 91000 333 91208;
0090997261999992005011611004+43950-086433FM-18+0189LDTM V02099999999999999999N9999999N1-01351+99999103911ADDMD1610091+9999REMSYN064CMTI   46// LDTM4 46/// ///02 11135 40391 56009 91100 333 91207;
0090997261999992005011612004+43950-086433FM-18+0189LDTM V02099999999999999999N9999999N1-01341+99999103911ADDMD1610041+9999REMSYN064CMTI   46// LDTM4 46/// ///03 11134 40391 56004 91200 333 91210;
0090997261999992005011613004+43950-086433FM-18+0189LDTM V02099999999999999999N9999999N1-01311+99999103891ADDMD1710031+9999REMSYN064CMTI   46// LDTM4 46/// ///06 11131 40389 57003 91300 333 91212;
0090997261999992005011614004+43950-086433FM-18+0189LDTM V02099999999999999999N9999999N1-01281+99999103871ADDMD1710041+9999REMSYN064CMTI   46// LDTM4 46/// ///05 11128 40387 57004 91400 333 91210;
0090997261999992005011615004+43950-086433FM-18+0189LDTM V02099999999999999999N9999999N1-01251+99999103851ADDMD1710061+9999REMSYN064CMTI   46// LDTM4 46/// ///04 11125 40385 57006 91500 333 91209;
0090997261999992005011616004+43950-086433FM-18+0189LDTM V02099999999999999999N9999999N1-01221+99999103871ADDMD1410001+9999REMSYN064CMTI   46// LDTM4 46/// ///06 11122 40387 54000 91600 333 91209;
0090997261999992005011617004+43950-086433FM-18+0189LDTM V02099999999999999999N9999999N1-01221+99999103821ADDMD1810051+9999REMSYN064CMTI   46// LDTM4 46/// ///08 11122 40382 58005 91700 333 91212;
0090997261999992005011618004+43950-086433FM-18+0189LDTM V02099999999999999999N9999999N1-01201+99999103731ADDMD1810121+9999REMSYN064CMTI   46// LDTM4 46/// ///08 11120 40373 58012 91800 333 91212;
0090997261999992005011619004+43950-086433FM-18+0189LDTM V02099999999999999999N9999999N1-01201+99999103651ADDMD1810221+9999REMSYN064CMTI   46// LDTM4 46/// ///08 11120 40365 58022 91900 333 91212;
0090997261999992005011620004+43950-086433FM-18+0189LDTM V02099999999999999999N9999999N1-01171+99999103601ADDMD1610221+9999REMSYN064CMTI   46// LDTM4 46/// ///07 11117 40360 56022 92000 333 91214;
0090997261999992005011621004+43950-086433FM-18+0189LDTM V02099999999999999999N9999999N1-01151+99999103561ADDMD1610171+9999REMSYN064CMTI   46// LDTM4 46/// ///09 11115 40356 56017 92100 333 91212;
0090997261999992005011622004+43950-086433FM-18+0189LDTM V02099999999999999999N9999999N1-01141+99999103561ADDMD1610091+9999REMSYN064CMTI   46// LDTM4 46/// ///09 11114 40356 56009 92200 333 91212;
0090997261999992005011623004+43950-086433FM-18+0189LDTM V02099999999999999999N9999999N1-01101+99999103581ADDMD1510001+9999REMSYN064CMTI   46// LDTM4 46/// ///08 11110 40358 55000 92300 333 91215;
0090997261999992005011700004+43950-086430FM-18+0189LDTM V02099999999999999999N9999999N1-01091+99999103581ADDMD1410001+9999REMSYN064CMTI   46// LDTM4 46/// ///06 11109 40358 54000 90000 333 91211;
0090997261999992005011701004+43950-086430FM-18+0189LDTM V02099999999999999999N9999999N1-01091+99999103591ADDMD1210031+9999REMSYN064CMTI   46// LDTM4 46/// ///10 11109 40359 52003 90100 333 91214;
0090997261999992005011702004+43950-086430FM-18+0189LDTM V02099999999999999999N9999999N1-01081+99999103591ADDMD1410001+9999REMSYN064CMTI   46// LDTM4 46/// ///10 11108 40359 54000 90200 333 91214;
0090997261999992005011703004+43950-086430FM-18+0189LDTM V02099999999999999999N9999999N1-01111+99999103561ADDMD1010001+9999REMSYN064CMTI   46// LDTM4 46/// ///05 11111 40356 50000 90300 333 91216;
0090997261999992005011704004+43950-086430FM-18+0189LDTM V02099999999999999999N9999999N1-01101+99999103561ADDMD1710031+9999REMSYN064CMTI   46// LDTM4 46/// ///11 11110 40356 57003 90400 333 91218;
0090997261999992005011705004+43950-086430FM-18+0189LDTM V02099999999999999999N9999999N1-01101+99999103561ADDMD1610031+9999REMSYN064CMTI   46// LDTM4 46/// ///08 11110 40356 56003 90500 333 91214;
0090997261999992005011705004+43950-086433FM-18+0189LDTM V02099999999999999999N9999999N1-01101+99999103561ADDMD1610031+9999REMSYN064CMTI   46// LDTM4 46/// ///08 11110 40356 56003 90500 333 91214;
0090997261999992005011706004+43950-086430FM-18+0189LDTM V02099999999999999999N9999999N1-01121+99999103551ADDMD1410001+9999REMSYN064CMTI   46// LDTM4 46/// ///07 11112 40355 54000 90600 333 91210;
0090997261999992005011707004+43950-086430FM-18+0189LDTM V02099999999999999999N9999999N1-01171+99999103531ADDMD1710031+9999REMSYN064CMTI   46// LDTM4 46/// ///05 11117 40353 57003 90700 333 91212;
0090997261999992005011708004+43950-086430FM-18+0189LDTM V02099999999999999999N9999999N1-01181+99999103571ADDMD1510001+9999REMSYN064CMTI   46// LDTM4 46/// ///07 11118 40357 55000 90800 333 91212;
0090997261999992005011709004+43950-086430FM-18+0189LDTM V02099999999999999999N9999999N1-01231+99999103601ADDMD1310051+9999REMSYN064CMTI   46// LDTM4 46/// ///08 11123 40360 53005 90900 333 91212;
0090997261999992005011710004+43950-086430FM-18+0189LDTM V02099999999999999999N9999999N1-01291+99999103601ADDMD1110071+9999REMSYN064CMTI   46// LDTM4 46/// ///09 11129 40360 51007 91000 333 91217;
0090997261999992005011711004+43950-086430FM-18+0189LDTM V02099999999999999999N9999999N1-01321+99999103621ADDMD1110051+9999REMSYN064CMTI   46// LDTM4 46/// ///06 11132 40362 51005 91100 333 91213;
0090997261999992005011712004+43950-086430FM-18+0189LDTM V02099999999999999999N9999999N1-01311+99999103631ADDMD1210031+9999REMSYN064CMTI   46// LDTM4 46/// ///08 11131 40363 52003 91200 333 91214;
0090997261999992005011713004+43950-086430FM-18+0189LDTM V02099999999999999999N9999999N1-01361+99999103651ADDMD1210051+9999REMSYN064CMTI   46// LDTM4 46/// ///09 11136 40365 52005 91300 333 91213;
0090997261999992005011714004+43950-086430FM-18+0189LDTM V02099999999999999999N9999999N1-01361+99999103711ADDMD1310091+9999REMSYN064CMTI   46// LDTM4 46/// ///06 11136 40371 53009 91400 333 91210;
0090997261999992005011715004+43950-086430FM-18+0189LDTM V02099999999999999999N9999999N1-01391+99999103751ADDMD1310121+9999REMSYN064CMTI   46// LDTM4 46/// ///10 11139 40375 53012 91500 333 91216;
0090997261999992005011716004+43950-086430FM-18+0189LDTM V02099999999999999999N9999999N1-01441+99999103801ADDMD1110151+9999REMSYN064CMTI   46// LDTM4 46/// ///08 11144 40380 51015 91600 333 91215;
0090997261999992005011717004+43950-086430FM-18+0189LDTM V02099999999999999999N9999999N1-01351+99999103781ADDMD1110071+9999REMSYN064CMTI   46// LDTM4 46/// ///07 11135 40378 51007 91700 333 91211;
0090997261999992005011718004+43950-086430FM-18+0189LDTM V02099999999999999999N9999999N1-01321+99999103761ADDMD1010001+9999REMSYN064CMTI   46// LDTM4 46/// ///08 11132 40376 50000 91800 333 91214;
0090997261999992005011719004+43950-086430FM-18+0189LDTM V02099999999999999999N9999999N1-01251+99999103771ADDMD1710031+9999REMSYN064CMTI   46// LDTM4 46/// ///05 11125 40377 57003 91900 333 91213;
0090997261999992005011720004+43950-086430FM-18+0189LDTM V02099999999999999999N9999999N1-01221+99999103781ADDMD1410001+9999REMSYN064CMTI   46// LDTM4 46/// ///09 11122 40378 54000 92000 333 91213;
0090997261999992005011721004+43950-086430FM-18+0189LDTM V02099999999999999999N9999999N1-01201+99999103841ADDMD1310081+9999REMSYN064CMTI   46// LDTM4 46/// ///05 11120 40384 53008 92100 333 91214;
0090997261999992005011722004+43950-086430FM-18+0189LDTM V02099999999999999999N9999999N1-01211+99999103901ADDMD1310131+9999REMSYN064CMTI   46// LDTM4 46/// ///10 11121 40390 53013 92200 333 91216;
0067997261999992005011723004+43950-086430FM-18+0189LDTM V02099999999999999999N9999999N1-01201+99999103991REMSYN058CMTI   46// LDTM4 46/// ///05 11120 40399 92306 333 91210;
0090997261999992005011800004+43950-086433FM-18+0189LDTM V02099999999999999999N9999999N1-01201+99999104031ADDMD1210191+9999REMSYN064CMTI   46// LDTM4 46/// ///04 11120 40403 52019 90000 333 91213;
0090997261999992005011801004+43950-086433FM-18+0189LDTM V02099999999999999999N9999999N1-01321+99999104071ADDMD1210171+9999REMSYN064CMTI   46// LDTM4 46/// ///04 11132 40407 52017 90100 333 91206;
0067997261999992005011802004+43950-086433FM-18+0189LDTM V02099999999999999999N9999999N1-01341+99999104061REMSYN058CMTI   46// LDTM4 46/// ///02 11134 40406 90200 333 91205;
0090997261999992005011803004+43950-086433FM-18+0189LDTM V02099999999999999999N9999999N1-01351+99999104121ADDMD1310091+9999REMSYN064CMTI   46// LDTM4 46/// ///05 11135 40412 53009 90300 333 91208;
0090997261999992005011804004+43950-086433FM-18+0189LDTM V02099999999999999999N9999999N1-01351+99999104161ADDMD1310091+9999REMSYN064CMTI   46// LDTM4 46/// ///05 11135 40416 53009 90400 333 91207;
0090997261999992005011805004+43950-086433FM-18+0189LDTM V02099999999999999999N9999999N1-01351+99999104171ADDMD1110111+9999REMSYN064CMTI   46// LDTM4 46/// ///05 11135 40417 51011 90500 333 91206;
0090997261999992005011806004+43950-086433FM-18+0189LDTM V02099999999999999999N9999999N1-01351+99999104121ADDMD1010001+9999REMSYN064CMTI  46/// LDTM4 46/// ///03 11135 40412 50000 90600 333 91204;
0090997261999992005011807004+43950-086433FM-18+0189LDTM V02099999999999999999N9999999N1-01361+99999104131ADDMD1710031+9999REMSYN064CMTI   46// LDTM4 46/// ///03 11136 40413 57003 90700 333 91206;
0090997261999992005011808004+43950-086433FM-18+0189LDTM V02099999999999999999N9999999N1-01411+99999104071ADDMD1810101+9999REMSYN064CMTI   46// LDTM4 46/// ///07 11141 40407 58010 90800 333 91210;
0090997261999992005011809004+43950-086433FM-18+0189LDTM V02099999999999999999N9999999N1-01411+99999104061ADDMD1710061+9999REMSYN064CMTI   46// LDTM4 46/// ///06 11141 40406 57006 90900 333 91208;
0090997261999992005011810004+43950-086433FM-18+0189LDTM V02099999999999999999N9999999N1-01391+99999104031ADDMD1610101+9999REMSYN064CMTI   46// LDTM4 46/// ///06 11139 40403 56010 91000 333 91209;
0090997261999992005011811004+43950-086433FM-18+0189LDTM V02099999999999999999N9999999N1-01391+99999104061ADDMD1510001+9999REMSYN064CMTI   46// LDTM4 46/// ///05 11139 40406 55000 91100 333 91207;
0090997261999992005011812004+43950-086433FM-18+0189LDTM V02099999999999999999N9999999N1-01451+99999104001ADDMD1810061+9999REMSYN064CMTI   46// LDTM4 46/// ///07 11145 40400 58006 91200 333 91212;
0090997261999992005011813004+43950-086433FM-18+0189LDTM V02099999999999999999N9999999N1-01441+99999103931ADDMD1810101+9999REMSYN064CMTI   46// LDTM4 46/// ///06 11144 40393 58010 91300 333 91209;
0090997261999992005011814004+43950-086433FM-18+0189LDTM V02099999999999999999N9999999N1-01461+99999103931ADDMD1610131+9999REMSYN064CMTI   46// LDTM4 46/// ///07 11146 40393 56013 91400 333 91210;
0090997261999992005011815004+43950-086433FM-18+0189LDTM V02099999999999999999N9999999N1-01381+99999103771ADDMD1810231+9999REMSYN064CMTI   46// LDTM4 46/// ///10 11138 40377 58023 91500 333 91212;
0090997261999992005011816004+43950-086433FM-18+0189LDTM V02099999999999999999N9999999N1-01311+99999103661ADDMD1810271+9999REMSYN064CMTI   46// LDTM4 46/// ///09 11131 40366 58027 91600 333 91212;
0090997261999992005011817004+43950-086433FM-18+0189LDTM V02099999999999999999N9999999N1-01231+99999103521ADDMD1610411+9999REMSYN064CMTI   46// LDTM4 46/// ///09 11123 40352 56041 91700 333 91220;
0090997261999992005011818004+43950-086433FM-18+0189LDTM V02099999999999999999N9999999N1-01161+99999103321ADDMD1810451+9999REMSYN064CMTI   46// LDTM4 46/// ///10 11116 40332 58045 91800 333 91214;
0090997261999992005011819004+43950-086433FM-18+0189LDTM V02099999999999999999N9999999N1-01001+99999103171ADDMD1810491+9999REMSYN064CMTI   46// LDTM4 46/// ///10 11100 40317 58049 91900 333 91215;
0090997261999992005011820004+43950-086433FM-18+0189LDTM V02099999999999999999N9999999N1-00651+99999102911ADDMD1810611+9999REMSYN064CMTI   46// LDTM4 46/// ///18 11065 40291 58061 92000 333 91229;
0090997261999992005011821004+43950-086433FM-18+0189LDTM V02099999999999999999N9999999N1-00641+99999102761ADDMD1710561+9999REMSYN064CMTI   46// LDTM4 46/// ///16 11064 40276 57056 92100 333 91225;
0090997261999992005011822004+43950-086433FM-18+0189LDTM V02099999999999999999N9999999N1-00661+99999102561ADDMD1610611+9999REMSYN064CMTI   46// LDTM4 46/// ///15 11066 40256 56061 92200 333 91224;
0090997261999992005011823004+43950-086433FM-18+0189LDTM V02099999999999999999N9999999N1-00931+99999102341ADDMD1810571+9999REMSYN064CMTI   46// LDTM4 46/// ///13 11093 40234 58057 92300 333 91217;
0090997261999992005011900004+43950-086433FM-18+0189LDTM V02099999999999999999N9999999N1-00921+99999102101ADDMD1810661+9999REMSYN064CMTI   46// LDTM4 46/// ///11 11092 40210 58066 90000 333 91219;
0090997261999992005011901004+43950-086433FM-18+0189LDTM V02099999999999999999N9999999N1-00971+99999101781ADDMD1810781+9999REMSYN064CMTI   46// LDTM4 46/// ///13 11097 40178 58078 90100 333 91224;
0090997261999992005011902004+43950-086433FM-18+0189LDTM V02099999999999999999N9999999N1-00951+99999101641ADDMD1610701+9999REMSYN064CMTI   46// LDTM4 46/// ///12 11095 40164 56070 90200 333 91218;
0090997261999992005011903004+43950-086433FM-18+0189LDTM V02099999999999999999N9999999N1-00881+99999101531ADDMD1610571+9999REMSYN064CMTI   46// LDTM4 46/// ///10 11088 40153 56057 90300 333 91218;
0090997261999992005011904004+43950-086433FM-18+0189LDTM V02099999999999999999N9999999N1-00451+99999101341ADDMD1810441+9999REMSYN064CMTI   46// LDTM4 46/// ///24 11045 40134 58044 90400 333 91229;
0090997261999992005011905004+43950-086433FM-18+0189LDTM V02099999999999999999N9999999N1-00341+99999101191ADDMD1810451+9999REMSYN064CMTI   46// LDTM4 46/// ///33 11034 40119 58045 90500 333 91240;
0090997261999992005011906004+43950-086433FM-18+0189LDTM V02099999999999999999N9999999N1-00301+99999100981ADDMD1810551+9999REMSYN064CMTI   46// LDTM4 46/// ///28 11030 40098 58055 90600 333 91234;
0090997261999992005011907004+43950-086433FM-18+0189LDTM V02099999999999999999N9999999N1-00271+99999100811ADDMD1810531+9999REMSYN064CMTI   46// LDTM4 46/// ///21 11027 40081 58053 90700 333 91232;
0090997261999992005011908004+43950-086433FM-18+0189LDTM V02099999999999999999N9999999N1-00241+99999100671ADDMD1610521+9999REMSYN064CMTI   46// LDTM4 46/// ///22 11024 40067 56052 90800 333 91232;
0090997261999992005011909004+43950-086433FM-18+0189LDTM V02099999999999999999N9999999N1-00161+99999100571ADDMD1610411+9999REMSYN064CMTI   46// LDTM4 46/// ///15 11016 40057 56041 90900 333 91223;
0090997261999992005011910004+43950-086433FM-18+0189LDTM V02099999999999999999N9999999N1-00111+99999100531ADDMD1610281+9999REMSYN064CMTI   46// LDTM4 46/// ///17 11011 40053 56028 91000 333 91225;
0090997261999992005011911004+43950-086433FM-18+0189LDTM V02099999999999999999N9999999N1-00161+99999100641ADDMD1510031+9999REMSYN064CMTI   46// LDTM4 46/// ///11 11016 40064 55003 91100 333 91223;
0090997261999992005011912004+43950-086433FM-18+0189LDTM V02099999999999999999N9999999N1-00221+99999100781ADDMD1310211+9999REMSYN064CMTI   46// LDTM4 46/// ///10 11022 40078 53021 91200 333 91221;
0090997261999992005011913004+43950-086433FM-18+0189LDTM V02099999999999999999N9999999N1-00221+99999100931ADDMD1310401+9999REMSYN064CMTI   46// LDTM4 46/// ///10 11022 40093 53040 91300 333 91218;
0000997261999992005011914004+43950-086433FM-18+0189LDTM V02099999999999999999N9999999N1-00251+99999101101
0090997261999992005011915004+43950-086433FM-18+0189LDTM V02099999999999999999N9999999N1-00271+99999101251ADDMD1210471+9999REMSYN064CMTI   46// LDTM4 46/// ///08 11027 40125 52047 91500 333 91221;
0090997261999992005011916004+43950-086433FM-18+0189LDTM V02099999999999999999N9999999N1-00271+99999101381ADDMD1210451+9999REMSYN064CMTI   46// LDTM4 46/// ///08 11027 40138 52045 91600 333 91217;
0067997261999992005011917004+43950-086433FM-18+0189LDTM V02099999999999999999N9999999N1-00281+99999101471REMSYN058CMTI   46// LDTM4 46/// ///10 11028 40147 91700 333 91214;
0090997261999992005011918004+43950-086433FM-18+0189LDTM V02099999999999999999N9999999N1-00311+99999101581ADDMD1110331+9999REMSYN064CMTI   46// LDTM4 46/// ///11 11031 40158 51033 91800 333 91224;
0090997261999992005011919004+43950-086433FM-18+0189LDTM V02099999999999999999N9999999N1-00361+99999101611ADDMD1110231+9999REMSYN064CMTI   46// LDTM4 46/// ///07 11036 40161 51023 91900 333 91215;
0090997261999992005011920004+43950-086433FM-18+0189LDTM V02099999999999999999N9999999N1-00371+99999101661ADDMD1110191+9999REMSYN064CMTI   46// LDTM4 46/// ///10 11037 40166 51019 92000 333 91216;
0090997261999992005011921004+43950-086433FM-18+0189LDTM V02099999999999999999N9999999N1-00391+99999101781ADDMD1310201+9999REMSYN064CMTI   46// LDTM4 46/// ///08 11039 40178 53020 92100 333 91217;
0090997261999992005011922004+43950-086433FM-18+0189LDTM V02099999999999999999N9999999N1-00411+99999101891ADDMD1310281+9999REMSYN064CMTI   46// LDTM4 46/// ///08 11041 40189 53028 92200 333 91217;
0090997261999992005011923004+43950-086433FM-18+0189LDTM V02099999999999999999N9999999N1-00471+99999102011ADDMD1210351+9999REMSYN064CMTI   46// LDTM4 46/// ///10 11047 40201 52035 92300 333 91217;
0067997261999992005012000004+43950-086433FM-18+0189LDTM V02099999999999999999N9999999N1-00551+99999102111REMSYN058CMTI   46// LDTM4 46/// ///06 11055 40211 90006 333 91222;
0090997261999992005012001004+43950-086433FM-18+0189LDTM V02099999999999999999N9999999N1-00611+99999102171ADDMD1210281+9999REMSYN064CMTI   46// LDTM4 46/// ///08 11061 40217 52028 90100 333 91212;
0090997261999992005012002004+43950-086433FM-18+0189LDTM V02099999999999999999N9999999N1-00601+99999102211ADDMD1210201+9999REMSYN064CMTI   46// LDTM4 46/// ///05 11060 40221 52020 90200 333 91212;
0067997261999992005012004004+43950-086433FM-18+0189LDTM V02099999999999999999N9999999N1-00651+99999102181REMSYN058CMTI   46// LDTM4 46/// ///03 11065 40218 90418 333 91206;
0090997261999992005012005004+43950-086433FM-18+0189LDTM V02099999999999999999N9999999N1-00671+99999102211ADDMD1510001+9999REMSYN064CMTI   46// LDTM4 46/// ///02 11067 40221 55000 90500 333 91205;
0090997261999992005012006004+43950-086433FM-18+0189LDTM V02099999999999999999N9999999N1-00671+99999102221ADDMD1410001+9999REMSYN064CMTI   46// LDTM4 46/// ///03 11067 40222 54000 90600 333 91205;
0090997261999992005012007004+43950-086433FM-18+0189LDTM V02099999999999999999N9999999N1-00681+99999102221ADDMD1110041+9999REMSYN064CMTI   46// LDTM4 46/// ///04 11068 40222 51004 90700 333 91205;
0090997261999992005012008004+43950-086433FM-18+0189LDTM V02099999999999999999N9999999N1-00711+99999102171ADDMD1810041+9999REMSYN064CMTI   46// LDTM4 46/// ///05 11071 40217 58004 90800 333 91207;
0090997261999992005012009004+43950-086433FM-18+0189LDTM V02099999999999999999N9999999N1-00741+99999102111ADDMD1810111+9999REMSYN064CMTI   46// LDTM4 46/// ///05 11074 40211 58011 90900 333 91207;
0090997261999992005012010004+43950-086433FM-18+0189LDTM V02099999999999999999N9999999N1-00771+99999102091ADDMD1610131+9999REMSYN064CMTI   46// LDTM4 46/// ///05 11077 40209 56013 91000 333 91208;
0090997261999992005012011004+43950-086433FM-18+0189LDTM V02099999999999999999N9999999N1-00791+99999102061ADDMD1610111+9999REMSYN064CMTI   46// LDTM4 46/// ///04 11079 40206 56011 91100 333 91206;
0090997261999992005012012004+43950-086433FM-18+0189LDTM V02099999999999999999N9999999N1-00791+99999102061ADDMD1710051+9999REMSYN064CMTI   46// LDTM4 46/// ///06 11079 40206 57005 91200 333 91208;
0090997261999992005012013004+43950-086433FM-18+0189LDTM V02099999999999999999N9999999N1-00831+99999102061ADDMD1610031+9999REMSYN064CMTI   46// LDTM4 46/// ///06 11083 40206 56003 91300 333 91209;
0090997261999992005012014004+43950-086433FM-18+0189LDTM V02099999999999999999N9999999N1-00871+99999102101ADDMD1310041+9999REMSYN064CMTI   46// LDTM4 46/// ///07 11087 40210 53004 91400 333 91209;
0090997261999992005012015004+43950-086433FM-18+0189LDTM V02099999999999999999N9999999N1-00901+99999102101ADDMD1210041+9999REMSYN064CMTI   46// LDTM4 46/// ///09 11090 40210 52004 91500 333 91212;
0067997261999992005012016004+43950-086433FM-18+0189LDTM V02099999999999999999N9999999N1-00941+99999102131REMSYN058CMTI   46// LDTM4 46/// ///07 11094 40213 91606 333 91209;
0067997261999992005012017004+43950-086433FM-18+0189LDTM V02099999999999999999N9999999N1-00871+99999102071REMSYN058CMTI   46// LDTM4 46/// ///09 11087 40207 91718 333 91212;
0067997261999992005012018004+43950-086433FM-18+0189LDTM V02099999999999999999N9999999N1-00821+99999102031REMSYN058CMTI   46// LDTM4 46/// ///09 11082 40203 91806 333 91212;
0067997261999992005012019004+43950-086433FM-18+0189LDTM V02099999999999999999N9999999N1-00771+99999101991REMSYN058CMTI   46// LDTM4 46/// ///05 11077 40199 91900 333 91207;
0090997261999992005012020004+43950-086433FM-18+0189LDTM V02099999999999999999N9999999N1-00741+99999101981ADDMD1710141+9999REMSYN064CMTI   46// LDTM4 46/// ///05 11074 40198 57014 92000 333 91209;
0090997261999992005012021004+43950-086433FM-18+0189LDTM V02099999999999999999N9999999N1-00751+99999102001ADDMD1710031+9999REMSYN064CMTI   46// LDTM4 46/// ///05 11075 40200 57003 92100 333 91209;
0161997261999992005012022004+43950-086433FM-18+0189LDTM V02099999999999999999N9999999N1-00801+99999102031REMSYN152CMAN  20224 LDTM4 46/// ///06 11080 40203 9183 92200 222// 00242 333 91206 555 11005 22005 32107 422007 62159 254004 240003 222002 226002 262003 227005;
0214997261999992005012023004+43950-086433FM-18+0189LDTM V02099999999999999999N9999999N1-00731+99999102131ADDMD1210151+9999REMSYN188CMAN  20234 LDTM4 46/// ///05 11073 40213 52015 92308 92305 333 91215 555 11026 22028 32253 430035 62259 297028 299027 298027 297027 29003 242209 119052 107050 104049 106050 103047 101043;
0090997261999992005012100004+43950-086433FM-18+0189LDTM V02099999999999999999N9999999N1-00771+99999102201ADDMD1210191+9999REMSYN064CMTI   46// LDTM4 46/// ///05 11077 40220 52019 90000 333 91207;
0067997261999992005012101004+43950-086433FM-18+0189LDTM V02099999999999999999N9999999N1-00831+99999102291REMSYN058CMTI   46// LDTM4 46/// ///04 11083 40229 90100 333 91207;
0090997261999992005012102004+43950-086433FM-18+0189LDTM V02099999999999999999N9999999N1-00861+99999102321ADDMD1110191+9999REMSYN064CMTI   46// LDTM4 46/// ///05 11086 40232 51019 90200 333 91207;
0090997261999992005012103004+43950-086433FM-18+0189LDTM V02099999999999999999N9999999N1-00891+99999102381ADDMD1110181+9999REMSYN064CMTI   46// LDTM4 46/// ///05 11089 40238 51018 90300 333 91207;
0090997261999992005012104004+43950-086433FM-18+0189LDTM V02099999999999999999N9999999N1-00921+99999102441ADDMD1310151+9999REMSYN064CMTI   46// LDTM4 46/// ///05 11092 40244 53015 90400 333 91207;
0090997261999992005012105004+43950-086433FM-18+0189LDTM V02099999999999999999N9999999N1-00971+99999102441ADDMD1110121+9999REMSYN064CMTI   46// LDTM4 46/// ///03 11097 40244 51012 90500 333 91206;
0090997261999992005012107004+43950-086433FM-18+0189LDTM V02099999999999999999N9999999N1-01161+99999102511ADDMD1210071+9999REMSYN064CMTI   46// LDTM4 46/// ///05 11116 40251 52007 90700 333 91207;
0090997261999992005012108004+43950-086433FM-18+0189LDTM V02099999999999999999N9999999N1-01311+99999102561ADDMD1210121+9999REMSYN064CMTI   46// LDTM4 46/// ///04 11131 40256 52012 90800 333 91206;
0067997261999992005012109004+43950-086433FM-18+0189LDTM V02099999999999999999N9999999N1-01411+99999102621REMSYN058CMTI   46// LDTM4 46/// ///05 11141 40262 90900 333 91207;
0090997261999992005012110004+43950-086433FM-18+0189LDTM V02099999999999999999N9999999N1-01481+99999102681ADDMD1310171+9999REMSYN064CMTI   46// LDTM4 46/// ///05 11148 40268 53017 91000 333 91207;
0090997261999992005012111004+43950-086433FM-18+0189LDTM V02099999999999999999N9999999N1-01581+99999102681ADDMD1110121+9999REMSYN064CMTI   46// LDTM4 46/// ///04 11158 40268 51012 91100 333 91206;
0090997261999992005012112004+43950-086433FM-18+0189LDTM V02099999999999999999N9999999N1-01631+99999102721ADDMD1110101+9999REMSYN064CMTI   46// LDTM4 46/// ///03 11163 40272 51010 91200 333 91205;
0090997261999992005012113004+43950-086433FM-18+0189LDTM V02099999999999999999N9999999N1-01731+99999102761ADDMD1310081+9999REMSYN064CMTI   46// LDTM4 46/// ///04 11173 40276 53008 91300 333 91205;
0090997261999992005012114004+43950-086433FM-18+0189LDTM V02099999999999999999N9999999N1-01731+99999102751ADDMD1110071+9999REMSYN064CMTI   46// LDTM4 46/// ///05 11173 40275 51007 91400 333 91208;
0067997261999992005012115004+43950-086433FM-18+0189LDTM V02099999999999999999N9999999N1-01401+99999102811REMSYN058CMTI   46// LDTM4 46/// ///05 11140 40281 91554 333 91207;
0090997261999992005012116004+43950-086433FM-18+0189LDTM V02099999999999999999N9999999N1-01391+99999102821ADDMD1210061+9999REMSYN064CMTI   46// LDTM4 46/// ///05 11139 40282 52006 91600 333 91207;
0067997261999992005012118004+43950-086433FM-18+0189LDTM V02099999999999999999N9999999N1-00981+99999102611REMSYN058CMTI   46// LDTM4 46/// ///05 11098 40261 91818 333 91208;
0067997261999992005012119004+43950-086433FM-18+0189LDTM V02099999999999999999N9999999N1-00911+99999102531REMSYN058CMTI   46// LDTM4 46/// ///05 11091 40253 91918 333 91208;
0067997261999992005012120004+43950-086433FM-18+0189LDTM V02099999999999999999N9999999N1-00871+99999102471REMSYN058CMTI   46// LDTM4 46/// ///06 11087 40247 92000 333 91211;
0067997261999992005012121004+43950-086433FM-18+0189LDTM V02099999999999999999N9999999N1-00871+99999102341REMSYN058CMTI   46// LDTM4 46/// ///08 11087 40234 92100 333 91212;
0067997261999992005012122004+43950-086433FM-18+0189LDTM V02099999999999999999N9999999N1-00881+99999102261REMSYN058CMTI   46// LDTM4 46/// ///06 11088 40226 92200 333 91208;
0090997261999992005012123004+43950-086433FM-18+0189LDTM V02099999999999999999N9999999N1-00901+99999102191ADDMD1610281+9999REMSYN064CMTI   46// LDTM4 46/// ///05 11090 40219 56028 92300 333 91210;
0090997261999992005012200004+43950-086433FM-18+0189LDTM V02099999999999999999N9999999N1-00911+99999102111ADDMD1710231+9999REMSYN064CMTI   46// LDTM4 46/// ///07 11091 40211 57023 90000 333 91211;
0090997261999992005012201004+43950-086433FM-18+0189LDTM V02099999999999999999N9999999N1-00951+99999102091ADDMD1610171+9999REMSYN064CMTI   46// LDTM4 46/// ///08 11095 40209 56017 90100 333 91215;
0090997261999992005012202004+43950-086433FM-18+0189LDTM V02099999999999999999N9999999N1-00981+99999101971ADDMD1810221+9999REMSYN064CMTI   46// LDTM4 46/// ///11 11098 40197 58022 90200 333 91215;
0090997261999992005012203004+43950-086433FM-18+0189LDTM V02099999999999999999N9999999N1-01001+99999101871ADDMD1810241+9999REMSYN064CMTI   46// LDTM4 46/// ///08 11100 40187 58024 90300 333 91217;
0090997261999992005012204004+43950-086433FM-18+0189LDTM V02099999999999999999N9999999N1-01011+99999101771ADDMD1610321+9999REMSYN064CMTI   46// LDTM4 46/// ///07 11101 40177 56032 90400 333 91213;
0090997261999992005012205004+43950-086433FM-18+0189LDTM V02099999999999999999N9999999N1-01091+99999101621ADDMD1810351+9999REMSYN064CMTI   46// LDTM4 46/// ///09 11109 40162 58035 90500 333 91216;
0090997261999992005012207004+43950-086433FM-18+0189LDTM V02099999999999999999N9999999N1-01151+99999101281ADDMD1710491+9999REMSYN064CMTI   46// LDTM4 46/// ///12 11115 40128 57049 90700 333 91219;
0090997261999992005012208004+43950-086433FM-18+0189LDTM V02099999999999999999N9999999N1-01171+99999101171ADDMD1610451+9999REMSYN064CMTI   46// LDTM4 46/// ///12 11117 40117 56045 90800 333 91217;
0090997261999992005012209004+43950-086433FM-18+0189LDTM V02099999999999999999N9999999N1-01191+99999101101ADDMD1610331+9999REMSYN064CMTI   46// LDTM4 46/// ///11 11119 40110 56033 90900 333 91217;
0090997261999992005012210004+43950-086433FM-18+0189LDTM V02099999999999999999N9999999N1-01231+99999101031ADDMD1610251+9999REMSYN064CMTI   46// LDTM4 46/// ///11 11123 40103 56025 91000 333 91217;
0090997261999992005012211004+43950-086433FM-18+0189LDTM V02099999999999999999N9999999N1-01241+99999101011ADDMD1610161+9999REMSYN064CMTI   46// LDTM4 46/// ///11 11124 40101 56016 91100 333 91217;
0090997261999992005012212004+43950-086433FM-18+0189LDTM V02099999999999999999N9999999N1-01251+99999101021ADDMD1610081+9999REMSYN064CMTI   46// LDTM4 46/// ///12 11125 40102 56008 91200 333 91216;
0090997261999992005012213004+43950-086433FM-18+0189LDTM V02099999999999999999N9999999N1-01261+99999101101ADDMD1310071+9999REMSYN064CMTI   46// LDTM4 46/// ///09 11126 40110 53007 91300 333 91216;
0090997261999992005012214004+43950-086433FM-18+0189LDTM V02099999999999999999N9999999N1-01231+99999101201ADDMD1310191+9999REMSYN064CMTI   46// LDTM4 46/// ///11 11123 40120 53019 91400 333 91219;
0090997261999992005012215004+43950-086433FM-18+0189LDTM V02099999999999999999N9999999N1-01161+99999101341ADDMD1310321+9999REMSYN064CMTI   46// LDTM4 46/// ///09 11116 40134 53032 91500 333 91212;
0090997261999992005012216004+43950-086433FM-18+0189LDTM V02099999999999999999N9999999N1-01081+99999101501ADDMD1310401+9999REMSYN064CMTI   46// LDTM4 46/// ///06 11108 40150 53040 91600 333 91215;
0090997261999992005012217004+43950-086433FM-18+0189LDTM V02099999999999999999N9999999N1-00981+99999101621ADDMD1110421+9999REMSYN064CMTI   46// LDTM4 46/// ///08 11098 40162 51042 91700 333 91217;
0090997261999992005012218004+43950-086433FM-18+0189LDTM V02099999999999999999N9999999N1-00881+99999101721ADDMD1110381+9999REMSYN064CMTI   46// LDTM4 46/// ///09 11088 40172 51038 91800 333 91214;
0090997261999992005012219004+43950-086433FM-18+0189LDTM V02099999999999999999N9999999N1-00781+99999101781ADDMD1110281+9999REMSYN064CMTI   46// LDTM4 46/// ///11 11078 40178 51028 91900 333 91218;
0090997261999992005012220004+43950-086433FM-18+0189LDTM V02099999999999999999N9999999N1-00821+99999101911ADDMD1310291+9999REMSYN064CMTI   46// LDTM4 46/// ///11 11082 40191 53029 92000 333 91220;
0090997261999992005012221004+43950-086433FM-18+0189LDTM V02099999999999999999N9999999N1-00871+99999102101ADDMD1310381+9999REMSYN064CMTI   46// LDTM4 46/// ///13 11087 40210 53038 92100 333 91220;
0090997261999992005012222004+43950-086433FM-18+0189LDTM V02099999999999999999N9999999N1-00981+99999102301ADDMD1310521+9999REMSYN064CMTI   46// LDTM4 46/// ///08 11098 40230 53052 92200 333 91218;
0090997261999992005012223004+43950-086433FM-18+0189LDTM V02099999999999999999N9999999N1-01071+99999102451ADDMD1110541+9999REMSYN064CMTI   46// LDTM4 46/// ///07 11107 40245 51054 92300 333 91214;
0090997261999992005012300004+43950-086430FM-18+0189LDTM V02099999999999999999N9999999N1-01091+99999102621ADDMD1110521+9999REMSYN064CMTI   46// LDTM4 46/// ///06 11109 40262 51052 90000 333 91211;
0090997261999992005012301004+43950-086430FM-18+0189LDTM V02099999999999999999N9999999N1-01111+99999102721ADDMD1110421+9999REMSYN064CMTI   46// LDTM4 46/// ///07 11111 40272 51042 90100 333 91212;
0090997261999992005012302004+43950-086430FM-18+0189LDTM V02099999999999999999N9999999N1-01161+99999102791ADDMD1110341+9999REMSYN064CMTI   46// LDTM4 46/// ///08 11116 40279 51034 90200 333 91213;
0090997261999992005012303004+43950-086430FM-18+0189LDTM V02099999999999999999N9999999N1-01161+99999102881ADDMD1110261+9999REMSYN064CMTI   46// LDTM4 46/// ///05 11116 40288 51026 90300 333 91210;
0090997261999992005012304004+43950-086430FM-18+0189LDTM V02099999999999999999N9999999N1-01131+99999102951ADDMD1210231+9999REMSYN064CMTI   46// LDTM4 46/// ///05 11113 40295 52023 90400 333 91210;
0067997261999992005012305004+43950-086430FM-18+0189LDTM V02099999999999999999N9999999N1-01141+99999103041REMSYN058CMTI   46// LDTM4 46/// ///05 11114 40304 90506 333 91208;
0090997261999992005012306004+43950-086430FM-18+0189LDTM V02099999999999999999N9999999N1-01171+99999103061ADDMD1210181+9999REMSYN064CMTI   46// LDTM4 46/// ///04 11117 40306 52018 90600 333 91206;
0090997261999992005012307004+43950-086430FM-18+0189LDTM V02099999999999999999N9999999N1-01301+99999103061ADDMD1210111+9999REMSYN064CMTI   46// LDTM4 46/// ///04 11130 40306 52011 90700 333 91205;
0067997261999992005012308004+43950-086430FM-18+0189LDTM V02099999999999999999N9999999N1-01421+99999103111REMSYN058CMTI   46// LDTM4 46/// ///04 11142 40311 90800 333 91205;
0090997261999992005012309004+43950-086430FM-18+0189LDTM V02099999999999999999N9999999N1-01401+99999103171ADDMD1310111+9999REMSYN064CMTI   46// LDTM4 46/// ///04 11140 40317 53011 90900 333 91206;
0067997261999992005012310004+43950-086430FM-18+0189LDTM V02099999999999999999N9999999N1-01501+99999103221REMSYN058CMTI   46// LDTM4 46/// ///03 11150 40322 91006 333 91204;
0090997261999992005012311004+43950-086430FM-18+0189LDTM V02099999999999999999N9999999N1-01621+99999103251ADDMD1210141+9999REMSYN064CMTI   46// LDTM4 46/// ///03 11162 40325 52014 91100 333 91203;
0090997261999992005012312004+43950-086430FM-18+0189LDTM V02099999999999999999N9999999N1-01801+99999103271ADDMD1210101+9999REMSYN064CMTI   46// LDTM4 46/// ///05 11180 40327 52010 91200 333 91205;
0067997261999992005012313004+43950-086430FM-18+0189LDTM V02099999999999999999N9999999N1-01771+99999103291REMSYN058CMTI   46// LDTM4 46/// ///06 11177 40329 91300 333 91208;
0090997261999992005012314004+43950-086430FM-18+0189LDTM V02099999999999999999N9999999N1-01731+99999103291ADDMD1210041+9999REMSYN064CMTI   46// LDTM4 46/// ///05 11173 40329 52004 91400 333 91207;
0090997261999992005012315004+43950-086430FM-18+0189LDTM V02099999999999999999N9999999N1-01561+99999103341ADDMD1310071+9999REMSYN064CMTI   46// LDTM4 46/// ///07 11156 40334 53007 91500 333 91209;
0090997261999992005012316004+43950-086430FM-18+0189LDTM V02099999999999999999N9999999N1-01281+99999103331ADDMD1210041+9999REMSYN064CMTI   46// LDTM4 46/// ///05 11128 40333 52004 91600 333 91208;
0090997261999992005012317004+43950-086430FM-18+0189LDTM V02099999999999999999N9999999N1-01121+99999103211ADDMD1810081+9999REMSYN064CMTI   46// LDTM4 46/// ///07 11112 40321 58008 91700 333 91209;
0056997261999992005012318004+43950-086430FM-18+0189LDTM V02099999999999999999N9999999N1-00881+99999103091REMSYN047CMAN  23184 LDTM4 46/// ///06 11088 40309 9180;
0090997261999992005012319004+43950-086430FM-18+0189LDTM V02099999999999999999N9999999N1-00621+99999102991ADDMD1710341+9999REMSYN064CMTI   46// LDTM4 46/// ///04 11062 40299 57034 91900 333 91205;
0090997261999992005012320004+43950-086430FM-18+0189LDTM V02099999999999999999N9999999N1-00671+99999102881ADDMD1710331+9999REMSYN064CMTI   46// LDTM4 46/// ///11 11067 40288 57033 92000 333 91214;
0067997261999992005012321004+43950-086430FM-18+0189LDTM V02099999999999999999N9999999N1-00641+99999102841REMSYN058CMTI   46// LDTM4 46/// ///15 11064 40284 92100 333 91218;
0090997261999992005012323004+43950-086430FM-18+0189LDTM V02099999999999999999N9999999N1-00741+99999102631ADDMD1810251+9999REMSYN064CMTI   46// LDTM4 46/// ///07 11074 40263 58025 92300 333 91210;
0090997261999992005012400004+43950-086430FM-18+0189LDTM V02099999999999999999N9999999N1-00741+99999102571ADDMD1610271+9999REMSYN064CMTI   46// LDTM4 46/// ///06 11074 40257 56027 90000 333 91209;
0090997261999992005012401004+43950-086430FM-18+0189LDTM V02099999999999999999N9999999N1-00401+99999102471ADDMD1610281+9999REMSYN064CMTI   46// LDTM4 46/// ///16 11040 40247 56028 90100 333 91223;
0090997261999992005012402004+43950-086430FM-18+0189LDTM V02099999999999999999N9999999N1-00381+99999102421ADDMD1610211+9999REMSYN064CMTI   46// LDTM4 46/// ///14 11038 40242 56021 90200 333 91223;
0090997261999992005012403004+43950-086430FM-18+0189LDTM V02099999999999999999N9999999N1-00381+99999102371ADDMD1610201+9999REMSYN064CMTI   46// LDTM4 46/// ///14 11038 40237 56020 90300 333 91220;
0090997261999992005012404004+43950-086430FM-18+0189LDTM V02099999999999999999N9999999N1-00441+99999102201ADDMD1810271+9999REMSYN064CMTI   46// LDTM4 46/// ///16 11044 40220 58027 90400 333 91228;
0090997261999992005012405004+43950-086430FM-18+0189LDTM V02099999999999999999N9999999N1-00391+99999102031ADDMD1810391+9999REMSYN064CMTI   46// LDTM4 46/// ///17 11039 40203 58039 90500 333 91225;
0090997261999992005012406004+43950-086430FM-18+0189LDTM V02099999999999999999N9999999N1-00351+99999101941ADDMD1610431+9999REMSYN064CMTI   46// LDTM4 46/// ///18 11035 40194 56043 90600 333 91223;
0067997261999992005012407004+43950-086430FM-18+0189LDTM V02099999999999999999N9999999N1-00331+99999101781REMSYN058CMTI   46// LDTM4 46/// ///14 11033 40178 90754 333 91222;
0090997261999992005012408004+43950-086430FM-18+0189LDTM V02099999999999999999N9999999N1-00331+99999101781ADDMD1610251+9999REMSYN064CMTI   46// LDTM4 46/// ///18 11033 40178 56025 90800 333 91227;
0090997261999992005012409004+43950-086430FM-18+0189LDTM V02099999999999999999N9999999N1-00321+99999101681ADDMD1810261+9999REMSYN064CMTI   46// LDTM4 46/// ///19 11032 40168 58026 90900 333 91226;
0090997261999992005012410004+43950-086430FM-18+0189LDTM V02099999999999999999N9999999N1-00311+99999101491ADDMD1810361+9999REMSYN064CMTI   46// LDTM4 46/// ///19 11031 40149 58036 91000 333 91225;
0090997261999992005012411004+43950-086430FM-18+0189LDTM V02099999999999999999N9999999N1-00291+99999101441ADDMD1610341+9999REMSYN064CMTI   46// LDTM4 46/// ///20 11029 40144 56034 91100 333 91228;
0090997261999992005012413004+43950-086430FM-18+0189LDTM V02099999999999999999N9999999N1-00281+99999101321ADDMD1810171+9999REMSYN064CMTI   46// LDTM4 46/// ///17 11028 40132 58017 91300 333 91224;
0090997261999992005012414004+43950-086430FM-18+0189LDTM V02099999999999999999N9999999N1-00291+99999101261ADDMD1810181+9999REMSYN064CMTI   46// LDTM4 46/// ///14 11029 40126 58018 91400 333 91221;
0090997261999992005012415004+43950-086430FM-18+0189LDTM V02099999999999999999N9999999N1-00271+99999101291ADDMD1510101+9999REMSYN064CMTI   46// LDTM4 46/// ///13 11027 40129 55010 91500 333 91217;
