0078997260999992005010100004+43850-082633FM-18+0188HRBM V0202601N007219999999N9999999N1+00841+99999101331REMSYN069CMAN  01004 HRBM4 46/// /2614 10084 40133 90018 222// 0002 333 91225;
0078997260999992005010104004+43850-082633FM-18+0188HRBM V0203001N007219999999N9999999N1+00161+99999102101REMSYN069CMAN  01044 HRBM4 46/// /3014 10016 40210 9040 222// 00008 333 91224;
0067997260999992005010105004+43850-082633FM-18+0188HRBM V0202801N009019999999N9999999N1+00021+99999102361REMSYN058CMTI   46// HRBM4 46/// /2809 10002 40236 90554 333 91212;
0067997260999992005010106004+43850-082633FM-18+0188HRBM V0202801N011019999999N9999999N1+00031+99999102371REMSYN058CMTI   46// HRBM4 46/// /2811 10003 40237 90600 333 91214;
0090997260999992005010107004+43850-082633FM-18+0188HRBM V0202701N008019999999N9999999N1-00041+99999102451ADDMD1210351+9999REMSYN064CMTI   46// HRBM4 46/// /2708 11004 40245 52035 90700 333 91211;
0067997260999992005010108004+43850-082633FM-18+0188HRBM V0202701N009019999999N9999999N1-00061+99999102571REMSYN058CMTI   46// HRBM4 46/// /2709 11006 40257 90800 333 91214;
0090997260999992005010109004+43850-082633FM-18+0188HRBM V0202701N008019999999N9999999N1-00091+99999102631ADDMD1110261+9999REMSYN064CMTI   46// HRBM4 46/// /2708 11009 40263 51026 90900 333 91211;
0090997260999992005010110004+43850-082633FM-18+0188HRBM V0202801N009019999999N9999999N1-00031+99999102711ADDMD1110261+9999REMSYN064CMTI   46// HRBM4 46/// /2809 11003 40271 51026 91000 333 91213;
0090997260999992005010111004+43850-082633FM-18+0188HRBM V0202601N005019999999N9999999N1-00031+99999102811ADDMD1310241+9999REMSYN064CMTI   46// HRBM4 46/// /2605 11003 40281 53024 91100 333 91209;
0090997260999992005010112004+43850-082633FM-18+0188HRBM V0203301N009019999999N9999999N1-00091+99999102961ADDMD1310331+9999REMSYN064CMTI   46// HRBM4 46/// /3309 11009 40296 53033 91200 333 91212;
0090997260999992005010113004+43850-082633FM-18+0188HRBM V0203301N008019999999N9999999N1-00111+99999103091ADDMD1310381+9999REMSYN064CMTI   46// HRBM4 46/// /3308 11011 40309 53038 91300 333 91211;
0090997260999992005010114004+43850-082633FM-18+0188HRBM V0203401N012019999999N9999999N1-00101+99999103181ADDMD1110371+9999REMSYN064CMTI   46// HRBM4 46/// /3412 11010 40318 51037 91400 333 91214;
0090997260999992005010115004+43850-082633FM-18+0188HRBM V0203401N010019999999N9999999N1-00131+99999103321ADDMD1310361+9999REMSYN064CMTI   46// HRBM4 46/// /3410 11013 40332 53036 91500 333 91212;
0090997260999992005010116004+43850-082633FM-18+0188HRBM V0203601N012019999999N9999999N1-00201+99999103361ADDMD1110271+9999REMSYN064CMTI   46// HRBM4 46/// /3612 11020 40336 51027 91600 333 91215;
0090997260999992005010117004+43850-082633FM-18+0188HRBM V0203401N010019999999N9999999N1-00211+99999103421ADDMD1110241+9999REMSYN064CMTI   46// HRBM4 46/// /3410 11021 40342 51024 91700 333 91213;
0067997260999992005010118004+43850-082633FM-18+0188HRBM V0203201N006019999999N9999999N1-00181+99999103411REMSYN058CMTI   46// HRBM4 46/// /3206 11018 40341 91824 333 91209;
0101997260999992005010119004+43850-082633FM-18+0188HRBM V0203101N003119999999N9999999N1-00131+99999103421ADDMD1210061+9999REMSYN075CMAN  01194 HRBM4 46/// /3106 11013 40342 52006 9190 222// 00013 333 91210;
0067997260999992005010121004+43850-082633FM-18+0188HRBM V0200401N010019999999N9999999N1-00091+99999103461REMSYN058CMTI   46// HRBM4 46/// /0410 11009 40346 92106 333 91212;
0078997260999992005010203004+43850-082633FM-18+0188HRBM V0201301N006219999999N9999999N1+00011+99999103361REMSYN069CMAN  02034 HRBM4 46/// /1312 10001 40336 9030 222// 00016 333 91210;
0078997260999992005010204004+43850-082633FM-18+0188HRBM V0201401N006719999999N9999999N1+00021+99999103301REMSYN069CMAN  02044 HRBM4 46/// /1413 10002 40330 9040 222// 00016 333 91211;
0084997260999992005010205004+43850-082633FM-18+0188HRBM V0201401N008219999999N9999999N1+00041+99999103171REMSYN075CMAN  02054 HRBM4 46/// /1416 10004 40317 9050 90500 222// 00015 333 91212;
0101997260999992005010206004+43850-082633FM-18+0188HRBM V0201401N009319999999N9999999N1+00061+99999103001ADDMD1810361+9999REMSYN075CMAN  02064 HRBM4 46/// /1418 10006 40300 58036 9060 222// 00016 333 91212;
0067997260999992005010208004+43850-082633FM-18+0188HRBM V0201601N025019999999N9999999N1+00061+99999102721REMSYN058CMTI   46// HRBM4 46/// /1625 10006 40272 90824 333 91228;
0090997260999992005010209004+43850-082633FM-18+0188HRBM V0201701N021019999999N9999999N1+00011+99999102721ADDMD1710281+9999REMSYN064CMTI   46// HRBM4 46/// /1721 10001 40272 57028 90900 333 91223;
0090997260999992005010210004+43850-082633FM-18+0188HRBM V0201701N023019999999N9999999N1+00041+99999102531ADDMD1710321+9999REMSYN064CMTI   46// HRBM4 46/// /1723 10004 40253 57032 91000 333 91227;
0067997260999992005010211004+43850-082633FM-18+0188HRBM V0201701N022019999999N9999999N1+00071+99999102381REMSYN058CMTI   46// HRBM4 46/// /1722 10007 40238 91100 333 91226;
0090997260999992005010212004+43850-082633FM-18+0188HRBM V0201701N018019999999N9999999N1+00101+99999102281ADDMD1610441+9999REMSYN064CMTI   46// HRBM4 46/// /1718 10010 40228 56044 91200 333 91226;
0090997260999992005010213004+43850-082633FM-18+0188HRBM V0201701N022019999999N9999999N1+00141+99999102191ADDMD1610341+9999REMSYN064CMTI   46// HRBM4 46/// /1722 10014 40219 56034 91300 333 91226;
0090997260999992005010214004+43850-082633FM-18+0188HRBM V0201801N012019999999N9999999N1+00161+99999102201ADDMD1610181+9999REMSYN064CMTI   46// HRBM4 46/// /1812 10016 40220 56018 91400 333 91215;
0090997260999992005010215004+43850-082633FM-18+0188HRBM V0201901N012019999999N9999999N1+00351+99999102131ADDMD1610151+9999REMSYN064CMTI   46// HRBM4 46/// /1912 10035 40213 56015 91500 333 91216;
0090997260999992005010216004+43850-082633FM-18+0188HRBM V0201901N011019999999N9999999N1+00371+99999102051ADDMD1810141+9999REMSYN064CMTI   46// HRBM4 46/// /1911 10037 40205 58014 91600 333 91214;
0090997260999992005010217004+43850-082633FM-18+0188HRBM V0202101N011019999999N9999999N1+00451+99999101971ADDMD1810231+9999REMSYN064CMTI   46// HRBM4 46/// /2111 10045 40197 58023 91700 333 91214;
0090997260999992005010218004+43850-082633FM-18+0188HRBM V0202301N012019999999N9999999N1+00581+99999101931ADDMD1610201+9999REMSYN064CMTI   46// HRBM4 46/// /2312 10058 40193 56020 91800 333 91215;
0090997260999992005010219004+43850-082633FM-18+0188HRBM V0202501N007019999999N9999999N1+00641+99999101951ADDMD1610101+9999REMSYN064CMTI   46// HRBM4 46/// /2507 10064 40195 56010 91900 333 91208;
0067997260999992005010220004+43850-082633FM-18+0188HRBM V0202901N010019999999N9999999N1+00541+99999102011REMSYN058CMTI   46// HRBM4 46/// /2910 10054 40201 92006 333 91216;
0067997260999992005010221004+43850-082633FM-18+0188HRBM V0203001N010019999999N9999999N1+00441+99999102191REMSYN058CMTI   46// HRBM4 46/// /3010 10044 40219 92124 333 91215;
0078997260999992005010223004+43850-082633FM-18+0188HRBM V0203101N004119999999N9999999N1+00361+99999102331REMSYN069CMAN  02234 HRBM4 46/// /3108 10036 40233 9230 222// 00026 333 91216;
0067997260999992005010301004+43850-082633FM-18+0188HRBM V0202801N005019999999N9999999N1+00271+99999102501REMSYN058CMTI   46// HRBM4 46/// /2805 10027 40250 90130 333 91210;
0090997260999992005010302004+43850-082633FM-18+0188HRBM V0203001N006019999999N9999999N1+00271+99999102531ADDMD1210201+9999REMSYN064CMTI   46// HRBM4 46/// /3006 10027 40253 52020 90200 333 91212;
0090997260999992005010303004+43850-082633FM-18+0188HRBM V0203101N010019999999N9999999N1+00221+99999102571ADDMD1210171+9999REMSYN064CMTI   46// HRBM4 46/// /3110 10022 40257 52017 90300 333 91215;
0067997260999992005010304004+43850-082633FM-18+0188HRBM V0202801N008019999999N9999999N1+00191+99999102621REMSYN058CMTI   46// HRBM4 46/// /2808 10019 40262 90400 333 91213;
0090997260999992005010305004+43850-082633FM-18+0188HRBM V0202801N006019999999N9999999N1+00151+99999102661ADDMD1210131+9999REMSYN064CMTI   46// HRBM4 46/// /2806 10015 40266 52013 90500 333 91210;
0090997260999992005010306004+43850-082633FM-18+0188HRBM V0202901N005019999999N9999999N1+00111+99999102661ADDMD1110091+9999REMSYN064CMTI   46// HRBM4 46/// /2905 10011 40266 51009 90600 333 91210;
0090997260999992005010307004+43850-082633FM-18+0188HRBM V0202601N005019999999N9999999N1+00061+99999102651ADDMD1110031+9999REMSYN064CMTI   46// HRBM4 46/// /2605 10006 40265 51003 90700 333 91208;
0090997260999992005010308004+43850-082633FM-18+0188HRBM V0202701N005019999999N9999999N1+00061+99999102681ADDMD1510001+9999REMSYN064CMTI   46// HRBM4 46/// /2705 10006 40268 55000 90800 333 91209;
0090997260999992005010309004+43850-082633FM-18+0188HRBM V0203201N005019999999N9999999N1+00031+99999102661ADDMD1410001+9999REMSYN064CMTI   46// HRBM4 46/// /3205 10003 40266 54000 90900 333 91206;
0090997260999992005010310004+43850-082633FM-18+0188HRBM V0202601N004019999999N9999999N1+00041+99999102701ADDMD1310051+9999REMSYN064CMTI   46// HRBM4 46/// /2604 10004 40270 53005 91000 333 91209;
0090997260999992005010311004+43850-082633FM-18+0188HRBM V0202701N004019999999N9999999N1+00021+99999102711ADDMD1210031+9999REMSYN064CMTI   46// HRBM4 46/// /2704 10002 40271 52003 91100 333 91206;
0090997260999992005010312004+43850-082633FM-18+0188HRBM V0209999C000019999999N9999999N1+00001+99999102771ADDMD1310111+9999REMSYN064CMTI   46// HRBM4 46/// /0000 10000 40277 53011 91200 333 91203;
0090997260999992005010313004+43850-082633FM-18+0188HRBM V0202501N004019999999N9999999N1-00021+99999102771ADDMD1210071+9999REMSYN064CMTI   46// HRBM4 46/// /2504 11002 40277 52007 91300 333 91205;
0090997260999992005010314004+43850-082633FM-18+0188HRBM V0202401N003019999999N9999999N1-00041+99999102781ADDMD1110071+9999REMSYN064CMTI   46// HRBM4 46/// /2403 11004 40278 51007 91400 333 91204;
0090997260999992005010315004+43850-082633FM-18+0188HRBM V0209999C000019999999N9999999N1+00001+99999102771ADDMD1410001+9999REMSYN064CMTI   46// HRBM4 46/// /0000 10000 40277 54000 91500 333 91202;
0090997260999992005010316004+43850-082633FM-18+0188HRBM V0209999C000019999999N9999999N1+00041+99999102741ADDMD1810031+9999REMSYN064CMTI   46// HRBM4 46/// /0000 10004 40274 58003 91600 333 91201;
0090997260999992005010317004+43850-082633FM-18+0188HRBM V0203401N004019999999N9999999N1+00101+99999102661ADDMD1810121+9999REMSYN064CMTI   46// HRBM4 46/// /3404 10010 40266 58012 91700 333 91204;
0090997260999992005010318004+43850-082633FM-18+0188HRBM V0203501N004019999999N9999999N1+00081+99999102571ADDMD1810201+9999REMSYN064CMTI   46// HRBM4 46/// /3504 10008 40257 58020 91800 333 91205;
0090997260999992005010319004+43850-082633FM-18+0188HRBM V0203601N006019999999N9999999N1+00091+99999102491ADDMD1710251+9999REMSYN064CMTI   46// HRBM4 46/// /3606 10009 40249 57025 91900 333 91207;
0090997260999992005010320004+43850-082633FM-18+0188HRBM V0203501N006019999999N9999999N1+00081+99999102481ADDMD1610181+9999REMSYN064CMTI   46// HRBM4 46/// /3506 10008 40248 56018 92000 333 91207;
0090997260999992005010321004+43850-082633FM-18+0188HRBM V0203501N005019999999N9999999N1+00101+99999102491ADDMD1610081+9999REMSYN064CMTI   46// HRBM4 46/// /3505 10010 40249 56008 92100 333 91206;
0090997260999992005010322004+43850-082633FM-18+0188HRBM V0203601N005019999999N9999999N1+00091+99999102481ADDMD1410001+9999REMSYN064CMTI   46// HRBM4 46/// /3605 10009 40248 54000 92200 333 91206;
0090997260999992005010323004+43850-082633FM-18+0188HRBM V0200101N006019999999N9999999N1+00111+99999102471ADDMD1410001+9999REMSYN064CMTI   46// HRBM4 46/// /0106 10011 40247 54000 92300 333 91206;
0090997260999992005010400004+43850-082633FM-18+0188HRBM V0200401N005019999999N9999999N1+00131+99999102441ADDMD1810051+9999REMSYN064CMTI   46// HRBM4 46/// /0405 10013 40244 58005 90000 333 91206;
0067997260999992005010402004+43850-082633FM-18+0188HRBM V0200201N012019999999N9999999N1+00111+99999102521REMSYN058CMTI   46// HRBM4 46/// /0212 10011 40252 90206 333 91214;
0090997260999992005010403004+43850-082633FM-18+0188HRBM V0200101N013019999999N9999999N1+00071+99999102561ADDMD1210121+9999REMSYN064CMTI   46// HRBM4 46/// /0113 10007 40256 52012 90300 333 91215;
0067997260999992005010404004+43850-082633FM-18+0188HRBM V0200101N012019999999N9999999N1+00061+99999102581REMSYN058CMTI   46// HRBM4 46/// /0112 10006 40258 90400 333 91215;
0067997260999992005010405004+43850-082633FM-18+0188HRBM V0203601N013019999999N9999999N1+00041+99999102631REMSYN058CMTI   46// HRBM4 46/// /3613 10004 40263 90500 333 91215;
0090997260999992005010406004+43850-082633FM-18+0188HRBM V0200101N012019999999N9999999N1+00001+99999102591ADDMD1010031+9999REMSYN064CMTI   46// HRBM4 46/// /0112 10000 40259 50003 90600 333 91215;
0090997260999992005010407004+43850-082633FM-18+0188HRBM V0203601N012019999999N9999999N1-00031+99999102551ADDMD1810031+9999REMSYN064CMTI   46// HRBM4 46/// /3612 11003 40255 58003 90700 333 91215;
0090997260999992005010408004+43850-082633FM-18+0188HRBM V0203601N010019999999N9999999N1-00041+99999102601ADDMD1510031+9999REMSYN064CMTI   46// HRBM4 46/// /3610 11004 40260 55003 90800 333 91213;
0090997260999992005010409004+43850-082633FM-18+0188HRBM V0200101N008019999999N9999999N1-00061+99999102611ADDMD1510001+9999REMSYN064CMTI   46// HRBM4 46/// /0108 11006 40261 55000 90900 333 91212;
0090997260999992005010410004+43850-082633FM-18+0188HRBM V0203201N006019999999N9999999N1-00101+99999102641ADDMD1110091+9999REMSYN064CMTI   46// HRBM4 46/// /3206 11010 40264 51009 91000 333 91209;
0090997260999992005010411004+43850-082633FM-18+0188HRBM V0203401N010019999999N9999999N1-00101+99999102731ADDMD1310131+9999REMSYN064CMTI   46// HRBM4 46/// /3410 11010 40273 53013 91100 333 91210;
0090997260999992005010412004+43850-082633FM-18+0188HRBM V0203601N009019999999N9999999N1-00151+99999102751ADDMD1110141+9999REMSYN064CMTI   46// HRBM4 46/// /3609 11015 40275 51014 91200 333 91213;
0090997260999992005010413004+43850-082633FM-18+0188HRBM V0203401N008019999999N9999999N1-00171+99999102781ADDMD1110141+9999REMSYN064CMTI   46// HRBM4 46/// /3408 11017 40278 51014 91300 333 91212;
0090997260999992005010414004+43850-082633FM-18+0188HRBM V0203601N006019999999N9999999N1-00181+99999102791ADDMD1210061+9999REMSYN064CMTI   46// HRBM4 46/// /3606 11018 40279 52006 91400 333 91209;
0090997260999992005010415004+43850-082633FM-18+0188HRBM V0203301N007019999999N9999999N1-00191+99999102881ADDMD1310131+9999REMSYN064CMTI   46// HRBM4 46/// /3307 11019 40288 53013 91500 333 91209;
0090997260999992005010416004+43850-082633FM-18+0188HRBM V0200101N007019999999N9999999N1-00211+99999102911ADDMD1310131+9999REMSYN064CMTI   46// HRBM4 46/// /0107 11021 40291 53013 91600 333 91209;
0090997260999992005010417004+43850-082633FM-18+0188HRBM V0203401N005019999999N9999999N1-00191+99999102841ADDMD1010051+9999REMSYN064CMTI   46// HRBM4 46/// /3405 11019 40284 50005 91700 333 91206;
0090997260999992005010418004+43850-082633FM-18+0188HRBM V0203301N005019999999N9999999N1-00181+99999102761ADDMD1810121+9999REMSYN064CMTI   46// HRBM4 46/// /3305 11018 40276 58012 91800 333 91206;
0090997260999992005010419004+43850-082633FM-18+0188HRBM V0203101N002019999999N9999999N1-00171+99999102711ADDMD1610201+9999REMSYN064CMTI   46// HRBM4 46/// /3102 11017 40271 56020 91900 333 91207;
0090997260999992005010420004+43850-082633FM-18+0188HRBM V0203301N005019999999N9999999N1-00191+99999102671ADDMD1610171+9999REMSYN064CMTI   46// HRBM4 46/// /3305 11019 40267 56017 92000 333 91207;
0090997260999992005010421004+43850-082633FM-18+0188HRBM V0203401N005019999999N9999999N1-00181+99999102621ADDMD1710141+9999REMSYN064CMTI   46// HRBM4 46/// /3405 11018 40262 57014 92100 333 91206;
0090997260999992005010422004+43850-082633FM-18+0188HRBM V0203201N007019999999N9999999N1-00221+99999102691ADDMD1510001+9999REMSYN064CMTI   46// HRBM4 46/// /3207 11022 40269 55000 92200 333 91210;
0090997260999992005010423004+43850-082633FM-18+0188HRBM V0203301N006019999999N9999999N1-00231+99999102761ADDMD1310091+9999REMSYN064CMTI   46// HRBM4 46/// /3306 11023 40276 53009 92300 333 91208;
0090997260999992005010500004+43850-082633FM-18+0188HRBM V0203201N005019999999N9999999N1-00211+99999102761ADDMD1110141+9999REMSYN064CMTI   46// HRBM4 46/// /3205 11021 40276 51014 90000 333 91207;
0090997260999992005010501004+43850-082633FM-18+0188HRBM V0203401N006019999999N9999999N1-00181+99999102711ADDMD1010001+9999REMSYN064CMTI   46// HRBM4 46/// /3406 11018 40271 50000 90100 333 91208;
0090997260999992005010502004+43850-082633FM-18+0188HRBM V0203201N006019999999N9999999N1-00171+99999102731ADDMD1710031+9999REMSYN064CMTI   46// HRBM4 46/// /3206 11017 40273 57003 90200 333 91207;
0067997260999992005010503004+43850-082633FM-18+0188HRBM V0203301N005019999999N9999999N1-00131+99999102771REMSYN058CMTI   46// HRBM4 46/// /3305 11013 40277 90306 333 91207;
0067997260999992005010504004+43850-082633FM-18+0188HRBM V0203601N014019999999N9999999N1-00141+99999102701REMSYN058CMTI   46// HRBM4 46/// /3614 11014 40270 90424 333 91218;
0067997260999992005010507004+43850-082633FM-18+0188HRBM V0203601N019019999999N9999999N1-00191+99999102621REMSYN058CMTI   46// HRBM4 46/// /3619 11019 40262 90718 333 91224;
0067997260999992005010508004+43850-082633FM-18+0188HRBM V0200101N019019999999N9999999N1-00221+99999102691REMSYN058CMTI   46// HRBM4 46/// /0119 11022 40269 90800 333 91225;
0067997260999992005010509004+43850-082633FM-18+0188HRBM V0200101N018019999999N9999999N1-00251+99999102691REMSYN058CMTI   46// HRBM4 46/// /0118 11025 40269 90900 333 91222;
0067997260999992005010510004+43850-082633FM-18+0188HRBM V0200101N018019999999N9999999N1-00261+99999102671REMSYN058CMTI   46// HRBM4 46/// /0118 11026 40267 91000 333 91223;
0090997260999992005010511004+43850-082633FM-18+0188HRBM V0200201N021019999999N9999999N1-00291+99999102661ADDMD1710031+9999REMSYN064CMTI   46// HRBM4 46/// /0221 11029 40266 57003 91100 333 91224;
0090997260999992005010512004+43850-082633FM-18+0188HRBM V0200301N021019999999N9999999N1-00371+99999102731ADDMD1310041+9999REMSYN064CMTI   46// HRBM4 46/// /0321 11037 40273 53004 91200 333 91224;
0090997260999992005010513004+43850-082633FM-18+0188HRBM V0200301N021019999999N9999999N1-00411+99999102811ADDMD1310141+9999REMSYN064CMTI   46// HRBM4 46/// /0321 11041 40281 53014 91300 333 91224;
0090997260999992005010514004+43850-082633FM-18+0188HRBM V0200401N019019999999N9999999N1-00441+99999102811ADDMD1110151+9999REMSYN064CMTI   46// HRBM4 46/// /0419 11044 40281 51015 91400 333 91222;
0090997260999992005010515004+43850-082633FM-18+0188HRBM V0200501N019019999999N9999999N1-00481+99999102781ADDMD1010051+9999REMSYN064CMTI   46// HRBM4 46/// /0519 11048 40278 50005 91500 333 91223;
0090997260999992005010516004+43850-082633FM-18+0188HRBM V0200501N020019999999N9999999N1-00491+99999102771ADDMD1710041+9999REMSYN064CMTI   46// HRBM4 46/// /0520 11049 40277 57004 91600 333 91222;
0090997260999992005010517004+43850-082633FM-18+0188HRBM V0200501N017019999999N9999999N1-00461+99999102741ADDMD1710071+9999REMSYN064CMTI   46// HRBM4 46/// /0517 11046 40274 57007 91700 333 91221;
0090997260999992005010518004+43850-082633FM-18+0188HRBM V0200601N016019999999N9999999N1-00501+99999102681ADDMD1810101+9999REMSYN064CMTI   46// HRBM4 46/// /0616 11050 40268 58010 91800 333 91219;
0090997260999992005010519004+43850-082633FM-18+0188HRBM V0200501N016019999999N9999999N1-00531+99999102641ADDMD1810131+9999REMSYN064CMTI   46// HRBM4 46/// /0516 11053 40264 58013 91900 333 91219;
0090997260999992005010520004+43850-082633FM-18+0188HRBM V0200501N017019999999N9999999N1-00531+99999102521ADDMD1810221+9999REMSYN064CMTI   46// HRBM4 46/// /0517 11053 40252 58022 92000 333 91222;
0090997260999992005010521004+43850-082633FM-18+0188HRBM V0200501N017019999999N9999999N1-00511+99999102521ADDMD1610161+9999REMSYN064CMTI   46// HRBM4 46/// /0517 11051 40252 56016 92100 333 91223;
0090997260999992005010522004+43850-082633FM-18+0188HRBM V0200501N019019999999N9999999N1-00521+99999102391ADDMD1810251+9999REMSYN064CMTI   46// HRBM4 46/// /0519 11052 40239 58025 92200 333 91221;
0090997260999992005010523004+43850-082633FM-18+0188HRBM V0200501N020019999999N9999999N1-00501+99999102361ADDMD1810161+9999REMSYN064CMTI   46// HRBM4 46/// /0520 11050 40236 58016 92300 333 91222;
0067997260999992005010603004+43850-082633FM-18+0188HRBM V0200601N018019999999N9999999N1-00441+99999102071REMSYN058CMTI   46// HRBM4 46/// /0618 11044 40207 90324 333 91222;
0067997260999992005010604004+43850-082633FM-18+0188HRBM V0200701N018019999999N9999999N1-00421+99999101961REMSYN058CMTI   46// HRBM4 46/// /0718 11042 40196 90400 333 91221;
0067997260999992005010605004+43850-082633FM-18+0188HRBM V0200801N016019999999N9999999N1-00401+99999101871REMSYN058CMTI   46// HRBM4 46/// /0816 11040 40187 90500 333 91219;
0067997260999992005010606004+43850-082633FM-18+0188HRBM V0200901N015019999999N9999999N1-00411+99999101751REMSYN058CMTI   46// HRBM4 46/// /0915 11041 40175 90600 333 91218;
0090997260999992005010607004+43850-082633FM-18+0188HRBM V0200901N015019999999N9999999N1-00411+99999101611ADDMD1810351+9999REMSYN064CMTI   46// HRBM4 46/// /0915 11041 40161 58035 90700 333 91217;
0090997260999992005010608004+43850-082633FM-18+0188HRBM V0200901N013019999999N9999999N1-00411+99999101601ADDMD1610271+9999REMSYN064CMTI   46// HRBM4 46/// /0913 11041 40160 56027 90800 333 91216;
0090997260999992005010609004+43850-082633FM-18+0188HRBM V0200901N012019999999N9999999N1-00401+99999101391ADDMD1810361+9999REMSYN064CMTI   46// HRBM4 46/// /0912 11040 40139 58036 90900 333 91217;
0090997260999992005010610004+43850-082633FM-18+0188HRBM V0200901N017019999999N9999999N1-00401+99999101161ADDMD1810451+9999REMSYN064CMTI   46// HRBM4 46/// /0917 11040 40116 58045 91000 333 91220;
0090997260999992005010611004+43850-082633FM-18+0188HRBM V0200701N015019999999N9999999N1-00411+99999101041ADDMD1610561+9999REMSYN064CMTI   46// HRBM4 46/// /0715 11041 40104 56056 91100 333 91218;
0090997260999992005010612004+43850-082633FM-18+0188HRBM V0200801N017019999999N9999999N1-00451+99999100921ADDMD1610471+9999REMSYN064CMTI   46// HRBM4 46/// /0817 11045 40092 56047 91200 333 91219;
0090997260999992005010613004+43850-082633FM-18+0188HRBM V0200801N020019999999N9999999N1-00441+99999100611ADDMD1810551+9999REMSYN064CMTI   46// HRBM4 46/// /0820 11044 40061 58055 91300 333 91224;
0066997260999992005010614004+43850-082633FM-18+0188HRBM V0200801N007719999999N9999999N1-00381+99999100631REMSYN057CMAN 06144 HRBM4 46/// /0815 11038 40063 91406 333 91218;
0090997260999992005010615004+43850-082633FM-18+0188HRBM V0200601N010019999999N9999999N1-00411+99999100691ADDMD1710231+9999REMSYN064CMTI   46// HRBM4 46/// /0610 11041 40069 57023 91500 333 91211;
0067997260999992005010616004+43850-082633FM-18+0188HRBM V0200501N010019999999N9999999N1-00401+99999100621REMSYN058CMTI   46// HRBM4 46/// /0510 11040 40062 91606 333 91212;
0067997260999992005010617004+43850-082633FM-18+0188HRBM V0200501N011019999999N9999999N1-00371+99999100471REMSYN058CMTI   46// HRBM4 46/// /0511 11037 40047 91700 333 91212;
0090997260999992005010618004+43850-082633FM-18+0188HRBM V0200501N005019999999N9999999N1-00341+99999100361ADDMD1810331+9999REMSYN064CMTI   46// HRBM4 46/// /0505 11034 40036 58033 91800 333 91206;
0067997260999992005010619004+43850-082633FM-18+0188HRBM V0202601N006019999999N9999999N1-00321+99999100391REMSYN058CMTI   46// HRBM4 46/// /2606 11032 40039 91906 333 91207;
0090997260999992005010620004+43850-082633FM-18+0188HRBM V0202501N008019999999N9999999N1-00331+99999100441ADDMD1710031+9999REMSYN064CMTI   46// HRBM4 46/// /2508 11033 40044 57003 92000 333 91211;
0067997260999992005010621004+43850-082633FM-18+0188HRBM V0203301N014019999999N9999999N1-00301+99999100531REMSYN058CMTI   46// HRBM4 46/// /3314 11030 40053 92100 333 91218;
0067997260999992005010622004+43850-082633FM-18+0188HRBM V0203101N011019999999N9999999N1-00421+99999100741REMSYN058CMTI   46// HRBM4 46/// /3111 11042 40074 92200 333 91218;
0090997260999992005010623004+43850-082633FM-18+0188HRBM V0203001N010019999999N9999999N1-00491+99999100931ADDMD1310491+9999REMSYN064CMTI   46// HRBM4 46/// /3010 11049 40093 53049 92300 333 91215;
0090997260999992005010700004+43850-082633FM-18+0188HRBM V0202801N009019999999N9999999N1-00591+99999101101ADDMD1110571+9999REMSYN064CMTI   46// HRBM4 46/// /2809 11059 40110 51057 90000 333 91214;
0090997260999992005010701004+43850-082633FM-18+0188HRBM V0202701N008019999999N9999999N1-00631+99999101201ADDMD1110461+9999REMSYN064CMTI   46// HRBM4 46/// /2708 11063 40120 51046 90100 333 91214;
0090997260999992005010702004+43850-082633FM-18+0188HRBM V0202701N011019999999N9999999N1-00681+99999101341ADDMD1110411+9999REMSYN064CMTI   46// HRBM4 46/// /2711 11068 40134 51041 90200 333 91216;
0090997260999992005010703004+43850-082633FM-18+0188HRBM V0202701N010019999999N9999999N1-00731+99999101461ADDMD1310361+9999REMSYN064CMTI   46// HRBM4 46/// /2710 11073 40146 53036 90300 333 91215;
0090997260999992005010704004+43850-082633FM-18+0188HRBM V0202701N010019999999N9999999N1-00771+99999101581ADDMD1110381+9999REMSYN064CMTI   46// HRBM4 46/// /2710 11077 40158 51038 90400 333 91213;
0090997260999992005010705004+43850-082633FM-18+0188HRBM V0202701N009019999999N9999999N1-00831+99999101701ADDMD1210361+9999REMSYN064CMTI   46// HRBM4 46/// /2709 11083 40170 52036 90500 333 91215;
0090997260999992005010706004+43850-082633FM-18+0188HRBM V0202601N010019999999N9999999N1-00901+99999101801ADDMD1110341+9999REMSYN064CMTI   46// HRBM4 46/// /2610 11090 40180 51034 90600 333 91214;
0090997260999992005010707004+43850-082633FM-18+0188HRBM V0202501N009019999999N9999999N1-00881+99999101851ADDMD1110271+9999REMSYN064CMTI   46// HRBM4 46/// /2509 11088 40185 51027 90700 333 91212;
0090997260999992005010708004+43850-082633FM-18+0188HRBM V0202501N008019999999N9999999N1-00791+99999101971ADDMD1310271+9999REMSYN064CMTI   46// HRBM4 46/// /2508 11079 40197 53027 90800 333 91210;
0090997260999992005010709004+43850-082633FM-18+0188HRBM V0202401N007019999999N9999999N1-00771+99999102061ADDMD1310261+9999REMSYN064CMTI   46// HRBM4 46/// /2407 11077 40206 53026 90900 333 91210;
0090997260999992005010710004+43850-082633FM-18+0188HRBM V0202301N006019999999N9999999N1-00751+99999102101ADDMD1110251+9999REMSYN064CMTI   46// HRBM4 46/// /2306 11075 40210 51025 91000 333 91207;
0090997260999992005010711004+43850-082633FM-18+0188HRBM V0202301N008019999999N9999999N1-00731+99999102181ADDMD1110211+9999REMSYN064CMTI   46// HRBM4 46/// /2308 11073 40218 51021 91100 333 91210;
0090997260999992005010712004+43850-082633FM-18+0188HRBM V0202301N005019999999N9999999N1-00741+99999102231ADDMD1310171+9999REMSYN064CMTI   46// HRBM4 46/// /2305 11074 40223 53017 91200 333 91207;
0090997260999992005010713004+43850-082633FM-18+0188HRBM V0202201N005019999999N9999999N1-00631+99999102271ADDMD1110171+9999REMSYN064CMTI   46// HRBM4 46/// /2205 11063 40227 51017 91300 333 91207;
0066997260999992005010714004+43850-082633FM-18+0188HRBM V0202101N003619999999N9999999N1-00541+99999102351REMSYN057CMAN 07144 HRBM4 46/// /2107 11054 40235 91406 333 91209;
0090997260999992005010715004+43850-082633FM-18+0188HRBM V0202101N007019999999N9999999N1-00451+99999102451ADDMD1210221+9999REMSYN064CMTI   46// HRBM4 46/// /2107 11045 40245 52022 91500 333 91210;
0090997260999992005010716004+43850-082633FM-18+0188HRBM V0202101N007019999999N9999999N1-00361+99999102481ADDMD1210211+9999REMSYN064CMTI   46// HRBM4 46/// /2107 11036 40248 52021 91600 333 91212;
0067997260999992005010717004+43850-082633FM-18+0188HRBM V0202101N011019999999N9999999N1-00291+99999102431REMSYN058CMTI   46// HRBM4 46/// /2111 11029 40243 91700 333 91213;
0090997260999992005010718004+43850-082633FM-18+0188HRBM V0202001N011019999999N9999999N1-00291+99999102331ADDMD1810121+9999REMSYN064CMTI   46// HRBM4 46/// /2011 11029 40233 58012 91800 333 91213;
0090997260999992005010719004+43850-082633FM-18+0188HRBM V0202001N010019999999N9999999N1-00291+99999102291ADDMD1610191+9999REMSYN064CMTI   46// HRBM4 46/// /2010 11029 40229 56019 91900 333 91213;
0090997260999992005010720004+43850-082633FM-18+0188HRBM V0202001N009019999999N9999999N1-00301+99999102271ADDMD1610161+9999REMSYN064CMTI   46// HRBM4 46/// /2009 11030 40227 56016 92000 333 91213;
0090997260999992005010721004+43850-082633FM-18+0188HRBM V0201901N010019999999N9999999N1-00401+99999102331ADDMD1510001+9999REMSYN064CMTI   46// HRBM4 46/// /1910 11040 40233 55000 92100 333 91214;
0090997260999992005010722004+43850-082633FM-18+0188HRBM V0202001N007019999999N9999999N1-00451+99999102351ADDMD1210061+9999REMSYN064CMTI   46// HRBM4 46/// /2007 11045 40235 52006 92200 333 91209;
0090997260999992005010723004+43850-082633FM-18+0188HRBM V0202201N004019999999N9999999N1-00501+99999102361ADDMD1110091+9999REMSYN064CMTI   46// HRBM4 46/// /2204 11050 40236 51009 92300 333 91206;
0067997260999992005010820004+43850-082633FM-18+0188HRBM V0202601N007019999999N9999999N1-00211+99999102641REMSYN058CMTI   46// HRBM4 46/// /2607 11021 40264 92018 333 91210;
0067997260999992005010821004+43850-082633FM-18+0188HRBM V0202601N009019999999N9999999N1-00231+99999102721REMSYN058CMTI   46// HRBM4 46/// /2609 11023 40272 92100 333 91212;
0067997260999992005010822004+43850-082633FM-18+0188HRBM V0202601N010019999999N9999999N1-00241+99999102791REMSYN058CMTI   46// HRBM4 46/// /2610 11024 40279 92136 333 91213;
0067997260999992005010823004+43850-082633FM-18+0188HRBM V0202601N006019999999N9999999N1-00301+99999102911REMSYN058CMTI   46// HRBM4 46/// /2606 11030 40291 92300 333 91211;
0090997260999992005010900004+43850-082630FM-18+0188HRBM V0202501N005019999999N9999999N1-00351+99999102941ADDMD1110221+9999REMSYN064CMTI   46// HRBM4 46/// /2505 11035 40294 51022 90000 333 91205;
0090997260999992005010901004+43850-082630FM-18+0188HRBM V0209999C000019999999N9999999N1-00341+99999102911ADDMD1010051+9999REMSYN064CMTI   46// HRBM4 46/// /0000 11034 40291 50005 90100 333 91201;
0090997260999992005010902004+43850-082630FM-18+0188HRBM V0202501N005019999999N9999999N1-00431+99999102941ADDMD1210031+9999REMSYN064CMTI   46// HRBM4 46/// /2505 11043 40294 52003 90200 333 91205;
0090997260999992005010903004+43850-082630FM-18+0188HRBM V0202301N001019999999N9999999N1-00421+99999102921ADDMD1510001+9999REMSYN064CMTI   46// HRBM4 46/// /2301 11042 40292 55000 90300 333 91203;
0090997260999992005010904004+43850-082630FM-18+0188HRBM V0202201N003019999999N9999999N1-00401+99999102891ADDMD1010001+9999REMSYN064CMTI   46// HRBM4 46/// /2203 11040 40289 50000 90400 333 91204;
0090997260999992005010905004+43850-082630FM-18+0188HRBM V0202101N002019999999N9999999N1-00351+99999102911ADDMD1710031+9999REMSYN064CMTI   46// HRBM4 46/// /2102 11035 40291 57003 90500 333 91204;
0090997260999992005010906004+43850-082630FM-18+0188HRBM V0202001N006019999999N9999999N1-00321+99999102881ADDMD1710041+9999REMSYN064CMTI   46// HRBM4 46/// /2006 11032 40288 57004 90600 333 91207;
0090997260999992005010907004+43850-082630FM-18+0188HRBM V0202001N006019999999N9999999N1-00301+99999102851ADDMD1810041+9999REMSYN064CMTI   46// HRBM4 46/// /2006 11030 40285 58004 90700 333 91207;
0090997260999992005010908004+43850-082630FM-18+0188HRBM V0201901N004019999999N9999999N1-00301+99999102861ADDMD1610051+9999REMSYN064CMTI   46// HRBM4 46/// /1904 11030 40286 56005 90800 333 91205;
0090997260999992005010909004+43850-082630FM-18+0188HRBM V0201801N007019999999N9999999N1-00301+99999102771ADDMD1810111+9999REMSYN064CMTI   46// HRBM4 46/// /1807 11030 40277 58011 90900 333 91209;
0090997260999992005010910004+43850-082630FM-18+0188HRBM V0201801N008019999999N9999999N1-00261+99999102711ADDMD1810141+9999REMSYN064CMTI   46// HRBM4 46/// /1808 11026 40271 58014 91000 333 91209;
0090997260999992005010911004+43850-082630FM-18+0188HRBM V0201901N007019999999N9999999N1-00251+99999102661ADDMD1610201+9999REMSYN064CMTI   46// HRBM4 46/// /1907 11025 40266 56020 91100 333 91209;
0090997260999992005010912004+43850-082630FM-18+0188HRBM V0201901N007019999999N9999999N1-00241+99999102701ADDMD1510071+9999REMSYN064CMTI   46// HRBM4 46/// /1907 11024 40270 55007 91200 333 91210;
0090997260999992005010913004+43850-082630FM-18+0188HRBM V0202001N008019999999N9999999N1-00231+99999102651ADDMD1710061+9999REMSYN064CMTI   46// HRBM4 46/// /2008 11023 40265 57006 91300 333 91209;
0090997260999992005010914004+43850-082630FM-18+0188HRBM V0202001N009019999999N9999999N1-00211+99999102631ADDMD1810031+9999REMSYN064CMTI   46// HRBM4 46/// /2009 11021 40263 58003 91400 333 91211;
0090997260999992005010915004+43850-082630FM-18+0188HRBM V0202001N009019999999N9999999N1-00181+99999102591ADDMD1610111+9999REMSYN064CMTI   46// HRBM4 46/// /2009 11018 40259 56011 91500 333 91211;
0090997260999992005010916004+43850-082630FM-18+0188HRBM V0202001N009019999999N9999999N1-00141+99999102541ADDMD1810111+9999REMSYN064CMTI   46// HRBM4 46/// /2009 11014 40254 58011 91600 333 91212;
0090997260999992005010917004+43850-082630FM-18+0188HRBM V0202001N009019999999N9999999N1-00101+99999102361ADDMD1810271+9999REMSYN064CMTI   46// HRBM4 46/// /2009 11010 40236 58027 91700 333 91216;
0090997260999992005010918004+43850-082630FM-18+0188HRBM V0202001N013019999999N9999999N1-00111+99999102281ADDMD1810311+9999REMSYN064CMTI   46// HRBM4 46/// /2013 11011 40228 58031 91800 333 91215;
0090997260999992005010919004+43850-082630FM-18+0188HRBM V0202101N010019999999N9999999N1-00101+99999102201ADDMD1610341+9999REMSYN064CMTI   46// HRBM4 46/// /2110 11010 40220 56034 91900 333 91213;
0090997260999992005010920004+43850-082630FM-18+0188HRBM V0201801N010019999999N9999999N1-00101+99999102071ADDMD1810291+9999REMSYN064CMTI   46// HRBM4 46/// /1810 11010 40207 58029 92000 333 91213;
0090997260999992005010921004+43850-082630FM-18+0188HRBM V0201901N007019999999N9999999N1-00091+99999101991ADDMD1710291+9999REMSYN064CMTI   46// HRBM4 46/// /1907 11009 40199 57029 92100 333 91212;
0090997260999992005010922004+43850-082630FM-18+0188HRBM V0202001N008019999999N9999999N1-00061+99999101911ADDMD1610291+9999REMSYN064CMTI   46// HRBM4 46/// /2008 11006 40191 56029 92200 333 91210;
0090997260999992005010923004+43850-082630FM-18+0188HRBM V0202001N005019999999N9999999N1-00051+99999101801ADDMD1810271+9999REMSYN064CMTI   46// HRBM4 46/// /2005 11005 40180 58027 92300 333 91208;
0090997260999992005011000004+43850-082633FM-18+0188HRBM V0201901N007019999999N9999999N1-00031+99999101711ADDMD1810281+9999REMSYN064CMTI   46// HRBM4 46/// /1907 11003 40171 58028 90000 333 91210;
0090997260999992005011001004+43850-082633FM-18+0188HRBM V0202001N007019999999N9999999N1+00001+99999101621ADDMD1610291+9999REMSYN064CMTI   46// HRBM4 46/// /2007 10000 40162 56029 90100 333 91210;
0090997260999992005011002004+43850-082633FM-18+0188HRBM V0202101N007019999999N9999999N1+00001+99999101551ADDMD1610251+9999REMSYN064CMTI   46// HRBM4 46/// /2107 10000 40155 56025 90200 333 91209;
0090997260999992005011003004+43850-082633FM-18+0188HRBM V0202101N004019999999N9999999N1+00001+99999101511ADDMD1610201+9999REMSYN064CMTI   46// HRBM4 46/// /2104 10000 40151 56020 90300 333 91206;
0090997260999992005011004004+43850-082633FM-18+0188HRBM V0202101N003019999999N9999999N1+00001+99999101411ADDMD1810211+9999REMSYN064CMTI   46// HRBM4 46/// /2103 10000 40141 58021 90400 333 91205;
0067997260999992005011005004+43850-082633FM-18+0188HRBM V0202201N006019999999N9999999N1+00001+99999101311REMSYN058CMTI   46// HRBM4 46/// /2206 10000 40131 90506 333 91206;
0090997260999992005011006004+43850-082633FM-18+0188HRBM V0202401N008019999999N9999999N1+00011+99999101261ADDMD1710251+9999REMSYN064CMTI   46// HRBM4 46/// /2408 10001 40126 57025 90600 333 91209;
0090997260999992005011007004+43850-082633FM-18+0188HRBM V0202601N012019999999N9999999N1+00041+99999101291ADDMD1710121+9999REMSYN064CMTI   46// HRBM4 46/// /2612 10004 40129 57012 90700 333 91216;
0067997260999992005011008004+43850-082633FM-18+0188HRBM V0202701N014019999999N9999999N1+00061+99999101381REMSYN058CMTI   46// HRBM4 46/// /2714 10006 40138 90800 333 91219;
0090997260999992005011009004+43850-082633FM-18+0188HRBM V0203101N016019999999N9999999N1+00031+99999101511ADDMD1310251+9999REMSYN064CMTI   46// HRBM4 46/// /3116 10003 40151 53025 90900 333 91221;
0090997260999992005011010004+43850-082633FM-18+0188HRBM V0203101N009019999999N9999999N1-00041+99999101621ADDMD1310331+9999REMSYN064CMTI   46// HRBM4 46/// /3109 11004 40162 53033 91000 333 91214;
0090997260999992005011011004+43850-082633FM-18+0188HRBM V0202801N007019999999N9999999N1-00061+99999101751ADDMD1210371+9999REMSYN064CMTI   46// HRBM4 46/// /2807 11006 40175 52037 91100 333 91210;
0090997260999992005011012004+43850-082633FM-18+0188HRBM V0202701N012019999999N9999999N1-00141+99999101851ADDMD1110341+9999REMSYN064CMTI   46// HRBM4 46/// /2712 11014 40185 51034 91200 333 91215;
0090997260999992005011013004+43850-082633FM-18+0188HRBM V0202701N007019999999N9999999N1-00181+99999101951ADDMD1110331+9999REMSYN064CMTI   46// HRBM4 46/// /2707 11018 40195 51033 91300 333 91213;
0090997260999992005011014004+43850-082633FM-18+0188HRBM V0202701N007019999999N9999999N1-00181+99999102031ADDMD1110281+9999REMSYN064CMTI   46// HRBM4 46/// /2707 11018 40203 51028 91400 333 91213;
0061997260999992005011015004+43850-082633FM-18+0188HRBM V0202801N009019999999N9999999N1-00171+99999999999REMSYN052CMTI   46// HRBM4 46/// /2809 11017 91500 333 91215;
0061997260999992005011016004+43850-082633FM-18+0188HRBM V0202601N009019999999N9999999N1-00131+99999999999REMSYN052CMTI   46// HRBM4 46/// /2609 11013 91600 333 91211;
0090997260999992005011017004+43850-082633FM-18+0188HRBM V0202701N010019999999N9999999N1-00111+99999102221ADDMD1110191+9999REMSYN064CMTI   46// HRBM4 46/// /2710 11011 40222 51019 91700 333 91219;
0090997260999992005011018004+43850-082633FM-18+0188HRBM V0202701N015019999999N9999999N1-00091+99999102181ADDMD1010001+9999REMSYN064CMTI   46// HRBM4 46/// /2715 11009 40218 50000 91800 333 91218;
0000997260999992005011019004+43850-082633FM-18+0188HRBM V0202701N006219999999N9999999N1-00071+99999999999
0061997260999992005011020004+43850-082633FM-18+0188HRBM V0202701N010019999999N9999999N1-00071+99999999999REMSYN052CMTI   46// HRBM4 46/// /2710 11007 92000 333 91213;
0061997260999992005011021004+43850-082633FM-18+0188HRBM V0203101N009019999999N9999999N1-00081+99999999999REMSYN052CMTI   46// HRBM4 46/// /3109 11008 92106 333 91211;
0061997260999992005011022004+43850-082633FM-18+0188HRBM V0202701N006019999999N9999999N1-00111+99999999999REMSYN052CMTI   46// HRBM4 46/// /2706 11011 92200 333 91208;
0061997260999992005011023004+43850-082633FM-18+0188HRBM V0203101N004019999999N9999999N1-00181+99999999999REMSYN052CMTI   46// HRBM4 46/// /3104 11018 92300 333 91205;
0061997260999992005011100004+43850-082633FM-18+0188HRBM V0203101N004019999999N9999999N1-00201+99999999999REMSYN052CMTI   46// HRBM4 46/// /3104 11020 90000 333 91205;
0061997260999992005011101004+43850-082633FM-18+0188HRBM V0203001N005019999999N9999999N1-00171+99999999999REMSYN052CMTI   46// HRBM4 46/// /3005 11017 90100 333 91207;
0060997260999992005011102004+43850-082633FM-18+0188HRBM V0203001N003119999999N9999999N1-00181+99999999999REMSYN051CMAN 11024 HRBM4 46/// /3006 11018 90200 333 91207;
0061997260999992005011103004+43850-082633FM-18+0188HRBM V0203301N003019999999N9999999N1-00251+99999999999REMSYN052CMTI   46// HRBM4 46/// /3303 11025 90300 333 91204;
0061997260999992005011104004+43850-082633FM-18+0188HRBM V0203201N004019999999N9999999N1-00201+99999999999REMSYN052CMTI   46// HRBM4 46/// /3204 11020 90400 333 91205;
0060997260999992005011105004+43850-082633FM-18+0188HRBM V0209999C000019999999N9999999N1-00221+99999999999REMSYN051CMAN 11054 HRBM4 46/// /0000 11022 90506 333 91200;
0061997260999992005011106004+43850-082633FM-18+0188HRBM V0209999C000019999999N9999999N1-00261+99999999999REMSYN052CMTI   46// HRBM4 46/// /0000 11026 90600 333 91201;
0061997260999992005011107004+43850-082633FM-18+0188HRBM V0200901N006019999999N9999999N1-00051+99999999999REMSYN052CMTI   46// HRBM4 46/// /0906 11005 90700 333 91208;
0061997260999992005011108004+43850-082633FM-18+0188HRBM V0201001N009019999999N9999999N1-00061+99999999999REMSYN052CMTI   46// HRBM4 46/// /1009 11006 90800 333 91210;
0061997260999992005011109004+43850-082633FM-18+0188HRBM V0201301N012019999999N9999999N1-00061+99999999999REMSYN052CMTI   46// HRBM4 46/// /1312 11006 90900 333 91213;
0061997260999992005011110004+43850-082633FM-18+0188HRBM V0201301N010019999999N9999999N1-00051+99999999999REMSYN052CMTI   46// HRBM4 46/// /1310 11005 91006 333 91211;
0061997260999992005011111004+43850-082633FM-18+0188HRBM V0201301N011019999999N9999999N1-00041+99999999999REMSYN052CMTI   46// HRBM4 46/// /1311 11004 91100 333 91212;
0061997260999992005011112004+43850-082633FM-18+0188HRBM V0201401N011019999999N9999999N1-00011+99999999999REMSYN052CMTI   46// HRBM4 46/// /1411 11001 91200 333 91212;
0067997260999992005011114004+43850-082633FM-18+0188HRBM V0201501N011019999999N9999999N1+00001+99999102161REMSYN058CMTI   46// HRBM4 46/// /1511 10000 40216 91418 333 91213;
0090997260999992005011115004+43850-082633FM-18+0188HRBM V0201401N012019999999N9999999N1-00021+99999102111ADDMD1710041+9999REMSYN064CMTI   46// HRBM4 46/// /1412 11002 40211 57004 91500 333 91214;
0067997260999992005011116004+43850-082633FM-18+0188HRBM V0201401N013019999999N9999999N1-00021+99999102091REMSYN058CMTI   46// HRBM4 46/// /1413 11002 40209 91606 333 91215;
0067997260999992005011117004+43850-082633FM-18+0188HRBM V0201401N012019999999N9999999N1-00011+99999102021REMSYN058CMTI   46// HRBM4 46/// /1412 11001 40202 91700 333 91214;
0067997260999992005011118004+43850-082633FM-18+0188HRBM V0201301N011019999999N9999999N1-00011+99999101941REMSYN058CMTI   46// HRBM4 46/// /1311 11001 40194 91806 333 91213;
0067997260999992005011119004+43850-082633FM-18+0188HRBM V0201201N010019999999N9999999N1+00011+99999101921REMSYN058CMTI   46// HRBM4 46/// /1210 10001 40192 91900 333 91211;
0067997260999992005011120004+43850-082633FM-18+0188HRBM V0201101N010019999999N9999999N1+00021+99999101901REMSYN058CMTI   46// HRBM4 46/// /1110 10002 40190 92018 333 91213;
0067997260999992005011121004+43850-082633FM-18+0188HRBM V0201101N012019999999N9999999N1+00031+99999101871REMSYN058CMTI   46// HRBM4 46/// /1112 10003 40187 92100 333 91214;
0067997260999992005011122004+43850-082633FM-18+0188HRBM V0201001N012019999999N9999999N1+00051+99999101901REMSYN058CMTI   46// HRBM4 46/// /1012 10005 40190 92224 333 91214;
0067997260999992005011123004+43850-082633FM-18+0188HRBM V0201001N013019999999N9999999N1+00051+99999101901REMSYN058CMTI   46// HRBM4 46/// /1013 10005 40190 92324 333 91214;
0090997260999992005011200004+43850-082633FM-18+0188HRBM V0201001N013019999999N9999999N1+00021+99999101931ADDMD1210061+9999REMSYN064CMTI   46// HRBM4 46/// /1013 10002 40193 52006 90000 333 91215;
0067997260999992005011204004+43850-082633FM-18+0188HRBM V0201401N012019999999N9999999N1-00011+99999101731REMSYN058CMTI   46// HRBM4 46/// /1412 11001 40173 90436 333 91216;
0067997260999992005011205004+43850-082633FM-18+0188HRBM V0201401N016019999999N9999999N1-00011+99999101651REMSYN058CMTI   46// HRBM4 46/// /1416 11001 40165 90500 333 91217;
0067997260999992005011206004+43850-082633FM-18+0188HRBM V0201401N013019999999N9999999N1-00011+99999101591REMSYN058CMTI   46// HRBM4 46/// /1413 11001 40159 90600 333 91215;
0067997260999992005011207004+43850-082633FM-18+0188HRBM V0201301N011019999999N9999999N1+00011+99999101561REMSYN058CMTI   46// HRBM4 46/// /1311 10001 40156 90700 333 91212;
0090997260999992005011208004+43850-082633FM-18+0188HRBM V0201001N012019999999N9999999N1+00001+99999101501ADDMD1710151+9999REMSYN064CMTI   46// HRBM4 46/// /1012 10000 40150 57015 90800 333 91215;
0090997260999992005011209004+43850-082633FM-18+0188HRBM V0200901N013019999999N9999999N1-00011+99999101411ADDMD1810181+9999REMSYN064CMTI   46// HRBM4 46/// /0913 11001 40141 58018 90900 333 91216;
0090997260999992005011210004+43850-082633FM-18+0188HRBM V0201101N013019999999N9999999N1-00031+99999101351ADDMD1710211+9999REMSYN064CMTI   46// HRBM4 46/// /1113 11003 40135 57021 91000 333 91216;
0090997260999992005011211004+43850-082633FM-18+0188HRBM V0201201N010019999999N9999999N1-00031+99999101301ADDMD1610201+9999REMSYN064CMTI   46// HRBM4 46/// /1210 11003 40130 56020 91100 333 91211;
0067997260999992005011213004+43850-082633FM-18+0188HRBM V0201301N013019999999N9999999N1+00041+99999101111REMSYN058CMTI   46// HRBM4 46/// /1313 10004 40111 91324 333 91215;
0090997260999992005011214004+43850-082633FM-18+0188HRBM V0201501N012019999999N9999999N1+00051+99999101151ADDMD1710151+9999REMSYN064CMTI   46// HRBM4 46/// /1512 10005 40115 57015 91400 333 91214;
0067997260999992005011215004+43850-082633FM-18+0188HRBM V0201401N016019999999N9999999N1+00071+99999101051REMSYN058CMTI   46// HRBM4 46/// /1416 10007 40105 91500 333 91218;
0067997260999992005011216004+43850-082633FM-18+0188HRBM V0201601N015019999999N9999999N1+00081+99999101031REMSYN058CMTI   46// HRBM4 46/// /1615 10008 40103 91600 333 91218;
0090997260999992005011217004+43850-082633FM-18+0188HRBM V0201601N014019999999N9999999N1+00081+99999100901ADDMD1810251+9999REMSYN064CMTI   46// HRBM4 46/// /1614 10008 40090 58025 91700 333 91216;
0090997260999992005011218004+43850-082633FM-18+0188HRBM V0201601N015019999999N9999999N1+00141+99999100761ADDMD1810291+9999REMSYN064CMTI   46// HRBM4 46/// /1615 10014 40076 58029 91800 333 91219;
0090997260999992005011219004+43850-082633FM-18+0188HRBM V0201701N015019999999N9999999N1+00171+99999100741ADDMD1610291+9999REMSYN064CMTI   46// HRBM4 46/// /1715 10017 40074 56029 91900 333 91220;
0090997260999992005011220004+43850-082633FM-18+0188HRBM V0201601N012019999999N9999999N1+00111+99999100631ADDMD1610271+9999REMSYN064CMTI   46// HRBM4 46/// /1612 10011 40063 56027 92000 333 91214;
0090997260999992005011221004+43850-082633FM-18+0188HRBM V0201701N012019999999N9999999N1+00101+99999100621ADDMD1710141+9999REMSYN064CMTI   46// HRBM4 46/// /1712 10010 40062 57014 92100 333 91213;
0090997260999992005011222004+43850-082633FM-18+0188HRBM V0201601N004019999999N9999999N1+00231+99999100651ADDMD1510091+9999REMSYN064CMTI   46// HRBM4 46/// /1604 10023 40065 55009 92200 333 91204;
0090997260999992005011223004+43850-082633FM-18+0188HRBM V0201801N009019999999N9999999N1+00501+99999100611ADDMD1010001+9999REMSYN064CMTI   46// HRBM4 46/// /1809 10050 40061 50000 92300 333 91212;
0090997260999992005011300004+43850-082633FM-18+0188HRBM V0201601N012019999999N9999999N1+00301+99999100671ADDMD1310051+9999REMSYN064CMTI   46// HRBM4 46/// /1612 10030 40067 53005 90000 333 91214;
0090997260999992005011301004+43850-082633FM-18+0188HRBM V0201601N017019999999N9999999N1+00291+99999100601ADDMD1810051+9999REMSYN064CMTI   46// HRBM4 46/// /1617 10029 40060 58005 90100 333 91219;
0090997260999992005011302004+43850-082633FM-18+0188HRBM V0201801N011019999999N9999999N1+00761+99999100521ADDMD1810091+9999REMSYN064CMTI   46// HRBM4 46/// /1811 10076 40052 58009 90200 333 91215;
0090997260999992005011303004+43850-082633FM-18+0188HRBM V0201901N014019999999N9999999N1+00971+99999100471ADDMD1610201+9999REMSYN064CMTI   46// HRBM4 46/// /1914 10097 40047 56020 90300 333 91220;
0090997260999992005011304004+43850-082633FM-18+0188HRBM V0201901N015019999999N9999999N1+01001+99999100391ADDMD1710211+9999REMSYN064CMTI   46// HRBM4 46/// /1915 10100 40039 57021 90400 333 91219;
0090997260999992005011305004+43850-082633FM-18+0188HRBM V0201901N016019999999N9999999N1+01071+99999100311ADDMD1810211+9999REMSYN064CMTI   46// HRBM4 46/// /1916 10107 40031 58021 90500 333 91221;
0090997260999992005011306004+43850-082633FM-18+0188HRBM V0201901N017019999999N9999999N1+01181+99999100261ADDMD1610211+9999REMSYN064CMTI   46// HRBM4 46/// /1917 10118 40026 56021 90600 333 91222;
0090997260999992005011307004+43850-082633FM-18+0188HRBM V0201901N014019999999N9999999N1+01211+99999100241ADDMD1610151+9999REMSYN064CMTI   46// HRBM4 46/// /1914 10121 40024 56015 90700 333 91219;
0090997260999992005011308004+43850-082633FM-18+0188HRBM V0201901N013019999999N9999999N1+01261+99999100161ADDMD1810151+9999REMSYN064CMTI   46// HRBM4 46/// /1913 10126 40016 58015 90800 333 91216;
0090997260999992005011309004+43850-082633FM-18+0188HRBM V0202401N006019999999N9999999N1+01221+99999100161ADDMD1710101+9999REMSYN064CMTI   46// HRBM4 46/// /2406 10122 40016 57010 90900 333 91208;
0090997260999992005011310004+43850-082633FM-18+0188HRBM V0201901N009019999999N9999999N1+01191+99999100121ADDMD1610121+9999REMSYN064CMTI   46// HRBM4 46/// /1909 10119 40012 56012 91000 333 91212;
0090997260999992005011311004+43850-082633FM-18+0188HRBM V0201901N012019999999N9999999N1+01181+99999100051ADDMD1810111+9999REMSYN064CMTI   46// HRBM4 46/// /1912 10118 40005 58011 91100 333 91215;
0090997260999992005011312004+43850-082633FM-18+0188HRBM V0201701N007019999999N9999999N1+00681+99999100011ADDMD1710151+9999REMSYN064CMTI   46// HRBM4 46/// /1707 10068 40001 57015 91200 333 91209;
0090997260999992005011313004+43850-082633FM-18+0188HRBM V0201601N005019999999N9999999N1+00771+99999100021ADDMD1610101+9999REMSYN064CMTI   46// HRBM4 46/// /1605 10077 40002 56010 91300 333 91206;
0090997260999992005011314004+43850-082633FM-18+0188HRBM V0209999C000019999999N9999999N1+00931+99999100061ADDMD1510001+9999REMSYN064CMTI   46// HRBM4 46/// /0000 10093 40006 55000 91400 333 91204;
0090997260999992005011315004+43850-082633FM-18+0188HRBM V0203501N010019999999N9999999N1+99999+99999100171ADDMD1310161+9999REMSYN064CMTI   46// HRBM4 46/// /3510 1//// 40017 53016 91500 333 91213;
0090997260999992005011316004+43850-082633FM-18+0188HRBM V0203501N003019999999N9999999N1+99999+99999100151ADDMD1110131+9999REMSYN064CMTI   46// HRBM4 46/// /3503 1//// 40015 51013 91600 333 91204;
0067997260999992005011318004+43850-082633FM-18+0188HRBM V0203401N014019999999N9999999N1+99999+99999100191REMSYN058CMTI   46// HRBM4 46/// /3414 1//// 40019 91848 333 91218;
0090997260999992005011319004+43850-082633FM-18+0188HRBM V0203601N012019999999N9999999N1+99999+99999100231ADDMD1210081+9999REMSYN064CMTI   46// HRBM4 46/// /3612 1//// 40023 52008 91900 333 91219;
0067997260999992005011320004+43850-082633FM-18+0188HRBM V0203501N017019999999N9999999N1+99999+99999100311REMSYN058CMTI   46// HRBM4 46/// /3517 1//// 40031 92000 333 91220;
0067997260999992005011321004+43850-082633FM-18+0188HRBM V0203401N015019999999N9999999N1+99999+99999100541REMSYN058CMTI   46// HRBM4 46/// /3415 1//// 40054 92100 333 91221;
0090997260999992005011322004+43850-082633FM-18+0188HRBM V0203401N015019999999N9999999N1+99999+99999100681ADDMD1310451+9999REMSYN064CMTI   46// HRBM4 46/// /3415 1//// 40068 53045 92200 333 91218;
0090997260999992005011323004+43850-082633FM-18+0188HRBM V0203401N013019999999N9999999N1+99999+99999100811ADDMD1110501+9999REMSYN064CMTI   46// HRBM4 46/// /3413 1//// 40081 51050 92300 333 91217;
0090997260999992005011400004+43850-082633FM-18+0188HRBM V0203201N011019999999N9999999N1+99999+99999100971ADDMD1310431+9999REMSYN064CMTI   46// HRBM4 46/// /3211 1//// 40097 53043 90000 333 91213;
0090997260999992005011401004+43850-082633FM-18+0188HRBM V0203301N010019999999N9999999N1+99999+99999101091ADDMD1110411+9999REMSYN064CMTI   46// HRBM4 46/// /3310 1//// 40109 51041 90100 333 91211;
0067997260999992005011402004+43850-082633FM-18+0188HRBM V0203201N007019999999N9999999N1+99999+99999101181REMSYN058CMTI   46// HRBM4 46/// /3207 1//// 40118 90224 333 91210;
0067997260999992005011408004+43850-082633FM-18+0188HRBM V0203001N014019999999N9999999N1+99999+99999101931REMSYN058CMTI   46// HRBM4 46/// /3014 1//// 40193 90806 333 91219;
0067997260999992005011409004+43850-082633FM-18+0188HRBM V0203101N016019999999N9999999N1+99999+99999102101REMSYN058CMTI   46// HRBM4 46/// /3116 1//// 40210 90900 333 91220;
0067997260999992005011410004+43850-082633FM-18+0188HRBM V0203101N016019999999N9999999N1+99999+99999102311REMSYN058CMTI   46// HRBM4 46/// /3116 1//// 40231 91000 333 91220;
0067997260999992005011411004+43850-082633FM-18+0188HRBM V0203101N015019999999N9999999N1+99999+99999102451REMSYN058CMTI   46// HRBM4 46/// /3115 1//// 40245 91100 333 91220;
0090997260999992005011412004+43850-082633FM-18+0188HRBM V0202901N012019999999N9999999N1+99999+99999102601ADDMD1110501+9999REMSYN064CMTI   46// HRBM4 46/// /2912 1//// 40260 51050 91200 333 91217;
0090997260999992005011413004+43850-082633FM-18+0188HRBM V0203001N010019999999N9999999N1+99999+99999102751ADDMD1310441+9999REMSYN064CMTI   46// HRBM4 46/// /3010 1//// 40275 53044 91300 333 91213;
0067997260999992005011414004+43850-082633FM-18+0188HRBM V0202901N014019999999N9999999N1+99999+99999102911REMSYN058CMTI   46// HRBM4 46/// /2914 1//// 40291 91406 333 91220;
0067997260999992005011415004+43850-082633FM-18+0188HRBM V0202901N014019999999N9999999N1-01131+99999103041REMSYN058CMTI   46// HRBM4 46/// /2914 11113 40304 91506 333 91220;
0067997260999992005011416004+43850-082633FM-18+0188HRBM V0202801N013019999999N9999999N1-01151+99999103181REMSYN058CMTI   46// HRBM4 46/// /2813 11115 40318 91606 333 91219;
0067997260999992005011417004+43850-082633FM-18+0188HRBM V0202801N012019999999N9999999N1-01171+99999103161REMSYN058CMTI   46// HRBM4 46/// /2812 11117 40316 91700 333 91221;
0067997260999992005011418004+43850-082633FM-18+0188HRBM V0202701N012019999999N9999999N1-01161+99999103151REMSYN058CMTI   46// HRBM4 46/// /2712 11116 40315 91800 333 91218;
0067997260999992005011419004+43850-082633FM-18+0188HRBM V0202801N012019999999N9999999N1-01141+99999103171REMSYN058CMTI   46// HRBM4 46/// /2812 11114 40317 91900 333 91218;
0090997260999992005011420004+43850-082633FM-18+0188HRBM V0202601N015019999999N9999999N1-01121+99999103231ADDMD1310071+9999REMSYN064CMTI   46// HRBM4 46/// /2615 11112 40323 53007 92000 333 91222;
0090997260999992005011421004+43850-082633FM-18+0188HRBM V0202501N009019999999N9999999N1-01081+99999103331ADDMD1310181+9999REMSYN064CMTI   46// HRBM4 46/// /2509 11108 40333 53018 92100 333 91215;
0090997260999992005011422004+43850-082633FM-18+0188HRBM V0202601N008019999999N9999999N1-01111+99999103341ADDMD1110171+9999REMSYN064CMTI   46// HRBM4 46/// /2608 11111 40334 51017 92200 333 91210;
0090997260999992005011423004+43850-082633FM-18+0188HRBM V0202501N008019999999N9999999N1-01121+99999103411ADDMD1110181+9999REMSYN064CMTI   46// HRBM4 46/// /2508 11112 40341 51018 92300 333 91210;
0090997260999992005011500004+43850-082633FM-18+0188HRBM V0202501N006019999999N9999999N1-01121+99999103451ADDMD1310121+9999REMSYN064CMTI   46// HRBM4 46/// /2506 11112 40345 53012 90000 333 91208;
0090997260999992005011501004+43850-082633FM-18+0188HRBM V0202701N007019999999N9999999N1-01121+99999103571ADDMD1310231+9999REMSYN064CMTI   46// HRBM4 46/// /2707 11112 40357 53023 90100 333 91210;
0090997260999992005011502004+43850-082633FM-18+0188HRBM V0202701N007019999999N9999999N1-01171+99999103601ADDMD1110191+9999REMSYN064CMTI   46// HRBM4 46/// /2707 11117 40360 51019 90200 333 91213;
0090997260999992005011503004+43850-082633FM-18+0188HRBM V0202701N007019999999N9999999N1-01231+99999103681ADDMD1110231+9999REMSYN064CMTI   46// HRBM4 46/// /2707 11123 40368 51023 90300 333 91210;
0090997260999992005011504004+43850-082633FM-18+0188HRBM V0202801N009019999999N9999999N1-01281+99999103741ADDMD1310171+9999REMSYN064CMTI   46// HRBM4 46/// /2809 11128 40374 53017 90400 333 91211;
0090997260999992005011505004+43850-082633FM-18+0188HRBM V0202701N010019999999N9999999N1-01351+99999103801ADDMD1110201+9999REMSYN064CMTI   46// HRBM4 46/// /2710 11135 40380 51020 90500 333 91215;
0090997260999992005011506004+43850-082633FM-18+0188HRBM V0202601N009019999999N9999999N1-01371+99999103811ADDMD1110131+9999REMSYN064CMTI   46// HRBM4 46/// /2609 11137 40381 51013 90600 333 91215;
0090997260999992005011507004+43850-082633FM-18+0188HRBM V0202401N009019999999N9999999N1-01381+99999103851ADDMD1110111+9999REMSYN064CMTI   46// HRBM4 46/// /2409 11138 40385 51011 90700 333 91212;
0090997260999992005011508004+43850-082633FM-18+0188HRBM V0202501N008019999999N9999999N1-01411+99999103841ADDMD1210041+9999REMSYN064CMTI   46// HRBM4 46/// /2508 11141 40384 52004 90800 333 91212;
0090997260999992005011509004+43850-082633FM-18+0188HRBM V0202501N008019999999N9999999N1-01411+99999103831ADDMD1010001+9999REMSYN064CMTI   46// HRBM4 46/// /2508 11141 40383 50000 90900 333 91211;
0090997260999992005011510004+43850-082633FM-18+0188HRBM V0202501N008019999999N9999999N1-01391+99999103851ADDMD1410001+9999REMSYN064CMTI   46// HRBM4 46/// /2508 11139 40385 54000 91000 333 91212;
0090997260999992005011511004+43850-082633FM-18+0188HRBM V0202501N007019999999N9999999N1-01411+99999103861ADDMD1410001+9999REMSYN064CMTI   46// HRBM4 46/// /2507 11141 40386 54000 91100 333 91211;
0090997260999992005011512004+43850-082633FM-18+0188HRBM V0202401N006019999999N9999999N1-01401+99999103911ADDMD1310081+9999REMSYN064CMTI   46// HRBM4 46/// /2406 11140 40391 53008 91200 333 91208;
0090997260999992005011513004+43850-082633FM-18+0188HRBM V0202401N006019999999N9999999N1-01411+99999103921ADDMD1210071+9999REMSYN064CMTI   46// HRBM4 46/// /2406 11141 40392 52007 91300 333 91209;
0090997260999992005011514004+43850-082633FM-18+0188HRBM V0202401N008019999999N9999999N1-01381+99999103951ADDMD1110091+9999REMSYN064CMTI   46// HRBM4 46/// /2408 11138 40395 51009 91400 333 91210;
0090997260999992005011515004+43850-082633FM-18+0188HRBM V0202501N011019999999N9999999N1-01231+99999104001ADDMD1310091+9999REMSYN064CMTI   46// HRBM4 46/// /2511 11123 40400 53009 91500 333 91215;
0090997260999992005011516004+43850-082633FM-18+0188HRBM V0202601N009019999999N9999999N1-01151+99999104001ADDMD1110081+9999REMSYN064CMTI   46// HRBM4 46/// /2609 11115 40400 51008 91600 333 91219;
0090997260999992005011517004+43850-082633FM-18+0188HRBM V0202501N013019999999N9999999N1-01111+99999103961ADDMD1010001+9999REMSYN064CMTI   46// HRBM4 46/// /2513 11111 40396 50000 91700 333 91221;
0090997260999992005011518004+43850-082633FM-18+0188HRBM V0202501N012019999999N9999999N1-01011+99999103881ADDMD1810121+9999REMSYN064CMTI   46// HRBM4 46/// /2512 11101 40388 58012 91800 333 91220;
0090997260999992005011519004+43850-082633FM-18+0188HRBM V0202501N018019999999N9999999N1-01001+99999103811ADDMD1810191+9999REMSYN064CMTI   46// HRBM4 46/// /2518 11100 40381 58019 91900 333 91222;
0090997260999992005011520004+43850-082633FM-18+0188HRBM V0202401N015019999999N9999999N1-00941+99999103781ADDMD1610181+9999REMSYN064CMTI   46// HRBM4 46/// /2415 11094 40378 56018 92000 333 91224;
0090997260999992005011521004+43850-082633FM-18+0188HRBM V0202401N015019999999N9999999N1-00931+99999103801ADDMD1610081+9999REMSYN064CMTI   46// HRBM4 46/// /2415 11093 40380 56008 92100 333 91220;
0090997260999992005011522004+43850-082633FM-18+0188HRBM V0202501N011019999999N9999999N1-00931+99999103791ADDMD1510001+9999REMSYN064CMTI   46// HRBM4 46/// /2511 11093 40379 55000 92200 333 91216;
0090997260999992005011523004+43850-082633FM-18+0188HRBM V0202501N006019999999N9999999N1-00961+99999103841ADDMD1310061+9999REMSYN064CMTI   46// HRBM4 46/// /2506 11096 40384 53006 92300 333 91209;
0090997260999992005011600004+43850-082633FM-18+0188HRBM V0202501N005019999999N9999999N1-01001+99999103891ADDMD1310091+9999REMSYN064CMTI   46// HRBM4 46/// /2505 11100 40389 53009 90000 333 91208;
0090997260999992005011601004+43850-082633FM-18+0188HRBM V0202501N005019999999N9999999N1-01021+99999103911ADDMD1110121+9999REMSYN064CMTI   46// HRBM4 46/// /2505 11102 40391 51012 90100 333 91208;
0090997260999992005011602004+43850-082633FM-18+0188HRBM V0202701N005019999999N9999999N1-01071+99999103921ADDMD1110081+9999REMSYN064CMTI   46// HRBM4 46/// /2705 11107 40392 51008 90200 333 91209;
0090997260999992005011603004+43850-082633FM-18+0188HRBM V0202501N005019999999N9999999N1-01151+99999103941ADDMD1210051+9999REMSYN064CMTI   46// HRBM4 46/// /2505 11115 40394 52005 90300 333 91208;
0090997260999992005011604004+43850-082633FM-18+0188HRBM V0202701N006019999999N9999999N1-01201+99999103931ADDMD1410001+9999REMSYN064CMTI   46// HRBM4 46/// /2706 11120 40393 54000 90400 333 91210;
0090997260999992005011605004+43850-082633FM-18+0188HRBM V0202701N007019999999N9999999N1-01221+99999103971ADDMD1310051+9999REMSYN064CMTI   46// HRBM4 46/// /2707 11122 40397 53005 90500 333 91210;
0090997260999992005011606004+43850-082633FM-18+0188HRBM V0202701N009019999999N9999999N1-01191+99999103931ADDMD1010001+9999REMSYN064CMTI   46// HRBM4 46/// /2709 11119 40393 50000 90600 333 91213;
0090997260999992005011607004+43850-082633FM-18+0188HRBM V0202801N007019999999N9999999N1-01181+99999103891ADDMD1810041+9999REMSYN064CMTI   46// HRBM4 46/// /2807 11118 40389 58004 90700 333 91210;
0090997260999992005011608004+43850-082633FM-18+0188HRBM V0202901N006019999999N9999999N1-01171+99999103881ADDMD1610091+9999REMSYN064CMTI   46// HRBM4 46/// /2906 11117 40388 56009 90800 333 91211;
0090997260999992005011609004+43850-082633FM-18+0188HRBM V0203201N010019999999N9999999N1-01221+99999103821ADDMD1810111+9999REMSYN064CMTI   46// HRBM4 46/// /3210 11122 40382 58011 90900 333 91212;
0090997260999992005011610004+43850-082633FM-18+0188HRBM V0203101N007019999999N9999999N1-01271+99999103771ADDMD1810121+9999REMSYN064CMTI   46// HRBM4 46/// /3107 11127 40377 58012 91000 333 91210;
0090997260999992005011611004+43850-082633FM-18+0188HRBM V0202601N007019999999N9999999N1-01271+99999103781ADDMD1610101+9999REMSYN064CMTI   46// HRBM4 46/// /2607 11127 40378 56010 91100 333 91210;
0090997260999992005011612004+43850-082633FM-18+0188HRBM V0202601N007019999999N9999999N1-01211+99999103801ADDMD1510001+9999REMSYN064CMTI   46// HRBM4 46/// /2607 11121 40380 55000 91200 333 91209;
0090997260999992005011613004+43850-082633FM-18+0188HRBM V0202801N007019999999N9999999N1-01181+99999103751ADDMD1010001+9999REMSYN064CMTI   46// HRBM4 46/// /2807 11118 40375 50000 91300 333 91212;
0090997260999992005011614004+43850-082633FM-18+0188HRBM V0202801N009019999999N9999999N1-01191+99999103741ADDMD1710041+9999REMSYN064CMTI   46// HRBM4 46/// /2809 11119 40374 57004 91400 333 91214;
0090997260999992005011615004+43850-082633FM-18+0188HRBM V0203001N008019999999N9999999N1-01181+99999103731ADDMD1610071+9999REMSYN064CMTI   46// HRBM4 46/// /3008 11118 40373 56007 91500 333 91210;
0090997260999992005011616004+43850-082633FM-18+0188HRBM V0203201N011019999999N9999999N1-01231+99999103701ADDMD1810051+9999REMSYN064CMTI   46// HRBM4 46/// /3211 11123 40370 58005 91600 333 91213;
0090997260999992005011617004+43850-082633FM-18+0188HRBM V0203001N010019999999N9999999N1-01191+99999103591ADDMD1810151+9999REMSYN064CMTI   46// HRBM4 46/// /3010 11119 40359 58015 91700 333 91215;
0090997260999992005011618004+43850-082633FM-18+0188HRBM V0203101N012019999999N9999999N1-01181+99999103501ADDMD1810231+9999REMSYN064CMTI   46// HRBM4 46/// /3112 11118 40350 58023 91800 333 91217;
0090997260999992005011619004+43850-082633FM-18+0188HRBM V0203101N011019999999N9999999N1-01181+99999103411ADDMD1610291+9999REMSYN064CMTI   46// HRBM4 46/// /3111 11118 40341 56029 91900 333 91216;
0090997260999992005011620004+43850-082633FM-18+0188HRBM V0203101N011019999999N9999999N1-01211+99999103371ADDMD1610221+9999REMSYN064CMTI   46// HRBM4 46/// /3111 11121 40337 56022 92000 333 91215;
0090997260999992005011621004+43850-082633FM-18+0188HRBM V0203001N011019999999N9999999N1-01191+99999103371ADDMD1610131+9999REMSYN064CMTI   46// HRBM4 46/// /3011 11119 40337 56013 92100 333 91216;
0090997260999992005011622004+43850-082633FM-18+0188HRBM V0203101N009019999999N9999999N1-01211+99999103351ADDMD1610061+9999REMSYN064CMTI   46// HRBM4 46/// /3109 11121 40335 56006 92200 333 91213;
0090997260999992005011623004+43850-082633FM-18+0188HRBM V0202701N007019999999N9999999N1-01251+99999103371ADDMD1410001+9999REMSYN064CMTI   46// HRBM4 46/// /2707 11125 40337 54000 92300 333 91209;
0090997260999992005011700004+43850-082630FM-18+0188HRBM V0202801N006019999999N9999999N1-01191+99999103371ADDMD1410001+9999REMSYN064CMTI   46// HRBM4 46/// /2806 11119 40337 54000 90000 333 91210;
0090997260999992005011701004+43850-082630FM-18+0188HRBM V0202901N008019999999N9999999N1-01151+99999103401ADDMD1310051+9999REMSYN064CMTI   46// HRBM4 46/// /2908 11115 40340 53005 90100 333 91212;
0090997260999992005011702004+43850-082630FM-18+0188HRBM V0203101N011019999999N9999999N1-01161+99999103391ADDMD1410001+9999REMSYN064CMTI   46// HRBM4 46/// /3111 11116 40339 54000 90200 333 91215;
0090997260999992005011703004+43850-082630FM-18+0188HRBM V0202901N012019999999N9999999N1-01151+99999103391ADDMD1010001+9999REMSYN064CMTI   46// HRBM4 46/// /2912 11115 40339 50000 90300 333 91217;
0090997260999992005011704004+43850-082630FM-18+0188HRBM V0202801N012019999999N9999999N1-01191+99999103371ADDMD1710031+9999REMSYN064CMTI   46// HRBM4 46/// /2812 11119 40337 57003 90400 333 91216;
0090997260999992005011705004+43850-082630FM-18+0188HRBM V0202701N008019999999N9999999N1-01301+99999103371ADDMD1410001+9999REMSYN064CMTI   46// HRBM4 46/// /2708 11130 40337 54000 90500 333 91210;
0090997260999992005011705004+43850-082633FM-18+0188HRBM V0202701N008019999999N9999999N1-01301+99999103371ADDMD1410001+9999REMSYN064CMTI   46// HRBM4 46/// /2708 11130 40337 54000 90500 333 91210;
0090997260999992005011706004+43850-082630FM-18+0188HRBM V0202701N010019999999N9999999N1-01361+99999103311ADDMD1810081+9999REMSYN064CMTI   46// HRBM4 46/// /2710 11136 40331 58008 90600 333 91212;
0090997260999992005011707004+43850-082630FM-18+0188HRBM V0202601N009019999999N9999999N1-01371+99999103311ADDMD1710061+9999REMSYN064CMTI   46// HRBM4 46/// /2609 11137 40331 57006 90700 333 91213;
0090997260999992005011708004+43850-082630FM-18+0188HRBM V0202701N009019999999N9999999N1-01411+99999103321ADDMD1610051+9999REMSYN064CMTI   46// HRBM4 46/// /2709 11141 40332 56005 90800 333 91212;
0090997260999992005011709004+43850-082630FM-18+0188HRBM V0202601N008019999999N9999999N1-01421+99999103291ADDMD1010001+9999REMSYN064CMTI   46// HRBM4 46/// /2608 11142 40329 50000 90900 333 91209;
0090997260999992005011710004+43850-082630FM-18+0188HRBM V0202701N008019999999N9999999N1-01411+99999103271ADDMD1710041+9999REMSYN064CMTI   46// HRBM4 46/// /2708 11141 40327 57004 91000 333 91213;
0090997260999992005011711004+43850-082630FM-18+0188HRBM V0202801N008019999999N9999999N1-01341+99999103271ADDMD1610051+9999REMSYN064CMTI   46// HRBM4 46/// /2808 11134 40327 56005 91100 333 91212;
0090997260999992005011712004+43850-082630FM-18+0188HRBM V0202701N010019999999N9999999N1-01401+99999103291ADDMD1410001+9999REMSYN064CMTI   46// HRBM4 46/// /2710 11140 40329 54000 91200 333 91212;
0090997260999992005011713004+43850-082630FM-18+0188HRBM V0202601N008019999999N9999999N1-01431+99999103311ADDMD1210041+9999REMSYN064CMTI   46// HRBM4 46/// /2608 11143 40331 52004 91300 333 91212;
0090997260999992005011714004+43850-082630FM-18+0188HRBM V0202701N010019999999N9999999N1-01381+99999103311ADDMD1210041+9999REMSYN064CMTI   46// HRBM4 46/// /2710 11138 40331 52004 91400 333 91213;
0090997260999992005011715004+43850-082630FM-18+0188HRBM V0202901N009019999999N9999999N1-01271+99999103301ADDMD1410001+9999REMSYN064CMTI   46// HRBM4 46/// /2909 11127 40330 54000 91500 333 91212;
0090997260999992005011716004+43850-082630FM-18+0188HRBM V0202801N011019999999N9999999N1-01231+99999103291ADDMD1410001+9999REMSYN064CMTI   46// HRBM4 46/// /2811 11123 40329 54000 91600 333 91218;
0090997260999992005011717004+43850-082630FM-18+0188HRBM V0203001N012019999999N9999999N1-01201+99999103271ADDMD1710041+9999REMSYN064CMTI   46// HRBM4 46/// /3012 11120 40327 57004 91700 333 91219;
0090997260999992005011718004+43850-082630FM-18+0188HRBM V0203301N016019999999N9999999N1-01141+99999103241ADDMD1810061+9999REMSYN064CMTI   46// HRBM4 46/// /3316 11114 40324 58006 91800 333 91220;
0090997260999992005011719004+43850-082630FM-18+0188HRBM V0203101N018019999999N9999999N1-01181+99999103261ADDMD1710031+9999REMSYN064CMTI   46// HRBM4 46/// /3118 11118 40326 57003 91900 333 91223;
0090997260999992005011720004+43850-082630FM-18+0188HRBM V0203101N016019999999N9999999N1-01201+99999103321ADDMD1310051+9999REMSYN064CMTI   46// HRBM4 46/// /3116 11120 40332 53005 92000 333 91221;
0090997260999992005011721004+43850-082630FM-18+0188HRBM V0203101N017019999999N9999999N1-01271+99999103421ADDMD1310181+9999REMSYN064CMTI   46// HRBM4 46/// /3117 11127 40342 53018 92100 333 91226;
0090997260999992005011722004+43850-082630FM-18+0188HRBM V0203201N016019999999N9999999N1-01321+99999103531ADDMD1310271+9999REMSYN064CMTI   46// HRBM4 46/// /3216 11132 40353 53027 92200 333 91221;
0067997260999992005011723004+43850-082630FM-18+0188HRBM V0203201N013019999999N9999999N1-01421+99999103641REMSYN058CMTI   46// HRBM4 46/// /3213 11142 40364 92306 333 91218;
0090997260999992005011800004+43850-082633FM-18+0188HRBM V0203101N015019999999N9999999N1-01511+99999103711ADDMD1210291+9999REMSYN064CMTI   46// HRBM4 46/// /3115 11151 40371 52029 90000 333 91220;
0090997260999992005011801004+43850-082633FM-18+0188HRBM V0203201N014019999999N9999999N1-01501+99999103771ADDMD1210241+9999REMSYN064CMTI   46// HRBM4 46/// /3214 11150 40377 52024 90100 333 91218;
0067997260999992005011802004+43850-082633FM-18+0188HRBM V0203001N012019999999N9999999N1-01501+99999103781REMSYN058CMTI   46// HRBM4 46/// /3012 11150 40378 90200 333 91221;
0090997260999992005011803004+43850-082633FM-18+0188HRBM V0202901N014019999999N9999999N1-01471+99999103801ADDMD1110091+9999REMSYN064CMTI   46// HRBM4 46/// /2914 11147 40380 51009 90300 333 91218;
0090997260999992005011804004+43850-082633FM-18+0188HRBM V0203001N014019999999N9999999N1-01501+99999103801ADDMD1210031+9999REMSYN064CMTI   46// HRBM4 46/// /3014 11150 40380 52003 90400 333 91220;
0090997260999992005011805004+43850-082633FM-18+0188HRBM V0202901N011019999999N9999999N1-01431+99999103851ADDMD1310071+9999REMSYN064CMTI   46// HRBM4 46/// /2911 11143 40385 53007 90500 333 91218;
0090997260999992005011806004+43850-082633FM-18+0188HRBM V0203101N011019999999N9999999N1-01451+99999103821ADDMD1010001+9999REMSYN064CMTI  46/// HRBM4 46/// /3111 11145 40382 50000 90600 333 91219;
0090997260999992005011807004+43850-082633FM-18+0188HRBM V0203001N011019999999N9999999N1-01441+99999103851ADDMD1110051+9999REMSYN064CMTI   46// HRBM4 46/// /3011 11144 40385 51005 90700 333 91218;
0090997260999992005011808004+43850-082633FM-18+0188HRBM V0203001N011019999999N9999999N1-01441+99999103921ADDMD1310071+9999REMSYN064CMTI   46// HRBM4 46/// /3011 11144 40392 53007 90800 333 91215;
0090997260999992005011809004+43850-082633FM-18+0188HRBM V0202901N010019999999N9999999N1-01401+99999103951ADDMD1210131+9999REMSYN064CMTI   46// HRBM4 46/// /2910 11140 40395 52013 90900 333 91215;
0090997260999992005011810004+43850-082633FM-18+0188HRBM V0202801N010019999999N9999999N1-01471+99999103941ADDMD1110091+9999REMSYN064CMTI   46// HRBM4 46/// /2810 11147 40394 51009 91000 333 91212;
0090997260999992005011811004+43850-082633FM-18+0188HRBM V0202701N011019999999N9999999N1-01491+99999104021ADDMD1310101+9999REMSYN064CMTI   46// HRBM4 46/// /2711 11149 40402 53010 91100 333 91213;
0090997260999992005011812004+43850-082633FM-18+0188HRBM V0202701N011019999999N9999999N1-01531+99999104061ADDMD1310111+9999REMSYN064CMTI   46// HRBM4 46/// /2711 11153 40406 53011 91200 333 91215;
0090997260999992005011813004+43850-082633FM-18+0188HRBM V0202801N011019999999N9999999N1-01561+99999104101ADDMD1110161+9999REMSYN064CMTI   46// HRBM4 46/// /2811 11156 40410 51016 91300 333 91212;
0090997260999992005011814004+43850-082633FM-18+0188HRBM V0202701N010019999999N9999999N1-01631+99999104091ADDMD1110071+9999REMSYN064CMTI   46// HRBM4 46/// /2710 11163 40409 51007 91400 333 91213;
0090997260999992005011815004+43850-082633FM-18+0188HRBM V0202701N010019999999N9999999N1-01551+99999104071ADDMD1010001+9999REMSYN064CMTI   46// HRBM4 46/// /2710 11155 40407 50000 91500 333 91213;
0090997260999992005011816004+43850-082633FM-18+0188HRBM V0202701N011019999999N9999999N1-01501+99999104081ADDMD1410001+9999REMSYN064CMTI   46// HRBM4 46/// /2711 11150 40408 54000 91600 333 91215;
0090997260999992005011817004+43850-082633FM-18+0188HRBM V0202601N010019999999N9999999N1-01401+99999103851ADDMD1810241+9999REMSYN064CMTI   46// HRBM4 46/// /2610 11140 40385 58024 91700 333 91212;
0090997260999992005011818004+43850-082633FM-18+0188HRBM V0202301N007019999999N9999999N1-01251+99999103711ADDMD1810361+9999REMSYN064CMTI   46// HRBM4 46/// /2307 11125 40371 58036 91800 333 91210;
0090997260999992005011819004+43850-082633FM-18+0188HRBM V0202001N012019999999N9999999N1-01161+99999103641ADDMD1610441+9999REMSYN064CMTI   46// HRBM4 46/// /2012 11116 40364 56044 91900 333 91215;
0090997260999992005011820004+43850-082633FM-18+0188HRBM V0202201N012019999999N9999999N1-01141+99999103581ADDMD1610271+9999REMSYN064CMTI   46// HRBM4 46/// /2212 11114 40358 56027 92000 333 91214;
0090997260999992005011821004+43850-082633FM-18+0188HRBM V0201901N013019999999N9999999N1-01071+99999103391ADDMD1810321+9999REMSYN064CMTI   46// HRBM4 46/// /1913 11107 40339 58032 92100 333 91216;
0090997260999992005011822004+43850-082633FM-18+0188HRBM V0201901N013019999999N9999999N1-01051+99999103241ADDMD1810401+9999REMSYN064CMTI   46// HRBM4 46/// /1913 11105 40324 58040 92200 333 91216;
0090997260999992005011823004+43850-082633FM-18+0188HRBM V0201801N015019999999N9999999N1-01061+99999103021ADDMD1810561+9999REMSYN064CMTI   46// HRBM4 46/// /1815 11106 40302 58056 92300 333 91219;
0090997260999992005011900004+43850-082633FM-18+0188HRBM V0201801N018019999999N9999999N1-01061+99999102891ADDMD1610501+9999REMSYN064CMTI   46// HRBM4 46/// /1818 11106 40289 56050 90000 333 91226;
0090997260999992005011901004+43850-082633FM-18+0188HRBM V0202001N020019999999N9999999N1-01061+99999102701ADDMD1610541+9999REMSYN064CMTI   46// HRBM4 46/// /2020 11106 40270 56054 90100 333 91225;
0090997260999992005011902004+43850-082633FM-18+0188HRBM V0201801N018019999999N9999999N1-01041+99999102471ADDMD1810551+9999REMSYN064CMTI   46// HRBM4 46/// /1818 11104 40247 58055 90200 333 91226;
0090997260999992005011903004+43850-082633FM-18+0188HRBM V0201901N019019999999N9999999N1-01011+99999102261ADDMD1810631+9999REMSYN064CMTI   46// HRBM4 46/// /1919 11101 40226 58063 90300 333 91228;
0090997260999992005011904004+43850-082633FM-18+0188HRBM V0202001N020019999999N9999999N1-00981+99999102071ADDMD1610631+9999REMSYN064CMTI   46// HRBM4 46/// /2020 11098 40207 56063 90400 333 91230;
0090997260999992005011905004+43850-082633FM-18+0188HRBM V0201901N019019999999N9999999N1-01051+99999101981ADDMD1610491+9999REMSYN064CMTI   46// HRBM4 46/// /1919 11105 40198 56049 90500 333 91227;
0090997260999992005011906004+43850-082633FM-18+0188HRBM V0201801N021019999999N9999999N1-01041+99999101711ADDMD1810551+9999REMSYN064CMTI   46// HRBM4 46/// /1821 11104 40171 58055 90600 333 91225;
0090997260999992005011907004+43850-082633FM-18+0188HRBM V0201801N018019999999N9999999N1-00961+99999101511ADDMD1810561+9999REMSYN064CMTI   46// HRBM4 46/// /1818 11096 40151 58056 90700 333 91222;
0090997260999992005011908004+43850-082633FM-18+0188HRBM V0201901N015019999999N9999999N1-00921+99999101391ADDMD1610591+9999REMSYN064CMTI   46// HRBM4 46/// /1915 11092 40139 56059 90800 333 91224;
0090997260999992005011909004+43850-082633FM-18+0188HRBM V0201901N018019999999N9999999N1-00861+99999101191ADDMD1710521+9999REMSYN064CMTI   46// HRBM4 46/// /1918 11086 40119 57052 90900 333 91222;
0090997260999992005011910004+43850-082633FM-18+0188HRBM V0202001N017019999999N9999999N1-00811+99999101011ADDMD1810501+9999REMSYN064CMTI   46// HRBM4 46/// /2017 11081 40101 58050 91000 333 91223;
0090997260999992005011911004+43850-082633FM-18+0188HRBM V0202001N015019999999N9999999N1-00771+99999100881ADDMD1610511+9999REMSYN064CMTI   46// HRBM4 46/// /2015 11077 40088 56051 91100 333 91219;
0090997260999992005011912004+43850-082633FM-18+0188HRBM V0202001N014019999999N9999999N1-00751+99999100801ADDMD1610391+9999REMSYN064CMTI   46// HRBM4 46/// /2014 11075 40080 56039 91200 333 91217;
0090997260999992005011913004+43850-082633FM-18+0188HRBM V0202101N013019999999N9999999N1-00721+99999100771ADDMD1610241+9999REMSYN064CMTI   46// HRBM4 46/// /2113 11072 40077 56024 91300 333 91217;
0090997260999992005011914004+43850-082633FM-18+0188HRBM V0202301N013019999999N9999999N1-00651+99999100741ADDMD1610141+9999REMSYN064CMTI   46// HRBM4 46/// /2313 11065 40074 56014 91400 333 91218;
0090997260999992005011915004+43850-082633FM-18+0188HRBM V0202301N012019999999N9999999N1-00551+99999100761ADDMD1610041+9999REMSYN064CMTI   46// HRBM4 46/// /2312 11055 40076 56004 91500 333 91215;
0090997260999992005011916004+43850-082633FM-18+0188HRBM V0202701N014019999999N9999999N1-00421+99999100851ADDMD1310081+9999REMSYN064CMTI   46// HRBM4 46/// /2714 11042 40085 53008 91600 333 91219;
0090997260999992005011917004+43850-082633FM-18+0188HRBM V0203001N010019999999N9999999N1-00361+99999100871ADDMD1210131+9999REMSYN064CMTI   46// HRBM4 46/// /3010 11036 40087 52013 91700 333 91215;
0090997260999992005011918004+43850-082633FM-18+0188HRBM V0203101N016019999999N9999999N1-00351+99999100931ADDMD1110171+9999REMSYN064CMTI   46// HRBM4 46/// /3116 11035 40093 51017 91800 333 91220;
0090997260999992005011919004+43850-082633FM-18+0188HRBM V0203101N014019999999N9999999N1-00291+99999100971ADDMD1310121+9999REMSYN064CMTI   46// HRBM4 46/// /3114 11029 40097 53012 91900 333 91219;
0090997260999992005011920004+43850-082633FM-18+0188HRBM V0203001N012019999999N9999999N1-00221+99999101041ADDMD1310171+9999REMSYN064CMTI   46// HRBM4 46/// /3012 11022 40104 53017 92000 333 91218;
0090997260999992005011921004+43850-082633FM-18+0188HRBM V0203101N018019999999N9999999N1-00251+99999101131ADDMD1310201+9999REMSYN064CMTI   46// HRBM4 46/// /3118 11025 40113 53020 92100 333 91223;
0090997260999992005011922004+43850-082633FM-18+0188HRBM V0203201N015019999999N9999999N1-00261+99999101251ADDMD1310281+9999REMSYN064CMTI   46// HRBM4 46/// /3215 11026 40125 53028 92200 333 91221;
0090997260999992005011923004+43850-082633FM-18+0188HRBM V0203201N012019999999N9999999N1-00351+99999101391ADDMD1310351+9999REMSYN064CMTI   46// HRBM4 46/// /3212 11035 40139 53035 92300 333 91217;
0067997260999992005012000004+43850-082633FM-18+0188HRBM V0203301N019019999999N9999999N1-00481+99999101541REMSYN058CMTI   46// HRBM4 46/// /3319 11048 40154 90006 333 91223;
0090997260999992005012001004+43850-082633FM-18+0188HRBM V0203301N016019999999N9999999N1-00561+99999101661ADDMD1210411+9999REMSYN064CMTI   46// HRBM4 46/// /3316 11056 40166 52041 90100 333 91223;
0090997260999992005012002004+43850-082633FM-18+0188HRBM V0203301N013019999999N9999999N1-00621+99999101741ADDMD1210351+9999REMSYN064CMTI   46// HRBM4 46/// /3313 11062 40174 52035 90200 333 91221;
0067997260999992005012004004+43850-082633FM-18+0188HRBM V0203401N020019999999N9999999N1-00631+99999101901REMSYN058CMTI   46// HRBM4 46/// /3420 11063 40190 90418 333 91225;
0090997260999992005012005004+43850-082633FM-18+0188HRBM V0203401N019019999999N9999999N1-00651+99999101931ADDMD1110191+9999REMSYN064CMTI   46// HRBM4 46/// /3419 11065 40193 51019 90500 333 91226;
0090997260999992005012006004+43850-082633FM-18+0188HRBM V0203601N020019999999N9999999N1-00701+99999101941ADDMD1110101+9999REMSYN064CMTI   46// HRBM4 46/// /3620 11070 40194 51010 90600 333 91225;
0090997260999992005012007004+43850-082633FM-18+0188HRBM V0203601N019019999999N9999999N1-00771+99999102021ADDMD1310151+9999REMSYN064CMTI   46// HRBM4 46/// /3619 11077 40202 53015 90700 333 91226;
0090997260999992005012008004+43850-082633FM-18+0188HRBM V0200101N019019999999N9999999N1-00821+99999102071ADDMD1310141+9999REMSYN064CMTI   46// HRBM4 46/// /0119 11082 40207 53014 90800 333 91223;
0090997260999992005012009004+43850-082633FM-18+0188HRBM V0203601N016019999999N9999999N1-00821+99999102091ADDMD1110151+9999REMSYN064CMTI   46// HRBM4 46/// /3616 11082 40209 51015 90900 333 91219;
0090997260999992005012010004+43850-082633FM-18+0188HRBM V0200201N015019999999N9999999N1-00861+99999102071ADDMD1110051+9999REMSYN064CMTI   46// HRBM4 46/// /0215 11086 40207 51005 91000 333 91219;
0090997260999992005012011004+43850-082633FM-18+0188HRBM V0200201N014019999999N9999999N1-00871+99999102061ADDMD1410001+9999REMSYN064CMTI   46// HRBM4 46/// /0214 11087 40206 54000 91100 333 91216;
0090997260999992005012012004+43850-082633FM-18+0188HRBM V0200201N011019999999N9999999N1-00861+99999102101ADDMD1510001+9999REMSYN064CMTI   46// HRBM4 46/// /0211 11086 40210 55000 91200 333 91212;
0090997260999992005012013004+43850-082633FM-18+0188HRBM V0200201N008019999999N9999999N1-00851+99999102141ADDMD1310071+9999REMSYN064CMTI   46// HRBM4 46/// /0208 11085 40214 53007 91300 333 91212;
0090997260999992005012014004+43850-082633FM-18+0188HRBM V0200301N010019999999N9999999N1-00831+99999102161ADDMD1110101+9999REMSYN064CMTI   46// HRBM4 46/// /0310 11083 40216 51010 91400 333 91213;
0090997260999992005012015004+43850-082633FM-18+0188HRBM V0200201N008019999999N9999999N1-00811+99999102191ADDMD1110091+9999REMSYN064CMTI   46// HRBM4 46/// /0208 11081 40219 51009 91500 333 91212;
0067997260999992005012016004+43850-082633FM-18+0188HRBM V0200901N010019999999N9999999N1-00931+99999102221REMSYN058CMTI   46// HRBM4 46/// /0910 11093 40222 91606 333 91212;
0067997260999992005012017004+43850-082633FM-18+0188HRBM V0200901N008019999999N9999999N1-00931+99999102151REMSYN058CMTI   46// HRBM4 46/// /0908 11093 40215 91718 333 91211;
0067997260999992005012018004+43850-082633FM-18+0188HRBM V0201001N005019999999N9999999N1-00941+99999102121REMSYN058CMTI   46// HRBM4 46/// /1005 11094 40212 91806 333 91207;
0067997260999992005012019004+43850-082633FM-18+0188HRBM V0201001N005019999999N9999999N1-00971+99999102081REMSYN058CMTI   46// HRBM4 46/// /1005 11097 40208 91900 333 91207;
0090997260999992005012020004+43850-082633FM-18+0188HRBM V0209999C000019999999N9999999N1-00961+99999102081ADDMD1710071+9999REMSYN064CMTI   46// HRBM4 46/// /0000 11096 40208 57007 92000 333 91203;
0067997260999992005012021004+43850-082633FM-18+0188HRBM V0209999C000019999999N9999999N1-00901+99999102091REMSYN058CMTI   46// HRBM4 46/// /0000 11090 40209 92100 333 91204;
0090997260999992005012022004+43850-082633FM-18+0188HRBM V0200101N008019999999N9999999N1-00841+99999102101ADDMD1410001+9999REMSYN064CMTI   46// HRBM4 46/// /0108 11084 40210 54000 92200 333 91210;
0090997260999992005012023004+43850-082633FM-18+0188HRBM V0200401N013019999999N9999999N1-00811+99999102131ADDMD1210051+9999REMSYN064CMTI   46// HRBM4 46/// /0413 11081 40213 52005 92300 333 91217;
0067997260999992005012100004+43850-082633FM-18+0188HRBM V0200301N013019999999N9999999N1-00851+99999102191REMSYN058CMTI   46// HRBM4 46/// /0313 11085 40219 90000 333 91216;
0067997260999992005012101004+43850-082633FM-18+0188HRBM V0200401N015019999999N9999999N1-00851+99999102241REMSYN058CMTI   46// HRBM4 46/// /0415 11085 40224 90100 333 91218;
0090997260999992005012102004+43850-082633FM-18+0188HRBM V0200501N014019999999N9999999N1-00871+99999102241ADDMD1110111+9999REMSYN064CMTI   46// HRBM4 46/// /0514 11087 40224 51011 90200 333 91217;
0090997260999992005012103004+43850-082633FM-18+0188HRBM V0200201N018019999999N9999999N1-00851+99999102281ADDMD1110091+9999REMSYN064CMTI   46// HRBM4 46/// /0218 11085 40228 51009 90300 333 91221;
0090997260999992005012104004+43850-082633FM-18+0188HRBM V0200401N010019999999N9999999N1-00911+99999102341ADDMD1310101+9999REMSYN064CMTI   46// HRBM4 46/// /0410 11091 40234 53010 90400 333 91216;
0090997260999992005012105004+43850-082633FM-18+0188HRBM V0200201N010019999999N9999999N1-00871+99999102371ADDMD1110131+9999REMSYN064CMTI   46// HRBM4 46/// /0210 11087 40237 51013 90500 333 91213;
0090997260999992005012107004+43850-082633FM-18+0188HRBM V0200101N009019999999N9999999N1-00951+99999102401ADDMD1210061+9999REMSYN064CMTI   46// HRBM4 46/// /0109 11095 40240 52006 90700 333 91212;
0090997260999992005012108004+43850-082633FM-18+0188HRBM V0200101N011019999999N9999999N1-00971+99999102471ADDMD1210101+9999REMSYN064CMTI   46// HRBM4 46/// /0111 11097 40247 52010 90800 333 91219;
0067997260999992005012109004+43850-082633FM-18+0188HRBM V0200301N014019999999N9999999N1-00981+99999102511REMSYN058CMTI   46// HRBM4 46/// /0314 11098 40251 90900 333 91217;
0090997260999992005012110004+43850-082633FM-18+0188HRBM V0203601N008019999999N9999999N1-01001+99999102541ADDMD1110141+9999REMSYN064CMTI   46// HRBM4 46/// /3608 11100 40254 51014 91000 333 91212;
0090997260999992005012111004+43850-082633FM-18+0188HRBM V0200901N011019999999N9999999N1-01151+99999102581ADDMD1210111+9999REMSYN064CMTI   46// HRBM4 46/// /0911 11115 40258 52011 91100 333 91215;
0090997260999992005012112004+43850-082633FM-18+0188HRBM V0201001N013019999999N9999999N1-01151+99999102661ADDMD1310151+9999REMSYN064CMTI   46// HRBM4 46/// /1013 11115 40266 53015 91200 333 91215;
0090997260999992005012113004+43850-082633FM-18+0188HRBM V0200601N008019999999N9999999N1-01081+99999102721ADDMD1310181+9999REMSYN064CMTI   46// HRBM4 46/// /0608 11108 40272 53018 91300 333 91210;
0090997260999992005012114004+43850-082633FM-18+0188HRBM V0200801N010019999999N9999999N1-01121+99999102741ADDMD1110161+9999REMSYN064CMTI   46// HRBM4 46/// /0810 11112 40274 51016 91400 333 91214;
0067997260999992005012115004+43850-082633FM-18+0188HRBM V0201201N013019999999N9999999N1-01281+99999102871REMSYN058CMTI   46// HRBM4 46/// /1213 11128 40287 91554 333 91215;
0090997260999992005012116004+43850-082633FM-18+0188HRBM V0201101N010019999999N9999999N1-01281+99999102871ADDMD1310151+9999REMSYN064CMTI   46// HRBM4 46/// /1110 11128 40287 53015 91600 333 91214;
0067997260999992005012118004+43850-082633FM-18+0188HRBM V0201401N010019999999N9999999N1-01311+99999102781REMSYN058CMTI   46// HRBM4 46/// /1410 11131 40278 91818 333 91213;
0067997260999992005012119004+43850-082633FM-18+0188HRBM V0201501N007019999999N9999999N1-01261+99999102761REMSYN058CMTI   46// HRBM4 46/// /1507 11126 40276 91918 333 91210;
0067997260999992005012120004+43850-082633FM-18+0188HRBM V0201501N007019999999N9999999N1-01261+99999102751REMSYN058CMTI   46// HRBM4 46/// /1507 11126 40275 92000 333 91209;
0067997260999992005012121004+43850-082633FM-18+0188HRBM V0202101N007019999999N9999999N1-01371+99999102661REMSYN058CMTI   46// HRBM4 46/// /2107 11137 40266 92100 333 91209;
0067997260999992005012122004+43850-082633FM-18+0188HRBM V0202301N004019999999N9999999N1-01371+99999102691REMSYN058CMTI   46// HRBM4 46/// /2304 11137 40269 92200 333 91206;
0090997260999992005012123004+43850-082633FM-18+0188HRBM V0202201N004019999999N9999999N1-01441+99999102661ADDMD1610091+9999REMSYN064CMTI   46// HRBM4 46/// /2204 11144 40266 56009 92300 333 91206;
0090997260999992005012200004+43850-082633FM-18+0188HRBM V0201201N006019999999N9999999N1-01271+99999102601ADDMD1810061+9999REMSYN064CMTI   46// HRBM4 46/// /1206 11127 40260 58006 90000 333 91208;
0090997260999992005012201004+43850-082633FM-18+0188HRBM V0202401N003019999999N9999999N1-01571+99999102521ADDMD1810171+9999REMSYN064CMTI   46// HRBM4 46/// /2403 11157 40252 58017 90100 333 91204;
0090997260999992005012202004+43850-082633FM-18+0188HRBM V0202001N005019999999N9999999N1-01421+99999102431ADDMD1810231+9999REMSYN064CMTI   46// HRBM4 46/// /2005 11142 40243 58023 90200 333 91209;
0090997260999992005012203004+43850-082633FM-18+0188HRBM V0201301N012019999999N9999999N1-01151+99999102341ADDMD1810261+9999REMSYN064CMTI   46// HRBM4 46/// /1312 11115 40234 58026 90300 333 91216;
0090997260999992005012204004+43850-082633FM-18+0188HRBM V0202301N005019999999N9999999N1-01571+99999102311ADDMD1610211+9999REMSYN064CMTI   46// HRBM4 46/// /2305 11157 40231 56021 90400 333 91208;
0090997260999992005012205004+43850-082633FM-18+0188HRBM V0201901N006019999999N9999999N1-01591+99999102171ADDMD1810261+9999REMSYN064CMTI   46// HRBM4 46/// /1906 11159 40217 58026 90500 333 91209;
0090997260999992005012207004+43850-082633FM-18+0188HRBM V0201401N015019999999N9999999N1-01161+99999101921ADDMD1610391+9999REMSYN064CMTI   46// HRBM4 46/// /1415 11116 40192 56039 90700 333 91217;
0090997260999992005012208004+43850-082633FM-18+0188HRBM V0201301N015019999999N9999999N1-01101+99999101781ADDMD1610391+9999REMSYN064CMTI   46// HRBM4 46/// /1315 11110 40178 56039 90800 333 91219;
0090997260999992005012209004+43850-082633FM-18+0188HRBM V0201301N014019999999N9999999N1-01071+99999101671ADDMD1810311+9999REMSYN064CMTI   46// HRBM4 46/// /1314 11107 40167 58031 90900 333 91217;
0090997260999992005012210004+43850-082633FM-18+0188HRBM V0201201N017019999999N9999999N1-01021+99999101501ADDMD1810421+9999REMSYN064CMTI   46// HRBM4 46/// /1217 11102 40150 58042 91000 333 91220;
0090997260999992005012211004+43850-082633FM-18+0188HRBM V0201001N017019999999N9999999N1-01061+99999101421ADDMD1610361+9999REMSYN064CMTI   46// HRBM4 46/// /1017 11106 40142 56036 91100 333 91220;
0090997260999992005012212004+43850-082633FM-18+0188HRBM V0200901N016019999999N9999999N1-01061+99999101281ADDMD1610391+9999REMSYN064CMTI   46// HRBM4 46/// /0916 11106 40128 56039 91200 333 91221;
0090997260999992005012213004+43850-082633FM-18+0188HRBM V0200901N020019999999N9999999N1-01031+99999101171ADDMD1810331+9999REMSYN064CMTI   46// HRBM4 46/// /0920 11103 40117 58033 91300 333 91224;
0090997260999992005012214004+43850-082633FM-18+0188HRBM V0200901N021019999999N9999999N1-00991+99999101081ADDMD1610341+9999REMSYN064CMTI   46// HRBM4 46/// /0921 11099 40108 56034 91400 333 91225;
0090997260999992005012215004+43850-082633FM-18+0188HRBM V0200701N026019999999N9999999N1-00981+99999101001ADDMD1610281+9999REMSYN064CMTI   46// HRBM4 46/// /0726 11098 40100 56028 91500 333 91229;
0090997260999992005012216004+43850-082633FM-18+0188HRBM V0200601N025019999999N9999999N1-00991+99999101031ADDMD1510141+9999REMSYN064CMTI   46// HRBM4 46/// /0625 11099 40103 55014 91600 333 91232;
0090997260999992005012217004+43850-082633FM-18+0188HRBM V0200601N029019999999N9999999N1-00931+99999101061ADDMD1510001+9999REMSYN064CMTI   46// HRBM4 46/// /0629 11093 40106 55000 91700 333 91233;
0090997260999992005012218004+43850-082633FM-18+0188HRBM V0200601N030019999999N9999999N1-00951+99999101121ADDMD1310121+9999REMSYN064CMTI   46// HRBM4 46/// /0630 11095 40112 53012 91800 333 91236;
0090997260999992005012219004+43850-082633FM-18+0188HRBM V0200501N026019999999N9999999N1-00931+99999101181ADDMD1310151+9999REMSYN064CMTI   46// HRBM4 46/// /0526 11093 40118 53015 91900 333 91231;
0090997260999992005012220004+43850-082633FM-18+0188HRBM V0200501N028019999999N9999999N1-00881+99999101251ADDMD1310191+9999REMSYN064CMTI   46// HRBM4 46/// /0528 11088 40125 53019 92000 333 91236;
0090997260999992005012221004+43850-082633FM-18+0188HRBM V0200301N033019999999N9999999N1-00911+99999101381ADDMD1310261+9999REMSYN064CMTI   46// HRBM4 46/// /0333 11091 40138 53026 92100 333 91237;
0090997260999992005012222004+43850-082633FM-18+0188HRBM V0200401N032019999999N9999999N1-00931+99999101521ADDMD1310341+9999REMSYN064CMTI   46// HRBM4 46/// /0432 11093 40152 53034 92200 333 91237;
0090997260999992005012223004+43850-082633FM-18+0188HRBM V0200301N034019999999N9999999N1-00981+99999101681ADDMD1310431+9999REMSYN064CMTI   46// HRBM4 46/// /0334 11098 40168 53043 92300 333 91239;
0090997260999992005012300004+43850-082630FM-18+0188HRBM V0200301N035019999999N9999999N1-00981+99999101801ADDMD1110421+9999REMSYN064CMTI   46// HRBM4 46/// /0335 11098 40180 51042 90000 333 91242;
0090997260999992005012301004+43850-082630FM-18+0188HRBM V0200301N033019999999N9999999N1-00991+99999101941ADDMD1110421+9999REMSYN064CMTI   46// HRBM4 46/// /0333 11099 40194 51042 90100 333 91241;
0090997260999992005012302004+43850-082630FM-18+0188HRBM V0200301N032019999999N9999999N1-00981+99999102061ADDMD1210381+9999REMSYN064CMTI   46// HRBM4 46/// /0332 11098 40206 52038 90200 333 91236;
0090997260999992005012303004+43850-082630FM-18+0188HRBM V0200301N036019999999N9999999N1-01011+99999102141ADDMD1110341+9999REMSYN064CMTI   46// HRBM4 46/// /0336 11101 40214 51034 90300 333 91241;
0090997260999992005012304004+43850-082630FM-18+0188HRBM V0200201N033019999999N9999999N1-01051+99999102281ADDMD1310341+9999REMSYN064CMTI   46// HRBM4 46/// /0233 11105 40228 53034 90400 333 91240;
0067997260999992005012305004+43850-082630FM-18+0188HRBM V0200101N029019999999N9999999N1-01071+99999102371REMSYN058CMTI   46// HRBM4 46/// /0129 11107 40237 90506 333 91235;
0090997260999992005012306004+43850-082630FM-18+0188HRBM V0200201N027019999999N9999999N1-01071+99999102421ADDMD1210281+9999REMSYN064CMTI   46// HRBM4 46/// /0227 11107 40242 52028 90600 333 91234;
0090997260999992005012307004+43850-082630FM-18+0188HRBM V0200201N027019999999N9999999N1-01071+99999102471ADDMD1210191+9999REMSYN064CMTI   46// HRBM4 46/// /0227 11107 40247 52019 90700 333 91232;
0067997260999992005012308004+43850-082630FM-18+0188HRBM V0200201N024019999999N9999999N1-01091+99999102581REMSYN058CMTI   46// HRBM4 46/// /0224 11109 40258 90800 333 91229;
0090997260999992005012309004+43850-082630FM-18+0188HRBM V0200201N024019999999N9999999N1-01071+99999102631ADDMD1210211+9999REMSYN064CMTI   46// HRBM4 46/// /0224 11107 40263 52021 90900 333 91234;
0067997260999992005012310004+43850-082630FM-18+0188HRBM V0200201N023019999999N9999999N1-01111+99999102711REMSYN058CMTI   46// HRBM4 46/// /0223 11111 40271 91006 333 91228;
0090997260999992005012311004+43850-082630FM-18+0188HRBM V0200201N025019999999N9999999N1-01121+99999102791ADDMD1210211+9999REMSYN064CMTI   46// HRBM4 46/// /0225 11112 40279 52021 91100 333 91227;
0090997260999992005012312004+43850-082630FM-18+0188HRBM V0200301N021019999999N9999999N1-01111+99999102861ADDMD1210231+9999REMSYN064CMTI   46// HRBM4 46/// /0321 11111 40286 52023 91200 333 91224;
0067997260999992005012313004+43850-082630FM-18+0188HRBM V0200101N017019999999N9999999N1-01111+99999102941REMSYN058CMTI   46// HRBM4 46/// /0117 11111 40294 91300 333 91222;
0090997260999992005012314004+43850-082630FM-18+0188HRBM V0200101N017019999999N9999999N1-01061+99999102991ADDMD1110201+9999REMSYN064CMTI   46// HRBM4 46/// /0117 11106 40299 51020 91400 333 91223;
0090997260999992005012315004+43850-082630FM-18+0188HRBM V0200101N014019999999N9999999N1-01041+99999103031ADDMD1110171+9999REMSYN064CMTI   46// HRBM4 46/// /0114 11104 40303 51017 91500 333 91218;
0090997260999992005012316004+43850-082630FM-18+0188HRBM V0200201N011019999999N9999999N1-01001+99999103071ADDMD1110131+9999REMSYN064CMTI   46// HRBM4 46/// /0211 11100 40307 51013 91600 333 91214;
0090997260999992005012317004+43850-082630FM-18+0188HRBM V0203501N012019999999N9999999N1-00991+99999103051ADDMD1110061+9999REMSYN064CMTI   46// HRBM4 46/// /3512 11099 40305 51006 91700 333 91215;
0090997260999992005012318004+43850-082630FM-18+0188HRBM V0203501N012019999999N9999999N1-00981+99999102991ADDMD1810041+9999REMSYN064CMTI   46// HRBM4 46/// /3512 11098 40299 58004 91800 333 91215;
0090997260999992005012319004+43850-082630FM-18+0188HRBM V0203201N008019999999N9999999N1-00921+99999102901ADDMD1810171+9999REMSYN064CMTI   46// HRBM4 46/// /3208 11092 40290 58017 91900 333 91210;
0090997260999992005012320004+43850-082630FM-18+0188HRBM V0203001N008019999999N9999999N1-00961+99999102841ADDMD1710211+9999REMSYN064CMTI   46// HRBM4 46/// /3008 11096 40284 57021 92000 333 91210;
0090997260999992005012321004+43850-082630FM-18+0188HRBM V0202701N007019999999N9999999N1-00921+99999102851ADDMD1610141+9999REMSYN064CMTI   46// HRBM4 46/// /2707 11092 40285 56014 92100 333 91210;
0090997260999992005012323004+43850-082630FM-18+0188HRBM V0202501N007019999999N9999999N1-01211+99999102831ADDMD1410001+9999REMSYN064CMTI   46// HRBM4 46/// /2507 11121 40283 54000 92300 333 91208;
0090997260999992005012400004+43850-082630FM-18+0188HRBM V0202401N007019999999N9999999N1-01371+99999102821ADDMD1710031+9999REMSYN064CMTI   46// HRBM4 46/// /2407 11137 40282 57003 90000 333 91208;
0090997260999992005012401004+43850-082630FM-18+0188HRBM V0202101N007019999999N9999999N1-01411+99999102731ADDMD1810111+9999REMSYN064CMTI   46// HRBM4 46/// /2107 11141 40273 58011 90100 333 91209;
0090997260999992005012402004+43850-082630FM-18+0188HRBM V0202301N010019999999N9999999N1-01411+99999102691ADDMD1810141+9999REMSYN064CMTI   46// HRBM4 46/// /2310 11141 40269 58014 90200 333 91212;
0090997260999992005012403004+43850-082630FM-18+0188HRBM V0202301N007019999999N9999999N1-01461+99999102571ADDMD1810251+9999REMSYN064CMTI   46// HRBM4 46/// /2307 11146 40257 58025 90300 333 91211;
0090997260999992005012404004+43850-082630FM-18+0188HRBM V0202301N009019999999N9999999N1-01471+99999102481ADDMD1810251+9999REMSYN064CMTI   46// HRBM4 46/// /2309 11147 40248 58025 90400 333 91211;
0090997260999992005012405004+43850-082630FM-18+0188HRBM V0202401N008019999999N9999999N1-01441+99999102401ADDMD1610291+9999REMSYN064CMTI   46// HRBM4 46/// /2408 11144 40240 56029 90500 333 91211;
0090997260999992005012406004+43850-082630FM-18+0188HRBM V0202101N011019999999N9999999N1-01271+99999102281ADDMD1810291+9999REMSYN064CMTI   46// HRBM4 46/// /2111 11127 40228 58029 90600 333 91214;
0067997260999992005012407004+43850-082630FM-18+0188HRBM V0202001N013019999999N9999999N1-01271+99999102081REMSYN058CMTI   46// HRBM4 46/// /2013 11127 40208 90754 333 91215;
0090997260999992005012408004+43850-082630FM-18+0188HRBM V0202001N012019999999N9999999N1-01271+99999102071ADDMD1610331+9999REMSYN064CMTI   46// HRBM4 46/// /2012 11127 40207 56033 90800 333 91216;
0090997260999992005012409004+43850-082630FM-18+0188HRBM V0202101N012019999999N9999999N1-01211+99999101941ADDMD1710341+9999REMSYN064CMTI   46// HRBM4 46/// /2112 11121 40194 57034 90900 333 91216;
0090997260999992005012410004+43850-082630FM-18+0188HRBM V0202101N013019999999N9999999N1-01141+99999101771ADDMD1810381+9999REMSYN064CMTI   46// HRBM4 46/// /2113 11114 40177 58038 91000 333 91217;
0090997260999992005012411004+43850-082630FM-18+0188HRBM V0202201N013019999999N9999999N1-01081+99999101651ADDMD1610421+9999REMSYN064CMTI   46// HRBM4 46/// /2213 11108 40165 56042 91100 333 91220;
0090997260999992005012413004+43850-082630FM-18+0188HRBM V0202201N011019999999N9999999N1-00961+99999101501ADDMD1610271+9999REMSYN064CMTI   46// HRBM4 46/// /2211 11096 40150 56027 91300 333 91215;
0090997260999992005012414004+43850-082630FM-18+0188HRBM V0202101N010019999999N9999999N1-00951+99999101391ADDMD1610261+9999REMSYN064CMTI   46// HRBM4 46/// /2110 11095 40139 56026 91400 333 91215;
0090997260999992005012415004+43850-082630FM-18+0188HRBM V0202101N010019999999N9999999N1-00951+99999101321ADDMD1810191+9999REMSYN064CMTI   46// HRBM4 46/// /2110 11095 40132 58019 91500 333 91213;
0090997260999992005012416004+43850-082630FM-18+0188HRBM V0202101N011019999999N9999999N1-00911+99999101281ADDMD1610221+9999REMSYN064CMTI   46// HRBM4 46/// /2111 11091 40128 56022 91600 333 91214;
0090997260999992005012417004+43850-082630FM-18+0188HRBM V0202301N011019999999N9999999N1-00801+99999101201ADDMD1810191+9999REMSYN064CMTI   46// HRBM4 46/// /2311 11080 40120 58019 91700 333 91214;
0090997260999992005012418004+43850-082630FM-18+0188HRBM V0202401N009019999999N9999999N1-00661+99999101111ADDMD1810211+9999REMSYN064CMTI   46// HRBM4 46/// /2409 11066 40111 58021 91800 333 91212;
0090997260999992005012419004+43850-082630FM-18+0188HRBM V0202601N009019999999N9999999N1-00501+99999101031ADDMD1710251+9999REMSYN064CMTI   46// HRBM4 46/// /2609 11050 40103 57025 91900 333 91214;
0090997260999992005012420004+43850-082630FM-18+0188HRBM V0202701N009019999999N9999999N1-00431+99999101051ADDMD1610151+9999REMSYN064CMTI   46// HRBM4 46/// /2709 11043 40105 56015 92000 333 91214;
0090997260999992005012421004+43850-082630FM-18+0188HRBM V0202701N009019999999N9999999N1-00461+99999101081ADDMD1510031+9999REMSYN064CMTI   46// HRBM4 46/// /2709 11046 40108 55003 92100 333 91215;
0090997260999992005012422004+43850-082630FM-18+0188HRBM V0202701N011019999999N9999999N1-00391+99999101171ADDMD1310141+9999REMSYN064CMTI   46// HRBM4 46/// /2711 11039 40117 53014 92200 333 91213;
0090997260999992005012423004+43850-082630FM-18+0188HRBM V0209999C000019999999N9999999N1-00361+99999101231ADDMD1310181+9999REMSYN064CMTI   46// HRBM4 46/// /0000 11036 40123 53018 92300 333 91212;
0090997260999992005012500004+43850-082633FM-18+0188HRBM V0202701N008019999999N9999999N1-00381+99999101331ADDMD1310251+9999REMSYN064CMTI   46// HRBM4 46/// /2708 11038 40133 53025 90000 333 91212;
0090997260999992005012501004+43850-082633FM-18+0188HRBM V0202701N008019999999N9999999N1-00321+99999101411ADDMD1310241+9999REMSYN064CMTI   46// HRBM4 46/// /2708 11032 40141 53024 90100 333 91211;
