0078997265999992005010100004+46483-084633FM-18+0195PTIM V0202601N011319999999N9999999N1+00011+99999101221REMSYN069CMAN  01004 PTIM4 46/// /2622 10001 40122 90002 222// 0015 333 91213;
0078997265999992005010103004+46483-084633FM-18+0195PTIM V0202701N010319999999N9999999N1-00221+99999101811REMSYN069CMAN  01034 PTIM4 46/// /2720 11022 40181 9030 222// 00037 333 91209;
0078997265999992005010104004+46483-084633FM-18+0195PTIM V0202801N011319999999N9999999N1-00301+99999101931REMSYN069CMAN  01044 PTIM4 46/// /2822 11030 40193 90400 222// 0004 333 91209;
0067997265999992005010105004+46483-084633FM-18+0195PTIM V0203101N022019999999N9999999N1-00531+99999102241REMSYN058CMTI   46// PTIM4 46/// /3122 11053 40224 90554 333 91228;
0090997265999992005010106004+46483-084633FM-18+0195PTIM V0203101N022019999999N9999999N1-00531+99999102241ADDMD1210431+9999REMSYN064CMTI   46// PTIM4 46/// /3122 11053 40224 52043 90600 333 91229;
0090997265999992005010107004+46483-084633FM-18+0195PTIM V0203101N021019999999N9999999N1-00611+99999102411ADDMD1210481+9999REMSYN064CMTI   46// PTIM4 46/// /3121 11061 40241 52048 90700 333 91227;
0067997265999992005010108004+46483-084633FM-18+0195PTIM V0203101N019019999999N9999999N1-00641+99999102591REMSYN058CMTI   46// PTIM4 46/// /3119 11064 40259 90800 333 91225;
0090997265999992005010109004+46483-084633FM-18+0195PTIM V0203501N014019999999N9999999N1-00781+99999102781ADDMD1310541+9999REMSYN064CMTI   46// PTIM4 46/// /3514 11078 40278 53054 90900 333 91219;
0090997265999992005010110004+46483-084633FM-18+0195PTIM V0203401N009019999999N9999999N1-00851+99999102901ADDMD1110491+9999REMSYN064CMTI   46// PTIM4 46/// /3409 11085 40290 51049 91000 333 91212;
0090997265999992005010111004+46483-084633FM-18+0195PTIM V0203601N009019999999N9999999N1-00841+99999102931ADDMD1110341+9999REMSYN064CMTI   46// PTIM4 46/// /3609 11084 40293 51034 91100 333 91212;
0090997265999992005010112004+46483-084633FM-18+0195PTIM V0203601N008019999999N9999999N1-00871+99999103131ADDMD1310351+9999REMSYN064CMTI   46// PTIM4 46/// /3608 11087 40313 53035 91200 333 91212;
0090997265999992005010113004+46483-084633FM-18+0195PTIM V0203501N006019999999N9999999N1-00891+99999103341ADDMD1310441+9999REMSYN064CMTI   46// PTIM4 46/// /3506 11089 40334 53044 91300 333 91209;
0090997265999992005010114004+46483-084633FM-18+0195PTIM V0203601N008019999999N9999999N1-00861+99999103491ADDMD1110561+9999REMSYN064CMTI   46// PTIM4 46/// /3608 11086 40349 51056 91400 333 91209;
0090997265999992005010115004+46483-084633FM-18+0195PTIM V0200201N008019999999N9999999N1-00941+99999103471ADDMD1110341+9999REMSYN064CMTI   46// PTIM4 46/// /0208 11094 40347 51034 91500 333 91212;
0090997265999992005010116004+46483-084633FM-18+0195PTIM V0201401N006019999999N9999999N1-01021+99999103661ADDMD1310321+9999REMSYN064CMTI   46// PTIM4 46/// /1406 11102 40366 53032 91600 333 91210;
0090997265999992005010117004+46483-084633FM-18+0195PTIM V0200901N007019999999N9999999N1-00921+99999103651ADDMD1210161+9999REMSYN064CMTI   46// PTIM4 46/// /0907 11092 40365 52016 91700 333 91209;
0067997265999992005010118004+46483-084633FM-18+0195PTIM V0201201N003019999999N9999999N1-00771+99999103631REMSYN058CMTI   46// PTIM4 46/// /1203 11077 40363 91824 333 91205;
0101997265999992005010119004+46483-084633FM-18+0195PTIM V0200401N001019999999N9999999N1-00691+99999103631ADDMD1710031+9999REMSYN075CMAN  01194 PTIM4 46/// /0402 11069 40363 57003 91900 222// 0003 333 91211;
0067997265999992005010121004+46483-084633FM-18+0195PTIM V0201301N003019999999N9999999N1-00661+99999103581REMSYN058CMTI   46// PTIM4 46/// /1303 11066 40358 92106 333 91205;
0067997265999992005010201004+46483-084633FM-18+0195PTIM V0201001N021019999999N9999999N1-00701+99999103521REMSYN058CMTI   46// PTIM4 46/// /1021 11070 40352 90100 333 91223;
0078997265999992005010202004+46483-084633FM-18+0195PTIM V0201001N010819999999N9999999N1-00721+99999103431REMSYN069CMAN  02024 PTIM4 46/// /1021 11072 40343 90200 222// 0003 333 91211;
0078997265999992005010203004+46483-084633FM-18+0195PTIM V0201101N012319999999N9999999N1-00741+99999103291REMSYN069CMAN  02034 PTIM4 46/// /1124 11074 40329 90300 222// 0003 333 91207;
0101997265999992005010204004+46483-084633FM-18+0195PTIM V0201001N013919999999N9999999N1-00741+99999103151ADDMD1810371+9999REMSYN075CMAN  02044 PTIM4 46/// /1027 11074 40315 58037 90400 222// 0003 333 91212;
0101997265999992005010205004+46483-084633FM-18+0195PTIM V0201001N013919999999N9999999N1-00861+99999103041ADDMD1610391+9999REMSYN075CMAN  02054 PTIM4 46/// /1027 11086 40304 56039 90500 222// 0003 333 91217;
0101997265999992005010206004+46483-084633FM-18+0195PTIM V0201001N014419999999N9999999N1-00841+99999102861ADDMD1810431+9999REMSYN075CMAN  02064 PTIM4 46/// /1028 11084 40286 58043 9060 222// 00039 333 91215;
0067997265999992005010208004+46483-084633FM-18+0195PTIM V0201001N027019999999N9999999N1-00811+99999102501REMSYN058CMTI   46// PTIM4 46/// /1027 11081 40250 90824 333 91232;
0090997265999992005010209004+46483-084633FM-18+0195PTIM V0201101N030019999999N9999999N1-00791+99999102351ADDMD1710511+9999REMSYN064CMTI   46// PTIM4 46/// /1130 11079 40235 57051 90900 333 91234;
0067997265999992005010210004+46483-084633FM-18+0195PTIM V0201001N030019999999N9999999N1-00791+99999102211REMSYN058CMTI   46// PTIM4 46/// /1030 11079 40221 91000 333 91235;
0067997265999992005010211004+46483-084633FM-18+0195PTIM V0201001N027019999999N9999999N1-00771+99999102111REMSYN058CMTI   46// PTIM4 46/// /1027 11077 40211 91100 333 91233;
0090997265999992005010212004+46483-084633FM-18+0195PTIM V0201101N022019999999N9999999N1-00671+99999102041ADDMD1610311+9999REMSYN064CMTI   46// PTIM4 46/// /1122 11067 40204 56031 91200 333 91227;
0090997265999992005010213004+46483-084633FM-18+0195PTIM V0201101N018019999999N9999999N1-00661+99999101961ADDMD1610251+9999REMSYN064CMTI   46// PTIM4 46/// /1118 11066 40196 56025 91300 333 91220;
0090997265999992005010214004+46483-084633FM-18+0195PTIM V0201101N014019999999N9999999N1-00611+99999101931ADDMD1610181+9999REMSYN064CMTI   46// PTIM4 46/// /1114 11061 40193 56018 91400 333 91216;
0090997265999992005010215004+46483-084633FM-18+0195PTIM V0201001N010019999999N9999999N1-00581+99999101931ADDMD1610111+9999REMSYN064CMTI   46// PTIM4 46/// /1010 11058 40193 56011 91500 333 91212;
0090997265999992005010216004+46483-084633FM-18+0195PTIM V0201201N007019999999N9999999N1-00561+99999101951ADDMD1510001+9999REMSYN064CMTI   46// PTIM4 46/// /1207 11056 40195 55000 91600 333 91209;
0090997265999992005010217004+46483-084633FM-18+0195PTIM V0201201N004019999999N9999999N1-00521+99999101891ADDMD1810041+9999REMSYN064CMTI   46// PTIM4 46/// /1204 11052 40189 58004 91700 333 91208;
0090997265999992005010218004+46483-084633FM-18+0195PTIM V0201301N003019999999N9999999N1-00471+99999101841ADDMD1810091+9999REMSYN064CMTI   46// PTIM4 46/// /1303 11047 40184 58009 91800 333 91204;
0090997265999992005010219004+46483-084633FM-18+0195PTIM V0201101N002019999999N9999999N1-00321+99999101841ADDMD1610111+9999REMSYN064CMTI   46// PTIM4 46/// /1102 11032 40184 56011 91900 333 91203;
0067997265999992005010220004+46483-084633FM-18+0195PTIM V0202801N015019999999N9999999N1+00051+99999101871REMSYN058CMTI   46// PTIM4 46/// /2815 10005 40187 92006 333 91218;
0067997265999992005010221004+46483-084633FM-18+0195PTIM V0202601N015019999999N9999999N1+00051+99999101981REMSYN058CMTI   46// PTIM4 46/// /2615 10005 40198 92124 333 91220;
0078997265999992005010223004+46483-084633FM-18+0195PTIM V0202801N006719999999N9999999N1+00021+99999102131REMSYN069CMAN  02234 PTIM4 46/// /2813 10002 40213 92300 222// 0003 333 91210;
0067997265999992005010301004+46483-084633FM-18+0195PTIM V0202701N014019999999N9999999N1+00031+99999102291REMSYN058CMTI   46// PTIM4 46/// /2714 10003 40229 90130 333 91218;
0090997265999992005010302004+46483-084633FM-18+0195PTIM V0202701N013019999999N9999999N1+00011+99999102311ADDMD1210181+9999REMSYN064CMTI   46// PTIM4 46/// /2713 10001 40231 52018 90200 333 91218;
0067997265999992005010303004+46483-084633FM-18+0195PTIM V0202701N013019999999N9999999N1+00001+99999102331REMSYN058CMTI   46// PTIM4 46/// /2713 10000 40233 90300 333 91217;
0067997265999992005010304004+46483-084633FM-18+0195PTIM V0202801N014019999999N9999999N1-00021+99999102351REMSYN058CMTI   46// PTIM4 46/// /2814 11002 40235 90400 333 91218;
0090997265999992005010305004+46483-084633FM-18+0195PTIM V0202701N020019999999N9999999N1-00061+99999102391ADDMD1310081+9999REMSYN064CMTI   46// PTIM4 46/// /2720 11006 40239 53008 90500 333 91223;
0090997265999992005010306004+46483-084633FM-18+0195PTIM V0202801N017019999999N9999999N1-00111+99999102431ADDMD1310101+9999REMSYN064CMTI   46// PTIM4 46/// /2817 11011 40243 53010 90600 333 91222;
0090997265999992005010307004+46483-084633FM-18+0195PTIM V0202701N019019999999N9999999N1-00131+99999102501ADDMD1310151+9999REMSYN064CMTI   46// PTIM4 46/// /2719 11013 40250 53015 90700 333 91224;
0090997265999992005010308004+46483-084633FM-18+0195PTIM V0202701N017019999999N9999999N1-00151+99999102521ADDMD1110131+9999REMSYN064CMTI   46// PTIM4 46/// /2717 11015 40252 51013 90800 333 91222;
0090997265999992005010309004+46483-084633FM-18+0195PTIM V0202801N017019999999N9999999N1-00201+99999102521ADDMD1110091+9999REMSYN064CMTI   46// PTIM4 46/// /2817 11020 40252 51009 90900 333 91223;
0090997265999992005010310004+46483-084633FM-18+0195PTIM V0202901N017019999999N9999999N1-00221+99999102551ADDMD1310051+9999REMSYN064CMTI   46// PTIM4 46/// /2917 11022 40255 53005 91000 333 91221;
0090997265999992005010311004+46483-084633FM-18+0195PTIM V0202801N014019999999N9999999N1-00251+99999102571ADDMD1210051+9999REMSYN064CMTI   46// PTIM4 46/// /2814 11025 40257 52005 91100 333 91221;
0090997265999992005010312004+46483-084633FM-18+0195PTIM V0202801N014019999999N9999999N1-00301+99999102601ADDMD1210081+9999REMSYN064CMTI   46// PTIM4 46/// /2814 11030 40260 52008 91200 333 91221;
0090997265999992005010313004+46483-084633FM-18+0195PTIM V0202801N010019999999N9999999N1-00301+99999102611ADDMD1210061+9999REMSYN064CMTI   46// PTIM4 46/// /2810 11030 40261 52006 91300 333 91215;
0090997265999992005010314004+46483-084633FM-18+0195PTIM V0202601N008019999999N9999999N1-00321+99999102671ADDMD1310101+9999REMSYN064CMTI   46// PTIM4 46/// /2608 11032 40267 53010 91400 333 91214;
0090997265999992005010315004+46483-084633FM-18+0195PTIM V0202601N012019999999N9999999N1-00341+99999102731ADDMD1310131+9999REMSYN064CMTI   46// PTIM4 46/// /2612 11034 40273 53013 91500 333 91216;
0090997265999992005010316004+46483-084633FM-18+0195PTIM V0202701N011019999999N9999999N1-00351+99999102771ADDMD1110161+9999REMSYN064CMTI   46// PTIM4 46/// /2711 11035 40277 51016 91600 333 91214;
0090997265999992005010317004+46483-084633FM-18+0195PTIM V0202701N012019999999N9999999N1-00361+99999102691ADDMD1010001+9999REMSYN064CMTI   46// PTIM4 46/// /2712 11036 40269 50000 91700 333 91217;
0090997265999992005010318004+46483-084633FM-18+0195PTIM V0202901N010019999999N9999999N1-00381+99999102601ADDMD1810131+9999REMSYN064CMTI   46// PTIM4 46/// /2910 11038 40260 58013 91800 333 91213;
0090997265999992005010319004+46483-084633FM-18+0195PTIM V0202701N012019999999N9999999N1-00381+99999102611ADDMD1610161+9999REMSYN064CMTI   46// PTIM4 46/// /2712 11038 40261 56016 91900 333 91215;
0090997265999992005010320004+46483-084633FM-18+0195PTIM V0202801N013019999999N9999999N1-00401+99999102561ADDMD1610131+9999REMSYN064CMTI   46// PTIM4 46/// /2813 11040 40256 56013 92000 333 91219;
0056997265999992005010321004+46483-084633FM-18+0195PTIM V0202701N006719999999N9999999N1-00391+99999102581REMSYN047CMAN  03214 PTIM4 46/// /2713 11039 40258 9210;
0090997265999992005010322004+46483-084633FM-18+0195PTIM V0202801N012019999999N9999999N1-00411+99999102601ADDMD1410001+9999REMSYN064CMTI   46// PTIM4 46/// /2812 11041 40260 54000 92200 333 91216;
0090997265999992005010323004+46483-084633FM-18+0195PTIM V0202801N013019999999N9999999N1-00411+99999102621ADDMD1210061+9999REMSYN064CMTI   46// PTIM4 46/// /2813 11041 40262 52006 92300 333 91218;
0067997265999992005010400004+46483-084633FM-18+0195PTIM V0202901N014019999999N9999999N1-00451+99999102631REMSYN058CMTI   46// PTIM4 46/// /2914 11045 40263 90000 333 91216;
0067997265999992005010402004+46483-084633FM-18+0195PTIM V0203101N017019999999N9999999N1-00431+99999102651REMSYN058CMTI   46// PTIM4 46/// /3117 11043 40265 90206 333 91221;
0090997265999992005010403004+46483-084633FM-18+0195PTIM V0203101N017019999999N9999999N1-00431+99999102651ADDMD1410001+9999REMSYN064CMTI   46// PTIM4 46/// /3117 11043 40265 54000 90300 333 91219;
0067997265999992005010404004+46483-084633FM-18+0195PTIM V0202901N012019999999N9999999N1-00451+99999102691REMSYN058CMTI   46// PTIM4 46/// /2912 11045 40269 90400 333 91216;
0067997265999992005010405004+46483-084633FM-18+0195PTIM V0203001N010019999999N9999999N1-00461+99999102681REMSYN058CMTI   46// PTIM4 46/// /3010 11046 40268 90500 333 91213;
0090997265999992005010406004+46483-084633FM-18+0195PTIM V0202501N007019999999N9999999N1-00501+99999102661ADDMD1010001+9999REMSYN064CMTI   46// PTIM4 46/// /2507 11050 40266 50000 90600 333 91210;
0090997265999992005010407004+46483-084633FM-18+0195PTIM V0202501N007019999999N9999999N1-00501+99999102621ADDMD1810071+9999REMSYN064CMTI   46// PTIM4 46/// /2507 11050 40262 58007 90700 333 91212;
0090997265999992005010408004+46483-084633FM-18+0195PTIM V0202701N012019999999N9999999N1-00451+99999102671ADDMD1510001+9999REMSYN064CMTI   46// PTIM4 46/// /2712 11045 40267 55000 90800 333 91215;
0066997265999992005010409004+46483-084633FM-18+0195PTIM V0202601N005719999999N9999999N1-00451+99999102651REMSYN057CMAN 04094 PTIM4 46/// /2611 11045 40265 90906 333 91216;
0090997265999992005010410004+46483-084633FM-18+0195PTIM V0202501N006019999999N9999999N1-00521+99999102641ADDMD1410001+9999REMSYN064CMTI   46// PTIM4 46/// /2506 11052 40264 54000 91000 333 91210;
0090997265999992005010411004+46483-084633FM-18+0195PTIM V0202401N008019999999N9999999N1-00501+99999102641ADDMD1710031+9999REMSYN064CMTI   46// PTIM4 46/// /2408 11050 40264 57003 91100 333 91211;
0067997265999992005010412004+46483-084633FM-18+0195PTIM V0202401N005019999999N9999999N1-00511+99999102691REMSYN058CMTI   46// PTIM4 46/// /2405 11051 40269 91200 333 91212;
0090997265999992005010413004+46483-084633FM-18+0195PTIM V0202401N006019999999N9999999N1-00541+99999102701ADDMD1210061+9999REMSYN064CMTI   46// PTIM4 46/// /2406 11054 40270 52006 91300 333 91211;
0090997265999992005010414004+46483-084633FM-18+0195PTIM V0202201N004019999999N9999999N1-00611+99999102681ADDMD1110041+9999REMSYN064CMTI   46// PTIM4 46/// /2204 11061 40268 51004 91400 333 91207;
0090997265999992005010415004+46483-084633FM-18+0195PTIM V0202401N004019999999N9999999N1-00531+99999102721ADDMD1310031+9999REMSYN064CMTI   46// PTIM4 46/// /2404 11053 40272 53003 91500 333 91209;
0090997265999992005010416004+46483-084633FM-18+0195PTIM V0202401N008019999999N9999999N1-00451+99999102721ADDMD1410001+9999REMSYN064CMTI   46// PTIM4 46/// /2408 11045 40272 54000 91600 333 91212;
0090997265999992005010417004+46483-084633FM-18+0195PTIM V0202401N009019999999N9999999N1-00431+99999102661ADDMD1010001+9999REMSYN064CMTI   46// PTIM4 46/// /2409 11043 40266 50000 91700 333 91214;
0090997265999992005010418004+46483-084633FM-18+0195PTIM V0202501N007019999999N9999999N1-00361+99999102591ADDMD1810131+9999REMSYN064CMTI   46// PTIM4 46/// /2507 11036 40259 58013 91800 333 91211;
0090997265999992005010419004+46483-084633FM-18+0195PTIM V0202501N009019999999N9999999N1-00341+99999102541ADDMD1610181+9999REMSYN064CMTI   46// PTIM4 46/// /2509 11034 40254 56018 91900 333 91213;
0090997265999992005010420004+46483-084633FM-18+0195PTIM V0202501N010019999999N9999999N1-00381+99999102581ADDMD1510081+9999REMSYN064CMTI   46// PTIM4 46/// /2510 11038 40258 55008 92000 333 91215;
0090997265999992005010421004+46483-084633FM-18+0195PTIM V0202601N015019999999N9999999N1-00361+99999102601ADDMD1510001+9999REMSYN064CMTI   46// PTIM4 46/// /2615 11036 40260 55000 92100 333 91220;
0090997265999992005010422004+46483-084633FM-18+0195PTIM V0202901N021019999999N9999999N1-00341+99999102661ADDMD1310121+9999REMSYN064CMTI   46// PTIM4 46/// /2921 11034 40266 53012 92200 333 91225;
0090997265999992005010423004+46483-084633FM-18+0195PTIM V0203001N026019999999N9999999N1-00421+99999102731ADDMD1310151+9999REMSYN064CMTI   46// PTIM4 46/// /3026 11042 40273 53015 92300 333 91229;
0090997265999992005010500004+46483-084633FM-18+0195PTIM V0202901N024019999999N9999999N1-00511+99999102801ADDMD1310201+9999REMSYN064CMTI   46// PTIM4 46/// /2924 11051 40280 53020 90000 333 91228;
0090997265999992005010501004+46483-084633FM-18+0195PTIM V0202901N024019999999N9999999N1-00561+99999102861ADDMD1110201+9999REMSYN064CMTI   46// PTIM4 46/// /2924 11056 40286 51020 90100 333 91232;
0090997265999992005010502004+46483-084633FM-18+0195PTIM V0202901N021019999999N9999999N1-00581+99999102861ADDMD1110131+9999REMSYN064CMTI   46// PTIM4 46/// /2921 11058 40286 51013 90200 333 91229;
0067997265999992005010503004+46483-084633FM-18+0195PTIM V0203301N025019999999N9999999N1-00661+99999102931REMSYN058CMTI   46// PTIM4 46/// /3325 11066 40293 90306 333 91229;
0067997265999992005010504004+46483-084633FM-18+0195PTIM V0203601N017019999999N9999999N1-00871+99999102981REMSYN058CMTI   46// PTIM4 46/// /3617 11087 40298 90424 333 91223;
0101997265999992005010505004+46483-084633FM-18+0195PTIM V0203401N008719999999N9999999N1-00901+99999103021ADDMD1210161+9999REMSYN075CMAN  05054 PTIM4 46/// /3417 11090 40302 52016 90500 222// 0003 333 91225;
0067997265999992005010507004+46483-084633FM-18+0195PTIM V0200201N008019999999N9999999N1-01191+99999103121REMSYN058CMTI   46// PTIM4 46/// /0208 11119 40312 90718 333 91211;
0090997265999992005010508004+46483-084633FM-18+0195PTIM V0200501N003019999999N9999999N1-01331+99999103171ADDMD1210151+9999REMSYN064CMTI   46// PTIM4 46/// /0503 11133 40317 52015 90800 333 91206;
0067997265999992005010509004+46483-084633FM-18+0195PTIM V0203601N008019999999N9999999N1-01341+99999103201REMSYN058CMTI   46// PTIM4 46/// /3608 11134 40320 90900 333 91210;
0067997265999992005010510004+46483-084633FM-18+0195PTIM V0200201N006019999999N9999999N1-01391+99999103231REMSYN058CMTI   46// PTIM4 46/// /0206 11139 40323 91000 333 91210;
0090997265999992005010511004+46483-084633FM-18+0195PTIM V0200301N007019999999N9999999N1-01441+99999103241ADDMD1110071+9999REMSYN064CMTI   46// PTIM4 46/// /0307 11144 40324 51007 91100 333 91209;
0090997265999992005010512004+46483-084633FM-18+0195PTIM V0200501N005019999999N9999999N1-01551+99999103221ADDMD1010001+9999REMSYN064CMTI   46// PTIM4 46/// /0505 11155 40322 50000 91200 333 91209;
0090997265999992005010513004+46483-084633FM-18+0195PTIM V0200401N005019999999N9999999N1-01541+99999103271ADDMD1310041+9999REMSYN064CMTI   46// PTIM4 46/// /0405 11154 40327 53004 91300 333 91207;
0090997265999992005010514004+46483-084633FM-18+0195PTIM V0200501N005019999999N9999999N1-01581+99999103181ADDMD1810061+9999REMSYN064CMTI   46// PTIM4 46/// /0505 11158 40318 58006 91400 333 91207;
0090997265999992005010515004+46483-084633FM-18+0195PTIM V0200201N003019999999N9999999N1-01511+99999103241ADDMD1510001+9999REMSYN064CMTI   46// PTIM4 46/// /0203 11151 40324 55000 91500 333 91205;
0090997265999992005010516004+46483-084633FM-18+0195PTIM V0209999C000019999999N9999999N1-01401+99999103251ADDMD1510001+9999REMSYN064CMTI   46// PTIM4 46/// /0000 11140 40325 55000 91600 333 91205;
0090997265999992005010517004+46483-084633FM-18+0195PTIM V0203101N006019999999N9999999N1-01321+99999103171ADDMD1010001+9999REMSYN064CMTI   46// PTIM4 46/// /3106 11132 40317 50000 91700 333 91208;
0090997265999992005010518004+46483-084633FM-18+0195PTIM V0203501N006019999999N9999999N1-01281+99999103021ADDMD1810221+9999REMSYN064CMTI   46// PTIM4 46/// /3506 11128 40302 58022 91800 333 91210;
0090997265999992005010519004+46483-084633FM-18+0195PTIM V0203401N006019999999N9999999N1-01191+99999103011ADDMD1610241+9999REMSYN064CMTI   46// PTIM4 46/// /3406 11119 40301 56024 91900 333 91211;
0090997265999992005010520004+46483-084633FM-18+0195PTIM V0203401N005019999999N9999999N1-01141+99999102821ADDMD1810351+9999REMSYN064CMTI   46// PTIM4 46/// /3405 11114 40282 58035 92000 333 91207;
0090997265999992005010521004+46483-084633FM-18+0195PTIM V0203201N003019999999N9999999N1-01071+99999102871ADDMD1510151+9999REMSYN064CMTI   46// PTIM4 46/// /3203 11107 40287 55015 92100 333 91207;
0090997265999992005010522004+46483-084633FM-18+0195PTIM V0200501N005019999999N9999999N1-01071+99999102711ADDMD1610301+9999REMSYN064CMTI   46// PTIM4 46/// /0505 11107 40271 56030 92200 333 91207;
0090997265999992005010523004+46483-084633FM-18+0195PTIM V0200901N004019999999N9999999N1-01071+99999102641ADDMD1810181+9999REMSYN064CMTI   46// PTIM4 46/// /0904 11107 40264 58018 92300 333 91205;
0101997265999992005010600004+46483-084633FM-18+0195PTIM V0201801N001519999999N9999999N1-01331+99999102631ADDMD1610241+9999REMSYN075CMAN  06004 PTIM4 46/// /1803 11133 40263 56024 90000 222// 0003 333 91225;
0101997265999992005010601004+46483-084633FM-18+0195PTIM V0201701N001519999999N9999999N1-01381+99999102551ADDMD1810161+9999REMSYN075CMAN  06014 PTIM4 46/// /1703 11138 40255 58016 90100 222// 0003 333 91225;
0067997265999992005010603004+46483-084633FM-18+0195PTIM V0201601N005019999999N9999999N1-01371+99999102381REMSYN058CMTI   46// PTIM4 46/// /1605 11137 40238 90324 333 91206;
0090997265999992005010604004+46483-084633FM-18+0195PTIM V0201601N003019999999N9999999N1-01331+99999102361ADDMD1710191+9999REMSYN064CMTI   46// PTIM4 46/// /1603 11133 40236 57019 90400 333 91205;
0067997265999992005010605004+46483-084633FM-18+0195PTIM V0201401N004019999999N9999999N1-01321+99999102131REMSYN058CMTI   46// PTIM4 46/// /1404 11132 40213 90500 333 91206;
0067997265999992005010606004+46483-084633FM-18+0195PTIM V0201601N003019999999N9999999N1-01361+99999102071REMSYN058CMTI   46// PTIM4 46/// /1603 11136 40207 90600 333 91205;
0090997265999992005010607004+46483-084633FM-18+0195PTIM V0201601N005019999999N9999999N1-01401+99999102041ADDMD1610321+9999REMSYN064CMTI   46// PTIM4 46/// /1605 11140 40204 56032 90700 333 91206;
0090997265999992005010608004+46483-084633FM-18+0195PTIM V0201601N003019999999N9999999N1-01391+99999101911ADDMD1810221+9999REMSYN064CMTI   46// PTIM4 46/// /1603 11139 40191 58022 90800 333 91206;
0090997265999992005010609004+46483-084633FM-18+0195PTIM V0201101N004019999999N9999999N1-01271+99999101781ADDMD1810291+9999REMSYN064CMTI   46// PTIM4 46/// /1104 11127 40178 58029 90900 333 91208;
0090997265999992005010610004+46483-084633FM-18+0195PTIM V0201801N003019999999N9999999N1-01361+99999101731ADDMD1610311+9999REMSYN064CMTI   46// PTIM4 46/// /1803 11136 40173 56031 91000 333 91204;
0090997265999992005010611004+46483-084633FM-18+0195PTIM V0201701N004019999999N9999999N1-01381+99999101591ADDMD1810321+9999REMSYN064CMTI   46// PTIM4 46/// /1704 11138 40159 58032 91100 333 91206;
0090997265999992005010612004+46483-084633FM-18+0195PTIM V0201501N003019999999N9999999N1-01351+99999101531ADDMD1810251+9999REMSYN064CMTI   46// PTIM4 46/// /1503 11135 40153 58025 91200 333 91205;
0090997265999992005010613004+46483-084633FM-18+0195PTIM V0201701N004019999999N9999999N1-01311+99999101511ADDMD1610221+9999REMSYN064CMTI   46// PTIM4 46/// /1704 11131 40151 56022 91300 333 91205;
0090997265999992005010614004+46483-084633FM-18+0195PTIM V0201701N003019999999N9999999N1-01331+99999101421ADDMD1810171+9999REMSYN064CMTI   46// PTIM4 46/// /1703 11133 40142 58017 91400 333 91204;
0090997265999992005010615004+46483-084633FM-18+0195PTIM V0209999C000019999999N9999999N1-01181+99999101341ADDMD1810191+9999REMSYN064CMTI   46// PTIM4 46/// /0000 11118 40134 58019 91500 333 91203;
0067997265999992005010616004+46483-084633FM-18+0195PTIM V0201801N004019999999N9999999N1-01121+99999101221REMSYN058CMTI   46// PTIM4 46/// /1804 11112 40122 91606 333 91205;
0080997265999992005010617004+46483-084633FM-18+0195PTIM V0209999C000019999999N9999999N1-00951+99999101081ADDMD1810341+9999REMSYN054CMTI   46// PTIM4 46/// /0000 11095 40108 58034 91700;
0090997265999992005010618004+46483-084633FM-18+0195PTIM V0203501N009019999999N9999999N1-00651+99999100961ADDMD1810381+9999REMSYN064CMTI   46// PTIM4 46/// /3509 11065 40096 58038 91800 333 91211;
0067997265999992005010619004+46483-084633FM-18+0195PTIM V0203101N008019999999N9999999N1-00711+99999100831REMSYN058CMTI   46// PTIM4 46/// /3108 11071 40083 91906 333 91209;
0090997265999992005010620004+46483-084633FM-18+0195PTIM V0203201N009019999999N9999999N1-00621+99999100811ADDMD1710241+9999REMSYN064CMTI   46// PTIM4 46/// /3209 11062 40081 57024 92000 333 91210;
0067997265999992005010621004+46483-084633FM-18+0195PTIM V0203101N008019999999N9999999N1-00541+99999100841REMSYN058CMTI   46// PTIM4 46/// /3108 11054 40084 92100 333 91210;
0067997265999992005010622004+46483-084633FM-18+0195PTIM V0202701N011019999999N9999999N1-00461+99999100871REMSYN058CMTI   46// PTIM4 46/// /2711 11046 40087 92200 333 91214;
0090997265999992005010623004+46483-084633FM-18+0195PTIM V0202901N017019999999N9999999N1-00301+99999100901ADDMD1210091+9999REMSYN064CMTI   46// PTIM4 46/// /2917 11030 40090 52009 92300 333 91220;
0090997265999992005010700004+46483-084633FM-18+0195PTIM V0202901N014019999999N9999999N1-00291+99999100961ADDMD1310121+9999REMSYN064CMTI   46// PTIM4 46/// /2914 11029 40096 53012 90000 333 91219;
0090997265999992005010701004+46483-084633FM-18+0195PTIM V0202501N008019999999N9999999N1-00431+99999101051ADDMD1310181+9999REMSYN064CMTI   46// PTIM4 46/// /2508 11043 40105 53018 90100 333 91213;
0090997265999992005010702004+46483-084633FM-18+0195PTIM V0202401N008019999999N9999999N1-00471+99999101111ADDMD1210211+9999REMSYN064CMTI   46// PTIM4 46/// /2408 11047 40111 52021 90200 333 91213;
0090997265999992005010703004+46483-084633FM-18+0195PTIM V0202501N010019999999N9999999N1-00411+99999101171ADDMD1110211+9999REMSYN064CMTI   46// PTIM4 46/// /2510 11041 40117 51021 90300 333 91216;
0090997265999992005010704004+46483-084633FM-18+0195PTIM V0202501N006019999999N9999999N1-00521+99999101211ADDMD1110161+9999REMSYN064CMTI   46// PTIM4 46/// /2506 11052 40121 51016 90400 333 91209;
0090997265999992005010705004+46483-084633FM-18+0195PTIM V0202501N006019999999N9999999N1-00701+99999101311ADDMD1310201+9999REMSYN064CMTI   46// PTIM4 46/// /2506 11070 40131 53020 90500 333 91211;
0090997265999992005010706004+46483-084633FM-18+0195PTIM V0202401N008019999999N9999999N1-00741+99999101361ADDMD1310191+9999REMSYN064CMTI   46// PTIM4 46/// /2408 11074 40136 53019 90600 333 91212;
0090997265999992005010707004+46483-084633FM-18+0195PTIM V0202301N004019999999N9999999N1-00831+99999101391ADDMD1110181+9999REMSYN064CMTI   46// PTIM4 46/// /2304 11083 40139 51018 90700 333 91206;
0090997265999992005010708004+46483-084633FM-18+0195PTIM V0202401N006019999999N9999999N1-00831+99999101461ADDMD1310151+9999REMSYN064CMTI   46// PTIM4 46/// /2406 11083 40146 53015 90800 333 91210;
0090997265999992005010709004+46483-084633FM-18+0195PTIM V0202401N004019999999N9999999N1-00851+99999101551ADDMD1310191+9999REMSYN064CMTI   46// PTIM4 46/// /2404 11085 40155 53019 90900 333 91209;
0090997265999992005010710004+46483-084633FM-18+0195PTIM V0209999C000019999999N9999999N1-00821+99999101561ADDMD1110171+9999REMSYN064CMTI   46// PTIM4 46/// /0000 11082 40156 51017 91000 333 91206;
0090997265999992005010711004+46483-084633FM-18+0195PTIM V0202301N004019999999N9999999N1-00741+99999101581ADDMD1110121+9999REMSYN064CMTI   46// PTIM4 46/// /2304 11074 40158 51012 91100 333 91207;
0090997265999992005010712004+46483-084633FM-18+0195PTIM V0209999C000019999999N9999999N1-00761+99999101701ADDMD1310151+9999REMSYN064CMTI   46// PTIM4 46/// /0000 11076 40170 53015 91200 333 91203;
0090997265999992005010713004+46483-084633FM-18+0195PTIM V0201801N002019999999N9999999N1-00711+99999101741ADDMD1310181+9999REMSYN064CMTI   46// PTIM4 46/// /1802 11071 40174 53018 91300 333 91209;
0090997265999992005010714004+46483-084633FM-18+0195PTIM V0201301N004019999999N9999999N1-00911+99999101801ADDMD1110221+9999REMSYN064CMTI   46// PTIM4 46/// /1304 11091 40180 51022 91400 333 91206;
0090997265999992005010715004+46483-084633FM-18+0195PTIM V0201101N005019999999N9999999N1-00731+99999101841ADDMD1210141+9999REMSYN064CMTI   46// PTIM4 46/// /1105 11073 40184 52014 91500 333 91207;
0090997265999992005010716004+46483-084633FM-18+0195PTIM V0201101N006019999999N9999999N1-00701+99999101891ADDMD1110151+9999REMSYN064CMTI   46// PTIM4 46/// /1106 11070 40189 51015 91600 333 91207;
0090997265999992005010717004+46483-084633FM-18+0195PTIM V0201301N005019999999N9999999N1-00421+99999101861ADDMD1010061+9999REMSYN064CMTI   46// PTIM4 46/// /1305 11042 40186 50006 91700 333 91208;
0090997265999992005010718004+46483-084633FM-18+0195PTIM V0201901N005019999999N9999999N1-00191+99999101811ADDMD1810031+9999REMSYN064CMTI   46// PTIM4 46/// /1905 11019 40181 58003 91800 333 91211;
0090997265999992005010719004+46483-084633FM-18+0195PTIM V0202201N007019999999N9999999N1-00161+99999101761ADDMD1810131+9999REMSYN064CMTI   46// PTIM4 46/// /2207 11016 40176 58013 91900 333 91217;
0090997265999992005010720004+46483-084633FM-18+0195PTIM V0201901N007019999999N9999999N1-00121+99999101721ADDMD1610141+9999REMSYN064CMTI   46// PTIM4 46/// /1907 11012 40172 56014 92000 333 91214;
0090997265999992005010721004+46483-084633FM-18+0195PTIM V0202201N001019999999N9999999N1-00161+99999101731ADDMD1610081+9999REMSYN064CMTI   46// PTIM4 46/// /2201 11016 40173 56008 92100 333 91208;
0090997265999992005010722004+46483-084633FM-18+0195PTIM V0201801N003019999999N9999999N1-00151+99999101761ADDMD1510001+9999REMSYN064CMTI   46// PTIM4 46/// /1803 11015 40176 55000 92200 333 91207;
0090997265999992005010723004+46483-084633FM-18+0195PTIM V0201801N006019999999N9999999N1-00141+99999101781ADDMD1210061+9999REMSYN064CMTI   46// PTIM4 46/// /1806 11014 40178 52006 92300 333 91210;
0067997265999992005010820004+46483-084633FM-18+0195PTIM V0209999C000019999999N9999999N1-00321+99999102531REMSYN058CMTI   46// PTIM4 46/// /0000 11032 40253 92024 333 91204;
0057997265999992005010821004+46483-084633FM-18+0195PTIM V0209999C000019999999N9999999N1-00291+99999102571REMSYN048CMTI   46// PTIM4 46/// /0000 11029 40257 92100;
0057997265999992005010822004+46483-084633FM-18+0195PTIM V0209999C000019999999N9999999N1-00301+99999102611REMSYN048CMTI   46// PTIM4 46/// /0000 11030 40261 92136;
0067997265999992005010823004+46483-084633FM-18+0195PTIM V0209999C000019999999N9999999N1-00291+99999102701REMSYN058CMTI   46// PTIM4 46/// /0000 11029 40270 92300 333 91202;
0090997265999992005010900004+46480-084630FM-18+0195PTIM V0201301N003019999999N9999999N1-00301+99999102671ADDMD1010101+9999REMSYN064CMTI   46// PTIM4 46/// /1303 11030 40267 50010 90000 333 91205;
0090997265999992005010901004+46480-084630FM-18+0195PTIM V0201301N004019999999N9999999N1-00321+99999102631ADDMD1010001+9999REMSYN064CMTI   46// PTIM4 46/// /1304 11032 40263 50000 90100 333 91208;
0090997265999992005010902004+46480-084630FM-18+0195PTIM V0201401N002019999999N9999999N1-00351+99999102661ADDMD1510041+9999REMSYN064CMTI   46// PTIM4 46/// /1402 11035 40266 55004 90200 333 91205;
0090997265999992005010903004+46480-084630FM-18+0195PTIM V0209999C000019999999N9999999N1-00371+99999102671ADDMD1510001+9999REMSYN064CMTI   46// PTIM4 46/// /0000 11037 40267 55000 90300 333 91202;
0090997265999992005010904004+46480-084630FM-18+0195PTIM V0201201N003019999999N9999999N1-00381+99999102661ADDMD1110031+9999REMSYN064CMTI   46// PTIM4 46/// /1203 11038 40266 51003 90400 333 91204;
0090997265999992005010905004+46480-084630FM-18+0195PTIM V0209999C000019999999N9999999N1-00381+99999102631ADDMD1810031+9999REMSYN064CMTI   46// PTIM4 46/// /0000 11038 40263 58003 90500 333 91202;
0090997265999992005010906004+46480-084630FM-18+0195PTIM V0209999C000019999999N9999999N1-00381+99999102661ADDMD1510001+9999REMSYN064CMTI   46// PTIM4 46/// /0000 11038 40266 55000 90600 333 91200;
0090997265999992005010907004+46480-084630FM-18+0195PTIM V0201101N005019999999N9999999N1-00381+99999102551ADDMD1810111+9999REMSYN064CMTI   46// PTIM4 46/// /1105 11038 40255 58011 90700 333 91205;
0090997265999992005010908004+46480-084630FM-18+0195PTIM V0201301N006019999999N9999999N1-00321+99999102451ADDMD1810181+9999REMSYN064CMTI   46// PTIM4 46/// /1306 11032 40245 58018 90800 333 91209;
0090997265999992005010909004+46480-084630FM-18+0195PTIM V0201301N005019999999N9999999N1-00371+99999102421ADDMD1610241+9999REMSYN064CMTI   46// PTIM4 46/// /1305 11037 40242 56024 90900 333 91207;
0090997265999992005010910004+46480-084630FM-18+0195PTIM V0201301N005019999999N9999999N1-00431+99999102351ADDMD1610201+9999REMSYN064CMTI   46// PTIM4 46/// /1305 11043 40235 56020 91000 333 91210;
0090997265999992005010911004+46480-084630FM-18+0195PTIM V0201301N004019999999N9999999N1-00421+99999102351ADDMD1610101+9999REMSYN064CMTI   46// PTIM4 46/// /1304 11042 40235 56010 91100 333 91207;
0090997265999992005010912004+46480-084630FM-18+0195PTIM V0201201N004019999999N9999999N1-00401+99999102281ADDMD1710141+9999REMSYN064CMTI   46// PTIM4 46/// /1204 11040 40228 57014 91200 333 91206;
0090997265999992005010913004+46480-084630FM-18+0195PTIM V0201201N004019999999N9999999N1-00381+99999102221ADDMD1810131+9999REMSYN064CMTI   46// PTIM4 46/// /1204 11038 40222 58013 91300 333 91206;
0090997265999992005010914004+46480-084630FM-18+0195PTIM V0201101N005019999999N9999999N1-00341+99999102181ADDMD1610171+9999REMSYN064CMTI   46// PTIM4 46/// /1105 11034 40218 56017 91400 333 91208;
0090997265999992005010915004+46480-084630FM-18+0195PTIM V0201301N005019999999N9999999N1-00311+99999102121ADDMD1710161+9999REMSYN064CMTI   46// PTIM4 46/// /1305 11031 40212 57016 91500 333 91208;
0090997265999992005010916004+46480-084630FM-18+0195PTIM V0201201N005019999999N9999999N1-00261+99999102091ADDMD1610131+9999REMSYN064CMTI   46// PTIM4 46/// /1205 11026 40209 56013 91600 333 91207;
0090997265999992005010917004+46480-084630FM-18+0195PTIM V0201201N005019999999N9999999N1-00241+99999101951ADDMD1810231+9999REMSYN064CMTI   46// PTIM4 46/// /1205 11024 40195 58023 91700 333 91209;
0090997265999992005010918004+46480-084630FM-18+0195PTIM V0201201N004019999999N9999999N1-00211+99999101861ADDMD1810261+9999REMSYN064CMTI   46// PTIM4 46/// /1204 11021 40186 58026 91800 333 91206;
0090997265999992005010919004+46480-084630FM-18+0195PTIM V0201101N007019999999N9999999N1-00181+99999101741ADDMD1610351+9999REMSYN064CMTI   46// PTIM4 46/// /1107 11018 40174 56035 91900 333 91209;
0090997265999992005010920004+46480-084630FM-18+0195PTIM V0201201N005019999999N9999999N1-00161+99999101621ADDMD1810331+9999REMSYN064CMTI   46// PTIM4 46/// /1205 11016 40162 58033 92000 333 91208;
0090997265999992005010921004+46480-084630FM-18+0195PTIM V0201201N007019999999N9999999N1-00151+99999101491ADDMD1810371+9999REMSYN064CMTI   46// PTIM4 46/// /1207 11015 40149 58037 92100 333 91212;
0090997265999992005010922004+46480-084630FM-18+0195PTIM V0201301N005019999999N9999999N1-00171+99999101401ADDMD1610341+9999REMSYN064CMTI   46// PTIM4 46/// /1305 11017 40140 56034 92200 333 91208;
0090997265999992005010923004+46480-084630FM-18+0195PTIM V0201301N005019999999N9999999N1-00181+99999101341ADDMD1610281+9999REMSYN064CMTI   46// PTIM4 46/// /1305 11018 40134 56028 92300 333 91209;
0090997265999992005011000004+46483-084633FM-18+0195PTIM V0201401N004019999999N9999999N1-00201+99999101321ADDMD1610171+9999REMSYN064CMTI   46// PTIM4 46/// /1404 11020 40132 56017 90000 333 91208;
0090997265999992005011001004+46483-084633FM-18+0195PTIM V0201201N006019999999N9999999N1-00221+99999101161ADDMD1810241+9999REMSYN064CMTI   46// PTIM4 46/// /1206 11022 40116 58024 90100 333 91208;
0090997265999992005011002004+46483-084633FM-18+0195PTIM V0209999C000019999999N9999999N1-00231+99999101091ADDMD1810251+9999REMSYN064CMTI   46// PTIM4 46/// /0000 11023 40109 58025 90200 333 91207;
0090997265999992005011003004+46483-084633FM-18+0195PTIM V0202501N006019999999N9999999N1-00261+99999101001ADDMD1610321+9999REMSYN064CMTI   46// PTIM4 46/// /2506 11026 40100 56032 90300 333 91208;
0090997265999992005011004004+46483-084633FM-18+0195PTIM V0202501N009019999999N9999999N1-00391+99999101031ADDMD1510131+9999REMSYN064CMTI   46// PTIM4 46/// /2509 11039 40103 55013 90400 333 91214;
0067997265999992005011005004+46483-084633FM-18+0195PTIM V0202501N011019999999N9999999N1-00401+99999101061REMSYN058CMTI   46// PTIM4 46/// /2511 11040 40106 90506 333 91216;
0090997265999992005011006004+46483-084633FM-18+0195PTIM V0202501N011019999999N9999999N1-00421+99999101061ADDMD1210061+9999REMSYN064CMTI   46// PTIM4 46/// /2511 11042 40106 52006 90600 333 91218;
0090997265999992005011007004+46483-084633FM-18+0195PTIM V0202401N010019999999N9999999N1-00391+99999101081ADDMD1210051+9999REMSYN064CMTI   46// PTIM4 46/// /2410 11039 40108 52005 90700 333 91218;
0067997265999992005011008004+46483-084633FM-18+0195PTIM V0202501N011019999999N9999999N1-00361+99999101121REMSYN058CMTI   46// PTIM4 46/// /2511 11036 40112 90800 333 91218;
0090997265999992005011009004+46483-084633FM-18+0195PTIM V0202701N024019999999N9999999N1-00191+99999101231ADDMD1310171+9999REMSYN064CMTI   46// PTIM4 46/// /2724 11019 40123 53017 90900 333 91227;
0090997265999992005011010004+46483-084633FM-18+0195PTIM V0202801N020019999999N9999999N1-00231+99999101331ADDMD1310251+9999REMSYN064CMTI   46// PTIM4 46/// /2820 11023 40133 53025 91000 333 91226;
0090997265999992005011011004+46483-084633FM-18+0195PTIM V0202701N022019999999N9999999N1-00251+99999101421ADDMD1110301+9999REMSYN064CMTI   46// PTIM4 46/// /2722 11025 40142 51030 91100 333 91228;
0090997265999992005011012004+46483-084633FM-18+0195PTIM V0202801N019019999999N9999999N1-00291+99999101521ADDMD1210291+9999REMSYN064CMTI   46// PTIM4 46/// /2819 11029 40152 52029 91200 333 91223;
0090997265999992005011013004+46483-084633FM-18+0195PTIM V0202701N021019999999N9999999N1-00331+99999101621ADDMD1310291+9999REMSYN064CMTI   46// PTIM4 46/// /2721 11033 40162 53029 91300 333 91228;
0090997265999992005011014004+46483-084633FM-18+0195PTIM V0202801N020019999999N9999999N1-00351+99999101711ADDMD1110291+9999REMSYN064CMTI   46// PTIM4 46/// /2820 11035 40171 51029 91400 333 91226;
0061997265999992005011015004+46483-084633FM-18+0195PTIM V0202801N021019999999N9999999N1+99999+99999999999REMSYN052CMTI   46// PTIM4 46/// /2821 1//// 91500 333 91229;
0061997265999992005011016004+46483-084633FM-18+0195PTIM V0202901N024019999999N9999999N1+99999+99999999999REMSYN052CMTI   46// PTIM4 46/// /2924 1//// 91600 333 91230;
0090997265999992005011017004+46483-084633FM-18+0195PTIM V0202901N025019999999N9999999N1-00411+99999101991ADDMD1110281+9999REMSYN064CMTI   46// PTIM4 46/// /2925 11041 40199 51028 91700 333 91230;
0090997265999992005011018004+46483-084633FM-18+0195PTIM V0202801N018019999999N9999999N1-00511+99999102041ADDMD1110231+9999REMSYN064CMTI   46// PTIM4 46/// /2818 11051 40204 51023 91800 333 91224;
0000997265999992005011019004+46483-084633FM-18+0195PTIM V0202801N008719999999N9999999N1+99999+99999999999
0061997265999992005011020004+46483-084633FM-18+0195PTIM V0202901N016019999999N9999999N1+99999+99999999999REMSYN052CMTI   46// PTIM4 46/// /2916 1//// 92000 333 91220;
0061997265999992005011021004+46483-084633FM-18+0195PTIM V0202901N015019999999N9999999N1+99999+99999999999REMSYN052CMTI   46// PTIM4 46/// /2915 1//// 92106 333 91223;
0061997265999992005011022004+46483-084633FM-18+0195PTIM V0202801N015019999999N9999999N1+99999+99999999999REMSYN052CMTI   46// PTIM4 46/// /2815 1//// 92200 333 91219;
0061997265999992005011023004+46483-084633FM-18+0195PTIM V0202801N013019999999N9999999N1+99999+99999999999REMSYN052CMTI   46// PTIM4 46/// /2813 1//// 92300 333 91219;
0061997265999992005011100004+46483-084633FM-18+0195PTIM V0202901N012019999999N9999999N1+99999+99999999999REMSYN052CMTI   46// PTIM4 46/// /2912 1//// 90000 333 91218;
0061997265999992005011101004+46483-084633FM-18+0195PTIM V0202701N012019999999N9999999N1+99999+99999999999REMSYN052CMTI   46// PTIM4 46/// /2712 1//// 90100 333 91216;
0000997265999992005011102004+46483-084633FM-18+0195PTIM V0202901N005119999999N9999999N1+99999+99999999999
0061997265999992005011103004+46483-084633FM-18+0195PTIM V0203201N012019999999N9999999N1+99999+99999999999REMSYN052CMTI   46// PTIM4 46/// /3212 1//// 90300 333 91214;
0061997265999992005011104004+46483-084633FM-18+0195PTIM V0203101N008019999999N9999999N1+99999+99999999999REMSYN052CMTI   46// PTIM4 46/// /3108 1//// 90400 333 91209;
0061997265999992005011105004+46483-084633FM-18+0195PTIM V0202401N003019999999N9999999N1+99999+99999999999REMSYN052CMTI   46// PTIM4 46/// /2403 1//// 90500 333 91204;
0061997265999992005011106004+46483-084633FM-18+0195PTIM V0201401N003019999999N9999999N1+99999+99999999999REMSYN052CMTI   46// PTIM4 46/// /1403 1//// 90600 333 91206;
0061997265999992005011107004+46483-084633FM-18+0195PTIM V0201201N001019999999N9999999N1+99999+99999999999REMSYN052CMTI   46// PTIM4 46/// /1201 1//// 90700 333 91204;
0061997265999992005011108004+46483-084633FM-18+0195PTIM V0201401N005019999999N9999999N1+99999+99999999999REMSYN052CMTI   46// PTIM4 46/// /1405 1//// 90800 333 91207;
0061997265999992005011109004+46483-084633FM-18+0195PTIM V0201601N003019999999N9999999N1+99999+99999999999REMSYN052CMTI   46// PTIM4 46/// /1603 1//// 90900 333 91205;
0056997265999992005011110004+46483-084633FM-18+0195PTIM V0201001N004119999999N9999999N1+99999+99999999999REMSYN047CMAN  11104 PTIM4 46/// /1008 1//// 9101 91018;
0061997265999992005011111004+46483-084633FM-18+0195PTIM V0200901N010019999999N9999999N1+99999+99999999999REMSYN052CMTI   46// PTIM4 46/// /0910 1//// 91100 333 91211;
0061997265999992005011112004+46483-084633FM-18+0195PTIM V0200801N011019999999N9999999N1+99999+99999999999REMSYN052CMTI   46// PTIM4 46/// /0811 1//// 91200 333 91213;
0067997265999992005011114004+46483-084633FM-18+0195PTIM V0201101N015019999999N9999999N1-00841+99999102241REMSYN058CMTI   46// PTIM4 46/// /1115 11084 40224 91418 333 91218;
0090997265999992005011115004+46483-084633FM-18+0195PTIM V0201101N014019999999N9999999N1-00871+99999102281ADDMD1410001+9999REMSYN064CMTI   46// PTIM4 46/// /1114 11087 40228 54000 91500 333 91215;
0067997265999992005011116004+46483-084633FM-18+0195PTIM V0201101N015019999999N9999999N1-00841+99999102251REMSYN058CMTI   46// PTIM4 46/// /1115 11084 40225 91606 333 91220;
0078997265999992005011117004+46483-084633FM-18+0195PTIM V0201101N007719999999N9999999N1-00831+99999102181REMSYN069CMAN  11174 PTIM4 46/// /1115 11083 40218 9170 222// 00052 333 91202;
0067997265999992005011118004+46483-084633FM-18+0195PTIM V0201101N014019999999N9999999N1-00811+99999102121REMSYN058CMTI   46// PTIM4 46/// /1114 11081 40212 91806 333 91216;
0067997265999992005011119004+46483-084633FM-18+0195PTIM V0201001N014019999999N9999999N1-00771+99999102051REMSYN058CMTI   46// PTIM4 46/// /1014 11077 40205 91900 333 91217;
0067997265999992005011120004+46483-084633FM-18+0195PTIM V0201001N018019999999N9999999N1-00721+99999102021REMSYN058CMTI   46// PTIM4 46/// /1018 11072 40202 92018 333 91220;
0067997265999992005011121004+46483-084633FM-18+0195PTIM V0201101N016019999999N9999999N1-00701+99999102031REMSYN058CMTI   46// PTIM4 46/// /1116 11070 40203 92100 333 91219;
0067997265999992005011122004+46483-084633FM-18+0195PTIM V0201001N017019999999N9999999N1-00641+99999102031REMSYN058CMTI   46// PTIM4 46/// /1017 11064 40203 92224 333 91220;
0067997265999992005011123004+46483-084633FM-18+0195PTIM V0201101N018019999999N9999999N1-00641+99999102021REMSYN058CMTI   46// PTIM4 46/// /1118 11064 40202 92324 333 91221;
0090997265999992005011200004+46483-084633FM-18+0195PTIM V0201101N017019999999N9999999N1-00631+99999102021ADDMD1410001+9999REMSYN064CMTI   46// PTIM4 46/// /1117 11063 40202 54000 90000 333 91219;
0101997265999992005011201004+46483-084633FM-18+0195PTIM V0201001N008719999999N9999999N1-00601+99999101961ADDMD1810061+9999REMSYN075CMAN  12014 PTIM4 46/// /1017 11060 40196 58006 90100 222// 0003 333 91208;
0067997265999992005011204004+46483-084633FM-18+0195PTIM V0201001N018019999999N9999999N1-00531+99999101861REMSYN058CMTI   46// PTIM4 46/// /1018 11053 40186 90436 333 91220;
0067997265999992005011205004+46483-084633FM-18+0195PTIM V0201001N017019999999N9999999N1-00521+99999101861REMSYN058CMTI   46// PTIM4 46/// /1017 11052 40186 90500 333 91220;
0067997265999992005011206004+46483-084633FM-18+0195PTIM V0201101N018019999999N9999999N1-00521+99999101741REMSYN058CMTI   46// PTIM4 46/// /1118 11052 40174 90600 333 91223;
0067997265999992005011207004+46483-084633FM-18+0195PTIM V0201101N017019999999N9999999N1-00501+99999101711REMSYN058CMTI   46// PTIM4 46/// /1117 11050 40171 90700 333 91220;
0090997265999992005011208004+46483-084633FM-18+0195PTIM V0201001N019019999999N9999999N1-00471+99999101641ADDMD1610221+9999REMSYN064CMTI   46// PTIM4 46/// /1019 11047 40164 56022 90800 333 91222;
0090997265999992005011209004+46483-084633FM-18+0195PTIM V0201001N021019999999N9999999N1-00451+99999101541ADDMD1810201+9999REMSYN064CMTI   46// PTIM4 46/// /1021 11045 40154 58020 90900 333 91224;
0090997265999992005011210004+46483-084633FM-18+0195PTIM V0200901N019019999999N9999999N1-00401+99999101441ADDMD1810271+9999REMSYN064CMTI   46// PTIM4 46/// /0919 11040 40144 58027 91000 333 91221;
0090997265999992005011211004+46483-084633FM-18+0195PTIM V0201001N020019999999N9999999N1-00381+99999101391ADDMD1610251+9999REMSYN064CMTI   46// PTIM4 46/// /1020 11038 40139 56025 91100 333 91223;
0067997265999992005011213004+46483-084633FM-18+0195PTIM V0201101N022019999999N9999999N1-00381+99999101131REMSYN058CMTI   46// PTIM4 46/// /1122 11038 40113 91324 333 91228;
0090997265999992005011214004+46483-084633FM-18+0195PTIM V0201001N024019999999N9999999N1-00391+99999101111ADDMD1710281+9999REMSYN064CMTI   46// PTIM4 46/// /1024 11039 40111 57028 91400 333 91227;
0067997265999992005011215004+46483-084633FM-18+0195PTIM V0201001N025019999999N9999999N1-00351+99999101041REMSYN058CMTI   46// PTIM4 46/// /1025 11035 40104 91500 333 91229;
0067997265999992005011216004+46483-084633FM-18+0195PTIM V0201101N025019999999N9999999N1-00341+99999100921REMSYN058CMTI   46// PTIM4 46/// /1125 11034 40092 91600 333 91229;
0090997265999992005011217004+46483-084633FM-18+0195PTIM V0201101N024019999999N9999999N1-00351+99999100701ADDMD1810411+9999REMSYN064CMTI   46// PTIM4 46/// /1124 11035 40070 58041 91700 333 91231;
0090997265999992005011218004+46483-084633FM-18+0195PTIM V0201101N027019999999N9999999N1-00351+99999100481ADDMD1810561+9999REMSYN064CMTI   46// PTIM4 46/// /1127 11035 40048 58056 91800 333 91233;
0090997265999992005011219004+46483-084633FM-18+0195PTIM V0201101N023019999999N9999999N1-00341+99999100371ADDMD1610551+9999REMSYN064CMTI   46// PTIM4 46/// /1123 11034 40037 56055 91900 333 91229;
0090997265999992005011220004+46483-084633FM-18+0195PTIM V0201101N020019999999N9999999N1-00361+99999100251ADDMD1610451+9999REMSYN064CMTI   46// PTIM4 46/// /1120 11036 40025 56045 92000 333 91222;
0090997265999992005011221004+46483-084633FM-18+0195PTIM V0201101N016019999999N9999999N1-00321+99999100201ADDMD1610281+9999REMSYN064CMTI   46// PTIM4 46/// /1116 11032 40020 56028 92100 333 91219;
0090997265999992005011222004+46483-084633FM-18+0195PTIM V0201001N017019999999N9999999N1-00251+99999100071ADDMD1810301+9999REMSYN064CMTI   46// PTIM4 46/// /1017 11025 40007 58030 92200 333 91219;
0090997265999992005011223004+46483-084633FM-18+0195PTIM V0201001N007019999999N9999999N1-00141+99999100021ADDMD1710231+9999REMSYN064CMTI   46// PTIM4 46/// /1007 11014 40002 57023 92300 333 91208;
0090997265999992005011300004+46483-084633FM-18+0195PTIM V0201001N003019999999N9999999N1-00031+99999099961ADDMD1610241+9999REMSYN064CMTI   46// PTIM4 46/// /1003 11003 49996 56024 90000 333 91204;
0090997265999992005011301004+46483-084633FM-18+0195PTIM V0200901N013019999999N9999999N1+00001+99999099891ADDMD1810181+9999REMSYN064CMTI   46// PTIM4 46/// /0913 10000 49989 58018 90100 333 91220;
0090997265999992005011302004+46483-084633FM-18+0195PTIM V0201101N013019999999N9999999N1+00071+99999099801ADDMD1810221+9999REMSYN064CMTI   46// PTIM4 46/// /1113 10007 49980 58022 90200 333 91216;
0090997265999992005011303004+46483-084633FM-18+0195PTIM V0201101N009019999999N9999999N1+00081+99999099751ADDMD1610211+9999REMSYN064CMTI   46// PTIM4 46/// /1109 10008 49975 56021 90300 333 91210;
0090997265999992005011304004+46483-084633FM-18+0195PTIM V0200701N006019999999N9999999N1+00141+99999099781ADDMD1510111+9999REMSYN064CMTI   46// PTIM4 46/// /0706 10014 49978 55011 90400 333 91208;
0090997265999992005011305004+46483-084633FM-18+0195PTIM V0209999C000019999999N9999999N1+00171+99999099811ADDMD1510001+9999REMSYN064CMTI   46// PTIM4 46/// /0000 10017 49981 55000 90500 333 91203;
0090997265999992005011306004+46483-084633FM-18+0195PTIM V0202501N005019999999N9999999N1+00291+99999099881ADDMD1310131+9999REMSYN064CMTI   46// PTIM4 46/// /2505 10029 49988 53013 90600 333 91208;
0090997265999992005011307004+46483-084633FM-18+0195PTIM V0202501N002019999999N9999999N1+00211+99999099901ADDMD1110121+9999REMSYN064CMTI   46// PTIM4 46/// /2502 10021 49990 51012 90700 333 91204;
0090997265999992005011308004+46483-084633FM-18+0195PTIM V0202401N005019999999N9999999N1+00191+99999099941ADDMD1110131+9999REMSYN064CMTI   46// PTIM4 46/// /2405 10019 49994 51013 90800 333 91206;
0090997265999992005011309004+46483-084633FM-18+0195PTIM V0202501N005019999999N9999999N1+00191+99999099921ADDMD1210041+9999REMSYN064CMTI   46// PTIM4 46/// /2505 10019 49992 52004 90900 333 91207;
0090997265999992005011310004+46483-084633FM-18+0195PTIM V0202701N011019999999N9999999N1+00151+99999100031ADDMD1310131+9999REMSYN064CMTI   46// PTIM4 46/// /2711 10015 40003 53013 91000 333 91213;
0090997265999992005011311004+46483-084633FM-18+0195PTIM V0202901N013019999999N9999999N1+00121+99999100091ADDMD1310151+9999REMSYN064CMTI   46// PTIM4 46/// /2913 10012 40009 53015 91100 333 91219;
0090997265999992005011312004+46483-084633FM-18+0195PTIM V0202801N014019999999N9999999N1+00101+99999100121ADDMD1110201+9999REMSYN064CMTI   46// PTIM4 46/// /2814 10010 40012 51020 91200 333 91217;
0090997265999992005011313004+46483-084633FM-18+0195PTIM V0202801N015019999999N9999999N1+00091+99999100081ADDMD1010051+9999REMSYN064CMTI   46// PTIM4 46/// /2815 10009 40008 50005 91300 333 91218;
0090997265999992005011314004+46483-084633FM-18+0195PTIM V0202901N016019999999N9999999N1+00071+99999100011ADDMD1810081+9999REMSYN064CMTI   46// PTIM4 46/// /2916 10007 40001 58008 91400 333 91219;
0090997265999992005011315004+46483-084633FM-18+0195PTIM V0202801N014019999999N9999999N1+00081+99999100311ADDMD1310191+9999REMSYN064CMTI   46// PTIM4 46/// /2814 10008 40031 53019 91500 333 91217;
0090997265999992005011316004+46483-084633FM-18+0195PTIM V0202901N020019999999N9999999N1+00061+99999100351ADDMD1310271+9999REMSYN064CMTI   46// PTIM4 46/// /2920 10006 40035 53027 91600 333 91225;
0067997265999992005011318004+46483-084633FM-18+0195PTIM V0202901N019019999999N9999999N1+00001+99999100361REMSYN058CMTI   46// PTIM4 46/// /2919 10000 40036 91848 333 91225;
0090997265999992005011319004+46483-084633FM-18+0195PTIM V0202901N018019999999N9999999N1-00021+99999100391ADDMD1210041+9999REMSYN064CMTI   46// PTIM4 46/// /2918 11002 40039 52004 91900 333 91224;
0067997265999992005011320004+46483-084633FM-18+0195PTIM V0202901N020019999999N9999999N1-00101+99999100501REMSYN058CMTI   46// PTIM4 46/// /2920 11010 40050 92000 333 91228;
0067997265999992005011321004+46483-084633FM-18+0195PTIM V0202801N021019999999N9999999N1-00181+99999100621REMSYN058CMTI   46// PTIM4 46/// /2821 11018 40062 92100 333 91229;
0090997265999992005011322004+46483-084633FM-18+0195PTIM V0202901N023019999999N9999999N1-00331+99999100711ADDMD1110321+9999REMSYN064CMTI   46// PTIM4 46/// /2923 11033 40071 51032 92200 333 91231;
0090997265999992005011323004+46483-084633FM-18+0195PTIM V0202801N022019999999N9999999N1-00461+99999100861ADDMD1310361+9999REMSYN064CMTI   46// PTIM4 46/// /2822 11046 40086 53036 92300 333 91227;
0090997265999992005011400004+46483-084633FM-18+0195PTIM V0202801N021019999999N9999999N1-00601+99999101061ADDMD1310441+9999REMSYN064CMTI   46// PTIM4 46/// /2821 11060 40106 53044 90000 333 91228;
0090997265999992005011401004+46483-084633FM-18+0195PTIM V0202801N023019999999N9999999N1-00641+99999101181ADDMD1110471+9999REMSYN064CMTI   46// PTIM4 46/// /2823 11064 40118 51047 90100 333 91228;
0067997265999992005011402004+46483-084633FM-18+0195PTIM V0202701N025019999999N9999999N1-00751+99999101281REMSYN058CMTI   46// PTIM4 46/// /2725 11075 40128 90224 333 91231;
0101997265999992005011403004+46483-084633FM-18+0195PTIM V0202701N012319999999N9999999N1-00821+99999101401ADDMD1210341+9999REMSYN075CMAN  14034 PTIM4 46/// /2724 11082 40140 52034 90300 222// 0003 333 91210;
0101997265999992005011404004+46483-084633FM-18+0195PTIM V0202701N012919999999N9999999N1-00881+99999101451ADDMD1210271+9999REMSYN075CMAN  14044 PTIM4 46/// /2725 11088 40145 52027 90400 222// 0003 333 91216;
0078997265999992005011405004+46483-084633FM-18+0195PTIM V0202801N010819999999N9999999N1-00951+99999101631REMSYN069CMAN  14054 PTIM4 46/// /2821 11095 40163 90500 222// 0003 333 91221;
0101997265999992005011406004+46483-084633FM-18+0195PTIM V0202701N013419999999N9999999N1-01051+99999101691ADDMD1310291+9999REMSYN075CMAN  14064 PTIM4 46/// /2726 11105 40169 53029 90600 222// 0003 333 91214;
0067997265999992005011408004+46483-084633FM-18+0195PTIM V0202701N020019999999N9999999N1-01131+99999101911REMSYN058CMTI   46// PTIM4 46/// /2720 11113 40191 90806 333 91231;
0090997265999992005011409004+46483-084633FM-18+0195PTIM V0202401N008019999999N9999999N1-01561+99999102041ADDMD1210351+9999REMSYN064CMTI   46// PTIM4 46/// /2408 11156 40204 52035 90900 333 91213;
0067997265999992005011410004+46483-084633FM-18+0195PTIM V0202301N006019999999N9999999N1-01621+99999102141REMSYN058CMTI   46// PTIM4 46/// /2306 11162 40214 91000 333 91214;
0067997265999992005011411004+46483-084633FM-18+0195PTIM V0202401N010019999999N9999999N1-01681+99999102271REMSYN058CMTI   46// PTIM4 46/// /2410 11168 40227 91100 333 91216;
0090997265999992005011412004+46483-084633FM-18+0195PTIM V0202401N011019999999N9999999N1-01701+99999102331ADDMD1110291+9999REMSYN064CMTI   46// PTIM4 46/// /2411 11170 40233 51029 91200 333 91217;
0090997265999992005011413004+46483-084633FM-18+0195PTIM V0202401N012019999999N9999999N1-01721+99999102411ADDMD1110271+9999REMSYN064CMTI   46// PTIM4 46/// /2412 11172 40241 51027 91300 333 91218;
0067997265999992005011414004+46483-084633FM-18+0195PTIM V0202401N012019999999N9999999N1-01741+99999102471REMSYN058CMTI   46// PTIM4 46/// /2412 11174 40247 91406 333 91219;
0094997265999992005011415004+46483-084633FM-18+0195PTIM V0202401N004119999999N9999999N1-01661+99999102611REMSYN085CMAN  14154 PTIM4 46/// /2408 11166 40261 91518 222// 000391221 555  555 11021 22024;
0067997265999992005011416004+46483-084633FM-18+0195PTIM V0202401N009019999999N9999999N1-01591+99999102701REMSYN058CMTI   46// PTIM4 46/// /2409 11159 40270 91606 333 91216;
0067997265999992005011417004+46483-084633FM-18+0195PTIM V0202501N008019999999N9999999N1-01411+99999102741REMSYN058CMTI   46// PTIM4 46/// /2508 11141 40274 91700 333 91218;
0067997265999992005011418004+46483-084633FM-18+0195PTIM V0202501N009019999999N9999999N1-01321+99999102731REMSYN058CMTI   46// PTIM4 46/// /2509 11132 40273 91800 333 91217;
0067997265999992005011419004+46483-084633FM-18+0195PTIM V0202401N012019999999N9999999N1-01261+99999102791REMSYN058CMTI   46// PTIM4 46/// /2412 11126 40279 91900 333 91219;
0090997265999992005011420004+46483-084633FM-18+0195PTIM V0202601N014019999999N9999999N1-01201+99999102821ADDMD1310081+9999REMSYN064CMTI   46// PTIM4 46/// /2614 11120 40282 53008 92000 333 91223;
0090997265999992005011421004+46483-084633FM-18+0195PTIM V0202501N013019999999N9999999N1-01271+99999102891ADDMD1310161+9999REMSYN064CMTI   46// PTIM4 46/// /2513 11127 40289 53016 92100 333 91220;
0090997265999992005011422004+46483-084633FM-18+0195PTIM V0202501N013019999999N9999999N1-01171+99999102961ADDMD1310171+9999REMSYN064CMTI   46// PTIM4 46/// /2513 11117 40296 53017 92200 333 91227;
0090997265999992005011423004+46483-084633FM-18+0195PTIM V0202301N007019999999N9999999N1-01391+99999103021ADDMD1110201+9999REMSYN064CMTI   46// PTIM4 46/// /2307 11139 40302 51020 92300 333 91220;
0090997265999992005011500004+46483-084633FM-18+0195PTIM V0202401N010019999999N9999999N1-01401+99999103081ADDMD1110191+9999REMSYN064CMTI   46// PTIM4 46/// /2410 11140 40308 51019 90000 333 91216;
0090997265999992005011501004+46483-084633FM-18+0195PTIM V0202301N007019999999N9999999N1-01561+99999103101ADDMD1110141+9999REMSYN064CMTI   46// PTIM4 46/// /2307 11156 40310 51014 90100 333 91216;
0090997265999992005011502004+46483-084633FM-18+0195PTIM V0202501N013019999999N9999999N1-01601+99999103141ADDMD1110121+9999REMSYN064CMTI   46// PTIM4 46/// /2513 11160 40314 51012 90200 333 91218;
0090997265999992005011503004+46483-084633FM-18+0195PTIM V0202401N011019999999N9999999N1-01651+99999103201ADDMD1310121+9999REMSYN064CMTI   46// PTIM4 46/// /2411 11165 40320 53012 90300 333 91221;
0090997265999992005011504004+46483-084633FM-18+0195PTIM V0202401N012019999999N9999999N1-01661+99999103221ADDMD1110121+9999REMSYN064CMTI   46// PTIM4 46/// /2412 11166 40322 51012 90400 333 91217;
0090997265999992005011505004+46483-084633FM-18+0195PTIM V0202401N011019999999N9999999N1-01711+99999103261ADDMD1110121+9999REMSYN064CMTI   46// PTIM4 46/// /2411 11171 40326 51012 90500 333 91219;
0090997265999992005011506004+46483-084633FM-18+0195PTIM V0202401N012019999999N9999999N1-01771+99999103271ADDMD1210071+9999REMSYN064CMTI   46// PTIM4 46/// /2412 11177 40327 52007 90600 333 91219;
0090997265999992005011507004+46483-084633FM-18+0195PTIM V0202401N010019999999N9999999N1-01821+99999103271ADDMD1110051+9999REMSYN064CMTI   46// PTIM4 46/// /2410 11182 40327 51005 90700 333 91222;
0090997265999992005011508004+46483-084633FM-18+0195PTIM V0202401N008019999999N9999999N1-01871+99999103291ADDMD1210031+9999REMSYN064CMTI   46// PTIM4 46/// /2408 11187 40329 52003 90800 333 91215;
0090997265999992005011509004+46483-084633FM-18+0195PTIM V0202401N008019999999N9999999N1-01911+99999103281ADDMD1410001+9999REMSYN064CMTI   46// PTIM4 46/// /2408 11191 40328 54000 90900 333 91214;
0090997265999992005011510004+46483-084633FM-18+0195PTIM V0202401N009019999999N9999999N1-01961+99999103261ADDMD1410001+9999REMSYN064CMTI   46// PTIM4 46/// /2409 11196 40326 54000 91000 333 91216;
0090997265999992005011511004+46483-084633FM-18+0195PTIM V0202401N009019999999N9999999N1-01971+99999103231ADDMD1810061+9999REMSYN064CMTI   46// PTIM4 46/// /2409 11197 40323 58006 91100 333 91217;
0090997265999992005011512004+46483-084633FM-18+0195PTIM V0202401N009019999999N9999999N1-01971+99999103281ADDMD1510001+9999REMSYN064CMTI   46// PTIM4 46/// /2409 11197 40328 55000 91200 333 91213;
0090997265999992005011513004+46483-084633FM-18+0195PTIM V0202301N007019999999N9999999N1-01981+99999103311ADDMD1310051+9999REMSYN064CMTI   46// PTIM4 46/// /2307 11198 40331 53005 91300 333 91213;
0090997265999992005011514004+46483-084633FM-18+0195PTIM V0202401N008019999999N9999999N1-01941+99999103331ADDMD1110101+9999REMSYN064CMTI   46// PTIM4 46/// /2408 11194 40333 51010 91400 333 91215;
0090997265999992005011515004+46483-084633FM-18+0195PTIM V0202301N008019999999N9999999N1-01841+99999103351ADDMD1110071+9999REMSYN064CMTI   46// PTIM4 46/// /2308 11184 40335 51007 91500 333 91215;
0090997265999992005011516004+46483-084633FM-18+0195PTIM V0202301N006019999999N9999999N1-01771+99999103391ADDMD1310081+9999REMSYN064CMTI   46// PTIM4 46/// /2306 11177 40339 53008 91600 333 91211;
0090997265999992005011517004+46483-084633FM-18+0195PTIM V0202301N008019999999N9999999N1-01651+99999103391ADDMD1210061+9999REMSYN064CMTI   46// PTIM4 46/// /2308 11165 40339 52006 91700 333 91213;
0090997265999992005011518004+46483-084633FM-18+0195PTIM V0202201N008019999999N9999999N1-01541+99999103361ADDMD1010001+9999REMSYN064CMTI   46// PTIM4 46/// /2208 11154 40336 50000 91800 333 91215;
0090997265999992005011519004+46483-084633FM-18+0195PTIM V0202401N007019999999N9999999N1-01491+99999103321ADDMD1810071+9999REMSYN064CMTI   46// PTIM4 46/// /2407 11149 40332 58007 91900 333 91215;
0090997265999992005011520004+46483-084633FM-18+0195PTIM V0202401N012019999999N9999999N1-01481+99999103361ADDMD1510031+9999REMSYN064CMTI   46// PTIM4 46/// /2412 11148 40336 55003 92000 333 91221;
0090997265999992005011521004+46483-084633FM-18+0195PTIM V0202301N009019999999N9999999N1-01501+99999103411ADDMD1310051+9999REMSYN064CMTI   46// PTIM4 46/// /2309 11150 40341 53005 92100 333 91216;
0090997265999992005011522004+46483-084633FM-18+0195PTIM V0202401N011019999999N9999999N1-01621+99999103461ADDMD1310141+9999REMSYN064CMTI   46// PTIM4 46/// /2411 11162 40346 53014 92200 333 91214;
0090997265999992005011523004+46483-084633FM-18+0195PTIM V0202201N008019999999N9999999N1-01691+99999103511ADDMD1210151+9999REMSYN064CMTI   46// PTIM4 46/// /2208 11169 40351 52015 92300 333 91215;
0090997265999992005011600004+46483-084633FM-18+0195PTIM V0202301N010019999999N9999999N1-01721+99999103571ADDMD1310161+9999REMSYN064CMTI   46// PTIM4 46/// /2310 11172 40357 53016 90000 333 91216;
0090997265999992005011601004+46483-084633FM-18+0195PTIM V0202301N008019999999N9999999N1-01761+99999103631ADDMD1310171+9999REMSYN064CMTI   46// PTIM4 46/// /2308 11176 40363 53017 90100 333 91214;
0090997265999992005011602004+46483-084633FM-18+0195PTIM V0202301N005019999999N9999999N1-01801+99999103651ADDMD1110141+9999REMSYN064CMTI   46// PTIM4 46/// /2305 11180 40365 51014 90200 333 91212;
0090997265999992005011603004+46483-084633FM-18+0195PTIM V0202301N008019999999N9999999N1-01851+99999103651ADDMD1110081+9999REMSYN064CMTI   46// PTIM4 46/// /2308 11185 40365 51008 90300 333 91216;
0090997265999992005011604004+46483-084633FM-18+0195PTIM V0202401N009019999999N9999999N1-01871+99999103671ADDMD1210041+9999REMSYN064CMTI   46// PTIM4 46/// /2409 11187 40367 52004 90400 333 91215;
0090997265999992005011605004+46483-084633FM-18+0195PTIM V0202301N009019999999N9999999N1-01861+99999103671ADDMD1410001+9999REMSYN064CMTI   46// PTIM4 46/// /2309 11186 40367 54000 90500 333 91214;
0090997265999992005011606004+46483-084633FM-18+0195PTIM V0202301N008019999999N9999999N1-01851+99999103641ADDMD1010001+9999REMSYN064CMTI   46// PTIM4 46/// /2308 11185 40364 50000 90600 333 91214;
0090997265999992005011607004+46483-084633FM-18+0195PTIM V0202401N008019999999N9999999N1-01821+99999103601ADDMD1810071+9999REMSYN064CMTI   46// PTIM4 46/// /2408 11182 40360 58007 90700 333 91212;
0090997265999992005011608004+46483-084633FM-18+0195PTIM V0202401N006019999999N9999999N1-01781+99999103651ADDMD1510001+9999REMSYN064CMTI   46// PTIM4 46/// /2406 11178 40365 55000 90800 333 91209;
0090997265999992005011609004+46483-084633FM-18+0195PTIM V0202401N008019999999N9999999N1-01721+99999103621ADDMD1510001+9999REMSYN064CMTI   46// PTIM4 46/// /2408 11172 40362 55000 90900 333 91214;
0090997265999992005011610004+46483-084633FM-18+0195PTIM V0202301N007019999999N9999999N1-01721+99999103591ADDMD1010001+9999REMSYN064CMTI   46// PTIM4 46/// /2307 11172 40359 50000 91000 333 91212;
0090997265999992005011611004+46483-084633FM-18+0195PTIM V0202301N005019999999N9999999N1-01701+99999103561ADDMD1710091+9999REMSYN064CMTI   46// PTIM4 46/// /2305 11170 40356 57009 91100 333 91210;
0090997265999992005011612004+46483-084633FM-18+0195PTIM V0202401N006019999999N9999999N1-01691+99999103561ADDMD1610061+9999REMSYN064CMTI   46// PTIM4 46/// /2406 11169 40356 56006 91200 333 91211;
0090997265999992005011613004+46483-084633FM-18+0195PTIM V0202401N009019999999N9999999N1-01611+99999103531ADDMD1710061+9999REMSYN064CMTI   46// PTIM4 46/// /2409 11161 40353 57006 91300 333 91213;
0090997265999992005011614004+46483-084633FM-18+0195PTIM V0202401N006019999999N9999999N1-01601+99999103501ADDMD1810061+9999REMSYN064CMTI   46// PTIM4 46/// /2406 11160 40350 58006 91400 333 91212;
0090997265999992005011615004+46483-084633FM-18+0195PTIM V0202401N005019999999N9999999N1-01541+99999103511ADDMD1610051+9999REMSYN064CMTI   46// PTIM4 46/// /2405 11154 40351 56005 91500 333 91211;
0090997265999992005011616004+46483-084633FM-18+0195PTIM V0200501N003019999999N9999999N1-01431+99999103521ADDMD1510001+9999REMSYN064CMTI   46// PTIM4 46/// /0503 11143 40352 55000 91600 333 91205;
0090997265999992005011617004+46483-084633FM-18+0195PTIM V0203101N001019999999N9999999N1-01261+99999103441ADDMD1810061+9999REMSYN064CMTI   46// PTIM4 46/// /3101 11126 40344 58006 91700 333 91208;
0090997265999992005011618004+46483-084633FM-18+0195PTIM V0202201N004019999999N9999999N1-01211+99999103321ADDMD1810191+9999REMSYN064CMTI   46// PTIM4 46/// /2204 11121 40332 58019 91800 333 91206;
0090997265999992005011619004+46483-084633FM-18+0195PTIM V0202401N004019999999N9999999N1-01191+99999103251ADDMD1610271+9999REMSYN064CMTI   46// PTIM4 46/// /2404 11119 40325 56027 91900 333 91209;
0090997265999992005011620004+46483-084633FM-18+0195PTIM V0202601N005019999999N9999999N1-01111+99999103191ADDMD1610251+9999REMSYN064CMTI   46// PTIM4 46/// /2605 11111 40319 56025 92000 333 91207;
0090997265999992005011621004+46483-084633FM-18+0195PTIM V0202401N005019999999N9999999N1-01161+99999103201ADDMD1610121+9999REMSYN064CMTI   46// PTIM4 46/// /2405 11116 40320 56012 92100 333 91209;
0090997265999992005011622004+46483-084633FM-18+0195PTIM V0202201N005019999999N9999999N1-01251+99999103221ADDMD1610031+9999REMSYN064CMTI   46// PTIM4 46/// /2205 11125 40322 56003 92200 333 91211;
0090997265999992005011623004+46483-084633FM-18+0195PTIM V0202301N005019999999N9999999N1-01341+99999103251ADDMD1310061+9999REMSYN064CMTI   46// PTIM4 46/// /2305 11134 40325 53006 92300 333 91210;
0090997265999992005011700004+46480-084630FM-18+0195PTIM V0202301N004019999999N9999999N1-01401+99999103241ADDMD1210041+9999REMSYN064CMTI   46// PTIM4 46/// /2304 11140 40324 52004 90000 333 91207;
0090997265999992005011701004+46480-084630FM-18+0195PTIM V0200501N007019999999N9999999N1-01341+99999103241ADDMD1010001+9999REMSYN064CMTI   46// PTIM4 46/// /0507 11134 40324 50000 90100 333 91209;
0090997265999992005011702004+46480-084630FM-18+0195PTIM V0200301N007019999999N9999999N1-01411+99999103251ADDMD1410001+9999REMSYN064CMTI   46// PTIM4 46/// /0307 11141 40325 54000 90200 333 91208;
0090997265999992005011703004+46480-084630FM-18+0195PTIM V0200101N010019999999N9999999N1-01391+99999103291ADDMD1310051+9999REMSYN064CMTI   46// PTIM4 46/// /0110 11139 40329 53005 90300 333 91212;
0090997265999992005011704004+46480-084630FM-18+0195PTIM V0201001N004019999999N9999999N1-01671+99999103261ADDMD1010001+9999REMSYN064CMTI   46// PTIM4 46/// /1004 11167 40326 50000 90400 333 91205;
0090997265999992005011705004+46480-084630FM-18+0195PTIM V0201601N003019999999N9999999N1-01761+99999103291ADDMD1110041+9999REMSYN064CMTI   46// PTIM4 46/// /1603 11176 40329 51004 90500 333 91205;
0090997265999992005011705004+46483-084633FM-18+0195PTIM V0201601N003019999999N9999999N1-01761+99999103291ADDMD1110041+9999REMSYN064CMTI   46// PTIM4 46/// /1603 11176 40329 51004 90500 333 91205;
0090997265999992005011706004+46480-084630FM-18+0195PTIM V0201501N003019999999N9999999N1-01741+99999103301ADDMD1510001+9999REMSYN064CMTI   46// PTIM4 46/// /1503 11174 40330 55000 90600 333 91206;
0090997265999992005011707004+46480-084630FM-18+0195PTIM V0200801N004019999999N9999999N1-01711+99999103321ADDMD1110061+9999REMSYN064CMTI   46// PTIM4 46/// /0804 11171 40332 51006 90700 333 91205;
0090997265999992005011708004+46480-084630FM-18+0195PTIM V0200901N005019999999N9999999N1-01761+99999103341ADDMD1210051+9999REMSYN064CMTI   46// PTIM4 46/// /0905 11176 40334 52005 90800 333 91208;
0090997265999992005011709004+46480-084630FM-18+0195PTIM V0200901N005019999999N9999999N1-01811+99999103361ADDMD1210061+9999REMSYN064CMTI   46// PTIM4 46/// /0905 11181 40336 52006 90900 333 91206;
0090997265999992005011710004+46480-084630FM-18+0195PTIM V0201601N002019999999N9999999N1-01931+99999103371ADDMD1210051+9999REMSYN064CMTI   46// PTIM4 46/// /1602 11193 40337 52005 91000 333 91204;
0090997265999992005011711004+46480-084630FM-18+0195PTIM V0200501N007019999999N9999999N1-01811+99999103391ADDMD1210051+9999REMSYN064CMTI   46// PTIM4 46/// /0507 11181 40339 52005 91100 333 91208;
0090997265999992005011712004+46480-084630FM-18+0195PTIM V0203601N012019999999N9999999N1-01791+99999103431ADDMD1310071+9999REMSYN064CMTI   46// PTIM4 46/// /3612 11179 40343 53007 91200 333 91214;
0090997265999992005011713004+46480-084630FM-18+0195PTIM V0200201N011019999999N9999999N1-01931+99999103491ADDMD1310121+9999REMSYN064CMTI   46// PTIM4 46/// /0211 11193 40349 53012 91300 333 91215;
0090997265999992005011714004+46480-084630FM-18+0195PTIM V0203501N018019999999N9999999N1-01971+99999103521ADDMD1110131+9999REMSYN064CMTI   46// PTIM4 46/// /3518 11197 40352 51013 91400 333 91226;
0090997265999992005011715004+46480-084630FM-18+0195PTIM V0203501N019019999999N9999999N1-02141+99999103661ADDMD1310231+9999REMSYN064CMTI   46// PTIM4 46/// /3519 11214 40366 53023 91500 333 91221;
0090997265999992005011716004+46480-084630FM-18+0195PTIM V0203601N013019999999N9999999N1-02181+99999103791ADDMD1310301+9999REMSYN064CMTI   46// PTIM4 46/// /3613 11218 40379 53030 91600 333 91216;
0090997265999992005011717004+46480-084630FM-18+0195PTIM V0203301N013019999999N9999999N1-02161+99999103771ADDMD1110251+9999REMSYN064CMTI   46// PTIM4 46/// /3313 11216 40377 51025 91700 333 91219;
0090997265999992005011718004+46480-084630FM-18+0195PTIM V0203401N016019999999N9999999N1-02141+99999103791ADDMD1110131+9999REMSYN064CMTI   46// PTIM4 46/// /3416 11214 40379 51013 91800 333 91219;
0090997265999992005011719004+46480-084630FM-18+0195PTIM V0203201N013019999999N9999999N1-02081+99999103761ADDMD1810031+9999REMSYN064CMTI   46// PTIM4 46/// /3213 11208 40376 58003 91900 333 91218;
0090997265999992005011720004+46480-084630FM-18+0195PTIM V0203401N013019999999N9999999N1-01951+99999103791ADDMD1510001+9999REMSYN064CMTI   46// PTIM4 46/// /3413 11195 40379 55000 92000 333 91219;
0090997265999992005011721004+46480-084630FM-18+0195PTIM V0203301N013019999999N9999999N1-01881+99999103841ADDMD1310051+9999REMSYN064CMTI   46// PTIM4 46/// /3313 11188 40384 53005 92100 333 91220;
0090997265999992005011722004+46480-084630FM-18+0195PTIM V0203301N018019999999N9999999N1-01771+99999103851ADDMD1110091+9999REMSYN064CMTI   46// PTIM4 46/// /3318 11177 40385 51009 92200 333 91222;
0067997265999992005011723004+46480-084630FM-18+0195PTIM V0203201N017019999999N9999999N1-01711+99999103891REMSYN058CMTI   46// PTIM4 46/// /3217 11171 40389 92306 333 91221;
0090997265999992005011800004+46483-084633FM-18+0195PTIM V0200101N016019999999N9999999N1-01751+99999103921ADDMD1210081+9999REMSYN064CMTI   46// PTIM4 46/// /0116 11175 40392 52008 90000 333 91219;
0090997265999992005011801004+46483-084633FM-18+0195PTIM V0203601N012019999999N9999999N1-01871+99999103981ADDMD1210131+9999REMSYN064CMTI   46// PTIM4 46/// /3612 11187 40398 52013 90100 333 91215;
0067997265999992005011802004+46483-084633FM-18+0195PTIM V0203601N014019999999N9999999N1-01871+99999103991REMSYN058CMTI   46// PTIM4 46/// /3614 11187 40399 90200 333 91218;
0090997265999992005011803004+46483-084633FM-18+0195PTIM V0209999C000019999999N9999999N1-02091+99999104021ADDMD1110101+9999REMSYN064CMTI   46// PTIM4 46/// /0000 11209 40402 51010 90300 333 91204;
0000997265999992005011804004+46483-084633FM-18+0195PTIM V0201601N001519999999N9999999N1-02341+99999104051
0090997265999992005011805004+46483-084633FM-18+0195PTIM V0201501N003019999999N9999999N1-02461+99999104061ADDMD1210071+9999REMSYN064CMTI   46// PTIM4 46/// /1503 11246 40406 52007 90500 333 91205;
0090997265999992005011806004+46483-084633FM-18+0195PTIM V0201501N004019999999N9999999N1-02481+99999104021ADDMD1410001+9999REMSYN064CMTI  46/// PTIM4 46/// /1504 11248 40402 54000 90600 333 91206;
0067997265999992005011807004+46483-084633FM-18+0195PTIM V0201501N004019999999N9999999N1-02491+99999104031REMSYN058CMTI   46// PTIM4 46/// /1504 11249 40403 90700 333 91205;
0090997265999992005011808004+46483-084633FM-18+0195PTIM V0201401N004019999999N9999999N1-02561+99999104001ADDMD1610061+9999REMSYN064CMTI   46// PTIM4 46/// /1404 11256 40400 56006 90800 333 91206;
0090997265999992005011809004+46483-084633FM-18+0195PTIM V0201301N005019999999N9999999N1-02541+99999104051ADDMD1310031+9999REMSYN064CMTI   46// PTIM4 46/// /1305 11254 40405 53003 90900 333 91207;
0090997265999992005011810004+46483-084633FM-18+0195PTIM V0201401N006019999999N9999999N1-02561+99999103991ADDMD1810041+9999REMSYN064CMTI   46// PTIM4 46/// /1406 11256 40399 58004 91000 333 91209;
0090997265999992005011811004+46483-084633FM-18+0195PTIM V0201001N011019999999N9999999N1-02491+99999103951ADDMD1810051+9999REMSYN064CMTI   46// PTIM4 46/// /1011 11249 40395 58005 91100 333 91214;
0090997265999992005011812004+46483-084633FM-18+0195PTIM V0201101N013019999999N9999999N1-02491+99999103901ADDMD1610151+9999REMSYN064CMTI   46// PTIM4 46/// /1113 11249 40390 56015 91200 333 91215;
0090997265999992005011813004+46483-084633FM-18+0195PTIM V0201101N013019999999N9999999N1-02461+99999103801ADDMD1810191+9999REMSYN064CMTI   46// PTIM4 46/// /1113 11246 40380 58019 91300 333 91216;
0090997265999992005011814004+46483-084633FM-18+0195PTIM V0201101N014019999999N9999999N1-02461+99999103821ADDMD1610131+9999REMSYN064CMTI   46// PTIM4 46/// /1114 11246 40382 56013 91400 333 91216;
0090997265999992005011815004+46483-084633FM-18+0195PTIM V0201001N013019999999N9999999N1-02371+99999103701ADDMD1810201+9999REMSYN064CMTI   46// PTIM4 46/// /1013 11237 40370 58020 91500 333 91215;
0090997265999992005011816004+46483-084633FM-18+0195PTIM V0201001N015019999999N9999999N1-02221+99999103541ADDMD1810261+9999REMSYN064CMTI   46// PTIM4 46/// /1015 11222 40354 58026 91600 333 91218;
0090997265999992005011817004+46483-084633FM-18+0195PTIM V0201101N015019999999N9999999N1-02091+99999103361ADDMD1810461+9999REMSYN064CMTI   46// PTIM4 46/// /1115 11209 40336 58046 91700 333 91218;
0090997265999992005011818004+46483-084633FM-18+0195PTIM V0201001N017019999999N9999999N1-01871+99999103111ADDMD1810591+9999REMSYN064CMTI   46// PTIM4 46/// /1017 11187 40311 58059 91800 333 91219;
0090997265999992005011820004+46483-084633FM-18+0195PTIM V0201001N016019999999N9999999N1-01361+99999102581ADDMD1710781+9999REMSYN064CMTI   46// PTIM4 46/// /1016 11136 40258 57078 92000 333 91220;
0090997265999992005011821004+46483-084633FM-18+0195PTIM V0201301N007019999999N9999999N1-01021+99999102441ADDMD1710671+9999REMSYN064CMTI   46// PTIM4 46/// /1307 11102 40244 57067 92100 333 91213;
0067997265999992005011822004+46483-084633FM-18+0195PTIM V0201201N010019999999N9999999N1-00981+99999102151REMSYN058CMTI   46// PTIM4 46/// /1210 11098 40215 92200 333 91213;
0090997265999992005011823004+46483-084633FM-18+0195PTIM V0201301N011019999999N9999999N1-00941+99999101931ADDMD1810651+9999REMSYN064CMTI   46// PTIM4 46/// /1311 11094 40193 58065 92300 333 91217;
0090997265999992005011900004+46483-084633FM-18+0195PTIM V0201301N010019999999N9999999N1-01001+99999101751ADDMD1610691+9999REMSYN064CMTI   46// PTIM4 46/// /1310 11100 40175 56069 90000 333 91216;
0090997265999992005011901004+46483-084633FM-18+0195PTIM V0201301N014019999999N9999999N1-01041+99999101541ADDMD1610611+9999REMSYN064CMTI   46// PTIM4 46/// /1314 11104 40154 56061 90100 333 91223;
0090997265999992005011902004+46483-084633FM-18+0195PTIM V0201201N012019999999N9999999N1-01081+99999101421ADDMD1610511+9999REMSYN064CMTI   46// PTIM4 46/// /1212 11108 40142 56051 90200 333 91220;
0066997265999992005011903004+46483-084633FM-18+0195PTIM V0201201N004619999999N9999999N1-01091+99999101201REMSYN057CMAN 19034 PTIM4 46/// /1209 11109 40120 90306 333 91218;
0090997265999992005011904004+46483-084633FM-18+0195PTIM V0201201N012019999999N9999999N1-01081+99999101031ADDMD1710511+9999REMSYN064CMTI   46// PTIM4 46/// /1212 11108 40103 57051 90400 333 91216;
0090997265999992005011905004+46483-084633FM-18+0195PTIM V0201201N010019999999N9999999N1-01071+99999100871ADDMD1710551+9999REMSYN064CMTI   46// PTIM4 46/// /1210 11107 40087 57055 90500 333 91216;
0067997265999992005011906004+46483-084633FM-18+0195PTIM V0201301N009019999999N9999999N1-01011+99999100721REMSYN058CMTI   46// PTIM4 46/// /1309 11101 40072 90600 333 91214;
0090997265999992005011907004+46483-084633FM-18+0195PTIM V0201401N007019999999N9999999N1-00981+99999100581ADDMD1610451+9999REMSYN064CMTI   46// PTIM4 46/// /1407 11098 40058 56045 90700 333 91212;
0090997265999992005011908004+46483-084633FM-18+0195PTIM V0201401N003019999999N9999999N1-00951+99999100501ADDMD1610371+9999REMSYN064CMTI   46// PTIM4 46/// /1403 11095 40050 56037 90800 333 91207;
0090997265999992005011909004+46483-084633FM-18+0195PTIM V0201301N002019999999N9999999N1-00911+99999100471ADDMD1610251+9999REMSYN064CMTI   46// PTIM4 46/// /1302 11091 40047 56025 90900 333 91205;
0090997265999992005011910004+46483-084633FM-18+0195PTIM V0201301N003019999999N9999999N1-00871+99999100441ADDMD1610141+9999REMSYN064CMTI   46// PTIM4 46/// /1303 11087 40044 56014 91000 333 91205;
0090997265999992005011911004+46483-084633FM-18+0195PTIM V0209999C000019999999N9999999N1-00851+99999100481ADDMD1510001+9999REMSYN064CMTI   46// PTIM4 46/// /0000 11085 40048 55000 91100 333 91201;
0090997265999992005011912004+46483-084633FM-18+0195PTIM V0209999C000019999999N9999999N1-00871+99999100531ADDMD1310061+9999REMSYN064CMTI   46// PTIM4 46/// /0000 11087 40053 53006 91200 333 91202;
0090997265999992005011913004+46483-084633FM-18+0195PTIM V0201101N001019999999N9999999N1-00901+99999100571ADDMD1210131+9999REMSYN064CMTI   46// PTIM4 46/// /1101 11090 40057 52013 91300 333 91202;
0090997265999992005011914004+46483-084633FM-18+0195PTIM V0209999C000019999999N9999999N1-00821+99999100621ADDMD1210141+9999REMSYN064CMTI   46// PTIM4 46/// /0000 11082 40062 52014 91400 333 91201;
0090997265999992005011915004+46483-084633FM-18+0195PTIM V0209999C000019999999N9999999N1-00701+99999100691ADDMD1310161+9999REMSYN064CMTI   46// PTIM4 46/// /0000 11070 40069 53016 91500 333 91203;
0090997265999992005011916004+46483-084633FM-18+0195PTIM V0202901N020019999999N9999999N1-00311+99999100731ADDMD1110161+9999REMSYN064CMTI   46// PTIM4 46/// /2920 11031 40073 51016 91600 333 91227;
0090997265999992005011917004+46483-084633FM-18+0195PTIM V0203201N030019999999N9999999N1-00401+99999100871ADDMD1310251+9999REMSYN064CMTI   46// PTIM4 46/// /3230 11040 40087 53025 91700 333 91236;
0090997265999992005011918004+46483-084633FM-18+0195PTIM V0203101N027019999999N9999999N1-00561+99999101011ADDMD1310321+9999REMSYN064CMTI   46// PTIM4 46/// /3127 11056 40101 53032 91800 333 91232;
0090997265999992005011919004+46483-084633FM-18+0195PTIM V0203201N025019999999N9999999N1-00711+99999101141ADDMD1110411+9999REMSYN064CMTI   46// PTIM4 46/// /3225 11071 40114 51041 91900 333 91230;
0090997265999992005011920004+46483-084633FM-18+0195PTIM V0203301N024019999999N9999999N1-00781+99999101311ADDMD1310441+9999REMSYN064CMTI   46// PTIM4 46/// /3324 11078 40131 53044 92000 333 91231;
0090997265999992005011921004+46483-084633FM-18+0195PTIM V0203101N026019999999N9999999N1-00881+99999101501ADDMD1310491+9999REMSYN064CMTI   46// PTIM4 46/// /3126 11088 40150 53049 92100 333 91232;
0090997265999992005011922004+46483-084633FM-18+0195PTIM V0203201N023019999999N9999999N1-00921+99999101671ADDMD1210531+9999REMSYN064CMTI   46// PTIM4 46/// /3223 11092 40167 52053 92200 333 91229;
0090997265999992005011923004+46483-084633FM-18+0195PTIM V0203201N021019999999N9999999N1-01001+99999101811ADDMD1110501+9999REMSYN064CMTI   46// PTIM4 46/// /3221 11100 40181 51050 92300 333 91227;
0067997265999992005012000004+46483-084633FM-18+0195PTIM V0203501N015019999999N9999999N1-01111+99999101961REMSYN058CMTI   46// PTIM4 46/// /3515 11111 40196 90006 333 91219;
0090997265999992005012001004+46483-084633FM-18+0195PTIM V0203501N013019999999N9999999N1-01151+99999102091ADDMD1210421+9999REMSYN064CMTI   46// PTIM4 46/// /3513 11115 40209 52042 90100 333 91219;
0090997265999992005012002004+46483-084633FM-18+0195PTIM V0200201N012019999999N9999999N1-01221+99999102161ADDMD1210351+9999REMSYN064CMTI   46// PTIM4 46/// /0212 11122 40216 52035 90200 333 91216;
0067997265999992005012004004+46483-084633FM-18+0195PTIM V0200601N007019999999N9999999N1-01531+99999102321REMSYN058CMTI   46// PTIM4 46/// /0607 11153 40232 90418 333 91211;
0090997265999992005012005004+46483-084633FM-18+0195PTIM V0200401N007019999999N9999999N1-01561+99999102391ADDMD1310231+9999REMSYN064CMTI   46// PTIM4 46/// /0407 11156 40239 53023 90500 333 91210;
0090997265999992005012006004+46483-084633FM-18+0195PTIM V0200301N007019999999N9999999N1-01611+99999102391ADDMD1110171+9999REMSYN064CMTI   46// PTIM4 46/// /0307 11161 40239 51017 90600 333 91212;
0090997265999992005012007004+46483-084633FM-18+0195PTIM V0200401N007019999999N9999999N1-01651+99999102401ADDMD1110081+9999REMSYN064CMTI   46// PTIM4 46/// /0407 11165 40240 51008 90700 333 91210;
0090997265999992005012008004+46483-084633FM-18+0195PTIM V0200601N009019999999N9999999N1-01721+99999102381ADDMD1410001+9999REMSYN064CMTI   46// PTIM4 46/// /0609 11172 40238 54000 90800 333 91211;
0090997265999992005012009004+46483-084633FM-18+0195PTIM V0201001N007019999999N9999999N1-01801+99999102331ADDMD1810061+9999REMSYN064CMTI   46// PTIM4 46/// /1007 11180 40233 58006 90900 333 91209;
0090997265999992005012010004+46483-084633FM-18+0195PTIM V0200801N008019999999N9999999N1-01811+99999102311ADDMD1710091+9999REMSYN064CMTI   46// PTIM4 46/// /0808 11181 40231 57009 91000 333 91211;
0090997265999992005012011004+46483-084633FM-18+0195PTIM V0201501N004019999999N9999999N1-01821+99999102301ADDMD1610081+9999REMSYN064CMTI   46// PTIM4 46/// /1504 11182 40230 56008 91100 333 91206;
0066997265999992005012012004+46483-084633FM-18+0195PTIM V0201501N001519999999N9999999N1-01911+99999102391REMSYN057CMAN 20124 PTIM4 46/// /1503 11191 40239 91206 333 91206;
0090997265999992005012013004+46483-084633FM-18+0195PTIM V0200901N008019999999N9999999N1-01851+99999102361ADDMD1210051+9999REMSYN064CMTI   46// PTIM4 46/// /0908 11185 40236 52005 91300 333 91211;
0090997265999992005012014004+46483-084633FM-18+0195PTIM V0200901N008019999999N9999999N1-01871+99999102421ADDMD1210121+9999REMSYN064CMTI   46// PTIM4 46/// /0908 11187 40242 52012 91400 333 91211;
0067997265999992005012015004+46483-084633FM-18+0195PTIM V0201001N008019999999N9999999N1-01871+99999102481REMSYN058CMTI   46// PTIM4 46/// /1008 11187 40248 91500 333 91209;
0067997265999992005012016004+46483-084633FM-18+0195PTIM V0201201N005019999999N9999999N1-01841+99999102501REMSYN058CMTI   46// PTIM4 46/// /1205 11184 40250 91606 333 91207;
0067997265999992005012017004+46483-084633FM-18+0195PTIM V0201201N005019999999N9999999N1-01811+99999102471REMSYN058CMTI   46// PTIM4 46/// /1205 11181 40247 91718 333 91207;
0067997265999992005012018004+46483-084633FM-18+0195PTIM V0201001N005019999999N9999999N1-01751+99999102411REMSYN058CMTI   46// PTIM4 46/// /1005 11175 40241 91806 333 91208;
0067997265999992005012019004+46483-084633FM-18+0195PTIM V0201201N004019999999N9999999N1-01681+99999102371REMSYN058CMTI   46// PTIM4 46/// /1204 11168 40237 91900 333 91207;
0090997265999992005012020004+46483-084633FM-18+0195PTIM V0201101N002019999999N9999999N1-01561+99999102371ADDMD1710111+9999REMSYN064CMTI   46// PTIM4 46/// /1102 11156 40237 57011 92000 333 91205;
0067997265999992005012021004+46483-084633FM-18+0195PTIM V0203401N003019999999N9999999N1-01471+99999102381REMSYN058CMTI   46// PTIM4 46/// /3403 11147 40238 92100 333 91207;
0067997265999992005012022004+46483-084633FM-18+0195PTIM V0203401N006019999999N9999999N1-01451+99999102391REMSYN058CMTI   46// PTIM4 46/// /3406 11145 40239 92200 333 91208;
0214997265999992005012023004+46483-084633FM-18+0195PTIM V0200101N004119999999N9999999N1-01461+99999102461ADDMD1210091+9999REMSYN188CMAN  20234 PTIM4 46/// /0108 11146 40246 52009 92300 333 91203 555 11002 22002 32236 435005 62259 170001 133001 351002 351001 29018 0912 276012 284011 2790050 104049 106050 103047 101043;
0067997265999992005012100004+46483-084633FM-18+0195PTIM V0200401N008019999999N9999999N1-01471+99999102501REMSYN058CMTI   46// PTIM4 46/// /0408 11147 40250 90000 333 91210;
0067997265999992005012101004+46483-084633FM-18+0195PTIM V0200501N008019999999N9999999N1-01501+99999102571REMSYN058CMTI   46// PTIM4 46/// /0508 11150 40257 90100 333 91209;
0090997265999992005012102004+46483-084633FM-18+0195PTIM V0200401N004019999999N9999999N1-01541+99999102601ADDMD1110141+9999REMSYN064CMTI   46// PTIM4 46/// /0404 11154 40260 51014 90200 333 91209;
0090997265999992005012103004+46483-084633FM-18+0195PTIM V0200501N008019999999N9999999N1-01591+99999102621ADDMD1110121+9999REMSYN064CMTI   46// PTIM4 46/// /0508 11159 40262 51012 90300 333 91210;
0090997265999992005012104004+46483-084633FM-18+0195PTIM V0200701N009019999999N9999999N1-01681+99999102681ADDMD1310111+9999REMSYN064CMTI   46// PTIM4 46/// /0709 11168 40268 53011 90400 333 91211;
0090997265999992005012105004+46483-084633FM-18+0195PTIM V0200801N009019999999N9999999N1-01851+99999102741ADDMD1310141+9999REMSYN064CMTI   46// PTIM4 46/// /0809 11185 40274 53014 90500 333 91212;
0090997265999992005012107004+46483-084633FM-18+0195PTIM V0201001N007019999999N9999999N1-02091+99999102791ADDMD1210111+9999REMSYN064CMTI   46// PTIM4 46/// /1007 11209 40279 52011 90700 333 91210;
0090997265999992005012108004+46483-084633FM-18+0195PTIM V0200901N008019999999N9999999N1-02161+99999102861ADDMD1210121+9999REMSYN064CMTI   46// PTIM4 46/// /0908 11216 40286 52012 90800 333 91211;
0067997265999992005012109004+46483-084633FM-18+0195PTIM V0201001N012019999999N9999999N1-02231+99999102891REMSYN058CMTI   46// PTIM4 46/// /1012 11223 40289 90900 333 91214;
0090997265999992005012110004+46483-084633FM-18+0195PTIM V0201101N011019999999N9999999N1-02261+99999102911ADDMD1110121+9999REMSYN064CMTI   46// PTIM4 46/// /1111 11226 40291 51012 91000 333 91212;
0090997265999992005012111004+46483-084633FM-18+0195PTIM V0200901N009019999999N9999999N1-02341+99999102941ADDMD1210081+9999REMSYN064CMTI   46// PTIM4 46/// /0909 11234 40294 52008 91100 333 91210;
0059997265999992005012112004+46483-084633FM-18+0195PTIM V0201101N005119999999N9999999N1-02361+99999102991REMSYN050CMAN  21124 PTIM4 46/// /1110 11236 40299 9120215;
0090997265999992005012113004+46483-084633FM-18+0195PTIM V0200901N011019999999N9999999N1-02401+99999102971ADDMD1210061+9999REMSYN064CMTI   46// PTIM4 46/// /0911 11240 40297 52006 91300 333 91212;
0090997265999992005012114004+46483-084633FM-18+0195PTIM V0201001N010019999999N9999999N1-02451+99999102981ADDMD1210041+9999REMSYN064CMTI   46// PTIM4 46/// /1010 11245 40298 52004 91400 333 91212;
0067997265999992005012115004+46483-084633FM-18+0195PTIM V0201201N012019999999N9999999N1-02411+99999102991REMSYN058CMTI   46// PTIM4 46/// /1212 11241 40299 91554 333 91215;
0090997265999992005012116004+46483-084633FM-18+0195PTIM V0201101N010019999999N9999999N1-02371+99999102991ADDMD1410001+9999REMSYN064CMTI   46// PTIM4 46/// /1110 11237 40299 54000 91600 333 91212;
0067997265999992005012118004+46483-084633FM-18+0195PTIM V0201001N010019999999N9999999N1-02091+99999102861REMSYN058CMTI   46// PTIM4 46/// /1010 11209 40286 91818 333 91212;
0067997265999992005012119004+46483-084633FM-18+0195PTIM V0200901N012019999999N9999999N1-02011+99999102741REMSYN058CMTI   46// PTIM4 46/// /0912 11201 40274 91918 333 91214;
0067997265999992005012120004+46483-084633FM-18+0195PTIM V0201001N012019999999N9999999N1-01951+99999102681REMSYN058CMTI   46// PTIM4 46/// /1012 11195 40268 92000 333 91215;
0067997265999992005012121004+46483-084633FM-18+0195PTIM V0201001N012019999999N9999999N1-01861+99999102651REMSYN058CMTI   46// PTIM4 46/// /1012 11186 40265 92100 333 91214;
0067997265999992005012122004+46483-084633FM-18+0195PTIM V0201101N012019999999N9999999N1-01881+99999102611REMSYN058CMTI   46// PTIM4 46/// /1112 11188 40261 92200 333 91214;
0090997265999992005012123004+46483-084633FM-18+0195PTIM V0201101N011019999999N9999999N1-01931+99999102571ADDMD1810111+9999REMSYN064CMTI   46// PTIM4 46/// /1111 11193 40257 58011 92300 333 91214;
0090997265999992005012200004+46483-084633FM-18+0195PTIM V0201201N010019999999N9999999N1-01941+99999102491ADDMD1810161+9999REMSYN064CMTI   46// PTIM4 46/// /1210 11194 40249 58016 90000 333 91216;
0090997265999992005012201004+46483-084633FM-18+0195PTIM V0201201N009019999999N9999999N1-01961+99999102471ADDMD1610141+9999REMSYN064CMTI   46// PTIM4 46/// /1209 11196 40247 56014 90100 333 91212;
0090997265999992005012202004+46483-084633FM-18+0195PTIM V0201101N016019999999N9999999N1-01871+99999102361ADDMD1810211+9999REMSYN064CMTI   46// PTIM4 46/// /1116 11187 40236 58021 90200 333 91217;
0090997265999992005012203004+46483-084633FM-18+0195PTIM V0201101N014019999999N9999999N1-01841+99999102311ADDMD1810181+9999REMSYN064CMTI   46// PTIM4 46/// /1114 11184 40231 58018 90300 333 91216;
0090997265999992005012204004+46483-084633FM-18+0195PTIM V0201001N014019999999N9999999N1-01821+99999102211ADDMD1610261+9999REMSYN064CMTI   46// PTIM4 46/// /1014 11182 40221 56026 90400 333 91218;
0090997265999992005012205004+46483-084633FM-18+0195PTIM V0201101N013019999999N9999999N1-01791+99999102171ADDMD1610191+9999REMSYN064CMTI   46// PTIM4 46/// /1113 11179 40217 56019 90500 333 91216;
0090997265999992005012207004+46483-084633FM-18+0195PTIM V0201101N013019999999N9999999N1-01721+99999102021ADDMD1810191+9999REMSYN064CMTI   46// PTIM4 46/// /1113 11172 40202 58019 90700 333 91215;
0090997265999992005012208004+46483-084633FM-18+0195PTIM V0200901N012019999999N9999999N1-01661+99999102011ADDMD1610161+9999REMSYN064CMTI   46// PTIM4 46/// /0912 11166 40201 56016 90800 333 91214;
0090997265999992005012209004+46483-084633FM-18+0195PTIM V0200901N013019999999N9999999N1-01621+99999102001ADDMD1610111+9999REMSYN064CMTI   46// PTIM4 46/// /0913 11162 40200 56011 90900 333 91215;
0090997265999992005012210004+46483-084633FM-18+0195PTIM V0201001N015019999999N9999999N1-01581+99999101991ADDMD1710031+9999REMSYN064CMTI   46// PTIM4 46/// /1015 11158 40199 57003 91000 333 91217;
0090997265999992005012211004+46483-084633FM-18+0195PTIM V0200901N015019999999N9999999N1-01541+99999101961ADDMD1810051+9999REMSYN064CMTI   46// PTIM4 46/// /0915 11154 40196 58005 91100 333 91218;
0090997265999992005012212004+46483-084633FM-18+0195PTIM V0200901N014019999999N9999999N1-01561+99999101971ADDMD1710031+9999REMSYN064CMTI   46// PTIM4 46/// /0914 11156 40197 57003 91200 333 91217;
0090997265999992005012213004+46483-084633FM-18+0195PTIM V0200901N009019999999N9999999N1-01571+99999102031ADDMD1310041+9999REMSYN064CMTI   46// PTIM4 46/// /0909 11157 40203 53004 91300 333 91211;
0090997265999992005012214004+46483-084633FM-18+0195PTIM V0200801N005019999999N9999999N1-01551+99999102091ADDMD1310131+9999REMSYN064CMTI   46// PTIM4 46/// /0805 11155 40209 53013 91400 333 91206;
0090997265999992005012215004+46483-084633FM-18+0195PTIM V0200601N005019999999N9999999N1-01501+99999102131ADDMD1110161+9999REMSYN064CMTI   46// PTIM4 46/// /0605 11150 40213 51016 91500 333 91207;
0090997265999992005012216004+46483-084633FM-18+0195PTIM V0200501N008019999999N9999999N1-01391+99999102201ADDMD1310171+9999REMSYN064CMTI   46// PTIM4 46/// /0508 11139 40220 53017 91600 333 91211;
0090997265999992005012217004+46483-084633FM-18+0195PTIM V0203601N011019999999N9999999N1-01361+99999102241ADDMD1210151+9999REMSYN064CMTI   46// PTIM4 46/// /3611 11136 40224 52015 91700 333 91214;
0090997265999992005012218004+46483-084633FM-18+0195PTIM V0203401N016019999999N9999999N1-01391+99999102291ADDMD1110161+9999REMSYN064CMTI   46// PTIM4 46/// /3416 11139 40229 51016 91800 333 91219;
0090997265999992005012219004+46483-084633FM-18+0195PTIM V0203401N015019999999N9999999N1-01391+99999102351ADDMD1310151+9999REMSYN064CMTI   46// PTIM4 46/// /3415 11139 40235 53015 91900 333 91218;
0090997265999992005012220004+46483-084633FM-18+0195PTIM V0203501N014019999999N9999999N1-01431+99999102391ADDMD1110151+9999REMSYN064CMTI   46// PTIM4 46/// /3514 11143 40239 51015 92000 333 91219;
0090997265999992005012221004+46483-084633FM-18+0195PTIM V0203401N013019999999N9999999N1-01421+99999102491ADDMD1310201+9999REMSYN064CMTI   46// PTIM4 46/// /3413 11142 40249 53020 92100 333 91218;
0056997265999992005012222004+46483-084633FM-18+0195PTIM V0203401N006219999999N9999999N1-01441+99999102621REMSYN047CMAN  22224 PTIM4 46/// /3412 11144 40262 9220;
0090997265999992005012223004+46483-084633FM-18+0195PTIM V0203501N013019999999N9999999N1-01461+99999102761ADDMD1210371+9999REMSYN064CMTI   46// PTIM4 46/// /3513 11146 40276 52037 92300 333 91216;
0090997265999992005012300004+46480-084630FM-18+0195PTIM V0203501N015019999999N9999999N1-01521+99999102891ADDMD1210401+9999REMSYN064CMTI   46// PTIM4 46/// /3515 11152 40289 52040 90000 333 91219;
0067997265999992005012301004+46480-084630FM-18+0195PTIM V0203401N016019999999N9999999N1-01661+99999102991REMSYN058CMTI   46// PTIM4 46/// /3416 11166 40299 90100 333 91219;
0090997265999992005012302004+46480-084630FM-18+0195PTIM V0203401N011019999999N9999999N1-01721+99999103081ADDMD1110321+9999REMSYN064CMTI   46// PTIM4 46/// /3411 11172 40308 51032 90200 333 91214;
0090997265999992005012303004+46480-084630FM-18+0195PTIM V0203401N012019999999N9999999N1-01791+99999103121ADDMD1110231+9999REMSYN064CMTI   46// PTIM4 46/// /3412 11179 40312 51023 90300 333 91215;
0090997265999992005012304004+46480-084630FM-18+0195PTIM V0203301N010019999999N9999999N1-01851+99999103161ADDMD1110171+9999REMSYN064CMTI   46// PTIM4 46/// /3310 11185 40316 51017 90400 333 91212;
0067997265999992005012305004+46480-084630FM-18+0195PTIM V0203301N010019999999N9999999N1-01931+99999103231REMSYN058CMTI   46// PTIM4 46/// /3310 11193 40323 90506 333 91212;
0090997265999992005012306004+46480-084630FM-18+0195PTIM V0203301N007019999999N9999999N1-01991+99999103171ADDMD1210051+9999REMSYN064CMTI   46// PTIM4 46/// /3307 11199 40317 52005 90600 333 91209;
0090997265999992005012307004+46480-084630FM-18+0195PTIM V0203301N006019999999N9999999N1-02001+99999103181ADDMD1410001+9999REMSYN064CMTI   46// PTIM4 46/// /3306 11200 40318 54000 90700 333 91208;
0067997265999992005012308004+46480-084630FM-18+0195PTIM V0203301N007019999999N9999999N1-02021+99999103221REMSYN058CMTI   46// PTIM4 46/// /3307 11202 40322 90800 333 91209;
0090997265999992005012309004+46480-084630FM-18+0195PTIM V0203201N008019999999N9999999N1-02031+99999103261ADDMD1310091+9999REMSYN064CMTI   46// PTIM4 46/// /3208 11203 40326 53009 90900 333 91209;
0067997265999992005012310004+46480-084630FM-18+0195PTIM V0202101N001019999999N9999999N1-02151+99999103211REMSYN058CMTI   46// PTIM4 46/// /2101 11215 40321 91006 333 91203;
0066997265999992005012311004+46480-084630FM-18+0195PTIM V0209999C000019999999N9999999N1-02131+99999103211REMSYN057CMAN 23114 PTIM4 46/// /0000 11213 40321 91106 333 91203;
0090997265999992005012312004+46480-084630FM-18+0195PTIM V0201301N003019999999N9999999N1-02311+99999103211ADDMD1710051+9999REMSYN064CMTI   46// PTIM4 46/// /1303 11231 40321 57005 91200 333 91204;
0067997265999992005012313004+46480-084630FM-18+0195PTIM V0201401N002019999999N9999999N1-02431+99999103201REMSYN058CMTI   46// PTIM4 46/// /1402 11243 40320 91300 333 91203;
0067997265999992005012314004+46480-084630FM-18+0195PTIM V0201201N006019999999N9999999N1-02351+99999103191REMSYN058CMTI   46// PTIM4 46/// /1206 11235 40319 91400 333 91207;
0090997265999992005012315004+46480-084630FM-18+0195PTIM V0201101N009019999999N9999999N1-02251+99999103221ADDMD1510001+9999REMSYN064CMTI   46// PTIM4 46/// /1109 11225 40322 55000 91500 333 91210;
0090997265999992005012316004+46480-084630FM-18+0195PTIM V0201101N010019999999N9999999N1-02131+99999103191ADDMD1010001+9999REMSYN064CMTI   46// PTIM4 46/// /1110 11213 40319 50000 91600 333 91212;
0017997265999992005012317004+46480-084630FM-18+0195PTIM V0201101N005119999999N9999999N1-01931+99999103031ADDMD1810161+9999
0090997265999992005012318004+46480-084630FM-18+0195PTIM V0201101N008019999999N9999999N1-01671+99999102911ADDMD1810311+9999REMSYN064CMTI   46// PTIM4 46/// /1108 11167 40291 58031 91800 333 91209;
0090997265999992005012319004+46480-084630FM-18+0195PTIM V0200901N007019999999N9999999N1-01481+99999102711ADDMD1810481+9999REMSYN064CMTI   46// PTIM4 46/// /0907 11148 40271 58048 91900 333 91210;
0090997265999992005012320004+46480-084630FM-18+0195PTIM V0201901N003019999999N9999999N1-01071+99999102591ADDMD1710441+9999REMSYN064CMTI   46// PTIM4 46/// /1903 11107 40259 57044 92000 333 91209;
0090997265999992005012321004+46480-084630FM-18+0195PTIM V0201501N004019999999N9999999N1-00931+99999102471ADDMD1610441+9999REMSYN064CMTI   46// PTIM4 46/// /1504 11093 40247 56044 92100 333 91208;
0090997265999992005012323004+46480-084630FM-18+0195PTIM V0201101N004019999999N9999999N1-01201+99999102331ADDMD1610261+9999REMSYN064CMTI   46// PTIM4 46/// /1104 11120 40233 56026 92300 333 91205;
0090997265999992005012400004+46480-084630FM-18+0195PTIM V0201201N007019999999N9999999N1-01301+99999102181ADDMD1810291+9999REMSYN064CMTI   46// PTIM4 46/// /1207 11130 40218 58029 90000 333 91208;
0090997265999992005012401004+46480-084630FM-18+0195PTIM V0201001N006019999999N9999999N1-01331+99999102101ADDMD1810241+9999REMSYN064CMTI   46// PTIM4 46/// /1006 11133 40210 58024 90100 333 91208;
0090997265999992005012402004+46480-084630FM-18+0195PTIM V0201101N008019999999N9999999N1-01381+99999101941ADDMD1810391+9999REMSYN064CMTI   46// PTIM4 46/// /1108 11138 40194 58039 90200 333 91209;
0090997265999992005012403004+46480-084630FM-18+0195PTIM V0201001N009019999999N9999999N1-01311+99999101791ADDMD1810391+9999REMSYN064CMTI   46// PTIM4 46/// /1009 11131 40179 58039 90300 333 91210;
0000997265999992005012404004+46480-084630FM-18+0195PTIM V0201101N002619999999N9999999N1-01331+99999101621
0090997265999992005012405004+46480-084630FM-18+0195PTIM V0201401N005019999999N9999999N1-01311+99999101501ADDMD1710441+9999REMSYN064CMTI   46// PTIM4 46/// /1405 11131 40150 57044 90500 333 91207;
0090997265999992005012406004+46480-084630FM-18+0195PTIM V0201201N004019999999N9999999N1-01161+99999101321ADDMD1710471+9999REMSYN064CMTI   46// PTIM4 46/// /1204 11116 40132 57047 90600 333 91206;
0067997265999992005012407004+46480-084630FM-18+0195PTIM V0202301N009019999999N9999999N1-00531+99999101171REMSYN058CMTI   46// PTIM4 46/// /2309 11053 40117 90754 333 91214;
0090997265999992005012408004+46480-084630FM-18+0195PTIM V0202401N005019999999N9999999N1-00561+99999101161ADDMD1610341+9999REMSYN064CMTI   46// PTIM4 46/// /2405 11056 40116 56034 90800 333 91212;
0090997265999992005012409004+46480-084630FM-18+0195PTIM V0202401N008019999999N9999999N1-00701+99999101081ADDMD1610241+9999REMSYN064CMTI   46// PTIM4 46/// /2408 11070 40108 56024 90900 333 91211;
0090997265999992005012410004+46480-084630FM-18+0195PTIM V0202401N008019999999N9999999N1-00841+99999101011ADDMD1810181+9999REMSYN064CMTI   46// PTIM4 46/// /2408 11084 40101 58018 91000 333 91212;
0090997265999992005012411004+46480-084630FM-18+0195PTIM V0202401N007019999999N9999999N1-00871+99999100961ADDMD1610201+9999REMSYN064CMTI   46// PTIM4 46/// /2407 11087 40096 56020 91100 333 91212;
0090997265999992005012413004+46480-084630FM-18+0195PTIM V0200901N002019999999N9999999N1-00811+99999100911ADDMD1610101+9999REMSYN064CMTI   46// PTIM4 46/// /0902 11081 40091 56010 91300 333 91204;
0080997265999992005012414004+46480-084630FM-18+0195PTIM V0209999C000019999999N9999999N1-00801+99999100901ADDMD1610061+9999REMSYN054CMTI   46// PTIM4 46/// /0000 11080 40090 56006 91400;
0090997265999992005012415004+46480-084630FM-18+0195PTIM V0200701N001019999999N9999999N1-00701+99999100901ADDMD1710031+9999REMSYN064CMTI   46// PTIM4 46/// /0701 11070 40090 57003 91500 333 91203;
0067997265999992005012416004+46480-084630FM-18+0195PTIM V0202401N006019999999N9999999N1-00531+99999100891REMSYN058CMTI   46// PTIM4 46/// /2406 11053 40089 91600 333 91211;
0090997265999992005012417004+46480-084630FM-18+0195PTIM V0202501N008019999999N9999999N1-00531+99999100901ADDMD1410001+9999REMSYN064CMTI   46// PTIM4 46/// /2508 11053 40090 54000 91700 333 91214;
