0078997268999992005010100004+46500-084367FM-18+0195SWPM V0202801N013419999999N9999999N1+00101+99999101161REMSYN069CMAN  01004 SWPM4 46/// /2826 10010 40116 90006 222// 0002 333 91213;
0078997268999992005010103004+46500-084367FM-18+0195SWPM V0202801N010319999999N9999999N1-00201+99999101761REMSYN069CMAN  01034 SWPM4 46/// /2820 11020 40176 90300 222//00036 333 91213;
0078997268999992005010104004+46500-084367FM-18+0195SWPM V0202701N012919999999N9999999N1-00231+99999101901REMSYN069CMAN  01044 SWPM4 46/// /2725 11023 40190 90400 222// 0003 333 91209;
0090997268999992005010105004+46500-084367FM-18+0195SWPM V0203001N013019999999N9999999N1-00461+99999102171ADDSA1+0309REMSYN070CMTI   46// SWPM4 46/// /3013 11046 40217 90554 222// 00030 333 91225;
0100997268999992005010106004+46500-084367FM-18+0195SWPM V0203001N017019999999N9999999N1-00471+99999102201ADDMD1210441+9999SA1+0309REMSYN066CMTI   46// SWPM4 46/// /3017 11047 40220 52044 90600 222// 00030;
0100997268999992005010107004+46500-084367FM-18+0195SWPM V0203001N012019999999N9999999N1-00591+99999102351ADDMD1210451+9999SA1+0299REMSYN066CMTI   46// SWPM4 46/// /3012 11059 40235 52045 90700 222// 00029;
0080997268999992005010108004+46500-084367FM-18+0195SWPM V0200301N011019999999N9999999N1-00611+99999102581ADDSA1+0309REMSYN060CMTI   46// SWPM4 46/// /0311 11061 40258 90800 222// 00030;
0100997268999992005010109004+46500-084367FM-18+0195SWPM V0200301N012019999999N9999999N1-00841+99999102751ADDMD1310551+9999SA1+0309REMSYN066CMTI   46// SWPM4 46/// /0312 11084 40275 53055 90900 222// 00030;
0100997268999992005010110004+46500-084367FM-18+0195SWPM V0200401N008019999999N9999999N1-00891+99999102891ADDMD1110541+9999SA1+0309REMSYN066CMTI   46// SWPM4 46/// /0408 11089 40289 51054 91000 222// 00030;
0100997268999992005010111004+46500-084367FM-18+0195SWPM V0200301N008019999999N9999999N1-00901+99999102951ADDMD1110371+9999SA1+0289REMSYN066CMTI   46// SWPM4 46/// /0308 11090 40295 51037 91100 222// 00028;
0100997268999992005010112004+46500-084367FM-18+0195SWPM V0200501N006019999999N9999999N1-00961+99999103121ADDMD1310371+9999SA1+0299REMSYN066CMTI   46// SWPM4 46/// /0506 11096 40312 53037 91200 222// 00029;
0100997268999992005010113004+46500-084367FM-18+0195SWPM V0200301N002019999999N9999999N1-00961+99999103331ADDMD1310441+9999SA1+0299REMSYN066CMTI   46// SWPM4 46/// /0302 11096 40333 53044 91300 222// 00029;
0100997268999992005010114004+46500-084367FM-18+0195SWPM V0203101N007019999999N9999999N1-00941+99999103521ADDMD1310571+9999SA1+0309REMSYN066CMTI   46// SWPM4 46/// /3107 11094 40352 53057 91400 222// 00030;
0100997268999992005010115004+46500-084367FM-18+0195SWPM V0200601N011019999999N9999999N1-01011+99999103471ADDMD1010351+9999SA1+0299REMSYN066CMTI   46// SWPM4 46/// /0611 11101 40347 50035 91500 222// 00029;
0100997268999992005010116004+46500-084367FM-18+0195SWPM V0200801N007019999999N9999999N1-00911+99999103631ADDMD1110301+9999SA1+0309REMSYN066CMTI   46// SWPM4 46/// /0807 11091 40363 51030 91600 222// 00030;
0100997268999992005010117004+46500-084367FM-18+0195SWPM V0200701N004019999999N9999999N1-00851+99999103691ADDMD1310171+9999SA1+0299REMSYN066CMTI   46// SWPM4 46/// /0704 11085 40369 53017 91700 222// 00029;
0090997268999992005010118004+46500-084367FM-18+0195SWPM V0200701N005019999999N9999999N1-00661+99999103611ADDSA1+0299REMSYN070CMTI   46// SWPM4 46/// /0705 11066 40361 91824 222// 00029 333 91209;
0090997268999992005010121004+46500-084367FM-18+0195SWPM V0200901N006019999999N9999999N1-00511+99999103601ADDSA1+0299REMSYN070CMTI   46// SWPM4 46/// /0906 11051 40360 92106 222// 00029 333 91209;
0090997268999992005010201004+46500-084367FM-18+0195SWPM V0200901N009019999999N9999999N1-00761+99999103611ADDSA1+0299REMSYN070CMTI   46// SWPM4 46/// /0909 11076 40361 90100 222// 00029 333 91213;
0078997268999992005010203004+46500-084367FM-18+0195SWPM V0201001N005719999999N9999999N1-00781+99999103391REMSYN069CMAN  02034 SWPM4 46/// /1011 11078 40339 90300 222// 0003 333 91207;
0101997268999992005010204004+46500-084367FM-18+0195SWPM V0201101N008219999999N9999999N1-00801+99999103271ADDMD1710341+9999REMSYN075CMAN  02044 SWPM4 46/// /1116 11080 40327 57034 90400 222// 0003 333 91212;
0110997268999992005010206004+46500-084367FM-18+0195SWPM V0201101N012019999999N9999999N1-00941+99999103051ADDMD1710341+9999SA1+0319REMSYN076CMTI   46// SWPM4 46/// /1112 11094 40305 57034 90600 222// 00031 333 91220;
0090997268999992005010208004+46500-084367FM-18+0195SWPM V0201001N013019999999N9999999N1-00831+99999102581ADDSA1+0309REMSYN070CMTI   46// SWPM4 46/// /1013 11083 40258 90824 222// 00030 333 91223;
0100997268999992005010209004+46500-084367FM-18+0195SWPM V0201001N013019999999N9999999N1-00811+99999102561ADDMD1710491+9999SA1+0319REMSYN066CMTI   46// SWPM4 46/// /1013 11081 40256 57049 90900 222// 00031;
0080997268999992005010210004+46500-084367FM-18+0195SWPM V0201001N015019999999N9999999N1-00821+99999102341ADDSA1+0309REMSYN060CMTI   46// SWPM4 46/// /1015 11082 40234 91000 222// 00030;
0080997268999992005010211004+46500-084367FM-18+0195SWPM V0201001N014019999999N9999999N1-00751+99999102261ADDSA1+0309REMSYN060CMTI   46// SWPM4 46/// /1014 11075 40226 91100 222// 00030;
0100997268999992005010212004+46500-084367FM-18+0195SWPM V0201001N012019999999N9999999N1-00701+99999102131ADDMD1610431+9999SA1+0309REMSYN066CMTI   46// SWPM4 46/// /1012 11070 40213 56043 91200 222// 00030;
0100997268999992005010213004+46500-084367FM-18+0195SWPM V0201001N006019999999N9999999N1-00661+99999102091ADDMD1610251+9999SA1+0309REMSYN066CMTI   46// SWPM4 46/// /1006 11066 40209 56025 91300 222// 00030;
0100997268999992005010214004+46500-084367FM-18+0195SWPM V0201001N005019999999N9999999N1-00621+99999101961ADDMD1710301+9999SA1+0309REMSYN066CMTI   46// SWPM4 46/// /1005 11062 40196 57030 91400 222// 00030;
0100997268999992005010215004+46500-084367FM-18+0195SWPM V0200901N004019999999N9999999N1-00571+99999101971ADDMD1610161+9999SA1+0299REMSYN066CMTI   46// SWPM4 46/// /0904 11057 40197 56016 91500 222// 00029;
0100997268999992005010216004+46500-084367FM-18+0195SWPM V0201001N002019999999N9999999N1-00521+99999101971ADDMD1610121+9999SA1+0289REMSYN066CMTI   46// SWPM4 46/// /1002 11052 40197 56012 91600 222// 00028;
0100997268999992005010217004+46500-084367FM-18+0195SWPM V0200901N002019999999N9999999N1-00461+99999101911ADDMD1810051+9999SA1+0299REMSYN066CMTI   46// SWPM4 46/// /0902 11046 40191 58005 91700 222// 00029;
0100997268999992005010218004+46500-084367FM-18+0195SWPM V0201101N001019999999N9999999N1-00401+99999101841ADDMD1810131+9999SA1+0289REMSYN066CMTI   46// SWPM4 46/// /1101 11040 40184 58013 91800 222// 00028;
0100997268999992005010219004+46500-084367FM-18+0195SWPM V0202501N003019999999N9999999N1-00331+99999101851ADDMD1610121+9999SA1+0299REMSYN066CMTI   46// SWPM4 46/// /2503 11033 40185 56012 91900 222// 00029;
0090997268999992005010220004+46500-084367FM-18+0195SWPM V0202101N004019999999N9999999N1-00161+99999101851ADDSA1+0279REMSYN070CMTI   46// SWPM4 46/// /2104 11016 40185 92006 222// 00027 333 91204;
0090997268999992005010221004+46500-084367FM-18+0195SWPM V0202601N016019999999N9999999N1+00081+99999101981ADDSA1+0309REMSYN070CMTI   46// SWPM4 46/// /2616 10008 40198 92124 222// 00030 333 91218;
0090997268999992005010301004+46500-084367FM-18+0195SWPM V0202701N015019999999N9999999N1+00071+99999102261ADDSA1+0299REMSYN070CMTI   46// SWPM4 46/// /2715 10007 40226 90130 222// 00029 333 91221;
0080997268999992005010302004+46500-084367FM-18+0195SWPM V0202601N018019999999N9999999N1+00071+99999102271ADDSA1+0309REMSYN060CMTI   46// SWPM4 46/// /2618 10007 40227 90200 222// 00030;
0080997268999992005010303004+46500-084367FM-18+0195SWPM V0202701N012019999999N9999999N1+00081+99999102301ADDSA1+0299REMSYN060CMTI   46// SWPM4 46/// /2712 10008 40230 90300 222// 00029;
0080997268999992005010304004+46500-084367FM-18+0195SWPM V0202801N015019999999N9999999N1+00031+99999102321ADDSA1+0299REMSYN060CMTI   46// SWPM4 46/// /2815 10003 40232 90400 222// 00029;
0100997268999992005010305004+46500-084367FM-18+0195SWPM V0202701N017019999999N9999999N1+00031+99999102371ADDMD1310101+9999SA1+0299REMSYN066CMTI   46// SWPM4 46/// /2717 10003 40237 53010 90500 222// 00029;
0100997268999992005010306004+46500-084367FM-18+0195SWPM V0202801N019019999999N9999999N1-00021+99999102411ADDMD1310111+9999SA1+0299REMSYN066CMTI   46// SWPM4 46/// /2819 11002 40241 53011 90600 222// 00029;
0100997268999992005010307004+46500-084367FM-18+0195SWPM V0202801N017019999999N9999999N1-00051+99999102451ADDMD1110131+9999SA1+0289REMSYN066CMTI   46// SWPM4 46/// /2817 11005 40245 51013 90700 222// 00028;
0100997268999992005010308004+46500-084367FM-18+0195SWPM V0202801N020019999999N9999999N1-00061+99999102481ADDMD1110111+9999SA1+0289REMSYN066CMTI   46// SWPM4 46/// /2820 11006 40248 51011 90800 222// 00028;
0100997268999992005010309004+46500-084367FM-18+0195SWPM V0203001N015019999999N9999999N1-00131+99999102521ADDMD1210111+9999SA1+0289REMSYN066CMTI   46// SWPM4 46/// /3015 11013 40252 52011 90900 222// 00028;
0100997268999992005010310004+46500-084367FM-18+0195SWPM V0202901N017019999999N9999999N1-00171+99999102521ADDMD1110071+9999SA1+0289REMSYN066CMTI   46// SWPM4 46/// /2917 11017 40252 51007 91000 222// 00028;
0100997268999992005010311004+46500-084367FM-18+0195SWPM V0202801N016019999999N9999999N1-00211+99999102551ADDMD1110071+9999SA1+0289REMSYN066CMTI   46// SWPM4 46/// /2816 11021 40255 51007 91100 222// 00028;
0100997268999992005010312004+46500-084367FM-18+0195SWPM V0202901N013019999999N9999999N1-00251+99999102571ADDMD1210051+9999SA1+0279REMSYN066CMTI   46// SWPM4 46/// /2913 11025 40257 52005 91200 222// 00027;
0100997268999992005010313004+46500-084367FM-18+0195SWPM V0203001N011019999999N9999999N1-00261+99999102611ADDMD1310091+9999SA1+0299REMSYN066CMTI   46// SWPM4 46/// /3011 11026 40261 53009 91300 222// 00029;
0100997268999992005010314004+46500-084367FM-18+0195SWPM V0202801N010019999999N9999999N1-00261+99999102671ADDMD1310121+9999SA1+0289REMSYN066CMTI   46// SWPM4 46/// /2810 11026 40267 53012 91400 222// 00028;
0100997268999992005010315004+46500-084367FM-18+0195SWPM V0202801N007019999999N9999999N1-00281+99999102711ADDMD1210141+9999SA1+0289REMSYN066CMTI   46// SWPM4 46/// /2807 11028 40271 52014 91500 222// 00028;
0100997268999992005010316004+46500-084367FM-18+0195SWPM V0202901N009019999999N9999999N1-00271+99999102771ADDMD1210161+9999SA1+0289REMSYN066CMTI   46// SWPM4 46/// /2909 11027 40277 52016 91600 222// 00028;
0100997268999992005010317004+46500-084367FM-18+0195SWPM V0202701N009019999999N9999999N1-00271+99999102671ADDMD1010001+9999SA1+0299REMSYN066CMTI   46// SWPM4 46/// /2709 11027 40267 50000 91700 222// 00029;
0100997268999992005010318004+46500-084367FM-18+0195SWPM V0202701N010019999999N9999999N1-00291+99999102591ADDMD1810121+9999SA1+0299REMSYN066CMTI   46// SWPM4 46/// /2710 11029 40259 58012 91800 222// 00029;
0100997268999992005010319004+46500-084367FM-18+0195SWPM V0202701N012019999999N9999999N1-00281+99999102571ADDMD1610201+9999SA1+0279REMSYN066CMTI   46// SWPM4 46/// /2712 11028 40257 56020 91900 222// 00027;
0100997268999992005010320004+46500-084367FM-18+0195SWPM V0202801N010019999999N9999999N1-00311+99999102551ADDMD1610121+9999SA1+0289REMSYN066CMTI   46// SWPM4 46/// /2810 11031 40255 56012 92000 222// 00028;
0100997268999992005010321004+46500-084367FM-18+0195SWPM V0202701N013019999999N9999999N1-00281+99999102561ADDMD1710031+9999SA1+0289REMSYN066CMTI   46// SWPM4 46/// /2713 11028 40256 57003 92100 222// 00028;
0100997268999992005010322004+46500-084367FM-18+0195SWPM V0202801N011019999999N9999999N1-00321+99999102561ADDMD1410001+9999SA1+0289REMSYN066CMTI   46// SWPM4 46/// /2811 11032 40256 54000 92200 222// 00028;
0100997268999992005010323004+46500-084367FM-18+0195SWPM V0202801N011019999999N9999999N1-00361+99999102591ADDMD1310041+9999SA1+0289REMSYN066CMTI   46// SWPM4 46/// /2811 11036 40259 53004 92300 222// 00028;
0100997268999992005010400004+46500-084367FM-18+0195SWPM V0202901N010019999999N9999999N1-00381+99999102611ADDMD1210051+9999SA1+0299REMSYN066CMTI   46// SWPM4 46/// /2910 11038 40261 52005 90000 222// 00029;
0090997268999992005010402004+46500-084367FM-18+0195SWPM V0202901N007019999999N9999999N1-00431+99999102631ADDSA1+0289REMSYN070CMTI   46// SWPM4 46/// /2907 11043 40263 90206 222// 00028 333 91212;
0100997268999992005010403004+46500-084367FM-18+0195SWPM V0202801N008019999999N9999999N1-00451+99999102641ADDMD1210031+9999SA1+0279REMSYN066CMTI   46// SWPM4 46/// /2808 11045 40264 52003 90300 222// 00027;
0080997268999992005010404004+46500-084367FM-18+0195SWPM V0202801N009019999999N9999999N1-00431+99999102681ADDSA1+0289REMSYN060CMTI   46// SWPM4 46/// /2809 11043 40268 90400 222// 00028;
0080997268999992005010405004+46500-084367FM-18+0195SWPM V0202801N009019999999N9999999N1-00411+99999102661ADDSA1+0289REMSYN060CMTI   46// SWPM4 46/// /2809 11041 40266 90500 222// 00028;
0100997268999992005010406004+46500-084367FM-18+0195SWPM V0202801N009019999999N9999999N1-00401+99999102641ADDMD1010001+9999SA1+0299REMSYN066CMTI   46// SWPM4 46/// /2809 11040 40264 50000 90600 222// 00029;
0100997268999992005010407004+46500-084367FM-18+0195SWPM V0202901N008019999999N9999999N1-00401+99999102601ADDMD1810081+9999SA1+0289REMSYN066CMTI   46// SWPM4 46/// /2908 11040 40260 58008 90700 222// 00028;
0100997268999992005010408004+46500-084367FM-18+0195SWPM V0202801N011019999999N9999999N1-00381+99999102631ADDMD1510031+9999SA1+0279REMSYN066CMTI   46// SWPM4 46/// /2811 11038 40263 55003 90800 222// 00027;
0100997268999992005010409004+46500-084367FM-18+0195SWPM V0202601N009019999999N9999999N1-00361+99999102641ADDMD1510001+9999SA1+0289REMSYN066CMTI   46// SWPM4 46/// /2609 11036 40264 55000 90900 222// 00028;
0100997268999992005010410004+46500-084367FM-18+0195SWPM V0202701N010019999999N9999999N1-00351+99999102611ADDMD1010001+9999SA1+0289REMSYN066CMTI   46// SWPM4 46/// /2710 11035 40261 50000 91000 222// 00028;
0100997268999992005010411004+46500-084367FM-18+0195SWPM V0202701N013019999999N9999999N1-00341+99999102611ADDMD1410001+9999SA1+0299REMSYN066CMTI   46// SWPM4 46/// /2713 11034 40261 54000 91100 222// 00029;
0100997268999992005010412004+46500-084367FM-18+0195SWPM V0202401N011019999999N9999999N1-00411+99999102671ADDMD1310031+9999SA1+0299REMSYN066CMTI   46// SWPM4 46/// /2411 11041 40267 53003 91200 222// 00029;
0100997268999992005010413004+46500-084367FM-18+0195SWPM V0202401N010019999999N9999999N1-00381+99999102671ADDMD1210061+9999SA1+0299REMSYN066CMTI   46// SWPM4 46/// /2410 11038 40267 52006 91300 222// 00029;
0100997268999992005010414004+46500-084367FM-18+0195SWPM V0202201N010019999999N9999999N1-00461+99999102671ADDMD1110061+9999SA1+0299REMSYN066CMTI   46// SWPM4 46/// /2210 11046 40267 51006 91400 222// 00029;
0100997268999992005010415004+46500-084367FM-18+0195SWPM V0202301N010019999999N9999999N1-00471+99999102711ADDMD1310041+9999SA1+0299REMSYN066CMTI   46// SWPM4 46/// /2310 11047 40271 53004 91500 222// 00029;
0100997268999992005010416004+46500-084367FM-18+0195SWPM V0202301N010019999999N9999999N1-00411+99999102721ADDMD1210051+9999SA1+0289REMSYN066CMTI   46// SWPM4 46/// /2310 11041 40272 52005 91600 222// 00028;
0100997268999992005010417004+46500-084367FM-18+0195SWPM V0202401N013019999999N9999999N1-00321+99999102661ADDMD1010001+9999SA1+0299REMSYN066CMTI   46// SWPM4 46/// /2413 11032 40266 50000 91700 222// 00029;
0100997268999992005010418004+46500-084367FM-18+0195SWPM V0202401N013019999999N9999999N1-00251+99999102561ADDMD1810151+9999SA1+0299REMSYN066CMTI   46// SWPM4 46/// /2413 11025 40256 58015 91800 222// 00029;
0100997268999992005010419004+46500-084367FM-18+0195SWPM V0202601N016019999999N9999999N1-00241+99999102521ADDMD1610201+9999SA1+0299REMSYN066CMTI   46// SWPM4 46/// /2616 11024 40252 56020 91900 222// 00029;
0100997268999992005010420004+46500-084367FM-18+0195SWPM V0202601N017019999999N9999999N1-00231+99999102531ADDMD1610131+9999SA1+0299REMSYN066CMTI   46// SWPM4 46/// /2617 11023 40253 56013 92000 222// 00029;
0100997268999992005010421004+46500-084367FM-18+0195SWPM V0202701N018019999999N9999999N1-00271+99999102561ADDMD1510001+9999SA1+0299REMSYN066CMTI   46// SWPM4 46/// /2718 11027 40256 55000 92100 222// 00029;
0100997268999992005010422004+46500-084367FM-18+0195SWPM V0203001N014019999999N9999999N1-00331+99999102641ADDMD1310121+9999SA1+0309REMSYN066CMTI   46// SWPM4 46/// /3014 11033 40264 53012 92200 222// 00030;
0100997268999992005010423004+46500-084367FM-18+0195SWPM V0203001N018019999999N9999999N1-00391+99999102681ADDMD1310151+9999SA1+0299REMSYN066CMTI   46// SWPM4 46/// /3018 11039 40268 53015 92300 222// 00029;
0100997268999992005010500004+46500-084367FM-18+0195SWPM V0202901N018019999999N9999999N1-00441+99999102761ADDMD1210201+9999SA1+0309REMSYN066CMTI   46// SWPM4 46/// /2918 11044 40276 52020 90000 222// 00030;
0100997268999992005010501004+46500-084367FM-18+0195SWPM V0203001N016019999999N9999999N1-00511+99999102841ADDMD1310201+9999SA1+0299REMSYN066CMTI   46// SWPM4 46/// /3016 11051 40284 53020 90100 222// 00029;
0100997268999992005010502004+46500-084367FM-18+0195SWPM V0203301N010019999999N9999999N1-00621+99999102831ADDMD1110151+9999SA1+0299REMSYN066CMTI   46// SWPM4 46/// /3310 11062 40283 51015 90200 222// 00029;
0090997268999992005010503004+46500-084367FM-18+0195SWPM V0203301N011019999999N9999999N1-00701+99999102931ADDSA1+0289REMSYN070CMTI   46// SWPM4 46/// /3311 11070 40293 90306 222// 00028 333 91220;
0090997268999992005010504004+46500-084367FM-18+0195SWPM V0203301N009019999999N9999999N1-00881+99999102981ADDSA1+0309REMSYN070CMTI   46// SWPM4 46/// /3309 11088 40298 90424 222// 00030 333 91218;
0101997268999992005010505004+46500-084367FM-18+0195SWPM V0203401N003119999999N9999999N1-00951+99999103011ADDMD1210181+9999REMSYN075CMAN  05054 SWPM4 46/// /3406 11095 40301 52018 90500 222// 0003 333 91206;
0090997268999992005010507004+46500-084367FM-18+0195SWPM V0203601N007019999999N9999999N1-01301+99999103131ADDSA1+0309REMSYN070CMTI   46// SWPM4 46/// /3607 11130 40313 90718 222// 00030 333 91213;
0100997268999992005010508004+46500-084367FM-18+0195SWPM V0200501N007019999999N9999999N1-01351+99999103161ADDMD1210151+9999SA1+0299REMSYN066CMTI   46// SWPM4 46/// /0507 11135 40316 52015 90800 222// 00029;
0080997268999992005010509004+46500-084367FM-18+0195SWPM V0200401N008019999999N9999999N1-01451+99999103211ADDSA1+0309REMSYN060CMTI   46// SWPM4 46/// /0408 11145 40321 90900 222// 00030;
0080997268999992005010510004+46500-084367FM-18+0195SWPM V0200401N007019999999N9999999N1-01531+99999103241ADDSA1+0299REMSYN060CMTI   46// SWPM4 46/// /0407 11153 40324 91000 222// 00029;
0100997268999992005010511004+46500-084367FM-18+0195SWPM V0200301N007019999999N9999999N1-01571+99999103261ADDMD1110101+9999SA1+0289REMSYN066CMTI   46// SWPM4 46/// /0307 11157 40326 51010 91100 222// 00028;
0100997268999992005010512004+46500-084367FM-18+0195SWPM V0200601N006019999999N9999999N1-01641+99999103221ADDMD1010001+9999SA1+0289REMSYN066CMTI   46// SWPM4 46/// /0606 11164 40322 50000 91200 222// 00028;
0100997268999992005010513004+46500-084367FM-18+0195SWPM V0200501N007019999999N9999999N1-01671+99999103291ADDMD1310051+9999SA1+0289REMSYN066CMTI   46// SWPM4 46/// /0507 11167 40329 53005 91300 222// 00028;
0100997268999992005010514004+46500-084367FM-18+0195SWPM V0200501N006019999999N9999999N1-01691+99999103191ADDMD1810071+9999SA1+0289REMSYN066CMTI   46// SWPM4 46/// /0506 11169 40319 58007 91400 222// 00028;
0100997268999992005010515004+46500-084367FM-18+0195SWPM V0200401N002019999999N9999999N1-01661+99999103231ADDMD1010001+9999SA1+0269REMSYN066CMTI   46// SWPM4 46/// /0402 11166 40323 50000 91500 222// 00026;
0100997268999992005010516004+46500-084367FM-18+0195SWPM V0201201N002019999999N9999999N1-01481+99999103211ADDMD1610081+9999SA1+0279REMSYN066CMTI   46// SWPM4 46/// /1202 11148 40321 56008 91600 222// 00027;
0100997268999992005010517004+46500-084367FM-18+0195SWPM V0209999C000019999999N9999999N1-01321+99999103191ADDMD1010001+9999SA1+0269REMSYN066CMTI   46// SWPM4 46/// /0000 11132 40319 50000 91700 222// 00026;
0100997268999992005010518004+46500-084367FM-18+0195SWPM V0201801N002019999999N9999999N1-01321+99999103031ADDMD1810201+9999SA1+0259REMSYN066CMTI   46// SWPM4 46/// /1802 11132 40303 58020 91800 222// 00025;
0100997268999992005010519004+46500-084367FM-18+0195SWPM V0202601N001019999999N9999999N1-01201+99999103001ADDMD1810211+9999SA1+0269REMSYN066CMTI   46// SWPM4 46/// /2601 11120 40300 58021 91900 222// 00026;
0100997268999992005010520004+46500-084367FM-18+0195SWPM V0200601N007019999999N9999999N1-01111+99999102811ADDMD1810381+9999SA1+0269REMSYN066CMTI   46// SWPM4 46/// /0607 11111 40281 58038 92000 222// 00026;
0100997268999992005010521004+46500-084367FM-18+0195SWPM V0203001N003019999999N9999999N1-01031+99999102841ADDMD1510191+9999SA1+0269REMSYN066CMTI   46// SWPM4 46/// /3003 11103 40284 55019 92100 222// 00026;
0100997268999992005010522004+46500-084367FM-18+0195SWPM V0200401N005019999999N9999999N1-01081+99999102721ADDMD1610281+9999SA1+0269REMSYN066CMTI   46// SWPM4 46/// /0405 11108 40272 56028 92200 222// 00026;
0100997268999992005010523004+46500-084367FM-18+0195SWPM V0200501N005019999999N9999999N1-01111+99999102651ADDMD1810161+9999SA1+0269REMSYN066CMTI   46// SWPM4 46/// /0505 11111 40265 58016 92300 222// 00026;
0101997268999992005010601004+46500-084367FM-18+0195SWPM V0201101N001019999999N9999999N1-01161+99999102551ADDMD1710171+9999REMSYN075CMAN  06014 SWPM4 46/// /1102 11116 40255 57017 90100 222// 0002 333 91225;
0090997268999992005010603004+46500-084367FM-18+0195SWPM V0201001N004019999999N9999999N1-01231+99999102361ADDSA1+0279REMSYN070CMTI   46// SWPM4 46/// /1004 11123 40236 90324 222// 00027 333 91205;
0100997268999992005010604004+46500-084367FM-18+0195SWPM V0200901N002019999999N9999999N1-01271+99999102381ADDMD1710171+9999SA1+0279REMSYN066CMTI   46// SWPM4 46/// /0902 11127 40238 57017 90400 222// 00027;
0080997268999992005010605004+46500-084367FM-18+0195SWPM V0200601N006019999999N9999999N1-01281+99999102141ADDSA1+0289REMSYN060CMTI   46// SWPM4 46/// /0606 11128 40214 90500 222// 00028;
0080997268999992005010606004+46500-084367FM-18+0195SWPM V0201101N001019999999N9999999N1-01341+99999102081ADDSA1+0269REMSYN060CMTI   46// SWPM4 46/// /1101 11134 40208 90600 222// 00026;
0100997268999992005010607004+46500-084367FM-18+0195SWPM V0201001N003019999999N9999999N1-01321+99999102071ADDMD1610311+9999SA1+0269REMSYN066CMTI   46// SWPM4 46/// /1003 11132 40207 56031 90700 222// 00026;
0100997268999992005010608004+46500-084367FM-18+0195SWPM V0200501N006019999999N9999999N1-01341+99999101931ADDMD1810211+9999SA1+0279REMSYN066CMTI   46// SWPM4 46/// /0506 11134 40193 58021 90800 222// 00027;
0100997268999992005010609004+46500-084367FM-18+0195SWPM V0201001N004019999999N9999999N1-01371+99999101811ADDMD1810271+9999SA1+0279REMSYN066CMTI   46// SWPM4 46/// /1004 11137 40181 58027 90900 222// 00027;
0100997268999992005010610004+46500-084367FM-18+0195SWPM V0201001N003019999999N9999999N1-01431+99999101721ADDMD1610351+9999SA1+0269REMSYN066CMTI   46// SWPM4 46/// /1003 11143 40172 56035 91000 222// 00026;
0100997268999992005010611004+46500-084367FM-18+0195SWPM V0200701N004019999999N9999999N1-01281+99999101611ADDMD1610321+9999SA1+0289REMSYN066CMTI   46// SWPM4 46/// /0704 11128 40161 56032 91100 222// 00028;
0100997268999992005010612004+46500-084367FM-18+0195SWPM V0201101N004019999999N9999999N1-01361+99999101531ADDMD1610281+9999SA1+0279REMSYN066CMTI   46// SWPM4 46/// /1104 11136 40153 56028 91200 222// 00027;
0100997268999992005010613004+46500-084367FM-18+0195SWPM V0201001N004019999999N9999999N1-01301+99999101481ADDMD1610241+9999SA1+0279REMSYN066CMTI   46// SWPM4 46/// /1004 11130 40148 56024 91300 222// 00027;
0100997268999992005010614004+46500-084367FM-18+0195SWPM V0200801N003019999999N9999999N1-01181+99999101421ADDMD1610191+9999SA1+0279REMSYN066CMTI   46// SWPM4 46/// /0803 11118 40142 56019 91400 222// 00027;
0100997268999992005010615004+46500-084367FM-18+0195SWPM V0200501N003019999999N9999999N1-01081+99999101351ADDMD1810181+9999SA1+0279REMSYN066CMTI   46// SWPM4 46/// /0503 11108 40135 58018 91500 222// 00027;
0090997268999992005010616004+46500-084367FM-18+0195SWPM V0201101N005019999999N9999999N1-00981+99999101221ADDSA1+0279REMSYN070CMTI   46// SWPM4 46/// /1105 11098 40122 91606 222// 00027 333 91207;
0100997268999992005010617004+46500-084367FM-18+0195SWPM V0202701N003019999999N9999999N1-00911+99999101031ADDMD1810391+9999SA1+0269REMSYN066CMTI   46// SWPM4 46/// /2703 11091 40103 58039 91700 222// 00026;
0100997268999992005010618004+46500-084367FM-18+0195SWPM V0201901N002019999999N9999999N1-00901+99999100951ADDMD1610401+9999SA1+0269REMSYN066CMTI   46// SWPM4 46/// /1902 11090 40095 56040 91800 222// 00026;
0090997268999992005010619004+46500-084367FM-18+0195SWPM V0202601N003019999999N9999999N1-00761+99999100821ADDSA1+0279REMSYN070CMTI   46// SWPM4 46/// /2603 11076 40082 91906 222// 00027 333 91206;
0100997268999992005010620004+46500-084367FM-18+0195SWPM V0209999C000019999999N9999999N1-00681+99999100801ADDMD1710231+9999SA1+0279REMSYN066CMTI   46// SWPM4 46/// /0000 11068 40080 57023 92000 222// 00027;
0080997268999992005010621004+46500-084367FM-18+0195SWPM V0202801N007019999999N9999999N1-00591+99999100801ADDSA1+0269REMSYN060CMTI   46// SWPM4 46/// /2807 11059 40080 92100 222// 00026;
0080997268999992005010622004+46500-084367FM-18+0195SWPM V0202801N005019999999N9999999N1-00531+99999100871ADDSA1+0269REMSYN060CMTI   46// SWPM4 46/// /2805 11053 40087 92200 222// 00026;
0100997268999992005010623004+46500-084367FM-18+0195SWPM V0202901N004019999999N9999999N1-00511+99999100911ADDMD1310111+9999SA1+0269REMSYN066CMTI   46// SWPM4 46/// /2904 11051 40091 53011 92300 222// 00026;
0100997268999992005010700004+46500-084367FM-18+0195SWPM V0201801N003019999999N9999999N1-00551+99999100971ADDMD1110171+9999SA1+0269REMSYN066CMTI   46// SWPM4 46/// /1803 11055 40097 51017 90000 222// 00026;
0100997268999992005010701004+46500-084367FM-18+0195SWPM V0201701N003019999999N9999999N1-00531+99999101031ADDMD1310161+9999SA1+0269REMSYN066CMTI   46// SWPM4 46/// /1703 11053 40103 53016 90100 222// 00026;
0100997268999992005010702004+46500-084367FM-18+0195SWPM V0202601N013019999999N9999999N1-00271+99999101081ADDMD1110171+9999SA1+0289REMSYN066CMTI   46// SWPM4 46/// /2613 11027 40108 51017 90200 222// 00028;
0100997268999992005010703004+46500-084367FM-18+0195SWPM V0202601N015019999999N9999999N1-00291+99999101141ADDMD1210171+9999SA1+0269REMSYN066CMTI   46// SWPM4 46/// /2615 11029 40114 52017 90300 222// 00026;
0100997268999992005010704004+46500-084367FM-18+0195SWPM V0202601N012019999999N9999999N1-00321+99999101191ADDMD1210161+9999SA1+0269REMSYN066CMTI   46// SWPM4 46/// /2612 11032 40119 52016 90400 222// 00026;
0100997268999992005010705004+46500-084367FM-18+0195SWPM V0202501N016019999999N9999999N1-00391+99999101271ADDMD1310191+9999SA1+0269REMSYN066CMTI   46// SWPM4 46/// /2516 11039 40127 53019 90500 222// 00026;
0100997268999992005010706004+46500-084367FM-18+0195SWPM V0202401N013019999999N9999999N1-00571+99999101351ADDMD1310211+9999SA1+0279REMSYN066CMTI   46// SWPM4 46/// /2413 11057 40135 53021 90600 222// 00027;
0100997268999992005010707004+46500-084367FM-18+0195SWPM V0202301N014019999999N9999999N1-00581+99999101391ADDMD1110201+9999SA1+0289REMSYN066CMTI   46// SWPM4 46/// /2314 11058 40139 51020 90700 222// 00028;
0100997268999992005010708004+46500-084367FM-18+0195SWPM V0202101N008019999999N9999999N1-00731+99999101471ADDMD1210201+9999SA1+0289REMSYN066CMTI   46// SWPM4 46/// /2108 11073 40147 52020 90800 222// 00028;
0100997268999992005010709004+46500-084367FM-18+0195SWPM V0202301N009019999999N9999999N1-00741+99999101561ADDMD1310211+9999SA1+0279REMSYN066CMTI   46// SWPM4 46/// /2309 11074 40156 53021 90900 222// 00027;
0100997268999992005010710004+46500-084367FM-18+0195SWPM V0202101N004019999999N9999999N1-00771+99999101591ADDMD1110201+9999SA1+0269REMSYN066CMTI   46// SWPM4 46/// /2104 11077 40159 51020 91000 222// 00026;
0100997268999992005010711004+46500-084367FM-18+0195SWPM V0201801N004019999999N9999999N1-00911+99999101611ADDMD1110141+9999SA1+0269REMSYN066CMTI   46// SWPM4 46/// /1804 11091 40161 51014 91100 222// 00026;
0100997268999992005010712004+46500-084367FM-18+0195SWPM V0201801N004019999999N9999999N1-00911+99999101721ADDMD1310161+9999SA1+0279REMSYN066CMTI   46// SWPM4 46/// /1804 11091 40172 53016 91200 222// 00027;
0100997268999992005010713004+46500-084367FM-18+0195SWPM V0201401N001019999999N9999999N1-00901+99999101791ADDMD1310201+9999SA1+0259REMSYN066CMTI   46// SWPM4 46/// /1401 11090 40179 53020 91300 222// 00025;
0100997268999992005010714004+46500-084367FM-18+0195SWPM V0201201N003019999999N9999999N1-00901+99999101821ADDMD1110211+9999SA1+0269REMSYN066CMTI   46// SWPM4 46/// /1203 11090 40182 51021 91400 222// 00026;
0100997268999992005010715004+46500-084367FM-18+0195SWPM V0201001N003019999999N9999999N1-00861+99999101871ADDMD1110151+9999SA1+0249REMSYN066CMTI   46// SWPM4 46/// /1003 11086 40187 51015 91500 222// 00024;
0100997268999992005010716004+46500-084367FM-18+0195SWPM V0200801N003019999999N9999999N1-00681+99999101931ADDMD1310141+9999SA1+0269REMSYN066CMTI   46// SWPM4 46/// /0803 11068 40193 53014 91600 222// 00026;
0100997268999992005010717004+46500-084367FM-18+0195SWPM V0200901N002019999999N9999999N1-00511+99999101911ADDMD1110091+9999SA1+0259REMSYN066CMTI   46// SWPM4 46/// /0902 11051 40191 51009 91700 222// 00025;
0100997268999992005010718004+46500-084367FM-18+0195SWPM V0202301N017019999999N9999999N1-00131+99999101831ADDMD1810041+9999SA1+0259REMSYN066CMTI   46// SWPM4 46/// /2317 11013 40183 58004 91800 222// 00025;
0100997268999992005010719004+46500-084367FM-18+0195SWPM V0202301N021019999999N9999999N1-00091+99999101791ADDMD1810141+9999SA1+0269REMSYN066CMTI   46// SWPM4 46/// /2321 11009 40179 58014 91900 222// 00026;
0100997268999992005010720004+46500-084367FM-18+0195SWPM V0202001N011019999999N9999999N1-00071+99999101751ADDMD1610161+9999SA1+0279REMSYN066CMTI   46// SWPM4 46/// /2011 11007 40175 56016 92000 222// 00027;
0100997268999992005010721004+46500-084367FM-18+0195SWPM V0202101N011019999999N9999999N1-00101+99999101771ADDMD1610061+9999SA1+0269REMSYN066CMTI   46// SWPM4 46/// /2111 11010 40177 56006 92100 222// 00026;
0100997268999992005010722004+46500-084367FM-18+0195SWPM V0201901N005019999999N9999999N1-00091+99999101791ADDMD1510001+9999SA1+0249REMSYN066CMTI   46// SWPM4 46/// /1905 11009 40179 55000 92200 222// 00024;
0100997268999992005010723004+46500-084367FM-18+0195SWPM V0201701N007019999999N9999999N1-00111+99999101821ADDMD1310071+9999SA1+0259REMSYN066CMTI   46// SWPM4 46/// /1707 11011 40182 53007 92300 222// 00025;
0090997268999992005010820004+46500-084367FM-18+0195SWPM V0200901N002019999999N9999999N1-00361+99999102511ADDSA1+0269REMSYN070CMTI   46// SWPM4 46/// /0902 11036 40251 92018 222// 00026 333 91205;
0068997268999992005010821004+46500-084367FM-18+0195SWPM V0201301N001019999999N9999999N1-00321+99999102591REMSYN059CMAN 08214 SWPM4 46/// /1302 11032 40259 92100 222// 00026;
0090997268999992005010822004+46500-084367FM-18+0195SWPM V0200901N001019999999N9999999N1-00311+99999102631ADDSA1+0269REMSYN070CMTI   46// SWPM4 46/// /0901 11031 40263 92136 222// 00026 333 91204;
0100997268999992005010823004+46500-084367FM-18+0195SWPM V0201101N003019999999N9999999N1-00301+99999102741ADDMD1210231+9999SA1+0279REMSYN066CMTI   46// SWPM4 46/// /1103 11030 40274 52023 92300 222// 00027;
0080997268999992005010900004+46500-084370FM-18+0195SWPM V0201201N006019999999N9999999N1-00291+99999102691ADDSA1+0279REMSYN060CMTI   46// SWPM4 46/// /1206 11029 40269 90000 222// 00027;
0100997268999992005010901004+46500-084370FM-18+0195SWPM V0201301N003019999999N9999999N1-00261+99999102661ADDMD1010001+9999SA1+0269REMSYN066CMTI   46// SWPM4 46/// /1303 11026 40266 50000 90100 222// 00026;
0100997268999992005010902004+46500-084370FM-18+0195SWPM V0201401N004019999999N9999999N1-00271+99999102681ADDMD1610061+9999SA1+0269REMSYN066CMTI   46// SWPM4 46/// /1404 11027 40268 56006 90200 222// 00026;
0100997268999992005010903004+46500-084370FM-18+0195SWPM V0201101N004019999999N9999999N1-00291+99999102651ADDMD1710041+9999SA1+0269REMSYN066CMTI   46// SWPM4 46/// /1104 11029 40265 57004 90300 222// 00026;
0100997268999992005010904004+46500-084370FM-18+0195SWPM V0201401N002019999999N9999999N1-00291+99999102681ADDMD1510001+9999SA1+0269REMSYN066CMTI   46// SWPM4 46/// /1402 11029 40268 55000 90400 222// 00026;
0100997268999992005010905004+46500-084370FM-18+0195SWPM V0201301N004019999999N9999999N1-00301+99999102621ADDMD1810061+9999SA1+0269REMSYN066CMTI   46// SWPM4 46/// /1304 11030 40262 58006 90500 222// 00026;
0100997268999992005010906004+46500-084370FM-18+0195SWPM V0201501N002019999999N9999999N1-00301+99999102661ADDMD1510001+9999SA1+0279REMSYN066CMTI   46// SWPM4 46/// /1502 11030 40266 55000 90600 222// 00027;
0100997268999992005010907004+46500-084370FM-18+0195SWPM V0201601N003019999999N9999999N1-00301+99999102601ADDMD1710081+9999SA1+0279REMSYN066CMTI   46// SWPM4 46/// /1603 11030 40260 57008 90700 222// 00027;
0100997268999992005010908004+46500-084370FM-18+0195SWPM V0201101N006019999999N9999999N1-00321+99999102491ADDMD1810131+9999SA1+0289REMSYN066CMTI   46// SWPM4 46/// /1106 11032 40249 58013 90800 222// 00028;
0100997268999992005010909004+46500-084370FM-18+0195SWPM V0201101N003019999999N9999999N1-00311+99999102421ADDMD1810241+9999SA1+0269REMSYN066CMTI   46// SWPM4 46/// /1103 11031 40242 58024 90900 222// 00026;
0100997268999992005010910004+46500-084370FM-18+0195SWPM V0201301N007019999999N9999999N1-00311+99999102371ADDMD1610231+9999SA1+0289REMSYN066CMTI   46// SWPM4 46/// /1307 11031 40237 56023 91000 222// 00028;
0100997268999992005010911004+46500-084370FM-18+0195SWPM V0201401N006019999999N9999999N1-00341+99999102381ADDMD1610111+9999SA1+0289REMSYN066CMTI   46// SWPM4 46/// /1406 11034 40238 56011 91100 222// 00028;
0100997268999992005010912004+46500-084370FM-18+0195SWPM V0201401N006019999999N9999999N1-00321+99999102291ADDMD1810131+9999SA1+0289REMSYN066CMTI   46// SWPM4 46/// /1406 11032 40229 58013 91200 222// 00028;
0100997268999992005010913004+46500-084370FM-18+0195SWPM V0201501N006019999999N9999999N1-00281+99999102241ADDMD1810131+9999SA1+0289REMSYN066CMTI   46// SWPM4 46/// /1506 11028 40224 58013 91300 222// 00028;
0100997268999992005010914004+46500-084370FM-18+0195SWPM V0201501N007019999999N9999999N1-00251+99999102211ADDMD1610171+9999SA1+0279REMSYN066CMTI   46// SWPM4 46/// /1507 11025 40221 56017 91400 222// 00027;
0100997268999992005010915004+46500-084370FM-18+0195SWPM V0201501N005019999999N9999999N1-00211+99999102151ADDMD1810141+9999SA1+0279REMSYN066CMTI   46// SWPM4 46/// /1505 11021 40215 58014 91500 222// 00027;
0100997268999992005010916004+46500-084370FM-18+0195SWPM V0201401N005019999999N9999999N1-00181+99999102131ADDMD1610111+9999SA1+0279REMSYN066CMTI   46// SWPM4 46/// /1405 11018 40213 56011 91600 222// 00027;
0100997268999992005010917004+46500-084370FM-18+0195SWPM V0201401N007019999999N9999999N1-00141+99999101991ADDMD1810221+9999SA1+0289REMSYN066CMTI   46// SWPM4 46/// /1407 11014 40199 58022 91700 222// 00028;
0100997268999992005010918004+46500-084370FM-18+0195SWPM V0201301N005019999999N9999999N1-00111+99999101891ADDMD1810261+9999SA1+0279REMSYN066CMTI   46// SWPM4 46/// /1305 11011 40189 58026 91800 222// 00027;
0100997268999992005010919004+46500-084370FM-18+0195SWPM V0201201N005019999999N9999999N1-00091+99999101781ADDMD1610351+9999SA1+0279REMSYN066CMTI   46// SWPM4 46/// /1205 11009 40178 56035 91900 222// 00027;
0100997268999992005010920004+46500-084370FM-18+0195SWPM V0201301N006019999999N9999999N1-00081+99999101661ADDMD1810331+9999SA1+0279REMSYN066CMTI   46// SWPM4 46/// /1306 11008 40166 58033 92000 222// 00027;
0100997268999992005010921004+46500-084370FM-18+0195SWPM V0201301N008019999999N9999999N1-00081+99999101541ADDMD1810351+9999SA1+0279REMSYN066CMTI   46// SWPM4 46/// /1308 11008 40154 58035 92100 222// 00027;
0100997268999992005010922004+46500-084370FM-18+0195SWPM V0201401N008019999999N9999999N1-00091+99999101441ADDMD1610341+9999SA1+0269REMSYN066CMTI   46// SWPM4 46/// /1408 11009 40144 56034 92200 222// 00026;
0100997268999992005010923004+46500-084370FM-18+0195SWPM V0201601N008019999999N9999999N1-00101+99999101391ADDMD1610271+9999SA1+0279REMSYN066CMTI   46// SWPM4 46/// /1608 11010 40139 56027 92300 222// 00027;
0100997268999992005011000004+46500-084367FM-18+0195SWPM V0201701N007019999999N9999999N1-00111+99999101311ADDMD1610231+9999SA1+0289REMSYN066CMTI   46// SWPM4 46/// /1707 11011 40131 56023 90000 222// 00028;
0100997268999992005011001004+46500-084367FM-18+0195SWPM V0201601N007019999999N9999999N1-00141+99999101191ADDMD1810251+9999SA1+0279REMSYN066CMTI   46// SWPM4 46/// /1607 11014 40119 58025 90100 222// 00027;
0100997268999992005011002004+46500-084367FM-18+0195SWPM V0201701N007019999999N9999999N1-00161+99999101081ADDMD1810311+9999SA1+0279REMSYN066CMTI   46// SWPM4 46/// /1707 11016 40108 58031 90200 222// 00027;
0100997268999992005011003004+46500-084367FM-18+0195SWPM V0201701N005019999999N9999999N1-00141+99999100961ADDMD1710351+9999SA1+0289REMSYN066CMTI   46// SWPM4 46/// /1705 11014 40096 57035 90300 222// 00028;
0100997268999992005011004004+46500-084367FM-18+0195SWPM V0202501N023019999999N9999999N1-00221+99999100991ADDMD1510201+9999SA1+0299REMSYN066CMTI   46// SWPM4 46/// /2523 11022 40099 55020 90400 222// 00029;
0090997268999992005011005004+46500-084367FM-18+0195SWPM V0202601N019019999999N9999999N1-00281+99999100981ADDSA1+0289REMSYN070CMTI   46// SWPM4 46/// /2619 11028 40098 90506 222// 00028 333 91238;
0100997268999992005011006004+46500-084367FM-18+0195SWPM V0202601N024019999999N9999999N1-00271+99999101021ADDMD1210061+9999SA1+0289REMSYN066CMTI   46// SWPM4 46/// /2624 11027 40102 52006 90600 222// 00028;
0100997268999992005011007004+46500-084367FM-18+0195SWPM V0202401N020019999999N9999999N1-00231+99999101021ADDMD1210031+9999SA1+0289REMSYN066CMTI   46// SWPM4 46/// /2420 11023 40102 52003 90700 222// 00028;
0080997268999992005011008004+46500-084367FM-18+0195SWPM V0202601N019019999999N9999999N1-00221+99999101071ADDSA1+0299REMSYN060CMTI   46// SWPM4 46/// /2619 11022 40107 90800 222// 00029;
0100997268999992005011009004+46500-084367FM-18+0195SWPM V0202801N025019999999N9999999N1-00131+99999101141ADDMD1310121+9999SA1+0289REMSYN066CMTI   46// SWPM4 46/// /2825 11013 40114 53012 90900 222// 00028;
0100997268999992005011010004+46500-084367FM-18+0195SWPM V0202801N025019999999N9999999N1-00191+99999101261ADDMD1310241+9999SA1+0299REMSYN066CMTI   46// SWPM4 46/// /2825 11019 40126 53024 91000 222// 00029;
0100997268999992005011011004+46500-084367FM-18+0195SWPM V0202701N022019999999N9999999N1-00181+99999101351ADDMD1310281+9999SA1+0299REMSYN066CMTI   46// SWPM4 46/// /2722 11018 40135 53028 91100 222// 00029;
0100997268999992005011012004+46500-084367FM-18+0195SWPM V0202801N022019999999N9999999N1-00251+99999101441ADDMD1110301+9999SA1+0299REMSYN066CMTI   46// SWPM4 46/// /2822 11025 40144 51030 91200 222// 00029;
0100997268999992005011013004+46500-084367FM-18+0195SWPM V0202801N018019999999N9999999N1-00301+99999101551ADDMD1310291+9999SA1+0289REMSYN066CMTI   46// SWPM4 46/// /2818 11030 40155 53029 91300 222// 00028;
0100997268999992005011014004+46500-084367FM-18+0195SWPM V0202901N024019999999N9999999N1-00321+99999101671ADDMD1310321+9999SA1+0279REMSYN066CMTI   46// SWPM4 46/// /2924 11032 40167 53032 91400 222// 00027;
0074997268999992005011015004+46500-084367FM-18+0195SWPM V0202801N024019999999N9999999N1+99999+99999999999ADDSA1+0289REMSYN054CMTI   46// SWPM4 46/// /2824 1//// 91500 222// 00028;
0074997268999992005011016004+46500-084367FM-18+0195SWPM V0202901N025019999999N9999999N1+99999+99999999999ADDSA1+0289REMSYN054CMTI   46// SWPM4 46/// /2925 1//// 91600 222// 00028;
0100997268999992005011017004+46500-084367FM-18+0195SWPM V0202801N019019999999N9999999N1-00441+99999101951ADDMD1110281+9999SA1+0289REMSYN066CMTI   46// SWPM4 46/// /2819 11044 40195 51028 91700 222// 00028;
0100997268999992005011018004+46500-084367FM-18+0195SWPM V0202801N017019999999N9999999N1-00491+99999102011ADDMD1110261+9999SA1+0299REMSYN066CMTI   46// SWPM4 46/// /2817 11049 40201 51026 91800 222// 00029;
0000997268999992005011019004+46500-084367FM-18+0195SWPM V0202801N009319999999N9999999N1+99999+99999999999
0074997268999992005011020004+46500-084367FM-18+0195SWPM V0202901N014019999999N9999999N1+99999+99999999999ADDSA1+0299REMSYN054CMTI   46// SWPM4 46/// /2914 1//// 92000 222// 00029;
0000997268999992005011021004+46500-084367FM-18+0195SWPM V0203001N007219999999N9999999N1+99999+99999999999
0074997268999992005011022004+46500-084367FM-18+0195SWPM V0203001N014019999999N9999999N1+99999+99999999999ADDSA1+0299REMSYN054CMTI   46// SWPM4 46/// /3014 1//// 92200 222// 00029;
0074997268999992005011023004+46500-084367FM-18+0195SWPM V0202901N012019999999N9999999N1+99999+99999999999ADDSA1+0289REMSYN054CMTI   46// SWPM4 46/// /2912 1//// 92300 222// 00028;
0074997268999992005011100004+46500-084367FM-18+0195SWPM V0202801N010019999999N9999999N1+99999+99999999999ADDSA1+0279REMSYN054CMTI   46// SWPM4 46/// /2810 1//// 90000 222// 00027;
0074997268999992005011101004+46500-084367FM-18+0195SWPM V0202701N010019999999N9999999N1+99999+99999999999ADDSA1+0289REMSYN054CMTI   46// SWPM4 46/// /2710 1//// 90100 222// 00028;
0000997268999992005011102004+46500-084367FM-18+0195SWPM V0200401N002619999999N9999999N1+99999+99999999999
0074997268999992005011103004+46500-084367FM-18+0195SWPM V0201201N005019999999N9999999N1+99999+99999999999ADDSA1+0289REMSYN054CMTI   46// SWPM4 46/// /1205 1//// 90300 222// 00028;
0074997268999992005011104004+46500-084367FM-18+0195SWPM V0201401N006019999999N9999999N1+99999+99999999999ADDSA1+0289REMSYN054CMTI   46// SWPM4 46/// /1406 1//// 90400 222// 00028;
0074997268999992005011105004+46500-084367FM-18+0195SWPM V0201501N004019999999N9999999N1+99999+99999999999ADDSA1+0289REMSYN054CMTI   46// SWPM4 46/// /1504 1//// 90500 222// 00028;
0074997268999992005011106004+46500-084367FM-18+0195SWPM V0201001N008019999999N9999999N1+99999+99999999999ADDSA1+0289REMSYN054CMTI   46// SWPM4 46/// /1008 1//// 90600 222// 00028;
0074997268999992005011107004+46500-084367FM-18+0195SWPM V0201201N004019999999N9999999N1+99999+99999999999ADDSA1+0279REMSYN054CMTI   46// SWPM4 46/// /1204 1//// 90700 222// 00027;
0074997268999992005011108004+46500-084367FM-18+0195SWPM V0201001N005019999999N9999999N1+99999+99999999999ADDSA1+0279REMSYN054CMTI   46// SWPM4 46/// /1005 1//// 90800 222// 00027;
0074997268999992005011109004+46500-084367FM-18+0195SWPM V0200901N006019999999N9999999N1+99999+99999999999ADDSA1+0289REMSYN054CMTI   46// SWPM4 46/// /0906 1//// 90900 222// 00028;
0084997268999992005011110004+46500-084367FM-18+0195SWPM V0200901N005019999999N9999999N1+99999+99999999999ADDSA1+0289REMSYN064CMTI   46// SWPM4 46/// /0905 1//// 91006 222// 00028 333 91208;
0074997268999992005011111004+46500-084367FM-18+0195SWPM V0200901N006019999999N9999999N1+99999+99999999999ADDSA1+0279REMSYN054CMTI   46// SWPM4 46/// /0906 1//// 91100 222// 00027;
0074997268999992005011112004+46500-084367FM-18+0195SWPM V0200901N009019999999N9999999N1+99999+99999999999ADDSA1+0279REMSYN054CMTI   46// SWPM4 46/// /0909 1//// 91200 222// 00027;
0090997268999992005011114004+46500-084367FM-18+0195SWPM V0201001N006019999999N9999999N1-00901+99999102301ADDSA1+0289REMSYN070CMTI   46// SWPM4 46/// /1006 11090 40230 91418 222// 00028 333 91212;
0100997268999992005011115004+46500-084367FM-18+0195SWPM V0200901N005019999999N9999999N1-00891+99999102311ADDMD1410001+9999SA1+0279REMSYN066CMTI   46// SWPM4 46/// /0905 11089 40231 54000 91500 222// 00027;
0090997268999992005011116004+46500-084367FM-18+0195SWPM V0201001N007019999999N9999999N1-00841+99999102301ADDSA1+0289REMSYN070CMTI   46// SWPM4 46/// /1007 11084 40230 91606 222// 00028 333 91213;
0080997268999992005011117004+46500-084367FM-18+0195SWPM V0201001N007019999999N9999999N1-00801+99999102251ADDSA1+0289REMSYN060CMTI   46// SWPM4 46/// /1007 11080 40225 91700 222// 00028;
0090997268999992005011118004+46500-084367FM-18+0195SWPM V0201001N008019999999N9999999N1-00791+99999102151ADDSA1+0279REMSYN070CMTI   46// SWPM4 46/// /1008 11079 40215 91806 222// 00027 333 91212;
0080997268999992005011119004+46500-084367FM-18+0195SWPM V0200901N008019999999N9999999N1-00731+99999102101ADDSA1+0289REMSYN060CMTI   46// SWPM4 46/// /0908 11073 40210 91900 222// 00028;
0090997268999992005011120004+46500-084367FM-18+0195SWPM V0200901N007019999999N9999999N1-00671+99999102061ADDSA1+0289REMSYN070CMTI   46// SWPM4 46/// /0907 11067 40206 92018 222// 00028 333 91212;
0080997268999992005011121004+46500-084367FM-18+0195SWPM V0201001N010019999999N9999999N1-00651+99999102091ADDSA1+0279REMSYN060CMTI   46// SWPM4 46/// /1010 11065 40209 92100 222// 00027;
0090997268999992005011122004+46500-084367FM-18+0195SWPM V0201001N007019999999N9999999N1-00631+99999102071ADDSA1+0289REMSYN070CMTI   46// SWPM4 46/// /1007 11063 40207 92224 222// 00028 333 91212;
0090997268999992005011123004+46500-084367FM-18+0195SWPM V0200901N008019999999N9999999N1-00651+99999102081ADDSA1+0289REMSYN070CMTI   46// SWPM4 46/// /0908 11065 40208 92324 222// 00028 333 91212;
0100997268999992005011200004+46500-084367FM-18+0195SWPM V0201101N009019999999N9999999N1-00631+99999102081ADDMD1510001+9999SA1+0289REMSYN066CMTI   46// SWPM4 46/// /1109 11063 40208 55000 90000 222// 00028;
0090997268999992005011204004+46500-084367FM-18+0195SWPM V0200801N008019999999N9999999N1-00521+99999101921ADDSA1+0269REMSYN070CMTI   46// SWPM4 46/// /0808 11052 40192 90436 222// 00026 333 91212;
0080997268999992005011205004+46500-084367FM-18+0195SWPM V0200901N007019999999N9999999N1-00521+99999101901ADDSA1+0269REMSYN060CMTI   46// SWPM4 46/// /0907 11052 40190 90500 222// 00026;
0080997268999992005011206004+46500-084367FM-18+0195SWPM V0201101N013019999999N9999999N1-00501+99999101761ADDSA1+0289REMSYN060CMTI   46// SWPM4 46/// /1113 11050 40176 90600 222// 00028;
0080997268999992005011207004+46500-084367FM-18+0195SWPM V0201001N010019999999N9999999N1-00481+99999101751ADDSA1+0279REMSYN060CMTI   46// SWPM4 46/// /1010 11048 40175 90700 222// 00027;
0100997268999992005011208004+46500-084367FM-18+0195SWPM V0200901N009019999999N9999999N1-00461+99999101721ADDMD1610181+9999SA1+0269REMSYN066CMTI   46// SWPM4 46/// /0909 11046 40172 56018 90800 222// 00026;
0100997268999992005011209004+46500-084367FM-18+0195SWPM V0200901N011019999999N9999999N1-00421+99999101611ADDMD1810151+9999SA1+0279REMSYN066CMTI   46// SWPM4 46/// /0911 11042 40161 58015 90900 222// 00027;
0100997268999992005011210004+46500-084367FM-18+0195SWPM V0201001N009019999999N9999999N1-00381+99999101501ADDMD1810251+9999SA1+0279REMSYN066CMTI   46// SWPM4 46/// /1009 11038 40150 58025 91000 222// 00027;
0100997268999992005011211004+46500-084367FM-18+0195SWPM V0200901N011019999999N9999999N1-00331+99999101451ADDMD1610271+9999SA1+0279REMSYN066CMTI   46// SWPM4 46/// /0911 11033 40145 56027 91100 222// 00027;
0090997268999992005011213004+46500-084367FM-18+0195SWPM V0201001N012019999999N9999999N1-00331+99999101201ADDSA1+0279REMSYN070CMTI   46// SWPM4 46/// /1012 11033 40120 91324 222// 00027 333 91217;
0100997268999992005011214004+46500-084367FM-18+0195SWPM V0201001N011019999999N9999999N1-00331+99999101161ADDMD1710291+9999SA1+0269REMSYN066CMTI   46// SWPM4 46/// /1011 11033 40116 57029 91400 222// 00026;
0080997268999992005011215004+46500-084367FM-18+0195SWPM V0201001N011019999999N9999999N1-00311+99999101131ADDSA1+0279REMSYN060CMTI   46// SWPM4 46/// /1011 11031 40113 91500 222// 00027;
0080997268999992005011216004+46500-084367FM-18+0195SWPM V0201101N012019999999N9999999N1-00281+99999101011ADDSA1+0279REMSYN060CMTI   46// SWPM4 46/// /1112 11028 40101 91600 222// 00027;
0100997268999992005011217004+46500-084367FM-18+0195SWPM V0201101N012019999999N9999999N1-00291+99999100821ADDMD1810341+9999SA1+0279REMSYN066CMTI   46// SWPM4 46/// /1112 11029 40082 58034 91700 222// 00027;
0100997268999992005011218004+46500-084367FM-18+0195SWPM V0201101N016019999999N9999999N1-00271+99999100641ADDMD1810491+9999SA1+0279REMSYN066CMTI   46// SWPM4 46/// /1116 11027 40064 58049 91800 222// 00027;
0100997268999992005011219004+46500-084367FM-18+0195SWPM V0201201N013019999999N9999999N1-00241+99999100471ADDMD1610541+9999SA1+0279REMSYN066CMTI   46// SWPM4 46/// /1213 11024 40047 56054 91900 222// 00027;
0100997268999992005011220004+46500-084367FM-18+0195SWPM V0201001N014019999999N9999999N1-00261+99999100371ADDMD1610451+9999SA1+0289REMSYN066CMTI   46// SWPM4 46/// /1014 11026 40037 56045 92000 222// 00028;
0100997268999992005011221004+46500-084367FM-18+0195SWPM V0201101N016019999999N9999999N1-00261+99999100271ADDMD1610371+9999SA1+0289REMSYN066CMTI   46// SWPM4 46/// /1116 11026 40027 56037 92100 222// 00028;
0100997268999992005011222004+46500-084367FM-18+0195SWPM V0201101N012019999999N9999999N1-00211+99999100151ADDMD1810321+9999SA1+0279REMSYN066CMTI   46// SWPM4 46/// /1112 11021 40015 58032 92200 222// 00027;
0100997268999992005011223004+46500-084367FM-18+0195SWPM V0201001N010019999999N9999999N1-00091+99999100101ADDMD1610271+9999SA1+0289REMSYN066CMTI   46// SWPM4 46/// /1010 11009 40010 56027 92300 222// 00028;
0100997268999992005011300004+46500-084367FM-18+0195SWPM V0201101N011019999999N9999999N1-00031+99999100001ADDMD1610271+9999SA1+0279REMSYN066CMTI   46// SWPM4 46/// /1111 11003 40000 56027 90000 222// 00027;
0100997268999992005011301004+46500-084367FM-18+0195SWPM V0201101N010019999999N9999999N1+00061+99999099951ADDMD1710201+9999SA1+0289REMSYN066CMTI   46// SWPM4 46/// /1110 10006 49995 57020 90100 222// 00028;
0100997268999992005011302004+46500-084367FM-18+0195SWPM V0201101N009019999999N9999999N1+00121+99999099871ADDMD1610231+9999SA1+0289REMSYN066CMTI   46// SWPM4 46/// /1109 10012 49987 56023 90200 222// 00028;
0100997268999992005011303004+46500-084367FM-18+0195SWPM V0201001N006019999999N9999999N1+00161+99999099781ADDMD1810221+9999SA1+0269REMSYN066CMTI   46// SWPM4 46/// /1006 10016 49978 58022 90300 222// 00026;
0100997268999992005011304004+46500-084367FM-18+0195SWPM V0201001N004019999999N9999999N1+00191+99999099801ADDMD1610151+9999SA1+0279REMSYN066CMTI   46// SWPM4 46/// /1004 10019 49980 56015 90400 222// 00027;
0100997268999992005011305004+46500-084367FM-18+0195SWPM V0200701N001019999999N9999999N1+00211+99999099801ADDMD1610071+9999SA1+0269REMSYN066CMTI   46// SWPM4 46/// /0701 10021 49980 56007 90500 222// 00026;
0100997268999992005011306004+46500-084367FM-18+0195SWPM V0202101N006019999999N9999999N1+00261+99999099851ADDMD1310071+9999SA1+0279REMSYN066CMTI   46// SWPM4 46/// /2106 10026 49985 53007 90600 222// 00027;
0100997268999992005011307004+46500-084367FM-18+0195SWPM V0202601N004019999999N9999999N1+00201+99999099891ADDMD1310091+9999SA1+0269REMSYN066CMTI   46// SWPM4 46/// /2604 10020 49989 53009 90700 222// 00026;
0100997268999992005011308004+46500-084367FM-18+0195SWPM V0202601N007019999999N9999999N1+00211+99999099931ADDMD1110131+9999SA1+0269REMSYN066CMTI   46// SWPM4 46/// /2607 10021 49993 51013 90800 222// 00026;
0100997268999992005011309004+46500-084367FM-18+0195SWPM V0202301N005019999999N9999999N1+00151+99999099931ADDMD1110081+9999SA1+0259REMSYN066CMTI   46// SWPM4 46/// /2305 10015 49993 51008 90900 222// 00025;
0100997268999992005011310004+46500-084367FM-18+0195SWPM V0202501N006019999999N9999999N1+00181+99999100011ADDMD1310121+9999SA1+0279REMSYN066CMTI   46// SWPM4 46/// /2506 10018 40001 53012 91000 222// 00027;
0100997268999992005011311004+46500-084367FM-18+0195SWPM V0202901N013019999999N9999999N1+00201+99999100061ADDMD1310131+9999SA1+0289REMSYN066CMTI   46// SWPM4 46/// /2913 10020 40006 53013 91100 222// 00028;
0100997268999992005011312004+46500-084367FM-18+0195SWPM V0202901N011019999999N9999999N1+00161+99999100061ADDMD1110131+9999SA1+0289REMSYN066CMTI   46// SWPM4 46/// /2911 10016 40006 51013 91200 222// 00028;
0100997268999992005011313004+46500-084367FM-18+0195SWPM V0202701N013019999999N9999999N1+00151+99999100101ADDMD1110091+9999SA1+0289REMSYN066CMTI   46// SWPM4 46/// /2713 10015 40010 51009 91300 222// 00028;
0100997268999992005011314004+46500-084367FM-18+0195SWPM V0203001N009019999999N9999999N1+00131+99999100031ADDMD1810031+9999SA1+0289REMSYN066CMTI   46// SWPM4 46/// /3009 10013 40003 58003 91400 222// 00028;
0100997268999992005011315004+46500-084367FM-18+0195SWPM V0202901N018019999999N9999999N1+00141+99999100281ADDMD1310221+9999SA1+0299REMSYN066CMTI   46// SWPM4 46/// /2918 10014 40028 53022 91500 222// 00029;
0100997268999992005011316004+46500-084367FM-18+0195SWPM V0203001N019019999999N9999999N1+00141+99999100321ADDMD1310221+9999SA1+0299REMSYN066CMTI   46// SWPM4 46/// /3019 10014 40032 53022 91600 222// 00029;
0090997268999992005011318004+46500-084367FM-18+0195SWPM V0202901N020019999999N9999999N1+00071+99999100321ADDSA1+0299REMSYN070CMTI   46// SWPM4 46/// /2920 10007 40032 91848 222// 00029 333 91227;
0100997268999992005011319004+46500-084367FM-18+0195SWPM V0202901N021019999999N9999999N1+00061+99999100331ADDMD1410001+9999SA1+0299REMSYN066CMTI   46// SWPM4 46/// /2921 10006 40033 54000 91900 222// 00029;
0080997268999992005011320004+46500-084367FM-18+0195SWPM V0202901N022019999999N9999999N1+00001+99999100441ADDSA1+0299REMSYN060CMTI   46// SWPM4 46/// /2922 10000 40044 92000 222// 00029;
0080997268999992005011321004+46500-084367FM-18+0195SWPM V0202901N019019999999N9999999N1-00121+99999100581ADDSA1+0289REMSYN060CMTI   46// SWPM4 46/// /2919 11012 40058 92100 222// 00028;
0100997268999992005011322004+46500-084367FM-18+0195SWPM V0203001N023019999999N9999999N1-00271+99999100661ADDMD1110331+9999SA1+0279REMSYN066CMTI   46// SWPM4 46/// /3023 11027 40066 51033 92200 222// 00027;
0100997268999992005011323004+46500-084367FM-18+0195SWPM V0203001N021019999999N9999999N1-00401+99999100811ADDMD1310371+9999SA1+0299REMSYN066CMTI   46// SWPM4 46/// /3021 11040 40081 53037 92300 222// 00029;
0100997268999992005011400004+46500-084367FM-18+0195SWPM V0202701N020019999999N9999999N1-00501+99999100991ADDMD1310411+9999SA1+0299REMSYN066CMTI   46// SWPM4 46/// /2720 11050 40099 53041 90000 222// 00029;
0100997268999992005011401004+46500-084367FM-18+0195SWPM V0202701N019019999999N9999999N1-00571+99999101131ADDMD1110471+9999SA1+0299REMSYN066CMTI   46// SWPM4 46/// /2719 11057 40113 51047 90100 222// 00029;
0090997268999992005011402004+46500-084367FM-18+0195SWPM V0202701N023019999999N9999999N1-00681+99999101211ADDSA1+0299REMSYN070CMTI   46// SWPM4 46/// /2723 11068 40121 90224 222// 00029 333 91230;
0101997268999992005011403004+46500-084367FM-18+0195SWPM V0202701N009819999999N9999999N1-00781+99999101361ADDMD1210371+9999REMSYN075CMAN  14034 SWPM4 46/// /2719 11078 40136 52037 90300 222// 0002 333 91210;
0101997268999992005011404004+46500-084367FM-18+0195SWPM V0202801N008719999999N9999999N1-00841+99999101421ADDMD1210291+9999REMSYN075CMAN  14044 SWPM4 46/// /2817 11084 40142 52029 90400 222// 0002 333 91216;
0101997268999992005011406004+46500-084367FM-18+0195SWPM V0202801N012919999999N9999999N1-01061+99999101641ADDMD1210281+9999REMSYN075CMAN  14064 SWPM4 46/// /2825 11106 40164 52028 90600 222// 0003 333 91214;
0090997268999992005011408004+46500-084367FM-18+0195SWPM V0202701N016019999999N9999999N1-01071+99999101881ADDSA1+0299REMSYN070CMTI   46// SWPM4 46/// /2716 11107 40188 90806 222// 00029 333 91230;
0100997268999992005011409004+46500-084367FM-18+0195SWPM V0202401N018019999999N9999999N1-01131+99999101971ADDMD1210331+9999SA1+0299REMSYN066CMTI   46// SWPM4 46/// /2418 11113 40197 52033 90900 222// 00029;
0080997268999992005011410004+46500-084367FM-18+0195SWPM V0202301N020019999999N9999999N1-01341+99999102071ADDSA1+0309REMSYN060CMTI   46// SWPM4 46/// /2320 11134 40207 91000 222// 00030;
0080997268999992005011411004+46500-084367FM-18+0195SWPM V0202301N019019999999N9999999N1-01421+99999102221ADDSA1+0299REMSYN060CMTI   46// SWPM4 46/// /2319 11142 40222 91100 222// 00029;
0100997268999992005011412004+46500-084367FM-18+0195SWPM V0202301N022019999999N9999999N1-01421+99999102291ADDMD1110321+9999SA1+0299REMSYN066CMTI   46// SWPM4 46/// /2322 11142 40229 51032 91200 222// 00029;
0100997268999992005011413004+46500-084367FM-18+0195SWPM V0202401N024019999999N9999999N1-01411+99999102351ADDMD1110281+9999SA1+0309REMSYN066CMTI   46// SWPM4 46/// /2424 11141 40235 51028 91300 222// 00030;
0090997268999992005011414004+46500-084367FM-18+0195SWPM V0202401N020019999999N9999999N1-01471+99999102461ADDSA1+0309REMSYN070CMTI   46// SWPM4 46/// /2420 11147 40246 91406 222// 00030 333 91231;
0090997268999992005011415004+46500-084367FM-18+0195SWPM V0202401N023019999999N9999999N1-01471+99999102581ADDSA1+0309REMSYN070CMTI   46// SWPM4 46/// /2423 11147 40258 91506 222// 00030 333 91229;
0090997268999992005011416004+46500-084367FM-18+0195SWPM V0202301N022019999999N9999999N1-01371+99999102661ADDSA1+0309REMSYN070CMTI   46// SWPM4 46/// /2322 11137 40266 91606 222// 00030 333 91226;
0080997268999992005011417004+46500-084367FM-18+0195SWPM V0202501N021019999999N9999999N1-01291+99999102701ADDSA1+0309REMSYN060CMTI   46// SWPM4 46/// /2521 11129 40270 91700 222// 00030;
0080997268999992005011418004+46500-084367FM-18+0195SWPM V0202501N023019999999N9999999N1-01181+99999102701ADDSA1+0299REMSYN060CMTI   46// SWPM4 46/// /2523 11118 40270 91800 222// 00029;
0080997268999992005011419004+46500-084367FM-18+0195SWPM V0202501N026019999999N9999999N1-01081+99999102721ADDSA1+0299REMSYN060CMTI   46// SWPM4 46/// /2526 11108 40272 91900 222// 00029;
0100997268999992005011420004+46500-084367FM-18+0195SWPM V0202601N022019999999N9999999N1-01111+99999102761ADDMD1310061+9999SA1+0299REMSYN066CMTI   46// SWPM4 46/// /2622 11111 40276 53006 92000 222// 00029;
0100997268999992005011421004+46500-084367FM-18+0195SWPM V0202701N021019999999N9999999N1-01111+99999102841ADDMD1310141+9999SA1+0299REMSYN066CMTI   46// SWPM4 46/// /2721 11111 40284 53014 92100 222// 00029;
0100997268999992005011422004+46500-084367FM-18+0195SWPM V0202601N023019999999N9999999N1-01131+99999102891ADDMD1310171+9999SA1+0309REMSYN066CMTI   46// SWPM4 46/// /2623 11113 40289 53017 92200 222// 00030;
0100997268999992005011423004+46500-084367FM-18+0195SWPM V0202501N021019999999N9999999N1-01201+99999102971ADDMD1210211+9999SA1+0299REMSYN066CMTI   46// SWPM4 46/// /2521 11120 40297 52021 92300 222// 00029;
0100997268999992005011500004+46500-084367FM-18+0195SWPM V0202401N020019999999N9999999N1-01211+99999103021ADDMD1210181+9999SA1+0299REMSYN066CMTI   46// SWPM4 46/// /2420 11121 40302 52018 90000 222// 00029;
0100997268999992005011501004+46500-084367FM-18+0195SWPM V0202401N020019999999N9999999N1-01301+99999103081ADDMD1110191+9999SA1+0299REMSYN066CMTI   46// SWPM4 46/// /2420 11130 40308 51019 90100 222// 00029;
0100997268999992005011502004+46500-084367FM-18+0195SWPM V0202401N023019999999N9999999N1-01331+99999103101ADDMD1110131+9999SA1+0299REMSYN066CMTI   46// SWPM4 46/// /2423 11133 40310 51013 90200 222// 00029;
0100997268999992005011503004+46500-084367FM-18+0195SWPM V0202401N021019999999N9999999N1-01361+99999103151ADDMD1110131+9999SA1+0289REMSYN066CMTI   46// SWPM4 46/// /2421 11136 40315 51013 90300 222// 00028;
0100997268999992005011504004+46500-084367FM-18+0195SWPM V0202401N021019999999N9999999N1-01361+99999103201ADDMD1310121+9999SA1+0289REMSYN066CMTI   46// SWPM4 46/// /2421 11136 40320 53012 90400 222// 00028;
0100997268999992005011505004+46500-084367FM-18+0195SWPM V0202401N023019999999N9999999N1-01421+99999103231ADDMD1110131+9999SA1+0299REMSYN066CMTI   46// SWPM4 46/// /2423 11142 40323 51013 90500 222// 00029;
0100997268999992005011506004+46500-084367FM-18+0195SWPM V0202501N027019999999N9999999N1-01501+99999103231ADDMD1110081+9999SA1+0299REMSYN066CMTI   46// SWPM4 46/// /2527 11150 40323 51008 90600 222// 00029;
0100997268999992005011507004+46500-084367FM-18+0195SWPM V0202401N023019999999N9999999N1-01551+99999103271ADDMD1310071+9999SA1+0299REMSYN066CMTI   46// SWPM4 46/// /2423 11155 40327 53007 90700 222// 00029;
0100997268999992005011508004+46500-084367FM-18+0195SWPM V0202401N019019999999N9999999N1-01571+99999103291ADDMD1210061+9999SA1+0289REMSYN066CMTI   46// SWPM4 46/// /2419 11157 40329 52006 90800 222// 00028;
0100997268999992005011509004+46500-084367FM-18+0195SWPM V0202401N016019999999N9999999N1-01621+99999103281ADDMD1110051+9999SA1+0279REMSYN066CMTI   46// SWPM4 46/// /2416 11162 40328 51005 90900 222// 00027;
0100997268999992005011510004+46500-084367FM-18+0195SWPM V0202401N018019999999N9999999N1-01681+99999103271ADDMD1410001+9999SA1+0289REMSYN066CMTI   46// SWPM4 46/// /2418 11168 40327 54000 91000 222// 00028;
0100997268999992005011511004+46500-084367FM-18+0195SWPM V0202201N012019999999N9999999N1-01741+99999103261ADDMD1710031+9999SA1+0289REMSYN066CMTI   46// SWPM4 46/// /2212 11174 40326 57003 91100 222// 00028;
0100997268999992005011512004+46500-084367FM-18+0195SWPM V0202201N012019999999N9999999N1-01781+99999103281ADDMD1410001+9999SA1+0289REMSYN066CMTI   46// SWPM4 46/// /2212 11178 40328 54000 91200 222// 00028;
0100997268999992005011513004+46500-084367FM-18+0195SWPM V0202301N016019999999N9999999N1-01771+99999103291ADDMD1410001+9999SA1+0279REMSYN066CMTI   46// SWPM4 46/// /2316 11177 40329 54000 91300 222// 00027;
0100997268999992005011514004+46500-084367FM-18+0195SWPM V0202301N016019999999N9999999N1-01741+99999103311ADDMD1210051+9999SA1+0289REMSYN066CMTI   46// SWPM4 46/// /2316 11174 40331 52005 91400 222// 00028;
0100997268999992005011515004+46500-084367FM-18+0195SWPM V0202301N014019999999N9999999N1-01721+99999103361ADDMD1310081+9999SA1+0289REMSYN066CMTI   46// SWPM4 46/// /2314 11172 40336 53008 91500 222// 00028;
0100997268999992005011516004+46500-084367FM-18+0195SWPM V0202301N015019999999N9999999N1-01601+99999103401ADDMD1310111+9999SA1+0309REMSYN066CMTI   46// SWPM4 46/// /2315 11160 40340 53011 91600 222// 00030;
0100997268999992005011517004+46500-084367FM-18+0195SWPM V0202201N014019999999N9999999N1-01501+99999103381ADDMD1110071+9999SA1+0289REMSYN066CMTI   46// SWPM4 46/// /2214 11150 40338 51007 91700 222// 00028;
0100997268999992005011518004+46500-084367FM-18+0195SWPM V0202301N018019999999N9999999N1-01401+99999103351ADDMD1010001+9999SA1+0299REMSYN066CMTI   46// SWPM4 46/// /2318 11140 40335 50000 91800 222// 00029;
0100997268999992005011519004+46500-084367FM-18+0195SWPM V0202301N017019999999N9999999N1-01341+99999103311ADDMD1810091+9999SA1+0299REMSYN066CMTI   46// SWPM4 46/// /2317 11134 40331 58009 91900 222// 00029;
0100997268999992005011520004+46500-084367FM-18+0195SWPM V0202501N020019999999N9999999N1-01301+99999103331ADDMD1610051+9999SA1+0289REMSYN066CMTI   46// SWPM4 46/// /2520 11130 40333 56005 92000 222// 00028;
0100997268999992005011521004+46500-084367FM-18+0195SWPM V0202401N022019999999N9999999N1-01311+99999103371ADDMD1510001+9999SA1+0299REMSYN066CMTI   46// SWPM4 46/// /2422 11131 40337 55000 92100 222// 00029;
0100997268999992005011522004+46500-084367FM-18+0195SWPM V0202401N020019999999N9999999N1-01361+99999103431ADDMD1310121+9999SA1+0309REMSYN066CMTI   46// SWPM4 46/// /2420 11136 40343 53012 92200 222// 00030;
0100997268999992005011523004+46500-084367FM-18+0195SWPM V0202401N024019999999N9999999N1-01441+99999103471ADDMD1210141+9999SA1+0299REMSYN066CMTI   46// SWPM4 46/// /2424 11144 40347 52014 92300 222// 00029;
0100997268999992005011600004+46500-084367FM-18+0195SWPM V0202401N024019999999N9999999N1-01481+99999103551ADDMD1310181+9999SA1+0299REMSYN066CMTI   46// SWPM4 46/// /2424 11148 40355 53018 90000 222// 00029;
0100997268999992005011601004+46500-084367FM-18+0195SWPM V0202401N024019999999N9999999N1-01501+99999103621ADDMD1310191+9999SA1+0309REMSYN066CMTI   46// SWPM4 46/// /2424 11150 40362 53019 90100 222// 00030;
0100997268999992005011602004+46500-084367FM-18+0195SWPM V0202401N022019999999N9999999N1-01551+99999103651ADDMD1110181+9999SA1+0309REMSYN066CMTI   46// SWPM4 46/// /2422 11155 40365 51018 90200 222// 00030;
0100997268999992005011603004+46500-084367FM-18+0195SWPM V0202401N017019999999N9999999N1-01621+99999103671ADDMD1110121+9999SA1+0299REMSYN066CMTI   46// SWPM4 46/// /2417 11162 40367 51012 90300 222// 00029;
0100997268999992005011604004+46500-084367FM-18+0195SWPM V0202301N014019999999N9999999N1-01651+99999103691ADDMD1110071+9999SA1+0299REMSYN066CMTI   46// SWPM4 46/// /2314 11165 40369 51007 90400 222// 00029;
0100997268999992005011605004+46500-084367FM-18+0195SWPM V0202101N009019999999N9999999N1-01721+99999103701ADDMD1210051+9999SA1+0299REMSYN066CMTI   46// SWPM4 46/// /2109 11172 40370 52005 90500 222// 00029;
0100997268999992005011606004+46500-084367FM-18+0195SWPM V0202101N009019999999N9999999N1-01731+99999103651ADDMD1010001+9999SA1+0299REMSYN066CMTI   46// SWPM4 46/// /2109 11173 40365 50000 90600 222// 00029;
0100997268999992005011607004+46500-084367FM-18+0195SWPM V0202301N011019999999N9999999N1-01661+99999103631ADDMD1710061+9999SA1+0309REMSYN066CMTI   46// SWPM4 46/// /2311 11166 40363 57006 90700 222// 00030;
0100997268999992005011608004+46500-084367FM-18+0195SWPM V0202301N011019999999N9999999N1-01681+99999103641ADDMD1610061+9999SA1+0289REMSYN066CMTI   46// SWPM4 46/// /2311 11168 40364 56006 90800 222// 00028;
0100997268999992005011609004+46500-084367FM-18+0195SWPM V0202101N008019999999N9999999N1-01661+99999103641ADDMD1410001+9999SA1+0299REMSYN066CMTI   46// SWPM4 46/// /2108 11166 40364 54000 90900 222// 00029;
0100997268999992005011610004+46500-084367FM-18+0195SWPM V0202201N009019999999N9999999N1-01691+99999103601ADDMD1810031+9999SA1+0289REMSYN066CMTI   46// SWPM4 46/// /2209 11169 40360 58003 91000 222// 00028;
0100997268999992005011611004+46500-084367FM-18+0195SWPM V0202101N007019999999N9999999N1-01621+99999103581ADDMD1710061+9999SA1+0299REMSYN066CMTI   46// SWPM4 46/// /2107 11162 40358 57006 91100 222// 00029;
0100997268999992005011612004+46500-084367FM-18+0195SWPM V0201301N002019999999N9999999N1-01771+99999103581ADDMD1610061+9999SA1+0279REMSYN066CMTI   46// SWPM4 46/// /1302 11177 40358 56006 91200 222// 00027;
0100997268999992005011613004+46500-084367FM-18+0195SWPM V0200901N007019999999N9999999N1-01961+99999103581ADDMD1410001+9999SA1+0299REMSYN066CMTI   46// SWPM4 46/// /0907 11196 40358 54000 91300 222// 00029;
0100997268999992005011614004+46500-084367FM-18+0195SWPM V0201101N006019999999N9999999N1-01931+99999103571ADDMD1410001+9999SA1+0299REMSYN066CMTI   46// SWPM4 46/// /1106 11193 40357 54000 91400 222// 00029;
0100997268999992005011615004+46500-084367FM-18+0195SWPM V0200701N004019999999N9999999N1-01801+99999103581ADDMD1410001+9999SA1+0289REMSYN066CMTI   46// SWPM4 46/// /0704 11180 40358 54000 91500 222// 00028;
0100997268999992005011616004+46500-084367FM-18+0195SWPM V0200501N005019999999N9999999N1-01651+99999103571ADDMD1410001+9999SA1+0309REMSYN066CMTI   46// SWPM4 46/// /0505 11165 40357 54000 91600 222// 00030;
0100997268999992005011617004+46500-084367FM-18+0195SWPM V0200801N004019999999N9999999N1-01521+99999103481ADDMD1810091+9999SA1+0319REMSYN066CMTI   46// SWPM4 46/// /0804 11152 40348 58009 91700 222// 00031;
0100997268999992005011618004+46500-084367FM-18+0195SWPM V0200101N005019999999N9999999N1-01271+99999103381ADDMD1810201+9999SA1+0289REMSYN066CMTI   46// SWPM4 46/// /0105 11127 40338 58020 91800 222// 00028;
0100997268999992005011619004+46500-084367FM-18+0195SWPM V0201701N001019999999N9999999N1-01131+99999103271ADDMD1810301+9999SA1+0269REMSYN066CMTI   46// SWPM4 46/// /1701 11113 40327 58030 91900 222// 00026;
0100997268999992005011620004+46500-084367FM-18+0195SWPM V0202401N006019999999N9999999N1-01011+99999103221ADDMD1610261+9999SA1+0289REMSYN066CMTI   46// SWPM4 46/// /2406 11101 40322 56026 92000 222// 00028;
0100997268999992005011621004+46500-084367FM-18+0195SWPM V0202201N006019999999N9999999N1-01061+99999103221ADDMD1610161+9999SA1+0299REMSYN066CMTI   46// SWPM4 46/// /2206 11106 40322 56016 92100 222// 00029;
0100997268999992005011622004+46500-084367FM-18+0195SWPM V0202201N009019999999N9999999N1-01061+99999103211ADDMD1610061+9999SA1+0309REMSYN066CMTI   46// SWPM4 46/// /2209 11106 40321 56006 92200 222// 00030;
0100997268999992005011623004+46500-084367FM-18+0195SWPM V0202201N012019999999N9999999N1-01111+99999103241ADDMD1510001+9999SA1+0299REMSYN066CMTI   46// SWPM4 46/// /2212 11111 40324 55000 92300 222// 00029;
0100997268999992005011700004+46500-084370FM-18+0195SWPM V0202201N013019999999N9999999N1-01181+99999103231ADDMD1410001+9999SA1+0299REMSYN066CMTI   46// SWPM4 46/// /2213 11118 40323 54000 90000 222// 00029;
0100997268999992005011701004+46500-084370FM-18+0195SWPM V0202001N006019999999N9999999N1-01301+99999103241ADDMD1110031+9999SA1+0309REMSYN066CMTI   46// SWPM4 46/// /2006 11130 40324 51003 90100 222// 00030;
0100997268999992005011702004+46500-084370FM-18+0195SWPM V0202301N005019999999N9999999N1-01391+99999103221ADDMD1410001+9999SA1+0289REMSYN066CMTI   46// SWPM4 46/// /2305 11139 40322 54000 90200 222// 00028;
0100997268999992005011703004+46500-084370FM-18+0195SWPM V0200101N006019999999N9999999N1-01401+99999103251ADDMD1510001+9999SA1+0299REMSYN066CMTI   46// SWPM4 46/// /0106 11140 40325 55000 90300 222// 00029;
0100997268999992005011704004+46500-084370FM-18+0195SWPM V0200501N008019999999N9999999N1-01641+99999103251ADDMD1410001+9999SA1+0299REMSYN066CMTI   46// SWPM4 46/// /0508 11164 40325 54000 90400 222// 00029;
0100997268999992005011705004+46500-084367FM-18+0195SWPM V0200601N007019999999N9999999N1-01681+99999103291ADDMD1310071+9999SA1+0299REMSYN066CMTI   46// SWPM4 46/// /0607 11168 40329 53007 90500 222// 00029;
0100997268999992005011705004+46500-084370FM-18+0195SWPM V0200601N007019999999N9999999N1-01681+99999103291ADDMD1310071+9999SA1+0299REMSYN066CMTI   46// SWPM4 46/// /0607 11168 40329 53007 90500 222// 00029;
0100997268999992005011706004+46500-084370FM-18+0195SWPM V0200101N004019999999N9999999N1-01711+99999103281ADDMD1210031+9999SA1+0299REMSYN066CMTI   46// SWPM4 46/// /0104 11171 40328 52003 90600 222// 00029;
0100997268999992005011707004+46500-084370FM-18+0195SWPM V0200201N007019999999N9999999N1-01711+99999103301ADDMD1110051+9999SA1+0299REMSYN066CMTI   46// SWPM4 46/// /0207 11171 40330 51005 90700 222// 00029;
0100997268999992005011708004+46500-084370FM-18+0195SWPM V0200101N005019999999N9999999N1-01711+99999103331ADDMD1310041+9999SA1+0299REMSYN066CMTI   46// SWPM4 46/// /0105 11171 40333 53004 90800 222// 00029;
0100997268999992005011709004+46500-084370FM-18+0195SWPM V0200401N004019999999N9999999N1-01781+99999103361ADDMD1310081+9999SA1+0299REMSYN066CMTI   46// SWPM4 46/// /0404 11178 40336 53008 90900 222// 00029;
0100997268999992005011710004+46500-084370FM-18+0195SWPM V0200301N007019999999N9999999N1-01831+99999103371ADDMD1110071+9999SA1+0299REMSYN066CMTI   46// SWPM4 46/// /0307 11183 40337 51007 91000 222// 00029;
0100997268999992005011711004+46500-084370FM-18+0195SWPM V0200601N004019999999N9999999N1-01871+99999103381ADDMD1110051+9999SA1+0309REMSYN066CMTI   46// SWPM4 46/// /0604 11187 40338 51005 91100 222// 00030;
0100997268999992005011712004+46500-084370FM-18+0195SWPM V0200401N005019999999N9999999N1-01911+99999103411ADDMD1310051+9999SA1+0309REMSYN066CMTI   46// SWPM4 46/// /0405 11191 40341 53005 91200 222// 00030;
0100997268999992005011713004+46500-084370FM-18+0195SWPM V0200401N006019999999N9999999N1-02031+99999103491ADDMD1310121+9999SA1+0299REMSYN066CMTI   46// SWPM4 46/// /0406 11203 40349 53012 91300 222// 00029;
0100997268999992005011714004+46500-084370FM-18+0195SWPM V0200301N013019999999N9999999N1-02221+99999103571ADDMD1310191+9999SA1+0309REMSYN066CMTI   46// SWPM4 46/// /0313 11222 40357 53019 91400 222// 00030;
0100997268999992005011715004+46500-084370FM-18+0195SWPM V0200401N009019999999N9999999N1-02321+99999103671ADDMD1310261+9999SA1+0319REMSYN066CMTI   46// SWPM4 46/// /0409 11232 40367 53026 91500 222// 00031;
0100997268999992005011716004+46500-084370FM-18+0195SWPM V0200201N007019999999N9999999N1-02251+99999103761ADDMD1310271+9999SA1+0319REMSYN066CMTI   46// SWPM4 46/// /0207 11225 40376 53027 91600 222// 00031;
0100997268999992005011717004+46500-084370FM-18+0195SWPM V0203401N006019999999N9999999N1-02091+99999103741ADDMD1110171+9999SA1+0299REMSYN066CMTI   46// SWPM4 46/// /3406 11209 40374 51017 91700 222// 00029;
0100997268999992005011718004+46500-084370FM-18+0195SWPM V0203101N008019999999N9999999N1-02021+99999103751ADDMD1110081+9999SA1+0309REMSYN066CMTI   46// SWPM4 46/// /3108 11202 40375 51008 91800 222// 00030;
0100997268999992005011719004+46500-084370FM-18+0195SWPM V0203101N011019999999N9999999N1-02031+99999103731ADDMD1710031+9999SA1+0299REMSYN066CMTI   46// SWPM4 46/// /3111 11203 40373 57003 91900 222// 00029;
0100997268999992005011720004+46500-084370FM-18+0195SWPM V0203201N010019999999N9999999N1-02011+99999103801ADDMD1310061+9999SA1+0319REMSYN066CMTI   46// SWPM4 46/// /3210 11201 40380 53006 92000 222// 00031;
0100997268999992005011721004+46500-084370FM-18+0195SWPM V0203301N007019999999N9999999N1-01951+99999103841ADDMD1310091+9999SA1+0309REMSYN066CMTI   46// SWPM4 46/// /3307 11195 40384 53009 92100 222// 00030;
0100997268999992005011722004+46500-084370FM-18+0195SWPM V0203201N005019999999N9999999N1-01951+99999103881ADDMD1110151+9999SA1+0299REMSYN066CMTI   46// SWPM4 46/// /3205 11195 40388 51015 92200 222// 00029;
0090997268999992005011723004+46500-084370FM-18+0195SWPM V0200401N004019999999N9999999N1-01961+99999103911ADDSA1+0309REMSYN070CMTI   46// SWPM4 46/// /0404 11196 40391 92306 222// 00030 333 91212;
0100997268999992005011800004+46500-084367FM-18+0195SWPM V0200601N007019999999N9999999N1-02031+99999103951ADDMD1210111+9999SA1+0309REMSYN066CMTI   46// SWPM4 46/// /0607 11203 40395 52011 90000 222// 00030;
0100997268999992005011801004+46500-084367FM-18+0195SWPM V0200601N008019999999N9999999N1-02061+99999104001ADDMD1210121+9999SA1+0309REMSYN066CMTI   46// SWPM4 46/// /0608 11206 40400 52012 90100 222// 00030;
0080997268999992005011802004+46500-084367FM-18+0195SWPM V0200801N008019999999N9999999N1-02121+99999104031ADDSA1+0319REMSYN060CMTI   46// SWPM4 46/// /0808 11212 40403 90200 222// 00031;
0100997268999992005011803004+46500-084367FM-18+0195SWPM V0200601N011019999999N9999999N1-02171+99999104031ADDMD1110081+9999SA1+0319REMSYN066CMTI   46// SWPM4 46/// /0611 11217 40403 51008 90300 222// 00031;
0100997268999992005011804004+46500-084367FM-18+0195SWPM V0200401N006019999999N9999999N1-02211+99999104031ADDMD1110031+9999SA1+0289REMSYN066CMTI   46// SWPM4 46/// /0406 11221 40403 51003 90400 222// 00028;
0100997268999992005011805004+46500-084367FM-18+0195SWPM V0201401N003019999999N9999999N1-02271+99999104071ADDMD1310041+9999SA1+0299REMSYN066CMTI   46// SWPM4 46/// /1403 11227 40407 53004 90500 222// 00029;
0100997268999992005011806004+46500-084367FM-18+0195SWPM V0200901N003019999999N9999999N1-02301+99999104021ADDMD1010001+9999SA1+0309REMSYN066CMTI  46/// SWPM4 46/// /0903 11230 40402 50000 90600 222// 00030;
0100997268999992005011807004+46500-084367FM-18+0195SWPM V0201901N001019999999N9999999N1-02391+99999104021ADDMD1010001+9999SA1+0299REMSYN066CMTI   46// SWPM4 46/// /1901 11239 40402 50000 90700 222// 00029;
0100997268999992005011808004+46500-084367FM-18+0195SWPM V0200901N004019999999N9999999N1-02391+99999104011ADDMD1610061+9999SA1+0319REMSYN066CMTI   46// SWPM4 46/// /0904 11239 40401 56006 90800 222// 00031;
0100997268999992005011809004+46500-084367FM-18+0195SWPM V0202801N002019999999N9999999N1-02621+99999104081ADDMD1310061+9999SA1+0299REMSYN066CMTI   46// SWPM4 46/// /2802 11262 40408 53006 90900 222// 00029;
0100997268999992005011810004+46500-084367FM-18+0195SWPM V0200501N001019999999N9999999N1-02511+99999104051ADDMD1010031+9999SA1+0299REMSYN066CMTI   46// SWPM4 46/// /0501 11251 40405 50003 91000 222// 00029;
0100997268999992005011811004+46500-084367FM-18+0195SWPM V0200801N004019999999N9999999N1-02441+99999104011ADDMD1010001+9999SA1+0319REMSYN066CMTI   46// SWPM4 46/// /0804 11244 40401 50000 91100 222// 00031;
0100997268999992005011812004+46500-084367FM-18+0195SWPM V0200901N006019999999N9999999N1-02511+99999103981ADDMD1710101+9999SA1+0319REMSYN066CMTI   46// SWPM4 46/// /0906 11251 40398 57010 91200 222// 00031;
0100997268999992005011813004+46500-084367FM-18+0195SWPM V0200801N007019999999N9999999N1-02471+99999103851ADDMD1810201+9999SA1+0329REMSYN066CMTI   46// SWPM4 46/// /0807 11247 40385 58020 91300 222// 00032;
0100997268999992005011814004+46500-084367FM-18+0195SWPM V0200801N006019999999N9999999N1-02391+99999103901ADDMD1510111+9999SA1+0319REMSYN066CMTI   46// SWPM4 46/// /0806 11239 40390 55011 91400 222// 00031;
0100997268999992005011815004+46500-084367FM-18+0195SWPM V0201001N009019999999N9999999N1-02321+99999103771ADDMD1710211+9999SA1+0329REMSYN066CMTI   46// SWPM4 46/// /1009 11232 40377 57021 91500 222// 00032;
0100997268999992005011816004+46500-084367FM-18+0195SWPM V0200901N009019999999N9999999N1-02171+99999103611ADDMD1810241+9999SA1+0319REMSYN066CMTI   46// SWPM4 46/// /0909 11217 40361 58024 91600 222// 00031;
0100997268999992005011817004+46500-084367FM-18+0195SWPM V0200901N007019999999N9999999N1-01941+99999103411ADDMD1810491+9999SA1+0309REMSYN066CMTI   46// SWPM4 46/// /0907 11194 40341 58049 91700 222// 00030;
0100997268999992005011818004+46500-084367FM-18+0195SWPM V0201001N007019999999N9999999N1-01691+99999103221ADDMD1810551+9999SA1+0309REMSYN066CMTI   46// SWPM4 46/// /1007 11169 40322 58055 91800 222// 00030;
0100997268999992005011819004+46500-084367FM-18+0195SWPM V0201101N012019999999N9999999N1-01481+99999102961ADDMD1810651+9999SA1+0329REMSYN066CMTI   46// SWPM4 46/// /1112 11148 40296 58065 91900 222// 00032;
0100997268999992005011820004+46500-084367FM-18+0195SWPM V0201101N011019999999N9999999N1-01321+99999102681ADDMD1810731+9999SA1+0319REMSYN066CMTI   46// SWPM4 46/// /1111 11132 40268 58073 92000 222// 00031;
0100997268999992005011821004+46500-084367FM-18+0195SWPM V0201101N006019999999N9999999N1-01141+99999102531ADDMD1610691+9999SA1+0319REMSYN066CMTI   46// SWPM4 46/// /1106 11114 40253 56069 92100 222// 00031;
0100997268999992005011822004+46500-084367FM-18+0195SWPM V0201501N012019999999N9999999N1-00871+99999102231ADDMD1810731+9999SA1+0319REMSYN066CMTI   46// SWPM4 46/// /1512 11087 40223 58073 92200 222// 00031;
0100997268999992005011823004+46500-084367FM-18+0195SWPM V0201501N012019999999N9999999N1-00821+99999102031ADDMD1810651+9999SA1+0319REMSYN066CMTI   46// SWPM4 46/// /1512 11082 40203 58065 92300 222// 00031;
0100997268999992005011900004+46500-084367FM-18+0195SWPM V0201501N013019999999N9999999N1-00831+99999101871ADDMD1610661+9999SA1+0309REMSYN066CMTI   46// SWPM4 46/// /1513 11083 40187 56066 90000 222// 00030;
0100997268999992005011901004+46500-084367FM-18+0195SWPM V0201501N010019999999N9999999N1-00891+99999101661ADDMD1810571+9999SA1+0309REMSYN066CMTI   46// SWPM4 46/// /1510 11089 40166 58057 90100 222// 00030;
0100997268999992005011902004+46500-084367FM-18+0195SWPM V0201401N013019999999N9999999N1-00941+99999101511ADDMD1610521+9999SA1+0329REMSYN066CMTI   46// SWPM4 46/// /1413 11094 40151 56052 90200 222// 00032;
0100997268999992005011903004+46500-084367FM-18+0195SWPM V0201401N010019999999N9999999N1-00931+99999101341ADDMD1610531+9999SA1+0309REMSYN066CMTI   46// SWPM4 46/// /1410 11093 40134 56053 90300 222// 00030;
0100997268999992005011904004+46500-084367FM-18+0195SWPM V0201401N009019999999N9999999N1-00921+99999101161ADDMD1810501+9999SA1+0329REMSYN066CMTI   46// SWPM4 46/// /1409 11092 40116 58050 90400 222// 00032;
0100997268999992005011905004+46500-084367FM-18+0195SWPM V0201301N009019999999N9999999N1-00891+99999100991ADDMD1710521+9999SA1+0319REMSYN066CMTI   46// SWPM4 46/// /1309 11089 40099 57052 90500 222// 00031;
0100997268999992005011906004+46500-084367FM-18+0195SWPM V0201301N006019999999N9999999N1-00891+99999100821ADDMD1610521+9999SA1+0319REMSYN066CMTI   46// SWPM4 46/// /1306 11089 40082 56052 90600 222// 00031;
0100997268999992005011907004+46500-084367FM-18+0195SWPM V0201101N005019999999N9999999N1-00851+99999100661ADDMD1610501+9999SA1+0319REMSYN066CMTI   46// SWPM4 46/// /1105 11085 40066 56050 90700 222// 00031;
0100997268999992005011908004+46500-084367FM-18+0195SWPM V0201201N004019999999N9999999N1-00811+99999100551ADDMD1610441+9999SA1+0319REMSYN066CMTI   46// SWPM4 46/// /1204 11081 40055 56044 90800 222// 00031;
0100997268999992005011909004+46500-084367FM-18+0195SWPM V0200801N004019999999N9999999N1-00791+99999100501ADDMD1610321+9999SA1+0319REMSYN066CMTI   46// SWPM4 46/// /0804 11079 40050 56032 90900 222// 00031;
0100997268999992005011910004+46500-084367FM-18+0195SWPM V0200701N004019999999N9999999N1-00781+99999100461ADDMD1610201+9999SA1+0319REMSYN066CMTI   46// SWPM4 46/// /0704 11078 40046 56020 91000 222// 00031;
0100997268999992005011911004+46500-084367FM-18+0195SWPM V0200601N003019999999N9999999N1-00781+99999100481ADDMD1610071+9999SA1+0319REMSYN066CMTI   46// SWPM4 46/// /0603 11078 40048 56007 91100 222// 00031;
0100997268999992005011912004+46500-084367FM-18+0195SWPM V0200601N001019999999N9999999N1-00791+99999100531ADDMD1310031+9999SA1+0309REMSYN066CMTI   46// SWPM4 46/// /0601 11079 40053 53003 91200 222// 00030;
0100997268999992005011913004+46500-084367FM-18+0195SWPM V0209999C000019999999N9999999N1-00821+99999100571ADDMD1310111+9999SA1+0319REMSYN066CMTI   46// SWPM4 46/// /0000 11082 40057 53011 91300 222// 00031;
0100997268999992005011914004+46500-084367FM-18+0195SWPM V0202701N002019999999N9999999N1-00831+99999100611ADDMD1110131+9999SA1+0309REMSYN066CMTI   46// SWPM4 46/// /2702 11083 40061 51013 91400 222// 00030;
0100997268999992005011915004+46500-084367FM-18+0195SWPM V0202601N003019999999N9999999N1-00791+99999100691ADDMD1310161+9999SA1+0299REMSYN066CMTI   46// SWPM4 46/// /2603 11079 40069 53016 91500 222// 00029;
0100997268999992005011916004+46500-084367FM-18+0195SWPM V0202801N001019999999N9999999N1-00651+99999100741ADDMD1310171+9999SA1+0309REMSYN066CMTI   46// SWPM4 46/// /2801 11065 40074 53017 91600 222// 00030;
0100997268999992005011917004+46500-084367FM-18+0195SWPM V0200301N006019999999N9999999N1-00611+99999100781ADDMD1110171+9999SA1+0319REMSYN066CMTI   46// SWPM4 46/// /0306 11061 40078 51017 91700 222// 00031;
0100997268999992005011918004+46500-084367FM-18+0195SWPM V0203201N012019999999N9999999N1-00511+99999100931ADDMD1310241+9999SA1+0339REMSYN066CMTI   46// SWPM4 46/// /3212 11051 40093 53024 91800 222// 00033;
0100997268999992005011919004+46500-084367FM-18+0195SWPM V0203201N014019999999N9999999N1-00601+99999101061ADDMD1310321+9999SA1+0349REMSYN066CMTI   46// SWPM4 46/// /3214 11060 40106 53032 91900 222// 00034;
0100997268999992005011920004+46500-084367FM-18+0195SWPM V0203201N013019999999N9999999N1-00771+99999101251ADDMD1310471+9999SA1+0339REMSYN066CMTI   46// SWPM4 46/// /3213 11077 40125 53047 92000 222// 00033;
0100997268999992005011921004+46500-084367FM-18+0195SWPM V0203101N012019999999N9999999N1-00891+99999101431ADDMD1310501+9999SA1+0339REMSYN066CMTI   46// SWPM4 46/// /3112 11089 40143 53050 92100 222// 00033;
0100997268999992005011922004+46500-084367FM-18+0195SWPM V0203101N012019999999N9999999N1-00991+99999101631ADDMD1310571+9999SA1+0339REMSYN066CMTI   46// SWPM4 46/// /3112 11099 40163 53057 92200 222// 00033;
0100997268999992005011923004+46500-084367FM-18+0195SWPM V0203201N008019999999N9999999N1-01141+99999101811ADDMD1210561+9999SA1+0319REMSYN066CMTI   46// SWPM4 46/// /3208 11114 40181 52056 92300 222// 00031;
0090997268999992005012000004+46500-084367FM-18+0195SWPM V0200301N008019999999N9999999N1-01281+99999101941ADDSA1+0339REMSYN070CMTI   46// SWPM4 46/// /0308 11128 40194 90006 222// 00033 333 91218;
0100997268999992005012001004+46500-084367FM-18+0195SWPM V0203201N004019999999N9999999N1-01371+99999102051ADDMD1210421+9999SA1+0339REMSYN066CMTI   46// SWPM4 46/// /3204 11137 40205 52042 90100 222// 00033;
0090997268999992005012004004+46500-084367FM-18+0195SWPM V0203301N006019999999N9999999N1-01731+99999102301ADDSA1+0329REMSYN070CMTI   46// SWPM4 46/// /3306 11173 40230 90418 222// 00032 333 91211;
0080997268999992005012005004+46500-084367FM-18+0195SWPM V0203201N004019999999N9999999N1-01821+99999102361ADDSA1+0319REMSYN060CMTI   46// SWPM4 46/// /3204 11182 40236 90500 222// 00031;
0100997268999992005012006004+46500-084367FM-18+0195SWPM V0203301N004019999999N9999999N1-01791+99999102421ADDMD1110201+9999SA1+0319REMSYN066CMTI   46// SWPM4 46/// /3304 11179 40242 51020 90600 222// 00031;
0100997268999992005012007004+46500-084367FM-18+0195SWPM V0200501N003019999999N9999999N1-01781+99999102401ADDMD1110081+9999SA1+0309REMSYN066CMTI   46// SWPM4 46/// /0503 11178 40240 51008 90700 222// 00030;
0100997268999992005012008004+46500-084367FM-18+0195SWPM V0200501N005019999999N9999999N1-01761+99999102401ADDMD1110041+9999SA1+0339REMSYN066CMTI   46// SWPM4 46/// /0505 11176 40240 51004 90800 222// 00033;
0100997268999992005012009004+46500-084367FM-18+0195SWPM V0200901N004019999999N9999999N1-01781+99999102331ADDMD1810091+9999SA1+0329REMSYN066CMTI   46// SWPM4 46/// /0904 11178 40233 58009 90900 222// 00032;
0100997268999992005012010004+46500-084367FM-18+0195SWPM V0201001N005019999999N9999999N1-01791+99999102321ADDMD1710081+9999SA1+0329REMSYN066CMTI   46// SWPM4 46/// /1005 11179 40232 57008 91000 222// 00032;
0100997268999992005012011004+46500-084367FM-18+0195SWPM V0201001N005019999999N9999999N1-01801+99999102331ADDMD1610071+9999SA1+0309REMSYN066CMTI   46// SWPM4 46/// /1005 11180 40233 56007 91100 222// 00030;
0100997268999992005012012004+46500-084367FM-18+0195SWPM V0200801N005019999999N9999999N1-01821+99999102381ADDMD1310051+9999SA1+0339REMSYN066CMTI   46// SWPM4 46/// /0805 11182 40238 53005 91200 222// 00033;
0100997268999992005012013004+46500-084367FM-18+0195SWPM V0200701N005019999999N9999999N1-01841+99999102391ADDMD1210071+9999SA1+0339REMSYN066CMTI   46// SWPM4 46/// /0705 11184 40239 52007 91300 222// 00033;
0100997268999992005012014004+46500-084367FM-18+0195SWPM V0200701N005019999999N9999999N1-01851+99999102421ADDMD1110091+9999SA1+0329REMSYN066CMTI   46// SWPM4 46/// /0705 11185 40242 51009 91400 222// 00032;
0100997268999992005012015004+46500-084367FM-18+0195SWPM V0200701N004019999999N9999999N1-01841+99999102491ADDMD1310111+9999SA1+0349REMSYN066CMTI   46// SWPM4 46/// /0704 11184 40249 53011 91500 222// 00034;
0090997268999992005012016004+46500-084367FM-18+0195SWPM V0200801N003019999999N9999999N1-01781+99999102511ADDSA1+0339REMSYN070CMTI   46// SWPM4 46/// /0803 11178 40251 91606 222// 00033 333 91206;
0090997268999992005012017004+46500-084367FM-18+0195SWPM V0200801N004019999999N9999999N1-01731+99999102461ADDSA1+0339REMSYN070CMTI   46// SWPM4 46/// /0804 11173 40246 91718 222// 00033 333 91206;
0090997268999992005012018004+46500-084367FM-18+0195SWPM V0200901N002019999999N9999999N1-01661+99999102421ADDSA1+0319REMSYN070CMTI   46// SWPM4 46/// /0902 11166 40242 91806 222// 00031 333 91205;
0080997268999992005012019004+46500-084367FM-18+0195SWPM V0200901N002019999999N9999999N1-01541+99999102351ADDSA1+0339REMSYN060CMTI   46// SWPM4 46/// /0902 11154 40235 91900 222// 00033;
0100997268999992005012020004+46500-084367FM-18+0195SWPM V0202001N005019999999N9999999N1-01511+99999102351ADDMD1710141+9999SA1+0339REMSYN066CMTI   46// SWPM4 46/// /2005 11151 40235 57014 92000 222// 00033;
0080997268999992005012021004+46500-084367FM-18+0195SWPM V0202101N001019999999N9999999N1-01431+99999102371ADDSA1+0309REMSYN060CMTI   46// SWPM4 46/// /2101 11143 40237 92100 222// 00030;
0080997268999992005012022004+46500-084367FM-18+0195SWPM V0202601N003019999999N9999999N1-01471+99999102401ADDSA1+0339REMSYN060CMTI   46// SWPM4 46/// /2603 11147 40240 92200 222// 00033;
0170997268999992005012023004+46500-084367FM-18+0195SWPM V0203501N000519999999N9999999N1-01581+99999102441ADDMD1210091+9999REMSYN144CMAN  20234 SWPM4 46/// /3501 11158 40244 52009 92300 92300 333 91207 555 11006 22006 32220 419011 62259 196006 195007 198008 195010 19TIDE1199;
0080997268999992005012100004+46500-084367FM-18+0195SWPM V0203501N003019999999N9999999N1-01641+99999102501ADDSA1+0349REMSYN060CMTI   46// SWPM4 46/// /3503 11164 40250 90000 222// 00034;
0080997268999992005012101004+46500-084367FM-18+0195SWPM V0203201N002019999999N9999999N1-01861+99999102551ADDSA1+0339REMSYN060CMTI   46// SWPM4 46/// /3202 11186 40255 90100 222// 00033;
0100997268999992005012102004+46500-084367FM-18+0195SWPM V0203501N001019999999N9999999N1-02001+99999102611ADDMD1210171+9999SA1+0339REMSYN066CMTI   46// SWPM4 46/// /3501 11200 40261 52017 90200 222// 00033;
0100997268999992005012103004+46500-084367FM-18+0195SWPM V0200201N002019999999N9999999N1-02121+99999102631ADDMD1110131+9999SA1+0319REMSYN066CMTI   46// SWPM4 46/// /0202 11212 40263 51013 90300 222// 00031;
0100997268999992005012104004+46500-084367FM-18+0195SWPM V0200501N004019999999N9999999N1-01921+99999102681ADDMD1110131+9999SA1+0309REMSYN066CMTI   46// SWPM4 46/// /0504 11192 40268 51013 90400 222// 00030;
0100997268999992005012105004+46500-084367FM-18+0195SWPM V0201101N004019999999N9999999N1-02011+99999102761ADDMD1310151+9999SA1+0319REMSYN066CMTI   46// SWPM4 46/// /1104 11201 40276 53015 90500 222// 00031;
0100997268999992005012107004+46500-084367FM-18+0195SWPM V0200701N007019999999N9999999N1-02121+99999102821ADDMD1210141+9999SA1+0349REMSYN066CMTI   46// SWPM4 46/// /0707 11212 40282 52014 90700 222// 00034;
0100997268999992005012108004+46500-084367FM-18+0195SWPM V0200901N005019999999N9999999N1-02171+99999102871ADDMD1210111+9999SA1+0349REMSYN066CMTI   46// SWPM4 46/// /0905 11217 40287 52011 90800 222// 00034;
0080997268999992005012109004+46500-084367FM-18+0195SWPM V0200901N005019999999N9999999N1-02271+99999102911ADDSA1+0359REMSYN060CMTI   46// SWPM4 46/// /0905 11227 40291 90900 222// 00035;
0100997268999992005012110004+46500-084367FM-18+0195SWPM V0200801N006019999999N9999999N1-02301+99999102931ADDMD1110111+9999SA1+0349REMSYN066CMTI   46// SWPM4 46/// /0806 11230 40293 51011 91000 222// 00034;
0100997268999992005012111004+46500-084367FM-18+0195SWPM V0201001N006019999999N9999999N1-02331+99999102951ADDMD1110081+9999SA1+0339REMSYN066CMTI   46// SWPM4 46/// /1006 11233 40295 51008 91100 222// 00033;
0100997268999992005012112004+46500-084367FM-18+0195SWPM V0200901N003019999999N9999999N1-02411+99999103011ADDMD1310101+9999SA1+0339REMSYN066CMTI   46// SWPM4 46/// /0903 11241 40301 53010 91200 222// 00033;
0100997268999992005012113004+46500-084367FM-18+0195SWPM V0200801N005019999999N9999999N1-02421+99999103021ADDMD1210091+9999SA1+0359REMSYN066CMTI   46// SWPM4 46/// /0805 11242 40302 52009 91300 222// 00035;
0100997268999992005012114004+46500-084367FM-18+0195SWPM V0200901N005019999999N9999999N1-02491+99999103001ADDMD1110051+9999SA1+0339REMSYN066CMTI   46// SWPM4 46/// /0905 11249 40300 51005 91400 222// 00033;
0090997268999992005012115004+46500-084367FM-18+0195SWPM V0200801N004019999999N9999999N1-02271+99999103041ADDSA1+0349REMSYN070CMTI   46// SWPM4 46/// /0804 11227 40304 91554 222// 00034 333 91207;
0100997268999992005012116004+46500-084367FM-18+0195SWPM V0201001N005019999999N9999999N1-02251+99999103021ADDMD1410001+9999SA1+0349REMSYN066CMTI   46// SWPM4 46/// /1005 11225 40302 54000 91600 222// 00034;
0090997268999992005012118004+46500-084367FM-18+0195SWPM V0201201N007019999999N9999999N1-01971+99999102851ADDSA1+0359REMSYN070CMTI   46// SWPM4 46/// /1207 11197 40285 91818 222// 00035 333 91211;
0090997268999992005012119004+46500-084367FM-18+0195SWPM V0200901N008019999999N9999999N1-01871+99999102771ADDSA1+0359REMSYN070CMTI   46// SWPM4 46/// /0908 11187 40277 91918 222// 00035 333 91211;
0080997268999992005012120004+46500-084367FM-18+0195SWPM V0201001N007019999999N9999999N1-01821+99999102741ADDSA1+0359REMSYN060CMTI   46// SWPM4 46/// /1007 11182 40274 92000 222// 00035;
0080997268999992005012121004+46500-084367FM-18+0195SWPM V0200901N004019999999N9999999N1-01791+99999102691ADDSA1+0329REMSYN060CMTI   46// SWPM4 46/// /0904 11179 40269 92100 222// 00032;
0090997268999992005012122004+46500-084367FM-18+0195SWPM V0200901N005019999999N9999999N1-01821+99999102631ADDSA1+0349REMSYN070CMTI   46// SWPM4 46/// /0905 11182 40263 92206 222// 00034 333 91209;
0100997268999992005012123004+46500-084367FM-18+0195SWPM V0200801N005019999999N9999999N1-01851+99999102591ADDMD1710151+9999SA1+0349REMSYN066CMTI   46// SWPM4 46/// /0805 11185 40259 57015 92300 222// 00034;
0100997268999992005012200004+46500-084367FM-18+0195SWPM V0200901N005019999999N9999999N1-01811+99999102531ADDMD1810161+9999SA1+0349REMSYN066CMTI   46// SWPM4 46/// /0905 11181 40253 58016 90000 222// 00034;
0100997268999992005012201004+46500-084367FM-18+0195SWPM V0201101N007019999999N9999999N1-01801+99999102501ADDMD1610141+9999SA1+0359REMSYN066CMTI   46// SWPM4 46/// /1107 11180 40250 56014 90100 222// 00035;
0100997268999992005012202004+46500-084367FM-18+0195SWPM V0201001N007019999999N9999999N1-01741+99999102401ADDMD1810191+9999SA1+0359REMSYN066CMTI   46// SWPM4 46/// /1007 11174 40240 58019 90200 222// 00035;
0100997268999992005012203004+46500-084367FM-18+0195SWPM V0201001N008019999999N9999999N1-01711+99999102361ADDMD1810171+9999SA1+0349REMSYN066CMTI   46// SWPM4 46/// /1008 11171 40236 58017 90300 222// 00034;
0100997268999992005012204004+46500-084367FM-18+0195SWPM V0200901N007019999999N9999999N1-01711+99999102251ADDMD1810251+9999SA1+0349REMSYN066CMTI   46// SWPM4 46/// /0907 11171 40225 58025 90400 222// 00034;
0100997268999992005012205004+46500-084367FM-18+0195SWPM V0200901N006019999999N9999999N1-01631+99999102201ADDMD1810201+9999SA1+0359REMSYN066CMTI   46// SWPM4 46/// /0906 11163 40220 58020 90500 222// 00035;
0100997268999992005012207004+46500-084367FM-18+0195SWPM V0200901N008019999999N9999999N1-01571+99999102051ADDMD1810201+9999SA1+0369REMSYN066CMTI   46// SWPM4 46/// /0908 11157 40205 58020 90700 222// 00036;
0100997268999992005012208004+46500-084367FM-18+0195SWPM V0201001N011019999999N9999999N1-01531+99999102001ADDMD1610201+9999SA1+0369REMSYN066CMTI   46// SWPM4 46/// /1011 11153 40200 56020 90800 222// 00036;
0100997268999992005012209004+46500-084367FM-18+0195SWPM V0200801N011019999999N9999999N1-01491+99999102021ADDMD1610101+9999SA1+0379REMSYN066CMTI   46// SWPM4 46/// /0811 11149 40202 56010 90900 222// 00037;
0100997268999992005012210004+46500-084367FM-18+0195SWPM V0200701N011019999999N9999999N1-01471+99999102021ADDMD1610031+9999SA1+0379REMSYN066CMTI   46// SWPM4 46/// /0711 11147 40202 56003 91000 222// 00037;
0100997268999992005012211004+46500-084367FM-18+0195SWPM V0200701N010019999999N9999999N1-01481+99999101981ADDMD1010001+9999SA1+0349REMSYN066CMTI   46// SWPM4 46/// /0710 11148 40198 50000 91100 222// 00034;
0100997268999992005012212004+46500-084367FM-18+0195SWPM V0200801N007019999999N9999999N1-01521+99999101991ADDMD1710031+9999SA1+0369REMSYN066CMTI   46// SWPM4 46/// /0807 11152 40199 57003 91200 222// 00036;
0100997268999992005012213004+46500-084367FM-18+0195SWPM V0200901N006019999999N9999999N1-01481+99999102021ADDMD1510001+9999SA1+0379REMSYN066CMTI   46// SWPM4 46/// /0906 11148 40202 55000 91300 222// 00037;
0100997268999992005012214004+46500-084367FM-18+0195SWPM V0200901N005019999999N9999999N1-01441+99999102071ADDMD1310091+9999SA1+0379REMSYN066CMTI   46// SWPM4 46/// /0905 11144 40207 53009 91400 222// 00037;
0100997268999992005012215004+46500-084367FM-18+0195SWPM V0200501N009019999999N9999999N1-01401+99999102121ADDMD1310131+9999SA1+0369REMSYN066CMTI   46// SWPM4 46/// /0509 11140 40212 53013 91500 222// 00036;
0100997268999992005012216004+46500-084367FM-18+0195SWPM V0200401N008019999999N9999999N1-01321+99999102161ADDMD1110141+9999SA1+0359REMSYN066CMTI   46// SWPM4 46/// /0408 11132 40216 51014 91600 222// 00035;
0100997268999992005012217004+46500-084367FM-18+0195SWPM V0200301N011019999999N9999999N1-01301+99999102201ADDMD1110131+9999SA1+0359REMSYN066CMTI   46// SWPM4 46/// /0311 11130 40220 51013 91700 222// 00035;
0100997268999992005012218004+46500-084367FM-18+0195SWPM V0200401N015019999999N9999999N1-01281+99999102231ADDMD1110111+9999SA1+0359REMSYN066CMTI   46// SWPM4 46/// /0415 11128 40223 51011 91800 222// 00035;
0100997268999992005012219004+46500-084367FM-18+0195SWPM V0200401N010019999999N9999999N1-01251+99999102291ADDMD1310131+9999SA1+0379REMSYN066CMTI   46// SWPM4 46/// /0410 11125 40229 53013 91900 222// 00037;
0100997268999992005012220004+46500-084367FM-18+0195SWPM V0200301N013019999999N9999999N1-01251+99999102331ADDMD1310131+9999SA1+0369REMSYN066CMTI   46// SWPM4 46/// /0313 11125 40233 53013 92000 222// 00036;
0100997268999992005012221004+46500-084367FM-18+0195SWPM V0200201N011019999999N9999999N1-01271+99999102441ADDMD1310211+9999SA1+0379REMSYN066CMTI   46// SWPM4 46/// /0211 11127 40244 53021 92100 222// 00037;
0100997268999992005012222004+46500-084367FM-18+0195SWPM V0200101N010019999999N9999999N1-01301+99999102571ADDMD1310281+9999SA1+0359REMSYN066CMTI   46// SWPM4 46/// /0110 11130 40257 53028 92200 222// 00035;
0100997268999992005012223004+46500-084367FM-18+0195SWPM V0200101N007019999999N9999999N1-01361+99999102711ADDMD1310381+9999SA1+0369REMSYN066CMTI   46// SWPM4 46/// /0107 11136 40271 53038 92300 222// 00036;
0100997268999992005012300004+46500-084370FM-18+0195SWPM V0203501N007019999999N9999999N1-01461+99999102851ADDMD1310411+9999SA1+0359REMSYN066CMTI   46// SWPM4 46/// /3507 11146 40285 53041 90000 222// 00035;
0100997268999992005012301004+46500-084370FM-18+0195SWPM V0203101N006019999999N9999999N1-01611+99999102971ADDMD1110401+9999SA1+0369REMSYN066CMTI   46// SWPM4 46/// /3106 11161 40297 51040 90100 222// 00036;
0100997268999992005012302004+46500-084370FM-18+0195SWPM V0200101N008019999999N9999999N1-01711+99999103041ADDMD1110331+9999SA1+0379REMSYN066CMTI   46// SWPM4 46/// /0108 11171 40304 51033 90200 222// 00037;
0100997268999992005012303004+46500-084370FM-18+0195SWPM V0203101N007019999999N9999999N1-01851+99999103101ADDMD1110251+9999SA1+0369REMSYN066CMTI   46// SWPM4 46/// /3107 11185 40310 51025 90300 222// 00036;
0100997268999992005012304004+46500-084370FM-18+0195SWPM V0203401N003019999999N9999999N1-01901+99999103171ADDMD1210201+9999SA1+0389REMSYN066CMTI   46// SWPM4 46/// /3403 11190 40317 52020 90400 222// 00038;
0090997268999992005012305004+46500-084370FM-18+0195SWPM V0203301N006019999999N9999999N1-01961+99999103211ADDSA1+0369REMSYN070CMTI   46// SWPM4 46/// /3306 11196 40321 90506 222// 00036 333 91211;
0100997268999992005012306004+46500-084370FM-18+0195SWPM V0200301N004019999999N9999999N1-02031+99999103131ADDMD1210031+9999SA1+0369REMSYN066CMTI   46// SWPM4 46/// /0304 11203 40313 52003 90600 222// 00036;
0100997268999992005012307004+46500-084370FM-18+0195SWPM V0202101N003019999999N9999999N1-02151+99999103171ADDMD1410001+9999SA1+0359REMSYN066CMTI   46// SWPM4 46/// /2103 11215 40317 54000 90700 222// 00035;
0080997268999992005012308004+46500-084370FM-18+0195SWPM V0202601N002019999999N9999999N1-02201+99999103201ADDSA1+0379REMSYN060CMTI   46// SWPM4 46/// /2602 11220 40320 90800 222// 00037;
0100997268999992005012309004+46500-084370FM-18+0195SWPM V0202701N003019999999N9999999N1-02271+99999103251ADDMD1310121+9999SA1+0339REMSYN066CMTI   46// SWPM4 46/// /2703 11227 40325 53012 90900 222// 00033;
0090997268999992005012310004+46500-084370FM-18+0195SWPM V0202701N002019999999N9999999N1-02291+99999103231ADDSA1+0389REMSYN070CMTI   46// SWPM4 46/// /2702 11229 40323 91006 222// 00038 333 91205;
0100997268999992005012311004+46500-084370FM-18+0195SWPM V0209999C000019999999N9999999N1-02401+99999103201ADDMD1410001+9999SA1+0369REMSYN066CMTI   46// SWPM4 46/// /0000 11240 40320 54000 91100 222// 00036;
0100997268999992005012312004+46500-084370FM-18+0195SWPM V0202201N003019999999N9999999N1-02301+99999103211ADDMD1710041+9999SA1+0369REMSYN066CMTI   46// SWPM4 46/// /2203 11230 40321 57004 91200 222// 00036;
0080997268999992005012313004+46500-084370FM-18+0195SWPM V0202601N002019999999N9999999N1-02521+99999103201ADDSA1+0369REMSYN060CMTI   46// SWPM4 46/// /2602 11252 40320 91300 222// 00036;
0100997268999992005012314004+46500-084370FM-18+0195SWPM V0203001N002019999999N9999999N1-02541+99999103211ADDMD1410001+9999SA1+0379REMSYN066CMTI   46// SWPM4 46/// /3002 11254 40321 54000 91400 222// 00037;
0100997268999992005012315004+46500-084370FM-18+0195SWPM V0209999C000019999999N9999999N1-02271+99999103251ADDMD1310041+9999SA1+0359REMSYN066CMTI   46// SWPM4 46/// /0000 11227 40325 53004 91500 222// 00035;
