0060997359999992005032210004+45050-083450FM-18+0179APNM V0202701N002619999999N9999999N1-00321+99999999999REMSYN051CMAN 22104 APNM4 46/// /2705 11032 91040 333 91207;
0060997359999992005032211004+45050-083450FM-18+0179APNM V0202901N002619999999N9999999N1-00331+99999999999REMSYN051CMAN 22114 APNM4 46/// /2905 11033 91140 333 91207;
0060997359999992005032212004+45050-083450FM-18+0179APNM V0203101N003119999999N9999999N1-00221+99999999999REMSYN051CMAN 22124 APNM4 46/// /3106 11022 91240 333 91209;
0060997359999992005032213004+45050-083450FM-18+0179APNM V0203201N003619999999N9999999N1-00031+99999999999REMSYN051CMAN 22134 APNM4 46/// /3207 11003 91340 333 91211;
0060997359999992005032214004+45050-083450FM-18+0179APNM V0203401N003119999999N9999999N1+00161+99999999999REMSYN051CMAN 22144 APNM4 46/// /3406 10016 91440 333 91208;
0094997359999992005032217004+45050-083450FM-18+0179APNM V0203501N004119999999N9999999N1+00491+99999999999REMSYN085CMAN  22174 APNM4 46/// /3508 10049 9174 40238 53008 91659 333 91212 555 11006 22007;
0060997359999992005032218004+45050-083450FM-18+0179APNM V0200101N004119999999N9999999N1+00531+99999999999REMSYN051CMAN 22184 APNM4 46/// /0108 10053 91840 333 91213;
0060997359999992005032219004+45050-083450FM-18+0179APNM V0200101N006719999999N9999999N1+00501+99999999999REMSYN051CMAN 22194 APNM4 46/// /0113 10050 91940 333 91218;
0060997359999992005032220004+45050-083450FM-18+0179APNM V0203601N003619999999N9999999N1+00511+99999999999REMSYN051CMAN 22204 APNM4 46/// /3607 10051 92040 333 91209;
0060997359999992005032221004+45050-083450FM-18+0179APNM V0203601N003119999999N9999999N1+00511+99999999999REMSYN051CMAN 22214 APNM4 46/// /3606 10051 92140 333 91211;
0060997359999992005032222004+45050-083450FM-18+0179APNM V0200401N002119999999N9999999N1+00461+99999999999REMSYN051CMAN 22224 APNM4 46/// /0404 10046 92240 333 91206;
0060997359999992005032223004+45050-083450FM-18+0179APNM V0203401N001519999999N9999999N1+00381+99999999999REMSYN051CMAN 22234 APNM4 46/// /3403 10038 92340 333 91205;
0060997359999992005032300004+45050-083450FM-18+0179APNM V0203101N000519999999N9999999N1+00251+99999999999REMSYN051CMAN 23004 APNM4 46/// /3101 10025 90040 333 91202;
0060997359999992005032301004+45050-083450FM-18+0179APNM V0200101N000519999999N9999999N1+00041+99999999999REMSYN051CMAN 23014 APNM4 46/// /0101 10004 90140 333 91201;
0060997359999992005032302004+45050-083450FM-18+0179APNM V0203301N002119999999N9999999N1-00011+99999999999REMSYN051CMAN 23024 APNM4 46/// /3304 11001 90240 333 91204;
0060997359999992005032303004+45050-083450FM-18+0179APNM V0203401N000519999999N9999999N1-00011+99999999999REMSYN051CMAN 23034 APNM4 46/// /3401 11001 90340 333 91202;
0060997359999992005032304004+45050-083450FM-18+0179APNM V0203601N001519999999N9999999N1-00091+99999999999REMSYN051CMAN 23044 APNM4 46/// /3603 11009 90440 333 91204;
0060997359999992005032305004+45050-083450FM-18+0179APNM V0200101N002119999999N9999999N1-00071+99999999999REMSYN051CMAN 23054 APNM4 46/// /0104 11007 90540 333 91206;
0060997359999992005032306004+45050-083450FM-18+0179APNM V0200601N004119999999N9999999N1+00151+99999999999REMSYN051CMAN 23064 APNM4 46/// /0608 10015 90640 333 91209;
0060997359999992005032307004+45050-083450FM-18+0179APNM V0200801N007219999999N9999999N1+00221+99999999999REMSYN051CMAN 23074 APNM4 46/// /0814 10022 90740 333 91217;
0060997359999992005032308004+45050-083450FM-18+0179APNM V0200801N007219999999N9999999N1+00181+99999999999REMSYN051CMAN 23084 APNM4 46/// /0814 10018 90840 333 91217;
0060997359999992005032309004+45050-083450FM-18+0179APNM V0200901N007719999999N9999999N1+00141+99999999999REMSYN051CMAN 23094 APNM4 46/// /0915 10014 90940 333 91217;
0060997359999992005032310004+45050-083450FM-18+0179APNM V0200901N008219999999N9999999N1+00071+99999999999REMSYN051CMAN 23104 APNM4 46/// /0916 10007 91040 333 91218;
0060997359999992005032311004+45050-083450FM-18+0179APNM V0200901N008719999999N9999999N1+00041+99999999999REMSYN051CMAN 23114 APNM4 46/// /0917 10004 91140 333 91220;
0060997359999992005032312004+45050-083450FM-18+0179APNM V0200801N009319999999N9999999N1-00011+99999999999REMSYN051CMAN 23124 APNM4 46/// /0818 11001 91240 333 91220;
0060997359999992005032313004+45050-083450FM-18+0179APNM V0200801N007719999999N9999999N1+00001+99999999999REMSYN051CMAN 23134 APNM4 46/// /0815 10000 91340 333 91220;
0060997359999992005032314004+45050-083450FM-18+0179APNM V0200801N007719999999N9999999N1-00051+99999999999REMSYN051CMAN 23144 APNM4 46/// /0815 11005 91440 333 91218;
0060997359999992005032315004+45050-083450FM-18+0179APNM V0200801N007719999999N9999999N1-00051+99999999999REMSYN051CMAN 23154 APNM4 46/// /0815 11005 91540 333 91218;
0060997359999992005032316004+45050-083450FM-18+0179APNM V0200801N007719999999N9999999N1-00031+99999999999REMSYN051CMAN 23164 APNM4 46/// /0815 11003 91640 333 91218;
0060997359999992005032317004+45050-083450FM-18+0179APNM V0200701N006719999999N9999999N1-00051+99999999999REMSYN051CMAN 23174 APNM4 46/// /0713 11005 91740 333 91217;
0060997359999992005032318004+45050-083450FM-18+0179APNM V0200701N007719999999N9999999N1+00001+99999999999REMSYN051CMAN 23184 APNM4 46/// /0715 10000 91840 333 91217;
0060997359999992005032319004+45050-083450FM-18+0179APNM V0200801N006219999999N9999999N1+00021+99999999999REMSYN051CMAN 23194 APNM4 46/// /0812 10002 91940 333 91214;
0060997359999992005032320004+45050-083450FM-18+0179APNM V0200601N006219999999N9999999N1+00051+99999999999REMSYN051CMAN 23204 APNM4 46/// /0612 10005 92040 333 91214;
0060997359999992005032321004+45050-083450FM-18+0179APNM V0200401N004619999999N9999999N1+00061+99999999999REMSYN051CMAN 23214 APNM4 46/// /0409 10006 92140 333 91212;
0060997359999992005032322004+45050-083450FM-18+0179APNM V0200401N003619999999N9999999N1+00071+99999999999REMSYN051CMAN 23224 APNM4 46/// /0407 10007 92240 333 91209;
0060997359999992005032323004+45050-083450FM-18+0179APNM V0200101N003119999999N9999999N1+00021+99999999999REMSYN051CMAN 23234 APNM4 46/// /0106 10002 92340 333 91207;
0060997359999992005032400004+45050-083450FM-18+0179APNM V0203601N002119999999N9999999N1-00011+99999999999REMSYN051CMAN 24004 APNM4 46/// /3604 11001 90040 333 91205;
0060997359999992005032401004+45050-083450FM-18+0179APNM V0203301N001019999999N9999999N1-00081+99999999999REMSYN051CMAN 24014 APNM4 46/// /3302 11008 90140 333 91204;
0060997359999992005032402004+45050-083450FM-18+0179APNM V0203201N001519999999N9999999N1-00151+99999999999REMSYN051CMAN 24024 APNM4 46/// /3203 11015 90240 333 91204;
0060997359999992005032403004+45050-083450FM-18+0179APNM V0203001N001019999999N9999999N1-00231+99999999999REMSYN051CMAN 24034 APNM4 46/// /3002 11023 90340 333 91203;
0060997359999992005032404004+45050-083450FM-18+0179APNM V0203001N001519999999N9999999N1-00331+99999999999REMSYN051CMAN 24044 APNM4 46/// /3003 11033 90440 333 91204;
0060997359999992005032405004+45050-083450FM-18+0179APNM V0203101N002619999999N9999999N1-00381+99999999999REMSYN051CMAN 24054 APNM4 46/// /3105 11038 90540 333 91206;
0060997359999992005032406004+45050-083450FM-18+0179APNM V0203101N001519999999N9999999N1-00401+99999999999REMSYN051CMAN 24064 APNM4 46/// /3103 11040 90640 333 91205;
0060997359999992005032407004+45050-083450FM-18+0179APNM V0203101N002619999999N9999999N1-00481+99999999999REMSYN051CMAN 24074 APNM4 46/// /3105 11048 90740 333 91206;
0060997359999992005032408004+45050-083450FM-18+0179APNM V0203001N003119999999N9999999N1-00531+99999999999REMSYN051CMAN 24084 APNM4 46/// /3006 11053 90840 333 91207;
0060997359999992005032409004+45050-083450FM-18+0179APNM V0203001N002619999999N9999999N1-00581+99999999999REMSYN051CMAN 24094 APNM4 46/// /3005 11058 90940 333 91206;
0060997359999992005032410004+45050-083450FM-18+0179APNM V0203001N002119999999N9999999N1-00611+99999999999REMSYN051CMAN 24104 APNM4 46/// /3004 11061 91040 333 91206;
0060997359999992005032411004+45050-083450FM-18+0179APNM V0202901N001019999999N9999999N1-00621+99999999999REMSYN051CMAN 24114 APNM4 46/// /2902 11062 91140 333 91203;
0060997359999992005032412004+45050-083450FM-18+0179APNM V0203001N002119999999N9999999N1-00401+99999999999REMSYN051CMAN 24124 APNM4 46/// /3004 11040 91240 333 91205;
0060997359999992005032413004+45050-083450FM-18+0179APNM V0202801N002119999999N9999999N1-00101+99999999999REMSYN051CMAN 24134 APNM4 46/// /2804 11010 91340 333 91204;
0060997359999992005032414004+45050-083450FM-18+0179APNM V0203201N001019999999N9999999N1+00381+99999999999REMSYN051CMAN 24144 APNM4 46/// /3202 10038 91440 333 91204;
0060997359999992005032415004+45050-083450FM-18+0179APNM V0201301N003119999999N9999999N1+00231+99999999999REMSYN051CMAN 24154 APNM4 46/// /1306 10023 91540 333 91206;
0060997359999992005032416004+45050-083450FM-18+0179APNM V0202301N002119999999N9999999N1+00591+99999999999REMSYN051CMAN 24164 APNM4 46/// /2304 10059 91640 333 91209;
0060997359999992005032417004+45050-083450FM-18+0179APNM V0201401N005119999999N9999999N1+00291+99999999999REMSYN051CMAN 24174 APNM4 46/// /1410 10029 91740 333 91213;
0060997359999992005032418004+45050-083450FM-18+0179APNM V0201501N004619999999N9999999N1+00251+99999999999REMSYN051CMAN 24184 APNM4 46/// /1509 10025 91840 333 91212;
0060997359999992005032419004+45050-083450FM-18+0179APNM V0201401N004619999999N9999999N1+00281+99999999999REMSYN051CMAN 24194 APNM4 46/// /1409 10028 91940 333 91210;
0060997359999992005032420004+45050-083450FM-18+0179APNM V0201001N002619999999N9999999N1+00321+99999999999REMSYN051CMAN 24204 APNM4 46/// /1005 10032 92040 333 91206;
0060997359999992005032421004+45050-083450FM-18+0179APNM V0201301N001519999999N9999999N1+00361+99999999999REMSYN051CMAN 24214 APNM4 46/// /1303 10036 92140 333 91204;
0060997359999992005032422004+45050-083450FM-18+0179APNM V0203101N003119999999N9999999N1+00921+99999999999REMSYN051CMAN 24224 APNM4 46/// /3106 10092 92240 333 91209;
0060997359999992005032423004+45050-083450FM-18+0179APNM V0203101N001519999999N9999999N1+00781+99999999999REMSYN051CMAN 24234 APNM4 46/// /3103 10078 92340 333 91204;
0060997359999992005032500004+45050-083450FM-18+0179APNM V0202701N002119999999N9999999N1+00691+99999999999REMSYN051CMAN 25004 APNM4 46/// /2704 10069 90040 333 91207;
0060997359999992005032501004+45050-083450FM-18+0179APNM V0202801N001019999999N9999999N1+00611+99999999999REMSYN051CMAN 25014 APNM4 46/// /2802 10061 90140 333 91204;
0060997359999992005032502004+45050-083450FM-18+0179APNM V0203001N002119999999N9999999N1+00561+99999999999REMSYN051CMAN 25024 APNM4 46/// /3004 10056 90240 333 91207;
0060997359999992005032503004+45050-083450FM-18+0179APNM V0203301N003119999999N9999999N1+00481+99999999999REMSYN051CMAN 25034 APNM4 46/// /3306 10048 90340 333 91213;
0060997359999992005032504004+45050-083450FM-18+0179APNM V0203301N004619999999N9999999N1+00291+99999999999REMSYN051CMAN 25044 APNM4 46/// /3309 10029 90440 333 91216;
0060997359999992005032505004+45050-083450FM-18+0179APNM V0203201N003119999999N9999999N1+00191+99999999999REMSYN051CMAN 25054 APNM4 46/// /3206 10019 90540 333 91211;
0060997359999992005032506004+45050-083450FM-18+0179APNM V0203201N002619999999N9999999N1+00041+99999999999REMSYN051CMAN 25064 APNM4 46/// /3205 10004 90640 333 91210;
0060997359999992005032507004+45050-083450FM-18+0179APNM V0203201N002619999999N9999999N1+00001+99999999999REMSYN051CMAN 25074 APNM4 46/// /3205 10000 90740 333 91208;
0060997359999992005032508004+45050-083450FM-18+0179APNM V0200101N004619999999N9999999N1+00061+99999999999REMSYN051CMAN 25084 APNM4 46/// /0109 10006 90840 333 91214;
0060997359999992005032509004+45050-083450FM-18+0179APNM V0200201N003619999999N9999999N1-00071+99999999999REMSYN051CMAN 25094 APNM4 46/// /0207 11007 90940 333 91211;
0060997359999992005032510004+45050-083450FM-18+0179APNM V0200201N003619999999N9999999N1-00151+99999999999REMSYN051CMAN 25104 APNM4 46/// /0207 11015 91040 333 91209;
0060997359999992005032511004+45050-083450FM-18+0179APNM V0200301N003119999999N9999999N1-00171+99999999999REMSYN051CMAN 25114 APNM4 46/// /0306 11017 91140 333 91209;
0060997359999992005032512004+45050-083450FM-18+0179APNM V0200201N002619999999N9999999N1-00101+99999999999REMSYN051CMAN 25124 APNM4 46/// /0205 11010 91240 333 91207;
0060997359999992005032513004+45050-083450FM-18+0179APNM V0200401N004619999999N9999999N1-00081+99999999999REMSYN051CMAN 25134 APNM4 46/// /0409 11008 91340 333 91210;
0060997359999992005032514004+45050-083450FM-18+0179APNM V0200701N005119999999N9999999N1-00081+99999999999REMSYN051CMAN 25144 APNM4 46/// /0710 11008 91440 333 91212;
0060997359999992005032515004+45050-083450FM-18+0179APNM V0200801N004119999999N9999999N1-00081+99999999999REMSYN051CMAN 25154 APNM4 46/// /0808 11008 91540 333 91210;
0060997359999992005032516004+45050-083450FM-18+0179APNM V0200801N003119999999N9999999N1-00011+99999999999REMSYN051CMAN 25164 APNM4 46/// /0806 11001 91640 333 91208;
0060997359999992005032517004+45050-083450FM-18+0179APNM V0201101N003619999999N9999999N1-00011+99999999999REMSYN051CMAN 25174 APNM4 46/// /1107 11001 91740 333 91210;
0060997359999992005032518004+45050-083450FM-18+0179APNM V0201001N003619999999N9999999N1+00001+99999999999REMSYN051CMAN 25184 APNM4 46/// /1007 10000 91840 333 91210;
0060997359999992005032519004+45050-083450FM-18+0179APNM V0201001N004119999999N9999999N1-00011+99999999999REMSYN051CMAN 25194 APNM4 46/// /1008 11001 91940 333 91210;
0060997359999992005032520004+45050-083450FM-18+0179APNM V0201101N003619999999N9999999N1-00011+99999999999REMSYN051CMAN 25204 APNM4 46/// /1107 11001 92040 333 91209;
0060997359999992005032521004+45050-083450FM-18+0179APNM V0200501N002619999999N9999999N1+00081+99999999999REMSYN051CMAN 25214 APNM4 46/// /0505 10008 92140 333 91207;
0060997359999992005032522004+45050-083450FM-18+0179APNM V0200401N004119999999N9999999N1+00021+99999999999REMSYN051CMAN 25224 APNM4 46/// /0408 10002 92240 333 91211;
0060997359999992005032523004+45050-083450FM-18+0179APNM V0200401N003119999999N9999999N1-00051+99999999999REMSYN051CMAN 25234 APNM4 46/// /0406 11005 92340 333 91207;
0060997359999992005032600004+45050-083450FM-18+0179APNM V0200401N001519999999N9999999N1-00091+99999999999REMSYN051CMAN 26004 APNM4 46/// /0403 11009 90040 333 91204;
0060997359999992005032601004+45050-083450FM-18+0179APNM V0200101N001019999999N9999999N1-00131+99999999999REMSYN051CMAN 26014 APNM4 46/// /0102 11013 90140 333 91202;
0060997359999992005032602004+45050-083450FM-18+0179APNM V0203401N001019999999N9999999N1-00161+99999999999REMSYN051CMAN 26024 APNM4 46/// /3402 11016 90240 333 91202;
0060997359999992005032603004+45050-083450FM-18+0179APNM V0203201N001019999999N9999999N1-00191+99999999999REMSYN051CMAN 26034 APNM4 46/// /3202 11019 90340 333 91202;
0060997359999992005032604004+45050-083450FM-18+0179APNM V0202801N002119999999N9999999N1-00431+99999999999REMSYN051CMAN 26044 APNM4 46/// /2804 11043 90440 333 91205;
0060997359999992005032605004+45050-083450FM-18+0179APNM V0202701N002119999999N9999999N1-00431+99999999999REMSYN051CMAN 26054 APNM4 46/// /2704 11043 90540 333 91205;
0060997359999992005032606004+45050-083450FM-18+0179APNM V0202701N001019999999N9999999N1-00531+99999999999REMSYN051CMAN 26064 APNM4 46/// /2702 11053 90640 333 91203;
0060997359999992005032607004+45050-083450FM-18+0179APNM V0203101N001519999999N9999999N1-00631+99999999999REMSYN051CMAN 26074 APNM4 46/// /3103 11063 90740 333 91204;
0060997359999992005032608004+45050-083450FM-18+0179APNM V0202901N001019999999N9999999N1-00691+99999999999REMSYN051CMAN 26084 APNM4 46/// /2902 11069 90840 333 91203;
0060997359999992005032609004+45050-083450FM-18+0179APNM V0202901N001019999999N9999999N1-00731+99999999999REMSYN051CMAN 26094 APNM4 46/// /2902 11073 90940 333 91204;
0060997359999992005032610004+45050-083450FM-18+0179APNM V0203001N001519999999N9999999N1-00721+99999999999REMSYN051CMAN 26104 APNM4 46/// /3003 11072 91040 333 91203;
0060997359999992005032611004+45050-083450FM-18+0179APNM V0202901N001019999999N9999999N1-00721+99999999999REMSYN051CMAN 26114 APNM4 46/// /2902 11072 91140 333 91203;
0060997359999992005032612004+45050-083450FM-18+0179APNM V0202701N001019999999N9999999N1-00471+99999999999REMSYN051CMAN 26124 APNM4 46/// /2702 11047 91240 333 91203;
0060997359999992005032613004+45050-083450FM-18+0179APNM V0203001N001519999999N9999999N1-00051+99999999999REMSYN051CMAN 26134 APNM4 46/// /3003 11005 91340 333 91203;
0060997359999992005032614004+45050-083450FM-18+0179APNM V0201401N002119999999N9999999N1+00071+99999999999REMSYN051CMAN 26144 APNM4 46/// /1404 10007 91440 333 91204;
0060997359999992005032615004+45050-083450FM-18+0179APNM V0201501N003619999999N9999999N1+00111+99999999999REMSYN051CMAN 26154 APNM4 46/// /1507 10011 91540 333 91208;
0060997359999992005032616004+45050-083450FM-18+0179APNM V0201301N005119999999N9999999N1+00131+99999999999REMSYN051CMAN 26164 APNM4 46/// /1310 10013 91640 333 91211;
0060997359999992005032617004+45050-083450FM-18+0179APNM V0201301N005119999999N9999999N1+00161+99999999999REMSYN051CMAN 26174 APNM4 46/// /1310 10016 91740 333 91212;
0060997359999992005032618004+45050-083450FM-18+0179APNM V0201401N006219999999N9999999N1+00161+99999999999REMSYN051CMAN 26184 APNM4 46/// /1412 10016 91840 333 91213;
0060997359999992005032619004+45050-083450FM-18+0179APNM V0201501N006719999999N9999999N1+00151+99999999999REMSYN051CMAN 26194 APNM4 46/// /1513 10015 91940 333 91214;
0060997359999992005032620004+45050-083450FM-18+0179APNM V0201501N006719999999N9999999N1+00171+99999999999REMSYN051CMAN 26204 APNM4 46/// /1513 10017 92040 333 91215;
0060997359999992005032814004+45050-083450FM-18+0179APNM V0201801N002619999999N9999999N1+00301+99999999999REMSYN051CMAN 28144 APNM4 46/// /1805 10030 91440 333 91206;
0060997359999992005032815004+45050-083450FM-18+0179APNM V0201901N002119999999N9999999N1+00371+99999999999REMSYN051CMAN 28154 APNM4 46/// /1904 10037 91540 333 91204;
0060997359999992005032816004+45050-083450FM-18+0179APNM V0201501N003119999999N9999999N1+00381+99999999999REMSYN051CMAN 28164 APNM4 46/// /1506 10038 91640 333 91207;
0060997359999992005032817004+45050-083450FM-18+0179APNM V0201501N001019999999N9999999N1+00511+99999999999REMSYN051CMAN 28174 APNM4 46/// /1502 10051 91740 333 91203;
0060997359999992005032818004+45050-083450FM-18+0179APNM V0201601N001519999999N9999999N1+00661+99999999999REMSYN051CMAN 28184 APNM4 46/// /1603 10066 91840 333 91203;
0060997359999992005032819004+45050-083450FM-18+0179APNM V0201501N003119999999N9999999N1+00561+99999999999REMSYN051CMAN 28194 APNM4 46/// /1506 10056 91940 333 91207;
0060997359999992005032820004+45050-083450FM-18+0179APNM V0201701N002119999999N9999999N1+00551+99999999999REMSYN051CMAN 28204 APNM4 46/// /1704 10055 92040 333 91205;
0060997359999992005032821004+45050-083450FM-18+0179APNM V0201601N003119999999N9999999N1+00461+99999999999REMSYN051CMAN 28214 APNM4 46/// /1606 10046 92140 333 91206;
0060997359999992005032822004+45050-083450FM-18+0179APNM V0201601N001019999999N9999999N1+00471+99999999999REMSYN051CMAN 28224 APNM4 46/// /1602 10047 92240 333 91203;
0060997359999992005032823004+45050-083450FM-18+0179APNM V0202101N000519999999N9999999N1+00551+99999999999REMSYN051CMAN 28234 APNM4 46/// /2101 10055 92340 333 91201;
0060997359999992005032900004+45050-083450FM-18+0179APNM V0201401N000519999999N9999999N1+00381+99999999999REMSYN051CMAN 29004 APNM4 46/// /1401 10038 90040 333 91202;
0060997359999992005032901004+45050-083450FM-18+0179APNM V0201801N001019999999N9999999N1+00311+99999999999REMSYN051CMAN 29014 APNM4 46/// /1802 10031 90140 333 91202;
0060997359999992005032902004+45050-083450FM-18+0179APNM V0202301N001019999999N9999999N1+00311+99999999999REMSYN051CMAN 29024 APNM4 46/// /2302 10031 90240 333 91202;
0060997359999992005032903004+45050-083450FM-18+0179APNM V0202701N002119999999N9999999N1+00291+99999999999REMSYN051CMAN 29034 APNM4 46/// /2704 10029 90340 333 91204;
0060997359999992005032904004+45050-083450FM-18+0179APNM V0200101N000519999999N9999999N1+00111+99999999999REMSYN051CMAN 29044 APNM4 46/// /0101 10011 90440 333 91202;
0060997359999992005032905004+45050-083450FM-18+0179APNM V0203101N001519999999N9999999N1+00141+99999999999REMSYN051CMAN 29054 APNM4 46/// /3103 10014 90540 333 91204;
0060997359999992005032906004+45050-083450FM-18+0179APNM V0203001N002619999999N9999999N1+00201+99999999999REMSYN051CMAN 29064 APNM4 46/// /3005 10020 90640 333 91206;
0060997359999992005032907004+45050-083450FM-18+0179APNM V0203001N001519999999N9999999N1+00071+99999999999REMSYN051CMAN 29074 APNM4 46/// /3003 10007 90740 333 91204;
0060997359999992005032908004+45050-083450FM-18+0179APNM V0203101N001019999999N9999999N1-00031+99999999999REMSYN051CMAN 29084 APNM4 46/// /3102 11003 90840 333 91202;
0060997359999992005032909004+45050-083450FM-18+0179APNM V0209999C000019999999N9999999N1+00021+99999999999REMSYN051CMAN 29094 APNM4 46/// /0000 10002 90940 333 91201;
0060997359999992005032910004+45050-083450FM-18+0179APNM V0202301N000519999999N9999999N1+00011+99999999999REMSYN051CMAN 29104 APNM4 46/// /2301 10001 91040 333 91201;
0060997359999992005032911004+45050-083450FM-18+0179APNM V0202101N001019999999N9999999N1+00051+99999999999REMSYN051CMAN 29114 APNM4 46/// /2102 10005 91140 333 91202;
0060997359999992005032912004+45050-083450FM-18+0179APNM V0209999C000019999999N9999999N1+00251+99999999999REMSYN051CMAN 29124 APNM4 46/// /0000 10025 91240 333 91201;
0060997359999992005032913004+45050-083450FM-18+0179APNM V0200901N001519999999N9999999N1+00281+99999999999REMSYN051CMAN 29134 APNM4 46/// /0903 10028 91340 333 91204;
0060997359999992005032914004+45050-083450FM-18+0179APNM V0201101N000519999999N9999999N1+00521+99999999999REMSYN051CMAN 29144 APNM4 46/// /1101 10052 91440 333 91202;
0060997359999992005032915004+45050-083450FM-18+0179APNM V0201001N001019999999N9999999N1+00561+99999999999REMSYN051CMAN 29154 APNM4 46/// /1002 10056 91540 333 91204;
0060997359999992005032916004+45050-083450FM-18+0179APNM V0201101N000519999999N9999999N1+00791+99999999999REMSYN051CMAN 29164 APNM4 46/// /1101 10079 91640 333 91202;
0060997359999992005032917004+45050-083450FM-18+0179APNM V0201301N001519999999N9999999N1+00681+99999999999REMSYN051CMAN 29174 APNM4 46/// /1303 10068 91740 333 91205;
0060997359999992005032918004+45050-083450FM-18+0179APNM V0201901N001019999999N9999999N1+00641+99999999999REMSYN051CMAN 29184 APNM4 46/// /1902 10064 91840 333 91204;
0060997359999992005032919004+45050-083450FM-18+0179APNM V0201401N000519999999N9999999N1+00721+99999999999REMSYN051CMAN 29194 APNM4 46/// /1401 10072 91940 333 91205;
0060997359999992005032920004+45050-083450FM-18+0179APNM V0201301N005119999999N9999999N1+00561+99999999999REMSYN051CMAN 29204 APNM4 46/// /1310 10056 92040 333 91212;
0060997359999992005032921004+45050-083450FM-18+0179APNM V0201401N006219999999N9999999N1+00551+99999999999REMSYN051CMAN 29214 APNM4 46/// /1412 10055 92140 333 91214;
0060997359999992005032922004+45050-083450FM-18+0179APNM V0201201N006219999999N9999999N1+00521+99999999999REMSYN051CMAN 29224 APNM4 46/// /1212 10052 92240 333 91213;
0060997359999992005032923004+45050-083450FM-18+0179APNM V0201401N004619999999N9999999N1+00481+99999999999REMSYN051CMAN 29234 APNM4 46/// /1409 10048 92340 333 91211;
0060997359999992005033000004+45050-083450FM-18+0179APNM V0201401N002619999999N9999999N1+00431+99999999999REMSYN051CMAN 30004 APNM4 46/// /1405 10043 90040 333 91207;
0060997359999992005033001004+45050-083450FM-18+0179APNM V0201301N002619999999N9999999N1+00501+99999999999REMSYN051CMAN 30014 APNM4 46/// /1305 10050 90140 333 91205;
0060997359999992005033002004+45050-083450FM-18+0179APNM V0201201N002619999999N9999999N1+00511+99999999999REMSYN051CMAN 30024 APNM4 46/// /1205 10051 90240 333 91206;
0060997359999992005033003004+45050-083450FM-18+0179APNM V0201201N003619999999N9999999N1+00501+99999999999REMSYN051CMAN 30034 APNM4 46/// /1207 10050 90340 333 91208;
0060997359999992005033004004+45050-083450FM-18+0179APNM V0201301N004619999999N9999999N1+00491+99999999999REMSYN051CMAN 30044 APNM4 46/// /1309 10049 90440 333 91210;
0060997359999992005033005004+45050-083450FM-18+0179APNM V0201401N003119999999N9999999N1+00471+99999999999REMSYN051CMAN 30054 APNM4 46/// /1406 10047 90540 333 91208;
0060997359999992005033006004+45050-083450FM-18+0179APNM V0201401N003619999999N9999999N1+00481+99999999999REMSYN051CMAN 30064 APNM4 46/// /1407 10048 90640 333 91208;
0060997359999992005033007004+45050-083450FM-18+0179APNM V0201601N002619999999N9999999N1+00421+99999999999REMSYN051CMAN 30074 APNM4 46/// /1605 10042 90740 333 91206;
0060997359999992005033008004+45050-083450FM-18+0179APNM V0201301N004119999999N9999999N1+00481+99999999999REMSYN051CMAN 30084 APNM4 46/// /1308 10048 90840 333 91209;
0060997359999992005033009004+45050-083450FM-18+0179APNM V0201401N005119999999N9999999N1+00461+99999999999REMSYN051CMAN 30094 APNM4 46/// /1410 10046 90940 333 91212;
0060997359999992005033010004+45050-083450FM-18+0179APNM V0201301N004119999999N9999999N1+00451+99999999999REMSYN051CMAN 30104 APNM4 46/// /1308 10045 91040 333 91208;
0060997359999992005033011004+45050-083450FM-18+0179APNM V0201401N005119999999N9999999N1+00461+99999999999REMSYN051CMAN 30114 APNM4 46/// /1410 10046 91140 333 91211;
0060997359999992005033012004+45050-083450FM-18+0179APNM V0201201N005119999999N9999999N1+00481+99999999999REMSYN051CMAN 30124 APNM4 46/// /1210 10048 91240 333 91212;
0060997359999992005033013004+45050-083450FM-18+0179APNM V0201301N006219999999N9999999N1+00491+99999999999REMSYN051CMAN 30134 APNM4 46/// /1312 10049 91340 333 91214;
0060997359999992005033014004+45050-083450FM-18+0179APNM V0201501N008219999999N9999999N1+00521+99999999999REMSYN051CMAN 30144 APNM4 46/// /1516 10052 91440 333 91219;
0060997359999992005033015004+45050-083450FM-18+0179APNM V0201501N008719999999N9999999N1+00501+99999999999REMSYN051CMAN 30154 APNM4 46/// /1517 10050 91540 333 91220;
0060997359999992005033016004+45050-083450FM-18+0179APNM V0201601N007719999999N9999999N1+00521+99999999999REMSYN051CMAN 30164 APNM4 46/// /1615 10052 91640 333 91218;
0060997359999992005033017004+45050-083450FM-18+0179APNM V0201401N010319999999N9999999N1+00631+99999999999REMSYN051CMAN 30174 APNM4 46/// /1420 10063 91740 333 91222;
0060997359999992005033018004+45050-083450FM-18+0179APNM V0201401N009319999999N9999999N1+00571+99999999999REMSYN051CMAN 30184 APNM4 46/// /1418 10057 91840 333 91221;
0060997359999992005033019004+45050-083450FM-18+0179APNM V0201301N007219999999N9999999N1+00511+99999999999REMSYN051CMAN 30194 APNM4 46/// /1314 10051 91940 333 91216;
0060997359999992005033020004+45050-083450FM-18+0179APNM V0201501N004619999999N9999999N1+00491+99999999999REMSYN051CMAN 30204 APNM4 46/// /1509 10049 92040 333 91210;
0060997359999992005033021004+45050-083450FM-18+0179APNM V0201301N005719999999N9999999N1+00561+99999999999REMSYN051CMAN 30214 APNM4 46/// /1311 10056 92140 333 91212;
0060997359999992005033022004+45050-083450FM-18+0179APNM V0201301N003619999999N9999999N1+00571+99999999999REMSYN051CMAN 30224 APNM4 46/// /1307 10057 92240 333 91208;
0060997359999992005033023004+45050-083450FM-18+0179APNM V0201301N004619999999N9999999N1+00631+99999999999REMSYN051CMAN 30234 APNM4 46/// /1309 10063 92340 333 91211;
0060997359999992005033100004+45050-083450FM-18+0179APNM V0201501N004119999999N9999999N1+00541+99999999999REMSYN051CMAN 31004 APNM4 46/// /1508 10054 90040 333 91209;
0060997359999992005033101004+45050-083450FM-18+0179APNM V0201501N004119999999N9999999N1+00551+99999999999REMSYN051CMAN 31014 APNM4 46/// /1508 10055 90140 333 91210;
0060997359999992005033102004+45050-083450FM-18+0179APNM V0201501N004619999999N9999999N1+00561+99999999999REMSYN051CMAN 31024 APNM4 46/// /1509 10056 90240 333 91211;
0060997359999992005033103004+45050-083450FM-18+0179APNM V0201201N005119999999N9999999N1+00571+99999999999REMSYN051CMAN 31034 APNM4 46/// /1210 10057 90340 333 91212;
0060997359999992005033104004+45050-083450FM-18+0179APNM V0201401N006219999999N9999999N1+00641+99999999999REMSYN051CMAN 31044 APNM4 46/// /1412 10064 90440 333 91215;
0060997359999992005033106004+45050-083450FM-18+0179APNM V0201701N001519999999N9999999N1+00561+99999999999REMSYN051CMAN 31064 APNM4 46/// /1703 10056 90640 333 91204;
0060997359999992005033107004+45050-083450FM-18+0179APNM V0201301N002119999999N9999999N1+00611+99999999999REMSYN051CMAN 31074 APNM4 46/// /1304 10061 90740 333 91205;
0060997359999992005033108004+45050-083450FM-18+0179APNM V0200901N002619999999N9999999N1+00571+99999999999REMSYN051CMAN 31084 APNM4 46/// /0905 10057 90840 333 91207;
0060997359999992005033109004+45050-083450FM-18+0179APNM V0201401N004119999999N9999999N1+00541+99999999999REMSYN051CMAN 31094 APNM4 46/// /1408 10054 90940 333 91210;
0060997359999992005033110004+45050-083450FM-18+0179APNM V0201401N002619999999N9999999N1+00561+99999999999REMSYN051CMAN 31104 APNM4 46/// /1405 10056 91040 333 91206;
0060997359999992005033111004+45050-083450FM-18+0179APNM V0201401N004119999999N9999999N1+00621+99999999999REMSYN051CMAN 31114 APNM4 46/// /1408 10062 91140 333 91209;
0060997359999992005033112004+45050-083450FM-18+0179APNM V0201601N002119999999N9999999N1+00601+99999999999REMSYN051CMAN 31124 APNM4 46/// /1604 10060 91240 333 91206;
0060997359999992005033113004+45050-083450FM-18+0179APNM V0201701N000519999999N9999999N1+00671+99999999999REMSYN051CMAN 31134 APNM4 46/// /1701 10067 91340 333 91203;
0060997359999992005033114004+45050-083450FM-18+0179APNM V0202101N005719999999N9999999N1+01472+99999999999REMSYN051CMAN 31144 APNM4 46/// /2111 10147 91440 333 91214;
0060997359999992005033115004+45050-083450FM-18+0179APNM V0202301N005719999999N9999999N1+01451+99999999999REMSYN051CMAN 31154 APNM4 46/// /2311 10145 91540 333 91216;
0060997359999992005033116004+45050-083450FM-18+0179APNM V0202201N006219999999N9999999N1+01351+99999999999REMSYN051CMAN 31164 APNM4 46/// /2212 10135 91640 333 91217;
0060997359999992005033117004+45050-083450FM-18+0179APNM V0202301N006719999999N9999999N1+01211+99999999999REMSYN051CMAN 31174 APNM4 46/// /2313 10121 91740 333 91220;
0060997359999992005033118004+45050-083450FM-18+0179APNM V0202001N006719999999N9999999N1+01161+99999999999REMSYN051CMAN 31184 APNM4 46/// /2013 10116 91840 333 91215;
0060997359999992005033119004+45050-083450FM-18+0179APNM V0202001N008219999999N9999999N1+01051+99999999999REMSYN051CMAN 31194 APNM4 46/// /2016 10105 91940 333 91219;
0060997359999992005033120004+45050-083450FM-18+0179APNM V0202301N006719999999N9999999N1+01011+99999999999REMSYN051CMAN 31204 APNM4 46/// /2313 10101 92040 333 91220;
0060997359999992005033121004+45050-083450FM-18+0179APNM V0202301N006719999999N9999999N1+00961+99999999999REMSYN051CMAN 31214 APNM4 46/// /2313 10096 92140 333 91217;
0060997359999992005033122004+45050-083450FM-18+0179APNM V0202401N005719999999N9999999N1+00941+99999999999REMSYN051CMAN 31224 APNM4 46/// /2411 10094 92240 333 91219;
0060997359999992005033123004+45050-083450FM-18+0179APNM V0202401N005119999999N9999999N1+00851+99999999999REMSYN051CMAN 31234 APNM4 46/// /2410 10085 92340 333 91218;
0060997359999992005040100004+45050-083450FM-18+0179APNM V0202701N008219999999N9999999N1+00691+99999999999REMSYN051CMAN 01004 APNM4 46/// /2716 10069 90040 333 91226;
0060997359999992005040101004+45050-083450FM-18+0179APNM V0202801N005719999999N9999999N1+00581+99999999999REMSYN051CMAN 01014 APNM4 46/// /2811 10058 90140 333 91216;
0060997359999992005040102004+45050-083450FM-18+0179APNM V0202701N004619999999N9999999N1+00571+99999999999REMSYN051CMAN 01024 APNM4 46/// /2709 10057 90240 333 91214;
0060997359999992005040103004+45050-083450FM-18+0179APNM V0202701N007219999999N9999999N1+00591+99999999999REMSYN051CMAN 01034 APNM4 46/// /2714 10059 90340 333 91224;
0060997359999992005040104004+45050-083450FM-18+0179APNM V0202701N006719999999N9999999N1+00511+99999999999REMSYN051CMAN 01044 APNM4 46/// /2713 10051 90440 333 91221;
0060997359999992005040105004+45050-083450FM-18+0179APNM V0202701N005719999999N9999999N1+00531+99999999999REMSYN051CMAN 01054 APNM4 46/// /2711 10053 90540 333 91217;
0060997359999992005040106004+45050-083450FM-18+0179APNM V0202801N007219999999N9999999N1+00551+99999999999REMSYN051CMAN 01064 APNM4 46/// /2814 10055 90640 333 91222;
0060997359999992005040107004+45050-083450FM-18+0179APNM V0203001N007719999999N9999999N1+00601+99999999999REMSYN051CMAN 01074 APNM4 46/// /3015 10060 90740 333 91227;
0060997359999992005040108004+45050-083450FM-18+0179APNM V0202901N007219999999N9999999N1+00661+99999999999REMSYN051CMAN 01084 APNM4 46/// /2914 10066 90840 333 91225;
0060997359999992005040109004+45050-083450FM-18+0179APNM V0203001N006219999999N9999999N1+00591+99999999999REMSYN051CMAN 01094 APNM4 46/// /3012 10059 90940 333 91217;
0060997359999992005040110004+45050-083450FM-18+0179APNM V0203001N005119999999N9999999N1+00561+99999999999REMSYN051CMAN 01104 APNM4 46/// /3010 10056 91040 333 91215;
0060997359999992005040111004+45050-083450FM-18+0179APNM V0202701N005119999999N9999999N1+00541+99999999999REMSYN051CMAN 01114 APNM4 46/// /2710 10054 91140 333 91215;
0060997359999992005040112004+45050-083450FM-18+0179APNM V0202801N005719999999N9999999N1+00661+99999999999REMSYN051CMAN 01124 APNM4 46/// /2811 10066 91240 333 91217;
0060997359999992005040113004+45050-083450FM-18+0179APNM V0203001N004119999999N9999999N1+00891+99999999999REMSYN051CMAN 01134 APNM4 46/// /3008 10089 91340 333 91213;
0060997359999992005040114004+45050-083450FM-18+0179APNM V0203101N004119999999N9999999N1+01011+99999999999REMSYN051CMAN 01144 APNM4 46/// /3108 10101 91440 333 91212;
0060997359999992005040115004+45050-083450FM-18+0179APNM V0203201N002619999999N9999999N1+01151+99999999999REMSYN051CMAN 01154 APNM4 46/// /3205 10115 91540 333 91210;
0060997359999992005040116004+45050-083450FM-18+0179APNM V0203501N003119999999N9999999N1+01231+99999999999REMSYN051CMAN 01164 APNM4 46/// /3506 10123 91640 333 91211;
0060997359999992005040200004+45050-083450FM-18+0179APNM V0200501N001519999999N9999999N1+00541+99999999999REMSYN051CMAN 02004 APNM4 46/// /0503 10054 90040 333 91205;
0060997359999992005040201004+45050-083450FM-18+0179APNM V0201201N001019999999N9999999N1+00551+99999999999REMSYN051CMAN 02014 APNM4 46/// /1202 10055 90140 333 91203;
0060997359999992005040202004+45050-083450FM-18+0179APNM V0200501N000519999999N9999999N1+00561+99999999999REMSYN051CMAN 02024 APNM4 46/// /0501 10056 90240 333 91202;
0060997359999992005040203004+45050-083450FM-18+0179APNM V0209999C000019999999N9999999N1+00531+99999999999REMSYN051CMAN 02034 APNM4 46/// /0000 10053 90340 333 91201;
0060997359999992005040204004+45050-083450FM-18+0179APNM V0200501N000519999999N9999999N1+00441+99999999999REMSYN051CMAN 02044 APNM4 46/// /0501 10044 90440 333 91202;
0060997359999992005040205004+45050-083450FM-18+0179APNM V0200301N001519999999N9999999N1+00461+99999999999REMSYN051CMAN 02054 APNM4 46/// /0303 10046 90540 333 91204;
0060997359999992005040206004+45050-083450FM-18+0179APNM V0200501N004119999999N9999999N1+00551+99999999999REMSYN051CMAN 02064 APNM4 46/// /0508 10055 90640 333 91209;
0060997359999992005040207004+45050-083450FM-18+0179APNM V0200601N004619999999N9999999N1+00501+99999999999REMSYN051CMAN 02074 APNM4 46/// /0609 10050 90740 333 91210;
0060997359999992005040208004+45050-083450FM-18+0179APNM V0200601N005119999999N9999999N1+00531+99999999999REMSYN051CMAN 02084 APNM4 46/// /0610 10053 90840 333 91211;
0060997359999992005040209004+45050-083450FM-18+0179APNM V0200601N005119999999N9999999N1+00531+99999999999REMSYN051CMAN 02094 APNM4 46/// /0610 10053 90940 333 91213;
0060997359999992005040210004+45050-083450FM-18+0179APNM V0200301N005719999999N9999999N1+00441+99999999999REMSYN051CMAN 02104 APNM4 46/// /0311 10044 91040 333 91213;
0060997359999992005040211004+45050-083450FM-18+0179APNM V0200301N003619999999N9999999N1+00391+99999999999REMSYN051CMAN 02114 APNM4 46/// /0307 10039 91140 333 91211;
0060997359999992005040212004+45050-083450FM-18+0179APNM V0200301N005719999999N9999999N1+00361+99999999999REMSYN051CMAN 02124 APNM4 46/// /0311 10036 91240 333 91214;
0060997359999992005040213004+45050-083450FM-18+0179APNM V0200101N006219999999N9999999N1+00361+99999999999REMSYN051CMAN 02134 APNM4 46/// /0112 10036 91340 333 91217;
0060997359999992005040214004+45050-083450FM-18+0179APNM V0200101N004619999999N9999999N1+00361+99999999999REMSYN051CMAN 02144 APNM4 46/// /0109 10036 91440 333 91213;
0060997359999992005040215004+45050-083450FM-18+0179APNM V0200201N005119999999N9999999N1+00341+99999999999REMSYN051CMAN 02154 APNM4 46/// /0210 10034 91540 333 91214;
0060997359999992005040216004+45050-083450FM-18+0179APNM V0200301N006219999999N9999999N1+00451+99999999999REMSYN051CMAN 02164 APNM4 46/// /0312 10045 91640 333 91217;
0060997359999992005040217004+45050-083450FM-18+0179APNM V0200301N007219999999N9999999N1+00591+99999999999REMSYN051CMAN 02174 APNM4 46/// /0314 10059 91740 333 91222;
0060997359999992005040218004+45050-083450FM-18+0179APNM V0203601N005119999999N9999999N1+00781+99999999999REMSYN051CMAN 02184 APNM4 46/// /3610 10078 91840 333 91213;
0060997359999992005040219004+45050-083450FM-18+0179APNM V0203501N005719999999N9999999N1+00871+99999999999REMSYN051CMAN 02194 APNM4 46/// /3511 10087 91940 333 91217;
0060997359999992005040221004+45050-083450FM-18+0179APNM V0203401N007219999999N9999999N1+01101+99999999999REMSYN051CMAN 02214 APNM4 46/// /3414 10110 92140 333 91221;
0060997359999992005040222004+45050-083450FM-18+0179APNM V0203501N005119999999N9999999N1+01131+99999999999REMSYN051CMAN 02224 APNM4 46/// /3510 10113 92240 333 91214;
0060997359999992005040223004+45050-083450FM-18+0179APNM V0203401N004619999999N9999999N1+01031+99999999999REMSYN051CMAN 02234 APNM4 46/// /3409 10103 92340 333 91217;
0060997359999992005040300004+45050-083450FM-18+0179APNM V0203301N002619999999N9999999N1+00791+99999999999REMSYN051CMAN 03004 APNM4 46/// /3305 10079 90040 333 91211;
0060997359999992005040301004+45050-083450FM-18+0179APNM V0203401N004619999999N9999999N1+00691+99999999999REMSYN051CMAN 03014 APNM4 46/// /3409 10069 90140 333 91213;
0060997359999992005040302004+45050-083450FM-18+0179APNM V0203501N003619999999N9999999N1+00621+99999999999REMSYN051CMAN 03024 APNM4 46/// /3507 10062 90240 333 91210;
0060997359999992005040303004+45050-083450FM-18+0179APNM V0203501N004119999999N9999999N1+00591+99999999999REMSYN051CMAN 03034 APNM4 46/// /3508 10059 90340 333 91213;
0060997359999992005040304004+45050-083450FM-18+0179APNM V0203301N002619999999N9999999N1+00491+99999999999REMSYN051CMAN 03044 APNM4 46/// /3305 10049 90440 333 91208;
0060997359999992005040305004+45050-083450FM-18+0179APNM V0203401N003119999999N9999999N1+00501+99999999999REMSYN051CMAN 03054 APNM4 46/// /3406 10050 90540 333 91211;
0060997359999992005040306004+45050-083450FM-18+0179APNM V0203101N002619999999N9999999N1+00411+99999999999REMSYN051CMAN 03064 APNM4 46/// /3105 10041 90640 333 91208;
0060997359999992005040307004+45050-083450FM-18+0179APNM V0203301N003619999999N9999999N1+00441+99999999999REMSYN051CMAN 03074 APNM4 46/// /3307 10044 90740 333 91211;
0060997359999992005040308004+45050-083450FM-18+0179APNM V0203401N004119999999N9999999N1+00401+99999999999REMSYN051CMAN 03084 APNM4 46/// /3408 10040 90840 333 91213;
0060997359999992005040309004+45050-083450FM-18+0179APNM V0203301N003619999999N9999999N1+00371+99999999999REMSYN051CMAN 03094 APNM4 46/// /3307 10037 90940 333 91215;
0060997359999992005040310004+45050-083450FM-18+0179APNM V0203301N004119999999N9999999N1+00331+99999999999REMSYN051CMAN 03104 APNM4 46/// /3308 10033 91040 333 91214;
0060997359999992005040311004+45050-083450FM-18+0179APNM V0203401N005119999999N9999999N1+00341+99999999999REMSYN051CMAN 03114 APNM4 46/// /3410 10034 91140 333 91219;
0060997359999992005040312004+45050-083450FM-18+0179APNM V0203401N004619999999N9999999N1+00361+99999999999REMSYN051CMAN 03124 APNM4 46/// /3409 10036 91240 333 91215;
0060997359999992005040313004+45050-083450FM-18+0179APNM V0203301N005719999999N9999999N1+00391+99999999999REMSYN051CMAN 03134 APNM4 46/// /3311 10039 91340 333 91218;
0060997359999992005040314004+45050-083450FM-18+0179APNM V0203401N005719999999N9999999N1+00621+99999999999REMSYN051CMAN 03144 APNM4 46/// /3411 10062 91440 333 91223;
0060997359999992005040315004+45050-083450FM-18+0179APNM V0203401N005119999999N9999999N1+00741+99999999999REMSYN051CMAN 03154 APNM4 46/// /3410 10074 91540 333 91218;
0060997359999992005040316004+45050-083450FM-18+0179APNM V0203201N005719999999N9999999N1+00811+99999999999REMSYN051CMAN 03164 APNM4 46/// /3211 10081 91640 333 91223;
0060997359999992005040317004+45050-083450FM-18+0179APNM V0203301N006219999999N9999999N1+00981+99999999999REMSYN051CMAN 03174 APNM4 46/// /3312 10098 91740 333 91221;
0060997359999992005040318004+45050-083450FM-18+0179APNM V0203401N007219999999N9999999N1+01081+99999999999REMSYN051CMAN 03184 APNM4 46/// /3414 10108 91840 333 91223;
0060997359999992005040319004+45050-083450FM-18+0179APNM V0203201N007219999999N9999999N1+01161+99999999999REMSYN051CMAN 03194 APNM4 46/// /3214 10116 91940 333 91225;
0060997359999992005040320004+45050-083450FM-18+0179APNM V0203301N005119999999N9999999N1+01241+99999999999REMSYN051CMAN 03204 APNM4 46/// /3310 10124 92040 333 91219;
0060997359999992005040321004+45050-083450FM-18+0179APNM V0203101N007219999999N9999999N1+01251+99999999999REMSYN051CMAN 03214 APNM4 46/// /3114 10125 92140 333 91227;
0060997359999992005040322004+45050-083450FM-18+0179APNM V0203301N005119999999N9999999N1+01221+99999999999REMSYN051CMAN 03224 APNM4 46/// /3310 10122 92240 333 91221;
0060997359999992005040323004+45050-083450FM-18+0179APNM V0203201N004619999999N9999999N1+01101+99999999999REMSYN051CMAN 03234 APNM4 46/// /3209 10110 92340 333 91220;
0060997359999992005040400004+45050-083450FM-18+0179APNM V0203201N004119999999N9999999N1+00971+99999999999REMSYN051CMAN 04004 APNM4 46/// /3208 10097 90040 333 91214;
0060997359999992005040411004+45050-083450FM-18+0179APNM V0203001N003119999999N9999999N1+00251+99999999999REMSYN051CMAN 04114 APNM4 46/// /3006 10025 91140 333 91209;
0060997359999992005040412004+45050-083450FM-18+0179APNM V0203001N003119999999N9999999N1+00491+99999999999REMSYN051CMAN 04124 APNM4 46/// /3006 10049 91240 333 91209;
0060997359999992005040413004+45050-083450FM-18+0179APNM V0203101N004119999999N9999999N1+00761+99999999999REMSYN051CMAN 04134 APNM4 46/// /3108 10076 91340 333 91212;
0060997359999992005040414004+45050-083450FM-18+0179APNM V0203101N004119999999N9999999N1+01001+99999999999REMSYN051CMAN 04144 APNM4 46/// /3108 10100 91440 333 91214;
0060997359999992005040415004+45050-083450FM-18+0179APNM V0203201N004619999999N9999999N1+01171+99999999999REMSYN051CMAN 04154 APNM4 46/// /3209 10117 91540 333 91213;
0060997359999992005040416004+45050-083450FM-18+0179APNM V0203201N004119999999N9999999N1+01281+99999999999REMSYN051CMAN 04164 APNM4 46/// /3208 10128 91640 333 91214;
0060997359999992005040417004+45050-083450FM-18+0179APNM V0203401N003619999999N9999999N1+01421+99999999999REMSYN051CMAN 04174 APNM4 46/// /3407 10142 91740 333 91211;
0060997359999992005040418004+45050-083450FM-18+0179APNM V0203401N004619999999N9999999N1+01541+99999999999REMSYN051CMAN 04184 APNM4 46/// /3409 10154 91840 333 91213;
0060997359999992005040419004+45050-083450FM-18+0179APNM V0203301N003119999999N9999999N1+01611+99999999999REMSYN051CMAN 04194 APNM4 46/// /3306 10161 91940 333 91211;
0060997359999992005040420004+45050-083450FM-18+0179APNM V0203201N003619999999N9999999N1+01691+99999999999REMSYN051CMAN 04204 APNM4 46/// /3207 10169 92040 333 91211;
0060997359999992005040421004+45050-083450FM-18+0179APNM V0203401N003619999999N9999999N1+01691+99999999999REMSYN051CMAN 04214 APNM4 46/// /3407 10169 92140 333 91211;
0060997359999992005040422004+45050-083450FM-18+0179APNM V0203401N002619999999N9999999N1+01691+99999999999REMSYN051CMAN 04224 APNM4 46/// /3405 10169 92240 333 91208;
0060997359999992005040423004+45050-083450FM-18+0179APNM V0202101N001519999999N9999999N1+01221+99999999999REMSYN051CMAN 04234 APNM4 46/// /2103 10122 92340 333 91204;
0060997359999992005040500004+45050-083450FM-18+0179APNM V0201901N002119999999N9999999N1+00751+99999999999REMSYN051CMAN 05004 APNM4 46/// /1904 10075 90040 333 91205;
0060997359999992005040501004+45050-083450FM-18+0179APNM V0200701N002119999999N9999999N1+00731+99999999999REMSYN051CMAN 05014 APNM4 46/// /0704 10073 90140 333 91204;
0060997359999992005040502004+45050-083450FM-18+0179APNM V0209999C000019999999N9999999N1+00681+99999999999REMSYN051CMAN 05024 APNM4 46/// /0000 10068 90240 333 91201;
0060997359999992005040503004+45050-083450FM-18+0179APNM V0200501N001519999999N9999999N1+00661+99999999999REMSYN051CMAN 05034 APNM4 46/// /0503 10066 90340 333 91203;
0060997359999992005040504004+45050-083450FM-18+0179APNM V0200601N001019999999N9999999N1+00611+99999999999REMSYN051CMAN 05044 APNM4 46/// /0602 10061 90440 333 91203;
0060997359999992005040505004+45050-083450FM-18+0179APNM V0200801N001519999999N9999999N1+00621+99999999999REMSYN051CMAN 05054 APNM4 46/// /0803 10062 90540 333 91204;
0060997359999992005040506004+45050-083450FM-18+0179APNM V0209999C000019999999N9999999N1+00571+99999999999REMSYN051CMAN 05064 APNM4 46/// /0000 10057 90640 333 91201;
0060997359999992005040507004+45050-083450FM-18+0179APNM V0200901N001519999999N9999999N1+00591+99999999999REMSYN051CMAN 05074 APNM4 46/// /0903 10059 90740 333 91204;
0060997359999992005040508004+45050-083450FM-18+0179APNM V0201101N003619999999N9999999N1+00561+99999999999REMSYN051CMAN 05084 APNM4 46/// /1107 10056 90840 333 91208;
0060997359999992005040509004+45050-083450FM-18+0179APNM V0201501N004119999999N9999999N1+00591+99999999999REMSYN051CMAN 05094 APNM4 46/// /1508 10059 90940 333 91209;
0060997359999992005040510004+45050-083450FM-18+0179APNM V0201301N005119999999N9999999N1+00581+99999999999REMSYN051CMAN 05104 APNM4 46/// /1310 10058 91040 333 91211;
0060997359999992005040511004+45050-083450FM-18+0179APNM V0201401N005119999999N9999999N1+00631+99999999999REMSYN051CMAN 05114 APNM4 46/// /1410 10063 91140 333 91211;
0060997359999992005040512004+45050-083450FM-18+0179APNM V0201301N006719999999N9999999N1+00641+99999999999REMSYN051CMAN 05124 APNM4 46/// /1313 10064 91240 333 91215;
0060997359999992005040513004+45050-083450FM-18+0179APNM V0201201N006719999999N9999999N1+00581+99999999999REMSYN051CMAN 05134 APNM4 46/// /1213 10058 91340 333 91215;
0060997359999992005040514004+45050-083450FM-18+0179APNM V0201301N008719999999N9999999N1+00571+99999999999REMSYN051CMAN 05144 APNM4 46/// /1317 10057 91440 333 91221;
0060997359999992005040515004+45050-083450FM-18+0179APNM V0201201N009319999999N9999999N1+00571+99999999999REMSYN051CMAN 05154 APNM4 46/// /1218 10057 91540 333 91221;
0060997359999992005040516004+45050-083450FM-18+0179APNM V0201201N009819999999N9999999N1+00571+99999999999REMSYN051CMAN 05164 APNM4 46/// /1219 10057 91640 333 91223;
0060997359999992005040517004+45050-083450FM-18+0179APNM V0201301N009819999999N9999999N1+00581+99999999999REMSYN051CMAN 05174 APNM4 46/// /1319 10058 91740 333 91221;
0060997359999992005040518004+45050-083450FM-18+0179APNM V0201201N007219999999N9999999N1+00611+99999999999REMSYN051CMAN 05184 APNM4 46/// /1214 10061 91840 333 91217;
0060997359999992005040519004+45050-083450FM-18+0179APNM V0201501N005119999999N9999999N1+00641+99999999999REMSYN051CMAN 05194 APNM4 46/// /1510 10064 91940 333 91212;
0060997359999992005040520004+45050-083450FM-18+0179APNM V0200801N001019999999N9999999N1+00831+99999999999REMSYN051CMAN 05204 APNM4 46/// /0802 10083 92040 333 91204;
0060997359999992005040521004+45050-083450FM-18+0179APNM V0201101N002119999999N9999999N1+00801+99999999999REMSYN051CMAN 05214 APNM4 46/// /1104 10080 92140 333 91205;
0060997359999992005040522004+45050-083450FM-18+0179APNM V0200601N001519999999N9999999N1+00801+99999999999REMSYN051CMAN 05224 APNM4 46/// /0603 10080 92240 333 91204;
0060997359999992005040523004+45050-083450FM-18+0179APNM V0200701N002119999999N9999999N1+00741+99999999999REMSYN051CMAN 05234 APNM4 46/// /0704 10074 92340 333 91205;
0060997359999992005040600004+45050-083450FM-18+0179APNM V0203601N004119999999N9999999N1+00881+99999999999REMSYN051CMAN 06004 APNM4 46/// /3608 10088 90040 333 91212;
0060997359999992005040601004+45050-083450FM-18+0179APNM V0203601N003119999999N9999999N1+00701+99999999999REMSYN051CMAN 06014 APNM4 46/// /3606 10070 90140 333 91208;
0060997359999992005040611004+45050-083450FM-18+0179APNM V0200601N005119999999N9999999N1+00601+99999999999REMSYN051CMAN 06114 APNM4 46/// /0610 10060 91140 333 91212;
0060997359999992005040612004+45050-083450FM-18+0179APNM V0200701N004119999999N9999999N1+00621+99999999999REMSYN051CMAN 06124 APNM4 46/// /0708 10062 91240 333 91209;
0060997359999992005040615004+45050-083450FM-18+0179APNM V0200601N008219999999N9999999N1+00691+99999999999REMSYN051CMAN 06154 APNM4 46/// /0616 10069 91540 333 91219;
0060997359999992005040616004+45050-083450FM-18+0179APNM V0200701N005719999999N9999999N1+00701+99999999999REMSYN051CMAN 06164 APNM4 46/// /0711 10070 91640 333 91213;
0060997359999992005040617004+45050-083450FM-18+0179APNM V0200701N006719999999N9999999N1+00711+99999999999REMSYN051CMAN 06174 APNM4 46/// /0713 10071 91740 333 91215;
0060997359999992005040618004+45050-083450FM-18+0179APNM V0200901N005119999999N9999999N1+00651+99999999999REMSYN051CMAN 06184 APNM4 46/// /0910 10065 91840 333 91212;
0060997359999992005040620004+45050-083450FM-18+0179APNM V0201101N002119999999N9999999N1+00671+99999999999REMSYN051CMAN 06204 APNM4 46/// /1104 10067 92040 333 91206;
0060997359999992005040621004+45050-083450FM-18+0179APNM V0200701N005719999999N9999999N1+00751+99999999999REMSYN051CMAN 06214 APNM4 46/// /0711 10075 92140 333 91213;
0060997359999992005040622004+45050-083450FM-18+0179APNM V0200401N005719999999N9999999N1+00881+99999999999REMSYN051CMAN 06224 APNM4 46/// /0411 10088 92240 333 91217;
0060997359999992005040623004+45050-083450FM-18+0179APNM V0200501N008219999999N9999999N1+00771+99999999999REMSYN051CMAN 06234 APNM4 46/// /0516 10077 92340 333 91219;
0060997359999992005040700004+45050-083450FM-18+0179APNM V0200701N006719999999N9999999N1+00711+99999999999REMSYN051CMAN 07004 APNM4 46/// /0713 10071 90040 333 91216;
0060997359999992005040701004+45050-083450FM-18+0179APNM V0200801N006719999999N9999999N1+00691+99999999999REMSYN051CMAN 07014 APNM4 46/// /0813 10069 90140 333 91216;
0060997359999992005040702004+45050-083450FM-18+0179APNM V0200701N005719999999N9999999N1+00681+99999999999REMSYN051CMAN 07024 APNM4 46/// /0711 10068 90240 333 91213;
0060997359999992005040703004+45050-083450FM-18+0179APNM V0201401N002619999999N9999999N1+00651+99999999999REMSYN051CMAN 07034 APNM4 46/// /1405 10065 90340 333 91207;
0060997359999992005040704004+45050-083450FM-18+0179APNM V0200501N003619999999N9999999N1+00621+99999999999REMSYN051CMAN 07044 APNM4 46/// /0507 10062 90440 333 91208;
0060997359999992005040705004+45050-083450FM-18+0179APNM V0203601N003619999999N9999999N1+00611+99999999999REMSYN051CMAN 07054 APNM4 46/// /3607 10061 90540 333 91209;
0060997359999992005040706004+45050-083450FM-18+0179APNM V0200101N004119999999N9999999N1+00581+99999999999REMSYN051CMAN 07064 APNM4 46/// /0108 10058 90640 333 91212;
0060997359999992005040707004+45050-083450FM-18+0179APNM V0203501N002619999999N9999999N1+00601+99999999999REMSYN051CMAN 07074 APNM4 46/// /3505 10060 90740 333 91208;
0060997359999992005040708004+45050-083450FM-18+0179APNM V0203501N004119999999N9999999N1+00561+99999999999REMSYN051CMAN 07084 APNM4 46/// /3508 10056 90840 333 91210;
0060997359999992005040709004+45050-083450FM-18+0179APNM V0203401N003119999999N9999999N1+00581+99999999999REMSYN051CMAN 07094 APNM4 46/// /3406 10058 90940 333 91209;
0060997359999992005040710004+45050-083450FM-18+0179APNM V0203601N003119999999N9999999N1+00631+99999999999REMSYN051CMAN 07104 APNM4 46/// /3606 10063 91040 333 91209;
0060997359999992005040711004+45050-083450FM-18+0179APNM V0203601N004619999999N9999999N1+00551+99999999999REMSYN051CMAN 07114 APNM4 46/// /3609 10055 91140 333 91212;
0060997359999992005040712004+45050-083450FM-18+0179APNM V0200101N005719999999N9999999N1+00591+99999999999REMSYN051CMAN 07124 APNM4 46/// /0111 10059 91240 333 91217;
0088997359999992005040713004+45050-083450FM-18+0179APNM V0203601N004119999999N9999999N1+00651+99999999999REMSYN079CMAN  07134 APNM4 46/// /3608 10065 9134 40160 91259 333 91219 555 11010 22012;
0060997359999992005040714004+45050-083450FM-18+0179APNM V0200201N004119999999N9999999N1+00801+99999999999REMSYN051CMAN 07144 APNM4 46/// /0208 10080 91440 333 91213;
0060997359999992005040715004+45050-083450FM-18+0179APNM V0200301N005719999999N9999999N1+01001+99999999999REMSYN051CMAN 07154 APNM4 46/// /0311 10100 91540 333 91215;
0060997359999992005040716004+45050-083450FM-18+0179APNM V0200201N004119999999N9999999N1+01131+99999999999REMSYN051CMAN 07164 APNM4 46/// /0208 10113 91640 333 91212;
0060997359999992005040717004+45050-083450FM-18+0179APNM V0200101N004619999999N9999999N1+01241+99999999999REMSYN051CMAN 07174 APNM4 46/// /0109 10124 91740 333 91213;
0060997359999992005040718004+45050-083450FM-18+0179APNM V0200101N005119999999N9999999N1+01341+99999999999REMSYN051CMAN 07184 APNM4 46/// /0110 10134 91840 333 91214;
0060997359999992005040719004+45050-083450FM-18+0179APNM V0200101N004619999999N9999999N1+01481+99999999999REMSYN051CMAN 07194 APNM4 46/// /0109 10148 91940 333 91212;
0060997359999992005040720004+45050-083450FM-18+0179APNM V0203401N003119999999N9999999N1+01611+99999999999REMSYN051CMAN 07204 APNM4 46/// /3406 10161 92040 333 91210;
0060997359999992005040721004+45050-083450FM-18+0179APNM V0203401N003619999999N9999999N1+01641+99999999999REMSYN051CMAN 07214 APNM4 46/// /3407 10164 92140 333 91214;
0060997359999992005040722004+45050-083450FM-18+0179APNM V0203401N003619999999N9999999N1+01591+99999999999REMSYN051CMAN 07224 APNM4 46/// /3407 10159 92240 333 91213;
0060997359999992005040723004+45050-083450FM-18+0179APNM V0203401N003619999999N9999999N1+01501+99999999999REMSYN051CMAN 07234 APNM4 46/// /3407 10150 92340 333 91211;
0060997359999992005040800004+45050-083450FM-18+0179APNM V0203401N002119999999N9999999N1+01301+99999999999REMSYN051CMAN 08004 APNM4 46/// /3404 10130 90040 333 91206;
0060997359999992005040801004+45050-083450FM-18+0179APNM V0203101N003619999999N9999999N1+01201+99999999999REMSYN051CMAN 08014 APNM4 46/// /3107 10120 90140 333 91209;
0060997359999992005040802004+45050-083450FM-18+0179APNM V0203201N002619999999N9999999N1+01151+99999999999REMSYN051CMAN 08024 APNM4 46/// /3205 10115 90240 333 91211;
0060997359999992005040803004+45050-083450FM-18+0179APNM V0203101N002619999999N9999999N1+00971+99999999999REMSYN051CMAN 08034 APNM4 46/// /3105 10097 90340 333 91209;
0060997359999992005040804004+45050-083450FM-18+0179APNM V0203201N003119999999N9999999N1+00901+99999999999REMSYN051CMAN 08044 APNM4 46/// /3206 10090 90440 333 91209;
0060997359999992005040805004+45050-083450FM-18+0179APNM V0203201N002619999999N9999999N1+00791+99999999999REMSYN051CMAN 08054 APNM4 46/// /3205 10079 90540 333 91208;
0060997359999992005040806004+45050-083450FM-18+0179APNM V0203201N002119999999N9999999N1+00711+99999999999REMSYN051CMAN 08064 APNM4 46/// /3204 10071 90640 333 91208;
0060997359999992005040807004+45050-083450FM-18+0179APNM V0203201N002119999999N9999999N1+00631+99999999999REMSYN051CMAN 08074 APNM4 46/// /3204 10063 90740 333 91208;
0060997359999992005040808004+45050-083450FM-18+0179APNM V0203401N003119999999N9999999N1+00571+99999999999REMSYN051CMAN 08084 APNM4 46/// /3406 10057 90840 333 91209;
0068997359999992005040809004+45050-083450FM-18+0179APNM V0203401N002119999999N9999999N1+00531+99999999999REMSYN059CMAN  08094 APNM4 46/// /3404 10053 9094 90948 222// 00151;
0060997359999992005040810004+45050-083450FM-18+0179APNM V0203401N001019999999N9999999N1+00521+99999999999REMSYN051CMAN 08104 APNM4 46/// /3402 10052 91040 333 91206;
0060997359999992005040811004+45050-083450FM-18+0179APNM V0203101N002119999999N9999999N1+00561+99999999999REMSYN051CMAN 08114 APNM4 46/// /3104 10056 91140 333 91205;
0060997359999992005040812004+45050-083450FM-18+0179APNM V0203501N002119999999N9999999N1+00731+99999999999REMSYN051CMAN 08124 APNM4 46/// /3504 10073 91240 333 91206;
0060997359999992005040813004+45050-083450FM-18+0179APNM V0200401N004119999999N9999999N1+00921+99999999999REMSYN051CMAN 08134 APNM4 46/// /0408 10092 91340 333 91211;
0060997359999992005040814004+45050-083450FM-18+0179APNM V0200601N004619999999N9999999N1+00991+99999999999REMSYN051CMAN 08144 APNM4 46/// /0609 10099 91440 333 91213;
0060997359999992005040815004+45050-083450FM-18+0179APNM V0200701N005719999999N9999999N1+00981+99999999999REMSYN051CMAN 08154 APNM4 46/// /0711 10098 91540 333 91213;
0060997359999992005040816004+45050-083450FM-18+0179APNM V0200801N004119999999N9999999N1+00921+99999999999REMSYN051CMAN 08164 APNM4 46/// /0808 10092 91640 333 91210;
0060997359999992005040817004+45050-083450FM-18+0179APNM V0201001N004619999999N9999999N1+00951+99999999999REMSYN051CMAN 08174 APNM4 46/// /1009 10095 91740 333 91212;
0060997359999992005040818004+45050-083450FM-18+0179APNM V0201501N005719999999N9999999N1+00831+99999999999REMSYN051CMAN 08184 APNM4 46/// /1511 10083 91840 333 91212;
0060997359999992005040819004+45050-083450FM-18+0179APNM V0201301N005719999999N9999999N1+00851+99999999999REMSYN051CMAN 08194 APNM4 46/// /1311 10085 91940 333 91213;
0060997359999992005040820004+45050-083450FM-18+0179APNM V0201401N004619999999N9999999N1+00851+99999999999REMSYN051CMAN 08204 APNM4 46/// /1409 10085 92040 333 91211;
0060997359999992005040821004+45050-083450FM-18+0179APNM V0201301N005119999999N9999999N1+00791+99999999999REMSYN051CMAN 08214 APNM4 46/// /1310 10079 92140 333 91211;
0060997359999992005040822004+45050-083450FM-18+0179APNM V0201401N004119999999N9999999N1+00791+99999999999REMSYN051CMAN 08224 APNM4 46/// /1408 10079 92240 333 91209;
0060997359999992005040823004+45050-083450FM-18+0179APNM V0201701N002619999999N9999999N1+00761+99999999999REMSYN051CMAN 08234 APNM4 46/// /1705 10076 92340 333 91206;
0060997359999992005040900004+45050-083450FM-18+0179APNM V0201201N002119999999N9999999N1+00721+99999999999REMSYN051CMAN 09004 APNM4 46/// /1204 10072 90040 333 91205;
0060997359999992005040901004+45050-083450FM-18+0179APNM V0201701N002619999999N9999999N1+00671+99999999999REMSYN051CMAN 09014 APNM4 46/// /1705 10067 90140 333 91206;
0060997359999992005040902004+45050-083450FM-18+0179APNM V0202601N001519999999N9999999N1+00611+99999999999REMSYN051CMAN 09024 APNM4 46/// /2603 10061 90240 333 91205;
0060997359999992005040903004+45050-083450FM-18+0179APNM V0202801N001519999999N9999999N1+00501+99999999999REMSYN051CMAN 09034 APNM4 46/// /2803 10050 90340 333 91204;
0060997359999992005040904004+45050-083450FM-18+0179APNM V0209999C000019999999N9999999N1+00321+99999999999REMSYN051CMAN 09044 APNM4 46/// /0000 10032 90440 333 91200;
0060997359999992005040905004+45050-083450FM-18+0179APNM V0203501N001019999999N9999999N1+00231+99999999999REMSYN051CMAN 09054 APNM4 46/// /3502 10023 90540 333 91202;
0060997359999992005040906004+45050-083450FM-18+0179APNM V0203001N000519999999N9999999N1+00321+99999999999REMSYN051CMAN 09064 APNM4 46/// /3001 10032 90640 333 91202;
0060997359999992005040907004+45050-083450FM-18+0179APNM V0202701N001519999999N9999999N1+00231+99999999999REMSYN051CMAN 09074 APNM4 46/// /2703 10023 90740 333 91204;
0060997359999992005040908004+45050-083450FM-18+0179APNM V0203201N001019999999N9999999N1+00091+99999999999REMSYN051CMAN 09084 APNM4 46/// /3202 10009 90840 333 91203;
0060997359999992005040909004+45050-083450FM-18+0179APNM V0209999C000019999999N9999999N1+00071+99999999999REMSYN051CMAN 09094 APNM4 46/// /0000 10007 90940 333 91200;
0060997359999992005040910004+45050-083450FM-18+0179APNM V0202901N000519999999N9999999N1+00171+99999999999REMSYN051CMAN 09104 APNM4 46/// /2901 10017 91040 333 91202;
0060997359999992005040911004+45050-083450FM-18+0179APNM V0203201N001019999999N9999999N1+00361+99999999999REMSYN051CMAN 09114 APNM4 46/// /3202 10036 91140 333 91203;
0060997359999992005040912004+45050-083450FM-18+0179APNM V0209999C000019999999N9999999N1+00681+99999999999REMSYN051CMAN 09124 APNM4 46/// /0000 10068 91240 333 91200;
0060997359999992005040913004+45050-083450FM-18+0179APNM V0201001N001519999999N9999999N1+00601+99999999999REMSYN051CMAN 09134 APNM4 46/// /1003 10060 91340 333 91204;
0060997359999992005040914004+45050-083450FM-18+0179APNM V0201301N003119999999N9999999N1+00591+99999999999REMSYN051CMAN 09144 APNM4 46/// /1306 10059 91440 333 91207;
0060997359999992005040915004+45050-083450FM-18+0179APNM V0201301N003119999999N9999999N1+00621+99999999999REMSYN051CMAN 09154 APNM4 46/// /1306 10062 91540 333 91207;
0060997359999992005040916004+45050-083450FM-18+0179APNM V0201301N003619999999N9999999N1+00591+99999999999REMSYN051CMAN 09164 APNM4 46/// /1307 10059 91640 333 91209;
0060997359999992005040917004+45050-083450FM-18+0179APNM V0201401N003119999999N9999999N1+00641+99999999999REMSYN051CMAN 09174 APNM4 46/// /1406 10064 91740 333 91207;
0060997359999992005040918004+45050-083450FM-18+0179APNM V0201201N002619999999N9999999N1+00811+99999999999REMSYN051CMAN 09184 APNM4 46/// /1205 10081 91840 333 91207;
0060997359999992005040919004+45050-083450FM-18+0179APNM V0201201N006219999999N9999999N1+00791+99999999999REMSYN051CMAN 09194 APNM4 46/// /1212 10079 91940 333 91216;
0060997359999992005040920004+45050-083450FM-18+0179APNM V0201101N006219999999N9999999N1+00841+99999999999REMSYN051CMAN 09204 APNM4 46/// /1112 10084 92040 333 91213;
0060997359999992005040921004+45050-083450FM-18+0179APNM V0201401N008219999999N9999999N1+00941+99999999999REMSYN051CMAN 09214 APNM4 46/// /1416 10094 92140 333 91218;
0060997359999992005040922004+45050-083450FM-18+0179APNM V0201301N006219999999N9999999N1+00931+99999999999REMSYN051CMAN 09224 APNM4 46/// /1312 10093 92240 333 91214;
0060997359999992005040923004+45050-083450FM-18+0179APNM V0201201N005119999999N9999999N1+00931+99999999999REMSYN051CMAN 09234 APNM4 46/// /1210 10093 92340 333 91211;
0060997359999992005041000004+45050-083450FM-18+0179APNM V0201501N005719999999N9999999N1+01011+99999999999REMSYN051CMAN 10004 APNM4 46/// /1511 10101 90040 333 91212;
0060997359999992005041001004+45050-083450FM-18+0179APNM V0201301N001519999999N9999999N1+00921+99999999999REMSYN051CMAN 10014 APNM4 46/// /1303 10092 90140 333 91204;
0060997359999992005041002004+45050-083450FM-18+0179APNM V0201101N003619999999N9999999N1+00831+99999999999REMSYN051CMAN 10024 APNM4 46/// /1107 10083 90240 333 91208;
0060997359999992005041003004+45050-083450FM-18+0179APNM V0201301N004119999999N9999999N1+00801+99999999999REMSYN051CMAN 10034 APNM4 46/// /1308 10080 90340 333 91209;
0068997359999992005041004004+45050-083450FM-18+0179APNM V0201201N003119999999N9999999N1+00801+99999999999REMSYN059CMAN  10044 APNM4 46/// /1206 10080 9044 90448 222// 00154;
0060997359999992005041005004+45050-083450FM-18+0179APNM V0201201N003119999999N9999999N1+00761+99999999999REMSYN051CMAN 10054 APNM4 46/// /1206 10076 90540 333 91206;
0060997359999992005041006004+45050-083450FM-18+0179APNM V0200801N002119999999N9999999N1+00781+99999999999REMSYN051CMAN 10064 APNM4 46/// /0804 10078 90640 333 91205;
0060997359999992005041007004+45050-083450FM-18+0179APNM V0200601N001019999999N9999999N1+00661+99999999999REMSYN051CMAN 10074 APNM4 46/// /0602 10066 90740 333 91203;
0060997359999992005041008004+45050-083450FM-18+0179APNM V0203601N001019999999N9999999N1+00561+99999999999REMSYN051CMAN 10084 APNM4 46/// /3602 10056 90840 333 91202;
0060997359999992005041009004+45050-083450FM-18+0179APNM V0203001N000519999999N9999999N1+00511+99999999999REMSYN051CMAN 10094 APNM4 46/// /3001 10051 90940 333 91202;
0060997359999992005041010004+45050-083450FM-18+0179APNM V0203001N002119999999N9999999N1+00401+99999999999REMSYN051CMAN 10104 APNM4 46/// /3004 10040 91040 333 91205;
0060997359999992005041011004+45050-083450FM-18+0179APNM V0209999C000019999999N9999999N1+00371+99999999999REMSYN051CMAN 10114 APNM4 46/// /0000 10037 91140 333 91202;
0060997359999992005041012004+45050-083450FM-18+0179APNM V0200501N001019999999N9999999N1+00601+99999999999REMSYN051CMAN 10124 APNM4 46/// /0502 10060 91240 333 91203;
0060997359999992005041013004+45050-083450FM-18+0179APNM V0200801N002119999999N9999999N1+00761+99999999999REMSYN051CMAN 10134 APNM4 46/// /0804 10076 91340 333 91205;
0060997359999992005041014004+45050-083450FM-18+0179APNM V0201501N002119999999N9999999N1+00861+99999999999REMSYN051CMAN 10144 APNM4 46/// /1504 10086 91440 333 91205;
0060997359999992005041015004+45050-083450FM-18+0179APNM V0201401N003119999999N9999999N1+00841+99999999999REMSYN051CMAN 10154 APNM4 46/// /1406 10084 91540 333 91207;
0060997359999992005041017004+45050-083450FM-18+0179APNM V0201101N003619999999N9999999N1+00821+99999999999REMSYN051CMAN 10174 APNM4 46/// /1107 10082 91740 333 91208;
0060997359999992005041018004+45050-083450FM-18+0179APNM V0200801N005719999999N9999999N1+00911+99999999999REMSYN051CMAN 10184 APNM4 46/// /0811 10091 91840 333 91213;
0060997359999992005041019004+45050-083450FM-18+0179APNM V0201001N004119999999N9999999N1+00891+99999999999REMSYN051CMAN 10194 APNM4 46/// /1008 10089 91940 333 91209;
0060997359999992005041020004+45050-083450FM-18+0179APNM V0200901N004119999999N9999999N1+00941+99999999999REMSYN051CMAN 10204 APNM4 46/// /0908 10094 92040 333 91209;
0060997359999992005041021004+45050-083450FM-18+0179APNM V0200901N007719999999N9999999N1+00971+99999999999REMSYN051CMAN 10214 APNM4 46/// /0915 10097 92140 333 91218;
0060997359999992005041022004+45050-083450FM-18+0179APNM V0201701N002119999999N9999999N1+00861+99999999999REMSYN051CMAN 10224 APNM4 46/// /1704 10086 92240 333 91205;
0060997359999992005041023004+45050-083450FM-18+0179APNM V0201301N001019999999N9999999N1+00901+99999999999REMSYN051CMAN 10234 APNM4 46/// /1302 10090 92340 333 91203;
0060997359999992005041100004+45050-083450FM-18+0179APNM V0200801N003119999999N9999999N1+01001+99999999999REMSYN051CMAN 11004 APNM4 46/// /0806 10100 90040 333 91208;
0060997359999992005041101004+45050-083450FM-18+0179APNM V0200801N005119999999N9999999N1+01001+99999999999REMSYN051CMAN 11014 APNM4 46/// /0810 10100 90140 333 91214;
0060997359999992005041102004+45050-083450FM-18+0179APNM V0200901N007219999999N9999999N1+01001+99999999999REMSYN051CMAN 11024 APNM4 46/// /0914 10100 90240 333 91216;
0060997359999992005041103004+45050-083450FM-18+0179APNM V0200801N007219999999N9999999N1+01011+99999999999REMSYN051CMAN 11034 APNM4 46/// /0814 10101 90340 333 91217;
0060997359999992005041104004+45050-083450FM-18+0179APNM V0200801N007219999999N9999999N1+00921+99999999999REMSYN051CMAN 11044 APNM4 46/// /0814 10092 90440 333 91219;
0060997359999992005041105004+45050-083450FM-18+0179APNM V0200801N005119999999N9999999N1+00841+99999999999REMSYN051CMAN 11054 APNM4 46/// /0810 10084 90540 333 91213;
0060997359999992005041106004+45050-083450FM-18+0179APNM V0200801N006219999999N9999999N1+00751+99999999999REMSYN051CMAN 11064 APNM4 46/// /0812 10075 90640 333 91217;
0060997359999992005041107004+45050-083450FM-18+0179APNM V0200701N007719999999N9999999N1+00681+99999999999REMSYN051CMAN 11074 APNM4 46/// /0715 10068 90740 333 91218;
0060997359999992005041108004+45050-083450FM-18+0179APNM V0200701N005719999999N9999999N1+00611+99999999999REMSYN051CMAN 11084 APNM4 46/// /0711 10061 90840 333 91213;
0060997359999992005041109004+45050-083450FM-18+0179APNM V0200801N007219999999N9999999N1+00581+99999999999REMSYN051CMAN 11094 APNM4 46/// /0814 10058 90940 333 91217;
0060997359999992005041110004+45050-083450FM-18+0179APNM V0200801N006719999999N9999999N1+00521+99999999999REMSYN051CMAN 11104 APNM4 46/// /0813 10052 91040 333 91216;
0060997359999992005041111004+45050-083450FM-18+0179APNM V0200801N008219999999N9999999N1+00501+99999999999REMSYN051CMAN 11114 APNM4 46/// /0816 10050 91140 333 91219;
0060997359999992005041112004+45050-083450FM-18+0179APNM V0200801N008719999999N9999999N1+00491+99999999999REMSYN051CMAN 11124 APNM4 46/// /0817 10049 91240 333 91220;
0060997359999992005041113004+45050-083450FM-18+0179APNM V0200901N008219999999N9999999N1+00501+99999999999REMSYN051CMAN 11134 APNM4 46/// /0916 10050 91340 333 91219;
0060997359999992005041114004+45050-083450FM-18+0179APNM V0200901N007219999999N9999999N1+00501+99999999999REMSYN051CMAN 11144 APNM4 46/// /0914 10050 91440 333 91217;
0078997359999992005041115004+45050-083450FM-18+0179APNM V0200801N007219999999N9999999N1+00501+99999999999REMSYN069CMAN  11154 APNM4 46/// /0814 10050 9154 91500 222// 00187 333 91218;
0060997359999992005041116004+45050-083450FM-18+0179APNM V0200901N007719999999N9999999N1+00521+99999999999REMSYN051CMAN 11164 APNM4 46/// /0915 10052 91640 333 91217;
0060997359999992005041117004+45050-083450FM-18+0179APNM V0200901N006719999999N9999999N1+00541+99999999999REMSYN051CMAN 11174 APNM4 46/// /0913 10054 91740 333 91215;
0060997359999992005041118004+45050-083450FM-18+0179APNM V0201001N005719999999N9999999N1+00541+99999999999REMSYN051CMAN 11184 APNM4 46/// /1011 10054 91840 333 91212;
0068997359999992005041119004+45050-083450FM-18+0179APNM V0200901N006219999999N9999999N1+00571+99999999999REMSYN059CMAN  11194 APNM4 46/// /0912 10057 9194 91948 222// 00154;
0060997359999992005041120004+45050-083450FM-18+0179APNM V0201001N005119999999N9999999N1+00541+99999999999REMSYN051CMAN 11204 APNM4 46/// /1010 10054 92040 333 91211;
0060997359999992005041121004+45050-083450FM-18+0179APNM V0201101N005119999999N9999999N1+00561+99999999999REMSYN051CMAN 11214 APNM4 46/// /1110 10056 92140 333 91212;
0060997359999992005041122004+45050-083450FM-18+0179APNM V0201001N007219999999N9999999N1+00671+99999999999REMSYN051CMAN 11224 APNM4 46/// /1014 10067 92240 333 91216;
0060997359999992005041123004+45050-083450FM-18+0179APNM V0200801N006219999999N9999999N1+00741+99999999999REMSYN051CMAN 11234 APNM4 46/// /0812 10074 92340 333 91214;
0060997359999992005041200004+45050-083450FM-18+0179APNM V0200701N005719999999N9999999N1+00761+99999999999REMSYN051CMAN 12004 APNM4 46/// /0711 10076 90040 333 91213;
0060997359999992005041201004+45050-083450FM-18+0179APNM V0200801N007719999999N9999999N1+00821+99999999999REMSYN051CMAN 12014 APNM4 46/// /0815 10082 90140 333 91217;
0060997359999992005041202004+45050-083450FM-18+0179APNM V0200801N007719999999N9999999N1+00871+99999999999REMSYN051CMAN 12024 APNM4 46/// /0815 10087 90240 333 91218;
0060997359999992005041203004+45050-083450FM-18+0179APNM V0200901N007719999999N9999999N1+00821+99999999999REMSYN051CMAN 12034 APNM4 46/// /0915 10082 90340 333 91218;
0060997359999992005041204004+45050-083450FM-18+0179APNM V0200901N007719999999N9999999N1+00781+99999999999REMSYN051CMAN 12044 APNM4 46/// /0915 10078 90440 333 91218;
0060997359999992005041205004+45050-083450FM-18+0179APNM V0200801N008719999999N9999999N1+00741+99999999999REMSYN051CMAN 12054 APNM4 46/// /0817 10074 90540 333 91220;
0060997359999992005041206004+45050-083450FM-18+0179APNM V0200801N008719999999N9999999N1+00711+99999999999REMSYN051CMAN 12064 APNM4 46/// /0817 10071 90640 333 91220;
0060997359999992005041207004+45050-083450FM-18+0179APNM V0200901N008219999999N9999999N1+00671+99999999999REMSYN051CMAN 12074 APNM4 46/// /0916 10067 90740 333 91219;
0060997359999992005041208004+45050-083450FM-18+0179APNM V0201001N008719999999N9999999N1+00671+99999999999REMSYN051CMAN 12084 APNM4 46/// /1017 10067 90840 333 91221;
0060997359999992005041209004+45050-083450FM-18+0179APNM V0201001N008219999999N9999999N1+00611+99999999999REMSYN051CMAN 12094 APNM4 46/// /1016 10061 90940 333 91218;
0060997359999992005041210004+45050-083450FM-18+0179APNM V0201001N008719999999N9999999N1+00581+99999999999REMSYN051CMAN 12104 APNM4 46/// /1017 10058 91040 333 91219;
0060997359999992005041211004+45050-083450FM-18+0179APNM V0200901N008719999999N9999999N1+00581+99999999999REMSYN051CMAN 12114 APNM4 46/// /0917 10058 91140 333 91220;
0060997359999992005041212004+45050-083450FM-18+0179APNM V0201001N008719999999N9999999N1+00601+99999999999REMSYN051CMAN 12124 APNM4 46/// /1017 10060 91240 333 91221;
0060997359999992005041213004+45050-083450FM-18+0179APNM V0201101N008719999999N9999999N1+00561+99999999999REMSYN051CMAN 12134 APNM4 46/// /1117 10056 91340 333 91219;
0060997359999992005041214004+45050-083450FM-18+0179APNM V0201001N009319999999N9999999N1+00581+99999999999REMSYN051CMAN 12144 APNM4 46/// /1018 10058 91440 333 91220;
0060997359999992005041215004+45050-083450FM-18+0179APNM V0201001N008719999999N9999999N1+00571+99999999999REMSYN051CMAN 12154 APNM4 46/// /1017 10057 91540 333 91219;
0060997359999992005041216004+45050-083450FM-18+0179APNM V0201101N007219999999N9999999N1+00611+99999999999REMSYN051CMAN 12164 APNM4 46/// /1114 10061 91640 333 91216;
0060997359999992005041217004+45050-083450FM-18+0179APNM V0200801N008219999999N9999999N1+00591+99999999999REMSYN051CMAN 12174 APNM4 46/// /0816 10059 91740 333 91218;
0060997359999992005041218004+45050-083450FM-18+0179APNM V0200801N008219999999N9999999N1+00611+99999999999REMSYN051CMAN 12184 APNM4 46/// /0816 10061 91840 333 91218;
0060997359999992005041219004+45050-083450FM-18+0179APNM V0200701N007219999999N9999999N1+00641+99999999999REMSYN051CMAN 12194 APNM4 46/// /0714 10064 91940 333 91215;
0060997359999992005041220004+45050-083450FM-18+0179APNM V0200801N008719999999N9999999N1+00621+99999999999REMSYN051CMAN 12204 APNM4 46/// /0817 10062 92040 333 91220;
0060997359999992005041221004+45050-083450FM-18+0179APNM V0200901N008719999999N9999999N1+00711+99999999999REMSYN051CMAN 12214 APNM4 46/// /0917 10071 92140 333 91220;
0060997359999992005041222004+45050-083450FM-18+0179APNM V0200901N006719999999N9999999N1+00761+99999999999REMSYN051CMAN 12224 APNM4 46/// /0913 10076 92240 333 91217;
0060997359999992005041223004+45050-083450FM-18+0179APNM V0200801N006219999999N9999999N1+00771+99999999999REMSYN051CMAN 12234 APNM4 46/// /0812 10077 92340 333 91213;
0060997359999992005041300004+45050-083450FM-18+0179APNM V0201101N002619999999N9999999N1+00711+99999999999REMSYN051CMAN 13004 APNM4 46/// /1105 10071 90040 333 91206;
0060997359999992005041301004+45050-083450FM-18+0179APNM V0201001N002619999999N9999999N1+00671+99999999999REMSYN051CMAN 13014 APNM4 46/// /1005 10067 90140 333 91206;
0060997359999992005041302004+45050-083450FM-18+0179APNM V0201101N001019999999N9999999N1+00671+99999999999REMSYN051CMAN 13024 APNM4 46/// /1102 10067 90240 333 91203;
0060997359999992005041303004+45050-083450FM-18+0179APNM V0203301N002119999999N9999999N1+00311+99999999999REMSYN051CMAN 13034 APNM4 46/// /3304 10031 90340 333 91205;
0060997359999992005041304004+45050-083450FM-18+0179APNM V0203501N002619999999N9999999N1+00331+99999999999REMSYN051CMAN 13044 APNM4 46/// /3505 10033 90440 333 91206;
0060997359999992005041305004+45050-083450FM-18+0179APNM V0200101N002119999999N9999999N1+00281+99999999999REMSYN051CMAN 13054 APNM4 46/// /0104 10028 90540 333 91206;
0060997359999992005041306004+45050-083450FM-18+0179APNM V0203401N003119999999N9999999N1+00311+99999999999REMSYN051CMAN 13064 APNM4 46/// /3406 10031 90640 333 91208;
0060997359999992005041307004+45050-083450FM-18+0179APNM V0203601N003619999999N9999999N1+00331+99999999999REMSYN051CMAN 13074 APNM4 46/// /3607 10033 90740 333 91209;
0060997359999992005041308004+45050-083450FM-18+0179APNM V0203501N003119999999N9999999N1+00321+99999999999REMSYN051CMAN 13084 APNM4 46/// /3506 10032 90840 333 91207;
0060997359999992005041309004+45050-083450FM-18+0179APNM V0203501N002619999999N9999999N1+00331+99999999999REMSYN051CMAN 13094 APNM4 46/// /3505 10033 90940 333 91207;
0060997359999992005041310004+45050-083450FM-18+0179APNM V0203601N003619999999N9999999N1+00371+99999999999REMSYN051CMAN 13104 APNM4 46/// /3607 10037 91040 333 91210;
0060997359999992005041311004+45050-083450FM-18+0179APNM V0200101N003119999999N9999999N1+00441+99999999999REMSYN051CMAN 13114 APNM4 46/// /0106 10044 91140 333 91208;
0060997359999992005041312004+45050-083450FM-18+0179APNM V0200101N003119999999N9999999N1+00681+99999999999REMSYN051CMAN 13124 APNM4 46/// /0106 10068 91240 333 91208;
0060997359999992005041313004+45050-083450FM-18+0179APNM V0200401N004619999999N9999999N1+00801+99999999999REMSYN051CMAN 13134 APNM4 46/// /0409 10080 91340 333 91212;
0060997359999992005041314004+45050-083450FM-18+0179APNM V0200501N004119999999N9999999N1+00861+99999999999REMSYN051CMAN 13144 APNM4 46/// /0508 10086 91440 333 91210;
0060997359999992005041315004+45050-083450FM-18+0179APNM V0200901N003619999999N9999999N1+00901+99999999999REMSYN051CMAN 13154 APNM4 46/// /0907 10090 91540 333 91208;
0060997359999992005041316004+45050-083450FM-18+0179APNM V0200801N004619999999N9999999N1+00991+99999999999REMSYN051CMAN 13164 APNM4 46/// /0809 10099 91640 333 91211;
0060997359999992005041317004+45050-083450FM-18+0179APNM V0200201N005719999999N9999999N1+01191+99999999999REMSYN051CMAN 13174 APNM4 46/// /0211 10119 91740 333 91216;
0060997359999992005041318004+45050-083450FM-18+0179APNM V0200401N006219999999N9999999N1+01191+99999999999REMSYN051CMAN 13184 APNM4 46/// /0412 10119 91840 333 91216;
0060997359999992005041319004+45050-083450FM-18+0179APNM V0200501N005719999999N9999999N1+01261+99999999999REMSYN051CMAN 13194 APNM4 46/// /0511 10126 91940 333 91217;
0060997359999992005041320004+45050-083450FM-18+0179APNM V0200301N005119999999N9999999N1+01391+99999999999REMSYN051CMAN 13204 APNM4 46/// /0310 10139 92040 333 91213;
0060997359999992005041321004+45050-083450FM-18+0179APNM V0203501N003619999999N9999999N1+01531+99999999999REMSYN051CMAN 13214 APNM4 46/// /3507 10153 92140 333 91212;
0060997359999992005041322004+45050-083450FM-18+0179APNM V0203601N003619999999N9999999N1+01601+99999999999REMSYN051CMAN 13224 APNM4 46/// /3607 10160 92240 333 91211;
0060997359999992005041323004+45050-083450FM-18+0179APNM V0203501N002619999999N9999999N1+01601+99999999999REMSYN051CMAN 13234 APNM4 46/// /3505 10160 92340 333 91206;
0060997359999992005041400004+45050-083450FM-18+0179APNM V0203301N001519999999N9999999N1+01411+99999999999REMSYN051CMAN 14004 APNM4 46/// /3303 10141 90040 333 91205;
0060997359999992005041401004+45050-083450FM-18+0179APNM V0203301N001519999999N9999999N1+01231+99999999999REMSYN051CMAN 14014 APNM4 46/// /3303 10123 90140 333 91206;
0060997359999992005041402004+45050-083450FM-18+0179APNM V0203401N003119999999N9999999N1+01141+99999999999REMSYN051CMAN 14024 APNM4 46/// /3406 10114 90240 333 91208;
0060997359999992005041403004+45050-083450FM-18+0179APNM V0203401N003119999999N9999999N1+01061+99999999999REMSYN051CMAN 14034 APNM4 46/// /3406 10106 90340 333 91209;
0060997359999992005041404004+45050-083450FM-18+0179APNM V0203401N003119999999N9999999N1+00951+99999999999REMSYN051CMAN 14044 APNM4 46/// /3406 10095 90440 333 91208;
0060997359999992005041405004+45050-083450FM-18+0179APNM V0200201N003119999999N9999999N1+01071+99999999999REMSYN051CMAN 14054 APNM4 46/// /0206 10107 90540 333 91209;
0060997359999992005041406004+45050-083450FM-18+0179APNM V0200301N006219999999N9999999N1+01071+99999999999REMSYN051CMAN 14064 APNM4 46/// /0312 10107 90640 333 91215;
0060997359999992005041407004+45050-083450FM-18+0179APNM V0200301N004119999999N9999999N1+00971+99999999999REMSYN051CMAN 14074 APNM4 46/// /0308 10097 90740 333 91213;
0060997359999992005041408004+45050-083450FM-18+0179APNM V0200401N004119999999N9999999N1+00971+99999999999REMSYN051CMAN 14084 APNM4 46/// /0408 10097 90840 333 91211;
0060997359999992005041409004+45050-083450FM-18+0179APNM V0200101N002619999999N9999999N1+00821+99999999999REMSYN051CMAN 14094 APNM4 46/// /0105 10082 90940 333 91206;
0060997359999992005041410004+45050-083450FM-18+0179APNM V0203601N002119999999N9999999N1+00691+99999999999REMSYN051CMAN 14104 APNM4 46/// /3604 10069 91040 333 91206;
0060997359999992005041411004+45050-083450FM-18+0179APNM V0200301N004119999999N9999999N1+00701+99999999999REMSYN051CMAN 14114 APNM4 46/// /0308 10070 91140 333 91212;
0060997359999992005041412004+45050-083450FM-18+0179APNM V0200501N007719999999N9999999N1+00721+99999999999REMSYN051CMAN 14124 APNM4 46/// /0515 10072 91240 333 91219;
0060997359999992005041413004+45050-083450FM-18+0179APNM V0200701N008219999999N9999999N1+00641+99999999999REMSYN051CMAN 14134 APNM4 46/// /0716 10064 91340 333 91218;
0060997359999992005041414004+45050-083450FM-18+0179APNM V0200701N005119999999N9999999N1+00611+99999999999REMSYN051CMAN 14144 APNM4 46/// /0710 10061 91440 333 91213;
0060997359999992005041415004+45050-083450FM-18+0179APNM V0200701N005719999999N9999999N1+00641+99999999999REMSYN051CMAN 14154 APNM4 46/// /0711 10064 91540 333 91213;
0068997359999992005041416004+45050-083450FM-18+0179APNM V0200801N005119999999N9999999N1+00641+99999999999REMSYN059CMAN  14164 APNM4 46/// /0810 10064 9164 91648 222// 00148;
0060997359999992005041417004+45050-083450FM-18+0179APNM V0200701N004119999999N9999999N1+00761+99999999999REMSYN051CMAN 14174 APNM4 46/// /0708 10076 91740 333 91211;
0060997359999992005041418004+45050-083450FM-18+0179APNM V0201001N004619999999N9999999N1+00821+99999999999REMSYN051CMAN 14184 APNM4 46/// /1009 10082 91840 333 91210;
0060997359999992005041419004+45050-083450FM-18+0179APNM V0200601N004119999999N9999999N1+00991+99999999999REMSYN051CMAN 14194 APNM4 46/// /0608 10099 91940 333 91210;
0060997359999992005041420004+45050-083450FM-18+0179APNM V0200701N004119999999N9999999N1+01071+99999999999REMSYN051CMAN 14204 APNM4 46/// /0708 10107 92040 333 91210;
0060997359999992005041421004+45050-083450FM-18+0179APNM V0200801N003619999999N9999999N1+01091+99999999999REMSYN051CMAN 14214 APNM4 46/// /0807 10109 92140 333 91208;
0060997359999992005041422004+45050-083450FM-18+0179APNM V0201001N002619999999N9999999N1+01111+99999999999REMSYN051CMAN 14224 APNM4 46/// /1005 10111 92240 333 91205;
0060997359999992005041423004+45050-083450FM-18+0179APNM V0201701N001019999999N9999999N1+01091+99999999999REMSYN051CMAN 14234 APNM4 46/// /1702 10109 92340 333 91203;
0060997359999992005041500004+45050-083450FM-18+0179APNM V0201901N001019999999N9999999N1+00991+99999999999REMSYN051CMAN 15004 APNM4 46/// /1902 10099 90040 333 91202;
0060997359999992005041501004+45050-083450FM-18+0179APNM V0209999C000019999999N9999999N1+00901+99999999999REMSYN051CMAN 15014 APNM4 46/// /0000 10090 90140 333 91201;
0060997359999992005041502004+45050-083450FM-18+0179APNM V0203501N001519999999N9999999N1+00721+99999999999REMSYN051CMAN 15024 APNM4 46/// /3503 10072 90240 333 91204;
0060997359999992005041503004+45050-083450FM-18+0179APNM V0203501N001019999999N9999999N1+00601+99999999999REMSYN051CMAN 15034 APNM4 46/// /3502 10060 90340 333 91202;
0060997359999992005041504004+45050-083450FM-18+0179APNM V0203601N002119999999N9999999N1+00541+99999999999REMSYN051CMAN 15044 APNM4 46/// /3604 10054 90440 333 91205;
0060997359999992005041505004+45050-083450FM-18+0179APNM V0203601N002619999999N9999999N1+00581+99999999999REMSYN051CMAN 15054 APNM4 46/// /3605 10058 90540 333 91206;
0060997359999992005041506004+45050-083450FM-18+0179APNM V0200701N006719999999N9999999N1+00871+99999999999REMSYN051CMAN 15064 APNM4 46/// /0713 10087 90640 333 91215;
0060997359999992005041507004+45050-083450FM-18+0179APNM V0200801N007719999999N9999999N1+00811+99999999999REMSYN051CMAN 15074 APNM4 46/// /0815 10081 90740 333 91218;
0060997359999992005041508004+45050-083450FM-18+0179APNM V0200801N007219999999N9999999N1+00741+99999999999REMSYN051CMAN 15084 APNM4 46/// /0814 10074 90840 333 91216;
0060997359999992005041509004+45050-083450FM-18+0179APNM V0200801N004619999999N9999999N1+00741+99999999999REMSYN051CMAN 15094 APNM4 46/// /0809 10074 90940 333 91211;
0060997359999992005041510004+45050-083450FM-18+0179APNM V0201301N003119999999N9999999N1+00681+99999999999REMSYN051CMAN 15104 APNM4 46/// /1306 10068 91040 333 91208;
0060997359999992005041511004+45050-083450FM-18+0179APNM V0201201N002619999999N9999999N1+00681+99999999999REMSYN051CMAN 15114 APNM4 46/// /1205 10068 91140 333 91208;
0060997359999992005041512004+45050-083450FM-18+0179APNM V0201301N003619999999N9999999N1+00701+99999999999REMSYN051CMAN 15124 APNM4 46/// /1307 10070 91240 333 91208;
0060997359999992005041513004+45050-083450FM-18+0179APNM V0201401N004119999999N9999999N1+00701+99999999999REMSYN051CMAN 15134 APNM4 46/// /1408 10070 91340 333 91209;
0060997359999992005041514004+45050-083450FM-18+0179APNM V0201201N003619999999N9999999N1+00711+99999999999REMSYN051CMAN 15144 APNM4 46/// /1207 10071 91440 333 91208;
0060997359999992005041515004+45050-083450FM-18+0179APNM V0201201N005119999999N9999999N1+00711+99999999999REMSYN051CMAN 15154 APNM4 46/// /1210 10071 91540 333 91212;
0060997359999992005041516004+45050-083450FM-18+0179APNM V0201201N006719999999N9999999N1+00711+99999999999REMSYN051CMAN 15164 APNM4 46/// /1213 10071 91640 333 91215;
0060997359999992005041517004+45050-083450FM-18+0179APNM V0201201N007719999999N9999999N1+00701+99999999999REMSYN051CMAN 15174 APNM4 46/// /1215 10070 91740 333 91217;
0060997359999992005041518004+45050-083450FM-18+0179APNM V0201201N007219999999N9999999N1+00731+99999999999REMSYN051CMAN 15184 APNM4 46/// /1214 10073 91840 333 91216;
0060997359999992005041519004+45050-083450FM-18+0179APNM V0201201N006719999999N9999999N1+00711+99999999999REMSYN051CMAN 15194 APNM4 46/// /1213 10071 91940 333 91215;
0060997359999992005041520004+45050-083450FM-18+0179APNM V0201201N006219999999N9999999N1+00771+99999999999REMSYN051CMAN 15204 APNM4 46/// /1212 10077 92040 333 91213;
0060997359999992005041521004+45050-083450FM-18+0179APNM V0201201N004119999999N9999999N1+00841+99999999999REMSYN051CMAN 15214 APNM4 46/// /1208 10084 92140 333 91210;
0060997359999992005041522004+45050-083450FM-18+0179APNM V0201301N003119999999N9999999N1+00851+99999999999REMSYN051CMAN 15224 APNM4 46/// /1306 10085 92240 333 91207;
0060997359999992005041523004+45050-083450FM-18+0179APNM V0201301N003619999999N9999999N1+00831+99999999999REMSYN051CMAN 15234 APNM4 46/// /1307 10083 92340 333 91207;
0060997359999992005041600004+45050-083450FM-18+0179APNM V0201501N005119999999N9999999N1+00801+99999999999REMSYN051CMAN 16004 APNM4 46/// /1510 10080 90040 333 91211;
0060997359999992005041601004+45050-083450FM-18+0179APNM V0201501N003619999999N9999999N1+00761+99999999999REMSYN051CMAN 16014 APNM4 46/// /1507 10076 90140 333 91208;
0060997359999992005041602004+45050-083450FM-18+0179APNM V0201701N003619999999N9999999N1+00861+99999999999REMSYN051CMAN 16024 APNM4 46/// /1707 10086 90240 333 91207;
0060997359999992005041603004+45050-083450FM-18+0179APNM V0202001N002119999999N9999999N1+00731+99999999999REMSYN051CMAN 16034 APNM4 46/// /2004 10073 90340 333 91205;
0060997359999992005041604004+45050-083450FM-18+0179APNM V0202401N001519999999N9999999N1+00721+99999999999REMSYN051CMAN 16044 APNM4 46/// /2403 10072 90440 333 91203;
0060997359999992005041605004+45050-083450FM-18+0179APNM V0202201N002119999999N9999999N1+00621+99999999999REMSYN051CMAN 16054 APNM4 46/// /2204 10062 90540 333 91204;
0060997359999992005041606004+45050-083450FM-18+0179APNM V0202101N002619999999N9999999N1+00581+99999999999REMSYN051CMAN 16064 APNM4 46/// /2105 10058 90640 333 91206;
0060997359999992005041607004+45050-083450FM-18+0179APNM V0202001N001519999999N9999999N1+00581+99999999999REMSYN051CMAN 16074 APNM4 46/// /2003 10058 90740 333 91204;
0060997359999992005041608004+45050-083450FM-18+0179APNM V0202201N001519999999N9999999N1+00661+99999999999REMSYN051CMAN 16084 APNM4 46/// /2203 10066 90840 333 91204;
0060997359999992005041609004+45050-083450FM-18+0179APNM V0202201N001019999999N9999999N1+00571+99999999999REMSYN051CMAN 16094 APNM4 46/// /2202 10057 90940 333 91202;
0060997359999992005041610004+45050-083450FM-18+0179APNM V0202301N000519999999N9999999N1+00511+99999999999REMSYN051CMAN 16104 APNM4 46/// /2301 10051 91040 333 91202;
0060997359999992005041611004+45050-083450FM-18+0179APNM V0202501N000519999999N9999999N1+00741+99999999999REMSYN051CMAN 16114 APNM4 46/// /2501 10074 91140 333 91201;
0060997359999992005041612004+45050-083450FM-18+0179APNM V0209999C000019999999N9999999N1+01111+99999999999REMSYN051CMAN 16124 APNM4 46/// /0000 10111 91240 333 91201;
0060997359999992005041613004+45050-083450FM-18+0179APNM V0200601N001519999999N9999999N1+01031+99999999999REMSYN051CMAN 16134 APNM4 46/// /0603 10103 91340 333 91203;
0060997359999992005041614004+45050-083450FM-18+0179APNM V0200801N002619999999N9999999N1+01021+99999999999REMSYN051CMAN 16144 APNM4 46/// /0805 10102 91440 333 91205;
0060997359999992005041615004+45050-083450FM-18+0179APNM V0200801N002619999999N9999999N1+00981+99999999999REMSYN051CMAN 16154 APNM4 46/// /0805 10098 91540 333 91205;
0060997359999992005041616004+45050-083450FM-18+0179APNM V0201101N004119999999N9999999N1+01001+99999999999REMSYN051CMAN 16164 APNM4 46/// /1108 10100 91640 333 91209;
0060997359999992005041617004+45050-083450FM-18+0179APNM V0201101N001519999999N9999999N1+01061+99999999999REMSYN051CMAN 16174 APNM4 46/// /1103 10106 91740 333 91206;
0060997359999992005041618004+45050-083450FM-18+0179APNM V0201101N005119999999N9999999N1+01031+99999999999REMSYN051CMAN 16184 APNM4 46/// /1110 10103 91840 333 91214;
0060997359999992005041619004+45050-083450FM-18+0179APNM V0201301N007719999999N9999999N1+01201+99999999999REMSYN051CMAN 16194 APNM4 46/// /1315 10120 91940 333 91217;
0060997359999992005041620004+45050-083450FM-18+0179APNM V0201201N006219999999N9999999N1+01201+99999999999REMSYN051CMAN 16204 APNM4 46/// /1212 10120 92040 333 91214;
0060997359999992005041621004+45050-083450FM-18+0179APNM V0201201N003619999999N9999999N1+01201+99999999999REMSYN051CMAN 16214 APNM4 46/// /1207 10120 92140 333 91210;
0060997359999992005041622004+45050-083450FM-18+0179APNM V0201201N002119999999N9999999N1+01401+99999999999REMSYN051CMAN 16224 APNM4 46/// /1204 10140 92240 333 91209;
0060997359999992005041623004+45050-083450FM-18+0179APNM V0203501N003119999999N9999999N1+01681+99999999999REMSYN051CMAN 16234 APNM4 46/// /3506 10168 92340 333 91208;
0060997359999992005041700004+45050-083450FM-18+0179APNM V0203501N003119999999N9999999N1+01451+99999999999REMSYN051CMAN 17004 APNM4 46/// /3506 10145 90040 333 91208;
0060997359999992005041701004+45050-083450FM-18+0179APNM V0203301N001019999999N9999999N1+01231+99999999999REMSYN051CMAN 17014 APNM4 46/// /3302 10123 90140 333 91204;
0060997359999992005041702004+45050-083450FM-18+0179APNM V0203001N001519999999N9999999N1+01241+99999999999REMSYN051CMAN 17024 APNM4 46/// /3003 10124 90240 333 91204;
0060997359999992005041703004+45050-083450FM-18+0179APNM V0203001N002119999999N9999999N1+01281+99999999999REMSYN051CMAN 17034 APNM4 46/// /3004 10128 90340 333 91207;
0060997359999992005041704004+45050-083450FM-18+0179APNM V0203501N002619999999N9999999N1+01281+99999999999REMSYN051CMAN 17044 APNM4 46/// /3505 10128 90440 333 91206;
0060997359999992005041705004+45050-083450FM-18+0179APNM V0203001N001519999999N9999999N1+01251+99999999999REMSYN051CMAN 17054 APNM4 46/// /3003 10125 90540 333 91204;
0060997359999992005041706004+45050-083450FM-18+0179APNM V0203101N001519999999N9999999N1+01211+99999999999REMSYN051CMAN 17064 APNM4 46/// /3103 10121 90640 333 91204;
0060997359999992005041707004+45050-083450FM-18+0179APNM V0202601N001519999999N9999999N1+01231+99999999999REMSYN051CMAN 17074 APNM4 46/// /2603 10123 90740 333 91204;
0060997359999992005041708004+45050-083450FM-18+0179APNM V0201301N001019999999N9999999N1+01171+99999999999REMSYN051CMAN 17084 APNM4 46/// /1302 10117 90840 333 91203;
0060997359999992005041709004+45050-083450FM-18+0179APNM V0200301N001519999999N9999999N1+01061+99999999999REMSYN051CMAN 17094 APNM4 46/// /0303 10106 90940 333 91204;
0060997359999992005041710004+45050-083450FM-18+0179APNM V0202701N001019999999N9999999N1+01221+99999999999REMSYN051CMAN 17104 APNM4 46/// /2702 10122 91040 333 91205;
0060997359999992005041711004+45050-083450FM-18+0179APNM V0202501N001019999999N9999999N1+01241+99999999999REMSYN051CMAN 17114 APNM4 46/// /2502 10124 91140 333 91205;
0060997359999992005041712004+45050-083450FM-18+0179APNM V0203401N001019999999N9999999N1+01301+99999999999REMSYN051CMAN 17124 APNM4 46/// /3402 10130 91240 333 91204;
0060997359999992005041713004+45050-083450FM-18+0179APNM V0209999C000019999999N9999999N1+01431+99999999999REMSYN051CMAN 17134 APNM4 46/// /0000 10143 91340 333 91201;
0060997359999992005041714004+45050-083450FM-18+0179APNM V0202801N001519999999N9999999N1+01701+99999999999REMSYN051CMAN 17144 APNM4 46/// /2803 10170 91440 333 91205;
0060997359999992005041715004+45050-083450FM-18+0179APNM V0203401N003119999999N9999999N1+01791+99999999999REMSYN051CMAN 17154 APNM4 46/// /3406 10179 91540 333 91208;
0060997359999992005041716004+45050-083450FM-18+0179APNM V0200201N003119999999N9999999N1+01871+99999999999REMSYN051CMAN 17164 APNM4 46/// /0206 10187 91640 333 91209;
0060997359999992005041717004+45050-083450FM-18+0179APNM V0202301N001519999999N9999999N1+01641+99999999999REMSYN051CMAN 17174 APNM4 46/// /2303 10164 91740 333 91206;
0060997359999992005041718004+45050-083450FM-18+0179APNM V0200801N002619999999N9999999N1+01841+99999999999REMSYN051CMAN 17184 APNM4 46/// /0805 10184 91840 333 91209;
0060997359999992005041719004+45050-083450FM-18+0179APNM V0200101N004619999999N9999999N1+02041+99999999999REMSYN051CMAN 17194 APNM4 46/// /0109 10204 91940 333 91213;
0060997359999992005041720004+45050-083450FM-18+0179APNM V0203501N003119999999N9999999N1+02191+99999999999REMSYN051CMAN 17204 APNM4 46/// /3506 10219 92040 333 91211;
0060997359999992005041721004+45050-083450FM-18+0179APNM V0200101N003119999999N9999999N1+02191+99999999999REMSYN051CMAN 17214 APNM4 46/// /0106 10219 92140 333 91210;
0060997359999992005041722004+45050-083450FM-18+0179APNM V0201801N002119999999N9999999N1+01541+99999999999REMSYN051CMAN 17224 APNM4 46/// /1804 10154 92240 333 91205;
0060997359999992005041723004+45050-083450FM-18+0179APNM V0201801N003119999999N9999999N1+01341+99999999999REMSYN051CMAN 17234 APNM4 46/// /1806 10134 92340 333 91206;
0060997359999992005041800004+45050-083450FM-18+0179APNM V0201801N002119999999N9999999N1+01301+99999999999REMSYN051CMAN 18004 APNM4 46/// /1804 10130 90040 333 91206;
0060997359999992005041801004+45050-083450FM-18+0179APNM V0200801N001019999999N9999999N1+01191+99999999999REMSYN051CMAN 18014 APNM4 46/// /0802 10119 90140 333 91202;
0060997359999992005041802004+45050-083450FM-18+0179APNM V0209999C000019999999N9999999N1+01101+99999999999REMSYN051CMAN 18024 APNM4 46/// /0000 10110 90240 333 91200;
0060997359999992005041803004+45050-083450FM-18+0179APNM V0203101N000519999999N9999999N1+01071+99999999999REMSYN051CMAN 18034 APNM4 46/// /3101 10107 90340 333 91201;
0060997359999992005041804004+45050-083450FM-18+0179APNM V0203601N001019999999N9999999N1+01071+99999999999REMSYN051CMAN 18044 APNM4 46/// /3602 10107 90440 333 91202;
0060997359999992005041805004+45050-083450FM-18+0179APNM V0209999C000019999999N9999999N1+00831+99999999999REMSYN051CMAN 18054 APNM4 46/// /0000 10083 90540 333 91201;
0088997359999992005041807004+45050-083450FM-18+0179APNM V0202901N000519999999N9999999N1+00771+99999999999REMSYN079CMAN  18074 APNM4 46/// /2901 10077 90741 90700 222// 00181210 555 11007 22008;
0060997359999992005041808004+45050-083450FM-18+0179APNM V0202801N001519999999N9999999N1+00731+99999999999REMSYN051CMAN 18084 APNM4 46/// /2803 10073 90840 333 91204;
0060997359999992005041809004+45050-083450FM-18+0179APNM V0209999C000019999999N9999999N1+00601+99999999999REMSYN051CMAN 18094 APNM4 46/// /0000 10060 90940 333 91202;
0060997359999992005041810004+45050-083450FM-18+0179APNM V0203001N001019999999N9999999N1+00611+99999999999REMSYN051CMAN 18104 APNM4 46/// /3002 10061 91040 333 91203;
0060997359999992005041811004+45050-083450FM-18+0179APNM V0203001N000519999999N9999999N1+00871+99999999999REMSYN051CMAN 18114 APNM4 46/// /3001 10087 91140 333 91202;
0060997359999992005041812004+45050-083450FM-18+0179APNM V0201701N000519999999N9999999N1+01211+99999999999REMSYN051CMAN 18124 APNM4 46/// /1701 10121 91240 333 91202;
0060997359999992005041813004+45050-083450FM-18+0179APNM V0201301N002119999999N9999999N1+01171+99999999999REMSYN051CMAN 18134 APNM4 46/// /1304 10117 91340 333 91204;
0060997359999992005041814004+45050-083450FM-18+0179APNM V0201301N003119999999N9999999N1+01061+99999999999REMSYN051CMAN 18144 APNM4 46/// /1306 10106 91440 333 91207;
0060997359999992005041815004+45050-083450FM-18+0179APNM V0201101N002619999999N9999999N1+00991+99999999999REMSYN051CMAN 18154 APNM4 46/// /1105 10099 91540 333 91206;
0060997359999992005041816004+45050-083450FM-18+0179APNM V0201401N007219999999N9999999N1+01261+99999999999REMSYN051CMAN 18164 APNM4 46/// /1414 10126 91640 333 91217;
0060997359999992005041817004+45050-083450FM-18+0179APNM V0201401N008219999999N9999999N1+01381+99999999999REMSYN051CMAN 18174 APNM4 46/// /1416 10138 91740 333 91218;
0060997359999992005041818004+45050-083450FM-18+0179APNM V0201401N008219999999N9999999N1+01281+99999999999REMSYN051CMAN 18184 APNM4 46/// /1416 10128 91840 333 91218;
0060997359999992005041819004+45050-083450FM-18+0179APNM V0201401N008719999999N9999999N1+01361+99999999999REMSYN051CMAN 18194 APNM4 46/// /1417 10136 91940 333 91220;
0060997359999992005041820004+45050-083450FM-18+0179APNM V0201401N009819999999N9999999N1+01341+99999999999REMSYN051CMAN 18204 APNM4 46/// /1419 10134 92040 333 91221;
0060997359999992005041821004+45050-083450FM-18+0179APNM V0201401N008219999999N9999999N1+01361+99999999999REMSYN051CMAN 18214 APNM4 46/// /1416 10136 92140 333 91218;
0060997359999992005041822004+45050-083450FM-18+0179APNM V0201501N007219999999N9999999N1+01471+99999999999REMSYN051CMAN 18224 APNM4 46/// /1514 10147 92240 333 91216;
0060997359999992005041823004+45050-083450FM-18+0179APNM V0201601N006719999999N9999999N1+01671+99999999999REMSYN051CMAN 18234 APNM4 46/// /1613 10167 92340 333 91217;
0060997359999992005041900004+45050-083450FM-18+0179APNM V0201401N002119999999N9999999N1+01661+99999999999REMSYN051CMAN 19004 APNM4 46/// /1404 10166 90040 333 91205;
0060997359999992005041901004+45050-083450FM-18+0179APNM V0201301N001519999999N9999999N1+01711+99999999999REMSYN051CMAN 19014 APNM4 46/// /1303 10171 90140 333 91204;
0060997359999992005041902004+45050-083450FM-18+0179APNM V0200601N001019999999N9999999N1+01531+99999999999REMSYN051CMAN 19024 APNM4 46/// /0602 10153 90240 333 91204;
0060997359999992005041903004+45050-083450FM-18+0179APNM V0201801N002619999999N9999999N1+01791+99999999999REMSYN051CMAN 19034 APNM4 46/// /1805 10179 90340 333 91206;
0060997359999992005041904004+45050-083450FM-18+0179APNM V0201201N000519999999N9999999N1+01631+99999999999REMSYN051CMAN 19044 APNM4 46/// /1201 10163 90440 333 91201;
0060997359999992005041905004+45050-083450FM-18+0179APNM V0209999C000019999999N9999999N1+01541+99999999999REMSYN051CMAN 19054 APNM4 46/// /0000 10154 90540 333 91201;
0060997359999992005041906004+45050-083450FM-18+0179APNM V0200401N001019999999N9999999N1+01471+99999999999REMSYN051CMAN 19064 APNM4 46/// /0402 10147 90640 333 91203;
0060997359999992005041907004+45050-083450FM-18+0179APNM V0209999C000019999999N9999999N1+01401+99999999999REMSYN051CMAN 19074 APNM4 46/// /0000 10140 90740 333 91201;
0060997359999992005041908004+45050-083450FM-18+0179APNM V0209999C000019999999N9999999N1+01411+99999999999REMSYN051CMAN 19084 APNM4 46/// /0000 10141 90840 333 91200;
0060997359999992005041909004+45050-083450FM-18+0179APNM V0202501N002119999999N9999999N1+01651+99999999999REMSYN051CMAN 19094 APNM4 46/// /2504 10165 90940 333 91205;
0060997359999992005041910004+45050-083450FM-18+0179APNM V0202801N001019999999N9999999N1+01711+99999999999REMSYN051CMAN 19104 APNM4 46/// /2802 10171 91040 333 91203;
0066997359999992005041911004+45050-083450FM-18+0179APNM V0202501N002119999999N9999999N1+01811+99999999999REMSYN057CMAN  19114 APNM4 46/// /2504 10181 9114 91154 333 91208;
0060997359999992005041912004+45050-083450FM-18+0179APNM V0201801N002119999999N9999999N1+01801+99999999999REMSYN051CMAN 19124 APNM4 46/// /1804 10180 91240 333 91205;
0060997359999992005041913004+45050-083450FM-18+0179APNM V0202601N003119999999N9999999N1+02381+99999999999REMSYN051CMAN 19134 APNM4 46/// /2606 10238 91340 333 91210;
0060997359999992005041914004+45050-083450FM-18+0179APNM V0202701N003619999999N9999999N1+02731+99999999999REMSYN051CMAN 19144 APNM4 46/// /2707 10273 91440 333 91210;
