0000997343999992005032210004+42400-086283FM-18+0193SVNM V0200701N002119999999N9999999N1+00131+99999999999
0060997343999992005032211004+42400-086283FM-18+0193SVNM V0201501N002119999999N9999999N1+00131+99999999999REMSYN051CMAN  22114 SVNM4 46/// /1504 10013 9114 333 91207;
0060997343999992005032212004+42400-086283FM-18+0193SVNM V0200601N002119999999N9999999N1+00101+99999999999REMSYN051CMAN  22124 SVNM4 46/// /0604 10010 9124 333 91209;
0060997343999992005032213004+42400-086283FM-18+0193SVNM V0200801N002119999999N9999999N1+00291+99999999999REMSYN051CMAN  22134 SVNM4 46/// /0804 10029 9134 333 91211;
0060997343999992005032214004+42400-086283FM-18+0193SVNM V0200801N003619999999N9999999N1+00431+99999999999REMSYN051CMAN  22144 SVNM4 46/// /0807 10043 9144 333 91208;
0000997343999992005032217004+42400-086283FM-18+0193SVNM V0200701N004619999999N9999999N1+00641+99999999999
0000997343999992005032218004+42400-086283FM-18+0193SVNM V0200701N004619999999N9999999N1+00721+99999999999
0000997343999992005032219004+42400-086283FM-18+0193SVNM V0200701N005719999999N9999999N1+00751+99999999999
0060997343999992005032221004+42400-086283FM-18+0193SVNM V0200601N005719999999N9999999N1+00741+99999999999REMSYN051CMAN  22214 SVNM4 46/// /0611 10074 9214 333 91211;
0097997343999992005032222004+42400-086283FM-18+0193SVNM V0200601N005719999999N9999999N1+00651+99999999999REMSYN088CMAN  22224 SVNM4 46/// /0611 10065 92243 56020 92200 222// 002382656 90710 91104 93100;
0060997343999992005032223004+42400-086283FM-18+0193SVNM V0200601N005119999999N9999999N1+00591+99999999999REMSYN051CMAN  22234 SVNM4 46/// /0610 10059 9234 333 91205;
0000997343999992005032300004+42400-086283FM-18+0193SVNM V0200501N004619999999N9999999N1+00501+99999999999
0079997343999992005032301004+42400-086283FM-18+0193SVNM V0200601N005119999999N9999999N1+00471+99999999999REMSYN070CMAN  23014 SVNM4 46/// /0610 10047 90142 50011 90100 222// 001891203;
0060997343999992005032302004+42400-086283FM-18+0193SVNM V0200701N007219999999N9999999N1+00441+99999999999REMSYN051CMAN  23024 SVNM4 46/// /0714 10044 9024 333 91204;
0097997343999992005032303004+42400-086283FM-18+0193SVNM V0200701N005719999999N9999999N1+00391+99999999999REMSYN088CMAN  23034 SVNM4 46/// /0711 10039 90344 222// 00215 333 91208 5 333 91218 51103 91202;
0060997343999992005032304004+42400-086283FM-18+0193SVNM V0200701N005119999999N9999999N1+00371+99999999999REMSYN051CMAN  23044 SVNM4 46/// /0710 10037 9044 333 91204;
0084997343999992005032305004+42400-086283FM-18+0193SVNM V0200801N005719999999N9999999N1+00351+99999999999REMSYN075CMAN  23054 SVNM4 46/// /0811 10035 90546 50000 90500 222// 0022 333 91211;
0096997343999992005032306004+42400-086283FM-18+0193SVNM V0200801N005719999999N9999999N1+00311+99999999999REMSYN087CMAN  23064 SVNM4 46/// /0811 10031 90644 222// 00223 522// 00183 333 91212 5805 85620;
0060997343999992005032307004+42400-086283FM-18+0193SVNM V0200701N006719999999N9999999N1+00241+99999999999REMSYN051CMAN  23074 SVNM4 46/// /0713 10024 9074 333 91217;
0084997343999992005032308004+42400-086283FM-18+0193SVNM V0200701N008219999999N9999999N1+00201+99999999999REMSYN075CMAN  23084 SVNM4 46/// /0716 10020 90841 56015 90800 222// 0022 333 91210;
0000997343999992005032309004+42400-086283FM-18+0193SVNM V0200701N007219999999N9999999N1+00161+99999999999
0085997343999992005032310004+42400-086283FM-18+0193SVNM V0200601N005719999999N9999999N1+00161+99999999999REMSYN076CMAN  23104 SVNM4 46/// /0611 10016 91043 55000 91000 222// 002255300 88623;
0000997343999992005032311004+42400-086283FM-18+0193SVNM V0200601N006219999999N9999999N1+00151+99999999999
0060997343999992005032312004+42400-086283FM-18+0193SVNM V0200601N005719999999N9999999N1+00151+99999999999REMSYN051CMAN  23124 SVNM4 46/// /0611 10015 9124 333 91220;
0060997343999992005032313004+42400-086283FM-18+0193SVNM V0200601N006719999999N9999999N1+00141+99999999999REMSYN051CMAN  23134 SVNM4 46/// /0613 10014 9134 333 91220;
0060997343999992005032314004+42400-086283FM-18+0193SVNM V0200601N006719999999N9999999N1+00181+99999999999REMSYN051CMAN  23144 SVNM4 46/// /0613 10018 9144 333 91218;
0096997343999992005032315004+42400-086283FM-18+0193SVNM V0200601N006719999999N9999999N1+00241+99999999999REMSYN087CMAN  23154 SVNM4 46/// /0613 10024 91544 222// 00210 222// 00179 333 91206 5809 85646;
0000997343999992005032316004+42400-086283FM-18+0193SVNM V0200501N006719999999N9999999N1+00281+99999999999
0084997343999992005032317004+42400-086283FM-18+0193SVNM V0200601N006219999999N9999999N1+00311+99999999999REMSYN075CMAN  23174 SVNM4 46/// /0612 10031 91748 55000 91700 222// 0023 333 91213;
0096997343999992005032318004+42400-086283FM-18+0193SVNM V0200501N006219999999N9999999N1+00361+99999999999REMSYN087CMAN  23184 SVNM4 46/// /0512 10036 91843 52005 91800 222// 0018 333 81358 85464 88270;
0060997343999992005032319004+42400-086283FM-18+0193SVNM V0200601N005119999999N9999999N1+00381+99999999999REMSYN051CMAN  23194 SVNM4 46/// /0610 10038 9194 333 91214;
0060997343999992005032320004+42400-086283FM-18+0193SVNM V0200501N005719999999N9999999N1+00451+99999999999REMSYN051CMAN  23204 SVNM4 46/// /0511 10045 9204 333 91214;
0060997343999992005032321004+42400-086283FM-18+0193SVNM V0200401N006219999999N9999999N1+00481+99999999999REMSYN051CMAN  23214 SVNM4 46/// /0412 10048 9214 333 91212;
0079997343999992005032322004+42400-086283FM-18+0193SVNM V0200401N005719999999N9999999N1+00461+99999999999REMSYN070CMAN  23224 SVNM4 46/// /0411 10046 92244 58040 92200 222// 002483/56;
0060997343999992005032323004+42400-086283FM-18+0193SVNM V0200501N003619999999N9999999N1+00351+99999999999REMSYN051CMAN  23234 SVNM4 46/// /0507 10035 9234 333 91207;
0078997343999992005032400004+42400-086283FM-18+0193SVNM V0200601N001519999999N9999999N1+00281+99999999999REMSYN069CMAN  24004 SVNM4 46/// /0603 10028 90049 90000 222// 0018/ 00239029;
0097997343999992005032401004+42400-086283FM-18+0193SVNM V0200701N002119999999N9999999N1+00231+99999999999REMSYN088CMAN  24014 SVNM4 46/// /0704 10023 90141 50047 90100 222// 00231 333 91010 91111 91209;
0060997343999992005032402004+42400-086283FM-18+0193SVNM V0200601N002119999999N9999999N1+00151+99999999999REMSYN051CMAN  24024 SVNM4 46/// /0604 10015 9024 333 91204;
0060997343999992005032403004+42400-086283FM-18+0193SVNM V0200801N003119999999N9999999N1+00101+99999999999REMSYN051CMAN  24034 SVNM4 46/// /0806 10010 9034 333 91203;
0060997343999992005032404004+42400-086283FM-18+0193SVNM V0200901N003119999999N9999999N1+00051+99999999999REMSYN051CMAN  24044 SVNM4 46/// /0906 10005 9044 333 91204;
0000997343999992005032405004+42400-086283FM-18+0193SVNM V0201001N002119999999N9999999N1-00031+99999999999
0000997343999992005032406004+42400-086283FM-18+0193SVNM V0200701N002119999999N9999999N1-00071+99999999999
0142997343999992005032407004+42400-086283FM-18+0193SVNM V0200801N000519999999N9999999N1-00151+99999999999REMSYN133CMAN  24074 SVNM4 46/// /0801 11015 90740 55007 90700 222// 0023555 11007 22008 30706 435016 60759 338007 348009 338008 338008 34006;
0103997343999992005032408004+42400-086283FM-18+0193SVNM V0200401N002119999999N9999999N1-00151+99999999999REMSYN094CMAN  24084 SVNM4 46/// /0404 11015 90842 50000 90800 222// 002370210 81400 22282 00180 20000;
0000997343999992005032409004+42400-086283FM-18+0193SVNM V0200501N001019999999N9999999N1-00201+99999999999
0000997343999992005032410004+42400-086283FM-18+0193SVNM V0200501N000519999999N9999999N1-00271+99999999999
0091997343999992005032411004+42400-086283FM-18+0193SVNM V0209999C000019999999N9999999N1-00341+99999999999REMSYN082CMAN  24114 SVNM4 46/// /0000 11034 91143 53010 91100 222// 001722252 06050 20301;
0060997343999992005032412004+42400-086283FM-18+0193SVNM V0200901N001019999999N9999999N1-00161+99999999999REMSYN051CMAN  24124 SVNM4 46/// /0902 11016 9124 333 91205;
0107997343999992005032413004+42400-086283FM-18+0193SVNM V0201101N002119999999N9999999N1-00051+99999999999REMSYN098CMAN  24134 SVNM4 46/// /1104 11005 91344 222// 00198 333 91206 5 333 91212 5// 4//// 5//// 6////;
0085997343999992005032414004+42400-086283FM-18+0193SVNM V0202201N002619999999N9999999N1+00021+99999999999REMSYN076CMAN  24144 SVNM4 46/// /2205 10002 91449 51019 91400 222// 002383640 87278;
0060997343999992005032415004+42400-086283FM-18+0193SVNM V0202501N002619999999N9999999N1+00041+99999999999REMSYN051CMAN  24154 SVNM4 46/// /2505 10004 9154 333 91206;
0203997343999992005032416004+42400-086283FM-18+0193SVNM V0202701N002119999999N9999999N1+00101+99999999999REMSYN194CMAN  24164 SVNM4 46/// /2704 10010 91640 91625 00200 333 91208 5 333 91204 5 11003 20401 330// 41003 70014 333 91202 555 11011 22011 31615 42904 61649 257010 277020 273023 281023 282016 290021;
0084997343999992005032417004+42400-086283FM-18+0193SVNM V0202901N003119999999N9999999N1+00211+99999999999REMSYN075CMAN  24174 SVNM4 46/// /2906 10021 91749 50000 91700 222// 0023 333 91231;
0091997343999992005032418004+42400-086283FM-18+0193SVNM V0203101N002619999999N9999999N1+00421+99999999999REMSYN082CMAN  24184 SVNM4 46/// /3105 10042 91844 222// 00205 333 91206 5 333 91204 57275;
0097997343999992005032419004+42400-086283FM-18+0193SVNM V0203201N002619999999N9999999N1+00401+99999999999REMSYN088CMAN  24194 SVNM4 46/// /3205 10040 91941 91958 91900 222// 001883709 87640 91106 91204;
0060997343999992005032420004+42400-086283FM-18+0193SVNM V0203101N001519999999N9999999N1+00501+99999999999REMSYN051CMAN  24204 SVNM4 46/// /3103 10050 92042 92046 06;
0060997343999992005032421004+42400-086283FM-18+0193SVNM V0203101N001019999999N9999999N1+00551+99999999999REMSYN051CMAN  24214 SVNM4 46/// /3102 10055 9214 333 91204;
0085997343999992005032422004+42400-086283FM-18+0193SVNM V0200401N001519999999N9999999N1+00261+99999999999REMSYN076CMAN  24224 SVNM4 46/// /0403 10026 92246 92248 92200 222// 002482364 86080;
0060997343999992005032423004+42400-086283FM-18+0193SVNM V0200301N002119999999N9999999N1+00351+99999999999REMSYN051CMAN  24234 SVNM4 46/// /0304 10035 9234 333 91204;
0079997343999992005032503004+42400-086283FM-18+0193SVNM V0200601N002119999999N9999999N1+00481+99999999999REMSYN070CMAN  25034 SVNM4 46/// /0604 10048 90349 54000 90300 222// 00186//93;
0060997343999992005032504004+42400-086283FM-18+0193SVNM V0200401N001519999999N9999999N1+00401+99999999999REMSYN051CMAN  25044 SVNM4 46/// /0403 10040 9044 333 91216;
0060997343999992005032505004+42400-086283FM-18+0193SVNM V0200301N001519999999N9999999N1+00341+99999999999REMSYN051CMAN  25054 SVNM4 46/// /0303 10034 9054 333 91211;
0078997343999992005032506004+42400-086283FM-18+0193SVNM V0203601N000519999999N9999999N1+00341+99999999999REMSYN069CMAN  25064 SVNM4 46/// /3601 10034 90645 56014 90600 222// 00189027;
0078997343999992005032507004+42400-086283FM-18+0193SVNM V0209999C000019999999N9999999N1+00341+99999999999REMSYN069CMAN  25074 SVNM4 46/// /0000 10034 90747 58015 90700 222// 00181117;
0060997343999992005032508004+42400-086283FM-18+0193SVNM V0200601N003119999999N9999999N1+00401+99999999999REMSYN051CMAN  25084 SVNM4 46/// /0606 10040 9084 333 91214;
0000997343999992005032509004+42400-086283FM-18+0193SVNM V0200501N004119999999N9999999N1+00351+99999999999
0078997343999992005032510004+42400-086283FM-18+0193SVNM V0200601N003619999999N9999999N1+00331+99999999999REMSYN069CMAN  25104 SVNM4 46/// /0607 10033 91044 56013 91000 222// 00189011;
0084997343999992005032511004+42400-086283FM-18+0193SVNM V0200601N004119999999N9999999N1+00331+99999999999REMSYN075CMAN  25114 SVNM4 46/// /0608 10033 91141 54000 91100 222// 0023 333 91210;
0142997343999992005032512004+42400-086283FM-18+0193SVNM V0200701N004119999999N9999999N1+00311+99999999999REMSYN133CMAN  25124 SVNM4 46/// /0708 10031 91247 54000 91200 222// 00181209 555 11008 22008 61259 016008 014008 008008 013007 017007 008006;
0074997343999992005032513004+42400-086283FM-18+0193SVNM V0200801N004119999999N9999999N1+00361+99999999999REMSYN065CMAN  25134 SVNM4 46/// /0808 10036 91344 53010 91300 222// 0018;
0060997343999992005032514004+42400-086283FM-18+0193SVNM V0200701N005719999999N9999999N1+00371+99999999999REMSYN051CMAN  25144 SVNM4 46/// /0711 10037 91448 91457 12;
0155997343999992005032515004+42400-086283FM-18+0193SVNM V0200701N004619999999N9999999N1+00411+99999999999REMSYN146CMAN  25154 SVNM4 46/// /0709 10041 91546 40157 54000 91528 222// 001491206 555 11004 22010 405023 61559 044019 045019 043019 047021 04013 013020;
0000997343999992005032516004+42400-086283FM-18+0193SVNM V0200701N005119999999N9999999N1+00451+99999999999
0102997343999992005032517004+42400-086283FM-18+0193SVNM V0200701N004619999999N9999999N1+00431+99999999999REMSYN093CMAN  25174 SVNM4 46/// /0709 10043 91742 50000 91700 222// 0018 84201 333 59016 60007 84825;
0060997343999992005032518004+42400-086283FM-18+0193SVNM V0200701N004619999999N9999999N1+00491+99999999999REMSYN051CMAN  25184 SVNM4 46/// /0709 10049 9184 333 91210;
0143997343999992005032519004+42400-086283FM-18+0193SVNM V0200501N002619999999N9999999N1+00601+99999999999REMSYN134CMAN  25194 SVNM4 46/// /0505 10060 91948 58018 91900 222// 00240 22200 00042 10604 20401 300// 40603 70018 333 91205 555 11041 22044;
0000997343999992005032520004+42400-086283FM-18+0193SVNM V0200201N004619999999N9999999N1+00631+99999999999
0060997343999992005032521004+42400-086283FM-18+0193SVNM V0203601N006219999999N9999999N1+00371+99999999999REMSYN051CMAN  25214 SVNM4 46/// /3612 10037 92146 92158 07;
0142997343999992005032522004+42400-086283FM-18+0193SVNM V0200401N006219999999N9999999N1+00601+99999999999REMSYN133CMAN  25224 SVNM4 46/// /0412 10060 92247 92242 92200 222// 0019555 11009 22010 32210 431017 62259 320010 318011 320010 320010 31008;
0060997343999992005032523004+42400-086283FM-18+0193SVNM V0200501N004619999999N9999999N1+00481+99999999999REMSYN051CMAN  25234 SVNM4 46/// /0509 10048 9234 333 91207;
0060997343999992005032600004+42400-086283FM-18+0193SVNM V0200501N003119999999N9999999N1+00401+99999999999REMSYN051CMAN  26004 SVNM4 46/// /0506 10040 90043 90048 04;
0091997343999992005032601004+42400-086283FM-18+0193SVNM V0200601N004119999999N9999999N1+00331+99999999999REMSYN082CMAN  26014 SVNM4 46/// /0608 10033 90142 90152 90100 222// 002481624 85629 86634;
0000997343999992005032602004+42400-086283FM-18+0193SVNM V0200601N003619999999N9999999N1+00271+99999999999
0000997343999992005032603004+42400-086283FM-18+0193SVNM V0200701N004119999999N9999999N1+00211+99999999999
0000997343999992005032604004+42400-086283FM-18+0193SVNM V0200901N003619999999N9999999N1+00171+99999999999
0000997343999992005032605004+42400-086283FM-18+0193SVNM V0200701N003619999999N9999999N1+00151+99999999999
0084997343999992005032606004+42400-086283FM-18+0193SVNM V0200801N004619999999N9999999N1+00121+99999999999REMSYN075CMAN  26064 SVNM4 46/// /0809 10012 90649 58007 90600 222// 0024 333 89/00;
0060997343999992005032607004+42400-086283FM-18+0193SVNM V0200901N003119999999N9999999N1+00111+99999999999REMSYN051CMAN  26074 SVNM4 46/// /0906 10011 9074 333 91204;
0084997343999992005032608004+42400-086283FM-18+0193SVNM V0200801N003119999999N9999999N1+00081+99999999999REMSYN075CMAN  26084 SVNM4 46/// /0806 10008 90848 58015 90800 222// 0024 333 91212;
0060997343999992005032609004+42400-086283FM-18+0193SVNM V0200701N004119999999N9999999N1+00021+99999999999REMSYN051CMAN  26094 SVNM4 46/// /0708 10002 9094 333 91204;
0060997343999992005032610004+42400-086283FM-18+0193SVNM V0200701N003119999999N9999999N1-00021+99999999999REMSYN051CMAN  26104 SVNM4 46/// /0706 11002 9104 333 91203;
0060997343999992005032611004+42400-086283FM-18+0193SVNM V0200701N002619999999N9999999N1-00031+99999999999REMSYN051CMAN  26114 SVNM4 46/// /0705 11003 9114 333 91203;
0000997343999992005032612004+42400-086283FM-18+0193SVNM V0200701N002619999999N9999999N1-00031+99999999999
0060997343999992005032613004+42400-086283FM-18+0193SVNM V0200801N003119999999N9999999N1-00011+99999999999REMSYN051CMAN  26134 SVNM4 46/// /0806 11001 9134 333 91203;
0060997343999992005032614004+42400-086283FM-18+0193SVNM V0200801N002119999999N9999999N1+00141+99999999999REMSYN051CMAN  26144 SVNM4 46/// /0804 10014 9144 333 91204;
0060997343999992005032615004+42400-086283FM-18+0193SVNM V0201501N001519999999N9999999N1+00321+99999999999REMSYN051CMAN  26154 SVNM4 46/// /1503 10032 91548 91524 08;
0000997343999992005032616004+42400-086283FM-18+0193SVNM V0203201N003119999999N9999999N1+00281+99999999999
0091997343999992005032617004+42400-086283FM-18+0193SVNM V0203301N003619999999N9999999N1+00291+99999999999REMSYN082CMAN  26174 SVNM4 46/// /3307 10029 91744 222// 00223 333 91214 5 333 91214 50998;
0000997343999992005032618004+42400-086283FM-18+0193SVNM V0203501N003619999999N9999999N1+00321+99999999999
0060997343999992005032620004+42400-086283FM-18+0193SVNM V0203001N003619999999N9999999N1+00291+99999999999REMSYN051CMAN  26204 SVNM4 46/// /3007 10029 92044 92058 15;
0060997343999992005032814004+42400-086280FM-18+0193SVNM V0200401N003619999999N9999999N1+00691+99999999999REMSYN051CMAN  28144 SVNM4 46/// /0407 10069 9144 333 91206;
0091997343999992005032815004+42400-086280FM-18+0193SVNM V0203501N004619999999N9999999N1+00481+99999999999REMSYN082CMAN  28154 SVNM4 46/// /3509 10048 91544 222// 00219 333 91227 5 333 91225 51127;
0079997343999992005032816004+42400-086280FM-18+0193SVNM V0203601N004119999999N9999999N1+00481+99999999999REMSYN070CMAN  28164 SVNM4 46/// /3608 10048 91644 54000 91600 222// 001786658;
0121997343999992005032817004+42400-086280FM-18+0193SVNM V0200201N004119999999N9999999N1+00441+99999999999REMSYN112CMAN  28174 SVNM4 46/// /0208 10044 91744 222// 00220 333 91225 5 333 91225 5/008 55300 69987 83/48 87/56 88/58;
0090997343999992005032818004+42400-086280FM-18+0193SVNM V0200101N005719999999N9999999N1+00511+99999999999REMSYN081CMAN  28184 SVNM4 46/// /0111 10051 91844 222// 00223 333 91221 5 333 91227 5129;
0060997343999992005032819004+42400-086280FM-18+0193SVNM V0203601N004619999999N9999999N1+00521+99999999999REMSYN051CMAN  28194 SVNM4 46/// /3609 10052 9194 333 91207;
0089997343999992005032820004+42400-086280FM-18+0193SVNM V0200201N003119999999N9999999N1+00521+99999999999REMSYN080CMAN  28204 SVNM4 46/// /0206 10052 92044 222// 00231 333 91221 5 333 91221 577;
0089997343999992005032821004+42400-086280FM-18+0193SVNM V0200101N002619999999N9999999N1+00661+99999999999REMSYN080CMAN  28214 SVNM4 46/// /0105 10066 92144 222// 00233 333 91227 5 333 91218 55/;
0060997343999992005032822004+42400-086280FM-18+0193SVNM V0202301N000519999999N9999999N1+00541+99999999999REMSYN051CMAN  28224 SVNM4 46/// /2301 10054 9224 333 91203;
0060997343999992005032823004+42400-086283FM-18+0193SVNM V0202301N002119999999N9999999N1+00411+99999999999REMSYN051CMAN  28234 SVNM4 46/// /2304 10041 92341 92341201;
0060997343999992005032900004+42400-086283FM-18+0193SVNM V0202101N002619999999N9999999N1+00351+99999999999REMSYN051CMAN  29004 SVNM4 46/// /2105 10035 9004 333 91202;
0060997343999992005032901004+42400-086283FM-18+0193SVNM V0202001N002119999999N9999999N1+00381+99999999999REMSYN051CMAN  29014 SVNM4 46/// /2004 10038 9014 333 91202;
0060997343999992005032902004+42400-086283FM-18+0193SVNM V0202001N002619999999N9999999N1+00351+99999999999REMSYN051CMAN  29024 SVNM4 46/// /2005 10035 9024 333 91202;
0060997343999992005032903004+42400-086283FM-18+0193SVNM V0202101N002119999999N9999999N1+00321+99999999999REMSYN051CMAN  29034 SVNM4 46/// /2104 10032 9034 333 91204;
0060997343999992005032904004+42400-086283FM-18+0193SVNM V0201301N001519999999N9999999N1+00351+99999999999REMSYN051CMAN  29044 SVNM4 46/// /1303 10035 9044 333 91202;
0060997343999992005032905004+42400-086283FM-18+0193SVNM V0201101N004619999999N9999999N1+00421+99999999999REMSYN051CMAN  29054 SVNM4 46/// /1109 10042 9054 333 91204;
0079997343999992005032906004+42400-086283FM-18+0193SVNM V0201101N005119999999N9999999N1+00601+99999999999REMSYN070CMAN  29064 SVNM4 46/// /1110 10060 90646 90600 222// 001890710 91108;
0060997343999992005032907004+42400-086283FM-18+0193SVNM V0202301N002619999999N9999999N1+00451+99999999999REMSYN051CMAN  29074 SVNM4 46/// /2305 10045 9074 333 91204;
0060997343999992005032908004+42400-086283FM-18+0193SVNM V0201601N001519999999N9999999N1+00341+99999999999REMSYN051CMAN  29084 SVNM4 46/// /1603 10034 9084 333 91202;
0000997343999992005032909004+42400-086283FM-18+0193SVNM V0201701N001019999999N9999999N1+00411+99999999999
0101997343999992005032910004+42400-086283FM-18+0193SVNM V0201501N003619999999N9999999N1+00601+99999999999REMSYN092CMAN  29104 SVNM4 46/// /1507 10060 91042 53005 91000 222// 001791002 91102 91201 555 53164;
0000997343999992005032911004+42400-086283FM-18+0193SVNM V0201301N005719999999N9999999N1+00661+99999999999
0060997343999992005032912004+42400-086283FM-18+0193SVNM V0201301N006219999999N9999999N1+00711+99999999999REMSYN051CMAN  29124 SVNM4 46/// /1312 10071 9124 333 91201;
0060997343999992005032913004+42400-086283FM-18+0193SVNM V0201301N006219999999N9999999N1+00931+99999999999REMSYN051CMAN  29134 SVNM4 46/// /1312 10093 9134 333 91204;
0060997343999992005032914004+42400-086283FM-18+0193SVNM V0201301N005719999999N9999999N1+01231+99999999999REMSYN051CMAN  29144 SVNM4 46/// /1311 10123 9144 333 91202;
0000997343999992005032915004+42400-086283FM-18+0193SVNM V0201301N006719999999N9999999N1+01431+99999999999
0060997343999992005032916004+42400-086283FM-18+0193SVNM V0201301N005719999999N9999999N1+01601+99999999999REMSYN051CMAN  29164 SVNM4 46/// /1311 10160 9164 333 91202;
0060997343999992005032917004+42400-086283FM-18+0193SVNM V0201401N005119999999N9999999N1+01711+99999999999REMSYN051CMAN  29174 SVNM4 46/// /1410 10171 9174 333 91205;
0068997343999992005032918004+42400-086283FM-18+0193SVNM V0201301N005719999999N9999999N1+01841+99999999999REMSYN059CMAN  29184 SVNM4 46/// /1311 10184 91847 91800 222// 0018;
0000997343999992005032919004+42400-086283FM-18+0193SVNM V0201501N006219999999N9999999N1+01881+99999999999
0060997343999992005032920004+42400-086283FM-18+0193SVNM V0201501N006719999999N9999999N1+01941+99999999999REMSYN051CMAN  29204 SVNM4 46/// /1513 10194 9204 333 91212;
0084997343999992005032921004+42400-086283FM-18+0193SVNM V0201601N005719999999N9999999N1+01931+99999999999REMSYN075CMAN  29214 SVNM4 46/// /1611 10193 92144 57023 92100 222// 0019 555 19046;
0000997343999992005032922004+42400-086283FM-18+0193SVNM V0201501N006219999999N9999999N1+01951+99999999999
0000997343999992005032923004+42400-086283FM-18+0193SVNM V0201501N005119999999N9999999N1+01871+99999999999
0142997343999992005033000004+42400-086283FM-18+0193SVNM V0201401N002619999999N9999999N1+01761+99999999999REMSYN133CMAN  30004 SVNM4 46/// /1405 10176 90046 90052 90000 222// 0024555 11017 22018 30047 434029 60059 344017 338019 334020 341018 34001;
0079997343999992005033001004+42400-086283FM-18+0193SVNM V0201301N003119999999N9999999N1+01671+99999999999REMSYN070CMAN  30014 SVNM4 46/// /1306 10167 90140 51005 90100 222// 001891206;
0060997343999992005033002004+42400-086283FM-18+0193SVNM V0201201N004119999999N9999999N1+01581+99999999999REMSYN051CMAN  30024 SVNM4 46/// /1208 10158 90247 90245 06;
0102997343999992005033003004+42400-086283FM-18+0193SVNM V0201301N005719999999N9999999N1+01551+99999999999REMSYN093CMAN  30034 SVNM4 46/// /1311 10155 90349 53009 90300 222// 0018 333 60005 81360 90710 91108;
0000997343999992005033004004+42400-086283FM-18+0193SVNM V0201401N005719999999N9999999N1+01531+99999999999
0000997343999992005033005004+42400-086283FM-18+0193SVNM V0201401N006719999999N9999999N1+01521+99999999999
0000997343999992005033006004+42400-086283FM-18+0193SVNM V0201401N006219999999N9999999N1+01491+99999999999
0060997343999992005033007004+42400-086283FM-18+0193SVNM V0201401N006719999999N9999999N1+01461+99999999999REMSYN051CMAN  30074 SVNM4 46/// /1413 10146 9074 333 91206;
0000997343999992005033008004+42400-086283FM-18+0193SVNM V0201401N006719999999N9999999N1+01421+99999999999
0060997343999992005033009004+42400-086283FM-18+0193SVNM V0201301N006719999999N9999999N1+01401+99999999999REMSYN051CMAN  30094 SVNM4 46/// /1313 10140 9094 333 91212;
0000997343999992005033010004+42400-086283FM-18+0193SVNM V0201301N007219999999N9999999N1+01381+99999999999
0060997343999992005033011004+42400-086283FM-18+0193SVNM V0201301N008219999999N9999999N1+01321+99999999999REMSYN051CMAN  30114 SVNM4 46/// /1316 10132 91144 91158 11;
0060997343999992005033012004+42400-086283FM-18+0193SVNM V0201401N008719999999N9999999N1+01311+99999999999REMSYN051CMAN  30124 SVNM4 46/// /1417 10131 91247 91250 12;
0000997343999992005033013004+42400-086283FM-18+0193SVNM V0201401N008719999999N9999999N1+01401+99999999999
0060997343999992005033014004+42400-086283FM-18+0193SVNM V0201401N008219999999N9999999N1+01511+99999999999REMSYN051CMAN  30144 SVNM4 46/// /1416 10151 91442 91455 19;
0000997343999992005033015004+42400-086283FM-18+0193SVNM V0201401N007219999999N9999999N1+01811+99999999999
0000997343999992005033016004+42400-086283FM-18+0193SVNM V0201501N007719999999N9999999N1+01901+99999999999
0095997343999992005033017004+42400-086283FM-18+0193SVNM V0201701N009319999999N9999999N1+02091+99999999999REMSYN086CMAN  30174 SVNM4 46/// /1718 10209 91740 58010 91700 222// 0019555 51104 51203 53001;
0060997343999992005033018004+42400-086283FM-18+0193SVNM V0201601N009319999999N9999999N1+02211+99999999999REMSYN051CMAN  30184 SVNM4 46/// /1618 10221 9184 333 91221;
0060997343999992005033019004+42400-086283FM-18+0193SVNM V0201701N010319999999N9999999N1+02281+99999999999REMSYN051CMAN  30194 SVNM4 46/// /1720 10228 9194 333 91216;
0084997343999992005033020004+42400-086283FM-18+0193SVNM V0201601N010319999999N9999999N1+02351+99999999999REMSYN075CMAN  30204 SVNM4 46/// /1620 10235 92043 56013 92000 222// 0023 333 91211;
0079997343999992005033021004+42400-086283FM-18+0193SVNM V0201601N010319999999N9999999N1+02391+99999999999REMSYN070CMAN  30214 SVNM4 46/// /1620 10239 92140 58016 92100 222// 001981/37;
0000997343999992005033022004+42400-086283FM-18+0193SVNM V0201601N009819999999N9999999N1+02381+99999999999
0060997343999992005033023004+42400-086283FM-18+0193SVNM V0201601N008219999999N9999999N1+02331+99999999999REMSYN051CMAN  30234 SVNM4 46/// /1616 10233 9234 333 91211;
0000997343999992005033100004+42400-086283FM-18+0193SVNM V0201701N006719999999N9999999N1+02261+99999999999
0079997343999992005033101004+42400-086283FM-18+0193SVNM V0202201N001519999999N9999999N1+99999+99999999999REMSYN070CMAN  31014 SVNM4 46/// /2203 1//// 90148 53006 90100 222// 002591201;
0112997343999992005033102004+42400-086283FM-18+0193SVNM V0200901N003619999999N9999999N1+01371+99999999999REMSYN103CMAN  31024 SVNM4 46/// /0907 10137 90248 54000 90200 222// 001922 8355/ 22200 06002 20503 3//// 80023;
0073997343999992005033103004+42400-086283FM-18+0193SVNM V0202801N013419999999N9999999N1+01071+99999999999REMSYN064CMAN  31034 SVNM4 46/// /2826 10107 90345 90348 222// 000488640;
0000997343999992005033104004+42400-086283FM-18+0193SVNM V0201401N008719999999N9999999N1+01321+99999999999
0089997343999992005033105004+42400-086283FM-18+0193SVNM V0201501N007219999999N9999999N1+01411+99999999999REMSYN080CMAN  31054 SVNM4 46/// /1514 10141 90543 53005 90500 222// 001970005 555 93106;
0085997343999992005033106004+42400-086283FM-18+0193SVNM V0201801N008219999999N9999999N1+01541+99999999999REMSYN076CMAN  31064 SVNM4 46/// /1816 10154 90649 50004 90600 222// 001985633 87638;
0000997343999992005033107004+42400-086283FM-18+0193SVNM V0202001N009819999999N9999999N1+01311+99999999999
0060997343999992005033108004+42400-086283FM-18+0193SVNM V0202201N008719999999N9999999N1+00881+99999999999REMSYN051CMAN  31084 SVNM4 46/// /2217 10088 9084 333 91207;
0060997343999992005033109004+42400-086283FM-18+0193SVNM V0202001N009319999999N9999999N1+00801+99999999999REMSYN051CMAN  31094 SVNM4 46/// /2018 10080 9094 333 91210;
0000997343999992005033110004+42400-086283FM-18+0193SVNM V0202001N011819999999N9999999N1+00871+99999999999
0091997343999992005033111004+42400-086283FM-18+0193SVNM V0202101N011319999999N9999999N1+00761+99999999999REMSYN082CMAN  31114 SVNM4 46/// /2122 10076 91140 55000 91100 222// 002455310 82/29 84/61;
0000997343999992005033112004+42400-086283FM-18+0193SVNM V0202101N008719999999N9999999N1+00661+99999999999
0000997343999992005033113004+42400-086283FM-18+0193SVNM V0202101N011319999999N9999999N1+00611+99999999999
0128997343999992005033114004+42400-086283FM-18+0193SVNM V0202201N008719999999N9999999N1+00561+99999999999REMSYN119CMAN  31144 SVNM4 46/// /2217 10056 91440 333 91210 555 20 40145 58005 72582 8802/ 22200 02001 20503 324// 40904 80026;
0090997343999992005033115004+42400-086283FM-18+0193SVNM V0202201N011319999999N9999999N1+00541+99999999999REMSYN081CMAN  31154 SVNM4 46/// /2222 10054 91544 222// 00212 333 91212 5 333 91212 5106;
0079997343999992005033116004+42400-086283FM-18+0193SVNM V0202101N010319999999N9999999N1+00481+99999999999REMSYN070CMAN  31164 SVNM4 46/// /2120 10048 91640 51022 91600 222// 001985/32;
0000997343999992005033117004+42400-086283FM-18+0193SVNM V0202101N009319999999N9999999N1+00481+99999999999
0060997343999992005033118004+42400-086283FM-18+0193SVNM V0202101N008719999999N9999999N1+00481+99999999999REMSYN051CMAN  31184 SVNM4 46/// /2117 10048 9184 333 91215;
0060997343999992005033119004+42400-086283FM-18+0193SVNM V0202301N008719999999N9999999N1+00501+99999999999REMSYN051CMAN  31194 SVNM4 46/// /2317 10050 91942 91958 19;
0000997343999992005033120004+42400-086283FM-18+0193SVNM V0202501N008719999999N9999999N1+00531+99999999999
0078997343999992005033121004+42400-086283FM-18+0193SVNM V0202601N007719999999N9999999N1+00511+99999999999REMSYN069CMAN  31214 SVNM4 46/// /2615 10051 92143 55000 92100 222// 00191204;
0000997343999992005033122004+42400-086283FM-18+0193SVNM V0202501N007219999999N9999999N1+00531+99999999999
0155997343999992005033123004+42400-086283FM-18+0193SVNM V0202601N005719999999N9999999N1+00541+99999999999REMSYN146CMAN  31234 SVNM4 46/// /2611 10054 92347 54000 92300 222// 0025555 11004 22004 32324 431006 62359 310004 309004 308004 305004 3017 223016 222014;
0079997343999992005040100004+42400-086283FM-18+0193SVNM V0202301N004119999999N9999999N1+00571+99999999999REMSYN070CMAN  01004 SVNM4 46/// /2308 10057 90049 54000 90000 222// 002591104;
0000997343999992005040101004+42400-086283FM-18+0193SVNM V0202201N005719999999N9999999N1+00601+99999999999
0084997343999992005040102004+42400-086283FM-18+0193SVNM V0202801N006219999999N9999999N1+00791+99999999999REMSYN075CMAN  01024 SVNM4 46/// /2812 10079 90247 90246 90200 222// 0018 333 91214;
0000997343999992005040103004+42400-086283FM-18+0193SVNM V0203201N007719999999N9999999N1+00631+99999999999
0155997343999992005040104004+42400-086283FM-18+0193SVNM V0203301N003619999999N9999999N1+00521+99999999999REMSYN146CMAN  01044 SVNM4 46/// /3307 10052 90440 50006 90400 222// 0024555 11021 22022 30426 414039 60459 147024 146023 145026 145025 14007 12009 213003;
0000997343999992005040105004+42400-086283FM-18+0193SVNM V0209999C000019999999N9999999N1+00561+99999999999
0060997343999992005040106004+42400-086283FM-18+0193SVNM V0202001N002119999999N9999999N1+00591+99999999999REMSYN051CMAN  01064 SVNM4 46/// /2004 10059 9064 333 91222;
0000997343999992005040107004+42400-086283FM-18+0193SVNM V0201701N002119999999N9999999N1+00561+99999999999
0084997343999992005040108004+42400-086283FM-18+0193SVNM V0201701N001519999999N9999999N1+00531+99999999999REMSYN075CMAN  01084 SVNM4 46/// /1703 10053 90843 58011 90800 222// 0019 333 91233;
0060997343999992005040109004+42400-086283FM-18+0193SVNM V0201501N001019999999N9999999N1+00561+99999999999REMSYN051CMAN  01094 SVNM4 46/// /1502 10056 9094 333 91217;
0108997343999992005040110004+42400-086283FM-18+0193SVNM V0201401N001519999999N9999999N1+00571+99999999999REMSYN099CMAN  01104 SVNM4 46/// /1403 10057 91049 91040 91000 222// 0024 00061 10401 333 91006 91106 91206;
0060997343999992005040111004+42400-086283FM-18+0193SVNM V0201401N001519999999N9999999N1+00521+99999999999REMSYN051CMAN  01114 SVNM4 46/// /1403 10052 9114 333 91215;
0060997343999992005040112004+42400-086283FM-18+0193SVNM V0201401N002619999999N9999999N1+00571+99999999999REMSYN051CMAN  01124 SVNM4 46/// /1405 10057 91248 91222 17;
0142997343999992005040113004+42400-086283FM-18+0193SVNM V0201501N002119999999N9999999N1+00821+99999999999REMSYN133CMAN  01134 SVNM4 46/// /1504 10082 91343 52004 91300 222// 0024 30125 91300 333 6334 408006 61359 052004 055004 073005 070005 05007;
0084997343999992005040114004+42400-086283FM-18+0193SVNM V0201901N001019999999N9999999N1+01061+99999999999REMSYN075CMAN  01144 SVNM4 46/// /1902 10106 91449 56012 91400 222// 0019 333 91214;
0060997343999992005040115004+42400-086283FM-18+0193SVNM V0202901N003619999999N9999999N1+00851+99999999999REMSYN051CMAN  01154 SVNM4 46/// /2907 10085 91545 91558 10;
0079997343999992005040116004+42400-086283FM-18+0193SVNM V0200201N003119999999N9999999N1+00601+99999999999REMSYN070CMAN  01164 SVNM4 46/// /0206 10060 91646 56007 91600 222// 002482/36;
0079997343999992005040201004+42400-086283FM-18+0193SVNM V0200101N008719999999N9999999N1+00561+99999999999REMSYN070CMAN  02014 SVNM4 46/// /0117 10056 90140 54000 90100 222// 002591204;
0150997343999992005040202004+42400-086283FM-18+0193SVNM V0200201N008219999999N9999999N1+00471+99999999999REMSYN141CMAN  02024 SVNM4 46/// /0216 10047 90247 58003 90200 222// 0025 70500 333 42021 55/// 22169 30277 55300 20000 30000 8//// 8//// 8//// 91113;
0079997343999992005040203004+42400-086283FM-18+0193SVNM V0200101N007219999999N9999999N1+00481+99999999999REMSYN070CMAN  02034 SVNM4 46/// /0114 10048 90343 90358 90300 222// 001892419;
0000997343999992005040204004+42400-086283FM-18+0193SVNM V0200101N006719999999N9999999N1+00451+99999999999
0091997343999992005040205004+42400-086283FM-18+0193SVNM V0200101N006719999999N9999999N1+00421+99999999999REMSYN082CMAN  02054 SVNM4 46/// /0113 10042 90549 58008 90500 222// 002583816 81917 86080;
0078997343999992005040206004+42400-086283FM-18+0193SVNM V0200101N006219999999N9999999N1+00401+99999999999REMSYN069CMAN  02064 SVNM4 46/// /0112 10040 90642 58017 90600 222// 00259023;
0000997343999992005040207004+42400-086283FM-18+0193SVNM V0200201N007219999999N9999999N1+00431+99999999999
0060997343999992005040208004+42400-086283FM-18+0193SVNM V0200101N005119999999N9999999N1+00511+99999999999REMSYN051CMAN  02084 SVNM4 46/// /0110 10051 9084 333 91211;
0060997343999992005040209004+42400-086283FM-18+0193SVNM V0200101N007219999999N9999999N1+00531+99999999999REMSYN051CMAN  02094 SVNM4 46/// /0114 10053 9094 333 91213;
0060997343999992005040210004+42400-086283FM-18+0193SVNM V0200301N007219999999N9999999N1+00651+99999999999REMSYN051CMAN  02104 SVNM4 46/// /0314 10065 91048 33 91213;
0060997343999992005040211004+42400-086283FM-18+0193SVNM V0200201N009819999999N9999999N1+00571+99999999999REMSYN051CMAN  02114 SVNM4 46/// /0219 10057 9114 333 91211;
0060997343999992005040212004+42400-086283FM-18+0193SVNM V0200201N009319999999N9999999N1+00551+99999999999REMSYN051CMAN  02124 SVNM4 46/// /0218 10055 91249 91255 14;
0060997343999992005040213004+42400-086283FM-18+0193SVNM V0200301N008219999999N9999999N1+00651+99999999999REMSYN051CMAN  02134 SVNM4 46/// /0316 10065 9134 333 91217;
0000997343999992005040214004+42400-086283FM-18+0193SVNM V0203601N008719999999N9999999N1+00501+99999999999
0103997343999992005040215004+42400-086283FM-18+0193SVNM V0203401N009819999999N9999999N1+00491+99999999999REMSYN094CMAN  02154 SVNM4 46/// /3419 10049 91544 222// 0022/ 0018/ 00259 333 91221 50710 91110 93100;
0000997343999992005040216004+42400-086283FM-18+0193SVNM V0203401N008719999999N9999999N1+00531+99999999999
0060997343999992005040217004+42400-086283FM-18+0193SVNM V0203301N010819999999N9999999N1+00501+99999999999REMSYN051CMAN  02174 SVNM4 46/// /3321 10050 9174 333 91222;
0084997343999992005040218004+42400-086283FM-18+0193SVNM V0203601N008219999999N9999999N1+00521+99999999999REMSYN075CMAN  02184 SVNM4 46/// /3616 10052 91842 58015 91800 222// 0018 333 91214;
0000997343999992005040219004+42400-086283FM-18+0193SVNM V0203501N008719999999N9999999N1+00561+99999999999
0060997343999992005040221004+42400-086283FM-18+0193SVNM V0200201N008219999999N9999999N1+00561+99999999999REMSYN051CMAN  02214 SVNM4 46/// /0216 10056 92144 92136 21;
0060997343999992005040222004+42400-086283FM-18+0193SVNM V0203601N011319999999N9999999N1+00561+99999999999REMSYN051CMAN  02224 SVNM4 46/// /3622 10056 9224 333 91214;
0060997343999992005040223004+42400-086280FM-18+0193SVNM V0203501N011819999999N9999999N1+00531+99999999999REMSYN051CMAN  02234 SVNM4 46/// /3523 10053 92348 33 91217;
0060997343999992005040300004+42400-086280FM-18+0193SVNM V0203501N012919999999N9999999N1+00561+99999999999REMSYN051CMAN  03004 SVNM4 46/// /3525 10056 90045 90051 11;
0060997343999992005040301004+42400-086280FM-18+0193SVNM V0200101N009319999999N9999999N1+00561+99999999999REMSYN051CMAN  03014 SVNM4 46/// /0118 10056 90147 90158 13;
0078997343999992005040302004+42400-086280FM-18+0193SVNM V0203601N005719999999N9999999N1+00491+99999999999REMSYN069CMAN  03024 SVNM4 46/// /3611 10049 90246 90254 222// 0023 333 91213;
0084997343999992005040303004+42400-086280FM-18+0193SVNM V0203501N007219999999N9999999N1+00461+99999999999REMSYN075CMAN  03034 SVNM4 46/// /3514 10046 90347 51020 90300 222// 0023 555 6//82;
0091997343999992005040304004+42400-086280FM-18+0193SVNM V0200201N005119999999N9999999N1+00471+99999999999REMSYN082CMAN  03044 SVNM4 46/// /0210 10047 90444 51024 90400 222// 001805352 30033 70143;
0126997343999992005040305004+42400-086280FM-18+0193SVNM V0203501N004619999999N9999999N1+00421+99999999999REMSYN117CMAN  03054 SVNM4 46/// /3509 10042 90544 53011 90500 222// 0022 77177 885// 333 11089 21101 48046 70040 90983 93202;
0084997343999992005040306004+42400-086280FM-18+0193SVNM V0203201N006719999999N9999999N1+00381+99999999999REMSYN075CMAN  03064 SVNM4 46/// /3213 10038 90643 52006 90600 222// 0022 333 91211;
0089997343999992005040307004+42400-086280FM-18+0193SVNM V0203301N006719999999N9999999N1+00391+99999999999REMSYN080CMAN  03074 SVNM4 46/// /3313 10039 90747 90744 90700 222// 001891205 555 53113;
0000997343999992005040308004+42400-086280FM-18+0193SVNM V0203501N007219999999N9999999N1+00371+99999999999
0060997343999992005040309004+42400-086280FM-18+0193SVNM V0203401N007219999999N9999999N1+00361+99999999999REMSYN051CMAN  03094 SVNM4 46/// /3414 10036 9094 333 91215;
0073997343999992005040310004+42400-086280FM-18+0193SVNM V0203301N006719999999N9999999N1+00341+99999999999REMSYN064CMAN  03104 SVNM4 46/// /3313 10034 91048 91048 222// 000419001;
0060997343999992005040311004+42400-086280FM-18+0193SVNM V0203301N007219999999N9999999N1+00351+99999999999REMSYN051CMAN  03114 SVNM4 46/// /3314 10035 9114 333 91219;
0060997343999992005040312004+42400-086280FM-18+0193SVNM V0203401N006719999999N9999999N1+00411+99999999999REMSYN051CMAN  03124 SVNM4 46/// /3413 10041 91248 91208 15;
0000997343999992005040313004+42400-086280FM-18+0193SVNM V0203401N006719999999N9999999N1+00451+99999999999
0152997343999992005040314004+42400-086280FM-18+0193SVNM V0203301N005119999999N9999999N1+00481+99999999999REMSYN143CMAN  03144 SVNM4 46/// /3310 10048 91442 51018 91400 222// 001715 57025 7//// 8//// 22212 0//// 2//01 321// 40804 5//// 6//// 8//// ICE /////;
0090997343999992005040315004+42400-086280FM-18+0193SVNM V0203201N003619999999N9999999N1+00561+99999999999REMSYN081CMAN  03154 SVNM4 46/// /3207 10056 91544 222// 00149 333 91214 5 333 91219 5129;
0100997343999992005040316004+42400-086280FM-18+0193SVNM V0203101N003119999999N9999999N1+00631+99999999999REMSYN091CMAN  03164 SVNM4 46/// /3106 10063 91642 51008 91600 222// 0022 333 82/06 84/10 555 7/097;
0060997343999992005040317004+42400-086280FM-18+0193SVNM V0202901N005719999999N9999999N1+00471+99999999999REMSYN051CMAN  03174 SVNM4 46/// /2911 10047 9174 333 91221;
0084997343999992005040318004+42400-086280FM-18+0193SVNM V0202801N005719999999N9999999N1+00441+99999999999REMSYN075CMAN  03184 SVNM4 46/// /2811 10044 91846 58018 91800 222// 0022 333 81073;
0113997343999992005040319004+42400-086280FM-18+0193SVNM V0202701N006219999999N9999999N1+00431+99999999999REMSYN104CMAN  03194 SVNM4 46/// /2712 10043 91945 58014 91900 222// 0018/ 00206 333 91210 51108 91203 555 53000;
0091997343999992005040320004+42400-086280FM-18+0193SVNM V0202701N005119999999N9999999N1+00451+99999999999REMSYN082CMAN  03204 SVNM4 46/// /2710 10045 92040 57018 92000 222// 001858008 83830 83363;
0091997343999992005040321004+42400-086280FM-18+0193SVNM V0202601N002619999999N9999999N1+00491+99999999999REMSYN082CMAN  03214 SVNM4 46/// /2605 10049 92146 56017 92100 222// 0018/ 92200 333 6///0;
0096997343999992005040322004+42400-086280FM-18+0193SVNM V0202201N001019999999N9999999N1+00541+99999999999REMSYN087CMAN  03224 SVNM4 46/// /2202 10054 92242 56007 92200 222// 0023 70322 858// 333 70128;
0060997343999992005040323004+42400-086283FM-18+0193SVNM V0202101N002119999999N9999999N1+00551+99999999999REMSYN051CMAN  03234 SVNM4 46/// /2104 10055 9234 333 91220;
0000997343999992005040400004+42400-086283FM-18+0193SVNM V0202201N000519999999N9999999N1+00531+99999999999
0000997343999992005040410004+42400-086283FM-18+0193SVNM V0201001N001019999999N9999999N1+00231+99999999999
0060997343999992005040411004+42400-086283FM-18+0193SVNM V0200301N000519999999N9999999N1+00241+99999999999REMSYN051CMAN  04114 SVNM4 46/// /0301 10024 9114 333 91209;
0060997343999992005040412004+42400-086283FM-18+0193SVNM V0200301N000519999999N9999999N1+00421+99999999999REMSYN051CMAN  04124 SVNM4 46/// /0301 10042 91244 91258 09;
0000997343999992005040413004+42400-086283FM-18+0193SVNM V0200101N001519999999N9999999N1+00811+99999999999
0000997343999992005040414004+42400-086283FM-18+0193SVNM V0201001N003619999999N9999999N1+01151+99999999999
0060997343999992005040415004+42400-086283FM-18+0193SVNM V0201101N003119999999N9999999N1+01351+99999999999REMSYN051CMAN  04154 SVNM4 46/// /1106 10135 9154 333 91213;
0000997343999992005040416004+42400-086283FM-18+0193SVNM V0200701N003119999999N9999999N1+01521+99999999999
0060997343999992005040417004+42400-086283FM-18+0193SVNM V0203201N001519999999N9999999N1+01591+99999999999REMSYN051CMAN  04174 SVNM4 46/// /3203 10159 91744 91749 11;
0084997343999992005040418004+42400-086283FM-18+0193SVNM V0200201N003619999999N9999999N1+01031+99999999999REMSYN075CMAN  04184 SVNM4 46/// /0207 10103 91844 57008 91800 222// 0018 333 91208;
0060997343999992005040419004+42400-086283FM-18+0193SVNM V0200101N003619999999N9999999N1+01091+99999999999REMSYN051CMAN  04194 SVNM4 46/// /0107 10109 91943 91954 11;
0060997343999992005040420004+42400-086283FM-18+0193SVNM V0200201N005719999999N9999999N1+01111+99999999999REMSYN051CMAN  04204 SVNM4 46/// /0211 10111 92044 92051 11;
0084997343999992005040421004+42400-086283FM-18+0193SVNM V0200201N005119999999N9999999N1+01271+99999999999REMSYN075CMAN  04214 SVNM4 46/// /0210 10127 92142 56012 92100 222// 0019 333 91207;
0060997343999992005040422004+42400-086283FM-18+0193SVNM V0200201N003619999999N9999999N1+01411+99999999999REMSYN051CMAN  04224 SVNM4 46/// /0207 10141 92249 92248 08;
0000997343999992005040423004+42400-086283FM-18+0193SVNM V0201301N003119999999N9999999N1+02061+99999999999
0000997343999992005040500004+42400-086283FM-18+0193SVNM V0201101N002619999999N9999999N1+01921+99999999999
0000997343999992005040501004+42400-086283FM-18+0193SVNM V0201101N003119999999N9999999N1+01801+99999999999
0060997343999992005040502004+42400-086283FM-18+0193SVNM V0201101N003619999999N9999999N1+01691+99999999999REMSYN051CMAN  05024 SVNM4 46/// /1107 10169 9024 333 91201;
0102997343999992005040503004+42400-086283FM-18+0193SVNM V0201201N005119999999N9999999N1+01641+99999999999REMSYN093CMAN  05034 SVNM4 46/// /1210 10164 90349 90348 222// 000391206 5 333 91216 5623 90710 91114;
0060997343999992005040504004+42400-086283FM-18+0193SVNM V0201301N006719999999N9999999N1+01621+99999999999REMSYN051CMAN  05044 SVNM4 46/// /1313 10162 9044 333 91203;
0060997343999992005040505004+42400-086283FM-18+0193SVNM V0201301N006719999999N9999999N1+01571+99999999999REMSYN051CMAN  05054 SVNM4 46/// /1313 10157 9054 333 91204;
0097997343999992005040506004+42400-086283FM-18+0193SVNM V0201401N006719999999N9999999N1+01551+99999999999REMSYN088CMAN  05064 SVNM4 46/// /1413 10155 90647 58013 90600 222// 001853001 7//// 22214 04036;
0113997343999992005040507004+42400-086283FM-18+0193SVNM V0201201N006219999999N9999999N1+01471+99999999999REMSYN104CMAN  05074 SVNM4 46/// /1212 10147 90743 56014 90700 222// 001881/10 83/19 91006 91107 91205 555 53095;
0060997343999992005040508004+42400-086283FM-18+0193SVNM V0201401N005119999999N9999999N1+01361+99999999999REMSYN051CMAN  05084 SVNM4 46/// /1410 10136 9084 333 91208;
0096997343999992005040509004+42400-086283FM-18+0193SVNM V0201401N005119999999N9999999N1+01301+99999999999REMSYN087CMAN  05094 SVNM4 46/// /1410 10130 90946 90948 222// 0008/ 0022 333 86809 91105 91203;
0119997343999992005040510004+42400-086283FM-18+0193SVNM V0201501N005119999999N9999999N1+01281+99999999999REMSYN110CMAN  05104 SVNM4 46/// /1510 10128 91040 55004 91000 222// 002285/20 86/24 87/29 91007 91107 91205 555 53123;
0079997343999992005040511004+42400-086283FM-18+0193SVNM V0201401N006219999999N9999999N1+01301+99999999999REMSYN070CMAN  05114 SVNM4 46/// /1412 10130 91145 53005 91100 222// 002286078;
0083997343999992005040512004+42400-086283FM-18+0193SVNM V0201501N006719999999N9999999N1+01411+99999999999REMSYN074CMAN  05124 SVNM4 46/// /1513 10141 91241 53008 91200 222// 0018555 6//78;
0097997343999992005040513004+42400-086283FM-18+0193SVNM V0201801N006219999999N9999999N1+01581+99999999999REMSYN088CMAN  05134 SVNM4 46/// /1812 10158 91348 91352 00186 333 91206 53715 82920 82820 85640;
0060997343999992005040514004+42400-086283FM-18+0193SVNM V0202001N006219999999N9999999N1+01581+99999999999REMSYN051CMAN  05144 SVNM4 46/// /2012 10158 91446 91451 21;
0060997343999992005040515004+42400-086283FM-18+0193SVNM V0202001N004619999999N9999999N1+01201+99999999999REMSYN051CMAN  05154 SVNM4 46/// /2009 10120 91543 91558 21;
0000997343999992005040516004+42400-086283FM-18+0193SVNM V0202001N003619999999N9999999N1+01171+99999999999
0060997343999992005040517004+42400-086283FM-18+0193SVNM V0202001N005119999999N9999999N1+01291+99999999999REMSYN051CMAN  05174 SVNM4 46/// /2010 10129 91749 91754 21;
0051997343999992005040518004+42400-086283FM-18+0193SVNM V0202001N004619999999N9999999N1+01361+99999999999REMSYN042CMAN  05184 SVNM4 46/// /2009 10136 91846;
0000997343999992005040519004+42400-086283FM-18+0193SVNM V0202001N003619999999N9999999N1+01391+99999999999
0060997343999992005040520004+42400-086283FM-18+0193SVNM V0202001N004119999999N9999999N1+01561+99999999999REMSYN051CMAN  05204 SVNM4 46/// /2008 10156 92047 92054 04;
0208997343999992005040521004+42400-086283FM-18+0193SVNM V0202001N003619999999N9999999N1+01631+99999999999REMSYN199CMAN  05214 SVNM4 46/// /2007 10163 92145 56019 92100 222// 0019 92150 22200 00134 11304 20401 3//// 41304 70021 333 91205 555 11044 22046 32147 43405 62149 342041 345040 344037 348035 352035 352034;
0091997343999992005040522004+42400-086283FM-18+0193SVNM V0202101N003119999999N9999999N1+01631+99999999999REMSYN082CMAN  05224 SVNM4 46/// /2106 10163 92246 92248 92200 222// 002391002 91102 91202;
0102997343999992005040523004+42400-086283FM-18+0193SVNM V0201901N003119999999N9999999N1+01721+99999999999REMSYN093CMAN  05234 SVNM4 46/// /1906 10172 92344 222// 00235 522// 00232 333 91218 500210 333 91202;
0060997343999992005040600004+42400-086283FM-18+0193SVNM V0201901N005119999999N9999999N1+01891+99999999999REMSYN051CMAN  06004 SVNM4 46/// /1910 10189 90048 90058 12;
0090997343999992005040601004+42400-086283FM-18+0193SVNM V0201901N001519999999N9999999N1+01601+99999999999REMSYN081CMAN  06014 SVNM4 46/// /1903 10160 90149 90145 00231 522// 00229 333 91219 5114;
0060997343999992005040611004+42400-086283FM-18+0193SVNM V0201701N004119999999N9999999N1+01691+99999999999REMSYN051CMAN  06114 SVNM4 46/// /1708 10169 91146 91138 12;
0150997343999992005040612004+42400-086283FM-18+0193SVNM V0201501N003619999999N9999999N1+01671+99999999999REMSYN141CMAN  06124 SVNM4 46/// /1507 10167 91244 222// 00209 333 91206 555 11011 22012 31150 403020 61159 030015 027016 030014 024011 020 ICE /////;
0000997343999992005040615004+42400-086283FM-18+0193SVNM V0202101N005119999999N9999999N1+02141+99999999999
0108997343999992005040616004+42400-086283FM-18+0193SVNM V0202301N004619999999N9999999N1+01781+99999999999REMSYN099CMAN  06164 SVNM4 46/// /2309 10178 91645 51004 91600 222// 0022 333 60005 84633 87457 90710 91119;
0079997343999992005040617004+42400-086283FM-18+0193SVNM V0202001N003619999999N9999999N1+01641+99999999999REMSYN070CMAN  06174 SVNM4 46/// /2007 10164 91749 91700 222// 0019/ 00235619/;
0060997343999992005040618004+42400-086283FM-18+0193SVNM V0202001N002619999999N9999999N1+01691+99999999999REMSYN051CMAN  06184 SVNM4 46/// /2005 10169 91842 91858 12;
0060997343999992005040620004+42400-086283FM-18+0193SVNM V0209999C000019999999N9999999N1+02151+99999999999REMSYN051CMAN  06204 SVNM4 46/// /0000 10215 92049 92050 06;
0060997343999992005040621004+42400-086283FM-18+0193SVNM V0200101N003119999999N9999999N1+02001+99999999999REMSYN051CMAN  06214 SVNM4 46/// /0106 10200 9214 333 91213;
0000997343999992005040622004+42400-086283FM-18+0193SVNM V0200201N002619999999N9999999N1+01971+99999999999
0060997343999992005040623004+42400-086283FM-18+0193SVNM V0200201N002619999999N9999999N1+02001+99999999999REMSYN051CMAN  06234 SVNM4 46/// /0205 10200 9234 333 91219;
0078997343999992005040700004+42400-086283FM-18+0193SVNM V0209999C000019999999N9999999N1+02041+99999999999REMSYN069CMAN  07004 SVNM4 46/// /0000 10204 90045 58024 90000 222// 00195300;
0091997343999992005040701004+42400-086283FM-18+0193SVNM V0201801N001519999999N9999999N1+02021+99999999999REMSYN082CMAN  07014 SVNM4 46/// /1803 10202 90140 55012 90100 222// 001991009 91110 91206;
0089997343999992005040702004+42400-086283FM-18+0193SVNM V0203201N001019999999N9999999N1+01211+99999999999REMSYN080CMAN  07024 SVNM4 46/// /3202 10121 90247 53012 90200 222// 002391108 555 60005;
0000997343999992005040703004+42400-086283FM-18+0193SVNM V0202001N003119999999N9999999N1+01091+99999999999
0142997343999992005040704004+42400-086283FM-18+0193SVNM V0201901N003619999999N9999999N1+01061+99999999999REMSYN133CMAN  07044 SVNM4 46/// /1907 10106 90446 51003 90400 222// 0023555 11016 22017 30443 416023 60459 155017 155017 159016 158012 15018;
0166997343999992005040705004+42400-086283FM-18+0193SVNM V0203201N006219999999N9999999N1+00711+99999999999REMSYN157CMAN  07054 SVNM4 46/// /3212 10071 90544 222// 00232 333 91214 5 333 91212 501 30555 418005 60559 175003 308002 338003 349002 2309 338010 33025 16555 60035;
0060997343999992005040706004+42400-086283FM-18+0193SVNM V0203601N006219999999N9999999N1+00481+99999999999REMSYN051CMAN  07064 SVNM4 46/// /3612 10048 9064 333 91212;
0000997343999992005040707004+42400-086283FM-18+0193SVNM V0203601N006219999999N9999999N1+00481+99999999999
0060997343999992005040708004+42400-086283FM-18+0193SVNM V0203601N007219999999N9999999N1+00461+99999999999REMSYN051CMAN  07084 SVNM4 46/// /3614 10046 9084 333 91210;
0000997343999992005040709004+42400-086283FM-18+0193SVNM V0203601N008719999999N9999999N1+00451+99999999999
0090997343999992005040710004+42400-086283FM-18+0193SVNM V0200101N008219999999N9999999N1+00451+99999999999REMSYN081CMAN  07104 SVNM4 46/// /0116 10045 91043 56010 91000 222// 0022 333 81366 87274;
0185997343999992005040711004+42400-086283FM-18+0193SVNM V0203601N008719999999N9999999N1+00441+99999999999REMSYN176CMAN  07114 SVNM4 46/// /3617 10044 91140 91156 91100 222// 00220 22200 00089 10000 70000 333 91203 555 11033 22039 31059 42705 61149 282029 289029 291030 298033 267037 266035;
0107997343999992005040712004+42400-086283FM-18+0193SVNM V0200101N009319999999N9999999N1+00451+99999999999REMSYN098CMAN  07124 SVNM4 46/// /0118 10045 91248 57007 91200 222// 0019/// 2//00 3//// 4//// 5//// 6////;
0118997343999992005040713004+42400-086283FM-18+0193SVNM V0200101N008219999999N9999999N1+00541+99999999999REMSYN109CMAN  07134 SVNM4 46/// /0116 10054 91343 91328 222// 00164 1//03 70015 333 91220 555 11012 220/ 40702 80005;
0060997343999992005040714004+42400-086283FM-18+0193SVNM V0203601N009319999999N9999999N1+00571+99999999999REMSYN051CMAN  07144 SVNM4 46/// /3618 10057 91448 91456 13;
0097997343999992005040715004+42400-086283FM-18+0193SVNM V0203601N008719999999N9999999N1+00611+99999999999REMSYN088CMAN  07154 SVNM4 46/// /3617 10061 91544 222// 0022/ 00193 333 91212 5 70020 333 91203;
0079997343999992005040716004+42400-086283FM-18+0193SVNM V0203501N009819999999N9999999N1+00621+99999999999REMSYN070CMAN  07164 SVNM4 46/// /3519 10062 91641 91646 91600 222// 001982/50;
0085997343999992005040717004+42400-086283FM-18+0193SVNM V0203501N009819999999N9999999N1+00661+99999999999REMSYN076CMAN  07174 SVNM4 46/// /3519 10066 91742 91750 91700 222// 001920110 92438;
0074997343999992005040718004+42400-086283FM-18+0193SVNM V0200201N009319999999N9999999N1+01181+99999999999REMSYN065CMAN  07184 SVNM4 46/// /0218 10118 91840 58010 91800 222// 0019;
0000997343999992005040719004+42400-086283FM-18+0193SVNM V0203501N010319999999N9999999N1+00621+99999999999
0096997343999992005040720004+42400-086283FM-18+0193SVNM V0200101N007719999999N9999999N1+00621+99999999999REMSYN087CMAN  07204 SVNM4 46/// /0115 10062 92046 92058 00230 222// 00202 333 91212 5650 91113;
0000997343999992005040721004+42400-086283FM-18+0193SVNM V0200101N007219999999N9999999N1+00621+99999999999
0149997343999992005040722004+42400-086283FM-18+0193SVNM V0200101N008219999999N9999999N1+00651+99999999999REMSYN140CMAN  07224 SVNM4 46/// /0116 10065 92248 92243 92200 222// 002057012 70322 83108 22254 00217 20302 3//// 4//// 5//// 6//// 80178 ICE /////;
0060997343999992005040723004+42400-086283FM-18+0193SVNM V0200201N007219999999N9999999N1+00651+99999999999REMSYN051CMAN  07234 SVNM4 46/// /0214 10065 9234 333 91211;
0091997343999992005040800004+42400-086283FM-18+0193SVNM V0200101N006219999999N9999999N1+00591+99999999999REMSYN082CMAN  08004 SVNM4 46/// /0112 10059 90040 54000 90000 222// 002091025 90710 91126;
0060997343999992005040801004+42400-086283FM-18+0193SVNM V0200201N004619999999N9999999N1+00611+99999999999REMSYN051CMAN  08014 SVNM4 46/// /0209 10061 90142 90145 09;
0106997343999992005040802004+42400-086283FM-18+0193SVNM V0200201N002619999999N9999999N1+00621+99999999999REMSYN097CMAN  08024 SVNM4 46/// /0205 10062 90244 53006 90200 222// 0020 333 10146 20097 91016 555 91031;
0107997343999992005040803004+42400-086283FM-18+0193SVNM V0201101N000519999999N9999999N1+00701+99999999999REMSYN098CMAN  08034 SVNM4 46/// /1101 10070 90346 90354 222// 0014/ 001986/45 91007 91109 91205 555 53000;
0000997343999992005040804004+42400-086283FM-18+0193SVNM V0200601N002119999999N9999999N1+00811+99999999999
0000997343999992005040805004+42400-086283FM-18+0193SVNM V0201001N002619999999N9999999N1+01021+99999999999
0103997343999992005040806004+42400-086283FM-18+0193SVNM V0200901N002119999999N9999999N1+00931+99999999999REMSYN094CMAN  08064 SVNM4 46/// /0904 10093 90648 50000 90600 222// 001985815 83626 90710 91125 93100;
0079997343999992005040807004+42400-086283FM-18+0193SVNM V0201001N002119999999N9999999N1+00881+99999999999REMSYN070CMAN  08074 SVNM4 46/// /1004 10088 90747 90748 222// 0013/ 001983816;
0085997343999992005040808004+42400-086283FM-18+0193SVNM V0200801N002619999999N9999999N1+00761+99999999999REMSYN076CMAN  08084 SVNM4 46/// /0805 10076 90848 58013 90800 222// 001983364 87080;
0000997343999992005040809004+42400-086283FM-18+0193SVNM V0200301N001519999999N9999999N1+00591+99999999999
0075997343999992005040810004+42400-086283FM-18+0193SVNM V0200601N002119999999N9999999N1+00591+99999999999REMSYN066CMAN  08104 SVNM4 46/// /0604 10059 91040 91022 91000 222// 00198;
0000997343999992005040811004+42400-086283FM-18+0193SVNM V0200601N001519999999N9999999N1+00601+99999999999
0000997343999992005040812004+42400-086283FM-18+0193SVNM V0200501N002119999999N9999999N1+00781+99999999999
0097997343999992005040813004+42400-086283FM-18+0193SVNM V0200301N001519999999N9999999N1+00991+99999999999REMSYN088CMAN  08134 SVNM4 46/// /0303 10099 91346 53018 91300 222// 0019 30068 91402 333 604134;
0083997343999992005040814004+42400-086283FM-18+0193SVNM V0200101N002619999999N9999999N1+00911+99999999999REMSYN074CMAN  08144 SVNM4 46/// /0105 10091 91449 51019 91400 222// 0019206 53104;
0060997343999992005040815004+42400-086283FM-18+0193SVNM V0200101N003619999999N9999999N1+00891+99999999999REMSYN051CMAN  08154 SVNM4 46/// /0107 10089 9154 333 91213;
0108997343999992005040816004+42400-086283FM-18+0193SVNM V0203601N003619999999N9999999N1+00901+99999999999REMSYN099CMAN  08164 SVNM4 46/// /3607 10090 91642 51006 91600 222// 0019 8523/ 333 55300 60017 85833 86359;
0103997343999992005040817004+42400-086283FM-18+0193SVNM V0200101N003619999999N9999999N1+00891+99999999999REMSYN094CMAN  08174 SVNM4 46/// /0107 10089 91744 222// 00223 333 91212 5 533 91210 56077 91118 91212;
0000997343999992005040818004+42400-086283FM-18+0193SVNM V0200101N005119999999N9999999N1+00911+99999999999
0060997343999992005040819004+42400-086283FM-18+0193SVNM V0200201N005719999999N9999999N1+00921+99999999999REMSYN051CMAN  08194 SVNM4 46/// /0211 10092 9194 333 91213;
0079997343999992005040820004+42400-086283FM-18+0193SVNM V0200101N007719999999N9999999N1+00851+99999999999REMSYN070CMAN  08204 SVNM4 46/// /0115 10085 92047 58021 92000 222// 002487078;
0103997343999992005040821004+42400-086283FM-18+0193SVNM V0200101N007219999999N9999999N1+00831+99999999999REMSYN094CMAN  08214 SVNM4 46/// /0114 10083 92144 222// 00239 333 91214 5 333 91214 57648 92446 98582;
0079997343999992005040822004+42400-086283FM-18+0193SVNM V0200201N008219999999N9999999N1+00801+99999999999REMSYN070CMAN  08224 SVNM4 46/// /0216 10080 92243 92248 92200 222// 002484/50;
0060997343999992005040823004+42400-086283FM-18+0193SVNM V0200201N008219999999N9999999N1+00851+99999999999REMSYN051CMAN  08234 SVNM4 46/// /0216 10085 9234 333 91206;
0060997343999992005040900004+42400-086283FM-18+0193SVNM V0200201N006719999999N9999999N1+00831+99999999999REMSYN051CMAN  09004 SVNM4 46/// /0213 10083 90047 90047 05;
0074997343999992005040901004+42400-086283FM-18+0193SVNM V0200201N004119999999N9999999N1+00871+99999999999REMSYN065CMAN  09014 SVNM4 46/// /0208 10087 90147 90150 90100 222// 0019;
0090997343999992005040902004+42400-086283FM-18+0193SVNM V0200701N002619999999N9999999N1+01231+99999999999REMSYN081CMAN  09024 SVNM4 46/// /0705 10123 90244 222// 00220 333 91221 5 333 91218 5821;
0079997343999992005040903004+42400-086283FM-18+0193SVNM V0200901N004119999999N9999999N1+01241+99999999999REMSYN070CMAN  09034 SVNM4 46/// /0908 10124 90341 51016 90300 222// 001988643;
0000997343999992005040904004+42400-086283FM-18+0193SVNM V0201001N003619999999N9999999N1+01181+99999999999
0091997343999992005040905004+42400-086283FM-18+0193SVNM V0201001N004119999999N9999999N1+01101+99999999999REMSYN082CMAN  09054 SVNM4 46/// /1008 10110 90542 53006 90500 222// 002359006 81708 83818;
0095997343999992005040906004+42400-086283FM-18+0193SVNM V0201101N004619999999N9999999N1+01031+99999999999REMSYN086CMAN  09064 SVNM4 46/// /1109 10103 90645 50004 90600 222// 001987704 88515 555 6//97;
0091997343999992005040907004+42400-086283FM-18+0193SVNM V0201201N003619999999N9999999N1+00971+99999999999REMSYN082CMAN  09074 SVNM4 46/// /1207 10097 90745 54000 90700 222// 001982707 83715 88620;
0000997343999992005040908004+42400-086283FM-18+0193SVNM V0201301N002619999999N9999999N1+00911+99999999999
0060997343999992005040909004+42400-086283FM-18+0193SVNM V0201101N001519999999N9999999N1+00821+99999999999REMSYN051CMAN  09094 SVNM4 46/// /1103 10082 9094 333 91200;
0089997343999992005040910004+42400-086283FM-18+0193SVNM V0200901N002619999999N9999999N1+00731+99999999999REMSYN080CMAN  09104 SVNM4 46/// /0905 10073 91040 54000 91000 222// 002391206 555 53240;
0060997343999992005040911004+42400-086283FM-18+0193SVNM V0201001N002619999999N9999999N1+00681+99999999999REMSYN051CMAN  09114 SVNM4 46/// /1005 10068 9114 333 91203;
0060997343999992005040912004+42400-086283FM-18+0193SVNM V0201201N004619999999N9999999N1+00831+99999999999REMSYN051CMAN  09124 SVNM4 46/// /1209 10083 91248 91251 00;
0000997343999992005040913004+42400-086283FM-18+0193SVNM V0201301N004619999999N9999999N1+01101+99999999999
0060997343999992005040914004+42400-086283FM-18+0193SVNM V0201201N004119999999N9999999N1+01321+99999999999REMSYN051CMAN  09144 SVNM4 46/// /1208 10132 91444 91458 07;
0000997343999992005040915004+42400-086283FM-18+0193SVNM V0201401N003619999999N9999999N1+01511+99999999999
0091997343999992005040916004+42400-086283FM-18+0193SVNM V0201701N003619999999N9999999N1+01651+99999999999REMSYN082CMAN  09164 SVNM4 46/// /1707 10165 91648 51010 91600 222// 002383648 87075 92447;
0000997343999992005040917004+42400-086283FM-18+0193SVNM V0203601N003619999999N9999999N1+01221+99999999999
0102997343999992005040918004+42400-086283FM-18+0193SVNM V0200201N004619999999N9999999N1+00991+99999999999REMSYN093CMAN  09184 SVNM4 46/// /0209 10099 91842 58005 91800 222// 0024 39770 91900 333 63820 92427;
0000997343999992005040919004+42400-086283FM-18+0193SVNM V0200201N005119999999N9999999N1+01031+99999999999
0060997343999992005040920004+42400-086283FM-18+0193SVNM V0200201N004119999999N9999999N1+01101+99999999999REMSYN051CMAN  09204 SVNM4 46/// /0208 10110 9204 333 91213;
0203997343999992005040921004+42400-086283FM-18+0193SVNM V0203601N004119999999N9999999N1+01151+99999999999REMSYN194CMAN  09214 SVNM4 46/// /3608 10115 92148 92137 92100 52006 92150 22200 00105 11207 20401 327// 41207 70034 333 91205 555 11038 22040 32053 42607 62149 237036 234035 238037 246039 252040 254048;
0060997343999992005040922004+42400-086283FM-18+0193SVNM V0200101N003619999999N9999999N1+01011+99999999999REMSYN051CMAN  09224 SVNM4 46/// /0107 10101 9224 333 91214;
0128997343999992005040923004+42400-086283FM-18+0193SVNM V0200201N006219999999N9999999N1+01101+99999999999REMSYN119CMAN  09234 SVNM4 46/// /0212 10110 92349 55000 92300 222// 0020/ 333 11185 2125 1 56499 58027 88730 90921 91535 93101;
0060997343999992005041000004+42400-086283FM-18+0193SVNM V0200301N002119999999N9999999N1+01121+99999999999REMSYN051CMAN  10004 SVNM4 46/// /0304 10112 90044 90052 12;
0084997343999992005041001004+42400-086283FM-18+0193SVNM V0201101N002119999999N9999999N1+01901+99999999999REMSYN075CMAN  10014 SVNM4 46/// /1104 10190 90149 90148 222// 0008/ 00286/25 84/37;
0084997343999992005041002004+42400-086283FM-18+0193SVNM V0201101N002619999999N9999999N1+01811+99999999999REMSYN075CMAN  10024 SVNM4 46/// /1105 10181 90247 90246 00230 222// 0029 555 19025;
0089997343999992005041003004+42400-086283FM-18+0193SVNM V0201201N002619999999N9999999N1+01711+99999999999REMSYN080CMAN  10034 SVNM4 46/// /1205 10171 90341 52018 90300 222// 002087610 555 6//91;
0089997343999992005041004004+42400-086283FM-18+0193SVNM V0201301N003619999999N9999999N1+01641+99999999999REMSYN080CMAN  10044 SVNM4 46/// /1307 10164 90443 90428 222// 00173 1//03 700191212 598;
0091997343999992005041005004+42400-086283FM-18+0193SVNM V0201301N005119999999N9999999N1+01521+99999999999REMSYN082CMAN  10054 SVNM4 46/// /1310 10152 90543 52003 90500 222// 0020/ 90600 333 6///0;
0060997343999992005041006004+42400-086283FM-18+0193SVNM V0201201N005719999999N9999999N1+01421+99999999999REMSYN051CMAN  10064 SVNM4 46/// /1211 10142 9064 333 91205;
0074997343999992005041007004+42400-086283FM-18+0193SVNM V0201201N005119999999N9999999N1+01331+99999999999REMSYN065CMAN  10074 SVNM4 46/// /1210 10133 90740 57003 90700 222// 0019;
0060997343999992005041008004+42400-086283FM-18+0193SVNM V0201101N006219999999N9999999N1+01241+99999999999REMSYN051CMAN  10084 SVNM4 46/// /1112 10124 9084 333 91202;
0000997343999992005041009004+42400-086283FM-18+0193SVNM V0201001N006719999999N9999999N1+01131+99999999999
0079997343999992005041010004+42400-086283FM-18+0193SVNM V0201001N006719999999N9999999N1+01101+99999999999REMSYN070CMAN  10104 SVNM4 46/// /1013 10110 91045 55005 91000 222// 00196//86;
0091997343999992005041011004+42400-086283FM-18+0193SVNM V0201001N007219999999N9999999N1+01071+99999999999REMSYN082CMAN  10114 SVNM4 46/// /1014 10107 91143 53008 91100 222// 0019/ 333 84607 87657;
0079997343999992005041012004+42400-086283FM-18+0193SVNM V0201101N007219999999N9999999N1+01201+99999999999REMSYN070CMAN  10124 SVNM4 46/// /1114 10120 91243 51021 91200 222// 002386818;
0079997343999992005041013004+42400-086283FM-18+0193SVNM V0201101N006219999999N9999999N1+01501+99999999999REMSYN070CMAN  10134 SVNM4 46/// /1112 10150 91342 53027 91300 222// 001910252;
0067997343999992005041014004+42400-086283FM-18+0193SVNM V0201101N005119999999N9999999N1+01821+99999999999REMSYN058CMAN  10144 SVNM4 46/// /1110 10182 9144/ 00111 333 91203;
0060997343999992005041015004+42400-086283FM-18+0193SVNM V0201201N004119999999N9999999N1+02101+99999999999REMSYN051CMAN  10154 SVNM4 46/// /1208 10210 91547 91554 07;
0090997343999992005041017004+42400-086283FM-18+0193SVNM V0201401N004119999999N9999999N1+02391+99999999999REMSYN081CMAN  10174 SVNM4 46/// /1408 10239 91745 91758 91700 222// 00200211 84070 95300;
0079997343999992005041018004+42400-086283FM-18+0193SVNM V0203401N005119999999N9999999N1+99999+99999999999REMSYN070CMAN  10184 SVNM4 46/// /3410 1//// 91840 50000 91800 222// 002086/62;
0091997343999992005041019004+42400-086283FM-18+0193SVNM V0203601N003119999999N9999999N1+01391+99999999999REMSYN082CMAN  10194 SVNM4 46/// /3606 10139 91941 58011 91900 222// 0020/ 91900 333 6///0;
0203997343999992005041020004+42400-086283FM-18+0193SVNM V0200201N005719999999N9999999N1+01641+99999999999REMSYN194CMAN  10204 SVNM4 46/// /0211 10164 92045 92030 92000 222// 00230 22200 00103 11106 20605 328// 41104 70031 333 91216 555 11143 22152 32012 41817 62049 174133 174123 175123 175125 175122 175120;
0000997343999992005041021004+42400-086283FM-18+0193SVNM V0200201N005719999999N9999999N1+01561+99999999999
0096997343999992005041022004+42400-086283FM-18+0193SVNM V0200301N007719999999N9999999N1+01901+99999999999REMSYN087CMAN  10224 SVNM4 46/// /0315 10190 92246 56008 92200 222// 00230005 91043 90710 91149;
0060997343999992005041023004+42400-086283FM-18+0193SVNM V0200501N001519999999N9999999N1+01971+99999999999REMSYN051CMAN  10234 SVNM4 46/// /0503 10197 9234 333 91203;
0133997343999992005041100004+42400-086283FM-18+0193SVNM V0200901N002619999999N9999999N1+02381+99999999999REMSYN124CMAN  11004 SVNM4 46/// /0905 10238 90044 90053 90000 222// 002052017 70122 85800 22200 04064 10804 323// 40804 5//// 70021;
0000997343999992005041101004+42400-086283FM-18+0193SVNM V0200801N005119999999N9999999N1+02171+99999999999
0000997343999992005041102004+42400-086283FM-18+0193SVNM V0201001N005719999999N9999999N1+02081+99999999999
0091997343999992005041103004+42400-086283FM-18+0193SVNM V0201001N006719999999N9999999N1+01951+99999999999REMSYN082CMAN  11034 SVNM4 46/// /1013 10195 90344 222// 00229 333 91214 5 333 91212 56/50;
0000997343999992005041104004+42400-086283FM-18+0193SVNM V0201101N006719999999N9999999N1+01811+99999999999
0060997343999992005041105004+42400-086283FM-18+0193SVNM V0201001N006719999999N9999999N1+01731+99999999999REMSYN051CMAN  11054 SVNM4 46/// /1013 10173 9054 333 91213;
0078997343999992005041106004+42400-086283FM-18+0193SVNM V0201101N006719999999N9999999N1+01661+99999999999REMSYN069CMAN  11064 SVNM4 46/// /1113 10166 90648 56012 90600 222// 00209010;
0091997343999992005041107004+42400-086283FM-18+0193SVNM V0201101N007219999999N9999999N1+01581+99999999999REMSYN082CMAN  11074 SVNM4 46/// /1114 10158 90747 56010 90700 222// 0020/ 90800 333 6///0;
0060997343999992005041108004+42400-086283FM-18+0193SVNM V0201101N007219999999N9999999N1+01501+99999999999REMSYN051CMAN  11084 SVNM4 46/// /1114 10150 9084 333 91213;
0000997343999992005041109004+42400-086283FM-18+0193SVNM V0201001N008219999999N9999999N1+01491+99999999999
0060997343999992005041111004+42400-086283FM-18+0193SVNM V0201101N008219999999N9999999N1+01441+99999999999REMSYN051CMAN  11114 SVNM4 46/// /1116 10144 9114 333 91219;
0090997343999992005041112004+42400-086283FM-18+0193SVNM V0201101N008719999999N9999999N1+01451+99999999999REMSYN081CMAN  11124 SVNM4 46/// /1117 10145 91245 91258 91200 222// 0020 333 81820 83068;
0097997343999992005041113004+42400-086283FM-18+0193SVNM V0201101N009319999999N9999999N1+01531+99999999999REMSYN088CMAN  11134 SVNM4 46/// /1118 10153 91341 91325 91300 222// 002283/25 91025 90710 91126;
0060997343999992005041114004+42400-086283FM-18+0193SVNM V0201101N009819999999N9999999N1+01681+99999999999REMSYN051CMAN  11144 SVNM4 46/// /1119 10168 9144 333 91217;
0067997343999992005041115004+42400-086283FM-18+0193SVNM V0201001N009319999999N9999999N1+01871+99999999999REMSYN058CMAN  11154 SVNM4 46/// /1018 10187 91541 91500 333 91214;
0000997343999992005041116004+42400-086283FM-18+0193SVNM V0201001N008719999999N9999999N1+02021+99999999999
0000997343999992005041117004+42400-086283FM-18+0193SVNM V0201101N008219999999N9999999N1+02161+99999999999
0060997343999992005041118004+42400-086283FM-18+0193SVNM V0201201N007719999999N9999999N1+02241+99999999999REMSYN051CMAN  11184 SVNM4 46/// /1215 10224 9184 333 91212;
0149997343999992005041119004+42400-086283FM-18+0193SVNM V0201201N005719999999N9999999N1+02311+99999999999REMSYN140CMAN  11194 SVNM4 46/// /1211 10231 91946 91919 222// 0015/ 002355 11005 22006 31925 434009 61959 338005 350005 350007 348006 347006 357004;
0060997343999992005041120004+42400-086283FM-18+0193SVNM V0201101N008219999999N9999999N1+02281+99999999999REMSYN051CMAN  11204 SVNM4 46/// /1116 10228 92040 92053 11;
0060997343999992005041121004+42400-086283FM-18+0193SVNM V0201001N008219999999N9999999N1+02231+99999999999REMSYN051CMAN  11214 SVNM4 46/// /1016 10223 92148 92123 12;
0060997343999992005041122004+42400-086283FM-18+0193SVNM V0200901N008219999999N9999999N1+02171+99999999999REMSYN051CMAN  11224 SVNM4 46/// /0916 10217 92243 92245 16;
0060997343999992005041123004+42400-086283FM-18+0193SVNM V0201001N008219999999N9999999N1+02041+99999999999REMSYN051CMAN  11234 SVNM4 46/// /1016 10204 9234 333 91214;
0100997343999992005041200004+42400-086283FM-18+0193SVNM V0201001N008219999999N9999999N1+01891+99999999999REMSYN091CMAN  12004 SVNM4 46/// /1016 10189 90042 90020 90000 222// 0021 333 56500 82616 555 10185;
0090997343999992005041201004+42400-086283FM-18+0193SVNM V0201001N007719999999N9999999N1+01751+99999999999REMSYN081CMAN  12014 SVNM4 46/// /1015 10175 90144 222// 00228 333 91206 5 333 91216 5102;
0089997343999992005041202004+42400-086283FM-18+0193SVNM V0201001N008219999999N9999999N1+01601+99999999999REMSYN080CMAN  12024 SVNM4 46/// /1016 10160 90243 56018 90200 222// 002091013 555 90972;
0091997343999992005041203004+42400-086283FM-18+0193SVNM V0201001N007719999999N9999999N1+01481+99999999999REMSYN082CMAN  12034 SVNM4 46/// /1015 10148 90344 222// 00225 333 91204 5 333 91214 51114;
0068997343999992005041204004+42400-086283FM-18+0193SVNM V0201001N010319999999N9999999N1+01381+99999999999REMSYN059CMAN  12044 SVNM4 46/// /1020 10138 90449 90442 222// 0007;
0091997343999992005041205004+42400-086283FM-18+0193SVNM V0201001N009319999999N9999999N1+01271+99999999999REMSYN082CMAN  12054 SVNM4 46/// /1018 10127 90546 53013 90500 222// 002082612 81925 95735;
0091997343999992005041206004+42400-086283FM-18+0193SVNM V0201001N010319999999N9999999N1+01171+99999999999REMSYN082CMAN  12064 SVNM4 46/// /1020 10117 90646 50000 90600 222// 002011239 21353 70027;
0079997343999992005041207004+42400-086283FM-18+0193SVNM V0201101N008719999999N9999999N1+01091+99999999999REMSYN070CMAN  12074 SVNM4 46/// /1117 10109 90747 50000 90700 222// 00206//72;
0079997343999992005041208004+42400-086283FM-18+0193SVNM V0201001N008719999999N9999999N1+00991+99999999999REMSYN070CMAN  12084 SVNM4 46/// /1017 10099 90844 56014 90800 222// 00236//57;
0079997343999992005041209004+42400-086283FM-18+0193SVNM V0201101N009819999999N9999999N1+00891+99999999999REMSYN070CMAN  12094 SVNM4 46/// /1119 10089 90946 55010 90900 222// 002083364;
0091997343999992005041210004+42400-086283FM-18+0193SVNM V0201101N009319999999N9999999N1+00831+99999999999REMSYN082CMAN  12104 SVNM4 46/// /1118 10083 91044 91000 222// 0017/ 333 81707 87642 87650;
0060997343999992005041211004+42400-086283FM-18+0193SVNM V0201001N009319999999N9999999N1+00811+99999999999REMSYN051CMAN  12114 SVNM4 46/// /1018 10081 9114 333 91220;
0060997343999992005041212004+42400-086283FM-18+0193SVNM V0201001N009819999999N9999999N1+00871+99999999999REMSYN051CMAN  12124 SVNM4 46/// /1019 10087 91245 91226 21;
0060997343999992005041213004+42400-086283FM-18+0193SVNM V0201401N004119999999N9999999N1+00931+99999999999REMSYN051CMAN  12134 SVNM4 46/// /1408 10093 91343 91309 19;
0060997343999992005041214004+42400-086283FM-18+0193SVNM V0201001N006719999999N9999999N1+01051+99999999999REMSYN051CMAN  12144 SVNM4 46/// /1013 10105 9144 333 91220;
0060997343999992005041215004+42400-086283FM-18+0193SVNM V0200801N009819999999N9999999N1+01191+99999999999REMSYN051CMAN  12154 SVNM4 46/// /0819 10119 9154 333 91219;
0000997343999992005041216004+42400-086283FM-18+0193SVNM V0200901N007219999999N9999999N1+01361+99999999999
0060997343999992005041217004+42400-086283FM-18+0193SVNM V0200901N007219999999N9999999N1+01541+99999999999REMSYN051CMAN  12174 SVNM4 46/// /0914 10154 9174 333 91218;
0000997343999992005041218004+42400-086283FM-18+0193SVNM V0200901N007219999999N9999999N1+01671+99999999999
0000997343999992005041219004+42400-086283FM-18+0193SVNM V0201001N009319999999N9999999N1+01631+99999999999
0060997343999992005041220004+42400-086283FM-18+0193SVNM V0200801N007719999999N9999999N1+01721+99999999999REMSYN051CMAN  12204 SVNM4 46/// /0815 10172 9204 333 91220;
0000997343999992005041221004+42400-086283FM-18+0193SVNM V0200701N008219999999N9999999N1+01651+99999999999
0084997343999992005041222004+42400-086283FM-18+0193SVNM V0200701N005719999999N9999999N1+01591+99999999999REMSYN075CMAN  12224 SVNM4 46/// /0711 10159 92247 58011 92200 222// 0020 333 82920;
0060997343999992005041223004+42400-086283FM-18+0193SVNM V0200701N005719999999N9999999N1+01521+99999999999REMSYN051CMAN  12234 SVNM4 46/// /0711 10152 9234 333 91213;
0000997343999992005041300004+42400-086283FM-18+0193SVNM V0200801N006219999999N9999999N1+01421+99999999999
0150997343999992005041301004+42400-086283FM-18+0193SVNM V0200701N004119999999N9999999N1+01301+99999999999REMSYN141CMAN  13014 SVNM4 46/// /0708 10130 90149 55000 90100 222// 0020 54000 7//11 86628 22244 00230 2//// 3//// 4//// 5//// 6//// 80230 ICE /////;
0060997343999992005041302004+42400-086283FM-18+0193SVNM V0200601N005119999999N9999999N1+01021+99999999999REMSYN051CMAN  13024 SVNM4 46/// /0610 10102 9024 333 91203;
0000997343999992005041303004+42400-086283FM-18+0193SVNM V0200701N005719999999N9999999N1+00821+99999999999
0000997343999992005041304004+42400-086283FM-18+0193SVNM V0200701N006719999999N9999999N1+00741+99999999999
0101997343999992005041305004+42400-086283FM-18+0193SVNM V0200601N006219999999N9999999N1+00661+99999999999REMSYN092CMAN  13054 SVNM4 46/// /0612 10066 90541 58008 90500 222// 002421209 91022 555 11181 90970;
0079997343999992005041306004+42400-086283FM-18+0193SVNM V0200601N004619999999N9999999N1+00601+99999999999REMSYN070CMAN  13064 SVNM4 46/// /0609 10060 90648 56014 90600 222// 002487358;
0095997343999992005041307004+42400-086283FM-18+0193SVNM V0200701N006219999999N9999999N1+00531+99999999999REMSYN086CMAN  13074 SVNM4 46/// /0712 10053 90746 53004 90700 222// 001985612 87356 555 357//;
0000997343999992005041308004+42400-086283FM-18+0193SVNM V0200701N006219999999N9999999N1+00501+99999999999
0091997343999992005041309004+42400-086283FM-18+0193SVNM V0200601N005119999999N9999999N1+00471+99999999999REMSYN082CMAN  13094 SVNM4 46/// /0610 10047 90948 51006 90900 222// 001981918 83820 87359;
0089997343999992005041310004+42400-086283FM-18+0193SVNM V0200601N005719999999N9999999N1+00481+99999999999REMSYN080CMAN  13104 SVNM4 46/// /0611 10048 91040 91023 222// 001791108 91206 555 53110;
0060997343999992005041311004+42400-086283FM-18+0193SVNM V0200601N004619999999N9999999N1+00521+99999999999REMSYN051CMAN  13114 SVNM4 46/// /0609 10052 91146 91150 08;
0060997343999992005041312004+42400-086283FM-18+0193SVNM V0200701N006719999999N9999999N1+00621+99999999999REMSYN051CMAN  13124 SVNM4 46/// /0713 10062 9124 333 91208;
0000997343999992005041313004+42400-086283FM-18+0193SVNM V0200701N007219999999N9999999N1+00771+99999999999
0060997343999992005041314004+42400-086283FM-18+0193SVNM V0200701N005719999999N9999999N1+01011+99999999999REMSYN051CMAN  13144 SVNM4 46/// /0711 10101 9144 333 91210;
0060997343999992005041315004+42400-086283FM-18+0193SVNM V0200701N005119999999N9999999N1+01191+99999999999REMSYN051CMAN  13154 SVNM4 46/// /0710 10119 91543 91558 08;
0000997343999992005041316004+42400-086283FM-18+0193SVNM V0200501N007219999999N9999999N1+01311+99999999999
0060997343999992005041317004+42400-086283FM-18+0193SVNM V0200601N006719999999N9999999N1+01521+99999999999REMSYN051CMAN  13174 SVNM4 46/// /0613 10152 91742 91749 16;
0060997343999992005041318004+42400-086283FM-18+0193SVNM V0200401N007719999999N9999999N1+01551+99999999999REMSYN051CMAN  13184 SVNM4 46/// /0415 10155 9184 333 91216;
0133997343999992005041319004+42400-086283FM-18+0193SVNM V0203501N011319999999N9999999N1+00752+99999999999REMSYN124CMAN  13194 SVNM4 46/// /3522 10075 91941 58009 91900 222// 0024 39960 91900 333 622200 04058 10807 3//// 4//// 5//// 70036;
0074997343999992005041320004+42400-086283FM-18+0193SVNM V0200201N008719999999N9999999N1+00771+99999999999REMSYN065CMAN  13204 SVNM4 46/// /0217 10077 92041 58011 92000 222// 0020;
0097997343999992005041321004+42400-086283FM-18+0193SVNM V0200101N007719999999N9999999N1+00781+99999999999REMSYN088CMAN  13214 SVNM4 46/// /0115 10078 92141 92158 92100 222// 002088/58 91005 91106 91204;
0000997343999992005041322004+42400-086283FM-18+0193SVNM V0200201N007219999999N9999999N1+00731+99999999999
0060997343999992005041323004+42400-086283FM-18+0193SVNM V0200201N005719999999N9999999N1+00731+99999999999REMSYN051CMAN  13234 SVNM4 46/// /0211 10073 9234 333 91206;
0060997343999992005041400004+42400-086283FM-18+0193SVNM V0200101N004619999999N9999999N1+00631+99999999999REMSYN051CMAN  14004 SVNM4 46/// /0109 10063 90040 90056 05;
0092997343999992005041401004+42400-086283FM-18+0193SVNM V0200301N004619999999N9999999N1+00661+99999999999REMSYN083CMAN  14014 SVNM4 46/// /0309 10066 90142 52003 90100 222// 0020 57005 22200 80055;
0079997343999992005041402004+42400-086283FM-18+0193SVNM V0200601N004119999999N9999999N1+01121+99999999999REMSYN070CMAN  14024 SVNM4 46/// /0608 10112 90244 53011 90200 222// 002385080;
0079997343999992005041403004+42400-086283FM-18+0193SVNM V0200601N003619999999N9999999N1+01061+99999999999REMSYN070CMAN  14034 SVNM4 46/// /0607 10106 90343 90354 90300 222// 002384633;
0085997343999992005041404004+42400-086283FM-18+0193SVNM V0200601N003119999999N9999999N1+01001+99999999999REMSYN076CMAN  14044 SVNM4 46/// /0606 10100 90444 53012 90400 222// 002081703 87708;
0000997343999992005041405004+42400-086283FM-18+0193SVNM V0200601N003619999999N9999999N1+00951+99999999999
0000997343999992005041406004+42400-086283FM-18+0193SVNM V0200501N002619999999N9999999N1+00821+99999999999
0079997343999992005041407004+42400-086283FM-18+0193SVNM V0200501N003119999999N9999999N1+00731+99999999999REMSYN070CMAN  14074 SVNM4 46/// /0506 10073 90748 51014 90700 222// 00206//72;
0060997343999992005041408004+42400-086283FM-18+0193SVNM V0200401N003119999999N9999999N1+00681+99999999999REMSYN051CMAN  14084 SVNM4 46/// /0406 10068 9084 333 91211;
0089997343999992005041409004+42400-086283FM-18+0193SVNM V0200501N002619999999N9999999N1+00661+99999999999REMSYN080CMAN  14094 SVNM4 46/// /0505 10066 90945 90948 222// 001491107 91205 555 53099;
0000997343999992005041410004+42400-086283FM-18+0193SVNM V0200501N002619999999N9999999N1+00651+99999999999
0060997343999992005041411004+42400-086283FM-18+0193SVNM V0200601N003119999999N9999999N1+00611+99999999999REMSYN051CMAN  14114 SVNM4 46/// /0606 10061 9114 333 91212;
0060997343999992005041412004+42400-086283FM-18+0193SVNM V0200101N001519999999N9999999N1+00821+99999999999REMSYN051CMAN  14124 SVNM4 46/// /0103 10082 9124 333 91219;
0060997343999992005041413004+42400-086283FM-18+0193SVNM V0203301N002119999999N9999999N1+00791+99999999999REMSYN051CMAN  14134 SVNM4 46/// /3304 10079 9134 333 91218;
0060997343999992005041414004+42400-086283FM-18+0193SVNM V0203501N005119999999N9999999N1+00781+99999999999REMSYN051CMAN  14144 SVNM4 46/// /3510 10078 9144 333 91213;
0096997343999992005041415004+42400-086283FM-18+0193SVNM V0200101N003619999999N9999999N1+00821+99999999999REMSYN087CMAN  14154 SVNM4 46/// /0107 10082 91544 222// 00208 333 91208 5 333 91214 5360 88270;
0079997343999992005041416004+42400-086283FM-18+0193SVNM V0200101N005119999999N9999999N1+00801+99999999999REMSYN070CMAN  14164 SVNM4 46/// /0110 10080 91640 91648 222// 0014/ 001984075;
0134997343999992005041417004+42400-086283FM-18+0193SVNM V0200101N003119999999N9999999N1+00881+99999999999REMSYN125CMAN  14174 SVNM4 46/// /0106 10088 91744 222// 00219 333 91208 5 333 91208 582160 22275 00142 20301 330// 40602 5//// 80098;
0060997343999992005041418004+42400-086283FM-18+0193SVNM V0200101N005719999999N9999999N1+00891+99999999999REMSYN051CMAN  14184 SVNM4 46/// /0111 10089 9184 333 91210;
0079997343999992005041419004+42400-086283FM-18+0193SVNM V0200201N006219999999N9999999N1+00851+99999999999REMSYN070CMAN  14194 SVNM4 46/// /0212 10085 91945 54000 91900 222// 001987/50;
0060997343999992005041420004+42400-086283FM-18+0193SVNM V0200201N007219999999N9999999N1+00781+99999999999REMSYN051CMAN  14204 SVNM4 46/// /0214 10078 92049 92041 10;
0060997343999992005041421004+42400-086283FM-18+0193SVNM V0200201N007719999999N9999999N1+00781+99999999999REMSYN051CMAN  14214 SVNM4 46/// /0215 10078 92148 92126 08;
0079997343999992005041422004+42400-086283FM-18+0193SVNM V0200101N007219999999N9999999N1+00831+99999999999REMSYN070CMAN  14224 SVNM4 46/// /0114 10083 92247 55000 92200 222// 001991202;
0060997343999992005041423004+42400-086283FM-18+0193SVNM V0200101N005119999999N9999999N1+00801+99999999999REMSYN051CMAN  14234 SVNM4 46/// /0110 10080 9234 333 91203;
0000997343999992005041500004+42400-086283FM-18+0193SVNM V0200301N005719999999N9999999N1+00791+99999999999
0079997343999992005041501004+42400-086283FM-18+0193SVNM V0200201N002619999999N9999999N1+00761+99999999999REMSYN070CMAN  15014 SVNM4 46/// /0205 10076 90145 90149 90100 222// 001991202;
0089997343999992005041502004+42400-086283FM-18+0193SVNM V0200801N003619999999N9999999N1+01121+99999999999REMSYN080CMAN  15024 SVNM4 46/// /0807 10112 90242 53021 90200 222// 001991110 555 60025;
0000997343999992005041503004+42400-086283FM-18+0193SVNM V0200801N004619999999N9999999N1+01071+99999999999
0000997343999992005041504004+42400-086283FM-18+0193SVNM V0200801N005719999999N9999999N1+00961+99999999999
0060997343999992005041505004+42400-086283FM-18+0193SVNM V0200901N006719999999N9999999N1+00761+99999999999REMSYN051CMAN  15054 SVNM4 46/// /0913 10076 90540 33 91206;
0060997343999992005041506004+42400-086283FM-18+0193SVNM V0201001N006219999999N9999999N1+00611+99999999999REMSYN051CMAN  15064 SVNM4 46/// /1012 10061 9064 333 91215;
0000997343999992005041507004+42400-086283FM-18+0193SVNM V0200901N005719999999N9999999N1+00531+99999999999
0060997343999992005041508004+42400-086283FM-18+0193SVNM V0200901N005719999999N9999999N1+00451+99999999999REMSYN051CMAN  15084 SVNM4 46/// /0911 10045 9084 333 91216;
0107997343999992005041509004+42400-086283FM-18+0193SVNM V0200901N005119999999N9999999N1+00381+99999999999REMSYN098CMAN  15094 SVNM4 46/// /0910 10038 90940 52006 90900 222// 001987/59 91010 91110 91208 555 53073;
0060997343999992005041510004+42400-086283FM-18+0193SVNM V0200901N004119999999N9999999N1+00351+99999999999REMSYN051CMAN  15104 SVNM4 46/// /0908 10035 91047 91022 08;
0060997343999992005041511004+42400-086283FM-18+0193SVNM V0200901N004619999999N9999999N1+00341+99999999999REMSYN051CMAN  15114 SVNM4 46/// /0909 10034 9114 333 91208;
0101997343999992005041512004+42400-086283FM-18+0193SVNM V0201101N003619999999N9999999N1+00471+99999999999REMSYN092CMAN  15124 SVNM4 46/// /1107 10047 91244 222// 00167 333 91208 5 333 91216 555 10056 55094;
0000997343999992005041513004+42400-086283FM-18+0193SVNM V0201001N003619999999N9999999N1+00821+99999999999
0060997343999992005041514004+42400-086283FM-18+0193SVNM V0201101N004619999999N9999999N1+01191+99999999999REMSYN051CMAN  15144 SVNM4 46/// /1109 10119 91448 91450 08;
0091997343999992005041515004+42400-086283FM-18+0193SVNM V0200801N003619999999N9999999N1+01401+99999999999REMSYN082CMAN  15154 SVNM4 46/// /0807 10140 91544 222// 00175 333 91214 5 533 91219 56656;
0078997343999992005041516004+42400-086283FM-18+0193SVNM V0203201N004119999999N9999999N1+00821+99999999999REMSYN069CMAN  15164 SVNM4 46/// /3208 10082 91643 52008 91600 222// 00230228;
0000997343999992005041517004+42400-086283FM-18+0193SVNM V0200201N004619999999N9999999N1+00781+99999999999
0072997343999992005041518004+42400-086283FM-18+0193SVNM V0200201N006219999999N9999999N1+00841+99999999999REMSYN063CMAN  15184 SVNM4 46/// /0212 10084 91846 91858 222// 00231214;
0089997343999992005041519004+42400-086283FM-18+0193SVNM V0200101N004619999999N9999999N1+00881+99999999999REMSYN080CMAN  15194 SVNM4 46/// /0109 10088 91941 58014 91900 222// 001981070 555 10124;
0125997343999992005041520004+42400-086283FM-18+0193SVNM V0200201N004119999999N9999999N1+00901+99999999999REMSYN116CMAN  15204 SVNM4 46/// /0208 10090 92041 58007 92000 222// 002385/50 88/58 91001 91107 91205 555 51102 51202 53000;
0060997343999992005041521004+42400-086283FM-18+0193SVNM V0200101N003119999999N9999999N1+00971+99999999999REMSYN051CMAN  15214 SVNM4 46/// /0106 10097 92145 92134 10;
0085997343999992005041522004+42400-086283FM-18+0193SVNM V0200201N003619999999N9999999N1+00921+99999999999REMSYN076CMAN  15224 SVNM4 46/// /0207 10092 92241 56004 92200 222// 0023/ 333 70004;
0000997343999992005041523004+42400-086283FM-18+0193SVNM V0200201N006219999999N9999999N1+00811+99999999999
0079997343999992005041600004+42400-086283FM-18+0193SVNM V0200201N006719999999N9999999N1+00751+99999999999REMSYN070CMAN  16004 SVNM4 46/// /0213 10075 90047 90047 90000 222// 002091202;
0000997343999992005041601004+42400-086283FM-18+0193SVNM V0200301N005719999999N9999999N1+00841+99999999999
0085997343999992005041602004+42400-086283FM-18+0193SVNM V0201401N001019999999N9999999N1+00901+99999999999REMSYN076CMAN  16024 SVNM4 46/// /1402 10090 90242 53023 90200 222// 0022943// 911//;
0060997343999992005041603004+42400-086283FM-18+0193SVNM V0201401N003619999999N9999999N1+01111+99999999999REMSYN051CMAN  16034 SVNM4 46/// /1407 10111 90340 33 91205;
0079997343999992005041604004+42400-086283FM-18+0193SVNM V0201401N004619999999N9999999N1+01231+99999999999REMSYN070CMAN  16044 SVNM4 46/// /1409 10123 90443 51022 90400 222// 002285080;
0115997343999992005041605004+42400-086283FM-18+0193SVNM V0201301N005119999999N9999999N1+01101+99999999999REMSYN106CMAN  16054 SVNM4 46/// /1310 10110 90542 90500 222// 0019/ 002220246 55085 22438 58011 70000 82820 86080;
0060997343999992005041606004+42400-086283FM-18+0193SVNM V0201301N006719999999N9999999N1+01051+99999999999REMSYN051CMAN  16064 SVNM4 46/// /1313 10105 9064 333 91206;
0060997343999992005041607004+42400-086283FM-18+0193SVNM V0201301N006219999999N9999999N1+00961+99999999999REMSYN051CMAN  16074 SVNM4 46/// /1312 10096 9074 333 91204;
0060997343999992005041608004+42400-086283FM-18+0193SVNM V0201201N005119999999N9999999N1+00891+99999999999REMSYN051CMAN  16084 SVNM4 46/// /1210 10089 9084 333 91204;
0000997343999992005041609004+42400-086283FM-18+0193SVNM V0201201N006719999999N9999999N1+00851+99999999999
0000997343999992005041610004+42400-086283FM-18+0193SVNM V0201301N006719999999N9999999N1+00841+99999999999
0091997343999992005041614004+42400-086283FM-18+0193SVNM V0202201N002619999999N9999999N1+01591+99999999999REMSYN082CMAN  16144 SVNM4 46/// /2205 10159 91441 91453 91400 222// 002159017 84627 86457;
0060997343999992005041615004+42400-086283FM-18+0193SVNM V0203301N000519999999N9999999N1+01411+99999999999REMSYN051CMAN  16154 SVNM4 46/// /3301 10141 91543 91558 05;
0080997343999992005041616004+42400-086283FM-18+0193SVNM V0201901N000519999999N9999999N1+01481+99999999999REMSYN071CMAN  16164 SVNM4 46/// /1901 10148 91649 91651 91600 222// 0022 70200;
0060997343999992005041617004+42400-086283FM-18+0193SVNM V0203101N001519999999N9999999N1+01621+99999999999REMSYN051CMAN  16174 SVNM4 46/// /3103 10162 91748 91754 06;
0085997343999992005041618004+42400-086283FM-18+0193SVNM V0203601N002119999999N9999999N1+01601+99999999999REMSYN076CMAN  16184 SVNM4 46/// /3604 10160 91845 58018 91800 222// 001987656 92439;
0085997343999992005041619004+42400-086283FM-18+0193SVNM V0200101N002619999999N9999999N1+01631+99999999999REMSYN076CMAN  16194 SVNM4 46/// /0105 10163 91948 91954 91900 222// 001988656 92439;
0060997343999992005041620004+42400-086283FM-18+0193SVNM V0200201N003619999999N9999999N1+01471+99999999999REMSYN051CMAN  16204 SVNM4 46/// /0207 10147 9204 333 91214;
0091997343999992005041621004+42400-086283FM-18+0193SVNM V0200201N003119999999N9999999N1+01591+99999999999REMSYN082CMAN  16214 SVNM4 46/// /0206 10159 92148 56008 92100 222// 002291005 91106 91204;
0000997343999992005041622004+42400-086283FM-18+0193SVNM V0200301N004119999999N9999999N1+01481+99999999999
0060997343999992005041623004+42400-086280FM-18+0193SVNM V0200301N003619999999N9999999N1+01661+99999999999REMSYN051CMAN  16234 SVNM4 46/// /0307 10166 9234 333 91208;
0079997343999992005041700004+42400-086280FM-18+0193SVNM V0200701N002119999999N9999999N1+01791+99999999999REMSYN070CMAN  17004 SVNM4 46/// /0704 10179 90047 55000 90000 222// 001991208;
0000997343999992005041701004+42400-086280FM-18+0193SVNM V0200901N003119999999N9999999N1+01781+99999999999
0060997343999992005041702004+42400-086280FM-18+0193SVNM V0201101N003619999999N9999999N1+01751+99999999999REMSYN051CMAN  17024 SVNM4 46/// /1107 10175 9024 333 91204;
0091997343999992005041703004+42400-086280FM-18+0193SVNM V0201101N004619999999N9999999N1+01741+99999999999REMSYN082CMAN  17034 SVNM4 46/// /1109 10174 90347 90348 222// 000591208 5 333 91221 5//99;
0079997343999992005041704004+42400-086280FM-18+0193SVNM V0201201N004619999999N9999999N1+01691+99999999999REMSYN070CMAN  17044 SVNM4 46/// /1209 10169 90446 51010 90400 222// 001991204;
0000997343999992005041705004+42400-086280FM-18+0193SVNM V0201301N004619999999N9999999N1+01691+99999999999
0060997343999992005041706004+42400-086280FM-18+0193SVNM V0202101N006719999999N9999999N1+01681+99999999999REMSYN051CMAN  17064 SVNM4 46/// /2113 10168 9064 333 91204;
0060997343999992005041707004+42400-086280FM-18+0193SVNM V0200301N004619999999N9999999N1+00951+99999999999REMSYN051CMAN  17074 SVNM4 46/// /0309 10095 9074 333 91204;
0000997343999992005041708004+42400-086280FM-18+0193SVNM V0201001N002119999999N9999999N1+01281+99999999999
0000997343999992005041709004+42400-086280FM-18+0193SVNM V0201301N001019999999N9999999N1+01281+99999999999
0075997343999992005041710004+42400-086280FM-18+0193SVNM V0201801N003119999999N9999999N1+01251+99999999999REMSYN066CMAN  17104 SVNM4 46/// /1806 10125 91044 56003 91000 222// 0021/;
0075997343999992005041710004+42400-086283FM-18+0193SVNM V0201801N003119999999N9999999N1+01251+99999999999REMSYN066CMAN  17104 SVNM4 46/// /1806 10125 91044 56003 91000 222// 0021/;
0259997343999992005041711004+42400-086280FM-18+0193SVNM V0201401N004619999999N9999999N1+01381+99999999999REMSYN250CMAN  17114 SVNM4 46/// /1409 10138 91149 53008 91100 222// 0019 8531/ 333 56399 59006 85918 88462 555 91712 91324 32474 80406 10267 20244 30085 40087 8321/ 333 56199 59027 83818 88463 555 91712 91336 32474 81215 10267 20239 30118 40121 8231/ 333 563
0060997343999992005041712004+42400-086280FM-18+0193SVNM V0201501N002619999999N9999999N1+01451+99999999999REMSYN051CMAN  17124 SVNM4 46/// /1505 10145 9124 333 91204;
0080997343999992005041713004+42400-086280FM-18+0193SVNM V0200201N001519999999N9999999N1+01071+99999999999REMSYN071CMAN  17134 SVNM4 46/// /0203 10107 91342 51019 91300 222// 0019 2220/;
0000997343999992005041714004+42400-086280FM-18+0193SVNM V0201201N001019999999N9999999N1+01331+99999999999
0091997343999992005041715004+42400-086280FM-18+0193SVNM V0202101N002619999999N9999999N1+01471+99999999999REMSYN082CMAN  17154 SVNM4 46/// /2105 10147 91544 222// 00156 333 91212 5 333 91212 51131;
0149997343999992005041716004+42400-086280FM-18+0193SVNM V0202801N001019999999N9999999N1+01541+99999999999REMSYN140CMAN  17164 SVNM4 46/// /2802 10154 91641 58003 91600 222// 002152030 7//22 86242 22233 00150 20402 328// 40803 5//// 6//// 80081 ICE /////;
0000997343999992005041717004+42400-086280FM-18+0193SVNM V0200201N003619999999N9999999N1+01021+99999999999
0060997343999992005041718004+42400-086280FM-18+0193SVNM V0200201N003119999999N9999999N1+01131+99999999999REMSYN051CMAN  17184 SVNM4 46/// /0206 10113 9184 333 91209;
0000997343999992005041719004+42400-086280FM-18+0193SVNM V0200201N004619999999N9999999N1+01181+99999999999
0090997343999992005041720004+42400-086280FM-18+0193SVNM V0200201N005719999999N9999999N1+01201+99999999999REMSYN081CMAN  17204 SVNM4 46/// /0211 10120 92048 56023 92000 222// 00193819 943// 911//;
0096997343999992005041721004+42400-086280FM-18+0193SVNM V0200201N006219999999N9999999N1+01161+99999999999REMSYN087CMAN  17214 SVNM4 46/// /0212 10116 92144 222// 00218 333 91216 5 333 91218 5642 87657;
0079997343999992005041722004+42400-086280FM-18+0193SVNM V0200201N005719999999N9999999N1+01091+99999999999REMSYN070CMAN  17224 SVNM4 46/// /0211 10109 92240 56011 92200 222// 002288464;
0115997343999992005041723004+42400-086283FM-18+0193SVNM V0200201N005119999999N9999999N1+01031+99999999999REMSYN106CMAN  17234 SVNM4 46/// /0210 10103 92342 54000 92300 222// 002220238 50730 55114 58005 7//// 81817 86080;
0097997343999992005041800004+42400-086283FM-18+0193SVNM V0200201N004619999999N9999999N1+00971+99999999999REMSYN088CMAN  18004 SVNM4 46/// /0209 10097 90044 222// 00210 333 91210 5 333 91216 5//// 60041;
0085997343999992005041801004+42400-086283FM-18+0193SVNM V0200201N004119999999N9999999N1+00981+99999999999REMSYN076CMAN  18014 SVNM4 46/// /0208 10098 90149 53009 90100 222// 002291104 91203;
0074997343999992005041802004+42400-086283FM-18+0193SVNM V0200201N005119999999N9999999N1+00981+99999999999REMSYN065CMAN  18024 SVNM4 46/// /0210 10098 90245 53013 90200 222// 0022;
0000997343999992005041803004+42400-086283FM-18+0193SVNM V0200201N004119999999N9999999N1+00941+99999999999
0000997343999992005041804004+42400-086283FM-18+0193SVNM V0200201N004119999999N9999999N1+00941+99999999999
0078997343999992005041805004+42400-086283FM-18+0193SVNM V0200401N001519999999N9999999N1+00951+99999999999REMSYN069CMAN  18054 SVNM4 46/// /0403 10095 90549 57003 90500 222// 00199987;
0088997343999992005041807004+42400-086283FM-18+0193SVNM V0200801N004619999999N9999999N1+01521+99999999999REMSYN079CMAN  18074 SVNM4 46/// /0809 10152 90741 90728 222// 00170 1//03 700157 22008;
0000997343999992005041808004+42400-086283FM-18+0193SVNM V0200901N003619999999N9999999N1+01451+99999999999
0060997343999992005041809004+42400-086283FM-18+0193SVNM V0201301N000519999999N9999999N1+01181+99999999999REMSYN051CMAN  18094 SVNM4 46/// /1301 10118 9094 333 91202;
0000997343999992005041810004+42400-086283FM-18+0193SVNM V0201501N001019999999N9999999N1+01251+99999999999
0155997343999992005041811004+42400-086283FM-18+0193SVNM V0200701N002119999999N9999999N1+01181+99999999999REMSYN146CMAN  18114 SVNM4 46/// /0704 10118 91144 222// 00165 333 91206 5 333 91218 503 22003 31150 406008 61149 060005 049003 059004 050003 04019 111017;
0000997343999992005041812004+42400-086283FM-18+0193SVNM V0201001N001519999999N9999999N1+01561+99999999999
0203997343999992005041813004+42400-086283FM-18+0193SVNM V0201501N001519999999N9999999N1+01791+99999999999REMSYN194CMAN  18134 SVNM4 46/// /1503 10179 91344 222// 00160 333 91208 5 333 91212 5 11107 20704 328// 41105 70033 333 91210 555 11095 22102 31341 43211 61349 324090 323090 318087 313087 317085 317087;
0060997343999992005041814004+42400-086283FM-18+0193SVNM V0203601N002119999999N9999999N1+01721+99999999999REMSYN051CMAN  18144 SVNM4 46/// /3604 10172 9144 333 91207;
0103997343999992005041815004+42400-086283FM-18+0193SVNM V0202301N001019999999N9999999N1+01431+99999999999REMSYN094CMAN  18154 SVNM4 46/// /2302 10143 91545 54000 91500 222// 0021/ 41203 333 1//// 2//// 9////;
0000997343999992005041816004+42400-086283FM-18+0193SVNM V0202201N002119999999N9999999N1+01111+99999999999
0000997343999992005041817004+42400-086283FM-18+0193SVNM V0209999C000019999999N9999999N1+01421+99999999999
0079997343999992005041818004+42400-086283FM-18+0193SVNM V0202401N001019999999N9999999N1+01481+99999999999REMSYN070CMAN  18184 SVNM4 46/// /2402 10148 91840 58015 91800 222// 002122234;
0102997343999992005041819004+42400-086283FM-18+0193SVNM V0202201N000519999999N9999999N1+01581+99999999999REMSYN093CMAN  18194 SVNM4 46/// /2201 10158 91944 58017 91900 222// 0020 30198 91800 333 66070 92429;
0079997343999992005041820004+42400-086283FM-18+0193SVNM V0200101N000519999999N9999999N1+01801+99999999999REMSYN070CMAN  18204 SVNM4 46/// /0101 10180 92041 56026 92000 222// 002181635;
0000997343999992005041821004+42400-086283FM-18+0193SVNM V0203601N000519999999N9999999N1+02061+99999999999
0000997343999992005041822004+42400-086283FM-18+0193SVNM V0200201N002119999999N9999999N1+02341+99999999999
0095997343999992005041823004+42400-086283FM-18+0193SVNM V0200301N000519999999N9999999N1+02431+99999999999REMSYN086CMAN  18234 SVNM4 46/// /0301 10243 92340 55000 92300 222// 002290710 91119 555 60005;
0090997343999992005041900004+42400-086283FM-18+0193SVNM V0200901N001519999999N9999999N1+02491+99999999999REMSYN081CMAN  19004 SVNM4 46/// /0903 10249 90044 222// 00214 333 91206 5 333 91219 5106;
0077997343999992005041901004+42400-086283FM-18+0193SVNM V0201101N003119999999N9999999N1+02391+99999999999REMSYN068CMAN  19014 SVNM4 46/// /1106 10239 90146 56003 90100 222// 0020/81;
0125997343999992005041902004+42400-086283FM-18+0193SVNM V0201201N003619999999N9999999N1+02361+99999999999REMSYN116CMAN  19024 SVNM4 46/// /1207 10236 90241 53005 90200 222// 002082/34 87/44 88/49 91001 91103 91202 555 51103 51202;
0000997343999992005041903004+42400-086283FM-18+0193SVNM V0201301N004119999999N9999999N1+02241+99999999999
0091997343999992005041904004+42400-086283FM-18+0193SVNM V0201401N005119999999N9999999N1+02161+99999999999REMSYN082CMAN  19044 SVNM4 46/// /1410 10216 90448 50000 90400 222// 001981708 83656 87363;
0101997343999992005041905004+42400-086283FM-18+0193SVNM V0201701N004619999999N9999999N1+02151+99999999999REMSYN092CMAN  19054 SVNM4 46/// /1709 10215 90545 50003 90500 222// 002121164 91011 555 11120 90982;
0000997343999992005041906004+42400-086283FM-18+0193SVNM V0202001N007719999999N9999999N1+01821+99999999999
0091997343999992005041907004+42400-086283FM-18+0193SVNM V0202001N007719999999N9999999N1+01461+99999999999REMSYN082CMAN  19074 SVNM4 46/// /2015 10146 90744 222// 00203 333 91206 5 333 91212 5///0;
0060997343999992005041908004+42400-086283FM-18+0193SVNM V0202001N007219999999N9999999N1+01451+99999999999REMSYN051CMAN  19084 SVNM4 46/// /2014 10145 90840 33 91200;
0000997343999992005041909004+42400-086283FM-18+0193SVNM V0202001N007719999999N9999999N1+01511+99999999999
0000997343999992005041910004+42400-086283FM-18+0193SVNM V0202001N007719999999N9999999N1+01541+99999999999
0000997343999992005041911004+42400-086283FM-18+0193SVNM V0202001N006719999999N9999999N1+01591+99999999999
0079997343999992005041912004+42400-086283FM-18+0193SVNM V0201901N006719999999N9999999N1+01751+99999999999REMSYN070CMAN  19124 SVNM4 46/// /1913 10175 91247 52018 91200 222// 001991112;
0000997343999992005041913004+42400-086283FM-18+0193SVNM V0202001N007219999999N9999999N1+01681+99999999999
0060997343999992005041914004+42400-086283FM-18+0193SVNM V0202001N007219999999N9999999N1+01631+99999999999REMSYN051CMAN  19144 SVNM4 46/// /2014 10163 9144 333 91210;
0060997343999992005041915004+42400-086283FM-18+0193SVNM V0202001N006219999999N9999999N1+01521+99999999999REMSYN051CMAN  19154 SVNM4 46/// /2012 10152 9154 333 91211;
