0000997341999992005032210004+43233-086333FM-18+0185MKGM V0200501N004119999999N9999999N1-00341+99999999999
0060997341999992005032211004+43233-086333FM-18+0185MKGM V0200501N004619999999N9999999N1-00371+99999999999REMSYN051CMAN  22114 MKGM4 46/// /0509 11037 9114 333 91207;
0060997341999992005032212004+43233-086333FM-18+0185MKGM V0200701N004119999999N9999999N1-00321+99999999999REMSYN051CMAN  22124 MKGM4 46/// /0708 11032 9124 333 91209;
0060997341999992005032213004+43233-086333FM-18+0185MKGM V0200601N004119999999N9999999N1-00171+99999999999REMSYN051CMAN  22134 MKGM4 46/// /0608 11017 9134 333 91211;
0060997341999992005032214004+43233-086333FM-18+0185MKGM V0200501N003119999999N9999999N1-00011+99999999999REMSYN051CMAN  22144 MKGM4 46/// /0506 11001 9144 333 91208;
0094997341999992005032217004+43233-086333FM-18+0185MKGM V0201001N003119999999N9999999N1+00421+99999999999REMSYN085CMAN  22174 MKGM4 46/// /1006 10042 91749 40209 54000 91705 333 91220 555 1006 22007;
0000997341999992005032218004+43233-086333FM-18+0185MKGM V0203201N003119999999N9999999N1+00191+99999999999
0000997341999992005032219004+43233-086333FM-18+0185MKGM V0202901N004619999999N9999999N1+00161+99999999999
0060997341999992005032221004+43233-086333FM-18+0185MKGM V0200501N005119999999N9999999N1+00561+99999999999REMSYN051CMAN  22214 MKGM4 46/// /0510 10056 9214 333 91211;
0097997341999992005032222004+43233-086333FM-18+0185MKGM V0200801N004619999999N9999999N1+00481+99999999999REMSYN088CMAN  22224 MKGM4 46/// /0809 10048 92249 53005 92200 222// 002882656 90710 91104 93100;
0060997341999992005032223004+43233-086333FM-18+0185MKGM V0200801N004619999999N9999999N1+00391+99999999999REMSYN051CMAN  22234 MKGM4 46/// /0809 10039 9234 333 91205;
0000997341999992005032300004+43233-086333FM-18+0185MKGM V0200901N004119999999N9999999N1+00311+99999999999
0079997341999992005032301004+43233-086333FM-18+0185MKGM V0200801N005119999999N9999999N1+00291+99999999999REMSYN070CMAN  23014 MKGM4 46/// /0810 10029 90146 53017 90100 222// 002891203;
0060997341999992005032302004+43233-086333FM-18+0185MKGM V0200801N007219999999N9999999N1+00191+99999999999REMSYN051CMAN  23024 MKGM4 46/// /0814 10019 9024 333 91204;
0097997341999992005032303004+43233-086333FM-18+0185MKGM V0200801N007719999999N9999999N1+00111+99999999999REMSYN088CMAN  23034 MKGM4 46/// /0815 10011 90343 51013 90300 222// 002855706 87612 91103 91202;
0060997341999992005032304004+43233-086333FM-18+0185MKGM V0200701N007719999999N9999999N1+00051+99999999999REMSYN051CMAN  23044 MKGM4 46/// /0715 10005 9044 333 91204;
0084997341999992005032305004+43233-086333FM-18+0185MKGM V0200701N008219999999N9999999N1+00001+99999999999REMSYN075CMAN  23054 MKGM4 46/// /0716 10000 90542 58010 90500 222// 0028 333 91211;
0078997341999992005032306004+43233-086333FM-18+0185MKGM V0200701N007719999999N9999999N1-00061+99999999999REMSYN069CMAN  23064 MKGM4 46/// /0715 11006 90647 58016 90600 222// 00285028;
0060997341999992005032307004+43233-086333FM-18+0185MKGM V0200701N006219999999N9999999N1-00051+99999999999REMSYN051CMAN  23074 MKGM4 46/// /0712 11005 9074 333 91217;
0084997341999992005032308004+43233-086333FM-18+0185MKGM V0200801N006719999999N9999999N1-00051+99999999999REMSYN075CMAN  23084 MKGM4 46/// /0813 11005 90844 56018 90800 222// 0028 333 91210;
0000997341999992005032309004+43233-086333FM-18+0185MKGM V0200701N007719999999N9999999N1-00041+99999999999
0085997341999992005032310004+43233-086333FM-18+0185MKGM V0200701N007719999999N9999999N1-00051+99999999999REMSYN076CMAN  23104 MKGM4 46/// /0715 11005 91040 55000 91000 222// 002855300 88623;
0000997341999992005032311004+43233-086333FM-18+0185MKGM V0200701N008719999999N9999999N1-00051+99999999999
0060997341999992005032312004+43233-086333FM-18+0185MKGM V0200701N007219999999N9999999N1-00021+99999999999REMSYN051CMAN  23124 MKGM4 46/// /0714 11002 9124 333 91220;
0060997341999992005032313004+43233-086333FM-18+0185MKGM V0200701N006719999999N9999999N1+00041+99999999999REMSYN051CMAN  23134 MKGM4 46/// /0713 10004 9134 333 91220;
0060997341999992005032314004+43233-086333FM-18+0185MKGM V0200701N007219999999N9999999N1+00121+99999999999REMSYN051CMAN  23144 MKGM4 46/// /0714 10012 9144 333 91218;
0096997341999992005032315004+43233-086333FM-18+0185MKGM V0200701N008719999999N9999999N1+00191+99999999999REMSYN087CMAN  23154 MKGM4 46/// /0717 10019 91547 51018 91500 333 91223 5333 55302 82809 85646;
0000997341999992005032316004+43233-086333FM-18+0185MKGM V0200801N009319999999N9999999N1+00301+99999999999
0084997341999992005032317004+43233-086333FM-18+0185MKGM V0200601N008719999999N9999999N1+00361+99999999999REMSYN075CMAN  23174 MKGM4 46/// /0617 10036 91749 58009 91700 222// 0028 333 91213;
0096997341999992005032318004+43233-086333FM-18+0185MKGM V0200601N006719999999N9999999N1+00441+99999999999REMSYN087CMAN  23184 MKGM4 46/// /0613 10044 91843 58015 91800 222// 0028 333 81358 85464 88270;
0060997341999992005032319004+43233-086333FM-18+0185MKGM V0200501N006719999999N9999999N1+00411+99999999999REMSYN051CMAN  23194 MKGM4 46/// /0513 10041 9194 333 91214;
0060997341999992005032320004+43233-086333FM-18+0185MKGM V0200501N004619999999N9999999N1+00421+99999999999REMSYN051CMAN  23204 MKGM4 46/// /0509 10042 9204 333 91214;
0060997341999992005032321004+43233-086333FM-18+0185MKGM V0200501N005119999999N9999999N1+00491+99999999999REMSYN051CMAN  23214 MKGM4 46/// /0510 10049 9214 333 91212;
0079997341999992005032322004+43233-086333FM-18+0185MKGM V0200301N004119999999N9999999N1+00541+99999999999REMSYN070CMAN  23224 MKGM4 46/// /0308 10054 92247 55000 92200 222// 002883/56;
0060997341999992005032323004+43233-086333FM-18+0185MKGM V0200201N002619999999N9999999N1+00401+99999999999REMSYN051CMAN  23234 MKGM4 46/// /0205 10040 9234 333 91207;
0078997341999992005032400004+43233-086333FM-18+0185MKGM V0200401N003119999999N9999999N1+00251+99999999999REMSYN069CMAN  24004 MKGM4 46/// /0406 10025 90044 53009 90000 222// 00299029;
0097997341999992005032401004+43233-086333FM-18+0185MKGM V0200901N002619999999N9999999N1+00101+99999999999REMSYN088CMAN  24014 MKGM4 46/// /0905 10010 90149 53012 90100 222// 00281 333 91010 91111 91209;
0060997341999992005032402004+43233-086333FM-18+0185MKGM V0200901N001019999999N9999999N1-00131+99999999999REMSYN051CMAN  24024 MKGM4 46/// /0902 11013 9024 333 91204;
0060997341999992005032403004+43233-086333FM-18+0185MKGM V0203401N000519999999N9999999N1-00111+99999999999REMSYN051CMAN  24034 MKGM4 46/// /3401 11011 9034 333 91203;
0060997341999992005032404004+43233-086333FM-18+0185MKGM V0201201N001019999999N9999999N1-00221+99999999999REMSYN051CMAN  24044 MKGM4 46/// /1202 11022 9044 333 91204;
0000997341999992005032405004+43233-086333FM-18+0185MKGM V0201001N002119999999N9999999N1-00311+99999999999
0000997341999992005032406004+43233-086333FM-18+0185MKGM V0201101N001519999999N9999999N1-00341+99999999999
0142997341999992005032407004+43233-086333FM-18+0185MKGM V0201001N002119999999N9999999N1-00421+99999999999REMSYN133CMAN  24074 MKGM4 46/// /1004 11042 90746 58017 90700 222// 0027555 11007 22008 30706 435016 60759 338007 348009 338008 338008 34006;
0103997341999992005032408004+43233-086333FM-18+0185MKGM V0201001N002119999999N9999999N1-00491+99999999999REMSYN094CMAN  24084 MKGM4 46/// /1004 11049 90847 56012 90800 222// 002770210 81400 22282 00180 20000;
0000997341999992005032409004+43233-086333FM-18+0185MKGM V0201201N001519999999N9999999N1-00551+99999999999
0000997341999992005032410004+43233-086333FM-18+0185MKGM V0201401N002619999999N9999999N1-00541+99999999999
0091997341999992005032411004+43233-086333FM-18+0185MKGM V0201401N002619999999N9999999N1-00581+99999999999REMSYN082CMAN  24114 MKGM4 46/// /1405 11058 91149 52012 91100 222// 002822252 06050 20301;
0060997341999992005032412004+43233-086333FM-18+0185MKGM V0201401N003119999999N9999999N1-00381+99999999999REMSYN051CMAN  24124 MKGM4 46/// /1406 11038 9124 333 91205;
0107997341999992005032413004+43233-086333FM-18+0185MKGM V0201501N003619999999N9999999N1-00081+99999999999REMSYN098CMAN  24134 MKGM4 46/// /1507 11008 91340 53020 91254 333 91206 5// 2//01 3//// 4//// 5//// 6////;
0085997341999992005032414004+43233-086333FM-18+0185MKGM V0201801N004119999999N9999999N1-00091+99999999999REMSYN076CMAN  24144 MKGM4 46/// /1808 11009 91444 51015 91400 222// 002783640 87278;
0060997341999992005032415004+43233-086333FM-18+0185MKGM V0201701N004619999999N9999999N1-00011+99999999999REMSYN051CMAN  24154 MKGM4 46/// /1709 11001 9154 333 91206;
0203997341999992005032416004+43233-086333FM-18+0185MKGM V0201801N003619999999N9999999N1+00041+99999999999REMSYN194CMAN  24164 MKGM4 46/// /1807 10004 91648 91614 91600 222// 00285 22200 00105 11003 20401 330// 41003 70014 333 91202 555 11011 22011 31615 42904 61649 257010 277020 273023 281023 282016 290021;
0084997341999992005032417004+43233-086333FM-18+0185MKGM V0201901N002619999999N9999999N1+00071+99999999999REMSYN075CMAN  24174 MKGM4 46/// /1905 10007 91741 58013 91700 222// 0028 333 91231;
0091997341999992005032418004+43233-086333FM-18+0185MKGM V0202001N002619999999N9999999N1+00081+99999999999REMSYN082CMAN  24184 MKGM4 46/// /2005 10008 91844 58013 91754 333 91204 53650 84360 87275;
0097997341999992005032419004+43233-086333FM-18+0185MKGM V0202001N003119999999N9999999N1+00121+99999999999REMSYN088CMAN  24194 MKGM4 46/// /2006 10012 91942 58027 91900 222// 002883709 87640 91106 91204;
0060997341999992005032420004+43233-086333FM-18+0185MKGM V0202001N002619999999N9999999N1+00191+99999999999REMSYN051CMAN  24204 MKGM4 46/// /2005 10019 92041 92037 06;
0060997341999992005032421004+43233-086333FM-18+0185MKGM V0201801N003119999999N9999999N1+00181+99999999999REMSYN051CMAN  24214 MKGM4 46/// /1806 10018 9214 333 91204;
0085997341999992005032422004+43233-086333FM-18+0185MKGM V0201801N003619999999N9999999N1+00141+99999999999REMSYN076CMAN  24224 MKGM4 46/// /1807 10014 92246 56006 92200 222// 002882364 86080;
0060997341999992005032423004+43233-086333FM-18+0185MKGM V0201701N003119999999N9999999N1+00131+99999999999REMSYN051CMAN  24234 MKGM4 46/// /1706 10013 9234 333 91204;
0060997341999992005032500004+43233-086333FM-18+0185MKGM V0201501N002119999999N9999999N1+00111+99999999999REMSYN051CMAN  25004 MKGM4 46/// /1504 10011 9004 333 91207;
0084997341999992005032501004+43233-086333FM-18+0185MKGM V0201801N002619999999N9999999N1+00111+99999999999REMSYN075CMAN  25014 MKGM4 46/// /1805 10011 90147 53011 90100 222// 0028 555 19053;
0000997341999992005032502004+43233-086333FM-18+0185MKGM V0201701N002619999999N9999999N1+00111+99999999999
0079997341999992005032503004+43233-086333FM-18+0185MKGM V0201601N001519999999N9999999N1+00131+99999999999REMSYN070CMAN  25034 MKGM4 46/// /1603 10013 90340 51007 90300 222// 00286//93;
0060997341999992005032504004+43233-086333FM-18+0185MKGM V0201301N000519999999N9999999N1+00121+99999999999REMSYN051CMAN  25044 MKGM4 46/// /1301 10012 9044 333 91216;
0060997341999992005032505004+43233-086333FM-18+0185MKGM V0203401N000519999999N9999999N1+00131+99999999999REMSYN051CMAN  25054 MKGM4 46/// /3401 10013 9054 333 91211;
0078997341999992005032506004+43233-086333FM-18+0185MKGM V0200301N002119999999N9999999N1+00081+99999999999REMSYN069CMAN  25064 MKGM4 46/// /0304 10008 90645 58015 90600 222// 00289027;
0078997341999992005032507004+43233-086333FM-18+0185MKGM V0200201N004619999999N9999999N1+00111+99999999999REMSYN069CMAN  25074 MKGM4 46/// /0209 10011 90749 58019 90700 222// 00281117;
0060997341999992005032508004+43233-086333FM-18+0185MKGM V0200401N004119999999N9999999N1+00101+99999999999REMSYN051CMAN  25084 MKGM4 46/// /0408 10010 9084 333 91214;
0000997341999992005032509004+43233-086333FM-18+0185MKGM V0200401N005119999999N9999999N1+00051+99999999999
0078997341999992005032510004+43233-086333FM-18+0185MKGM V0200401N005119999999N9999999N1-00011+99999999999REMSYN069CMAN  25104 MKGM4 46/// /0410 11001 91044 53005 91000 222// 00279011;
0084997341999992005032511004+43233-086333FM-18+0185MKGM V0200501N005119999999N9999999N1-00031+99999999999REMSYN075CMAN  25114 MKGM4 46/// /0510 11003 91142 91158 91100 222// 0027 333 91210;
0142997341999992005032512004+43233-086333FM-18+0185MKGM V0200501N004119999999N9999999N1-00051+99999999999REMSYN133CMAN  25124 MKGM4 46/// /0508 11005 91240 53019 91200 222// 00271209 555 11008 22008 61259 016008 014008 008008 013007 017007 008006;
0074997341999992005032513004+43233-086333FM-18+0185MKGM V0200601N004619999999N9999999N1+00031+99999999999REMSYN065CMAN  25134 MKGM4 46/// /0609 10003 91347 91334 91300 222// 0027;
0060997341999992005032514004+43233-086333FM-18+0185MKGM V0200701N005719999999N9999999N1+00131+99999999999REMSYN051CMAN  25144 MKGM4 46/// /0711 10013 91448 91451 12;
0155997341999992005032515004+43233-086333FM-18+0185MKGM V0200701N005119999999N9999999N1+00221+99999999999REMSYN146CMAN  25154 MKGM4 46/// /0710 10022 91544 51007 91454 333 91214 51222 555 11019 22020 31510 405023 61559 044019 045019 043019 047021 04013 013020;
0000997341999992005032516004+43233-086333FM-18+0185MKGM V0200701N004119999999N9999999N1+00271+99999999999
0102997341999992005032517004+43233-086333FM-18+0185MKGM V0200801N004619999999N9999999N1+00301+99999999999REMSYN093CMAN  25174 MKGM4 46/// /0809 10030 91740 58016 91700 222// 0028 84201 333 59016 60007 84825;
0060997341999992005032518004+43233-086333FM-18+0185MKGM V0200801N003119999999N9999999N1+00421+99999999999REMSYN051CMAN  25184 MKGM4 46/// /0806 10042 9184 333 91210;
0143997341999992005032519004+43233-086333FM-18+0185MKGM V0200801N004119999999N9999999N1+00441+99999999999REMSYN134CMAN  25194 MKGM4 46/// /0808 10044 91940 91934 91900 222// 00280 22200 00042 10604 20401 300// 40603 70018 333 91205 555 11041 22044;
0000997341999992005032520004+43233-086333FM-18+0185MKGM V0203101N004119999999N9999999N1+00221+99999999999
0060997341999992005032521004+43233-086333FM-18+0185MKGM V0203201N004119999999N9999999N1+00171+99999999999REMSYN051CMAN  25214 MKGM4 46/// /3208 10017 9214 333 91207;
0142997341999992005032522004+43233-086333FM-18+0185MKGM V0203301N003619999999N9999999N1+00171+99999999999REMSYN133CMAN  25224 MKGM4 46/// /3307 10017 92249 92248 92200 222// 0028555 11009 22010 32210 431017 62259 320010 318011 320010 320010 31008;
0060997341999992005032523004+43233-086333FM-18+0185MKGM V0201101N003119999999N9999999N1+00351+99999999999REMSYN051CMAN  25234 MKGM4 46/// /1106 10035 9234 333 91207;
0060997341999992005032600004+43233-086333FM-18+0185MKGM V0209999C000019999999N9999999N1+00181+99999999999REMSYN051CMAN  26004 MKGM4 46/// /0000 10018 90042 90036 04;
0091997341999992005032601004+43233-086333FM-18+0185MKGM V0201201N001019999999N9999999N1+00151+99999999999REMSYN082CMAN  26014 MKGM4 46/// /1202 10015 90140 53013 90100 222// 002981624 85629 86634;
0000997341999992005032602004+43233-086333FM-18+0185MKGM V0201101N002619999999N9999999N1+00071+99999999999
0000997341999992005032603004+43233-086333FM-18+0185MKGM V0200701N002619999999N9999999N1-00061+99999999999
0000997341999992005032604004+43233-086333FM-18+0185MKGM V0200701N003119999999N9999999N1-00071+99999999999
0000997341999992005032605004+43233-086333FM-18+0185MKGM V0200601N003619999999N9999999N1-00141+99999999999
0084997341999992005032606004+43233-086333FM-18+0185MKGM V0200701N003619999999N9999999N1-00221+99999999999REMSYN075CMAN  26064 MKGM4 46/// /0707 11022 90640 58018 90600 222// 0028 333 89/00;
0060997341999992005032607004+43233-086333FM-18+0185MKGM V0200801N004619999999N9999999N1-00281+99999999999REMSYN051CMAN  26074 MKGM4 46/// /0809 11028 9074 333 91204;
0084997341999992005032608004+43233-086333FM-18+0185MKGM V0200701N003619999999N9999999N1-00331+99999999999REMSYN075CMAN  26084 MKGM4 46/// /0707 11033 90844 56017 90800 222// 0027 333 91212;
0060997341999992005032609004+43233-086333FM-18+0185MKGM V0200701N004119999999N9999999N1-00371+99999999999REMSYN051CMAN  26094 MKGM4 46/// /0708 11037 9094 333 91204;
0060997341999992005032610004+43233-086333FM-18+0185MKGM V0200701N003619999999N9999999N1-00411+99999999999REMSYN051CMAN  26104 MKGM4 46/// /0707 11041 9104 333 91203;
0060997341999992005032611004+43233-086333FM-18+0185MKGM V0200801N004119999999N9999999N1-00441+99999999999REMSYN051CMAN  26114 MKGM4 46/// /0808 11044 9114 333 91203;
0000997341999992005032612004+43233-086333FM-18+0185MKGM V0200801N004119999999N9999999N1-00351+99999999999
0060997341999992005032613004+43233-086333FM-18+0185MKGM V0200801N003119999999N9999999N1-00161+99999999999REMSYN051CMAN  26134 MKGM4 46/// /0806 11016 9134 333 91203;
0060997341999992005032614004+43233-086333FM-18+0185MKGM V0200901N004619999999N9999999N1+00131+99999999999REMSYN051CMAN  26144 MKGM4 46/// /0909 10013 9144 333 91204;
0060997341999992005032615004+43233-086333FM-18+0185MKGM V0200801N003119999999N9999999N1+00391+99999999999REMSYN051CMAN  26154 MKGM4 46/// /0806 10039 91540 91536 08;
0000997341999992005032616004+43233-086333FM-18+0185MKGM V0200701N002619999999N9999999N1+00421+99999999999
0078997341999992005032617004+43233-086333FM-18+0185MKGM V0202601N002119999999N9999999N1+00301+99999999999REMSYN069CMAN  26174 MKGM4 46/// /2604 10030 91743 51020 91654 333 91216 5046;
0000997341999992005032618004+43233-086333FM-18+0185MKGM V0202401N004119999999N9999999N1+00211+99999999999
0060997341999992005032619004+43233-086333FM-18+0185MKGM V0203001N003619999999N9999999N1+00271+99999999999REMSYN051CMAN  26194 MKGM4 46/// /3007 10027 9194 333 91214;
0060997341999992005032620004+43233-086333FM-18+0185MKGM V0203001N003619999999N9999999N1+00221+99999999999REMSYN051CMAN  26204 MKGM4 46/// /3007 10022 9204 333 91215;
0060997341999992005032814004+43230-086330FM-18+0185MKGM V0200701N001519999999N9999999N1+00571+99999999999REMSYN051CMAN  28144 MKGM4 46/// /0703 10057 9144 333 91206;
0084997341999992005032815004+43230-086330FM-18+0185MKGM V0200701N003119999999N9999999N1+00851+99999999999REMSYN075CMAN  28154 MKGM4 46/// /0706 10085 91544 52005 91500 222// 00275555 19038;
0079997341999992005032816004+43230-086330FM-18+0185MKGM V0200101N002619999999N9999999N1+00811+99999999999REMSYN070CMAN  28164 MKGM4 46/// /0105 10081 91644 54000 91600 222// 002886658;
0121997341999992005032817004+43230-086330FM-18+0185MKGM V0203101N004619999999N9999999N1+00501+99999999999REMSYN112CMAN  28174 MKGM4 46/// /3109 10050 91745 51007 91654 333 91225 50108 20078 3/008 55300 69987 83/48 87/56 88/58;
0078997341999992005032818004+43230-086330FM-18+0185MKGM V0203001N004119999999N9999999N1+00511+99999999999REMSYN069CMAN  28184 MKGM4 46/// /3008 10051 91843 50000 91754 333 91223 5017;
0060997341999992005032819004+43230-086330FM-18+0185MKGM V0203101N005119999999N9999999N1+00421+99999999999REMSYN051CMAN  28194 MKGM4 46/// /3110 10042 9194 333 91207;
0089997341999992005032820004+43230-086330FM-18+0185MKGM V0203101N005719999999N9999999N1+00431+99999999999REMSYN080CMAN  28204 MKGM4 46/// /3111 10043 92046 58009 91954 333 91225 51002 555 90977;
0086997341999992005032821004+43230-086330FM-18+0185MKGM V0203101N003619999999N9999999N1+00481+99999999999REMSYN077CMAN  28214 MKGM4 46/// /3107 10048 92146 56007 92054 333 91227 5555 0/////0;
0060997341999992005032822004+43230-086330FM-18+0185MKGM V0203201N004119999999N9999999N1+00511+99999999999REMSYN051CMAN  28224 MKGM4 46/// /3208 10051 9224 333 91203;
0060997341999992005032823004+43233-086333FM-18+0185MKGM V0203101N002119999999N9999999N1+00531+99999999999REMSYN051CMAN  28234 MKGM4 46/// /3104 10053 9234 333 91201;
0060997341999992005032900004+43233-086333FM-18+0185MKGM V0201701N001019999999N9999999N1+00291+99999999999REMSYN051CMAN  29004 MKGM4 46/// /1702 10029 9004 333 91202;
0060997341999992005032901004+43233-086333FM-18+0185MKGM V0201801N002119999999N9999999N1+00321+99999999999REMSYN051CMAN  29014 MKGM4 46/// /1804 10032 9014 333 91202;
0060997341999992005032902004+43233-086333FM-18+0185MKGM V0202201N001519999999N9999999N1+00361+99999999999REMSYN051CMAN  29024 MKGM4 46/// /2203 10036 9024 333 91202;
0060997341999992005032904004+43233-086333FM-18+0185MKGM V0201501N001519999999N9999999N1+00121+99999999999REMSYN051CMAN  29044 MKGM4 46/// /1503 10012 9044 333 91202;
0060997341999992005032905004+43233-086333FM-18+0185MKGM V0200901N003619999999N9999999N1+00061+99999999999REMSYN051CMAN  29054 MKGM4 46/// /0907 10006 9054 333 91204;
0079997341999992005032906004+43233-086333FM-18+0185MKGM V0201101N004119999999N9999999N1+00051+99999999999REMSYN070CMAN  29064 MKGM4 46/// /1108 10005 90640 90600 222// 002890710 91108;
0060997341999992005032907004+43233-086333FM-18+0185MKGM V0201201N002619999999N9999999N1+00091+99999999999REMSYN051CMAN  29074 MKGM4 46/// /1205 10009 9074 333 91204;
0060997341999992005032908004+43233-086333FM-18+0185MKGM V0201401N001519999999N9999999N1+00101+99999999999REMSYN051CMAN  29084 MKGM4 46/// /1403 10010 9084 333 91202;
0000997341999992005032909004+43233-086333FM-18+0185MKGM V0201401N002119999999N9999999N1+00051+99999999999
0101997341999992005032910004+43233-086333FM-18+0185MKGM V0201001N003119999999N9999999N1-00031+99999999999REMSYN092CMAN  29104 MKGM4 46/// /1006 11003 91046 53010 91000 222// 002791002 91102 91201 555 53164;
0000997341999992005032911004+43233-086333FM-18+0185MKGM V0201101N004119999999N9999999N1+00031+99999999999
0060997341999992005032912004+43233-086333FM-18+0185MKGM V0201101N003619999999N9999999N1+00261+99999999999REMSYN051CMAN  29124 MKGM4 46/// /1107 10026 9124 333 91201;
0060997341999992005032913004+43233-086333FM-18+0185MKGM V0201101N002619999999N9999999N1+00701+99999999999REMSYN051CMAN  29134 MKGM4 46/// /1105 10070 9134 333 91204;
0060997341999992005032914004+43233-086333FM-18+0185MKGM V0201601N003619999999N9999999N1+00651+99999999999REMSYN051CMAN  29144 MKGM4 46/// /1607 10065 9144 333 91202;
0000997341999992005032915004+43233-086333FM-18+0185MKGM V0201801N004119999999N9999999N1+00661+99999999999
0060997341999992005032916004+43233-086333FM-18+0185MKGM V0202001N003619999999N9999999N1+00461+99999999999REMSYN051CMAN  29164 MKGM4 46/// /2007 10046 9164 333 91202;
0060997341999992005032917004+43233-086333FM-18+0185MKGM V0201701N003119999999N9999999N1+00641+99999999999REMSYN051CMAN  29174 MKGM4 46/// /1706 10064 9174 333 91205;
0068997341999992005032918004+43233-086333FM-18+0185MKGM V0201901N002619999999N9999999N1+00691+99999999999REMSYN059CMAN  29184 MKGM4 46/// /1905 10069 91845 91800 222// 0028;
0060997341999992005032919004+43233-086333FM-18+0185MKGM V0201901N003619999999N9999999N1+00821+99999999999REMSYN051CMAN  29194 MKGM4 46/// /1907 10082 91943 91900 05;
0060997341999992005032920004+43233-086333FM-18+0185MKGM V0201801N004119999999N9999999N1+01141+99999999999REMSYN051CMAN  29204 MKGM4 46/// /1808 10114 9204 333 91212;
0084997341999992005032921004+43233-086333FM-18+0185MKGM V0201701N003619999999N9999999N1+01181+99999999999REMSYN075CMAN  29214 MKGM4 46/// /1707 10118 92149 57006 92100 222// 0027 555 19046;
0000997341999992005032922004+43233-086333FM-18+0185MKGM V0201501N004119999999N9999999N1+01271+99999999999
0000997341999992005032923004+43233-086333FM-18+0185MKGM V0201301N004619999999N9999999N1+01701+99999999999
0142997341999992005033000004+43233-086333FM-18+0185MKGM V0201301N004619999999N9999999N1+01601+99999999999REMSYN133CMAN  30004 MKGM4 46/// /1309 10160 90042 53013 90000 222// 0028555 11017 22018 30047 434029 60059 344017 338019 334020 341018 34001;
0079997341999992005033001004+43233-086333FM-18+0185MKGM V0201201N006719999999N9999999N1+01531+99999999999REMSYN070CMAN  30014 MKGM4 46/// /1213 10153 90140 53018 90100 222// 002891206;
0060997341999992005033002004+43233-086333FM-18+0185MKGM V0201201N007219999999N9999999N1+01481+99999999999REMSYN051CMAN  30024 MKGM4 46/// /1214 10148 90247 90234 06;
0102997341999992005033003004+43233-086333FM-18+0185MKGM V0201301N006219999999N9999999N1+01411+99999999999REMSYN093CMAN  30034 MKGM4 46/// /1312 10141 90348 51006 90300 222// 0028 333 60005 81360 90710 91108;
0000997341999992005033004004+43233-086333FM-18+0185MKGM V0201401N008219999999N9999999N1+01401+99999999999
0000997341999992005033005004+43233-086333FM-18+0185MKGM V0201401N007719999999N9999999N1+01341+99999999999
0000997341999992005033006004+43233-086333FM-18+0185MKGM V0201301N006719999999N9999999N1+01311+99999999999
0060997341999992005033007004+43233-086333FM-18+0185MKGM V0201201N006219999999N9999999N1+01251+99999999999REMSYN051CMAN  30074 MKGM4 46/// /1212 10125 9074 333 91206;
0000997341999992005033008004+43233-086333FM-18+0185MKGM V0201201N006219999999N9999999N1+01201+99999999999
0060997341999992005033009004+43233-086333FM-18+0185MKGM V0201201N006719999999N9999999N1+01181+99999999999REMSYN051CMAN  30094 MKGM4 46/// /1213 10118 9094 333 91212;
0000997341999992005033010004+43233-086333FM-18+0185MKGM V0201101N005719999999N9999999N1+01151+99999999999
0060997341999992005033011004+43233-086333FM-18+0185MKGM V0201201N006719999999N9999999N1+01111+99999999999REMSYN051CMAN  30114 MKGM4 46/// /1213 10111 91144 91158 11;
0060997341999992005033012004+43233-086333FM-18+0185MKGM V0201201N007719999999N9999999N1+01191+99999999999REMSYN051CMAN  30124 MKGM4 46/// /1215 10119 91248 91258 12;
0000997341999992005033013004+43233-086333FM-18+0185MKGM V0201301N005719999999N9999999N1+01351+99999999999
0060997341999992005033014004+43233-086333FM-18+0185MKGM V0201401N006719999999N9999999N1+01541+99999999999REMSYN051CMAN  30144 MKGM4 46/// /1413 10154 91449 91436 19;
0000997341999992005033015004+43233-086333FM-18+0185MKGM V0201301N004119999999N9999999N1+01711+99999999999
0000997341999992005033016004+43233-086333FM-18+0185MKGM V0201101N006719999999N9999999N1+01991+99999999999
0095997341999992005033017004+43233-086333FM-18+0185MKGM V0201301N006719999999N9999999N1+01971+99999999999REMSYN086CMAN  30174 MKGM4 46/// /1313 10197 91747 58012 91700 222// 0028555 51104 51203 53001;
0060997341999992005033018004+43233-086333FM-18+0185MKGM V0201401N006719999999N9999999N1+02191+99999999999REMSYN051CMAN  30184 MKGM4 46/// /1413 10219 9184 333 91221;
0060997341999992005033019004+43233-086333FM-18+0185MKGM V0201501N009819999999N9999999N1+01461+99999999999REMSYN051CMAN  30194 MKGM4 46/// /1519 10146 9194 333 91216;
0084997341999992005033020004+43233-086333FM-18+0185MKGM V0201601N009319999999N9999999N1+01311+99999999999REMSYN075CMAN  30204 MKGM4 46/// /1618 10131 92043 56014 92000 222// 0029 333 91211;
0079997341999992005033021004+43233-086333FM-18+0185MKGM V0201501N010819999999N9999999N1+01501+99999999999REMSYN070CMAN  30214 MKGM4 46/// /1521 10150 92143 56007 92100 222// 002881/37;
0000997341999992005033022004+43233-086333FM-18+0185MKGM V0201401N007719999999N9999999N1+02141+99999999999
0060997341999992005033023004+43233-086333FM-18+0185MKGM V0201401N007719999999N9999999N1+02051+99999999999REMSYN051CMAN  30234 MKGM4 46/// /1415 10205 9234 333 91211;
0000997341999992005033100004+43233-086333FM-18+0185MKGM V0201501N009319999999N9999999N1+01701+99999999999
0079997341999992005033101004+43233-086333FM-18+0185MKGM V0202301N012319999999N9999999N1+99999+99999999999REMSYN070CMAN  31014 MKGM4 46/// /2324 1//// 90140 222// 001491002 91102 91201;
0112997341999992005033102004+43233-086333FM-18+0185MKGM V0201501N009319999999N9999999N1+01141+99999999999REMSYN103CMAN  31024 MKGM4 46/// /1518 10114 90248 52004 90200 222// 002822 8355/ 22200 06002 20503 3//// 80023;
0060997341999992005033103004+43233-086333FM-18+0185MKGM V0202401N012919999999N9999999N1+00631+99999999999REMSYN051CMAN  31034 MKGM4 46/// /2425 10063 9034 333 91212;
0000997341999992005033104004+43233-086333FM-18+0185MKGM V0200801N005119999999N9999999N1+00711+99999999999
0089997341999992005033105004+43233-086333FM-18+0185MKGM V0200801N005719999999N9999999N1+00911+99999999999REMSYN080CMAN  31054 MKGM4 46/// /0811 10091 90540 58008 90500 222// 002870005 555 93106;
0085997341999992005033106004+43233-086333FM-18+0185MKGM V0201201N004119999999N9999999N1+01021+99999999999REMSYN076CMAN  31064 MKGM4 46/// /1208 10102 90645 57013 90600 222// 002885633 87638;
0000997341999992005033107004+43233-086333FM-18+0185MKGM V0201701N008719999999N9999999N1+00851+99999999999
0060997341999992005033108004+43233-086333FM-18+0185MKGM V0201701N008719999999N9999999N1+00551+99999999999REMSYN051CMAN  31084 MKGM4 46/// /1717 10055 9084 333 91207;
0060997341999992005033109004+43233-086333FM-18+0185MKGM V0201701N009819999999N9999999N1+00541+99999999999REMSYN051CMAN  31094 MKGM4 46/// /1719 10054 9094 333 91210;
0000997341999992005033110004+43233-086333FM-18+0185MKGM V0201701N010319999999N9999999N1+00491+99999999999
0091997341999992005033111004+43233-086333FM-18+0185MKGM V0201901N009819999999N9999999N1+00471+99999999999REMSYN082CMAN  31114 MKGM4 46/// /1919 10047 91147 53012 91100 222// 002755310 82/29 84/61;
0000997341999992005033112004+43233-086333FM-18+0185MKGM V0201901N011319999999N9999999N1+00461+99999999999
0000997341999992005033113004+43233-086333FM-18+0185MKGM V0201901N008719999999N9999999N1+00401+99999999999
0128997341999992005033114004+43233-086333FM-18+0185MKGM V0202001N011319999999N9999999N1+00411+99999999999REMSYN119CMAN  31144 MKGM4 46/// /2022 10041 91440 333 91210 555 20 40145 58005 72582 8802/ 22200 02001 20503 324// 40904 80026;
0090997341999992005033115004+43233-086333FM-18+0185MKGM V0202101N011319999999N9999999N1+00361+99999999999REMSYN081CMAN  31154 MKGM4 46/// /2122 10036 91546 50000 91500 222// 00275005 90710 91106;
0079997341999992005033116004+43233-086333FM-18+0185MKGM V0202501N010319999999N9999999N1+00371+99999999999REMSYN070CMAN  31164 MKGM4 46/// /2520 10037 91641 58009 91600 222// 002885/32;
0000997341999992005033117004+43233-086333FM-18+0185MKGM V0202501N008219999999N9999999N1+00371+99999999999
0060997341999992005033118004+43233-086333FM-18+0185MKGM V0202301N007719999999N9999999N1+00341+99999999999REMSYN051CMAN  31184 MKGM4 46/// /2315 10034 9184 333 91215;
0060997341999992005033119004+43233-086333FM-18+0185MKGM V0202201N007719999999N9999999N1+00321+99999999999REMSYN051CMAN  31194 MKGM4 46/// /2215 10032 91942 91958 19;
0000997341999992005033120004+43233-086333FM-18+0185MKGM V0202501N008719999999N9999999N1+00361+99999999999
0078997341999992005033121004+43233-086333FM-18+0185MKGM V0202601N008719999999N9999999N1+00361+99999999999REMSYN069CMAN  31214 MKGM4 46/// /2617 10036 92144 56005 92100 222// 00291204;
0000997341999992005033122004+43233-086333FM-18+0185MKGM V0202801N008719999999N9999999N1+00391+99999999999
0155997341999992005033123004+43233-086333FM-18+0185MKGM V0202601N009819999999N9999999N1+00411+99999999999REMSYN146CMAN  31234 MKGM4 46/// /2619 10041 92340 53008 92300 222// 0028555 11004 22004 32324 431006 62359 310004 309004 308004 305004 3017 223016 222014;
0079997341999992005040100004+43233-086333FM-18+0185MKGM V0202801N009819999999N9999999N1+00411+99999999999REMSYN070CMAN  01004 MKGM4 46/// /2819 10041 90045 53011 90000 222// 002891104;
0000997341999992005040101004+43233-086333FM-18+0185MKGM V0202801N010819999999N9999999N1+00521+99999999999
0084997341999992005040102004+43233-086333FM-18+0185MKGM V0203101N010319999999N9999999N1+00541+99999999999REMSYN075CMAN  01024 MKGM4 46/// /3120 10054 90246 90235 90200 222// 0028 333 91214;
0000997341999992005040103004+43233-086333FM-18+0185MKGM V0202901N008219999999N9999999N1+00461+99999999999
0155997341999992005040104004+43233-086333FM-18+0185MKGM V0203001N005719999999N9999999N1+00521+99999999999REMSYN146CMAN  01044 MKGM4 46/// /3011 10052 90447 58003 90400 222// 0028555 11021 22022 30426 414039 60459 147024 146023 145026 145025 14007 12009 213003;
0000997341999992005040105004+43233-086333FM-18+0185MKGM V0203201N004119999999N9999999N1+00451+99999999999
0060997341999992005040106004+43233-086333FM-18+0185MKGM V0203101N004619999999N9999999N1+00411+99999999999REMSYN051CMAN  01064 MKGM4 46/// /3109 10041 9064 333 91222;
0000997341999992005040107004+43233-086333FM-18+0185MKGM V0202801N005719999999N9999999N1+00441+99999999999
0084997341999992005040108004+43233-086333FM-18+0185MKGM V0202701N001019999999N9999999N1+00351+99999999999REMSYN075CMAN  01084 MKGM4 46/// /2702 10035 90841 56009 90800 222// 0028 333 91233;
0060997341999992005040109004+43233-086333FM-18+0185MKGM V0202901N002619999999N9999999N1+00401+99999999999REMSYN051CMAN  01094 MKGM4 46/// /2905 10040 9094 333 91217;
0108997341999992005040110004+43233-086333FM-18+0185MKGM V0203201N002119999999N9999999N1+00341+99999999999REMSYN099CMAN  01104 MKGM4 46/// /3204 10034 91040 53008 91000 222// 0028 00061 10401 333 91006 91106 91206;
0060997341999992005040111004+43233-086333FM-18+0185MKGM V0202801N001019999999N9999999N1+00311+99999999999REMSYN051CMAN  01114 MKGM4 46/// /2802 10031 9114 333 91215;
0060997341999992005040112004+43233-086333FM-18+0185MKGM V0201801N002119999999N9999999N1+00271+99999999999REMSYN051CMAN  01124 MKGM4 46/// /1804 10027 91246 91234 17;
0142997341999992005040113004+43233-086333FM-18+0185MKGM V0201801N005119999999N9999999N1+00291+99999999999REMSYN133CMAN  01134 MKGM4 46/// /1810 10029 91340 91358 91300 222// 0027 30125 91300 333 6334 408006 61359 052004 055004 073005 070005 05007;
0084997341999992005040114004+43233-086333FM-18+0185MKGM V0201501N003619999999N9999999N1+00471+99999999999REMSYN075CMAN  01144 MKGM4 46/// /1507 10047 91449 51013 91400 222// 0028 333 91214;
0060997341999992005040115004+43233-086333FM-18+0185MKGM V0201701N004619999999N9999999N1+00401+99999999999REMSYN051CMAN  01154 MKGM4 46/// /1709 10040 91545 91558 10;
0079997341999992005040116004+43233-086333FM-18+0185MKGM V0201901N003619999999N9999999N1+00401+99999999999REMSYN070CMAN  01164 MKGM4 46/// /1907 10040 91643 91658 91600 222// 002882/36;
0060997341999992005040200004+43233-086333FM-18+0185MKGM V0203201N008719999999N9999999N1+00401+99999999999REMSYN051CMAN  02004 MKGM4 46/// /3217 10040 9004 333 91205;
0079997341999992005040201004+43233-086333FM-18+0185MKGM V0203201N006719999999N9999999N1+00351+99999999999REMSYN070CMAN  02014 MKGM4 46/// /3213 10035 90141 52005 90100 222// 002891204;
0150997341999992005040202004+43233-086333FM-18+0185MKGM V0203501N004119999999N9999999N1+00591+99999999999REMSYN141CMAN  02024 MKGM4 46/// /3508 10059 90245 53007 90200 222// 0028 70500 333 42021 55/// 22169 30277 55300 20000 30000 8//// 8//// 8//// 91113;
0000997341999992005040204004+43233-086333FM-18+0185MKGM V0200201N004619999999N9999999N1+00621+99999999999
0091997341999992005040205004+43233-086333FM-18+0185MKGM V0200201N004119999999N9999999N1+00591+99999999999REMSYN082CMAN  02054 MKGM4 46/// /0208 10059 90545 58010 90500 222// 002883816 81917 86080;
0067997341999992005040206004+43233-086333FM-18+0185MKGM V0200201N005119999999N9999999N1+00581+99999999999REMSYN058CMAN  02064 MKGM4 46/// /0210 10058 90648 58017 90600 074;
0000997341999992005040207004+43233-086333FM-18+0185MKGM V0200201N005719999999N9999999N1+00651+99999999999
0060997341999992005040208004+43233-086333FM-18+0185MKGM V0200301N004119999999N9999999N1+00581+99999999999REMSYN051CMAN  02084 MKGM4 46/// /0308 10058 9084 333 91211;
0060997341999992005040209004+43233-086333FM-18+0185MKGM V0200201N004619999999N9999999N1+00551+99999999999REMSYN051CMAN  02094 MKGM4 46/// /0209 10055 9094 333 91213;
0060997341999992005040210004+43233-086333FM-18+0185MKGM V0203601N006219999999N9999999N1+00491+99999999999REMSYN051CMAN  02104 MKGM4 46/// /3612 10049 9104 333 91213;
0060997341999992005040211004+43233-086333FM-18+0185MKGM V0200201N005119999999N9999999N1+00451+99999999999REMSYN051CMAN  02114 MKGM4 46/// /0210 10045 9114 333 91211;
0060997341999992005040212004+43233-086333FM-18+0185MKGM V0200101N006219999999N9999999N1+00521+99999999999REMSYN051CMAN  02124 MKGM4 46/// /0112 10052 91246 91234 14;
0060997341999992005040213004+43233-086333FM-18+0185MKGM V0200401N006719999999N9999999N1+00691+99999999999REMSYN051CMAN  02134 MKGM4 46/// /0413 10069 9134 333 91217;
0000997341999992005040214004+43233-086333FM-18+0185MKGM V0200201N008219999999N9999999N1+00831+99999999999
0078997341999992005040215004+43233-086333FM-18+0185MKGM V0200301N009819999999N9999999N1+00951+99999999999REMSYN069CMAN  02154 MKGM4 46/// /0319 10095 91541 91537 222// 002791229 5033;
0000997341999992005040216004+43233-086333FM-18+0185MKGM V0203201N009819999999N9999999N1+00461+99999999999
0060997341999992005040217004+43233-086333FM-18+0185MKGM V0203301N010819999999N9999999N1+00491+99999999999REMSYN051CMAN  02174 MKGM4 46/// /3321 10049 9174 333 91222;
0084997341999992005040218004+43233-086333FM-18+0185MKGM V0203201N012319999999N9999999N1+00441+99999999999REMSYN075CMAN  02184 MKGM4 46/// /3224 10044 91842 91839 91800 222// 0028 333 91214;
0000997341999992005040219004+43233-086333FM-18+0185MKGM V0203201N013419999999N9999999N1+00421+99999999999
0060997341999992005040221004+43233-086333FM-18+0185MKGM V0203301N012319999999N9999999N1+00471+99999999999REMSYN051CMAN  02214 MKGM4 46/// /3324 10047 92144 92148 21;
0060997341999992005040222004+43233-086333FM-18+0185MKGM V0203301N010819999999N9999999N1+00501+99999999999REMSYN051CMAN  02224 MKGM4 46/// /3321 10050 9224 333 91214;
0060997341999992005040223004+43230-086330FM-18+0185MKGM V0203301N008719999999N9999999N1+00481+99999999999REMSYN051CMAN  02234 MKGM4 46/// /3317 10048 9234 333 91217;
0060997341999992005040300004+43230-086330FM-18+0185MKGM V0203601N007219999999N9999999N1+00701+99999999999REMSYN051CMAN  03004 MKGM4 46/// /3614 10070 9004 333 91211;
0060997341999992005040301004+43230-086330FM-18+0185MKGM V0203501N005119999999N9999999N1+00611+99999999999REMSYN051CMAN  03014 MKGM4 46/// /3510 10061 90147 90158 13;
0078997341999992005040302004+43230-086330FM-18+0185MKGM V0203501N004619999999N9999999N1+00541+99999999999REMSYN069CMAN  03024 MKGM4 46/// /3509 10054 90249 90239 222// 0028 333 91213;
0084997341999992005040303004+43230-086330FM-18+0185MKGM V0203501N004119999999N9999999N1+00451+99999999999REMSYN075CMAN  03034 MKGM4 46/// /3508 10045 90343 51011 90300 222// 0028 555 6//82;
0091997341999992005040304004+43230-086330FM-18+0185MKGM V0203401N005119999999N9999999N1+00371+99999999999REMSYN082CMAN  03044 MKGM4 46/// /3410 10037 90448 50000 90400 222// 002805352 30033 70143;
0126997341999992005040305004+43230-086330FM-18+0185MKGM V0203301N005719999999N9999999N1+00291+99999999999REMSYN117CMAN  03054 MKGM4 46/// /3311 10029 90543 58008 90500 222// 0028 77177 885// 333 11089 21101 48046 70040 90983 93202;
0084997341999992005040306004+43230-086330FM-18+0185MKGM V0203301N005119999999N9999999N1+00251+99999999999REMSYN075CMAN  03064 MKGM4 46/// /3310 10025 90648 57015 90600 222// 0028 333 91211;
0089997341999992005040307004+43230-086330FM-18+0185MKGM V0203401N006219999999N9999999N1+00211+99999999999REMSYN080CMAN  03074 MKGM4 46/// /3412 10021 90747 56011 90700 222// 002991205 555 53113;
0000997341999992005040308004+43230-086330FM-18+0185MKGM V0203401N005119999999N9999999N1+00171+99999999999
0060997341999992005040309004+43230-086330FM-18+0185MKGM V0203301N006719999999N9999999N1+00221+99999999999REMSYN051CMAN  03094 MKGM4 46/// /3313 10022 9094 333 91215;
0060997341999992005040310004+43230-086330FM-18+0185MKGM V0203401N007219999999N9999999N1+00191+99999999999REMSYN051CMAN  03104 MKGM4 46/// /3414 10019 9104 333 91214;
0060997341999992005040311004+43230-086330FM-18+0185MKGM V0203301N007719999999N9999999N1+00231+99999999999REMSYN051CMAN  03114 MKGM4 46/// /3315 10023 9114 333 91219;
0060997341999992005040312004+43230-086330FM-18+0185MKGM V0203201N007719999999N9999999N1+00281+99999999999REMSYN051CMAN  03124 MKGM4 46/// /3215 10028 9124 333 91215;
0000997341999992005040313004+43230-086330FM-18+0185MKGM V0203201N007719999999N9999999N1+00301+99999999999
0152997341999992005040314004+43230-086330FM-18+0185MKGM V0203201N008219999999N9999999N1+00291+99999999999REMSYN143CMAN  03144 MKGM4 46/// /3216 10029 91448 51016 91400 222// 002815 57025 7//// 8//// 22212 0//// 2//01 321// 40804 5//// 6//// 8//// ICE /////;
0090997341999992005040315004+43230-086330FM-18+0185MKGM V0203201N008719999999N9999999N1+00321+99999999999REMSYN081CMAN  03154 MKGM4 46/// /3217 10032 91542 51012 91500 222// 00285005 90710 91129;
0100997341999992005040316004+43230-086330FM-18+0185MKGM V0203101N008719999999N9999999N1+00351+99999999999REMSYN091CMAN  03164 MKGM4 46/// /3117 10035 91648 50003 91600 222// 0028 333 82/06 84/10 555 7/097;
0060997341999992005040317004+43230-086330FM-18+0185MKGM V0203101N008719999999N9999999N1+00361+99999999999REMSYN051CMAN  03174 MKGM4 46/// /3117 10036 9174 333 91221;
0084997341999992005040318004+43230-086330FM-18+0185MKGM V0203101N008219999999N9999999N1+00391+99999999999REMSYN075CMAN  03184 MKGM4 46/// /3116 10039 91843 58019 91800 222// 0028 333 81073;
0113997341999992005040319004+43230-086330FM-18+0185MKGM V0203101N007219999999N9999999N1+00401+99999999999REMSYN104CMAN  03194 MKGM4 46/// /3114 10040 91949 56019 91900 222// 0028/ 00206 333 91210 51108 91203 555 53000;
0091997341999992005040320004+43230-086330FM-18+0185MKGM V0203201N005719999999N9999999N1+00411+99999999999REMSYN082CMAN  03204 MKGM4 46/// /3211 10041 92045 56015 92000 222// 002958008 83830 83363;
0091997341999992005040321004+43230-086330FM-18+0185MKGM V0203201N004619999999N9999999N1+00421+99999999999REMSYN082CMAN  03214 MKGM4 46/// /3209 10042 92142 56011 92100 222// 0029/ 92200 333 6///0;
0096997341999992005040322004+43230-086330FM-18+0185MKGM V0203201N004619999999N9999999N1+00471+99999999999REMSYN087CMAN  03224 MKGM4 46/// /3209 10047 92247 55000 92200 222// 0029 70322 858// 333 70128;
0060997341999992005040323004+43233-086333FM-18+0185MKGM V0203101N003619999999N9999999N1+00491+99999999999REMSYN051CMAN  03234 MKGM4 46/// /3107 10049 9234 333 91220;
0000997341999992005040400004+43233-086333FM-18+0185MKGM V0203001N003119999999N9999999N1+00401+99999999999
0075997341999992005040410004+43233-086333FM-18+0185MKGM V0200601N003119999999N9999999N1+00021+99999999999REMSYN066CMAN  04104 MKGM4 46/// /0606 10002 91049 91039 91000 222// 00285;
0060997341999992005040411004+43233-086333FM-18+0185MKGM V0200801N004119999999N9999999N1+00071+99999999999REMSYN051CMAN  04114 MKGM4 46/// /0808 10007 9114 333 91209;
0060997341999992005040412004+43233-086333FM-18+0185MKGM V0200701N003119999999N9999999N1+00261+99999999999REMSYN051CMAN  04124 MKGM4 46/// /0706 10026 9124 333 91209;
0000997341999992005040413004+43233-086333FM-18+0185MKGM V0200801N002619999999N9999999N1+00511+99999999999
0000997341999992005040414004+43233-086333FM-18+0185MKGM V0200601N003119999999N9999999N1+00881+99999999999
0060997341999992005040415004+43233-086333FM-18+0185MKGM V0200701N002619999999N9999999N1+01111+99999999999REMSYN051CMAN  04154 MKGM4 46/// /0705 10111 9154 333 91213;
0000997341999992005040416004+43233-086333FM-18+0185MKGM V0202001N003119999999N9999999N1+00621+99999999999
0060997341999992005040417004+43233-086333FM-18+0185MKGM V0202201N003619999999N9999999N1+00741+99999999999REMSYN051CMAN  04174 MKGM4 46/// /2207 10074 91746 91758 11;
0084997341999992005040418004+43233-086333FM-18+0185MKGM V0202301N002119999999N9999999N1+00701+99999999999REMSYN075CMAN  04184 MKGM4 46/// /2304 10070 91847 91800 222// 0029 00043 333 91208;
0060997341999992005040419004+43233-086333FM-18+0185MKGM V0203001N003619999999N9999999N1+00711+99999999999REMSYN051CMAN  04194 MKGM4 46/// /3007 10071 91944 91934 11;
0060997341999992005040420004+43233-086333FM-18+0185MKGM V0203101N004119999999N9999999N1+00791+99999999999REMSYN051CMAN  04204 MKGM4 46/// /3108 10079 92044 92058 11;
0084997341999992005040421004+43233-086333FM-18+0185MKGM V0203301N000519999999N9999999N1+01081+99999999999REMSYN075CMAN  04214 MKGM4 46/// /3301 10108 92148 55000 92100 222// 0029 333 91207;
0060997341999992005040422004+43233-086333FM-18+0185MKGM V0201501N001019999999N9999999N1+01261+99999999999REMSYN051CMAN  04224 MKGM4 46/// /1502 10126 92249 92235 08;
0000997341999992005040500004+43233-086333FM-18+0185MKGM V0201001N003119999999N9999999N1+01221+99999999999
0000997341999992005040501004+43233-086333FM-18+0185MKGM V0200901N005119999999N9999999N1+01241+99999999999
0060997341999992005040502004+43233-086333FM-18+0185MKGM V0201001N005119999999N9999999N1+01401+99999999999REMSYN051CMAN  05024 MKGM4 46/// /1010 10140 9024 333 91201;
0102997341999992005040503004+43233-086333FM-18+0185MKGM V0201001N006219999999N9999999N1+01361+99999999999REMSYN093CMAN  05034 MKGM4 46/// /1012 10136 90342 53016 90254 333 91208 5333 60005 88623 90710 91114;
0060997341999992005040504004+43233-086333FM-18+0185MKGM V0201001N006219999999N9999999N1+01331+99999999999REMSYN051CMAN  05044 MKGM4 46/// /1012 10133 9044 333 91203;
0060997341999992005040505004+43233-086333FM-18+0185MKGM V0201001N006719999999N9999999N1+01281+99999999999REMSYN051CMAN  05054 MKGM4 46/// /1013 10128 9054 333 91204;
0097997341999992005040506004+43233-086333FM-18+0185MKGM V0201101N006219999999N9999999N1+01271+99999999999REMSYN088CMAN  05064 MKGM4 46/// /1112 10127 90646 57013 90600 222// 002853001 7//// 22214 04036;
0113997341999992005040507004+43233-086333FM-18+0185MKGM V0201401N006219999999N9999999N1+01401+99999999999REMSYN104CMAN  05074 MKGM4 46/// /1412 10140 90745 56009 90700 222// 002881/10 83/19 91006 91107 91205 555 53095;
0060997341999992005040508004+43233-086333FM-18+0185MKGM V0201401N006719999999N9999999N1+01371+99999999999REMSYN051CMAN  05084 MKGM4 46/// /1413 10137 9084 333 91208;
0096997341999992005040509004+43233-086333FM-18+0185MKGM V0201401N007219999999N9999999N1+01391+99999999999REMSYN087CMAN  05094 MKGM4 46/// /1414 10139 90949 53003 90900 222// 0028 333 86809 91105 91203;
0119997341999992005040510004+43233-086333FM-18+0185MKGM V0201501N008719999999N9999999N1+01321+99999999999REMSYN110CMAN  05104 MKGM4 46/// /1517 10132 91043 53008 91000 222// 002885/20 86/24 87/29 91007 91107 91205 555 53123;
0079997341999992005040511004+43233-086333FM-18+0185MKGM V0201501N008719999999N9999999N1+01241+99999999999REMSYN070CMAN  05114 MKGM4 46/// /1517 10124 91140 53015 91100 222// 002886078;
0083997341999992005040512004+43233-086333FM-18+0185MKGM V0201601N010819999999N9999999N1+01091+99999999999REMSYN074CMAN  05124 MKGM4 46/// /1621 10109 91244 91206 91200 222// 0028555 6//78;
0097997341999992005040513004+43233-086333FM-18+0185MKGM V0201601N011819999999N9999999N1+01081+99999999999REMSYN088CMAN  05134 MKGM4 46/// /1623 10108 91342 91340 91300 222// 002853715 82920 82820 85640;
0060997341999992005040514004+43233-086333FM-18+0185MKGM V0201601N009819999999N9999999N1+00981+99999999999REMSYN051CMAN  05144 MKGM4 46/// /1619 10098 91443 91458 21;
0060997341999992005040515004+43233-086333FM-18+0185MKGM V0201601N009819999999N9999999N1+01071+99999999999REMSYN051CMAN  05154 MKGM4 46/// /1619 10107 91543 91558 21;
0000997341999992005040516004+43233-086333FM-18+0185MKGM V0201701N010319999999N9999999N1+01121+99999999999
0060997341999992005040517004+43233-086333FM-18+0185MKGM V0201701N007719999999N9999999N1+01061+99999999999REMSYN051CMAN  05174 MKGM4 46/// /1715 10106 9174 333 91221;
0060997341999992005040518004+43233-086333FM-18+0185MKGM V0201701N005719999999N9999999N1+01181+99999999999REMSYN051CMAN  05184 MKGM4 46/// /1711 10118 91840 33 91217;
0000997341999992005040519004+43233-086333FM-18+0185MKGM V0201701N005719999999N9999999N1+01321+99999999999
0060997341999992005040520004+43233-086333FM-18+0185MKGM V0201701N005719999999N9999999N1+01391+99999999999REMSYN051CMAN  05204 MKGM4 46/// /1711 10139 9204 333 91204;
0208997341999992005040521004+43233-086333FM-18+0185MKGM V0201901N005719999999N9999999N1+01381+99999999999REMSYN199CMAN  05214 MKGM4 46/// /1911 10138 92142 56009 92100 222// 0028 92150 22200 00134 11304 20401 3//// 41304 70021 333 91205 555 11044 22046 32147 43405 62149 342041 345040 344037 348035 352035 352034;
0091997341999992005040522004+43233-086333FM-18+0185MKGM V0201801N005719999999N9999999N1+01361+99999999999REMSYN082CMAN  05224 MKGM4 46/// /1811 10136 92245 92237 92200 222// 002891002 91102 91202;
0102997341999992005040523004+43233-086333FM-18+0185MKGM V0201801N006219999999N9999999N1+01151+99999999999REMSYN093CMAN  05234 MKGM4 46/// /1812 10115 92340 54000 92254 222// 00221 333 91206 500210 333 91202;
0060997341999992005040600004+43233-086333FM-18+0185MKGM V0201801N005719999999N9999999N1+01051+99999999999REMSYN051CMAN  06004 MKGM4 46/// /1811 10105 90048 90058 12;
0090997341999992005040601004+43233-086333FM-18+0185MKGM V0201601N005719999999N9999999N1+01371+99999999999REMSYN081CMAN  06014 MKGM4 46/// /1611 10137 90141 55000 90054 222// 00221 333 91206 5114;
0060997341999992005040611004+43233-086333FM-18+0185MKGM V0201701N007719999999N9999999N1+01111+99999999999REMSYN051CMAN  06114 MKGM4 46/// /1715 10111 91146 91138 12;
0107997341999992005040612004+43233-086333FM-18+0185MKGM V0201601N008219999999N9999999N1+01211+99999999999REMSYN098CMAN  06124 MKGM4 46/// /1616 10121 91241 53015 91154 222// 00210 333 91210 5// 4//// 5//// 6////;
0000997341999992005040615004+43233-086333FM-18+0185MKGM V0201601N009319999999N9999999N1+01401+99999999999
0108997341999992005040616004+43233-086333FM-18+0185MKGM V0201601N006719999999N9999999N1+01581+99999999999REMSYN099CMAN  06164 MKGM4 46/// /1613 10158 91645 91638 91600 222// 0028 333 60005 84633 87457 90710 91119;
0079997341999992005040617004+43233-086333FM-18+0185MKGM V0201701N006219999999N9999999N1+01501+99999999999REMSYN070CMAN  06174 MKGM4 46/// /1712 10150 91746 91758 91700 222// 00295619/;
0060997341999992005040618004+43233-086333FM-18+0185MKGM V0201801N004619999999N9999999N1+01521+99999999999REMSYN051CMAN  06184 MKGM4 46/// /1809 10152 9184 333 91212;
0060997341999992005040620004+43233-086333FM-18+0185MKGM V0201701N004619999999N9999999N1+01571+99999999999REMSYN051CMAN  06204 MKGM4 46/// /1709 10157 92049 92058 06;
0060997341999992005040621004+43233-086333FM-18+0185MKGM V0202001N002619999999N9999999N1+01631+99999999999REMSYN051CMAN  06214 MKGM4 46/// /2005 10163 9214 333 91213;
0000997341999992005040622004+43233-086333FM-18+0185MKGM V0202501N002619999999N9999999N1+01021+99999999999
0060997341999992005040623004+43233-086333FM-18+0185MKGM V0203301N001019999999N9999999N1+01161+99999999999REMSYN051CMAN  06234 MKGM4 46/// /3302 10116 9234 333 91219;
0078997341999992005040700004+43233-086333FM-18+0185MKGM V0203201N007719999999N9999999N1+00691+99999999999REMSYN069CMAN  07004 MKGM4 46/// /3215 10069 90042 51011 90000 222// 00285300;
0091997341999992005040701004+43233-086333FM-18+0185MKGM V0203301N007219999999N9999999N1+00541+99999999999REMSYN082CMAN  07014 MKGM4 46/// /3314 10054 90144 51009 90100 222// 002991009 91110 91206;
0089997341999992005040702004+43233-086333FM-18+0185MKGM V0203401N003119999999N9999999N1+00721+99999999999REMSYN080CMAN  07024 MKGM4 46/// /3406 10072 90247 53007 90200 222// 002891108 555 60005;
0000997341999992005040703004+43233-086333FM-18+0185MKGM V0200201N003619999999N9999999N1+01181+99999999999
0142997341999992005040704004+43233-086333FM-18+0185MKGM V0203301N007219999999N9999999N1+00501+99999999999REMSYN133CMAN  07044 MKGM4 46/// /3314 10050 90446 50000 90400 222// 0028555 11016 22017 30443 416023 60459 155017 155017 159016 158012 15018;
0166997341999992005040705004+43233-086333FM-18+0185MKGM V0203501N005119999999N9999999N1+00721+99999999999REMSYN157CMAN  07054 MKGM4 46/// /3510 10072 90540 58007 90500 222// 00280 333 91214 501 30555 418005 60559 175003 308002 338003 349002 2309 338010 33025 16555 60035;
0000997341999992005040707004+43233-086333FM-18+0185MKGM V0203201N005119999999N9999999N1+00441+99999999999
0060997341999992005040708004+43233-086333FM-18+0185MKGM V0203201N006219999999N9999999N1+00441+99999999999REMSYN051CMAN  07084 MKGM4 46/// /3212 10044 9084 333 91210;
0000997341999992005040709004+43233-086333FM-18+0185MKGM V0203401N004119999999N9999999N1+00481+99999999999
0090997341999992005040710004+43233-086333FM-18+0185MKGM V0203601N004119999999N9999999N1+00481+99999999999REMSYN081CMAN  07104 MKGM4 46/// /3608 10048 91049 53008 91000 222// 0027 333 81366 87274;
0185997341999992005040711004+43233-086333FM-18+0185MKGM V0203601N006219999999N9999999N1+00451+99999999999REMSYN176CMAN  07114 MKGM4 46/// /3612 10045 91143 53014 91100 222// 00280 22200 00089 10000 70000 333 91203 555 11033 22039 31059 42705 61149 282029 289029 291030 298033 267037 266035;
0107997341999992005040712004+43233-086333FM-18+0185MKGM V0200201N005719999999N9999999N1+00561+99999999999REMSYN098CMAN  07124 MKGM4 46/// /0211 10056 91242 53021 91200 222// 0028/// 2//00 3//// 4//// 5//// 6////;
0088997341999992005040713004+43233-086333FM-18+0185MKGM V0200201N006219999999N9999999N1+00641+99999999999REMSYN079CMAN  07134 MKGM4 46/// /0212 10064 91346 91338 222// 00281 3//// 41501 700012;
0060997341999992005040714004+43233-086333FM-18+0185MKGM V0200401N008719999999N9999999N1+00831+99999999999REMSYN051CMAN  07144 MKGM4 46/// /0417 10083 9144 333 91213;
0097997341999992005040715004+43233-086333FM-18+0185MKGM V0200401N007219999999N9999999N1+00921+99999999999REMSYN088CMAN  07154 MKGM4 46/// /0414 10092 91545 91500 222// 00284 333 91221 5 70020 333 91203;
0079997341999992005040716004+43233-086333FM-18+0185MKGM V0200201N006719999999N9999999N1+01091+99999999999REMSYN070CMAN  07164 MKGM4 46/// /0213 10109 91645 91634 91600 222// 002882/50;
0085997341999992005040717004+43233-086333FM-18+0185MKGM V0200601N005719999999N9999999N1+01301+99999999999REMSYN076CMAN  07174 MKGM4 46/// /0611 10130 91749 91758 91700 222// 002920110 92438;
0074997341999992005040718004+43233-086333FM-18+0185MKGM V0200701N003619999999N9999999N1+01251+99999999999REMSYN065CMAN  07184 MKGM4 46/// /0707 10125 91849 58016 91800 222// 0029;
0000997341999992005040719004+43233-086333FM-18+0185MKGM V0200501N004619999999N9999999N1+01571+99999999999
0096997341999992005040720004+43233-086333FM-18+0185MKGM V0203101N008219999999N9999999N1+99999+99999999999REMSYN087CMAN  07204 MKGM4 46/// /3116 1//// 92041 56017 92000 222// 00292 333 91223 5650 91113;
0000997341999992005040721004+43233-086333FM-18+0185MKGM V0203301N010319999999N9999999N1+00671+99999999999
0149997341999992005040722004+43233-086333FM-18+0185MKGM V0203201N007719999999N9999999N1+00641+99999999999REMSYN140CMAN  07224 MKGM4 46/// /3215 10064 92246 92237 92200 222// 002957012 70322 83108 22254 00217 20302 3//// 4//// 5//// 6//// 80178 ICE /////;
0060997341999992005040723004+43233-086333FM-18+0185MKGM V0203301N006719999999N9999999N1+00631+99999999999REMSYN051CMAN  07234 MKGM4 46/// /3313 10063 9234 333 91211;
0091997341999992005040800004+43233-086333FM-18+0185MKGM V0203601N005119999999N9999999N1+01231+99999999999REMSYN082CMAN  08004 MKGM4 46/// /3610 10123 90047 58003 90000 222// 002991025 90710 91126;
0060997341999992005040801004+43233-086333FM-18+0185MKGM V0200201N006719999999N9999999N1+01151+99999999999REMSYN051CMAN  08014 MKGM4 46/// /0213 10115 90142 90133 09;
0106997341999992005040802004+43233-086333FM-18+0185MKGM V0200301N005119999999N9999999N1+01091+99999999999REMSYN097CMAN  08024 MKGM4 46/// /0310 10109 90244 55000 90200 222// 0028 333 10146 20097 91016 555 91031;
0107997341999992005040803004+43233-086333FM-18+0185MKGM V0200401N004119999999N9999999N1+01011+99999999999REMSYN098CMAN  08034 MKGM4 46/// /0408 10101 90348 53011 90300 222// 002886/45 91007 91109 91205 555 53000;
0000997341999992005040804004+43233-086333FM-18+0185MKGM V0200501N004119999999N9999999N1+00931+99999999999
0000997341999992005040805004+43233-086333FM-18+0185MKGM V0200701N003619999999N9999999N1+00881+99999999999
0103997341999992005040806004+43233-086333FM-18+0185MKGM V0200501N003119999999N9999999N1+00741+99999999999REMSYN094CMAN  08064 MKGM4 46/// /0506 10074 90643 58015 90600 222// 002885815 83626 90710 91125 93100;
0079997341999992005040807004+43233-086333FM-18+0185MKGM V0200401N002619999999N9999999N1+00691+99999999999REMSYN070CMAN  08074 MKGM4 46/// /0405 10069 90746 58017 90700 222// 002883816;
0085997341999992005040808004+43233-086333FM-18+0185MKGM V0200501N002119999999N9999999N1+00611+99999999999REMSYN076CMAN  08084 MKGM4 46/// /0504 10061 90842 56019 90800 222// 002883364 87080;
0000997341999992005040809004+43233-086333FM-18+0185MKGM V0200601N002619999999N9999999N1+00501+99999999999
0075997341999992005040810004+43233-086333FM-18+0185MKGM V0200401N004119999999N9999999N1+00541+99999999999REMSYN066CMAN  08104 MKGM4 46/// /0408 10054 91042 91034 91000 222// 00288;
0000997341999992005040811004+43233-086333FM-18+0185MKGM V0200501N003619999999N9999999N1+00501+99999999999
0000997341999992005040812004+43233-086333FM-18+0185MKGM V0200601N003619999999N9999999N1+00661+99999999999
0097997341999992005040813004+43233-086333FM-18+0185MKGM V0200801N002619999999N9999999N1+00961+99999999999REMSYN088CMAN  08134 MKGM4 46/// /0805 10096 91345 91335 91300 222// 0028 30068 91402 333 604134;
0083997341999992005040814004+43233-086333FM-18+0185MKGM V0200801N003119999999N9999999N1+01191+99999999999REMSYN074CMAN  08144 MKGM4 46/// /0806 10119 91442 91458 91400 222// 0027206 53104;
0060997341999992005040815004+43233-086333FM-18+0185MKGM V0201001N002619999999N9999999N1+01441+99999999999REMSYN051CMAN  08154 MKGM4 46/// /1005 10144 9154 333 91213;
0103997341999992005040817004+43233-086333FM-18+0185MKGM V0203101N004619999999N9999999N1+00741+99999999999REMSYN094CMAN  08174 MKGM4 46/// /3109 10074 91744 58011 91700 222// 00283 333 91210 56077 91118 91212;
0000997341999992005040818004+43233-086333FM-18+0185MKGM V0203201N006219999999N9999999N1+00691+99999999999
0060997341999992005040819004+43233-086333FM-18+0185MKGM V0203201N007719999999N9999999N1+00661+99999999999REMSYN051CMAN  08194 MKGM4 46/// /3215 10066 9194 333 91213;
0079997341999992005040820004+43233-086333FM-18+0185MKGM V0203301N008219999999N9999999N1+00701+99999999999REMSYN070CMAN  08204 MKGM4 46/// /3316 10070 92042 56022 92000 222// 002887078;
0103997341999992005040821004+43233-086333FM-18+0185MKGM V0203301N007219999999N9999999N1+00741+99999999999REMSYN094CMAN  08214 MKGM4 46/// /3314 10074 92141 56015 92100 222// 00285 333 91216 57648 92446 98582;
0079997341999992005040822004+43233-086333FM-18+0185MKGM V0203301N006219999999N9999999N1+00711+99999999999REMSYN070CMAN  08224 MKGM4 46/// /3312 10071 92245 55004 92200 222// 002884/50;
0060997341999992005040823004+43233-086333FM-18+0185MKGM V0203301N005119999999N9999999N1+00631+99999999999REMSYN051CMAN  08234 MKGM4 46/// /3310 10063 9234 333 91206;
0060997341999992005040900004+43233-086333FM-18+0185MKGM V0200101N001519999999N9999999N1+00731+99999999999REMSYN051CMAN  09004 MKGM4 46/// /0103 10073 90044 90035 05;
0074997341999992005040901004+43233-086333FM-18+0185MKGM V0200501N001519999999N9999999N1+00651+99999999999REMSYN065CMAN  09014 MKGM4 46/// /0503 10065 90149 90158 90100 222// 0029;
0090997341999992005040902004+43233-086333FM-18+0185MKGM V0200801N003619999999N9999999N1+00901+99999999999REMSYN081CMAN  09024 MKGM4 46/// /0807 10090 90246 53019 90200 222// 00289 333 91218 5821;
0079997341999992005040903004+43233-086333FM-18+0185MKGM V0200701N004119999999N9999999N1+00981+99999999999REMSYN070CMAN  09034 MKGM4 46/// /0708 10098 90347 51016 90300 222// 002988643;
0000997341999992005040904004+43233-086333FM-18+0185MKGM V0200701N005119999999N9999999N1+00931+99999999999
0091997341999992005040905004+43233-086333FM-18+0185MKGM V0200801N005719999999N9999999N1+00861+99999999999REMSYN082CMAN  09054 MKGM4 46/// /0811 10086 90543 58003 90500 222// 002959006 81708 83818;
0095997341999992005040906004+43233-086333FM-18+0185MKGM V0200801N005719999999N9999999N1+00791+99999999999REMSYN086CMAN  09064 MKGM4 46/// /0811 10079 90648 58009 90600 222// 002887704 88515 555 6//97;
0091997341999992005040907004+43233-086333FM-18+0185MKGM V0200801N005719999999N9999999N1+00731+99999999999REMSYN082CMAN  09074 MKGM4 46/// /0811 10073 90741 58016 90700 222// 002882707 83715 88620;
0000997341999992005040908004+43233-086333FM-18+0185MKGM V0200901N005119999999N9999999N1+00671+99999999999
0060997341999992005040909004+43233-086333FM-18+0185MKGM V0200901N005719999999N9999999N1+00601+99999999999REMSYN051CMAN  09094 MKGM4 46/// /0911 10060 9094 333 91200;
0089997341999992005040910004+43233-086333FM-18+0185MKGM V0200801N005719999999N9999999N1+00551+99999999999REMSYN080CMAN  09104 MKGM4 46/// /0811 10055 91040 55000 91000 222// 002891206 555 53240;
0060997341999992005040911004+43233-086333FM-18+0185MKGM V0200901N005719999999N9999999N1+00541+99999999999REMSYN051CMAN  09114 MKGM4 46/// /0911 10054 9114 333 91203;
0060997341999992005040912004+43233-086333FM-18+0185MKGM V0200901N004619999999N9999999N1+00671+99999999999REMSYN051CMAN  09124 MKGM4 46/// /0909 10067 91249 91239 00;
0000997341999992005040913004+43233-086333FM-18+0185MKGM V0200901N003619999999N9999999N1+00911+99999999999
0060997341999992005040914004+43233-086333FM-18+0185MKGM V0201101N003619999999N9999999N1+01191+99999999999REMSYN051CMAN  09144 MKGM4 46/// /1107 10119 91440 33 91207;
0000997341999992005040915004+43233-086333FM-18+0185MKGM V0201101N003619999999N9999999N1+01391+99999999999
0091997341999992005040916004+43233-086333FM-18+0185MKGM V0202901N000519999999N9999999N1+01231+99999999999REMSYN082CMAN  09164 MKGM4 46/// /2901 10123 91642 91658 91600 222// 002883648 87075 92447;
0000997341999992005040917004+43233-086333FM-18+0185MKGM V0202501N003119999999N9999999N1+01121+99999999999
0102997341999992005040918004+43233-086333FM-18+0185MKGM V0202601N002619999999N9999999N1+01231+99999999999REMSYN093CMAN  09184 MKGM4 46/// /2605 10123 91848 91835 91800 222// 0029 39770 91900 333 63820 92427;
0000997341999992005040919004+43233-086333FM-18+0185MKGM V0202801N003119999999N9999999N1+01201+99999999999
0060997341999992005040920004+43233-086333FM-18+0185MKGM V0203001N003619999999N9999999N1+01191+99999999999REMSYN051CMAN  09204 MKGM4 46/// /3007 10119 9204 333 91213;
0203997341999992005040921004+43233-086333FM-18+0185MKGM V0203201N005719999999N9999999N1+01151+99999999999REMSYN194CMAN  09214 MKGM4 46/// /3211 10115 92140 92148 92100 52006 92150 22200 00105 11207 20401 327// 41207 70034 333 91205 555 11038 22040 32053 42607 62149 237036 234035 238037 246039 252040 254048;
0060997341999992005040922004+43233-086333FM-18+0185MKGM V0203301N004619999999N9999999N1+01281+99999999999REMSYN051CMAN  09224 MKGM4 46/// /3309 10128 9224 333 91214;
0128997341999992005040923004+43233-086333FM-18+0185MKGM V0209999C000019999999N9999999N1+01291+99999999999REMSYN119CMAN  09234 MKGM4 46/// /0000 10129 92342 52006 92300 222// 0028/ 333 11185 2125 1 56499 58027 88730 90921 91535 93101;
0060997341999992005041000004+43233-086333FM-18+0185MKGM V0201101N003119999999N9999999N1+01391+99999999999REMSYN051CMAN  10004 MKGM4 46/// /1106 10139 9004 333 91212;
0084997341999992005041001004+43233-086333FM-18+0185MKGM V0201001N003619999999N9999999N1+01361+99999999999REMSYN075CMAN  10014 MKGM4 46/// /1007 10136 90143 51015 90100 222// 00286/25 84/37;
0084997341999992005041002004+43233-086333FM-18+0185MKGM V0200901N003619999999N9999999N1+01451+99999999999REMSYN075CMAN  10024 MKGM4 46/// /0907 10145 90247 90235 90200 222// 0029 555 19025;
0089997341999992005041003004+43233-086333FM-18+0185MKGM V0200901N004619999999N9999999N1+01411+99999999999REMSYN080CMAN  10034 MKGM4 46/// /0909 10141 90347 51007 90300 222// 002887610 555 6//91;
0089997341999992005041004004+43233-086333FM-18+0185MKGM V0201001N005119999999N9999999N1+01441+99999999999REMSYN080CMAN  10044 MKGM4 46/// /1010 10144 90443 50000 90400 222// 00288 333 91210 598;
0091997341999992005041005004+43233-086333FM-18+0185MKGM V0200901N004119999999N9999999N1+01271+99999999999REMSYN082CMAN  10054 MKGM4 46/// /0908 10127 90548 58008 90500 222// 0028/ 90600 333 6///0;
0060997341999992005041006004+43233-086333FM-18+0185MKGM V0200701N003119999999N9999999N1+01181+99999999999REMSYN051CMAN  10064 MKGM4 46/// /0706 10118 9064 333 91205;
0074997341999992005041007004+43233-086333FM-18+0185MKGM V0200801N005119999999N9999999N1+01141+99999999999REMSYN065CMAN  10074 MKGM4 46/// /0810 10114 90744 58019 90700 222// 0028;
0060997341999992005041008004+43233-086333FM-18+0185MKGM V0200801N004119999999N9999999N1+01021+99999999999REMSYN051CMAN  10084 MKGM4 46/// /0808 10102 9084 333 91202;
0000997341999992005041009004+43233-086333FM-18+0185MKGM V0200801N004619999999N9999999N1+01021+99999999999
0079997341999992005041010004+43233-086333FM-18+0185MKGM V0200801N004619999999N9999999N1+00941+99999999999REMSYN070CMAN  10104 MKGM4 46/// /0809 10094 91046 54000 91000 222// 00286//86;
0091997341999992005041011004+43233-086333FM-18+0185MKGM V0200701N004619999999N9999999N1+00911+99999999999REMSYN082CMAN  10114 MKGM4 46/// /0709 10091 91142 53008 91100 222// 0027/ 333 84607 87657;
0079997341999992005041012004+43233-086333FM-18+0185MKGM V0200701N006219999999N9999999N1+00971+99999999999REMSYN070CMAN  10124 MKGM4 46/// /0712 10097 91240 91234 91200 222// 002886818;
0079997341999992005041013004+43233-086333FM-18+0185MKGM V0200801N006219999999N9999999N1+01271+99999999999REMSYN070CMAN  10134 MKGM4 46/// /0812 10127 91346 91358 91300 222// 002810252;
0067997341999992005041014004+43233-086333FM-18+0185MKGM V0200901N005119999999N9999999N1+01571+99999999999REMSYN058CMAN  10144 MKGM4 46/// /0910 10157 9144/ 00111 333 91203;
0060997341999992005041015004+43233-086333FM-18+0185MKGM V0200801N004119999999N9999999N1+01831+99999999999REMSYN051CMAN  10154 MKGM4 46/// /0808 10183 91542 91536 07;
0090997341999992005041017004+43233-086333FM-18+0185MKGM V0201001N005119999999N9999999N1+02161+99999999999REMSYN081CMAN  10174 MKGM4 46/// /1010 10216 91743 58016 91700 222// 00290211 84070 95300;
0079997341999992005041018004+43233-086333FM-18+0185MKGM V0201201N006219999999N9999999N1+02231+99999999999REMSYN070CMAN  10184 MKGM4 46/// /1212 10223 91847 57021 91800 222// 002986/62;
0091997341999992005041019004+43233-086333FM-18+0185MKGM V0200801N003119999999N9999999N1+02371+99999999999REMSYN082CMAN  10194 MKGM4 46/// /0806 10237 91940 56022 91900 222// 0028/ 91900 333 6///0;
0203997341999992005041020004+43233-086333FM-18+0185MKGM V0200701N003119999999N9999999N1+02241+99999999999REMSYN194CMAN  10204 MKGM4 46/// /0706 10224 92044 92011 92000 222// 00290 22200 00103 11106 20605 328// 41104 70031 333 91216 555 11143 22152 32012 41817 62049 174133 174123 175123 175125 175122 175120;
0000997341999992005041021004+43233-086333FM-18+0185MKGM V0200701N004619999999N9999999N1+02271+99999999999
0096997341999992005041022004+43233-086333FM-18+0185MKGM V0200701N006219999999N9999999N1+02231+99999999999REMSYN087CMAN  10224 MKGM4 46/// /0712 10223 92241 56009 92200 222// 00290005 91043 90710 91149;
0060997341999992005041023004+43233-086333FM-18+0185MKGM V0200701N006219999999N9999999N1+01941+99999999999REMSYN051CMAN  10234 MKGM4 46/// /0712 10194 9234 333 91203;
0133997341999992005041100004+43233-086333FM-18+0185MKGM V0200801N009319999999N9999999N1+01781+99999999999REMSYN124CMAN  11004 MKGM4 46/// /0818 10178 90045 53005 90000 222// 002952017 70122 85800 22200 04064 10804 323// 40804 5//// 70021;
0060997341999992005041101004+43233-086333FM-18+0185MKGM V0200801N007719999999N9999999N1+01671+99999999999REMSYN051CMAN  11014 MKGM4 46/// /0815 10167 90144 90158 14;
0000997341999992005041102004+43233-086333FM-18+0185MKGM V0200801N008219999999N9999999N1+01581+99999999999
0091997341999992005041103004+43233-086333FM-18+0185MKGM V0200801N007719999999N9999999N1+01411+99999999999REMSYN082CMAN  11034 MKGM4 46/// /0815 10141 90345 53010 90300 222// 00291 333 91214 56/50;
0000997341999992005041104004+43233-086333FM-18+0185MKGM V0200801N009819999999N9999999N1+01221+99999999999
0060997341999992005041105004+43233-086333FM-18+0185MKGM V0200801N008719999999N9999999N1+01131+99999999999REMSYN051CMAN  11054 MKGM4 46/// /0817 10113 9054 333 91213;
0078997341999992005041106004+43233-086333FM-18+0185MKGM V0200801N008719999999N9999999N1+01131+99999999999REMSYN069CMAN  11064 MKGM4 46/// /0817 10113 90641 56014 90600 222// 00289010;
0091997341999992005041107004+43233-086333FM-18+0185MKGM V0200801N008719999999N9999999N1+01141+99999999999REMSYN082CMAN  11074 MKGM4 46/// /0817 10114 90745 58015 90700 222// 0028/ 90800 333 6///0;
0060997341999992005041108004+43233-086333FM-18+0185MKGM V0200801N009819999999N9999999N1+01061+99999999999REMSYN051CMAN  11084 MKGM4 46/// /0819 10106 9084 333 91213;
0000997341999992005041109004+43233-086333FM-18+0185MKGM V0200801N009819999999N9999999N1+00941+99999999999
0000997341999992005041110004+43233-086333FM-18+0185MKGM V0200801N009319999999N9999999N1+00881+99999999999
0060997341999992005041111004+43233-086333FM-18+0185MKGM V0200801N008719999999N9999999N1+00851+99999999999REMSYN051CMAN  11114 MKGM4 46/// /0817 10085 9114 333 91219;
0097997341999992005041113004+43233-086333FM-18+0185MKGM V0200801N007719999999N9999999N1+01061+99999999999REMSYN088CMAN  11134 MKGM4 46/// /0815 10106 91343 91335 91300 222// 002883/25 91025 90710 91126;
0060997341999992005041114004+43233-086333FM-18+0185MKGM V0200901N009319999999N9999999N1+01281+99999999999REMSYN051CMAN  11144 MKGM4 46/// /0918 10128 9144 333 91217;
0067997341999992005041115004+43233-086333FM-18+0185MKGM V0200801N008219999999N9999999N1+01531+99999999999REMSYN058CMAN  11154 MKGM4 46/// /0816 10153 9154/ 00245 333 91214;
0000997341999992005041116004+43233-086333FM-18+0185MKGM V0200901N009819999999N9999999N1+01781+99999999999
0000997341999992005041117004+43233-086333FM-18+0185MKGM V0200901N010819999999N9999999N1+01901+99999999999
0060997341999992005041118004+43233-086333FM-18+0185MKGM V0201101N009819999999N9999999N1+02031+99999999999REMSYN051CMAN  11184 MKGM4 46/// /1119 10203 9184 333 91212;
0149997341999992005041119004+43233-086333FM-18+0185MKGM V0201001N009319999999N9999999N1+02091+99999999999REMSYN140CMAN  11194 MKGM4 46/// /1018 10209 91945 91934 91900 222// 002955 11005 22006 31925 434009 61959 338005 350005 350007 348006 347006 357004;
0060997341999992005041120004+43233-086333FM-18+0185MKGM V0200901N009319999999N9999999N1+02111+99999999999REMSYN051CMAN  11204 MKGM4 46/// /0918 10211 9204 333 91211;
0060997341999992005041121004+43233-086333FM-18+0185MKGM V0200901N008719999999N9999999N1+02071+99999999999REMSYN051CMAN  11214 MKGM4 46/// /0917 10207 9214 333 91212;
0060997341999992005041122004+43233-086333FM-18+0185MKGM V0200801N007719999999N9999999N1+01931+99999999999REMSYN051CMAN  11224 MKGM4 46/// /0815 10193 9224 333 91216;
0060997341999992005041123004+43233-086333FM-18+0185MKGM V0200801N008219999999N9999999N1+01731+99999999999REMSYN051CMAN  11234 MKGM4 46/// /0816 10173 9234 333 91214;
0100997341999992005041200004+43233-086333FM-18+0185MKGM V0200801N009319999999N9999999N1+01501+99999999999REMSYN091CMAN  12004 MKGM4 46/// /0818 10150 90047 53010 90000 222// 0029 333 56500 82616 555 10185;
0090997341999992005041201004+43233-086333FM-18+0185MKGM V0200901N009819999999N9999999N1+01311+99999999999REMSYN081CMAN  12014 MKGM4 46/// /0919 10131 90143 53014 90100 222// 00292 333 91210 5102;
0089997341999992005041202004+43233-086333FM-18+0185MKGM V0200801N010319999999N9999999N1+01121+99999999999REMSYN080CMAN  12024 MKGM4 46/// /0820 10112 90246 51014 90200 222// 002991013 555 90972;
0091997341999992005041203004+43233-086333FM-18+0185MKGM V0200901N007719999999N9999999N1+00951+99999999999REMSYN082CMAN  12034 MKGM4 46/// /0915 10095 90347 51010 90300 222// 00292 333 91206 51114;
0067997341999992005041204004+43233-086333FM-18+0185MKGM V0200801N010319999999N9999999N1+00851+99999999999REMSYN058CMAN  12044 MKGM4 46/// /0820 10085 9044/ 00222 333 91208;
0091997341999992005041205004+43233-086333FM-18+0185MKGM V0200801N012319999999N9999999N1+00811+99999999999REMSYN082CMAN  12054 MKGM4 46/// /0824 10081 90542 58004 90500 222// 002882612 81925 95735;
0091997341999992005041206004+43233-086333FM-18+0185MKGM V0200801N010819999999N9999999N1+00791+99999999999REMSYN082CMAN  12064 MKGM4 46/// /0821 10079 90648 58009 90600 222// 002811239 21353 70027;
0079997341999992005041207004+43233-086333FM-18+0185MKGM V0200901N012919999999N9999999N1+00801+99999999999REMSYN070CMAN  12074 MKGM4 46/// /0925 10080 90745 56012 90700 222// 00296//72;
0079997341999992005041208004+43233-086333FM-18+0185MKGM V0200901N011819999999N9999999N1+00741+99999999999REMSYN070CMAN  12084 MKGM4 46/// /0923 10074 90847 56005 90800 222// 00296//57;
0079997341999992005041209004+43233-086333FM-18+0185MKGM V0200901N010319999999N9999999N1+00691+99999999999REMSYN070CMAN  12094 MKGM4 46/// /0920 10069 90948 55000 90900 222// 002883364;
0091997341999992005041210004+43233-086333FM-18+0185MKGM V0200901N007719999999N9999999N1+00611+99999999999REMSYN082CMAN  12104 MKGM4 46/// /0915 10061 91043 91011 0017/ 0021/ 333 81707 87642 87650;
0060997341999992005041211004+43233-086333FM-18+0185MKGM V0200901N011319999999N9999999N1+00561+99999999999REMSYN051CMAN  12114 MKGM4 46/// /0922 10056 9114 333 91220;
0060997341999992005041212004+43233-086333FM-18+0185MKGM V0200901N011819999999N9999999N1+00621+99999999999REMSYN051CMAN  12124 MKGM4 46/// /0923 10062 91245 91233 21;
0060997341999992005041213004+43233-086333FM-18+0185MKGM V0200801N009319999999N9999999N1+00821+99999999999REMSYN051CMAN  12134 MKGM4 46/// /0818 10082 91343 91309 19;
0060997341999992005041214004+43233-086333FM-18+0185MKGM V0200801N009819999999N9999999N1+01031+99999999999REMSYN051CMAN  12144 MKGM4 46/// /0819 10103 9144 333 91220;
0060997341999992005041215004+43233-086333FM-18+0185MKGM V0201001N010319999999N9999999N1+01161+99999999999REMSYN051CMAN  12154 MKGM4 46/// /1020 10116 9154 333 91219;
0000997341999992005041216004+43233-086333FM-18+0185MKGM V0201101N008719999999N9999999N1+01321+99999999999
0060997341999992005041217004+43233-086333FM-18+0185MKGM V0201001N008719999999N9999999N1+01421+99999999999REMSYN051CMAN  12174 MKGM4 46/// /1017 10142 9174 333 91218;
0000997341999992005041218004+43233-086333FM-18+0185MKGM V0200801N008719999999N9999999N1+01501+99999999999
0000997341999992005041219004+43233-086333FM-18+0185MKGM V0200801N008719999999N9999999N1+01501+99999999999
0060997341999992005041220004+43233-086333FM-18+0185MKGM V0200701N009819999999N9999999N1+01531+99999999999REMSYN051CMAN  12204 MKGM4 46/// /0719 10153 9204 333 91220;
0000997341999992005041221004+43233-086333FM-18+0185MKGM V0200801N008219999999N9999999N1+01531+99999999999
0084997341999992005041222004+43233-086333FM-18+0185MKGM V0200701N009819999999N9999999N1+01431+99999999999REMSYN075CMAN  12224 MKGM4 46/// /0719 10143 92248 52003 92200 222// 0029 333 82920;
0060997341999992005041223004+43233-086333FM-18+0185MKGM V0200701N009319999999N9999999N1+01301+99999999999REMSYN051CMAN  12234 MKGM4 46/// /0718 10130 9234 333 91213;
0060997341999992005041300004+43233-086333FM-18+0185MKGM V0200701N007719999999N9999999N1+01151+99999999999REMSYN051CMAN  13004 MKGM4 46/// /0715 10115 9004 333 91206;
0150997341999992005041301004+43233-086333FM-18+0185MKGM V0200801N008219999999N9999999N1+00971+99999999999REMSYN141CMAN  13014 MKGM4 46/// /0816 10097 90140 52012 90100 222// 0029 54000 7//11 86628 22244 00230 2//// 3//// 4//// 5//// 6//// 80230 ICE /////;
0060997341999992005041302004+43233-086333FM-18+0185MKGM V0200601N007719999999N9999999N1+00781+99999999999REMSYN051CMAN  13024 MKGM4 46/// /0615 10078 9024 333 91203;
0000997341999992005041303004+43233-086333FM-18+0185MKGM V0200701N008719999999N9999999N1+00661+99999999999
0000997341999992005041304004+43233-086333FM-18+0185MKGM V0200601N007719999999N9999999N1+00581+99999999999
0101997341999992005041305004+43233-086333FM-18+0185MKGM V0200601N005719999999N9999999N1+00521+99999999999REMSYN092CMAN  13054 MKGM4 46/// /0611 10052 90542 58004 90500 222// 002821209 91022 555 11181 90970;
0079997341999992005041306004+43233-086333FM-18+0185MKGM V0200701N005719999999N9999999N1+00491+99999999999REMSYN070CMAN  13064 MKGM4 46/// /0711 10049 90643 58015 90600 222// 002987358;
0095997341999992005041307004+43233-086333FM-18+0185MKGM V0200701N006719999999N9999999N1+00431+99999999999REMSYN086CMAN  13074 MKGM4 46/// /0713 10043 90741 56018 90700 222// 002985612 87356 555 357//;
0000997341999992005041308004+43233-086333FM-18+0185MKGM V0200601N006219999999N9999999N1+00371+99999999999
0091997341999992005041309004+43233-086333FM-18+0185MKGM V0200501N005719999999N9999999N1+00331+99999999999REMSYN082CMAN  13094 MKGM4 46/// /0511 10033 90944 55000 90900 222// 002981918 83820 87359;
0067997341999992005041310004+43233-086333FM-18+0185MKGM V0200401N006219999999N9999999N1+00271+99999999999REMSYN058CMAN  13104 MKGM4 46/// /0412 10027 91042 91033 001769995;
0060997341999992005041311004+43233-086333FM-18+0185MKGM V0200501N006219999999N9999999N1+00281+99999999999REMSYN051CMAN  13114 MKGM4 46/// /0512 10028 91143 91158 08;
0060997341999992005041312004+43233-086333FM-18+0185MKGM V0200501N007219999999N9999999N1+00461+99999999999REMSYN051CMAN  13124 MKGM4 46/// /0514 10046 9124 333 91208;
0000997341999992005041313004+43233-086333FM-18+0185MKGM V0200501N006719999999N9999999N1+00721+99999999999
0060997341999992005041314004+43233-086333FM-18+0185MKGM V0200601N005719999999N9999999N1+00991+99999999999REMSYN051CMAN  13144 MKGM4 46/// /0611 10099 9144 333 91210;
0060997341999992005041315004+43233-086333FM-18+0185MKGM V0200701N005719999999N9999999N1+01241+99999999999REMSYN051CMAN  13154 MKGM4 46/// /0711 10124 9154 333 91208;
0000997341999992005041316004+43233-086333FM-18+0185MKGM V0200501N005119999999N9999999N1+01351+99999999999
0060997341999992005041317004+43233-086333FM-18+0185MKGM V0200701N004619999999N9999999N1+01451+99999999999REMSYN051CMAN  13174 MKGM4 46/// /0709 10145 91741 91758 16;
0060997341999992005041318004+43233-086333FM-18+0185MKGM V0200501N005119999999N9999999N1+01501+99999999999REMSYN051CMAN  13184 MKGM4 46/// /0510 10150 9184 333 91216;
0133997341999992005041319004+43233-086333FM-18+0185MKGM V0200501N004119999999N9999999N1+01591+99999999999REMSYN124CMAN  13194 MKGM4 46/// /0508 10159 91940 91937 91900 0020 29091 39960 91900 333 622200 04058 10807 3//// 4//// 5//// 70036;
0074997341999992005041320004+43233-086333FM-18+0185MKGM V0203301N004619999999N9999999N1+00961+99999999999REMSYN065CMAN  13204 MKGM4 46/// /3309 10096 92045 57013 92000 222// 0029;
0097997341999992005041321004+43233-086333FM-18+0185MKGM V0203201N008219999999N9999999N1+00811+99999999999REMSYN088CMAN  13214 MKGM4 46/// /3216 10081 92149 92100 222// 003084/50 88/58 91005 91106 91204;
0000997341999992005041322004+43233-086333FM-18+0185MKGM V0203201N007219999999N9999999N1+00781+99999999999
0060997341999992005041323004+43233-086333FM-18+0185MKGM V0203401N003619999999N9999999N1+00881+99999999999REMSYN051CMAN  13234 MKGM4 46/// /3407 10088 9234 333 91206;
0060997341999992005041400004+43233-086333FM-18+0185MKGM V0203401N005119999999N9999999N1+01031+99999999999REMSYN051CMAN  14004 MKGM4 46/// /3410 10103 9004 333 91205;
0079997341999992005041402004+43233-086333FM-18+0185MKGM V0200901N004119999999N9999999N1+01111+99999999999REMSYN070CMAN  14024 MKGM4 46/// /0908 10111 90243 53011 90200 222// 002985080;
0079997341999992005041403004+43233-086333FM-18+0185MKGM V0200701N004119999999N9999999N1+00961+99999999999REMSYN070CMAN  14034 MKGM4 46/// /0708 10096 90343 51011 90300 222// 003084633;
0085997341999992005041404004+43233-086333FM-18+0185MKGM V0200701N002119999999N9999999N1+00871+99999999999REMSYN076CMAN  14044 MKGM4 46/// /0704 10087 90441 51005 90400 222// 002981703 87708;
0000997341999992005041405004+43233-086333FM-18+0185MKGM V0200401N002119999999N9999999N1+00661+99999999999
0000997341999992005041406004+43233-086333FM-18+0185MKGM V0200201N002619999999N9999999N1+00621+99999999999
0079997341999992005041407004+43233-086333FM-18+0185MKGM V0200101N001519999999N9999999N1+00621+99999999999REMSYN070CMAN  14074 MKGM4 46/// /0103 10062 90749 57012 90700 222// 00296//72;
0060997341999992005041408004+43233-086333FM-18+0185MKGM V0203301N001519999999N9999999N1+00521+99999999999REMSYN051CMAN  14084 MKGM4 46/// /3303 10052 9084 333 91211;
0060997341999992005041409004+43233-086333FM-18+0185MKGM V0200401N002119999999N9999999N1+00511+99999999999REMSYN051CMAN  14094 MKGM4 46/// /0404 10051 9094 333 91206;
0000997341999992005041410004+43233-086333FM-18+0185MKGM V0200401N002619999999N9999999N1+00551+99999999999
0060997341999992005041411004+43233-086333FM-18+0185MKGM V0200401N004119999999N9999999N1+00551+99999999999REMSYN051CMAN  14114 MKGM4 46/// /0408 10055 9114 333 91212;
0060997341999992005041412004+43233-086333FM-18+0185MKGM V0200701N003619999999N9999999N1+00741+99999999999REMSYN051CMAN  14124 MKGM4 46/// /0707 10074 9124 333 91219;
0060997341999992005041413004+43233-086333FM-18+0185MKGM V0200601N005719999999N9999999N1+00951+99999999999REMSYN051CMAN  14134 MKGM4 46/// /0611 10095 9134 333 91218;
0060997341999992005041414004+43233-086333FM-18+0185MKGM V0200401N004119999999N9999999N1+01171+99999999999REMSYN051CMAN  14144 MKGM4 46/// /0408 10117 9144 333 91213;
0096997341999992005041415004+43233-086333FM-18+0185MKGM V0203001N003119999999N9999999N1+00811+99999999999REMSYN087CMAN  14154 MKGM4 46/// /3006 10081 91546 333 91210 5 333 91208 5333 82820 83360 88270;
0067997341999992005041416004+43233-086333FM-18+0185MKGM V0203201N005119999999N9999999N1+00761+99999999999REMSYN058CMAN  14164 MKGM4 46/// /3210 10076 91646 91645 333 91210;
0134997341999992005041417004+43233-086333FM-18+0185MKGM V0203201N005119999999N9999999N1+00721+99999999999REMSYN125CMAN  14174 MKGM4 46/// /3210 10072 91749 57012 91700 222// 00282 333 91210 582160 22275 00142 20301 330// 40602 5//// 80098;
0060997341999992005041418004+43233-086333FM-18+0185MKGM V0203101N005119999999N9999999N1+00801+99999999999REMSYN051CMAN  14184 MKGM4 46/// /3110 10080 9184 333 91210;
0073997341999992005041419004+43233-086333FM-18+0185MKGM V0203001N005719999999N9999999N1+00841+99999999999REMSYN064CMAN  14194 MKGM4 46/// /3011 10084 91945 91900 222// 002987/57;
0060997341999992005041420004+43233-086333FM-18+0185MKGM V0203201N008219999999N9999999N1+00761+99999999999REMSYN051CMAN  14204 MKGM4 46/// /3216 10076 92040 92041210;
0060997341999992005041421004+43233-086333FM-18+0185MKGM V0203201N009819999999N9999999N1+00811+99999999999REMSYN051CMAN  14214 MKGM4 46/// /3219 10081 92145 92113 08;
0079997341999992005041422004+43233-086333FM-18+0185MKGM V0203201N008719999999N9999999N1+00761+99999999999REMSYN070CMAN  14224 MKGM4 46/// /3217 10076 92240 92234 92200 222// 003091202;
0060997341999992005041423004+43233-086333FM-18+0185MKGM V0203201N007219999999N9999999N1+00671+99999999999REMSYN051CMAN  14234 MKGM4 46/// /3214 10067 9234 333 91203;
0000997341999992005041500004+43233-086333FM-18+0185MKGM V0203201N005119999999N9999999N1+00641+99999999999
0079997341999992005041501004+43233-086333FM-18+0185MKGM V0200901N006219999999N9999999N1+01331+99999999999REMSYN070CMAN  15014 MKGM4 46/// /0912 10133 90144 90137 90100 222// 002991202;
0089997341999992005041502004+43233-086333FM-18+0185MKGM V0200801N006719999999N9999999N1+01091+99999999999REMSYN080CMAN  15024 MKGM4 46/// /0813 10109 90249 53012 90200 222// 002991110 555 60025;
0000997341999992005041503004+43233-086333FM-18+0185MKGM V0200901N007719999999N9999999N1+00831+99999999999
0000997341999992005041504004+43233-086333FM-18+0185MKGM V0200801N009319999999N9999999N1+00681+99999999999
0060997341999992005041505004+43233-086333FM-18+0185MKGM V0200801N006719999999N9999999N1+00601+99999999999REMSYN051CMAN  15054 MKGM4 46/// /0813 10060 90540 33 91206;
0060997341999992005041506004+43233-086333FM-18+0185MKGM V0200801N008219999999N9999999N1+00531+99999999999REMSYN051CMAN  15064 MKGM4 46/// /0816 10053 9064 333 91215;
0000997341999992005041507004+43233-086333FM-18+0185MKGM V0200901N005119999999N9999999N1+00451+99999999999
0060997341999992005041508004+43233-086333FM-18+0185MKGM V0200801N005719999999N9999999N1+00411+99999999999REMSYN051CMAN  15084 MKGM4 46/// /0811 10041 9084 333 91216;
0107997341999992005041509004+43233-086333FM-18+0185MKGM V0200801N006219999999N9999999N1+00401+99999999999REMSYN098CMAN  15094 MKGM4 46/// /0812 10040 90940 55000 90900 222// 002887/59 91010 91110 91208 555 53073;
0060997341999992005041510004+43233-086333FM-18+0185MKGM V0200901N003619999999N9999999N1+00391+99999999999REMSYN051CMAN  15104 MKGM4 46/// /0907 10039 91044 91035 08;
0060997341999992005041511004+43233-086333FM-18+0185MKGM V0200801N004119999999N9999999N1+00401+99999999999REMSYN051CMAN  15114 MKGM4 46/// /0808 10040 9114 333 91208;
0101997341999992005041512004+43233-086333FM-18+0185MKGM V0200901N004119999999N9999999N1+00551+99999999999REMSYN092CMAN  15124 MKGM4 46/// /0908 10055 91248 53018 91200 222// 002854836 81936 555 10056 55094;
0060997341999992005041513004+43233-086333FM-18+0185MKGM V0200801N003619999999N9999999N1+00831+99999999999REMSYN051CMAN  15134 MKGM4 46/// /0807 10083 91343 91335 09;
0060997341999992005041514004+43233-086333FM-18+0185MKGM V0201101N003119999999N9999999N1+01111+99999999999REMSYN051CMAN  15144 MKGM4 46/// /1106 10111 91448 91458 08;
0091997341999992005041515004+43233-086333FM-18+0185MKGM V0202401N002119999999N9999999N1+00871+99999999999REMSYN082CMAN  15154 MKGM4 46/// /2404 10087 91546 50000 91454 222// 00198 333 91219 56656;
0078997341999992005041516004+43233-086333FM-18+0185MKGM V0202701N003619999999N9999999N1+00881+99999999999REMSYN069CMAN  15164 MKGM4 46/// /2707 10088 91649 91634 222// 0028 333 10228;
0000997341999992005041517004+43233-086333FM-18+0185MKGM V0202601N004619999999N9999999N1+00881+99999999999
0060997341999992005041518004+43233-086333FM-18+0185MKGM V0202901N003619999999N9999999N1+00951+99999999999REMSYN051CMAN  15184 MKGM4 46/// /2907 10095 91843 91800 16;
0089997341999992005041519004+43233-086333FM-18+0185MKGM V0203101N004119999999N9999999N1+00931+99999999999REMSYN080CMAN  15194 MKGM4 46/// /3108 10093 91945 91934 91900 222// 002981070 555 10124;
0125997341999992005041520004+43233-086333FM-18+0185MKGM V0203101N004619999999N9999999N1+00981+99999999999REMSYN116CMAN  15204 MKGM4 46/// /3109 10098 92044 57013 92000 222// 002985/50 88/58 91001 91107 91205 555 51102 51202 53000;
0060997341999992005041521004+43233-086333FM-18+0185MKGM V0203201N006219999999N9999999N1+00921+99999999999REMSYN051CMAN  15214 MKGM4 46/// /3212 10092 9214 333 91210;
0000997341999992005041523004+43233-086333FM-18+0185MKGM V0203301N007219999999N9999999N1+00981+99999999999
0079997341999992005041600004+43233-086333FM-18+0185MKGM V0203601N002119999999N9999999N1+01041+99999999999REMSYN070CMAN  16004 MKGM4 46/// /3604 10104 90048 90039 90000 222// 002991202;
0000997341999992005041601004+43233-086333FM-18+0185MKGM V0200501N003119999999N9999999N1+01061+99999999999
0085997341999992005041602004+43233-086333FM-18+0185MKGM V0200401N002119999999N9999999N1+00961+99999999999REMSYN076CMAN  16024 MKGM4 46/// /0404 10096 90245 51012 90200 222// 0029943// 911//;
0060997341999992005041603004+43233-086333FM-18+0185MKGM V0200901N004119999999N9999999N1+00851+99999999999REMSYN051CMAN  16034 MKGM4 46/// /0908 10085 90340 33 91205;
0079997341999992005041604004+43233-086333FM-18+0185MKGM V0201101N006719999999N9999999N1+01131+99999999999REMSYN070CMAN  16044 MKGM4 46/// /1113 10113 90443 50000 90400 222// 002985080;
0115997341999992005041605004+43233-086333FM-18+0185MKGM V0201401N005719999999N9999999N1+01141+99999999999REMSYN106CMAN  16054 MKGM4 46/// /1411 10114 90548 58007 90500 222// 002820246 55085 22438 58011 70000 82820 86080;
0060997341999992005041606004+43233-086333FM-18+0185MKGM V0201401N005119999999N9999999N1+01061+99999999999REMSYN051CMAN  16064 MKGM4 46/// /1410 10106 9064 333 91206;
0060997341999992005041607004+43233-086333FM-18+0185MKGM V0201501N003119999999N9999999N1+00901+99999999999REMSYN051CMAN  16074 MKGM4 46/// /1506 10090 9074 333 91204;
0060997341999992005041608004+43233-086333FM-18+0185MKGM V0201301N002619999999N9999999N1+00821+99999999999REMSYN051CMAN  16084 MKGM4 46/// /1305 10082 9084 333 91204;
0000997341999992005041609004+43233-086333FM-18+0185MKGM V0201201N003119999999N9999999N1+00711+99999999999
0000997341999992005041610004+43233-086333FM-18+0185MKGM V0201101N003619999999N9999999N1+00701+99999999999
0060997341999992005041611004+43233-086333FM-18+0185MKGM V0201101N003119999999N9999999N1+00691+99999999999REMSYN051CMAN  16114 MKGM4 46/// /1106 10069 9114 333 91201;
0060997341999992005041612004+43233-086333FM-18+0185MKGM V0201401N002619999999N9999999N1+00941+99999999999REMSYN051CMAN  16124 MKGM4 46/// /1405 10094 91247 91258 01;
0149997341999992005041613004+43233-086333FM-18+0185MKGM V0201601N004119999999N9999999N1+00891+99999999999REMSYN140CMAN  16134 MKGM4 46/// /1608 10089 91347 91340 91300 222// 002852010 70211 821/5 22224 00269 20304 3//// 4//// 5//// 6//// 80198 ICE /////;
0080997341999992005041616004+43233-086333FM-18+0185MKGM V0201601N006219999999N9999999N1+01201+99999999999REMSYN071CMAN  16164 MKGM4 46/// /1612 10120 91648 91639 91600 222// 0028 70200;
0060997341999992005041617004+43233-086333FM-18+0185MKGM V0201701N005719999999N9999999N1+01191+99999999999REMSYN051CMAN  16174 MKGM4 46/// /1711 10119 9174 333 91206;
0085997341999992005041618004+43233-086333FM-18+0185MKGM V0201701N003619999999N9999999N1+01171+99999999999REMSYN076CMAN  16184 MKGM4 46/// /1707 10117 91844 58013 91800 222// 002987656 92439;
0085997341999992005041619004+43233-086333FM-18+0185MKGM V0201601N004119999999N9999999N1+01331+99999999999REMSYN076CMAN  16194 MKGM4 46/// /1608 10133 91940 91941 91900 222// 002988656 92439;
0060997341999992005041620004+43233-086333FM-18+0185MKGM V0201901N002119999999N9999999N1+01241+99999999999REMSYN051CMAN  16204 MKGM4 46/// /1904 10124 9204 333 91214;
0068997341999992005041621004+43233-086333FM-18+0185MKGM V0202001N002119999999N9999999N1+01241+99999999999REMSYN059CMAN  16214 MKGM4 46/// /2004 10124 92148 58008 92100 3014;
0000997341999992005041622004+43233-086333FM-18+0185MKGM V0201801N000519999999N9999999N1+01261+99999999999
0060997341999992005041623004+43230-086330FM-18+0185MKGM V0201601N001519999999N9999999N1+01261+99999999999REMSYN051CMAN  16234 MKGM4 46/// /1603 10126 9234 333 91208;
0068997341999992005041700004+43230-086330FM-18+0185MKGM V0201501N003119999999N9999999N1+01291+99999999999REMSYN059CMAN  17004 MKGM4 46/// /1506 10129 90043 90000 222// 0029;
0000997341999992005041701004+43230-086330FM-18+0185MKGM V0201501N002119999999N9999999N1+01301+99999999999
0060997341999992005041702004+43230-086330FM-18+0185MKGM V0201401N002619999999N9999999N1+01431+99999999999REMSYN051CMAN  17024 MKGM4 46/// /1405 10143 9024 333 91204;
0091997341999992005041703004+43230-086330FM-18+0185MKGM V0201201N002619999999N9999999N1+01421+99999999999REMSYN082CMAN  17034 MKGM4 46/// /1205 10142 90345 51012 90300 222// 00297 333 91210 5//99;
0079997341999992005041704004+43230-086330FM-18+0185MKGM V0203201N004619999999N9999999N1+01161+99999999999REMSYN070CMAN  17044 MKGM4 46/// /3209 10116 90442 50000 90400 222// 002991204;
0000997341999992005041705004+43230-086330FM-18+0185MKGM V0203101N004619999999N9999999N1+00901+99999999999
0060997341999992005041706004+43230-086330FM-18+0185MKGM V0201501N002119999999N9999999N1+01231+99999999999REMSYN051CMAN  17064 MKGM4 46/// /1504 10123 9064 333 91204;
0060997341999992005041707004+43230-086330FM-18+0185MKGM V0201701N001519999999N9999999N1+01141+99999999999REMSYN051CMAN  17074 MKGM4 46/// /1703 10114 9074 333 91204;
0000997341999992005041708004+43230-086330FM-18+0185MKGM V0201701N001519999999N9999999N1+00861+99999999999
0000997341999992005041709004+43230-086330FM-18+0185MKGM V0200701N003119999999N9999999N1+01151+99999999999
0075997341999992005041710004+43230-086330FM-18+0185MKGM V0200801N003619999999N9999999N1+01181+99999999999REMSYN066CMAN  17104 MKGM4 46/// /0807 10118 91042 53008 91000 222// 0028/;
0075997341999992005041710004+43233-086333FM-18+0185MKGM V0200801N003619999999N9999999N1+01181+99999999999REMSYN066CMAN  17104 MKGM4 46/// /0807 10118 91042 53008 91000 222// 0028/;
0259997341999992005041711004+43230-086330FM-18+0185MKGM V0201201N001519999999N9999999N1+01171+99999999999REMSYN250CMAN  17114 MKGM4 46/// /1203 10117 91141 53019 91100 222// 0028 8531/ 333 56399 59006 85918 88462 555 91712 91324 32474 80406 10267 20244 30085 40087 8321/ 333 56199 59027 83818 88463 555 91712 91336 32474 81215 10267 20239 30118 40121 8231/ 333 563
0060997341999992005041712004+43230-086330FM-18+0185MKGM V0202101N002119999999N9999999N1+00821+99999999999REMSYN051CMAN  17124 MKGM4 46/// /2104 10082 9124 333 91204;
0080997341999992005041713004+43230-086330FM-18+0185MKGM V0203201N003119999999N9999999N1+00911+99999999999REMSYN071CMAN  17134 MKGM4 46/// /3206 10091 91349 51017 91300 222// 0029 2220/;
0000997341999992005041714004+43230-086330FM-18+0185MKGM V0202701N002619999999N9999999N1+01021+99999999999
0091997341999992005041715004+43230-086330FM-18+0185MKGM V0202801N002119999999N9999999N1+01041+99999999999REMSYN082CMAN  17154 MKGM4 46/// /2804 10104 91546 50000 91500 222// 00296 333 91214 51131;
0149997341999992005041716004+43230-086330FM-18+0185MKGM V0203001N002119999999N9999999N1+01131+99999999999REMSYN140CMAN  17164 MKGM4 46/// /3004 10113 91641 58008 91600 222// 002952030 7//22 86242 22233 00150 20402 328// 40803 5//// 6//// 80081 ICE /////;
0000997341999992005041717004+43230-086330FM-18+0185MKGM V0203001N002619999999N9999999N1+01181+99999999999
0060997341999992005041718004+43230-086330FM-18+0185MKGM V0203201N003619999999N9999999N1+01231+99999999999REMSYN051CMAN  17184 MKGM4 46/// /3207 10123 9184 333 91209;
0000997341999992005041719004+43230-086330FM-18+0185MKGM V0203101N004619999999N9999999N1+01291+99999999999
0090997341999992005041720004+43230-086330FM-18+0185MKGM V0203201N004619999999N9999999N1+01051+99999999999REMSYN081CMAN  17204 MKGM4 46/// /3209 10105 92041 56013 92000 222// 00293819 943// 911//;
0096997341999992005041721004+43230-086330FM-18+0185MKGM V0203301N005119999999N9999999N1+01081+99999999999REMSYN087CMAN  17214 MKGM4 46/// /3310 10108 92149 56008 92100 222// 00309 333 91214 5642 87657;
0079997341999992005041722004+43230-086330FM-18+0185MKGM V0203301N006219999999N9999999N1+01201+99999999999REMSYN070CMAN  17224 MKGM4 46/// /3312 10120 92241 56003 92200 222// 002988464;
0115997341999992005041723004+43233-086333FM-18+0185MKGM V0203201N006219999999N9999999N1+01201+99999999999REMSYN106CMAN  17234 MKGM4 46/// /3212 10120 92345 53004 92300 222// 002920238 50730 55114 58005 7//// 81817 86080;
0097997341999992005041800004+43233-086333FM-18+0185MKGM V0203201N004119999999N9999999N1+01021+99999999999REMSYN088CMAN  18004 MKGM4 46/// /3208 10102 90041 53012 90000 222// 00293 333 91212 5//// 60041;
0085997341999992005041801004+43233-086333FM-18+0185MKGM V0203501N003119999999N9999999N1+00971+99999999999REMSYN076CMAN  18014 MKGM4 46/// /3506 10097 90144 51013 90100 222// 002991104 91203;
0074997341999992005041802004+43233-086333FM-18+0185MKGM V0200201N002119999999N9999999N1+01131+99999999999REMSYN065CMAN  18024 MKGM4 46/// /0204 10113 90245 51010 90200 222// 0029;
0000997341999992005041803004+43233-086333FM-18+0185MKGM V0200401N002619999999N9999999N1+01371+99999999999
0000997341999992005041804004+43233-086333FM-18+0185MKGM V0200501N002119999999N9999999N1+01171+99999999999
0078997341999992005041805004+43233-086333FM-18+0185MKGM V0200701N003619999999N9999999N1+01191+99999999999REMSYN069CMAN  18054 MKGM4 46/// /0707 10119 90546 58009 90500 222// 00299987;
0088997341999992005041807004+43233-086333FM-18+0185MKGM V0200701N004619999999N9999999N1+01111+99999999999REMSYN079CMAN  18074 MKGM4 46/// /0709 10111 90745 90700 222// 00298 333 91208 57 22008;
0000997341999992005041808004+43233-086333FM-18+0185MKGM V0200701N005719999999N9999999N1+01071+99999999999
0060997341999992005041809004+43233-086333FM-18+0185MKGM V0200801N005119999999N9999999N1+01091+99999999999REMSYN051CMAN  18094 MKGM4 46/// /0810 10109 9094 333 91202;
0000997341999992005041810004+43233-086333FM-18+0185MKGM V0200801N003619999999N9999999N1+01021+99999999999
0155997341999992005041811004+43233-086333FM-18+0185MKGM V0200901N004119999999N9999999N1+01021+99999999999REMSYN146CMAN  18114 MKGM4 46/// /0908 10102 91147 51014 91100 222// 00287 333 91210 503 22003 31150 406008 61149 060005 049003 059004 050003 04019 111017;
0000997341999992005041812004+43233-086333FM-18+0185MKGM V0200701N003619999999N9999999N1+01191+99999999999
0203997341999992005041813004+43233-086333FM-18+0185MKGM V0200801N002619999999N9999999N1+01311+99999999999REMSYN194CMAN  18134 MKGM4 46/// /0805 10131 91343 51011 91254 222// 00177 333 91208 5 11107 20704 328// 41105 70033 333 91210 555 11095 22102 31341 43211 61349 324090 323090 318087 313087 317085 317087;
0060997341999992005041814004+43233-086333FM-18+0185MKGM V0200901N001519999999N9999999N1+01131+99999999999REMSYN051CMAN  18144 MKGM4 46/// /0903 10113 9144 333 91207;
0103997341999992005041815004+43233-086333FM-18+0185MKGM V0200801N003119999999N9999999N1+01551+99999999999REMSYN094CMAN  18154 MKGM4 46/// /0806 10155 91540 54000 91500 222// 0030/ 41203 333 1//// 2//// 9////;
0000997341999992005041816004+43233-086333FM-18+0185MKGM V0200701N003619999999N9999999N1+01851+99999999999
0000997341999992005041817004+43233-086333FM-18+0185MKGM V0201901N003119999999N9999999N1+01211+99999999999
0079997341999992005041818004+43233-086333FM-18+0185MKGM V0202001N002619999999N9999999N1+01321+99999999999REMSYN070CMAN  18184 MKGM4 46/// /2005 10132 91847 56013 91800 222// 003022234;
0102997341999992005041819004+43233-086333FM-18+0185MKGM V0202001N003119999999N9999999N1+01391+99999999999REMSYN093CMAN  18194 MKGM4 46/// /2006 10139 91949 91939 91900 222// 0029 30198 91800 333 66070 92429;
0079997341999992005041820004+43233-086333FM-18+0185MKGM V0201701N003619999999N9999999N1+01521+99999999999REMSYN070CMAN  18204 MKGM4 46/// /1707 10152 92048 92058 92000 222// 002981635;
0000997341999992005041821004+43233-086333FM-18+0185MKGM V0201701N004119999999N9999999N1+01431+99999999999
0000997341999992005041822004+43233-086333FM-18+0185MKGM V0201601N004619999999N9999999N1+01481+99999999999
0095997341999992005041823004+43233-086333FM-18+0185MKGM V0201601N005119999999N9999999N1+01691+99999999999REMSYN086CMAN  18234 MKGM4 46/// /1610 10169 92342 53009 92300 222// 002990710 91119 555 60005;
0090997341999992005041900004+43233-086333FM-18+0185MKGM V0201101N001519999999N9999999N1+01701+99999999999REMSYN081CMAN  19004 MKGM4 46/// /1103 10170 90047 54000 90000 222// 00204 333 91212 5106;
0077997341999992005041901004+43233-086333FM-18+0185MKGM V0201201N003619999999N9999999N1+01721+99999999999REMSYN068CMAN  19014 MKGM4 46/// /1207 10172 90145 90129 90100 222// 0028/81;
0125997341999992005041902004+43233-086333FM-18+0185MKGM V0201201N003619999999N9999999N1+01661+99999999999REMSYN116CMAN  19024 MKGM4 46/// /1207 10166 90248 53006 90200 222// 002882/34 87/44 88/49 91001 91103 91202 555 51103 51202;
0000997341999992005041903004+43233-086333FM-18+0185MKGM V0201301N002619999999N9999999N1+01631+99999999999
0091997341999992005041904004+43233-086333FM-18+0185MKGM V0201501N004619999999N9999999N1+01731+99999999999REMSYN082CMAN  19044 MKGM4 46/// /1509 10173 90446 51003 90400 222// 002881708 83656 87363;
0101997341999992005041905004+43233-086333FM-18+0185MKGM V0201601N005719999999N9999999N1+01391+99999999999REMSYN092CMAN  19054 MKGM4 46/// /1611 10139 90541 58007 90500 222// 002821164 91011 555 11120 90982;
0000997341999992005041906004+43233-086333FM-18+0185MKGM V0201601N005719999999N9999999N1+01301+99999999999
0091997341999992005041907004+43233-086333FM-18+0185MKGM V0201701N008219999999N9999999N1+01471+99999999999REMSYN082CMAN  19074 MKGM4 46/// /1716 10147 90747 58019 90700 222// 00284 333 91210 5///0;
0060997341999992005041908004+43233-086333FM-18+0185MKGM V0201901N003619999999N9999999N1+01061+99999999999REMSYN051CMAN  19084 MKGM4 46/// /1907 10106 90840 33 91200;
0000997341999992005041909004+43233-086333FM-18+0185MKGM V0202301N005719999999N9999999N1+00931+99999999999
0000997341999992005041910004+43233-086333FM-18+0185MKGM V0201801N005719999999N9999999N1+01001+99999999999
0066997341999992005041911004+43233-086333FM-18+0185MKGM V0201601N006719999999N9999999N1+00981+99999999999REMSYN057CMAN  19114 MKGM4 46/// /1613 10098 9114 91154 333 91208;
0079997341999992005041912004+43233-086333FM-18+0185MKGM V0201601N006219999999N9999999N1+01131+99999999999REMSYN070CMAN  19124 MKGM4 46/// /1612 10113 91249 52011 91200 005 90710 91112;
0000997341999992005041913004+43233-086333FM-18+0185MKGM V0201601N009319999999N9999999N1+01191+99999999999
0060997341999992005041914004+43233-086333FM-18+0185MKGM V0201601N008719999999N9999999N1+01201+99999999999REMSYN051CMAN  19144 MKGM4 46/// /1617 10120 9144 333 91210;
0000997341999992005041915004+43233-086333FM-18+0185MKGM V0201601N008219999999N9999999N1+01241+99999999999
0000997341999992005041916004+43233-086333FM-18+0185MKGM V0201601N008219999999N9999999N1+01271+99999999999
0000997341999992005041917004+43233-086333FM-18+0185MKGM V0201701N007219999999N9999999N1+01291+99999999999
